{"contracts/dapps/curation/CurationGauge.sol":{"CurationGauge":{"abi":[{"inputs":[{"internalType":"address","name":"_community","type":"address"},{"internalType":"string","name":"_name","type":"string"},{"internalType":"address","name":"_recipient","type":"address"}],"stateMutability":"nonpayable","type":"constructor"},{"anonymous":false,"inputs":[{"indexed":true,"internalType":"address","name":"oldRecipent","type":"address"},{"indexed":true,"internalType":"address","name":"newRecipient","type":"address"}],"name":"ChangeRecipient","type":"event"},{"anonymous":false,"inputs":[],"name":"PoolStarted","type":"event"},{"anonymous":false,"inputs":[{"indexed":true,"internalType":"uint256","name":"amount","type":"uint256"}],"name":"WithdrawRewardsToRecipient","type":"event"},{"inputs":[{"internalType":"address","name":"_recipient","type":"address"}],"name":"adminSetRecipient","outputs":[],"stateMutability":"nonpayable","type":"function"},{"inputs":[],"name":"community","outputs":[{"internalType":"address","name":"","type":"address"}],"stateMutability":"view","type":"function"},{"inputs":[],"name":"getCommunity","outputs":[{"internalType":"address","name":"","type":"address"}],"stateMutability":"view","type":"function"},{"inputs":[],"name":"getFactory","outputs":[{"internalType":"address","name":"","type":"address"}],"stateMutability":"view","type":"function"},{"inputs":[],"name":"getTotalStakedAmount","outputs":[{"internalType":"uint256","name":"","type":"uint256"}],"stateMutability":"view","type":"function"},{"inputs":[{"internalType":"address","name":"user","type":"address"}],"name":"getUserStakedAmount","outputs":[{"internalType":"uint256","name":"","type":"uint256"}],"stateMutability":"view","type":"function"},{"inputs":[],"name":"name","outputs":[{"internalType":"string","name":"","type":"string"}],"stateMutability":"view","type":"function"},{"inputs":[],"name":"poolStarted","outputs":[{"internalType":"bool","name":"","type":"bool"}],"stateMutability":"view","type":"function"},{"inputs":[],"name":"recipient","outputs":[{"internalType":"address","name":"","type":"address"}],"stateMutability":"view","type":"function"},{"inputs":[],"name":"startPool","outputs":[],"stateMutability":"nonpayable","type":"function"},{"inputs":[],"name":"withdrawRewardsToRecipient","outputs":[],"stateMutability":"nonpayable","type":"function"}],"evm":{"bytecode":{"linkReferences":{},"object":"60a06040523480156200001157600080fd5b5060405162000d8738038062000d8783398101604081905262000034916200018b565b600160008190553360601b60805260028054610100600160a81b0319166101006001600160a01b0387160217905582516200007591906020850190620000c8565b50600380546001600160a01b0319166001600160a01b0383169081179091556040516000907f68dd0f2c9ca18dce1e14e2e3f99123a6292bfde61698d10163545ee09a2bb7bb908290a350505062000308565b828054620000d69062000283565b90600052602060002090601f016020900481019282620000fa576000855562000145565b82601f106200011557805160ff191683800117855562000145565b8280016001018555821562000145579182015b828111156200014557825182559160200191906001019062000128565b506200015392915062000157565b5090565b5b8082111562000153576000815560010162000158565b80516001600160a01b03811681146200018657600080fd5b919050565b600080600060608486031215620001a0578283fd5b620001ab846200016e565b602085810151919450906001600160401b0380821115620001ca578485fd5b818701915087601f830112620001de578485fd5b815181811115620001f357620001f3620002d9565b604051601f8201601f1916810185018381118282101715620002195762000219620002d9565b60405281815283820185018a101562000230578687fd5b8692505b8183101562000253578383018501518184018601529184019162000234565b818311156200026457868583830101525b80965050505050506200027a604085016200016e565b90509250925092565b6002810460018216806200029857607f821691505b60208210811415620002d3577f4e487b7100000000000000000000000000000000000000000000000000000000600052602260045260246000fd5b50919050565b7f4e487b7100000000000000000000000000000000000000000000000000000000600052604160045260246000fd5b60805160601c610a606200032760003960006103fd0152610a606000f3fe608060405234801561001057600080fd5b50600436106100995760003560e01c80630309a27e1461009e57806306fdde03146100a857806338adb6f0146100c657806366d003ac146100db57806388cc58e4146100f057806394465b21146100f85780639a4069c51461010b578063c51db6b21461011e578063dc1fb5a514610126578063e3332f931461012e578063fa08c90814610143575b600080fd5b6100a661014b565b005b6100b0610358565b6040516100bd9190610868565b60405180910390f35b6100ce6103e6565b6040516100bd91906109a2565b6100e36103ec565b6040516100bd91906107e3565b6100e36103fb565b6100ce610106366004610750565b61041f565b6100a6610119366004610750565b610444565b6100e3610546565b6100e361055a565b61013661056e565b6040516100bd919061085d565b6100a6610577565b60408051600180825281830190925260009160208083019080368337019050509050308160008151811061018f57634e487b7160e01b600052603260045260246000fd5b6001600160a01b039283166020918202929092010152600254604051631e50805b60e21b815261010090910490911690637942016c906101d3908490600401610810565b600060405180830381600087803b1580156101ed57600080fd5b505af1158015610201573d6000803e3d6000fd5b505050506000600260019054906101000a90046001600160a01b03166001600160a01b03166399efcaec6040518163ffffffff1660e01b815260040160206040518083038186803b15801561025557600080fd5b505afa158015610269573d6000803e3d6000fd5b505050506040513d601f19601f8201168201806040525081019061028d9190610773565b90506000816001600160a01b03166370a08231306040518263ffffffff1660e01b81526004016102bd91906107e3565b60206040518083038186803b1580156102d557600080fd5b505afa1580156102e9573d6000803e3d6000fd5b505050506040513d601f19601f8201168201806040525081019061030d91906107af565b6003549091506103289083906001600160a01b03168361062d565b60405181907fba2c90d43e3865c0bf465b80929fceeb2e0a2623c07973d81118460d549711b490600090a2505050565b60018054610365906109d7565b80601f0160208091040260200160405190810160405280929190818152602001828054610391906109d7565b80156103de5780601f106103b3576101008083540402835291602001916103de565b820191906000526020600020905b8154815290600101906020018083116103c157829003601f168201915b505050505081565b60045490565b6003546001600160a01b031681565b7f000000000000000000000000000000000000000000000000000000000000000090565b60006001600160a01b03821630141561043b575060045461043f565b5060005b919050565b60025460408051638da5cb5b60e01b81529051339261010090046001600160a01b031691638da5cb5b916004808301926020929190829003018186803b15801561048d57600080fd5b505afa1580156104a1573d6000803e3d6000fd5b505050506040513d601f19601f820116820180604052508101906104c59190610773565b6001600160a01b0316146104f45760405162461bcd60e51b81526004016104eb90610955565b60405180910390fd5b600380546001600160a01b038381166001600160a01b0319831681179093556040519116919082907f68dd0f2c9ca18dce1e14e2e3f99123a6292bfde61698d10163545ee09a2bb7bb90600090a35050565b60025461010090046001600160a01b031690565b60025461010090046001600160a01b031681565b60025460ff1681565b600454156105975760405162461bcd60e51b81526004016104eb906108ff565b60025460405163579dea7960e11b81526101009091046001600160a01b03169063af3bd4f2906105cb9030906004016108d0565b600060405180830381600087803b1580156105e557600080fd5b505af11580156105f9573d6000803e3d6000fd5b5050600160045550506040517f960682678fca98f3ed131eaf165e59544bcd738e948f0b3c64f58fa9e1c65e6090600090a1565b8261063981848461063f565b50505050565b6106958363a9059cbb60e01b848460405160240161065e9291906107f7565b60408051601f198184030181529190526020810180516001600160e01b03166001600160e01b03199093169290921790915261069a565b505050565b600080836001600160a01b0316836040516106b591906107c7565b6000604051808303816000865af19150503d80600081146106f2576040519150601f19603f3d011682016040523d82523d6000602084013e6106f7565b606091505b5091509150816107195760405162461bcd60e51b81526004016104eb90610929565b8051156106395780806020019051810190610734919061078f565b6106395760405162461bcd60e51b81526004016104eb9061089b565b600060208284031215610761578081fd5b813561076c81610a12565b9392505050565b600060208284031215610784578081fd5b815161076c81610a12565b6000602082840312156107a0578081fd5b8151801515811461076c578182fd5b6000602082840312156107c0578081fd5b5051919050565b600082516107d98184602087016109ab565b9190910192915050565b6001600160a01b0391909116815260200190565b6001600160a01b03929092168252602082015260400190565b6020808252825182820181905260009190848201906040850190845b818110156108515783516001600160a01b03168352928401929184019160010161082c565b50909695505050505050565b901515815260200190565b60006020825282518060208401526108878160408501602087016109ab565b601f01601f19169190910160400192915050565b6020808252818101527f45524332303a206f7065726174696f6e20646964206e6f742073756363656564604082015260600190565b6040808252600490820152632aa9a2a960e11b60608201526001600160a01b0391909116602082015260800190565b60208082526010908201526f141bdbdb081a185cc81cdd185c9d195960821b604082015260600190565b602080825260129082015271115490cc8c0e8818d85b1b0819985a5b195960721b604082015260600190565b6020808252602d908201527f4f6e6c792074686520636f6d6d756e697479206f776e65722063616e2063686160408201526c1b99d9481c9958da5c1a595b9d609a1b606082015260800190565b90815260200190565b60005b838110156109c65781810151838201526020016109ae565b838111156106395750506000910152565b6002810460018216806109eb57607f821691505b60208210811415610a0c57634e487b7160e01b600052602260045260246000fd5b50919050565b6001600160a01b0381168114610a2757600080fd5b5056fea26469706673582212206610462bd45325f54eac14a461221247b8f4f301d30a345ad6713fd60839d11b64736f6c63430008000033","opcodes":"PUSH1 0xA0 PUSH1 0x40 MSTORE CALLVALUE DUP1 ISZERO PUSH3 0x11 JUMPI PUSH1 0x0 DUP1 REVERT JUMPDEST POP PUSH1 0x40 MLOAD PUSH3 0xD87 CODESIZE SUB DUP1 PUSH3 0xD87 DUP4 CODECOPY DUP2 ADD PUSH1 0x40 DUP2 SWAP1 MSTORE PUSH3 0x34 SWAP2 PUSH3 0x18B JUMP JUMPDEST PUSH1 0x1 PUSH1 0x0 DUP2 SWAP1 SSTORE CALLER PUSH1 0x60 SHL PUSH1 0x80 MSTORE PUSH1 0x2 DUP1 SLOAD PUSH2 0x100 PUSH1 0x1 PUSH1 0xA8 SHL SUB NOT AND PUSH2 0x100 PUSH1 0x1 PUSH1 0x1 PUSH1 0xA0 SHL SUB DUP8 AND MUL OR SWAP1 SSTORE DUP3 MLOAD PUSH3 0x75 SWAP2 SWAP1 PUSH1 0x20 DUP6 ADD SWAP1 PUSH3 0xC8 JUMP JUMPDEST POP PUSH1 0x3 DUP1 SLOAD PUSH1 0x1 PUSH1 0x1 PUSH1 0xA0 SHL SUB NOT AND PUSH1 0x1 PUSH1 0x1 PUSH1 0xA0 SHL SUB DUP4 AND SWAP1 DUP2 OR SWAP1 SWAP2 SSTORE PUSH1 0x40 MLOAD PUSH1 0x0 SWAP1 PUSH32 0x68DD0F2C9CA18DCE1E14E2E3F99123A6292BFDE61698D10163545EE09A2BB7BB SWAP1 DUP3 SWAP1 LOG3 POP POP POP PUSH3 0x308 JUMP JUMPDEST DUP3 DUP1 SLOAD PUSH3 0xD6 SWAP1 PUSH3 0x283 JUMP JUMPDEST SWAP1 PUSH1 0x0 MSTORE PUSH1 0x20 PUSH1 0x0 KECCAK256 SWAP1 PUSH1 0x1F ADD PUSH1 0x20 SWAP1 DIV DUP2 ADD SWAP3 DUP3 PUSH3 0xFA JUMPI PUSH1 0x0 DUP6 SSTORE PUSH3 0x145 JUMP JUMPDEST DUP3 PUSH1 0x1F LT PUSH3 0x115 JUMPI DUP1 MLOAD PUSH1 0xFF NOT AND DUP4 DUP1 ADD OR DUP6 SSTORE PUSH3 0x145 JUMP JUMPDEST DUP3 DUP1 ADD PUSH1 0x1 ADD DUP6 SSTORE DUP3 ISZERO PUSH3 0x145 JUMPI SWAP2 DUP3 ADD JUMPDEST DUP3 DUP2 GT ISZERO PUSH3 0x145 JUMPI DUP3 MLOAD DUP3 SSTORE SWAP2 PUSH1 0x20 ADD SWAP2 SWAP1 PUSH1 0x1 ADD SWAP1 PUSH3 0x128 JUMP JUMPDEST POP PUSH3 0x153 SWAP3 SWAP2 POP PUSH3 0x157 JUMP JUMPDEST POP SWAP1 JUMP JUMPDEST JUMPDEST DUP1 DUP3 GT ISZERO PUSH3 0x153 JUMPI PUSH1 0x0 DUP2 SSTORE PUSH1 0x1 ADD PUSH3 0x158 JUMP JUMPDEST DUP1 MLOAD PUSH1 0x1 PUSH1 0x1 PUSH1 0xA0 SHL SUB DUP2 AND DUP2 EQ PUSH3 0x186 JUMPI PUSH1 0x0 DUP1 REVERT JUMPDEST SWAP2 SWAP1 POP JUMP JUMPDEST PUSH1 0x0 DUP1 PUSH1 0x0 PUSH1 0x60 DUP5 DUP7 SUB SLT ISZERO PUSH3 0x1A0 JUMPI DUP3 DUP4 REVERT JUMPDEST PUSH3 0x1AB DUP5 PUSH3 0x16E JUMP JUMPDEST PUSH1 0x20 DUP6 DUP2 ADD MLOAD SWAP2 SWAP5 POP SWAP1 PUSH1 0x1 PUSH1 0x1 PUSH1 0x40 SHL SUB DUP1 DUP3 GT ISZERO PUSH3 0x1CA JUMPI DUP5 DUP6 REVERT JUMPDEST DUP2 DUP8 ADD SWAP2 POP DUP8 PUSH1 0x1F DUP4 ADD SLT PUSH3 0x1DE JUMPI DUP5 DUP6 REVERT JUMPDEST DUP2 MLOAD DUP2 DUP2 GT ISZERO PUSH3 0x1F3 JUMPI PUSH3 0x1F3 PUSH3 0x2D9 JUMP JUMPDEST PUSH1 0x40 MLOAD PUSH1 0x1F DUP3 ADD PUSH1 0x1F NOT AND DUP2 ADD DUP6 ADD DUP4 DUP2 GT DUP3 DUP3 LT OR ISZERO PUSH3 0x219 JUMPI PUSH3 0x219 PUSH3 0x2D9 JUMP JUMPDEST PUSH1 0x40 MSTORE DUP2 DUP2 MSTORE DUP4 DUP3 ADD DUP6 ADD DUP11 LT ISZERO PUSH3 0x230 JUMPI DUP7 DUP8 REVERT JUMPDEST DUP7 SWAP3 POP JUMPDEST DUP2 DUP4 LT ISZERO PUSH3 0x253 JUMPI DUP4 DUP4 ADD DUP6 ADD MLOAD DUP2 DUP5 ADD DUP7 ADD MSTORE SWAP2 DUP5 ADD SWAP2 PUSH3 0x234 JUMP JUMPDEST DUP2 DUP4 GT ISZERO PUSH3 0x264 JUMPI DUP7 DUP6 DUP4 DUP4 ADD ADD MSTORE JUMPDEST DUP1 SWAP7 POP POP POP POP POP POP PUSH3 0x27A PUSH1 0x40 DUP6 ADD PUSH3 0x16E JUMP JUMPDEST SWAP1 POP SWAP3 POP SWAP3 POP SWAP3 JUMP JUMPDEST PUSH1 0x2 DUP2 DIV PUSH1 0x1 DUP3 AND DUP1 PUSH3 0x298 JUMPI PUSH1 0x7F DUP3 AND SWAP2 POP JUMPDEST PUSH1 0x20 DUP3 LT DUP2 EQ ISZERO PUSH3 0x2D3 JUMPI PUSH32 0x4E487B7100000000000000000000000000000000000000000000000000000000 PUSH1 0x0 MSTORE PUSH1 0x22 PUSH1 0x4 MSTORE PUSH1 0x24 PUSH1 0x0 REVERT JUMPDEST POP SWAP2 SWAP1 POP JUMP JUMPDEST PUSH32 0x4E487B7100000000000000000000000000000000000000000000000000000000 PUSH1 0x0 MSTORE PUSH1 0x41 PUSH1 0x4 MSTORE PUSH1 0x24 PUSH1 0x0 REVERT JUMPDEST PUSH1 0x80 MLOAD PUSH1 0x60 SHR PUSH2 0xA60 PUSH3 0x327 PUSH1 0x0 CODECOPY PUSH1 0x0 PUSH2 0x3FD ADD MSTORE PUSH2 0xA60 PUSH1 0x0 RETURN INVALID PUSH1 0x80 PUSH1 0x40 MSTORE CALLVALUE DUP1 ISZERO PUSH2 0x10 JUMPI PUSH1 0x0 DUP1 REVERT JUMPDEST POP PUSH1 0x4 CALLDATASIZE LT PUSH2 0x99 JUMPI PUSH1 0x0 CALLDATALOAD PUSH1 0xE0 SHR DUP1 PUSH4 0x309A27E EQ PUSH2 0x9E JUMPI DUP1 PUSH4 0x6FDDE03 EQ PUSH2 0xA8 JUMPI DUP1 PUSH4 0x38ADB6F0 EQ PUSH2 0xC6 JUMPI DUP1 PUSH4 0x66D003AC EQ PUSH2 0xDB JUMPI DUP1 PUSH4 0x88CC58E4 EQ PUSH2 0xF0 JUMPI DUP1 PUSH4 0x94465B21 EQ PUSH2 0xF8 JUMPI DUP1 PUSH4 0x9A4069C5 EQ PUSH2 0x10B JUMPI DUP1 PUSH4 0xC51DB6B2 EQ PUSH2 0x11E JUMPI DUP1 PUSH4 0xDC1FB5A5 EQ PUSH2 0x126 JUMPI DUP1 PUSH4 0xE3332F93 EQ PUSH2 0x12E JUMPI DUP1 PUSH4 0xFA08C908 EQ PUSH2 0x143 JUMPI JUMPDEST PUSH1 0x0 DUP1 REVERT JUMPDEST PUSH2 0xA6 PUSH2 0x14B JUMP JUMPDEST STOP JUMPDEST PUSH2 0xB0 PUSH2 0x358 JUMP JUMPDEST PUSH1 0x40 MLOAD PUSH2 0xBD SWAP2 SWAP1 PUSH2 0x868 JUMP JUMPDEST PUSH1 0x40 MLOAD DUP1 SWAP2 SUB SWAP1 RETURN JUMPDEST PUSH2 0xCE PUSH2 0x3E6 JUMP JUMPDEST PUSH1 0x40 MLOAD PUSH2 0xBD SWAP2 SWAP1 PUSH2 0x9A2 JUMP JUMPDEST PUSH2 0xE3 PUSH2 0x3EC JUMP JUMPDEST PUSH1 0x40 MLOAD PUSH2 0xBD SWAP2 SWAP1 PUSH2 0x7E3 JUMP JUMPDEST PUSH2 0xE3 PUSH2 0x3FB JUMP JUMPDEST PUSH2 0xCE PUSH2 0x106 CALLDATASIZE PUSH1 0x4 PUSH2 0x750 JUMP JUMPDEST PUSH2 0x41F JUMP JUMPDEST PUSH2 0xA6 PUSH2 0x119 CALLDATASIZE PUSH1 0x4 PUSH2 0x750 JUMP JUMPDEST PUSH2 0x444 JUMP JUMPDEST PUSH2 0xE3 PUSH2 0x546 JUMP JUMPDEST PUSH2 0xE3 PUSH2 0x55A JUMP JUMPDEST PUSH2 0x136 PUSH2 0x56E JUMP JUMPDEST PUSH1 0x40 MLOAD PUSH2 0xBD SWAP2 SWAP1 PUSH2 0x85D JUMP JUMPDEST PUSH2 0xA6 PUSH2 0x577 JUMP JUMPDEST PUSH1 0x40 DUP1 MLOAD PUSH1 0x1 DUP1 DUP3 MSTORE DUP2 DUP4 ADD SWAP1 SWAP3 MSTORE PUSH1 0x0 SWAP2 PUSH1 0x20 DUP1 DUP4 ADD SWAP1 DUP1 CALLDATASIZE DUP4 CALLDATACOPY ADD SWAP1 POP POP SWAP1 POP ADDRESS DUP2 PUSH1 0x0 DUP2 MLOAD DUP2 LT PUSH2 0x18F JUMPI PUSH4 0x4E487B71 PUSH1 0xE0 SHL PUSH1 0x0 MSTORE PUSH1 0x32 PUSH1 0x4 MSTORE PUSH1 0x24 PUSH1 0x0 REVERT JUMPDEST PUSH1 0x1 PUSH1 0x1 PUSH1 0xA0 SHL SUB SWAP3 DUP4 AND PUSH1 0x20 SWAP2 DUP3 MUL SWAP3 SWAP1 SWAP3 ADD ADD MSTORE PUSH1 0x2 SLOAD PUSH1 0x40 MLOAD PUSH4 0x1E50805B PUSH1 0xE2 SHL DUP2 MSTORE PUSH2 0x100 SWAP1 SWAP2 DIV SWAP1 SWAP2 AND SWAP1 PUSH4 0x7942016C SWAP1 PUSH2 0x1D3 SWAP1 DUP5 SWAP1 PUSH1 0x4 ADD PUSH2 0x810 JUMP JUMPDEST PUSH1 0x0 PUSH1 0x40 MLOAD DUP1 DUP4 SUB DUP2 PUSH1 0x0 DUP8 DUP1 EXTCODESIZE ISZERO DUP1 ISZERO PUSH2 0x1ED JUMPI PUSH1 0x0 DUP1 REVERT JUMPDEST POP GAS CALL ISZERO DUP1 ISZERO PUSH2 0x201 JUMPI RETURNDATASIZE PUSH1 0x0 DUP1 RETURNDATACOPY RETURNDATASIZE PUSH1 0x0 REVERT JUMPDEST POP POP POP POP PUSH1 0x0 PUSH1 0x2 PUSH1 0x1 SWAP1 SLOAD SWAP1 PUSH2 0x100 EXP SWAP1 DIV PUSH1 0x1 PUSH1 0x1 PUSH1 0xA0 SHL SUB AND PUSH1 0x1 PUSH1 0x1 PUSH1 0xA0 SHL SUB AND PUSH4 0x99EFCAEC PUSH1 0x40 MLOAD DUP2 PUSH4 0xFFFFFFFF AND PUSH1 0xE0 SHL DUP2 MSTORE PUSH1 0x4 ADD PUSH1 0x20 PUSH1 0x40 MLOAD DUP1 DUP4 SUB DUP2 DUP7 DUP1 EXTCODESIZE ISZERO DUP1 ISZERO PUSH2 0x255 JUMPI PUSH1 0x0 DUP1 REVERT JUMPDEST POP GAS STATICCALL ISZERO DUP1 ISZERO PUSH2 0x269 JUMPI RETURNDATASIZE PUSH1 0x0 DUP1 RETURNDATACOPY RETURNDATASIZE PUSH1 0x0 REVERT JUMPDEST POP POP POP POP PUSH1 0x40 MLOAD RETURNDATASIZE PUSH1 0x1F NOT PUSH1 0x1F DUP3 ADD AND DUP3 ADD DUP1 PUSH1 0x40 MSTORE POP DUP2 ADD SWAP1 PUSH2 0x28D SWAP2 SWAP1 PUSH2 0x773 JUMP JUMPDEST SWAP1 POP PUSH1 0x0 DUP2 PUSH1 0x1 PUSH1 0x1 PUSH1 0xA0 SHL SUB AND PUSH4 0x70A08231 ADDRESS PUSH1 0x40 MLOAD DUP3 PUSH4 0xFFFFFFFF AND PUSH1 0xE0 SHL DUP2 MSTORE PUSH1 0x4 ADD PUSH2 0x2BD SWAP2 SWAP1 PUSH2 0x7E3 JUMP JUMPDEST PUSH1 0x20 PUSH1 0x40 MLOAD DUP1 DUP4 SUB DUP2 DUP7 DUP1 EXTCODESIZE ISZERO DUP1 ISZERO PUSH2 0x2D5 JUMPI PUSH1 0x0 DUP1 REVERT JUMPDEST POP GAS STATICCALL ISZERO DUP1 ISZERO PUSH2 0x2E9 JUMPI RETURNDATASIZE PUSH1 0x0 DUP1 RETURNDATACOPY RETURNDATASIZE PUSH1 0x0 REVERT JUMPDEST POP POP POP POP PUSH1 0x40 MLOAD RETURNDATASIZE PUSH1 0x1F NOT PUSH1 0x1F DUP3 ADD AND DUP3 ADD DUP1 PUSH1 0x40 MSTORE POP DUP2 ADD SWAP1 PUSH2 0x30D SWAP2 SWAP1 PUSH2 0x7AF JUMP JUMPDEST PUSH1 0x3 SLOAD SWAP1 SWAP2 POP PUSH2 0x328 SWAP1 DUP4 SWAP1 PUSH1 0x1 PUSH1 0x1 PUSH1 0xA0 SHL SUB AND DUP4 PUSH2 0x62D JUMP JUMPDEST PUSH1 0x40 MLOAD DUP2 SWAP1 PUSH32 0xBA2C90D43E3865C0BF465B80929FCEEB2E0A2623C07973D81118460D549711B4 SWAP1 PUSH1 0x0 SWAP1 LOG2 POP POP POP JUMP JUMPDEST PUSH1 0x1 DUP1 SLOAD PUSH2 0x365 SWAP1 PUSH2 0x9D7 JUMP JUMPDEST DUP1 PUSH1 0x1F ADD PUSH1 0x20 DUP1 SWAP2 DIV MUL PUSH1 0x20 ADD PUSH1 0x40 MLOAD SWAP1 DUP2 ADD PUSH1 0x40 MSTORE DUP1 SWAP3 SWAP2 SWAP1 DUP2 DUP2 MSTORE PUSH1 0x20 ADD DUP3 DUP1 SLOAD PUSH2 0x391 SWAP1 PUSH2 0x9D7 JUMP JUMPDEST DUP1 ISZERO PUSH2 0x3DE JUMPI DUP1 PUSH1 0x1F LT PUSH2 0x3B3 JUMPI PUSH2 0x100 DUP1 DUP4 SLOAD DIV MUL DUP4 MSTORE SWAP2 PUSH1 0x20 ADD SWAP2 PUSH2 0x3DE JUMP JUMPDEST DUP3 ADD SWAP2 SWAP1 PUSH1 0x0 MSTORE PUSH1 0x20 PUSH1 0x0 KECCAK256 SWAP1 JUMPDEST DUP2 SLOAD DUP2 MSTORE SWAP1 PUSH1 0x1 ADD SWAP1 PUSH1 0x20 ADD DUP1 DUP4 GT PUSH2 0x3C1 JUMPI DUP3 SWAP1 SUB PUSH1 0x1F AND DUP3 ADD SWAP2 JUMPDEST POP POP POP POP POP DUP2 JUMP JUMPDEST PUSH1 0x4 SLOAD SWAP1 JUMP JUMPDEST PUSH1 0x3 SLOAD PUSH1 0x1 PUSH1 0x1 PUSH1 0xA0 SHL SUB AND DUP2 JUMP JUMPDEST PUSH32 0x0 SWAP1 JUMP JUMPDEST PUSH1 0x0 PUSH1 0x1 PUSH1 0x1 PUSH1 0xA0 SHL SUB DUP3 AND ADDRESS EQ ISZERO PUSH2 0x43B JUMPI POP PUSH1 0x4 SLOAD PUSH2 0x43F JUMP JUMPDEST POP PUSH1 0x0 JUMPDEST SWAP2 SWAP1 POP JUMP JUMPDEST PUSH1 0x2 SLOAD PUSH1 0x40 DUP1 MLOAD PUSH4 0x8DA5CB5B PUSH1 0xE0 SHL DUP2 MSTORE SWAP1 MLOAD CALLER SWAP3 PUSH2 0x100 SWAP1 DIV PUSH1 0x1 PUSH1 0x1 PUSH1 0xA0 SHL SUB AND SWAP2 PUSH4 0x8DA5CB5B SWAP2 PUSH1 0x4 DUP1 DUP4 ADD SWAP3 PUSH1 0x20 SWAP3 SWAP2 SWAP1 DUP3 SWAP1 SUB ADD DUP2 DUP7 DUP1 EXTCODESIZE ISZERO DUP1 ISZERO PUSH2 0x48D JUMPI PUSH1 0x0 DUP1 REVERT JUMPDEST POP GAS STATICCALL ISZERO DUP1 ISZERO PUSH2 0x4A1 JUMPI RETURNDATASIZE PUSH1 0x0 DUP1 RETURNDATACOPY RETURNDATASIZE PUSH1 0x0 REVERT JUMPDEST POP POP POP POP PUSH1 0x40 MLOAD RETURNDATASIZE PUSH1 0x1F NOT PUSH1 0x1F DUP3 ADD AND DUP3 ADD DUP1 PUSH1 0x40 MSTORE POP DUP2 ADD SWAP1 PUSH2 0x4C5 SWAP2 SWAP1 PUSH2 0x773 JUMP JUMPDEST PUSH1 0x1 PUSH1 0x1 PUSH1 0xA0 SHL SUB AND EQ PUSH2 0x4F4 JUMPI PUSH1 0x40 MLOAD PUSH3 0x461BCD PUSH1 0xE5 SHL DUP2 MSTORE PUSH1 0x4 ADD PUSH2 0x4EB SWAP1 PUSH2 0x955 JUMP JUMPDEST PUSH1 0x40 MLOAD DUP1 SWAP2 SUB SWAP1 REVERT JUMPDEST PUSH1 0x3 DUP1 SLOAD PUSH1 0x1 PUSH1 0x1 PUSH1 0xA0 SHL SUB DUP4 DUP2 AND PUSH1 0x1 PUSH1 0x1 PUSH1 0xA0 SHL SUB NOT DUP4 AND DUP2 OR SWAP1 SWAP4 SSTORE PUSH1 0x40 MLOAD SWAP2 AND SWAP2 SWAP1 DUP3 SWAP1 PUSH32 0x68DD0F2C9CA18DCE1E14E2E3F99123A6292BFDE61698D10163545EE09A2BB7BB SWAP1 PUSH1 0x0 SWAP1 LOG3 POP POP JUMP JUMPDEST PUSH1 0x2 SLOAD PUSH2 0x100 SWAP1 DIV PUSH1 0x1 PUSH1 0x1 PUSH1 0xA0 SHL SUB AND SWAP1 JUMP JUMPDEST PUSH1 0x2 SLOAD PUSH2 0x100 SWAP1 DIV PUSH1 0x1 PUSH1 0x1 PUSH1 0xA0 SHL SUB AND DUP2 JUMP JUMPDEST PUSH1 0x2 SLOAD PUSH1 0xFF AND DUP2 JUMP JUMPDEST PUSH1 0x4 SLOAD ISZERO PUSH2 0x597 JUMPI PUSH1 0x40 MLOAD PUSH3 0x461BCD PUSH1 0xE5 SHL DUP2 MSTORE PUSH1 0x4 ADD PUSH2 0x4EB SWAP1 PUSH2 0x8FF JUMP JUMPDEST PUSH1 0x2 SLOAD PUSH1 0x40 MLOAD PUSH4 0x579DEA79 PUSH1 0xE1 SHL DUP2 MSTORE PUSH2 0x100 SWAP1 SWAP2 DIV PUSH1 0x1 PUSH1 0x1 PUSH1 0xA0 SHL SUB AND SWAP1 PUSH4 0xAF3BD4F2 SWAP1 PUSH2 0x5CB SWAP1 ADDRESS SWAP1 PUSH1 0x4 ADD PUSH2 0x8D0 JUMP JUMPDEST PUSH1 0x0 PUSH1 0x40 MLOAD DUP1 DUP4 SUB DUP2 PUSH1 0x0 DUP8 DUP1 EXTCODESIZE ISZERO DUP1 ISZERO PUSH2 0x5E5 JUMPI PUSH1 0x0 DUP1 REVERT JUMPDEST POP GAS CALL ISZERO DUP1 ISZERO PUSH2 0x5F9 JUMPI RETURNDATASIZE PUSH1 0x0 DUP1 RETURNDATACOPY RETURNDATASIZE PUSH1 0x0 REVERT JUMPDEST POP POP PUSH1 0x1 PUSH1 0x4 SSTORE POP POP PUSH1 0x40 MLOAD PUSH32 0x960682678FCA98F3ED131EAF165E59544BCD738E948F0B3C64F58FA9E1C65E60 SWAP1 PUSH1 0x0 SWAP1 LOG1 JUMP JUMPDEST DUP3 PUSH2 0x639 DUP2 DUP5 DUP5 PUSH2 0x63F JUMP JUMPDEST POP POP POP POP JUMP JUMPDEST PUSH2 0x695 DUP4 PUSH4 0xA9059CBB PUSH1 0xE0 SHL DUP5 DUP5 PUSH1 0x40 MLOAD PUSH1 0x24 ADD PUSH2 0x65E SWAP3 SWAP2 SWAP1 PUSH2 0x7F7 JUMP JUMPDEST PUSH1 0x40 DUP1 MLOAD PUSH1 0x1F NOT DUP2 DUP5 SUB ADD DUP2 MSTORE SWAP2 SWAP1 MSTORE PUSH1 0x20 DUP2 ADD DUP1 MLOAD PUSH1 0x1 PUSH1 0x1 PUSH1 0xE0 SHL SUB AND PUSH1 0x1 PUSH1 0x1 PUSH1 0xE0 SHL SUB NOT SWAP1 SWAP4 AND SWAP3 SWAP1 SWAP3 OR SWAP1 SWAP2 MSTORE PUSH2 0x69A JUMP JUMPDEST POP POP POP JUMP JUMPDEST PUSH1 0x0 DUP1 DUP4 PUSH1 0x1 PUSH1 0x1 PUSH1 0xA0 SHL SUB AND DUP4 PUSH1 0x40 MLOAD PUSH2 0x6B5 SWAP2 SWAP1 PUSH2 0x7C7 JUMP JUMPDEST PUSH1 0x0 PUSH1 0x40 MLOAD DUP1 DUP4 SUB DUP2 PUSH1 0x0 DUP7 GAS CALL SWAP2 POP POP RETURNDATASIZE DUP1 PUSH1 0x0 DUP2 EQ PUSH2 0x6F2 JUMPI PUSH1 0x40 MLOAD SWAP2 POP PUSH1 0x1F NOT PUSH1 0x3F RETURNDATASIZE ADD AND DUP3 ADD PUSH1 0x40 MSTORE RETURNDATASIZE DUP3 MSTORE RETURNDATASIZE PUSH1 0x0 PUSH1 0x20 DUP5 ADD RETURNDATACOPY PUSH2 0x6F7 JUMP JUMPDEST PUSH1 0x60 SWAP2 POP JUMPDEST POP SWAP2 POP SWAP2 POP DUP2 PUSH2 0x719 JUMPI PUSH1 0x40 MLOAD PUSH3 0x461BCD PUSH1 0xE5 SHL DUP2 MSTORE PUSH1 0x4 ADD PUSH2 0x4EB SWAP1 PUSH2 0x929 JUMP JUMPDEST DUP1 MLOAD ISZERO PUSH2 0x639 JUMPI DUP1 DUP1 PUSH1 0x20 ADD SWAP1 MLOAD DUP2 ADD SWAP1 PUSH2 0x734 SWAP2 SWAP1 PUSH2 0x78F JUMP JUMPDEST PUSH2 0x639 JUMPI PUSH1 0x40 MLOAD PUSH3 0x461BCD PUSH1 0xE5 SHL DUP2 MSTORE PUSH1 0x4 ADD PUSH2 0x4EB SWAP1 PUSH2 0x89B JUMP JUMPDEST PUSH1 0x0 PUSH1 0x20 DUP3 DUP5 SUB SLT ISZERO PUSH2 0x761 JUMPI DUP1 DUP2 REVERT JUMPDEST DUP2 CALLDATALOAD PUSH2 0x76C DUP2 PUSH2 0xA12 JUMP JUMPDEST SWAP4 SWAP3 POP POP POP JUMP JUMPDEST PUSH1 0x0 PUSH1 0x20 DUP3 DUP5 SUB SLT ISZERO PUSH2 0x784 JUMPI DUP1 DUP2 REVERT JUMPDEST DUP2 MLOAD PUSH2 0x76C DUP2 PUSH2 0xA12 JUMP JUMPDEST PUSH1 0x0 PUSH1 0x20 DUP3 DUP5 SUB SLT ISZERO PUSH2 0x7A0 JUMPI DUP1 DUP2 REVERT JUMPDEST DUP2 MLOAD DUP1 ISZERO ISZERO DUP2 EQ PUSH2 0x76C JUMPI DUP2 DUP3 REVERT JUMPDEST PUSH1 0x0 PUSH1 0x20 DUP3 DUP5 SUB SLT ISZERO PUSH2 0x7C0 JUMPI DUP1 DUP2 REVERT JUMPDEST POP MLOAD SWAP2 SWAP1 POP JUMP JUMPDEST PUSH1 0x0 DUP3 MLOAD PUSH2 0x7D9 DUP2 DUP5 PUSH1 0x20 DUP8 ADD PUSH2 0x9AB JUMP JUMPDEST SWAP2 SWAP1 SWAP2 ADD SWAP3 SWAP2 POP POP JUMP JUMPDEST PUSH1 0x1 PUSH1 0x1 PUSH1 0xA0 SHL SUB SWAP2 SWAP1 SWAP2 AND DUP2 MSTORE PUSH1 0x20 ADD SWAP1 JUMP JUMPDEST PUSH1 0x1 PUSH1 0x1 PUSH1 0xA0 SHL SUB SWAP3 SWAP1 SWAP3 AND DUP3 MSTORE PUSH1 0x20 DUP3 ADD MSTORE PUSH1 0x40 ADD SWAP1 JUMP JUMPDEST PUSH1 0x20 DUP1 DUP3 MSTORE DUP3 MLOAD DUP3 DUP3 ADD DUP2 SWAP1 MSTORE PUSH1 0x0 SWAP2 SWAP1 DUP5 DUP3 ADD SWAP1 PUSH1 0x40 DUP6 ADD SWAP1 DUP5 JUMPDEST DUP2 DUP2 LT ISZERO PUSH2 0x851 JUMPI DUP4 MLOAD PUSH1 0x1 PUSH1 0x1 PUSH1 0xA0 SHL SUB AND DUP4 MSTORE SWAP3 DUP5 ADD SWAP3 SWAP2 DUP5 ADD SWAP2 PUSH1 0x1 ADD PUSH2 0x82C JUMP JUMPDEST POP SWAP1 SWAP7 SWAP6 POP POP POP POP POP POP JUMP JUMPDEST SWAP1 ISZERO ISZERO DUP2 MSTORE PUSH1 0x20 ADD SWAP1 JUMP JUMPDEST PUSH1 0x0 PUSH1 0x20 DUP3 MSTORE DUP3 MLOAD DUP1 PUSH1 0x20 DUP5 ADD MSTORE PUSH2 0x887 DUP2 PUSH1 0x40 DUP6 ADD PUSH1 0x20 DUP8 ADD PUSH2 0x9AB JUMP JUMPDEST PUSH1 0x1F ADD PUSH1 0x1F NOT AND SWAP2 SWAP1 SWAP2 ADD PUSH1 0x40 ADD SWAP3 SWAP2 POP POP JUMP JUMPDEST PUSH1 0x20 DUP1 DUP3 MSTORE DUP2 DUP2 ADD MSTORE PUSH32 0x45524332303A206F7065726174696F6E20646964206E6F742073756363656564 PUSH1 0x40 DUP3 ADD MSTORE PUSH1 0x60 ADD SWAP1 JUMP JUMPDEST PUSH1 0x40 DUP1 DUP3 MSTORE PUSH1 0x4 SWAP1 DUP3 ADD MSTORE PUSH4 0x2AA9A2A9 PUSH1 0xE1 SHL PUSH1 0x60 DUP3 ADD MSTORE PUSH1 0x1 PUSH1 0x1 PUSH1 0xA0 SHL SUB SWAP2 SWAP1 SWAP2 AND PUSH1 0x20 DUP3 ADD MSTORE PUSH1 0x80 ADD SWAP1 JUMP JUMPDEST PUSH1 0x20 DUP1 DUP3 MSTORE PUSH1 0x10 SWAP1 DUP3 ADD MSTORE PUSH16 0x141BDBDB081A185CC81CDD185C9D1959 PUSH1 0x82 SHL PUSH1 0x40 DUP3 ADD MSTORE PUSH1 0x60 ADD SWAP1 JUMP JUMPDEST PUSH1 0x20 DUP1 DUP3 MSTORE PUSH1 0x12 SWAP1 DUP3 ADD MSTORE PUSH18 0x115490CC8C0E8818D85B1B0819985A5B1959 PUSH1 0x72 SHL PUSH1 0x40 DUP3 ADD MSTORE PUSH1 0x60 ADD SWAP1 JUMP JUMPDEST PUSH1 0x20 DUP1 DUP3 MSTORE PUSH1 0x2D SWAP1 DUP3 ADD MSTORE PUSH32 0x4F6E6C792074686520636F6D6D756E697479206F776E65722063616E20636861 PUSH1 0x40 DUP3 ADD MSTORE PUSH13 0x1B99D9481C9958DA5C1A595B9D PUSH1 0x9A SHL PUSH1 0x60 DUP3 ADD MSTORE PUSH1 0x80 ADD SWAP1 JUMP JUMPDEST SWAP1 DUP2 MSTORE PUSH1 0x20 ADD SWAP1 JUMP JUMPDEST PUSH1 0x0 JUMPDEST DUP4 DUP2 LT ISZERO PUSH2 0x9C6 JUMPI DUP2 DUP2 ADD MLOAD DUP4 DUP3 ADD MSTORE PUSH1 0x20 ADD PUSH2 0x9AE JUMP JUMPDEST DUP4 DUP2 GT ISZERO PUSH2 0x639 JUMPI POP POP PUSH1 0x0 SWAP2 ADD MSTORE JUMP JUMPDEST PUSH1 0x2 DUP2 DIV PUSH1 0x1 DUP3 AND DUP1 PUSH2 0x9EB JUMPI PUSH1 0x7F DUP3 AND SWAP2 POP JUMPDEST PUSH1 0x20 DUP3 LT DUP2 EQ ISZERO PUSH2 0xA0C JUMPI PUSH4 0x4E487B71 PUSH1 0xE0 SHL PUSH1 0x0 MSTORE PUSH1 0x22 PUSH1 0x4 MSTORE PUSH1 0x24 PUSH1 0x0 REVERT JUMPDEST POP SWAP2 SWAP1 POP JUMP JUMPDEST PUSH1 0x1 PUSH1 0x1 PUSH1 0xA0 SHL SUB DUP2 AND DUP2 EQ PUSH2 0xA27 JUMPI PUSH1 0x0 DUP1 REVERT JUMPDEST POP JUMP INVALID LOG2 PUSH5 0x6970667358 0x22 SLT KECCAK256 PUSH7 0x10462BD45325F5 0x4E 0xAC EQ LOG4 PUSH2 0x2212 SELFBALANCE 0xB8 DELEGATECALL RETURN ADD 0xD3 EXP CALLVALUE GAS 0xD6 PUSH18 0x3FD60839D11B64736F6C6343000800003300 "},"methodIdentifiers":{"adminSetRecipient(address)":"9a4069c5","community()":"dc1fb5a5","getCommunity()":"c51db6b2","getFactory()":"88cc58e4","getTotalStakedAmount()":"38adb6f0","getUserStakedAmount(address)":"94465b21","name()":"06fdde03","poolStarted()":"e3332f93","recipient()":"66d003ac","startPool()":"fa08c908","withdrawRewardsToRecipient()":"0309a27e"}}}}}