{"contracts/Community.sol":{"Community":{"abi":[{"inputs":[{"internalType":"address","name":"_admin","type":"address"},{"internalType":"address","name":"_committee","type":"address"},{"internalType":"address","name":"_communityToken","type":"address"},{"internalType":"address","name":"_rewardCalculator","type":"address"},{"internalType":"bool","name":"_isMintableCommunityToken","type":"bool"}],"stateMutability":"nonpayable","type":"constructor"},{"anonymous":false,"inputs":[{"indexed":true,"internalType":"address","name":"pool","type":"address"}],"name":"AdminClosePool","type":"event"},{"anonymous":false,"inputs":[{"indexed":false,"internalType":"uint16","name":"ratio","type":"uint16"}],"name":"AdminSetFeeRatio","type":"event"},{"anonymous":false,"inputs":[{"indexed":false,"internalType":"address[]","name":"pools","type":"address[]"},{"indexed":false,"internalType":"uint16[]","name":"ratios","type":"uint16[]"}],"name":"AdminSetPoolRatio","type":"event"},{"anonymous":false,"inputs":[{"indexed":true,"internalType":"address","name":"oldDev","type":"address"},{"indexed":true,"internalType":"address","name":"newDev","type":"address"}],"name":"DevChanged","type":"event"},{"anonymous":false,"inputs":[{"indexed":true,"internalType":"address","name":"previousOwner","type":"address"},{"indexed":true,"internalType":"address","name":"newOwner","type":"address"}],"name":"OwnershipTransferred","type":"event"},{"anonymous":false,"inputs":[{"indexed":true,"internalType":"address","name":"who","type":"address"},{"indexed":false,"internalType":"uint256","name":"amount","type":"uint256"}],"name":"PoolUpdated","type":"event"},{"anonymous":false,"inputs":[{"indexed":true,"internalType":"address","name":"devFund","type":"address"},{"indexed":false,"internalType":"uint256","name":"amount","type":"uint256"}],"name":"RevenueWithdrawn","type":"event"},{"anonymous":false,"inputs":[{"indexed":false,"internalType":"address[]","name":"pool","type":"address[]"},{"indexed":true,"internalType":"address","name":"who","type":"address"},{"indexed":false,"internalType":"uint256","name":"amount","type":"uint256"}],"name":"WithdrawRewards","type":"event"},{"inputs":[{"internalType":"uint256","name":"","type":"uint256"}],"name":"activedPools","outputs":[{"internalType":"address","name":"","type":"address"}],"stateMutability":"view","type":"function"},{"inputs":[{"internalType":"string","name":"poolName","type":"string"},{"internalType":"uint16[]","name":"ratios","type":"uint16[]"},{"internalType":"address","name":"poolFactory","type":"address"},{"internalType":"bytes","name":"meta","type":"bytes"}],"name":"adminAddPool","outputs":[],"stateMutability":"nonpayable","type":"function"},{"inputs":[{"internalType":"address","name":"poolAddress","type":"address"},{"internalType":"address[]","name":"_activedPools","type":"address[]"},{"internalType":"uint16[]","name":"ratios","type":"uint16[]"}],"name":"adminClosePool","outputs":[],"stateMutability":"nonpayable","type":"function"},{"inputs":[{"internalType":"address","name":"_dev","type":"address"}],"name":"adminSetDev","outputs":[],"stateMutability":"nonpayable","type":"function"},{"inputs":[{"internalType":"uint16","name":"_ratio","type":"uint16"}],"name":"adminSetFeeRatio","outputs":[],"stateMutability":"nonpayable","type":"function"},{"inputs":[{"internalType":"uint16[]","name":"ratios","type":"uint16[]"}],"name":"adminSetPoolRatios","outputs":[],"stateMutability":"nonpayable","type":"function"},{"inputs":[],"name":"adminWithdrawRevenue","outputs":[],"stateMutability":"nonpayable","type":"function"},{"inputs":[{"internalType":"uint256","name":"amount","type":"uint256"}],"name":"adminWithdrawReward","outputs":[],"stateMutability":"nonpayable","type":"function"},{"inputs":[{"internalType":"address","name":"user","type":"address"},{"internalType":"uint256","name":"amount","type":"uint256"}],"name":"appendUserReward","outputs":[],"stateMutability":"nonpayable","type":"function"},{"inputs":[{"internalType":"uint256","name":"","type":"uint256"}],"name":"createdPools","outputs":[{"internalType":"address","name":"","type":"address"}],"stateMutability":"view","type":"function"},{"inputs":[],"name":"feeRatio","outputs":[{"internalType":"uint16","name":"","type":"uint16"}],"stateMutability":"view","type":"function"},{"inputs":[],"name":"getCommunityToken","outputs":[{"internalType":"address","name":"","type":"address"}],"stateMutability":"view","type":"function"},{"inputs":[{"internalType":"address","name":"poolAddress","type":"address"},{"internalType":"address","name":"user","type":"address"}],"name":"getPoolPendingRewards","outputs":[{"internalType":"uint256","name":"","type":"uint256"}],"stateMutability":"view","type":"function"},{"inputs":[{"internalType":"address","name":"pool","type":"address"}],"name":"getShareAcc","outputs":[{"internalType":"uint256","name":"","type":"uint256"}],"stateMutability":"view","type":"function"},{"inputs":[{"internalType":"address","name":"user","type":"address"}],"name":"getTotalPendingRewards","outputs":[{"internalType":"uint256","name":"","type":"uint256"}],"stateMutability":"view","type":"function"},{"inputs":[{"internalType":"address","name":"pool","type":"address"},{"internalType":"address","name":"user","type":"address"}],"name":"getUserDebt","outputs":[{"internalType":"uint256","name":"","type":"uint256"}],"stateMutability":"view","type":"function"},{"inputs":[],"name":"isMintableCommunityToken","outputs":[{"internalType":"bool","name":"","type":"bool"}],"stateMutability":"view","type":"function"},{"inputs":[],"name":"owner","outputs":[{"internalType":"address","name":"","type":"address"}],"stateMutability":"view","type":"function"},{"inputs":[{"internalType":"address","name":"pool","type":"address"}],"name":"poolActived","outputs":[{"internalType":"bool","name":"","type":"bool"}],"stateMutability":"view","type":"function"},{"inputs":[],"name":"renounceOwnership","outputs":[],"stateMutability":"nonpayable","type":"function"},{"inputs":[],"name":"rewardCalculator","outputs":[{"internalType":"address","name":"","type":"address"}],"stateMutability":"view","type":"function"},{"inputs":[{"internalType":"address","name":"user","type":"address"},{"internalType":"uint256","name":"debt","type":"uint256"}],"name":"setUserDebt","outputs":[],"stateMutability":"nonpayable","type":"function"},{"inputs":[{"internalType":"address","name":"newOwner","type":"address"}],"name":"transferOwnership","outputs":[],"stateMutability":"nonpayable","type":"function"},{"inputs":[{"internalType":"string","name":"feeType","type":"string"},{"internalType":"address","name":"feePayer","type":"address"}],"name":"updatePools","outputs":[],"stateMutability":"nonpayable","type":"function"},{"inputs":[{"internalType":"address[]","name":"poolAddresses","type":"address[]"}],"name":"withdrawPoolsRewards","outputs":[],"stateMutability":"nonpayable","type":"function"}],"evm":{"bytecode":{"linkReferences":{},"object":"6101006040523480156200001257600080fd5b50604051620030ec380380620030ec83398101604081905262000035916200021a565b6200004962000043620000d4565b620000d8565b620000548562000128565b600180546001600160a01b0387166001600160a01b031990911681179091556001600160601b0319606086811b821660805285811b821660a05284901b1660e05281151560f81b60c0526040516000907f5d777218f34a12264a9fec685df1868059eeec6d632b17a1775a00089e57533a908290a3505050505062000322565b3390565b600080546001600160a01b038381166001600160a01b0319831681178455604051919092169283917f8be0079c531659141344cd1fd0a4f28419497f9722a3daafe3b4186f6b6457e09190a35050565b620001326200018c565b6001600160a01b0381166200017e576040517f08c379a0000000000000000000000000000000000000000000000000000000008152600401620001759062000290565b60405180910390fd5b6200018981620000d8565b50565b62000196620000d4565b6001600160a01b0316620001a9620001ee565b6001600160a01b031614620001ec576040517f08c379a00000000000000000000000000000000000000000000000000000000081526004016200017590620002ed565b565b6000546001600160a01b031690565b80516001600160a01b03811681146200021557600080fd5b919050565b600080600080600060a0868803121562000232578081fd5b6200023d86620001fd565b94506200024d60208701620001fd565b93506200025d60408701620001fd565b92506200026d60608701620001fd565b91506080860151801515811462000282578182fd5b809150509295509295909350565b60208082526026908201527f4f776e61626c653a206e6577206f776e657220697320746865207a65726f206160408201527f6464726573730000000000000000000000000000000000000000000000000000606082015260800190565b6020808252818101527f4f776e61626c653a2063616c6c6572206973206e6f7420746865206f776e6572604082015260600190565b60805160601c60a05160601c60c05160f81c60e05160601c612d1b620003d160003960008181610de5015281816113930152611ad4015260008181610e65015281816113310152611f43015260008181610e2701528181610ea201528181610fbd01528181611f6c0152611f9c015260008181610523015281816108bb01528181611731015281816117d801528181611869015281816118fb015281816119a10152611a420152612d1b6000f3fe608060405234801561001057600080fd5b50600436106101335760003560e01c80630924004e14610138578063207cbd951461014d57806341744dd414610160578063540543701461017e5780635f78debd14610191578063715018a6146101b15780637942016c146101b95780638da5cb5b146101cc57806396769e89146101d457806398f69e9a146101dc57806399efcaec146101fc5780639af2e5ef14610204578063a1970fa81461020c578063a1a89dbc1461021f578063a2a00ed61461023f578063a8c478ba14610252578063af3bd4f214610265578063bf16c3c214610278578063c10b3aee1461028b578063d26273831461029e578063ef9b7208146102b1578063f2fde38b146102c4578063f739a529146102d7578063fa32ddd8146102ea578063fd0c94e3146102f2575b600080fd5b61014b6101463660046123a9565b610305565b005b61014b61015b366004612516565b6104d7565b610168610755565b6040516101759190612af0565b60405180910390f35b61014b61018c366004612339565b610766565b6101a461019f366004612614565b6107f0565b604051610175919061269d565b61014b61081a565b61014b6101c7366004612446565b61082e565b6101a4610dd4565b6101a4610de3565b6101ef6101ea366004612339565b610e07565b604051610175919061283d565b6101a4610e25565b61014b610e49565b61014b61021a366004612614565b610fb0565b61023261022d366004612339565b610fe3565b6040516101759190612aff565b61023261024d366004612371565b610ffe565b610232610260366004612339565b61102b565b61014b6102733660046124d2565b6110a6565b61014b61028636600461241b565b6110e4565b61014b6102993660046125dc565b61113d565b6101a46102ac366004612614565b6111f4565b61014b6102bf36600461241b565b611204565b61014b6102d2366004612339565b61128f565b61014b6102e5366004612480565b6112c6565b6101ef61132f565b610232610300366004612371565b611353565b61030d61164e565b6001600160a01b03831660009081526003602052604090205460ff1661034e5760405162461bcd60e51b815260040161034590612ad3565b60405180910390fd5b60095461035d90600190612bf4565b82511461037c5760405162461bcd60e51b81526004016103459061292f565b805182511461039d5760405162461bcd60e51b8152600401610345906128cc565b60005b825181101561042257600360008483815181106103cd57634e487b7160e01b600052603260045260246000fd5b6020908102919091018101516001600160a01b031682528101919091526040016000205460ff166104105760405162461bcd60e51b815260040161034590612a9b565b8061041a81612c59565b9150506103a0565b5061042c8161168d565b61045f60405180604001604052806009815260200168434f4d4d554e49545960b81b815250610459610dd4565b8561171a565b6001600160a01b0383166000908152600360209081526040909120805460ff191690558251610494916009919085019061217d565b5061049e81611dd6565b6040516001600160a01b038416907fd9ddc9dcfa963ac8b810758254dfcbdd868ce81331581e7cfe5686f80cc0ed2090600090a2505050565b6104df61164e565b83516009546104ef906001612b7a565b1461050c5760405162461bcd60e51b8152600401610345906129f0565b604051633d200b4560e01b81526001600160a01b037f00000000000000000000000000000000000000000000000000000000000000001690633d200b459061055890869060040161269d565b60206040518083038186803b15801561057057600080fd5b505afa158015610584573d6000803e3d6000fd5b505050506040513d601f19601f820116820180604052508101906105a891906124b2565b6105c45760405162461bcd60e51b815260040161034590612997565b6105cd8461168d565b604051635c41e61560e11b81526000906001600160a01b0385169063b883cc2a906106029030908a90889088906004016126d5565b602060405180830381600087803b15801561061c57600080fd5b505af1158015610630573d6000803e3d6000fd5b505050506040513d601f19601f820116820180604052508101906106549190612355565b905061068960405180604001604052806009815260200168434f4d4d554e49545960b81b815250610683610dd4565b8361171a565b6001600160a01b03811660008181526003602090815260408083208054600160ff1991821681179092556007845282852080549091168217905560049092528220829055600980548083019091557f6e1540171b6c0c960b71a7020d9f60077f6af931a8bbf590da0223dacf75c7af0180546001600160a01b03199081168517909155600a805492830181559092527fc65a7bb8d6351c1cf70c95a316cc6a92839c986682d98bc35f958f4883f9d2a8018054909116909117905561074d85611dd6565b505050505050565b600054600160a01b900461ffff1681565b61076e61164e565b6001600160a01b0381166107945760405162461bcd60e51b815260040161034590612a2b565b6001546040516001600160a01b038084169216907f5d777218f34a12264a9fec685df1868059eeec6d632b17a1775a00089e57533a90600090a3600180546001600160a01b0319166001600160a01b0392909216919091179055565b6009818154811061080057600080fd5b6000918252602090912001546001600160a01b0316905081565b61082261164e565b61082c6000611eba565b565b600b5461083a57610dd1565b600081511161085b5760405162461bcd60e51b81526004016103459061294d565b600b544311156108b4576108b4604051806040016040528060048152602001632aa9a2a960e11b81525033836000815181106108a757634e487b7160e01b600052603260045260246000fd5b602002602001015161171a565b60008060007f00000000000000000000000000000000000000000000000000000000000000006001600160a01b031663f2803f036040518163ffffffff1660e01b815260040160206040518083038186803b15801561091257600080fd5b505afa158015610926573d6000803e3d6000fd5b505050506040513d601f19601f8201168201806040525081019061094a9190612355565b905060005b84518160ff161015610d6f576000858260ff168151811061098057634e487b7160e01b600052603260045260246000fd5b6020908102919091018101516001600160a01b0381166000908152600790925260409091205490915060ff166109c85760405162461bcd60e51b815260040161034590612ab7565b6040516394465b2160e01b81526000906001600160a01b038316906394465b21906109f790339060040161269d565b60206040518083038186803b158015610a0f57600080fd5b505afa158015610a23573d6000803e3d6000fd5b505050506040513d601f19601f82011682018060405250810190610a47919061262c565b6001600160a01b0383166000818152600660209081526040808320338452825280832054938352600490915281205492935091610aa19190610a9b9064e8d4a5100090610a95908790611f0a565b90611f1d565b90611f29565b905060006001600160a01b03861615801590610b365750604051632b6d7e0f60e21b81526001600160a01b0387169063adb5f83c90610ae490879060040161269d565b602060405180830381600087803b158015610afe57600080fd5b505af1158015610b12573d6000803e3d6000fd5b505050506040513d601f19601f82011682018060405250810190610b3691906124b2565b15610bdf576000866001600160a01b031663328686f66040518163ffffffff1660e01b815260040160206040518083038186803b158015610b7657600080fd5b505afa158015610b8a573d6000803e3d6000fd5b505050506040513d601f19601f82011682018060405250810190610bae91906125f8565b905061ffff811615610bdd57610bce612710610a958561ffff8516611f0a565b9150610bda8389611f29565b92505b505b8015610c5d5760405163330ff7b560e21b81526001600160a01b0387169063cc3fded490610c15903090889086906004016126b1565b600060405180830381600087803b158015610c2f57600080fd5b505af1158015610c43573d6000803e3d6000fd5b50505050610c5a8188611f3590919063ffffffff16565b96505b8115610cb6576001600160a01b0384166000908152600560209081526040808320338452909152902054610c919083611f35565b6001600160a01b03851660009081526005602090815260408083203384529091529020555b6001600160a01b0384166000908152600560209081526040808320338452909152902054610ce5908990611f35565b6001600160a01b038516600090815260046020526040902054909850610d179064e8d4a5100090610a95908690611f0a565b6001600160a01b0390941660008181526006602090815260408083203380855290835281842098909855928252600581528282209682529590955284209390935550829150610d67905081612c74565b91505061094f565b508115610d8057610d808183611f41565b610d8a3384611f41565b336001600160a01b03167f6ef8cf0d66677b36d11ee4e51dbd733fcd95070b8c2eb524fb96952f26115cb28585604051610dc5929190612766565b60405180910390a25050505b50565b6000546001600160a01b031690565b7f000000000000000000000000000000000000000000000000000000000000000081565b6001600160a01b031660009081526003602052604090205460ff1690565b7f000000000000000000000000000000000000000000000000000000000000000090565b610e5161164e565b600060025411610e6057600080fd5b6002547f0000000000000000000000000000000000000000000000000000000000000000610f40576040516370a0823160e01b81526000906001600160a01b037f000000000000000000000000000000000000000000000000000000000000000016906370a0823190610ed790309060040161269d565b60206040518083038186803b158015610eef57600080fd5b505afa158015610f03573d6000803e3d6000fd5b505050506040513d601f19601f82011682018060405250810190610f27919061262c565b90506002548110610f3a57600254610f3c565b805b9150505b600154610f56906001600160a01b031682611f41565b600254610f639082611f29565b6002556001546040516001600160a01b03909116907f86a5cc8fe9af9ae68fb50f62885307a7755a30cbd290131644377f0bd94a718190610fa5908490612aff565b60405180910390a250565b610fb861164e565b610dd17f00000000000000000000000000000000000000000000000000000000000000003383611fbe565b6001600160a01b031660009081526004602052604090205490565b6001600160a01b038083166000908152600660209081526040808320938516835292905220545b92915050565b600080805b600a5461ffff8216101561109f5761108b611084600a8361ffff168154811061106957634e487b7160e01b600052603260045260246000fd5b6000918252602090912001546001600160a01b031686611353565b8390611f35565b91508061109781612c37565b915050611030565b5092915050565b3360009081526007602052604090205460ff166110d55760405162461bcd60e51b815260040161034590612a0d565b6110e082823361171a565b5050565b3360009081526007602052604090205460ff166111135760405162461bcd60e51b815260040161034590612a0d565b3360009081526006602090815260408083206001600160a01b039590951683529390529190912055565b61114561164e565b61271061ffff8216111561116b5760405162461bcd60e51b815260040161034590612a7c565b61119f60405180604001604052806009815260200168434f4d4d554e49545960b81b815250611198610dd4565b600061171a565b6000805461ffff60a01b1916600160a01b61ffff8416021790556040517fb5ea2431f5202daeb0439a80df086a35ec0abfd105e20f5564a824062596c09e906111e9908390612af0565b60405180910390a150565b600a818154811061080057600080fd5b3360009081526007602052604090205460ff166112335760405162461bcd60e51b815260040161034590612a0d565b3360009081526005602090815260408083206001600160a01b03861684529091529020546112619082611f35565b3360009081526005602090815260408083206001600160a01b03969096168352949052929092209190915550565b61129761164e565b6001600160a01b0381166112bd5760405162461bcd60e51b8152600401610345906128e9565b610dd181611eba565b6112ce61164e565b8051600954146112f05760405162461bcd60e51b8152600401610345906129d4565b6112f98161168d565b61132660405180604001604052806009815260200168434f4d4d554e49545960b81b815250611198610dd4565b610dd181611dd6565b7f000000000000000000000000000000000000000000000000000000000000000081565b6000600b546000141561136857506000611025565b600080546114459061271090610a959061138d90600160a01b900461ffff1683612bd1565b61ffff167f00000000000000000000000000000000000000000000000000000000000000006001600160a01b0316632c32c36030600b5460016113d09190612b7a565b436040518463ffffffff1660e01b81526004016113ef93929190612745565b60206040518083038186803b15801561140757600080fd5b505afa15801561141b573d6000803e3d6000fd5b505050506040513d601f19601f8201168201806040525081019061143f919061262c565b90611f0a565b90506000846001600160a01b03166394465b21856040518263ffffffff1660e01b8152600401611475919061269d565b60206040518083038186803b15801561148d57600080fd5b505afa1580156114a1573d6000803e3d6000fd5b505050506040513d601f19601f820116820180604052508101906114c5919061262c565b9050806114fa575050506001600160a01b03808316600090815260056020908152604080832093851683529290522054611025565b6000856001600160a01b03166338adb6f06040518163ffffffff1660e01b815260040160206040518083038186803b15801561153557600080fd5b505afa158015611549573d6000803e3d6000fd5b505050506040513d601f19601f8201168201806040525081019061156d919061262c565b6001600160a01b038716600090815260086020526040812054919250906115cc906115ad908490610a95906305f5e1009061143f908a9061ffff16611f0a565b6001600160a01b03891660009081526004602052604090205490611f35565b6001600160a01b038089166000908152600660209081526040808320938b168352929052908120549192509061160f90610a9b64e8d4a51000610a958887611f0a565b6001600160a01b03808a166000908152600560209081526040808320938c16835292905220549091506116429082611f35565b98975050505050505050565b611656611fd0565b6001600160a01b0316611667610dd4565b6001600160a01b03161461082c5760405162461bcd60e51b815260040161034590612a47565b6000805b82518160ff1610156116e757828160ff16815181106116c057634e487b7160e01b600052603260045260246000fd5b6020026020010151826116d39190612b54565b9150806116df81612c74565b915050611691565b5061ffff811661271014806116fe575061ffff8116155b6110e05760405162461bcd60e51b8152600401610345906129b4565b604051634ca1a91960e01b81526001600160a01b037f00000000000000000000000000000000000000000000000000000000000000001690634ca1a9199061176690859060040161269d565b60206040518083038186803b15801561177e57600080fd5b505afa158015611792573d6000803e3d6000fd5b505050506040513d601f19601f820116820180604052508101906117b691906124b2565b15801561185f5750604051631da3ddcd60e31b81526000906001600160a01b037f0000000000000000000000000000000000000000000000000000000000000000169063ed1eee689061180d908790600401612848565b60206040518083038186803b15801561182557600080fd5b505afa158015611839573d6000803e3d6000fd5b505050506040513d601f19601f8201168201806040525081019061185d919061262c565b115b15611ab057611a2b7f00000000000000000000000000000000000000000000000000000000000000006001600160a01b031663c10bde0b6040518163ffffffff1660e01b815260040160206040518083038186803b1580156118c057600080fd5b505afa1580156118d4573d6000803e3d6000fd5b505050506040513d601f19601f820116820180604052508101906118f89190612355565b837f00000000000000000000000000000000000000000000000000000000000000006001600160a01b0316633b19e84a6040518163ffffffff1660e01b815260040160206040518083038186803b15801561195257600080fd5b505afa158015611966573d6000803e3d6000fd5b505050506040513d601f19601f8201168201806040525081019061198a9190612355565b604051631da3ddcd60e31b81526001600160a01b037f0000000000000000000000000000000000000000000000000000000000000000169063ed1eee68906119d6908a90600401612848565b60206040518083038186803b1580156119ee57600080fd5b505afa158015611a02573d6000803e3d6000fd5b505050506040513d601f19601f82011682018060405250810190611a26919061262c565b611fd4565b60405163038815f360e41b81526001600160a01b037f000000000000000000000000000000000000000000000000000000000000000016906338815f3090611a7d90869030908690889060040161285b565b600060405180830381600087803b158015611a9757600080fd5b505af1158015611aab573d6000803e3d6000fd5b505050505b600b546000904390611ac257600b8190555b600b548111611ad2575050611dd1565b7f00000000000000000000000000000000000000000000000000000000000000006001600160a01b0316632c32c36030600b546001611b119190612b7a565b846040518463ffffffff1660e01b8152600401611b3093929190612745565b60206040518083038186803b158015611b4857600080fd5b505afa158015611b5c573d6000803e3d6000fd5b505050506040513d601f19601f82011682018060405250810190611b80919061262c565b91508115611c4157600054600160a01b900461ffff1615611c415760008054611bbd9061271090610a95908690600160a01b900461ffff16611f0a565b600254909150611bcd9082611f35565b600255600054611bfc9061271090610a9590611bf5908390600160a01b900461ffff16611f29565b8690611f0a565b9250846001600160a01b03167f2f4ae87a584f00dc35b043dd1c5ac839c1f41cd3a66e834d4e13faa6251634e682604051611c379190612aff565b60405180910390a2505b60005b60095461ffff82161015611dcb57600060098261ffff1681548110611c7957634e487b7160e01b600052603260045260246000fd5b60009182526020808320909101546040805163038adb6f60e41b815290516001600160a01b03909216945084926338adb6f092600480840193829003018186803b158015611cc657600080fd5b505afa158015611cda573d6000803e3d6000fd5b505050506040513d601f19601f82011682018060405250810190611cfe919061262c565b9050801580611d2757506001600160a01b03821660009081526008602052604090205461ffff16155b15611d33575050611db9565b6001600160a01b038216600090815260086020526040812054611d6b9061271090610a959061ffff1661143f8a64e8d4a51000611f0a565b9050611d99611d7a8284611f1d565b6001600160a01b03851660009081526004602052604090205490611f35565b6001600160a01b0390931660009081526004602052604090209290925550505b80611dc381612c37565b915050611c44565b50600b55505b505050565b60005b60095461ffff82161015611e8757818161ffff1681518110611e0b57634e487b7160e01b600052603260045260246000fd5b60200260200101516008600060098461ffff1681548110611e3c57634e487b7160e01b600052603260045260246000fd5b6000918252602080832091909101546001600160a01b031683528201929092526040019020805461ffff191661ffff9290921691909117905580611e7f81612c37565b915050611dd9565b507f5b904beeb70c84b12d4105e0582a752c5a2705717790e1a648a27ba8622b97866009826040516111e99291906127b7565b600080546001600160a01b038381166001600160a01b0319831681178455604051919092169283917f8be0079c531659141344cd1fd0a4f28419497f9722a3daafe3b4186f6b6457e09190a35050565b6000611f168284612bb2565b9392505050565b6000611f168284612b92565b6000611f168284612bf4565b6000611f168284612b7a565b7f000000000000000000000000000000000000000000000000000000000000000015611f9757611f927f00000000000000000000000000000000000000000000000000000000000000008383611fe8565b6110e0565b6110e07f000000000000000000000000000000000000000000000000000000000000000083835b82611fca818484612050565b50505050565b3390565b83611fe1818585856120a6565b5050505050565b6040516340c10f1960e01b815283906001600160a01b038216906340c10f1990612018908690869060040161272c565b600060405180830381600087803b15801561203257600080fd5b505af1158015612046573d6000803e3d6000fd5b5050505050505050565b611dd18363a9059cbb60e01b848460405160240161206f92919061272c565b60408051601f198184030181529190526020810180516001600160e01b03166001600160e01b0319909316929092179091526120c7565b611fca846323b872dd60e01b85858560405160240161206f939291906126b1565b600080836001600160a01b0316836040516120e29190612681565b6000604051808303816000865af19150503d806000811461211f576040519150601f19603f3d011682016040523d82523d6000602084013e612124565b606091505b5091509150816121465760405162461bcd60e51b81526004016103459061296b565b805115611fca578080602001905181019061216191906124b2565b611fca5760405162461bcd60e51b815260040161034590612897565b8280548282559060005260206000209081019282156121d2579160200282015b828111156121d257825182546001600160a01b0319166001600160a01b0390911617825560209092019160019091019061219d565b506121de9291506121e2565b5090565b5b808211156121de57600081556001016121e3565b600082601f830112612207578081fd5b8135602061221c61221783612b31565b612b08565b8281528181019085830183850287018401881015612238578586fd5b855b8581101561225f57813561224d81612cc0565b8452928401929084019060010161223a565b5090979650505050505050565b600082601f83011261227c578081fd5b8135602061228c61221783612b31565b82815281810190858301838502870184018810156122a8578586fd5b855b8581101561225f5781356122bd81612cd5565b845292840192908401906001016122aa565b600082601f8301126122df578081fd5b81356001600160401b038111156122f8576122f8612caa565b61230b601f8201601f1916602001612b08565b81815284602083860101111561231f578283fd5b816020850160208301379081016020019190915292915050565b60006020828403121561234a578081fd5b8135611f1681612cc0565b600060208284031215612366578081fd5b8151611f1681612cc0565b60008060408385031215612383578081fd5b823561238e81612cc0565b9150602083013561239e81612cc0565b809150509250929050565b6000806000606084860312156123bd578081fd5b83356123c881612cc0565b925060208401356001600160401b03808211156123e3578283fd5b6123ef878388016121f7565b93506040860135915080821115612404578283fd5b506124118682870161226c565b9150509250925092565b6000806040838503121561242d578182fd5b823561243881612cc0565b946020939093013593505050565b600060208284031215612457578081fd5b81356001600160401b0381111561246c578182fd5b612478848285016121f7565b949350505050565b600060208284031215612491578081fd5b81356001600160401b038111156124a6578182fd5b6124788482850161226c565b6000602082840312156124c3578081fd5b81518015158114611f16578182fd5b600080604083850312156124e4578182fd5b82356001600160401b038111156124f9578283fd5b612505858286016122cf565b925050602083013561239e81612cc0565b60008060008060006080868803121561252d578081fd5b85356001600160401b0380821115612543578283fd5b61254f89838a016122cf565b96506020880135915080821115612564578283fd5b61257089838a0161226c565b95506040880135915061258282612cc0565b90935060608701359080821115612597578283fd5b818801915088601f8301126125aa578283fd5b8135818111156125b8578384fd5b8960208285010111156125c9578384fd5b9699959850939650602001949392505050565b6000602082840312156125ed578081fd5b8135611f1681612cd5565b600060208284031215612609578081fd5b8151611f1681612cd5565b600060208284031215612625578081fd5b5035919050565b60006020828403121561263d578081fd5b5051919050565b6001600160a01b0316815260200190565b6000815180845261266d816020860160208601612c0b565b601f01601f19169290920160200192915050565b60008251612693818460208701612c0b565b9190910192915050565b6001600160a01b0391909116815260200190565b6001600160a01b039384168152919092166020820152604081019190915260600190565b6001600160a01b03851681526060602082018190526000906126f990830186612655565b82810360408401528381528385602083013781602085830101526020601f19601f86011682010191505095945050505050565b6001600160a01b03929092168252602082015260400190565b6001600160a01b039390931683526020830191909152604082015260600190565b604080825283519082018190526000906020906060840190828701845b828110156127a85781516001600160a01b031684529284019290840190600101612783565b50505092019290925292915050565b6000604082016040835280855480835260608501915086845260209250828420845b828110156128055781546127f79085906001600160a01b0316612644565b9350600191820191016127d9565b50505083810382850152845180825285830191830190845b8181101561225f57835161ffff168352928401929184019160010161281d565b901515815260200190565b600060208252611f166020830184612655565b60006080825261286e6080830187612655565b6001600160a01b0395861660208401529385166040830152509216606090920191909152919050565b6020808252818101527f45524332303a206f7065726174696f6e20646964206e6f742073756363656564604082015260600190565b6020808252600390820152624c444d60e81b604082015260600190565b60208082526026908201527f4f776e61626c653a206e6577206f776e657220697320746865207a65726f206160408201526564647265737360d01b606082015260800190565b60208082526004908201526315d0541360e21b604082015260600190565b6020808252600490820152634d484f3160e01b604082015260600190565b602080825260129082015271115490cc8c0e8818d85b1b0819985a5b195960721b604082015260600190565b6020808252600390820152622aa82360e91b604082015260600190565b6020808252600690820152655253213d317760d01b604082015260600190565b60208082526002908201526115d360f21b604082015260600190565b60208082526003908201526257504360e81b604082015260600190565b602080825260049082015263504e495760e01b604082015260600190565b602080825260029082015261494160f01b604082015260600190565b6020808252818101527f4f776e61626c653a2063616c6c6572206973206e6f7420746865206f776e6572604082015260600190565b60208082526005908201526450523e317760d81b604082015260600190565b602080825260029082015261057560f41b604082015260600190565b602080825260029082015261049560f41b604082015260600190565b60208082526003908201526250494160e81b604082015260600190565b61ffff91909116815260200190565b90815260200190565b6040518181016001600160401b0381118282101715612b2957612b29612caa565b604052919050565b60006001600160401b03821115612b4a57612b4a612caa565b5060209081020190565b600061ffff808316818516808303821115612b7157612b71612c94565b01949350505050565b60008219821115612b8d57612b8d612c94565b500190565b600082612bad57634e487b7160e01b81526012600452602481fd5b500490565b6000816000190483118215151615612bcc57612bcc612c94565b500290565b600061ffff83811690831681811015612bec57612bec612c94565b039392505050565b600082821015612c0657612c06612c94565b500390565b60005b83811015612c26578181015183820152602001612c0e565b83811115611fca5750506000910152565b600061ffff80831681811415612c4f57612c4f612c94565b6001019392505050565b6000600019821415612c6d57612c6d612c94565b5060010190565b600060ff821660ff811415612c8b57612c8b612c94565b60010192915050565b634e487b7160e01b600052601160045260246000fd5b634e487b7160e01b600052604160045260246000fd5b6001600160a01b0381168114610dd157600080fd5b61ffff81168114610dd157600080fdfea26469706673582212209ae94cb8dc0c906d6c4c72295ae86db1b10f5603acb9da12669f74ea35432a8064736f6c63430008000033","opcodes":"PUSH2 0x100 PUSH1 0x40 MSTORE CALLVALUE DUP1 ISZERO PUSH3 0x12 JUMPI PUSH1 0x0 DUP1 REVERT JUMPDEST POP PUSH1 0x40 MLOAD PUSH3 0x30EC CODESIZE SUB DUP1 PUSH3 0x30EC DUP4 CODECOPY DUP2 ADD PUSH1 0x40 DUP2 SWAP1 MSTORE PUSH3 0x35 SWAP2 PUSH3 0x21A JUMP JUMPDEST PUSH3 0x49 PUSH3 0x43 PUSH3 0xD4 JUMP JUMPDEST PUSH3 0xD8 JUMP JUMPDEST PUSH3 0x54 DUP6 PUSH3 0x128 JUMP JUMPDEST PUSH1 0x1 DUP1 SLOAD PUSH1 0x1 PUSH1 0x1 PUSH1 0xA0 SHL SUB DUP8 AND PUSH1 0x1 PUSH1 0x1 PUSH1 0xA0 SHL SUB NOT SWAP1 SWAP2 AND DUP2 OR SWAP1 SWAP2 SSTORE PUSH1 0x1 PUSH1 0x1 PUSH1 0x60 SHL SUB NOT PUSH1 0x60 DUP7 DUP2 SHL DUP3 AND PUSH1 0x80 MSTORE DUP6 DUP2 SHL DUP3 AND PUSH1 0xA0 MSTORE DUP5 SWAP1 SHL AND PUSH1 0xE0 MSTORE DUP2 ISZERO ISZERO PUSH1 0xF8 SHL PUSH1 0xC0 MSTORE PUSH1 0x40 MLOAD PUSH1 0x0 SWAP1 PUSH32 0x5D777218F34A12264A9FEC685DF1868059EEEC6D632B17A1775A00089E57533A SWAP1 DUP3 SWAP1 LOG3 POP POP POP POP POP PUSH3 0x322 JUMP JUMPDEST CALLER SWAP1 JUMP JUMPDEST PUSH1 0x0 DUP1 SLOAD PUSH1 0x1 PUSH1 0x1 PUSH1 0xA0 SHL SUB DUP4 DUP2 AND PUSH1 0x1 PUSH1 0x1 PUSH1 0xA0 SHL SUB NOT DUP4 AND DUP2 OR DUP5 SSTORE PUSH1 0x40 MLOAD SWAP2 SWAP1 SWAP3 AND SWAP3 DUP4 SWAP2 PUSH32 0x8BE0079C531659141344CD1FD0A4F28419497F9722A3DAAFE3B4186F6B6457E0 SWAP2 SWAP1 LOG3 POP POP JUMP JUMPDEST PUSH3 0x132 PUSH3 0x18C JUMP JUMPDEST PUSH1 0x1 PUSH1 0x1 PUSH1 0xA0 SHL SUB DUP2 AND PUSH3 0x17E JUMPI PUSH1 0x40 MLOAD PUSH32 0x8C379A000000000000000000000000000000000000000000000000000000000 DUP2 MSTORE PUSH1 0x4 ADD PUSH3 0x175 SWAP1 PUSH3 0x290 JUMP JUMPDEST PUSH1 0x40 MLOAD DUP1 SWAP2 SUB SWAP1 REVERT JUMPDEST PUSH3 0x189 DUP2 PUSH3 0xD8 JUMP JUMPDEST POP JUMP JUMPDEST PUSH3 0x196 PUSH3 0xD4 JUMP JUMPDEST PUSH1 0x1 PUSH1 0x1 PUSH1 0xA0 SHL SUB AND PUSH3 0x1A9 PUSH3 0x1EE JUMP JUMPDEST PUSH1 0x1 PUSH1 0x1 PUSH1 0xA0 SHL SUB AND EQ PUSH3 0x1EC JUMPI PUSH1 0x40 MLOAD PUSH32 0x8C379A000000000000000000000000000000000000000000000000000000000 DUP2 MSTORE PUSH1 0x4 ADD PUSH3 0x175 SWAP1 PUSH3 0x2ED JUMP JUMPDEST JUMP JUMPDEST PUSH1 0x0 SLOAD PUSH1 0x1 PUSH1 0x1 PUSH1 0xA0 SHL SUB AND SWAP1 JUMP JUMPDEST DUP1 MLOAD PUSH1 0x1 PUSH1 0x1 PUSH1 0xA0 SHL SUB DUP2 AND DUP2 EQ PUSH3 0x215 JUMPI PUSH1 0x0 DUP1 REVERT JUMPDEST SWAP2 SWAP1 POP JUMP JUMPDEST PUSH1 0x0 DUP1 PUSH1 0x0 DUP1 PUSH1 0x0 PUSH1 0xA0 DUP7 DUP9 SUB SLT ISZERO PUSH3 0x232 JUMPI DUP1 DUP2 REVERT JUMPDEST PUSH3 0x23D DUP7 PUSH3 0x1FD JUMP JUMPDEST SWAP5 POP PUSH3 0x24D PUSH1 0x20 DUP8 ADD PUSH3 0x1FD JUMP JUMPDEST SWAP4 POP PUSH3 0x25D PUSH1 0x40 DUP8 ADD PUSH3 0x1FD JUMP JUMPDEST SWAP3 POP PUSH3 0x26D PUSH1 0x60 DUP8 ADD PUSH3 0x1FD JUMP JUMPDEST SWAP2 POP PUSH1 0x80 DUP7 ADD MLOAD DUP1 ISZERO ISZERO DUP2 EQ PUSH3 0x282 JUMPI DUP2 DUP3 REVERT JUMPDEST DUP1 SWAP2 POP POP SWAP3 SWAP6 POP SWAP3 SWAP6 SWAP1 SWAP4 POP JUMP JUMPDEST PUSH1 0x20 DUP1 DUP3 MSTORE PUSH1 0x26 SWAP1 DUP3 ADD MSTORE PUSH32 0x4F776E61626C653A206E6577206F776E657220697320746865207A65726F2061 PUSH1 0x40 DUP3 ADD MSTORE PUSH32 0x6464726573730000000000000000000000000000000000000000000000000000 PUSH1 0x60 DUP3 ADD MSTORE PUSH1 0x80 ADD SWAP1 JUMP JUMPDEST PUSH1 0x20 DUP1 DUP3 MSTORE DUP2 DUP2 ADD MSTORE PUSH32 0x4F776E61626C653A2063616C6C6572206973206E6F7420746865206F776E6572 PUSH1 0x40 DUP3 ADD MSTORE PUSH1 0x60 ADD SWAP1 JUMP JUMPDEST PUSH1 0x80 MLOAD PUSH1 0x60 SHR PUSH1 0xA0 MLOAD PUSH1 0x60 SHR PUSH1 0xC0 MLOAD PUSH1 0xF8 SHR PUSH1 0xE0 MLOAD PUSH1 0x60 SHR PUSH2 0x2D1B PUSH3 0x3D1 PUSH1 0x0 CODECOPY PUSH1 0x0 DUP2 DUP2 PUSH2 0xDE5 ADD MSTORE DUP2 DUP2 PUSH2 0x1393 ADD MSTORE PUSH2 0x1AD4 ADD MSTORE PUSH1 0x0 DUP2 DUP2 PUSH2 0xE65 ADD MSTORE DUP2 DUP2 PUSH2 0x1331 ADD MSTORE PUSH2 0x1F43 ADD MSTORE PUSH1 0x0 DUP2 DUP2 PUSH2 0xE27 ADD MSTORE DUP2 DUP2 PUSH2 0xEA2 ADD MSTORE DUP2 DUP2 PUSH2 0xFBD ADD MSTORE DUP2 DUP2 PUSH2 0x1F6C ADD MSTORE PUSH2 0x1F9C ADD MSTORE PUSH1 0x0 DUP2 DUP2 PUSH2 0x523 ADD MSTORE DUP2 DUP2 PUSH2 0x8BB ADD MSTORE DUP2 DUP2 PUSH2 0x1731 ADD MSTORE DUP2 DUP2 PUSH2 0x17D8 ADD MSTORE DUP2 DUP2 PUSH2 0x1869 ADD MSTORE DUP2 DUP2 PUSH2 0x18FB ADD MSTORE DUP2 DUP2 PUSH2 0x19A1 ADD MSTORE PUSH2 0x1A42 ADD MSTORE PUSH2 0x2D1B PUSH1 0x0 RETURN INVALID PUSH1 0x80 PUSH1 0x40 MSTORE CALLVALUE DUP1 ISZERO PUSH2 0x10 JUMPI PUSH1 0x0 DUP1 REVERT JUMPDEST POP PUSH1 0x4 CALLDATASIZE LT PUSH2 0x133 JUMPI PUSH1 0x0 CALLDATALOAD PUSH1 0xE0 SHR DUP1 PUSH4 0x924004E EQ PUSH2 0x138 JUMPI DUP1 PUSH4 0x207CBD95 EQ PUSH2 0x14D JUMPI DUP1 PUSH4 0x41744DD4 EQ PUSH2 0x160 JUMPI DUP1 PUSH4 0x54054370 EQ PUSH2 0x17E JUMPI DUP1 PUSH4 0x5F78DEBD EQ PUSH2 0x191 JUMPI DUP1 PUSH4 0x715018A6 EQ PUSH2 0x1B1 JUMPI DUP1 PUSH4 0x7942016C EQ PUSH2 0x1B9 JUMPI DUP1 PUSH4 0x8DA5CB5B EQ PUSH2 0x1CC JUMPI DUP1 PUSH4 0x96769E89 EQ PUSH2 0x1D4 JUMPI DUP1 PUSH4 0x98F69E9A EQ PUSH2 0x1DC JUMPI DUP1 PUSH4 0x99EFCAEC EQ PUSH2 0x1FC JUMPI DUP1 PUSH4 0x9AF2E5EF EQ PUSH2 0x204 JUMPI DUP1 PUSH4 0xA1970FA8 EQ PUSH2 0x20C JUMPI DUP1 PUSH4 0xA1A89DBC EQ PUSH2 0x21F JUMPI DUP1 PUSH4 0xA2A00ED6 EQ PUSH2 0x23F JUMPI DUP1 PUSH4 0xA8C478BA EQ PUSH2 0x252 JUMPI DUP1 PUSH4 0xAF3BD4F2 EQ PUSH2 0x265 JUMPI DUP1 PUSH4 0xBF16C3C2 EQ PUSH2 0x278 JUMPI DUP1 PUSH4 0xC10B3AEE EQ PUSH2 0x28B JUMPI DUP1 PUSH4 0xD2627383 EQ PUSH2 0x29E JUMPI DUP1 PUSH4 0xEF9B7208 EQ PUSH2 0x2B1 JUMPI DUP1 PUSH4 0xF2FDE38B EQ PUSH2 0x2C4 JUMPI DUP1 PUSH4 0xF739A529 EQ PUSH2 0x2D7 JUMPI DUP1 PUSH4 0xFA32DDD8 EQ PUSH2 0x2EA JUMPI DUP1 PUSH4 0xFD0C94E3 EQ PUSH2 0x2F2 JUMPI JUMPDEST PUSH1 0x0 DUP1 REVERT JUMPDEST PUSH2 0x14B PUSH2 0x146 CALLDATASIZE PUSH1 0x4 PUSH2 0x23A9 JUMP JUMPDEST PUSH2 0x305 JUMP JUMPDEST STOP JUMPDEST PUSH2 0x14B PUSH2 0x15B CALLDATASIZE PUSH1 0x4 PUSH2 0x2516 JUMP JUMPDEST PUSH2 0x4D7 JUMP JUMPDEST PUSH2 0x168 PUSH2 0x755 JUMP JUMPDEST PUSH1 0x40 MLOAD PUSH2 0x175 SWAP2 SWAP1 PUSH2 0x2AF0 JUMP JUMPDEST PUSH1 0x40 MLOAD DUP1 SWAP2 SUB SWAP1 RETURN JUMPDEST PUSH2 0x14B PUSH2 0x18C CALLDATASIZE PUSH1 0x4 PUSH2 0x2339 JUMP JUMPDEST PUSH2 0x766 JUMP JUMPDEST PUSH2 0x1A4 PUSH2 0x19F CALLDATASIZE PUSH1 0x4 PUSH2 0x2614 JUMP JUMPDEST PUSH2 0x7F0 JUMP JUMPDEST PUSH1 0x40 MLOAD PUSH2 0x175 SWAP2 SWAP1 PUSH2 0x269D JUMP JUMPDEST PUSH2 0x14B PUSH2 0x81A JUMP JUMPDEST PUSH2 0x14B PUSH2 0x1C7 CALLDATASIZE PUSH1 0x4 PUSH2 0x2446 JUMP JUMPDEST PUSH2 0x82E JUMP JUMPDEST PUSH2 0x1A4 PUSH2 0xDD4 JUMP JUMPDEST PUSH2 0x1A4 PUSH2 0xDE3 JUMP JUMPDEST PUSH2 0x1EF PUSH2 0x1EA CALLDATASIZE PUSH1 0x4 PUSH2 0x2339 JUMP JUMPDEST PUSH2 0xE07 JUMP JUMPDEST PUSH1 0x40 MLOAD PUSH2 0x175 SWAP2 SWAP1 PUSH2 0x283D JUMP JUMPDEST PUSH2 0x1A4 PUSH2 0xE25 JUMP JUMPDEST PUSH2 0x14B PUSH2 0xE49 JUMP JUMPDEST PUSH2 0x14B PUSH2 0x21A CALLDATASIZE PUSH1 0x4 PUSH2 0x2614 JUMP JUMPDEST PUSH2 0xFB0 JUMP JUMPDEST PUSH2 0x232 PUSH2 0x22D CALLDATASIZE PUSH1 0x4 PUSH2 0x2339 JUMP JUMPDEST PUSH2 0xFE3 JUMP JUMPDEST PUSH1 0x40 MLOAD PUSH2 0x175 SWAP2 SWAP1 PUSH2 0x2AFF JUMP JUMPDEST PUSH2 0x232 PUSH2 0x24D CALLDATASIZE PUSH1 0x4 PUSH2 0x2371 JUMP JUMPDEST PUSH2 0xFFE JUMP JUMPDEST PUSH2 0x232 PUSH2 0x260 CALLDATASIZE PUSH1 0x4 PUSH2 0x2339 JUMP JUMPDEST PUSH2 0x102B JUMP JUMPDEST PUSH2 0x14B PUSH2 0x273 CALLDATASIZE PUSH1 0x4 PUSH2 0x24D2 JUMP JUMPDEST PUSH2 0x10A6 JUMP JUMPDEST PUSH2 0x14B PUSH2 0x286 CALLDATASIZE PUSH1 0x4 PUSH2 0x241B JUMP JUMPDEST PUSH2 0x10E4 JUMP JUMPDEST PUSH2 0x14B PUSH2 0x299 CALLDATASIZE PUSH1 0x4 PUSH2 0x25DC JUMP JUMPDEST PUSH2 0x113D JUMP JUMPDEST PUSH2 0x1A4 PUSH2 0x2AC CALLDATASIZE PUSH1 0x4 PUSH2 0x2614 JUMP JUMPDEST PUSH2 0x11F4 JUMP JUMPDEST PUSH2 0x14B PUSH2 0x2BF CALLDATASIZE PUSH1 0x4 PUSH2 0x241B JUMP JUMPDEST PUSH2 0x1204 JUMP JUMPDEST PUSH2 0x14B PUSH2 0x2D2 CALLDATASIZE PUSH1 0x4 PUSH2 0x2339 JUMP JUMPDEST PUSH2 0x128F JUMP JUMPDEST PUSH2 0x14B PUSH2 0x2E5 CALLDATASIZE PUSH1 0x4 PUSH2 0x2480 JUMP JUMPDEST PUSH2 0x12C6 JUMP JUMPDEST PUSH2 0x1EF PUSH2 0x132F JUMP JUMPDEST PUSH2 0x232 PUSH2 0x300 CALLDATASIZE PUSH1 0x4 PUSH2 0x2371 JUMP JUMPDEST PUSH2 0x1353 JUMP JUMPDEST PUSH2 0x30D PUSH2 0x164E JUMP JUMPDEST PUSH1 0x1 PUSH1 0x1 PUSH1 0xA0 SHL SUB DUP4 AND PUSH1 0x0 SWAP1 DUP2 MSTORE PUSH1 0x3 PUSH1 0x20 MSTORE PUSH1 0x40 SWAP1 KECCAK256 SLOAD PUSH1 0xFF AND PUSH2 0x34E JUMPI PUSH1 0x40 MLOAD PUSH3 0x461BCD PUSH1 0xE5 SHL DUP2 MSTORE PUSH1 0x4 ADD PUSH2 0x345 SWAP1 PUSH2 0x2AD3 JUMP JUMPDEST PUSH1 0x40 MLOAD DUP1 SWAP2 SUB SWAP1 REVERT JUMPDEST PUSH1 0x9 SLOAD PUSH2 0x35D SWAP1 PUSH1 0x1 SWAP1 PUSH2 0x2BF4 JUMP JUMPDEST DUP3 MLOAD EQ PUSH2 0x37C JUMPI PUSH1 0x40 MLOAD PUSH3 0x461BCD PUSH1 0xE5 SHL DUP2 MSTORE PUSH1 0x4 ADD PUSH2 0x345 SWAP1 PUSH2 0x292F JUMP JUMPDEST DUP1 MLOAD DUP3 MLOAD EQ PUSH2 0x39D JUMPI PUSH1 0x40 MLOAD PUSH3 0x461BCD PUSH1 0xE5 SHL DUP2 MSTORE PUSH1 0x4 ADD PUSH2 0x345 SWAP1 PUSH2 0x28CC JUMP JUMPDEST PUSH1 0x0 JUMPDEST DUP3 MLOAD DUP2 LT ISZERO PUSH2 0x422 JUMPI PUSH1 0x3 PUSH1 0x0 DUP5 DUP4 DUP2 MLOAD DUP2 LT PUSH2 0x3CD JUMPI PUSH4 0x4E487B71 PUSH1 0xE0 SHL PUSH1 0x0 MSTORE PUSH1 0x32 PUSH1 0x4 MSTORE PUSH1 0x24 PUSH1 0x0 REVERT JUMPDEST PUSH1 0x20 SWAP1 DUP2 MUL SWAP2 SWAP1 SWAP2 ADD DUP2 ADD MLOAD PUSH1 0x1 PUSH1 0x1 PUSH1 0xA0 SHL SUB AND DUP3 MSTORE DUP2 ADD SWAP2 SWAP1 SWAP2 MSTORE PUSH1 0x40 ADD PUSH1 0x0 KECCAK256 SLOAD PUSH1 0xFF AND PUSH2 0x410 JUMPI PUSH1 0x40 MLOAD PUSH3 0x461BCD PUSH1 0xE5 SHL DUP2 MSTORE PUSH1 0x4 ADD PUSH2 0x345 SWAP1 PUSH2 0x2A9B JUMP JUMPDEST DUP1 PUSH2 0x41A DUP2 PUSH2 0x2C59 JUMP JUMPDEST SWAP2 POP POP PUSH2 0x3A0 JUMP JUMPDEST POP PUSH2 0x42C DUP2 PUSH2 0x168D JUMP JUMPDEST PUSH2 0x45F PUSH1 0x40 MLOAD DUP1 PUSH1 0x40 ADD PUSH1 0x40 MSTORE DUP1 PUSH1 0x9 DUP2 MSTORE PUSH1 0x20 ADD PUSH9 0x434F4D4D554E495459 PUSH1 0xB8 SHL DUP2 MSTORE POP PUSH2 0x459 PUSH2 0xDD4 JUMP JUMPDEST DUP6 PUSH2 0x171A JUMP JUMPDEST PUSH1 0x1 PUSH1 0x1 PUSH1 0xA0 SHL SUB DUP4 AND PUSH1 0x0 SWAP1 DUP2 MSTORE PUSH1 0x3 PUSH1 0x20 SWAP1 DUP2 MSTORE PUSH1 0x40 SWAP1 SWAP2 KECCAK256 DUP1 SLOAD PUSH1 0xFF NOT AND SWAP1 SSTORE DUP3 MLOAD PUSH2 0x494 SWAP2 PUSH1 0x9 SWAP2 SWAP1 DUP6 ADD SWAP1 PUSH2 0x217D JUMP JUMPDEST POP PUSH2 0x49E DUP2 PUSH2 0x1DD6 JUMP JUMPDEST PUSH1 0x40 MLOAD PUSH1 0x1 PUSH1 0x1 PUSH1 0xA0 SHL SUB DUP5 AND SWAP1 PUSH32 0xD9DDC9DCFA963AC8B810758254DFCBDD868CE81331581E7CFE5686F80CC0ED20 SWAP1 PUSH1 0x0 SWAP1 LOG2 POP POP POP JUMP JUMPDEST PUSH2 0x4DF PUSH2 0x164E JUMP JUMPDEST DUP4 MLOAD PUSH1 0x9 SLOAD PUSH2 0x4EF SWAP1 PUSH1 0x1 PUSH2 0x2B7A JUMP JUMPDEST EQ PUSH2 0x50C JUMPI PUSH1 0x40 MLOAD PUSH3 0x461BCD PUSH1 0xE5 SHL DUP2 MSTORE PUSH1 0x4 ADD PUSH2 0x345 SWAP1 PUSH2 0x29F0 JUMP JUMPDEST PUSH1 0x40 MLOAD PUSH4 0x3D200B45 PUSH1 0xE0 SHL DUP2 MSTORE PUSH1 0x1 PUSH1 0x1 PUSH1 0xA0 SHL SUB PUSH32 0x0 AND SWAP1 PUSH4 0x3D200B45 SWAP1 PUSH2 0x558 SWAP1 DUP7 SWAP1 PUSH1 0x4 ADD PUSH2 0x269D JUMP JUMPDEST PUSH1 0x20 PUSH1 0x40 MLOAD DUP1 DUP4 SUB DUP2 DUP7 DUP1 EXTCODESIZE ISZERO DUP1 ISZERO PUSH2 0x570 JUMPI PUSH1 0x0 DUP1 REVERT JUMPDEST POP GAS STATICCALL ISZERO DUP1 ISZERO PUSH2 0x584 JUMPI RETURNDATASIZE PUSH1 0x0 DUP1 RETURNDATACOPY RETURNDATASIZE PUSH1 0x0 REVERT JUMPDEST POP POP POP POP PUSH1 0x40 MLOAD RETURNDATASIZE PUSH1 0x1F NOT PUSH1 0x1F DUP3 ADD AND DUP3 ADD DUP1 PUSH1 0x40 MSTORE POP DUP2 ADD SWAP1 PUSH2 0x5A8 SWAP2 SWAP1 PUSH2 0x24B2 JUMP JUMPDEST PUSH2 0x5C4 JUMPI PUSH1 0x40 MLOAD PUSH3 0x461BCD PUSH1 0xE5 SHL DUP2 MSTORE PUSH1 0x4 ADD PUSH2 0x345 SWAP1 PUSH2 0x2997 JUMP JUMPDEST PUSH2 0x5CD DUP5 PUSH2 0x168D JUMP JUMPDEST PUSH1 0x40 MLOAD PUSH4 0x5C41E615 PUSH1 0xE1 SHL DUP2 MSTORE PUSH1 0x0 SWAP1 PUSH1 0x1 PUSH1 0x1 PUSH1 0xA0 SHL SUB DUP6 AND SWAP1 PUSH4 0xB883CC2A SWAP1 PUSH2 0x602 SWAP1 ADDRESS SWAP1 DUP11 SWAP1 DUP9 SWAP1 DUP9 SWAP1 PUSH1 0x4 ADD PUSH2 0x26D5 JUMP JUMPDEST PUSH1 0x20 PUSH1 0x40 MLOAD DUP1 DUP4 SUB DUP2 PUSH1 0x0 DUP8 DUP1 EXTCODESIZE ISZERO DUP1 ISZERO PUSH2 0x61C JUMPI PUSH1 0x0 DUP1 REVERT JUMPDEST POP GAS CALL ISZERO DUP1 ISZERO PUSH2 0x630 JUMPI RETURNDATASIZE PUSH1 0x0 DUP1 RETURNDATACOPY RETURNDATASIZE PUSH1 0x0 REVERT JUMPDEST POP POP POP POP PUSH1 0x40 MLOAD RETURNDATASIZE PUSH1 0x1F NOT PUSH1 0x1F DUP3 ADD AND DUP3 ADD DUP1 PUSH1 0x40 MSTORE POP DUP2 ADD SWAP1 PUSH2 0x654 SWAP2 SWAP1 PUSH2 0x2355 JUMP JUMPDEST SWAP1 POP PUSH2 0x689 PUSH1 0x40 MLOAD DUP1 PUSH1 0x40 ADD PUSH1 0x40 MSTORE DUP1 PUSH1 0x9 DUP2 MSTORE PUSH1 0x20 ADD PUSH9 0x434F4D4D554E495459 PUSH1 0xB8 SHL DUP2 MSTORE POP PUSH2 0x683 PUSH2 0xDD4 JUMP JUMPDEST DUP4 PUSH2 0x171A JUMP JUMPDEST PUSH1 0x1 PUSH1 0x1 PUSH1 0xA0 SHL SUB DUP2 AND PUSH1 0x0 DUP2 DUP2 MSTORE PUSH1 0x3 PUSH1 0x20 SWAP1 DUP2 MSTORE PUSH1 0x40 DUP1 DUP4 KECCAK256 DUP1 SLOAD PUSH1 0x1 PUSH1 0xFF NOT SWAP2 DUP3 AND DUP2 OR SWAP1 SWAP3 SSTORE PUSH1 0x7 DUP5 MSTORE DUP3 DUP6 KECCAK256 DUP1 SLOAD SWAP1 SWAP2 AND DUP3 OR SWAP1 SSTORE PUSH1 0x4 SWAP1 SWAP3 MSTORE DUP3 KECCAK256 DUP3 SWAP1 SSTORE PUSH1 0x9 DUP1 SLOAD DUP1 DUP4 ADD SWAP1 SWAP2 SSTORE PUSH32 0x6E1540171B6C0C960B71A7020D9F60077F6AF931A8BBF590DA0223DACF75C7AF ADD DUP1 SLOAD PUSH1 0x1 PUSH1 0x1 PUSH1 0xA0 SHL SUB NOT SWAP1 DUP2 AND DUP6 OR SWAP1 SWAP2 SSTORE PUSH1 0xA DUP1 SLOAD SWAP3 DUP4 ADD DUP2 SSTORE SWAP1 SWAP3 MSTORE PUSH32 0xC65A7BB8D6351C1CF70C95A316CC6A92839C986682D98BC35F958F4883F9D2A8 ADD DUP1 SLOAD SWAP1 SWAP2 AND SWAP1 SWAP2 OR SWAP1 SSTORE PUSH2 0x74D DUP6 PUSH2 0x1DD6 JUMP JUMPDEST POP POP POP POP POP POP JUMP JUMPDEST PUSH1 0x0 SLOAD PUSH1 0x1 PUSH1 0xA0 SHL SWAP1 DIV PUSH2 0xFFFF AND DUP2 JUMP JUMPDEST PUSH2 0x76E PUSH2 0x164E JUMP JUMPDEST PUSH1 0x1 PUSH1 0x1 PUSH1 0xA0 SHL SUB DUP2 AND PUSH2 0x794 JUMPI PUSH1 0x40 MLOAD PUSH3 0x461BCD PUSH1 0xE5 SHL DUP2 MSTORE PUSH1 0x4 ADD PUSH2 0x345 SWAP1 PUSH2 0x2A2B JUMP JUMPDEST PUSH1 0x1 SLOAD PUSH1 0x40 MLOAD PUSH1 0x1 PUSH1 0x1 PUSH1 0xA0 SHL SUB DUP1 DUP5 AND SWAP3 AND SWAP1 PUSH32 0x5D777218F34A12264A9FEC685DF1868059EEEC6D632B17A1775A00089E57533A SWAP1 PUSH1 0x0 SWAP1 LOG3 PUSH1 0x1 DUP1 SLOAD PUSH1 0x1 PUSH1 0x1 PUSH1 0xA0 SHL SUB NOT AND PUSH1 0x1 PUSH1 0x1 PUSH1 0xA0 SHL SUB SWAP3 SWAP1 SWAP3 AND SWAP2 SWAP1 SWAP2 OR SWAP1 SSTORE JUMP JUMPDEST PUSH1 0x9 DUP2 DUP2 SLOAD DUP2 LT PUSH2 0x800 JUMPI PUSH1 0x0 DUP1 REVERT JUMPDEST PUSH1 0x0 SWAP2 DUP3 MSTORE PUSH1 0x20 SWAP1 SWAP2 KECCAK256 ADD SLOAD PUSH1 0x1 PUSH1 0x1 PUSH1 0xA0 SHL SUB AND SWAP1 POP DUP2 JUMP JUMPDEST PUSH2 0x822 PUSH2 0x164E JUMP JUMPDEST PUSH2 0x82C PUSH1 0x0 PUSH2 0x1EBA JUMP JUMPDEST JUMP JUMPDEST PUSH1 0xB SLOAD PUSH2 0x83A JUMPI PUSH2 0xDD1 JUMP JUMPDEST PUSH1 0x0 DUP2 MLOAD GT PUSH2 0x85B JUMPI PUSH1 0x40 MLOAD PUSH3 0x461BCD PUSH1 0xE5 SHL DUP2 MSTORE PUSH1 0x4 ADD PUSH2 0x345 SWAP1 PUSH2 0x294D JUMP JUMPDEST PUSH1 0xB SLOAD NUMBER GT ISZERO PUSH2 0x8B4 JUMPI PUSH2 0x8B4 PUSH1 0x40 MLOAD DUP1 PUSH1 0x40 ADD PUSH1 0x40 MSTORE DUP1 PUSH1 0x4 DUP2 MSTORE PUSH1 0x20 ADD PUSH4 0x2AA9A2A9 PUSH1 0xE1 SHL DUP2 MSTORE POP CALLER DUP4 PUSH1 0x0 DUP2 MLOAD DUP2 LT PUSH2 0x8A7 JUMPI PUSH4 0x4E487B71 PUSH1 0xE0 SHL PUSH1 0x0 MSTORE PUSH1 0x32 PUSH1 0x4 MSTORE PUSH1 0x24 PUSH1 0x0 REVERT JUMPDEST PUSH1 0x20 MUL PUSH1 0x20 ADD ADD MLOAD PUSH2 0x171A JUMP JUMPDEST PUSH1 0x0 DUP1 PUSH1 0x0 PUSH32 0x0 PUSH1 0x1 PUSH1 0x1 PUSH1 0xA0 SHL SUB AND PUSH4 0xF2803F03 PUSH1 0x40 MLOAD DUP2 PUSH4 0xFFFFFFFF AND PUSH1 0xE0 SHL DUP2 MSTORE PUSH1 0x4 ADD PUSH1 0x20 PUSH1 0x40 MLOAD DUP1 DUP4 SUB DUP2 DUP7 DUP1 EXTCODESIZE ISZERO DUP1 ISZERO PUSH2 0x912 JUMPI PUSH1 0x0 DUP1 REVERT JUMPDEST POP GAS STATICCALL ISZERO DUP1 ISZERO PUSH2 0x926 JUMPI RETURNDATASIZE PUSH1 0x0 DUP1 RETURNDATACOPY RETURNDATASIZE PUSH1 0x0 REVERT JUMPDEST POP POP POP POP PUSH1 0x40 MLOAD RETURNDATASIZE PUSH1 0x1F NOT PUSH1 0x1F DUP3 ADD AND DUP3 ADD DUP1 PUSH1 0x40 MSTORE POP DUP2 ADD SWAP1 PUSH2 0x94A SWAP2 SWAP1 PUSH2 0x2355 JUMP JUMPDEST SWAP1 POP PUSH1 0x0 JUMPDEST DUP5 MLOAD DUP2 PUSH1 0xFF AND LT ISZERO PUSH2 0xD6F JUMPI PUSH1 0x0 DUP6 DUP3 PUSH1 0xFF AND DUP2 MLOAD DUP2 LT PUSH2 0x980 JUMPI PUSH4 0x4E487B71 PUSH1 0xE0 SHL PUSH1 0x0 MSTORE PUSH1 0x32 PUSH1 0x4 MSTORE PUSH1 0x24 PUSH1 0x0 REVERT JUMPDEST PUSH1 0x20 SWAP1 DUP2 MUL SWAP2 SWAP1 SWAP2 ADD DUP2 ADD MLOAD PUSH1 0x1 PUSH1 0x1 PUSH1 0xA0 SHL SUB DUP2 AND PUSH1 0x0 SWAP1 DUP2 MSTORE PUSH1 0x7 SWAP1 SWAP3 MSTORE PUSH1 0x40 SWAP1 SWAP2 KECCAK256 SLOAD SWAP1 SWAP2 POP PUSH1 0xFF AND PUSH2 0x9C8 JUMPI PUSH1 0x40 MLOAD PUSH3 0x461BCD PUSH1 0xE5 SHL DUP2 MSTORE PUSH1 0x4 ADD PUSH2 0x345 SWAP1 PUSH2 0x2AB7 JUMP JUMPDEST PUSH1 0x40 MLOAD PUSH4 0x94465B21 PUSH1 0xE0 SHL DUP2 MSTORE PUSH1 0x0 SWAP1 PUSH1 0x1 PUSH1 0x1 PUSH1 0xA0 SHL SUB DUP4 AND SWAP1 PUSH4 0x94465B21 SWAP1 PUSH2 0x9F7 SWAP1 CALLER SWAP1 PUSH1 0x4 ADD PUSH2 0x269D JUMP JUMPDEST PUSH1 0x20 PUSH1 0x40 MLOAD DUP1 DUP4 SUB DUP2 DUP7 DUP1 EXTCODESIZE ISZERO DUP1 ISZERO PUSH2 0xA0F JUMPI PUSH1 0x0 DUP1 REVERT JUMPDEST POP GAS STATICCALL ISZERO DUP1 ISZERO PUSH2 0xA23 JUMPI RETURNDATASIZE PUSH1 0x0 DUP1 RETURNDATACOPY RETURNDATASIZE PUSH1 0x0 REVERT JUMPDEST POP POP POP POP PUSH1 0x40 MLOAD RETURNDATASIZE PUSH1 0x1F NOT PUSH1 0x1F DUP3 ADD AND DUP3 ADD DUP1 PUSH1 0x40 MSTORE POP DUP2 ADD SWAP1 PUSH2 0xA47 SWAP2 SWAP1 PUSH2 0x262C JUMP JUMPDEST PUSH1 0x1 PUSH1 0x1 PUSH1 0xA0 SHL SUB DUP4 AND PUSH1 0x0 DUP2 DUP2 MSTORE PUSH1 0x6 PUSH1 0x20 SWAP1 DUP2 MSTORE PUSH1 0x40 DUP1 DUP4 KECCAK256 CALLER DUP5 MSTORE DUP3 MSTORE DUP1 DUP4 KECCAK256 SLOAD SWAP4 DUP4 MSTORE PUSH1 0x4 SWAP1 SWAP2 MSTORE DUP2 KECCAK256 SLOAD SWAP3 SWAP4 POP SWAP2 PUSH2 0xAA1 SWAP2 SWAP1 PUSH2 0xA9B SWAP1 PUSH5 0xE8D4A51000 SWAP1 PUSH2 0xA95 SWAP1 DUP8 SWAP1 PUSH2 0x1F0A JUMP JUMPDEST SWAP1 PUSH2 0x1F1D JUMP JUMPDEST SWAP1 PUSH2 0x1F29 JUMP JUMPDEST SWAP1 POP PUSH1 0x0 PUSH1 0x1 PUSH1 0x1 PUSH1 0xA0 SHL SUB DUP7 AND ISZERO DUP1 ISZERO SWAP1 PUSH2 0xB36 JUMPI POP PUSH1 0x40 MLOAD PUSH4 0x2B6D7E0F PUSH1 0xE2 SHL DUP2 MSTORE PUSH1 0x1 PUSH1 0x1 PUSH1 0xA0 SHL SUB DUP8 AND SWAP1 PUSH4 0xADB5F83C SWAP1 PUSH2 0xAE4 SWAP1 DUP8 SWAP1 PUSH1 0x4 ADD PUSH2 0x269D JUMP JUMPDEST PUSH1 0x20 PUSH1 0x40 MLOAD DUP1 DUP4 SUB DUP2 PUSH1 0x0 DUP8 DUP1 EXTCODESIZE ISZERO DUP1 ISZERO PUSH2 0xAFE JUMPI PUSH1 0x0 DUP1 REVERT JUMPDEST POP GAS CALL ISZERO DUP1 ISZERO PUSH2 0xB12 JUMPI RETURNDATASIZE PUSH1 0x0 DUP1 RETURNDATACOPY RETURNDATASIZE PUSH1 0x0 REVERT JUMPDEST POP POP POP POP PUSH1 0x40 MLOAD RETURNDATASIZE PUSH1 0x1F NOT PUSH1 0x1F DUP3 ADD AND DUP3 ADD DUP1 PUSH1 0x40 MSTORE POP DUP2 ADD SWAP1 PUSH2 0xB36 SWAP2 SWAP1 PUSH2 0x24B2 JUMP JUMPDEST ISZERO PUSH2 0xBDF JUMPI PUSH1 0x0 DUP7 PUSH1 0x1 PUSH1 0x1 PUSH1 0xA0 SHL SUB AND PUSH4 0x328686F6 PUSH1 0x40 MLOAD DUP2 PUSH4 0xFFFFFFFF AND PUSH1 0xE0 SHL DUP2 MSTORE PUSH1 0x4 ADD PUSH1 0x20 PUSH1 0x40 MLOAD DUP1 DUP4 SUB DUP2 DUP7 DUP1 EXTCODESIZE ISZERO DUP1 ISZERO PUSH2 0xB76 JUMPI PUSH1 0x0 DUP1 REVERT JUMPDEST POP GAS STATICCALL ISZERO DUP1 ISZERO PUSH2 0xB8A JUMPI RETURNDATASIZE PUSH1 0x0 DUP1 RETURNDATACOPY RETURNDATASIZE PUSH1 0x0 REVERT JUMPDEST POP POP POP POP PUSH1 0x40 MLOAD RETURNDATASIZE PUSH1 0x1F NOT PUSH1 0x1F DUP3 ADD AND DUP3 ADD DUP1 PUSH1 0x40 MSTORE POP DUP2 ADD SWAP1 PUSH2 0xBAE SWAP2 SWAP1 PUSH2 0x25F8 JUMP JUMPDEST SWAP1 POP PUSH2 0xFFFF DUP2 AND ISZERO PUSH2 0xBDD JUMPI PUSH2 0xBCE PUSH2 0x2710 PUSH2 0xA95 DUP6 PUSH2 0xFFFF DUP6 AND PUSH2 0x1F0A JUMP JUMPDEST SWAP2 POP PUSH2 0xBDA DUP4 DUP10 PUSH2 0x1F29 JUMP JUMPDEST SWAP3 POP JUMPDEST POP JUMPDEST DUP1 ISZERO PUSH2 0xC5D JUMPI PUSH1 0x40 MLOAD PUSH4 0x330FF7B5 PUSH1 0xE2 SHL DUP2 MSTORE PUSH1 0x1 PUSH1 0x1 PUSH1 0xA0 SHL SUB DUP8 AND SWAP1 PUSH4 0xCC3FDED4 SWAP1 PUSH2 0xC15 SWAP1 ADDRESS SWAP1 DUP9 SWAP1 DUP7 SWAP1 PUSH1 0x4 ADD PUSH2 0x26B1 JUMP JUMPDEST PUSH1 0x0 PUSH1 0x40 MLOAD DUP1 DUP4 SUB DUP2 PUSH1 0x0 DUP8 DUP1 EXTCODESIZE ISZERO DUP1 ISZERO PUSH2 0xC2F JUMPI PUSH1 0x0 DUP1 REVERT JUMPDEST POP GAS CALL ISZERO DUP1 ISZERO PUSH2 0xC43 JUMPI RETURNDATASIZE PUSH1 0x0 DUP1 RETURNDATACOPY RETURNDATASIZE PUSH1 0x0 REVERT JUMPDEST POP POP POP POP PUSH2 0xC5A DUP2 DUP9 PUSH2 0x1F35 SWAP1 SWAP2 SWAP1 PUSH4 0xFFFFFFFF AND JUMP JUMPDEST SWAP7 POP JUMPDEST DUP2 ISZERO PUSH2 0xCB6 JUMPI PUSH1 0x1 PUSH1 0x1 PUSH1 0xA0 SHL SUB DUP5 AND PUSH1 0x0 SWAP1 DUP2 MSTORE PUSH1 0x5 PUSH1 0x20 SWAP1 DUP2 MSTORE PUSH1 0x40 DUP1 DUP4 KECCAK256 CALLER DUP5 MSTORE SWAP1 SWAP2 MSTORE SWAP1 KECCAK256 SLOAD PUSH2 0xC91 SWAP1 DUP4 PUSH2 0x1F35 JUMP JUMPDEST PUSH1 0x1 PUSH1 0x1 PUSH1 0xA0 SHL SUB DUP6 AND PUSH1 0x0 SWAP1 DUP2 MSTORE PUSH1 0x5 PUSH1 0x20 SWAP1 DUP2 MSTORE PUSH1 0x40 DUP1 DUP4 KECCAK256 CALLER DUP5 MSTORE SWAP1 SWAP2 MSTORE SWAP1 KECCAK256 SSTORE JUMPDEST PUSH1 0x1 PUSH1 0x1 PUSH1 0xA0 SHL SUB DUP5 AND PUSH1 0x0 SWAP1 DUP2 MSTORE PUSH1 0x5 PUSH1 0x20 SWAP1 DUP2 MSTORE PUSH1 0x40 DUP1 DUP4 KECCAK256 CALLER DUP5 MSTORE SWAP1 SWAP2 MSTORE SWAP1 KECCAK256 SLOAD PUSH2 0xCE5 SWAP1 DUP10 SWAP1 PUSH2 0x1F35 JUMP JUMPDEST PUSH1 0x1 PUSH1 0x1 PUSH1 0xA0 SHL SUB DUP6 AND PUSH1 0x0 SWAP1 DUP2 MSTORE PUSH1 0x4 PUSH1 0x20 MSTORE PUSH1 0x40 SWAP1 KECCAK256 SLOAD SWAP1 SWAP9 POP PUSH2 0xD17 SWAP1 PUSH5 0xE8D4A51000 SWAP1 PUSH2 0xA95 SWAP1 DUP7 SWAP1 PUSH2 0x1F0A JUMP JUMPDEST PUSH1 0x1 PUSH1 0x1 PUSH1 0xA0 SHL SUB SWAP1 SWAP5 AND PUSH1 0x0 DUP2 DUP2 MSTORE PUSH1 0x6 PUSH1 0x20 SWAP1 DUP2 MSTORE PUSH1 0x40 DUP1 DUP4 KECCAK256 CALLER DUP1 DUP6 MSTORE SWAP1 DUP4 MSTORE DUP2 DUP5 KECCAK256 SWAP9 SWAP1 SWAP9 SSTORE SWAP3 DUP3 MSTORE PUSH1 0x5 DUP2 MSTORE DUP3 DUP3 KECCAK256 SWAP7 DUP3 MSTORE SWAP6 SWAP1 SWAP6 MSTORE DUP5 KECCAK256 SWAP4 SWAP1 SWAP4 SSTORE POP DUP3 SWAP2 POP PUSH2 0xD67 SWAP1 POP DUP2 PUSH2 0x2C74 JUMP JUMPDEST SWAP2 POP POP PUSH2 0x94F JUMP JUMPDEST POP DUP2 ISZERO PUSH2 0xD80 JUMPI PUSH2 0xD80 DUP2 DUP4 PUSH2 0x1F41 JUMP JUMPDEST PUSH2 0xD8A CALLER DUP5 PUSH2 0x1F41 JUMP JUMPDEST CALLER PUSH1 0x1 PUSH1 0x1 PUSH1 0xA0 SHL SUB AND PUSH32 0x6EF8CF0D66677B36D11EE4E51DBD733FCD95070B8C2EB524FB96952F26115CB2 DUP6 DUP6 PUSH1 0x40 MLOAD PUSH2 0xDC5 SWAP3 SWAP2 SWAP1 PUSH2 0x2766 JUMP JUMPDEST PUSH1 0x40 MLOAD DUP1 SWAP2 SUB SWAP1 LOG2 POP POP POP JUMPDEST POP JUMP JUMPDEST PUSH1 0x0 SLOAD PUSH1 0x1 PUSH1 0x1 PUSH1 0xA0 SHL SUB AND SWAP1 JUMP JUMPDEST PUSH32 0x0 DUP2 JUMP JUMPDEST PUSH1 0x1 PUSH1 0x1 PUSH1 0xA0 SHL SUB AND PUSH1 0x0 SWAP1 DUP2 MSTORE PUSH1 0x3 PUSH1 0x20 MSTORE PUSH1 0x40 SWAP1 KECCAK256 SLOAD PUSH1 0xFF AND SWAP1 JUMP JUMPDEST PUSH32 0x0 SWAP1 JUMP JUMPDEST PUSH2 0xE51 PUSH2 0x164E JUMP JUMPDEST PUSH1 0x0 PUSH1 0x2 SLOAD GT PUSH2 0xE60 JUMPI PUSH1 0x0 DUP1 REVERT JUMPDEST PUSH1 0x2 SLOAD PUSH32 0x0 PUSH2 0xF40 JUMPI PUSH1 0x40 MLOAD PUSH4 0x70A08231 PUSH1 0xE0 SHL DUP2 MSTORE PUSH1 0x0 SWAP1 PUSH1 0x1 PUSH1 0x1 PUSH1 0xA0 SHL SUB PUSH32 0x0 AND SWAP1 PUSH4 0x70A08231 SWAP1 PUSH2 0xED7 SWAP1 ADDRESS SWAP1 PUSH1 0x4 ADD PUSH2 0x269D JUMP JUMPDEST PUSH1 0x20 PUSH1 0x40 MLOAD DUP1 DUP4 SUB DUP2 DUP7 DUP1 EXTCODESIZE ISZERO DUP1 ISZERO PUSH2 0xEEF JUMPI PUSH1 0x0 DUP1 REVERT JUMPDEST POP GAS STATICCALL ISZERO DUP1 ISZERO PUSH2 0xF03 JUMPI RETURNDATASIZE PUSH1 0x0 DUP1 RETURNDATACOPY RETURNDATASIZE PUSH1 0x0 REVERT JUMPDEST POP POP POP POP PUSH1 0x40 MLOAD RETURNDATASIZE PUSH1 0x1F NOT PUSH1 0x1F DUP3 ADD AND DUP3 ADD DUP1 PUSH1 0x40 MSTORE POP DUP2 ADD SWAP1 PUSH2 0xF27 SWAP2 SWAP1 PUSH2 0x262C JUMP JUMPDEST SWAP1 POP PUSH1 0x2 SLOAD DUP2 LT PUSH2 0xF3A JUMPI PUSH1 0x2 SLOAD PUSH2 0xF3C JUMP JUMPDEST DUP1 JUMPDEST SWAP2 POP POP JUMPDEST PUSH1 0x1 SLOAD PUSH2 0xF56 SWAP1 PUSH1 0x1 PUSH1 0x1 PUSH1 0xA0 SHL SUB AND DUP3 PUSH2 0x1F41 JUMP JUMPDEST PUSH1 0x2 SLOAD PUSH2 0xF63 SWAP1 DUP3 PUSH2 0x1F29 JUMP JUMPDEST PUSH1 0x2 SSTORE PUSH1 0x1 SLOAD PUSH1 0x40 MLOAD PUSH1 0x1 PUSH1 0x1 PUSH1 0xA0 SHL SUB SWAP1 SWAP2 AND SWAP1 PUSH32 0x86A5CC8FE9AF9AE68FB50F62885307A7755A30CBD290131644377F0BD94A7181 SWAP1 PUSH2 0xFA5 SWAP1 DUP5 SWAP1 PUSH2 0x2AFF JUMP JUMPDEST PUSH1 0x40 MLOAD DUP1 SWAP2 SUB SWAP1 LOG2 POP JUMP JUMPDEST PUSH2 0xFB8 PUSH2 0x164E JUMP JUMPDEST PUSH2 0xDD1 PUSH32 0x0 CALLER DUP4 PUSH2 0x1FBE JUMP JUMPDEST PUSH1 0x1 PUSH1 0x1 PUSH1 0xA0 SHL SUB AND PUSH1 0x0 SWAP1 DUP2 MSTORE PUSH1 0x4 PUSH1 0x20 MSTORE PUSH1 0x40 SWAP1 KECCAK256 SLOAD SWAP1 JUMP JUMPDEST PUSH1 0x1 PUSH1 0x1 PUSH1 0xA0 SHL SUB DUP1 DUP4 AND PUSH1 0x0 SWAP1 DUP2 MSTORE PUSH1 0x6 PUSH1 0x20 SWAP1 DUP2 MSTORE PUSH1 0x40 DUP1 DUP4 KECCAK256 SWAP4 DUP6 AND DUP4 MSTORE SWAP3 SWAP1 MSTORE KECCAK256 SLOAD JUMPDEST SWAP3 SWAP2 POP POP JUMP JUMPDEST PUSH1 0x0 DUP1 DUP1 JUMPDEST PUSH1 0xA SLOAD PUSH2 0xFFFF DUP3 AND LT ISZERO PUSH2 0x109F JUMPI PUSH2 0x108B PUSH2 0x1084 PUSH1 0xA DUP4 PUSH2 0xFFFF AND DUP2 SLOAD DUP2 LT PUSH2 0x1069 JUMPI PUSH4 0x4E487B71 PUSH1 0xE0 SHL PUSH1 0x0 MSTORE PUSH1 0x32 PUSH1 0x4 MSTORE PUSH1 0x24 PUSH1 0x0 REVERT JUMPDEST PUSH1 0x0 SWAP2 DUP3 MSTORE PUSH1 0x20 SWAP1 SWAP2 KECCAK256 ADD SLOAD PUSH1 0x1 PUSH1 0x1 PUSH1 0xA0 SHL SUB AND DUP7 PUSH2 0x1353 JUMP JUMPDEST DUP4 SWAP1 PUSH2 0x1F35 JUMP JUMPDEST SWAP2 POP DUP1 PUSH2 0x1097 DUP2 PUSH2 0x2C37 JUMP JUMPDEST SWAP2 POP POP PUSH2 0x1030 JUMP JUMPDEST POP SWAP3 SWAP2 POP POP JUMP JUMPDEST CALLER PUSH1 0x0 SWAP1 DUP2 MSTORE PUSH1 0x7 PUSH1 0x20 MSTORE PUSH1 0x40 SWAP1 KECCAK256 SLOAD PUSH1 0xFF AND PUSH2 0x10D5 JUMPI PUSH1 0x40 MLOAD PUSH3 0x461BCD PUSH1 0xE5 SHL DUP2 MSTORE PUSH1 0x4 ADD PUSH2 0x345 SWAP1 PUSH2 0x2A0D JUMP JUMPDEST PUSH2 0x10E0 DUP3 DUP3 CALLER PUSH2 0x171A JUMP JUMPDEST POP POP JUMP JUMPDEST CALLER PUSH1 0x0 SWAP1 DUP2 MSTORE PUSH1 0x7 PUSH1 0x20 MSTORE PUSH1 0x40 SWAP1 KECCAK256 SLOAD PUSH1 0xFF AND PUSH2 0x1113 JUMPI PUSH1 0x40 MLOAD PUSH3 0x461BCD PUSH1 0xE5 SHL DUP2 MSTORE PUSH1 0x4 ADD PUSH2 0x345 SWAP1 PUSH2 0x2A0D JUMP JUMPDEST CALLER PUSH1 0x0 SWAP1 DUP2 MSTORE PUSH1 0x6 PUSH1 0x20 SWAP1 DUP2 MSTORE PUSH1 0x40 DUP1 DUP4 KECCAK256 PUSH1 0x1 PUSH1 0x1 PUSH1 0xA0 SHL SUB SWAP6 SWAP1 SWAP6 AND DUP4 MSTORE SWAP4 SWAP1 MSTORE SWAP2 SWAP1 SWAP2 KECCAK256 SSTORE JUMP JUMPDEST PUSH2 0x1145 PUSH2 0x164E JUMP JUMPDEST PUSH2 0x2710 PUSH2 0xFFFF DUP3 AND GT ISZERO PUSH2 0x116B JUMPI PUSH1 0x40 MLOAD PUSH3 0x461BCD PUSH1 0xE5 SHL DUP2 MSTORE PUSH1 0x4 ADD PUSH2 0x345 SWAP1 PUSH2 0x2A7C JUMP JUMPDEST PUSH2 0x119F PUSH1 0x40 MLOAD DUP1 PUSH1 0x40 ADD PUSH1 0x40 MSTORE DUP1 PUSH1 0x9 DUP2 MSTORE PUSH1 0x20 ADD PUSH9 0x434F4D4D554E495459 PUSH1 0xB8 SHL DUP2 MSTORE POP PUSH2 0x1198 PUSH2 0xDD4 JUMP JUMPDEST PUSH1 0x0 PUSH2 0x171A JUMP JUMPDEST PUSH1 0x0 DUP1 SLOAD PUSH2 0xFFFF PUSH1 0xA0 SHL NOT AND PUSH1 0x1 PUSH1 0xA0 SHL PUSH2 0xFFFF DUP5 AND MUL OR SWAP1 SSTORE PUSH1 0x40 MLOAD PUSH32 0xB5EA2431F5202DAEB0439A80DF086A35EC0ABFD105E20F5564A824062596C09E SWAP1 PUSH2 0x11E9 SWAP1 DUP4 SWAP1 PUSH2 0x2AF0 JUMP JUMPDEST PUSH1 0x40 MLOAD DUP1 SWAP2 SUB SWAP1 LOG1 POP JUMP JUMPDEST PUSH1 0xA DUP2 DUP2 SLOAD DUP2 LT PUSH2 0x800 JUMPI PUSH1 0x0 DUP1 REVERT JUMPDEST CALLER PUSH1 0x0 SWAP1 DUP2 MSTORE PUSH1 0x7 PUSH1 0x20 MSTORE PUSH1 0x40 SWAP1 KECCAK256 SLOAD PUSH1 0xFF AND PUSH2 0x1233 JUMPI PUSH1 0x40 MLOAD PUSH3 0x461BCD PUSH1 0xE5 SHL DUP2 MSTORE PUSH1 0x4 ADD PUSH2 0x345 SWAP1 PUSH2 0x2A0D JUMP JUMPDEST CALLER PUSH1 0x0 SWAP1 DUP2 MSTORE PUSH1 0x5 PUSH1 0x20 SWAP1 DUP2 MSTORE PUSH1 0x40 DUP1 DUP4 KECCAK256 PUSH1 0x1 PUSH1 0x1 PUSH1 0xA0 SHL SUB DUP7 AND DUP5 MSTORE SWAP1 SWAP2 MSTORE SWAP1 KECCAK256 SLOAD PUSH2 0x1261 SWAP1 DUP3 PUSH2 0x1F35 JUMP JUMPDEST CALLER PUSH1 0x0 SWAP1 DUP2 MSTORE PUSH1 0x5 PUSH1 0x20 SWAP1 DUP2 MSTORE PUSH1 0x40 DUP1 DUP4 KECCAK256 PUSH1 0x1 PUSH1 0x1 PUSH1 0xA0 SHL SUB SWAP7 SWAP1 SWAP7 AND DUP4 MSTORE SWAP5 SWAP1 MSTORE SWAP3 SWAP1 SWAP3 KECCAK256 SWAP2 SWAP1 SWAP2 SSTORE POP JUMP JUMPDEST PUSH2 0x1297 PUSH2 0x164E JUMP JUMPDEST PUSH1 0x1 PUSH1 0x1 PUSH1 0xA0 SHL SUB DUP2 AND PUSH2 0x12BD JUMPI PUSH1 0x40 MLOAD PUSH3 0x461BCD PUSH1 0xE5 SHL DUP2 MSTORE PUSH1 0x4 ADD PUSH2 0x345 SWAP1 PUSH2 0x28E9 JUMP JUMPDEST PUSH2 0xDD1 DUP2 PUSH2 0x1EBA JUMP JUMPDEST PUSH2 0x12CE PUSH2 0x164E JUMP JUMPDEST DUP1 MLOAD PUSH1 0x9 SLOAD EQ PUSH2 0x12F0 JUMPI PUSH1 0x40 MLOAD PUSH3 0x461BCD PUSH1 0xE5 SHL DUP2 MSTORE PUSH1 0x4 ADD PUSH2 0x345 SWAP1 PUSH2 0x29D4 JUMP JUMPDEST PUSH2 0x12F9 DUP2 PUSH2 0x168D JUMP JUMPDEST PUSH2 0x1326 PUSH1 0x40 MLOAD DUP1 PUSH1 0x40 ADD PUSH1 0x40 MSTORE DUP1 PUSH1 0x9 DUP2 MSTORE PUSH1 0x20 ADD PUSH9 0x434F4D4D554E495459 PUSH1 0xB8 SHL DUP2 MSTORE POP PUSH2 0x1198 PUSH2 0xDD4 JUMP JUMPDEST PUSH2 0xDD1 DUP2 PUSH2 0x1DD6 JUMP JUMPDEST PUSH32 0x0 DUP2 JUMP JUMPDEST PUSH1 0x0 PUSH1 0xB SLOAD PUSH1 0x0 EQ ISZERO PUSH2 0x1368 JUMPI POP PUSH1 0x0 PUSH2 0x1025 JUMP JUMPDEST PUSH1 0x0 DUP1 SLOAD PUSH2 0x1445 SWAP1 PUSH2 0x2710 SWAP1 PUSH2 0xA95 SWAP1 PUSH2 0x138D SWAP1 PUSH1 0x1 PUSH1 0xA0 SHL SWAP1 DIV PUSH2 0xFFFF AND DUP4 PUSH2 0x2BD1 JUMP JUMPDEST PUSH2 0xFFFF AND PUSH32 0x0 PUSH1 0x1 PUSH1 0x1 PUSH1 0xA0 SHL SUB AND PUSH4 0x2C32C360 ADDRESS PUSH1 0xB SLOAD PUSH1 0x1 PUSH2 0x13D0 SWAP2 SWAP1 PUSH2 0x2B7A JUMP JUMPDEST NUMBER PUSH1 0x40 MLOAD DUP5 PUSH4 0xFFFFFFFF AND PUSH1 0xE0 SHL DUP2 MSTORE PUSH1 0x4 ADD PUSH2 0x13EF SWAP4 SWAP3 SWAP2 SWAP1 PUSH2 0x2745 JUMP JUMPDEST PUSH1 0x20 PUSH1 0x40 MLOAD DUP1 DUP4 SUB DUP2 DUP7 DUP1 EXTCODESIZE ISZERO DUP1 ISZERO PUSH2 0x1407 JUMPI PUSH1 0x0 DUP1 REVERT JUMPDEST POP GAS STATICCALL ISZERO DUP1 ISZERO PUSH2 0x141B JUMPI RETURNDATASIZE PUSH1 0x0 DUP1 RETURNDATACOPY RETURNDATASIZE PUSH1 0x0 REVERT JUMPDEST POP POP POP POP PUSH1 0x40 MLOAD RETURNDATASIZE PUSH1 0x1F NOT PUSH1 0x1F DUP3 ADD AND DUP3 ADD DUP1 PUSH1 0x40 MSTORE POP DUP2 ADD SWAP1 PUSH2 0x143F SWAP2 SWAP1 PUSH2 0x262C JUMP JUMPDEST SWAP1 PUSH2 0x1F0A JUMP JUMPDEST SWAP1 POP PUSH1 0x0 DUP5 PUSH1 0x1 PUSH1 0x1 PUSH1 0xA0 SHL SUB AND PUSH4 0x94465B21 DUP6 PUSH1 0x40 MLOAD DUP3 PUSH4 0xFFFFFFFF AND PUSH1 0xE0 SHL DUP2 MSTORE PUSH1 0x4 ADD PUSH2 0x1475 SWAP2 SWAP1 PUSH2 0x269D JUMP JUMPDEST PUSH1 0x20 PUSH1 0x40 MLOAD DUP1 DUP4 SUB DUP2 DUP7 DUP1 EXTCODESIZE ISZERO DUP1 ISZERO PUSH2 0x148D JUMPI PUSH1 0x0 DUP1 REVERT JUMPDEST POP GAS STATICCALL ISZERO DUP1 ISZERO PUSH2 0x14A1 JUMPI RETURNDATASIZE PUSH1 0x0 DUP1 RETURNDATACOPY RETURNDATASIZE PUSH1 0x0 REVERT JUMPDEST POP POP POP POP PUSH1 0x40 MLOAD RETURNDATASIZE PUSH1 0x1F NOT PUSH1 0x1F DUP3 ADD AND DUP3 ADD DUP1 PUSH1 0x40 MSTORE POP DUP2 ADD SWAP1 PUSH2 0x14C5 SWAP2 SWAP1 PUSH2 0x262C JUMP JUMPDEST SWAP1 POP DUP1 PUSH2 0x14FA JUMPI POP POP POP PUSH1 0x1 PUSH1 0x1 PUSH1 0xA0 SHL SUB DUP1 DUP4 AND PUSH1 0x0 SWAP1 DUP2 MSTORE PUSH1 0x5 PUSH1 0x20 SWAP1 DUP2 MSTORE PUSH1 0x40 DUP1 DUP4 KECCAK256 SWAP4 DUP6 AND DUP4 MSTORE SWAP3 SWAP1 MSTORE KECCAK256 SLOAD PUSH2 0x1025 JUMP JUMPDEST PUSH1 0x0 DUP6 PUSH1 0x1 PUSH1 0x1 PUSH1 0xA0 SHL SUB AND PUSH4 0x38ADB6F0 PUSH1 0x40 MLOAD DUP2 PUSH4 0xFFFFFFFF AND PUSH1 0xE0 SHL DUP2 MSTORE PUSH1 0x4 ADD PUSH1 0x20 PUSH1 0x40 MLOAD DUP1 DUP4 SUB DUP2 DUP7 DUP1 EXTCODESIZE ISZERO DUP1 ISZERO PUSH2 0x1535 JUMPI PUSH1 0x0 DUP1 REVERT JUMPDEST POP GAS STATICCALL ISZERO DUP1 ISZERO PUSH2 0x1549 JUMPI RETURNDATASIZE PUSH1 0x0 DUP1 RETURNDATACOPY RETURNDATASIZE PUSH1 0x0 REVERT JUMPDEST POP POP POP POP PUSH1 0x40 MLOAD RETURNDATASIZE PUSH1 0x1F NOT PUSH1 0x1F DUP3 ADD AND DUP3 ADD DUP1 PUSH1 0x40 MSTORE POP DUP2 ADD SWAP1 PUSH2 0x156D SWAP2 SWAP1 PUSH2 0x262C JUMP JUMPDEST PUSH1 0x1 PUSH1 0x1 PUSH1 0xA0 SHL SUB DUP8 AND PUSH1 0x0 SWAP1 DUP2 MSTORE PUSH1 0x8 PUSH1 0x20 MSTORE PUSH1 0x40 DUP2 KECCAK256 SLOAD SWAP2 SWAP3 POP SWAP1 PUSH2 0x15CC SWAP1 PUSH2 0x15AD SWAP1 DUP5 SWAP1 PUSH2 0xA95 SWAP1 PUSH4 0x5F5E100 SWAP1 PUSH2 0x143F SWAP1 DUP11 SWAP1 PUSH2 0xFFFF AND PUSH2 0x1F0A JUMP JUMPDEST PUSH1 0x1 PUSH1 0x1 PUSH1 0xA0 SHL SUB DUP10 AND PUSH1 0x0 SWAP1 DUP2 MSTORE PUSH1 0x4 PUSH1 0x20 MSTORE PUSH1 0x40 SWAP1 KECCAK256 SLOAD SWAP1 PUSH2 0x1F35 JUMP JUMPDEST PUSH1 0x1 PUSH1 0x1 PUSH1 0xA0 SHL SUB DUP1 DUP10 AND PUSH1 0x0 SWAP1 DUP2 MSTORE PUSH1 0x6 PUSH1 0x20 SWAP1 DUP2 MSTORE PUSH1 0x40 DUP1 DUP4 KECCAK256 SWAP4 DUP12 AND DUP4 MSTORE SWAP3 SWAP1 MSTORE SWAP1 DUP2 KECCAK256 SLOAD SWAP2 SWAP3 POP SWAP1 PUSH2 0x160F SWAP1 PUSH2 0xA9B PUSH5 0xE8D4A51000 PUSH2 0xA95 DUP9 DUP8 PUSH2 0x1F0A JUMP JUMPDEST PUSH1 0x1 PUSH1 0x1 PUSH1 0xA0 SHL SUB DUP1 DUP11 AND PUSH1 0x0 SWAP1 DUP2 MSTORE PUSH1 0x5 PUSH1 0x20 SWAP1 DUP2 MSTORE PUSH1 0x40 DUP1 DUP4 KECCAK256 SWAP4 DUP13 AND DUP4 MSTORE SWAP3 SWAP1 MSTORE KECCAK256 SLOAD SWAP1 SWAP2 POP PUSH2 0x1642 SWAP1 DUP3 PUSH2 0x1F35 JUMP JUMPDEST SWAP9 SWAP8 POP POP POP POP POP POP POP POP JUMP JUMPDEST PUSH2 0x1656 PUSH2 0x1FD0 JUMP JUMPDEST PUSH1 0x1 PUSH1 0x1 PUSH1 0xA0 SHL SUB AND PUSH2 0x1667 PUSH2 0xDD4 JUMP JUMPDEST PUSH1 0x1 PUSH1 0x1 PUSH1 0xA0 SHL SUB AND EQ PUSH2 0x82C JUMPI PUSH1 0x40 MLOAD PUSH3 0x461BCD PUSH1 0xE5 SHL DUP2 MSTORE PUSH1 0x4 ADD PUSH2 0x345 SWAP1 PUSH2 0x2A47 JUMP JUMPDEST PUSH1 0x0 DUP1 JUMPDEST DUP3 MLOAD DUP2 PUSH1 0xFF AND LT ISZERO PUSH2 0x16E7 JUMPI DUP3 DUP2 PUSH1 0xFF AND DUP2 MLOAD DUP2 LT PUSH2 0x16C0 JUMPI PUSH4 0x4E487B71 PUSH1 0xE0 SHL PUSH1 0x0 MSTORE PUSH1 0x32 PUSH1 0x4 MSTORE PUSH1 0x24 PUSH1 0x0 REVERT JUMPDEST PUSH1 0x20 MUL PUSH1 0x20 ADD ADD MLOAD DUP3 PUSH2 0x16D3 SWAP2 SWAP1 PUSH2 0x2B54 JUMP JUMPDEST SWAP2 POP DUP1 PUSH2 0x16DF DUP2 PUSH2 0x2C74 JUMP JUMPDEST SWAP2 POP POP PUSH2 0x1691 JUMP JUMPDEST POP PUSH2 0xFFFF DUP2 AND PUSH2 0x2710 EQ DUP1 PUSH2 0x16FE JUMPI POP PUSH2 0xFFFF DUP2 AND ISZERO JUMPDEST PUSH2 0x10E0 JUMPI PUSH1 0x40 MLOAD PUSH3 0x461BCD PUSH1 0xE5 SHL DUP2 MSTORE PUSH1 0x4 ADD PUSH2 0x345 SWAP1 PUSH2 0x29B4 JUMP JUMPDEST PUSH1 0x40 MLOAD PUSH4 0x4CA1A919 PUSH1 0xE0 SHL DUP2 MSTORE PUSH1 0x1 PUSH1 0x1 PUSH1 0xA0 SHL SUB PUSH32 0x0 AND SWAP1 PUSH4 0x4CA1A919 SWAP1 PUSH2 0x1766 SWAP1 DUP6 SWAP1 PUSH1 0x4 ADD PUSH2 0x269D JUMP JUMPDEST PUSH1 0x20 PUSH1 0x40 MLOAD DUP1 DUP4 SUB DUP2 DUP7 DUP1 EXTCODESIZE ISZERO DUP1 ISZERO PUSH2 0x177E JUMPI PUSH1 0x0 DUP1 REVERT JUMPDEST POP GAS STATICCALL ISZERO DUP1 ISZERO PUSH2 0x1792 JUMPI RETURNDATASIZE PUSH1 0x0 DUP1 RETURNDATACOPY RETURNDATASIZE PUSH1 0x0 REVERT JUMPDEST POP POP POP POP PUSH1 0x40 MLOAD RETURNDATASIZE PUSH1 0x1F NOT PUSH1 0x1F DUP3 ADD AND DUP3 ADD DUP1 PUSH1 0x40 MSTORE POP DUP2 ADD SWAP1 PUSH2 0x17B6 SWAP2 SWAP1 PUSH2 0x24B2 JUMP JUMPDEST ISZERO DUP1 ISZERO PUSH2 0x185F JUMPI POP PUSH1 0x40 MLOAD PUSH4 0x1DA3DDCD PUSH1 0xE3 SHL DUP2 MSTORE PUSH1 0x0 SWAP1 PUSH1 0x1 PUSH1 0x1 PUSH1 0xA0 SHL SUB PUSH32 0x0 AND SWAP1 PUSH4 0xED1EEE68 SWAP1 PUSH2 0x180D SWAP1 DUP8 SWAP1 PUSH1 0x4 ADD PUSH2 0x2848 JUMP JUMPDEST PUSH1 0x20 PUSH1 0x40 MLOAD DUP1 DUP4 SUB DUP2 DUP7 DUP1 EXTCODESIZE ISZERO DUP1 ISZERO PUSH2 0x1825 JUMPI PUSH1 0x0 DUP1 REVERT JUMPDEST POP GAS STATICCALL ISZERO DUP1 ISZERO PUSH2 0x1839 JUMPI RETURNDATASIZE PUSH1 0x0 DUP1 RETURNDATACOPY RETURNDATASIZE PUSH1 0x0 REVERT JUMPDEST POP POP POP POP PUSH1 0x40 MLOAD RETURNDATASIZE PUSH1 0x1F NOT PUSH1 0x1F DUP3 ADD AND DUP3 ADD DUP1 PUSH1 0x40 MSTORE POP DUP2 ADD SWAP1 PUSH2 0x185D SWAP2 SWAP1 PUSH2 0x262C JUMP JUMPDEST GT JUMPDEST ISZERO PUSH2 0x1AB0 JUMPI PUSH2 0x1A2B PUSH32 0x0 PUSH1 0x1 PUSH1 0x1 PUSH1 0xA0 SHL SUB AND PUSH4 0xC10BDE0B PUSH1 0x40 MLOAD DUP2 PUSH4 0xFFFFFFFF AND PUSH1 0xE0 SHL DUP2 MSTORE PUSH1 0x4 ADD PUSH1 0x20 PUSH1 0x40 MLOAD DUP1 DUP4 SUB DUP2 DUP7 DUP1 EXTCODESIZE ISZERO DUP1 ISZERO PUSH2 0x18C0 JUMPI PUSH1 0x0 DUP1 REVERT JUMPDEST POP GAS STATICCALL ISZERO DUP1 ISZERO PUSH2 0x18D4 JUMPI RETURNDATASIZE PUSH1 0x0 DUP1 RETURNDATACOPY RETURNDATASIZE PUSH1 0x0 REVERT JUMPDEST POP POP POP POP PUSH1 0x40 MLOAD RETURNDATASIZE PUSH1 0x1F NOT PUSH1 0x1F DUP3 ADD AND DUP3 ADD DUP1 PUSH1 0x40 MSTORE POP DUP2 ADD SWAP1 PUSH2 0x18F8 SWAP2 SWAP1 PUSH2 0x2355 JUMP JUMPDEST DUP4 PUSH32 0x0 PUSH1 0x1 PUSH1 0x1 PUSH1 0xA0 SHL SUB AND PUSH4 0x3B19E84A PUSH1 0x40 MLOAD DUP2 PUSH4 0xFFFFFFFF AND PUSH1 0xE0 SHL DUP2 MSTORE PUSH1 0x4 ADD PUSH1 0x20 PUSH1 0x40 MLOAD DUP1 DUP4 SUB DUP2 DUP7 DUP1 EXTCODESIZE ISZERO DUP1 ISZERO PUSH2 0x1952 JUMPI PUSH1 0x0 DUP1 REVERT JUMPDEST POP GAS STATICCALL ISZERO DUP1 ISZERO PUSH2 0x1966 JUMPI RETURNDATASIZE PUSH1 0x0 DUP1 RETURNDATACOPY RETURNDATASIZE PUSH1 0x0 REVERT JUMPDEST POP POP POP POP PUSH1 0x40 MLOAD RETURNDATASIZE PUSH1 0x1F NOT PUSH1 0x1F DUP3 ADD AND DUP3 ADD DUP1 PUSH1 0x40 MSTORE POP DUP2 ADD SWAP1 PUSH2 0x198A SWAP2 SWAP1 PUSH2 0x2355 JUMP JUMPDEST PUSH1 0x40 MLOAD PUSH4 0x1DA3DDCD PUSH1 0xE3 SHL DUP2 MSTORE PUSH1 0x1 PUSH1 0x1 PUSH1 0xA0 SHL SUB PUSH32 0x0 AND SWAP1 PUSH4 0xED1EEE68 SWAP1 PUSH2 0x19D6 SWAP1 DUP11 SWAP1 PUSH1 0x4 ADD PUSH2 0x2848 JUMP JUMPDEST PUSH1 0x20 PUSH1 0x40 MLOAD DUP1 DUP4 SUB DUP2 DUP7 DUP1 EXTCODESIZE ISZERO DUP1 ISZERO PUSH2 0x19EE JUMPI PUSH1 0x0 DUP1 REVERT JUMPDEST POP GAS STATICCALL ISZERO DUP1 ISZERO PUSH2 0x1A02 JUMPI RETURNDATASIZE PUSH1 0x0 DUP1 RETURNDATACOPY RETURNDATASIZE PUSH1 0x0 REVERT JUMPDEST POP POP POP POP PUSH1 0x40 MLOAD RETURNDATASIZE PUSH1 0x1F NOT PUSH1 0x1F DUP3 ADD AND DUP3 ADD DUP1 PUSH1 0x40 MSTORE POP DUP2 ADD SWAP1 PUSH2 0x1A26 SWAP2 SWAP1 PUSH2 0x262C JUMP JUMPDEST PUSH2 0x1FD4 JUMP JUMPDEST PUSH1 0x40 MLOAD PUSH4 0x38815F3 PUSH1 0xE4 SHL DUP2 MSTORE PUSH1 0x1 PUSH1 0x1 PUSH1 0xA0 SHL SUB PUSH32 0x0 AND SWAP1 PUSH4 0x38815F30 SWAP1 PUSH2 0x1A7D SWAP1 DUP7 SWAP1 ADDRESS SWAP1 DUP7 SWAP1 DUP9 SWAP1 PUSH1 0x4 ADD PUSH2 0x285B JUMP JUMPDEST PUSH1 0x0 PUSH1 0x40 MLOAD DUP1 DUP4 SUB DUP2 PUSH1 0x0 DUP8 DUP1 EXTCODESIZE ISZERO DUP1 ISZERO PUSH2 0x1A97 JUMPI PUSH1 0x0 DUP1 REVERT JUMPDEST POP GAS CALL ISZERO DUP1 ISZERO PUSH2 0x1AAB JUMPI RETURNDATASIZE PUSH1 0x0 DUP1 RETURNDATACOPY RETURNDATASIZE PUSH1 0x0 REVERT JUMPDEST POP POP POP POP JUMPDEST PUSH1 0xB SLOAD PUSH1 0x0 SWAP1 NUMBER SWAP1 PUSH2 0x1AC2 JUMPI PUSH1 0xB DUP2 SWAP1 SSTORE JUMPDEST PUSH1 0xB SLOAD DUP2 GT PUSH2 0x1AD2 JUMPI POP POP PUSH2 0x1DD1 JUMP JUMPDEST PUSH32 0x0 PUSH1 0x1 PUSH1 0x1 PUSH1 0xA0 SHL SUB AND PUSH4 0x2C32C360 ADDRESS PUSH1 0xB SLOAD PUSH1 0x1 PUSH2 0x1B11 SWAP2 SWAP1 PUSH2 0x2B7A JUMP JUMPDEST DUP5 PUSH1 0x40 MLOAD DUP5 PUSH4 0xFFFFFFFF AND PUSH1 0xE0 SHL DUP2 MSTORE PUSH1 0x4 ADD PUSH2 0x1B30 SWAP4 SWAP3 SWAP2 SWAP1 PUSH2 0x2745 JUMP JUMPDEST PUSH1 0x20 PUSH1 0x40 MLOAD DUP1 DUP4 SUB DUP2 DUP7 DUP1 EXTCODESIZE ISZERO DUP1 ISZERO PUSH2 0x1B48 JUMPI PUSH1 0x0 DUP1 REVERT JUMPDEST POP GAS STATICCALL ISZERO DUP1 ISZERO PUSH2 0x1B5C JUMPI RETURNDATASIZE PUSH1 0x0 DUP1 RETURNDATACOPY RETURNDATASIZE PUSH1 0x0 REVERT JUMPDEST POP POP POP POP PUSH1 0x40 MLOAD RETURNDATASIZE PUSH1 0x1F NOT PUSH1 0x1F DUP3 ADD AND DUP3 ADD DUP1 PUSH1 0x40 MSTORE POP DUP2 ADD SWAP1 PUSH2 0x1B80 SWAP2 SWAP1 PUSH2 0x262C JUMP JUMPDEST SWAP2 POP DUP2 ISZERO PUSH2 0x1C41 JUMPI PUSH1 0x0 SLOAD PUSH1 0x1 PUSH1 0xA0 SHL SWAP1 DIV PUSH2 0xFFFF AND ISZERO PUSH2 0x1C41 JUMPI PUSH1 0x0 DUP1 SLOAD PUSH2 0x1BBD SWAP1 PUSH2 0x2710 SWAP1 PUSH2 0xA95 SWAP1 DUP7 SWAP1 PUSH1 0x1 PUSH1 0xA0 SHL SWAP1 DIV PUSH2 0xFFFF AND PUSH2 0x1F0A JUMP JUMPDEST PUSH1 0x2 SLOAD SWAP1 SWAP2 POP PUSH2 0x1BCD SWAP1 DUP3 PUSH2 0x1F35 JUMP JUMPDEST PUSH1 0x2 SSTORE PUSH1 0x0 SLOAD PUSH2 0x1BFC SWAP1 PUSH2 0x2710 SWAP1 PUSH2 0xA95 SWAP1 PUSH2 0x1BF5 SWAP1 DUP4 SWAP1 PUSH1 0x1 PUSH1 0xA0 SHL SWAP1 DIV PUSH2 0xFFFF AND PUSH2 0x1F29 JUMP JUMPDEST DUP7 SWAP1 PUSH2 0x1F0A JUMP JUMPDEST SWAP3 POP DUP5 PUSH1 0x1 PUSH1 0x1 PUSH1 0xA0 SHL SUB AND PUSH32 0x2F4AE87A584F00DC35B043DD1C5AC839C1F41CD3A66E834D4E13FAA6251634E6 DUP3 PUSH1 0x40 MLOAD PUSH2 0x1C37 SWAP2 SWAP1 PUSH2 0x2AFF JUMP JUMPDEST PUSH1 0x40 MLOAD DUP1 SWAP2 SUB SWAP1 LOG2 POP JUMPDEST PUSH1 0x0 JUMPDEST PUSH1 0x9 SLOAD PUSH2 0xFFFF DUP3 AND LT ISZERO PUSH2 0x1DCB JUMPI PUSH1 0x0 PUSH1 0x9 DUP3 PUSH2 0xFFFF AND DUP2 SLOAD DUP2 LT PUSH2 0x1C79 JUMPI PUSH4 0x4E487B71 PUSH1 0xE0 SHL PUSH1 0x0 MSTORE PUSH1 0x32 PUSH1 0x4 MSTORE PUSH1 0x24 PUSH1 0x0 REVERT JUMPDEST PUSH1 0x0 SWAP2 DUP3 MSTORE PUSH1 0x20 DUP1 DUP4 KECCAK256 SWAP1 SWAP2 ADD SLOAD PUSH1 0x40 DUP1 MLOAD PUSH4 0x38ADB6F PUSH1 0xE4 SHL DUP2 MSTORE SWAP1 MLOAD PUSH1 0x1 PUSH1 0x1 PUSH1 0xA0 SHL SUB SWAP1 SWAP3 AND SWAP5 POP DUP5 SWAP3 PUSH4 0x38ADB6F0 SWAP3 PUSH1 0x4 DUP1 DUP5 ADD SWAP4 DUP3 SWAP1 SUB ADD DUP2 DUP7 DUP1 EXTCODESIZE ISZERO DUP1 ISZERO PUSH2 0x1CC6 JUMPI PUSH1 0x0 DUP1 REVERT JUMPDEST POP GAS STATICCALL ISZERO DUP1 ISZERO PUSH2 0x1CDA JUMPI RETURNDATASIZE PUSH1 0x0 DUP1 RETURNDATACOPY RETURNDATASIZE PUSH1 0x0 REVERT JUMPDEST POP POP POP POP PUSH1 0x40 MLOAD RETURNDATASIZE PUSH1 0x1F NOT PUSH1 0x1F DUP3 ADD AND DUP3 ADD DUP1 PUSH1 0x40 MSTORE POP DUP2 ADD SWAP1 PUSH2 0x1CFE SWAP2 SWAP1 PUSH2 0x262C JUMP JUMPDEST SWAP1 POP DUP1 ISZERO DUP1 PUSH2 0x1D27 JUMPI POP PUSH1 0x1 PUSH1 0x1 PUSH1 0xA0 SHL SUB DUP3 AND PUSH1 0x0 SWAP1 DUP2 MSTORE PUSH1 0x8 PUSH1 0x20 MSTORE PUSH1 0x40 SWAP1 KECCAK256 SLOAD PUSH2 0xFFFF AND ISZERO JUMPDEST ISZERO PUSH2 0x1D33 JUMPI POP POP PUSH2 0x1DB9 JUMP JUMPDEST PUSH1 0x1 PUSH1 0x1 PUSH1 0xA0 SHL SUB DUP3 AND PUSH1 0x0 SWAP1 DUP2 MSTORE PUSH1 0x8 PUSH1 0x20 MSTORE PUSH1 0x40 DUP2 KECCAK256 SLOAD PUSH2 0x1D6B SWAP1 PUSH2 0x2710 SWAP1 PUSH2 0xA95 SWAP1 PUSH2 0xFFFF AND PUSH2 0x143F DUP11 PUSH5 0xE8D4A51000 PUSH2 0x1F0A JUMP JUMPDEST SWAP1 POP PUSH2 0x1D99 PUSH2 0x1D7A DUP3 DUP5 PUSH2 0x1F1D JUMP JUMPDEST PUSH1 0x1 PUSH1 0x1 PUSH1 0xA0 SHL SUB DUP6 AND PUSH1 0x0 SWAP1 DUP2 MSTORE PUSH1 0x4 PUSH1 0x20 MSTORE PUSH1 0x40 SWAP1 KECCAK256 SLOAD SWAP1 PUSH2 0x1F35 JUMP JUMPDEST PUSH1 0x1 PUSH1 0x1 PUSH1 0xA0 SHL SUB SWAP1 SWAP4 AND PUSH1 0x0 SWAP1 DUP2 MSTORE PUSH1 0x4 PUSH1 0x20 MSTORE PUSH1 0x40 SWAP1 KECCAK256 SWAP3 SWAP1 SWAP3 SSTORE POP POP JUMPDEST DUP1 PUSH2 0x1DC3 DUP2 PUSH2 0x2C37 JUMP JUMPDEST SWAP2 POP POP PUSH2 0x1C44 JUMP JUMPDEST POP PUSH1 0xB SSTORE POP JUMPDEST POP POP POP JUMP JUMPDEST PUSH1 0x0 JUMPDEST PUSH1 0x9 SLOAD PUSH2 0xFFFF DUP3 AND LT ISZERO PUSH2 0x1E87 JUMPI DUP2 DUP2 PUSH2 0xFFFF AND DUP2 MLOAD DUP2 LT PUSH2 0x1E0B JUMPI PUSH4 0x4E487B71 PUSH1 0xE0 SHL PUSH1 0x0 MSTORE PUSH1 0x32 PUSH1 0x4 MSTORE PUSH1 0x24 PUSH1 0x0 REVERT JUMPDEST PUSH1 0x20 MUL PUSH1 0x20 ADD ADD MLOAD PUSH1 0x8 PUSH1 0x0 PUSH1 0x9 DUP5 PUSH2 0xFFFF AND DUP2 SLOAD DUP2 LT PUSH2 0x1E3C JUMPI PUSH4 0x4E487B71 PUSH1 0xE0 SHL PUSH1 0x0 MSTORE PUSH1 0x32 PUSH1 0x4 MSTORE PUSH1 0x24 PUSH1 0x0 REVERT JUMPDEST PUSH1 0x0 SWAP2 DUP3 MSTORE PUSH1 0x20 DUP1 DUP4 KECCAK256 SWAP2 SWAP1 SWAP2 ADD SLOAD PUSH1 0x1 PUSH1 0x1 PUSH1 0xA0 SHL SUB AND DUP4 MSTORE DUP3 ADD SWAP3 SWAP1 SWAP3 MSTORE PUSH1 0x40 ADD SWAP1 KECCAK256 DUP1 SLOAD PUSH2 0xFFFF NOT AND PUSH2 0xFFFF SWAP3 SWAP1 SWAP3 AND SWAP2 SWAP1 SWAP2 OR SWAP1 SSTORE DUP1 PUSH2 0x1E7F DUP2 PUSH2 0x2C37 JUMP JUMPDEST SWAP2 POP POP PUSH2 0x1DD9 JUMP JUMPDEST POP PUSH32 0x5B904BEEB70C84B12D4105E0582A752C5A2705717790E1A648A27BA8622B9786 PUSH1 0x9 DUP3 PUSH1 0x40 MLOAD PUSH2 0x11E9 SWAP3 SWAP2 SWAP1 PUSH2 0x27B7 JUMP JUMPDEST PUSH1 0x0 DUP1 SLOAD PUSH1 0x1 PUSH1 0x1 PUSH1 0xA0 SHL SUB DUP4 DUP2 AND PUSH1 0x1 PUSH1 0x1 PUSH1 0xA0 SHL SUB NOT DUP4 AND DUP2 OR DUP5 SSTORE PUSH1 0x40 MLOAD SWAP2 SWAP1 SWAP3 AND SWAP3 DUP4 SWAP2 PUSH32 0x8BE0079C531659141344CD1FD0A4F28419497F9722A3DAAFE3B4186F6B6457E0 SWAP2 SWAP1 LOG3 POP POP JUMP JUMPDEST PUSH1 0x0 PUSH2 0x1F16 DUP3 DUP5 PUSH2 0x2BB2 JUMP JUMPDEST SWAP4 SWAP3 POP POP POP JUMP JUMPDEST PUSH1 0x0 PUSH2 0x1F16 DUP3 DUP5 PUSH2 0x2B92 JUMP JUMPDEST PUSH1 0x0 PUSH2 0x1F16 DUP3 DUP5 PUSH2 0x2BF4 JUMP JUMPDEST PUSH1 0x0 PUSH2 0x1F16 DUP3 DUP5 PUSH2 0x2B7A JUMP JUMPDEST PUSH32 0x0 ISZERO PUSH2 0x1F97 JUMPI PUSH2 0x1F92 PUSH32 0x0 DUP4 DUP4 PUSH2 0x1FE8 JUMP JUMPDEST PUSH2 0x10E0 JUMP JUMPDEST PUSH2 0x10E0 PUSH32 0x0 DUP4 DUP4 JUMPDEST DUP3 PUSH2 0x1FCA DUP2 DUP5 DUP5 PUSH2 0x2050 JUMP JUMPDEST POP POP POP POP JUMP JUMPDEST CALLER SWAP1 JUMP JUMPDEST DUP4 PUSH2 0x1FE1 DUP2 DUP6 DUP6 DUP6 PUSH2 0x20A6 JUMP JUMPDEST POP POP POP POP POP JUMP JUMPDEST PUSH1 0x40 MLOAD PUSH4 0x40C10F19 PUSH1 0xE0 SHL DUP2 MSTORE DUP4 SWAP1 PUSH1 0x1 PUSH1 0x1 PUSH1 0xA0 SHL SUB DUP3 AND SWAP1 PUSH4 0x40C10F19 SWAP1 PUSH2 0x2018 SWAP1 DUP7 SWAP1 DUP7 SWAP1 PUSH1 0x4 ADD PUSH2 0x272C JUMP JUMPDEST PUSH1 0x0 PUSH1 0x40 MLOAD DUP1 DUP4 SUB DUP2 PUSH1 0x0 DUP8 DUP1 EXTCODESIZE ISZERO DUP1 ISZERO PUSH2 0x2032 JUMPI PUSH1 0x0 DUP1 REVERT JUMPDEST POP GAS CALL ISZERO DUP1 ISZERO PUSH2 0x2046 JUMPI RETURNDATASIZE PUSH1 0x0 DUP1 RETURNDATACOPY RETURNDATASIZE PUSH1 0x0 REVERT JUMPDEST POP POP POP POP POP POP POP POP JUMP JUMPDEST PUSH2 0x1DD1 DUP4 PUSH4 0xA9059CBB PUSH1 0xE0 SHL DUP5 DUP5 PUSH1 0x40 MLOAD PUSH1 0x24 ADD PUSH2 0x206F SWAP3 SWAP2 SWAP1 PUSH2 0x272C JUMP JUMPDEST PUSH1 0x40 DUP1 MLOAD PUSH1 0x1F NOT DUP2 DUP5 SUB ADD DUP2 MSTORE SWAP2 SWAP1 MSTORE PUSH1 0x20 DUP2 ADD DUP1 MLOAD PUSH1 0x1 PUSH1 0x1 PUSH1 0xE0 SHL SUB AND PUSH1 0x1 PUSH1 0x1 PUSH1 0xE0 SHL SUB NOT SWAP1 SWAP4 AND SWAP3 SWAP1 SWAP3 OR SWAP1 SWAP2 MSTORE PUSH2 0x20C7 JUMP JUMPDEST PUSH2 0x1FCA DUP5 PUSH4 0x23B872DD PUSH1 0xE0 SHL DUP6 DUP6 DUP6 PUSH1 0x40 MLOAD PUSH1 0x24 ADD PUSH2 0x206F SWAP4 SWAP3 SWAP2 SWAP1 PUSH2 0x26B1 JUMP JUMPDEST PUSH1 0x0 DUP1 DUP4 PUSH1 0x1 PUSH1 0x1 PUSH1 0xA0 SHL SUB AND DUP4 PUSH1 0x40 MLOAD PUSH2 0x20E2 SWAP2 SWAP1 PUSH2 0x2681 JUMP JUMPDEST PUSH1 0x0 PUSH1 0x40 MLOAD DUP1 DUP4 SUB DUP2 PUSH1 0x0 DUP7 GAS CALL SWAP2 POP POP RETURNDATASIZE DUP1 PUSH1 0x0 DUP2 EQ PUSH2 0x211F JUMPI PUSH1 0x40 MLOAD SWAP2 POP PUSH1 0x1F NOT PUSH1 0x3F RETURNDATASIZE ADD AND DUP3 ADD PUSH1 0x40 MSTORE RETURNDATASIZE DUP3 MSTORE RETURNDATASIZE PUSH1 0x0 PUSH1 0x20 DUP5 ADD RETURNDATACOPY PUSH2 0x2124 JUMP JUMPDEST PUSH1 0x60 SWAP2 POP JUMPDEST POP SWAP2 POP SWAP2 POP DUP2 PUSH2 0x2146 JUMPI PUSH1 0x40 MLOAD PUSH3 0x461BCD PUSH1 0xE5 SHL DUP2 MSTORE PUSH1 0x4 ADD PUSH2 0x345 SWAP1 PUSH2 0x296B JUMP JUMPDEST DUP1 MLOAD ISZERO PUSH2 0x1FCA JUMPI DUP1 DUP1 PUSH1 0x20 ADD SWAP1 MLOAD DUP2 ADD SWAP1 PUSH2 0x2161 SWAP2 SWAP1 PUSH2 0x24B2 JUMP JUMPDEST PUSH2 0x1FCA JUMPI PUSH1 0x40 MLOAD PUSH3 0x461BCD PUSH1 0xE5 SHL DUP2 MSTORE PUSH1 0x4 ADD PUSH2 0x345 SWAP1 PUSH2 0x2897 JUMP JUMPDEST DUP3 DUP1 SLOAD DUP3 DUP3 SSTORE SWAP1 PUSH1 0x0 MSTORE PUSH1 0x20 PUSH1 0x0 KECCAK256 SWAP1 DUP2 ADD SWAP3 DUP3 ISZERO PUSH2 0x21D2 JUMPI SWAP2 PUSH1 0x20 MUL DUP3 ADD JUMPDEST DUP3 DUP2 GT ISZERO PUSH2 0x21D2 JUMPI DUP3 MLOAD DUP3 SLOAD PUSH1 0x1 PUSH1 0x1 PUSH1 0xA0 SHL SUB NOT AND PUSH1 0x1 PUSH1 0x1 PUSH1 0xA0 SHL SUB SWAP1 SWAP2 AND OR DUP3 SSTORE PUSH1 0x20 SWAP1 SWAP3 ADD SWAP2 PUSH1 0x1 SWAP1 SWAP2 ADD SWAP1 PUSH2 0x219D JUMP JUMPDEST POP PUSH2 0x21DE SWAP3 SWAP2 POP PUSH2 0x21E2 JUMP JUMPDEST POP SWAP1 JUMP JUMPDEST JUMPDEST DUP1 DUP3 GT ISZERO PUSH2 0x21DE JUMPI PUSH1 0x0 DUP2 SSTORE PUSH1 0x1 ADD PUSH2 0x21E3 JUMP JUMPDEST PUSH1 0x0 DUP3 PUSH1 0x1F DUP4 ADD SLT PUSH2 0x2207 JUMPI DUP1 DUP2 REVERT JUMPDEST DUP2 CALLDATALOAD PUSH1 0x20 PUSH2 0x221C PUSH2 0x2217 DUP4 PUSH2 0x2B31 JUMP JUMPDEST PUSH2 0x2B08 JUMP JUMPDEST DUP3 DUP2 MSTORE DUP2 DUP2 ADD SWAP1 DUP6 DUP4 ADD DUP4 DUP6 MUL DUP8 ADD DUP5 ADD DUP9 LT ISZERO PUSH2 0x2238 JUMPI DUP6 DUP7 REVERT JUMPDEST DUP6 JUMPDEST DUP6 DUP2 LT ISZERO PUSH2 0x225F JUMPI DUP2 CALLDATALOAD PUSH2 0x224D DUP2 PUSH2 0x2CC0 JUMP JUMPDEST DUP5 MSTORE SWAP3 DUP5 ADD SWAP3 SWAP1 DUP5 ADD SWAP1 PUSH1 0x1 ADD PUSH2 0x223A JUMP JUMPDEST POP SWAP1 SWAP8 SWAP7 POP POP POP POP POP POP POP JUMP JUMPDEST PUSH1 0x0 DUP3 PUSH1 0x1F DUP4 ADD SLT PUSH2 0x227C JUMPI DUP1 DUP2 REVERT JUMPDEST DUP2 CALLDATALOAD PUSH1 0x20 PUSH2 0x228C PUSH2 0x2217 DUP4 PUSH2 0x2B31 JUMP JUMPDEST DUP3 DUP2 MSTORE DUP2 DUP2 ADD SWAP1 DUP6 DUP4 ADD DUP4 DUP6 MUL DUP8 ADD DUP5 ADD DUP9 LT ISZERO PUSH2 0x22A8 JUMPI DUP6 DUP7 REVERT JUMPDEST DUP6 JUMPDEST DUP6 DUP2 LT ISZERO PUSH2 0x225F JUMPI DUP2 CALLDATALOAD PUSH2 0x22BD DUP2 PUSH2 0x2CD5 JUMP JUMPDEST DUP5 MSTORE SWAP3 DUP5 ADD SWAP3 SWAP1 DUP5 ADD SWAP1 PUSH1 0x1 ADD PUSH2 0x22AA JUMP JUMPDEST PUSH1 0x0 DUP3 PUSH1 0x1F DUP4 ADD SLT PUSH2 0x22DF JUMPI DUP1 DUP2 REVERT JUMPDEST DUP2 CALLDATALOAD PUSH1 0x1 PUSH1 0x1 PUSH1 0x40 SHL SUB DUP2 GT ISZERO PUSH2 0x22F8 JUMPI PUSH2 0x22F8 PUSH2 0x2CAA JUMP JUMPDEST PUSH2 0x230B PUSH1 0x1F DUP3 ADD PUSH1 0x1F NOT AND PUSH1 0x20 ADD PUSH2 0x2B08 JUMP JUMPDEST DUP2 DUP2 MSTORE DUP5 PUSH1 0x20 DUP4 DUP7 ADD ADD GT ISZERO PUSH2 0x231F JUMPI DUP3 DUP4 REVERT JUMPDEST DUP2 PUSH1 0x20 DUP6 ADD PUSH1 0x20 DUP4 ADD CALLDATACOPY SWAP1 DUP2 ADD PUSH1 0x20 ADD SWAP2 SWAP1 SWAP2 MSTORE SWAP3 SWAP2 POP POP JUMP JUMPDEST PUSH1 0x0 PUSH1 0x20 DUP3 DUP5 SUB SLT ISZERO PUSH2 0x234A JUMPI DUP1 DUP2 REVERT JUMPDEST DUP2 CALLDATALOAD PUSH2 0x1F16 DUP2 PUSH2 0x2CC0 JUMP JUMPDEST PUSH1 0x0 PUSH1 0x20 DUP3 DUP5 SUB SLT ISZERO PUSH2 0x2366 JUMPI DUP1 DUP2 REVERT JUMPDEST DUP2 MLOAD PUSH2 0x1F16 DUP2 PUSH2 0x2CC0 JUMP JUMPDEST PUSH1 0x0 DUP1 PUSH1 0x40 DUP4 DUP6 SUB SLT ISZERO PUSH2 0x2383 JUMPI DUP1 DUP2 REVERT JUMPDEST DUP3 CALLDATALOAD PUSH2 0x238E DUP2 PUSH2 0x2CC0 JUMP JUMPDEST SWAP2 POP PUSH1 0x20 DUP4 ADD CALLDATALOAD PUSH2 0x239E DUP2 PUSH2 0x2CC0 JUMP JUMPDEST DUP1 SWAP2 POP POP SWAP3 POP SWAP3 SWAP1 POP JUMP JUMPDEST PUSH1 0x0 DUP1 PUSH1 0x0 PUSH1 0x60 DUP5 DUP7 SUB SLT ISZERO PUSH2 0x23BD JUMPI DUP1 DUP2 REVERT JUMPDEST DUP4 CALLDATALOAD PUSH2 0x23C8 DUP2 PUSH2 0x2CC0 JUMP JUMPDEST SWAP3 POP PUSH1 0x20 DUP5 ADD CALLDATALOAD PUSH1 0x1 PUSH1 0x1 PUSH1 0x40 SHL SUB DUP1 DUP3 GT ISZERO PUSH2 0x23E3 JUMPI DUP3 DUP4 REVERT JUMPDEST PUSH2 0x23EF DUP8 DUP4 DUP9 ADD PUSH2 0x21F7 JUMP JUMPDEST SWAP4 POP PUSH1 0x40 DUP7 ADD CALLDATALOAD SWAP2 POP DUP1 DUP3 GT ISZERO PUSH2 0x2404 JUMPI DUP3 DUP4 REVERT JUMPDEST POP PUSH2 0x2411 DUP7 DUP3 DUP8 ADD PUSH2 0x226C JUMP JUMPDEST SWAP2 POP POP SWAP3 POP SWAP3 POP SWAP3 JUMP JUMPDEST PUSH1 0x0 DUP1 PUSH1 0x40 DUP4 DUP6 SUB SLT ISZERO PUSH2 0x242D JUMPI DUP2 DUP3 REVERT JUMPDEST DUP3 CALLDATALOAD PUSH2 0x2438 DUP2 PUSH2 0x2CC0 JUMP JUMPDEST SWAP5 PUSH1 0x20 SWAP4 SWAP1 SWAP4 ADD CALLDATALOAD SWAP4 POP POP POP JUMP JUMPDEST PUSH1 0x0 PUSH1 0x20 DUP3 DUP5 SUB SLT ISZERO PUSH2 0x2457 JUMPI DUP1 DUP2 REVERT JUMPDEST DUP2 CALLDATALOAD PUSH1 0x1 PUSH1 0x1 PUSH1 0x40 SHL SUB DUP2 GT ISZERO PUSH2 0x246C JUMPI DUP2 DUP3 REVERT JUMPDEST PUSH2 0x2478 DUP5 DUP3 DUP6 ADD PUSH2 0x21F7 JUMP JUMPDEST SWAP5 SWAP4 POP POP POP POP JUMP JUMPDEST PUSH1 0x0 PUSH1 0x20 DUP3 DUP5 SUB SLT ISZERO PUSH2 0x2491 JUMPI DUP1 DUP2 REVERT JUMPDEST DUP2 CALLDATALOAD PUSH1 0x1 PUSH1 0x1 PUSH1 0x40 SHL SUB DUP2 GT ISZERO PUSH2 0x24A6 JUMPI DUP2 DUP3 REVERT JUMPDEST PUSH2 0x2478 DUP5 DUP3 DUP6 ADD PUSH2 0x226C JUMP JUMPDEST PUSH1 0x0 PUSH1 0x20 DUP3 DUP5 SUB SLT ISZERO PUSH2 0x24C3 JUMPI DUP1 DUP2 REVERT JUMPDEST DUP2 MLOAD DUP1 ISZERO ISZERO DUP2 EQ PUSH2 0x1F16 JUMPI DUP2 DUP3 REVERT JUMPDEST PUSH1 0x0 DUP1 PUSH1 0x40 DUP4 DUP6 SUB SLT ISZERO PUSH2 0x24E4 JUMPI DUP2 DUP3 REVERT JUMPDEST DUP3 CALLDATALOAD PUSH1 0x1 PUSH1 0x1 PUSH1 0x40 SHL SUB DUP2 GT ISZERO PUSH2 0x24F9 JUMPI DUP3 DUP4 REVERT JUMPDEST PUSH2 0x2505 DUP6 DUP3 DUP7 ADD PUSH2 0x22CF JUMP JUMPDEST SWAP3 POP POP PUSH1 0x20 DUP4 ADD CALLDATALOAD PUSH2 0x239E DUP2 PUSH2 0x2CC0 JUMP JUMPDEST PUSH1 0x0 DUP1 PUSH1 0x0 DUP1 PUSH1 0x0 PUSH1 0x80 DUP7 DUP9 SUB SLT ISZERO PUSH2 0x252D JUMPI DUP1 DUP2 REVERT JUMPDEST DUP6 CALLDATALOAD PUSH1 0x1 PUSH1 0x1 PUSH1 0x40 SHL SUB DUP1 DUP3 GT ISZERO PUSH2 0x2543 JUMPI DUP3 DUP4 REVERT JUMPDEST PUSH2 0x254F DUP10 DUP4 DUP11 ADD PUSH2 0x22CF JUMP JUMPDEST SWAP7 POP PUSH1 0x20 DUP9 ADD CALLDATALOAD SWAP2 POP DUP1 DUP3 GT ISZERO PUSH2 0x2564 JUMPI DUP3 DUP4 REVERT JUMPDEST PUSH2 0x2570 DUP10 DUP4 DUP11 ADD PUSH2 0x226C JUMP JUMPDEST SWAP6 POP PUSH1 0x40 DUP9 ADD CALLDATALOAD SWAP2 POP PUSH2 0x2582 DUP3 PUSH2 0x2CC0 JUMP JUMPDEST SWAP1 SWAP4 POP PUSH1 0x60 DUP8 ADD CALLDATALOAD SWAP1 DUP1 DUP3 GT ISZERO PUSH2 0x2597 JUMPI DUP3 DUP4 REVERT JUMPDEST DUP2 DUP9 ADD SWAP2 POP DUP9 PUSH1 0x1F DUP4 ADD SLT PUSH2 0x25AA JUMPI DUP3 DUP4 REVERT JUMPDEST DUP2 CALLDATALOAD DUP2 DUP2 GT ISZERO PUSH2 0x25B8 JUMPI DUP4 DUP5 REVERT JUMPDEST DUP10 PUSH1 0x20 DUP3 DUP6 ADD ADD GT ISZERO PUSH2 0x25C9 JUMPI DUP4 DUP5 REVERT JUMPDEST SWAP7 SWAP10 SWAP6 SWAP9 POP SWAP4 SWAP7 POP PUSH1 0x20 ADD SWAP5 SWAP4 SWAP3 POP POP POP JUMP JUMPDEST PUSH1 0x0 PUSH1 0x20 DUP3 DUP5 SUB SLT ISZERO PUSH2 0x25ED JUMPI DUP1 DUP2 REVERT JUMPDEST DUP2 CALLDATALOAD PUSH2 0x1F16 DUP2 PUSH2 0x2CD5 JUMP JUMPDEST PUSH1 0x0 PUSH1 0x20 DUP3 DUP5 SUB SLT ISZERO PUSH2 0x2609 JUMPI DUP1 DUP2 REVERT JUMPDEST DUP2 MLOAD PUSH2 0x1F16 DUP2 PUSH2 0x2CD5 JUMP JUMPDEST PUSH1 0x0 PUSH1 0x20 DUP3 DUP5 SUB SLT ISZERO PUSH2 0x2625 JUMPI DUP1 DUP2 REVERT JUMPDEST POP CALLDATALOAD SWAP2 SWAP1 POP JUMP JUMPDEST PUSH1 0x0 PUSH1 0x20 DUP3 DUP5 SUB SLT ISZERO PUSH2 0x263D JUMPI DUP1 DUP2 REVERT JUMPDEST POP MLOAD SWAP2 SWAP1 POP JUMP JUMPDEST PUSH1 0x1 PUSH1 0x1 PUSH1 0xA0 SHL SUB AND DUP2 MSTORE PUSH1 0x20 ADD SWAP1 JUMP JUMPDEST PUSH1 0x0 DUP2 MLOAD DUP1 DUP5 MSTORE PUSH2 0x266D DUP2 PUSH1 0x20 DUP7 ADD PUSH1 0x20 DUP7 ADD PUSH2 0x2C0B JUMP JUMPDEST PUSH1 0x1F ADD PUSH1 0x1F NOT AND SWAP3 SWAP1 SWAP3 ADD PUSH1 0x20 ADD SWAP3 SWAP2 POP POP JUMP JUMPDEST PUSH1 0x0 DUP3 MLOAD PUSH2 0x2693 DUP2 DUP5 PUSH1 0x20 DUP8 ADD PUSH2 0x2C0B JUMP JUMPDEST SWAP2 SWAP1 SWAP2 ADD SWAP3 SWAP2 POP POP JUMP JUMPDEST PUSH1 0x1 PUSH1 0x1 PUSH1 0xA0 SHL SUB SWAP2 SWAP1 SWAP2 AND DUP2 MSTORE PUSH1 0x20 ADD SWAP1 JUMP JUMPDEST PUSH1 0x1 PUSH1 0x1 PUSH1 0xA0 SHL SUB SWAP4 DUP5 AND DUP2 MSTORE SWAP2 SWAP1 SWAP3 AND PUSH1 0x20 DUP3 ADD MSTORE PUSH1 0x40 DUP2 ADD SWAP2 SWAP1 SWAP2 MSTORE PUSH1 0x60 ADD SWAP1 JUMP JUMPDEST PUSH1 0x1 PUSH1 0x1 PUSH1 0xA0 SHL SUB DUP6 AND DUP2 MSTORE PUSH1 0x60 PUSH1 0x20 DUP3 ADD DUP2 SWAP1 MSTORE PUSH1 0x0 SWAP1 PUSH2 0x26F9 SWAP1 DUP4 ADD DUP7 PUSH2 0x2655 JUMP JUMPDEST DUP3 DUP2 SUB PUSH1 0x40 DUP5 ADD MSTORE DUP4 DUP2 MSTORE DUP4 DUP6 PUSH1 0x20 DUP4 ADD CALLDATACOPY DUP2 PUSH1 0x20 DUP6 DUP4 ADD ADD MSTORE PUSH1 0x20 PUSH1 0x1F NOT PUSH1 0x1F DUP7 ADD AND DUP3 ADD ADD SWAP2 POP POP SWAP6 SWAP5 POP POP POP POP POP JUMP JUMPDEST PUSH1 0x1 PUSH1 0x1 PUSH1 0xA0 SHL SUB SWAP3 SWAP1 SWAP3 AND DUP3 MSTORE PUSH1 0x20 DUP3 ADD MSTORE PUSH1 0x40 ADD SWAP1 JUMP JUMPDEST PUSH1 0x1 PUSH1 0x1 PUSH1 0xA0 SHL SUB SWAP4 SWAP1 SWAP4 AND DUP4 MSTORE PUSH1 0x20 DUP4 ADD SWAP2 SWAP1 SWAP2 MSTORE PUSH1 0x40 DUP3 ADD MSTORE PUSH1 0x60 ADD SWAP1 JUMP JUMPDEST PUSH1 0x40 DUP1 DUP3 MSTORE DUP4 MLOAD SWAP1 DUP3 ADD DUP2 SWAP1 MSTORE PUSH1 0x0 SWAP1 PUSH1 0x20 SWAP1 PUSH1 0x60 DUP5 ADD SWAP1 DUP3 DUP8 ADD DUP5 JUMPDEST DUP3 DUP2 LT ISZERO PUSH2 0x27A8 JUMPI DUP2 MLOAD PUSH1 0x1 PUSH1 0x1 PUSH1 0xA0 SHL SUB AND DUP5 MSTORE SWAP3 DUP5 ADD SWAP3 SWAP1 DUP5 ADD SWAP1 PUSH1 0x1 ADD PUSH2 0x2783 JUMP JUMPDEST POP POP POP SWAP3 ADD SWAP3 SWAP1 SWAP3 MSTORE SWAP3 SWAP2 POP POP JUMP JUMPDEST PUSH1 0x0 PUSH1 0x40 DUP3 ADD PUSH1 0x40 DUP4 MSTORE DUP1 DUP6 SLOAD DUP1 DUP4 MSTORE PUSH1 0x60 DUP6 ADD SWAP2 POP DUP7 DUP5 MSTORE PUSH1 0x20 SWAP3 POP DUP3 DUP5 KECCAK256 DUP5 JUMPDEST DUP3 DUP2 LT ISZERO PUSH2 0x2805 JUMPI DUP2 SLOAD PUSH2 0x27F7 SWAP1 DUP6 SWAP1 PUSH1 0x1 PUSH1 0x1 PUSH1 0xA0 SHL SUB AND PUSH2 0x2644 JUMP JUMPDEST SWAP4 POP PUSH1 0x1 SWAP2 DUP3 ADD SWAP2 ADD PUSH2 0x27D9 JUMP JUMPDEST POP POP POP DUP4 DUP2 SUB DUP3 DUP6 ADD MSTORE DUP5 MLOAD DUP1 DUP3 MSTORE DUP6 DUP4 ADD SWAP2 DUP4 ADD SWAP1 DUP5 JUMPDEST DUP2 DUP2 LT ISZERO PUSH2 0x225F JUMPI DUP4 MLOAD PUSH2 0xFFFF AND DUP4 MSTORE SWAP3 DUP5 ADD SWAP3 SWAP2 DUP5 ADD SWAP2 PUSH1 0x1 ADD PUSH2 0x281D JUMP JUMPDEST SWAP1 ISZERO ISZERO DUP2 MSTORE PUSH1 0x20 ADD SWAP1 JUMP JUMPDEST PUSH1 0x0 PUSH1 0x20 DUP3 MSTORE PUSH2 0x1F16 PUSH1 0x20 DUP4 ADD DUP5 PUSH2 0x2655 JUMP JUMPDEST PUSH1 0x0 PUSH1 0x80 DUP3 MSTORE PUSH2 0x286E PUSH1 0x80 DUP4 ADD DUP8 PUSH2 0x2655 JUMP JUMPDEST PUSH1 0x1 PUSH1 0x1 PUSH1 0xA0 SHL SUB SWAP6 DUP7 AND PUSH1 0x20 DUP5 ADD MSTORE SWAP4 DUP6 AND PUSH1 0x40 DUP4 ADD MSTORE POP SWAP3 AND PUSH1 0x60 SWAP1 SWAP3 ADD SWAP2 SWAP1 SWAP2 MSTORE SWAP2 SWAP1 POP JUMP JUMPDEST PUSH1 0x20 DUP1 DUP3 MSTORE DUP2 DUP2 ADD MSTORE PUSH32 0x45524332303A206F7065726174696F6E20646964206E6F742073756363656564 PUSH1 0x40 DUP3 ADD MSTORE PUSH1 0x60 ADD SWAP1 JUMP JUMPDEST PUSH1 0x20 DUP1 DUP3 MSTORE PUSH1 0x3 SWAP1 DUP3 ADD MSTORE PUSH3 0x4C444D PUSH1 0xE8 SHL PUSH1 0x40 DUP3 ADD MSTORE PUSH1 0x60 ADD SWAP1 JUMP JUMPDEST PUSH1 0x20 DUP1 DUP3 MSTORE PUSH1 0x26 SWAP1 DUP3 ADD MSTORE PUSH32 0x4F776E61626C653A206E6577206F776E657220697320746865207A65726F2061 PUSH1 0x40 DUP3 ADD MSTORE PUSH6 0x646472657373 PUSH1 0xD0 SHL PUSH1 0x60 DUP3 ADD MSTORE PUSH1 0x80 ADD SWAP1 JUMP JUMPDEST PUSH1 0x20 DUP1 DUP3 MSTORE PUSH1 0x4 SWAP1 DUP3 ADD MSTORE PUSH4 0x15D05413 PUSH1 0xE2 SHL PUSH1 0x40 DUP3 ADD MSTORE PUSH1 0x60 ADD SWAP1 JUMP JUMPDEST PUSH1 0x20 DUP1 DUP3 MSTORE PUSH1 0x4 SWAP1 DUP3 ADD MSTORE PUSH4 0x4D484F31 PUSH1 0xE0 SHL PUSH1 0x40 DUP3 ADD MSTORE PUSH1 0x60 ADD SWAP1 JUMP JUMPDEST PUSH1 0x20 DUP1 DUP3 MSTORE PUSH1 0x12 SWAP1 DUP3 ADD MSTORE PUSH18 0x115490CC8C0E8818D85B1B0819985A5B1959 PUSH1 0x72 SHL PUSH1 0x40 DUP3 ADD MSTORE PUSH1 0x60 ADD SWAP1 JUMP JUMPDEST PUSH1 0x20 DUP1 DUP3 MSTORE PUSH1 0x3 SWAP1 DUP3 ADD MSTORE PUSH3 0x2AA823 PUSH1 0xE9 SHL PUSH1 0x40 DUP3 ADD MSTORE PUSH1 0x60 ADD SWAP1 JUMP JUMPDEST PUSH1 0x20 DUP1 DUP3 MSTORE PUSH1 0x6 SWAP1 DUP3 ADD MSTORE PUSH6 0x5253213D3177 PUSH1 0xD0 SHL PUSH1 0x40 DUP3 ADD MSTORE PUSH1 0x60 ADD SWAP1 JUMP JUMPDEST PUSH1 0x20 DUP1 DUP3 MSTORE PUSH1 0x2 SWAP1 DUP3 ADD MSTORE PUSH2 0x15D3 PUSH1 0xF2 SHL PUSH1 0x40 DUP3 ADD MSTORE PUSH1 0x60 ADD SWAP1 JUMP JUMPDEST PUSH1 0x20 DUP1 DUP3 MSTORE PUSH1 0x3 SWAP1 DUP3 ADD MSTORE PUSH3 0x575043 PUSH1 0xE8 SHL PUSH1 0x40 DUP3 ADD MSTORE PUSH1 0x60 ADD SWAP1 JUMP JUMPDEST PUSH1 0x20 DUP1 DUP3 MSTORE PUSH1 0x4 SWAP1 DUP3 ADD MSTORE PUSH4 0x504E4957 PUSH1 0xE0 SHL PUSH1 0x40 DUP3 ADD MSTORE PUSH1 0x60 ADD SWAP1 JUMP JUMPDEST PUSH1 0x20 DUP1 DUP3 MSTORE PUSH1 0x2 SWAP1 DUP3 ADD MSTORE PUSH2 0x4941 PUSH1 0xF0 SHL PUSH1 0x40 DUP3 ADD MSTORE PUSH1 0x60 ADD SWAP1 JUMP JUMPDEST PUSH1 0x20 DUP1 DUP3 MSTORE DUP2 DUP2 ADD MSTORE PUSH32 0x4F776E61626C653A2063616C6C6572206973206E6F7420746865206F776E6572 PUSH1 0x40 DUP3 ADD MSTORE PUSH1 0x60 ADD SWAP1 JUMP JUMPDEST PUSH1 0x20 DUP1 DUP3 MSTORE PUSH1 0x5 SWAP1 DUP3 ADD MSTORE PUSH5 0x50523E3177 PUSH1 0xD8 SHL PUSH1 0x40 DUP3 ADD MSTORE PUSH1 0x60 ADD SWAP1 JUMP JUMPDEST PUSH1 0x20 DUP1 DUP3 MSTORE PUSH1 0x2 SWAP1 DUP3 ADD MSTORE PUSH2 0x575 PUSH1 0xF4 SHL PUSH1 0x40 DUP3 ADD MSTORE PUSH1 0x60 ADD SWAP1 JUMP JUMPDEST PUSH1 0x20 DUP1 DUP3 MSTORE PUSH1 0x2 SWAP1 DUP3 ADD MSTORE PUSH2 0x495 PUSH1 0xF4 SHL PUSH1 0x40 DUP3 ADD MSTORE PUSH1 0x60 ADD SWAP1 JUMP JUMPDEST PUSH1 0x20 DUP1 DUP3 MSTORE PUSH1 0x3 SWAP1 DUP3 ADD MSTORE PUSH3 0x504941 PUSH1 0xE8 SHL PUSH1 0x40 DUP3 ADD MSTORE PUSH1 0x60 ADD SWAP1 JUMP JUMPDEST PUSH2 0xFFFF SWAP2 SWAP1 SWAP2 AND DUP2 MSTORE PUSH1 0x20 ADD SWAP1 JUMP JUMPDEST SWAP1 DUP2 MSTORE PUSH1 0x20 ADD SWAP1 JUMP JUMPDEST PUSH1 0x40 MLOAD DUP2 DUP2 ADD PUSH1 0x1 PUSH1 0x1 PUSH1 0x40 SHL SUB DUP2 GT DUP3 DUP3 LT OR ISZERO PUSH2 0x2B29 JUMPI PUSH2 0x2B29 PUSH2 0x2CAA JUMP JUMPDEST PUSH1 0x40 MSTORE SWAP2 SWAP1 POP JUMP JUMPDEST PUSH1 0x0 PUSH1 0x1 PUSH1 0x1 PUSH1 0x40 SHL SUB DUP3 GT ISZERO PUSH2 0x2B4A JUMPI PUSH2 0x2B4A PUSH2 0x2CAA JUMP JUMPDEST POP PUSH1 0x20 SWAP1 DUP2 MUL ADD SWAP1 JUMP JUMPDEST PUSH1 0x0 PUSH2 0xFFFF DUP1 DUP4 AND DUP2 DUP6 AND DUP1 DUP4 SUB DUP3 GT ISZERO PUSH2 0x2B71 JUMPI PUSH2 0x2B71 PUSH2 0x2C94 JUMP JUMPDEST ADD SWAP5 SWAP4 POP POP POP POP JUMP JUMPDEST PUSH1 0x0 DUP3 NOT DUP3 GT ISZERO PUSH2 0x2B8D JUMPI PUSH2 0x2B8D PUSH2 0x2C94 JUMP JUMPDEST POP ADD SWAP1 JUMP JUMPDEST PUSH1 0x0 DUP3 PUSH2 0x2BAD JUMPI PUSH4 0x4E487B71 PUSH1 0xE0 SHL DUP2 MSTORE PUSH1 0x12 PUSH1 0x4 MSTORE PUSH1 0x24 DUP2 REVERT JUMPDEST POP DIV SWAP1 JUMP JUMPDEST PUSH1 0x0 DUP2 PUSH1 0x0 NOT DIV DUP4 GT DUP3 ISZERO ISZERO AND ISZERO PUSH2 0x2BCC JUMPI PUSH2 0x2BCC PUSH2 0x2C94 JUMP JUMPDEST POP MUL SWAP1 JUMP JUMPDEST PUSH1 0x0 PUSH2 0xFFFF DUP4 DUP2 AND SWAP1 DUP4 AND DUP2 DUP2 LT ISZERO PUSH2 0x2BEC JUMPI PUSH2 0x2BEC PUSH2 0x2C94 JUMP JUMPDEST SUB SWAP4 SWAP3 POP POP POP JUMP JUMPDEST PUSH1 0x0 DUP3 DUP3 LT ISZERO PUSH2 0x2C06 JUMPI PUSH2 0x2C06 PUSH2 0x2C94 JUMP JUMPDEST POP SUB SWAP1 JUMP JUMPDEST PUSH1 0x0 JUMPDEST DUP4 DUP2 LT ISZERO PUSH2 0x2C26 JUMPI DUP2 DUP2 ADD MLOAD DUP4 DUP3 ADD MSTORE PUSH1 0x20 ADD PUSH2 0x2C0E JUMP JUMPDEST DUP4 DUP2 GT ISZERO PUSH2 0x1FCA JUMPI POP POP PUSH1 0x0 SWAP2 ADD MSTORE JUMP JUMPDEST PUSH1 0x0 PUSH2 0xFFFF DUP1 DUP4 AND DUP2 DUP2 EQ ISZERO PUSH2 0x2C4F JUMPI PUSH2 0x2C4F PUSH2 0x2C94 JUMP JUMPDEST PUSH1 0x1 ADD SWAP4 SWAP3 POP POP POP JUMP JUMPDEST PUSH1 0x0 PUSH1 0x0 NOT DUP3 EQ ISZERO PUSH2 0x2C6D JUMPI PUSH2 0x2C6D PUSH2 0x2C94 JUMP JUMPDEST POP PUSH1 0x1 ADD SWAP1 JUMP JUMPDEST PUSH1 0x0 PUSH1 0xFF DUP3 AND PUSH1 0xFF DUP2 EQ ISZERO PUSH2 0x2C8B JUMPI PUSH2 0x2C8B PUSH2 0x2C94 JUMP JUMPDEST PUSH1 0x1 ADD SWAP3 SWAP2 POP POP JUMP JUMPDEST PUSH4 0x4E487B71 PUSH1 0xE0 SHL PUSH1 0x0 MSTORE PUSH1 0x11 PUSH1 0x4 MSTORE PUSH1 0x24 PUSH1 0x0 REVERT JUMPDEST PUSH4 0x4E487B71 PUSH1 0xE0 SHL PUSH1 0x0 MSTORE PUSH1 0x41 PUSH1 0x4 MSTORE PUSH1 0x24 PUSH1 0x0 REVERT JUMPDEST PUSH1 0x1 PUSH1 0x1 PUSH1 0xA0 SHL SUB DUP2 AND DUP2 EQ PUSH2 0xDD1 JUMPI PUSH1 0x0 DUP1 REVERT JUMPDEST PUSH2 0xFFFF DUP2 AND DUP2 EQ PUSH2 0xDD1 JUMPI PUSH1 0x0 DUP1 REVERT INVALID LOG2 PUSH5 0x6970667358 0x22 SLT KECCAK256 SWAP11 0xE9 0x4C 0xB8 0xDC 0xC SWAP1 PUSH14 0x6C4C72295AE86DB1B10F5603ACB9 0xDA SLT PUSH7 0x9F74EA35432A80 PUSH5 0x736F6C6343 STOP ADDMOD STOP STOP CALLER "},"methodIdentifiers":{"activedPools(uint256)":"5f78debd","adminAddPool(string,uint16[],address,bytes)":"207cbd95","adminClosePool(address,address[],uint16[])":"0924004e","adminSetDev(address)":"54054370","adminSetFeeRatio(uint16)":"c10b3aee","adminSetPoolRatios(uint16[])":"f739a529","adminWithdrawRevenue()":"9af2e5ef","adminWithdrawReward(uint256)":"a1970fa8","appendUserReward(address,uint256)":"ef9b7208","createdPools(uint256)":"d2627383","feeRatio()":"41744dd4","getCommunityToken()":"99efcaec","getPoolPendingRewards(address,address)":"fd0c94e3","getShareAcc(address)":"a1a89dbc","getTotalPendingRewards(address)":"a8c478ba","getUserDebt(address,address)":"a2a00ed6","isMintableCommunityToken()":"fa32ddd8","owner()":"8da5cb5b","poolActived(address)":"98f69e9a","renounceOwnership()":"715018a6","rewardCalculator()":"96769e89","setUserDebt(address,uint256)":"bf16c3c2","transferOwnership(address)":"f2fde38b","updatePools(string,address)":"af3bd4f2","withdrawPoolsRewards(address[])":"7942016c"}}}}}