{
  "_format": "hh-sol-artifact-1",
  "contractName": "CosmosStaking",
  "sourceName": "contracts/dapps/cosmos-atom/CosmosStaking.sol",
  "abi": [
    {
      "inputs": [
        {
          "internalType": "address",
          "name": "_community",
          "type": "address"
        },
        {
          "internalType": "string",
          "name": "_name",
          "type": "string"
        },
        {
          "internalType": "uint8",
          "name": "_chainId",
          "type": "uint8"
        },
        {
          "internalType": "address",
          "name": "_delegatee",
          "type": "address"
        }
      ],
      "stateMutability": "nonpayable",
      "type": "constructor"
    },
    {
      "anonymous": false,
      "inputs": [
        {
          "indexed": true,
          "internalType": "address",
          "name": "community",
          "type": "address"
        },
        {
          "indexed": true,
          "internalType": "address",
          "name": "who",
          "type": "address"
        },
        {
          "indexed": false,
          "internalType": "uint256",
          "name": "previousAmount",
          "type": "uint256"
        },
        {
          "indexed": false,
          "internalType": "uint256",
          "name": "newAmount",
          "type": "uint256"
        }
      ],
      "name": "UpdateStaking",
      "type": "event"
    },
    {
      "inputs": [
        {
          "internalType": "address",
          "name": "",
          "type": "address"
        }
      ],
      "name": "accountBindMap",
      "outputs": [
        {
          "internalType": "address",
          "name": "",
          "type": "address"
        }
      ],
      "stateMutability": "view",
      "type": "function"
    },
    {
      "inputs": [],
      "name": "delegatee",
      "outputs": [
        {
          "internalType": "address",
          "name": "",
          "type": "address"
        }
      ],
      "stateMutability": "view",
      "type": "function"
    },
    {
      "inputs": [],
      "name": "getCommunity",
      "outputs": [
        {
          "internalType": "address",
          "name": "",
          "type": "address"
        }
      ],
      "stateMutability": "view",
      "type": "function"
    },
    {
      "inputs": [],
      "name": "getFactory",
      "outputs": [
        {
          "internalType": "address",
          "name": "",
          "type": "address"
        }
      ],
      "stateMutability": "view",
      "type": "function"
    },
    {
      "inputs": [],
      "name": "getTotalStakedAmount",
      "outputs": [
        {
          "internalType": "uint256",
          "name": "",
          "type": "uint256"
        }
      ],
      "stateMutability": "view",
      "type": "function"
    },
    {
      "inputs": [
        {
          "internalType": "address",
          "name": "user",
          "type": "address"
        }
      ],
      "name": "getUserDepositInfo",
      "outputs": [
        {
          "components": [
            {
              "internalType": "bool",
              "name": "hasDeposited",
              "type": "bool"
            },
            {
              "internalType": "uint256",
              "name": "amount",
              "type": "uint256"
            },
            {
              "internalType": "address",
              "name": "bindAccount",
              "type": "address"
            }
          ],
          "internalType": "struct CosmosStaking.StakingInfo",
          "name": "",
          "type": "tuple"
        }
      ],
      "stateMutability": "view",
      "type": "function"
    },
    {
      "inputs": [
        {
          "internalType": "address",
          "name": "user",
          "type": "address"
        }
      ],
      "name": "getUserStakedAmount",
      "outputs": [
        {
          "internalType": "uint256",
          "name": "",
          "type": "uint256"
        }
      ],
      "stateMutability": "view",
      "type": "function"
    },
    {
      "inputs": [],
      "name": "name",
      "outputs": [
        {
          "internalType": "string",
          "name": "",
          "type": "string"
        }
      ],
      "stateMutability": "view",
      "type": "function"
    },
    {
      "inputs": [],
      "name": "totalStakedAmount",
      "outputs": [
        {
          "internalType": "uint256",
          "name": "",
          "type": "uint256"
        }
      ],
      "stateMutability": "view",
      "type": "function"
    },
    {
      "inputs": [
        {
          "internalType": "uint8",
          "name": "_chainId",
          "type": "uint8"
        },
        {
          "internalType": "address",
          "name": "_delegatee",
          "type": "address"
        },
        {
          "internalType": "address",
          "name": "depositor",
          "type": "address"
        },
        {
          "internalType": "uint256",
          "name": "amount",
          "type": "uint256"
        },
        {
          "internalType": "address",
          "name": "_bindAccount",
          "type": "address"
        }
      ],
      "name": "update",
      "outputs": [],
      "stateMutability": "nonpayable",
      "type": "function"
    }
  ],
  "bytecode": "0x60e06040523480156200001157600080fd5b506040516200123338038062001233833981016040819052620000349162000189565b33606090811b60805284901b6001600160601b03191660a052825162000062906002906020860190620000b4565b50600380546001600160a01b0319166001600160a01b039290921691909117905560f81b7fff000000000000000000000000000000000000000000000000000000000000001660c05250620003199050565b828054620000c29062000294565b90600052602060002090601f016020900481019282620000e6576000855562000131565b82601f106200010157805160ff191683800117855562000131565b8280016001018555821562000131579182015b828111156200013157825182559160200191906001019062000114565b506200013f92915062000143565b5090565b5b808211156200013f576000815560010162000144565b80516001600160a01b03811681146200017257600080fd5b919050565b805160ff811681146200017257600080fd5b600080600080608085870312156200019f578384fd5b620001aa856200015a565b602086810151919550906001600160401b0380821115620001c9578586fd5b818801915088601f830112620001dd578586fd5b815181811115620001f257620001f2620002ea565b604051601f8201601f1916810185018381118282101715620002185762000218620002ea565b60405281815283820185018b10156200022f578788fd5b8792505b8183101562000252578383018501518184018601529184019162000233565b818311156200026357878583830101525b8097505050505050620002796040860162000177565b915062000289606086016200015a565b905092959194509250565b600281046001821680620002a957607f821691505b60208210811415620002e4577f4e487b7100000000000000000000000000000000000000000000000000000000600052602260045260246000fd5b50919050565b7f4e487b7100000000000000000000000000000000000000000000000000000000600052604160045260246000fd5b60805160601c60a05160601c60c05160f81c610ea26200039160003960006102b40152600081816103c901528181610536015281816105e6015281816106900152818161077801528181610830015281816108d901526109e80152600081816102020152818161056301526109510152610ea26000f3fe608060405234801561001057600080fd5b506004361061008e5760003560e01c806306fdde03146100935780631e31d053146100b15780632b8509a7146100c657806338adb6f0146100db578063567e98f9146100f057806388cc58e4146100f857806394465b2114610100578063b3a7834d14610113578063c51db6b214610133578063e73df6741461013b575b600080fd5b61009b61014e565b6040516100a89190610b90565b60405180910390f35b6100b96101dc565b6040516100a89190610b49565b6100d96100d4366004610ae5565b6101eb565b005b6100e3610943565b6040516100a89190610d7a565b6100e3610949565b6100b961094f565b6100e361010e366004610a93565b610973565b610126610121366004610a93565b610996565b6040516100a89190610d4e565b6100b96109e6565b6100b9610149366004610a93565b610a0a565b6002805461015b90610e1b565b80601f016020809104026020016040519081016040528092919081815260200182805461018790610e1b565b80156101d45780601f106101a9576101008083540402835291602001916101d4565b820191906000526020600020905b8154815290600101906020018083116101b757829003601f168201915b505050505081565b6003546001600160a01b031681565b6040516372923f6d60e11b81526001600160a01b037f0000000000000000000000000000000000000000000000000000000000000000169063e5247eda906102399088903390600401610d91565b60206040518083038186803b15801561025157600080fd5b505afa158015610265573d6000803e3d6000fd5b505050506040513d601f19601f820116820180604052508101906102899190610aad565b6102ae5760405162461bcd60e51b81526004016102a590610c84565b60405180910390fd5b8460ff167f000000000000000000000000000000000000000000000000000000000000000060ff16146102f35760405162461bcd60e51b81526004016102a590610cef565b6003546001600160a01b038581169116146103205760405162461bcd60e51b81526004016102a590610c53565b6001600160a01b0381811660009081526020819052604090205416158061036357506001600160a01b038181166000908152602081905260409020548116908416145b61037f5760405162461bcd60e51b81526004016102a590610cbb565b6001600160a01b03831660009081526001602081905260409091200154828114156103aa575061093c565b8281101561046a57604051634c7b4f4d60e11b81526001600160a01b037f000000000000000000000000000000000000000000000000000000000000000016906398f69e9a906103fe903090600401610b49565b60206040518083038186803b15801561041657600080fd5b505afa15801561042a573d6000803e3d6000fd5b505050506040513d601f19601f8201168201806040525081019061044e9190610aad565b61046a5760405162461bcd60e51b81526004016102a590610c12565b6001600160a01b03841660009081526001602052604090205460ff166104e0576001600160a01b038085166000818152600160208181526040808420805460ff19169093178355600290920180549588166001600160a01b0319968716811790915583528290529020805490921617905561051f565b6001600160a01b0384811660009081526001602052604090206002015481169083161461051f5760405162461bcd60e51b81526004016102a590610d17565b60405163579dea7960e11b81526001600160a01b037f0000000000000000000000000000000000000000000000000000000000000000169063af3bd4f29061058b907f000000000000000000000000000000000000000000000000000000000000000090600401610be3565b600060405180830381600087803b1580156105a557600080fd5b505af11580156105b9573d6000803e3d6000fd5b505050506001600160a01b03841660009081526001602081905260409091200154156107e45760006107597f00000000000000000000000000000000000000000000000000000000000000006001600160a01b031663a2a00ed630886040518363ffffffff1660e01b8152600401610632929190610b5d565b60206040518083038186803b15801561064a57600080fd5b505afa15801561065e573d6000803e3d6000fd5b505050506040513d601f19601f820116820180604052508101906106829190610acd565b61075364e8d4a5100061074d7f00000000000000000000000000000000000000000000000000000000000000006001600160a01b031663a1a89dbc306040518263ffffffff1660e01b81526004016106da9190610b49565b60206040518083038186803b1580156106f257600080fd5b505afa158015610706573d6000803e3d6000fd5b505050506040513d601f19601f8201168201806040525081019061072a9190610acd565b6001600160a01b038b166000908152600160208190526040909120015490610a25565b90610a38565b90610a44565b905080156107e257604051631df36e4160e31b81526001600160a01b037f0000000000000000000000000000000000000000000000000000000000000000169063ef9b7208906107af9088908590600401610b77565b600060405180830381600087803b1580156107c957600080fd5b505af11580156107dd573d6000803e3d6000fd5b505050505b505b6107fd8161075385600454610a5090919063ffffffff16565b60049081556001600160a01b03808616600090815260016020819052604091829020018690555163286a276f60e21b81527f00000000000000000000000000000000000000000000000000000000000000009091169163bf16c3c291879161087e9164e8d4a510009161074d91879163a1a89dbc916106da91309101610b49565b6040518363ffffffff1660e01b815260040161089b929190610b77565b600060405180830381600087803b1580156108b557600080fd5b505af11580156108c9573d6000803e3d6000fd5b50505050836001600160a01b03167f00000000000000000000000000000000000000000000000000000000000000006001600160a01b03167f8572960e25f62a888f92ba98fda1ca3cba3fc98b664e8ae79fdc97a644c7bae48386604051610932929190610d83565b60405180910390a3505b5050505050565b60045490565b60045481565b7f000000000000000000000000000000000000000000000000000000000000000090565b6001600160a01b038116600090815260016020819052604090912001545b919050565b61099e610a5c565b506001600160a01b039081166000908152600160208181526040928390208351606081018552815460ff16151581529281015491830191909152600201549092169082015290565b7f000000000000000000000000000000000000000000000000000000000000000090565b6000602081905290815260409020546001600160a01b031681565b6000610a318284610de5565b9392505050565b6000610a318284610dc5565b6000610a318284610e04565b6000610a318284610dad565b604080516060810182526000808252602082018190529181019190915290565b80356001600160a01b038116811461099157600080fd5b600060208284031215610aa4578081fd5b610a3182610a7c565b600060208284031215610abe578081fd5b81518015158114610a31578182fd5b600060208284031215610ade578081fd5b5051919050565b600080600080600060a08688031215610afc578081fd5b853560ff81168114610b0c578182fd5b9450610b1a60208701610a7c565b9350610b2860408701610a7c565b925060608601359150610b3d60808701610a7c565b90509295509295909350565b6001600160a01b0391909116815260200190565b6001600160a01b0392831681529116602082015260400190565b6001600160a01b03929092168252602082015260400190565b6000602080835283518082850152825b81811015610bbc57858101830151858201604001528201610ba0565b81811115610bcd5783604083870101525b50601f01601f1916929092016040019392505050565b6040808252600490820152632aa9a2a960e11b60608201526001600160a01b0391909116602082015260800190565b60208082526021908201527f43616e206e6f74206465706f73697420746f206120636c6f73656420706f6f6c6040820152601760f91b606082015260800190565b60208082526017908201527615dc9bdb99c819195b1959d85d1959481858d8dbdd5b9d604a1b604082015260600190565b6020808252601d908201527f4f6e6c79207665726966696564206272696467652063616e2063616c6c000000604082015260600190565b6020808252601a9082015279084deeadcc840c4e6c640c2c6c6deeadce840c8d2e6dac2e8c6d60331b604082015260600190565b6020808252600e908201526d15dc9bdb99c818da185a5b881a5960921b604082015260600190565b6020808252601d908201527f426f756e6420636f736d6f73206163636f756e74206469736d61746368000000604082015260600190565b815115158152602080830151908201526040918201516001600160a01b03169181019190915260600190565b90815260200190565b918252602082015260400190565b60ff9290921682526001600160a01b0316602082015260400190565b60008219821115610dc057610dc0610e56565b500190565b600082610de057634e487b7160e01b81526012600452602481fd5b500490565b6000816000190483118215151615610dff57610dff610e56565b500290565b600082821015610e1657610e16610e56565b500390565b600281046001821680610e2f57607f821691505b60208210811415610e5057634e487b7160e01b600052602260045260246000fd5b50919050565b634e487b7160e01b600052601160045260246000fdfea2646970667358221220ebb45f1708d53ed97a34a65f5e6d452151d73f3f340ddcd73ab93790831f3a6c64736f6c63430008000033",
  "linkReferences": {},
  "deployedLinkReferences": {}
}