{
  "_format": "hh-sol-artifact-1",
  "contractName": "NutPower",
  "sourceName": "contracts/NutPower.sol",
  "abi": [
    {
      "inputs": [
        {
          "internalType": "address",
          "name": "_nut",
          "type": "address"
        }
      ],
      "stateMutability": "nonpayable",
      "type": "constructor"
    },
    {
      "anonymous": false,
      "inputs": [
        {
          "indexed": true,
          "internalType": "address",
          "name": "oldNut",
          "type": "address"
        },
        {
          "indexed": true,
          "internalType": "address",
          "name": "newNut",
          "type": "address"
        }
      ],
      "name": "AdminChangeNut",
      "type": "event"
    },
    {
      "anonymous": false,
      "inputs": [
        {
          "indexed": true,
          "internalType": "address",
          "name": "who",
          "type": "address"
        },
        {
          "indexed": false,
          "internalType": "bool",
          "name": "tag",
          "type": "bool"
        }
      ],
      "name": "AdminSetWhiteList",
      "type": "event"
    },
    {
      "anonymous": false,
      "inputs": [
        {
          "indexed": true,
          "internalType": "address",
          "name": "previousOwner",
          "type": "address"
        },
        {
          "indexed": true,
          "internalType": "address",
          "name": "newOwner",
          "type": "address"
        }
      ],
      "name": "OwnershipTransferred",
      "type": "event"
    },
    {
      "anonymous": false,
      "inputs": [
        {
          "indexed": true,
          "internalType": "address",
          "name": "who",
          "type": "address"
        },
        {
          "indexed": false,
          "internalType": "enum NutPower.Period",
          "name": "period",
          "type": "uint8"
        },
        {
          "indexed": false,
          "internalType": "uint256",
          "name": "amount",
          "type": "uint256"
        }
      ],
      "name": "PowerDown",
      "type": "event"
    },
    {
      "anonymous": false,
      "inputs": [
        {
          "indexed": true,
          "internalType": "address",
          "name": "who",
          "type": "address"
        },
        {
          "indexed": false,
          "internalType": "enum NutPower.Period",
          "name": "period",
          "type": "uint8"
        },
        {
          "indexed": false,
          "internalType": "uint256",
          "name": "amount",
          "type": "uint256"
        }
      ],
      "name": "PowerUp",
      "type": "event"
    },
    {
      "anonymous": false,
      "inputs": [
        {
          "indexed": true,
          "internalType": "address",
          "name": "who",
          "type": "address"
        },
        {
          "indexed": false,
          "internalType": "uint256",
          "name": "amount",
          "type": "uint256"
        }
      ],
      "name": "Redeemd",
      "type": "event"
    },
    {
      "anonymous": false,
      "inputs": [
        {
          "indexed": true,
          "internalType": "address",
          "name": "who",
          "type": "address"
        },
        {
          "indexed": false,
          "internalType": "enum NutPower.Period",
          "name": "src",
          "type": "uint8"
        },
        {
          "indexed": false,
          "internalType": "enum NutPower.Period",
          "name": "dest",
          "type": "uint8"
        },
        {
          "indexed": false,
          "internalType": "uint256",
          "name": "amount",
          "type": "uint256"
        }
      ],
      "name": "Upgrade",
      "type": "event"
    },
    {
      "inputs": [],
      "name": "PERIOD_COUNT",
      "outputs": [
        {
          "internalType": "uint256",
          "name": "",
          "type": "uint256"
        }
      ],
      "stateMutability": "view",
      "type": "function"
    },
    {
      "inputs": [],
      "name": "WEEK",
      "outputs": [
        {
          "internalType": "uint256",
          "name": "",
          "type": "uint256"
        }
      ],
      "stateMutability": "view",
      "type": "function"
    },
    {
      "inputs": [
        {
          "internalType": "address",
          "name": "_nut",
          "type": "address"
        }
      ],
      "name": "adminSetNut",
      "outputs": [],
      "stateMutability": "nonpayable",
      "type": "function"
    },
    {
      "inputs": [
        {
          "internalType": "address",
          "name": "_who",
          "type": "address"
        },
        {
          "internalType": "bool",
          "name": "_tag",
          "type": "bool"
        }
      ],
      "name": "adminSetWhitelist",
      "outputs": [],
      "stateMutability": "nonpayable",
      "type": "function"
    },
    {
      "inputs": [
        {
          "internalType": "address",
          "name": "account",
          "type": "address"
        }
      ],
      "name": "balanceOf",
      "outputs": [
        {
          "components": [
            {
              "internalType": "uint256",
              "name": "free",
              "type": "uint256"
            },
            {
              "internalType": "uint256",
              "name": "locked",
              "type": "uint256"
            }
          ],
          "internalType": "struct NutPower.PowerInfo",
          "name": "",
          "type": "tuple"
        }
      ],
      "stateMutability": "view",
      "type": "function"
    },
    {
      "inputs": [
        {
          "internalType": "address",
          "name": "_who",
          "type": "address"
        }
      ],
      "name": "claimableNut",
      "outputs": [
        {
          "internalType": "uint256",
          "name": "amount",
          "type": "uint256"
        }
      ],
      "stateMutability": "view",
      "type": "function"
    },
    {
      "inputs": [],
      "name": "decimals",
      "outputs": [
        {
          "internalType": "uint8",
          "name": "",
          "type": "uint8"
        }
      ],
      "stateMutability": "pure",
      "type": "function"
    },
    {
      "inputs": [
        {
          "internalType": "address",
          "name": "_who",
          "type": "address"
        },
        {
          "internalType": "enum NutPower.Period",
          "name": "_period",
          "type": "uint8"
        }
      ],
      "name": "firstRedeemRequest",
      "outputs": [
        {
          "components": [
            {
              "internalType": "uint256",
              "name": "nutAmount",
              "type": "uint256"
            },
            {
              "internalType": "uint256",
              "name": "claimed",
              "type": "uint256"
            },
            {
              "internalType": "uint256",
              "name": "startTime",
              "type": "uint256"
            },
            {
              "internalType": "uint256",
              "name": "endTime",
              "type": "uint256"
            }
          ],
          "internalType": "struct NutPower.RedeemRequest",
          "name": "req",
          "type": "tuple"
        }
      ],
      "stateMutability": "view",
      "type": "function"
    },
    {
      "inputs": [
        {
          "internalType": "address",
          "name": "_who",
          "type": "address"
        },
        {
          "internalType": "enum NutPower.Period",
          "name": "_period",
          "type": "uint8"
        }
      ],
      "name": "lastRedeemRequest",
      "outputs": [
        {
          "components": [
            {
              "internalType": "uint256",
              "name": "nutAmount",
              "type": "uint256"
            },
            {
              "internalType": "uint256",
              "name": "claimed",
              "type": "uint256"
            },
            {
              "internalType": "uint256",
              "name": "startTime",
              "type": "uint256"
            },
            {
              "internalType": "uint256",
              "name": "endTime",
              "type": "uint256"
            }
          ],
          "internalType": "struct NutPower.RedeemRequest",
          "name": "req",
          "type": "tuple"
        }
      ],
      "stateMutability": "view",
      "type": "function"
    },
    {
      "inputs": [
        {
          "internalType": "address",
          "name": "_who",
          "type": "address"
        },
        {
          "internalType": "uint256",
          "name": "_npAmount",
          "type": "uint256"
        }
      ],
      "name": "lock",
      "outputs": [],
      "stateMutability": "nonpayable",
      "type": "function"
    },
    {
      "inputs": [
        {
          "internalType": "address",
          "name": "_who",
          "type": "address"
        },
        {
          "internalType": "enum NutPower.Period",
          "name": "_period",
          "type": "uint8"
        }
      ],
      "name": "lockedNutOfPeriod",
      "outputs": [
        {
          "internalType": "uint256",
          "name": "",
          "type": "uint256"
        }
      ],
      "stateMutability": "view",
      "type": "function"
    },
    {
      "inputs": [],
      "name": "name",
      "outputs": [
        {
          "internalType": "string",
          "name": "",
          "type": "string"
        }
      ],
      "stateMutability": "pure",
      "type": "function"
    },
    {
      "inputs": [],
      "name": "nut",
      "outputs": [
        {
          "internalType": "address",
          "name": "",
          "type": "address"
        }
      ],
      "stateMutability": "view",
      "type": "function"
    },
    {
      "inputs": [],
      "name": "owner",
      "outputs": [
        {
          "internalType": "address",
          "name": "",
          "type": "address"
        }
      ],
      "stateMutability": "view",
      "type": "function"
    },
    {
      "inputs": [
        {
          "internalType": "uint256",
          "name": "_npAmount",
          "type": "uint256"
        },
        {
          "internalType": "enum NutPower.Period",
          "name": "_period",
          "type": "uint8"
        }
      ],
      "name": "powerDown",
      "outputs": [],
      "stateMutability": "nonpayable",
      "type": "function"
    },
    {
      "inputs": [
        {
          "internalType": "uint256",
          "name": "_nutAmount",
          "type": "uint256"
        },
        {
          "internalType": "enum NutPower.Period",
          "name": "_period",
          "type": "uint8"
        }
      ],
      "name": "powerUp",
      "outputs": [],
      "stateMutability": "nonpayable",
      "type": "function"
    },
    {
      "inputs": [],
      "name": "redeem",
      "outputs": [],
      "stateMutability": "nonpayable",
      "type": "function"
    },
    {
      "inputs": [
        {
          "internalType": "address",
          "name": "_who",
          "type": "address"
        },
        {
          "internalType": "enum NutPower.Period",
          "name": "_period",
          "type": "uint8"
        }
      ],
      "name": "redeemRequestCountOfPeriod",
      "outputs": [
        {
          "internalType": "uint256",
          "name": "len",
          "type": "uint256"
        }
      ],
      "stateMutability": "view",
      "type": "function"
    },
    {
      "inputs": [
        {
          "internalType": "address",
          "name": "_who",
          "type": "address"
        },
        {
          "internalType": "enum NutPower.Period",
          "name": "_period",
          "type": "uint8"
        }
      ],
      "name": "redeemRequestsOfPeriod",
      "outputs": [
        {
          "components": [
            {
              "internalType": "uint256",
              "name": "nutAmount",
              "type": "uint256"
            },
            {
              "internalType": "uint256",
              "name": "claimed",
              "type": "uint256"
            },
            {
              "internalType": "uint256",
              "name": "startTime",
              "type": "uint256"
            },
            {
              "internalType": "uint256",
              "name": "endTime",
              "type": "uint256"
            }
          ],
          "internalType": "struct NutPower.RedeemRequest[]",
          "name": "reqs",
          "type": "tuple[]"
        }
      ],
      "stateMutability": "view",
      "type": "function"
    },
    {
      "inputs": [],
      "name": "renounceOwnership",
      "outputs": [],
      "stateMutability": "nonpayable",
      "type": "function"
    },
    {
      "inputs": [],
      "name": "symbol",
      "outputs": [
        {
          "internalType": "string",
          "name": "",
          "type": "string"
        }
      ],
      "stateMutability": "pure",
      "type": "function"
    },
    {
      "inputs": [],
      "name": "totalLockedNut",
      "outputs": [
        {
          "internalType": "uint256",
          "name": "",
          "type": "uint256"
        }
      ],
      "stateMutability": "view",
      "type": "function"
    },
    {
      "inputs": [],
      "name": "totalSupply",
      "outputs": [
        {
          "internalType": "uint256",
          "name": "",
          "type": "uint256"
        }
      ],
      "stateMutability": "view",
      "type": "function"
    },
    {
      "inputs": [
        {
          "internalType": "address",
          "name": "newOwner",
          "type": "address"
        }
      ],
      "name": "transferOwnership",
      "outputs": [],
      "stateMutability": "nonpayable",
      "type": "function"
    },
    {
      "inputs": [
        {
          "internalType": "address",
          "name": "_who",
          "type": "address"
        },
        {
          "internalType": "uint256",
          "name": "_npAmount",
          "type": "uint256"
        }
      ],
      "name": "unlock",
      "outputs": [],
      "stateMutability": "nonpayable",
      "type": "function"
    },
    {
      "inputs": [
        {
          "internalType": "uint256",
          "name": "_nutAmount",
          "type": "uint256"
        },
        {
          "internalType": "enum NutPower.Period",
          "name": "_src",
          "type": "uint8"
        },
        {
          "internalType": "enum NutPower.Period",
          "name": "_dest",
          "type": "uint8"
        }
      ],
      "name": "upgrade",
      "outputs": [],
      "stateMutability": "nonpayable",
      "type": "function"
    },
    {
      "inputs": [
        {
          "internalType": "address",
          "name": "",
          "type": "address"
        }
      ],
      "name": "whitelists",
      "outputs": [
        {
          "internalType": "bool",
          "name": "",
          "type": "bool"
        }
      ],
      "stateMutability": "view",
      "type": "function"
    }
  ],
  "bytecode": "0x610160604090815260016080908152600260a052600460c052600860e052601061010052602061012052610140919091526200003f906007908162000134565b503480156200004d57600080fd5b5060405162002b5538038062002b55833981016040819052620000709162000193565b620000846200007e620000e0565b620000e4565b600180556001600160a01b038116620000ba5760405162461bcd60e51b8152600401620000b190620001c3565b60405180910390fd5b600280546001600160a01b0319166001600160a01b0392909216919091179055620001fa565b3390565b600080546001600160a01b038381166001600160a01b0319831681178455604051919092169283917f8be0079c531659141344cd1fd0a4f28419497f9722a3daafe3b4186f6b6457e09190a35050565b82600781019282156200016a579160200282015b828111156200016a578251829060ff1690559160200191906001019062000148565b50620001789291506200017c565b5090565b5b808211156200017857600081556001016200017d565b600060208284031215620001a5578081fd5b81516001600160a01b0381168114620001bc578182fd5b9392505050565b60208082526013908201527f496e76616c6964206e7574206164647265737300000000000000000000000000604082015260600190565b61294b806200020a6000396000f3fe608060405234801561001057600080fd5b50600436106101495760003560e01c806306fdde031461014e57806315d3b7a01461016c57806318160ddd146101815780631e7be21014610196578063282d3fdf146101b6578063313ce567146101cb5780633441c5d4146101e05780633b5b7115146101f35780635e995caf146102135780636e7d2cb31461022657806370a0823114610246578063715018a614610266578063783b912b1461026e5780637ba180d1146102765780637eee288d146102895780638cf2d00a1461029c5780638da5cb5b146102af5780638e80408f146102b757806395d89b41146102ca578063a328164c146102d2578063be040fb0146102e5578063c41b3cd2146102ed578063d2ae8e4e14610300578063e36c639814610313578063f1382b261461031b578063f2fde38b1461032e578063f4359ce514610341575b600080fd5b610156610349565b60405161016391906124f3565b60405180910390f35b61017461036c565b60405161016391906123e8565b61018961037b565b6040516101639190612851565b6101a96101a4366004612264565b610381565b60405161016391906124a4565b6101c96101c43660046122e6565b610396565b005b6101d3610475565b604051610163919061285a565b6101c96101ee366004612343565b61047a565b6102066102013660046122b4565b6106e8565b6040516101639190612843565b6101896102213660046122b4565b6108b9565b6102396102343660046122b4565b6109a0565b6040516101639190612456565b610259610254366004612264565b610c6d565b604051610163919061282c565b6101c9610cac565b610189610cc0565b6101896102843660046122b4565b610cc6565b6101c96102973660046122e6565b610d38565b6101c96102aa366004612343565b610dee565b61017461117e565b6101896102c5366004612264565b61118d565b6101566113e1565b6102066102e03660046122b4565b6113fd565b6101c9611576565b6101c96102fb366004612365565b611bdd565b6101c961030e366004612264565b611f3b565b610189611fbd565b6101c961032936600461227e565b611fc2565b6101c961033c366004612264565b612050565b61018961208a565b604080518082019091526009815268273aba102837bbb2b960b91b602082015290565b6002546001600160a01b031681565b60045481565b600f6020526000908152604090205460ff1681565b336000908152600f602052604090205460ff166103ce5760405162461bcd60e51b81526004016103c5906125e5565b60405180910390fd5b6001600160a01b0382166000908152600560205260409020548111156104065760405162461bcd60e51b81526004016103c590612619565b6001600160a01b0382166000908152600560205260409020546104299082612091565b6001600160a01b038316600090815260056020526040902090815560010154610452908261209d565b6001600160a01b0390921660009081526005602052604090206001019190915550565b601290565b6104826120a9565b600082116104a25760405162461bcd60e51b81526004016103c5906126b5565b6002546040516323b872dd60e01b81526001600160a01b03909116906323b872dd906104d6903390309087906004016123fc565b602060405180830381600087803b1580156104f057600080fd5b505af1158015610504573d6000803e3d6000fd5b505050506040513d601f19601f82011682018060405250810190610528919061230f565b506000610577600783600681111561055057634e487b7160e01b600052602160045260246000fd5b6007811061056e57634e487b7160e01b600052603260045260246000fd5b015484906120d3565b600354909150610587908461209d565b600355600454610597908261209d565b600455336000908152600560205260409020546105b4908261209d565b336000908152600560209081526040808320939093556006908190529181206106359286929086908111156105f957634e487b7160e01b600052602160045260246000fd5b600681111561061857634e487b7160e01b600052602160045260246000fd5b81526020019081526020016000205461209d90919063ffffffff16565b33600090815260066020819052604082209190859081111561066757634e487b7160e01b600052602160045260246000fd5b600681111561068657634e487b7160e01b600052602160045260246000fd5b815260200190815260200160002081905550336001600160a01b03167f7972ff6ab166095fb7f719b77bc03b91f0c19d369a03b9ef8b6fa6c75c58ba2c83856040516106d39291906124d8565b60405180910390a2506106e46120df565b5050565b6106f06121fc565b6001600160a01b0383166000908152600e602052604081208184600681111561072957634e487b7160e01b600052602160045260246000fd5b600681111561074857634e487b7160e01b600052602160045260246000fd5b815260208101919091526040016000206001015411156108b3576001600160a01b0383166000908152600e602052604081209083600681111561079b57634e487b7160e01b600052602160045260246000fd5b60068111156107ba57634e487b7160e01b600052602160045260246000fd5b81526020019081526020016000206001016001600e6000866001600160a01b03166001600160a01b03168152602001908152602001600020600085600681111561081457634e487b7160e01b600052602160045260246000fd5b600681111561083357634e487b7160e01b600052602160045260246000fd5b815260208101919091526040016000206001015461085191906128bf565b8154811061086f57634e487b7160e01b600052603260045260246000fd5b906000526020600020906004020160405180608001604052908160008201548152602001600182015481526020016002820154815260200160038201548152505090505b92915050565b6001600160a01b0382166000908152600e60205260408120818360068111156108f257634e487b7160e01b600052602160045260246000fd5b600681111561091157634e487b7160e01b600052602160045260246000fd5b815260208082019290925260409081016000908120546001600160a01b0387168252600e9093529081209084600681111561095c57634e487b7160e01b600052602160045260246000fd5b600681111561097b57634e487b7160e01b600052602160045260246000fd5b815260208101919091526040016000206001015461099991906128bf565b9392505050565b604051635e995caf60e01b81526060903090635e995caf906109c89086908690600401612420565b60206040518083038186803b1580156109e057600080fd5b505afa1580156109f4573d6000803e3d6000fd5b505050506040513d601f19601f82011682018060405250810190610a18919061232b565b6001600160401b03811115610a3d57634e487b7160e01b600052604160045260246000fd5b604051908082528060200260200182016040528015610a7657816020015b610a636121fc565b815260200190600190039081610a5b5790505b506001600160a01b0384166000908152600e602052604081209192509081846006811115610ab457634e487b7160e01b600052602160045260246000fd5b6006811115610ad357634e487b7160e01b600052602160045260246000fd5b81526020019081526020016000206000015490505b6001600160a01b0384166000908152600e6020526040812090846006811115610b2157634e487b7160e01b600052602160045260246000fd5b6006811115610b4057634e487b7160e01b600052602160045260246000fd5b8152602081019190915260400160002060010154811015610c66576001600160a01b0384166000908152600e6020526040812081856006811115610b9457634e487b7160e01b600052602160045260246000fd5b6006811115610bb357634e487b7160e01b600052602160045260246000fd5b81526020019081526020016000206001018281548110610be357634e487b7160e01b600052603260045260246000fd5b9060005260206000209060040201905080604051806080016040529081600082015481526020016001820154815260200160028201548152602001600382015481525050838381518110610c4757634e487b7160e01b600052603260045260246000fd5b6020026020010181905250508080610c5e906128d6565b915050610ae8565b5092915050565b610c75612224565b506001600160a01b03811660009081526005602090815260409182902082518084019093528054835260010154908201525b919050565b610cb46120e5565b610cbe6000612124565b565b60035481565b6001600160a01b038216600090815260066020819052604082209082908490811115610d0257634e487b7160e01b600052602160045260246000fd5b6006811115610d2157634e487b7160e01b600052602160045260246000fd5b815260200190815260200160002054905092915050565b336000908152600f602052604090205460ff16610d675760405162461bcd60e51b81526004016103c5906125e5565b6001600160a01b038216600090815260056020526040902060010154811115610da25760405162461bcd60e51b81526004016103c590612680565b6001600160a01b038216600090815260056020526040902054610dc5908261209d565b6001600160a01b0383166000908152600560205260409020908155600101546104529082612091565b610df66120a9565b6000610e446007836006811115610e1d57634e487b7160e01b600052602160045260246000fd5b60078110610e3b57634e487b7160e01b600052603260045260246000fd5b01548490612174565b905060008311610e665760405162461bcd60e51b81526004016103c5906127ca565b3360009081526006602081905260408220839290918590811115610e9a57634e487b7160e01b600052602160045260246000fd5b6006811115610eb957634e487b7160e01b600052602160045260246000fd5b8152602001908152602001600020541015610ee65760405162461bcd60e51b81526004016103c590612546565b33600090815260056020526040902054831115610f155760405162461bcd60e51b81526004016103c59061279c565b33600090815260056020526040902054610f2f9084612091565b33600090815260056020908152604080832093909355600690819052918120610fb0928492908690811115610f7457634e487b7160e01b600052602160045260246000fd5b6006811115610f9357634e487b7160e01b600052602160045260246000fd5b81526020019081526020016000205461209190919063ffffffff16565b336000908152600660208190526040822091908590811115610fe257634e487b7160e01b600052602160045260246000fd5b600681111561100157634e487b7160e01b600052602160045260246000fd5b81526020808201929092526040908101600090812093909355338352600e90915281209083600681111561104557634e487b7160e01b600052602160045260246000fd5b600681111561106457634e487b7160e01b600052602160045260246000fd5b81526020019081526020016000206001016040518060800160405280838152602001600081526020014281526020016110ec6110e560078760068111156110bb57634e487b7160e01b600052602160045260246000fd5b600781106110d957634e487b7160e01b600052603260045260246000fd5b015462093a80906120d3565b429061209d565b90528154600181810184556000938452602093849020835160049093020191825592820151928101929092556040810151600283015560600151600391820155546111379082612091565b6003556004546111479084612091565b60045560405133907f6399656c46da7a8bc6e6f764c73c74a1a82620c1c589a8afc97851490877a301906106d390859087906124d8565b6000546001600160a01b031690565b6000805b60078110156113db576001600160a01b0383166000908152600e60205260408120818360068111156111d357634e487b7160e01b600052602160045260246000fd5b60068111156111f257634e487b7160e01b600052602160045260246000fd5b600681111561121157634e487b7160e01b600052602160045260246000fd5b81526020019081526020016000206000015490505b6001600160a01b0384166000908152600e602052604081209083600681111561125f57634e487b7160e01b600052602160045260246000fd5b600681111561127e57634e487b7160e01b600052602160045260246000fd5b600681111561129d57634e487b7160e01b600052602160045260246000fd5b81526020810191909152604001600020600101548110156113c8576001600160a01b0384166000908152600e602052604081206113b4916113ad91908560068111156112f957634e487b7160e01b600052602160045260246000fd5b600681111561131857634e487b7160e01b600052602160045260246000fd5b600681111561133757634e487b7160e01b600052602160045260246000fd5b8152602001908152602001600020600101838154811061136757634e487b7160e01b600052603260045260246000fd5b9060005260206000209060040201604051806080016040529081600082015481526020016001820154815260200160028201548152602001600382015481525050612180565b849061209d565b9250806113c0816128d6565b915050611226565b50806113d3816128d6565b915050611191565b50919050565b60408051808201909152600281526104e560f41b602082015290565b6114056121fc565b6001600160a01b0383166000908152600e602052604081208184600681111561143e57634e487b7160e01b600052602160045260246000fd5b600681111561145d57634e487b7160e01b600052602160045260246000fd5b815260208101919091526040016000206001015411156108b3576001600160a01b0383166000908152600e60205260408120908360068111156114b057634e487b7160e01b600052602160045260246000fd5b60068111156114cf57634e487b7160e01b600052602160045260246000fd5b8152602001908152602001600020600101600e6000856001600160a01b03166001600160a01b03168152602001908152602001600020600084600681111561152757634e487b7160e01b600052602160045260246000fd5b600681111561154657634e487b7160e01b600052602160045260246000fd5b8152602001908152602001600020600001548154811061086f57634e487b7160e01b600052603260045260246000fd5b61157e6120a9565b6000805b6007811015611a6f57336000908152600e60205260408120818360068111156115bb57634e487b7160e01b600052602160045260246000fd5b60068111156115da57634e487b7160e01b600052602160045260246000fd5b60068111156115f957634e487b7160e01b600052602160045260246000fd5b81526020019081526020016000206000015490505b336000908152600e602052604081209083600681111561163e57634e487b7160e01b600052602160045260246000fd5b600681111561165d57634e487b7160e01b600052602160045260246000fd5b600681111561167c57634e487b7160e01b600052602160045260246000fd5b8152602081019190915260400160002060010154811015611a5c57336000908152600e602052604081206116cb90828560068111156112f957634e487b7160e01b600052602160045260246000fd5b336000908152600e6020526040812091925061179191839186600681111561170357634e487b7160e01b600052602160045260246000fd5b600681111561172257634e487b7160e01b600052602160045260246000fd5b600681111561174157634e487b7160e01b600052602160045260246000fd5b8152602001908152602001600020600101848154811061177157634e487b7160e01b600052603260045260246000fd5b90600052602060002090600402016001015461209d90919063ffffffff16565b336000908152600e60205260408120908560068111156117c157634e487b7160e01b600052602160045260246000fd5b60068111156117e057634e487b7160e01b600052602160045260246000fd5b60068111156117ff57634e487b7160e01b600052602160045260246000fd5b8152602001908152602001600020600101838154811061182f57634e487b7160e01b600052603260045260246000fd5b6000918252602080832060016004909302019190910192909255338152600e909152604081209084600681111561187657634e487b7160e01b600052602160045260246000fd5b600681111561189557634e487b7160e01b600052602160045260246000fd5b60068111156118b457634e487b7160e01b600052602160045260246000fd5b815260200190815260200160002060010182815481106118e457634e487b7160e01b600052603260045260246000fd5b60009182526020808320600490920290910154338352600e90915260408220909185600681111561192557634e487b7160e01b600052602160045260246000fd5b600681111561194457634e487b7160e01b600052602160045260246000fd5b600681111561196357634e487b7160e01b600052602160045260246000fd5b8152602001908152602001600020600101838154811061199357634e487b7160e01b600052603260045260246000fd5b9060005260206000209060040201600101541415611a36576119b6826001612868565b336000908152600e60205260408120908560068111156119e657634e487b7160e01b600052602160045260246000fd5b6006811115611a0557634e487b7160e01b600052602160045260246000fd5b6006811115611a2457634e487b7160e01b600052602160045260246000fd5b81526020810191909152604001600020555b8015611a4957611a46848261209d565b93505b5080611a54816128d6565b91505061160e565b5080611a67816128d6565b915050611582565b506002546040516370a0823160e01b815282916001600160a01b0316906370a0823190611aa09030906004016123e8565b60206040518083038186803b158015611ab857600080fd5b505afa158015611acc573d6000803e3d6000fd5b505050506040513d601f19601f82011682018060405250810190611af0919061232b565b1015611b0e5760405162461bcd60e51b81526004016103c59061264c565b60025460405163a9059cbb60e01b81526001600160a01b039091169063a9059cbb90611b40903390859060040161243d565b602060405180830381600087803b158015611b5a57600080fd5b505af1158015611b6e573d6000803e3d6000fd5b505050506040513d601f19601f82011682018060405250810190611b92919061230f565b50336001600160a01b03167fb578364c426df8997eccfe4dacffc3f4c871ca3996054b3c64127b88b1c92bac82604051611bcc9190612851565b60405180910390a250610cbe6120df565b611be56120a9565b33600090815260066020819052604082209082908590811115611c1857634e487b7160e01b600052602160045260246000fd5b6006811115611c3757634e487b7160e01b600052602160045260246000fd5b8152602001908152602001600020549050600084118015611c585750838110155b611c745760405162461bcd60e51b81526004016103c590612744565b816006811115611c9457634e487b7160e01b600052602160045260246000fd5b836006811115611cb457634e487b7160e01b600052602160045260246000fd5b10611cd15760405162461bcd60e51b81526004016103c590612774565b3360009081526006602081905260408220611d079287928790811115610f7457634e487b7160e01b600052602160045260246000fd5b336000908152600660208190526040822091908690811115611d3957634e487b7160e01b600052602160045260246000fd5b6006811115611d5857634e487b7160e01b600052602160045260246000fd5b815260200190815260200160002081905550611db58460066000336001600160a01b03166001600160a01b0316815260200190815260200160002060008560068111156105f957634e487b7160e01b600052602160045260246000fd5b336000908152600660208190526040822091908590811115611de757634e487b7160e01b600052602160045260246000fd5b6006811115611e0657634e487b7160e01b600052602160045260246000fd5b8152602001908152602001600020819055506000611eb1611eaa6007866006811115611e4257634e487b7160e01b600052602160045260246000fd5b60078110611e6057634e487b7160e01b600052603260045260246000fd5b01546007866006811115611e8457634e487b7160e01b600052602160045260246000fd5b60078110611ea257634e487b7160e01b600052603260045260246000fd5b015490612091565b86906120d3565b33600090815260056020526040902054909150611ece908261209d565b33600090815260056020526040902055600454611eeb908261209d565b60045560405133907f2f971bc8536ce1daf2506d77fe7b09b7c0bdd7b393039285dbba0c4a7e65352190611f2490879087908a906124af565b60405180910390a25050611f366120df565b505050565b611f436120e5565b6001600160a01b038116611f695760405162461bcd60e51b81526004016103c590612717565b600280546001600160a01b038381166001600160a01b03198316179283905560405191811692169082907fd92bf222094101f3287808fc65a0312c44076c93bcd96d1c2f5ab6ebb14ae17890600090a35050565b600781565b611fca6120e5565b6001600160a01b038216611ff05760405162461bcd60e51b81526004016103c590612575565b6001600160a01b0382166000818152600f602052604090819020805460ff1916841515179055517ff1d497700239c46c020ff28b5d2fccbab95001d62879bafbc628b56347d34107906120449084906124a4565b60405180910390a25050565b6120586120e5565b6001600160a01b03811661207e5760405162461bcd60e51b81526004016103c59061259f565b61208781612124565b50565b62093a8081565b600061099982846128bf565b60006109998284612868565b600260015414156120cc5760405162461bcd60e51b81526004016103c5906127f5565b6002600155565b600061099982846128a0565b60018055565b6120ed6121f8565b6001600160a01b03166120fe61117e565b6001600160a01b031614610cbe5760405162461bcd60e51b81526004016103c5906126e2565b600080546001600160a01b038381166001600160a01b0319831681178455604051919092169283917f8be0079c531659141344cd1fd0a4f28419497f9722a3daafe3b4186f6b6457e09190a35050565b60006109998284612880565b6000816060015142106121a4576020820151825161219d91612091565b9050610ca7565b6108b382602001516121f26121ca8560400151866060015161209190919063ffffffff16565b6121ec6121e487604001514261209190919063ffffffff16565b8751906120d3565b90612174565b90612091565b3390565b6040518060800160405280600081526020016000815260200160008152602001600081525090565b604051806040016040528060008152602001600081525090565b80356001600160a01b0381168114610ca757600080fd5b803560078110610ca757600080fd5b600060208284031215612275578081fd5b6109998261223e565b60008060408385031215612290578081fd5b6122998361223e565b915060208301356122a981612907565b809150509250929050565b600080604083850312156122c6578182fd5b6122cf8361223e565b91506122dd60208401612255565b90509250929050565b600080604083850312156122f8578182fd5b6123018361223e565b946020939093013593505050565b600060208284031215612320578081fd5b815161099981612907565b60006020828403121561233c578081fd5b5051919050565b60008060408385031215612355578182fd5b823591506122dd60208401612255565b600080600060608486031215612379578081fd5b8335925061238960208501612255565b915061239760408501612255565b90509250925092565b600781106123be57634e487b7160e01b600052602160045260246000fd5b9052565b805182526020810151602083015260408101516040830152606081015160608301525050565b6001600160a01b0391909116815260200190565b6001600160a01b039384168152919092166020820152604081019190915260600190565b6001600160a01b03831681526040810161099960208301846123a0565b6001600160a01b03929092168252602082015260400190565b6020808252825182820181905260009190848201906040850190845b81811015612498576124858385516123c2565b9284019260809290920191600101612472565b50909695505050505050565b901515815260200190565b606081016124bd82866123a0565b6124ca60208301856123a0565b826040830152949350505050565b604081016124e682856123a0565b8260208301529392505050565b6000602080835283518082850152825b8181101561251f57858101830151858201604001528201612503565b818111156125305783604083870101525b50601f01601f1916929092016040019392505050565b602080825260159082015274125b9cdd59999a58da595b9d08199c995948139555605a1b604082015260600190565b60208082526010908201526f496e76616c696465206164647265737360801b604082015260600190565b60208082526026908201527f4f776e61626c653a206e6577206f776e657220697320746865207a65726f206160408201526564647265737360d01b606082015260800190565b6020808252601a90820152791059191c995cdcc81a5cc81b9bdd081dda1a5d195b1a5cdd195960321b604082015260600190565b602080825260199082015278496e636566696369656e7420706f77657220746f206c6f636b60381b604082015260600190565b6020808252601a9082015279125b98d9599a58da595b9d0818985b185b98d9481bd98813955560321b604082015260600190565b6020808252601b908201527a496e636566696369656e7420706f77657220746f20756e6c6f636b60281b604082015260600190565b602080825260139082015272125b9d985b1a59081b1bd8dac8185b5bdd5b9d606a1b604082015260600190565b6020808252818101527f4f776e61626c653a2063616c6c6572206973206e6f7420746865206f776e6572604082015260600190565b602080825260139082015272496e76616c6964206e7574206164647265737360681b604082015260600190565b602080825260169082015275125b9d985b1a59081d5c19dc98591948185b5bdd5b9d60521b604082015260600190565b6020808252600e908201526d125b9d985b1a59081c195c9a5bd960921b604082015260600190565b6020808252601490820152730496e73756666696369656e742066726565204e560641b604082015260600190565b6020808252601190820152700496e76616c696420756e6c6f636b204e5607c1b604082015260600190565b6020808252601f908201527f5265656e7472616e637947756172643a207265656e7472616e742063616c6c00604082015260600190565b815181526020918201519181019190915260400190565b608081016108b382846123c2565b90815260200190565b60ff91909116815260200190565b6000821982111561287b5761287b6128f1565b500190565b60008261289b57634e487b7160e01b81526012600452602481fd5b500490565b60008160001904831182151516156128ba576128ba6128f1565b500290565b6000828210156128d1576128d16128f1565b500390565b60006000198214156128ea576128ea6128f1565b5060010190565b634e487b7160e01b600052601160045260246000fd5b801515811461208757600080fdfea2646970667358221220c48ffa4e8dc18de17c03969f5a7e714eb9037225c64061814f82d8920953037e64736f6c63430008000033",
  "linkReferences": {},
  "deployedLinkReferences": {}
}