{
  "_format": "hh-sol-artifact-1",
  "contractName": "NUTToken",
  "sourceName": "contracts/NUTToken.sol",
  "abi": [
    {
      "inputs": [
        {
          "internalType": "string",
          "name": "name",
          "type": "string"
        },
        {
          "internalType": "string",
          "name": "symbol",
          "type": "string"
        },
        {
          "internalType": "uint256",
          "name": "initialSupply",
          "type": "uint256"
        },
        {
          "internalType": "address",
          "name": "owner",
          "type": "address"
        }
      ],
      "stateMutability": "nonpayable",
      "type": "constructor"
    },
    {
      "anonymous": false,
      "inputs": [
        {
          "indexed": true,
          "internalType": "address",
          "name": "owner",
          "type": "address"
        },
        {
          "indexed": true,
          "internalType": "address",
          "name": "spender",
          "type": "address"
        },
        {
          "indexed": false,
          "internalType": "uint256",
          "name": "value",
          "type": "uint256"
        }
      ],
      "name": "Approval",
      "type": "event"
    },
    {
      "anonymous": false,
      "inputs": [],
      "name": "DisableTransfer",
      "type": "event"
    },
    {
      "anonymous": false,
      "inputs": [],
      "name": "EnableTransfer",
      "type": "event"
    },
    {
      "anonymous": false,
      "inputs": [
        {
          "indexed": true,
          "internalType": "address",
          "name": "previousOwner",
          "type": "address"
        },
        {
          "indexed": true,
          "internalType": "address",
          "name": "newOwner",
          "type": "address"
        }
      ],
      "name": "OwnershipTransferred",
      "type": "event"
    },
    {
      "anonymous": false,
      "inputs": [
        {
          "indexed": true,
          "internalType": "address",
          "name": "contractAddress",
          "type": "address"
        }
      ],
      "name": "RemoveWhiteList",
      "type": "event"
    },
    {
      "anonymous": false,
      "inputs": [
        {
          "indexed": true,
          "internalType": "bytes32",
          "name": "role",
          "type": "bytes32"
        },
        {
          "indexed": true,
          "internalType": "bytes32",
          "name": "previousAdminRole",
          "type": "bytes32"
        },
        {
          "indexed": true,
          "internalType": "bytes32",
          "name": "newAdminRole",
          "type": "bytes32"
        }
      ],
      "name": "RoleAdminChanged",
      "type": "event"
    },
    {
      "anonymous": false,
      "inputs": [
        {
          "indexed": true,
          "internalType": "bytes32",
          "name": "role",
          "type": "bytes32"
        },
        {
          "indexed": true,
          "internalType": "address",
          "name": "account",
          "type": "address"
        },
        {
          "indexed": true,
          "internalType": "address",
          "name": "sender",
          "type": "address"
        }
      ],
      "name": "RoleGranted",
      "type": "event"
    },
    {
      "anonymous": false,
      "inputs": [
        {
          "indexed": true,
          "internalType": "bytes32",
          "name": "role",
          "type": "bytes32"
        },
        {
          "indexed": true,
          "internalType": "address",
          "name": "account",
          "type": "address"
        },
        {
          "indexed": true,
          "internalType": "address",
          "name": "sender",
          "type": "address"
        }
      ],
      "name": "RoleRevoked",
      "type": "event"
    },
    {
      "anonymous": false,
      "inputs": [
        {
          "indexed": true,
          "internalType": "address",
          "name": "contractAddress",
          "type": "address"
        }
      ],
      "name": "SetWhiteList",
      "type": "event"
    },
    {
      "anonymous": false,
      "inputs": [
        {
          "indexed": true,
          "internalType": "address",
          "name": "from",
          "type": "address"
        },
        {
          "indexed": true,
          "internalType": "address",
          "name": "to",
          "type": "address"
        },
        {
          "indexed": false,
          "internalType": "uint256",
          "name": "value",
          "type": "uint256"
        }
      ],
      "name": "Transfer",
      "type": "event"
    },
    {
      "inputs": [],
      "name": "DEFAULT_ADMIN_ROLE",
      "outputs": [
        {
          "internalType": "bytes32",
          "name": "",
          "type": "bytes32"
        }
      ],
      "stateMutability": "view",
      "type": "function"
    },
    {
      "inputs": [],
      "name": "MINTER_ROLE",
      "outputs": [
        {
          "internalType": "bytes32",
          "name": "",
          "type": "bytes32"
        }
      ],
      "stateMutability": "view",
      "type": "function"
    },
    {
      "inputs": [
        {
          "internalType": "address",
          "name": "owner",
          "type": "address"
        },
        {
          "internalType": "address",
          "name": "spender",
          "type": "address"
        }
      ],
      "name": "allowance",
      "outputs": [
        {
          "internalType": "uint256",
          "name": "",
          "type": "uint256"
        }
      ],
      "stateMutability": "view",
      "type": "function"
    },
    {
      "inputs": [
        {
          "internalType": "address",
          "name": "spender",
          "type": "address"
        },
        {
          "internalType": "uint256",
          "name": "amount",
          "type": "uint256"
        }
      ],
      "name": "approve",
      "outputs": [
        {
          "internalType": "bool",
          "name": "",
          "type": "bool"
        }
      ],
      "stateMutability": "nonpayable",
      "type": "function"
    },
    {
      "inputs": [
        {
          "internalType": "address",
          "name": "account",
          "type": "address"
        }
      ],
      "name": "balanceOf",
      "outputs": [
        {
          "internalType": "uint256",
          "name": "",
          "type": "uint256"
        }
      ],
      "stateMutability": "view",
      "type": "function"
    },
    {
      "inputs": [
        {
          "internalType": "uint256",
          "name": "amount",
          "type": "uint256"
        }
      ],
      "name": "burn",
      "outputs": [],
      "stateMutability": "nonpayable",
      "type": "function"
    },
    {
      "inputs": [
        {
          "internalType": "address",
          "name": "account",
          "type": "address"
        },
        {
          "internalType": "uint256",
          "name": "amount",
          "type": "uint256"
        }
      ],
      "name": "burnFrom",
      "outputs": [],
      "stateMutability": "nonpayable",
      "type": "function"
    },
    {
      "inputs": [],
      "name": "decimals",
      "outputs": [
        {
          "internalType": "uint8",
          "name": "",
          "type": "uint8"
        }
      ],
      "stateMutability": "view",
      "type": "function"
    },
    {
      "inputs": [
        {
          "internalType": "address",
          "name": "spender",
          "type": "address"
        },
        {
          "internalType": "uint256",
          "name": "subtractedValue",
          "type": "uint256"
        }
      ],
      "name": "decreaseAllowance",
      "outputs": [
        {
          "internalType": "bool",
          "name": "",
          "type": "bool"
        }
      ],
      "stateMutability": "nonpayable",
      "type": "function"
    },
    {
      "inputs": [],
      "name": "disableTransfer",
      "outputs": [],
      "stateMutability": "nonpayable",
      "type": "function"
    },
    {
      "inputs": [],
      "name": "enableTransfer",
      "outputs": [],
      "stateMutability": "nonpayable",
      "type": "function"
    },
    {
      "inputs": [
        {
          "internalType": "bytes32",
          "name": "role",
          "type": "bytes32"
        }
      ],
      "name": "getRoleAdmin",
      "outputs": [
        {
          "internalType": "bytes32",
          "name": "",
          "type": "bytes32"
        }
      ],
      "stateMutability": "view",
      "type": "function"
    },
    {
      "inputs": [
        {
          "internalType": "bytes32",
          "name": "role",
          "type": "bytes32"
        },
        {
          "internalType": "uint256",
          "name": "index",
          "type": "uint256"
        }
      ],
      "name": "getRoleMember",
      "outputs": [
        {
          "internalType": "address",
          "name": "",
          "type": "address"
        }
      ],
      "stateMutability": "view",
      "type": "function"
    },
    {
      "inputs": [
        {
          "internalType": "bytes32",
          "name": "role",
          "type": "bytes32"
        }
      ],
      "name": "getRoleMemberCount",
      "outputs": [
        {
          "internalType": "uint256",
          "name": "",
          "type": "uint256"
        }
      ],
      "stateMutability": "view",
      "type": "function"
    },
    {
      "inputs": [
        {
          "internalType": "bytes32",
          "name": "role",
          "type": "bytes32"
        },
        {
          "internalType": "address",
          "name": "account",
          "type": "address"
        }
      ],
      "name": "grantRole",
      "outputs": [],
      "stateMutability": "nonpayable",
      "type": "function"
    },
    {
      "inputs": [
        {
          "internalType": "bytes32",
          "name": "role",
          "type": "bytes32"
        },
        {
          "internalType": "address",
          "name": "account",
          "type": "address"
        }
      ],
      "name": "hasRole",
      "outputs": [
        {
          "internalType": "bool",
          "name": "",
          "type": "bool"
        }
      ],
      "stateMutability": "view",
      "type": "function"
    },
    {
      "inputs": [
        {
          "internalType": "address",
          "name": "spender",
          "type": "address"
        },
        {
          "internalType": "uint256",
          "name": "addedValue",
          "type": "uint256"
        }
      ],
      "name": "increaseAllowance",
      "outputs": [
        {
          "internalType": "bool",
          "name": "",
          "type": "bool"
        }
      ],
      "stateMutability": "nonpayable",
      "type": "function"
    },
    {
      "inputs": [
        {
          "internalType": "address",
          "name": "to",
          "type": "address"
        },
        {
          "internalType": "uint256",
          "name": "amount",
          "type": "uint256"
        }
      ],
      "name": "mint",
      "outputs": [],
      "stateMutability": "nonpayable",
      "type": "function"
    },
    {
      "inputs": [],
      "name": "name",
      "outputs": [
        {
          "internalType": "string",
          "name": "",
          "type": "string"
        }
      ],
      "stateMutability": "view",
      "type": "function"
    },
    {
      "inputs": [],
      "name": "owner",
      "outputs": [
        {
          "internalType": "address",
          "name": "",
          "type": "address"
        }
      ],
      "stateMutability": "view",
      "type": "function"
    },
    {
      "inputs": [
        {
          "internalType": "address",
          "name": "_contract",
          "type": "address"
        }
      ],
      "name": "removeWhiteList",
      "outputs": [],
      "stateMutability": "nonpayable",
      "type": "function"
    },
    {
      "inputs": [],
      "name": "renounceOwnership",
      "outputs": [],
      "stateMutability": "nonpayable",
      "type": "function"
    },
    {
      "inputs": [
        {
          "internalType": "bytes32",
          "name": "role",
          "type": "bytes32"
        },
        {
          "internalType": "address",
          "name": "account",
          "type": "address"
        }
      ],
      "name": "renounceRole",
      "outputs": [],
      "stateMutability": "nonpayable",
      "type": "function"
    },
    {
      "inputs": [
        {
          "internalType": "bytes32",
          "name": "role",
          "type": "bytes32"
        },
        {
          "internalType": "address",
          "name": "account",
          "type": "address"
        }
      ],
      "name": "revokeRole",
      "outputs": [],
      "stateMutability": "nonpayable",
      "type": "function"
    },
    {
      "inputs": [
        {
          "internalType": "address",
          "name": "_contract",
          "type": "address"
        }
      ],
      "name": "setWhiteList",
      "outputs": [],
      "stateMutability": "nonpayable",
      "type": "function"
    },
    {
      "inputs": [
        {
          "internalType": "bytes4",
          "name": "interfaceId",
          "type": "bytes4"
        }
      ],
      "name": "supportsInterface",
      "outputs": [
        {
          "internalType": "bool",
          "name": "",
          "type": "bool"
        }
      ],
      "stateMutability": "view",
      "type": "function"
    },
    {
      "inputs": [],
      "name": "symbol",
      "outputs": [
        {
          "internalType": "string",
          "name": "",
          "type": "string"
        }
      ],
      "stateMutability": "view",
      "type": "function"
    },
    {
      "inputs": [],
      "name": "totalSupply",
      "outputs": [
        {
          "internalType": "uint256",
          "name": "",
          "type": "uint256"
        }
      ],
      "stateMutability": "view",
      "type": "function"
    },
    {
      "inputs": [
        {
          "internalType": "address",
          "name": "recipient",
          "type": "address"
        },
        {
          "internalType": "uint256",
          "name": "amount",
          "type": "uint256"
        }
      ],
      "name": "transfer",
      "outputs": [
        {
          "internalType": "bool",
          "name": "",
          "type": "bool"
        }
      ],
      "stateMutability": "nonpayable",
      "type": "function"
    },
    {
      "inputs": [
        {
          "internalType": "address",
          "name": "sender",
          "type": "address"
        },
        {
          "internalType": "address",
          "name": "recipient",
          "type": "address"
        },
        {
          "internalType": "uint256",
          "name": "amount",
          "type": "uint256"
        }
      ],
      "name": "transferFrom",
      "outputs": [
        {
          "internalType": "bool",
          "name": "",
          "type": "bool"
        }
      ],
      "stateMutability": "nonpayable",
      "type": "function"
    },
    {
      "inputs": [],
      "name": "transferOpened",
      "outputs": [
        {
          "internalType": "bool",
          "name": "",
          "type": "bool"
        }
      ],
      "stateMutability": "view",
      "type": "function"
    },
    {
      "inputs": [
        {
          "internalType": "address",
          "name": "newOwner",
          "type": "address"
        }
      ],
      "name": "transferOwnership",
      "outputs": [],
      "stateMutability": "nonpayable",
      "type": "function"
    },
    {
      "inputs": [
        {
          "internalType": "address",
          "name": "",
          "type": "address"
        }
      ],
      "name": "whiteList",
      "outputs": [
        {
          "internalType": "bool",
          "name": "",
          "type": "bool"
        }
      ],
      "stateMutability": "view",
      "type": "function"
    }
  ],
  "bytecode": "0x60806040523480156200001157600080fd5b506040516200246338038062002463833981016040819052620000349162000529565b83836200004a6200004462000105565b62000109565b81516200005f906006906020850190620003d8565b50805162000075906007906020840190620003d8565b5050506001600160a01b038116620000aa5760405162461bcd60e51b8152600401620000a190620005ba565b60405180910390fd5b620000c06000620000ba62000105565b62000159565b620000ef7f9f2df0fed2c77648de5860a4cc508cd0818c85b8b8a1ab4ceeef8d981c8956a6620000ba62000105565b620000fb818362000169565b50505050620006a9565b3390565b600080546001600160a01b038381166001600160a01b0319831681178455604051919092169283917f8be0079c531659141344cd1fd0a4f28419497f9722a3daafe3b4186f6b6457e09190a35050565b6200016582826200023e565b5050565b6001600160a01b038216620001925760405162461bcd60e51b8152600401620000a190620005f1565b620001a06000838362000281565b8060056000828254620001b4919062000631565b90915550506001600160a01b03821660009081526003602052604081208054839290620001e390849062000631565b90915550506040516001600160a01b038316906000907fddf252ad1be2c89b69c2b068fc378daa952ba7f163c4a11628f55a4df523b3ef906200022890859062000628565b60405180910390a362000165600083836200027c565b6200025582826200029960201b62000b7b1760201c565b60008281526002602090815260409091206200027c91839062000c0362000326821b17901c565b505050565b6200027c8383836200027c60201b6200063a1760201c565b620002a5828262000346565b620001655760008281526001602081815260408084206001600160a01b0386168552909152909120805460ff19169091179055620002e262000105565b6001600160a01b0316816001600160a01b0316837f2f8788117e7eff1d82e926ec794901d17c78024a50270940304540a733656f0d60405160405180910390a45050565b60006200033d836001600160a01b03841662000371565b90505b92915050565b60009182526001602090815260408084206001600160a01b0393909316845291905290205460ff1690565b60006200037f8383620003c0565b620003b75750815460018181018455600084815260208082209093018490558454848252828601909352604090209190915562000340565b50600062000340565b60009081526001919091016020526040902054151590565b828054620003e69062000656565b90600052602060002090601f0160209004810192826200040a576000855562000455565b82601f106200042557805160ff191683800117855562000455565b8280016001018555821562000455579182015b828111156200045557825182559160200191906001019062000438565b506200046392915062000467565b5090565b5b8082111562000463576000815560010162000468565b600082601f8301126200048f578081fd5b81516001600160401b0380821115620004ac57620004ac62000693565b6040516020601f8401601f1916820181018381118382101715620004d457620004d462000693565b6040528382528584018101871015620004eb578485fd5b8492505b838310156200050e5785830181015182840182015291820191620004ef565b838311156200051f57848185840101525b5095945050505050565b600080600080608085870312156200053f578384fd5b84516001600160401b038082111562000556578586fd5b62000564888389016200047e565b955060208701519150808211156200057a578485fd5b5062000589878288016200047e565b60408701516060880151919550935090506001600160a01b0381168114620005af578182fd5b939692955090935050565b60208082526019908201527f5265636569766520616464726573732063616e74206265203000000000000000604082015260600190565b6020808252601f908201527f45524332303a206d696e7420746f20746865207a65726f206164647265737300604082015260600190565b90815260200190565b600082198211156200065157634e487b7160e01b81526011600452602481fd5b500190565b6002810460018216806200066b57607f821691505b602082108114156200068d57634e487b7160e01b600052602260045260246000fd5b50919050565b634e487b7160e01b600052604160045260246000fd5b611daa80620006b96000396000f3fe608060405234801561001057600080fd5b506004361061018b5760003560e01c806301ffc9a71461019057806306fdde03146101b9578063095ea7b3146101ce57806318160ddd146101e15780632042e5c2146101f657806323b872dd1461020b578063248a9ca31461021e5780632f2ff15d14610231578063313ce5671461024457806336568abe14610259578063372c12b11461026c578063395093511461027f57806339e899ee146102925780633a1302c3146102a557806340c10f19146102ad57806342966c68146102c057806370a08231146102d3578063715018a6146102e657806379cc6790146102ee5780638da5cb5b146103015780639010d07c1461031657806391d148541461032957806395d89b411461033c578063a217fddf14610344578063a457c2d71461034c578063a9059cbb1461035f578063b187984f14610372578063ca15c8731461037a578063d53913931461038d578063d547741f14610395578063dd62ed3e146103a8578063f1b50c1d146103bb578063f2fde38b146103c3575b600080fd5b6101a361019e366004611694565b6103d6565b6040516101b0919061173f565b60405180910390f35b6101c1610403565b6040516101b09190611753565b6101a36101dc366004611610565b610495565b6101e96104b3565b6040516101b0919061174a565b610209610204366004611589565b6104b9565b005b6101a36102193660046115d5565b610570565b6101e961022c366004611639565b610600565b61020961023f366004611651565b610616565b61024c61063f565b6040516101b09190611c44565b610209610267366004611651565b610644565b6101a361027a366004611589565b61068a565b6101a361028d366004611610565b61069f565b6102096102a0366004611589565b6106f3565b6101a36107a4565b6102096102bb366004611610565b6107ad565b6102096102ce366004611639565b6107ed565b6101e96102e1366004611589565b610801565b61020961081c565b6102096102fc366004611610565b610867565b6103096108b5565b6040516101b0919061172b565b610309610324366004611673565b6108c4565b6101a3610337366004611651565b6108e3565b6101c161090e565b6101e961091d565b6101a361035a366004611610565b610922565b6101a361036d366004611610565b61099b565b6102096109af565b6101e9610388366004611639565b610a23565b6101e9610a3a565b6102096103a3366004611651565b610a4c565b6101e96103b63660046115a3565b610a6b565b610209610a96565b6102096103d1366004611589565b610b0d565b60006001600160e01b03198216635a05180f60e01b14806103fb57506103fb82610c18565b90505b919050565b60606006805461041290611ce3565b80601f016020809104026020016040519081016040528092919081815260200182805461043e90611ce3565b801561048b5780601f106104605761010080835404028352916020019161048b565b820191906000526020600020905b81548152906001019060200180831161046e57829003601f168201915b5050505050905090565b60006104a96104a2610c3d565b8484610c41565b5060015b92915050565b60055490565b6104c1610c3d565b6001600160a01b03166104d26108b5565b6001600160a01b0316146105015760405162461bcd60e51b81526004016104f890611988565b60405180910390fd5b6001600160a01b0381166105275760405162461bcd60e51b81526004016104f89061190e565b6001600160a01b038116600081815260086020526040808220805460ff19169055517f1e17ee0599b7c09bb1d0ff1e8086007909da8bfba5c7d18319cb558e66db37ee9190a250565b600061057d848484610cf5565b6001600160a01b03841660009081526004602052604081208161059e610c3d565b6001600160a01b03166001600160a01b03168152602001908152602001600020549050828110156105e15760405162461bcd60e51b81526004016104f890611940565b6105f5856105ed610c3d565b858403610c41565b506001949350505050565b6000908152600160208190526040909120015490565b61061f82610600565b6106308161062b610c3d565b610d8c565b61063a8383610df0565b505050565b601290565b61064c610c3d565b6001600160a01b0316816001600160a01b03161461067c5760405162461bcd60e51b81526004016104f890611bbe565b6106868282610e12565b5050565b60086020526000908152604090205460ff1681565b60006104a96106ac610c3d565b8484600460006106ba610c3d565b6001600160a01b03908116825260208083019390935260409182016000908120918b16815292529020546106ee9190611c52565b610c41565b6106fb610c3d565b6001600160a01b031661070c6108b5565b6001600160a01b0316146107325760405162461bcd60e51b81526004016104f890611988565b6001600160a01b0381166107585760405162461bcd60e51b81526004016104f89061190e565b6001600160a01b038116600081815260086020526040808220805460ff19166001179055517f3990e3e141b903f4f5602428874be692206642a653b416f336d965e2f04813ce9190a250565b60095460ff1681565b6107c7600080516020611d35833981519152610337610c3d565b6107e35760405162461bcd60e51b81526004016104f8906119bd565b6106868282610e34565b6107fe6107f8610c3d565b82610eea565b50565b6001600160a01b031660009081526003602052604090205490565b610824610c3d565b6001600160a01b03166108356108b5565b6001600160a01b03161461085b5760405162461bcd60e51b81526004016104f890611988565b6108656000610fc9565b565b6000610875836103b6610c3d565b9050818110156108975760405162461bcd60e51b81526004016104f890611a13565b6108ab836108a3610c3d565b848403610c41565b61063a8383610eea565b6000546001600160a01b031690565b60008281526002602052604081206108dc9083611019565b9392505050565b60009182526001602090815260408084206001600160a01b0393909316845291905290205460ff1690565b60606007805461041290611ce3565b600081565b60008060046000610931610c3d565b6001600160a01b039081168252602080830193909352604091820160009081209188168152925290205490508281101561097d5760405162461bcd60e51b81526004016104f890611b79565b610991610988610c3d565b85858403610c41565b5060019392505050565b60006104a96109a8610c3d565b8484610cf5565b6109b7610c3d565b6001600160a01b03166109c86108b5565b6001600160a01b0316146109ee5760405162461bcd60e51b81526004016104f890611988565b6009805460ff191690556040517fb5268fa45a1d68f6e477c989133949190a0b45c510dc9ba635e824dd172eecb490600090a1565b60008181526002602052604081206103fb90611025565b600080516020611d3583398151915281565b610a5582610600565b610a618161062b610c3d565b61063a8383610e12565b6001600160a01b03918216600090815260046020908152604080832093909416825291909152205490565b610a9e610c3d565b6001600160a01b0316610aaf6108b5565b6001600160a01b031614610ad55760405162461bcd60e51b81526004016104f890611988565b6009805460ff191660011790556040517faf7d697ef0ba633b3eae6ce87f1d049667fd2e034bfa7f83c89314a9592827e090600090a1565b610b15610c3d565b6001600160a01b0316610b266108b5565b6001600160a01b031614610b4c5760405162461bcd60e51b81526004016104f890611988565b6001600160a01b038116610b725760405162461bcd60e51b81526004016104f890611840565b6107fe81610fc9565b610b8582826108e3565b6106865760008281526001602081815260408084206001600160a01b0386168552909152909120805460ff19169091179055610bbf610c3d565b6001600160a01b0316816001600160a01b0316837f2f8788117e7eff1d82e926ec794901d17c78024a50270940304540a733656f0d60405160405180910390a45050565b60006108dc836001600160a01b038416611030565b60006001600160e01b03198216637965db0b60e01b14806103fb57506103fb8261107a565b3390565b6001600160a01b038316610c675760405162461bcd60e51b81526004016104f890611add565b6001600160a01b038216610c8d5760405162461bcd60e51b81526004016104f890611886565b6001600160a01b0380841660008181526004602090815260408083209487168084529490915290819020849055517f8c5be1e5ebec7d5bd14f71427d1e84f3dd0314c0f7b2291e5b200ac8c7c3b92590610ce890859061174a565b60405180910390a3505050565b60095460ff16158015610d215750610d0b6108b5565b6001600160a01b0316336001600160a01b031614155b15610d81576001600160a01b03821660009081526008602052604090205460ff1680610d6557506001600160a01b03831660009081526008602052604090205460ff165b610d815760405162461bcd60e51b81526004016104f890611b21565b61063a838383611093565b610d9682826108e3565b61068657610dae816001600160a01b031660146111ab565b610db98360206111ab565b604051602001610dca9291906116bc565b60408051601f198184030181529082905262461bcd60e51b82526104f891600401611753565b610dfa8282610b7b565b600082815260026020526040902061063a9082610c03565b610e1c828261135c565b600082815260026020526040902061063a90826113e1565b6001600160a01b038216610e5a5760405162461bcd60e51b81526004016104f890611c0d565b610e66600083836113f6565b8060056000828254610e789190611c52565b90915550506001600160a01b03821660009081526003602052604081208054839290610ea5908490611c52565b90915550506040516001600160a01b03831690600090600080516020611d5583398151915290610ed690859061174a565b60405180910390a36106866000838361063a565b6001600160a01b038216610f105760405162461bcd60e51b81526004016104f890611a57565b610f1c826000836113f6565b6001600160a01b03821660009081526003602052604090205481811015610f555760405162461bcd60e51b81526004016104f8906117fe565b6001600160a01b0383166000908152600360205260408120838303905560058054849290610f84908490611c89565b90915550506040516000906001600160a01b03851690600080516020611d5583398151915290610fb590869061174a565b60405180910390a361063a8360008461063a565b600080546001600160a01b038381166001600160a01b0319831681178455604051919092169283917f8be0079c531659141344cd1fd0a4f28419497f9722a3daafe3b4186f6b6457e09190a35050565b60006108dc8383611401565b60006103fb82611439565b600061103c838361143d565b611072575081546001818101845560008481526020808220909301849055845484825282860190935260409020919091556104ad565b5060006104ad565b6001600160e01b031981166301ffc9a760e01b14919050565b6001600160a01b0383166110b95760405162461bcd60e51b81526004016104f890611a98565b6001600160a01b0382166110df5760405162461bcd60e51b81526004016104f8906117bb565b6110ea8383836113f6565b6001600160a01b038316600090815260036020526040902054818110156111235760405162461bcd60e51b81526004016104f8906118c8565b6001600160a01b0380851660009081526003602052604080822085850390559185168152908120805484929061115a908490611c52565b92505081905550826001600160a01b0316846001600160a01b0316600080516020611d5583398151915284604051611192919061174a565b60405180910390a36111a584848461063a565b50505050565b606060006111ba836002611c6a565b6111c5906002611c52565b6001600160401b038111156111ea57634e487b7160e01b600052604160045260246000fd5b6040519080825280601f01601f191660200182016040528015611214576020820181803683370190505b509050600360fc1b8160008151811061123d57634e487b7160e01b600052603260045260246000fd5b60200101906001600160f81b031916908160001a905350600f60fb1b8160018151811061127a57634e487b7160e01b600052603260045260246000fd5b60200101906001600160f81b031916908160001a905350600061129e846002611c6a565b6112a9906001611c52565b90505b600181111561133d576f181899199a1a9b1b9c1cb0b131b232b360811b85600f16601081106112eb57634e487b7160e01b600052603260045260246000fd5b1a60f81b82828151811061130f57634e487b7160e01b600052603260045260246000fd5b60200101906001600160f81b031916908160001a90535060049490941c9361133681611ccc565b90506112ac565b5083156108dc5760405162461bcd60e51b81526004016104f890611786565b61136682826108e3565b156106865760008281526001602090815260408083206001600160a01b03851684529091529020805460ff1916905561139d610c3d565b6001600160a01b0316816001600160a01b0316837ff6391f5c32d9c69d2a47ea670b442974b53935d1edc7fd64eb21e047a839171b60405160405180910390a45050565b60006108dc836001600160a01b038416611455565b61063a83838361063a565b600082600001828154811061142657634e487b7160e01b600052603260045260246000fd5b9060005260206000200154905092915050565b5490565b60009081526001919091016020526040902054151590565b60008181526001830160205260408120548015611568576000611479600183611c89565b855490915060009061148d90600190611c89565b905081811461150e5760008660000182815481106114bb57634e487b7160e01b600052603260045260246000fd5b90600052602060002001549050808760000184815481106114ec57634e487b7160e01b600052603260045260246000fd5b6000918252602080832090910192909255918252600188019052604090208390555b855486908061152d57634e487b7160e01b600052603160045260246000fd5b6001900381819060005260206000200160009055905585600101600086815260200190815260200160002060009055600193505050506104ad565b60009150506104ad565b80356001600160a01b03811681146103fe57600080fd5b60006020828403121561159a578081fd5b6108dc82611572565b600080604083850312156115b5578081fd5b6115be83611572565b91506115cc60208401611572565b90509250929050565b6000806000606084860312156115e9578081fd5b6115f284611572565b925061160060208501611572565b9150604084013590509250925092565b60008060408385031215611622578182fd5b61162b83611572565b946020939093013593505050565b60006020828403121561164a578081fd5b5035919050565b60008060408385031215611663578182fd5b823591506115cc60208401611572565b60008060408385031215611685578182fd5b50508035926020909101359150565b6000602082840312156116a5578081fd5b81356001600160e01b0319811681146108dc578182fd5b600076020b1b1b2b9b9a1b7b73a3937b61d1030b1b1b7bab73a1604d1b825283516116ee816017850160208801611ca0565b7001034b99036b4b9b9b4b733903937b6329607d1b601791840191820152835161171f816028840160208801611ca0565b01602801949350505050565b6001600160a01b0391909116815260200190565b901515815260200190565b90815260200190565b6000602082528251806020840152611772816040850160208701611ca0565b601f01601f19169190910160400192915050565b6020808252818101527f537472696e67733a20686578206c656e67746820696e73756666696369656e74604082015260600190565b60208082526023908201527f45524332303a207472616e7366657220746f20746865207a65726f206164647260408201526265737360e81b606082015260800190565b60208082526022908201527f45524332303a206275726e20616d6f756e7420657863656564732062616c616e604082015261636560f01b606082015260800190565b60208082526026908201527f4f776e61626c653a206e6577206f776e657220697320746865207a65726f206160408201526564647265737360d01b606082015260800190565b60208082526022908201527f45524332303a20617070726f766520746f20746865207a65726f206164647265604082015261737360f01b606082015260800190565b60208082526026908201527f45524332303a207472616e7366657220616d6f756e7420657863656564732062604082015265616c616e636560d01b606082015260800190565b602080825260189082015277496e76616c696420636f6e7472616374206164647265737360401b604082015260600190565b60208082526028908201527f45524332303a207472616e7366657220616d6f756e74206578636565647320616040820152676c6c6f77616e636560c01b606082015260800190565b6020808252818101527f4f776e61626c653a2063616c6c6572206973206e6f7420746865206f776e6572604082015260600190565b60208082526036908201527f45524332305072657365744d696e7465725061757365723a206d7573742068616040820152751d99481b5a5b9d195c881c9bdb19481d1bc81b5a5b9d60521b606082015260800190565b60208082526024908201527f45524332303a206275726e20616d6f756e74206578636565647320616c6c6f77604082015263616e636560e01b606082015260800190565b60208082526021908201527f45524332303a206275726e2066726f6d20746865207a65726f206164647265736040820152607360f81b606082015260800190565b60208082526025908201527f45524332303a207472616e736665722066726f6d20746865207a65726f206164604082015264647265737360d81b606082015260800190565b60208082526024908201527f45524332303a20617070726f76652066726f6d20746865207a65726f206164646040820152637265737360e01b606082015260800190565b60208082526038908201527f5065726d697373696f6e2064656e6965643a2073656e646572206f72207265636040820152771a5c1a595b9d081a5cc81b9bdd081dda1a5d19481b1a5cdd60421b606082015260800190565b60208082526025908201527f45524332303a2064656372656173656420616c6c6f77616e63652062656c6f77604082015264207a65726f60d81b606082015260800190565b6020808252602f908201527f416363657373436f6e74726f6c3a2063616e206f6e6c792072656e6f756e636560408201526e103937b632b9903337b91039b2b63360891b606082015260800190565b6020808252601f908201527f45524332303a206d696e7420746f20746865207a65726f206164647265737300604082015260600190565b60ff91909116815260200190565b60008219821115611c6557611c65611d1e565b500190565b6000816000190483118215151615611c8457611c84611d1e565b500290565b600082821015611c9b57611c9b611d1e565b500390565b60005b83811015611cbb578181015183820152602001611ca3565b838111156111a55750506000910152565b600081611cdb57611cdb611d1e565b506000190190565b600281046001821680611cf757607f821691505b60208210811415611d1857634e487b7160e01b600052602260045260246000fd5b50919050565b634e487b7160e01b600052601160045260246000fdfe9f2df0fed2c77648de5860a4cc508cd0818c85b8b8a1ab4ceeef8d981c8956a6ddf252ad1be2c89b69c2b068fc378daa952ba7f163c4a11628f55a4df523b3efa2646970667358221220ce10b8c6507212cbddb1d8b8bbce2de7d710ac47d46b58dc463151e5f927184164736f6c63430008000033",
  "linkReferences": {},
  "deployedLinkReferences": {}
}