{
  "_format": "hh-sol-artifact-1",
  "contractName": "TaxedERC20Staking",
  "sourceName": "contracts/dapps/taxed-erc20-staking/TaxedERC20Staking.sol",
  "abi": [
    {
      "inputs": [
        {
          "internalType": "address",
          "name": "_community",
          "type": "address"
        },
        {
          "internalType": "string",
          "name": "_name",
          "type": "string"
        },
        {
          "internalType": "address",
          "name": "_stakeToken",
          "type": "address"
        }
      ],
      "stateMutability": "nonpayable",
      "type": "constructor"
    },
    {
      "anonymous": false,
      "inputs": [
        {
          "indexed": true,
          "internalType": "address",
          "name": "community",
          "type": "address"
        },
        {
          "indexed": true,
          "internalType": "address",
          "name": "who",
          "type": "address"
        },
        {
          "indexed": false,
          "internalType": "uint256",
          "name": "amount",
          "type": "uint256"
        }
      ],
      "name": "Deposited",
      "type": "event"
    },
    {
      "anonymous": false,
      "inputs": [
        {
          "indexed": true,
          "internalType": "address",
          "name": "community",
          "type": "address"
        },
        {
          "indexed": true,
          "internalType": "address",
          "name": "who",
          "type": "address"
        },
        {
          "indexed": false,
          "internalType": "uint256",
          "name": "amount",
          "type": "uint256"
        }
      ],
      "name": "Withdrawn",
      "type": "event"
    },
    {
      "inputs": [
        {
          "internalType": "uint256",
          "name": "amount",
          "type": "uint256"
        }
      ],
      "name": "deposit",
      "outputs": [],
      "stateMutability": "nonpayable",
      "type": "function"
    },
    {
      "inputs": [],
      "name": "getCommunity",
      "outputs": [
        {
          "internalType": "address",
          "name": "",
          "type": "address"
        }
      ],
      "stateMutability": "view",
      "type": "function"
    },
    {
      "inputs": [],
      "name": "getFactory",
      "outputs": [
        {
          "internalType": "address",
          "name": "",
          "type": "address"
        }
      ],
      "stateMutability": "view",
      "type": "function"
    },
    {
      "inputs": [],
      "name": "getTotalStakedAmount",
      "outputs": [
        {
          "internalType": "uint256",
          "name": "",
          "type": "uint256"
        }
      ],
      "stateMutability": "view",
      "type": "function"
    },
    {
      "inputs": [
        {
          "internalType": "address",
          "name": "user",
          "type": "address"
        }
      ],
      "name": "getUserDepositInfo",
      "outputs": [
        {
          "components": [
            {
              "internalType": "bool",
              "name": "hasDeposited",
              "type": "bool"
            },
            {
              "internalType": "uint256",
              "name": "amount",
              "type": "uint256"
            }
          ],
          "internalType": "struct TaxedERC20Staking.StakingInfo",
          "name": "",
          "type": "tuple"
        }
      ],
      "stateMutability": "view",
      "type": "function"
    },
    {
      "inputs": [
        {
          "internalType": "address",
          "name": "user",
          "type": "address"
        }
      ],
      "name": "getUserStakedAmount",
      "outputs": [
        {
          "internalType": "uint256",
          "name": "",
          "type": "uint256"
        }
      ],
      "stateMutability": "view",
      "type": "function"
    },
    {
      "inputs": [],
      "name": "name",
      "outputs": [
        {
          "internalType": "string",
          "name": "",
          "type": "string"
        }
      ],
      "stateMutability": "view",
      "type": "function"
    },
    {
      "inputs": [],
      "name": "stakeToken",
      "outputs": [
        {
          "internalType": "address",
          "name": "",
          "type": "address"
        }
      ],
      "stateMutability": "view",
      "type": "function"
    },
    {
      "inputs": [],
      "name": "totalStakedAmount",
      "outputs": [
        {
          "internalType": "uint256",
          "name": "",
          "type": "uint256"
        }
      ],
      "stateMutability": "view",
      "type": "function"
    },
    {
      "inputs": [
        {
          "internalType": "uint256",
          "name": "amount",
          "type": "uint256"
        }
      ],
      "name": "withdraw",
      "outputs": [],
      "stateMutability": "nonpayable",
      "type": "function"
    }
  ],
  "bytecode": "0x60e06040523480156200001157600080fd5b506040516200175838038062001758833981016040819052620000349162000144565b600160005533606090811b60805283901b6001600160601b03191660c05281516200006790600290602085019062000081565b5060601b6001600160601b03191660a05250620002c19050565b8280546200008f906200023c565b90600052602060002090601f016020900481019282620000b35760008555620000fe565b82601f10620000ce57805160ff1916838001178555620000fe565b82800160010185558215620000fe579182015b82811115620000fe578251825591602001919060010190620000e1565b506200010c92915062000110565b5090565b5b808211156200010c576000815560010162000111565b80516001600160a01b03811681146200013f57600080fd5b919050565b60008060006060848603121562000159578283fd5b620001648462000127565b602085810151919450906001600160401b038082111562000183578485fd5b818701915087601f83011262000197578485fd5b815181811115620001ac57620001ac62000292565b604051601f8201601f1916810185018381118282101715620001d257620001d262000292565b60405281815283820185018a1015620001e9578687fd5b8692505b818310156200020c5783830185015181840186015291840191620001ed565b818311156200021d57868583830101525b8096505050505050620002336040850162000127565b90509250925092565b6002810460018216806200025157607f821691505b602082108114156200028c577f4e487b7100000000000000000000000000000000000000000000000000000000600052602260045260246000fd5b50919050565b7f4e487b7100000000000000000000000000000000000000000000000000000000600052604160045260246000fd5b60805160601c60a05160601c60c05160601c6113d26200038660003960008181610222015281816102900152818161033a015281816104190152818161054a015281816105f30152818161073301528181610833015281816108bc0152818161092701528181610a2601528181610acf01528181610b390152610bb50152600081816104cb015281816106690152818161099801528181610e530152610e7e01526000818161069301528181610c4a01528181610ce30152610d9001526113d26000f3fe608060405234801561001057600080fd5b506004361061008e5760003560e01c806306fdde03146100935780632e1a7d4d146100b157806338adb6f0146100c657806351ed6a30146100db578063567e98f9146100f057806388cc58e4146100f857806394465b2114610100578063b3a7834d14610113578063b6b55f2514610133578063c51db6b214610146575b600080fd5b61009b61014e565b6040516100a8919061113f565b60405180910390f35b6100c46100bf366004611088565b6101dc565b005b6100ce610661565b6040516100a89190611293565b6100e3610667565b6040516100a891906110d4565b6100ce61068b565b6100e3610691565b6100ce61010e366004611030565b6106b5565b610126610121366004611030565b6106d4565b6040516100a8919061127a565b6100c4610141366004611088565b610714565b6100e3610b37565b6002805461015b90611336565b80601f016020809104026020016040519081016040528092919081815260200182805461018790611336565b80156101d45780601f106101a9576101008083540402835291602001916101d4565b820191906000526020600020905b8154815290600101906020018083116101b757829003601f168201915b505050505081565b6101e4610b5b565b806101ee57610656565b336000908152600160208190526040909120015461020b57610656565b60405163579dea7960e11b81526001600160a01b037f0000000000000000000000000000000000000000000000000000000000000000169063af3bd4f2906102579033906004016111a7565b600060405180830381600087803b15801561027157600080fd5b505af1158015610285573d6000803e3d6000fd5b5050505060006103fa7f00000000000000000000000000000000000000000000000000000000000000006001600160a01b031663a2a00ed630336040518363ffffffff1660e01b81526004016102dc9291906110e8565b60206040518083038186803b1580156102f457600080fd5b505afa158015610308573d6000803e3d6000fd5b505050506040513d601f19601f8201168201806040525081019061032c91906110a0565b6103f464e8d4a510006103ee7f00000000000000000000000000000000000000000000000000000000000000006001600160a01b031663a1a89dbc306040518263ffffffff1660e01b815260040161038491906110d4565b60206040518083038186803b15801561039c57600080fd5b505afa1580156103b0573d6000803e3d6000fd5b505050506040513d601f19601f820116820180604052508101906103d491906110a0565b336000908152600160208190526040909120015490610b85565b90610b98565b90610ba4565b9050801561048357604051631df36e4160e31b81526001600160a01b037f0000000000000000000000000000000000000000000000000000000000000000169063ef9b7208906104509033908590600401611126565b600060405180830381600087803b15801561046a57600080fd5b505af115801561047e573d6000803e3d6000fd5b505050505b3360009081526001602081905260408220015483106104b6575033600090815260016020819052604090912001546104b9565b50815b60006104c482610bb0565b90506104f17f00000000000000000000000000000000000000000000000000000000000000003383610eae565b336000908152600160208190526040909120015461050f9083610ba4565b33600090815260016020819052604090912001556003546105309083610ba4565b60035560405163286a276f60e21b81526001600160a01b037f0000000000000000000000000000000000000000000000000000000000000000169063bf16c3c29033906105989064e8d4a51000906103ee90869063a1a89dbc906103849030906004016110d4565b6040518363ffffffff1660e01b81526004016105b5929190611126565b600060405180830381600087803b1580156105cf57600080fd5b505af11580156105e3573d6000803e3d6000fd5b50505050336001600160a01b03167f00000000000000000000000000000000000000000000000000000000000000006001600160a01b03167fd1c19fbcd4551a5edfb66d43d2e337c04837afda3482b42bdf569a8fccdae5fb8460405161064a9190611293565b60405180910390a35050505b61065e610ec0565b50565b60035490565b7f000000000000000000000000000000000000000000000000000000000000000081565b60035481565b7f000000000000000000000000000000000000000000000000000000000000000090565b6001600160a01b03166000908152600160208190526040909120015490565b6106dc611019565b506001600160a01b03166000908152600160208181526040928390208351808501909452805460ff1615158452909101549082015290565b61071c610b5b565b604051634c7b4f4d60e11b81526001600160a01b037f000000000000000000000000000000000000000000000000000000000000000016906398f69e9a906107689030906004016110d4565b60206040518083038186803b15801561078057600080fd5b505afa158015610794573d6000803e3d6000fd5b505050506040513d601f19601f820116820180604052508101906107b89190611068565b6107dd5760405162461bcd60e51b81526004016107d490611202565b60405180910390fd5b806107e757610656565b3360009081526001602052604090205460ff1661081c573360009081526001602081905260408220805460ff19168217815501555b60405163579dea7960e11b81526001600160a01b037f0000000000000000000000000000000000000000000000000000000000000000169063af3bd4f2906108689033906004016111a7565b600060405180830381600087803b15801561088257600080fd5b505af1158015610896573d6000803e3d6000fd5b5050336000908152600160208190526040909120015415915061099390505760006109087f00000000000000000000000000000000000000000000000000000000000000006001600160a01b031663a2a00ed630336040518363ffffffff1660e01b81526004016102dc9291906110e8565b9050801561099157604051631df36e4160e31b81526001600160a01b037f0000000000000000000000000000000000000000000000000000000000000000169063ef9b72089061095e9033908590600401611126565b600060405180830381600087803b15801561097857600080fd5b505af115801561098c573d6000803e3d6000fd5b505050505b505b6109bf7f0000000000000000000000000000000000000000000000000000000000000000333084610ec7565b60006109ca82610bb0565b33600090815260016020819052604090912001549091506109eb9082610edb565b3360009081526001602081905260409091200155600354610a0c9082610edb565b60035560405163286a276f60e21b81526001600160a01b037f0000000000000000000000000000000000000000000000000000000000000000169063bf16c3c2903390610a749064e8d4a51000906103ee90869063a1a89dbc906103849030906004016110d4565b6040518363ffffffff1660e01b8152600401610a91929190611126565b600060405180830381600087803b158015610aab57600080fd5b505af1158015610abf573d6000803e3d6000fd5b50505050336001600160a01b03167f00000000000000000000000000000000000000000000000000000000000000006001600160a01b03167f8752a472e571a816aea92eec8dae9baf628e840f4929fbcc2d155e6233ff68a783604051610b269190611293565b60405180910390a35061065e610ec0565b7f000000000000000000000000000000000000000000000000000000000000000090565b60026000541415610b7e5760405162461bcd60e51b81526004016107d490611243565b6002600055565b6000610b9182846112d4565b9392505050565b6000610b9182846112b4565b6000610b9182846112f3565b6000807f00000000000000000000000000000000000000000000000000000000000000006001600160a01b0316638da5cb5b6040518163ffffffff1660e01b815260040160206040518083038186803b158015610c0c57600080fd5b505afa158015610c20573d6000803e3d6000fd5b505050506040513d601f19601f82011682018060405250810190610c44919061104c565b905060007f00000000000000000000000000000000000000000000000000000000000000006001600160a01b031663c48587526040518163ffffffff1660e01b815260040160206040518083038186803b158015610ca157600080fd5b505afa158015610cb5573d6000803e3d6000fd5b505050506040513d601f19601f82011682018060405250810190610cd9919061104c565b90506000612710857f00000000000000000000000000000000000000000000000000000000000000006001600160a01b0316630dafb1806040518163ffffffff1660e01b815260040160206040518083038186803b158015610d3a57600080fd5b505afa158015610d4e573d6000803e3d6000fd5b505050506040513d601f19601f82011682018060405250810190610d7291906110a0565b610d7c91906112d4565b610d8691906112b4565b90506000612710867f00000000000000000000000000000000000000000000000000000000000000006001600160a01b03166303d9329b6040518163ffffffff1660e01b815260040160206040518083038186803b158015610de757600080fd5b505afa158015610dfb573d6000803e3d6000fd5b505050506040513d601f19601f82011682018060405250810190610e1f91906110a0565b610e2991906112d4565b610e3391906112b4565b9050600081610e4284896112f3565b610e4c91906112f3565b9050610e797f00000000000000000000000000000000000000000000000000000000000000008685610eae565b610ea47f00000000000000000000000000000000000000000000000000000000000000008584610eae565b9695505050505050565b82610eba818484610ee7565b50505050565b6001600055565b83610ed481858585610f42565b5050505050565b6000610b91828461129c565b610f3d8363a9059cbb60e01b8484604051602401610f06929190611126565b60408051601f198184030181529190526020810180516001600160e01b03166001600160e01b031990931692909217909152610f63565b505050565b610eba846323b872dd60e01b858585604051602401610f0693929190611102565b600080836001600160a01b031683604051610f7e91906110b8565b6000604051808303816000865af19150503d8060008114610fbb576040519150601f19603f3d011682016040523d82523d6000602084013e610fc0565b606091505b509150915081610fe25760405162461bcd60e51b81526004016107d4906111d6565b805115610eba5780806020019051810190610ffd9190611068565b610eba5760405162461bcd60e51b81526004016107d490611172565b604080518082019091526000808252602082015290565b600060208284031215611041578081fd5b8135610b9181611387565b60006020828403121561105d578081fd5b8151610b9181611387565b600060208284031215611079578081fd5b81518015158114610b91578182fd5b600060208284031215611099578081fd5b5035919050565b6000602082840312156110b1578081fd5b5051919050565b600082516110ca81846020870161130a565b9190910192915050565b6001600160a01b0391909116815260200190565b6001600160a01b0392831681529116602082015260400190565b6001600160a01b039384168152919092166020820152604081019190915260600190565b6001600160a01b03929092168252602082015260400190565b600060208252825180602084015261115e81604085016020870161130a565b601f01601f19169190910160400192915050565b6020808252818101527f45524332303a206f7065726174696f6e20646964206e6f742073756363656564604082015260600190565b6040808252600490820152632aa9a2a960e11b60608201526001600160a01b0391909116602082015260800190565b602080825260129082015271115490cc8c0e8818d85b1b0819985a5b195960721b604082015260600190565b60208082526021908201527f43616e206e6f74206465706f73697420746f206120636c6f73656420706f6f6c6040820152601760f91b606082015260800190565b6020808252601f908201527f5265656e7472616e637947756172643a207265656e7472616e742063616c6c00604082015260600190565b8151151581526020918201519181019190915260400190565b90815260200190565b600082198211156112af576112af611371565b500190565b6000826112cf57634e487b7160e01b81526012600452602481fd5b500490565b60008160001904831182151516156112ee576112ee611371565b500290565b60008282101561130557611305611371565b500390565b60005b8381101561132557818101518382015260200161130d565b83811115610eba5750506000910152565b60028104600182168061134a57607f821691505b6020821081141561136b57634e487b7160e01b600052602260045260246000fd5b50919050565b634e487b7160e01b600052601160045260246000fd5b6001600160a01b038116811461065e57600080fdfea2646970667358221220f46ee12c1667ba09bc071b3017a71ad3b37d84cef1fb088d7bffa3a7727372c164736f6c63430008000033",
  "linkReferences": {},
  "deployedLinkReferences": {}
}