{
  "_format": "hh-sol-artifact-1",
  "contractName": "TreasuryFactory",
  "sourceName": "contracts/Treasury/TreasuryFactory.sol",
  "abi": [
    {
      "inputs": [
        {
          "internalType": "address",
          "name": "_communityFactory",
          "type": "address"
        }
      ],
      "stateMutability": "nonpayable",
      "type": "constructor"
    },
    {
      "anonymous": false,
      "inputs": [
        {
          "indexed": true,
          "internalType": "address",
          "name": "newReward",
          "type": "address"
        }
      ],
      "name": "AdminAddNewReward",
      "type": "event"
    },
    {
      "anonymous": false,
      "inputs": [
        {
          "indexed": true,
          "internalType": "address",
          "name": "reward",
          "type": "address"
        }
      ],
      "name": "AdminRemoveReward",
      "type": "event"
    },
    {
      "anonymous": false,
      "inputs": [
        {
          "indexed": true,
          "internalType": "address",
          "name": "community",
          "type": "address"
        },
        {
          "indexed": true,
          "internalType": "address",
          "name": "treasury",
          "type": "address"
        }
      ],
      "name": "NewTreasuryCreated",
      "type": "event"
    },
    {
      "anonymous": false,
      "inputs": [
        {
          "indexed": true,
          "internalType": "address",
          "name": "previousOwner",
          "type": "address"
        },
        {
          "indexed": true,
          "internalType": "address",
          "name": "newOwner",
          "type": "address"
        }
      ],
      "name": "OwnershipTransferred",
      "type": "event"
    },
    {
      "inputs": [
        {
          "internalType": "address",
          "name": "_newReward",
          "type": "address"
        }
      ],
      "name": "adminAddReward",
      "outputs": [],
      "stateMutability": "nonpayable",
      "type": "function"
    },
    {
      "inputs": [
        {
          "internalType": "address",
          "name": "_reward",
          "type": "address"
        }
      ],
      "name": "adminRemoveReward",
      "outputs": [],
      "stateMutability": "nonpayable",
      "type": "function"
    },
    {
      "inputs": [
        {
          "internalType": "address",
          "name": "community",
          "type": "address"
        }
      ],
      "name": "createTreasury",
      "outputs": [],
      "stateMutability": "nonpayable",
      "type": "function"
    },
    {
      "inputs": [],
      "name": "getRewardList",
      "outputs": [
        {
          "internalType": "address[]",
          "name": "",
          "type": "address[]"
        }
      ],
      "stateMutability": "view",
      "type": "function"
    },
    {
      "inputs": [],
      "name": "owner",
      "outputs": [
        {
          "internalType": "address",
          "name": "",
          "type": "address"
        }
      ],
      "stateMutability": "view",
      "type": "function"
    },
    {
      "inputs": [],
      "name": "renounceOwnership",
      "outputs": [],
      "stateMutability": "nonpayable",
      "type": "function"
    },
    {
      "inputs": [
        {
          "internalType": "address",
          "name": "newOwner",
          "type": "address"
        }
      ],
      "name": "transferOwnership",
      "outputs": [],
      "stateMutability": "nonpayable",
      "type": "function"
    },
    {
      "inputs": [
        {
          "internalType": "address",
          "name": "community",
          "type": "address"
        }
      ],
      "name": "treasuryOfCommunity",
      "outputs": [
        {
          "internalType": "address",
          "name": "",
          "type": "address"
        }
      ],
      "stateMutability": "view",
      "type": "function"
    }
  ],
  "bytecode": "0x60a060405234801561001057600080fd5b5060405161155438038061155483398101604081905261002f916100d7565b61003f61003a610083565b610087565b6001600160a01b03811661006e5760405162461bcd60e51b815260040161006590610105565b60405180910390fd5b60601b6001600160601b03191660805261012e565b3390565b600080546001600160a01b038381166001600160a01b0319831681178455604051919092169283917f8be0079c531659141344cd1fd0a4f28419497f9722a3daafe3b4186f6b6457e09190a35050565b6000602082840312156100e8578081fd5b81516001600160a01b03811681146100fe578182fd5b9392505050565b6020808252600f908201526e496e76616c6964206164647265737360881b604082015260600190565b60805160601c61140861014c60003960006101b401526114086000f3fe608060405234801561001057600080fd5b50600436106100785760003560e01c80634070f2671461007d578063715018a6146100a657806371b5ef46146100b057806372bdd749146100c55780638da5cb5b146100d8578063a416a272146100e0578063f2fde38b146100f3578063fc48aaaf14610106575b600080fd5b61009061008b3660046107ef565b610119565b60405161009d9190610847565b60405180910390f35b6100ae610137565b005b6100b861014b565b60405161009d919061085b565b6100ae6100d33660046107ef565b61015c565b6100906103c4565b6100ae6100ee3660046107ef565b6103d3565b6100ae6101013660046107ef565b61046c565b6100ae6101143660046107ef565b6104a6565b6001600160a01b039081166000908152600360205260409020541690565b61013f610518565b6101496000610557565b565b606061015760016105a7565b905090565b6001600160a01b03818116600090815260036020526040902054161561019d5760405162461bcd60e51b815260040161019490610944565b60405180910390fd5b604051633454a5b760e11b81526001600160a01b037f000000000000000000000000000000000000000000000000000000000000000016906368a94b6e906101e9908490600401610847565b60206040518083038186803b15801561020157600080fd5b505afa158015610215573d6000803e3d6000fd5b505050506040513d601f19601f820116820180604052508101906102399190610827565b6102555760405162461bcd60e51b815260040161019490610917565b336001600160a01b0316816001600160a01b0316638da5cb5b6040518163ffffffff1660e01b815260040160206040518083038186803b15801561029857600080fd5b505afa1580156102ac573d6000803e3d6000fd5b505050506040513d601f19601f820116820180604052508101906102d0919061080b565b6001600160a01b0316146102f65760405162461bcd60e51b815260040161019490610a09565b600081604051610305906107e2565b61030f9190610847565b604051809103906000f08015801561032b573d6000803e3d6000fd5b506001600160a01b0380841660008181526003602052604080822080549486166001600160a01b03199586168117909155600480546001810182559084527f8a35acfbc15ff81a39ae7d344fd709f28e8600b4aa8c65c6b64bfe7fe36bd19b018054909516811790945551939450919290917fb86b6766f23c854620059b70f3a6f5ec1c74547590e830c077cec2b1749a5c1d91a35050565b6000546001600160a01b031690565b6103db610518565b6001600160a01b0381166104015760405162461bcd60e51b8152600401610194906108a8565b61040c6001826105bb565b156104295760405162461bcd60e51b8152600401610194906109da565b6104346001826105d9565b506040516001600160a01b038216907f0430adf901495d941128005ef4e5ba1b01343db835cb5abe9be77f8cd17354ab90600090a250565b610474610518565b6001600160a01b03811661049a5760405162461bcd60e51b8152600401610194906108d1565b6104a381610557565b50565b6104ae610518565b6104b96001826105bb565b6104d55760405162461bcd60e51b81526004016101949061097b565b6104e06001826105ee565b506040516001600160a01b038216907fe80695ecf664d9ccc0eecbf10d942b4a0f7a70d71ec749cbd75a70447fb6238390600090a250565b610520610603565b6001600160a01b03166105316103c4565b6001600160a01b0316146101495760405162461bcd60e51b8152600401610194906109a5565b600080546001600160a01b038381166001600160a01b0319831681178455604051919092169283917f8be0079c531659141344cd1fd0a4f28419497f9722a3daafe3b4186f6b6457e09190a35050565b606060006105b483610607565b9392505050565b60006105d0836001600160a01b038416610663565b90505b92915050565b60006105d0836001600160a01b03841661067b565b60006105d0836001600160a01b0384166106c5565b3390565b60608160000180548060200260200160405190810160405280929190818152602001828054801561065757602002820191906000526020600020905b815481526020019060010190808311610643575b50505050509050919050565b60009081526001919091016020526040902054151590565b60006106878383610663565b6106bd575081546001818101845560008481526020808220909301849055845484825282860190935260409020919091556105d3565b5060006105d3565b600081815260018301602052604081205480156107d85760006106e9600183610a3d565b85549091506000906106fd90600190610a3d565b905081811461077e57600086600001828154811061072b57634e487b7160e01b600052603260045260246000fd5b906000526020600020015490508087600001848154811061075c57634e487b7160e01b600052603260045260246000fd5b6000918252602080832090910192909255918252600188019052604090208390555b855486908061079d57634e487b7160e01b600052603160045260246000fd5b6001900381819060005260206000200160009055905585600101600086815260200190815260200160002060009055600193505050506105d3565b60009150506105d3565b61095d80610a7683390190565b600060208284031215610800578081fd5b81356105b481610a60565b60006020828403121561081c578081fd5b81516105b481610a60565b600060208284031215610838578081fd5b815180151581146105b4578182fd5b6001600160a01b0391909116815260200190565b6020808252825182820181905260009190848201906040850190845b8181101561089c5783516001600160a01b031683529284019291840191600101610877565b50909695505050505050565b6020808252600f908201526e496e76616c6964206164647265737360881b604082015260600190565b60208082526026908201527f4f776e61626c653a206e6577206f776e657220697320746865207a65726f206160408201526564647265737360d01b606082015260800190565b60208082526013908201527210dbdb5b5d5b9a5d1e481b9bdd08195e1a5cdd606a1b604082015260600190565b6020808252601e908201527f436f6d6d756e6974792068617320637265617465642074726561737572790000604082015260600190565b60208082526010908201526f14995dd85c99081b9bdd08185919195960821b604082015260600190565b6020808252818101527f4f776e61626c653a2063616c6c6572206973206e6f7420746865206f776e6572604082015260600190565b60208082526015908201527414995dd85c99081a185cc81899595b881859191959605a1b604082015260600190565b6020808252601a908201527921b0b63632b9103737ba1031b7b6b6bab734ba3c9030b236b4b760311b604082015260600190565b600082821015610a5b57634e487b7160e01b81526011600452602481fd5b500390565b6001600160a01b03811681146104a357600080fdfe60c060405234801561001057600080fd5b5060405161095d38038061095d83398101604081905261002f91610050565b600160005533606090811b6080521b6001600160601b03191660a05261007e565b600060208284031215610061578081fd5b81516001600160a01b0381168114610077578182fd5b9392505050565b60805160601c60a05160601c6108ae6100af60003960008181605101526105090152600061030201526108ae6000f3fe608060405234801561001057600080fd5b506004361061002b5760003560e01c8063db006a7514610030575b600080fd5b61004361003e3660046106cc565b610045565b005b61004d610566565b60007f00000000000000000000000000000000000000000000000000000000000000006001600160a01b03166399efcaec6040518163ffffffff1660e01b815260040160206040518083038186803b1580156100a857600080fd5b505afa1580156100bc573d6000803e3d6000fd5b505050506040513d601f19601f820116820180604052508101906100e091906105d2565b90506000821161010b5760405162461bcd60e51b81526004016101029061077b565b60405180910390fd5b6040516370a0823160e01b815282906001600160a01b038316906370a08231906101399033906004016106fc565b60206040518083038186803b15801561015157600080fd5b505afa158015610165573d6000803e3d6000fd5b505050506040513d601f19601f8201168201806040525081019061018991906106e4565b10156101a75760405162461bcd60e51b81526004016101029061074d565b6000816001600160a01b03166318160ddd6040518163ffffffff1660e01b815260040160206040518083038186803b1580156101e257600080fd5b505afa1580156101f6573d6000803e3d6000fd5b505050506040513d601f19601f8201168201806040525081019061021a91906106e4565b6040516323b872dd60e01b81529091506001600160a01b038316906323b872dd9061024d90339030908890600401610710565b602060405180830381600087803b15801561026757600080fd5b505af115801561027b573d6000803e3d6000fd5b505050506040513d601f19601f8201168201806040525081019061029f91906106ac565b50604051630852cd8d60e31b81526001600160a01b038316906342966c68906102cc9086906004016107e9565b600060405180830381600087803b1580156102e657600080fd5b505af11580156102fa573d6000803e3d6000fd5b5050505060007f00000000000000000000000000000000000000000000000000000000000000006001600160a01b03166371b5ef466040518163ffffffff1660e01b815260040160006040518083038186803b15801561035957600080fd5b505afa15801561036d573d6000803e3d6000fd5b505050506040513d6000823e601f3d908101601f1916820160405261039591908101906105ec565b905060005b81518110156104ff5760008282815181106103c557634e487b7160e01b600052603260045260246000fd5b602002602001015190506000816001600160a01b03166370a08231306040518263ffffffff1660e01b81526004016103fd91906106fc565b60206040518083038186803b15801561041557600080fd5b505afa158015610429573d6000803e3d6000fd5b505050506040513d601f19601f8201168201806040525081019061044d91906106e4565b905080156104ea576001600160a01b03821663a9059cbb33610479886104738c87610590565b906105a3565b6040518363ffffffff1660e01b8152600401610496929190610734565b602060405180830381600087803b1580156104b057600080fd5b505af11580156104c4573d6000803e3d6000fd5b505050506040513d601f19601f820116820180604052508101906104e891906106ac565b505b505080806104f790610831565b91505061039a565b50604051849033907f00000000000000000000000000000000000000000000000000000000000000006001600160a01b0316907fd12200efa34901b99367694174c3b0d32c99585fdf37c7c26892136ddd0836d990600090a45050506105636105af565b50565b600260005414156105895760405162461bcd60e51b8152600401610102906107b2565b6002600055565b600061059c8284610812565b9392505050565b600061059c82846107f2565b6001600055565b80516001600160a01b03811681146105cd57600080fd5b919050565b6000602082840312156105e3578081fd5b61059c826105b6565b600060208083850312156105fe578182fd5b82516001600160401b0380821115610614578384fd5b818501915085601f830112610627578384fd5b81518181111561063957610639610862565b8381026040518582820101818110858211171561065857610658610862565b604052828152858101935084860182860187018a1015610676578788fd5b8795505b8386101561069f5761068b816105b6565b85526001959095019493860193860161067a565b5098975050505050505050565b6000602082840312156106bd578081fd5b8151801515811461059c578182fd5b6000602082840312156106dd578081fd5b5035919050565b6000602082840312156106f5578081fd5b5051919050565b6001600160a01b0391909116815260200190565b6001600160a01b039384168152919092166020820152604081019190915260600190565b6001600160a01b03929092168252602082015260400190565b602080825260149082015273496e73756666696369656e742062616c616e636560601b604082015260600190565b6020808252601e908201527f4d7573742075736520736f6d652063746f6b656e20746f2072656465656d0000604082015260600190565b6020808252601f908201527f5265656e7472616e637947756172643a207265656e7472616e742063616c6c00604082015260600190565b90815260200190565b60008261080d57634e487b7160e01b81526012600452602481fd5b500490565b600081600019048311821515161561082c5761082c61084c565b500290565b60006000198214156108455761084561084c565b5060010190565b634e487b7160e01b600052601160045260246000fd5b634e487b7160e01b600052604160045260246000fdfea264697066735822122036c63f4a2ad0fe49f6f24d1136bc19c3eaf21fa9a0d95c66e2bd575a3ddec42064736f6c63430008000033a264697066735822122082d38c5dda4a194ee077dd164f17339e0848cda4ed8ac3bb1a3fd265e79e86d164736f6c63430008000033",
  "linkReferences": {},
  "deployedLinkReferences": {}
}