{
  "_format": "hh-sol-artifact-1",
  "contractName": "TreasuryFactory",
  "sourceName": "contracts/Treasury/TreasuryFactory.sol",
  "abi": [
    {
      "inputs": [
        {
          "internalType": "address",
          "name": "_communityFactory",
          "type": "address"
        }
      ],
      "stateMutability": "nonpayable",
      "type": "constructor"
    },
    {
      "anonymous": false,
      "inputs": [
        {
          "indexed": true,
          "internalType": "address",
          "name": "newReward",
          "type": "address"
        }
      ],
      "name": "AdminAddNewReward",
      "type": "event"
    },
    {
      "anonymous": false,
      "inputs": [
        {
          "indexed": true,
          "internalType": "address",
          "name": "reward",
          "type": "address"
        }
      ],
      "name": "AdminRemoveReward",
      "type": "event"
    },
    {
      "anonymous": false,
      "inputs": [
        {
          "indexed": true,
          "internalType": "address",
          "name": "community",
          "type": "address"
        },
        {
          "indexed": true,
          "internalType": "address",
          "name": "treasury",
          "type": "address"
        }
      ],
      "name": "NewTreasuryCreated",
      "type": "event"
    },
    {
      "anonymous": false,
      "inputs": [
        {
          "indexed": true,
          "internalType": "address",
          "name": "previousOwner",
          "type": "address"
        },
        {
          "indexed": true,
          "internalType": "address",
          "name": "newOwner",
          "type": "address"
        }
      ],
      "name": "OwnershipTransferred",
      "type": "event"
    },
    {
      "inputs": [
        {
          "internalType": "address",
          "name": "_newReward",
          "type": "address"
        }
      ],
      "name": "adminAddReward",
      "outputs": [],
      "stateMutability": "nonpayable",
      "type": "function"
    },
    {
      "inputs": [
        {
          "internalType": "address",
          "name": "_reward",
          "type": "address"
        }
      ],
      "name": "adminRemoveReward",
      "outputs": [],
      "stateMutability": "nonpayable",
      "type": "function"
    },
    {
      "inputs": [
        {
          "internalType": "address",
          "name": "community",
          "type": "address"
        }
      ],
      "name": "createTreasury",
      "outputs": [],
      "stateMutability": "nonpayable",
      "type": "function"
    },
    {
      "inputs": [],
      "name": "getRewardList",
      "outputs": [
        {
          "internalType": "address[]",
          "name": "",
          "type": "address[]"
        }
      ],
      "stateMutability": "view",
      "type": "function"
    },
    {
      "inputs": [],
      "name": "owner",
      "outputs": [
        {
          "internalType": "address",
          "name": "",
          "type": "address"
        }
      ],
      "stateMutability": "view",
      "type": "function"
    },
    {
      "inputs": [],
      "name": "renounceOwnership",
      "outputs": [],
      "stateMutability": "nonpayable",
      "type": "function"
    },
    {
      "inputs": [
        {
          "internalType": "address",
          "name": "newOwner",
          "type": "address"
        }
      ],
      "name": "transferOwnership",
      "outputs": [],
      "stateMutability": "nonpayable",
      "type": "function"
    },
    {
      "inputs": [
        {
          "internalType": "address",
          "name": "community",
          "type": "address"
        }
      ],
      "name": "treasuryOfCommunity",
      "outputs": [
        {
          "internalType": "address",
          "name": "",
          "type": "address"
        }
      ],
      "stateMutability": "view",
      "type": "function"
    }
  ],
  "bytecode": "0x60a06040523480156200001157600080fd5b50604051620026ca380380620026ca8339818101604052810190620000379190620001eb565b620000576200004b6200010860201b60201c565b6200011060201b60201c565b600073ffffffffffffffffffffffffffffffffffffffff168173ffffffffffffffffffffffffffffffffffffffff161415620000ca576040517f08c379a0000000000000000000000000000000000000000000000000000000008152600401620000c19062000259565b60405180910390fd5b8073ffffffffffffffffffffffffffffffffffffffff1660808173ffffffffffffffffffffffffffffffffffffffff1660601b8152505050620002da565b600033905090565b60008060009054906101000a900473ffffffffffffffffffffffffffffffffffffffff169050816000806101000a81548173ffffffffffffffffffffffffffffffffffffffff021916908373ffffffffffffffffffffffffffffffffffffffff1602179055508173ffffffffffffffffffffffffffffffffffffffff168173ffffffffffffffffffffffffffffffffffffffff167f8be0079c531659141344cd1fd0a4f28419497f9722a3daafe3b4186f6b6457e060405160405180910390a35050565b600081519050620001e581620002c0565b92915050565b600060208284031215620001fe57600080fd5b60006200020e84828501620001d4565b91505092915050565b600062000226600f836200027b565b91507f496e76616c6964206164647265737300000000000000000000000000000000006000830152602082019050919050565b60006020820190508181036000830152620002748162000217565b9050919050565b600082825260208201905092915050565b60006200029982620002a0565b9050919050565b600073ffffffffffffffffffffffffffffffffffffffff82169050919050565b620002cb816200028c565b8114620002d757600080fd5b50565b60805160601c6123d1620002f9600039600061037f01526123d16000f3fe60806040523480156200001157600080fd5b5060043610620000945760003560e01c80638da5cb5b11620000635780638da5cb5b146200011d578063a416a272146200013f578063f2fde38b146200015f578063fc48aaaf146200017f5762000094565b80634070f2671462000099578063715018a614620000cf57806371b5ef4614620000db57806372bdd74914620000fd575b600080fd5b620000b76004803603810190620000b1919062000f4a565b6200019f565b604051620000c69190620012aa565b60405180910390f35b620000d962000208565b005b620000e562000299565b604051620000f49190620012c7565b60405180910390f35b6200011b600480360381019062000115919062000f4a565b620002ac565b005b62000127620006dc565b604051620001369190620012aa565b60405180910390f35b6200015d600480360381019062000157919062000f4a565b62000705565b005b6200017d600480360381019062000177919062000f4a565b620008b1565b005b6200019d600480360381019062000197919062000f4a565b620009b5565b005b6000600360008373ffffffffffffffffffffffffffffffffffffffff1673ffffffffffffffffffffffffffffffffffffffff16815260200190815260200160002060009054906101000a900473ffffffffffffffffffffffffffffffffffffffff169050919050565b6200021262000aed565b73ffffffffffffffffffffffffffffffffffffffff1662000232620006dc565b73ffffffffffffffffffffffffffffffffffffffff16146200028b576040517f08c379a0000000000000000000000000000000000000000000000000000000008152600401620002829062001395565b60405180910390fd5b62000297600062000af5565b565b6060620002a7600162000bb9565b905090565b600073ffffffffffffffffffffffffffffffffffffffff16600360008373ffffffffffffffffffffffffffffffffffffffff1673ffffffffffffffffffffffffffffffffffffffff16815260200190815260200160002060009054906101000a900473ffffffffffffffffffffffffffffffffffffffff1673ffffffffffffffffffffffffffffffffffffffff16146200037d576040517f08c379a0000000000000000000000000000000000000000000000000000000008152600401620003749062001351565b60405180910390fd5b7f000000000000000000000000000000000000000000000000000000000000000073ffffffffffffffffffffffffffffffffffffffff166368a94b6e826040518263ffffffff1660e01b8152600401620003d89190620012aa565b60206040518083038186803b158015620003f157600080fd5b505afa15801562000406573d6000803e3d6000fd5b505050506040513d601f19601f820116820180604052508101906200042c919062000fa2565b6200046e576040517f08c379a000000000000000000000000000000000000000000000000000000000815260040162000465906200132f565b60405180910390fd5b3373ffffffffffffffffffffffffffffffffffffffff168173ffffffffffffffffffffffffffffffffffffffff16638da5cb5b6040518163ffffffff1660e01b815260040160206040518083038186803b158015620004cc57600080fd5b505afa158015620004e1573d6000803e3d6000fd5b505050506040513d601f19601f8201168201806040525081019062000507919062000f76565b73ffffffffffffffffffffffffffffffffffffffff161462000560576040517f08c379a00000000000000000000000000000000000000000000000000000000081526004016200055790620013d9565b60405180910390fd5b600081604051620005719062000ef7565b6200057d9190620012aa565b604051809103906000f0801580156200059a573d6000803e3d6000fd5b50905080600360008473ffffffffffffffffffffffffffffffffffffffff1673ffffffffffffffffffffffffffffffffffffffff16815260200190815260200160002060006101000a81548173ffffffffffffffffffffffffffffffffffffffff021916908373ffffffffffffffffffffffffffffffffffffffff1602179055506004819080600181540180825580915050600190039060005260206000200160009091909190916101000a81548173ffffffffffffffffffffffffffffffffffffffff021916908373ffffffffffffffffffffffffffffffffffffffff1602179055508073ffffffffffffffffffffffffffffffffffffffff168273ffffffffffffffffffffffffffffffffffffffff167fb86b6766f23c854620059b70f3a6f5ec1c74547590e830c077cec2b1749a5c1d60405160405180910390a35050565b60008060009054906101000a900473ffffffffffffffffffffffffffffffffffffffff16905090565b6200070f62000aed565b73ffffffffffffffffffffffffffffffffffffffff166200072f620006dc565b73ffffffffffffffffffffffffffffffffffffffff161462000788576040517f08c379a00000000000000000000000000000000000000000000000000000000081526004016200077f9062001395565b60405180910390fd5b600073ffffffffffffffffffffffffffffffffffffffff168173ffffffffffffffffffffffffffffffffffffffff161415620007fb576040517f08c379a0000000000000000000000000000000000000000000000000000000008152600401620007f290620012eb565b60405180910390fd5b6200081181600162000bdc90919063ffffffff16565b1562000854576040517f08c379a00000000000000000000000000000000000000000000000000000000081526004016200084b90620013b7565b60405180910390fd5b6200086a81600162000c0e90919063ffffffff16565b508073ffffffffffffffffffffffffffffffffffffffff167f0430adf901495d941128005ef4e5ba1b01343db835cb5abe9be77f8cd17354ab60405160405180910390a250565b620008bb62000aed565b73ffffffffffffffffffffffffffffffffffffffff16620008db620006dc565b73ffffffffffffffffffffffffffffffffffffffff161462000934576040517f08c379a00000000000000000000000000000000000000000000000000000000081526004016200092b9062001395565b60405180910390fd5b600073ffffffffffffffffffffffffffffffffffffffff168173ffffffffffffffffffffffffffffffffffffffff161415620009a7576040517f08c379a00000000000000000000000000000000000000000000000000000000081526004016200099e906200130d565b60405180910390fd5b620009b28162000af5565b50565b620009bf62000aed565b73ffffffffffffffffffffffffffffffffffffffff16620009df620006dc565b73ffffffffffffffffffffffffffffffffffffffff161462000a38576040517f08c379a000000000000000000000000000000000000000000000000000000000815260040162000a2f9062001395565b60405180910390fd5b62000a4e81600162000bdc90919063ffffffff16565b62000a90576040517f08c379a000000000000000000000000000000000000000000000000000000000815260040162000a879062001373565b60405180910390fd5b62000aa681600162000c4090919063ffffffff16565b508073ffffffffffffffffffffffffffffffffffffffff167fe80695ecf664d9ccc0eecbf10d942b4a0f7a70d71ec749cbd75a70447fb6238360405160405180910390a250565b600033905090565b60008060009054906101000a900473ffffffffffffffffffffffffffffffffffffffff169050816000806101000a81548173ffffffffffffffffffffffffffffffffffffffff021916908373ffffffffffffffffffffffffffffffffffffffff1602179055508173ffffffffffffffffffffffffffffffffffffffff168173ffffffffffffffffffffffffffffffffffffffff167f8be0079c531659141344cd1fd0a4f28419497f9722a3daafe3b4186f6b6457e060405160405180910390a35050565b6060600062000bcb8360000162000c72565b905060608190508092505050919050565b600062000c06836000018373ffffffffffffffffffffffffffffffffffffffff1660001b62000cd0565b905092915050565b600062000c38836000018373ffffffffffffffffffffffffffffffffffffffff1660001b62000cf3565b905092915050565b600062000c6a836000018373ffffffffffffffffffffffffffffffffffffffff1660001b62000d67565b905092915050565b60608160000180548060200260200160405190810160405280929190818152602001828054801562000cc457602002820191906000526020600020905b81548152602001906001019080831162000caf575b50505050509050919050565b600080836001016000848152602001908152602001600020541415905092915050565b600062000d01838362000cd0565b62000d5c57826000018290806001815401808255809150506001900390600052602060002001600090919091909150558260000180549050836001016000848152602001908152602001600020819055506001905062000d61565b600090505b92915050565b6000808360010160008481526020019081526020016000205490506000811462000eeb57600060018262000d9c919062001445565b905060006001866000018054905062000db6919062001445565b905081811462000e7457600086600001828154811062000dff577f4e487b7100000000000000000000000000000000000000000000000000000000600052603260045260246000fd5b906000526020600020015490508087600001848154811062000e4a577f4e487b7100000000000000000000000000000000000000000000000000000000600052603260045260246000fd5b90600052602060002001819055508387600101600083815260200190815260200160002081905550505b8560000180548062000eaf577f4e487b7100000000000000000000000000000000000000000000000000000000600052603160045260246000fd5b60019003818190600052602060002001600090559055856001016000868152602001908152602001600020600090556001935050505062000ef1565b60009150505b92915050565b610e6e806200152e83390190565b60008135905062000f1681620014f9565b92915050565b60008151905062000f2d81620014f9565b92915050565b60008151905062000f448162001513565b92915050565b60006020828403121562000f5d57600080fd5b600062000f6d8482850162000f05565b91505092915050565b60006020828403121562000f8957600080fd5b600062000f998482850162000f1c565b91505092915050565b60006020828403121562000fb557600080fd5b600062000fc58482850162000f33565b91505092915050565b600062000fdc838362000fe8565b60208301905092915050565b62000ff38162001480565b82525050565b620010048162001480565b82525050565b600062001017826200140b565b62001023818562001423565b93506200103083620013fb565b8060005b83811015620010675781516200104b888262000fce565b9750620010588362001416565b92505060018101905062001034565b5085935050505092915050565b600062001083600f8362001434565b91507f496e76616c6964206164647265737300000000000000000000000000000000006000830152602082019050919050565b6000620010c560268362001434565b91507f4f776e61626c653a206e6577206f776e657220697320746865207a65726f206160008301527f64647265737300000000000000000000000000000000000000000000000000006020830152604082019050919050565b60006200112d60138362001434565b91507f436f6d6d756e697479206e6f74206578697374000000000000000000000000006000830152602082019050919050565b60006200116f601e8362001434565b91507f436f6d6d756e69747920686173206372656174656420747265617375727900006000830152602082019050919050565b6000620011b160108362001434565b91507f526577617264206e6f74206164646564000000000000000000000000000000006000830152602082019050919050565b6000620011f360208362001434565b91507f4f776e61626c653a2063616c6c6572206973206e6f7420746865206f776e65726000830152602082019050919050565b60006200123560158362001434565b91507f52657761726420686173206265656e20616464656400000000000000000000006000830152602082019050919050565b600062001277601a8362001434565b91507f43616c6c6572206e6f7420636f6d6d756e6974792061646d696e0000000000006000830152602082019050919050565b6000602082019050620012c1600083018462000ff9565b92915050565b60006020820190508181036000830152620012e381846200100a565b905092915050565b60006020820190508181036000830152620013068162001074565b9050919050565b600060208201905081810360008301526200132881620010b6565b9050919050565b600060208201905081810360008301526200134a816200111e565b9050919050565b600060208201905081810360008301526200136c8162001160565b9050919050565b600060208201905081810360008301526200138e81620011a2565b9050919050565b60006020820190508181036000830152620013b081620011e4565b9050919050565b60006020820190508181036000830152620013d28162001226565b9050919050565b60006020820190508181036000830152620013f48162001268565b9050919050565b6000819050602082019050919050565b600081519050919050565b6000602082019050919050565b600082825260208201905092915050565b600082825260208201905092915050565b60006200145282620014c0565b91506200145f83620014c0565b925082821015620014755762001474620014ca565b5b828203905092915050565b60006200148d82620014a0565b9050919050565b60008115159050919050565b600073ffffffffffffffffffffffffffffffffffffffff82169050919050565b6000819050919050565b7f4e487b7100000000000000000000000000000000000000000000000000000000600052601160045260246000fd5b620015048162001480565b81146200151057600080fd5b50565b6200151e8162001494565b81146200152a57600080fd5b5056fe60c060405234801561001057600080fd5b50604051610e6e380380610e6e833981810160405281019061003291906100c3565b60016000819055503373ffffffffffffffffffffffffffffffffffffffff1660808173ffffffffffffffffffffffffffffffffffffffff1660601b815250508073ffffffffffffffffffffffffffffffffffffffff1660a08173ffffffffffffffffffffffffffffffffffffffff1660601b8152505050610135565b6000815190506100bd8161011e565b92915050565b6000602082840312156100d557600080fd5b60006100e3848285016100ae565b91505092915050565b60006100f7826100fe565b9050919050565b600073ffffffffffffffffffffffffffffffffffffffff82169050919050565b610127816100ec565b811461013257600080fd5b50565b60805160601c60a05160601c610d0861016660003960008181609e0152610638015260006103cb0152610d086000f3fe608060405234801561001057600080fd5b506004361061002b5760003560e01c8063db006a7514610030575b600080fd5b61004a60048036038101906100459190610850565b61004c565b005b60026000541415610092576040517f08c379a000000000000000000000000000000000000000000000000000000000815260040161008990610a3b565b60405180910390fd5b600260008190555060007f000000000000000000000000000000000000000000000000000000000000000073ffffffffffffffffffffffffffffffffffffffff166399efcaec6040518163ffffffff1660e01b815260040160206040518083038186803b15801561010257600080fd5b505afa158015610116573d6000803e3d6000fd5b505050506040513d601f19601f8201168201806040525081019061013a91906107bd565b90506000821161017f576040517f08c379a000000000000000000000000000000000000000000000000000000000815260040161017690610a1b565b60405180910390fd5b818173ffffffffffffffffffffffffffffffffffffffff166370a08231336040518263ffffffff1660e01b81526004016101b99190610980565b60206040518083038186803b1580156101d157600080fd5b505afa1580156101e5573d6000803e3d6000fd5b505050506040513d601f19601f820116820180604052508101906102099190610879565b101561024a576040517f08c379a0000000000000000000000000000000000000000000000000000000008152600401610241906109fb565b60405180910390fd5b60008173ffffffffffffffffffffffffffffffffffffffff166318160ddd6040518163ffffffff1660e01b815260040160206040518083038186803b15801561029257600080fd5b505afa1580156102a6573d6000803e3d6000fd5b505050506040513d601f19601f820116820180604052508101906102ca9190610879565b90508173ffffffffffffffffffffffffffffffffffffffff166323b872dd3330866040518463ffffffff1660e01b81526004016103099392919061099b565b602060405180830381600087803b15801561032357600080fd5b505af1158015610337573d6000803e3d6000fd5b505050506040513d601f19601f8201168201806040525081019061035b9190610827565b508173ffffffffffffffffffffffffffffffffffffffff166342966c68846040518263ffffffff1660e01b81526004016103959190610a5b565b600060405180830381600087803b1580156103af57600080fd5b505af11580156103c3573d6000803e3d6000fd5b5050505060007f000000000000000000000000000000000000000000000000000000000000000073ffffffffffffffffffffffffffffffffffffffff166371b5ef466040518163ffffffff1660e01b815260040160006040518083038186803b15801561042f57600080fd5b505afa158015610443573d6000803e3d6000fd5b505050506040513d6000823e3d601f19601f8201168201806040525081019061046c91906107e6565b905060005b815181101561061d5760008282815181106104b5577f4e487b7100000000000000000000000000000000000000000000000000000000600052603260045260246000fd5b6020026020010151905060008173ffffffffffffffffffffffffffffffffffffffff166370a08231306040518263ffffffff1660e01b81526004016104fa9190610980565b60206040518083038186803b15801561051257600080fd5b505afa158015610526573d6000803e3d6000fd5b505050506040513d601f19601f8201168201806040525081019061054a9190610879565b90506000811115610608578173ffffffffffffffffffffffffffffffffffffffff1663a9059cbb3361059788610589868d6106a790919063ffffffff16565b6106bd90919063ffffffff16565b6040518363ffffffff1660e01b81526004016105b49291906109d2565b602060405180830381600087803b1580156105ce57600080fd5b505af11580156105e2573d6000803e3d6000fd5b505050506040513d601f19601f820116820180604052508101906106069190610827565b505b5050808061061590610bb7565b915050610471565b50833373ffffffffffffffffffffffffffffffffffffffff167f000000000000000000000000000000000000000000000000000000000000000073ffffffffffffffffffffffffffffffffffffffff167fd12200efa34901b99367694174c3b0d32c99585fdf37c7c26892136ddd0836d960405160405180910390a4505050600160008190555050565b600081836106b59190610b15565b905092915050565b600081836106cb9190610ae4565b905092915050565b60006106e66106e184610aa7565b610a76565b9050808382526020820190508285602086028201111561070557600080fd5b60005b85811015610735578161071b888261073f565b845260208401935060208301925050600181019050610708565b5050509392505050565b60008151905061074e81610c8d565b92915050565b600082601f83011261076557600080fd5b81516107758482602086016106d3565b91505092915050565b60008151905061078d81610ca4565b92915050565b6000813590506107a281610cbb565b92915050565b6000815190506107b781610cbb565b92915050565b6000602082840312156107cf57600080fd5b60006107dd8482850161073f565b91505092915050565b6000602082840312156107f857600080fd5b600082015167ffffffffffffffff81111561081257600080fd5b61081e84828501610754565b91505092915050565b60006020828403121561083957600080fd5b60006108478482850161077e565b91505092915050565b60006020828403121561086257600080fd5b600061087084828501610793565b91505092915050565b60006020828403121561088b57600080fd5b6000610899848285016107a8565b91505092915050565b6108ab81610b6f565b82525050565b60006108be601483610ad3565b91507f496e73756666696369656e742062616c616e63650000000000000000000000006000830152602082019050919050565b60006108fe601e83610ad3565b91507f4d7573742075736520736f6d652063746f6b656e20746f2072656465656d00006000830152602082019050919050565b600061093e601f83610ad3565b91507f5265656e7472616e637947756172643a207265656e7472616e742063616c6c006000830152602082019050919050565b61097a81610bad565b82525050565b600060208201905061099560008301846108a2565b92915050565b60006060820190506109b060008301866108a2565b6109bd60208301856108a2565b6109ca6040830184610971565b949350505050565b60006040820190506109e760008301856108a2565b6109f46020830184610971565b9392505050565b60006020820190508181036000830152610a14816108b1565b9050919050565b60006020820190508181036000830152610a34816108f1565b9050919050565b60006020820190508181036000830152610a5481610931565b9050919050565b6000602082019050610a706000830184610971565b92915050565b6000604051905081810181811067ffffffffffffffff82111715610a9d57610a9c610c5e565b5b8060405250919050565b600067ffffffffffffffff821115610ac257610ac1610c5e565b5b602082029050602081019050919050565b600082825260208201905092915050565b6000610aef82610bad565b9150610afa83610bad565b925082610b0a57610b09610c2f565b5b828204905092915050565b6000610b2082610bad565b9150610b2b83610bad565b9250817fffffffffffffffffffffffffffffffffffffffffffffffffffffffffffffffff0483118215151615610b6457610b63610c00565b5b828202905092915050565b6000610b7a82610b8d565b9050919050565b60008115159050919050565b600073ffffffffffffffffffffffffffffffffffffffff82169050919050565b6000819050919050565b6000610bc282610bad565b91507fffffffffffffffffffffffffffffffffffffffffffffffffffffffffffffffff821415610bf557610bf4610c00565b5b600182019050919050565b7f4e487b7100000000000000000000000000000000000000000000000000000000600052601160045260246000fd5b7f4e487b7100000000000000000000000000000000000000000000000000000000600052601260045260246000fd5b7f4e487b7100000000000000000000000000000000000000000000000000000000600052604160045260246000fd5b610c9681610b6f565b8114610ca157600080fd5b50565b610cad81610b81565b8114610cb857600080fd5b50565b610cc481610bad565b8114610ccf57600080fd5b5056fea2646970667358221220af3e9932a5f40eb5b19fee75832a9e2b316b8119b17a224f7bd2ae56d97c1e3564736f6c63430008000033a2646970667358221220c3ec7f46207f2a734f2a552b36df04d816161b6f3c560ac0758b12858062c51d64736f6c63430008000033",
  "linkReferences": {},
  "deployedLinkReferences": {}
}