{
  "_format": "hh-sol-artifact-1",
  "contractName": "ETHStaking",
  "sourceName": "contracts/dapps/eth-staking/ETHStaking.sol",
  "abi": [
    {
      "inputs": [
        {
          "internalType": "address",
          "name": "_community",
          "type": "address"
        },
        {
          "internalType": "string",
          "name": "_name",
          "type": "string"
        }
      ],
      "stateMutability": "nonpayable",
      "type": "constructor"
    },
    {
      "anonymous": false,
      "inputs": [
        {
          "indexed": true,
          "internalType": "address",
          "name": "community",
          "type": "address"
        },
        {
          "indexed": true,
          "internalType": "address",
          "name": "who",
          "type": "address"
        },
        {
          "indexed": false,
          "internalType": "uint256",
          "name": "amount",
          "type": "uint256"
        }
      ],
      "name": "Deposited",
      "type": "event"
    },
    {
      "anonymous": false,
      "inputs": [
        {
          "indexed": true,
          "internalType": "address",
          "name": "community",
          "type": "address"
        },
        {
          "indexed": true,
          "internalType": "address",
          "name": "who",
          "type": "address"
        },
        {
          "indexed": false,
          "internalType": "uint256",
          "name": "amount",
          "type": "uint256"
        }
      ],
      "name": "Withdrawn",
      "type": "event"
    },
    {
      "inputs": [
        {
          "internalType": "uint256",
          "name": "amount",
          "type": "uint256"
        }
      ],
      "name": "deposit",
      "outputs": [],
      "stateMutability": "payable",
      "type": "function"
    },
    {
      "inputs": [],
      "name": "getCommunity",
      "outputs": [
        {
          "internalType": "address",
          "name": "",
          "type": "address"
        }
      ],
      "stateMutability": "view",
      "type": "function"
    },
    {
      "inputs": [],
      "name": "getFactory",
      "outputs": [
        {
          "internalType": "address",
          "name": "",
          "type": "address"
        }
      ],
      "stateMutability": "view",
      "type": "function"
    },
    {
      "inputs": [],
      "name": "getTotalStakedAmount",
      "outputs": [
        {
          "internalType": "uint256",
          "name": "",
          "type": "uint256"
        }
      ],
      "stateMutability": "view",
      "type": "function"
    },
    {
      "inputs": [
        {
          "internalType": "address",
          "name": "user",
          "type": "address"
        }
      ],
      "name": "getUserDepositInfo",
      "outputs": [
        {
          "components": [
            {
              "internalType": "bool",
              "name": "hasDeposited",
              "type": "bool"
            },
            {
              "internalType": "uint256",
              "name": "amount",
              "type": "uint256"
            }
          ],
          "internalType": "struct ETHStaking.StakingInfo",
          "name": "",
          "type": "tuple"
        }
      ],
      "stateMutability": "view",
      "type": "function"
    },
    {
      "inputs": [
        {
          "internalType": "address",
          "name": "user",
          "type": "address"
        }
      ],
      "name": "getUserStakedAmount",
      "outputs": [
        {
          "internalType": "uint256",
          "name": "",
          "type": "uint256"
        }
      ],
      "stateMutability": "view",
      "type": "function"
    },
    {
      "inputs": [],
      "name": "name",
      "outputs": [
        {
          "internalType": "string",
          "name": "",
          "type": "string"
        }
      ],
      "stateMutability": "view",
      "type": "function"
    },
    {
      "inputs": [],
      "name": "totalStakedAmount",
      "outputs": [
        {
          "internalType": "uint256",
          "name": "",
          "type": "uint256"
        }
      ],
      "stateMutability": "view",
      "type": "function"
    },
    {
      "inputs": [
        {
          "internalType": "uint256",
          "name": "amount",
          "type": "uint256"
        }
      ],
      "name": "withdraw",
      "outputs": [],
      "stateMutability": "payable",
      "type": "function"
    },
    {
      "stateMutability": "payable",
      "type": "receive"
    }
  ],
  "bytecode": "0x60c06040523480156200001157600080fd5b506040516200141b3803806200141b833981016040819052620000349162000116565b600160005533606090811b60805282901b6001600160601b03191660a05280516200006790600290602084019062000070565b5050506200028d565b8280546200007e9062000208565b90600052602060002090601f016020900481019282620000a25760008555620000ed565b82601f10620000bd57805160ff1916838001178555620000ed565b82800160010185558215620000ed579182015b82811115620000ed578251825591602001919060010190620000d0565b50620000fb929150620000ff565b5090565b5b80821115620000fb576000815560010162000100565b6000806040838503121562000129578182fd5b82516001600160a01b038116811462000140578283fd5b602084810151919350906001600160401b03808211156200015f578384fd5b818601915086601f83011262000173578384fd5b8151818111156200018857620001886200025e565b604051601f8201601f1916810185018381118282101715620001ae57620001ae6200025e565b6040528181528382018501891015620001c5578586fd5b8592505b81831015620001e85783830185015181840186015291840191620001c9565b81831115620001f957858583830101525b80955050505050509250929050565b6002810460018216806200021d57607f821691505b6020821081141562000258577f4e487b7100000000000000000000000000000000000000000000000000000000600052602260045260246000fd5b50919050565b7f4e487b7100000000000000000000000000000000000000000000000000000000600052604160045260246000fd5b60805160601c60a05160601c611107620003146000396000818161028b015281816103da0152818161044a015281816104f4015281816105d301528181610712015281816107bb015281816108d9015281816109e301528181610a8301528181610aee01528181610bb301528181610c5c0152610cc50152600061083901526111076000f3fe60806040526004361061007a5760003560e01c806306fdde03146100865780632e1a7d4d146100b157806338adb6f0146100c6578063567e98f9146100e857806388cc58e4146100fd57806394465b211461011f578063b3a7834d1461013f578063b6b55f251461016c578063c51db6b21461017f57610081565b3661008157005b600080fd5b34801561009257600080fd5b5061009b610194565b6040516100a89190610e4f565b60405180910390f35b6100c46100bf366004610dbe565b610222565b005b3480156100d257600080fd5b506100db61082b565b6040516100a89190610ff4565b3480156100f457600080fd5b506100db610831565b34801561010957600080fd5b50610112610837565b6040516100a89190610e08565b34801561012b57600080fd5b506100db61013a366004610d66565b61085b565b34801561014b57600080fd5b5061015f61015a366004610d66565b61087a565b6040516100a89190610fdb565b6100c461017a366004610dbe565b6108ba565b34801561018b57600080fd5b50610112610cc3565b600280546101a19061106b565b80601f01602080910402602001604051908101604052809291908181526020018280546101cd9061106b565b801561021a5780601f106101ef5761010080835404028352916020019161021a565b820191906000526020600020905b8154815290600101906020018083116101fd57829003601f168201915b505050505081565b61022a610ce7565b8061023457610820565b336000908152600160208190526040909120015461025157610820565b33600090815260016020819052604082200154821061028457503360009081526001602081905260409091200154610287565b50805b60007f00000000000000000000000000000000000000000000000000000000000000006001600160a01b031663d864e7406040518163ffffffff1660e01b815260040160206040518083038186803b1580156102e257600080fd5b505afa1580156102f6573d6000803e3d6000fd5b505050506040513d601f19601f8201168201806040525081019061031a9190610d82565b90506000816001600160a01b031663ed1eee686040518163ffffffff1660e01b815260040161034890610ea2565b60206040518083038186803b15801561036057600080fd5b505afa158015610374573d6000803e3d6000fd5b505050506040513d601f19601f820116820180604052508101906103989190610dd6565b9050808310156103c35760405162461bcd60e51b81526004016103ba90610f53565b60405180910390fd5b60405163579dea7960e11b81526001600160a01b037f0000000000000000000000000000000000000000000000000000000000000000169063af3bd4f2908390610411903390600401610eba565b6000604051808303818588803b15801561042a57600080fd5b505af115801561043e573d6000803e3d6000fd5b505050505060006105b47f00000000000000000000000000000000000000000000000000000000000000006001600160a01b031663a2a00ed630336040518363ffffffff1660e01b8152600401610496929190610e1c565b60206040518083038186803b1580156104ae57600080fd5b505afa1580156104c2573d6000803e3d6000fd5b505050506040513d601f19601f820116820180604052508101906104e69190610dd6565b6105ae64e8d4a510006105a87f00000000000000000000000000000000000000000000000000000000000000006001600160a01b031663a1a89dbc306040518263ffffffff1660e01b815260040161053e9190610e08565b60206040518083038186803b15801561055657600080fd5b505afa15801561056a573d6000803e3d6000fd5b505050506040513d601f19601f8201168201806040525081019061058e9190610dd6565b336000908152600160208190526040909120015490610d11565b90610d24565b90610d30565b9050801561063d57604051631df36e4160e31b81526001600160a01b037f0000000000000000000000000000000000000000000000000000000000000000169063ef9b72089061060a9033908590600401610e36565b600060405180830381600087803b15801561062457600080fd5b505af1158015610638573d6000803e3d6000fd5b505050505b60003361064a8487611054565b60405161065690610e05565b60006040518083038185875af1925050503d8060008114610693576040519150601f19603f3d011682016040523d82523d6000602084013e610698565b606091505b50509050806106b95760405162461bcd60e51b81526004016103ba90610fb4565b33600090815260016020819052604090912001546106d79086610d30565b33600090815260016020819052604090912001556003546106f89086610d30565b60035560405163286a276f60e21b81526001600160a01b037f0000000000000000000000000000000000000000000000000000000000000000169063bf16c3c29033906107609064e8d4a51000906105a890869063a1a89dbc9061053e903090600401610e08565b6040518363ffffffff1660e01b815260040161077d929190610e36565b600060405180830381600087803b15801561079757600080fd5b505af11580156107ab573d6000803e3d6000fd5b50505050336001600160a01b03167f00000000000000000000000000000000000000000000000000000000000000006001600160a01b03167fd1c19fbcd4551a5edfb66d43d2e337c04837afda3482b42bdf569a8fccdae5fb876040516108129190610ff4565b60405180910390a350505050505b610828610d3c565b50565b60035490565b60035481565b7f000000000000000000000000000000000000000000000000000000000000000090565b6001600160a01b03166000908152600160208190526040909120015490565b610882610d4f565b506001600160a01b03166000908152600160208181526040928390208351808501909452805460ff1615158452909101549082015290565b6108c2610ce7565b604051634c7b4f4d60e11b81526001600160a01b037f000000000000000000000000000000000000000000000000000000000000000016906398f69e9a9061090e903090600401610e08565b60206040518083038186803b15801561092657600080fd5b505afa15801561093a573d6000803e3d6000fd5b505050506040513d601f19601f8201168201806040525081019061095e9190610d9e565b61097a5760405162461bcd60e51b81526004016103ba90610ee6565b8061098457610820565b803410156109a45760405162461bcd60e51b81526004016103ba90610f27565b3360009081526001602052604090205460ff166109d9573360009081526001602081905260408220805460ff19168217815501555b6001600160a01b037f00000000000000000000000000000000000000000000000000000000000000001663af3bd4f2610a128334611054565b336040518363ffffffff1660e01b8152600401610a2f9190610eba565b6000604051808303818588803b158015610a4857600080fd5b505af1158015610a5c573d6000803e3d6000fd5b50503360009081526001602081905260409091200154159250610b5a915050576000610acf7f00000000000000000000000000000000000000000000000000000000000000006001600160a01b031663a2a00ed630336040518363ffffffff1660e01b8152600401610496929190610e1c565b90508015610b5857604051631df36e4160e31b81526001600160a01b037f0000000000000000000000000000000000000000000000000000000000000000169063ef9b720890610b259033908590600401610e36565b600060405180830381600087803b158015610b3f57600080fd5b505af1158015610b53573d6000803e3d6000fd5b505050505b505b3360009081526001602081905260409091200154610b789082610d43565b3360009081526001602081905260409091200155600354610b999082610d43565b60035560405163286a276f60e21b81526001600160a01b037f0000000000000000000000000000000000000000000000000000000000000000169063bf16c3c2903390610c019064e8d4a51000906105a890869063a1a89dbc9061053e903090600401610e08565b6040518363ffffffff1660e01b8152600401610c1e929190610e36565b600060405180830381600087803b158015610c3857600080fd5b505af1158015610c4c573d6000803e3d6000fd5b50505050336001600160a01b03167f00000000000000000000000000000000000000000000000000000000000000006001600160a01b03167f8752a472e571a816aea92eec8dae9baf628e840f4929fbcc2d155e6233ff68a783604051610cb39190610ff4565b60405180910390a3610828610d3c565b7f000000000000000000000000000000000000000000000000000000000000000090565b60026000541415610d0a5760405162461bcd60e51b81526004016103ba90610f7d565b6002600055565b6000610d1d8284611035565b9392505050565b6000610d1d8284611015565b6000610d1d8284611054565b6001600055565b6000610d1d8284610ffd565b604080518082019091526000808252602082015290565b600060208284031215610d77578081fd5b8135610d1d816110bc565b600060208284031215610d93578081fd5b8151610d1d816110bc565b600060208284031215610daf578081fd5b81518015158114610d1d578182fd5b600060208284031215610dcf578081fd5b5035919050565b600060208284031215610de7578081fd5b5051919050565b60048152632aa9a2a960e11b602082015260400190565b90565b6001600160a01b0391909116815260200190565b6001600160a01b0392831681529116602082015260400190565b6001600160a01b03929092168252602082015260400190565b6000602080835283518082850152825b81811015610e7b57858101830151858201604001528201610e5f565b81811115610e8c5783604083870101525b50601f01601f1916929092016040019392505050565b600060208252610eb460208301610dee565b92915050565b600060408252610ecc60408301610dee565b6001600160a01b0393909316602092909201919091525090565b60208082526021908201527f43616e206e6f74206465706f73697420746f206120636c6f73656420706f6f6c6040820152601760f91b606082015260800190565b602080825260129082015271696e73756666696369656e742076616c756560701b604082015260600190565b60208082526010908201526f496e73756666696369656e742066656560801b604082015260600190565b6020808252601f908201527f5265656e7472616e637947756172643a207265656e7472616e742063616c6c00604082015260600190565b6020808252600d908201526c15da5d1a191c985dc819985a5b609a1b604082015260600190565b8151151581526020918201519181019190915260400190565b90815260200190565b60008219821115611010576110106110a6565b500190565b60008261103057634e487b7160e01b81526012600452602481fd5b500490565b600081600019048311821515161561104f5761104f6110a6565b500290565b600082821015611066576110666110a6565b500390565b60028104600182168061107f57607f821691505b602082108114156110a057634e487b7160e01b600052602260045260246000fd5b50919050565b634e487b7160e01b600052601160045260246000fd5b6001600160a01b038116811461082857600080fdfea26469706673582212202b170e199be173097871e66692bb2508910abe917a986851c1b2fa88c526bb1d64736f6c63430008000033",
  "linkReferences": {},
  "deployedLinkReferences": {}
}