{
  "_format": "hh-sol-artifact-1",
  "contractName": "Treasury",
  "sourceName": "contracts/Treasury/Treasury.sol",
  "abi": [
    {
      "inputs": [
        {
          "internalType": "address",
          "name": "_community",
          "type": "address"
        }
      ],
      "stateMutability": "nonpayable",
      "type": "constructor"
    },
    {
      "anonymous": false,
      "inputs": [
        {
          "indexed": true,
          "internalType": "address",
          "name": "community",
          "type": "address"
        },
        {
          "indexed": true,
          "internalType": "address",
          "name": "user",
          "type": "address"
        },
        {
          "indexed": true,
          "internalType": "uint256",
          "name": "amount",
          "type": "uint256"
        }
      ],
      "name": "Redeem",
      "type": "event"
    },
    {
      "inputs": [
        {
          "internalType": "uint256",
          "name": "amount",
          "type": "uint256"
        }
      ],
      "name": "redeem",
      "outputs": [],
      "stateMutability": "nonpayable",
      "type": "function"
    }
  ],
  "bytecode": "0x60c060405234801561001057600080fd5b5060405161095d38038061095d83398101604081905261002f91610050565b600160005533606090811b6080521b6001600160601b03191660a05261007e565b600060208284031215610061578081fd5b81516001600160a01b0381168114610077578182fd5b9392505050565b60805160601c60a05160601c6108ae6100af60003960008181605101526105090152600061030201526108ae6000f3fe608060405234801561001057600080fd5b506004361061002b5760003560e01c8063db006a7514610030575b600080fd5b61004361003e3660046106cc565b610045565b005b61004d610566565b60007f00000000000000000000000000000000000000000000000000000000000000006001600160a01b03166399efcaec6040518163ffffffff1660e01b815260040160206040518083038186803b1580156100a857600080fd5b505afa1580156100bc573d6000803e3d6000fd5b505050506040513d601f19601f820116820180604052508101906100e091906105d2565b90506000821161010b5760405162461bcd60e51b81526004016101029061077b565b60405180910390fd5b6040516370a0823160e01b815282906001600160a01b038316906370a08231906101399033906004016106fc565b60206040518083038186803b15801561015157600080fd5b505afa158015610165573d6000803e3d6000fd5b505050506040513d601f19601f8201168201806040525081019061018991906106e4565b10156101a75760405162461bcd60e51b81526004016101029061074d565b6000816001600160a01b03166318160ddd6040518163ffffffff1660e01b815260040160206040518083038186803b1580156101e257600080fd5b505afa1580156101f6573d6000803e3d6000fd5b505050506040513d601f19601f8201168201806040525081019061021a91906106e4565b6040516323b872dd60e01b81529091506001600160a01b038316906323b872dd9061024d90339030908890600401610710565b602060405180830381600087803b15801561026757600080fd5b505af115801561027b573d6000803e3d6000fd5b505050506040513d601f19601f8201168201806040525081019061029f91906106ac565b50604051630852cd8d60e31b81526001600160a01b038316906342966c68906102cc9086906004016107e9565b600060405180830381600087803b1580156102e657600080fd5b505af11580156102fa573d6000803e3d6000fd5b5050505060007f00000000000000000000000000000000000000000000000000000000000000006001600160a01b03166371b5ef466040518163ffffffff1660e01b815260040160006040518083038186803b15801561035957600080fd5b505afa15801561036d573d6000803e3d6000fd5b505050506040513d6000823e601f3d908101601f1916820160405261039591908101906105ec565b905060005b81518110156104ff5760008282815181106103c557634e487b7160e01b600052603260045260246000fd5b602002602001015190506000816001600160a01b03166370a08231306040518263ffffffff1660e01b81526004016103fd91906106fc565b60206040518083038186803b15801561041557600080fd5b505afa158015610429573d6000803e3d6000fd5b505050506040513d601f19601f8201168201806040525081019061044d91906106e4565b905080156104ea576001600160a01b03821663a9059cbb33610479886104738c87610590565b906105a3565b6040518363ffffffff1660e01b8152600401610496929190610734565b602060405180830381600087803b1580156104b057600080fd5b505af11580156104c4573d6000803e3d6000fd5b505050506040513d601f19601f820116820180604052508101906104e891906106ac565b505b505080806104f790610831565b91505061039a565b50604051849033907f00000000000000000000000000000000000000000000000000000000000000006001600160a01b0316907fd12200efa34901b99367694174c3b0d32c99585fdf37c7c26892136ddd0836d990600090a45050506105636105af565b50565b600260005414156105895760405162461bcd60e51b8152600401610102906107b2565b6002600055565b600061059c8284610812565b9392505050565b600061059c82846107f2565b6001600055565b80516001600160a01b03811681146105cd57600080fd5b919050565b6000602082840312156105e3578081fd5b61059c826105b6565b600060208083850312156105fe578182fd5b82516001600160401b0380821115610614578384fd5b818501915085601f830112610627578384fd5b81518181111561063957610639610862565b8381026040518582820101818110858211171561065857610658610862565b604052828152858101935084860182860187018a1015610676578788fd5b8795505b8386101561069f5761068b816105b6565b85526001959095019493860193860161067a565b5098975050505050505050565b6000602082840312156106bd578081fd5b8151801515811461059c578182fd5b6000602082840312156106dd578081fd5b5035919050565b6000602082840312156106f5578081fd5b5051919050565b6001600160a01b0391909116815260200190565b6001600160a01b039384168152919092166020820152604081019190915260600190565b6001600160a01b03929092168252602082015260400190565b602080825260149082015273496e73756666696369656e742062616c616e636560601b604082015260600190565b6020808252601e908201527f4d7573742075736520736f6d652063746f6b656e20746f2072656465656d0000604082015260600190565b6020808252601f908201527f5265656e7472616e637947756172643a207265656e7472616e742063616c6c00604082015260600190565b90815260200190565b60008261080d57634e487b7160e01b81526012600452602481fd5b500490565b600081600019048311821515161561082c5761082c61084c565b500290565b60006000198214156108455761084561084c565b5060010190565b634e487b7160e01b600052601160045260246000fd5b634e487b7160e01b600052604160045260246000fdfea2646970667358221220380aef9c59885ca03d77c307981df04308006503c7676bcd413d53a357c6582164736f6c63430008000033",
  "linkReferences": {},
  "deployedLinkReferences": {}
}