{
  "_format": "hh-sol-artifact-1",
  "contractName": "Block",
  "sourceName": "contracts/calculators/Block.sol",
  "abi": [
    {
      "inputs": [],
      "stateMutability": "nonpayable",
      "type": "constructor"
    },
    {
      "inputs": [],
      "name": "getArbBlock",
      "outputs": [
        {
          "internalType": "uint256",
          "name": "",
          "type": "uint256"
        }
      ],
      "stateMutability": "view",
      "type": "function"
    },
    {
      "inputs": [],
      "name": "getBlock",
      "outputs": [
        {
          "internalType": "uint256",
          "name": "",
          "type": "uint256"
        }
      ],
      "stateMutability": "view",
      "type": "function"
    }
  ],
  "bytecode": "0x608060405234801561001057600080fd5b50610126806100206000396000f3fe6080604052348015600f57600080fd5b506004361060325760003560e01c80632e97766d146037578063a46bfbe4146051575b600080fd5b603d6057565b6040516048919060e7565b60405180910390f35b603d605b565b4390565b600060646001600160a01b031663a3b1b31d6040518163ffffffff1660e01b815260040160206040518083038186803b158015609657600080fd5b505afa15801560a9573d6000803e3d6000fd5b505050506040513d601f19601f8201168201806040525081019060cb919060d0565b905090565b60006020828403121560e0578081fd5b5051919050565b9081526020019056fea2646970667358221220fe109dd2d9b21a33bbfb699c26fbaaa043e007ed21d7b788b732a60724403f4364736f6c63430008000033",
  "linkReferences": {},
  "deployedLinkReferences": {}
}