{
  "_format": "hh-sol-artifact-1",
  "contractName": "SPStaking",
  "sourceName": "contracts/dapps/sp-staking/SPStaking.sol",
  "abi": [
    {
      "inputs": [
        {
          "internalType": "address",
          "name": "_community",
          "type": "address"
        },
        {
          "internalType": "string",
          "name": "_name",
          "type": "string"
        },
        {
          "internalType": "uint8",
          "name": "_chainId",
          "type": "uint8"
        },
        {
          "internalType": "bytes32",
          "name": "_delegatee",
          "type": "bytes32"
        }
      ],
      "stateMutability": "nonpayable",
      "type": "constructor"
    },
    {
      "anonymous": false,
      "inputs": [
        {
          "indexed": true,
          "internalType": "address",
          "name": "community",
          "type": "address"
        },
        {
          "indexed": true,
          "internalType": "address",
          "name": "who",
          "type": "address"
        },
        {
          "indexed": false,
          "internalType": "uint256",
          "name": "previousAmount",
          "type": "uint256"
        },
        {
          "indexed": false,
          "internalType": "uint256",
          "name": "newAmount",
          "type": "uint256"
        }
      ],
      "name": "UpdateStaking",
      "type": "event"
    },
    {
      "inputs": [
        {
          "internalType": "bytes32",
          "name": "",
          "type": "bytes32"
        }
      ],
      "name": "accountBindMap",
      "outputs": [
        {
          "internalType": "address",
          "name": "",
          "type": "address"
        }
      ],
      "stateMutability": "view",
      "type": "function"
    },
    {
      "inputs": [],
      "name": "delegatee",
      "outputs": [
        {
          "internalType": "bytes32",
          "name": "",
          "type": "bytes32"
        }
      ],
      "stateMutability": "view",
      "type": "function"
    },
    {
      "inputs": [],
      "name": "getCommunity",
      "outputs": [
        {
          "internalType": "address",
          "name": "",
          "type": "address"
        }
      ],
      "stateMutability": "view",
      "type": "function"
    },
    {
      "inputs": [],
      "name": "getFactory",
      "outputs": [
        {
          "internalType": "address",
          "name": "",
          "type": "address"
        }
      ],
      "stateMutability": "view",
      "type": "function"
    },
    {
      "inputs": [],
      "name": "getTotalStakedAmount",
      "outputs": [
        {
          "internalType": "uint256",
          "name": "",
          "type": "uint256"
        }
      ],
      "stateMutability": "view",
      "type": "function"
    },
    {
      "inputs": [
        {
          "internalType": "address",
          "name": "user",
          "type": "address"
        }
      ],
      "name": "getUserDepositInfo",
      "outputs": [
        {
          "components": [
            {
              "internalType": "bool",
              "name": "hasDeposited",
              "type": "bool"
            },
            {
              "internalType": "uint256",
              "name": "amount",
              "type": "uint256"
            },
            {
              "internalType": "bytes32",
              "name": "bindAccount",
              "type": "bytes32"
            }
          ],
          "internalType": "struct SPStaking.StakingInfo",
          "name": "",
          "type": "tuple"
        }
      ],
      "stateMutability": "view",
      "type": "function"
    },
    {
      "inputs": [
        {
          "internalType": "address",
          "name": "user",
          "type": "address"
        }
      ],
      "name": "getUserStakedAmount",
      "outputs": [
        {
          "internalType": "uint256",
          "name": "",
          "type": "uint256"
        }
      ],
      "stateMutability": "view",
      "type": "function"
    },
    {
      "inputs": [],
      "name": "name",
      "outputs": [
        {
          "internalType": "string",
          "name": "",
          "type": "string"
        }
      ],
      "stateMutability": "view",
      "type": "function"
    },
    {
      "inputs": [],
      "name": "totalStakedAmount",
      "outputs": [
        {
          "internalType": "uint256",
          "name": "",
          "type": "uint256"
        }
      ],
      "stateMutability": "view",
      "type": "function"
    },
    {
      "inputs": [
        {
          "internalType": "uint8",
          "name": "_chainId",
          "type": "uint8"
        },
        {
          "internalType": "bytes32",
          "name": "_delegatee",
          "type": "bytes32"
        },
        {
          "internalType": "address",
          "name": "depositor",
          "type": "address"
        },
        {
          "internalType": "uint256",
          "name": "amount",
          "type": "uint256"
        },
        {
          "internalType": "bytes32",
          "name": "_bindAccount",
          "type": "bytes32"
        }
      ],
      "name": "update",
      "outputs": [],
      "stateMutability": "nonpayable",
      "type": "function"
    }
  ],
  "bytecode": "0x60e06040523480156200001157600080fd5b506040516200200338038062002003833981810160405281019062000037919062000247565b3373ffffffffffffffffffffffffffffffffffffffff1660808173ffffffffffffffffffffffffffffffffffffffff1660601b815250508373ffffffffffffffffffffffffffffffffffffffff1660a08173ffffffffffffffffffffffffffffffffffffffff1660601b815250508260029080519060200190620000bd929190620000e0565b50806003819055508160ff1660c08160ff1660f81b815250505050505062000496565b828054620000ee90620003b4565b90600052602060002090601f0160209004810192826200011257600085556200015e565b82601f106200012d57805160ff19168380011785556200015e565b828001600101855582156200015e579182015b828111156200015d57825182559160200191906001019062000140565b5b5090506200016d919062000171565b5090565b5b808211156200018c57600081600090555060010162000172565b5090565b6000620001a7620001a18462000300565b620002cc565b905082815260208101848484011115620001c057600080fd5b620001cd8482856200037e565b509392505050565b600081519050620001e68162000448565b92915050565b600081519050620001fd8162000462565b92915050565b600082601f8301126200021557600080fd5b81516200022784826020860162000190565b91505092915050565b60008151905062000241816200047c565b92915050565b600080600080608085870312156200025e57600080fd5b60006200026e87828801620001d5565b945050602085015167ffffffffffffffff8111156200028c57600080fd5b6200029a8782880162000203565b9350506040620002ad8782880162000230565b9250506060620002c087828801620001ec565b91505092959194509250565b6000604051905081810181811067ffffffffffffffff82111715620002f657620002f562000419565b5b8060405250919050565b600067ffffffffffffffff8211156200031e576200031d62000419565b5b601f19601f8301169050602081019050919050565b6000620003408262000351565b9050919050565b6000819050919050565b600073ffffffffffffffffffffffffffffffffffffffff82169050919050565b600060ff82169050919050565b60005b838110156200039e57808201518184015260208101905062000381565b83811115620003ae576000848401525b50505050565b60006002820490506001821680620003cd57607f821691505b60208210811415620003e457620003e3620003ea565b5b50919050565b7f4e487b7100000000000000000000000000000000000000000000000000000000600052602260045260246000fd5b7f4e487b7100000000000000000000000000000000000000000000000000000000600052604160045260246000fd5b620004538162000333565b81146200045f57600080fd5b50565b6200046d8162000347565b81146200047957600080fd5b50565b620004878162000371565b81146200049357600080fd5b50565b60805160601c60a05160601c60c05160f81c611aee6200051560003960006104130152600081816106210152818161096e01528181610a6901528181610b2001528181610c4101528181610d4501528181610d8e01528181610efc015261104b0152600081816102de0152818161030401526109aa0152611aee6000f3fe608060405234801561001057600080fd5b506004361061009e5760003560e01c806388cc58e41161006657806388cc58e41461014b578063919034701461016957806394465b2114610185578063b3a7834d146101b5578063c51db6b2146101e55761009e565b806306fdde03146100a35780631e31d053146100c157806338adb6f0146100df578063567e98f9146100fd578063630949c71461011b575b600080fd5b6100ab610203565b6040516100b89190611639565b60405180910390f35b6100c9610291565b6040516100d6919061161e565b60405180910390f35b6100e7610297565b6040516100f49190611764565b60405180910390f35b6101056102a1565b6040516101129190611764565b60405180910390f35b610135600480360381019061013091906111fb565b6102a7565b60405161014291906115b1565b60405180910390f35b6101536102da565b60405161016091906115b1565b60405180910390f35b610183600480360381019061017e919061124d565b610302565b005b61019f600480360381019061019a9190611180565b610f73565b6040516101ac9190611764565b60405180910390f35b6101cf60048036038101906101ca9190611180565b610fbf565b6040516101dc9190611749565b60405180910390f35b6101ed611047565b6040516101fa91906115b1565b60405180910390f35b600280546102109061196b565b80601f016020809104026020016040519081016040528092919081815260200182805461023c9061196b565b80156102895780601f1061025e57610100808354040283529160200191610289565b820191906000526020600020905b81548152906001019060200180831161026c57829003601f168201915b505050505081565b60035481565b6000600454905090565b60045481565b60006020528060005260406000206000915054906101000a900473ffffffffffffffffffffffffffffffffffffffff1681565b60007f0000000000000000000000000000000000000000000000000000000000000000905090565b7f000000000000000000000000000000000000000000000000000000000000000073ffffffffffffffffffffffffffffffffffffffff1663e78cea926040518163ffffffff1660e01b815260040160206040518083038186803b15801561036857600080fd5b505afa15801561037c573d6000803e3d6000fd5b505050506040513d601f19601f820116820180604052508101906103a091906111a9565b73ffffffffffffffffffffffffffffffffffffffff163373ffffffffffffffffffffffffffffffffffffffff161461040d576040517f08c379a0000000000000000000000000000000000000000000000000000000008152600401610404906116e9565b60405180910390fd5b8460ff167f000000000000000000000000000000000000000000000000000000000000000060ff1614610475576040517f08c379a000000000000000000000000000000000000000000000000000000000815260040161046c90611729565b60405180910390fd5b83600354146104b9576040517f08c379a00000000000000000000000000000000000000000000000000000000081526004016104b0906116c9565b60405180910390fd5b600073ffffffffffffffffffffffffffffffffffffffff1660008083815260200190815260200160002060009054906101000a900473ffffffffffffffffffffffffffffffffffffffff1673ffffffffffffffffffffffffffffffffffffffff16148061058357508273ffffffffffffffffffffffffffffffffffffffff1660008083815260200190815260200160002060009054906101000a900473ffffffffffffffffffffffffffffffffffffffff1673ffffffffffffffffffffffffffffffffffffffff16145b6105c2576040517f08c379a00000000000000000000000000000000000000000000000000000000081526004016105b990611709565b60405180910390fd5b6000600160008573ffffffffffffffffffffffffffffffffffffffff1673ffffffffffffffffffffffffffffffffffffffff168152602001908152602001600020600101549050828114156106175750610f6c565b82811015610708577f000000000000000000000000000000000000000000000000000000000000000073ffffffffffffffffffffffffffffffffffffffff166398f69e9a306040518263ffffffff1660e01b815260040161067891906115b1565b60206040518083038186803b15801561069057600080fd5b505afa1580156106a4573d6000803e3d6000fd5b505050506040513d601f19601f820116820180604052508101906106c891906111d2565b610707576040517f08c379a00000000000000000000000000000000000000000000000000000000081526004016106fe906116a9565b60405180910390fd5b5b600160008573ffffffffffffffffffffffffffffffffffffffff1673ffffffffffffffffffffffffffffffffffffffff16815260200190815260200160002060000160009054906101000a900460ff1661089b5760018060008673ffffffffffffffffffffffffffffffffffffffff1673ffffffffffffffffffffffffffffffffffffffff16815260200190815260200160002060000160006101000a81548160ff0219169083151502179055506000600160008673ffffffffffffffffffffffffffffffffffffffff1673ffffffffffffffffffffffffffffffffffffffff1681526020019081526020016000206001018190555081600160008673ffffffffffffffffffffffffffffffffffffffff1673ffffffffffffffffffffffffffffffffffffffff168152602001908152602001600020600201819055508360008084815260200190815260200160002060006101000a81548173ffffffffffffffffffffffffffffffffffffffff021916908373ffffffffffffffffffffffffffffffffffffffff16021790555061096c565b816040516020016108ac9190611596565b60405160208183030381529060405280519060200120600160008673ffffffffffffffffffffffffffffffffffffffff1673ffffffffffffffffffffffffffffffffffffffff168152602001908152602001600020600201546040516020016109159190611596565b604051602081830303815290604052805190602001201461096b576040517f08c379a00000000000000000000000000000000000000000000000000000000081526004016109629061165b565b60405180910390fd5b5b7f000000000000000000000000000000000000000000000000000000000000000073ffffffffffffffffffffffffffffffffffffffff1663af3bd4f27f00000000000000000000000000000000000000000000000000000000000000006040518263ffffffff1660e01b81526004016109e5919061167b565b600060405180830381600087803b1580156109ff57600080fd5b505af1158015610a13573d6000803e3d6000fd5b505050506000600160008673ffffffffffffffffffffffffffffffffffffffff1673ffffffffffffffffffffffffffffffffffffffff168152602001908152602001600020600101541115610ccf576000610c347f000000000000000000000000000000000000000000000000000000000000000073ffffffffffffffffffffffffffffffffffffffff1663a2a00ed630886040518363ffffffff1660e01b8152600401610ac29291906115cc565b60206040518083038186803b158015610ada57600080fd5b505afa158015610aee573d6000803e3d6000fd5b505050506040513d601f19601f82011682018060405250810190610b129190611224565b610c2664e8d4a51000610c187f000000000000000000000000000000000000000000000000000000000000000073ffffffffffffffffffffffffffffffffffffffff1663a1a89dbc306040518263ffffffff1660e01b8152600401610b7791906115b1565b60206040518083038186803b158015610b8f57600080fd5b505afa158015610ba3573d6000803e3d6000fd5b505050506040513d601f19601f82011682018060405250810190610bc79190611224565b600160008c73ffffffffffffffffffffffffffffffffffffffff1673ffffffffffffffffffffffffffffffffffffffff1681526020019081526020016000206001015461106f90919063ffffffff16565b61108590919063ffffffff16565b61109b90919063ffffffff16565b90506000811115610ccd577f000000000000000000000000000000000000000000000000000000000000000073ffffffffffffffffffffffffffffffffffffffff1663ef9b720886836040518363ffffffff1660e01b8152600401610c9a9291906115f5565b600060405180830381600087803b158015610cb457600080fd5b505af1158015610cc8573d6000803e3d6000fd5b505050505b505b610cf681610ce8856004546110b190919063ffffffff16565b61109b90919063ffffffff16565b60048190555082600160008673ffffffffffffffffffffffffffffffffffffffff1673ffffffffffffffffffffffffffffffffffffffff168152602001908152602001600020600101819055507f000000000000000000000000000000000000000000000000000000000000000073ffffffffffffffffffffffffffffffffffffffff1663bf16c3c285610e9464e8d4a51000610e867f000000000000000000000000000000000000000000000000000000000000000073ffffffffffffffffffffffffffffffffffffffff1663a1a89dbc306040518263ffffffff1660e01b8152600401610de591906115b1565b60206040518083038186803b158015610dfd57600080fd5b505afa158015610e11573d6000803e3d6000fd5b505050506040513d601f19601f82011682018060405250810190610e359190611224565b600160008c73ffffffffffffffffffffffffffffffffffffffff1673ffffffffffffffffffffffffffffffffffffffff1681526020019081526020016000206001015461106f90919063ffffffff16565b61108590919063ffffffff16565b6040518363ffffffff1660e01b8152600401610eb19291906115f5565b600060405180830381600087803b158015610ecb57600080fd5b505af1158015610edf573d6000803e3d6000fd5b505050508373ffffffffffffffffffffffffffffffffffffffff167f000000000000000000000000000000000000000000000000000000000000000073ffffffffffffffffffffffffffffffffffffffff167f8572960e25f62a888f92ba98fda1ca3cba3fc98b664e8ae79fdc97a644c7bae48386604051610f6292919061177f565b60405180910390a3505b5050505050565b6000600160008373ffffffffffffffffffffffffffffffffffffffff1673ffffffffffffffffffffffffffffffffffffffff168152602001908152602001600020600101549050919050565b610fc76110c7565b600160008373ffffffffffffffffffffffffffffffffffffffff1673ffffffffffffffffffffffffffffffffffffffff1681526020019081526020016000206040518060600160405290816000820160009054906101000a900460ff16151515158152602001600182015481526020016002820154815250509050919050565b60007f0000000000000000000000000000000000000000000000000000000000000000905090565b6000818361107d919061184b565b905092915050565b60008183611093919061181a565b905092915050565b600081836110a991906118a5565b905092915050565b600081836110bf91906117c4565b905092915050565b604051806060016040528060001515815260200160008152602001600080191681525090565b6000813590506110fc81611a45565b92915050565b60008151905061111181611a45565b92915050565b60008151905061112681611a5c565b92915050565b60008135905061113b81611a73565b92915050565b60008135905061115081611a8a565b92915050565b60008151905061116581611a8a565b92915050565b60008135905061117a81611aa1565b92915050565b60006020828403121561119257600080fd5b60006111a0848285016110ed565b91505092915050565b6000602082840312156111bb57600080fd5b60006111c984828501611102565b91505092915050565b6000602082840312156111e457600080fd5b60006111f284828501611117565b91505092915050565b60006020828403121561120d57600080fd5b600061121b8482850161112c565b91505092915050565b60006020828403121561123657600080fd5b600061124484828501611156565b91505092915050565b600080600080600060a0868803121561126557600080fd5b60006112738882890161116b565b95505060206112848882890161112c565b9450506040611295888289016110ed565b93505060606112a688828901611141565b92505060806112b78882890161112c565b9150509295509295909350565b6112cd816118d9565b82525050565b6112dc816118eb565b82525050565b6112eb816118f7565b82525050565b6112fa816118f7565b82525050565b61131161130c826118f7565b61199d565b82525050565b6000611322826117a8565b61132c81856117b3565b935061133c818560208601611938565b61134581611a34565b840191505092915050565b600061135d601c836117b3565b91507f426f756e6420737465656d206163636f756e74206469736d61746368000000006000830152602082019050919050565b600061139d6004836117b3565b91507f55534552000000000000000000000000000000000000000000000000000000006000830152602082019050919050565b60006113dd6021836117b3565b91507f43616e206e6f74206465706f73697420746f206120636c6f73656420706f6f6c60008301527f2e000000000000000000000000000000000000000000000000000000000000006020830152604082019050919050565b60006114436017836117b3565b91507f57726f6e672064656c656761746565206163636f756e740000000000000000006000830152602082019050919050565b6000611483601d836117b3565b91507f4f6e6c79207665726966696564206272696467652063616e2063616c6c0000006000830152602082019050919050565b60006114c3601a836117b3565b91507f426f756e6420627363206163636f756e74206469736d617463680000000000006000830152602082019050919050565b6000611503600e836117b3565b91507f57726f6e6720636861696e2069640000000000000000000000000000000000006000830152602082019050919050565b60608201600082015161154c60008501826112d3565b50602082015161155f6020850182611578565b50604082015161157260408501826112e2565b50505050565b61158181611921565b82525050565b61159081611921565b82525050565b60006115a28284611300565b60208201915081905092915050565b60006020820190506115c660008301846112c4565b92915050565b60006040820190506115e160008301856112c4565b6115ee60208301846112c4565b9392505050565b600060408201905061160a60008301856112c4565b6116176020830184611587565b9392505050565b600060208201905061163360008301846112f1565b92915050565b600060208201905081810360008301526116538184611317565b905092915050565b6000602082019050818103600083015261167481611350565b9050919050565b6000604082019050818103600083015261169481611390565b90506116a360208301846112c4565b92915050565b600060208201905081810360008301526116c2816113d0565b9050919050565b600060208201905081810360008301526116e281611436565b9050919050565b6000602082019050818103600083015261170281611476565b9050919050565b60006020820190508181036000830152611722816114b6565b9050919050565b60006020820190508181036000830152611742816114f6565b9050919050565b600060608201905061175e6000830184611536565b92915050565b60006020820190506117796000830184611587565b92915050565b60006040820190506117946000830185611587565b6117a16020830184611587565b9392505050565b600081519050919050565b600082825260208201905092915050565b60006117cf82611921565b91506117da83611921565b9250827fffffffffffffffffffffffffffffffffffffffffffffffffffffffffffffffff0382111561180f5761180e6119a7565b5b828201905092915050565b600061182582611921565b915061183083611921565b9250826118405761183f6119d6565b5b828204905092915050565b600061185682611921565b915061186183611921565b9250817fffffffffffffffffffffffffffffffffffffffffffffffffffffffffffffffff048311821515161561189a576118996119a7565b5b828202905092915050565b60006118b082611921565b91506118bb83611921565b9250828210156118ce576118cd6119a7565b5b828203905092915050565b60006118e482611901565b9050919050565b60008115159050919050565b6000819050919050565b600073ffffffffffffffffffffffffffffffffffffffff82169050919050565b6000819050919050565b600060ff82169050919050565b60005b8381101561195657808201518184015260208101905061193b565b83811115611965576000848401525b50505050565b6000600282049050600182168061198357607f821691505b6020821081141561199757611996611a05565b5b50919050565b6000819050919050565b7f4e487b7100000000000000000000000000000000000000000000000000000000600052601160045260246000fd5b7f4e487b7100000000000000000000000000000000000000000000000000000000600052601260045260246000fd5b7f4e487b7100000000000000000000000000000000000000000000000000000000600052602260045260246000fd5b6000601f19601f8301169050919050565b611a4e816118d9565b8114611a5957600080fd5b50565b611a65816118eb565b8114611a7057600080fd5b50565b611a7c816118f7565b8114611a8757600080fd5b50565b611a9381611921565b8114611a9e57600080fd5b50565b611aaa8161192b565b8114611ab557600080fd5b5056fea2646970667358221220449368e89b56c1ea1c45c81e74cfb88e5034e7a0515ebdda8e3d70f790450a0c64736f6c63430008000033",
  "linkReferences": {},
  "deployedLinkReferences": {}
}