{
  "_format": "hh-sol-artifact-1",
  "contractName": "ERC20StakingFactory",
  "sourceName": "contracts/dapps/erc20-staking/ERC20StakingFactory.sol",
  "abi": [
    {
      "inputs": [
        {
          "internalType": "address",
          "name": "_communityFactory",
          "type": "address"
        }
      ],
      "stateMutability": "nonpayable",
      "type": "constructor"
    },
    {
      "anonymous": false,
      "inputs": [
        {
          "indexed": true,
          "internalType": "address",
          "name": "pool",
          "type": "address"
        },
        {
          "indexed": true,
          "internalType": "address",
          "name": "community",
          "type": "address"
        },
        {
          "indexed": false,
          "internalType": "string",
          "name": "name",
          "type": "string"
        },
        {
          "indexed": false,
          "internalType": "address",
          "name": "erc20Token",
          "type": "address"
        }
      ],
      "name": "ERC20StakingCreated",
      "type": "event"
    },
    {
      "anonymous": false,
      "inputs": [
        {
          "indexed": true,
          "internalType": "address",
          "name": "previousOwner",
          "type": "address"
        },
        {
          "indexed": true,
          "internalType": "address",
          "name": "newOwner",
          "type": "address"
        }
      ],
      "name": "OwnershipTransferred",
      "type": "event"
    },
    {
      "inputs": [],
      "name": "communityFactory",
      "outputs": [
        {
          "internalType": "address",
          "name": "",
          "type": "address"
        }
      ],
      "stateMutability": "view",
      "type": "function"
    },
    {
      "inputs": [
        {
          "internalType": "address",
          "name": "community",
          "type": "address"
        },
        {
          "internalType": "string",
          "name": "name",
          "type": "string"
        },
        {
          "internalType": "bytes",
          "name": "meta",
          "type": "bytes"
        }
      ],
      "name": "createPool",
      "outputs": [
        {
          "internalType": "address",
          "name": "",
          "type": "address"
        }
      ],
      "stateMutability": "nonpayable",
      "type": "function"
    },
    {
      "inputs": [],
      "name": "owner",
      "outputs": [
        {
          "internalType": "address",
          "name": "",
          "type": "address"
        }
      ],
      "stateMutability": "view",
      "type": "function"
    },
    {
      "inputs": [],
      "name": "renounceOwnership",
      "outputs": [],
      "stateMutability": "nonpayable",
      "type": "function"
    },
    {
      "inputs": [
        {
          "internalType": "address",
          "name": "newOwner",
          "type": "address"
        }
      ],
      "name": "transferOwnership",
      "outputs": [],
      "stateMutability": "nonpayable",
      "type": "function"
    }
  ],
  "bytecode": "0x60a060405234801561001057600080fd5b50604051611e1a380380611e1a83398101604081905261002f916100d7565b61003f61003a610083565b610087565b6001600160a01b03811661006e5760405162461bcd60e51b815260040161006590610105565b60405180910390fd5b60601b6001600160601b03191660805261012e565b3390565b600080546001600160a01b038381166001600160a01b0319831681178455604051919092169283917f8be0079c531659141344cd1fd0a4f28419497f9722a3daafe3b4186f6b6457e09190a35050565b6000602082840312156100e8578081fd5b81516001600160a01b03811681146100fe578182fd5b9392505050565b6020808252600f908201526e496e76616c6964206164647265737360881b604082015260600190565b60805160601c611cc76101536000396000818161017901526103990152611cc76000f3fe60806040523480156200001157600080fd5b50600436106200005e5760003560e01c8063715018a614620000635780638da5cb5b146200006f578063b883cc2a1462000091578063f2fde38b14620000a8578063fac8a61014620000bf575b600080fd5b6200006d620000c9565b005b6200007962000126565b604051620000889190620006d5565b60405180910390f35b62000079620000a23660046200057d565b62000135565b6200006d620000b936600462000559565b6200031a565b6200007962000397565b620000d3620003bb565b6001600160a01b0316620000e662000126565b6001600160a01b031614620001185760405162461bcd60e51b81526004016200010f9062000804565b60405180910390fd5b620001246000620003bf565b565b6000546001600160a01b031690565b60006001600160a01b0385163314620001625760405162461bcd60e51b81526004016200010f90620007ba565b604051633454a5b760e11b81526001600160a01b037f000000000000000000000000000000000000000000000000000000000000000016906368a94b6e90620001b0908890600401620006d5565b60206040518083038186803b158015620001c957600080fd5b505afa158015620001de573d6000803e3d6000fd5b505050506040513d601f19601f8201168201806040525081019062000204919062000665565b620002235760405162461bcd60e51b81526004016200010f9062000864565b60006200026e6000601486868080601f0160208091040260200160405190810160405280939291908181526020018383808284376000920191909152509294939250506200040f9050565b9050600060208201519050600087878360601c6040516200028f90620004e5565b6200029d93929190620006e9565b604051809103906000f080158015620002ba573d6000803e3d6000fd5b509050876001600160a01b0316816001600160a01b03167f246afd9fb9e1733d63ee77f86f5d1440fb048c65e36822f48d468d9e5e7b8f21898560601c6040516200030792919062000720565b60405180910390a3979650505050505050565b62000324620003bb565b6001600160a01b03166200033762000126565b6001600160a01b031614620003605760405162461bcd60e51b81526004016200010f9062000804565b6001600160a01b038116620003895760405162461bcd60e51b81526004016200010f906200074c565b6200039481620003bf565b50565b7f000000000000000000000000000000000000000000000000000000000000000081565b3390565b600080546001600160a01b038381166001600160a01b0319831681178455604051919092169283917f8be0079c531659141344cd1fd0a4f28419497f9722a3daafe3b4186f6b6457e09190a35050565b6060816200041f81601f6200088f565b1015620004405760405162461bcd60e51b81526004016200010f9062000792565b6200044c82846200088f565b845110156200046f5760405162461bcd60e51b81526004016200010f9062000839565b606082158015620004905760405191506000825260208201604052620004dc565b6040519150601f8416801560200281840101858101878315602002848b0101015b81831015620004cb578051835260209283019201620004b1565b5050858452601f01601f1916604052505b50949350505050565b6113c780620008cb83390190565b80356001600160a01b03811681146200050b57600080fd5b919050565b60008083601f84011262000522578081fd5b5081356001600160401b0381111562000539578182fd5b6020830191508360208285010111156200055257600080fd5b9250929050565b6000602082840312156200056b578081fd5b6200057682620004f3565b9392505050565b6000806000806060858703121562000593578283fd5b6200059e85620004f3565b93506020858101356001600160401b0380821115620005bb578586fd5b818801915088601f830112620005cf578586fd5b813581811115620005e457620005e4620008b4565b604051601f8201601f19168101850183811182821017156200060a576200060a620008b4565b60405281815283820185018b101562000621578788fd5b8185850186830137878583830101528097505050604088013592508083111562000649578485fd5b5050620006598782880162000510565b95989497509550505050565b60006020828403121562000677578081fd5b8151801515811462000576578182fd5b60008151808452815b81811015620006ae5760208185018101518683018201520162000690565b81811115620006c05782602083870101525b50601f01601f19169290920160200192915050565b6001600160a01b0391909116815260200190565b600060018060a01b038086168352606060208401526200070d606084018662000687565b9150808416604084015250949350505050565b60006040825262000735604083018562000687565b905060018060a01b03831660208301529392505050565b60208082526026908201527f4f776e61626c653a206e6577206f776e657220697320746865207a65726f206160408201526564647265737360d01b606082015260800190565b6020808252600e908201526d736c6963655f6f766572666c6f7760901b604082015260600190565b6020808252602a908201527f5065726d697373696f6e2064656e6965643a2063616c6c6572206973206e6f7460408201526920636f6d6d756e69747960b01b606082015260800190565b6020808252818101527f4f776e61626c653a2063616c6c6572206973206e6f7420746865206f776e6572604082015260600190565b602080825260119082015270736c6963655f6f75744f66426f756e647360781b604082015260600190565b602080825260119082015270496e76616c696420636f6d6d756e69747960781b604082015260600190565b60008219821115620008af57634e487b7160e01b81526011600452602481fd5b500190565b634e487b7160e01b600052604160045260246000fdfe60e06040523480156200001157600080fd5b50604051620013c7380380620013c7833981016040819052620000349162000144565b600160005533606090811b60805283901b6001600160601b03191660c05281516200006790600290602085019062000081565b5060601b6001600160601b03191660a052506200028f9050565b8280546200008f906200023c565b90600052602060002090601f016020900481019282620000b35760008555620000fe565b82601f10620000ce57805160ff1916838001178555620000fe565b82800160010185558215620000fe579182015b82811115620000fe578251825591602001919060010190620000e1565b506200010c92915062000110565b5090565b5b808211156200010c576000815560010162000111565b80516001600160a01b03811681146200013f57600080fd5b919050565b60008060006060848603121562000159578283fd5b620001648462000127565b602085810151919450906001600160401b038082111562000183578485fd5b818701915087601f83011262000197578485fd5b815181811115620001ac57620001ac62000279565b604051601f8201601f1916810185018381118282101715620001d257620001d262000279565b60405281815283820185018a1015620001e9578687fd5b8692505b818310156200020c5783830185015181840186015291840191620001ed565b818311156200021d57868583830101525b8096505050505050620002336040850162000127565b90509250925092565b6002810460018216806200025157607f821691505b602082108114156200027357634e487b7160e01b600052602260045260246000fd5b50919050565b634e487b7160e01b600052604160045260246000fd5b60805160601c60a05160601c60c05160601c61109d6200032a6000396000818161024b015281816102b90152818161036301528181610442015281816105660152818161060f0152818161076b01528181610862015281816108eb0152818161095601528181610a4701528181610af00152610b590152600081816104e70152818161068101526109c7015260006106ab015261109d6000f3fe608060405234801561001057600080fd5b506004361061008e5760003560e01c806306fdde03146100935780632e1a7d4d146100b157806338adb6f0146100c657806351ed6a30146100db578063567e98f9146100f057806388cc58e4146100f857806394465b2114610100578063b3a7834d14610113578063b6b55f2514610133578063c51db6b214610146575b600080fd5b61009b61014e565b6040516100a89190610e1f565b60405180910390f35b6100c46100bf366004610d68565b6101dc565b005b6100ce610679565b6040516100a89190610f73565b6100e361067f565b6040516100a89190610db4565b6100ce6106a3565b6100e36106a9565b6100ce61010e366004610d21565b6106cd565b610126610121366004610d21565b6106ec565b6040516100a89190610f5a565b6100c4610141366004610d68565b61072c565b6100e3610b57565b6002805461015b90611016565b80601f016020809104026020016040519081016040528092919081815260200182805461018790611016565b80156101d45780601f106101a9576101008083540402835291602001916101d4565b820191906000526020600020905b8154815290600101906020018083116101b757829003601f168201915b505050505081565b600260005414156102085760405162461bcd60e51b81526004016101ff90610f23565b60405180910390fd5b60026000558061021757610671565b336000908152600160208190526040909120015461023457610671565b60405163579dea7960e11b81526001600160a01b037f0000000000000000000000000000000000000000000000000000000000000000169063af3bd4f290610280903390600401610e87565b600060405180830381600087803b15801561029a57600080fd5b505af11580156102ae573d6000803e3d6000fd5b5050505060006104237f00000000000000000000000000000000000000000000000000000000000000006001600160a01b031663a2a00ed630336040518363ffffffff1660e01b8152600401610305929190610dc8565b60206040518083038186803b15801561031d57600080fd5b505afa158015610331573d6000803e3d6000fd5b505050506040513d601f19601f820116820180604052508101906103559190610d80565b61041d64e8d4a510006104177f00000000000000000000000000000000000000000000000000000000000000006001600160a01b031663a1a89dbc306040518263ffffffff1660e01b81526004016103ad9190610db4565b60206040518083038186803b1580156103c557600080fd5b505afa1580156103d9573d6000803e3d6000fd5b505050506040513d601f19601f820116820180604052508101906103fd9190610d80565b336000908152600160208190526040909120015490610b7b565b90610b8e565b90610b9a565b905080156104ac57604051631df36e4160e31b81526001600160a01b037f0000000000000000000000000000000000000000000000000000000000000000169063ef9b7208906104799033908590600401610e06565b600060405180830381600087803b15801561049357600080fd5b505af11580156104a7573d6000803e3d6000fd5b505050505b3360009081526001602081905260408220015483106104df575033600090815260016020819052604090912001546104e2565b50815b61050d7f00000000000000000000000000000000000000000000000000000000000000003383610ba6565b336000908152600160208190526040909120015461052b9082610b9a565b336000908152600160208190526040909120015560035461054c9082610b9a565b60035560405163286a276f60e21b81526001600160a01b037f0000000000000000000000000000000000000000000000000000000000000000169063bf16c3c29033906105b49064e8d4a510009061041790869063a1a89dbc906103ad903090600401610db4565b6040518363ffffffff1660e01b81526004016105d1929190610e06565b600060405180830381600087803b1580156105eb57600080fd5b505af11580156105ff573d6000803e3d6000fd5b50505050336001600160a01b03167f00000000000000000000000000000000000000000000000000000000000000006001600160a01b03167fd1c19fbcd4551a5edfb66d43d2e337c04837afda3482b42bdf569a8fccdae5fb836040516106669190610f73565b60405180910390a350505b506001600055565b60035490565b7f000000000000000000000000000000000000000000000000000000000000000081565b60035481565b7f000000000000000000000000000000000000000000000000000000000000000090565b6001600160a01b03166000908152600160208190526040909120015490565b6106f4610d0a565b506001600160a01b03166000908152600160208181526040928390208351808501909452805460ff1615158452909101549082015290565b6002600054141561074f5760405162461bcd60e51b81526004016101ff90610f23565b6002600055604051634c7b4f4d60e11b81526001600160a01b037f000000000000000000000000000000000000000000000000000000000000000016906398f69e9a906107a0903090600401610db4565b60206040518083038186803b1580156107b857600080fd5b505afa1580156107cc573d6000803e3d6000fd5b505050506040513d601f19601f820116820180604052508101906107f09190610d48565b61080c5760405162461bcd60e51b81526004016101ff90610ee2565b8061081657610671565b3360009081526001602052604090205460ff1661084b573360009081526001602081905260408220805460ff19168217815501555b60405163579dea7960e11b81526001600160a01b037f0000000000000000000000000000000000000000000000000000000000000000169063af3bd4f290610897903390600401610e87565b600060405180830381600087803b1580156108b157600080fd5b505af11580156108c5573d6000803e3d6000fd5b505033600090815260016020819052604090912001541591506109c290505760006109377f00000000000000000000000000000000000000000000000000000000000000006001600160a01b031663a2a00ed630336040518363ffffffff1660e01b8152600401610305929190610dc8565b905080156109c057604051631df36e4160e31b81526001600160a01b037f0000000000000000000000000000000000000000000000000000000000000000169063ef9b72089061098d9033908590600401610e06565b600060405180830381600087803b1580156109a757600080fd5b505af11580156109bb573d6000803e3d6000fd5b505050505b505b6109ee7f0000000000000000000000000000000000000000000000000000000000000000333084610bb8565b3360009081526001602081905260409091200154610a0c9082610bcc565b3360009081526001602081905260409091200155600354610a2d9082610bcc565b60035560405163286a276f60e21b81526001600160a01b037f0000000000000000000000000000000000000000000000000000000000000000169063bf16c3c2903390610a959064e8d4a510009061041790869063a1a89dbc906103ad903090600401610db4565b6040518363ffffffff1660e01b8152600401610ab2929190610e06565b600060405180830381600087803b158015610acc57600080fd5b505af1158015610ae0573d6000803e3d6000fd5b50505050336001600160a01b03167f00000000000000000000000000000000000000000000000000000000000000006001600160a01b03167f8752a472e571a816aea92eec8dae9baf628e840f4929fbcc2d155e6233ff68a783604051610b479190610f73565b60405180910390a3506001600055565b7f000000000000000000000000000000000000000000000000000000000000000090565b6000610b878284610fb4565b9392505050565b6000610b878284610f94565b6000610b878284610fd3565b82610bb2818484610bd8565b50505050565b83610bc581858585610c33565b5050505050565b6000610b878284610f7c565b610c2e8363a9059cbb60e01b8484604051602401610bf7929190610e06565b60408051601f198184030181529190526020810180516001600160e01b03166001600160e01b031990931692909217909152610c54565b505050565b610bb2846323b872dd60e01b858585604051602401610bf793929190610de2565b600080836001600160a01b031683604051610c6f9190610d98565b6000604051808303816000865af19150503d8060008114610cac576040519150601f19603f3d011682016040523d82523d6000602084013e610cb1565b606091505b509150915081610cd35760405162461bcd60e51b81526004016101ff90610eb6565b805115610bb25780806020019051810190610cee9190610d48565b610bb25760405162461bcd60e51b81526004016101ff90610e52565b604080518082019091526000808252602082015290565b600060208284031215610d32578081fd5b81356001600160a01b0381168114610b87578182fd5b600060208284031215610d59578081fd5b81518015158114610b87578182fd5b600060208284031215610d79578081fd5b5035919050565b600060208284031215610d91578081fd5b5051919050565b60008251610daa818460208701610fea565b9190910192915050565b6001600160a01b0391909116815260200190565b6001600160a01b0392831681529116602082015260400190565b6001600160a01b039384168152919092166020820152604081019190915260600190565b6001600160a01b03929092168252602082015260400190565b6000602082528251806020840152610e3e816040850160208701610fea565b601f01601f19169190910160400192915050565b6020808252818101527f45524332303a206f7065726174696f6e20646964206e6f742073756363656564604082015260600190565b6040808252600490820152632aa9a2a960e11b60608201526001600160a01b0391909116602082015260800190565b602080825260129082015271115490cc8c0e8818d85b1b0819985a5b195960721b604082015260600190565b60208082526021908201527f43616e206e6f74206465706f73697420746f206120636c6f73656420706f6f6c6040820152601760f91b606082015260800190565b6020808252601f908201527f5265656e7472616e637947756172643a207265656e7472616e742063616c6c00604082015260600190565b8151151581526020918201519181019190915260400190565b90815260200190565b60008219821115610f8f57610f8f611051565b500190565b600082610faf57634e487b7160e01b81526012600452602481fd5b500490565b6000816000190483118215151615610fce57610fce611051565b500290565b600082821015610fe557610fe5611051565b500390565b60005b83811015611005578181015183820152602001610fed565b83811115610bb25750506000910152565b60028104600182168061102a57607f821691505b6020821081141561104b57634e487b7160e01b600052602260045260246000fd5b50919050565b634e487b7160e01b600052601160045260246000fdfea264697066735822122022aadfd1d0ef52f3bd7fcfe16f18cda3fc4ca636f55e74682df6f5e789636fbc64736f6c63430008000033a264697066735822122059e3ee957d9eee43a2afeb89cb4ffc7f88e32edb104a220e4858dd64b813247564736f6c63430008000033",
  "linkReferences": {},
  "deployedLinkReferences": {}
}