{
  "_format": "hh-sol-artifact-1",
  "contractName": "Committee",
  "sourceName": "contracts/Committee.sol",
  "abi": [
    {
      "inputs": [
        {
          "internalType": "address",
          "name": "_treasury",
          "type": "address"
        },
        {
          "internalType": "address",
          "name": "_nut",
          "type": "address"
        }
      ],
      "stateMutability": "nonpayable",
      "type": "constructor"
    },
    {
      "anonymous": false,
      "inputs": [
        {
          "indexed": true,
          "internalType": "address",
          "name": "c",
          "type": "address"
        }
      ],
      "name": "AdminAddContract",
      "type": "event"
    },
    {
      "anonymous": false,
      "inputs": [
        {
          "indexed": true,
          "internalType": "address",
          "name": "feeFree",
          "type": "address"
        }
      ],
      "name": "AdminAddFeeFreeAddress",
      "type": "event"
    },
    {
      "anonymous": false,
      "inputs": [
        {
          "indexed": true,
          "internalType": "address",
          "name": "wm",
          "type": "address"
        }
      ],
      "name": "AdminAddWhitelistManager",
      "type": "event"
    },
    {
      "anonymous": false,
      "inputs": [
        {
          "indexed": true,
          "internalType": "address",
          "name": "c",
          "type": "address"
        }
      ],
      "name": "AdminRemoveContract",
      "type": "event"
    },
    {
      "anonymous": false,
      "inputs": [
        {
          "indexed": true,
          "internalType": "address",
          "name": "feeFree",
          "type": "address"
        }
      ],
      "name": "AdminRemoveFeeFreeAddress",
      "type": "event"
    },
    {
      "anonymous": false,
      "inputs": [
        {
          "indexed": true,
          "internalType": "address",
          "name": "wm",
          "type": "address"
        }
      ],
      "name": "AdminRemoveWhitelistManager",
      "type": "event"
    },
    {
      "anonymous": false,
      "inputs": [
        {
          "indexed": true,
          "internalType": "address",
          "name": "gauge",
          "type": "address"
        }
      ],
      "name": "AdminSetGauge",
      "type": "event"
    },
    {
      "anonymous": false,
      "inputs": [
        {
          "indexed": true,
          "internalType": "address",
          "name": "nut",
          "type": "address"
        }
      ],
      "name": "AdminSetNut",
      "type": "event"
    },
    {
      "anonymous": false,
      "inputs": [
        {
          "indexed": true,
          "internalType": "address",
          "name": "treasury",
          "type": "address"
        }
      ],
      "name": "AdminSetTreasury",
      "type": "event"
    },
    {
      "anonymous": false,
      "inputs": [
        {
          "indexed": true,
          "internalType": "string",
          "name": "feeType",
          "type": "string"
        },
        {
          "indexed": false,
          "internalType": "uint256",
          "name": "amount",
          "type": "uint256"
        }
      ],
      "name": "FeeSet",
      "type": "event"
    },
    {
      "anonymous": false,
      "inputs": [
        {
          "indexed": false,
          "internalType": "address",
          "name": "recipient",
          "type": "address"
        },
        {
          "indexed": false,
          "internalType": "uint256",
          "name": "amount",
          "type": "uint256"
        }
      ],
      "name": "NewAppropriation",
      "type": "event"
    },
    {
      "anonymous": false,
      "inputs": [
        {
          "indexed": false,
          "internalType": "string",
          "name": "feeType",
          "type": "string"
        },
        {
          "indexed": true,
          "internalType": "address",
          "name": "community",
          "type": "address"
        },
        {
          "indexed": true,
          "internalType": "address",
          "name": "pool",
          "type": "address"
        },
        {
          "indexed": true,
          "internalType": "address",
          "name": "who",
          "type": "address"
        },
        {
          "indexed": false,
          "internalType": "uint256",
          "name": "amount",
          "type": "uint256"
        }
      ],
      "name": "NewRevenue",
      "type": "event"
    },
    {
      "anonymous": false,
      "inputs": [
        {
          "indexed": true,
          "internalType": "address",
          "name": "previousOwner",
          "type": "address"
        },
        {
          "indexed": true,
          "internalType": "address",
          "name": "newOwner",
          "type": "address"
        }
      ],
      "name": "OwnershipTransferred",
      "type": "event"
    },
    {
      "inputs": [
        {
          "internalType": "address",
          "name": "_c",
          "type": "address"
        }
      ],
      "name": "adminAddContract",
      "outputs": [],
      "stateMutability": "nonpayable",
      "type": "function"
    },
    {
      "inputs": [
        {
          "internalType": "address",
          "name": "_f",
          "type": "address"
        }
      ],
      "name": "adminAddFeeFreeAddress",
      "outputs": [],
      "stateMutability": "nonpayable",
      "type": "function"
    },
    {
      "inputs": [
        {
          "internalType": "address",
          "name": "_m",
          "type": "address"
        }
      ],
      "name": "adminAddWhitelistManager",
      "outputs": [],
      "stateMutability": "nonpayable",
      "type": "function"
    },
    {
      "inputs": [
        {
          "internalType": "address",
          "name": "recipient",
          "type": "address"
        },
        {
          "internalType": "uint256",
          "name": "amount",
          "type": "uint256"
        }
      ],
      "name": "adminAppropriate",
      "outputs": [],
      "stateMutability": "nonpayable",
      "type": "function"
    },
    {
      "inputs": [
        {
          "internalType": "address",
          "name": "_c",
          "type": "address"
        }
      ],
      "name": "adminRemoveContract",
      "outputs": [],
      "stateMutability": "nonpayable",
      "type": "function"
    },
    {
      "inputs": [
        {
          "internalType": "address",
          "name": "_f",
          "type": "address"
        }
      ],
      "name": "adminRemoveFeeFreeAddress",
      "outputs": [],
      "stateMutability": "nonpayable",
      "type": "function"
    },
    {
      "inputs": [
        {
          "internalType": "address",
          "name": "_m",
          "type": "address"
        }
      ],
      "name": "adminRemoveWhitelistManager",
      "outputs": [],
      "stateMutability": "nonpayable",
      "type": "function"
    },
    {
      "inputs": [
        {
          "internalType": "uint256",
          "name": "_claimFee",
          "type": "uint256"
        }
      ],
      "name": "adminSetClaimFee",
      "outputs": [],
      "stateMutability": "nonpayable",
      "type": "function"
    },
    {
      "inputs": [
        {
          "internalType": "string",
          "name": "feeType",
          "type": "string"
        },
        {
          "internalType": "uint256",
          "name": "amount",
          "type": "uint256"
        }
      ],
      "name": "adminSetFee",
      "outputs": [],
      "stateMutability": "nonpayable",
      "type": "function"
    },
    {
      "inputs": [
        {
          "internalType": "address",
          "name": "_gauge",
          "type": "address"
        }
      ],
      "name": "adminSetGauge",
      "outputs": [],
      "stateMutability": "nonpayable",
      "type": "function"
    },
    {
      "inputs": [
        {
          "internalType": "address",
          "name": "_nut",
          "type": "address"
        }
      ],
      "name": "adminSetNut",
      "outputs": [],
      "stateMutability": "nonpayable",
      "type": "function"
    },
    {
      "inputs": [
        {
          "internalType": "address",
          "name": "_treasury",
          "type": "address"
        }
      ],
      "name": "adminSetTreasury",
      "outputs": [],
      "stateMutability": "nonpayable",
      "type": "function"
    },
    {
      "inputs": [],
      "name": "getClaimFee",
      "outputs": [
        {
          "internalType": "uint256",
          "name": "",
          "type": "uint256"
        }
      ],
      "stateMutability": "view",
      "type": "function"
    },
    {
      "inputs": [
        {
          "internalType": "string",
          "name": "feeType",
          "type": "string"
        }
      ],
      "name": "getFee",
      "outputs": [
        {
          "internalType": "uint256",
          "name": "",
          "type": "uint256"
        }
      ],
      "stateMutability": "view",
      "type": "function"
    },
    {
      "inputs": [
        {
          "internalType": "address",
          "name": "freeAddress",
          "type": "address"
        }
      ],
      "name": "getFeeFree",
      "outputs": [
        {
          "internalType": "bool",
          "name": "",
          "type": "bool"
        }
      ],
      "stateMutability": "view",
      "type": "function"
    },
    {
      "inputs": [],
      "name": "getGauge",
      "outputs": [
        {
          "internalType": "address",
          "name": "",
          "type": "address"
        }
      ],
      "stateMutability": "view",
      "type": "function"
    },
    {
      "inputs": [],
      "name": "getNut",
      "outputs": [
        {
          "internalType": "address",
          "name": "",
          "type": "address"
        }
      ],
      "stateMutability": "view",
      "type": "function"
    },
    {
      "inputs": [
        {
          "internalType": "address",
          "name": "pool",
          "type": "address"
        }
      ],
      "name": "getPoolFees",
      "outputs": [
        {
          "internalType": "uint256",
          "name": "",
          "type": "uint256"
        }
      ],
      "stateMutability": "view",
      "type": "function"
    },
    {
      "inputs": [
        {
          "internalType": "string",
          "name": "feeType",
          "type": "string"
        }
      ],
      "name": "getRevenue",
      "outputs": [
        {
          "internalType": "uint256",
          "name": "",
          "type": "uint256"
        }
      ],
      "stateMutability": "view",
      "type": "function"
    },
    {
      "inputs": [],
      "name": "getTreasury",
      "outputs": [
        {
          "internalType": "address",
          "name": "",
          "type": "address"
        }
      ],
      "stateMutability": "view",
      "type": "function"
    },
    {
      "inputs": [],
      "name": "nut",
      "outputs": [
        {
          "internalType": "address",
          "name": "",
          "type": "address"
        }
      ],
      "stateMutability": "view",
      "type": "function"
    },
    {
      "inputs": [],
      "name": "owner",
      "outputs": [
        {
          "internalType": "address",
          "name": "",
          "type": "address"
        }
      ],
      "stateMutability": "view",
      "type": "function"
    },
    {
      "inputs": [],
      "name": "renounceOwnership",
      "outputs": [],
      "stateMutability": "nonpayable",
      "type": "function"
    },
    {
      "inputs": [
        {
          "internalType": "address",
          "name": "payer",
          "type": "address"
        }
      ],
      "name": "setFeePayer",
      "outputs": [],
      "stateMutability": "nonpayable",
      "type": "function"
    },
    {
      "inputs": [
        {
          "internalType": "address",
          "name": "newOwner",
          "type": "address"
        }
      ],
      "name": "transferOwnership",
      "outputs": [],
      "stateMutability": "nonpayable",
      "type": "function"
    },
    {
      "inputs": [
        {
          "internalType": "string",
          "name": "feeType",
          "type": "string"
        },
        {
          "internalType": "address",
          "name": "community",
          "type": "address"
        },
        {
          "internalType": "address",
          "name": "pool",
          "type": "address"
        },
        {
          "internalType": "address",
          "name": "who",
          "type": "address"
        }
      ],
      "name": "updateLedger",
      "outputs": [],
      "stateMutability": "nonpayable",
      "type": "function"
    },
    {
      "inputs": [
        {
          "internalType": "address",
          "name": "c",
          "type": "address"
        }
      ],
      "name": "verifyContract",
      "outputs": [
        {
          "internalType": "bool",
          "name": "",
          "type": "bool"
        }
      ],
      "stateMutability": "view",
      "type": "function"
    }
  ],
  "bytecode": "0x608060405265b5e620f480006004553480156200001b57600080fd5b50604051620013ad380380620013ad8339810160408190526200003e91620001e5565b620000526200004c62000174565b62000178565b6001600160a01b0382166200009e576040517f08c379a0000000000000000000000000000000000000000000000000000000008152600401620000959062000253565b60405180910390fd5b6001600160a01b038116620000e1576040517f08c379a000000000000000000000000000000000000000000000000000000000815260040162000095906200021c565b600180546001600160a01b038085166001600160a01b0319928316811790935560028054918516919092161790556040517fc413f6d6aa634754c0e4bd4da08d769c76f8ceb02f301e200984cddc25c3229090600090a26040516001600160a01b038216907f569e9bf735346295cd14db6fc684d7cc520c93daef5cb121854fcf82cabb246190600090a250506200028a565b3390565b600080546001600160a01b038381166001600160a01b0319831681178455604051919092169283917f8be0079c531659141344cd1fd0a4f28419497f9722a3daafe3b4186f6b6457e09190a35050565b80516001600160a01b0381168114620001e057600080fd5b919050565b60008060408385031215620001f8578182fd5b6200020383620001c8565b91506200021360208401620001c8565b90509250929050565b6020808252600b908201527f496e76616c6964206e7574000000000000000000000000000000000000000000604082015260600190565b60208082526010908201527f496e76616c696420747265617375727900000000000000000000000000000000604082015260600190565b611113806200029a6000396000f3fe608060405234801561001057600080fd5b50600436106101495760003560e01c80630ad245181461014e57806315d3b7a0146101635780631d1d9b47146101815780632dfacc011461019457806338815f30146101a75780633b19e84a146101ba5780633d200b45146101c25780634ca1a919146101e25780634f361c9a146101f5578063525bc4051461020a57806354a7d6b11461021d578063715018a6146102305780637c68088c146102385780638da5cb5b1461024b5780638f0fed3714610253578063a62cde4114610266578063bfca341114610279578063c0e503e31461028c578063c10bde0b1461029f578063d2ae8e4e146102a7578063d5b555f9146102ba578063ddef1098146102cd578063ebe1893e146102e0578063ed1eee68146102f3578063f2803f0314610306578063f2fde38b1461030e578063f6080cb714610321575b600080fd5b61016161015c366004610cff565b610334565b005b61016b610385565b6040516101789190610e7e565b60405180910390f35b61016161018f366004610cff565b610394565b6101616101a2366004610cff565b610415565b6101616101b5366004610d9c565b61046d565b61016b6105f7565b6101d56101d0366004610cff565b610606565b6040516101789190610eab565b6101d56101f0366004610cff565b610628565b6101fd610646565b604051610178919061106e565b610161610218366004610cff565b61064c565b61016161022b366004610cff565b6106a0565b6101616106f4565b610161610246366004610cff565b610708565b61016b61075b565b610161610261366004610e4a565b61076a565b610161610274366004610e08565b610777565b610161610287366004610cff565b61080e565b61016161029a366004610d19565b61085f565b61016b6108bb565b6101616102b5366004610cff565b6108ca565b6101616102c8366004610cff565b610942565b6101fd6102db366004610d62565b610993565b6101616102ee366004610cff565b6109d6565b6101fd610301366004610d62565b610a2a565b61016b610a41565b61016161031c366004610cff565b610a50565b6101fd61032f366004610cff565b610a8a565b61033c610aa5565b6001600160a01b038116600081815260096020526040808220805460ff19169055517f44d16bd10bf6b2290eeb91380bb96a65f0ff9abbe08d52dfda440dd2dac0ac9d9190a250565b6002546001600160a01b031681565b61039c610aa5565b6001600160a01b0381166103cb5760405162461bcd60e51b81526004016103c290610fc2565b60405180910390fd5b600180546001600160a01b0319166001600160a01b0383169081179091556040517fc413f6d6aa634754c0e4bd4da08d769c76f8ceb02f301e200984cddc25c3229090600090a250565b61041d610aa5565b600380546001600160a01b0319166001600160a01b0383811691909117918290556040519116907feee5255ef7ccbbd434378c505e1e8e7e5f174b406be9189cc7f6bba95eb4e59590600090a250565b6001600160a01b0381166000908152600b602052604090205460ff1615610493576105f1565b3360009081526009602052604090205460ff16806104c057503360009081526008602052604090205460ff165b6104dc5760405162461bcd60e51b81526004016103c290611021565b6000846040516020016104ef9190610e62565b60408051601f19818403018152918152815160209283012060008181526005909352912054909150806105235750506105f1565b60008281526006602052604090205461053c9082610ae4565b6000838152600660205260409020556001600160a01b03841615610597576001600160a01b03841660009081526007602052604090205461057d9082610ae4565b6001600160a01b0385166000908152600760205260409020555b826001600160a01b0316846001600160a01b0316866001600160a01b03167fa879e01c9fc47a1348066fff6c2365ecabf41d80ece4edbc8cee2290b8c7f41589856040516105e6929190610eb6565b60405180910390a450505b50505050565b6001546001600160a01b031690565b6001600160a01b0381166000908152600a602052604090205460ff165b919050565b6001600160a01b03166000908152600b602052604090205460ff1690565b60045490565b610654610aa5565b6001600160a01b038116600081815260096020526040808220805460ff19166001179055517fb9e3cfe53b90de6b4f980740b1c8a791f609b238f8edc62b02144af91ab28f049190a250565b6106a8610aa5565b6001600160a01b0381166000818152600a6020526040808220805460ff19166001179055517f669c450abcac951d07d0e129806bef1f6cd6ff18eb85ead24bba717ec48228519190a250565b6106fc610aa5565b6107066000610af7565b565b3360009081526009602052604090205460ff166107375760405162461bcd60e51b81526004016103c290611021565b6001600160a01b03166000908152600860205260409020805460ff19166001179055565b6000546001600160a01b031690565b610772610aa5565b600455565b61077f610aa5565b8060056000846040516020016107959190610e62565b60405160208183030381529060405280519060200120815260200190815260200160002081905550816040516107cb9190610e62565b60405180910390207f58747ad374788daae8193883efaa1210ccc2c4072fbf0f0d707893b316a9505e82604051610802919061106e565b60405180910390a25050565b610816610aa5565b6001600160a01b0381166000818152600a6020526040808220805460ff19169055517f43b2164e2d80ed67b284a6645edeb8cd83aeddcaceb805b12508d2861c3a2f549190a250565b610867610aa5565b60025461087e906001600160a01b03168383610b47565b7f6ecaeeea6fc6a486d45d095dd86e8f63075a2d9b145429cef99f9a8ffd3e757382826040516108af929190610e92565b60405180910390a15050565b6002546001600160a01b031690565b6108d2610aa5565b6001600160a01b0381166108f85760405162461bcd60e51b81526004016103c290610f26565b600280546001600160a01b0319166001600160a01b0383169081179091556040517f569e9bf735346295cd14db6fc684d7cc520c93daef5cb121854fcf82cabb246190600090a250565b61094a610aa5565b6001600160a01b0381166000818152600b6020526040808220805460ff19169055517f323b5c9691be609941beeb11b89c5d77cbbdf8d283fc180625f83e9400dd247d9190a250565b600060066000836040516020016109aa9190610e62565b604051602081830303815290604052805190602001208152602001908152602001600020549050919050565b6109de610aa5565b6001600160a01b0381166000818152600b6020526040808220805460ff19166001179055517f7c68847047eda2d5fc2fd0874dcfa06cc4f35e630613ab24b1fdda1204623bce9190a250565b600060056000836040516020016109aa9190610e62565b6003546001600160a01b031690565b610a58610aa5565b6001600160a01b038116610a7e5760405162461bcd60e51b81526004016103c290610f50565b610a8781610af7565b50565b6001600160a01b031660009081526007602052604090205490565b610aad610b53565b6001600160a01b0316610abe61075b565b6001600160a01b0316146107065760405162461bcd60e51b81526004016103c290610fec565b6000610af08284611077565b9392505050565b600080546001600160a01b038381166001600160a01b0319831681178455604051919092169283917f8be0079c531659141344cd1fd0a4f28419497f9722a3daafe3b4186f6b6457e09190a35050565b826105f1818484610b57565b3390565b610bad8363a9059cbb60e01b8484604051602401610b76929190610e92565b60408051601f198184030181529190526020810180516001600160e01b03166001600160e01b031990931692909217909152610bb2565b505050565b600080836001600160a01b031683604051610bcd9190610e62565b6000604051808303816000865af19150503d8060008114610c0a576040519150601f19603f3d011682016040523d82523d6000602084013e610c0f565b606091505b509150915081610c315760405162461bcd60e51b81526004016103c290610f96565b8051156105f15780806020019051810190610c4c9190610d42565b6105f15760405162461bcd60e51b81526004016103c290610ef1565b80356001600160a01b038116811461062357600080fd5b600082601f830112610c8f578081fd5b81356001600160401b0380821115610ca957610ca96110c7565b604051601f8301601f191681016020018281118282101715610ccd57610ccd6110c7565b604052828152848301602001861015610ce4578384fd5b82602086016020830137918201602001929092529392505050565b600060208284031215610d10578081fd5b610af082610c68565b60008060408385031215610d2b578081fd5b610d3483610c68565b946020939093013593505050565b600060208284031215610d53578081fd5b81518015158114610af0578182fd5b600060208284031215610d73578081fd5b81356001600160401b03811115610d88578182fd5b610d9484828501610c7f565b949350505050565b60008060008060808587031215610db1578182fd5b84356001600160401b03811115610dc6578283fd5b610dd287828801610c7f565b945050610de160208601610c68565b9250610def60408601610c68565b9150610dfd60608601610c68565b905092959194509250565b60008060408385031215610e1a578182fd5b82356001600160401b03811115610e2f578283fd5b610e3b85828601610c7f565b95602094909401359450505050565b600060208284031215610e5b578081fd5b5035919050565b60008251610e7481846020870161109b565b9190910192915050565b6001600160a01b0391909116815260200190565b6001600160a01b03929092168252602082015260400190565b901515815260200190565b6000604082528351806040840152610ed581606085016020880161109b565b602083019390935250601f91909101601f191601606001919050565b6020808252818101527f45524332303a206f7065726174696f6e20646964206e6f742073756363656564604082015260600190565b60208082526010908201526f496e76616c696465206164647265737360801b604082015260600190565b60208082526026908201527f4f776e61626c653a206e6577206f776e657220697320746865207a65726f206160408201526564647265737360d01b606082015260800190565b602080825260129082015271115490cc8c0e8818d85b1b0819985a5b195960721b604082015260600190565b60208082526010908201526f496e76616c696420747265617375727960801b604082015260600190565b6020808252818101527f4f776e61626c653a2063616c6c6572206973206e6f7420746865206f776e6572604082015260600190565b6020808252602d908201527f5065726d697373696f6e2064656e6965643a2063616c6c6572206973206e6f7460408201526c081a5b881dda1a5d195b1a5cdd609a1b606082015260800190565b90815260200190565b6000821982111561109657634e487b7160e01b81526011600452602481fd5b500190565b60005b838110156110b657818101518382015260200161109e565b838111156105f15750506000910152565b634e487b7160e01b600052604160045260246000fdfea2646970667358221220aa2fc6d5e486e05e0a62554299fb6a7c22ffaa00572c7294c11e09031d18f22064736f6c63430008000033",
  "linkReferences": {},
  "deployedLinkReferences": {}
}