{
  "_format": "hh-sol-artifact-1",
  "contractName": "Committee",
  "sourceName": "contracts/Committee.sol",
  "abi": [
    {
      "inputs": [
        {
          "internalType": "address",
          "name": "_treasury",
          "type": "address"
        },
        {
          "internalType": "address",
          "name": "_nut",
          "type": "address"
        }
      ],
      "stateMutability": "nonpayable",
      "type": "constructor"
    },
    {
      "anonymous": false,
      "inputs": [
        {
          "indexed": true,
          "internalType": "address",
          "name": "c",
          "type": "address"
        }
      ],
      "name": "AdminAddContract",
      "type": "event"
    },
    {
      "anonymous": false,
      "inputs": [
        {
          "indexed": true,
          "internalType": "address",
          "name": "feeFree",
          "type": "address"
        }
      ],
      "name": "AdminAddFeeFreeAddress",
      "type": "event"
    },
    {
      "anonymous": false,
      "inputs": [
        {
          "indexed": true,
          "internalType": "address",
          "name": "wm",
          "type": "address"
        }
      ],
      "name": "AdminAddWhitelistManager",
      "type": "event"
    },
    {
      "anonymous": false,
      "inputs": [
        {
          "indexed": true,
          "internalType": "address",
          "name": "c",
          "type": "address"
        }
      ],
      "name": "AdminRemoveContract",
      "type": "event"
    },
    {
      "anonymous": false,
      "inputs": [
        {
          "indexed": true,
          "internalType": "address",
          "name": "feeFree",
          "type": "address"
        }
      ],
      "name": "AdminRemoveFeeFreeAddress",
      "type": "event"
    },
    {
      "anonymous": false,
      "inputs": [
        {
          "indexed": true,
          "internalType": "address",
          "name": "wm",
          "type": "address"
        }
      ],
      "name": "AdminRemoveWhitelistManager",
      "type": "event"
    },
    {
      "anonymous": false,
      "inputs": [
        {
          "indexed": true,
          "internalType": "address",
          "name": "gauge",
          "type": "address"
        }
      ],
      "name": "AdminSetGauge",
      "type": "event"
    },
    {
      "anonymous": false,
      "inputs": [
        {
          "indexed": true,
          "internalType": "address",
          "name": "nut",
          "type": "address"
        }
      ],
      "name": "AdminSetNut",
      "type": "event"
    },
    {
      "anonymous": false,
      "inputs": [
        {
          "indexed": true,
          "internalType": "address",
          "name": "treasury",
          "type": "address"
        }
      ],
      "name": "AdminSetTreasury",
      "type": "event"
    },
    {
      "anonymous": false,
      "inputs": [
        {
          "indexed": true,
          "internalType": "string",
          "name": "feeType",
          "type": "string"
        },
        {
          "indexed": false,
          "internalType": "uint256",
          "name": "amount",
          "type": "uint256"
        }
      ],
      "name": "FeeSet",
      "type": "event"
    },
    {
      "anonymous": false,
      "inputs": [
        {
          "indexed": false,
          "internalType": "address",
          "name": "recipient",
          "type": "address"
        },
        {
          "indexed": false,
          "internalType": "uint256",
          "name": "amount",
          "type": "uint256"
        }
      ],
      "name": "NewAppropriation",
      "type": "event"
    },
    {
      "anonymous": false,
      "inputs": [
        {
          "indexed": false,
          "internalType": "string",
          "name": "feeType",
          "type": "string"
        },
        {
          "indexed": true,
          "internalType": "address",
          "name": "community",
          "type": "address"
        },
        {
          "indexed": true,
          "internalType": "address",
          "name": "pool",
          "type": "address"
        },
        {
          "indexed": true,
          "internalType": "address",
          "name": "who",
          "type": "address"
        },
        {
          "indexed": false,
          "internalType": "uint256",
          "name": "amount",
          "type": "uint256"
        }
      ],
      "name": "NewRevenue",
      "type": "event"
    },
    {
      "anonymous": false,
      "inputs": [
        {
          "indexed": true,
          "internalType": "address",
          "name": "previousOwner",
          "type": "address"
        },
        {
          "indexed": true,
          "internalType": "address",
          "name": "newOwner",
          "type": "address"
        }
      ],
      "name": "OwnershipTransferred",
      "type": "event"
    },
    {
      "inputs": [
        {
          "internalType": "address",
          "name": "_c",
          "type": "address"
        }
      ],
      "name": "adminAddContract",
      "outputs": [],
      "stateMutability": "nonpayable",
      "type": "function"
    },
    {
      "inputs": [
        {
          "internalType": "address",
          "name": "_f",
          "type": "address"
        }
      ],
      "name": "adminAddFeeFreeAddress",
      "outputs": [],
      "stateMutability": "nonpayable",
      "type": "function"
    },
    {
      "inputs": [
        {
          "internalType": "address",
          "name": "_m",
          "type": "address"
        }
      ],
      "name": "adminAddWhitelistManager",
      "outputs": [],
      "stateMutability": "nonpayable",
      "type": "function"
    },
    {
      "inputs": [
        {
          "internalType": "address",
          "name": "recipient",
          "type": "address"
        },
        {
          "internalType": "uint256",
          "name": "amount",
          "type": "uint256"
        }
      ],
      "name": "adminAppropriate",
      "outputs": [],
      "stateMutability": "nonpayable",
      "type": "function"
    },
    {
      "inputs": [
        {
          "internalType": "address",
          "name": "_c",
          "type": "address"
        }
      ],
      "name": "adminRemoveContract",
      "outputs": [],
      "stateMutability": "nonpayable",
      "type": "function"
    },
    {
      "inputs": [
        {
          "internalType": "address",
          "name": "_f",
          "type": "address"
        }
      ],
      "name": "adminRemoveFeeFreeAddress",
      "outputs": [],
      "stateMutability": "nonpayable",
      "type": "function"
    },
    {
      "inputs": [
        {
          "internalType": "address",
          "name": "_m",
          "type": "address"
        }
      ],
      "name": "adminRemoveWhitelistManager",
      "outputs": [],
      "stateMutability": "nonpayable",
      "type": "function"
    },
    {
      "inputs": [
        {
          "internalType": "string",
          "name": "feeType",
          "type": "string"
        },
        {
          "internalType": "uint256",
          "name": "amount",
          "type": "uint256"
        }
      ],
      "name": "adminSetFee",
      "outputs": [],
      "stateMutability": "nonpayable",
      "type": "function"
    },
    {
      "inputs": [
        {
          "internalType": "address",
          "name": "_gauge",
          "type": "address"
        }
      ],
      "name": "adminSetGauge",
      "outputs": [],
      "stateMutability": "nonpayable",
      "type": "function"
    },
    {
      "inputs": [
        {
          "internalType": "address",
          "name": "_nut",
          "type": "address"
        }
      ],
      "name": "adminSetNut",
      "outputs": [],
      "stateMutability": "nonpayable",
      "type": "function"
    },
    {
      "inputs": [
        {
          "internalType": "address",
          "name": "_treasury",
          "type": "address"
        }
      ],
      "name": "adminSetTreasury",
      "outputs": [],
      "stateMutability": "nonpayable",
      "type": "function"
    },
    {
      "inputs": [
        {
          "internalType": "string",
          "name": "feeType",
          "type": "string"
        }
      ],
      "name": "getFee",
      "outputs": [
        {
          "internalType": "uint256",
          "name": "",
          "type": "uint256"
        }
      ],
      "stateMutability": "view",
      "type": "function"
    },
    {
      "inputs": [
        {
          "internalType": "address",
          "name": "freeAddress",
          "type": "address"
        }
      ],
      "name": "getFeeFree",
      "outputs": [
        {
          "internalType": "bool",
          "name": "",
          "type": "bool"
        }
      ],
      "stateMutability": "view",
      "type": "function"
    },
    {
      "inputs": [],
      "name": "getGauge",
      "outputs": [
        {
          "internalType": "address",
          "name": "",
          "type": "address"
        }
      ],
      "stateMutability": "view",
      "type": "function"
    },
    {
      "inputs": [],
      "name": "getNut",
      "outputs": [
        {
          "internalType": "address",
          "name": "",
          "type": "address"
        }
      ],
      "stateMutability": "view",
      "type": "function"
    },
    {
      "inputs": [
        {
          "internalType": "address",
          "name": "pool",
          "type": "address"
        }
      ],
      "name": "getPoolFees",
      "outputs": [
        {
          "internalType": "uint256",
          "name": "",
          "type": "uint256"
        }
      ],
      "stateMutability": "view",
      "type": "function"
    },
    {
      "inputs": [
        {
          "internalType": "string",
          "name": "feeType",
          "type": "string"
        }
      ],
      "name": "getRevenue",
      "outputs": [
        {
          "internalType": "uint256",
          "name": "",
          "type": "uint256"
        }
      ],
      "stateMutability": "view",
      "type": "function"
    },
    {
      "inputs": [],
      "name": "getTreasury",
      "outputs": [
        {
          "internalType": "address",
          "name": "",
          "type": "address"
        }
      ],
      "stateMutability": "view",
      "type": "function"
    },
    {
      "inputs": [],
      "name": "nut",
      "outputs": [
        {
          "internalType": "address",
          "name": "",
          "type": "address"
        }
      ],
      "stateMutability": "view",
      "type": "function"
    },
    {
      "inputs": [],
      "name": "owner",
      "outputs": [
        {
          "internalType": "address",
          "name": "",
          "type": "address"
        }
      ],
      "stateMutability": "view",
      "type": "function"
    },
    {
      "inputs": [],
      "name": "renounceOwnership",
      "outputs": [],
      "stateMutability": "nonpayable",
      "type": "function"
    },
    {
      "inputs": [
        {
          "internalType": "address",
          "name": "payer",
          "type": "address"
        }
      ],
      "name": "setFeePayer",
      "outputs": [],
      "stateMutability": "nonpayable",
      "type": "function"
    },
    {
      "inputs": [
        {
          "internalType": "address",
          "name": "newOwner",
          "type": "address"
        }
      ],
      "name": "transferOwnership",
      "outputs": [],
      "stateMutability": "nonpayable",
      "type": "function"
    },
    {
      "inputs": [],
      "name": "treasury",
      "outputs": [
        {
          "internalType": "address",
          "name": "",
          "type": "address"
        }
      ],
      "stateMutability": "view",
      "type": "function"
    },
    {
      "inputs": [
        {
          "internalType": "string",
          "name": "feeType",
          "type": "string"
        },
        {
          "internalType": "address",
          "name": "community",
          "type": "address"
        },
        {
          "internalType": "address",
          "name": "pool",
          "type": "address"
        },
        {
          "internalType": "address",
          "name": "who",
          "type": "address"
        }
      ],
      "name": "updateLedger",
      "outputs": [],
      "stateMutability": "nonpayable",
      "type": "function"
    },
    {
      "inputs": [
        {
          "internalType": "address",
          "name": "c",
          "type": "address"
        }
      ],
      "name": "verifyContract",
      "outputs": [
        {
          "internalType": "bool",
          "name": "",
          "type": "bool"
        }
      ],
      "stateMutability": "view",
      "type": "function"
    }
  ],
  "bytecode": "0x60806040523480156200001157600080fd5b506040516200159d3803806200159d8339810160408190526200003491620001a7565b620000486200004262000136565b6200013a565b6001600160a01b0382166200007a5760405162461bcd60e51b8152600401620000719062000203565b60405180910390fd5b6001600160a01b038116620000a35760405162461bcd60e51b81526004016200007190620001de565b600180546001600160a01b038085166001600160a01b0319928316811790935560028054918516919092161790556040517fc413f6d6aa634754c0e4bd4da08d769c76f8ceb02f301e200984cddc25c3229090600090a26040516001600160a01b038216907f569e9bf735346295cd14db6fc684d7cc520c93daef5cb121854fcf82cabb246190600090a250506200022d565b3390565b600080546001600160a01b038381166001600160a01b0319831681178455604051919092169283917f8be0079c531659141344cd1fd0a4f28419497f9722a3daafe3b4186f6b6457e09190a35050565b80516001600160a01b0381168114620001a257600080fd5b919050565b60008060408385031215620001ba578182fd5b620001c5836200018a565b9150620001d5602084016200018a565b90509250929050565b6020808252600b908201526a125b9d985b1a59081b9d5d60aa1b604082015260600190565b60208082526010908201526f496e76616c696420747265617375727960801b604082015260600190565b611360806200023d6000396000f3fe608060405234801561001057600080fd5b506004361061013e5760003560e01c80630ad245181461014357806315d3b7a0146101585780631d1d9b47146101765780632dfacc011461018957806338815f301461019c5780633b19e84a146101af5780633d200b45146101b75780634ca1a919146101d7578063525bc405146101ea57806354a7d6b1146101fd57806361d027b314610210578063715018a6146102185780637c68088c146102205780638da5cb5b14610233578063a62cde411461023b578063bfca34111461024e578063c0e503e314610261578063c10bde0b14610274578063d2ae8e4e1461027c578063d5b555f91461028f578063ddef1098146102a2578063ebe1893e146102c2578063ed1eee68146102d5578063f2803f03146102e8578063f2fde38b146102f0578063f6080cb714610303575b600080fd5b610156610151366004610f64565b610316565b005b6101606103a7565b60405161016d91906110cb565b60405180910390f35b610156610184366004610f64565b6103b6565b610156610197366004610f64565b610465565b6101566101aa366004611001565b6104f4565b61016061067e565b6101ca6101c5366004610f64565b61068d565b60405161016d91906110f8565b6101ca6101e5366004610f64565b6106af565b6101566101f8366004610f64565b6106cd565b61015661020b366004610f64565b610758565b6101606107e3565b6101566107f2565b61015661022e366004610f64565b61083d565b610160610890565b61015661024936600461106d565b61089f565b61015661025c366004610f64565b61096d565b61015661026f366004610f7e565b6109f5565b610160610a88565b61015661028a366004610f64565b610a97565b61015661029d366004610f64565b610b46565b6102b56102b0366004610fc7565b610bce565b60405161016d91906112bb565b6101566102d0366004610f64565b610c11565b6102b56102e3366004610fc7565b610c9c565b610160610cb3565b6101566102fe366004610f64565b610cc2565b6102b5610311366004610f64565b610d33565b61031e610d4e565b6001600160a01b031661032f610890565b6001600160a01b03161461035e5760405162461bcd60e51b815260040161035590611239565b60405180910390fd5b6001600160a01b038116600081815260086020526040808220805460ff19169055517f44d16bd10bf6b2290eeb91380bb96a65f0ff9abbe08d52dfda440dd2dac0ac9d9190a250565b6002546001600160a01b031681565b6103be610d4e565b6001600160a01b03166103cf610890565b6001600160a01b0316146103f55760405162461bcd60e51b815260040161035590611239565b6001600160a01b03811661041b5760405162461bcd60e51b81526004016103559061120f565b600180546001600160a01b0319166001600160a01b0383169081179091556040517fc413f6d6aa634754c0e4bd4da08d769c76f8ceb02f301e200984cddc25c3229090600090a250565b61046d610d4e565b6001600160a01b031661047e610890565b6001600160a01b0316146104a45760405162461bcd60e51b815260040161035590611239565b600380546001600160a01b0319166001600160a01b0383811691909117918290556040519116907feee5255ef7ccbbd434378c505e1e8e7e5f174b406be9189cc7f6bba95eb4e59590600090a250565b6001600160a01b0381166000908152600a602052604090205460ff161561051a57610678565b3360009081526008602052604090205460ff168061054757503360009081526007602052604090205460ff165b6105635760405162461bcd60e51b81526004016103559061126e565b60008460405160200161057691906110af565b60408051601f19818403018152918152815160209283012060008181526004909352912054909150806105aa575050610678565b6000828152600560205260409020546105c39082610d52565b6000838152600560205260409020556001600160a01b0384161561061e576001600160a01b0384166000908152600660205260409020546106049082610d52565b6001600160a01b0385166000908152600660205260409020555b826001600160a01b0316846001600160a01b0316866001600160a01b03167fa879e01c9fc47a1348066fff6c2365ecabf41d80ece4edbc8cee2290b8c7f415898560405161066d929190611103565b60405180910390a450505b50505050565b6001546001600160a01b031690565b6001600160a01b03811660009081526009602052604090205460ff165b919050565b6001600160a01b03166000908152600a602052604090205460ff1690565b6106d5610d4e565b6001600160a01b03166106e6610890565b6001600160a01b03161461070c5760405162461bcd60e51b815260040161035590611239565b6001600160a01b038116600081815260086020526040808220805460ff19166001179055517fb9e3cfe53b90de6b4f980740b1c8a791f609b238f8edc62b02144af91ab28f049190a250565b610760610d4e565b6001600160a01b0316610771610890565b6001600160a01b0316146107975760405162461bcd60e51b815260040161035590611239565b6001600160a01b038116600081815260096020526040808220805460ff19166001179055517f669c450abcac951d07d0e129806bef1f6cd6ff18eb85ead24bba717ec48228519190a250565b6001546001600160a01b031681565b6107fa610d4e565b6001600160a01b031661080b610890565b6001600160a01b0316146108315760405162461bcd60e51b815260040161035590611239565b61083b6000610d65565b565b3360009081526008602052604090205460ff1661086c5760405162461bcd60e51b81526004016103559061126e565b6001600160a01b03166000908152600760205260409020805460ff19166001179055565b6000546001600160a01b031690565b6108a7610d4e565b6001600160a01b03166108b8610890565b6001600160a01b0316146108de5760405162461bcd60e51b815260040161035590611239565b8060046000846040516020016108f491906110af565b604051602081830303815290604052805190602001208152602001908152602001600020819055508160405161092a91906110af565b60405180910390207f58747ad374788daae8193883efaa1210ccc2c4072fbf0f0d707893b316a9505e8260405161096191906112bb565b60405180910390a25050565b610975610d4e565b6001600160a01b0316610986610890565b6001600160a01b0316146109ac5760405162461bcd60e51b815260040161035590611239565b6001600160a01b038116600081815260096020526040808220805460ff19169055517f43b2164e2d80ed67b284a6645edeb8cd83aeddcaceb805b12508d2861c3a2f549190a250565b6109fd610d4e565b6001600160a01b0316610a0e610890565b6001600160a01b031614610a345760405162461bcd60e51b815260040161035590611239565b600254610a4b906001600160a01b03168383610db5565b7f6ecaeeea6fc6a486d45d095dd86e8f63075a2d9b145429cef99f9a8ffd3e75738282604051610a7c9291906110df565b60405180910390a15050565b6002546001600160a01b031690565b610a9f610d4e565b6001600160a01b0316610ab0610890565b6001600160a01b031614610ad65760405162461bcd60e51b815260040161035590611239565b6001600160a01b038116610afc5760405162461bcd60e51b815260040161035590611173565b600280546001600160a01b0319166001600160a01b0383169081179091556040517f569e9bf735346295cd14db6fc684d7cc520c93daef5cb121854fcf82cabb246190600090a250565b610b4e610d4e565b6001600160a01b0316610b5f610890565b6001600160a01b031614610b855760405162461bcd60e51b815260040161035590611239565b6001600160a01b0381166000818152600a6020526040808220805460ff19169055517f323b5c9691be609941beeb11b89c5d77cbbdf8d283fc180625f83e9400dd247d9190a250565b60006005600083604051602001610be591906110af565b604051602081830303815290604052805190602001208152602001908152602001600020549050919050565b610c19610d4e565b6001600160a01b0316610c2a610890565b6001600160a01b031614610c505760405162461bcd60e51b815260040161035590611239565b6001600160a01b0381166000818152600a6020526040808220805460ff19166001179055517f7c68847047eda2d5fc2fd0874dcfa06cc4f35e630613ab24b1fdda1204623bce9190a250565b60006004600083604051602001610be591906110af565b6003546001600160a01b031690565b610cca610d4e565b6001600160a01b0316610cdb610890565b6001600160a01b031614610d015760405162461bcd60e51b815260040161035590611239565b6001600160a01b038116610d275760405162461bcd60e51b81526004016103559061119d565b610d3081610d65565b50565b6001600160a01b031660009081526006602052604090205490565b3390565b6000610d5e82846112c4565b9392505050565b600080546001600160a01b038381166001600160a01b0319831681178455604051919092169283917f8be0079c531659141344cd1fd0a4f28419497f9722a3daafe3b4186f6b6457e09190a35050565b82610678818484610e128363a9059cbb60e01b8484604051602401610ddb9291906110df565b60408051601f198184030181529190526020810180516001600160e01b03166001600160e01b031990931692909217909152610e17565b505050565b600080836001600160a01b031683604051610e3291906110af565b6000604051808303816000865af19150503d8060008114610e6f576040519150601f19603f3d011682016040523d82523d6000602084013e610e74565b606091505b509150915081610e965760405162461bcd60e51b8152600401610355906111e3565b8051156106785780806020019051810190610eb19190610fa7565b6106785760405162461bcd60e51b81526004016103559061113e565b80356001600160a01b03811681146106aa57600080fd5b600082601f830112610ef4578081fd5b81356001600160401b0380821115610f0e57610f0e611314565b604051601f8301601f191681016020018281118282101715610f3257610f32611314565b604052828152848301602001861015610f49578384fd5b82602086016020830137918201602001929092529392505050565b600060208284031215610f75578081fd5b610d5e82610ecd565b60008060408385031215610f90578081fd5b610f9983610ecd565b946020939093013593505050565b600060208284031215610fb8578081fd5b81518015158114610d5e578182fd5b600060208284031215610fd8578081fd5b81356001600160401b03811115610fed578182fd5b610ff984828501610ee4565b949350505050565b60008060008060808587031215611016578182fd5b84356001600160401b0381111561102b578283fd5b61103787828801610ee4565b94505061104660208601610ecd565b925061105460408601610ecd565b915061106260608601610ecd565b905092959194509250565b6000806040838503121561107f578182fd5b82356001600160401b03811115611094578283fd5b6110a085828601610ee4565b95602094909401359450505050565b600082516110c18184602087016112e8565b9190910192915050565b6001600160a01b0391909116815260200190565b6001600160a01b03929092168252602082015260400190565b901515815260200190565b60006040825283518060408401526111228160608501602088016112e8565b602083019390935250601f91909101601f191601606001919050565b6020808252818101527f45524332303a206f7065726174696f6e20646964206e6f742073756363656564604082015260600190565b60208082526010908201526f496e76616c696465206164647265737360801b604082015260600190565b60208082526026908201527f4f776e61626c653a206e6577206f776e657220697320746865207a65726f206160408201526564647265737360d01b606082015260800190565b602080825260129082015271115490cc8c0e8818d85b1b0819985a5b195960721b604082015260600190565b60208082526010908201526f496e76616c696420747265617375727960801b604082015260600190565b6020808252818101527f4f776e61626c653a2063616c6c6572206973206e6f7420746865206f776e6572604082015260600190565b6020808252602d908201527f5065726d697373696f6e2064656e6965643a2063616c6c6572206973206e6f7460408201526c081a5b881dda1a5d195b1a5cdd609a1b606082015260800190565b90815260200190565b600082198211156112e357634e487b7160e01b81526011600452602481fd5b500190565b60005b838110156113035781810151838201526020016112eb565b838111156106785750506000910152565b634e487b7160e01b600052604160045260246000fdfea2646970667358221220b9be54d6b94b907c003cc0c4afe3a550b0d664ab256a0c9490a88dfb241756ee64736f6c63430008000033",
  "linkReferences": {},
  "deployedLinkReferences": {}
}