{
  "_format": "hh-sol-artifact-1",
  "contractName": "CurationGauge",
  "sourceName": "contracts/dapps/curation/CurationGauge.sol",
  "abi": [
    {
      "inputs": [
        {
          "internalType": "address",
          "name": "_community",
          "type": "address"
        },
        {
          "internalType": "string",
          "name": "_name",
          "type": "string"
        },
        {
          "internalType": "address",
          "name": "_recipient",
          "type": "address"
        }
      ],
      "stateMutability": "nonpayable",
      "type": "constructor"
    },
    {
      "anonymous": false,
      "inputs": [
        {
          "indexed": true,
          "internalType": "address",
          "name": "oldRecipent",
          "type": "address"
        },
        {
          "indexed": true,
          "internalType": "address",
          "name": "newRecipient",
          "type": "address"
        }
      ],
      "name": "ChangeRecipient",
      "type": "event"
    },
    {
      "anonymous": false,
      "inputs": [
        {
          "indexed": true,
          "internalType": "uint256",
          "name": "amount",
          "type": "uint256"
        }
      ],
      "name": "WithdrawRewardsToRecipient",
      "type": "event"
    },
    {
      "inputs": [
        {
          "internalType": "address",
          "name": "_recipient",
          "type": "address"
        }
      ],
      "name": "adminSetRecipient",
      "outputs": [],
      "stateMutability": "nonpayable",
      "type": "function"
    },
    {
      "inputs": [],
      "name": "getCommunity",
      "outputs": [
        {
          "internalType": "address",
          "name": "",
          "type": "address"
        }
      ],
      "stateMutability": "view",
      "type": "function"
    },
    {
      "inputs": [],
      "name": "getFactory",
      "outputs": [
        {
          "internalType": "address",
          "name": "",
          "type": "address"
        }
      ],
      "stateMutability": "view",
      "type": "function"
    },
    {
      "inputs": [],
      "name": "getTotalStakedAmount",
      "outputs": [
        {
          "internalType": "uint256",
          "name": "",
          "type": "uint256"
        }
      ],
      "stateMutability": "view",
      "type": "function"
    },
    {
      "inputs": [
        {
          "internalType": "address",
          "name": "user",
          "type": "address"
        }
      ],
      "name": "getUserStakedAmount",
      "outputs": [
        {
          "internalType": "uint256",
          "name": "",
          "type": "uint256"
        }
      ],
      "stateMutability": "view",
      "type": "function"
    },
    {
      "inputs": [],
      "name": "name",
      "outputs": [
        {
          "internalType": "string",
          "name": "",
          "type": "string"
        }
      ],
      "stateMutability": "view",
      "type": "function"
    },
    {
      "inputs": [],
      "name": "recipient",
      "outputs": [
        {
          "internalType": "address",
          "name": "",
          "type": "address"
        }
      ],
      "stateMutability": "view",
      "type": "function"
    },
    {
      "inputs": [],
      "name": "rewardToken",
      "outputs": [
        {
          "internalType": "address",
          "name": "",
          "type": "address"
        }
      ],
      "stateMutability": "view",
      "type": "function"
    },
    {
      "inputs": [],
      "name": "withdrawRewardsToRecipient",
      "outputs": [],
      "stateMutability": "nonpayable",
      "type": "function"
    }
  ],
  "bytecode": "0x60c06040523480156200001157600080fd5b5060405162001346380380620013468339818101604052810190620000379190620002a4565b60016000819055503373ffffffffffffffffffffffffffffffffffffffff1660808173ffffffffffffffffffffffffffffffffffffffff1660601b815250508273ffffffffffffffffffffffffffffffffffffffff1660a08173ffffffffffffffffffffffffffffffffffffffff1660601b815250508160019080519060200190620000c59291906200016b565b5080600260006101000a81548173ffffffffffffffffffffffffffffffffffffffff021916908373ffffffffffffffffffffffffffffffffffffffff1602179055508073ffffffffffffffffffffffffffffffffffffffff16600073ffffffffffffffffffffffffffffffffffffffff167f68dd0f2c9ca18dce1e14e2e3f99123a6292bfde61698d10163545ee09a2bb7bb60405160405180910390a350505062000492565b8280546200017990620003e4565b90600052602060002090601f0160209004810192826200019d5760008555620001e9565b82601f10620001b857805160ff1916838001178555620001e9565b82800160010185558215620001e9579182015b82811115620001e8578251825591602001919060010190620001cb565b5b509050620001f89190620001fc565b5090565b5b8082111562000217576000816000905550600101620001fd565b5090565b6000620002326200022c8462000347565b62000313565b9050828152602081018484840111156200024b57600080fd5b62000258848285620003ae565b509392505050565b600081519050620002718162000478565b92915050565b600082601f8301126200028957600080fd5b81516200029b8482602086016200021b565b91505092915050565b600080600060608486031215620002ba57600080fd5b6000620002ca8682870162000260565b935050602084015167ffffffffffffffff811115620002e857600080fd5b620002f68682870162000277565b9250506040620003098682870162000260565b9150509250925092565b6000604051905081810181811067ffffffffffffffff821117156200033d576200033c62000449565b5b8060405250919050565b600067ffffffffffffffff82111562000365576200036462000449565b5b601f19601f8301169050602081019050919050565b600062000387826200038e565b9050919050565b600073ffffffffffffffffffffffffffffffffffffffff82169050919050565b60005b83811015620003ce578082015181840152602081019050620003b1565b83811115620003de576000848401525b50505050565b60006002820490506001821680620003fd57607f821691505b602082108114156200041457620004136200041a565b5b50919050565b7f4e487b7100000000000000000000000000000000000000000000000000000000600052602260045260246000fd5b7f4e487b7100000000000000000000000000000000000000000000000000000000600052604160045260246000fd5b62000483816200037a565b81146200048f57600080fd5b50565b60805160601c60a05160601c610e7a620004cc6000396000818161021b015281816104ed01526106a9015260006104670152610e7a6000f3fe608060405234801561001057600080fd5b50600436106100935760003560e01c806388cc58e41161006657806388cc58e4146100fc57806394465b211461011a5780639a4069c51461014a578063c51db6b214610166578063f7c618c11461018457610093565b80630309a27e1461009857806306fdde03146100a257806338adb6f0146100c057806366d003ac146100de575b600080fd5b6100a06101a2565b005b6100aa6103a6565b6040516100b79190610c0a565b60405180910390f35b6100c8610434565b6040516100d59190610c8c565b60405180910390f35b6100e661043d565b6040516100f39190610ba4565b60405180910390f35b610104610463565b6040516101119190610ba4565b60405180910390f35b610134600480360381019061012f91906108f6565b61048b565b6040516101419190610c8c565b60405180910390f35b610164600480360381019061015f91906108f6565b6104d4565b005b61016e6106a5565b60405161017b9190610ba4565b60405180910390f35b61018c6106cd565b6040516101999190610ba4565b60405180910390f35b606030816000815181106101df577f4e487b7100000000000000000000000000000000000000000000000000000000600052603260045260246000fd5b602002602001019073ffffffffffffffffffffffffffffffffffffffff16908173ffffffffffffffffffffffffffffffffffffffff16815250507f000000000000000000000000000000000000000000000000000000000000000073ffffffffffffffffffffffffffffffffffffffff16637942016c826040518263ffffffff1660e01b81526004016102729190610be8565b600060405180830381600087803b15801561028c57600080fd5b505af11580156102a0573d6000803e3d6000fd5b505050506000600360009054906101000a900473ffffffffffffffffffffffffffffffffffffffff1673ffffffffffffffffffffffffffffffffffffffff166370a08231306040518263ffffffff1660e01b81526004016103019190610ba4565b60206040518083038186803b15801561031957600080fd5b505afa15801561032d573d6000803e3d6000fd5b505050506040513d601f19601f820116820180604052508101906103519190610971565b90506103a2600360009054906101000a900473ffffffffffffffffffffffffffffffffffffffff16600260009054906101000a900473ffffffffffffffffffffffffffffffffffffffff16836106f3565b5050565b600180546103b390610d8d565b80601f01602080910402602001604051908101604052809291908181526020018280546103df90610d8d565b801561042c5780601f106104015761010080835404028352916020019161042c565b820191906000526020600020905b81548152906001019060200180831161040f57829003601f168201915b505050505081565b60006001905090565b600260009054906101000a900473ffffffffffffffffffffffffffffffffffffffff1681565b60007f0000000000000000000000000000000000000000000000000000000000000000905090565b60003073ffffffffffffffffffffffffffffffffffffffff168273ffffffffffffffffffffffffffffffffffffffff1614156104ca57600090506104cf565b600190505b919050565b3373ffffffffffffffffffffffffffffffffffffffff167f000000000000000000000000000000000000000000000000000000000000000073ffffffffffffffffffffffffffffffffffffffff16638da5cb5b6040518163ffffffff1660e01b815260040160206040518083038186803b15801561055157600080fd5b505afa158015610565573d6000803e3d6000fd5b505050506040513d601f19601f82011682018060405250810190610589919061091f565b73ffffffffffffffffffffffffffffffffffffffff16146105df576040517f08c379a00000000000000000000000000000000000000000000000000000000081526004016105d690610c6c565b60405180910390fd5b6000600260009054906101000a900473ffffffffffffffffffffffffffffffffffffffff16905081600260006101000a81548173ffffffffffffffffffffffffffffffffffffffff021916908373ffffffffffffffffffffffffffffffffffffffff1602179055508173ffffffffffffffffffffffffffffffffffffffff168173ffffffffffffffffffffffffffffffffffffffff167f68dd0f2c9ca18dce1e14e2e3f99123a6292bfde61698d10163545ee09a2bb7bb60405160405180910390a35050565b60007f0000000000000000000000000000000000000000000000000000000000000000905090565b600360009054906101000a900473ffffffffffffffffffffffffffffffffffffffff1681565b6000839050610703818484610709565b50505050565b61078a8363a9059cbb60e01b8484604051602401610728929190610bbf565b604051602081830303815290604052907bffffffffffffffffffffffffffffffffffffffffffffffffffffffff19166020820180517bffffffffffffffffffffffffffffffffffffffffffffffffffffffff838183161783525050505061078f565b505050565b6000808373ffffffffffffffffffffffffffffffffffffffff16836040516107b79190610b8d565b6000604051808303816000865af19150503d80600081146107f4576040519150601f19603f3d011682016040523d82523d6000602084013e6107f9565b606091505b50915091508161083e576040517f08c379a000000000000000000000000000000000000000000000000000000000815260040161083590610c4c565b60405180910390fd5b60008151111561089c578080602001905181019061085c9190610948565b61089b576040517f08c379a000000000000000000000000000000000000000000000000000000000815260040161089290610c2c565b60405180910390fd5b5b50505050565b6000813590506108b181610dff565b92915050565b6000815190506108c681610dff565b92915050565b6000815190506108db81610e16565b92915050565b6000815190506108f081610e2d565b92915050565b60006020828403121561090857600080fd5b6000610916848285016108a2565b91505092915050565b60006020828403121561093157600080fd5b600061093f848285016108b7565b91505092915050565b60006020828403121561095a57600080fd5b6000610968848285016108cc565b91505092915050565b60006020828403121561098357600080fd5b6000610991848285016108e1565b91505092915050565b60006109a683836109b2565b60208301905092915050565b6109bb81610d12565b82525050565b6109ca81610d12565b82525050565b60006109db82610cb7565b6109e58185610ce5565b93506109f083610ca7565b8060005b83811015610a21578151610a08888261099a565b9750610a1383610cd8565b9250506001810190506109f4565b5085935050505092915050565b6000610a3982610cc2565b610a438185610cf6565b9350610a53818560208601610d5a565b80840191505092915050565b6000610a6a82610ccd565b610a748185610d01565b9350610a84818560208601610d5a565b610a8d81610dee565b840191505092915050565b6000610aa5602083610d01565b91507f45524332303a206f7065726174696f6e20646964206e6f7420737563636565646000830152602082019050919050565b6000610ae5601283610d01565b91507f45524332303a2063616c6c206661696c656400000000000000000000000000006000830152602082019050919050565b6000610b25602d83610d01565b91507f4f6e6c792074686520636f6d6d756e697479206f776e65722063616e2063686160008301527f6e676520726563697069656e74000000000000000000000000000000000000006020830152604082019050919050565b610b8781610d50565b82525050565b6000610b998284610a2e565b915081905092915050565b6000602082019050610bb960008301846109c1565b92915050565b6000604082019050610bd460008301856109c1565b610be16020830184610b7e565b9392505050565b60006020820190508181036000830152610c0281846109d0565b905092915050565b60006020820190508181036000830152610c248184610a5f565b905092915050565b60006020820190508181036000830152610c4581610a98565b9050919050565b60006020820190508181036000830152610c6581610ad8565b9050919050565b60006020820190508181036000830152610c8581610b18565b9050919050565b6000602082019050610ca16000830184610b7e565b92915050565b6000819050602082019050919050565b600081519050919050565b600081519050919050565b600081519050919050565b6000602082019050919050565b600082825260208201905092915050565b600081905092915050565b600082825260208201905092915050565b6000610d1d82610d30565b9050919050565b60008115159050919050565b600073ffffffffffffffffffffffffffffffffffffffff82169050919050565b6000819050919050565b60005b83811015610d78578082015181840152602081019050610d5d565b83811115610d87576000848401525b50505050565b60006002820490506001821680610da557607f821691505b60208210811415610db957610db8610dbf565b5b50919050565b7f4e487b7100000000000000000000000000000000000000000000000000000000600052602260045260246000fd5b6000601f19601f8301169050919050565b610e0881610d12565b8114610e1357600080fd5b50565b610e1f81610d24565b8114610e2a57600080fd5b50565b610e3681610d50565b8114610e4157600080fd5b5056fea264697066735822122033ec8fdef9617e893575aac9e67bfdb23810c6898d2de41d3baf87f70bb345e464736f6c63430008000033",
  "linkReferences": {},
  "deployedLinkReferences": {}
}