{
  "_format": "hh-sol-artifact-1",
  "contractName": "CurationGauge",
  "sourceName": "contracts/dapps/curation/CurationGauge.sol",
  "abi": [
    {
      "inputs": [
        {
          "internalType": "address",
          "name": "_community",
          "type": "address"
        },
        {
          "internalType": "string",
          "name": "_name",
          "type": "string"
        },
        {
          "internalType": "address",
          "name": "_recipient",
          "type": "address"
        }
      ],
      "stateMutability": "nonpayable",
      "type": "constructor"
    },
    {
      "anonymous": false,
      "inputs": [
        {
          "indexed": true,
          "internalType": "address",
          "name": "oldRecipent",
          "type": "address"
        },
        {
          "indexed": true,
          "internalType": "address",
          "name": "newRecipient",
          "type": "address"
        }
      ],
      "name": "ChangeRecipient",
      "type": "event"
    },
    {
      "anonymous": false,
      "inputs": [
        {
          "indexed": true,
          "internalType": "uint256",
          "name": "amount",
          "type": "uint256"
        }
      ],
      "name": "WithdrawRewardsToRecipient",
      "type": "event"
    },
    {
      "inputs": [
        {
          "internalType": "address",
          "name": "_recipient",
          "type": "address"
        }
      ],
      "name": "adminSetRecipient",
      "outputs": [],
      "stateMutability": "nonpayable",
      "type": "function"
    },
    {
      "inputs": [],
      "name": "getCommunity",
      "outputs": [
        {
          "internalType": "address",
          "name": "",
          "type": "address"
        }
      ],
      "stateMutability": "view",
      "type": "function"
    },
    {
      "inputs": [],
      "name": "getFactory",
      "outputs": [
        {
          "internalType": "address",
          "name": "",
          "type": "address"
        }
      ],
      "stateMutability": "view",
      "type": "function"
    },
    {
      "inputs": [],
      "name": "getTotalStakedAmount",
      "outputs": [
        {
          "internalType": "uint256",
          "name": "",
          "type": "uint256"
        }
      ],
      "stateMutability": "view",
      "type": "function"
    },
    {
      "inputs": [
        {
          "internalType": "address",
          "name": "user",
          "type": "address"
        }
      ],
      "name": "getUserStakedAmount",
      "outputs": [
        {
          "internalType": "uint256",
          "name": "",
          "type": "uint256"
        }
      ],
      "stateMutability": "view",
      "type": "function"
    },
    {
      "inputs": [],
      "name": "name",
      "outputs": [
        {
          "internalType": "string",
          "name": "",
          "type": "string"
        }
      ],
      "stateMutability": "view",
      "type": "function"
    },
    {
      "inputs": [],
      "name": "recipient",
      "outputs": [
        {
          "internalType": "address",
          "name": "",
          "type": "address"
        }
      ],
      "stateMutability": "view",
      "type": "function"
    },
    {
      "inputs": [],
      "name": "rewardToken",
      "outputs": [
        {
          "internalType": "address",
          "name": "",
          "type": "address"
        }
      ],
      "stateMutability": "view",
      "type": "function"
    },
    {
      "inputs": [],
      "name": "withdrawRewardsToRecipient",
      "outputs": [],
      "stateMutability": "nonpayable",
      "type": "function"
    }
  ],
  "bytecode": "0x60c06040523480156200001157600080fd5b5060405162000b7b38038062000b7b83398101604081905262000034916200017d565b6001600081905533606090811b60805284901b6001600160601b03191660a05282516200006791906020850190620000ba565b50600280546001600160a01b0319166001600160a01b0383169081179091556040516000907f68dd0f2c9ca18dce1e14e2e3f99123a6292bfde61698d10163545ee09a2bb7bb908290a3505050620002c8565b828054620000c89062000275565b90600052602060002090601f016020900481019282620000ec576000855562000137565b82601f106200010757805160ff191683800117855562000137565b8280016001018555821562000137579182015b82811115620001375782518255916020019190600101906200011a565b506200014592915062000149565b5090565b5b808211156200014557600081556001016200014a565b80516001600160a01b03811681146200017857600080fd5b919050565b60008060006060848603121562000192578283fd5b6200019d8462000160565b602085810151919450906001600160401b0380821115620001bc578485fd5b818701915087601f830112620001d0578485fd5b815181811115620001e557620001e5620002b2565b604051601f8201601f19168101850183811182821017156200020b576200020b620002b2565b60405281815283820185018a101562000222578687fd5b8692505b8183101562000245578383018501518184018601529184019162000226565b818311156200025657868583830101525b80965050505050506200026c6040850162000160565b90509250925092565b6002810460018216806200028a57607f821691505b60208210811415620002ac57634e487b7160e01b600052602260045260246000fd5b50919050565b634e487b7160e01b600052604160045260246000fd5b60805160601c60a05160601c61087962000302600039600081816101610152818161036701526104790152600061031501526108796000f3fe608060405234801561001057600080fd5b50600436106100835760003560e01c80630309a27e1461008857806306fdde031461009257806338adb6f0146100b057806366d003ac146100c557806388cc58e4146100da57806394465b21146100e25780639a4069c5146100f5578063c51db6b214610108578063f7c618c114610110575b600080fd5b610090610118565b005b61009a610271565b6040516100a791906106da565b60405180910390f35b6100b86102ff565b6040516100a791906107bb565b6100cd610304565b6040516100a79190610660565b6100cd610313565b6100b86100f03660046105cd565b610337565b6100906101033660046105cd565b61035b565b6100cd610477565b6100cd61049b565b6060308160008151811061013c57634e487b7160e01b600052603260045260246000fd5b6001600160a01b039283166020918202929092010152604051631e50805b60e21b81527f000000000000000000000000000000000000000000000000000000000000000090911690637942016c9061019890849060040161068d565b600060405180830381600087803b1580156101b257600080fd5b505af11580156101c6573d6000803e3d6000fd5b50506003546040516370a0823160e01b8152600093506001600160a01b0390911691506370a08231906101fd903090600401610660565b60206040518083038186803b15801561021557600080fd5b505afa158015610229573d6000803e3d6000fd5b505050506040513d601f19601f8201168201806040525081019061024d919061062c565b60035460025491925061026d916001600160a01b039182169116836104aa565b5050565b6001805461027e906107f0565b80601f01602080910402602001604051908101604052809291908181526020018280546102aa906107f0565b80156102f75780601f106102cc576101008083540402835291602001916102f7565b820191906000526020600020905b8154815290600101906020018083116102da57829003601f168201915b505050505081565b600190565b6002546001600160a01b031681565b7f000000000000000000000000000000000000000000000000000000000000000090565b60006001600160a01b03821630141561035257506000610356565b5060015b919050565b336001600160a01b03167f00000000000000000000000000000000000000000000000000000000000000006001600160a01b0316638da5cb5b6040518163ffffffff1660e01b815260040160206040518083038186803b1580156103be57600080fd5b505afa1580156103d2573d6000803e3d6000fd5b505050506040513d601f19601f820116820180604052508101906103f691906105f0565b6001600160a01b0316146104255760405162461bcd60e51b815260040161041c9061076e565b60405180910390fd5b600280546001600160a01b038381166001600160a01b0319831681179093556040519116919082907f68dd0f2c9ca18dce1e14e2e3f99123a6292bfde61698d10163545ee09a2bb7bb90600090a35050565b7f000000000000000000000000000000000000000000000000000000000000000090565b6003546001600160a01b031681565b826104b68184846104bc565b50505050565b6105128363a9059cbb60e01b84846040516024016104db929190610674565b60408051601f198184030181529190526020810180516001600160e01b03166001600160e01b031990931692909217909152610517565b505050565b600080836001600160a01b0316836040516105329190610644565b6000604051808303816000865af19150503d806000811461056f576040519150601f19603f3d011682016040523d82523d6000602084013e610574565b606091505b5091509150816105965760405162461bcd60e51b815260040161041c90610742565b8051156104b657808060200190518101906105b1919061060c565b6104b65760405162461bcd60e51b815260040161041c9061070d565b6000602082840312156105de578081fd5b81356105e98161082b565b9392505050565b600060208284031215610601578081fd5b81516105e98161082b565b60006020828403121561061d578081fd5b815180151581146105e9578182fd5b60006020828403121561063d578081fd5b5051919050565b600082516106568184602087016107c4565b9190910192915050565b6001600160a01b0391909116815260200190565b6001600160a01b03929092168252602082015260400190565b6020808252825182820181905260009190848201906040850190845b818110156106ce5783516001600160a01b0316835292840192918401916001016106a9565b50909695505050505050565b60006020825282518060208401526106f98160408501602087016107c4565b601f01601f19169190910160400192915050565b6020808252818101527f45524332303a206f7065726174696f6e20646964206e6f742073756363656564604082015260600190565b602080825260129082015271115490cc8c0e8818d85b1b0819985a5b195960721b604082015260600190565b6020808252602d908201527f4f6e6c792074686520636f6d6d756e697479206f776e65722063616e2063686160408201526c1b99d9481c9958da5c1a595b9d609a1b606082015260800190565b90815260200190565b60005b838110156107df5781810151838201526020016107c7565b838111156104b65750506000910152565b60028104600182168061080457607f821691505b6020821081141561082557634e487b7160e01b600052602260045260246000fd5b50919050565b6001600160a01b038116811461084057600080fd5b5056fea2646970667358221220e3bb7f06159a2392cc7da9625bdcb3c743ab617c86841bc172db76783c1153a364736f6c63430008000033",
  "linkReferences": {},
  "deployedLinkReferences": {}
}