{
  "_format": "hh-sol-artifact-1",
  "contractName": "CurationGauge",
  "sourceName": "contracts/dapps/curation/CurationGauge.sol",
  "abi": [
    {
      "inputs": [
        {
          "internalType": "address",
          "name": "_community",
          "type": "address"
        },
        {
          "internalType": "string",
          "name": "_name",
          "type": "string"
        },
        {
          "internalType": "address",
          "name": "_recipient",
          "type": "address"
        }
      ],
      "stateMutability": "nonpayable",
      "type": "constructor"
    },
    {
      "anonymous": false,
      "inputs": [
        {
          "indexed": true,
          "internalType": "address",
          "name": "oldRecipent",
          "type": "address"
        },
        {
          "indexed": true,
          "internalType": "address",
          "name": "newRecipient",
          "type": "address"
        }
      ],
      "name": "ChangeRecipient",
      "type": "event"
    },
    {
      "anonymous": false,
      "inputs": [
        {
          "indexed": true,
          "internalType": "uint256",
          "name": "amount",
          "type": "uint256"
        }
      ],
      "name": "WithdrawRewardsToRecipient",
      "type": "event"
    },
    {
      "inputs": [
        {
          "internalType": "address",
          "name": "_recipient",
          "type": "address"
        }
      ],
      "name": "adminSetRecipient",
      "outputs": [],
      "stateMutability": "nonpayable",
      "type": "function"
    },
    {
      "inputs": [],
      "name": "getCommunity",
      "outputs": [
        {
          "internalType": "address",
          "name": "",
          "type": "address"
        }
      ],
      "stateMutability": "view",
      "type": "function"
    },
    {
      "inputs": [],
      "name": "getFactory",
      "outputs": [
        {
          "internalType": "address",
          "name": "",
          "type": "address"
        }
      ],
      "stateMutability": "view",
      "type": "function"
    },
    {
      "inputs": [],
      "name": "getTotalStakedAmount",
      "outputs": [
        {
          "internalType": "uint256",
          "name": "",
          "type": "uint256"
        }
      ],
      "stateMutability": "view",
      "type": "function"
    },
    {
      "inputs": [
        {
          "internalType": "address",
          "name": "user",
          "type": "address"
        }
      ],
      "name": "getUserStakedAmount",
      "outputs": [
        {
          "internalType": "uint256",
          "name": "",
          "type": "uint256"
        }
      ],
      "stateMutability": "view",
      "type": "function"
    },
    {
      "inputs": [],
      "name": "name",
      "outputs": [
        {
          "internalType": "string",
          "name": "",
          "type": "string"
        }
      ],
      "stateMutability": "view",
      "type": "function"
    },
    {
      "inputs": [],
      "name": "recipient",
      "outputs": [
        {
          "internalType": "address",
          "name": "",
          "type": "address"
        }
      ],
      "stateMutability": "view",
      "type": "function"
    },
    {
      "inputs": [],
      "name": "withdrawRewardsToRecipient",
      "outputs": [],
      "stateMutability": "nonpayable",
      "type": "function"
    }
  ],
  "bytecode": "0x60c06040523480156200001157600080fd5b5060405162000c3738038062000c3783398101604081905262000034916200017d565b6001600081905533606090811b60805284901b6001600160601b03191660a05282516200006791906020850190620000ba565b50600280546001600160a01b0319166001600160a01b0383169081179091556040516000907f68dd0f2c9ca18dce1e14e2e3f99123a6292bfde61698d10163545ee09a2bb7bb908290a3505050620002c8565b828054620000c89062000275565b90600052602060002090601f016020900481019282620000ec576000855562000137565b82601f106200010757805160ff191683800117855562000137565b8280016001018555821562000137579182015b82811115620001375782518255916020019190600101906200011a565b506200014592915062000149565b5090565b5b808211156200014557600081556001016200014a565b80516001600160a01b03811681146200017857600080fd5b919050565b60008060006060848603121562000192578283fd5b6200019d8462000160565b602085810151919450906001600160401b0380821115620001bc578485fd5b818701915087601f830112620001d0578485fd5b815181811115620001e557620001e5620002b2565b604051601f8201601f19168101850183811182821017156200020b576200020b620002b2565b60405281815283820185018a101562000222578687fd5b8692505b8183101562000245578383018501518184018601529184019162000226565b818311156200025657868583830101525b80965050505050506200026c6040850162000160565b90509250925092565b6002810460018216806200028a57607f821691505b60208210811415620002ac57634e487b7160e01b600052602260045260246000fd5b50919050565b634e487b7160e01b600052604160045260246000fd5b60805160601c60a05160601c61092e620003096000396000818161016e015281816101db0152818161042b015261053d015260006103d9015261092e6000f3fe608060405234801561001057600080fd5b50600436106100785760003560e01c80630309a27e1461007d57806306fdde031461008757806338adb6f0146100a557806366d003ac146100ba57806388cc58e4146100cf57806394465b21146100d75780639a4069c5146100ea578063c51db6b2146100fd575b600080fd5b610085610105565b005b61008f610335565b60405161009c919061078f565b60405180910390f35b6100ad6103c3565b60405161009c9190610870565b6100c26103c8565b60405161009c9190610715565b6100c26103d7565b6100ad6100e5366004610682565b6103fb565b6100856100f8366004610682565b61041f565b6100c261053b565b60408051600180825281830190925260009160208083019080368337019050509050308160008151811061014957634e487b7160e01b600052603260045260246000fd5b6001600160a01b039283166020918202929092010152604051631e50805b60e21b81527f000000000000000000000000000000000000000000000000000000000000000090911690637942016c906101a5908490600401610742565b600060405180830381600087803b1580156101bf57600080fd5b505af11580156101d3573d6000803e3d6000fd5b5050505060007f00000000000000000000000000000000000000000000000000000000000000006001600160a01b03166399efcaec6040518163ffffffff1660e01b815260040160206040518083038186803b15801561023257600080fd5b505afa158015610246573d6000803e3d6000fd5b505050506040513d601f19601f8201168201806040525081019061026a91906106a5565b90506000816001600160a01b03166370a08231306040518263ffffffff1660e01b815260040161029a9190610715565b60206040518083038186803b1580156102b257600080fd5b505afa1580156102c6573d6000803e3d6000fd5b505050506040513d601f19601f820116820180604052508101906102ea91906106e1565b6002549091506103059083906001600160a01b03168361055f565b60405181907fba2c90d43e3865c0bf465b80929fceeb2e0a2623c07973d81118460d549711b490600090a2505050565b60018054610342906108a5565b80601f016020809104026020016040519081016040528092919081815260200182805461036e906108a5565b80156103bb5780601f10610390576101008083540402835291602001916103bb565b820191906000526020600020905b81548152906001019060200180831161039e57829003601f168201915b505050505081565b600190565b6002546001600160a01b031681565b7f000000000000000000000000000000000000000000000000000000000000000090565b60006001600160a01b0382163014156104165750600061041a565b5060015b919050565b336001600160a01b03167f00000000000000000000000000000000000000000000000000000000000000006001600160a01b0316638da5cb5b6040518163ffffffff1660e01b815260040160206040518083038186803b15801561048257600080fd5b505afa158015610496573d6000803e3d6000fd5b505050506040513d601f19601f820116820180604052508101906104ba91906106a5565b6001600160a01b0316146104e95760405162461bcd60e51b81526004016104e090610823565b60405180910390fd5b600280546001600160a01b038381166001600160a01b0319831681179093556040519116919082907f68dd0f2c9ca18dce1e14e2e3f99123a6292bfde61698d10163545ee09a2bb7bb90600090a35050565b7f000000000000000000000000000000000000000000000000000000000000000090565b8261056b818484610571565b50505050565b6105c78363a9059cbb60e01b8484604051602401610590929190610729565b60408051601f198184030181529190526020810180516001600160e01b03166001600160e01b0319909316929092179091526105cc565b505050565b600080836001600160a01b0316836040516105e791906106f9565b6000604051808303816000865af19150503d8060008114610624576040519150601f19603f3d011682016040523d82523d6000602084013e610629565b606091505b50915091508161064b5760405162461bcd60e51b81526004016104e0906107f7565b80511561056b578080602001905181019061066691906106c1565b61056b5760405162461bcd60e51b81526004016104e0906107c2565b600060208284031215610693578081fd5b813561069e816108e0565b9392505050565b6000602082840312156106b6578081fd5b815161069e816108e0565b6000602082840312156106d2578081fd5b8151801515811461069e578182fd5b6000602082840312156106f2578081fd5b5051919050565b6000825161070b818460208701610879565b9190910192915050565b6001600160a01b0391909116815260200190565b6001600160a01b03929092168252602082015260400190565b6020808252825182820181905260009190848201906040850190845b818110156107835783516001600160a01b03168352928401929184019160010161075e565b50909695505050505050565b60006020825282518060208401526107ae816040850160208701610879565b601f01601f19169190910160400192915050565b6020808252818101527f45524332303a206f7065726174696f6e20646964206e6f742073756363656564604082015260600190565b602080825260129082015271115490cc8c0e8818d85b1b0819985a5b195960721b604082015260600190565b6020808252602d908201527f4f6e6c792074686520636f6d6d756e697479206f776e65722063616e2063686160408201526c1b99d9481c9958da5c1a595b9d609a1b606082015260800190565b90815260200190565b60005b8381101561089457818101518382015260200161087c565b8381111561056b5750506000910152565b6002810460018216806108b957607f821691505b602082108114156108da57634e487b7160e01b600052602260045260246000fd5b50919050565b6001600160a01b03811681146108f557600080fd5b5056fea264697066735822122056f227e9dcef080fc0c60fe89c03f2d4f79d773aa89f3a31842b64629cdac82164736f6c63430008000033",
  "linkReferences": {},
  "deployedLinkReferences": {}
}