{
  "_format": "hh-sol-artifact-1",
  "contractName": "CurationGauge",
  "sourceName": "contracts/dapps/curation/CurationGauge.sol",
  "abi": [
    {
      "inputs": [
        {
          "internalType": "address",
          "name": "_community",
          "type": "address"
        },
        {
          "internalType": "string",
          "name": "_name",
          "type": "string"
        },
        {
          "internalType": "address",
          "name": "_recipient",
          "type": "address"
        }
      ],
      "stateMutability": "nonpayable",
      "type": "constructor"
    },
    {
      "anonymous": false,
      "inputs": [
        {
          "indexed": true,
          "internalType": "address",
          "name": "oldRecipent",
          "type": "address"
        },
        {
          "indexed": true,
          "internalType": "address",
          "name": "newRecipient",
          "type": "address"
        }
      ],
      "name": "ChangeRecipient",
      "type": "event"
    },
    {
      "anonymous": false,
      "inputs": [],
      "name": "PoolStarted",
      "type": "event"
    },
    {
      "anonymous": false,
      "inputs": [
        {
          "indexed": true,
          "internalType": "uint256",
          "name": "amount",
          "type": "uint256"
        }
      ],
      "name": "WithdrawRewardsToRecipient",
      "type": "event"
    },
    {
      "inputs": [
        {
          "internalType": "address",
          "name": "_recipient",
          "type": "address"
        }
      ],
      "name": "adminSetRecipient",
      "outputs": [],
      "stateMutability": "nonpayable",
      "type": "function"
    },
    {
      "inputs": [],
      "name": "community",
      "outputs": [
        {
          "internalType": "address",
          "name": "",
          "type": "address"
        }
      ],
      "stateMutability": "view",
      "type": "function"
    },
    {
      "inputs": [],
      "name": "getCommunity",
      "outputs": [
        {
          "internalType": "address",
          "name": "",
          "type": "address"
        }
      ],
      "stateMutability": "view",
      "type": "function"
    },
    {
      "inputs": [],
      "name": "getFactory",
      "outputs": [
        {
          "internalType": "address",
          "name": "",
          "type": "address"
        }
      ],
      "stateMutability": "view",
      "type": "function"
    },
    {
      "inputs": [],
      "name": "getTotalStakedAmount",
      "outputs": [
        {
          "internalType": "uint256",
          "name": "",
          "type": "uint256"
        }
      ],
      "stateMutability": "view",
      "type": "function"
    },
    {
      "inputs": [
        {
          "internalType": "address",
          "name": "user",
          "type": "address"
        }
      ],
      "name": "getUserStakedAmount",
      "outputs": [
        {
          "internalType": "uint256",
          "name": "",
          "type": "uint256"
        }
      ],
      "stateMutability": "view",
      "type": "function"
    },
    {
      "inputs": [],
      "name": "name",
      "outputs": [
        {
          "internalType": "string",
          "name": "",
          "type": "string"
        }
      ],
      "stateMutability": "view",
      "type": "function"
    },
    {
      "inputs": [],
      "name": "poolStarted",
      "outputs": [
        {
          "internalType": "bool",
          "name": "",
          "type": "bool"
        }
      ],
      "stateMutability": "view",
      "type": "function"
    },
    {
      "inputs": [],
      "name": "recipient",
      "outputs": [
        {
          "internalType": "address",
          "name": "",
          "type": "address"
        }
      ],
      "stateMutability": "view",
      "type": "function"
    },
    {
      "inputs": [],
      "name": "startPool",
      "outputs": [],
      "stateMutability": "nonpayable",
      "type": "function"
    },
    {
      "inputs": [],
      "name": "withdrawRewardsToRecipient",
      "outputs": [],
      "stateMutability": "nonpayable",
      "type": "function"
    }
  ],
  "bytecode": "0x60a06040523480156200001157600080fd5b5060405162000d8738038062000d8783398101604081905262000034916200018b565b600160008190553360601b60805260028054610100600160a81b0319166101006001600160a01b0387160217905582516200007591906020850190620000c8565b50600380546001600160a01b0319166001600160a01b0383169081179091556040516000907f68dd0f2c9ca18dce1e14e2e3f99123a6292bfde61698d10163545ee09a2bb7bb908290a350505062000308565b828054620000d69062000283565b90600052602060002090601f016020900481019282620000fa576000855562000145565b82601f106200011557805160ff191683800117855562000145565b8280016001018555821562000145579182015b828111156200014557825182559160200191906001019062000128565b506200015392915062000157565b5090565b5b8082111562000153576000815560010162000158565b80516001600160a01b03811681146200018657600080fd5b919050565b600080600060608486031215620001a0578283fd5b620001ab846200016e565b602085810151919450906001600160401b0380821115620001ca578485fd5b818701915087601f830112620001de578485fd5b815181811115620001f357620001f3620002d9565b604051601f8201601f1916810185018381118282101715620002195762000219620002d9565b60405281815283820185018a101562000230578687fd5b8692505b8183101562000253578383018501518184018601529184019162000234565b818311156200026457868583830101525b80965050505050506200027a604085016200016e565b90509250925092565b6002810460018216806200029857607f821691505b60208210811415620002d3577f4e487b7100000000000000000000000000000000000000000000000000000000600052602260045260246000fd5b50919050565b7f4e487b7100000000000000000000000000000000000000000000000000000000600052604160045260246000fd5b60805160601c610a606200032760003960006103fd0152610a606000f3fe608060405234801561001057600080fd5b50600436106100995760003560e01c80630309a27e1461009e57806306fdde03146100a857806338adb6f0146100c657806366d003ac146100db57806388cc58e4146100f057806394465b21146100f85780639a4069c51461010b578063c51db6b21461011e578063dc1fb5a514610126578063e3332f931461012e578063fa08c90814610143575b600080fd5b6100a661014b565b005b6100b0610358565b6040516100bd9190610868565b60405180910390f35b6100ce6103e6565b6040516100bd91906109a2565b6100e36103ec565b6040516100bd91906107e3565b6100e36103fb565b6100ce610106366004610750565b61041f565b6100a6610119366004610750565b610444565b6100e3610546565b6100e361055a565b61013661056e565b6040516100bd919061085d565b6100a6610577565b60408051600180825281830190925260009160208083019080368337019050509050308160008151811061018f57634e487b7160e01b600052603260045260246000fd5b6001600160a01b039283166020918202929092010152600254604051631e50805b60e21b815261010090910490911690637942016c906101d3908490600401610810565b600060405180830381600087803b1580156101ed57600080fd5b505af1158015610201573d6000803e3d6000fd5b505050506000600260019054906101000a90046001600160a01b03166001600160a01b03166399efcaec6040518163ffffffff1660e01b815260040160206040518083038186803b15801561025557600080fd5b505afa158015610269573d6000803e3d6000fd5b505050506040513d601f19601f8201168201806040525081019061028d9190610773565b90506000816001600160a01b03166370a08231306040518263ffffffff1660e01b81526004016102bd91906107e3565b60206040518083038186803b1580156102d557600080fd5b505afa1580156102e9573d6000803e3d6000fd5b505050506040513d601f19601f8201168201806040525081019061030d91906107af565b6003549091506103289083906001600160a01b03168361062d565b60405181907fba2c90d43e3865c0bf465b80929fceeb2e0a2623c07973d81118460d549711b490600090a2505050565b60018054610365906109d7565b80601f0160208091040260200160405190810160405280929190818152602001828054610391906109d7565b80156103de5780601f106103b3576101008083540402835291602001916103de565b820191906000526020600020905b8154815290600101906020018083116103c157829003601f168201915b505050505081565b60045490565b6003546001600160a01b031681565b7f000000000000000000000000000000000000000000000000000000000000000090565b60006001600160a01b03821630141561043b575060045461043f565b5060005b919050565b60025460408051638da5cb5b60e01b81529051339261010090046001600160a01b031691638da5cb5b916004808301926020929190829003018186803b15801561048d57600080fd5b505afa1580156104a1573d6000803e3d6000fd5b505050506040513d601f19601f820116820180604052508101906104c59190610773565b6001600160a01b0316146104f45760405162461bcd60e51b81526004016104eb90610955565b60405180910390fd5b600380546001600160a01b038381166001600160a01b0319831681179093556040519116919082907f68dd0f2c9ca18dce1e14e2e3f99123a6292bfde61698d10163545ee09a2bb7bb90600090a35050565b60025461010090046001600160a01b031690565b60025461010090046001600160a01b031681565b60025460ff1681565b600454156105975760405162461bcd60e51b81526004016104eb906108ff565b60025460405163579dea7960e11b81526101009091046001600160a01b03169063af3bd4f2906105cb9030906004016108d0565b600060405180830381600087803b1580156105e557600080fd5b505af11580156105f9573d6000803e3d6000fd5b5050600160045550506040517f960682678fca98f3ed131eaf165e59544bcd738e948f0b3c64f58fa9e1c65e6090600090a1565b8261063981848461063f565b50505050565b6106958363a9059cbb60e01b848460405160240161065e9291906107f7565b60408051601f198184030181529190526020810180516001600160e01b03166001600160e01b03199093169290921790915261069a565b505050565b600080836001600160a01b0316836040516106b591906107c7565b6000604051808303816000865af19150503d80600081146106f2576040519150601f19603f3d011682016040523d82523d6000602084013e6106f7565b606091505b5091509150816107195760405162461bcd60e51b81526004016104eb90610929565b8051156106395780806020019051810190610734919061078f565b6106395760405162461bcd60e51b81526004016104eb9061089b565b600060208284031215610761578081fd5b813561076c81610a12565b9392505050565b600060208284031215610784578081fd5b815161076c81610a12565b6000602082840312156107a0578081fd5b8151801515811461076c578182fd5b6000602082840312156107c0578081fd5b5051919050565b600082516107d98184602087016109ab565b9190910192915050565b6001600160a01b0391909116815260200190565b6001600160a01b03929092168252602082015260400190565b6020808252825182820181905260009190848201906040850190845b818110156108515783516001600160a01b03168352928401929184019160010161082c565b50909695505050505050565b901515815260200190565b60006020825282518060208401526108878160408501602087016109ab565b601f01601f19169190910160400192915050565b6020808252818101527f45524332303a206f7065726174696f6e20646964206e6f742073756363656564604082015260600190565b6040808252600490820152632aa9a2a960e11b60608201526001600160a01b0391909116602082015260800190565b60208082526010908201526f141bdbdb081a185cc81cdd185c9d195960821b604082015260600190565b602080825260129082015271115490cc8c0e8818d85b1b0819985a5b195960721b604082015260600190565b6020808252602d908201527f4f6e6c792074686520636f6d6d756e697479206f776e65722063616e2063686160408201526c1b99d9481c9958da5c1a595b9d609a1b606082015260800190565b90815260200190565b60005b838110156109c65781810151838201526020016109ae565b838111156106395750506000910152565b6002810460018216806109eb57607f821691505b60208210811415610a0c57634e487b7160e01b600052602260045260246000fd5b50919050565b6001600160a01b0381168114610a2757600080fd5b5056fea26469706673582212204b8c98a795d0a13e237e0916c8b9be56d5d8c569ed2d60b09489cae3ca3ad3b764736f6c63430008000033",
  "linkReferences": {},
  "deployedLinkReferences": {}
}