{
  "_format": "hh-sol-artifact-1",
  "contractName": "Gauge",
  "sourceName": "contracts/Gauge.sol",
  "abi": [
    {
      "inputs": [
        {
          "internalType": "address",
          "name": "_communityFactory",
          "type": "address"
        },
        {
          "internalType": "uint16",
          "name": "_gaugeRatio",
          "type": "uint16"
        },
        {
          "components": [
            {
              "internalType": "uint16",
              "name": "community",
              "type": "uint16"
            },
            {
              "internalType": "uint16",
              "name": "poolFactory",
              "type": "uint16"
            },
            {
              "internalType": "uint16",
              "name": "user",
              "type": "uint16"
            }
          ],
          "internalType": "struct Gauge.DistributionRatio",
          "name": "ratios",
          "type": "tuple"
        },
        {
          "internalType": "address",
          "name": "_NP",
          "type": "address"
        },
        {
          "internalType": "address",
          "name": "_nut",
          "type": "address"
        }
      ],
      "stateMutability": "nonpayable",
      "type": "constructor"
    },
    {
      "anonymous": false,
      "inputs": [
        {
          "indexed": true,
          "internalType": "uint16",
          "name": "gaugeRatio",
          "type": "uint16"
        }
      ],
      "name": "AdminSetDappGaugeRatio",
      "type": "event"
    },
    {
      "anonymous": false,
      "inputs": [
        {
          "indexed": false,
          "internalType": "uint16",
          "name": "community",
          "type": "uint16"
        },
        {
          "indexed": false,
          "internalType": "uint16",
          "name": "poolFactory",
          "type": "uint16"
        },
        {
          "indexed": false,
          "internalType": "uint16",
          "name": "user",
          "type": "uint16"
        }
      ],
      "name": "AdminSetNutDistributionRatio",
      "type": "event"
    },
    {
      "anonymous": false,
      "inputs": [
        {
          "indexed": true,
          "internalType": "uint256",
          "name": "nutRewardPerBlock",
          "type": "uint256"
        }
      ],
      "name": "AdminSetNutRewardPerBlock",
      "type": "event"
    },
    {
      "anonymous": false,
      "inputs": [
        {
          "indexed": true,
          "internalType": "uint256",
          "name": "rewardPerBlock",
          "type": "uint256"
        }
      ],
      "name": "AdminSetRewardNUTPerBlock",
      "type": "event"
    },
    {
      "anonymous": false,
      "inputs": [
        {
          "indexed": true,
          "internalType": "address",
          "name": "pool",
          "type": "address"
        },
        {
          "indexed": true,
          "internalType": "address",
          "name": "recipient",
          "type": "address"
        },
        {
          "indexed": false,
          "internalType": "uint256",
          "name": "amount",
          "type": "uint256"
        }
      ],
      "name": "CTokenWithdrawn",
      "type": "event"
    },
    {
      "anonymous": false,
      "inputs": [
        {
          "indexed": true,
          "internalType": "address",
          "name": "community",
          "type": "address"
        },
        {
          "indexed": true,
          "internalType": "address",
          "name": "recipient",
          "type": "address"
        },
        {
          "indexed": false,
          "internalType": "uint256",
          "name": "amount",
          "type": "uint256"
        }
      ],
      "name": "CommunityWithdrewNut",
      "type": "event"
    },
    {
      "anonymous": false,
      "inputs": [
        {
          "indexed": true,
          "internalType": "address",
          "name": "community",
          "type": "address"
        },
        {
          "indexed": true,
          "internalType": "address",
          "name": "factory",
          "type": "address"
        },
        {
          "indexed": true,
          "internalType": "address",
          "name": "pool",
          "type": "address"
        }
      ],
      "name": "CreateNewGauge",
      "type": "event"
    },
    {
      "anonymous": false,
      "inputs": [
        {
          "indexed": true,
          "internalType": "address",
          "name": "previousOwner",
          "type": "address"
        },
        {
          "indexed": true,
          "internalType": "address",
          "name": "newOwner",
          "type": "address"
        }
      ],
      "name": "OwnershipTransferred",
      "type": "event"
    },
    {
      "anonymous": false,
      "inputs": [
        {
          "indexed": true,
          "internalType": "address",
          "name": "poolFactory",
          "type": "address"
        },
        {
          "indexed": true,
          "internalType": "address",
          "name": "recipient",
          "type": "address"
        },
        {
          "indexed": false,
          "internalType": "uint256",
          "name": "amount",
          "type": "uint256"
        }
      ],
      "name": "PoolFactoryWithdrewNut",
      "type": "event"
    },
    {
      "anonymous": false,
      "inputs": [
        {
          "indexed": true,
          "internalType": "address",
          "name": "community",
          "type": "address"
        },
        {
          "indexed": true,
          "internalType": "address",
          "name": "factory",
          "type": "address"
        },
        {
          "indexed": true,
          "internalType": "address",
          "name": "pool",
          "type": "address"
        },
        {
          "indexed": false,
          "internalType": "address",
          "name": "user",
          "type": "address"
        },
        {
          "indexed": false,
          "internalType": "uint256",
          "name": "amount",
          "type": "uint256"
        }
      ],
      "name": "Unvoted",
      "type": "event"
    },
    {
      "anonymous": false,
      "inputs": [
        {
          "indexed": true,
          "internalType": "address",
          "name": "community",
          "type": "address"
        },
        {
          "indexed": true,
          "internalType": "address",
          "name": "factory",
          "type": "address"
        },
        {
          "indexed": true,
          "internalType": "address",
          "name": "pool",
          "type": "address"
        },
        {
          "indexed": false,
          "internalType": "uint256",
          "name": "amount",
          "type": "uint256"
        }
      ],
      "name": "UpdateLedger",
      "type": "event"
    },
    {
      "anonymous": false,
      "inputs": [
        {
          "indexed": true,
          "internalType": "address",
          "name": "pool",
          "type": "address"
        },
        {
          "indexed": true,
          "internalType": "address",
          "name": "recipient",
          "type": "address"
        },
        {
          "indexed": false,
          "internalType": "uint256",
          "name": "amount",
          "type": "uint256"
        }
      ],
      "name": "UserWithdrewNut",
      "type": "event"
    },
    {
      "anonymous": false,
      "inputs": [
        {
          "indexed": true,
          "internalType": "address",
          "name": "community",
          "type": "address"
        },
        {
          "indexed": true,
          "internalType": "address",
          "name": "factory",
          "type": "address"
        },
        {
          "indexed": true,
          "internalType": "address",
          "name": "pool",
          "type": "address"
        },
        {
          "indexed": false,
          "internalType": "address",
          "name": "user",
          "type": "address"
        },
        {
          "indexed": false,
          "internalType": "uint256",
          "name": "amount",
          "type": "uint256"
        }
      ],
      "name": "Voted",
      "type": "event"
    },
    {
      "inputs": [
        {
          "internalType": "address",
          "name": "community",
          "type": "address"
        },
        {
          "internalType": "address",
          "name": "pool",
          "type": "address"
        }
      ],
      "name": "addNewGauge",
      "outputs": [],
      "stateMutability": "nonpayable",
      "type": "function"
    },
    {
      "inputs": [
        {
          "internalType": "uint16",
          "name": "_gaugeRatio",
          "type": "uint16"
        }
      ],
      "name": "adminSetGaugeRatio",
      "outputs": [],
      "stateMutability": "nonpayable",
      "type": "function"
    },
    {
      "inputs": [
        {
          "components": [
            {
              "internalType": "uint16",
              "name": "community",
              "type": "uint16"
            },
            {
              "internalType": "uint16",
              "name": "poolFactory",
              "type": "uint16"
            },
            {
              "internalType": "uint16",
              "name": "user",
              "type": "uint16"
            }
          ],
          "internalType": "struct Gauge.DistributionRatio",
          "name": "ratios",
          "type": "tuple"
        }
      ],
      "name": "adminSetNutDistributionRatio",
      "outputs": [],
      "stateMutability": "nonpayable",
      "type": "function"
    },
    {
      "inputs": [
        {
          "internalType": "uint256",
          "name": "reward",
          "type": "uint256"
        }
      ],
      "name": "adminSetRewardNUTPerBlock",
      "outputs": [],
      "stateMutability": "nonpayable",
      "type": "function"
    },
    {
      "inputs": [
        {
          "internalType": "address",
          "name": "",
          "type": "address"
        }
      ],
      "name": "communityTotalLockedNP",
      "outputs": [
        {
          "internalType": "uint256",
          "name": "",
          "type": "uint256"
        }
      ],
      "stateMutability": "view",
      "type": "function"
    },
    {
      "inputs": [
        {
          "internalType": "address",
          "name": "community",
          "type": "address"
        }
      ],
      "name": "communityWithdrawNut",
      "outputs": [],
      "stateMutability": "nonpayable",
      "type": "function"
    },
    {
      "inputs": [],
      "name": "distributionRatio",
      "outputs": [
        {
          "internalType": "uint16",
          "name": "community",
          "type": "uint16"
        },
        {
          "internalType": "uint16",
          "name": "poolFactory",
          "type": "uint16"
        },
        {
          "internalType": "uint16",
          "name": "user",
          "type": "uint16"
        }
      ],
      "stateMutability": "view",
      "type": "function"
    },
    {
      "inputs": [],
      "name": "gaugeRatio",
      "outputs": [
        {
          "internalType": "uint16",
          "name": "",
          "type": "uint16"
        }
      ],
      "stateMutability": "view",
      "type": "function"
    },
    {
      "inputs": [
        {
          "internalType": "address",
          "name": "community",
          "type": "address"
        }
      ],
      "name": "getCommunityPendingRewardNut",
      "outputs": [
        {
          "internalType": "uint256",
          "name": "rewardNut",
          "type": "uint256"
        }
      ],
      "stateMutability": "view",
      "type": "function"
    },
    {
      "inputs": [],
      "name": "getGaugeRatio",
      "outputs": [
        {
          "internalType": "uint16",
          "name": "",
          "type": "uint16"
        }
      ],
      "stateMutability": "view",
      "type": "function"
    },
    {
      "inputs": [
        {
          "internalType": "address",
          "name": "pool",
          "type": "address"
        }
      ],
      "name": "getLockedNpInGauge",
      "outputs": [
        {
          "internalType": "uint256",
          "name": "totalLocked",
          "type": "uint256"
        }
      ],
      "stateMutability": "view",
      "type": "function"
    },
    {
      "inputs": [
        {
          "internalType": "address",
          "name": "factory",
          "type": "address"
        }
      ],
      "name": "getPoolFactoryPendingRewardNut",
      "outputs": [
        {
          "internalType": "uint256",
          "name": "rewardNut",
          "type": "uint256"
        }
      ],
      "stateMutability": "view",
      "type": "function"
    },
    {
      "inputs": [
        {
          "internalType": "address",
          "name": "pool",
          "type": "address"
        },
        {
          "internalType": "address",
          "name": "user",
          "type": "address"
        }
      ],
      "name": "getUserLocked",
      "outputs": [
        {
          "internalType": "uint256",
          "name": "locked",
          "type": "uint256"
        }
      ],
      "stateMutability": "view",
      "type": "function"
    },
    {
      "inputs": [
        {
          "internalType": "address",
          "name": "pool",
          "type": "address"
        },
        {
          "internalType": "address",
          "name": "user",
          "type": "address"
        }
      ],
      "name": "getUserPendingReward",
      "outputs": [
        {
          "internalType": "uint256",
          "name": "rewardNut",
          "type": "uint256"
        },
        {
          "internalType": "uint256",
          "name": "rewardCToken",
          "type": "uint256"
        }
      ],
      "stateMutability": "view",
      "type": "function"
    },
    {
      "inputs": [
        {
          "internalType": "address",
          "name": "pool",
          "type": "address"
        }
      ],
      "name": "hasGaugeEnabled",
      "outputs": [
        {
          "internalType": "bool",
          "name": "",
          "type": "bool"
        }
      ],
      "stateMutability": "nonpayable",
      "type": "function"
    },
    {
      "inputs": [],
      "name": "owner",
      "outputs": [
        {
          "internalType": "address",
          "name": "",
          "type": "address"
        }
      ],
      "stateMutability": "view",
      "type": "function"
    },
    {
      "inputs": [
        {
          "internalType": "address",
          "name": "",
          "type": "address"
        }
      ],
      "name": "poolFactoryTotalLockedNP",
      "outputs": [
        {
          "internalType": "uint256",
          "name": "",
          "type": "uint256"
        }
      ],
      "stateMutability": "view",
      "type": "function"
    },
    {
      "inputs": [
        {
          "internalType": "address",
          "name": "factory",
          "type": "address"
        }
      ],
      "name": "poolFactoryWithdrawNut",
      "outputs": [],
      "stateMutability": "nonpayable",
      "type": "function"
    },
    {
      "inputs": [],
      "name": "renounceOwnership",
      "outputs": [],
      "stateMutability": "nonpayable",
      "type": "function"
    },
    {
      "inputs": [],
      "name": "rewardNUTPerBlock",
      "outputs": [
        {
          "internalType": "uint256",
          "name": "",
          "type": "uint256"
        }
      ],
      "stateMutability": "view",
      "type": "function"
    },
    {
      "inputs": [],
      "name": "totalLockedNP",
      "outputs": [
        {
          "internalType": "uint256",
          "name": "",
          "type": "uint256"
        }
      ],
      "stateMutability": "view",
      "type": "function"
    },
    {
      "inputs": [
        {
          "internalType": "address",
          "name": "newOwner",
          "type": "address"
        }
      ],
      "name": "transferOwnership",
      "outputs": [],
      "stateMutability": "nonpayable",
      "type": "function"
    },
    {
      "inputs": [
        {
          "internalType": "address",
          "name": "pool",
          "type": "address"
        },
        {
          "internalType": "uint256",
          "name": "amount",
          "type": "uint256"
        }
      ],
      "name": "unvote",
      "outputs": [],
      "stateMutability": "nonpayable",
      "type": "function"
    },
    {
      "inputs": [
        {
          "internalType": "address",
          "name": "community",
          "type": "address"
        },
        {
          "internalType": "address",
          "name": "pool",
          "type": "address"
        },
        {
          "internalType": "uint256",
          "name": "amount",
          "type": "uint256"
        }
      ],
      "name": "updateLedger",
      "outputs": [],
      "stateMutability": "nonpayable",
      "type": "function"
    },
    {
      "inputs": [
        {
          "internalType": "address",
          "name": "pool",
          "type": "address"
        }
      ],
      "name": "userWithdrawReward",
      "outputs": [],
      "stateMutability": "nonpayable",
      "type": "function"
    },
    {
      "inputs": [
        {
          "internalType": "address",
          "name": "pool",
          "type": "address"
        },
        {
          "internalType": "uint256",
          "name": "amount",
          "type": "uint256"
        }
      ],
      "name": "vote",
      "outputs": [],
      "stateMutability": "nonpayable",
      "type": "function"
    }
  ],
  "bytecode": "0x60e06040523480156200001157600080fd5b50604051620037f2380380620037f283398101604081905262000034916200024d565b6200004862000042620001c9565b620001cd565b600180556001600160a01b0385166200007e5760405162461bcd60e51b8152600401620000759062000363565b60405180910390fd5b60408301516020840151845161271092916200009a91620003b8565b620000a69190620003b8565b61ffff1614620000ca5760405162461bcd60e51b815260040162000075906200032c565b825160098054602086015160408088015161ffff1993841661ffff9687161763ffff0000191662010000938716939093029290921761ffff60201b19166401000000009286169290920291909117909255606088811b6001600160601b031990811660c0526002805490931694891694851790925585811b821660805284901b1660a052517fc1e21f86eeaf8282626597cc4a0157034066e12cb0a37eeffd899e6975884f3090600090a27fcaa41cb22bf5f5f46f725bd8caf9e7a27fa5a6c40ed3e1b96ce9507d8190fc61836000015184602001518560400151604051620001b6939291906200039a565b60405180910390a15050505050620003eb565b3390565b600080546001600160a01b038381166001600160a01b0319831681178455604051919092169283917f8be0079c531659141344cd1fd0a4f28419497f9722a3daafe3b4186f6b6457e09190a35050565b80516001600160a01b03811681146200023557600080fd5b919050565b805161ffff811681146200023557600080fd5b600080600080600085870360e081121562000266578182fd5b62000271876200021d565b955062000281602088016200023a565b94506060603f198201121562000295578182fd5b50604051606081016001600160401b0381118282101715620002c557634e487b7160e01b83526041600452602483fd5b8060405250620002d8604088016200023a565b8152620002e8606088016200023a565b6020820152620002fb608088016200023a565b604082015292506200031060a087016200021d565b91506200032060c087016200021d565b90509295509295909350565b6020808252601d908201527f53756d206f6620726174696f732073686f756c64206265203130303030000000604082015260600190565b6020808252601a908201527f496e76616c69646520636f6d6d756e69747920666163746f7279000000000000604082015260600190565b61ffff93841681529183166020830152909116604082015260600190565b600061ffff808316818516808303821115620003e257634e487b7160e01b84526011600452602484fd5b01949350505050565b60805160601c60a05160601c60c05160601c61339d620004556000396000818161203d015261234d015260008181610b7101528181610c34015281816111dc0152818161129f01528181611dda0152611e9d0152600081816107260152611811015261339d6000f3fe608060405234801561001057600080fd5b506004361061013e5760003560e01c806302aa9be2146101435780630f4bba7f146101585780631613250a1461016b578063193a14d614610195578063328686f6146101ac5780633ac5e6c1146101c15780634b6b0fc2146101c9578063577a3936146101e95780635956df99146101fc5780635f74bbde1461020f5780636a22da9514610222578063715018a61461023557806373403a011461023d5780638da5cb5b1461025057806396edb49a14610265578063988a783b1461026d578063a0ea942314610280578063adb5f83c14610293578063b5e084d1146102b3578063c0a32c8b146102c6578063cc3fded4146102d9578063cdeb50c0146102ec578063d5cb5f85146102ff578063ecd4f84d14610312578063efcbc6671461031a578063f2fde38b1461032d575b600080fd5b610156610151366004612d33565b610340565b005b610156610166366004612c83565b610a30565b61017e610179366004612cbb565b610cf9565b60405161018c92919061329a565b60405180910390f35b61019d610f0a565b60405161018c93929190613273565b6101b4610f29565b60405161018c9190613264565b6101b4610f33565b6101dc6101d7366004612c83565b610f3d565b60405161018c9190613291565b6101dc6101f7366004612cbb565b610fd5565b61015661020a366004612c83565b611045565b61015661021d366004612d33565b611452565b610156610230366004612e0e565b611b08565b610156611b82565b61015661024b366004612df4565b611bcd565b610258611c72565b60405161018c9190612e77565b6101dc611c81565b6101dc61027b366004612c83565b611c87565b61015661028e366004612c83565b611c99565b6102a66102a1366004612c83565b611f51565b60405161018c9190612ea4565b6101dc6102c1366004612c83565b611f73565b6101566102d4366004612cbb565b611f85565b6101566102e7366004612cf3565b612336565b6101566102fa366004612d7e565b6125e8565b6101dc61030d366004612c83565b6126fa565b6101dc612787565b6101dc610328366004612c83565b61278d565b61015661033b366004612c83565b6127ab565b6002600154141561036c5760405162461bcd60e51b81526004016103639061322d565b60405180910390fd5b60026001556001600160a01b0382166000908152600a6020908152604080832033845260070190915290205460ff166103b75760405162461bcd60e51b815260040161036390612f54565b806103c157610a28565b6103c961281c565b6103d28261284d565b6001600160a01b038083166000908152600a602090815260408083208054600180830154338752600790930190945291909320909101546101009091048316929190911690831061044c576001600160a01b0384166000908152600a6020908152604080832033845260070190915290206001015461044e565b825b6001600160a01b0385166000908152600a60209081526040808320338452600701909152902060010154909350156105cf576001600160a01b0384166000908152600a60209081526040808320338452600701909152812060038101546005546001909201546104d9926104d39164e8d4a51000916104cd9190612979565b9061298c565b90612998565b6001600160a01b0386166000908152600a602090815260408083203384526007810190925282206005810154600390920154600190910154939450919261052f926104d39164e8d4a51000916104cd9190612979565b6001600160a01b0387166000908152600a6020908152604080832033845260070190915290206002015490915061056690836129a4565b6001600160a01b0387166000908152600a6020908152604080832033845260070190915290206002810191909155600401546105a290826129a4565b6001600160a01b0387166000908152600a6020908152604080832033845260070190915290206004015550505b6001600160a01b0382166000908152600b60205260409020541561066f576001600160a01b0382166000908152600f6020908152604080832054600754600b9093529083205461062e926104d39164e8d4a51000916104cd9190612979565b6001600160a01b0384166000908152600d602052604090205490915061065490826129a4565b6001600160a01b0384166000908152600d6020526040902055505b6001600160a01b0381166000908152600c60205260409020541561070f576001600160a01b038116600090815260106020908152604080832054600654600c909352908320546106ce926104d39164e8d4a51000916104cd9190612979565b6001600160a01b0383166000908152600e60205260409020549091506106f490826129a4565b6001600160a01b0383166000908152600e6020526040902055505b604051637eee288d60e01b81526001600160a01b037f00000000000000000000000000000000000000000000000000000000000000001690637eee288d9061075d9033908790600401612e8b565b600060405180830381600087803b15801561077757600080fd5b505af115801561078b573d6000803e3d6000fd5b5050506001600160a01b0385166000908152600a602090815260408083203384526007019091529020600101546107c3915084612998565b6001600160a01b0385166000818152600a6020818152604080842033855260078101835290842060010195909555929091529052600601546108059084612998565b6001600160a01b038086166000908152600a60209081526040808320600601949094559185168152600b909152205461083e9084612998565b6001600160a01b038084166000908152600b60209081526040808320949094559184168152600c90915220546108749084612998565b6001600160a01b0382166000908152600c602052604090205560085461089a9084612998565b6008556005546001600160a01b0385166000908152600a602090815260408083203384526007019091529020600101546108de9164e8d4a51000916104cd91612979565b6001600160a01b0385166000908152600a602090815260408083203384526007810190925290912060038082019390935591015460019091015461092c9164e8d4a51000916104cd91612979565b6001600160a01b038086166000908152600a60209081526040808320338452600790810183528184206005019590955593549286168252600b905291909120546109809164e8d4a51000916104cd91612979565b6001600160a01b038084166000908152600f60209081526040808320949094556006549285168252600c905291909120546109c59164e8d4a51000916104cd91612979565b6001600160a01b038083166000818152601060205260409081902093909355915186821692918516907f4b165e1c14d0cdd7d2fbe27945f3417f5fe4da6f02b5b8ec3b915392505b2b8690610a1d9033908990612e8b565b60405180910390a450505b505060018055565b60026001541415610a535760405162461bcd60e51b81526004016103639061322d565b6002600181905550336001600160a01b0316816001600160a01b0316638da5cb5b6040518163ffffffff1660e01b815260040160206040518083038186803b158015610a9e57600080fd5b505afa158015610ab2573d6000803e3d6000fd5b505050506040513d601f19601f82011682018060405250810190610ad69190612c9f565b6001600160a01b031614610afc5760405162461bcd60e51b815260040161036390613099565b610b0461281c565b6001600160a01b0381166000908152600f6020908152604080832054600754600b90935290832054610b45926104d39164e8d4a51000916104cd9190612979565b6001600160a01b0383166000908152600d602052604081205491925090610b6c90836129a4565b9050807f00000000000000000000000000000000000000000000000000000000000000006001600160a01b03166370a08231306040518263ffffffff1660e01b8152600401610bbb9190612e77565b60206040518083038186803b158015610bd357600080fd5b505afa158015610be7573d6000803e3d6000fd5b505050506040513d601f19601f82011682018060405250810190610c0b9190612e26565b1015610c295760405162461bcd60e51b815260040161036390613195565b8015610c5a57610c5a7f000000000000000000000000000000000000000000000000000000000000000033836129b0565b6001600160a01b0383166000908152600d60209081526040808320839055600754600b90925290912054610c989164e8d4a51000916104cd91612979565b6001600160a01b0384166000818152600f6020526040908190209290925590513391907faa2bc99b8e0f4d7c97f94d36d5273baad8f19ea0514903cf463b4f80dd4be8df90610ce8908590613291565b60405180910390a350506001805550565b6001600160a01b038083166000908152600a6020908152604080832093851683526007909301905290812054819060ff16610d3957506000905080610f03565b600854610d74576001600160a01b038085166000908152600a6020908152604080832093871683526007909301905220600201549150610de4565b6000610d7e6129c2565b6001600160a01b038881166000908152600a60209081526040808320938b168352600790930190522060028101546003820154600190920154929550610de094509250610dda916104d39064e8d4a51000906104cd9088612979565b906129a4565b9250505b6001600160a01b0384166000908152600a6020526040902060060154610e3757506001600160a01b038084166000908152600a602090815260408083209386168352600790930190522060040154610f03565b6001600160a01b0384166000908152600a6020526040812060068101546005820154600490920154610ea492610e8292916104cd9164e8d4a5100091610e7c91612998565b90612979565b6001600160a01b0387166000908152600a6020526040902060030154906129a4565b6001600160a01b038681166000908152600a602090815260408083209389168352600790930190522060048101546005820154600190920154929350610eff929091610dda916104d39064e8d4a51000906104cd9088612979565b9150505b9250929050565b60095461ffff80821691620100008104821691600160201b9091041683565b60025461ffff1690565b60025461ffff1681565b6001600160a01b0381166000908152600c602052604081205480610f7b576001600160a01b0383166000908152600e60205260409020549150610fcf565b6000610f856129c2565b506001600160a01b0386166000908152600e6020908152604080832054601090925290912054919350610fcb925090610dda906104d364e8d4a510006104cd8888612979565b9250505b50919050565b6001600160a01b038083166000908152600a602090815260408083209385168352600790930190529081205460ff166110105750600061103f565b506001600160a01b038083166000908152600a6020908152604080832093851683526007909301905220600101545b92915050565b600260015414156110685760405162461bcd60e51b81526004016103639061322d565b60026001556001600160a01b0381166000908152600a6020908152604080832033845260070190915290205460ff166110b35760405162461bcd60e51b815260040161036390612f54565b6110bb61281c565b6110c48161284d565b6001600160a01b0381166000908152600a6020908152604080832033845260070190915281206003810154600554600190920154611111926104d39164e8d4a51000916104cd9190612979565b6001600160a01b0383166000908152600a6020908152604080832033845260078101909252822060058101546003909201546001909101549394509192611167926104d39164e8d4a51000916104cd9190612979565b6001600160a01b0384166000908152600a602090815260408083203384526007019091528120600201549192509061119f90846129a4565b6001600160a01b0385166000908152600a60209081526040808320338452600701909152812060040154919250906111d790846129a4565b9050817f00000000000000000000000000000000000000000000000000000000000000006001600160a01b03166370a08231306040518263ffffffff1660e01b81526004016112269190612e77565b60206040518083038186803b15801561123e57600080fd5b505afa158015611252573d6000803e3d6000fd5b505050506040513d601f19601f820116820180604052508101906112769190612e26565b10156112945760405162461bcd60e51b815260040161036390613195565b81156112c5576112c57f000000000000000000000000000000000000000000000000000000000000000033846129b0565b80156112f4576001600160a01b038086166000908152600a60205260409020600201546112f4911633836129b0565b6001600160a01b0385166000908152600a6020908152604080832033845260070190915281206002810182905560048101919091556005546001909101546113469164e8d4a51000916104cd91612979565b6001600160a01b0386166000908152600a60209081526040808320338452600781019092529091206003808201939093559101546001909101546113949164e8d4a51000916104cd91612979565b6001600160a01b0386166000818152600a602090815260408083203380855260079091019092529182902060050193909355517f1b5c4fd38f593948e19e8520646171f8f1e4cdbb550f4224936fb20dd80f489b906113f4908690613291565b60405180910390a3336001600160a01b0316856001600160a01b03167fbe79b489d79f386834ea4ea487e866469c68bfde4520f36132f90b6003c2fc4d8360405161143f9190613291565b60405180910390a3505060018055505050565b600260015414156114755760405162461bcd60e51b81526004016103639061322d565b60026001556001600160a01b0382166000908152600a602052604090205460ff166114b25760405162461bcd60e51b81526004016103639061316a565b806114bc57610a28565b6001600160a01b0382166000908152600a6020908152604080832033845260070190915290205460ff1661151c576001600160a01b0382166000908152600a602090815260408083203384526007019091529020805460ff191660011790555b61152461281c565b61152d8261284d565b6001600160a01b038083166000908152600a602090815260408083208054600180830154338752600790930190945291909320909101546101009091048316929190911690156116ba576001600160a01b0384166000908152600a60209081526040808320338452600701909152812060038101546005546001909201546115c4926104d39164e8d4a51000916104cd9190612979565b6001600160a01b0386166000908152600a602090815260408083203384526007810190925282206005810154600390920154600190910154939450919261161a926104d39164e8d4a51000916104cd9190612979565b6001600160a01b0387166000908152600a6020908152604080832033845260070190915290206002015490915061165190836129a4565b6001600160a01b0387166000908152600a60209081526040808320338452600701909152902060028101919091556004015461168d90826129a4565b6001600160a01b0387166000908152600a6020908152604080832033845260070190915290206004015550505b6001600160a01b0382166000908152600b60205260409020541561175a576001600160a01b0382166000908152600f6020908152604080832054600754600b90935290832054611719926104d39164e8d4a51000916104cd9190612979565b6001600160a01b0384166000908152600d602052604090205490915061173f90826129a4565b6001600160a01b0384166000908152600d6020526040902055505b6001600160a01b0381166000908152600c6020526040902054156117fa576001600160a01b038116600090815260106020908152604080832054600654600c909352908320546117b9926104d39164e8d4a51000916104cd9190612979565b6001600160a01b0383166000908152600e60205260409020549091506117df90826129a4565b6001600160a01b0383166000908152600e6020526040902055505b60405163282d3fdf60e01b81526001600160a01b037f0000000000000000000000000000000000000000000000000000000000000000169063282d3fdf906118489033908790600401612e8b565b600060405180830381600087803b15801561186257600080fd5b505af1158015611876573d6000803e3d6000fd5b5050506001600160a01b0385166000908152600a602090815260408083203384526007019091529020600101546118ae9150846129a4565b6001600160a01b0385166000818152600a6020818152604080842033855260078101835290842060010195909555929091529052600601546118f090846129a4565b6001600160a01b038086166000908152600a60209081526040808320600601949094559185168152600b909152205461192990846129a4565b6001600160a01b038084166000908152600b60209081526040808320949094559184168152600c909152205461195f90846129a4565b6001600160a01b0382166000908152600c602052604090205560085461198590846129a4565b6008556005546001600160a01b0385166000908152600a602090815260408083203384526007019091529020600101546119c99164e8d4a51000916104cd91612979565b6001600160a01b0385166000908152600a6020908152604080832033845260078101909252909120600380820193909355910154600190910154611a179164e8d4a51000916104cd91612979565b6001600160a01b038086166000908152600a60209081526040808320338452600790810183528184206005019590955593549286168252600b90529190912054611a6b9164e8d4a51000916104cd91612979565b6001600160a01b038084166000908152600f60209081526040808320949094556006549285168252600c90529190912054611ab09164e8d4a51000916104cd91612979565b6001600160a01b038083166000818152601060205260409081902093909355915186821692918516907f1d951b7eea5a24db5ac6960d4b8ef98655d7e2e30a9f616be39b3a432fdb516a90610a1d9033908990612e8b565b611b10612a86565b6001600160a01b0316611b21611c72565b6001600160a01b031614611b475760405162461bcd60e51b815260040161036390613135565b611b4f61281c565b600381905560405181907f528b87b815dc5bf51860cc985cb3186e9205527f7d82ded7a6d21d2e8ea360bb90600090a250565b611b8a612a86565b6001600160a01b0316611b9b611c72565b6001600160a01b031614611bc15760405162461bcd60e51b815260040161036390613135565b611bcb6000612a8a565b565b611bd5612a86565b6001600160a01b0316611be6611c72565b6001600160a01b031614611c0c5760405162461bcd60e51b815260040161036390613135565b61271061ffff82161115611c325760405162461bcd60e51b8152600401610363906131ea565b6002805461ffff191661ffff83169081179091556040517fc1e21f86eeaf8282626597cc4a0157034066e12cb0a37eeffd899e6975884f3090600090a250565b6000546001600160a01b031690565b60035481565b600b6020526000908152604090205481565b60026001541415611cbc5760405162461bcd60e51b81526004016103639061322d565b6002600181905550336001600160a01b0316816001600160a01b0316638da5cb5b6040518163ffffffff1660e01b815260040160206040518083038186803b158015611d0757600080fd5b505afa158015611d1b573d6000803e3d6000fd5b505050506040513d601f19601f82011682018060405250810190611d3f9190612c9f565b6001600160a01b031614611d655760405162461bcd60e51b815260040161036390612f11565b611d6d61281c565b6001600160a01b038116600090815260106020908152604080832054600654600c90935290832054611dae926104d39164e8d4a51000916104cd9190612979565b6001600160a01b0383166000908152600e602052604081205491925090611dd590836129a4565b9050807f00000000000000000000000000000000000000000000000000000000000000006001600160a01b03166370a08231306040518263ffffffff1660e01b8152600401611e249190612e77565b60206040518083038186803b158015611e3c57600080fd5b505afa158015611e50573d6000803e3d6000fd5b505050506040513d601f19601f82011682018060405250810190611e749190612e26565b1015611e925760405162461bcd60e51b815260040161036390613195565b8015611ec357611ec37f000000000000000000000000000000000000000000000000000000000000000033836129b0565b6001600160a01b0383166000908152600e60209081526040808320839055600654600c90925290912054611f019164e8d4a51000916104cd91612979565b6001600160a01b038416600081815260106020526040908190209290925590513391907fd758faabbb7ce25ddd20d7b6a96321fbfeddaa364efec57174c9d56ff3462d5f90610ce8908590613291565b6001600160a01b0381166000908152600a602052604090205460ff165b919050565b600c6020526000908152604090205481565b336001600160a01b0316826001600160a01b0316638da5cb5b6040518163ffffffff1660e01b815260040160206040518083038186803b158015611fc857600080fd5b505afa158015611fdc573d6000803e3d6000fd5b505050506040513d601f19601f820116820180604052508101906120009190612c9f565b6001600160a01b0316146120265760405162461bcd60e51b815260040161036390613062565b604051633454a5b760e11b81526001600160a01b037f000000000000000000000000000000000000000000000000000000000000000016906368a94b6e90612072908590600401612e77565b60206040518083038186803b15801561208a57600080fd5b505afa15801561209e573d6000803e3d6000fd5b505050506040513d601f19601f820116820180604052508101906120c29190612d5e565b6120de5760405162461bcd60e51b8152600401610363906131bf565b604051634c7b4f4d60e11b81526001600160a01b038316906398f69e9a9061210a908490600401612e77565b60206040518083038186803b15801561212257600080fd5b505afa158015612136573d6000803e3d6000fd5b505050506040513d601f19601f8201168201806040525081019061215a9190612d5e565b6121765760405162461bcd60e51b81526004016103639061302d565b6001600160a01b0381166000908152600a602052604090205460ff16156121af5760405162461bcd60e51b8152600401610363906130da565b6000826001600160a01b03166399efcaec6040518163ffffffff1660e01b815260040160206040518083038186803b1580156121ea57600080fd5b505afa1580156121fe573d6000803e3d6000fd5b505050506040513d601f19601f820116820180604052508101906122229190612c9f565b90506000826001600160a01b03166388cc58e46040518163ffffffff1660e01b815260040160206040518083038186803b15801561225f57600080fd5b505afa158015612273573d6000803e3d6000fd5b505050506040513d601f19601f820116820180604052508101906122979190612c9f565b6001600160a01b038085166000818152600a602052604080822080548a86166101008102610100600160a81b031960ff1990931660019081179390931617835590820180548789166001600160a01b0319918216811790925560029093018054978b169790931696909617909155905194955091937f81abdaee058fb5343c449f83d7434277f871526731d3b46b7427a88f8c0bdb709190a450505050565b604051633454a5b760e11b81526001600160a01b037f000000000000000000000000000000000000000000000000000000000000000016906368a94b6e90612382908690600401612e77565b60206040518083038186803b15801561239a57600080fd5b505afa1580156123ae573d6000803e3d6000fd5b505050506040513d601f19601f820116820180604052508101906123d29190612d5e565b6123ee5760405162461bcd60e51b8152600401610363906131bf565b6001600160a01b03831633146124165760405162461bcd60e51b815260040161036390613103565b604051634c7b4f4d60e11b81526001600160a01b038416906398f69e9a90612442908590600401612e77565b60206040518083038186803b15801561245a57600080fd5b505afa15801561246e573d6000803e3d6000fd5b505050506040513d601f19601f820116820180604052508101906124929190612d5e565b6124ae5760405162461bcd60e51b81526004016103639061302d565b6001600160a01b0382166000908152600a602052604090205460ff166124e65760405162461bcd60e51b815260040161036390612eaf565b6000826001600160a01b03166388cc58e46040518163ffffffff1660e01b815260040160206040518083038186803b15801561252157600080fd5b505afa158015612535573d6000803e3d6000fd5b505050506040513d601f19601f820116820180604052508101906125599190612c9f565b6001600160a01b0384166000908152600a602052604090206004015490915061258290836129a4565b6001600160a01b038085166000818152600a602052604090819020600401939093559151838216918716907f630d967e6aa5a0552cfc5e83109394c422516f864805ab9804ad8d806b64ee53906125da908790613291565b60405180910390a450505050565b6125f0612a86565b6001600160a01b0316612601611c72565b6001600160a01b0316146126275760405162461bcd60e51b815260040161036390613135565b6040810151602082015182516127109291612641916132a8565b61264b91906132a8565b61ffff161461266c5760405162461bcd60e51b815260040161036390612fca565b61267461281c565b805160098054602084015160408086015161ffff1990931661ffff8087169190911763ffff0000191662010000828516021761ffff60201b1916600160201b918516919091021790935591517fcaa41cb22bf5f5f46f725bd8caf9e7a27fa5a6c40ed3e1b96ce9507d8190fc61936126ef9390929091613273565b60405180910390a150565b6001600160a01b0381166000908152600b602052604081205480612738576001600160a01b0383166000908152600d60205260409020549150610fcf565b60006127426129c2565b50506001600160a01b0385166000908152600d6020908152604080832054600f90925290912054919250610fcb91610dda906104d364e8d4a510006104cd8888612979565b60085481565b6001600160a01b03166000908152600a602052604090206006015490565b6127b3612a86565b6001600160a01b03166127c4611c72565b6001600160a01b0316146127ea5760405162461bcd60e51b815260040161036390613135565b6001600160a01b0381166128105760405162461bcd60e51b815260040161036390612f84565b61281981612a8a565b50565b60045461282857436004555b600454431161283657611bcb565b61283e6129c2565b60055560065560075543600455565b6001600160a01b0381166000908152600a602052604090205460ff1661287257612819565b6001600160a01b0381166000908152600a60205260409020600501546128b6576001600160a01b0381166000908152600a6020526040902060048101546005909101555b6001600160a01b0381166000908152600a60205260409020600481015460059091015414156128e457612819565b6001600160a01b0381166000908152600a602052604090206006810154600582015460049092015461294b9261292992916104cd9164e8d4a5100091610e7c91612998565b6001600160a01b0383166000908152600a6020526040902060030154906129a4565b6001600160a01b0382166000908152600a602052604090206003810191909155600481015460059091015550565b60006129858284613306565b9392505050565b600061298582846132e6565b60006129858284613325565b600061298582846132ce565b826129bc818484612ada565b50505050565b6000806000600854600014156129e657600754925060065491506005549050612a81565b60008060006129f3612b35565b925092509250612a23612a1a6008546104cd64e8d4a510008761297990919063ffffffff16565b600754906129a4565b9550612a4f612a466008546104cd64e8d4a510008661297990919063ffffffff16565b600654906129a4565b9450612a7b612a726008546104cd64e8d4a510008561297990919063ffffffff16565b600554906129a4565b93505050505b909192565b3390565b600080546001600160a01b038381166001600160a01b0319831681178455604051919092169283917f8be0079c531659141344cd1fd0a4f28419497f9722a3daafe3b4186f6b6457e09190a35050565b612b308363a9059cbb60e01b8484604051602401612af9929190612e8b565b60408051601f198184030181529190526020810180516001600160e01b03166001600160e01b031990931692909217909152612bbb565b505050565b600080600080612b4f60035460045443610e7c9190613325565b600954909150612b6c90612710906104cd90849061ffff16612979565b600954909450612b8f90612710906104cd90849062010000900461ffff16612979565b600954909350612bb390612710906104cd908490600160201b900461ffff16612979565b915050909192565b600080836001600160a01b031683604051612bd69190612e3e565b6000604051808303816000865af19150503d8060008114612c13576040519150601f19603f3d011682016040523d82523d6000602084013e612c18565b606091505b509150915081612c3a5760405162461bcd60e51b815260040161036390613001565b8051156129bc5780806020019051810190612c559190612d5e565b6129bc5760405162461bcd60e51b815260040161036390612edc565b803561ffff81168114611f6e57600080fd5b600060208284031215612c94578081fd5b813561298581613352565b600060208284031215612cb0578081fd5b815161298581613352565b60008060408385031215612ccd578081fd5b8235612cd881613352565b91506020830135612ce881613352565b809150509250929050565b600080600060608486031215612d07578081fd5b8335612d1281613352565b92506020840135612d2281613352565b929592945050506040919091013590565b60008060408385031215612d45578182fd5b8235612d5081613352565b946020939093013593505050565b600060208284031215612d6f578081fd5b81518015158114612985578182fd5b600060608284031215612d8f578081fd5b604051606081016001600160401b0381118282101715612dbd57634e487b7160e01b83526041600452602483fd5b604052612dc983612c71565b8152612dd760208401612c71565b6020820152612de860408401612c71565b60408201529392505050565b600060208284031215612e05578081fd5b61298582612c71565b600060208284031215612e1f578081fd5b5035919050565b600060208284031215612e37578081fd5b5051919050565b60008251815b81811015612e5e5760208186018101518583015201612e44565b81811115612e6c5782828501525b509190910192915050565b6001600160a01b0391909116815260200190565b6001600160a01b03929092168252602082015260400190565b901515815260200190565b60208082526013908201527211d85d59d9481a185cc81b9bdd081859191959606a1b604082015260600190565b6020808252818101527f45524332303a206f7065726174696f6e20646964206e6f742073756363656564604082015260600190565b60208082526023908201527f4f6e6c7920706f6f6c466163746f7279206f776e65722063616e20776974686460408201526272617760e81b606082015260800190565b60208082526016908201527521b0b63632b9103737ba1030903232b837b9b4ba37b960511b604082015260600190565b60208082526026908201527f4f776e61626c653a206e6577206f776e657220697320746865207a65726f206160408201526564647265737360d01b606082015260800190565b6020808252601d908201527f53756d206f6620726174696f732073686f756c64206265203130303030000000604082015260600190565b602080825260129082015271115490cc8c0e8818d85b1b0819985a5b195960721b604082015260600190565b6020808252601b908201527a141bdbdb081a5cc81b9bdd08195e1a5cdd081bdc8818db1bdcd959602a1b604082015260600190565b6020808252601d908201527f4f6e6c7920636f6d6d756e697479206f776e65722063616e2063616c6c000000604082015260600190565b60208082526021908201527f4f6e6c7920636f6d6d756e697479206f776e65722063616e20776974686472616040820152607760f81b606082015260800190565b6020808252600f908201526e11d85d59d9481a185cc81859191959608a1b604082015260600190565b6020808252601890820152774f6e6c792063616c6c656420627920636f6d6d756e69747960401b604082015260600190565b6020808252818101527f4f776e61626c653a2063616c6c6572206973206e6f7420746865206f776e6572604082015260600190565b60208082526011908201527011d85d59d9481b9bdd0818dc99585d1959607a1b604082015260600190565b60208082526010908201526f125b9cdd59999a58da595b9d0813955560821b604082015260600190565b602080825260119082015270496e76616c696420636f6d6d756e69747960781b604082015260600190565b60208082526023908201527f526174696f206d757374206c657373206f7220657175616c207468616e20313060408201526203030360ec1b606082015260800190565b6020808252601f908201527f5265656e7472616e637947756172643a207265656e7472616e742063616c6c00604082015260600190565b61ffff91909116815260200190565b61ffff93841681529183166020830152909116604082015260600190565b90815260200190565b918252602082015260400190565b600061ffff8083168185168083038211156132c5576132c561333c565b01949350505050565b600082198211156132e1576132e161333c565b500190565b60008261330157634e487b7160e01b81526012600452602481fd5b500490565b60008160001904831182151516156133205761332061333c565b500290565b6000828210156133375761333761333c565b500390565b634e487b7160e01b600052601160045260246000fd5b6001600160a01b038116811461281957600080fdfea2646970667358221220677845c3ba36653c5998168ee67f09db77435e43cc43846337e60d99155fd1e664736f6c63430008000033",
  "linkReferences": {},
  "deployedLinkReferences": {}
}