{
  "_format": "hh-sol-artifact-1",
  "contractName": "ERC1155StakingFactory",
  "sourceName": "contracts/dapps/erc1155-staking/ERC1155StakingFactory.sol",
  "abi": [
    {
      "inputs": [
        {
          "internalType": "address",
          "name": "_communityFactory",
          "type": "address"
        }
      ],
      "stateMutability": "nonpayable",
      "type": "constructor"
    },
    {
      "anonymous": false,
      "inputs": [
        {
          "indexed": true,
          "internalType": "address",
          "name": "pool",
          "type": "address"
        },
        {
          "indexed": true,
          "internalType": "address",
          "name": "community",
          "type": "address"
        },
        {
          "indexed": false,
          "internalType": "string",
          "name": "name",
          "type": "string"
        },
        {
          "indexed": true,
          "internalType": "address",
          "name": "erc1155Token",
          "type": "address"
        },
        {
          "indexed": false,
          "internalType": "uint256",
          "name": "id",
          "type": "uint256"
        }
      ],
      "name": "ERC1155StakingCreated",
      "type": "event"
    },
    {
      "anonymous": false,
      "inputs": [
        {
          "indexed": true,
          "internalType": "address",
          "name": "previousOwner",
          "type": "address"
        },
        {
          "indexed": true,
          "internalType": "address",
          "name": "newOwner",
          "type": "address"
        }
      ],
      "name": "OwnershipTransferred",
      "type": "event"
    },
    {
      "inputs": [],
      "name": "communityFactory",
      "outputs": [
        {
          "internalType": "address",
          "name": "",
          "type": "address"
        }
      ],
      "stateMutability": "view",
      "type": "function"
    },
    {
      "inputs": [
        {
          "internalType": "address",
          "name": "community",
          "type": "address"
        },
        {
          "internalType": "string",
          "name": "name",
          "type": "string"
        },
        {
          "internalType": "bytes",
          "name": "meta",
          "type": "bytes"
        }
      ],
      "name": "createPool",
      "outputs": [
        {
          "internalType": "address",
          "name": "",
          "type": "address"
        }
      ],
      "stateMutability": "nonpayable",
      "type": "function"
    },
    {
      "inputs": [],
      "name": "owner",
      "outputs": [
        {
          "internalType": "address",
          "name": "",
          "type": "address"
        }
      ],
      "stateMutability": "view",
      "type": "function"
    },
    {
      "inputs": [],
      "name": "renounceOwnership",
      "outputs": [],
      "stateMutability": "nonpayable",
      "type": "function"
    },
    {
      "inputs": [
        {
          "internalType": "address",
          "name": "newOwner",
          "type": "address"
        }
      ],
      "name": "transferOwnership",
      "outputs": [],
      "stateMutability": "nonpayable",
      "type": "function"
    }
  ],
  "bytecode": "0x60a06040523480156200001157600080fd5b50604051620038e4380380620038e48339818101604052810190620000379190620001eb565b620000576200004b6200010860201b60201c565b6200011060201b60201c565b600073ffffffffffffffffffffffffffffffffffffffff168173ffffffffffffffffffffffffffffffffffffffff161415620000ca576040517f08c379a0000000000000000000000000000000000000000000000000000000008152600401620000c19062000259565b60405180910390fd5b8073ffffffffffffffffffffffffffffffffffffffff1660808173ffffffffffffffffffffffffffffffffffffffff1660601b8152505050620002da565b600033905090565b60008060009054906101000a900473ffffffffffffffffffffffffffffffffffffffff169050816000806101000a81548173ffffffffffffffffffffffffffffffffffffffff021916908373ffffffffffffffffffffffffffffffffffffffff1602179055508173ffffffffffffffffffffffffffffffffffffffff168173ffffffffffffffffffffffffffffffffffffffff167f8be0079c531659141344cd1fd0a4f28419497f9722a3daafe3b4186f6b6457e060405160405180910390a35050565b600081519050620001e581620002c0565b92915050565b600060208284031215620001fe57600080fd5b60006200020e84828501620001d4565b91505092915050565b600062000226600f836200027b565b91507f496e76616c6964206164647265737300000000000000000000000000000000006000830152602082019050919050565b60006020820190508181036000830152620002748162000217565b9050919050565b600082825260208201905092915050565b60006200029982620002a0565b9050919050565b600073ffffffffffffffffffffffffffffffffffffffff82169050919050565b620002cb816200028c565b8114620002d757600080fd5b50565b60805160601c6135e4620003006000396000818161023801526105ba01526135e46000f3fe60806040523480156200001157600080fd5b50600436106200005e5760003560e01c8063715018a614620000635780638da5cb5b146200006f578063b883cc2a1462000091578063f2fde38b14620000c7578063fac8a61014620000e7575b600080fd5b6200006d62000109565b005b620000796200019a565b60405162000088919062000baa565b60405180910390f35b620000af6004803603810190620000a99190620008b6565b620001c3565b604051620000be919062000baa565b60405180910390f35b620000e56004803603810190620000df91906200088a565b620004b4565b005b620000f1620005b8565b60405162000100919062000baa565b60405180910390f35b62000113620005dc565b73ffffffffffffffffffffffffffffffffffffffff16620001336200019a565b73ffffffffffffffffffffffffffffffffffffffff16146200018c576040517f08c379a0000000000000000000000000000000000000000000000000000000008152600401620001839062000cb5565b60405180910390fd5b620001986000620005e4565b565b60008060009054906101000a900473ffffffffffffffffffffffffffffffffffffffff16905090565b60003373ffffffffffffffffffffffffffffffffffffffff168573ffffffffffffffffffffffffffffffffffffffff161462000236576040517f08c379a00000000000000000000000000000000000000000000000000000000081526004016200022d9062000c71565b60405180910390fd5b7f000000000000000000000000000000000000000000000000000000000000000073ffffffffffffffffffffffffffffffffffffffff166368a94b6e866040518263ffffffff1660e01b815260040162000291919062000baa565b60206040518083038186803b158015620002aa57600080fd5b505afa158015620002bf573d6000803e3d6000fd5b505050506040513d601f19601f82011682018060405250810190620002e5919062000943565b62000327576040517f08c379a00000000000000000000000000000000000000000000000000000000081526004016200031e9062000cf9565b60405180910390fd5b600062000383600085858080601f016020809104026020016040519081016040528093929190818152602001838380828437600081840152601f19601f82011690508083019250505050505050620006a890919063ffffffff16565b90506000620003e1601486868080601f016020809104026020016040519081016040528093929190818152602001838380828437600081840152601f19601f820116905080830192505050505050506200072390919063ffffffff16565b9050600087878484604051620003f7906200078f565b62000406949392919062000bc7565b604051809103906000f08015801562000423573d6000803e3d6000fd5b5090508273ffffffffffffffffffffffffffffffffffffffff168873ffffffffffffffffffffffffffffffffffffffff168273ffffffffffffffffffffffffffffffffffffffff167f648f9d0f58bf57b905c583b7cb7cd2d1236ebca7c5c70fcd300bd5414c52cd1a8a866040516200049e92919062000c1b565b60405180910390a4809350505050949350505050565b620004be620005dc565b73ffffffffffffffffffffffffffffffffffffffff16620004de6200019a565b73ffffffffffffffffffffffffffffffffffffffff161462000537576040517f08c379a00000000000000000000000000000000000000000000000000000000081526004016200052e9062000cb5565b60405180910390fd5b600073ffffffffffffffffffffffffffffffffffffffff168173ffffffffffffffffffffffffffffffffffffffff161415620005aa576040517f08c379a0000000000000000000000000000000000000000000000000000000008152600401620005a19062000c4f565b60405180910390fd5b620005b581620005e4565b50565b7f000000000000000000000000000000000000000000000000000000000000000081565b600033905090565b60008060009054906101000a900473ffffffffffffffffffffffffffffffffffffffff169050816000806101000a81548173ffffffffffffffffffffffffffffffffffffffff021916908373ffffffffffffffffffffffffffffffffffffffff1602179055508173ffffffffffffffffffffffffffffffffffffffff168173ffffffffffffffffffffffffffffffffffffffff167f8be0079c531659141344cd1fd0a4f28419497f9722a3daafe3b4186f6b6457e060405160405180910390a35050565b6000601482620006b9919062000d9e565b83511015620006ff576040517f08c379a0000000000000000000000000000000000000000000000000000000008152600401620006f69062000cd7565b60405180910390fd5b60006c01000000000000000000000000836020860101510490508091505092915050565b600060208262000734919062000d9e565b835110156200077a576040517f08c379a0000000000000000000000000000000000000000000000000000000008152600401620007719062000c93565b60405180910390fd5b60008260208501015190508091505092915050565b6126818062000f2e83390190565b6000620007b4620007ae8462000d4f565b62000d1b565b905082815260208101848484011115620007cd57600080fd5b620007da84828562000e45565b509392505050565b600081359050620007f38162000ef9565b92915050565b6000815190506200080a8162000f13565b92915050565b60008083601f8401126200082357600080fd5b8235905067ffffffffffffffff8111156200083d57600080fd5b6020830191508360018202830111156200085657600080fd5b9250929050565b600082601f8301126200086f57600080fd5b8135620008818482602086016200079d565b91505092915050565b6000602082840312156200089d57600080fd5b6000620008ad84828501620007e2565b91505092915050565b60008060008060608587031215620008cd57600080fd5b6000620008dd87828801620007e2565b945050602085013567ffffffffffffffff811115620008fb57600080fd5b62000909878288016200085d565b935050604085013567ffffffffffffffff8111156200092757600080fd5b620009358782880162000810565b925092505092959194509250565b6000602082840312156200095657600080fd5b60006200096684828501620007f9565b91505092915050565b6200097a8162000dfb565b82525050565b60006200098d8262000d82565b62000999818562000d8d565b9350620009ab81856020860162000e54565b620009b68162000ee8565b840191505092915050565b6000620009d060268362000d8d565b91507f4f776e61626c653a206e6577206f776e657220697320746865207a65726f206160008301527f64647265737300000000000000000000000000000000000000000000000000006020830152604082019050919050565b600062000a38602a8362000d8d565b91507f5065726d697373696f6e2064656e6965643a2063616c6c6572206973206e6f7460008301527f20636f6d6d756e697479000000000000000000000000000000000000000000006020830152604082019050919050565b600062000aa060158362000d8d565b91507f746f55696e743235365f6f75744f66426f756e647300000000000000000000006000830152602082019050919050565b600062000ae260208362000d8d565b91507f4f776e61626c653a2063616c6c6572206973206e6f7420746865206f776e65726000830152602082019050919050565b600062000b2460158362000d8d565b91507f746f416464726573735f6f75744f66426f756e647300000000000000000000006000830152602082019050919050565b600062000b6660118362000d8d565b91507f496e76616c696420636f6d6d756e6974790000000000000000000000000000006000830152602082019050919050565b62000ba48162000e3b565b82525050565b600060208201905062000bc160008301846200096f565b92915050565b600060808201905062000bde60008301876200096f565b818103602083015262000bf2818662000980565b905062000c0360408301856200096f565b62000c12606083018462000b99565b95945050505050565b6000604082019050818103600083015262000c37818562000980565b905062000c48602083018462000b99565b9392505050565b6000602082019050818103600083015262000c6a81620009c1565b9050919050565b6000602082019050818103600083015262000c8c8162000a29565b9050919050565b6000602082019050818103600083015262000cae8162000a91565b9050919050565b6000602082019050818103600083015262000cd08162000ad3565b9050919050565b6000602082019050818103600083015262000cf28162000b15565b9050919050565b6000602082019050818103600083015262000d148162000b57565b9050919050565b6000604051905081810181811067ffffffffffffffff8211171562000d455762000d4462000eb9565b5b8060405250919050565b600067ffffffffffffffff82111562000d6d5762000d6c62000eb9565b5b601f19601f8301169050602081019050919050565b600081519050919050565b600082825260208201905092915050565b600062000dab8262000e3b565b915062000db88362000e3b565b9250827fffffffffffffffffffffffffffffffffffffffffffffffffffffffffffffffff0382111562000df05762000def62000e8a565b5b828201905092915050565b600062000e088262000e1b565b9050919050565b60008115159050919050565b600073ffffffffffffffffffffffffffffffffffffffff82169050919050565b6000819050919050565b82818337600083830152505050565b60005b8381101562000e7457808201518184015260208101905062000e57565b8381111562000e84576000848401525b50505050565b7f4e487b7100000000000000000000000000000000000000000000000000000000600052601160045260246000fd5b7f4e487b7100000000000000000000000000000000000000000000000000000000600052604160045260246000fd5b6000601f19601f8301169050919050565b62000f048162000dfb565b811462000f1057600080fd5b50565b62000f1e8162000e0f565b811462000f2a57600080fd5b5056fe6101006040523480156200001257600080fd5b506040516200268138038062002681833981810160405281019062000038919062000260565b60016000819055503373ffffffffffffffffffffffffffffffffffffffff1660808173ffffffffffffffffffffffffffffffffffffffff1660601b815250508373ffffffffffffffffffffffffffffffffffffffff1660e08173ffffffffffffffffffffffffffffffffffffffff1660601b815250508260029080519060200190620000c692919062000110565b508173ffffffffffffffffffffffffffffffffffffffff1660a08173ffffffffffffffffffffffffffffffffffffffff1660601b815250508060c081815250505050505062000488565b8280546200011e90620003c0565b90600052602060002090601f0160209004810192826200014257600085556200018e565b82601f106200015d57805160ff19168380011785556200018e565b828001600101855582156200018e579182015b828111156200018d57825182559160200191906001019062000170565b5b5090506200019d9190620001a1565b5090565b5b80821115620001bc576000816000905550600101620001a2565b5090565b6000620001d7620001d18462000319565b620002e5565b905082815260208101848484011115620001f057600080fd5b620001fd8482856200038a565b509392505050565b600081519050620002168162000454565b92915050565b600082601f8301126200022e57600080fd5b815162000240848260208601620001c0565b91505092915050565b6000815190506200025a816200046e565b92915050565b600080600080608085870312156200027757600080fd5b6000620002878782880162000205565b945050602085015167ffffffffffffffff811115620002a557600080fd5b620002b3878288016200021c565b9350506040620002c68782880162000205565b9250506060620002d98782880162000249565b91505092959194509250565b6000604051905081810181811067ffffffffffffffff821117156200030f576200030e62000425565b5b8060405250919050565b600067ffffffffffffffff82111562000337576200033662000425565b5b601f19601f8301169050602081019050919050565b6000620003598262000360565b9050919050565b600073ffffffffffffffffffffffffffffffffffffffff82169050919050565b6000819050919050565b60005b83811015620003aa5780820151818401526020810190506200038d565b83811115620003ba576000848401525b50505050565b60006002820490506001821680620003d957607f821691505b60208210811415620003f057620003ef620003f6565b5b50919050565b7f4e487b7100000000000000000000000000000000000000000000000000000000600052602260045260246000fd5b7f4e487b7100000000000000000000000000000000000000000000000000000000600052604160045260246000fd5b6200045f816200034c565b81146200046b57600080fd5b50565b620004798162000380565b81146200048557600080fd5b50565b60805160601c60a05160601c60c05160e05160601c6121316200055060003960008181610450015281816104e001528181610597015281816106b8015281816109460152818161098f01528181610afd01528181610ced01528181610eda01528181610fb50152818161106c0152818161118d01528181611384015281816113cd0152818161153b01526115cf0152600081816103800152818161081d015261125b0152600081816107df01528181610b83015261121d01526000610baf01526121316000f3fe608060405234801561001057600080fd5b50600436106100ea5760003560e01c806388cc58e41161008c578063b6b55f2511610066578063b6b55f251461024f578063bc197c811461026b578063c51db6b21461029b578063f23a6e61146102b9576100ea565b806388cc58e4146101d157806394465b21146101ef578063b3a7834d1461021f576100ea565b80632e1a7d4d116100c85780632e1a7d4d1461015b57806338adb6f01461017757806351ed6a3014610195578063567e98f9146101b3576100ea565b806301ffc9a7146100ef57806306fdde031461011f57806317d70f7c1461013d575b600080fd5b6101096004803603810190610104919061192a565b6102e9565b6040516101169190611cea565b60405180910390f35b6101276102f0565b6040516101349190611d20565b60405180910390f35b61014561037e565b6040516101529190611dcb565b60405180910390f35b61017560048036038101906101709190611953565b6103a2565b005b61017f610b77565b60405161018c9190611dcb565b60405180910390f35b61019d610b81565b6040516101aa9190611bcd565b60405180910390f35b6101bb610ba5565b6040516101c89190611dcb565b60405180910390f35b6101d9610bab565b6040516101e69190611bcd565b60405180910390f35b6102096004803603810190610204919061177a565b610bd3565b6040516102169190611dcb565b60405180910390f35b6102396004803603810190610234919061177a565b610c1f565b6040516102469190611db0565b60405180910390f35b61026960048036038101906102649190611953565b610c9d565b005b610285600480360381019061028091906117a3565b6115b3565b6040516102929190611d05565b60405180910390f35b6102a36115cb565b6040516102b09190611bcd565b60405180910390f35b6102d360048036038101906102ce919061186f565b6115f3565b6040516102e09190611d05565b60405180910390f35b6000919050565b600280546102fd90611fcf565b80601f016020809104026020016040519081016040528092919081815260200182805461032990611fcf565b80156103765780601f1061034b57610100808354040283529160200191610376565b820191906000526020600020905b81548152906001019060200180831161035957829003601f168201915b505050505081565b7f000000000000000000000000000000000000000000000000000000000000000081565b600260005414156103e8576040517f08c379a00000000000000000000000000000000000000000000000000000000081526004016103df90611d90565b60405180910390fd5b600260008190555060008114156103fe57610b6c565b6000600160003373ffffffffffffffffffffffffffffffffffffffff1673ffffffffffffffffffffffffffffffffffffffff16815260200190815260200160002060010154141561044e57610b6c565b7f000000000000000000000000000000000000000000000000000000000000000073ffffffffffffffffffffffffffffffffffffffff1663af3bd4f2336040518263ffffffff1660e01b81526004016104a79190611d42565b600060405180830381600087803b1580156104c157600080fd5b505af11580156104d5573d6000803e3d6000fd5b5050505060006106ab7f000000000000000000000000000000000000000000000000000000000000000073ffffffffffffffffffffffffffffffffffffffff1663a2a00ed630336040518363ffffffff1660e01b8152600401610539929190611be8565b60206040518083038186803b15801561055157600080fd5b505afa158015610565573d6000803e3d6000fd5b505050506040513d601f19601f82011682018060405250810190610589919061197c565b61069d64e8d4a5100061068f7f000000000000000000000000000000000000000000000000000000000000000073ffffffffffffffffffffffffffffffffffffffff1663a1a89dbc306040518263ffffffff1660e01b81526004016105ee9190611bcd565b60206040518083038186803b15801561060657600080fd5b505afa15801561061a573d6000803e3d6000fd5b505050506040513d601f19601f8201168201806040525081019061063e919061197c565b600160003373ffffffffffffffffffffffffffffffffffffffff1673ffffffffffffffffffffffffffffffffffffffff1681526020019081526020016000206001015461160990919063ffffffff16565b61161f90919063ffffffff16565b61163590919063ffffffff16565b90506000811115610744577f000000000000000000000000000000000000000000000000000000000000000073ffffffffffffffffffffffffffffffffffffffff1663ef9b720833836040518363ffffffff1660e01b8152600401610711929190611cc1565b600060405180830381600087803b15801561072b57600080fd5b505af115801561073f573d6000803e3d6000fd5b505050505b6000600160003373ffffffffffffffffffffffffffffffffffffffff1673ffffffffffffffffffffffffffffffffffffffff1681526020019081526020016000206001015483106107d957600160003373ffffffffffffffffffffffffffffffffffffffff1673ffffffffffffffffffffffffffffffffffffffff1681526020019081526020016000206001015490506107dd565b8290505b7f000000000000000000000000000000000000000000000000000000000000000073ffffffffffffffffffffffffffffffffffffffff1663f242432a30337f0000000000000000000000000000000000000000000000000000000000000000856040518563ffffffff1660e01b815260040161085c9493929190611c11565b600060405180830381600087803b15801561087657600080fd5b505af115801561088a573d6000803e3d6000fd5b505050506108e381600160003373ffffffffffffffffffffffffffffffffffffffff1673ffffffffffffffffffffffffffffffffffffffff1681526020019081526020016000206001015461163590919063ffffffff16565b600160003373ffffffffffffffffffffffffffffffffffffffff1673ffffffffffffffffffffffffffffffffffffffff1681526020019081526020016000206001018190555061093e8160035461163590919063ffffffff16565b6003819055507f000000000000000000000000000000000000000000000000000000000000000073ffffffffffffffffffffffffffffffffffffffff1663bf16c3c233610a9564e8d4a51000610a877f000000000000000000000000000000000000000000000000000000000000000073ffffffffffffffffffffffffffffffffffffffff1663a1a89dbc306040518263ffffffff1660e01b81526004016109e69190611bcd565b60206040518083038186803b1580156109fe57600080fd5b505afa158015610a12573d6000803e3d6000fd5b505050506040513d601f19601f82011682018060405250810190610a36919061197c565b600160003373ffffffffffffffffffffffffffffffffffffffff1673ffffffffffffffffffffffffffffffffffffffff1681526020019081526020016000206001015461160990919063ffffffff16565b61161f90919063ffffffff16565b6040518363ffffffff1660e01b8152600401610ab2929190611cc1565b600060405180830381600087803b158015610acc57600080fd5b505af1158015610ae0573d6000803e3d6000fd5b505050503373ffffffffffffffffffffffffffffffffffffffff167f000000000000000000000000000000000000000000000000000000000000000073ffffffffffffffffffffffffffffffffffffffff167fd1c19fbcd4551a5edfb66d43d2e337c04837afda3482b42bdf569a8fccdae5fb83604051610b619190611dcb565b60405180910390a350505b600160008190555050565b6000600354905090565b7f000000000000000000000000000000000000000000000000000000000000000081565b60035481565b60007f0000000000000000000000000000000000000000000000000000000000000000905090565b6000600160008373ffffffffffffffffffffffffffffffffffffffff1673ffffffffffffffffffffffffffffffffffffffff168152602001908152602001600020600101549050919050565b610c27611661565b600160008373ffffffffffffffffffffffffffffffffffffffff1673ffffffffffffffffffffffffffffffffffffffff1681526020019081526020016000206040518060400160405290816000820160009054906101000a900460ff161515151581526020016001820154815250509050919050565b60026000541415610ce3576040517f08c379a0000000000000000000000000000000000000000000000000000000008152600401610cda90611d90565b60405180910390fd5b60026000819055507f000000000000000000000000000000000000000000000000000000000000000073ffffffffffffffffffffffffffffffffffffffff166398f69e9a306040518263ffffffff1660e01b8152600401610d449190611bcd565b60206040518083038186803b158015610d5c57600080fd5b505afa158015610d70573d6000803e3d6000fd5b505050506040513d601f19601f82011682018060405250810190610d949190611901565b610dd3576040517f08c379a0000000000000000000000000000000000000000000000000000000008152600401610dca90611d70565b60405180910390fd5b6000811415610de1576115a8565b600160003373ffffffffffffffffffffffffffffffffffffffff1673ffffffffffffffffffffffffffffffffffffffff16815260200190815260200160002060000160009054906101000a900460ff16610ed85760018060003373ffffffffffffffffffffffffffffffffffffffff1673ffffffffffffffffffffffffffffffffffffffff16815260200190815260200160002060000160006101000a81548160ff0219169083151502179055506000600160003373ffffffffffffffffffffffffffffffffffffffff1673ffffffffffffffffffffffffffffffffffffffff168152602001908152602001600020600101819055505b7f000000000000000000000000000000000000000000000000000000000000000073ffffffffffffffffffffffffffffffffffffffff1663af3bd4f2336040518263ffffffff1660e01b8152600401610f319190611d42565b600060405180830381600087803b158015610f4b57600080fd5b505af1158015610f5f573d6000803e3d6000fd5b505050506000600160003373ffffffffffffffffffffffffffffffffffffffff1673ffffffffffffffffffffffffffffffffffffffff16815260200190815260200160002060010154111561121b5760006111807f000000000000000000000000000000000000000000000000000000000000000073ffffffffffffffffffffffffffffffffffffffff1663a2a00ed630336040518363ffffffff1660e01b815260040161100e929190611be8565b60206040518083038186803b15801561102657600080fd5b505afa15801561103a573d6000803e3d6000fd5b505050506040513d601f19601f8201168201806040525081019061105e919061197c565b61117264e8d4a510006111647f000000000000000000000000000000000000000000000000000000000000000073ffffffffffffffffffffffffffffffffffffffff1663a1a89dbc306040518263ffffffff1660e01b81526004016110c39190611bcd565b60206040518083038186803b1580156110db57600080fd5b505afa1580156110ef573d6000803e3d6000fd5b505050506040513d601f19601f82011682018060405250810190611113919061197c565b600160003373ffffffffffffffffffffffffffffffffffffffff1673ffffffffffffffffffffffffffffffffffffffff1681526020019081526020016000206001015461160990919063ffffffff16565b61161f90919063ffffffff16565b61163590919063ffffffff16565b90506000811115611219577f000000000000000000000000000000000000000000000000000000000000000073ffffffffffffffffffffffffffffffffffffffff1663ef9b720833836040518363ffffffff1660e01b81526004016111e6929190611cc1565b600060405180830381600087803b15801561120057600080fd5b505af1158015611214573d6000803e3d6000fd5b505050505b505b7f000000000000000000000000000000000000000000000000000000000000000073ffffffffffffffffffffffffffffffffffffffff1663f242432a33307f0000000000000000000000000000000000000000000000000000000000000000856040518563ffffffff1660e01b815260040161129a9493929190611c69565b600060405180830381600087803b1580156112b457600080fd5b505af11580156112c8573d6000803e3d6000fd5b5050505061132181600160003373ffffffffffffffffffffffffffffffffffffffff1673ffffffffffffffffffffffffffffffffffffffff1681526020019081526020016000206001015461164b90919063ffffffff16565b600160003373ffffffffffffffffffffffffffffffffffffffff1673ffffffffffffffffffffffffffffffffffffffff1681526020019081526020016000206001018190555061137c8160035461164b90919063ffffffff16565b6003819055507f000000000000000000000000000000000000000000000000000000000000000073ffffffffffffffffffffffffffffffffffffffff1663bf16c3c2336114d364e8d4a510006114c57f000000000000000000000000000000000000000000000000000000000000000073ffffffffffffffffffffffffffffffffffffffff1663a1a89dbc306040518263ffffffff1660e01b81526004016114249190611bcd565b60206040518083038186803b15801561143c57600080fd5b505afa158015611450573d6000803e3d6000fd5b505050506040513d601f19601f82011682018060405250810190611474919061197c565b600160003373ffffffffffffffffffffffffffffffffffffffff1673ffffffffffffffffffffffffffffffffffffffff1681526020019081526020016000206001015461160990919063ffffffff16565b61161f90919063ffffffff16565b6040518363ffffffff1660e01b81526004016114f0929190611cc1565b600060405180830381600087803b15801561150a57600080fd5b505af115801561151e573d6000803e3d6000fd5b505050503373ffffffffffffffffffffffffffffffffffffffff167f000000000000000000000000000000000000000000000000000000000000000073ffffffffffffffffffffffffffffffffffffffff167f8752a472e571a816aea92eec8dae9baf628e840f4929fbcc2d155e6233ff68a78360405161159f9190611dcb565b60405180910390a35b600160008190555050565b600063bc197c8160e01b905098975050505050505050565b60007f0000000000000000000000000000000000000000000000000000000000000000905090565b600063f23a6e6160e01b90509695505050505050565b600081836116179190611e9a565b905092915050565b6000818361162d9190611e69565b905092915050565b600081836116439190611ef4565b905092915050565b600081836116599190611e13565b905092915050565b6040518060400160405280600015158152602001600081525090565b60008135905061168c8161209f565b92915050565b60008083601f8401126116a457600080fd5b8235905067ffffffffffffffff8111156116bd57600080fd5b6020830191508360208202830111156116d557600080fd5b9250929050565b6000815190506116eb816120b6565b92915050565b600081359050611700816120cd565b92915050565b60008083601f84011261171857600080fd5b8235905067ffffffffffffffff81111561173157600080fd5b60208301915083600182028301111561174957600080fd5b9250929050565b60008135905061175f816120e4565b92915050565b600081519050611774816120e4565b92915050565b60006020828403121561178c57600080fd5b600061179a8482850161167d565b91505092915050565b60008060008060008060008060a0898b0312156117bf57600080fd5b60006117cd8b828c0161167d565b98505060206117de8b828c0161167d565b975050604089013567ffffffffffffffff8111156117fb57600080fd5b6118078b828c01611692565b9650965050606089013567ffffffffffffffff81111561182657600080fd5b6118328b828c01611692565b9450945050608089013567ffffffffffffffff81111561185157600080fd5b61185d8b828c01611706565b92509250509295985092959890939650565b60008060008060008060a0878903121561188857600080fd5b600061189689828a0161167d565b96505060206118a789828a0161167d565b95505060406118b889828a01611750565b94505060606118c989828a01611750565b935050608087013567ffffffffffffffff8111156118e657600080fd5b6118f289828a01611706565b92509250509295509295509295565b60006020828403121561191357600080fd5b6000611921848285016116dc565b91505092915050565b60006020828403121561193c57600080fd5b600061194a848285016116f1565b91505092915050565b60006020828403121561196557600080fd5b600061197384828501611750565b91505092915050565b60006020828403121561198e57600080fd5b600061199c84828501611765565b91505092915050565b6119ae81611f28565b82525050565b6119bd81611f3a565b82525050565b6119cc81611f3a565b82525050565b6119db81611f46565b82525050565b60006119ec82611de6565b6119f68185611e02565b9350611a06818560208601611f9c565b611a0f8161208e565b840191505092915050565b6000611a27600483611df1565b91507f30783030000000000000000000000000000000000000000000000000000000006000830152602082019050919050565b6000611a67600483611e02565b91507f55534552000000000000000000000000000000000000000000000000000000006000830152602082019050919050565b6000611aa7602183611e02565b91507f43616e206e6f74206465706f73697420746f206120636c6f73656420706f6f6c60008301527f2e000000000000000000000000000000000000000000000000000000000000006020830152604082019050919050565b6000611b0d600283611df1565b91507f30780000000000000000000000000000000000000000000000000000000000006000830152602082019050919050565b6000611b4d601f83611e02565b91507f5265656e7472616e637947756172643a207265656e7472616e742063616c6c006000830152602082019050919050565b604082016000820151611b9660008501826119b4565b506020820151611ba96020850182611baf565b50505050565b611bb881611f92565b82525050565b611bc781611f92565b82525050565b6000602082019050611be260008301846119a5565b92915050565b6000604082019050611bfd60008301856119a5565b611c0a60208301846119a5565b9392505050565b600060a082019050611c2660008301876119a5565b611c3360208301866119a5565b611c406040830185611bbe565b611c4d6060830184611bbe565b8181036080830152611c5e81611a1a565b905095945050505050565b600060a082019050611c7e60008301876119a5565b611c8b60208301866119a5565b611c986040830185611bbe565b611ca56060830184611bbe565b8181036080830152611cb681611b00565b905095945050505050565b6000604082019050611cd660008301856119a5565b611ce36020830184611bbe565b9392505050565b6000602082019050611cff60008301846119c3565b92915050565b6000602082019050611d1a60008301846119d2565b92915050565b60006020820190508181036000830152611d3a81846119e1565b905092915050565b60006040820190508181036000830152611d5b81611a5a565b9050611d6a60208301846119a5565b92915050565b60006020820190508181036000830152611d8981611a9a565b9050919050565b60006020820190508181036000830152611da981611b40565b9050919050565b6000604082019050611dc56000830184611b80565b92915050565b6000602082019050611de06000830184611bbe565b92915050565b600081519050919050565b600082825260208201905092915050565b600082825260208201905092915050565b6000611e1e82611f92565b9150611e2983611f92565b9250827fffffffffffffffffffffffffffffffffffffffffffffffffffffffffffffffff03821115611e5e57611e5d612001565b5b828201905092915050565b6000611e7482611f92565b9150611e7f83611f92565b925082611e8f57611e8e612030565b5b828204905092915050565b6000611ea582611f92565b9150611eb083611f92565b9250817fffffffffffffffffffffffffffffffffffffffffffffffffffffffffffffffff0483118215151615611ee957611ee8612001565b5b828202905092915050565b6000611eff82611f92565b9150611f0a83611f92565b925082821015611f1d57611f1c612001565b5b828203905092915050565b6000611f3382611f72565b9050919050565b60008115159050919050565b60007fffffffff0000000000000000000000000000000000000000000000000000000082169050919050565b600073ffffffffffffffffffffffffffffffffffffffff82169050919050565b6000819050919050565b60005b83811015611fba578082015181840152602081019050611f9f565b83811115611fc9576000848401525b50505050565b60006002820490506001821680611fe757607f821691505b60208210811415611ffb57611ffa61205f565b5b50919050565b7f4e487b7100000000000000000000000000000000000000000000000000000000600052601160045260246000fd5b7f4e487b7100000000000000000000000000000000000000000000000000000000600052601260045260246000fd5b7f4e487b7100000000000000000000000000000000000000000000000000000000600052602260045260246000fd5b6000601f19601f8301169050919050565b6120a881611f28565b81146120b357600080fd5b50565b6120bf81611f3a565b81146120ca57600080fd5b50565b6120d681611f46565b81146120e157600080fd5b50565b6120ed81611f92565b81146120f857600080fd5b5056fea264697066735822122022388a8fbedaba2520cfdac60bac2752313f8421a0d26ce80e99e1ab5f1e4a8c64736f6c63430008000033a264697066735822122077d9399e00a074c9cb9ca75afa99c18e7fe279d0c8ffa22761798b9f3c94704e64736f6c63430008000033",
  "linkReferences": {},
  "deployedLinkReferences": {}
}