{
  "_format": "hh-sol-artifact-1",
  "contractName": "CosmosStakingFactory",
  "sourceName": "contracts/dapps/cosmos-atom/CosmosStakingFactory.sol",
  "abi": [
    {
      "inputs": [
        {
          "internalType": "address",
          "name": "_communityFactory",
          "type": "address"
        }
      ],
      "stateMutability": "nonpayable",
      "type": "constructor"
    },
    {
      "anonymous": false,
      "inputs": [
        {
          "indexed": true,
          "internalType": "uint8",
          "name": "chainId",
          "type": "uint8"
        },
        {
          "indexed": true,
          "internalType": "address",
          "name": "bridge",
          "type": "address"
        }
      ],
      "name": "AdminAddBridge",
      "type": "event"
    },
    {
      "anonymous": false,
      "inputs": [
        {
          "indexed": true,
          "internalType": "uint8",
          "name": "chainId",
          "type": "uint8"
        },
        {
          "indexed": true,
          "internalType": "address",
          "name": "bridge",
          "type": "address"
        }
      ],
      "name": "AdminRemoveBridge",
      "type": "event"
    },
    {
      "anonymous": false,
      "inputs": [
        {
          "indexed": true,
          "internalType": "address",
          "name": "pool",
          "type": "address"
        },
        {
          "indexed": true,
          "internalType": "address",
          "name": "community",
          "type": "address"
        },
        {
          "indexed": false,
          "internalType": "string",
          "name": "name",
          "type": "string"
        },
        {
          "indexed": false,
          "internalType": "uint8",
          "name": "chainId",
          "type": "uint8"
        },
        {
          "indexed": false,
          "internalType": "address",
          "name": "delegatee",
          "type": "address"
        }
      ],
      "name": "CosmosStakingCreated",
      "type": "event"
    },
    {
      "anonymous": false,
      "inputs": [
        {
          "indexed": true,
          "internalType": "address",
          "name": "previousOwner",
          "type": "address"
        },
        {
          "indexed": true,
          "internalType": "address",
          "name": "newOwner",
          "type": "address"
        }
      ],
      "name": "OwnershipTransferred",
      "type": "event"
    },
    {
      "inputs": [
        {
          "internalType": "uint8",
          "name": "_chainId",
          "type": "uint8"
        },
        {
          "internalType": "address",
          "name": "_bridge",
          "type": "address"
        }
      ],
      "name": "adminAddBridge",
      "outputs": [],
      "stateMutability": "nonpayable",
      "type": "function"
    },
    {
      "inputs": [
        {
          "internalType": "uint8",
          "name": "_chainId",
          "type": "uint8"
        },
        {
          "internalType": "address",
          "name": "_bridge",
          "type": "address"
        }
      ],
      "name": "adminRemoveBridge",
      "outputs": [],
      "stateMutability": "nonpayable",
      "type": "function"
    },
    {
      "inputs": [],
      "name": "communityFactory",
      "outputs": [
        {
          "internalType": "address",
          "name": "",
          "type": "address"
        }
      ],
      "stateMutability": "view",
      "type": "function"
    },
    {
      "inputs": [
        {
          "internalType": "address",
          "name": "community",
          "type": "address"
        },
        {
          "internalType": "string",
          "name": "name",
          "type": "string"
        },
        {
          "internalType": "bytes",
          "name": "meta",
          "type": "bytes"
        }
      ],
      "name": "createPool",
      "outputs": [
        {
          "internalType": "address",
          "name": "",
          "type": "address"
        }
      ],
      "stateMutability": "nonpayable",
      "type": "function"
    },
    {
      "inputs": [
        {
          "internalType": "uint8",
          "name": "",
          "type": "uint8"
        },
        {
          "internalType": "address",
          "name": "",
          "type": "address"
        }
      ],
      "name": "isBridge",
      "outputs": [
        {
          "internalType": "bool",
          "name": "",
          "type": "bool"
        }
      ],
      "stateMutability": "view",
      "type": "function"
    },
    {
      "inputs": [],
      "name": "owner",
      "outputs": [
        {
          "internalType": "address",
          "name": "",
          "type": "address"
        }
      ],
      "stateMutability": "view",
      "type": "function"
    },
    {
      "inputs": [],
      "name": "renounceOwnership",
      "outputs": [],
      "stateMutability": "nonpayable",
      "type": "function"
    },
    {
      "inputs": [
        {
          "internalType": "address",
          "name": "newOwner",
          "type": "address"
        }
      ],
      "name": "transferOwnership",
      "outputs": [],
      "stateMutability": "nonpayable",
      "type": "function"
    }
  ],
  "bytecode": "0x60a060405234801561001057600080fd5b50604051611ef5380380611ef583398101604081905261002f916100d7565b61003f61003a610083565b610087565b6001600160a01b03811661006e5760405162461bcd60e51b815260040161006590610105565b60405180910390fd5b60601b6001600160601b03191660805261012e565b3390565b600080546001600160a01b038381166001600160a01b0319831681178455604051919092169283917f8be0079c531659141344cd1fd0a4f28419497f9722a3daafe3b4186f6b6457e09190a35050565b6000602082840312156100e8578081fd5b81516001600160a01b03811681146100fe578182fd5b9392505050565b6020808252600f908201526e496e76616c6964206164647265737360881b604082015260600190565b60805160601c611da2610153600039600081816102bf01526106040152611da26000f3fe60806040523480156200001157600080fd5b5060043610620000825760003560e01c80634040768c1462000087578063715018a614620000a05780638da5cb5b14620000aa578063b883cc2a14620000cc578063e5247eda14620000e3578063eadef9bb1462000109578063f2fde38b1462000120578063fac8a6101462000137575b600080fd5b6200009e6200009836600462000899565b62000141565b005b6200009e62000218565b620000b46200026c565b604051620000c3919062000924565b60405180910390f35b620000b4620000dd3660046200078f565b6200027b565b620000fa620000f436600462000899565b6200049c565b604051620000c3919062000978565b6200009e6200011a36600462000899565b620004bc565b6200009e620001313660046200076b565b62000585565b620000b462000602565b6200014b62000626565b6001600160a01b03166200015e6200026c565b6001600160a01b031614620001905760405162461bcd60e51b8152600401620001879062000a74565b60405180910390fd5b6001600160a01b038116620001b95760405162461bcd60e51b81526004016200018790620009bb565b60ff821660008181526001602081815260408084206001600160a01b0387168086529252808420805460ff191690931790925590519092917f61fe8d00fc1fc3740ddf3274c6ed063cf44f8aad526f5786ab55a7da3793c09291a35050565b6200022262000626565b6001600160a01b0316620002356200026c565b6001600160a01b0316146200025e5760405162461bcd60e51b8152600401620001879062000a74565b6200026a60006200062a565b565b6000546001600160a01b031690565b60006001600160a01b0385163314620002a85760405162461bcd60e51b8152600401620001879062000a2a565b604051633454a5b760e11b81526001600160a01b037f000000000000000000000000000000000000000000000000000000000000000016906368a94b6e90620002f690889060040162000924565b60206040518083038186803b1580156200030f57600080fd5b505afa15801562000324573d6000803e3d6000fd5b505050506040513d601f19601f820116820180604052508101906200034a919062000877565b620003695760405162461bcd60e51b8152600401620001879062000ad8565b6000620003b1600085858080601f01602080910402602001604051908101604052809392919081815260200183838082843760009201919091525092939250506200067a9050565b90506000620003fb600186868080601f0160208091040260200160405190810160405280939291908181526020018383808284376000920191909152509293925050620006b59050565b90506000878784846040516200041190620006f7565b62000420949392919062000938565b604051809103906000f0801580156200043d573d6000803e3d6000fd5b509050876001600160a01b0316816001600160a01b03167f9dc0534a7e6ff3805b6764eebcb730c12d1df3eaa0edb613388fec082cd89ce5898686604051620004899392919062000983565b60405180910390a3979650505050505050565b600160209081526000928352604080842090915290825290205460ff1681565b620004c662000626565b6001600160a01b0316620004d96200026c565b6001600160a01b031614620005025760405162461bcd60e51b8152600401620001879062000a74565b6001600160a01b0381166200052b5760405162461bcd60e51b81526004016200018790620009bb565b60ff821660008181526001602090815260408083206001600160a01b0386168085529252808320805460ff19169055519092917f6e231a60b8d8b543cda9d08b527a8f288d6e61728f0af434c56cb526b930a43591a35050565b6200058f62000626565b6001600160a01b0316620005a26200026c565b6001600160a01b031614620005cb5760405162461bcd60e51b8152600401620001879062000a74565b6001600160a01b038116620005f45760405162461bcd60e51b81526004016200018790620009e4565b620005ff816200062a565b50565b7f000000000000000000000000000000000000000000000000000000000000000081565b3390565b600080546001600160a01b038381166001600160a01b0319831681178455604051919092169283917f8be0079c531659141344cd1fd0a4f28419497f9722a3daafe3b4186f6b6457e09190a35050565b60006200068982600162000b30565b83511015620006ac5760405162461bcd60e51b8152600401620001879062000b03565b50016001015190565b6000620006c482601462000b30565b83511015620006e75760405162461bcd60e51b8152600401620001879062000aa9565b500160200151600160601b900490565b6112018062000b6c83390190565b80356001600160a01b03811681146200071d57600080fd5b919050565b60008083601f84011262000734578081fd5b5081356001600160401b038111156200074b578182fd5b6020830191508360208285010111156200076457600080fd5b9250929050565b6000602082840312156200077d578081fd5b620007888262000705565b9392505050565b60008060008060608587031215620007a5578283fd5b620007b08562000705565b93506020858101356001600160401b0380821115620007cd578586fd5b818801915088601f830112620007e1578586fd5b813581811115620007f657620007f662000b55565b604051601f8201601f19168101850183811182821017156200081c576200081c62000b55565b60405281815283820185018b101562000833578788fd5b818585018683013787858383010152809750505060408801359250808311156200085b578485fd5b50506200086b8782880162000722565b95989497509550505050565b60006020828403121562000889578081fd5b8151801515811462000788578182fd5b60008060408385031215620008ac578182fd5b823560ff81168114620008bd578283fd5b9150620008cd6020840162000705565b90509250929050565b60008151808452815b81811015620008fd57602081850181015186830182015201620008df565b818111156200090f5782602083870101525b50601f01601f19169290920160200192915050565b6001600160a01b0391909116815260200190565b600060018060a01b038087168352608060208401526200095c6080840187620008d6565b60ff959095166040840152929092166060909101525092915050565b901515815260200190565b600060608252620009986060830186620008d6565b60ff949094166020830152506001600160a01b0391909116604090910152919050565b6020808252600f908201526e496e76616c6964206164647265737360881b604082015260600190565b60208082526026908201527f4f776e61626c653a206e6577206f776e657220697320746865207a65726f206160408201526564647265737360d01b606082015260800190565b6020808252602a908201527f5065726d697373696f6e2064656e6965643a2063616c6c6572206973206e6f7460408201526920636f6d6d756e69747960b01b606082015260800190565b6020808252818101527f4f776e61626c653a2063616c6c6572206973206e6f7420746865206f776e6572604082015260600190565b602080825260159082015274746f416464726573735f6f75744f66426f756e647360581b604082015260600190565b602080825260119082015270496e76616c696420636f6d6d756e69747960781b604082015260600190565b602080825260139082015272746f55696e74385f6f75744f66426f756e647360681b604082015260600190565b6000821982111562000b5057634e487b7160e01b81526011600452602481fd5b500190565b634e487b7160e01b600052604160045260246000fdfe60e06040523480156200001157600080fd5b506040516200120138038062001201833981016040819052620000349162000189565b33606090811b60805284901b6001600160601b03191660a052825162000062906002906020860190620000b4565b50600380546001600160a01b0319166001600160a01b039290921691909117905560f81b7fff000000000000000000000000000000000000000000000000000000000000001660c05250620002e79050565b828054620000c29062000294565b90600052602060002090601f016020900481019282620000e6576000855562000131565b82601f106200010157805160ff191683800117855562000131565b8280016001018555821562000131579182015b828111156200013157825182559160200191906001019062000114565b506200013f92915062000143565b5090565b5b808211156200013f576000815560010162000144565b80516001600160a01b03811681146200017257600080fd5b919050565b805160ff811681146200017257600080fd5b600080600080608085870312156200019f578384fd5b620001aa856200015a565b602086810151919550906001600160401b0380821115620001c9578586fd5b818801915088601f830112620001dd578586fd5b815181811115620001f257620001f2620002d1565b604051601f8201601f1916810185018381118282101715620002185762000218620002d1565b60405281815283820185018b10156200022f578788fd5b8792505b8183101562000252578383018501518184018601529184019162000233565b818311156200026357878583830101525b8097505050505050620002796040860162000177565b915062000289606086016200015a565b905092959194509250565b600281046001821680620002a957607f821691505b60208210811415620002cb57634e487b7160e01b600052602260045260246000fd5b50919050565b634e487b7160e01b600052604160045260246000fd5b60805160601c60a05160601c60c05160f81c610ea26200035f60003960006102b40152600081816103c901528181610536015281816105e6015281816106900152818161077801528181610830015281816108d901526109e80152600081816102020152818161056301526109510152610ea26000f3fe608060405234801561001057600080fd5b506004361061008e5760003560e01c806306fdde03146100935780631e31d053146100b15780632b8509a7146100c657806338adb6f0146100db578063567e98f9146100f057806388cc58e4146100f857806394465b2114610100578063b3a7834d14610113578063c51db6b214610133578063e73df6741461013b575b600080fd5b61009b61014e565b6040516100a89190610b90565b60405180910390f35b6100b96101dc565b6040516100a89190610b49565b6100d96100d4366004610ae5565b6101eb565b005b6100e3610943565b6040516100a89190610d7a565b6100e3610949565b6100b961094f565b6100e361010e366004610a93565b610973565b610126610121366004610a93565b610996565b6040516100a89190610d4e565b6100b96109e6565b6100b9610149366004610a93565b610a0a565b6002805461015b90610e1b565b80601f016020809104026020016040519081016040528092919081815260200182805461018790610e1b565b80156101d45780601f106101a9576101008083540402835291602001916101d4565b820191906000526020600020905b8154815290600101906020018083116101b757829003601f168201915b505050505081565b6003546001600160a01b031681565b6040516372923f6d60e11b81526001600160a01b037f0000000000000000000000000000000000000000000000000000000000000000169063e5247eda906102399088903390600401610d91565b60206040518083038186803b15801561025157600080fd5b505afa158015610265573d6000803e3d6000fd5b505050506040513d601f19601f820116820180604052508101906102899190610aad565b6102ae5760405162461bcd60e51b81526004016102a590610c84565b60405180910390fd5b8460ff167f000000000000000000000000000000000000000000000000000000000000000060ff16146102f35760405162461bcd60e51b81526004016102a590610cef565b6003546001600160a01b038581169116146103205760405162461bcd60e51b81526004016102a590610c53565b6001600160a01b0381811660009081526020819052604090205416158061036357506001600160a01b038181166000908152602081905260409020548116908416145b61037f5760405162461bcd60e51b81526004016102a590610cbb565b6001600160a01b03831660009081526001602081905260409091200154828114156103aa575061093c565b8281101561046a57604051634c7b4f4d60e11b81526001600160a01b037f000000000000000000000000000000000000000000000000000000000000000016906398f69e9a906103fe903090600401610b49565b60206040518083038186803b15801561041657600080fd5b505afa15801561042a573d6000803e3d6000fd5b505050506040513d601f19601f8201168201806040525081019061044e9190610aad565b61046a5760405162461bcd60e51b81526004016102a590610c12565b6001600160a01b03841660009081526001602052604090205460ff166104e0576001600160a01b038085166000818152600160208181526040808420805460ff19169093178355600290920180549588166001600160a01b0319968716811790915583528290529020805490921617905561051f565b6001600160a01b0384811660009081526001602052604090206002015481169083161461051f5760405162461bcd60e51b81526004016102a590610d17565b60405163579dea7960e11b81526001600160a01b037f0000000000000000000000000000000000000000000000000000000000000000169063af3bd4f29061058b907f000000000000000000000000000000000000000000000000000000000000000090600401610be3565b600060405180830381600087803b1580156105a557600080fd5b505af11580156105b9573d6000803e3d6000fd5b505050506001600160a01b03841660009081526001602081905260409091200154156107e45760006107597f00000000000000000000000000000000000000000000000000000000000000006001600160a01b031663a2a00ed630886040518363ffffffff1660e01b8152600401610632929190610b5d565b60206040518083038186803b15801561064a57600080fd5b505afa15801561065e573d6000803e3d6000fd5b505050506040513d601f19601f820116820180604052508101906106829190610acd565b61075364e8d4a5100061074d7f00000000000000000000000000000000000000000000000000000000000000006001600160a01b031663a1a89dbc306040518263ffffffff1660e01b81526004016106da9190610b49565b60206040518083038186803b1580156106f257600080fd5b505afa158015610706573d6000803e3d6000fd5b505050506040513d601f19601f8201168201806040525081019061072a9190610acd565b6001600160a01b038b166000908152600160208190526040909120015490610a25565b90610a38565b90610a44565b905080156107e257604051631df36e4160e31b81526001600160a01b037f0000000000000000000000000000000000000000000000000000000000000000169063ef9b7208906107af9088908590600401610b77565b600060405180830381600087803b1580156107c957600080fd5b505af11580156107dd573d6000803e3d6000fd5b505050505b505b6107fd8161075385600454610a5090919063ffffffff16565b60049081556001600160a01b03808616600090815260016020819052604091829020018690555163286a276f60e21b81527f00000000000000000000000000000000000000000000000000000000000000009091169163bf16c3c291879161087e9164e8d4a510009161074d91879163a1a89dbc916106da91309101610b49565b6040518363ffffffff1660e01b815260040161089b929190610b77565b600060405180830381600087803b1580156108b557600080fd5b505af11580156108c9573d6000803e3d6000fd5b50505050836001600160a01b03167f00000000000000000000000000000000000000000000000000000000000000006001600160a01b03167f8572960e25f62a888f92ba98fda1ca3cba3fc98b664e8ae79fdc97a644c7bae48386604051610932929190610d83565b60405180910390a3505b5050505050565b60045490565b60045481565b7f000000000000000000000000000000000000000000000000000000000000000090565b6001600160a01b038116600090815260016020819052604090912001545b919050565b61099e610a5c565b506001600160a01b039081166000908152600160208181526040928390208351606081018552815460ff16151581529281015491830191909152600201549092169082015290565b7f000000000000000000000000000000000000000000000000000000000000000090565b6000602081905290815260409020546001600160a01b031681565b6000610a318284610de5565b9392505050565b6000610a318284610dc5565b6000610a318284610e04565b6000610a318284610dad565b604080516060810182526000808252602082018190529181019190915290565b80356001600160a01b038116811461099157600080fd5b600060208284031215610aa4578081fd5b610a3182610a7c565b600060208284031215610abe578081fd5b81518015158114610a31578182fd5b600060208284031215610ade578081fd5b5051919050565b600080600080600060a08688031215610afc578081fd5b853560ff81168114610b0c578182fd5b9450610b1a60208701610a7c565b9350610b2860408701610a7c565b925060608601359150610b3d60808701610a7c565b90509295509295909350565b6001600160a01b0391909116815260200190565b6001600160a01b0392831681529116602082015260400190565b6001600160a01b03929092168252602082015260400190565b6000602080835283518082850152825b81811015610bbc57858101830151858201604001528201610ba0565b81811115610bcd5783604083870101525b50601f01601f1916929092016040019392505050565b6040808252600490820152632aa9a2a960e11b60608201526001600160a01b0391909116602082015260800190565b60208082526021908201527f43616e206e6f74206465706f73697420746f206120636c6f73656420706f6f6c6040820152601760f91b606082015260800190565b60208082526017908201527615dc9bdb99c819195b1959d85d1959481858d8dbdd5b9d604a1b604082015260600190565b6020808252601d908201527f4f6e6c79207665726966696564206272696467652063616e2063616c6c000000604082015260600190565b6020808252601a9082015279084deeadcc840c4e6c640c2c6c6deeadce840c8d2e6dac2e8c6d60331b604082015260600190565b6020808252600e908201526d15dc9bdb99c818da185a5b881a5960921b604082015260600190565b6020808252601d908201527f426f756e6420636f736d6f73206163636f756e74206469736d61746368000000604082015260600190565b815115158152602080830151908201526040918201516001600160a01b03169181019190915260600190565b90815260200190565b918252602082015260400190565b60ff9290921682526001600160a01b0316602082015260400190565b60008219821115610dc057610dc0610e56565b500190565b600082610de057634e487b7160e01b81526012600452602481fd5b500490565b6000816000190483118215151615610dff57610dff610e56565b500290565b600082821015610e1657610e16610e56565b500390565b600281046001821680610e2f57607f821691505b60208210811415610e5057634e487b7160e01b600052602260045260246000fd5b50919050565b634e487b7160e01b600052601160045260246000fdfea26469706673582212209b7c790a27418068bb1e337ff90dec04f6058977c446314822cad28f1a1c40df64736f6c63430008000033a2646970667358221220fe1a0b232f28e3af316164da405caa5d3571657c7cb1bd86128aa3429aabbfb264736f6c63430008000033",
  "linkReferences": {},
  "deployedLinkReferences": {}
}