{
  "_format": "hh-sol-artifact-1",
  "contractName": "Community",
  "sourceName": "contracts/Community.sol",
  "abi": [
    {
      "inputs": [
        {
          "internalType": "address",
          "name": "_admin",
          "type": "address"
        },
        {
          "internalType": "address",
          "name": "_committee",
          "type": "address"
        },
        {
          "internalType": "address",
          "name": "_communityToken",
          "type": "address"
        },
        {
          "internalType": "address",
          "name": "_rewardCalculator",
          "type": "address"
        },
        {
          "internalType": "bool",
          "name": "_isMintableCommunityToken",
          "type": "bool"
        }
      ],
      "stateMutability": "payable",
      "type": "constructor"
    },
    {
      "anonymous": false,
      "inputs": [
        {
          "indexed": true,
          "internalType": "address",
          "name": "pool",
          "type": "address"
        }
      ],
      "name": "AdminClosePool",
      "type": "event"
    },
    {
      "anonymous": false,
      "inputs": [
        {
          "indexed": false,
          "internalType": "uint16",
          "name": "ratio",
          "type": "uint16"
        }
      ],
      "name": "AdminSetFeeRatio",
      "type": "event"
    },
    {
      "anonymous": false,
      "inputs": [
        {
          "indexed": false,
          "internalType": "address[]",
          "name": "pools",
          "type": "address[]"
        },
        {
          "indexed": false,
          "internalType": "uint16[]",
          "name": "ratios",
          "type": "uint16[]"
        }
      ],
      "name": "AdminSetPoolRatio",
      "type": "event"
    },
    {
      "anonymous": false,
      "inputs": [
        {
          "indexed": true,
          "internalType": "address",
          "name": "oldDev",
          "type": "address"
        },
        {
          "indexed": true,
          "internalType": "address",
          "name": "newDev",
          "type": "address"
        }
      ],
      "name": "DevChanged",
      "type": "event"
    },
    {
      "anonymous": false,
      "inputs": [
        {
          "indexed": true,
          "internalType": "address",
          "name": "previousOwner",
          "type": "address"
        },
        {
          "indexed": true,
          "internalType": "address",
          "name": "newOwner",
          "type": "address"
        }
      ],
      "name": "OwnershipTransferred",
      "type": "event"
    },
    {
      "anonymous": false,
      "inputs": [
        {
          "indexed": true,
          "internalType": "address",
          "name": "who",
          "type": "address"
        },
        {
          "indexed": false,
          "internalType": "uint256",
          "name": "amount",
          "type": "uint256"
        }
      ],
      "name": "PoolUpdated",
      "type": "event"
    },
    {
      "anonymous": false,
      "inputs": [
        {
          "indexed": true,
          "internalType": "address",
          "name": "devFund",
          "type": "address"
        },
        {
          "indexed": false,
          "internalType": "uint256",
          "name": "amount",
          "type": "uint256"
        }
      ],
      "name": "RevenueWithdrawn",
      "type": "event"
    },
    {
      "anonymous": false,
      "inputs": [
        {
          "indexed": false,
          "internalType": "address[]",
          "name": "pool",
          "type": "address[]"
        },
        {
          "indexed": true,
          "internalType": "address",
          "name": "who",
          "type": "address"
        },
        {
          "indexed": false,
          "internalType": "uint256",
          "name": "amount",
          "type": "uint256"
        }
      ],
      "name": "WithdrawRewards",
      "type": "event"
    },
    {
      "inputs": [
        {
          "internalType": "uint256",
          "name": "",
          "type": "uint256"
        }
      ],
      "name": "activedPools",
      "outputs": [
        {
          "internalType": "address",
          "name": "",
          "type": "address"
        }
      ],
      "stateMutability": "view",
      "type": "function"
    },
    {
      "inputs": [
        {
          "internalType": "string",
          "name": "poolName",
          "type": "string"
        },
        {
          "internalType": "uint16[]",
          "name": "ratios",
          "type": "uint16[]"
        },
        {
          "internalType": "address",
          "name": "poolFactory",
          "type": "address"
        },
        {
          "internalType": "bytes",
          "name": "meta",
          "type": "bytes"
        }
      ],
      "name": "adminAddPool",
      "outputs": [],
      "stateMutability": "nonpayable",
      "type": "function"
    },
    {
      "inputs": [
        {
          "internalType": "address",
          "name": "poolAddress",
          "type": "address"
        },
        {
          "internalType": "address[]",
          "name": "_activedPools",
          "type": "address[]"
        },
        {
          "internalType": "uint16[]",
          "name": "ratios",
          "type": "uint16[]"
        }
      ],
      "name": "adminClosePool",
      "outputs": [],
      "stateMutability": "nonpayable",
      "type": "function"
    },
    {
      "inputs": [
        {
          "internalType": "address",
          "name": "_dev",
          "type": "address"
        }
      ],
      "name": "adminSetDev",
      "outputs": [],
      "stateMutability": "nonpayable",
      "type": "function"
    },
    {
      "inputs": [
        {
          "internalType": "uint16",
          "name": "_ratio",
          "type": "uint16"
        }
      ],
      "name": "adminSetFeeRatio",
      "outputs": [],
      "stateMutability": "nonpayable",
      "type": "function"
    },
    {
      "inputs": [
        {
          "internalType": "uint16[]",
          "name": "ratios",
          "type": "uint16[]"
        }
      ],
      "name": "adminSetPoolRatios",
      "outputs": [],
      "stateMutability": "nonpayable",
      "type": "function"
    },
    {
      "inputs": [],
      "name": "adminWithdrawRevenue",
      "outputs": [],
      "stateMutability": "nonpayable",
      "type": "function"
    },
    {
      "inputs": [
        {
          "internalType": "uint256",
          "name": "amount",
          "type": "uint256"
        }
      ],
      "name": "adminWithdrawReward",
      "outputs": [],
      "stateMutability": "nonpayable",
      "type": "function"
    },
    {
      "inputs": [
        {
          "internalType": "address",
          "name": "user",
          "type": "address"
        },
        {
          "internalType": "uint256",
          "name": "amount",
          "type": "uint256"
        }
      ],
      "name": "appendUserReward",
      "outputs": [],
      "stateMutability": "nonpayable",
      "type": "function"
    },
    {
      "inputs": [],
      "name": "blockNum",
      "outputs": [
        {
          "internalType": "uint256",
          "name": "",
          "type": "uint256"
        }
      ],
      "stateMutability": "view",
      "type": "function"
    },
    {
      "inputs": [],
      "name": "committee",
      "outputs": [
        {
          "internalType": "address",
          "name": "",
          "type": "address"
        }
      ],
      "stateMutability": "view",
      "type": "function"
    },
    {
      "inputs": [
        {
          "internalType": "uint256",
          "name": "",
          "type": "uint256"
        }
      ],
      "name": "createdPools",
      "outputs": [
        {
          "internalType": "address",
          "name": "",
          "type": "address"
        }
      ],
      "stateMutability": "view",
      "type": "function"
    },
    {
      "inputs": [],
      "name": "feeRatio",
      "outputs": [
        {
          "internalType": "uint16",
          "name": "",
          "type": "uint16"
        }
      ],
      "stateMutability": "view",
      "type": "function"
    },
    {
      "inputs": [],
      "name": "getCommunityToken",
      "outputs": [
        {
          "internalType": "address",
          "name": "",
          "type": "address"
        }
      ],
      "stateMutability": "view",
      "type": "function"
    },
    {
      "inputs": [
        {
          "internalType": "address",
          "name": "poolAddress",
          "type": "address"
        },
        {
          "internalType": "address",
          "name": "user",
          "type": "address"
        }
      ],
      "name": "getPoolPendingRewards",
      "outputs": [
        {
          "internalType": "uint256",
          "name": "",
          "type": "uint256"
        }
      ],
      "stateMutability": "view",
      "type": "function"
    },
    {
      "inputs": [
        {
          "internalType": "address",
          "name": "pool",
          "type": "address"
        }
      ],
      "name": "getShareAcc",
      "outputs": [
        {
          "internalType": "uint256",
          "name": "",
          "type": "uint256"
        }
      ],
      "stateMutability": "view",
      "type": "function"
    },
    {
      "inputs": [
        {
          "internalType": "address",
          "name": "user",
          "type": "address"
        }
      ],
      "name": "getTotalPendingRewards",
      "outputs": [
        {
          "internalType": "uint256",
          "name": "",
          "type": "uint256"
        }
      ],
      "stateMutability": "view",
      "type": "function"
    },
    {
      "inputs": [
        {
          "internalType": "address",
          "name": "pool",
          "type": "address"
        },
        {
          "internalType": "address",
          "name": "user",
          "type": "address"
        }
      ],
      "name": "getUserDebt",
      "outputs": [
        {
          "internalType": "uint256",
          "name": "",
          "type": "uint256"
        }
      ],
      "stateMutability": "view",
      "type": "function"
    },
    {
      "inputs": [],
      "name": "isMintableCommunityToken",
      "outputs": [
        {
          "internalType": "bool",
          "name": "",
          "type": "bool"
        }
      ],
      "stateMutability": "view",
      "type": "function"
    },
    {
      "inputs": [],
      "name": "owner",
      "outputs": [
        {
          "internalType": "address",
          "name": "",
          "type": "address"
        }
      ],
      "stateMutability": "view",
      "type": "function"
    },
    {
      "inputs": [
        {
          "internalType": "address",
          "name": "pool",
          "type": "address"
        }
      ],
      "name": "poolActived",
      "outputs": [
        {
          "internalType": "bool",
          "name": "",
          "type": "bool"
        }
      ],
      "stateMutability": "view",
      "type": "function"
    },
    {
      "inputs": [],
      "name": "renounceOwnership",
      "outputs": [],
      "stateMutability": "nonpayable",
      "type": "function"
    },
    {
      "inputs": [],
      "name": "rewardCalculator",
      "outputs": [
        {
          "internalType": "address",
          "name": "",
          "type": "address"
        }
      ],
      "stateMutability": "view",
      "type": "function"
    },
    {
      "inputs": [
        {
          "internalType": "address",
          "name": "user",
          "type": "address"
        },
        {
          "internalType": "uint256",
          "name": "debt",
          "type": "uint256"
        }
      ],
      "name": "setUserDebt",
      "outputs": [],
      "stateMutability": "nonpayable",
      "type": "function"
    },
    {
      "inputs": [
        {
          "internalType": "address",
          "name": "newOwner",
          "type": "address"
        }
      ],
      "name": "transferOwnership",
      "outputs": [],
      "stateMutability": "nonpayable",
      "type": "function"
    },
    {
      "inputs": [
        {
          "internalType": "string",
          "name": "feeType",
          "type": "string"
        },
        {
          "internalType": "address",
          "name": "feePayer",
          "type": "address"
        }
      ],
      "name": "updatePools",
      "outputs": [],
      "stateMutability": "payable",
      "type": "function"
    },
    {
      "inputs": [
        {
          "internalType": "address[]",
          "name": "poolAddresses",
          "type": "address[]"
        }
      ],
      "name": "withdrawPoolsRewards",
      "outputs": [],
      "stateMutability": "payable",
      "type": "function"
    },
    {
      "stateMutability": "payable",
      "type": "receive"
    }
  ],
  "bytecode": "0x60e06040526040516200310b3803806200310b833981016040819052620000269162000212565b6200003a62000034620000cc565b620000d0565b620000458562000120565b600280546001600160a01b038088166001600160a01b0319928316811790935560018054918816919092161790556001600160601b0319606085811b821660805284901b1660c05281151560f81b60a0526040516000907f5d777218f34a12264a9fec685df1868059eeec6d632b17a1775a00089e57533a908290a350505050506200031a565b3390565b600080546001600160a01b038381166001600160a01b0319831681178455604051919092169283917f8be0079c531659141344cd1fd0a4f28419497f9722a3daafe3b4186f6b6457e09190a35050565b6200012a62000184565b6001600160a01b03811662000176576040517f08c379a00000000000000000000000000000000000000000000000000000000081526004016200016d9062000288565b60405180910390fd5b6200018181620000d0565b50565b6200018e620000cc565b6001600160a01b0316620001a1620001e6565b6001600160a01b031614620001e4576040517f08c379a00000000000000000000000000000000000000000000000000000000081526004016200016d90620002e5565b565b6000546001600160a01b031690565b80516001600160a01b03811681146200020d57600080fd5b919050565b600080600080600060a086880312156200022a578081fd5b6200023586620001f5565b94506200024560208701620001f5565b93506200025560408701620001f5565b92506200026560608701620001f5565b9150608086015180151581146200027a578182fd5b809150509295509295909350565b60208082526026908201527f4f776e61626c653a206e6577206f776e657220697320746865207a65726f206160408201527f6464726573730000000000000000000000000000000000000000000000000000606082015260800190565b6020808252818101527f4f776e61626c653a2063616c6c6572206973206e6f7420746865206f776e6572604082015260600190565b60805160601c60a05160f81c60c05160601c612d806200038b60003960008181610f32015281816114f30152611b46015260008181610fb20152818161148d0152611fb8015260008181610f7401528181610fef0152818161110a01528181611fe101526120110152612d806000f3fe6080604052600436106101405760003560e01c80630924004e1461014c578063207cbd951461016e57806341744dd41461018e57806354054370146101b95780635f78debd146101d9578063715018a6146102065780637942016c1461021b5780638ae63d6d1461022e5780638da5cb5b1461025057806396769e891461026557806398f69e9a1461027a57806399efcaec146102a75780639af2e5ef146102bc578063a1970fa8146102d1578063a1a89dbc146102f1578063a2a00ed614610311578063a8c478ba14610331578063af3bd4f214610351578063bf16c3c214610364578063c10b3aee14610384578063d2627383146103a4578063d864e740146103c4578063ef9b7208146103d9578063f2fde38b146103f9578063f739a52914610419578063fa32ddd814610439578063fd0c94e31461044e57610147565b3661014757005b600080fd5b34801561015857600080fd5b5061016c6101673660046123e4565b61046e565b005b34801561017a57600080fd5b5061016c610189366004612551565b610640565b34801561019a57600080fd5b506101a36108a2565b6040516101b09190612b55565b60405180910390f35b3480156101c557600080fd5b5061016c6101d4366004612374565b6108b3565b3480156101e557600080fd5b506101f96101f436600461264f565b61093d565b6040516101b091906126db565b34801561021257600080fd5b5061016c610967565b61016c610229366004612481565b61097b565b34801561023a57600080fd5b50610243610f1d565b6040516101b09190612b64565b34801561025c57600080fd5b506101f9610f21565b34801561027157600080fd5b506101f9610f30565b34801561028657600080fd5b5061029a610295366004612374565b610f54565b6040516101b0919061287b565b3480156102b357600080fd5b506101f9610f72565b3480156102c857600080fd5b5061016c610f96565b3480156102dd57600080fd5b5061016c6102ec36600461264f565b6110fd565b3480156102fd57600080fd5b5061024361030c366004612374565b611130565b34801561031d57600080fd5b5061024361032c3660046123ac565b61114b565b34801561033d57600080fd5b5061024361034c366004612374565b611178565b61016c61035f36600461250d565b6111f3565b34801561037057600080fd5b5061016c61037f366004612456565b611231565b34801561039057600080fd5b5061016c61039f366004612617565b61128a565b3480156103b057600080fd5b506101f96103bf36600461264f565b611341565b3480156103d057600080fd5b506101f9611351565b3480156103e557600080fd5b5061016c6103f4366004612456565b611360565b34801561040557600080fd5b5061016c610414366004612374565b6113eb565b34801561042557600080fd5b5061016c6104343660046124bb565b611422565b34801561044557600080fd5b5061029a61148b565b34801561045a57600080fd5b506102436104693660046123ac565b6114af565b6104766117b5565b6001600160a01b03831660009081526004602052604090205460ff166104b75760405162461bcd60e51b81526004016104ae90612b38565b60405180910390fd5b600a546104c690600190612c59565b8251146104e55760405162461bcd60e51b81526004016104ae9061296d565b80518251146105065760405162461bcd60e51b81526004016104ae9061290a565b60005b825181101561058b576004600084838151811061053657634e487b7160e01b600052603260045260246000fd5b6020908102919091018101516001600160a01b031682528101919091526040016000205460ff166105795760405162461bcd60e51b81526004016104ae90612b00565b8061058381612cbe565b915050610509565b50610595816117f4565b6105c860405180604001604052806009815260200168434f4d4d554e49545960b81b8152506105c2610f21565b85611881565b6001600160a01b0383166000908152600460209081526040909120805460ff1916905582516105fd91600a91908501906121b8565b5061060781611e4b565b6040516001600160a01b038416907fd9ddc9dcfa963ac8b810758254dfcbdd868ce81331581e7cfe5686f80cc0ed2090600090a2505050565b6106486117b5565b8351600a54610658906001612bdf565b146106755760405162461bcd60e51b81526004016104ae90612a55565b600154604051633d200b4560e01b81526001600160a01b0390911690633d200b45906106a59086906004016126db565b60206040518083038186803b1580156106bd57600080fd5b505afa1580156106d1573d6000803e3d6000fd5b505050506040513d601f19601f820116820180604052508101906106f591906124ed565b6107115760405162461bcd60e51b81526004016104ae906129fc565b61071a846117f4565b604051635c41e61560e11b81526000906001600160a01b0385169063b883cc2a9061074f9030908a9088908890600401612713565b602060405180830381600087803b15801561076957600080fd5b505af115801561077d573d6000803e3d6000fd5b505050506040513d601f19601f820116820180604052508101906107a19190612390565b90506107d660405180604001604052806009815260200168434f4d4d554e49545960b81b8152506107d0610f21565b83611881565b6001600160a01b03811660008181526004602090815260408083208054600160ff1991821681179092556008845282852080549091168217905560059092528220829055600a80548083019091557fc65a7bb8d6351c1cf70c95a316cc6a92839c986682d98bc35f958f4883f9d2a80180546001600160a01b03199081168517909155600b805492830181559092527f0175b7a638427703f0dbe7bb9bbf987a2551717b34e79f33b5b1008d1fa01db9018054909116909117905561089a85611e4b565b505050505050565b600154600160a01b900461ffff1681565b6108bb6117b5565b6001600160a01b0381166108e15760405162461bcd60e51b81526004016104ae90612a90565b6002546040516001600160a01b038084169216907f5d777218f34a12264a9fec685df1868059eeec6d632b17a1775a00089e57533a90600090a3600280546001600160a01b0319166001600160a01b0392909216919091179055565b600a818154811061094d57600080fd5b6000918252602090912001546001600160a01b0316905081565b61096f6117b5565b6109796000611f2f565b565b600c5461098757610f1a565b60008151116109a85760405162461bcd60e51b81526004016104ae9061298b565b600c546109b3610f1d565b1115610a0857610a08604051806040016040528060048152602001632aa9a2a960e11b81525033836000815181106109fb57634e487b7160e01b600052603260045260246000fd5b6020026020010151611881565b6000806000600160009054906101000a90046001600160a01b03166001600160a01b031663f2803f036040518163ffffffff1660e01b815260040160206040518083038186803b158015610a5b57600080fd5b505afa158015610a6f573d6000803e3d6000fd5b505050506040513d601f19601f82011682018060405250810190610a939190612390565b905060005b84518160ff161015610eb8576000858260ff1681518110610ac957634e487b7160e01b600052603260045260246000fd5b6020908102919091018101516001600160a01b0381166000908152600890925260409091205490915060ff16610b115760405162461bcd60e51b81526004016104ae90612b1c565b6040516394465b2160e01b81526000906001600160a01b038316906394465b2190610b409033906004016126db565b60206040518083038186803b158015610b5857600080fd5b505afa158015610b6c573d6000803e3d6000fd5b505050506040513d601f19601f82011682018060405250810190610b909190612667565b6001600160a01b0383166000818152600760209081526040808320338452825280832054938352600590915281205492935091610bea9190610be49064e8d4a5100090610bde908790611f7f565b90611f92565b90611f9e565b905060006001600160a01b03861615801590610c7f5750604051632b6d7e0f60e21b81526001600160a01b0387169063adb5f83c90610c2d9087906004016126db565b602060405180830381600087803b158015610c4757600080fd5b505af1158015610c5b573d6000803e3d6000fd5b505050506040513d601f19601f82011682018060405250810190610c7f91906124ed565b15610d28576000866001600160a01b031663328686f66040518163ffffffff1660e01b815260040160206040518083038186803b158015610cbf57600080fd5b505afa158015610cd3573d6000803e3d6000fd5b505050506040513d601f19601f82011682018060405250810190610cf79190612633565b905061ffff811615610d2657610d17612710610bde8561ffff8516611f7f565b9150610d238389611f9e565b92505b505b8015610da65760405163330ff7b560e21b81526001600160a01b0387169063cc3fded490610d5e903090889086906004016126ef565b600060405180830381600087803b158015610d7857600080fd5b505af1158015610d8c573d6000803e3d6000fd5b50505050610da38188611faa90919063ffffffff16565b96505b8115610dff576001600160a01b0384166000908152600660209081526040808320338452909152902054610dda9083611faa565b6001600160a01b03851660009081526006602090815260408083203384529091529020555b6001600160a01b0384166000908152600660209081526040808320338452909152902054610e2e908990611faa565b6001600160a01b038516600090815260056020526040902054909850610e609064e8d4a5100090610bde908690611f7f565b6001600160a01b0390941660008181526007602090815260408083203380855290835281842098909855928252600681528282209682529590955284209390935550829150610eb0905081612cd9565b915050610a98565b508115610ec957610ec98183611fb6565b610ed33384611fb6565b336001600160a01b03167f6ef8cf0d66677b36d11ee4e51dbd733fcd95070b8c2eb524fb96952f26115cb28585604051610f0e9291906127a4565b60405180910390a25050505b50565b4390565b6000546001600160a01b031690565b7f000000000000000000000000000000000000000000000000000000000000000081565b6001600160a01b031660009081526004602052604090205460ff1690565b7f000000000000000000000000000000000000000000000000000000000000000090565b610f9e6117b5565b600060035411610fad57600080fd5b6003547f000000000000000000000000000000000000000000000000000000000000000061108d576040516370a0823160e01b81526000906001600160a01b037f000000000000000000000000000000000000000000000000000000000000000016906370a08231906110249030906004016126db565b60206040518083038186803b15801561103c57600080fd5b505afa158015611050573d6000803e3d6000fd5b505050506040513d601f19601f820116820180604052508101906110749190612667565b9050600354811061108757600354611089565b805b9150505b6002546110a3906001600160a01b031682611fb6565b6003546110b09082611f9e565b6003556002546040516001600160a01b03909116907f86a5cc8fe9af9ae68fb50f62885307a7755a30cbd290131644377f0bd94a7181906110f2908490612b64565b60405180910390a250565b6111056117b5565b610f1a7f00000000000000000000000000000000000000000000000000000000000000003383612033565b6001600160a01b031660009081526005602052604090205490565b6001600160a01b038083166000908152600760209081526040808320938516835292905220545b92915050565b600080805b600b5461ffff821610156111ec576111d86111d1600b8361ffff16815481106111b657634e487b7160e01b600052603260045260246000fd5b6000918252602090912001546001600160a01b0316866114af565b8390611faa565b9150806111e481612c9c565b91505061117d565b5092915050565b3360009081526008602052604090205460ff166112225760405162461bcd60e51b81526004016104ae90612a72565b61122d828233611881565b5050565b3360009081526008602052604090205460ff166112605760405162461bcd60e51b81526004016104ae90612a72565b3360009081526007602090815260408083206001600160a01b039590951683529390529190912055565b6112926117b5565b61271061ffff821611156112b85760405162461bcd60e51b81526004016104ae90612ae1565b6112ec60405180604001604052806009815260200168434f4d4d554e49545960b81b8152506112e5610f21565b6000611881565b6001805461ffff60a01b1916600160a01b61ffff8416021790556040517fb5ea2431f5202daeb0439a80df086a35ec0abfd105e20f5564a824062596c09e90611336908390612b55565b60405180910390a150565b600b818154811061094d57600080fd5b6001546001600160a01b031681565b3360009081526008602052604090205460ff1661138f5760405162461bcd60e51b81526004016104ae90612a72565b3360009081526006602090815260408083206001600160a01b03861684529091529020546113bd9082611faa565b3360009081526006602090815260408083206001600160a01b03969096168352949052929092209190915550565b6113f36117b5565b6001600160a01b0381166114195760405162461bcd60e51b81526004016104ae90612927565b610f1a81611f2f565b61142a6117b5565b8051600a541461144c5760405162461bcd60e51b81526004016104ae90612a39565b611455816117f4565b61148260405180604001604052806009815260200168434f4d4d554e49545960b81b8152506112e5610f21565b610f1a81611e4b565b7f000000000000000000000000000000000000000000000000000000000000000081565b6000600c54600014156114c457506000611172565b60006115ac612710610bde600160149054906101000a900461ffff166127106114ed9190612c36565b61ffff167f00000000000000000000000000000000000000000000000000000000000000006001600160a01b0316632c32c36030600c5460016115309190612bdf565b611538610f1d565b6040518463ffffffff1660e01b815260040161155693929190612783565b60206040518083038186803b15801561156e57600080fd5b505afa158015611582573d6000803e3d6000fd5b505050506040513d601f19601f820116820180604052508101906115a69190612667565b90611f7f565b90506000846001600160a01b03166394465b21856040518263ffffffff1660e01b81526004016115dc91906126db565b60206040518083038186803b1580156115f457600080fd5b505afa158015611608573d6000803e3d6000fd5b505050506040513d601f19601f8201168201806040525081019061162c9190612667565b905080611661575050506001600160a01b03808316600090815260066020908152604080832093851683529290522054611172565b6000856001600160a01b03166338adb6f06040518163ffffffff1660e01b815260040160206040518083038186803b15801561169c57600080fd5b505afa1580156116b0573d6000803e3d6000fd5b505050506040513d601f19601f820116820180604052508101906116d49190612667565b6001600160a01b0387166000908152600960205260408120549192509061173390611714908490610bde906305f5e100906115a6908a9061ffff16611f7f565b6001600160a01b03891660009081526005602052604090205490611faa565b6001600160a01b038089166000908152600760209081526040808320938b168352929052908120549192509061177690610be464e8d4a51000610bde8887611f7f565b6001600160a01b03808a166000908152600660209081526040808320938c16835292905220549091506117a99082611faa565b98975050505050505050565b6117bd612045565b6001600160a01b03166117ce610f21565b6001600160a01b0316146109795760405162461bcd60e51b81526004016104ae90612aac565b6000805b82518160ff16101561184e57828160ff168151811061182757634e487b7160e01b600052603260045260246000fd5b60200260200101518261183a9190612bb9565b91508061184681612cd9565b9150506117f8565b5061ffff81166127101480611865575061ffff8116155b61122d5760405162461bcd60e51b81526004016104ae90612a19565b600154604051631da3ddcd60e31b81526000916001600160a01b03169063ed1eee68906118b2908790600401612886565b60206040518083038186803b1580156118ca57600080fd5b505afa1580156118de573d6000803e3d6000fd5b505050506040513d601f19601f820116820180604052508101906119029190612667565b600154604051634ca1a91960e01b81529192506001600160a01b031690634ca1a919906119339086906004016126db565b60206040518083038186803b15801561194b57600080fd5b505afa15801561195f573d6000803e3d6000fd5b505050506040513d601f19601f8201168201806040525081019061198391906124ed565b1580156119905750600081115b15611b1557803410156119b55760405162461bcd60e51b81526004016104ae906129d5565b60015460408051631d8cf42560e11b815290516000926001600160a01b031691633b19e84a916004808301926020929190829003018186803b1580156119fa57600080fd5b505afa158015611a0e573d6000803e3d6000fd5b505050506040513d601f19601f82011682018060405250810190611a329190612390565b6001600160a01b031634604051611a48906126d8565b60006040518083038185875af1925050503d8060008114611a85576040519150601f19603f3d011682016040523d82523d6000602084013e611a8a565b606091505b5050905080611aab5760405162461bcd60e51b81526004016104ae906129d5565b60015460405163038815f360e41b81526001600160a01b03909116906338815f3090611ae1908890309088908a90600401612899565b600060405180830381600087803b158015611afb57600080fd5b505af1158015611b0f573d6000803e3d6000fd5b50505050505b600080611b20610f1d565b9050600c5460001415611b3357600c8190555b600c548111611b4457505050611e46565b7f00000000000000000000000000000000000000000000000000000000000000006001600160a01b0316632c32c36030600c546001611b839190612bdf565b846040518463ffffffff1660e01b8152600401611ba293929190612783565b60206040518083038186803b158015611bba57600080fd5b505afa158015611bce573d6000803e3d6000fd5b505050506040513d601f19601f82011682018060405250810190611bf29190612667565b91508115611cb557600154600160a01b900461ffff1615611cb557600154600090611c319061271090610bde908690600160a01b900461ffff16611f7f565b600354909150611c419082611faa565b600355600154611c709061271090610bde90611c69908390600160a01b900461ffff16611f9e565b8690611f7f565b9250856001600160a01b03167f2f4ae87a584f00dc35b043dd1c5ac839c1f41cd3a66e834d4e13faa6251634e682604051611cab9190612b64565b60405180910390a2505b60005b600a5461ffff82161015611e3f576000600a8261ffff1681548110611ced57634e487b7160e01b600052603260045260246000fd5b60009182526020808320909101546040805163038adb6f60e41b815290516001600160a01b03909216945084926338adb6f092600480840193829003018186803b158015611d3a57600080fd5b505afa158015611d4e573d6000803e3d6000fd5b505050506040513d601f19601f82011682018060405250810190611d729190612667565b9050801580611d9b57506001600160a01b03821660009081526009602052604090205461ffff16155b15611da7575050611e2d565b6001600160a01b038216600090815260096020526040812054611ddf9061271090610bde9061ffff166115a68a64e8d4a51000611f7f565b9050611e0d611dee8284611f92565b6001600160a01b03851660009081526005602052604090205490611faa565b6001600160a01b0390931660009081526005602052604090209290925550505b80611e3781612c9c565b915050611cb8565b50600c5550505b505050565b60005b600a5461ffff82161015611efc57818161ffff1681518110611e8057634e487b7160e01b600052603260045260246000fd5b602002602001015160096000600a8461ffff1681548110611eb157634e487b7160e01b600052603260045260246000fd5b6000918252602080832091909101546001600160a01b031683528201929092526040019020805461ffff191661ffff9290921691909117905580611ef481612c9c565b915050611e4e565b507f5b904beeb70c84b12d4105e0582a752c5a2705717790e1a648a27ba8622b9786600a826040516113369291906127f5565b600080546001600160a01b038381166001600160a01b0319831681178455604051919092169283917f8be0079c531659141344cd1fd0a4f28419497f9722a3daafe3b4186f6b6457e09190a35050565b6000611f8b8284612c17565b9392505050565b6000611f8b8284612bf7565b6000611f8b8284612c59565b6000611f8b8284612bdf565b7f00000000000000000000000000000000000000000000000000000000000000001561200c576120077f00000000000000000000000000000000000000000000000000000000000000008383612049565b61122d565b61122d7f000000000000000000000000000000000000000000000000000000000000000083835b8261203f8184846120b1565b50505050565b3390565b6040516340c10f1960e01b815283906001600160a01b038216906340c10f1990612079908690869060040161276a565b600060405180830381600087803b15801561209357600080fd5b505af11580156120a7573d6000803e3d6000fd5b5050505050505050565b611e468363a9059cbb60e01b84846040516024016120d092919061276a565b60408051601f198184030181529190526020810180516001600160e01b03166001600160e01b031990931692909217909152600080836001600160a01b03168360405161211d91906126bc565b6000604051808303816000865af19150503d806000811461215a576040519150601f19603f3d011682016040523d82523d6000602084013e61215f565b606091505b5091509150816121815760405162461bcd60e51b81526004016104ae906129a9565b80511561203f578080602001905181019061219c91906124ed565b61203f5760405162461bcd60e51b81526004016104ae906128d5565b82805482825590600052602060002090810192821561220d579160200282015b8281111561220d57825182546001600160a01b0319166001600160a01b039091161782556020909201916001909101906121d8565b5061221992915061221d565b5090565b5b80821115612219576000815560010161221e565b600082601f830112612242578081fd5b8135602061225761225283612b96565b612b6d565b8281528181019085830183850287018401881015612273578586fd5b855b8581101561229a57813561228881612d25565b84529284019290840190600101612275565b5090979650505050505050565b600082601f8301126122b7578081fd5b813560206122c761225283612b96565b82815281810190858301838502870184018810156122e3578586fd5b855b8581101561229a5781356122f881612d3a565b845292840192908401906001016122e5565b600082601f83011261231a578081fd5b81356001600160401b0381111561233357612333612d0f565b612346601f8201601f1916602001612b6d565b81815284602083860101111561235a578283fd5b816020850160208301379081016020019190915292915050565b600060208284031215612385578081fd5b8135611f8b81612d25565b6000602082840312156123a1578081fd5b8151611f8b81612d25565b600080604083850312156123be578081fd5b82356123c981612d25565b915060208301356123d981612d25565b809150509250929050565b6000806000606084860312156123f8578081fd5b833561240381612d25565b925060208401356001600160401b038082111561241e578283fd5b61242a87838801612232565b9350604086013591508082111561243f578283fd5b5061244c868287016122a7565b9150509250925092565b60008060408385031215612468578182fd5b823561247381612d25565b946020939093013593505050565b600060208284031215612492578081fd5b81356001600160401b038111156124a7578182fd5b6124b384828501612232565b949350505050565b6000602082840312156124cc578081fd5b81356001600160401b038111156124e1578182fd5b6124b3848285016122a7565b6000602082840312156124fe578081fd5b81518015158114611f8b578182fd5b6000806040838503121561251f578182fd5b82356001600160401b03811115612534578283fd5b6125408582860161230a565b92505060208301356123d981612d25565b600080600080600060808688031215612568578081fd5b85356001600160401b038082111561257e578283fd5b61258a89838a0161230a565b9650602088013591508082111561259f578283fd5b6125ab89838a016122a7565b9550604088013591506125bd82612d25565b909350606087013590808211156125d2578283fd5b818801915088601f8301126125e5578283fd5b8135818111156125f3578384fd5b896020828501011115612604578384fd5b9699959850939650602001949392505050565b600060208284031215612628578081fd5b8135611f8b81612d3a565b600060208284031215612644578081fd5b8151611f8b81612d3a565b600060208284031215612660578081fd5b5035919050565b600060208284031215612678578081fd5b5051919050565b6001600160a01b0316815260200190565b600081518084526126a8816020860160208601612c70565b601f01601f19169290920160200192915050565b600082516126ce818460208701612c70565b9190910192915050565b90565b6001600160a01b0391909116815260200190565b6001600160a01b039384168152919092166020820152604081019190915260600190565b6001600160a01b038516815260606020820181905260009061273790830186612690565b82810360408401528381528385602083013781602085830101526020601f19601f86011682010191505095945050505050565b6001600160a01b03929092168252602082015260400190565b6001600160a01b039390931683526020830191909152604082015260600190565b604080825283519082018190526000906020906060840190828701845b828110156127e65781516001600160a01b0316845292840192908401906001016127c1565b50505092019290925292915050565b6000604082016040835280855480835260608501915086845260209250828420845b828110156128435781546128359085906001600160a01b031661267f565b935060019182019101612817565b50505083810382850152845180825285830191830190845b8181101561229a57835161ffff168352928401929184019160010161285b565b901515815260200190565b600060208252611f8b6020830184612690565b6000608082526128ac6080830187612690565b6001600160a01b0395861660208401529385166040830152509216606090920191909152919050565b6020808252818101527f45524332303a206f7065726174696f6e20646964206e6f742073756363656564604082015260600190565b6020808252600390820152624c444d60e81b604082015260600190565b60208082526026908201527f4f776e61626c653a206e6577206f776e657220697320746865207a65726f206160408201526564647265737360d01b606082015260800190565b60208082526004908201526315d0541360e21b604082015260600190565b6020808252600490820152634d484f3160e01b604082015260600190565b602080825260129082015271115490cc8c0e8818d85b1b0819985a5b195960721b604082015260600190565b6020808252600d908201526c18dbdcdd081999594819985a5b609a1b604082015260600190565b6020808252600390820152622aa82360e91b604082015260600190565b6020808252600690820152655253213d317760d01b604082015260600190565b60208082526002908201526115d360f21b604082015260600190565b60208082526003908201526257504360e81b604082015260600190565b602080825260049082015263504e495760e01b604082015260600190565b602080825260029082015261494160f01b604082015260600190565b6020808252818101527f4f776e61626c653a2063616c6c6572206973206e6f7420746865206f776e6572604082015260600190565b60208082526005908201526450523e317760d81b604082015260600190565b602080825260029082015261057560f41b604082015260600190565b602080825260029082015261049560f41b604082015260600190565b60208082526003908201526250494160e81b604082015260600190565b61ffff91909116815260200190565b90815260200190565b6040518181016001600160401b0381118282101715612b8e57612b8e612d0f565b604052919050565b60006001600160401b03821115612baf57612baf612d0f565b5060209081020190565b600061ffff808316818516808303821115612bd657612bd6612cf9565b01949350505050565b60008219821115612bf257612bf2612cf9565b500190565b600082612c1257634e487b7160e01b81526012600452602481fd5b500490565b6000816000190483118215151615612c3157612c31612cf9565b500290565b600061ffff83811690831681811015612c5157612c51612cf9565b039392505050565b600082821015612c6b57612c6b612cf9565b500390565b60005b83811015612c8b578181015183820152602001612c73565b8381111561203f5750506000910152565b600061ffff80831681811415612cb457612cb4612cf9565b6001019392505050565b6000600019821415612cd257612cd2612cf9565b5060010190565b600060ff821660ff811415612cf057612cf0612cf9565b60010192915050565b634e487b7160e01b600052601160045260246000fd5b634e487b7160e01b600052604160045260246000fd5b6001600160a01b0381168114610f1a57600080fd5b61ffff81168114610f1a57600080fdfea2646970667358221220026173dacc2031e1a58b53007edc2226e9fcb59c5ef0b762bbcffb180516f9ae64736f6c63430008000033",
  "linkReferences": {},
  "deployedLinkReferences": {}
}