{
  "_format": "hh-sol-artifact-1",
  "contractName": "Community",
  "sourceName": "contracts/Community.sol",
  "abi": [
    {
      "inputs": [
        {
          "internalType": "address",
          "name": "_admin",
          "type": "address"
        },
        {
          "internalType": "address",
          "name": "_committee",
          "type": "address"
        },
        {
          "internalType": "address",
          "name": "_communityToken",
          "type": "address"
        },
        {
          "internalType": "address",
          "name": "_rewardCalculator",
          "type": "address"
        },
        {
          "internalType": "bool",
          "name": "_isMintableCommunityToken",
          "type": "bool"
        }
      ],
      "stateMutability": "nonpayable",
      "type": "constructor"
    },
    {
      "anonymous": false,
      "inputs": [
        {
          "indexed": true,
          "internalType": "address",
          "name": "pool",
          "type": "address"
        }
      ],
      "name": "AdminClosePool",
      "type": "event"
    },
    {
      "anonymous": false,
      "inputs": [
        {
          "indexed": false,
          "internalType": "uint16",
          "name": "ratio",
          "type": "uint16"
        }
      ],
      "name": "AdminSetFeeRatio",
      "type": "event"
    },
    {
      "anonymous": false,
      "inputs": [
        {
          "indexed": false,
          "internalType": "address[]",
          "name": "pools",
          "type": "address[]"
        },
        {
          "indexed": false,
          "internalType": "uint16[]",
          "name": "ratios",
          "type": "uint16[]"
        }
      ],
      "name": "AdminSetPoolRatio",
      "type": "event"
    },
    {
      "anonymous": false,
      "inputs": [
        {
          "indexed": true,
          "internalType": "address",
          "name": "oldDev",
          "type": "address"
        },
        {
          "indexed": true,
          "internalType": "address",
          "name": "newDev",
          "type": "address"
        }
      ],
      "name": "DevChanged",
      "type": "event"
    },
    {
      "anonymous": false,
      "inputs": [
        {
          "indexed": true,
          "internalType": "address",
          "name": "previousOwner",
          "type": "address"
        },
        {
          "indexed": true,
          "internalType": "address",
          "name": "newOwner",
          "type": "address"
        }
      ],
      "name": "OwnershipTransferred",
      "type": "event"
    },
    {
      "anonymous": false,
      "inputs": [
        {
          "indexed": true,
          "internalType": "address",
          "name": "who",
          "type": "address"
        },
        {
          "indexed": false,
          "internalType": "uint256",
          "name": "amount",
          "type": "uint256"
        }
      ],
      "name": "PoolUpdated",
      "type": "event"
    },
    {
      "anonymous": false,
      "inputs": [
        {
          "indexed": true,
          "internalType": "address",
          "name": "devFund",
          "type": "address"
        },
        {
          "indexed": false,
          "internalType": "uint256",
          "name": "amount",
          "type": "uint256"
        }
      ],
      "name": "RevenueWithdrawn",
      "type": "event"
    },
    {
      "anonymous": false,
      "inputs": [
        {
          "indexed": false,
          "internalType": "address[]",
          "name": "pool",
          "type": "address[]"
        },
        {
          "indexed": true,
          "internalType": "address",
          "name": "who",
          "type": "address"
        },
        {
          "indexed": false,
          "internalType": "uint256",
          "name": "amount",
          "type": "uint256"
        }
      ],
      "name": "WithdrawRewards",
      "type": "event"
    },
    {
      "inputs": [
        {
          "internalType": "uint256",
          "name": "",
          "type": "uint256"
        }
      ],
      "name": "activedPools",
      "outputs": [
        {
          "internalType": "address",
          "name": "",
          "type": "address"
        }
      ],
      "stateMutability": "view",
      "type": "function"
    },
    {
      "inputs": [
        {
          "internalType": "string",
          "name": "poolName",
          "type": "string"
        },
        {
          "internalType": "uint16[]",
          "name": "ratios",
          "type": "uint16[]"
        },
        {
          "internalType": "address",
          "name": "poolFactory",
          "type": "address"
        },
        {
          "internalType": "bytes",
          "name": "meta",
          "type": "bytes"
        }
      ],
      "name": "adminAddPool",
      "outputs": [],
      "stateMutability": "nonpayable",
      "type": "function"
    },
    {
      "inputs": [
        {
          "internalType": "address",
          "name": "poolAddress",
          "type": "address"
        },
        {
          "internalType": "address[]",
          "name": "_activedPools",
          "type": "address[]"
        },
        {
          "internalType": "uint16[]",
          "name": "ratios",
          "type": "uint16[]"
        }
      ],
      "name": "adminClosePool",
      "outputs": [],
      "stateMutability": "nonpayable",
      "type": "function"
    },
    {
      "inputs": [
        {
          "internalType": "address",
          "name": "_dev",
          "type": "address"
        }
      ],
      "name": "adminSetDev",
      "outputs": [],
      "stateMutability": "nonpayable",
      "type": "function"
    },
    {
      "inputs": [
        {
          "internalType": "uint16",
          "name": "_ratio",
          "type": "uint16"
        }
      ],
      "name": "adminSetFeeRatio",
      "outputs": [],
      "stateMutability": "nonpayable",
      "type": "function"
    },
    {
      "inputs": [
        {
          "internalType": "uint16[]",
          "name": "ratios",
          "type": "uint16[]"
        }
      ],
      "name": "adminSetPoolRatios",
      "outputs": [],
      "stateMutability": "nonpayable",
      "type": "function"
    },
    {
      "inputs": [],
      "name": "adminWithdrawRevenue",
      "outputs": [],
      "stateMutability": "nonpayable",
      "type": "function"
    },
    {
      "inputs": [
        {
          "internalType": "uint256",
          "name": "amount",
          "type": "uint256"
        }
      ],
      "name": "adminWithdrawReward",
      "outputs": [],
      "stateMutability": "nonpayable",
      "type": "function"
    },
    {
      "inputs": [
        {
          "internalType": "address",
          "name": "user",
          "type": "address"
        },
        {
          "internalType": "uint256",
          "name": "amount",
          "type": "uint256"
        }
      ],
      "name": "appendUserReward",
      "outputs": [],
      "stateMutability": "nonpayable",
      "type": "function"
    },
    {
      "inputs": [
        {
          "internalType": "uint256",
          "name": "",
          "type": "uint256"
        }
      ],
      "name": "createdPools",
      "outputs": [
        {
          "internalType": "address",
          "name": "",
          "type": "address"
        }
      ],
      "stateMutability": "view",
      "type": "function"
    },
    {
      "inputs": [],
      "name": "feeRatio",
      "outputs": [
        {
          "internalType": "uint16",
          "name": "",
          "type": "uint16"
        }
      ],
      "stateMutability": "view",
      "type": "function"
    },
    {
      "inputs": [],
      "name": "getCommunityToken",
      "outputs": [
        {
          "internalType": "address",
          "name": "",
          "type": "address"
        }
      ],
      "stateMutability": "view",
      "type": "function"
    },
    {
      "inputs": [
        {
          "internalType": "address",
          "name": "poolAddress",
          "type": "address"
        },
        {
          "internalType": "address",
          "name": "user",
          "type": "address"
        }
      ],
      "name": "getPoolPendingRewards",
      "outputs": [
        {
          "internalType": "uint256",
          "name": "",
          "type": "uint256"
        }
      ],
      "stateMutability": "view",
      "type": "function"
    },
    {
      "inputs": [
        {
          "internalType": "address",
          "name": "pool",
          "type": "address"
        }
      ],
      "name": "getShareAcc",
      "outputs": [
        {
          "internalType": "uint256",
          "name": "",
          "type": "uint256"
        }
      ],
      "stateMutability": "view",
      "type": "function"
    },
    {
      "inputs": [
        {
          "internalType": "address",
          "name": "user",
          "type": "address"
        }
      ],
      "name": "getTotalPendingRewards",
      "outputs": [
        {
          "internalType": "uint256",
          "name": "",
          "type": "uint256"
        }
      ],
      "stateMutability": "view",
      "type": "function"
    },
    {
      "inputs": [
        {
          "internalType": "address",
          "name": "pool",
          "type": "address"
        },
        {
          "internalType": "address",
          "name": "user",
          "type": "address"
        }
      ],
      "name": "getUserDebt",
      "outputs": [
        {
          "internalType": "uint256",
          "name": "",
          "type": "uint256"
        }
      ],
      "stateMutability": "view",
      "type": "function"
    },
    {
      "inputs": [],
      "name": "isMintableCommunityToken",
      "outputs": [
        {
          "internalType": "bool",
          "name": "",
          "type": "bool"
        }
      ],
      "stateMutability": "view",
      "type": "function"
    },
    {
      "inputs": [],
      "name": "owner",
      "outputs": [
        {
          "internalType": "address",
          "name": "",
          "type": "address"
        }
      ],
      "stateMutability": "view",
      "type": "function"
    },
    {
      "inputs": [
        {
          "internalType": "address",
          "name": "pool",
          "type": "address"
        }
      ],
      "name": "poolActived",
      "outputs": [
        {
          "internalType": "bool",
          "name": "",
          "type": "bool"
        }
      ],
      "stateMutability": "view",
      "type": "function"
    },
    {
      "inputs": [],
      "name": "renounceOwnership",
      "outputs": [],
      "stateMutability": "nonpayable",
      "type": "function"
    },
    {
      "inputs": [],
      "name": "rewardCalculator",
      "outputs": [
        {
          "internalType": "address",
          "name": "",
          "type": "address"
        }
      ],
      "stateMutability": "view",
      "type": "function"
    },
    {
      "inputs": [
        {
          "internalType": "address",
          "name": "user",
          "type": "address"
        },
        {
          "internalType": "uint256",
          "name": "debt",
          "type": "uint256"
        }
      ],
      "name": "setUserDebt",
      "outputs": [],
      "stateMutability": "nonpayable",
      "type": "function"
    },
    {
      "inputs": [
        {
          "internalType": "address",
          "name": "newOwner",
          "type": "address"
        }
      ],
      "name": "transferOwnership",
      "outputs": [],
      "stateMutability": "nonpayable",
      "type": "function"
    },
    {
      "inputs": [
        {
          "internalType": "string",
          "name": "feeType",
          "type": "string"
        },
        {
          "internalType": "address",
          "name": "feePayer",
          "type": "address"
        }
      ],
      "name": "updatePools",
      "outputs": [],
      "stateMutability": "nonpayable",
      "type": "function"
    },
    {
      "inputs": [
        {
          "internalType": "address[]",
          "name": "poolAddresses",
          "type": "address[]"
        }
      ],
      "name": "withdrawPoolsRewards",
      "outputs": [],
      "stateMutability": "nonpayable",
      "type": "function"
    }
  ],
  "bytecode": "0x6101006040523480156200001257600080fd5b50604051620030ec380380620030ec83398101604081905262000035916200021a565b6200004962000043620000d4565b620000d8565b620000548562000128565b600180546001600160a01b0387166001600160a01b031990911681179091556001600160601b0319606086811b821660805285811b821660a05284901b1660e05281151560f81b60c0526040516000907f5d777218f34a12264a9fec685df1868059eeec6d632b17a1775a00089e57533a908290a3505050505062000322565b3390565b600080546001600160a01b038381166001600160a01b0319831681178455604051919092169283917f8be0079c531659141344cd1fd0a4f28419497f9722a3daafe3b4186f6b6457e09190a35050565b620001326200018c565b6001600160a01b0381166200017e576040517f08c379a0000000000000000000000000000000000000000000000000000000008152600401620001759062000290565b60405180910390fd5b6200018981620000d8565b50565b62000196620000d4565b6001600160a01b0316620001a9620001ee565b6001600160a01b031614620001ec576040517f08c379a00000000000000000000000000000000000000000000000000000000081526004016200017590620002ed565b565b6000546001600160a01b031690565b80516001600160a01b03811681146200021557600080fd5b919050565b600080600080600060a0868803121562000232578081fd5b6200023d86620001fd565b94506200024d60208701620001fd565b93506200025d60408701620001fd565b92506200026d60608701620001fd565b91506080860151801515811462000282578182fd5b809150509295509295909350565b60208082526026908201527f4f776e61626c653a206e6577206f776e657220697320746865207a65726f206160408201527f6464726573730000000000000000000000000000000000000000000000000000606082015260800190565b6020808252818101527f4f776e61626c653a2063616c6c6572206973206e6f7420746865206f776e6572604082015260600190565b60805160601c60a05160601c60c05160f81c60e05160601c612d1b620003d160003960008181610de5015281816113930152611ad4015260008181610e65015281816113310152611f43015260008181610e2701528181610ea201528181610fbd01528181611f6c0152611f9c015260008181610523015281816108bb01528181611731015281816117d801528181611869015281816118fb015281816119a10152611a420152612d1b6000f3fe608060405234801561001057600080fd5b50600436106101335760003560e01c80630924004e14610138578063207cbd951461014d57806341744dd414610160578063540543701461017e5780635f78debd14610191578063715018a6146101b15780637942016c146101b95780638da5cb5b146101cc57806396769e89146101d457806398f69e9a146101dc57806399efcaec146101fc5780639af2e5ef14610204578063a1970fa81461020c578063a1a89dbc1461021f578063a2a00ed61461023f578063a8c478ba14610252578063af3bd4f214610265578063bf16c3c214610278578063c10b3aee1461028b578063d26273831461029e578063ef9b7208146102b1578063f2fde38b146102c4578063f739a529146102d7578063fa32ddd8146102ea578063fd0c94e3146102f2575b600080fd5b61014b6101463660046123a9565b610305565b005b61014b61015b366004612516565b6104d7565b610168610755565b6040516101759190612af0565b60405180910390f35b61014b61018c366004612339565b610766565b6101a461019f366004612614565b6107f0565b604051610175919061269d565b61014b61081a565b61014b6101c7366004612446565b61082e565b6101a4610dd4565b6101a4610de3565b6101ef6101ea366004612339565b610e07565b604051610175919061283d565b6101a4610e25565b61014b610e49565b61014b61021a366004612614565b610fb0565b61023261022d366004612339565b610fe3565b6040516101759190612aff565b61023261024d366004612371565b610ffe565b610232610260366004612339565b61102b565b61014b6102733660046124d2565b6110a6565b61014b61028636600461241b565b6110e4565b61014b6102993660046125dc565b61113d565b6101a46102ac366004612614565b6111f4565b61014b6102bf36600461241b565b611204565b61014b6102d2366004612339565b61128f565b61014b6102e5366004612480565b6112c6565b6101ef61132f565b610232610300366004612371565b611353565b61030d61164e565b6001600160a01b03831660009081526003602052604090205460ff1661034e5760405162461bcd60e51b815260040161034590612ad3565b60405180910390fd5b60095461035d90600190612bf4565b82511461037c5760405162461bcd60e51b81526004016103459061292f565b805182511461039d5760405162461bcd60e51b8152600401610345906128cc565b60005b825181101561042257600360008483815181106103cd57634e487b7160e01b600052603260045260246000fd5b6020908102919091018101516001600160a01b031682528101919091526040016000205460ff166104105760405162461bcd60e51b815260040161034590612a9b565b8061041a81612c59565b9150506103a0565b5061042c8161168d565b61045f60405180604001604052806009815260200168434f4d4d554e49545960b81b815250610459610dd4565b8561171a565b6001600160a01b0383166000908152600360209081526040909120805460ff191690558251610494916009919085019061217d565b5061049e81611dd6565b6040516001600160a01b038416907fd9ddc9dcfa963ac8b810758254dfcbdd868ce81331581e7cfe5686f80cc0ed2090600090a2505050565b6104df61164e565b83516009546104ef906001612b7a565b1461050c5760405162461bcd60e51b8152600401610345906129f0565b604051633d200b4560e01b81526001600160a01b037f00000000000000000000000000000000000000000000000000000000000000001690633d200b459061055890869060040161269d565b60206040518083038186803b15801561057057600080fd5b505afa158015610584573d6000803e3d6000fd5b505050506040513d601f19601f820116820180604052508101906105a891906124b2565b6105c45760405162461bcd60e51b815260040161034590612997565b6105cd8461168d565b604051635c41e61560e11b81526000906001600160a01b0385169063b883cc2a906106029030908a90889088906004016126d5565b602060405180830381600087803b15801561061c57600080fd5b505af1158015610630573d6000803e3d6000fd5b505050506040513d601f19601f820116820180604052508101906106549190612355565b905061068960405180604001604052806009815260200168434f4d4d554e49545960b81b815250610683610dd4565b8361171a565b6001600160a01b03811660008181526003602090815260408083208054600160ff1991821681179092556007845282852080549091168217905560049092528220829055600980548083019091557f6e1540171b6c0c960b71a7020d9f60077f6af931a8bbf590da0223dacf75c7af0180546001600160a01b03199081168517909155600a805492830181559092527fc65a7bb8d6351c1cf70c95a316cc6a92839c986682d98bc35f958f4883f9d2a8018054909116909117905561074d85611dd6565b505050505050565b600054600160a01b900461ffff1681565b61076e61164e565b6001600160a01b0381166107945760405162461bcd60e51b815260040161034590612a2b565b6001546040516001600160a01b038084169216907f5d777218f34a12264a9fec685df1868059eeec6d632b17a1775a00089e57533a90600090a3600180546001600160a01b0319166001600160a01b0392909216919091179055565b6009818154811061080057600080fd5b6000918252602090912001546001600160a01b0316905081565b61082261164e565b61082c6000611eba565b565b600b5461083a57610dd1565b600081511161085b5760405162461bcd60e51b81526004016103459061294d565b600b544311156108b4576108b4604051806040016040528060048152602001632aa9a2a960e11b81525033836000815181106108a757634e487b7160e01b600052603260045260246000fd5b602002602001015161171a565b60008060007f00000000000000000000000000000000000000000000000000000000000000006001600160a01b031663f2803f036040518163ffffffff1660e01b815260040160206040518083038186803b15801561091257600080fd5b505afa158015610926573d6000803e3d6000fd5b505050506040513d601f19601f8201168201806040525081019061094a9190612355565b905060005b84518160ff161015610d6f576000858260ff168151811061098057634e487b7160e01b600052603260045260246000fd5b6020908102919091018101516001600160a01b0381166000908152600790925260409091205490915060ff166109c85760405162461bcd60e51b815260040161034590612ab7565b6040516394465b2160e01b81526000906001600160a01b038316906394465b21906109f790339060040161269d565b60206040518083038186803b158015610a0f57600080fd5b505afa158015610a23573d6000803e3d6000fd5b505050506040513d601f19601f82011682018060405250810190610a47919061262c565b6001600160a01b0383166000818152600660209081526040808320338452825280832054938352600490915281205492935091610aa19190610a9b9064e8d4a5100090610a95908790611f0a565b90611f1d565b90611f29565b905060006001600160a01b03861615801590610b365750604051632b6d7e0f60e21b81526001600160a01b0387169063adb5f83c90610ae490879060040161269d565b602060405180830381600087803b158015610afe57600080fd5b505af1158015610b12573d6000803e3d6000fd5b505050506040513d601f19601f82011682018060405250810190610b3691906124b2565b15610bdf576000866001600160a01b031663328686f66040518163ffffffff1660e01b815260040160206040518083038186803b158015610b7657600080fd5b505afa158015610b8a573d6000803e3d6000fd5b505050506040513d601f19601f82011682018060405250810190610bae91906125f8565b905061ffff811615610bdd57610bce612710610a958561ffff8516611f0a565b9150610bda8389611f29565b92505b505b8015610c5d5760405163330ff7b560e21b81526001600160a01b0387169063cc3fded490610c15903090889086906004016126b1565b600060405180830381600087803b158015610c2f57600080fd5b505af1158015610c43573d6000803e3d6000fd5b50505050610c5a8188611f3590919063ffffffff16565b96505b8115610cb6576001600160a01b0384166000908152600560209081526040808320338452909152902054610c919083611f35565b6001600160a01b03851660009081526005602090815260408083203384529091529020555b6001600160a01b0384166000908152600560209081526040808320338452909152902054610ce5908990611f35565b6001600160a01b038516600090815260046020526040902054909850610d179064e8d4a5100090610a95908690611f0a565b6001600160a01b0390941660008181526006602090815260408083203380855290835281842098909855928252600581528282209682529590955284209390935550829150610d67905081612c74565b91505061094f565b508115610d8057610d808183611f41565b610d8a3384611f41565b336001600160a01b03167f6ef8cf0d66677b36d11ee4e51dbd733fcd95070b8c2eb524fb96952f26115cb28585604051610dc5929190612766565b60405180910390a25050505b50565b6000546001600160a01b031690565b7f000000000000000000000000000000000000000000000000000000000000000081565b6001600160a01b031660009081526003602052604090205460ff1690565b7f000000000000000000000000000000000000000000000000000000000000000090565b610e5161164e565b600060025411610e6057600080fd5b6002547f0000000000000000000000000000000000000000000000000000000000000000610f40576040516370a0823160e01b81526000906001600160a01b037f000000000000000000000000000000000000000000000000000000000000000016906370a0823190610ed790309060040161269d565b60206040518083038186803b158015610eef57600080fd5b505afa158015610f03573d6000803e3d6000fd5b505050506040513d601f19601f82011682018060405250810190610f27919061262c565b90506002548110610f3a57600254610f3c565b805b9150505b600154610f56906001600160a01b031682611f41565b600254610f639082611f29565b6002556001546040516001600160a01b03909116907f86a5cc8fe9af9ae68fb50f62885307a7755a30cbd290131644377f0bd94a718190610fa5908490612aff565b60405180910390a250565b610fb861164e565b610dd17f00000000000000000000000000000000000000000000000000000000000000003383611fbe565b6001600160a01b031660009081526004602052604090205490565b6001600160a01b038083166000908152600660209081526040808320938516835292905220545b92915050565b600080805b600a5461ffff8216101561109f5761108b611084600a8361ffff168154811061106957634e487b7160e01b600052603260045260246000fd5b6000918252602090912001546001600160a01b031686611353565b8390611f35565b91508061109781612c37565b915050611030565b5092915050565b3360009081526007602052604090205460ff166110d55760405162461bcd60e51b815260040161034590612a0d565b6110e082823361171a565b5050565b3360009081526007602052604090205460ff166111135760405162461bcd60e51b815260040161034590612a0d565b3360009081526006602090815260408083206001600160a01b039590951683529390529190912055565b61114561164e565b61271061ffff8216111561116b5760405162461bcd60e51b815260040161034590612a7c565b61119f60405180604001604052806009815260200168434f4d4d554e49545960b81b815250611198610dd4565b600061171a565b6000805461ffff60a01b1916600160a01b61ffff8416021790556040517fb5ea2431f5202daeb0439a80df086a35ec0abfd105e20f5564a824062596c09e906111e9908390612af0565b60405180910390a150565b600a818154811061080057600080fd5b3360009081526007602052604090205460ff166112335760405162461bcd60e51b815260040161034590612a0d565b3360009081526005602090815260408083206001600160a01b03861684529091529020546112619082611f35565b3360009081526005602090815260408083206001600160a01b03969096168352949052929092209190915550565b61129761164e565b6001600160a01b0381166112bd5760405162461bcd60e51b8152600401610345906128e9565b610dd181611eba565b6112ce61164e565b8051600954146112f05760405162461bcd60e51b8152600401610345906129d4565b6112f98161168d565b61132660405180604001604052806009815260200168434f4d4d554e49545960b81b815250611198610dd4565b610dd181611dd6565b7f000000000000000000000000000000000000000000000000000000000000000081565b6000600b546000141561136857506000611025565b600080546114459061271090610a959061138d90600160a01b900461ffff1683612bd1565b61ffff167f00000000000000000000000000000000000000000000000000000000000000006001600160a01b0316632c32c36030600b5460016113d09190612b7a565b436040518463ffffffff1660e01b81526004016113ef93929190612745565b60206040518083038186803b15801561140757600080fd5b505afa15801561141b573d6000803e3d6000fd5b505050506040513d601f19601f8201168201806040525081019061143f919061262c565b90611f0a565b90506000846001600160a01b03166394465b21856040518263ffffffff1660e01b8152600401611475919061269d565b60206040518083038186803b15801561148d57600080fd5b505afa1580156114a1573d6000803e3d6000fd5b505050506040513d601f19601f820116820180604052508101906114c5919061262c565b9050806114fa575050506001600160a01b03808316600090815260056020908152604080832093851683529290522054611025565b6000856001600160a01b03166338adb6f06040518163ffffffff1660e01b815260040160206040518083038186803b15801561153557600080fd5b505afa158015611549573d6000803e3d6000fd5b505050506040513d601f19601f8201168201806040525081019061156d919061262c565b6001600160a01b038716600090815260086020526040812054919250906115cc906115ad908490610a95906305f5e1009061143f908a9061ffff16611f0a565b6001600160a01b03891660009081526004602052604090205490611f35565b6001600160a01b038089166000908152600660209081526040808320938b168352929052908120549192509061160f90610a9b64e8d4a51000610a958887611f0a565b6001600160a01b03808a166000908152600560209081526040808320938c16835292905220549091506116429082611f35565b98975050505050505050565b611656611fd0565b6001600160a01b0316611667610dd4565b6001600160a01b03161461082c5760405162461bcd60e51b815260040161034590612a47565b6000805b82518160ff1610156116e757828160ff16815181106116c057634e487b7160e01b600052603260045260246000fd5b6020026020010151826116d39190612b54565b9150806116df81612c74565b915050611691565b5061ffff811661271014806116fe575061ffff8116155b6110e05760405162461bcd60e51b8152600401610345906129b4565b604051634ca1a91960e01b81526001600160a01b037f00000000000000000000000000000000000000000000000000000000000000001690634ca1a9199061176690859060040161269d565b60206040518083038186803b15801561177e57600080fd5b505afa158015611792573d6000803e3d6000fd5b505050506040513d601f19601f820116820180604052508101906117b691906124b2565b15801561185f5750604051631da3ddcd60e31b81526000906001600160a01b037f0000000000000000000000000000000000000000000000000000000000000000169063ed1eee689061180d908790600401612848565b60206040518083038186803b15801561182557600080fd5b505afa158015611839573d6000803e3d6000fd5b505050506040513d601f19601f8201168201806040525081019061185d919061262c565b115b15611ab057611a2b7f00000000000000000000000000000000000000000000000000000000000000006001600160a01b031663c10bde0b6040518163ffffffff1660e01b815260040160206040518083038186803b1580156118c057600080fd5b505afa1580156118d4573d6000803e3d6000fd5b505050506040513d601f19601f820116820180604052508101906118f89190612355565b837f00000000000000000000000000000000000000000000000000000000000000006001600160a01b0316633b19e84a6040518163ffffffff1660e01b815260040160206040518083038186803b15801561195257600080fd5b505afa158015611966573d6000803e3d6000fd5b505050506040513d601f19601f8201168201806040525081019061198a9190612355565b604051631da3ddcd60e31b81526001600160a01b037f0000000000000000000000000000000000000000000000000000000000000000169063ed1eee68906119d6908a90600401612848565b60206040518083038186803b1580156119ee57600080fd5b505afa158015611a02573d6000803e3d6000fd5b505050506040513d601f19601f82011682018060405250810190611a26919061262c565b611fd4565b60405163038815f360e41b81526001600160a01b037f000000000000000000000000000000000000000000000000000000000000000016906338815f3090611a7d90869030908690889060040161285b565b600060405180830381600087803b158015611a9757600080fd5b505af1158015611aab573d6000803e3d6000fd5b505050505b600b546000904390611ac257600b8190555b600b548111611ad2575050611dd1565b7f00000000000000000000000000000000000000000000000000000000000000006001600160a01b0316632c32c36030600b546001611b119190612b7a565b846040518463ffffffff1660e01b8152600401611b3093929190612745565b60206040518083038186803b158015611b4857600080fd5b505afa158015611b5c573d6000803e3d6000fd5b505050506040513d601f19601f82011682018060405250810190611b80919061262c565b91508115611c4157600054600160a01b900461ffff1615611c415760008054611bbd9061271090610a95908690600160a01b900461ffff16611f0a565b600254909150611bcd9082611f35565b600255600054611bfc9061271090610a9590611bf5908390600160a01b900461ffff16611f29565b8690611f0a565b9250846001600160a01b03167f2f4ae87a584f00dc35b043dd1c5ac839c1f41cd3a66e834d4e13faa6251634e682604051611c379190612aff565b60405180910390a2505b60005b60095461ffff82161015611dcb57600060098261ffff1681548110611c7957634e487b7160e01b600052603260045260246000fd5b60009182526020808320909101546040805163038adb6f60e41b815290516001600160a01b03909216945084926338adb6f092600480840193829003018186803b158015611cc657600080fd5b505afa158015611cda573d6000803e3d6000fd5b505050506040513d601f19601f82011682018060405250810190611cfe919061262c565b9050801580611d2757506001600160a01b03821660009081526008602052604090205461ffff16155b15611d33575050611db9565b6001600160a01b038216600090815260086020526040812054611d6b9061271090610a959061ffff1661143f8a64e8d4a51000611f0a565b9050611d99611d7a8284611f1d565b6001600160a01b03851660009081526004602052604090205490611f35565b6001600160a01b0390931660009081526004602052604090209290925550505b80611dc381612c37565b915050611c44565b50600b55505b505050565b60005b60095461ffff82161015611e8757818161ffff1681518110611e0b57634e487b7160e01b600052603260045260246000fd5b60200260200101516008600060098461ffff1681548110611e3c57634e487b7160e01b600052603260045260246000fd5b6000918252602080832091909101546001600160a01b031683528201929092526040019020805461ffff191661ffff9290921691909117905580611e7f81612c37565b915050611dd9565b507f5b904beeb70c84b12d4105e0582a752c5a2705717790e1a648a27ba8622b97866009826040516111e99291906127b7565b600080546001600160a01b038381166001600160a01b0319831681178455604051919092169283917f8be0079c531659141344cd1fd0a4f28419497f9722a3daafe3b4186f6b6457e09190a35050565b6000611f168284612bb2565b9392505050565b6000611f168284612b92565b6000611f168284612bf4565b6000611f168284612b7a565b7f000000000000000000000000000000000000000000000000000000000000000015611f9757611f927f00000000000000000000000000000000000000000000000000000000000000008383611fe8565b6110e0565b6110e07f000000000000000000000000000000000000000000000000000000000000000083835b82611fca818484612050565b50505050565b3390565b83611fe1818585856120a6565b5050505050565b6040516340c10f1960e01b815283906001600160a01b038216906340c10f1990612018908690869060040161272c565b600060405180830381600087803b15801561203257600080fd5b505af1158015612046573d6000803e3d6000fd5b5050505050505050565b611dd18363a9059cbb60e01b848460405160240161206f92919061272c565b60408051601f198184030181529190526020810180516001600160e01b03166001600160e01b0319909316929092179091526120c7565b611fca846323b872dd60e01b85858560405160240161206f939291906126b1565b600080836001600160a01b0316836040516120e29190612681565b6000604051808303816000865af19150503d806000811461211f576040519150601f19603f3d011682016040523d82523d6000602084013e612124565b606091505b5091509150816121465760405162461bcd60e51b81526004016103459061296b565b805115611fca578080602001905181019061216191906124b2565b611fca5760405162461bcd60e51b815260040161034590612897565b8280548282559060005260206000209081019282156121d2579160200282015b828111156121d257825182546001600160a01b0319166001600160a01b0390911617825560209092019160019091019061219d565b506121de9291506121e2565b5090565b5b808211156121de57600081556001016121e3565b600082601f830112612207578081fd5b8135602061221c61221783612b31565b612b08565b8281528181019085830183850287018401881015612238578586fd5b855b8581101561225f57813561224d81612cc0565b8452928401929084019060010161223a565b5090979650505050505050565b600082601f83011261227c578081fd5b8135602061228c61221783612b31565b82815281810190858301838502870184018810156122a8578586fd5b855b8581101561225f5781356122bd81612cd5565b845292840192908401906001016122aa565b600082601f8301126122df578081fd5b81356001600160401b038111156122f8576122f8612caa565b61230b601f8201601f1916602001612b08565b81815284602083860101111561231f578283fd5b816020850160208301379081016020019190915292915050565b60006020828403121561234a578081fd5b8135611f1681612cc0565b600060208284031215612366578081fd5b8151611f1681612cc0565b60008060408385031215612383578081fd5b823561238e81612cc0565b9150602083013561239e81612cc0565b809150509250929050565b6000806000606084860312156123bd578081fd5b83356123c881612cc0565b925060208401356001600160401b03808211156123e3578283fd5b6123ef878388016121f7565b93506040860135915080821115612404578283fd5b506124118682870161226c565b9150509250925092565b6000806040838503121561242d578182fd5b823561243881612cc0565b946020939093013593505050565b600060208284031215612457578081fd5b81356001600160401b0381111561246c578182fd5b612478848285016121f7565b949350505050565b600060208284031215612491578081fd5b81356001600160401b038111156124a6578182fd5b6124788482850161226c565b6000602082840312156124c3578081fd5b81518015158114611f16578182fd5b600080604083850312156124e4578182fd5b82356001600160401b038111156124f9578283fd5b612505858286016122cf565b925050602083013561239e81612cc0565b60008060008060006080868803121561252d578081fd5b85356001600160401b0380821115612543578283fd5b61254f89838a016122cf565b96506020880135915080821115612564578283fd5b61257089838a0161226c565b95506040880135915061258282612cc0565b90935060608701359080821115612597578283fd5b818801915088601f8301126125aa578283fd5b8135818111156125b8578384fd5b8960208285010111156125c9578384fd5b9699959850939650602001949392505050565b6000602082840312156125ed578081fd5b8135611f1681612cd5565b600060208284031215612609578081fd5b8151611f1681612cd5565b600060208284031215612625578081fd5b5035919050565b60006020828403121561263d578081fd5b5051919050565b6001600160a01b0316815260200190565b6000815180845261266d816020860160208601612c0b565b601f01601f19169290920160200192915050565b60008251612693818460208701612c0b565b9190910192915050565b6001600160a01b0391909116815260200190565b6001600160a01b039384168152919092166020820152604081019190915260600190565b6001600160a01b03851681526060602082018190526000906126f990830186612655565b82810360408401528381528385602083013781602085830101526020601f19601f86011682010191505095945050505050565b6001600160a01b03929092168252602082015260400190565b6001600160a01b039390931683526020830191909152604082015260600190565b604080825283519082018190526000906020906060840190828701845b828110156127a85781516001600160a01b031684529284019290840190600101612783565b50505092019290925292915050565b6000604082016040835280855480835260608501915086845260209250828420845b828110156128055781546127f79085906001600160a01b0316612644565b9350600191820191016127d9565b50505083810382850152845180825285830191830190845b8181101561225f57835161ffff168352928401929184019160010161281d565b901515815260200190565b600060208252611f166020830184612655565b60006080825261286e6080830187612655565b6001600160a01b0395861660208401529385166040830152509216606090920191909152919050565b6020808252818101527f45524332303a206f7065726174696f6e20646964206e6f742073756363656564604082015260600190565b6020808252600390820152624c444d60e81b604082015260600190565b60208082526026908201527f4f776e61626c653a206e6577206f776e657220697320746865207a65726f206160408201526564647265737360d01b606082015260800190565b60208082526004908201526315d0541360e21b604082015260600190565b6020808252600490820152634d484f3160e01b604082015260600190565b602080825260129082015271115490cc8c0e8818d85b1b0819985a5b195960721b604082015260600190565b6020808252600390820152622aa82360e91b604082015260600190565b6020808252600690820152655253213d317760d01b604082015260600190565b60208082526002908201526115d360f21b604082015260600190565b60208082526003908201526257504360e81b604082015260600190565b602080825260049082015263504e495760e01b604082015260600190565b602080825260029082015261494160f01b604082015260600190565b6020808252818101527f4f776e61626c653a2063616c6c6572206973206e6f7420746865206f776e6572604082015260600190565b60208082526005908201526450523e317760d81b604082015260600190565b602080825260029082015261057560f41b604082015260600190565b602080825260029082015261049560f41b604082015260600190565b60208082526003908201526250494160e81b604082015260600190565b61ffff91909116815260200190565b90815260200190565b6040518181016001600160401b0381118282101715612b2957612b29612caa565b604052919050565b60006001600160401b03821115612b4a57612b4a612caa565b5060209081020190565b600061ffff808316818516808303821115612b7157612b71612c94565b01949350505050565b60008219821115612b8d57612b8d612c94565b500190565b600082612bad57634e487b7160e01b81526012600452602481fd5b500490565b6000816000190483118215151615612bcc57612bcc612c94565b500290565b600061ffff83811690831681811015612bec57612bec612c94565b039392505050565b600082821015612c0657612c06612c94565b500390565b60005b83811015612c26578181015183820152602001612c0e565b83811115611fca5750506000910152565b600061ffff80831681811415612c4f57612c4f612c94565b6001019392505050565b6000600019821415612c6d57612c6d612c94565b5060010190565b600060ff821660ff811415612c8b57612c8b612c94565b60010192915050565b634e487b7160e01b600052601160045260246000fd5b634e487b7160e01b600052604160045260246000fd5b6001600160a01b0381168114610dd157600080fd5b61ffff81168114610dd157600080fdfea26469706673582212209ae94cb8dc0c906d6c4c72295ae86db1b10f5603acb9da12669f74ea35432a8064736f6c63430008000033",
  "linkReferences": {},
  "deployedLinkReferences": {}
}