{
  "contractName": "AstarDappStakingFactory",
  "abi": [
    {
      "inputs": [
        {
          "internalType": "address",
          "name": "_communityFactory",
          "type": "address"
        },
        {
          "internalType": "address",
          "name": "_delegateDappsStakingContract",
          "type": "address"
        }
      ],
      "stateMutability": "nonpayable",
      "type": "constructor"
    },
    {
      "anonymous": false,
      "inputs": [
        {
          "indexed": true,
          "internalType": "address",
          "name": "pool",
          "type": "address"
        },
        {
          "indexed": true,
          "internalType": "address",
          "name": "community",
          "type": "address"
        },
        {
          "indexed": false,
          "internalType": "string",
          "name": "name",
          "type": "string"
        },
        {
          "indexed": false,
          "internalType": "address",
          "name": "dapp",
          "type": "address"
        }
      ],
      "name": "AStarDappStakingCreated",
      "type": "event"
    },
    {
      "anonymous": false,
      "inputs": [
        {
          "indexed": true,
          "internalType": "address",
          "name": "oldContract",
          "type": "address"
        },
        {
          "indexed": true,
          "internalType": "address",
          "name": "newContract",
          "type": "address"
        }
      ],
      "name": "DelegateContractChange",
      "type": "event"
    },
    {
      "anonymous": false,
      "inputs": [
        {
          "indexed": true,
          "internalType": "address",
          "name": "previousOwner",
          "type": "address"
        },
        {
          "indexed": true,
          "internalType": "address",
          "name": "newOwner",
          "type": "address"
        }
      ],
      "name": "OwnershipTransferred",
      "type": "event"
    },
    {
      "inputs": [],
      "name": "communityFactory",
      "outputs": [
        {
          "internalType": "address",
          "name": "",
          "type": "address"
        }
      ],
      "stateMutability": "view",
      "type": "function"
    },
    {
      "inputs": [],
      "name": "delegateDappsStakingContract",
      "outputs": [
        {
          "internalType": "address",
          "name": "",
          "type": "address"
        }
      ],
      "stateMutability": "view",
      "type": "function"
    },
    {
      "inputs": [],
      "name": "owner",
      "outputs": [
        {
          "internalType": "address",
          "name": "",
          "type": "address"
        }
      ],
      "stateMutability": "view",
      "type": "function"
    },
    {
      "inputs": [],
      "name": "renounceOwnership",
      "outputs": [],
      "stateMutability": "nonpayable",
      "type": "function"
    },
    {
      "inputs": [
        {
          "internalType": "address",
          "name": "newOwner",
          "type": "address"
        }
      ],
      "name": "transferOwnership",
      "outputs": [],
      "stateMutability": "nonpayable",
      "type": "function"
    },
    {
      "inputs": [
        {
          "internalType": "address",
          "name": "_delegateDappsStakingContract",
          "type": "address"
        }
      ],
      "name": "adminSetDelegateContract",
      "outputs": [],
      "stateMutability": "nonpayable",
      "type": "function"
    },
    {
      "inputs": [
        {
          "internalType": "address",
          "name": "community",
          "type": "address"
        },
        {
          "internalType": "string",
          "name": "name",
          "type": "string"
        },
        {
          "internalType": "bytes",
          "name": "meta",
          "type": "bytes"
        }
      ],
      "name": "createPool",
      "outputs": [
        {
          "internalType": "address",
          "name": "",
          "type": "address"
        }
      ],
      "stateMutability": "nonpayable",
      "type": "function"
    }
  ],
  "bytecode": "0x60a060405234801561001057600080fd5b5060405161357138038061357183398101604081905261002f9161016f565b61003f61003a6100ff565b610103565b6001600160a01b038216610088576040517f08c379a000000000000000000000000000000000000000000000000000000000815260040161007f906101a1565b60405180910390fd5b6001600160a01b0381166100c8576040517f08c379a000000000000000000000000000000000000000000000000000000000815260040161007f906101a1565b60609190911b6001600160601b031916608052600180546001600160a01b0319166001600160a01b039092169190911790556101d8565b3390565b600080546001600160a01b038381166001600160a01b0319831681178455604051919092169283917f8be0079c531659141344cd1fd0a4f28419497f9722a3daafe3b4186f6b6457e09190a35050565b80516001600160a01b038116811461016a57600080fd5b919050565b60008060408385031215610181578182fd5b61018a83610153565b915061019860208401610153565b90509250929050565b60208082526010908201527f496e76616c696420617267756d656e7400000000000000000000000000000000604082015260600190565b60805160601c6133746101fd6000396000818161028501526104a101526133746000f3fe60806040523480156200001157600080fd5b5060043610620000885760003560e01c8063b883cc2a1162000063578063b883cc2a14620000d2578063d4d82be714620000e9578063f2fde38b14620000f3578063fac8a610146200010a5762000088565b8063715018a6146200008d57806377e53b9114620000995780638da5cb5b14620000b0575b600080fd5b6200009762000114565b005b62000097620000aa366004620005ce565b62000171565b620000ba62000232565b604051620000c991906200074b565b60405180910390f35b620000ba620000e3366004620005f2565b62000241565b620000ba62000413565b6200009762000104366004620005ce565b62000422565b620000ba6200049f565b6200011e620004c3565b6001600160a01b03166200013162000232565b6001600160a01b031614620001635760405162461bcd60e51b81526004016200015a9062000852565b60405180910390fd5b6200016f6000620004c7565b565b6200017b620004c3565b6001600160a01b03166200018e62000232565b6001600160a01b031614620001b75760405162461bcd60e51b81526004016200015a9062000852565b6001600160a01b038116620001e05760405162461bcd60e51b81526004016200015a90620008b6565b600180546001600160a01b038381166001600160a01b0319831681179093556040519116919082907faac946461d96c1b5a48c87a09972e44f725510ddc0e5d758613154f090e9790190600090a35050565b6000546001600160a01b031690565b60006001600160a01b03851633146200026e5760405162461bcd60e51b81526004016200015a9062000808565b604051633454a5b760e11b81526001600160a01b037f000000000000000000000000000000000000000000000000000000000000000016906368a94b6e90620002bc9088906004016200074b565b60206040518083038186803b158015620002d557600080fd5b505afa158015620002ea573d6000803e3d6000fd5b505050506040513d601f19601f82011682018060405250810190620003109190620006db565b6200032f5760405162461bcd60e51b81526004016200015a90620008e0565b600062000377600085858080601f0160208091040260200160405190810160405280939291908181526020018383808284376000920191909152509293925050620005179050565b905060008686836040516200038c9062000559565b6200039a939291906200075f565b604051809103906000f080158015620003b7573d6000803e3d6000fd5b509050866001600160a01b0316816001600160a01b03167f4e301f97b282c5b5091cb1a42e84e210fdab0186bd4e22c44c5cb99729d7a58788856040516200040192919062000796565b60405180910390a39695505050505050565b6001546001600160a01b031681565b6200042c620004c3565b6001600160a01b03166200043f62000232565b6001600160a01b031614620004685760405162461bcd60e51b81526004016200015a9062000852565b6001600160a01b038116620004915760405162461bcd60e51b81526004016200015a90620007c2565b6200049c81620004c7565b50565b7f000000000000000000000000000000000000000000000000000000000000000081565b3390565b600080546001600160a01b038381166001600160a01b0319831681178455604051919092169283917f8be0079c531659141344cd1fd0a4f28419497f9722a3daafe3b4186f6b6457e09190a35050565b6000620005268260146200090b565b83511015620005495760405162461bcd60e51b81526004016200015a9062000887565b500160200151600160601b900490565b6129f8806200094783390190565b80356001600160a01b03811681146200057f57600080fd5b919050565b60008083601f84011262000596578081fd5b50813567ffffffffffffffff811115620005ae578182fd5b602083019150836020828501011115620005c757600080fd5b9250929050565b600060208284031215620005e0578081fd5b620005eb8262000567565b9392505050565b6000806000806060858703121562000608578283fd5b620006138562000567565b935060208086013567ffffffffffffffff8082111562000631578586fd5b818801915088601f83011262000645578586fd5b8135818111156200065a576200065a62000930565b604051601f8201601f191681018501838111828210171562000680576200068062000930565b60405281815283820185018b101562000697578788fd5b81858501868301378785838301015280975050506040880135925080831115620006bf578485fd5b5050620006cf8782880162000584565b95989497509550505050565b600060208284031215620006ed578081fd5b81518015158114620005eb578182fd5b60008151808452815b81811015620007245760208185018101518683018201520162000706565b81811115620007365782602083870101525b50601f01601f19169290920160200192915050565b6001600160a01b0391909116815260200190565b600060018060a01b03808616835260606020840152620007836060840186620006fd565b9150808416604084015250949350505050565b600060408252620007ab6040830185620006fd565b905060018060a01b03831660208301529392505050565b60208082526026908201527f4f776e61626c653a206e6577206f776e657220697320746865207a65726f206160408201526564647265737360d01b606082015260800190565b6020808252602a908201527f5065726d697373696f6e2064656e6965643a2063616c6c6572206973206e6f7460408201526920636f6d6d756e69747960b01b606082015260800190565b6020808252818101527f4f776e61626c653a2063616c6c6572206973206e6f7420746865206f776e6572604082015260600190565b602080825260159082015274746f416464726573735f6f75744f66426f756e647360581b604082015260600190565b60208082526010908201526f125b9d985b1a5908185c99dd5b595b9d60821b604082015260600190565b602080825260119082015270496e76616c696420636f6d6d756e69747960781b604082015260600190565b600082198211156200092b57634e487b7160e01b81526011600452602481fd5b500190565b634e487b7160e01b600052604160045260246000fdfe6080604052600c805460ff191690553480156200001b57600080fd5b50604051620029f8380380620029f88339810160408190526200003e91620002cd565b600160005560078054336001600160a01b0319918216179091556008805482166001600160a01b03868116919091179091556009805490921690831617905581516200009290600a906020850190620001e6565b5060016200009f62000147565b6001600160a01b031663e608d80b6040518163ffffffff1660e01b815260040160206040518083038186803b158015620000d857600080fd5b505afa158015620000ed573d6000803e3d6000fd5b505050506040513d601f19601f82011682018060405250810190620001139190620003c5565b6200011f9190620003de565b600b8190556000908152600260205260409020805460ff1916600117905550620004a0915050565b600754604080517fd4d82be700000000000000000000000000000000000000000000000000000000815290516000926001600160a01b03169163d4d82be7916004808301926020929190829003018186803b158015620001a657600080fd5b505afa158015620001bb573d6000803e3d6000fd5b505050506040513d601f19601f82011682018060405250810190620001e19190620002a9565b905090565b828054620001f4906200041b565b90600052602060002090601f01602090048101928262000218576000855562000263565b82601f106200023357805160ff191683800117855562000263565b8280016001018555821562000263579182015b828111156200026357825182559160200191906001019062000246565b506200027192915062000275565b5090565b5b8082111562000271576000815560010162000276565b80516001600160a01b0381168114620002a457600080fd5b919050565b600060208284031215620002bb578081fd5b620002c6826200028c565b9392505050565b600080600060608486031215620002e2578182fd5b620002ed846200028c565b602085810151919450906001600160401b03808211156200030c578485fd5b818701915087601f83011262000320578485fd5b81518181111562000335576200033562000471565b604051601f8201601f19168101850183811182821017156200035b576200035b62000471565b60405281815283820185018a101562000372578687fd5b8692505b8183101562000395578383018501518184018601529184019162000376565b81831115620003a657868583830101525b8096505050505050620003bc604085016200028c565b90509250925092565b600060208284031215620003d7578081fd5b5051919050565b60008282101562000416577f4e487b710000000000000000000000000000000000000000000000000000000081526011600452602481fd5b500390565b6002810460018216806200043057607f821691505b602082108114156200046b577f4e487b7100000000000000000000000000000000000000000000000000000000600052602260045260246000fd5b50919050565b7f4e487b7100000000000000000000000000000000000000000000000000000000600052604160045260246000fd5b61254880620004b06000396000f3fe6080604052600436106100e85760003560e01c806377c965741161008a578063aaf40e5e11610059578063aaf40e5e1461021b578063b3a7834d1461023b578063b6de460a14610268578063c51db6b21461027d576100e8565b806377c965741461019657806386989038146101c457806388cc58e4146101d957806394465b21146101fb576100e8565b80633a4b66f1116100c65780633a4b66f114610151578063458a1d6e14610159578063567e98f91461016c57806377a0fe0214610181576100e8565b806303c5bf4a146100ed57806306fdde031461010457806338adb6f01461012f575b600080fd5b3480156100f957600080fd5b50610102610292565b005b34801561011057600080fd5b506101196104d3565b6040516101269190612292565b60405180910390f35b34801561013b57600080fd5b50610144610561565b6040516101269190612289565b610102610567565b6101026101673660046120de565b610d2c565b34801561017857600080fd5b50610144611251565b34801561018d57600080fd5b50610102611257565b3480156101a257600080fd5b506101b66101b1366004612086565b611525565b60405161012692919061225b565b3480156101d057600080fd5b50610144611890565b3480156101e557600080fd5b506101ee611896565b60405161012691906121e8565b34801561020757600080fd5b50610144610216366004612086565b6118a5565b34801561022757600080fd5b50610102610236366004612116565b6118c4565b34801561024757600080fd5b5061025b610256366004612086565b611ae7565b60405161012691906123cf565b34801561027457600080fd5b506101ee611b4b565b34801561028957600080fd5b506101ee611b5a565b600061029c611b69565b6001600160a01b031663e608d80b6040518163ffffffff1660e01b815260040160206040518083038186803b1580156102d457600080fd5b505afa1580156102e8573d6000803e3d6000fd5b505050506040513d601f19601f8201168201806040525081019061030c919061212e565b9050610316611b69565b6001600160a01b031663ec5ffac26040518163ffffffff1660e01b815260040160206040518083038186803b15801561034e57600080fd5b505afa158015610362573d6000803e3d6000fd5b505050506040513d601f19601f82011682018060405250810190610386919061212e565b60055410156103be5761039a600182612462565b600b8190556000908152600260205260409020805460ff19166001179055506104d1565b60006001600b54836103d09190612462565b6103da9190612462565b905060008080805b848110156104ca57303193506103f6611b69565b60095460405163505cec5f60e11b81526001600160a01b039283169263a0b9d8be92610427929116906004016121e8565b600060405180830381600087803b15801561044157600080fd5b505af1158015610455573d6000803e3d6000fd5b505030319450610469915085905084612462565b91506001600b600082825461047e919061240b565b9091555050600b80546000908152600260208190526040808320805460ff191660011790558354835290912001839055546104b890611beb565b806104c2816124b4565b9150506103e2565b5050505050505b565b600a80546104e090612479565b80601f016020809104026020016040519081016040528092919081815260200182805461050c90612479565b80156105595780601f1061052e57610100808354040283529160200191610559565b820191906000526020600020905b81548152906001019060200180831161053c57829003601f168201915b505050505081565b60055490565b600260005414156105935760405162461bcd60e51b815260040161058a90612398565b60405180910390fd5b6002600055600854604051634c7b4f4d60e11b81526001600160a01b03909116906398f69e9a906105c89030906004016121e8565b60206040518083038186803b1580156105e057600080fd5b505afa1580156105f4573d6000803e3d6000fd5b505050506040513d601f19601f8201168201806040525081019061061891906120be565b6106345760405162461bcd60e51b815260040161058a9061230b565b34806106525760405162461bcd60e51b815260040161058a90612369565b61065a610292565b6000610664611b69565b6001600160a01b031663e608d80b6040518163ffffffff1660e01b815260040160206040518083038186803b15801561069c57600080fd5b505afa1580156106b0573d6000803e3d6000fd5b505050506040513d601f19601f820116820180604052508101906106d4919061212e565b90506106df81611caf565b6106e7611b69565b6001600160a01b031663ec5ffac26040518163ffffffff1660e01b815260040160206040518083038186803b15801561071f57600080fd5b505afa158015610733573d6000803e3d6000fd5b505050506040513d601f19601f82011682018060405250810190610757919061212e565b600554106107d157610767611b69565b60095460405163667e56b360e01b81526001600160a01b039283169263667e56b39261079a929116908690600401612242565b600060405180830381600087803b1580156107b457600080fd5b505af11580156107c8573d6000803e3d6000fd5b505050506108e0565b6107d9611b69565b6001600160a01b031663ec5ffac26040518163ffffffff1660e01b815260040160206040518083038186803b15801561081157600080fd5b505afa158015610825573d6000803e3d6000fd5b505050506040513d601f19601f82011682018060405250810190610849919061212e565b82600554610857919061240b565b106108e057610864611b69565b6009546005546001600160a01b039283169263667e56b392169061088990869061240b565b6040518363ffffffff1660e01b81526004016108a6929190612242565b600060405180830381600087803b1580156108c057600080fd5b505af11580156108d4573d6000803e3d6000fd5b505050506108e0611dd1565b60085460405163579dea7960e11b81526001600160a01b039091169063af3bd4f2906109109033906004016122a5565b600060405180830381600087803b15801561092a57600080fd5b505af115801561093e573d6000803e3d6000fd5b50503360009081526001602052604090205460ff1615159150610a4f905057336000908152600160208190526040909120805460ff19169091179055610982611b69565b6001600160a01b031663db62b2016040518163ffffffff1660e01b815260040160206040518083038186803b1580156109ba57600080fd5b505afa1580156109ce573d6000803e3d6000fd5b505050506040513d601f19601f820116820180604052508101906109f2919061212e565b6109fc9082612462565b33600090815260016020819052604090912060040191909155610a1f9082612462565b33600090815260016020819052604082206002019290925560068054909190610a4990849061240b565b90915550505b600854604051635150076b60e11b8152600091610b8b916001600160a01b039091169063a2a00ed690610a8890309033906004016121fc565b60206040518083038186803b158015610aa057600080fd5b505afa158015610ab4573d6000803e3d6000fd5b505050506040513d601f19601f82011682018060405250810190610ad8919061212e565b60085460405163286a276f60e21b8152610b859164e8d4a5100091610b7f916001600160a01b03169063a1a89dbc90610b159030906004016121e8565b60206040518083038186803b158015610b2d57600080fd5b505afa158015610b41573d6000803e3d6000fd5b505050506040513d601f19601f82011682018060405250810190610b65919061212e565b336000908152600160208190526040909120015490611e50565b90611e63565b90611e6f565b90508015610bf857600854604051631df36e4160e31b81526001600160a01b039091169063ef9b720890610bc59033908590600401612242565b600060405180830381600087803b158015610bdf57600080fd5b505af1158015610bf3573d6000803e3d6000fd5b505050505b3360009081526001602081905260408220018054859290610c1a90849061240b565b925050819055508260056000828254610c33919061240b565b90915550610c419050611e7b565b60085460405163286a276f60e21b81526001600160a01b039091169063bf16c3c2903390610c8a9064e8d4a5100090610b7f90869063a1a89dbc90610b159030906004016121e8565b6040518363ffffffff1660e01b8152600401610ca7929190612242565b600060405180830381600087803b158015610cc157600080fd5b505af1158015610cd5573d6000803e3d6000fd5b50506008546040513393506001600160a01b0390911691507f5dac0c1b1112564a045ba943c9d50270893e8e826c49be8e7073adc713ab7bd790610d1a908790612289565b60405180910390a35050600160005550565b60026000541415610d4f5760405162461bcd60e51b815260040161058a90612398565b6002600055610d5c610292565b6000816001600160801b031611610d7257611249565b3360009081526001602081905260409091200154610d8f57611249565b6000610d99611b69565b6001600160a01b031663e608d80b6040518163ffffffff1660e01b815260040160206040518083038186803b158015610dd157600080fd5b505afa158015610de5573d6000803e3d6000fd5b505050506040513d601f19601f82011682018060405250810190610e09919061212e565b9050610e1481611caf565b60085460405163579dea7960e11b81526001600160a01b039091169063af3bd4f290610e449033906004016122a5565b600060405180830381600087803b158015610e5e57600080fd5b505af1158015610e72573d6000803e3d6000fd5b5050600854604051635150076b60e11b815260009350610eaf92506001600160a01b039091169063a2a00ed690610a8890309033906004016121fc565b90508015610f1c57600854604051631df36e4160e31b81526001600160a01b039091169063ef9b720890610ee99033908590600401612242565b600060405180830381600087803b158015610f0357600080fd5b505af1158015610f17573d6000803e3d6000fd5b505050505b336000908152600160208190526040822001546001600160801b03851610610f5857503360009081526001602081905260409091200154610f64565b506001600160801b0383165b610f6c611b69565b6001600160a01b031663ec5ffac26040518163ffffffff1660e01b815260040160206040518083038186803b158015610fa457600080fd5b505afa158015610fb8573d6000803e3d6000fd5b505050506040513d601f19601f82011682018060405250810190610fdc919061212e565b6005541061105257610fec611b69565b60095460405163d140ffed60e01b81526001600160a01b039283169263d140ffed9261101f929116908590600401612242565b600060405180830381600087803b15801561103957600080fd5b505af115801561104d573d6000803e3d6000fd5b505050505b3360009081526001602081905260408220018054839290611074908490612462565b9091555050336000908152600460209081526040808320868452909152812080548392906110a390849061240b565b9250508190555080600560008282546110bc9190612462565b909155506110ca9050611e7b565b6110d2611b69565b6001600160a01b031663ec5ffac26040518163ffffffff1660e01b815260040160206040518083038186803b15801561110a57600080fd5b505afa15801561111e573d6000803e3d6000fd5b505050506040513d601f19601f82011682018060405250810190611142919061212e565b6005541080156111545750600c5460ff165b1561116457600c805460ff191690555b60085460405163286a276f60e21b81526001600160a01b039091169063bf16c3c29033906111ad9064e8d4a5100090610b7f90869063a1a89dbc90610b159030906004016121e8565b6040518363ffffffff1660e01b81526004016111ca929190612242565b600060405180830381600087803b1580156111e457600080fd5b505af11580156111f8573d6000803e3d6000fd5b50506008546040513393506001600160a01b0390911691507f8a3c16627a0e7a870a5d5cd0121ca5d80e2efd0ec7198a11644f1a516ac370939061123d908590612289565b60405180910390a35050505b506001600055565b60055481565b6002600054141561127a5760405162461bcd60e51b815260040161058a90612398565b6002600055611287610292565b6000611291611b69565b6001600160a01b031663db62b2016040518163ffffffff1660e01b815260040160206040518083038186803b1580156112c957600080fd5b505afa1580156112dd573d6000803e3d6000fd5b505050506040513d601f19601f82011682018060405250810190611301919061212e565b9050600061130d611b69565b6001600160a01b031663e608d80b6040518163ffffffff1660e01b815260040160206040518083038186803b15801561134557600080fd5b505afa158015611359573d6000803e3d6000fd5b505050506040513d601f19601f8201168201806040525081019061137d919061212e565b905061138881611caf565b33600090815260016020819052604082206004015482916113a9919061240b565b90505b6113b68484612462565b81116113f5573360009081526004602090815260408083208484529091529020546113e1908361240b565b9150806113ed816124b4565b9150506113ac565b50600081116114165760405162461bcd60e51b815260040161058a90612339565b6114208383612462565b3360009081526001602052604090206004015561143b611b69565b6001600160a01b03166377a0fe026040518163ffffffff1660e01b8152600401600060405180830381600087803b15801561147557600080fd5b505af1158015611489573d6000803e3d6000fd5b505050503031811161151b57604051600090339083156108fc0290849084818181858888f193505050509050806114d25760405162461bcd60e51b815260040161058a906122d4565b60085460405133916001600160a01b0316907f9b1bfa7fa9ee420a16e124f794c35ac9f90472acc99140eb2f6447c714cad8eb90611511908690612289565b60405180910390a3505b5050600160005550565b6060806000611532611b69565b6001600160a01b031663e608d80b6040518163ffffffff1660e01b815260040160206040518083038186803b15801561156a57600080fd5b505afa15801561157e573d6000803e3d6000fd5b505050506040513d601f19601f820116820180604052508101906115a2919061212e565b905060006115ae611b69565b6001600160a01b031663db62b2016040518163ffffffff1660e01b815260040160206040518083038186803b1580156115e657600080fd5b505afa1580156115fa573d6000803e3d6000fd5b505050506040513d601f19601f8201168201806040525081019061161e919061212e565b9050600061162a611b69565b6001600160a01b0316636cbcfa496040518163ffffffff1660e01b815260040160206040518083038186803b15801561166257600080fd5b505afa158015611676573d6000803e3d6000fd5b505050506040513d601f19601f8201168201806040525081019061169a919061212e565b6001600160a01b038716600090815260016020526040812060040154919250906116c48486612462565b6116ce9190612462565b9050818111156116db5750805b60008167ffffffffffffffff81111561170457634e487b7160e01b600052604160045260246000fd5b60405190808252806020026020018201604052801561172d578160200160208202803683370190505b50905060008267ffffffffffffffff81111561175957634e487b7160e01b600052604160045260246000fd5b604051908082528060200260200182016040528015611782578160200160208202803683370190505b50905060005b8381101561188257838661179c838a61240b565b6117a790600161240b565b6117b19190612462565b6117bb9190612462565b8282815181106117db57634e487b7160e01b600052603260045260246000fd5b602002602001018181525050600460008b6001600160a01b03166001600160a01b03168152602001908152602001600020600083838151811061182e57634e487b7160e01b600052603260045260246000fd5b602002602001015181526020019081526020016000205483828151811061186557634e487b7160e01b600052603260045260246000fd5b60209081029190910101528061187a816124b4565b915050611788565b509650945050505050915091565b60065481565b6007546001600160a01b031690565b6001600160a01b03166000908152600160208190526040909120015490565b600260005414156118e75760405162461bcd60e51b815260040161058a90612398565b60026000556118f4610292565b8060006118ff611b69565b6001600160a01b031663e608d80b6040518163ffffffff1660e01b815260040160206040518083038186803b15801561193757600080fd5b505afa15801561194b573d6000803e3d6000fd5b505050506040513d601f19601f8201168201806040525081019061196f919061212e565b336000908152600160205260409020600201549091508211158061199257508082115b1561199b578091505b6119a482611caf565b6000818314156119bc576119b9600184612462565b92505b3360009081526001602081905260408220600201546119da9161240b565b90505b838111611a315733600090815260036020818152604080842085855282528084205460029092529092200154611a139190612443565b611a1d908361240b565b915080611a29816124b4565b9150506119dd565b5033600090815260016020526040902060020183905530318111611adc57604051600090339083156108fc0290849084818181858888f19350505050905080611a8c5760405162461bcd60e51b815260040161058a906122d4565b6009546008546040516001600160a01b0392831692909116907f8766f9fdb3d7ff5c4fe7ccf145668fbc991a789c4d655f9535b0e08c4964a04d90611ad2908690612289565b60405180910390a3505b505060016000555050565b611aef612055565b506001600160a01b0316600090815260016020818152604092839020835160a081018552815460ff1615158152928101549183019190915260028101549282019290925260038201546060820152600490910154608082015290565b6009546001600160a01b031681565b6008546001600160a01b031690565b6007546040805163d4d82be760e01b815290516000926001600160a01b03169163d4d82be7916004808301926020929190829003018186803b158015611bae57600080fd5b505afa158015611bc2573d6000803e3d6000fd5b505050506040513d601f19601f82011682018060405250810190611be691906120a2565b905090565b6000611bf5611b69565b6001600160a01b031663d3b5dc3b6040518163ffffffff1660e01b815260040160206040518083038186803b158015611c2d57600080fd5b505afa158015611c41573d6000803e3d6000fd5b505050506040513d601f19601f82011682018060405250810190611c65919061212e565b6000838152600260208190526040822060018101549101549293509091611c95918491610b7f9190829084611e50565b600093845260026020526040909320600301929092555050565b3360009081526001602052604081206003015490611ccb611b69565b6001600160a01b031663e608d80b6040518163ffffffff1660e01b815260040160206040518083038186803b158015611d0357600080fd5b505afa158015611d17573d6000803e3d6000fd5b505050506040513d601f19601f82011682018060405250810190611d3b919061212e565b905081611d46578091505b8183118015611d555750808311155b15611d5d5750815b6000611d6a83600161240b565b90505b81811015611dad57336000908152600160208181526040808420909201546003825282842085855290915291205580611da5816124b4565b915050611d6d565b50611db9600182612462565b33600090815260016020526040902060030155505050565b600c5460ff166104d157600c805460ff19166001179055611df0611b69565b6001600160a01b031663305b134260006040518263ffffffff1660e01b8152600401611e1c9190612289565b600060405180830381600087803b158015611e3657600080fd5b505af1158015611e4a573d6000803e3d6000fd5b50505050565b6000611e5c8284612443565b9392505050565b6000611e5c8284612423565b6000611e5c8284612462565b6000611e85611b69565b6009546040516001600160a01b039283169263dd33172d921690611ead9030906020016121cb565b6040516020818303038152906040526040518363ffffffff1660e01b8152600401611ed9929190612216565b60206040518083038186803b158015611ef157600080fd5b505afa158015611f05573d6000803e3d6000fd5b505050506040513d601f19601f82011682018060405250810190611f2991906120fa565b6001600160801b031690506000611f3e611b69565b6001600160a01b031663e608d80b6040518163ffffffff1660e01b815260040160206040518083038186803b158015611f7657600080fd5b505afa158015611f8a573d6000803e3d6000fd5b505050506040513d601f19601f82011682018060405250810190611fae919061212e565b6000818152600260205260409020600101549091508214611fde5760008181526002602052604090206001018290555b600081815260026020526040902060010154612007576000818152600260205260408120600301555b336000818152600160208181526040808420808401546003808552838720898852855292862055949093525201548114612051573360009081526001602052604090206003018190555b5050565b6040518060a00160405280600015158152602001600081526020016000815260200160008152602001600081525090565b600060208284031215612097578081fd5b8135611e5c816124e5565b6000602082840312156120b3578081fd5b8151611e5c816124e5565b6000602082840312156120cf578081fd5b81518015158114611e5c578182fd5b6000602082840312156120ef578081fd5b8135611e5c816124fd565b60006020828403121561210b578081fd5b8151611e5c816124fd565b600060208284031215612127578081fd5b5035919050565b60006020828403121561213f578081fd5b5051919050565b6000815180845260208085019450808401835b8381101561217557815187529582019590820190600101612159565b509495945050505050565b60008151808452815b818110156121a557602081850181015186830182015201612189565b818111156121b65782602083870101525b50601f01601f19169290920160200192915050565b60609190911b6bffffffffffffffffffffffff1916815260140190565b6001600160a01b0391909116815260200190565b6001600160a01b0392831681529116602082015260400190565b6001600160a01b038316815260406020820181905260009061223a90830184612180565b949350505050565b6001600160a01b03929092168252602082015260400190565b60006040825261226e6040830185612146565b82810360208401526122808185612146565b95945050505050565b90815260200190565b600060208252611e5c6020830184612180565b6040808252600490820152632aa9a2a960e11b60608201526001600160a01b0391909116602082015260800190565b60208082526017908201527f4661696c656420746f207472616e736665722046756e64000000000000000000604082015260600190565b602080825260149082015273141bdbdb081a185cc81899595b8818db1bdcd95960621b604082015260600190565b6020808252601690820152754e6f2066756e6420746f20626520776974686472617760501b604082015260600190565b60208082526015908201527426bab9ba1039ba30b5b29039b7b6b2903a37b5b2b760591b604082015260600190565b6020808252601f908201527f5265656e7472616e637947756172643a207265656e7472616e742063616c6c00604082015260600190565b600060a0820190508251151582526020830151602083015260408301516040830152606083015160608301526080830151608083015292915050565b6000821982111561241e5761241e6124cf565b500190565b60008261243e57634e487b7160e01b81526012600452602481fd5b500490565b600081600019048311821515161561245d5761245d6124cf565b500290565b600082821015612474576124746124cf565b500390565b60028104600182168061248d57607f821691505b602082108114156124ae57634e487b7160e01b600052602260045260246000fd5b50919050565b60006000198214156124c8576124c86124cf565b5060010190565b634e487b7160e01b600052601160045260246000fd5b6001600160a01b03811681146124fa57600080fd5b50565b6001600160801b03811681146124fa57600080fdfea2646970667358221220544e78177e4071fd32d4d73a73b02db9ac825bc09a53fbe08c4e969a1728a39664736f6c63430008000033a26469706673582212202f06bcc8f124ae572bcfe255f334c7f696407256baf4354e8fa446d87506004f64736f6c63430008000033",
  "immutableReferences": {
    "6144": [
      {
        "length": 32,
        "start": 645
      },
      {
        "length": 32,
        "start": 1185
      }
    ]
  },
  "source": "// SPDX-License-Identifier: MIT\n\npragma solidity ^0.8.0;\npragma experimental ABIEncoderV2;\n\nimport \"solidity-bytes-utils/contracts/BytesLib.sol\";\nimport \"@openzeppelin/contracts/access/Ownable.sol\";\nimport \"../../interfaces/IPoolFactory.sol\";\nimport \"./AstarDappStaking.sol\";\nimport \"../../CommunityFactory.sol\";\nimport \"./IAstarFactory.sol\";\n\n/**\n * @dev Factory contract of Astar Dapp staking pool.\n *x\n */\ncontract AstarDappStakingFactory is IPoolFactory, Ownable, IAstarFactory {\n    using BytesLib for bytes;\n\n    address public immutable communityFactory;\n    address public override delegateDappsStakingContract;\n\n    event DelegateContractChange(address indexed oldContract, address indexed newContract);\n    event AStarDappStakingCreated(address indexed pool, address indexed community, string name, address dapp);\n\n    constructor(address _communityFactory, address _delegateDappsStakingContract) {\n        require(_communityFactory != address(0), \"Invalid argument\");\n        require(_delegateDappsStakingContract != address(0), \"Invalid argument\");\n\n        communityFactory = _communityFactory;\n        delegateDappsStakingContract = _delegateDappsStakingContract;\n    }\n\n    function adminSetDelegateContract(address _delegateDappsStakingContract) external onlyOwner {\n        require(_delegateDappsStakingContract != address(0), \"Invalid argument\");\n        address old = delegateDappsStakingContract;\n        delegateDappsStakingContract = _delegateDappsStakingContract;\n        emit DelegateContractChange(old, _delegateDappsStakingContract);\n    }\n\n    function createPool(\n        address community,\n        string memory name,\n        bytes calldata meta\n    ) external override returns (address) {\n        require(community == msg.sender, \"Permission denied: caller is not community\");\n        require(CommunityFactory(communityFactory).createdCommunity(community), \"Invalid community\");\n        address dapp = meta.toAddress(0);\n\n        AstarDappStaking pool = new AstarDappStaking(community, name, address(dapp));\n        emit AStarDappStakingCreated(address(pool), community, name, address(dapp));\n        return address(pool);\n    }\n}\n",
  "sourcePath": "/Users/necklace/work/nutbox/nutbox-contract/contracts/dapps/astar-dapp-staking/AstarDappStakingFactory.sol",
  "compiler": {
    "name": "solc",
    "version": "0.8.0+commit.c7dfd78e.Emscripten.clang"
  },
  "schemaVersion": "3.4.7",
  "updatedAt": "2022-05-26T06:57:12.272Z",
  "devdoc": {
    "details": "Factory contract of Astar Dapp staking pool. x",
    "kind": "dev",
    "methods": {
      "owner()": {
        "details": "Returns the address of the current owner."
      },
      "renounceOwnership()": {
        "details": "Leaves the contract without owner. It will not be possible to call `onlyOwner` functions anymore. Can only be called by the current owner. NOTE: Renouncing ownership will leave the contract without an owner, thereby removing any functionality that is only available to the owner."
      },
      "transferOwnership(address)": {
        "details": "Transfers ownership of the contract to a new account (`newOwner`). Can only be called by the current owner."
      }
    },
    "version": 1
  },
  "userdoc": {
    "kind": "user",
    "methods": {},
    "version": 1
  }
}