{
  "contractName": "AutoCuration",
  "abi": [
    {
      "inputs": [
        {
          "internalType": "uint256",
          "name": "_chainId",
          "type": "uint256"
        },
        {
          "internalType": "address",
          "name": "addr",
          "type": "address"
        },
        {
          "internalType": "address",
          "name": "_prizeToken",
          "type": "address"
        }
      ],
      "stateMutability": "nonpayable",
      "type": "constructor"
    },
    {
      "anonymous": false,
      "inputs": [
        {
          "indexed": true,
          "internalType": "address",
          "name": "previousOwner",
          "type": "address"
        },
        {
          "indexed": true,
          "internalType": "address",
          "name": "newOwner",
          "type": "address"
        }
      ],
      "name": "OwnershipTransferred",
      "type": "event"
    },
    {
      "anonymous": false,
      "inputs": [
        {
          "indexed": true,
          "internalType": "uint256",
          "name": "twitterId",
          "type": "uint256"
        },
        {
          "indexed": true,
          "internalType": "address",
          "name": "user",
          "type": "address"
        },
        {
          "indexed": false,
          "internalType": "uint256[]",
          "name": "taskIds",
          "type": "uint256[]"
        },
        {
          "indexed": false,
          "internalType": "uint256[]",
          "name": "amounts",
          "type": "uint256[]"
        }
      ],
      "name": "RewardInfo",
      "type": "event"
    },
    {
      "inputs": [
        {
          "internalType": "uint256",
          "name": "",
          "type": "uint256"
        },
        {
          "internalType": "uint256",
          "name": "",
          "type": "uint256"
        }
      ],
      "name": "alreadyClaimed",
      "outputs": [
        {
          "internalType": "bool",
          "name": "",
          "type": "bool"
        }
      ],
      "stateMutability": "view",
      "type": "function"
    },
    {
      "inputs": [],
      "name": "chainId",
      "outputs": [
        {
          "internalType": "uint256",
          "name": "",
          "type": "uint256"
        }
      ],
      "stateMutability": "view",
      "type": "function"
    },
    {
      "inputs": [],
      "name": "owner",
      "outputs": [
        {
          "internalType": "address",
          "name": "",
          "type": "address"
        }
      ],
      "stateMutability": "view",
      "type": "function"
    },
    {
      "inputs": [],
      "name": "prizeToken",
      "outputs": [
        {
          "internalType": "address",
          "name": "",
          "type": "address"
        }
      ],
      "stateMutability": "view",
      "type": "function"
    },
    {
      "inputs": [],
      "name": "renounceOwnership",
      "outputs": [],
      "stateMutability": "nonpayable",
      "type": "function"
    },
    {
      "inputs": [],
      "name": "signAddress",
      "outputs": [
        {
          "internalType": "address",
          "name": "",
          "type": "address"
        }
      ],
      "stateMutability": "view",
      "type": "function"
    },
    {
      "inputs": [
        {
          "internalType": "address",
          "name": "newOwner",
          "type": "address"
        }
      ],
      "name": "transferOwnership",
      "outputs": [],
      "stateMutability": "nonpayable",
      "type": "function"
    },
    {
      "inputs": [
        {
          "internalType": "address",
          "name": "addr",
          "type": "address"
        }
      ],
      "name": "setSignAddress",
      "outputs": [],
      "stateMutability": "nonpayable",
      "type": "function"
    },
    {
      "inputs": [
        {
          "internalType": "address",
          "name": "addr",
          "type": "address"
        }
      ],
      "name": "setPrizeToken",
      "outputs": [],
      "stateMutability": "nonpayable",
      "type": "function"
    },
    {
      "inputs": [],
      "name": "withdraw",
      "outputs": [],
      "stateMutability": "nonpayable",
      "type": "function"
    },
    {
      "inputs": [
        {
          "internalType": "uint256",
          "name": "twitterId",
          "type": "uint256"
        },
        {
          "internalType": "uint256[]",
          "name": "curationIds",
          "type": "uint256[]"
        }
      ],
      "name": "checkClaim",
      "outputs": [
        {
          "internalType": "bool[]",
          "name": "",
          "type": "bool[]"
        }
      ],
      "stateMutability": "view",
      "type": "function"
    },
    {
      "inputs": [
        {
          "internalType": "uint256",
          "name": "twitterId",
          "type": "uint256"
        },
        {
          "internalType": "address",
          "name": "addr",
          "type": "address"
        },
        {
          "internalType": "uint256[]",
          "name": "curationIds",
          "type": "uint256[]"
        },
        {
          "internalType": "uint256[]",
          "name": "amounts",
          "type": "uint256[]"
        },
        {
          "internalType": "bytes",
          "name": "sign",
          "type": "bytes"
        }
      ],
      "name": "claimPrize",
      "outputs": [],
      "stateMutability": "nonpayable",
      "type": "function"
    }
  ],
  "bytecode": "0x6080604052608960055534801561001557600080fd5b506040516110c93803806110c9833981016040819052610034916100e4565b61003d33610078565b60018055600592909255600480546001600160a01b039283166001600160a01b03199182161790915560038054929093169116179055610120565b600080546001600160a01b038381166001600160a01b0319831681178455604051919092169283917f8be0079c531659141344cd1fd0a4f28419497f9722a3daafe3b4186f6b6457e09190a35050565b80516001600160a01b03811681146100df57600080fd5b919050565b6000806000606084860312156100f957600080fd5b83519250610109602085016100c8565b9150610117604085016100c8565b90509250925092565b610f9a8061012f6000396000f3fe608060405234801561001057600080fd5b50600436106100b45760003560e01c80638da5cb5b116100715780638da5cb5b146101415780639a8a059214610152578063b9b8890614610169578063cb9f88131461017c578063d0ef024a146101ba578063f2fde38b146101cd57600080fd5b80630682bdbc146100b95780630c4f87ca146100e957806311f9a97d14610109578063151370451461011e5780633ccfd60b14610131578063715018a614610139575b600080fd5b6004546100cc906001600160a01b031681565b6040516001600160a01b0390911681526020015b60405180910390f35b6100fc6100f7366004610b40565b6101e0565b6040516100e09190610b8c565b61011c610117366004610bee565b6102b5565b005b61011c61012c366004610bee565b61030a565b61011c610356565b61011c61046f565b6000546001600160a01b03166100cc565b61015b60055481565b6040519081526020016100e0565b61011c610177366004610c10565b6104a5565b6101aa61018a366004610cf1565b600260209081526000928352604080842090915290825290205460ff1681565b60405190151581526020016100e0565b6003546100cc906001600160a01b031681565b61011c6101db366004610bee565b61089f565b606060008267ffffffffffffffff8111156101fd576101fd610d13565b604051908082528060200260200182016040528015610226578160200160208202803683370190505b50905060005b838110156102ac5760008681526002602052604081209086868481811061025557610255610d29565b90506020020135815260200190815260200160002060009054906101000a900460ff1682828151811061028a5761028a610d29565b91151560209283029190910190910152806102a481610d55565b91505061022c565b50949350505050565b6000546001600160a01b031633146102e85760405162461bcd60e51b81526004016102df90610d6e565b60405180910390fd5b600380546001600160a01b0319166001600160a01b0392909216919091179055565b6000546001600160a01b031633146103345760405162461bcd60e51b81526004016102df90610d6e565b600480546001600160a01b0319166001600160a01b0392909216919091179055565b6000546001600160a01b031633146103805760405162461bcd60e51b81526004016102df90610d6e565b6003546040516370a0823160e01b81523060048201526000916001600160a01b0316906370a0823190602401602060405180830381865afa1580156103c9573d6000803e3d6000fd5b505050506040513d601f19601f820116820180604052508101906103ed9190610da3565b9050801561046c5760035460405163a9059cbb60e01b8152336004820152602481018390526001600160a01b039091169063a9059cbb906044016020604051808303816000875af1158015610446573d6000803e3d6000fd5b505050506040513d601f19601f8201168201806040525081019061046a9190610dbc565b505b50565b6000546001600160a01b031633146104995760405162461bcd60e51b81526004016102df90610d6e565b6104a36000610933565b565b6002600154036104f75760405162461bcd60e51b815260206004820152601f60248201527f5265656e7472616e637947756172643a207265656e7472616e742063616c6c0060448201526064016102df565b60026001558461053c5760405162461bcd60e51b815260206004820152601060248201526f676574206174206c65617374206f6e6560801b60448201526064016102df565b84831461057a5760405162461bcd60e51b815260206004820152600c60248201526b696e76616c6964206461746160a01b60448201526064016102df565b604181146105c05760405162461bcd60e51b81526020600482015260136024820152720d2dcecc2d8d2c840e6d2cedc40d8cadccee8d606b1b60448201526064016102df565b6001600160a01b03871633146106075760405162461bcd60e51b815260206004820152600c60248201526b34b73b30b634b21030b2323960a11b60448201526064016102df565b6003546001600160a01b03166106555760405162461bcd60e51b81526020600482015260136024820152721c1c9a5e99481d1bdad95b881b9bdd081cd95d606a1b60448201526064016102df565b60008860055489898989896040516020016106769796959493929190610e0b565b604051602081830303815290604052805190602001209050610699818484610983565b6106d45760405162461bcd60e51b815260206004820152600c60248201526b34b73b30b634b21039b4b3b760a11b60448201526064016102df565b60005b868110156108475760008a81526002602052604081209089898481811061070057610700610d29565b6020908102929092013583525081019190915260400160009081205460ff16151590036108355760008a81526002602052604081206001918a8a8581811061074a5761074a610d29565b90506020020135815260200190815260200160002060006101000a81548160ff021916908315150217905550600086868381811061078a5761078a610d29565b905060200201351115610835576003546001600160a01b031663a9059cbb338888858181106107bb576107bb610d29565b6040516001600160e01b031960e087901b1681526001600160a01b03909416600485015260200291909101356024830152506044016020604051808303816000875af115801561080f573d6000803e3d6000fd5b505050506040513d601f19601f820116820180604052508101906108339190610dbc565b505b8061083f81610d55565b9150506106d7565b50336001600160a01b0316897f7ce43466dab4c09becb50e4bad56f53274d62cbabf9946b1eff6d84ebd41f18a898989896040516108889493929190610e89565b60405180910390a350506001805550505050505050565b6000546001600160a01b031633146108c95760405162461bcd60e51b81526004016102df90610d6e565b6001600160a01b03811661092e5760405162461bcd60e51b815260206004820152602660248201527f4f776e61626c653a206e6577206f776e657220697320746865207a65726f206160448201526564647265737360d01b60648201526084016102df565b61046c815b600080546001600160a01b038381166001600160a01b0319831681178455604051919092169283917f8be0079c531659141344cd1fd0a4f28419497f9722a3daafe3b4186f6b6457e09190a35050565b6000806109936020828587610ebb565b8101906109a09190610ee5565b905060006109b2604060208688610ebb565b8101906109bf9190610ee5565b90506000858560408181106109d6576109d6610d29565b919091013560f81c915050601b811015610a105760ff811615806109fd57508060ff166001145b15610a1057610a0d601b82610efe565b90505b60006040518060400160405280601c81526020017f19457468657265756d205369676e6564204d6573736167653a0a333200000000815250905060008189604051602001610a5f929190610f23565b60408051601f198184030181528282528051602091820120600080855291840180845281905260ff87169284019290925260608301889052608083018790529092509060019060a0016020604051602081039080840390855afa158015610aca573d6000803e3d6000fd5b5050604051601f1901516004546001600160a01b039081169116149b9a5050505050505050505050565b60008083601f840112610b0657600080fd5b50813567ffffffffffffffff811115610b1e57600080fd5b6020830191508360208260051b8501011115610b3957600080fd5b9250929050565b600080600060408486031215610b5557600080fd5b83359250602084013567ffffffffffffffff811115610b7357600080fd5b610b7f86828701610af4565b9497909650939450505050565b6020808252825182820181905260009190848201906040850190845b81811015610bc6578351151583529284019291840191600101610ba8565b50909695505050505050565b80356001600160a01b0381168114610be957600080fd5b919050565b600060208284031215610c0057600080fd5b610c0982610bd2565b9392505050565b60008060008060008060008060a0898b031215610c2c57600080fd5b88359750610c3c60208a01610bd2565b9650604089013567ffffffffffffffff80821115610c5957600080fd5b610c658c838d01610af4565b909850965060608b0135915080821115610c7e57600080fd5b610c8a8c838d01610af4565b909650945060808b0135915080821115610ca357600080fd5b818b0191508b601f830112610cb757600080fd5b813581811115610cc657600080fd5b8c6020828501011115610cd857600080fd5b6020830194508093505050509295985092959890939650565b60008060408385031215610d0457600080fd5b50508035926020909101359150565b634e487b7160e01b600052604160045260246000fd5b634e487b7160e01b600052603260045260246000fd5b634e487b7160e01b600052601160045260246000fd5b600060018201610d6757610d67610d3f565b5060010190565b6020808252818101527f4f776e61626c653a2063616c6c6572206973206e6f7420746865206f776e6572604082015260600190565b600060208284031215610db557600080fd5b5051919050565b600060208284031215610dce57600080fd5b81518015158114610c0957600080fd5b60006001600160fb1b03831115610df457600080fd5b8260051b8083863760009401938452509192915050565b8781528660208201526bffffffffffffffffffffffff198660601b1660408201526000610e46610e3f605484018789610dde565b8486610dde565b9998505050505050505050565b81835260006001600160fb1b03831115610e6c57600080fd5b8260051b8083602087013760009401602001938452509192915050565b604081526000610e9d604083018688610e53565b8281036020840152610eb0818587610e53565b979650505050505050565b60008085851115610ecb57600080fd5b83861115610ed857600080fd5b5050820193919092039150565b600060208284031215610ef757600080fd5b5035919050565b600060ff821660ff84168060ff03821115610f1b57610f1b610d3f565b019392505050565b6000835160005b81811015610f445760208187018101518583015201610f2a565b81811115610f53576000828501525b50919091019182525060200191905056fea264697066735822122079ff2cbe997597e6adcb0bfa9bd80187b9f7415acc72d011eb6120a92afeac6864736f6c634300080d0033",
  "immutableReferences": {},
  "source": "// SPDX-License-Identifier: MIT\npragma solidity ^0.8.0;\npragma experimental ABIEncoderV2;\n\nimport \"@openzeppelin/contracts/access/Ownable.sol\";\nimport \"@openzeppelin/contracts/security/ReentrancyGuard.sol\";\nimport \"@openzeppelin/contracts/token/ERC20/IERC20.sol\";\n\ncontract AutoCuration is Ownable, ReentrancyGuard {\n    event RewardInfo(uint256 indexed twitterId, address indexed user, uint256[] taskIds, uint256[] amounts);\n\n    // Flag claimed users\n    // twitterid => curation id => bool\n    mapping(uint256 => mapping(uint256 => bool)) public alreadyClaimed;\n\n    address public prizeToken;\n    address public signAddress;\n    uint256 public chainId = 137;\n\n    constructor(\n        uint256 _chainId,\n        address addr,\n        address _prizeToken\n    ) {\n        chainId = _chainId;\n        signAddress = addr;\n        prizeToken = _prizeToken;\n    }\n\n    function setSignAddress(address addr) public onlyOwner {\n        signAddress = addr;\n    }\n\n    function setPrizeToken(address addr) public onlyOwner {\n        prizeToken = addr;\n    }\n\n    function withdraw() public onlyOwner {\n        uint256 balance = IERC20(prizeToken).balanceOf(address(this));\n        if (balance > 0) {\n            IERC20(prizeToken).transfer(msg.sender, balance);\n        }\n    }\n\n    function checkClaim(uint256 twitterId, uint256[] calldata curationIds) public view returns (bool[] memory) {\n        bool[] memory result = new bool[](curationIds.length);\n        for (uint256 i = 0; i < curationIds.length; i++) {\n            result[i] = alreadyClaimed[twitterId][curationIds[i]];\n        }\n        return result;\n    }\n\n    function claimPrize(\n        uint256 twitterId,\n        address addr,\n        uint256[] calldata curationIds,\n        uint256[] calldata amounts,\n        bytes calldata sign\n    ) public nonReentrant {\n        require(curationIds.length > 0, \"get at least one\");\n        require(curationIds.length == amounts.length, \"invalid data\");\n        require(sign.length == 65, \"invalid sign length\");\n        require(addr == msg.sender, \"invalid addr\");\n        require(prizeToken != address(0), \"prize token not set\");\n\n        bytes32 data = keccak256(abi.encodePacked(twitterId, chainId, addr, curationIds, amounts));\n        require(_check(data, sign), \"invalid sign\");\n\n        for (uint256 i = 0; i < curationIds.length; i++) {\n            if (alreadyClaimed[twitterId][curationIds[i]] == false) {\n                alreadyClaimed[twitterId][curationIds[i]] = true;\n\n                if (amounts[i] > 0) {\n                    IERC20(prizeToken).transfer(msg.sender, amounts[i]);\n                }\n            }\n        }\n        emit RewardInfo(twitterId, msg.sender, curationIds, amounts);\n    }\n\n    function _check(bytes32 data, bytes calldata sign) internal view returns (bool) {\n        bytes32 r = abi.decode(sign[:32], (bytes32));\n        bytes32 s = abi.decode(sign[32:64], (bytes32));\n        uint8 v = uint8(sign[64]);\n        if (v < 27) {\n            if (v == 0 || v == 1) v += 27;\n        }\n        bytes memory profix = \"\\x19Ethereum Signed Message:\\n32\";\n        bytes32 info = keccak256(abi.encodePacked(profix, data));\n        address addr = ecrecover(info, v, r, s);\n        return addr == signAddress;\n    }\n}\n",
  "sourcePath": "/Users/necklace/work/nutbox/nutbox-contract/contracts/AutoCuration.sol",
  "compiler": {
    "name": "solc",
    "version": "0.8.13+commit.abaa5c0e.Emscripten.clang"
  },
  "schemaVersion": "3.4.11",
  "updatedAt": "2023-02-02T08:48:55.309Z",
  "devdoc": {
    "kind": "dev",
    "methods": {
      "owner()": {
        "details": "Returns the address of the current owner."
      },
      "renounceOwnership()": {
        "details": "Leaves the contract without owner. It will not be possible to call `onlyOwner` functions anymore. Can only be called by the current owner. NOTE: Renouncing ownership will leave the contract without an owner, thereby removing any functionality that is only available to the owner."
      },
      "transferOwnership(address)": {
        "details": "Transfers ownership of the contract to a new account (`newOwner`). Can only be called by the current owner."
      }
    },
    "version": 1
  },
  "userdoc": {
    "kind": "user",
    "methods": {},
    "version": 1
  }
}