{
  "contractName": "AutoCuration",
  "abi": [
    {
      "anonymous": false,
      "inputs": [
        {
          "indexed": true,
          "internalType": "address",
          "name": "previousOwner",
          "type": "address"
        },
        {
          "indexed": true,
          "internalType": "address",
          "name": "newOwner",
          "type": "address"
        }
      ],
      "name": "OwnershipTransferred",
      "type": "event"
    },
    {
      "anonymous": false,
      "inputs": [
        {
          "indexed": true,
          "internalType": "uint256",
          "name": "twitterId",
          "type": "uint256"
        },
        {
          "indexed": true,
          "internalType": "address",
          "name": "user",
          "type": "address"
        },
        {
          "indexed": false,
          "internalType": "uint256[]",
          "name": "taskIds",
          "type": "uint256[]"
        },
        {
          "indexed": false,
          "internalType": "uint256",
          "name": "amount",
          "type": "uint256"
        }
      ],
      "name": "RewardInfo",
      "type": "event"
    },
    {
      "inputs": [],
      "name": "creator",
      "outputs": [
        {
          "internalType": "address",
          "name": "",
          "type": "address"
        }
      ],
      "stateMutability": "view",
      "type": "function"
    },
    {
      "inputs": [],
      "name": "owner",
      "outputs": [
        {
          "internalType": "address",
          "name": "",
          "type": "address"
        }
      ],
      "stateMutability": "view",
      "type": "function"
    },
    {
      "inputs": [],
      "name": "renounceOwnership",
      "outputs": [],
      "stateMutability": "nonpayable",
      "type": "function"
    },
    {
      "inputs": [
        {
          "internalType": "address",
          "name": "newOwner",
          "type": "address"
        }
      ],
      "name": "transferOwnership",
      "outputs": [],
      "stateMutability": "nonpayable",
      "type": "function"
    },
    {
      "inputs": [
        {
          "internalType": "uint256",
          "name": "cid",
          "type": "uint256"
        },
        {
          "internalType": "address",
          "name": "signAddr",
          "type": "address"
        },
        {
          "internalType": "address",
          "name": "prize",
          "type": "address"
        },
        {
          "internalType": "address",
          "name": "_creator",
          "type": "address"
        },
        {
          "internalType": "address",
          "name": "storageAddr",
          "type": "address"
        }
      ],
      "name": "init",
      "outputs": [],
      "stateMutability": "nonpayable",
      "type": "function"
    },
    {
      "inputs": [
        {
          "internalType": "address",
          "name": "addr",
          "type": "address"
        }
      ],
      "name": "setSignAddress",
      "outputs": [],
      "stateMutability": "nonpayable",
      "type": "function"
    },
    {
      "inputs": [
        {
          "internalType": "address",
          "name": "addr",
          "type": "address"
        }
      ],
      "name": "setPrizeToken",
      "outputs": [],
      "stateMutability": "nonpayable",
      "type": "function"
    },
    {
      "inputs": [],
      "name": "withdraw",
      "outputs": [],
      "stateMutability": "nonpayable",
      "type": "function"
    },
    {
      "inputs": [
        {
          "internalType": "uint256",
          "name": "twitterId",
          "type": "uint256"
        },
        {
          "internalType": "uint256[]",
          "name": "curationIds",
          "type": "uint256[]"
        }
      ],
      "name": "checkClaim",
      "outputs": [
        {
          "internalType": "bool[]",
          "name": "",
          "type": "bool[]"
        }
      ],
      "stateMutability": "view",
      "type": "function"
    },
    {
      "inputs": [
        {
          "internalType": "uint256",
          "name": "twitterId",
          "type": "uint256"
        },
        {
          "internalType": "address",
          "name": "addr",
          "type": "address"
        },
        {
          "internalType": "uint256[]",
          "name": "curationIds",
          "type": "uint256[]"
        },
        {
          "internalType": "uint256",
          "name": "amount",
          "type": "uint256"
        },
        {
          "internalType": "bytes",
          "name": "sign",
          "type": "bytes"
        }
      ],
      "name": "claimPrize",
      "outputs": [],
      "stateMutability": "nonpayable",
      "type": "function"
    },
    {
      "inputs": [
        {
          "internalType": "uint256",
          "name": "twitterId",
          "type": "uint256"
        },
        {
          "internalType": "uint256",
          "name": "curationId",
          "type": "uint256"
        }
      ],
      "name": "alreadyClaimed",
      "outputs": [
        {
          "internalType": "bool",
          "name": "",
          "type": "bool"
        }
      ],
      "stateMutability": "view",
      "type": "function"
    },
    {
      "inputs": [],
      "name": "getBalance",
      "outputs": [
        {
          "internalType": "uint256",
          "name": "",
          "type": "uint256"
        }
      ],
      "stateMutability": "view",
      "type": "function"
    },
    {
      "inputs": [],
      "name": "signAddress",
      "outputs": [
        {
          "internalType": "address",
          "name": "",
          "type": "address"
        }
      ],
      "stateMutability": "view",
      "type": "function"
    },
    {
      "inputs": [],
      "name": "prizeToken",
      "outputs": [
        {
          "internalType": "address",
          "name": "",
          "type": "address"
        }
      ],
      "stateMutability": "view",
      "type": "function"
    }
  ],
  "bytecode": "0x60806040526003805460ff60a01b1916905534801561001d57600080fd5b5061002733610030565b60018055610080565b600080546001600160a01b038381166001600160a01b0319831681178455604051919092169283917f8be0079c531659141344cd1fd0a4f28419497f9722a3daafe3b4186f6b6457e09190a35050565b611df38061008f6000396000f3fe60806040523480156200001157600080fd5b5060043610620000fd5760003560e01c8063715018a61162000097578063cb9f8813116200006e578063cb9f881314620001e9578063d0ef024a1462000211578063d2431d92146200021b578063f2fde38b146200023257600080fd5b8063715018a614620001b65780637998994a14620001c05780638da5cb5b14620001d757600080fd5b806311f9a97d11620000d857806311f9a97d146200016357806312065fe0146200017c5780631513704514620001955780633ccfd60b14620001ac57600080fd5b806302d05d3f14620001025780630682bdbc14620001335780630c4f87ca146200013d575b600080fd5b60035462000116906001600160a01b031681565b6040516001600160a01b0390911681526020015b60405180910390f35b6200011662000249565b620001546200014e36600462000f14565b620002bf565b6040516200012a919062000f64565b6200017a6200017436600462000fc2565b620003f4565b005b620001866200048f565b6040519081526020016200012a565b6200017a620001a636600462000fc2565b620004ff565b6200017a6200055f565b6200017a620005ed565b6200017a620001d136600462000fe2565b62000628565b6000546001600160a01b031662000116565b62000200620001fa366004620010af565b620009fc565b60405190151581526020016200012a565b6200011662000a7b565b6200017a6200022c366004620010d2565b62000ac6565b6200017a6200024336600462000fc2565b62000bd4565b600254604080516301a0af6f60e21b815290516000926001600160a01b031691630682bdbc9160048083019260209291908290030181865afa15801562000294573d6000803e3d6000fd5b505050506040513d601f19601f82011682018060405250810190620002ba919062001143565b905090565b606060008267ffffffffffffffff811115620002df57620002df62001163565b60405190808252806020026020018201604052801562000309578160200160208202803683370190505b50905060005b83811015620003eb576002546001600160a01b031663cb9f8813878787858181106200033f576200033f62001179565b905060200201356040518363ffffffff1660e01b81526004016200036d929190918252602082015260400190565b602060405180830381865afa1580156200038b573d6000803e3d6000fd5b505050506040513d601f19601f82011682018060405250810190620003b191906200118f565b828281518110620003c657620003c662001179565b9115156020928302919091019091015280620003e281620011c9565b9150506200030f565b50949350505050565b6003546001600160a01b031633146200042a5760405162461bcd60e51b81526004016200042190620011e5565b60405180910390fd5b6002546040516311f9a97d60e01b81526001600160a01b038381166004830152909116906311f9a97d906024015b600060405180830381600087803b1580156200047357600080fd5b505af115801562000488573d6000803e3d6000fd5b5050505050565b60025460408051629032ff60e51b815290516000926001600160a01b0316916312065fe09160048083019260209291908290030181865afa158015620004d9573d6000803e3d6000fd5b505050506040513d601f19601f82011682018060405250810190620002ba919062001227565b6003546001600160a01b031633146200052c5760405162461bcd60e51b81526004016200042190620011e5565b600254604051631513704560e01b81526001600160a01b0383811660048301529091169063151370459060240162000458565b6003546001600160a01b031633146200058c5760405162461bcd60e51b81526004016200042190620011e5565b6002546040516351cff8d960e01b81523360048201526001600160a01b03909116906351cff8d990602401600060405180830381600087803b158015620005d257600080fd5b505af1158015620005e7573d6000803e3d6000fd5b50505050565b6000546001600160a01b031633146200061a5760405162461bcd60e51b8152600401620004219062001241565b62000626600062000c76565b565b6002600154036200067c5760405162461bcd60e51b815260206004820152601f60248201527f5265656e7472616e637947756172643a207265656e7472616e742063616c6c00604482015260640162000421565b600260015583620006c35760405162461bcd60e51b815260206004820152601060248201526f676574206174206c65617374206f6e6560801b604482015260640162000421565b604181146200070b5760405162461bcd60e51b81526020600482015260136024820152720d2dcecc2d8d2c840e6d2cedc40d8cadccee8d606b1b604482015260640162000421565b6001600160a01b0386163314620007545760405162461bcd60e51b815260206004820152600c60248201526b34b73b30b634b21030b2323960a11b604482015260640162000421565b60025460408051636877812560e11b815290516000926001600160a01b03169163d0ef024a9160048083019260209291908290030181865afa1580156200079f573d6000803e3d6000fd5b505050506040513d601f19601f82011682018060405250810190620007c5919062001143565b6001600160a01b031603620008135760405162461bcd60e51b81526020600482015260136024820152721c1c9a5e99481d1bdad95b881b9bdd081cd95d606a1b604482015260640162000421565b6000874688888888604051602001620008329695949392919062001276565b6040516020818303038152906040528051906020012090506200085781848462000cc6565b620008945760405162461bcd60e51b815260206004820152600c60248201526b34b73b30b634b21039b4b3b760a11b604482015260640162000421565b60005b858110156200093f576002546001600160a01b03166340fb4f1b8a898985818110620008c757620008c762001179565b905060200201356040518363ffffffff1660e01b8152600401620008f5929190918252602082015260400190565b600060405180830381600087803b1580156200091057600080fd5b505af115801562000925573d6000803e3d6000fd5b5050505080806200093690620011c9565b91505062000897565b5060025460405163a9059cbb60e01b8152336004820152602481018690526001600160a01b039091169063a9059cbb90604401600060405180830381600087803b1580156200098d57600080fd5b505af1158015620009a2573d6000803e3d6000fd5b50505050336001600160a01b0316887f264ce9308cfd4d4e70c79668f075d14c8ae8074608ff6c0bdf3d8639a8474bcd888888604051620009e693929190620012d3565b60405180910390a3505060018055505050505050565b60025460405163cb9f881360e01b815260048101849052602481018390526000916001600160a01b03169063cb9f881390604401602060405180830381865afa15801562000a4e573d6000803e3d6000fd5b505050506040513d601f19601f8201168201806040525081019062000a7491906200118f565b9392505050565b60025460408051636877812560e11b815290516000926001600160a01b03169163d0ef024a9160048083019260209291908290030181865afa15801562000294573d6000803e3d6000fd5b6000546001600160a01b0316331462000af35760405162461bcd60e51b8152600401620004219062001241565b600354600160a01b900460ff1662000488576001600160a01b03811662000b8e578430848660405162000b269062000eb7565b9384526001600160a01b0392831660208501529082166040840152166060820152608001604051809103906000f08015801562000b67573d6000803e3d6000fd5b50600280546001600160a01b0319166001600160a01b039290921691909117905562000baa565b600280546001600160a01b0319166001600160a01b0383161790555b600380546001600160a01b0384166001600160a81b031990911617600160a01b1790555050505050565b6000546001600160a01b0316331462000c015760405162461bcd60e51b8152600401620004219062001241565b6001600160a01b03811662000c685760405162461bcd60e51b815260206004820152602660248201527f4f776e61626c653a206e6577206f776e657220697320746865207a65726f206160448201526564647265737360d01b606482015260840162000421565b62000c738162000c76565b50565b600080546001600160a01b038381166001600160a01b0319831681178455604051919092169283917f8be0079c531659141344cd1fd0a4f28419497f9722a3daafe3b4186f6b6457e09190a35050565b60008062000cd860208285876200131a565b81019062000ce7919062001346565b9050600062000cfb6040602086886200131a565b81019062000d0a919062001346565b905060008585604081811062000d245762000d2462001179565b919091013560f81c915050601b81101562000d635760ff8116158062000d4d57508060ff166001145b1562000d635762000d60601b8262001360565b90505b60006040518060400160405280601c81526020017f19457468657265756d205369676e6564204d6573736167653a0a33320000000081525090506000818960405160200162000db492919062001388565b60408051601f198184030181528282528051602091820120600080855291840180845281905260ff87169284019290925260608301889052608083018790529092509060019060a0016020604051602081039080840390855afa15801562000e20573d6000803e3d6000fd5b505060408051601f198101516002546301a0af6f60e21b835292519094506001600160a01b039092169250630682bdbc9160048083019260209291908290030181865afa15801562000e76573d6000803e3d6000fd5b505050506040513d601f19601f8201168201806040525081019062000e9c919062001143565b6001600160a01b039182169116149998505050505050505050565b6109f180620013cd83390190565b60008083601f84011262000ed857600080fd5b50813567ffffffffffffffff81111562000ef157600080fd5b6020830191508360208260051b850101111562000f0d57600080fd5b9250929050565b60008060006040848603121562000f2a57600080fd5b83359250602084013567ffffffffffffffff81111562000f4957600080fd5b62000f578682870162000ec5565b9497909650939450505050565b6020808252825182820181905260009190848201906040850190845b8181101562000fa057835115158352928401929184019160010162000f80565b50909695505050505050565b6001600160a01b038116811462000c7357600080fd5b60006020828403121562000fd557600080fd5b813562000a748162000fac565b600080600080600080600060a0888a03121562000ffe57600080fd5b873596506020880135620010128162000fac565b9550604088013567ffffffffffffffff808211156200103057600080fd5b6200103e8b838c0162000ec5565b909750955060608a0135945060808a01359150808211156200105f57600080fd5b818a0191508a601f8301126200107457600080fd5b8135818111156200108457600080fd5b8b60208285010111156200109757600080fd5b60208301945080935050505092959891949750929550565b60008060408385031215620010c357600080fd5b50508035926020909101359150565b600080600080600060a08688031215620010eb57600080fd5b853594506020860135620010ff8162000fac565b93506040860135620011118162000fac565b92506060860135620011238162000fac565b91506080860135620011358162000fac565b809150509295509295909350565b6000602082840312156200115657600080fd5b815162000a748162000fac565b634e487b7160e01b600052604160045260246000fd5b634e487b7160e01b600052603260045260246000fd5b600060208284031215620011a257600080fd5b8151801515811462000a7457600080fd5b634e487b7160e01b600052601160045260246000fd5b600060018201620011de57620011de620011b3565b5060010190565b60208082526022908201527f4f776e61626c653a2063616c6c6572206973206e6f742074686520637265617460408201526137b960f11b606082015260800190565b6000602082840312156200123a57600080fd5b5051919050565b6020808252818101527f4f776e61626c653a2063616c6c6572206973206e6f7420746865206f776e6572604082015260600190565b86815260208101869052606085901b6bffffffffffffffffffffffff1916604082015260006001600160fb1b03841115620012b057600080fd5b8360051b8086605485013760549201918201929092526074019695505050505050565b6040808252810183905260006001600160fb1b03841115620012f457600080fd5b8360051b8086606085013760009083016060019081526020909201929092529392505050565b600080858511156200132b57600080fd5b838611156200133957600080fd5b5050820193919092039150565b6000602082840312156200135957600080fd5b5035919050565b600060ff821660ff84168060ff03821115620013805762001380620011b3565b019392505050565b6000835160005b81811015620013ab57602081870181015185830152016200138f565b81811115620013bb576000828501525b50919091019182525060200191905056fe608060405234801561001057600080fd5b506040516109f13803806109f183398101604081905261002f916101bb565b6100383361007f565b6002849055600380546001600160a01b038085166001600160a01b0319928316179092556004805492841692909116919091179055610076836100cf565b50505050610208565b600080546001600160a01b038381166001600160a01b0319831681178455604051919092169283917f8be0079c531659141344cd1fd0a4f28419497f9722a3daafe3b4186f6b6457e09190a35050565b6000546001600160a01b0316331461012e5760405162461bcd60e51b815260206004820181905260248201527f4f776e61626c653a2063616c6c6572206973206e6f7420746865206f776e657260448201526064015b60405180910390fd5b6001600160a01b0381166101935760405162461bcd60e51b815260206004820152602660248201527f4f776e61626c653a206e6577206f776e657220697320746865207a65726f206160448201526564647265737360d01b6064820152608401610125565b61019c8161007f565b50565b80516001600160a01b03811681146101b657600080fd5b919050565b600080600080608085870312156101d157600080fd5b845193506101e16020860161019f565b92506101ef6040860161019f565b91506101fd6060860161019f565b905092959194509250565b6107da806102176000396000f3fe608060405234801561001057600080fd5b50600436106100cf5760003560e01c8063715018a61161008c578063a9059cbb11610066578063a9059cbb1461018a578063cb9f88131461019d578063d0ef024a146101db578063f2fde38b146101ee57600080fd5b8063715018a6146101685780637f50861a146101705780638da5cb5b1461017957600080fd5b80630682bdbc146100d457806311f9a97d1461010457806312065fe014610119578063151370451461012f57806340fb4f1b1461014257806351cff8d914610155575b600080fd5b6004546100e7906001600160a01b031681565b6040516001600160a01b0390911681526020015b60405180910390f35b6101176101123660046106c6565b610201565b005b610121610256565b6040519081526020016100fb565b61011761013d3660046106c6565b6102c8565b6101176101503660046106e8565b610314565b6101176101633660046106c6565b610409565b610117610526565b61012160025481565b6000546001600160a01b03166100e7565b61011761019836600461070a565b61055c565b6101cb6101ab3660046106e8565b600160209081526000928352604080842090915290825290205460ff1681565b60405190151581526020016100fb565b6003546100e7906001600160a01b031681565b6101176101fc3660046106c6565b6105bf565b6000546001600160a01b031633146102345760405162461bcd60e51b815260040161022b90610734565b60405180910390fd5b600380546001600160a01b0319166001600160a01b0392909216919091179055565b6003546040516370a0823160e01b81523060048201526000916001600160a01b0316906370a0823190602401602060405180830381865afa15801561029f573d6000803e3d6000fd5b505050506040513d601f19601f820116820180604052508101906102c39190610769565b905090565b6000546001600160a01b031633146102f25760405162461bcd60e51b815260040161022b90610734565b600480546001600160a01b0319166001600160a01b0392909216919091179055565b6000546001600160a01b0316331461033e5760405162461bcd60e51b815260040161022b90610734565b603081901c600254146103875760405162461bcd60e51b8152602060048201526011602482015270696e76616c696420636f6d6d756e69747960781b604482015260640161022b565b600082815260016020908152604080832084845290915290205460ff16156103e35760405162461bcd60e51b815260206004820152600f60248201526e185b1c9958591e4818db185a5b5959608a1b604482015260640161022b565b60009182526001602081815260408085209385529290529120805460ff19169091179055565b6000546001600160a01b031633146104335760405162461bcd60e51b815260040161022b90610734565b6003546040516370a0823160e01b81523060048201526000916001600160a01b0316906370a0823190602401602060405180830381865afa15801561047c573d6000803e3d6000fd5b505050506040513d601f19601f820116820180604052508101906104a09190610769565b905080156105225760035460405163a9059cbb60e01b81526001600160a01b038481166004830152602482018490529091169063a9059cbb906044015b6020604051808303816000875af11580156104fc573d6000803e3d6000fd5b505050506040513d601f19601f820116820180604052508101906105209190610782565b505b5050565b6000546001600160a01b031633146105505760405162461bcd60e51b815260040161022b90610734565b61055a600061065a565b565b6000546001600160a01b031633146105865760405162461bcd60e51b815260040161022b90610734565b60035460405163a9059cbb60e01b81526001600160a01b038481166004830152602482018490529091169063a9059cbb906044016104dd565b6000546001600160a01b031633146105e95760405162461bcd60e51b815260040161022b90610734565b6001600160a01b03811661064e5760405162461bcd60e51b815260206004820152602660248201527f4f776e61626c653a206e6577206f776e657220697320746865207a65726f206160448201526564647265737360d01b606482015260840161022b565b6106578161065a565b50565b600080546001600160a01b038381166001600160a01b0319831681178455604051919092169283917f8be0079c531659141344cd1fd0a4f28419497f9722a3daafe3b4186f6b6457e09190a35050565b80356001600160a01b03811681146106c157600080fd5b919050565b6000602082840312156106d857600080fd5b6106e1826106aa565b9392505050565b600080604083850312156106fb57600080fd5b50508035926020909101359150565b6000806040838503121561071d57600080fd5b610726836106aa565b946020939093013593505050565b6020808252818101527f4f776e61626c653a2063616c6c6572206973206e6f7420746865206f776e6572604082015260600190565b60006020828403121561077b57600080fd5b5051919050565b60006020828403121561079457600080fd5b815180151581146106e157600080fdfea2646970667358221220b7a6d7231b3a2379fff8aa22dbaa7a125f60a81f502c5ad765eea2559a717bba64736f6c634300080d0033a26469706673582212209857b95e916f8d34fbd42ba14028d9c031c4e1bb81d5536dda82c2d6b61ffd5664736f6c634300080d0033",
  "immutableReferences": {},
  "source": "// SPDX-License-Identifier: MIT\npragma solidity ^0.8.0;\npragma experimental ABIEncoderV2;\n\nimport \"@openzeppelin/contracts/access/Ownable.sol\";\nimport \"@openzeppelin/contracts/security/ReentrancyGuard.sol\";\nimport \"@openzeppelin/contracts/token/ERC20/IERC20.sol\";\nimport \"./CommunityStorage.sol\";\n\ncontract AutoCuration is Ownable, ReentrancyGuard {\n    event RewardInfo(uint256 indexed twitterId, address indexed user, uint256[] taskIds, uint256 amount);\n\n    CommunityStorage cStorage;\n    address public creator;\n\n    bool isInit = false;\n\n    modifier onlyCreator() {\n        require(creator == msg.sender, \"Ownable: caller is not the creator\");\n        _;\n    }\n\n    function init(uint256 cid, address signAddr, address prize, address _creator, address storageAddr) public onlyOwner {\n        if (!isInit) {\n            if (storageAddr == address(0)) {\n                cStorage = new CommunityStorage(cid, address(this), prize, signAddr);\n            } else {\n                cStorage = CommunityStorage(storageAddr);\n            }\n            isInit = true;\n            creator = _creator;\n        }\n    }\n\n    function setSignAddress(address addr) public onlyCreator {\n        cStorage.setSignAddress(addr);\n    }\n\n    function setPrizeToken(address addr) public onlyCreator {\n        cStorage.setPrizeToken(addr);\n    }\n\n    function withdraw() public onlyCreator {\n        cStorage.withdraw(msg.sender);\n    }\n\n    function checkClaim(uint256 twitterId, uint256[] calldata curationIds) public view returns (bool[] memory) {\n        bool[] memory result = new bool[](curationIds.length);\n        for (uint256 i = 0; i < curationIds.length; i++) {\n            result[i] = cStorage.alreadyClaimed(twitterId, curationIds[i]);\n        }\n        return result;\n    }\n\n    function claimPrize(uint256 twitterId, address addr, uint256[] calldata curationIds, uint256 amount, bytes calldata sign) public nonReentrant {\n        require(curationIds.length > 0, \"get at least one\");\n        require(sign.length == 65, \"invalid sign length\");\n        require(addr == msg.sender, \"invalid addr\");\n        require(cStorage.prizeToken() != address(0), \"prize token not set\");\n\n        bytes32 data = keccak256(abi.encodePacked(twitterId, block.chainid, addr, curationIds, amount));\n        require(_check(data, sign), \"invalid sign\");\n\n        for (uint256 i = 0; i < curationIds.length; i++) {\n            cStorage.saveAlreadyClaimed(twitterId, curationIds[i]);\n        }\n        cStorage.transfer(msg.sender, amount);\n        emit RewardInfo(twitterId, msg.sender, curationIds, amount);\n    }\n\n    function _check(bytes32 data, bytes calldata sign) internal view returns (bool) {\n        bytes32 r = abi.decode(sign[:32], (bytes32));\n        bytes32 s = abi.decode(sign[32:64], (bytes32));\n        uint8 v = uint8(sign[64]);\n        if (v < 27) {\n            if (v == 0 || v == 1) v += 27;\n        }\n        bytes memory profix = \"\\x19Ethereum Signed Message:\\n32\";\n        bytes32 info = keccak256(abi.encodePacked(profix, data));\n        address addr = ecrecover(info, v, r, s);\n        return addr == cStorage.signAddress();\n    }\n\n    function alreadyClaimed(uint256 twitterId, uint256 curationId) public view returns (bool) {\n        return cStorage.alreadyClaimed(twitterId, curationId);\n    }\n\n    function getBalance() public view returns (uint256) {\n        return cStorage.getBalance();\n    }\n\n    function signAddress() public view returns (address) {\n        return cStorage.signAddress();\n    }\n\n    function prizeToken() public view returns (address) {\n        return cStorage.prizeToken();\n    }\n}\n",
  "sourcePath": "/Users/necklace/work/nutbox/nutbox-contract/contracts/AutoCuration.sol",
  "compiler": {
    "name": "solc",
    "version": "0.8.13+commit.abaa5c0e.Emscripten.clang"
  },
  "schemaVersion": "3.4.11",
  "updatedAt": "2023-04-25T09:06:03.789Z",
  "devdoc": {
    "kind": "dev",
    "methods": {
      "owner()": {
        "details": "Returns the address of the current owner."
      },
      "renounceOwnership()": {
        "details": "Leaves the contract without owner. It will not be possible to call `onlyOwner` functions anymore. Can only be called by the current owner. NOTE: Renouncing ownership will leave the contract without an owner, thereby removing any functionality that is only available to the owner."
      },
      "transferOwnership(address)": {
        "details": "Transfers ownership of the contract to a new account (`newOwner`). Can only be called by the current owner."
      }
    },
    "version": 1
  },
  "userdoc": {
    "kind": "user",
    "methods": {},
    "version": 1
  }
}