{
  "contractName": "BlessCard",
  "abi": [
    {
      "inputs": [
        {
          "internalType": "string",
          "name": "uri_",
          "type": "string"
        }
      ],
      "stateMutability": "nonpayable",
      "type": "constructor"
    },
    {
      "anonymous": false,
      "inputs": [
        {
          "indexed": true,
          "internalType": "address",
          "name": "account",
          "type": "address"
        },
        {
          "indexed": true,
          "internalType": "address",
          "name": "operator",
          "type": "address"
        },
        {
          "indexed": false,
          "internalType": "bool",
          "name": "approved",
          "type": "bool"
        }
      ],
      "name": "ApprovalForAll",
      "type": "event"
    },
    {
      "anonymous": false,
      "inputs": [
        {
          "indexed": false,
          "internalType": "address",
          "name": "account",
          "type": "address"
        }
      ],
      "name": "Paused",
      "type": "event"
    },
    {
      "anonymous": false,
      "inputs": [
        {
          "indexed": true,
          "internalType": "bytes32",
          "name": "role",
          "type": "bytes32"
        },
        {
          "indexed": true,
          "internalType": "bytes32",
          "name": "previousAdminRole",
          "type": "bytes32"
        },
        {
          "indexed": true,
          "internalType": "bytes32",
          "name": "newAdminRole",
          "type": "bytes32"
        }
      ],
      "name": "RoleAdminChanged",
      "type": "event"
    },
    {
      "anonymous": false,
      "inputs": [
        {
          "indexed": true,
          "internalType": "bytes32",
          "name": "role",
          "type": "bytes32"
        },
        {
          "indexed": true,
          "internalType": "address",
          "name": "account",
          "type": "address"
        },
        {
          "indexed": true,
          "internalType": "address",
          "name": "sender",
          "type": "address"
        }
      ],
      "name": "RoleGranted",
      "type": "event"
    },
    {
      "anonymous": false,
      "inputs": [
        {
          "indexed": true,
          "internalType": "bytes32",
          "name": "role",
          "type": "bytes32"
        },
        {
          "indexed": true,
          "internalType": "address",
          "name": "account",
          "type": "address"
        },
        {
          "indexed": true,
          "internalType": "address",
          "name": "sender",
          "type": "address"
        }
      ],
      "name": "RoleRevoked",
      "type": "event"
    },
    {
      "anonymous": false,
      "inputs": [
        {
          "indexed": true,
          "internalType": "address",
          "name": "operator",
          "type": "address"
        },
        {
          "indexed": true,
          "internalType": "address",
          "name": "from",
          "type": "address"
        },
        {
          "indexed": true,
          "internalType": "address",
          "name": "to",
          "type": "address"
        },
        {
          "indexed": false,
          "internalType": "uint256[]",
          "name": "ids",
          "type": "uint256[]"
        },
        {
          "indexed": false,
          "internalType": "uint256[]",
          "name": "values",
          "type": "uint256[]"
        }
      ],
      "name": "TransferBatch",
      "type": "event"
    },
    {
      "anonymous": false,
      "inputs": [
        {
          "indexed": true,
          "internalType": "address",
          "name": "operator",
          "type": "address"
        },
        {
          "indexed": true,
          "internalType": "address",
          "name": "from",
          "type": "address"
        },
        {
          "indexed": true,
          "internalType": "address",
          "name": "to",
          "type": "address"
        },
        {
          "indexed": false,
          "internalType": "uint256",
          "name": "id",
          "type": "uint256"
        },
        {
          "indexed": false,
          "internalType": "uint256",
          "name": "value",
          "type": "uint256"
        }
      ],
      "name": "TransferSingle",
      "type": "event"
    },
    {
      "anonymous": false,
      "inputs": [
        {
          "indexed": false,
          "internalType": "string",
          "name": "value",
          "type": "string"
        },
        {
          "indexed": true,
          "internalType": "uint256",
          "name": "id",
          "type": "uint256"
        }
      ],
      "name": "URI",
      "type": "event"
    },
    {
      "anonymous": false,
      "inputs": [
        {
          "indexed": false,
          "internalType": "address",
          "name": "account",
          "type": "address"
        }
      ],
      "name": "Unpaused",
      "type": "event"
    },
    {
      "inputs": [],
      "name": "BURN_ROLE",
      "outputs": [
        {
          "internalType": "bytes32",
          "name": "",
          "type": "bytes32"
        }
      ],
      "stateMutability": "view",
      "type": "function"
    },
    {
      "inputs": [],
      "name": "DEFAULT_ADMIN_ROLE",
      "outputs": [
        {
          "internalType": "bytes32",
          "name": "",
          "type": "bytes32"
        }
      ],
      "stateMutability": "view",
      "type": "function"
    },
    {
      "inputs": [],
      "name": "MINTER_ROLE",
      "outputs": [
        {
          "internalType": "bytes32",
          "name": "",
          "type": "bytes32"
        }
      ],
      "stateMutability": "view",
      "type": "function"
    },
    {
      "inputs": [],
      "name": "PAUSER_ROLE",
      "outputs": [
        {
          "internalType": "bytes32",
          "name": "",
          "type": "bytes32"
        }
      ],
      "stateMutability": "view",
      "type": "function"
    },
    {
      "inputs": [
        {
          "internalType": "address",
          "name": "account",
          "type": "address"
        },
        {
          "internalType": "uint256",
          "name": "id",
          "type": "uint256"
        }
      ],
      "name": "balanceOf",
      "outputs": [
        {
          "internalType": "uint256",
          "name": "",
          "type": "uint256"
        }
      ],
      "stateMutability": "view",
      "type": "function"
    },
    {
      "inputs": [
        {
          "internalType": "address[]",
          "name": "accounts",
          "type": "address[]"
        },
        {
          "internalType": "uint256[]",
          "name": "ids",
          "type": "uint256[]"
        }
      ],
      "name": "balanceOfBatch",
      "outputs": [
        {
          "internalType": "uint256[]",
          "name": "",
          "type": "uint256[]"
        }
      ],
      "stateMutability": "view",
      "type": "function"
    },
    {
      "inputs": [
        {
          "internalType": "bytes32",
          "name": "role",
          "type": "bytes32"
        }
      ],
      "name": "getRoleAdmin",
      "outputs": [
        {
          "internalType": "bytes32",
          "name": "",
          "type": "bytes32"
        }
      ],
      "stateMutability": "view",
      "type": "function"
    },
    {
      "inputs": [
        {
          "internalType": "bytes32",
          "name": "role",
          "type": "bytes32"
        },
        {
          "internalType": "uint256",
          "name": "index",
          "type": "uint256"
        }
      ],
      "name": "getRoleMember",
      "outputs": [
        {
          "internalType": "address",
          "name": "",
          "type": "address"
        }
      ],
      "stateMutability": "view",
      "type": "function"
    },
    {
      "inputs": [
        {
          "internalType": "bytes32",
          "name": "role",
          "type": "bytes32"
        }
      ],
      "name": "getRoleMemberCount",
      "outputs": [
        {
          "internalType": "uint256",
          "name": "",
          "type": "uint256"
        }
      ],
      "stateMutability": "view",
      "type": "function"
    },
    {
      "inputs": [
        {
          "internalType": "bytes32",
          "name": "role",
          "type": "bytes32"
        },
        {
          "internalType": "address",
          "name": "account",
          "type": "address"
        }
      ],
      "name": "grantRole",
      "outputs": [],
      "stateMutability": "nonpayable",
      "type": "function"
    },
    {
      "inputs": [
        {
          "internalType": "bytes32",
          "name": "role",
          "type": "bytes32"
        },
        {
          "internalType": "address",
          "name": "account",
          "type": "address"
        }
      ],
      "name": "hasRole",
      "outputs": [
        {
          "internalType": "bool",
          "name": "",
          "type": "bool"
        }
      ],
      "stateMutability": "view",
      "type": "function"
    },
    {
      "inputs": [
        {
          "internalType": "address",
          "name": "account",
          "type": "address"
        },
        {
          "internalType": "address",
          "name": "operator",
          "type": "address"
        }
      ],
      "name": "isApprovedForAll",
      "outputs": [
        {
          "internalType": "bool",
          "name": "",
          "type": "bool"
        }
      ],
      "stateMutability": "view",
      "type": "function"
    },
    {
      "inputs": [
        {
          "internalType": "address",
          "name": "to",
          "type": "address"
        },
        {
          "internalType": "uint256",
          "name": "id",
          "type": "uint256"
        },
        {
          "internalType": "uint256",
          "name": "amount",
          "type": "uint256"
        },
        {
          "internalType": "bytes",
          "name": "data",
          "type": "bytes"
        }
      ],
      "name": "mint",
      "outputs": [],
      "stateMutability": "nonpayable",
      "type": "function"
    },
    {
      "inputs": [
        {
          "internalType": "address",
          "name": "to",
          "type": "address"
        },
        {
          "internalType": "uint256[]",
          "name": "ids",
          "type": "uint256[]"
        },
        {
          "internalType": "uint256[]",
          "name": "amounts",
          "type": "uint256[]"
        },
        {
          "internalType": "bytes",
          "name": "data",
          "type": "bytes"
        }
      ],
      "name": "mintBatch",
      "outputs": [],
      "stateMutability": "nonpayable",
      "type": "function"
    },
    {
      "inputs": [],
      "name": "pause",
      "outputs": [],
      "stateMutability": "nonpayable",
      "type": "function"
    },
    {
      "inputs": [],
      "name": "paused",
      "outputs": [
        {
          "internalType": "bool",
          "name": "",
          "type": "bool"
        }
      ],
      "stateMutability": "view",
      "type": "function"
    },
    {
      "inputs": [
        {
          "internalType": "bytes32",
          "name": "role",
          "type": "bytes32"
        },
        {
          "internalType": "address",
          "name": "account",
          "type": "address"
        }
      ],
      "name": "renounceRole",
      "outputs": [],
      "stateMutability": "nonpayable",
      "type": "function"
    },
    {
      "inputs": [
        {
          "internalType": "bytes32",
          "name": "role",
          "type": "bytes32"
        },
        {
          "internalType": "address",
          "name": "account",
          "type": "address"
        }
      ],
      "name": "revokeRole",
      "outputs": [],
      "stateMutability": "nonpayable",
      "type": "function"
    },
    {
      "inputs": [
        {
          "internalType": "address",
          "name": "from",
          "type": "address"
        },
        {
          "internalType": "address",
          "name": "to",
          "type": "address"
        },
        {
          "internalType": "uint256[]",
          "name": "ids",
          "type": "uint256[]"
        },
        {
          "internalType": "uint256[]",
          "name": "amounts",
          "type": "uint256[]"
        },
        {
          "internalType": "bytes",
          "name": "data",
          "type": "bytes"
        }
      ],
      "name": "safeBatchTransferFrom",
      "outputs": [],
      "stateMutability": "nonpayable",
      "type": "function"
    },
    {
      "inputs": [
        {
          "internalType": "address",
          "name": "from",
          "type": "address"
        },
        {
          "internalType": "address",
          "name": "to",
          "type": "address"
        },
        {
          "internalType": "uint256",
          "name": "id",
          "type": "uint256"
        },
        {
          "internalType": "uint256",
          "name": "amount",
          "type": "uint256"
        },
        {
          "internalType": "bytes",
          "name": "data",
          "type": "bytes"
        }
      ],
      "name": "safeTransferFrom",
      "outputs": [],
      "stateMutability": "nonpayable",
      "type": "function"
    },
    {
      "inputs": [
        {
          "internalType": "address",
          "name": "operator",
          "type": "address"
        },
        {
          "internalType": "bool",
          "name": "approved",
          "type": "bool"
        }
      ],
      "name": "setApprovalForAll",
      "outputs": [],
      "stateMutability": "nonpayable",
      "type": "function"
    },
    {
      "inputs": [
        {
          "internalType": "bytes4",
          "name": "interfaceId",
          "type": "bytes4"
        }
      ],
      "name": "supportsInterface",
      "outputs": [
        {
          "internalType": "bool",
          "name": "",
          "type": "bool"
        }
      ],
      "stateMutability": "view",
      "type": "function"
    },
    {
      "inputs": [],
      "name": "unpause",
      "outputs": [],
      "stateMutability": "nonpayable",
      "type": "function"
    },
    {
      "inputs": [
        {
          "internalType": "address",
          "name": "account",
          "type": "address"
        },
        {
          "internalType": "uint256",
          "name": "id",
          "type": "uint256"
        },
        {
          "internalType": "uint256",
          "name": "value",
          "type": "uint256"
        }
      ],
      "name": "burn",
      "outputs": [],
      "stateMutability": "nonpayable",
      "type": "function"
    },
    {
      "inputs": [
        {
          "internalType": "address",
          "name": "account",
          "type": "address"
        },
        {
          "internalType": "uint256[]",
          "name": "ids",
          "type": "uint256[]"
        },
        {
          "internalType": "uint256[]",
          "name": "values",
          "type": "uint256[]"
        }
      ],
      "name": "burnBatch",
      "outputs": [],
      "stateMutability": "nonpayable",
      "type": "function"
    },
    {
      "inputs": [
        {
          "internalType": "uint256",
          "name": "tokenId",
          "type": "uint256"
        }
      ],
      "name": "uri",
      "outputs": [
        {
          "internalType": "string",
          "name": "",
          "type": "string"
        }
      ],
      "stateMutability": "view",
      "type": "function"
    }
  ],
  "bytecode": "0x60806040523480156200001157600080fd5b5060405162002fc038038062002fc0833981016040819052620000349162000315565b80806200004181620000e5565b506005805460ff1916905562000059600033620000fe565b620000857f9f2df0fed2c77648de5860a4cc508cd0818c85b8b8a1ab4ceeef8d981c8956a633620000fe565b620000b17f65d7a28e3265b37a6474929f336521b332c1681b933f6cb9f3376673440d862a33620000fe565b50620000de7fe97b137254058bd94f28d2f3eb79e2d34074ffb488d042e3bc958e0a57d2fa2233620000fe565b506200042d565b8051620000fa90600490602084019062000259565b5050565b620000fa82826200011b82826200014760201b62000b231760201c565b60008281526001602090815260409091206200014291839062000ba7620001e7821b17901c565b505050565b6000828152602081815260408083206001600160a01b038516845290915290205460ff16620000fa576000828152602081815260408083206001600160a01b03851684529091529020805460ff19166001179055620001a33390565b6001600160a01b0316816001600160a01b0316837f2f8788117e7eff1d82e926ec794901d17c78024a50270940304540a733656f0d60405160405180910390a45050565b6000620001fe836001600160a01b03841662000207565b90505b92915050565b6000818152600183016020526040812054620002505750815460018181018455600084815260208082209093018490558454848252828601909352604090209190915562000201565b50600062000201565b8280546200026790620003f1565b90600052602060002090601f0160209004810192826200028b5760008555620002d6565b82601f10620002a657805160ff1916838001178555620002d6565b82800160010185558215620002d6579182015b82811115620002d6578251825591602001919060010190620002b9565b50620002e4929150620002e8565b5090565b5b80821115620002e45760008155600101620002e9565b634e487b7160e01b600052604160045260246000fd5b600060208083850312156200032957600080fd5b82516001600160401b03808211156200034157600080fd5b818501915085601f8301126200035657600080fd5b8151818111156200036b576200036b620002ff565b604051601f8201601f19908116603f01168101908382118183101715620003965762000396620002ff565b816040528281528886848701011115620003af57600080fd5b600093505b82841015620003d35784840186015181850187015292850192620003b4565b82841115620003e55760008684830101525b98975050505050505050565b600181811c908216806200040657607f821691505b6020821081036200042757634e487b7160e01b600052602260045260246000fd5b50919050565b612b83806200043d6000396000f3fe608060405234801561001057600080fd5b506004361061018d5760003560e01c80638456cb59116100de578063ca15c87311610097578063e63ab1e911610071578063e63ab1e91461039a578063e985e9c5146103c1578063f242432a146103fd578063f5298aca1461041057600080fd5b8063ca15c8731461034d578063d539139314610360578063d547741f1461038757600080fd5b80638456cb59146102c55780639010d07c146102cd57806391d14854146102f8578063a217fddf1461030b578063a22cb46514610313578063b930908f1461032657600080fd5b80632f2ff15d1161014b5780634e1273f4116101255780634e1273f4146102745780635c975abb146102945780636b20c4541461029f578063731133e9146102b257600080fd5b80632f2ff15d1461024657806336568abe146102595780633f4ba83a1461026c57600080fd5b8062fdd58e1461019257806301ffc9a7146101b85780630e89341c146101db5780631f7fdffa146101fb578063248a9ca3146102105780632eb2c2d614610233575b600080fd5b6101a56101a0366004611ea9565b610423565b6040519081526020015b60405180910390f35b6101cb6101c6366004611eec565b6104bf565b60405190151581526020016101af565b6101ee6101e9366004611f09565b6104ca565b6040516101af9190611f7a565b61020e6102093660046120d6565b61050b565b005b6101a561021e366004611f09565b60009081526020819052604090206001015490565b61020e61024136600461216e565b610563565b61020e610254366004612217565b6105fa565b61020e610267366004612217565b610625565b61020e6106a3565b610287610282366004612243565b610749565b6040516101af9190612348565b60055460ff166101cb565b61020e6102ad36600461235b565b610872565b61020e6102c03660046123ce565b6108e5565b61020e610937565b6102e06102db366004612422565b6109db565b6040516001600160a01b0390911681526020016101af565b6101cb610306366004612217565b6109fa565b6101a5600081565b61020e610321366004612444565b610a23565b6101a57fe97b137254058bd94f28d2f3eb79e2d34074ffb488d042e3bc958e0a57d2fa2281565b6101a561035b366004611f09565b610a2e565b6101a57f9f2df0fed2c77648de5860a4cc508cd0818c85b8b8a1ab4ceeef8d981c8956a681565b61020e610395366004612217565b610a45565b6101a57f65d7a28e3265b37a6474929f336521b332c1681b933f6cb9f3376673440d862a81565b6101cb6103cf366004612480565b6001600160a01b03918216600090815260036020908152604080832093909416825291909152205460ff1690565b61020e61040b3660046124aa565b610a6b565b61020e61041e36600461250e565b610ab0565b60006001600160a01b0383166104945760405162461bcd60e51b815260206004820152602b60248201527f455243313135353a2062616c616e636520717565727920666f7220746865207a60448201526a65726f206164647265737360a81b60648201526084015b60405180910390fd5b5060008181526002602090815260408083206001600160a01b03861684529091529020545b92915050565b60006104b982610bbc565b606060006104d783610bfc565b9050806104e384610c90565b6040516020016104f4929190612541565b604051602081830303815290604052915050919050565b6105357f9f2df0fed2c77648de5860a4cc508cd0818c85b8b8a1ab4ceeef8d981c8956a6336109fa565b6105515760405162461bcd60e51b815260040161048b90612580565b61055d84848484610d98565b50505050565b6001600160a01b03851633148061057f575061057f85336103cf565b6105e65760405162461bcd60e51b815260206004820152603260248201527f455243313135353a207472616e736665722063616c6c6572206973206e6f74206044820152711bdddb995c881b9bdc88185c1c1c9bdd995960721b606482015260840161048b565b6105f38585858585610ef3565b5050505050565b60008281526020819052604090206001015461061681336110a0565b6106208383611104565b505050565b6001600160a01b03811633146106955760405162461bcd60e51b815260206004820152602f60248201527f416363657373436f6e74726f6c3a2063616e206f6e6c792072656e6f756e636560448201526e103937b632b9903337b91039b2b63360891b606482015260840161048b565b61069f8282611126565b5050565b6106cd7f65d7a28e3265b37a6474929f336521b332c1681b933f6cb9f3376673440d862a336109fa565b61073f5760405162461bcd60e51b815260206004820152603b60248201527f455243313135355072657365744d696e7465725061757365723a206d7573742060448201527f686176652070617573657220726f6c6520746f20756e70617573650000000000606482015260840161048b565b610747611148565b565b606081518351146107ae5760405162461bcd60e51b815260206004820152602960248201527f455243313135353a206163636f756e747320616e6420696473206c656e677468604482015268040dad2e6dac2e8c6d60bb1b606482015260840161048b565b600083516001600160401b038111156107c9576107c9611f8d565b6040519080825280602002602001820160405280156107f2578160200160208202803683370190505b50905060005b845181101561086a5761083d858281518110610816576108166125dd565b6020026020010151858381518110610830576108306125dd565b6020026020010151610423565b82828151811061084f5761084f6125dd565b602090810291909101015261086381612609565b90506107f8565b509392505050565b6001600160a01b03831633148061088e575061088e83336103cf565b806108be57506108be7fe97b137254058bd94f28d2f3eb79e2d34074ffb488d042e3bc958e0a57d2fa22336109fa565b6108da5760405162461bcd60e51b815260040161048b90612622565b6106208383836111db565b61090f7f9f2df0fed2c77648de5860a4cc508cd0818c85b8b8a1ab4ceeef8d981c8956a6336109fa565b61092b5760405162461bcd60e51b815260040161048b90612580565b61055d8484848461136c565b6109617f65d7a28e3265b37a6474929f336521b332c1681b933f6cb9f3376673440d862a336109fa565b6109d35760405162461bcd60e51b815260206004820152603960248201527f455243313135355072657365744d696e7465725061757365723a206d7573742060448201527f686176652070617573657220726f6c6520746f20706175736500000000000000606482015260840161048b565b610747611444565b60008281526001602052604081206109f390836114bf565b9392505050565b6000918252602082815260408084206001600160a01b0393909316845291905290205460ff1690565b61069f3383836114cb565b60008181526001602052604081206104b9906115ab565b600082815260208190526040902060010154610a6181336110a0565b6106208383611126565b6001600160a01b038516331480610a875750610a8785336103cf565b610aa35760405162461bcd60e51b815260040161048b90612622565b6105f385858585856115b5565b6001600160a01b038316331480610acc5750610acc83336103cf565b80610afc5750610afc7fe97b137254058bd94f28d2f3eb79e2d34074ffb488d042e3bc958e0a57d2fa22336109fa565b610b185760405162461bcd60e51b815260040161048b90612622565b6106208383836116d6565b610b2d82826109fa565b61069f576000828152602081815260408083206001600160a01b03851684529091529020805460ff19166001179055610b633390565b6001600160a01b0316816001600160a01b0316837f2f8788117e7eff1d82e926ec794901d17c78024a50270940304540a733656f0d60405160405180910390a45050565b60006109f3836001600160a01b0384166117db565b60006001600160e01b03198216636cdb3d1360e11b1480610bed57506001600160e01b031982166303a24d0760e21b145b806104b957506104b98261182a565b606060048054610c0b9061266b565b80601f0160208091040260200160405190810160405280929190818152602001828054610c379061266b565b8015610c845780601f10610c5957610100808354040283529160200191610c84565b820191906000526020600020905b815481529060010190602001808311610c6757829003601f168201915b50505050509050919050565b606081600003610cb75750506040805180820190915260018152600360fc1b602082015290565b8160005b8115610ce15780610ccb81612609565b9150610cda9050600a836126bb565b9150610cbb565b6000816001600160401b03811115610cfb57610cfb611f8d565b6040519080825280601f01601f191660200182016040528015610d25576020820181803683370190505b5090505b8415610d9057610d3a6001836126cf565b9150610d47600a866126e6565b610d529060306126fa565b60f81b818381518110610d6757610d676125dd565b60200101906001600160f81b031916908160001a905350610d89600a866126bb565b9450610d29565b949350505050565b6001600160a01b038416610dbe5760405162461bcd60e51b815260040161048b90612712565b8151835114610ddf5760405162461bcd60e51b815260040161048b90612753565b33610def8160008787878761184f565b60005b8451811015610e8b57838181518110610e0d57610e0d6125dd565b602002602001015160026000878481518110610e2b57610e2b6125dd565b602002602001015181526020019081526020016000206000886001600160a01b03166001600160a01b031681526020019081526020016000206000828254610e7391906126fa565b90915550819050610e8381612609565b915050610df2565b50846001600160a01b031660006001600160a01b0316826001600160a01b03167f4a39dc06d4c0dbc64b70af90fd698a233a518aa5d07e595d983b8c0526c8f7fb8787604051610edc92919061279b565b60405180910390a46105f38160008787878761185d565b8151835114610f145760405162461bcd60e51b815260040161048b90612753565b6001600160a01b038416610f3a5760405162461bcd60e51b815260040161048b906127c9565b33610f4981878787878761184f565b60005b8451811015611032576000858281518110610f6957610f696125dd565b602002602001015190506000858381518110610f8757610f876125dd565b60209081029190910181015160008481526002835260408082206001600160a01b038e168352909352919091205490915081811015610fd85760405162461bcd60e51b815260040161048b9061280e565b60008381526002602090815260408083206001600160a01b038e8116855292528083208585039055908b168252812080548492906110179084906126fa565b925050819055505050508061102b90612609565b9050610f4c565b50846001600160a01b0316866001600160a01b0316826001600160a01b03167f4a39dc06d4c0dbc64b70af90fd698a233a518aa5d07e595d983b8c0526c8f7fb878760405161108292919061279b565b60405180910390a461109881878787878761185d565b505050505050565b6110aa82826109fa565b61069f576110c2816001600160a01b031660146119b8565b6110cd8360206119b8565b6040516020016110de929190612858565b60408051601f198184030181529082905262461bcd60e51b825261048b91600401611f7a565b61110e8282610b23565b60008281526001602052604090206106209082610ba7565b6111308282611b53565b60008281526001602052604090206106209082611bb8565b60055460ff166111915760405162461bcd60e51b815260206004820152601460248201527314185d5cd8589b194e881b9bdd081c185d5cd95960621b604482015260640161048b565b6005805460ff191690557f5db9ee0a495bf2e6ff9c91a7834c1ba4fdd244a5e8aa4e537bd38aeae4b073aa335b6040516001600160a01b03909116815260200160405180910390a1565b6001600160a01b0383166112015760405162461bcd60e51b815260040161048b906128cd565b80518251146112225760405162461bcd60e51b815260040161048b90612753565b60003390506112458185600086866040518060200160405280600081525061184f565b60005b835181101561130d576000848281518110611265576112656125dd565b602002602001015190506000848381518110611283576112836125dd565b60209081029190910181015160008481526002835260408082206001600160a01b038c1683529093529190912054909150818110156112d45760405162461bcd60e51b815260040161048b90612910565b60009283526002602090815260408085206001600160a01b038b168652909152909220910390558061130581612609565b915050611248565b5060006001600160a01b0316846001600160a01b0316826001600160a01b03167f4a39dc06d4c0dbc64b70af90fd698a233a518aa5d07e595d983b8c0526c8f7fb868660405161135e92919061279b565b60405180910390a450505050565b6001600160a01b0384166113925760405162461bcd60e51b815260040161048b90612712565b336113b2816000876113a388611bcd565b6113ac88611bcd565b8761184f565b60008481526002602090815260408083206001600160a01b0389168452909152812080548592906113e49084906126fa565b909155505060408051858152602081018590526001600160a01b0380881692600092918516917fc3d58168c5ae7397731d063d5bbf3d657854427343f4c083240f7aacaa2d0f62910160405180910390a46105f381600087878787611c18565b60055460ff161561148a5760405162461bcd60e51b815260206004820152601060248201526f14185d5cd8589b194e881c185d5cd95960821b604482015260640161048b565b6005805460ff191660011790557f62e78cea01bee320cd4e420270b5ea74000d11b0c9f74754ebdbfc544b05a2586111be3390565b60006109f38383611cd3565b816001600160a01b0316836001600160a01b03160361153e5760405162461bcd60e51b815260206004820152602960248201527f455243313135353a2073657474696e6720617070726f76616c20737461747573604482015268103337b91039b2b63360b91b606482015260840161048b565b6001600160a01b03838116600081815260036020908152604080832094871680845294825291829020805460ff191686151590811790915591519182527f17307eab39ab6107e8899845ad3d59bd9653f200f220920489ca2b5937696c31910160405180910390a3505050565b60006104b9825490565b6001600160a01b0384166115db5760405162461bcd60e51b815260040161048b906127c9565b336115eb8187876113a388611bcd565b60008481526002602090815260408083206001600160a01b038a1684529091529020548381101561162e5760405162461bcd60e51b815260040161048b9061280e565b60008581526002602090815260408083206001600160a01b038b811685529252808320878503905590881682528120805486929061166d9084906126fa565b909155505060408051868152602081018690526001600160a01b03808916928a821692918616917fc3d58168c5ae7397731d063d5bbf3d657854427343f4c083240f7aacaa2d0f62910160405180910390a46116cd828888888888611c18565b50505050505050565b6001600160a01b0383166116fc5760405162461bcd60e51b815260040161048b906128cd565b3361172b8185600061170d87611bcd565b61171687611bcd565b6040518060200160405280600081525061184f565b60008381526002602090815260408083206001600160a01b03881684529091529020548281101561176e5760405162461bcd60e51b815260040161048b90612910565b60008481526002602090815260408083206001600160a01b03898116808652918452828520888703905582518981529384018890529092908616917fc3d58168c5ae7397731d063d5bbf3d657854427343f4c083240f7aacaa2d0f62910160405180910390a45050505050565b6000818152600183016020526040812054611822575081546001818101845560008481526020808220909301849055845484825282860190935260409020919091556104b9565b5060006104b9565b60006001600160e01b03198216635a05180f60e01b14806104b957506104b982611cfd565b611098868686868686611d32565b6001600160a01b0384163b156110985760405163bc197c8160e01b81526001600160a01b0385169063bc197c81906118a19089908990889088908890600401612954565b6020604051808303816000875af19250505080156118dc575060408051601f3d908101601f191682019092526118d9918101906129b2565b60015b611988576118e86129cf565b806308c379a00361192157506118fc6129eb565b806119075750611923565b8060405162461bcd60e51b815260040161048b9190611f7a565b505b60405162461bcd60e51b815260206004820152603460248201527f455243313135353a207472616e7366657220746f206e6f6e20455243313135356044820152732932b1b2b4bb32b91034b6b83632b6b2b73a32b960611b606482015260840161048b565b6001600160e01b0319811663bc197c8160e01b146116cd5760405162461bcd60e51b815260040161048b90612a74565b606060006119c7836002612abc565b6119d29060026126fa565b6001600160401b038111156119e9576119e9611f8d565b6040519080825280601f01601f191660200182016040528015611a13576020820181803683370190505b509050600360fc1b81600081518110611a2e57611a2e6125dd565b60200101906001600160f81b031916908160001a905350600f60fb1b81600181518110611a5d57611a5d6125dd565b60200101906001600160f81b031916908160001a9053506000611a81846002612abc565b611a8c9060016126fa565b90505b6001811115611b04576f181899199a1a9b1b9c1cb0b131b232b360811b85600f1660108110611ac057611ac06125dd565b1a60f81b828281518110611ad657611ad66125dd565b60200101906001600160f81b031916908160001a90535060049490941c93611afd81612adb565b9050611a8f565b5083156109f35760405162461bcd60e51b815260206004820181905260248201527f537472696e67733a20686578206c656e67746820696e73756666696369656e74604482015260640161048b565b611b5d82826109fa565b1561069f576000828152602081815260408083206001600160a01b0385168085529252808320805460ff1916905551339285917ff6391f5c32d9c69d2a47ea670b442974b53935d1edc7fd64eb21e047a839171b9190a45050565b60006109f3836001600160a01b038416611d9a565b60408051600180825281830190925260609160009190602080830190803683370190505090508281600081518110611c0757611c076125dd565b602090810291909101015292915050565b6001600160a01b0384163b156110985760405163f23a6e6160e01b81526001600160a01b0385169063f23a6e6190611c5c9089908990889088908890600401612af2565b6020604051808303816000875af1925050508015611c97575060408051601f3d908101601f19168201909252611c94918101906129b2565b60015b611ca3576118e86129cf565b6001600160e01b0319811663f23a6e6160e01b146116cd5760405162461bcd60e51b815260040161048b90612a74565b6000826000018281548110611cea57611cea6125dd565b9060005260206000200154905092915050565b60006001600160e01b03198216637965db0b60e01b14806104b957506301ffc9a760e01b6001600160e01b03198316146104b9565b60055460ff16156110985760405162461bcd60e51b815260206004820152602c60248201527f455243313135355061757361626c653a20746f6b656e207472616e736665722060448201526b1dda1a5b19481c185d5cd95960a21b606482015260840161048b565b60008181526001830160205260408120548015611e83576000611dbe6001836126cf565b8554909150600090611dd2906001906126cf565b9050818114611e37576000866000018281548110611df257611df26125dd565b9060005260206000200154905080876000018481548110611e1557611e156125dd565b6000918252602080832090910192909255918252600188019052604090208390555b8554869080611e4857611e48612b37565b6001900381819060005260206000200160009055905585600101600086815260200190815260200160002060009055600193505050506104b9565b60009150506104b9565b80356001600160a01b0381168114611ea457600080fd5b919050565b60008060408385031215611ebc57600080fd5b611ec583611e8d565b946020939093013593505050565b6001600160e01b031981168114611ee957600080fd5b50565b600060208284031215611efe57600080fd5b81356109f381611ed3565b600060208284031215611f1b57600080fd5b5035919050565b60005b83811015611f3d578181015183820152602001611f25565b8381111561055d5750506000910152565b60008151808452611f66816020860160208601611f22565b601f01601f19169290920160200192915050565b6020815260006109f36020830184611f4e565b634e487b7160e01b600052604160045260246000fd5b601f8201601f191681016001600160401b0381118282101715611fc857611fc8611f8d565b6040525050565b60006001600160401b03821115611fe857611fe8611f8d565b5060051b60200190565b600082601f83011261200357600080fd5b8135602061201082611fcf565b60405161201d8282611fa3565b83815260059390931b850182019282810191508684111561203d57600080fd5b8286015b848110156120585780358352918301918301612041565b509695505050505050565b600082601f83011261207457600080fd5b81356001600160401b0381111561208d5761208d611f8d565b6040516120a4601f8301601f191660200182611fa3565b8181528460208386010111156120b957600080fd5b816020850160208301376000918101602001919091529392505050565b600080600080608085870312156120ec57600080fd5b6120f585611e8d565b935060208501356001600160401b038082111561211157600080fd5b61211d88838901611ff2565b9450604087013591508082111561213357600080fd5b61213f88838901611ff2565b9350606087013591508082111561215557600080fd5b5061216287828801612063565b91505092959194509250565b600080600080600060a0868803121561218657600080fd5b61218f86611e8d565b945061219d60208701611e8d565b935060408601356001600160401b03808211156121b957600080fd5b6121c589838a01611ff2565b945060608801359150808211156121db57600080fd5b6121e789838a01611ff2565b935060808801359150808211156121fd57600080fd5b5061220a88828901612063565b9150509295509295909350565b6000806040838503121561222a57600080fd5b8235915061223a60208401611e8d565b90509250929050565b6000806040838503121561225657600080fd5b82356001600160401b038082111561226d57600080fd5b818501915085601f83011261228157600080fd5b8135602061228e82611fcf565b60405161229b8282611fa3565b83815260059390931b85018201928281019150898411156122bb57600080fd5b948201945b838610156122e0576122d186611e8d565b825294820194908201906122c0565b965050860135925050808211156122f657600080fd5b5061230385828601611ff2565b9150509250929050565b600081518084526020808501945080840160005b8381101561233d57815187529582019590820190600101612321565b509495945050505050565b6020815260006109f3602083018461230d565b60008060006060848603121561237057600080fd5b61237984611e8d565b925060208401356001600160401b038082111561239557600080fd5b6123a187838801611ff2565b935060408601359150808211156123b757600080fd5b506123c486828701611ff2565b9150509250925092565b600080600080608085870312156123e457600080fd5b6123ed85611e8d565b9350602085013592506040850135915060608501356001600160401b0381111561241657600080fd5b61216287828801612063565b6000806040838503121561243557600080fd5b50508035926020909101359150565b6000806040838503121561245757600080fd5b61246083611e8d565b91506020830135801515811461247557600080fd5b809150509250929050565b6000806040838503121561249357600080fd5b61249c83611e8d565b915061223a60208401611e8d565b600080600080600060a086880312156124c257600080fd5b6124cb86611e8d565b94506124d960208701611e8d565b9350604086013592506060860135915060808601356001600160401b0381111561250257600080fd5b61220a88828901612063565b60008060006060848603121561252357600080fd5b61252c84611e8d565b95602085013595506040909401359392505050565b60008351612553818460208801611f22565b835190830190612567818360208801611f22565b64173539b7b760d91b9101908152600501949350505050565b60208082526038908201527f455243313135355072657365744d696e7465725061757365723a206d7573742060408201527f68617665206d696e74657220726f6c6520746f206d696e740000000000000000606082015260800190565b634e487b7160e01b600052603260045260246000fd5b634e487b7160e01b600052601160045260246000fd5b60006001820161261b5761261b6125f3565b5060010190565b60208082526029908201527f455243313135353a2063616c6c6572206973206e6f74206f776e6572206e6f7260408201526808185c1c1c9bdd995960ba1b606082015260800190565b600181811c9082168061267f57607f821691505b60208210810361269f57634e487b7160e01b600052602260045260246000fd5b50919050565b634e487b7160e01b600052601260045260246000fd5b6000826126ca576126ca6126a5565b500490565b6000828210156126e1576126e16125f3565b500390565b6000826126f5576126f56126a5565b500690565b6000821982111561270d5761270d6125f3565b500190565b60208082526021908201527f455243313135353a206d696e7420746f20746865207a65726f206164647265736040820152607360f81b606082015260800190565b60208082526028908201527f455243313135353a2069647320616e6420616d6f756e7473206c656e677468206040820152670dad2e6dac2e8c6d60c31b606082015260800190565b6040815260006127ae604083018561230d565b82810360208401526127c0818561230d565b95945050505050565b60208082526025908201527f455243313135353a207472616e7366657220746f20746865207a65726f206164604082015264647265737360d81b606082015260800190565b6020808252602a908201527f455243313135353a20696e73756666696369656e742062616c616e636520666f60408201526939103a3930b739b332b960b11b606082015260800190565b7f416363657373436f6e74726f6c3a206163636f756e7420000000000000000000815260008351612890816017850160208801611f22565b7001034b99036b4b9b9b4b733903937b6329607d1b60179184019182015283516128c1816028840160208801611f22565b01602801949350505050565b60208082526023908201527f455243313135353a206275726e2066726f6d20746865207a65726f206164647260408201526265737360e81b606082015260800190565b60208082526024908201527f455243313135353a206275726e20616d6f756e7420657863656564732062616c604082015263616e636560e01b606082015260800190565b6001600160a01b0386811682528516602082015260a0604082018190526000906129809083018661230d565b8281036060840152612992818661230d565b905082810360808401526129a68185611f4e565b98975050505050505050565b6000602082840312156129c457600080fd5b81516109f381611ed3565b600060033d11156129e85760046000803e5060005160e01c5b90565b600060443d10156129f95790565b6040516003193d81016004833e81513d6001600160401b038160248401118184111715612a2857505050505090565b8285019150815181811115612a405750505050505090565b843d8701016020828501011115612a5a5750505050505090565b612a6960208286010187611fa3565b509095945050505050565b60208082526028908201527f455243313135353a204552433131353552656365697665722072656a656374656040820152676420746f6b656e7360c01b606082015260800190565b6000816000190483118215151615612ad657612ad66125f3565b500290565b600081612aea57612aea6125f3565b506000190190565b6001600160a01b03868116825285166020820152604081018490526060810183905260a060808201819052600090612b2c90830184611f4e565b979650505050505050565b634e487b7160e01b600052603160045260246000fdfea26469706673582212208317b3820c907cd180aa1b36ff4cf45f3bff853135057529dfeb23637eaf104a64736f6c634300080d0033",
  "immutableReferences": {},
  "source": "//SPDX-License-Identifier: MIT\npragma solidity ^0.8.0;\npragma experimental ABIEncoderV2;\n\nimport \"@openzeppelin/contracts/token/ERC1155/presets/ERC1155PresetMinterPauser.sol\";\nimport \"@openzeppelin/contracts/utils/Strings.sol\";\n\ncontract BlessCard is ERC1155PresetMinterPauser {\n    using Strings for uint256;\n    bytes32 public constant BURN_ROLE = keccak256(\"BURN_ROLE\");\n\n    constructor(string memory uri_) ERC1155PresetMinterPauser(uri_) {\n        _setupRole(BURN_ROLE, _msgSender());\n    }\n\n    function burn(\n        address account,\n        uint256 id,\n        uint256 value\n    ) public virtual override(ERC1155Burnable) {\n        require(account == _msgSender() || isApprovedForAll(account, _msgSender()) || hasRole(BURN_ROLE, _msgSender()), \"ERC1155: caller is not owner nor approved\");\n\n        _burn(account, id, value);\n    }\n\n    function burnBatch(\n        address account,\n        uint256[] memory ids,\n        uint256[] memory values\n    ) public virtual override(ERC1155Burnable) {\n        require(account == _msgSender() || isApprovedForAll(account, _msgSender()) || hasRole(BURN_ROLE, _msgSender()), \"ERC1155: caller is not owner nor approved\");\n\n        _burnBatch(account, ids, values);\n    }\n\n    function uri(uint256 tokenId) public view virtual override(ERC1155) returns (string memory) {\n        string memory base_uri = super.uri(tokenId);\n        return string(abi.encodePacked(base_uri, tokenId.toString(), \".json\"));\n    }\n}\n",
  "sourcePath": "/Users/wangxi/work/Walnut-V2/nutbox-contract/contracts/NFT/BlessCard.sol",
  "compiler": {
    "name": "solc",
    "version": "0.8.13+commit.abaa5c0e.Emscripten.clang"
  },
  "schemaVersion": "3.3.4",
  "updatedAt": "2024-06-22T08:10:24.887Z",
  "devdoc": {
    "kind": "dev",
    "methods": {
      "balanceOf(address,uint256)": {
        "details": "See {IERC1155-balanceOf}. Requirements: - `account` cannot be the zero address."
      },
      "balanceOfBatch(address[],uint256[])": {
        "details": "See {IERC1155-balanceOfBatch}. Requirements: - `accounts` and `ids` must have the same length."
      },
      "getRoleAdmin(bytes32)": {
        "details": "Returns the admin role that controls `role`. See {grantRole} and {revokeRole}. To change a role's admin, use {_setRoleAdmin}."
      },
      "getRoleMember(bytes32,uint256)": {
        "details": "Returns one of the accounts that have `role`. `index` must be a value between 0 and {getRoleMemberCount}, non-inclusive. Role bearers are not sorted in any particular way, and their ordering may change at any point. WARNING: When using {getRoleMember} and {getRoleMemberCount}, make sure you perform all queries on the same block. See the following https://forum.openzeppelin.com/t/iterating-over-elements-on-enumerableset-in-openzeppelin-contracts/2296[forum post] for more information."
      },
      "getRoleMemberCount(bytes32)": {
        "details": "Returns the number of accounts that have `role`. Can be used together with {getRoleMember} to enumerate all bearers of a role."
      },
      "grantRole(bytes32,address)": {
        "details": "Grants `role` to `account`. If `account` had not been already granted `role`, emits a {RoleGranted} event. Requirements: - the caller must have ``role``'s admin role."
      },
      "hasRole(bytes32,address)": {
        "details": "Returns `true` if `account` has been granted `role`."
      },
      "isApprovedForAll(address,address)": {
        "details": "See {IERC1155-isApprovedForAll}."
      },
      "mint(address,uint256,uint256,bytes)": {
        "details": "Creates `amount` new tokens for `to`, of token type `id`. See {ERC1155-_mint}. Requirements: - the caller must have the `MINTER_ROLE`."
      },
      "mintBatch(address,uint256[],uint256[],bytes)": {
        "details": "xref:ROOT:erc1155.adoc#batch-operations[Batched] variant of {mint}."
      },
      "pause()": {
        "details": "Pauses all token transfers. See {ERC1155Pausable} and {Pausable-_pause}. Requirements: - the caller must have the `PAUSER_ROLE`."
      },
      "paused()": {
        "details": "Returns true if the contract is paused, and false otherwise."
      },
      "renounceRole(bytes32,address)": {
        "details": "Revokes `role` from the calling account. Roles are often managed via {grantRole} and {revokeRole}: this function's purpose is to provide a mechanism for accounts to lose their privileges if they are compromised (such as when a trusted device is misplaced). If the calling account had been revoked `role`, emits a {RoleRevoked} event. Requirements: - the caller must be `account`."
      },
      "revokeRole(bytes32,address)": {
        "details": "Revokes `role` from `account`. If `account` had been granted `role`, emits a {RoleRevoked} event. Requirements: - the caller must have ``role``'s admin role."
      },
      "safeBatchTransferFrom(address,address,uint256[],uint256[],bytes)": {
        "details": "See {IERC1155-safeBatchTransferFrom}."
      },
      "safeTransferFrom(address,address,uint256,uint256,bytes)": {
        "details": "See {IERC1155-safeTransferFrom}."
      },
      "setApprovalForAll(address,bool)": {
        "details": "See {IERC1155-setApprovalForAll}."
      },
      "supportsInterface(bytes4)": {
        "details": "See {IERC165-supportsInterface}."
      },
      "unpause()": {
        "details": "Unpauses all token transfers. See {ERC1155Pausable} and {Pausable-_unpause}. Requirements: - the caller must have the `PAUSER_ROLE`."
      }
    },
    "version": 1
  },
  "userdoc": {
    "kind": "user",
    "methods": {},
    "version": 1
  }
}