{
  "contractName": "BlessCard",
  "abi": [
    {
      "inputs": [
        {
          "internalType": "string",
          "name": "uri_",
          "type": "string"
        }
      ],
      "stateMutability": "nonpayable",
      "type": "constructor"
    },
    {
      "anonymous": false,
      "inputs": [
        {
          "indexed": true,
          "internalType": "address",
          "name": "account",
          "type": "address"
        },
        {
          "indexed": true,
          "internalType": "address",
          "name": "operator",
          "type": "address"
        },
        {
          "indexed": false,
          "internalType": "bool",
          "name": "approved",
          "type": "bool"
        }
      ],
      "name": "ApprovalForAll",
      "type": "event"
    },
    {
      "anonymous": false,
      "inputs": [
        {
          "indexed": false,
          "internalType": "address",
          "name": "account",
          "type": "address"
        }
      ],
      "name": "Paused",
      "type": "event"
    },
    {
      "anonymous": false,
      "inputs": [
        {
          "indexed": true,
          "internalType": "bytes32",
          "name": "role",
          "type": "bytes32"
        },
        {
          "indexed": true,
          "internalType": "bytes32",
          "name": "previousAdminRole",
          "type": "bytes32"
        },
        {
          "indexed": true,
          "internalType": "bytes32",
          "name": "newAdminRole",
          "type": "bytes32"
        }
      ],
      "name": "RoleAdminChanged",
      "type": "event"
    },
    {
      "anonymous": false,
      "inputs": [
        {
          "indexed": true,
          "internalType": "bytes32",
          "name": "role",
          "type": "bytes32"
        },
        {
          "indexed": true,
          "internalType": "address",
          "name": "account",
          "type": "address"
        },
        {
          "indexed": true,
          "internalType": "address",
          "name": "sender",
          "type": "address"
        }
      ],
      "name": "RoleGranted",
      "type": "event"
    },
    {
      "anonymous": false,
      "inputs": [
        {
          "indexed": true,
          "internalType": "bytes32",
          "name": "role",
          "type": "bytes32"
        },
        {
          "indexed": true,
          "internalType": "address",
          "name": "account",
          "type": "address"
        },
        {
          "indexed": true,
          "internalType": "address",
          "name": "sender",
          "type": "address"
        }
      ],
      "name": "RoleRevoked",
      "type": "event"
    },
    {
      "anonymous": false,
      "inputs": [
        {
          "indexed": true,
          "internalType": "address",
          "name": "operator",
          "type": "address"
        },
        {
          "indexed": true,
          "internalType": "address",
          "name": "from",
          "type": "address"
        },
        {
          "indexed": true,
          "internalType": "address",
          "name": "to",
          "type": "address"
        },
        {
          "indexed": false,
          "internalType": "uint256[]",
          "name": "ids",
          "type": "uint256[]"
        },
        {
          "indexed": false,
          "internalType": "uint256[]",
          "name": "values",
          "type": "uint256[]"
        }
      ],
      "name": "TransferBatch",
      "type": "event"
    },
    {
      "anonymous": false,
      "inputs": [
        {
          "indexed": true,
          "internalType": "address",
          "name": "operator",
          "type": "address"
        },
        {
          "indexed": true,
          "internalType": "address",
          "name": "from",
          "type": "address"
        },
        {
          "indexed": true,
          "internalType": "address",
          "name": "to",
          "type": "address"
        },
        {
          "indexed": false,
          "internalType": "uint256",
          "name": "id",
          "type": "uint256"
        },
        {
          "indexed": false,
          "internalType": "uint256",
          "name": "value",
          "type": "uint256"
        }
      ],
      "name": "TransferSingle",
      "type": "event"
    },
    {
      "anonymous": false,
      "inputs": [
        {
          "indexed": false,
          "internalType": "string",
          "name": "value",
          "type": "string"
        },
        {
          "indexed": true,
          "internalType": "uint256",
          "name": "id",
          "type": "uint256"
        }
      ],
      "name": "URI",
      "type": "event"
    },
    {
      "anonymous": false,
      "inputs": [
        {
          "indexed": false,
          "internalType": "address",
          "name": "account",
          "type": "address"
        }
      ],
      "name": "Unpaused",
      "type": "event"
    },
    {
      "inputs": [],
      "name": "BURN_ROLE",
      "outputs": [
        {
          "internalType": "bytes32",
          "name": "",
          "type": "bytes32"
        }
      ],
      "stateMutability": "view",
      "type": "function"
    },
    {
      "inputs": [],
      "name": "DEFAULT_ADMIN_ROLE",
      "outputs": [
        {
          "internalType": "bytes32",
          "name": "",
          "type": "bytes32"
        }
      ],
      "stateMutability": "view",
      "type": "function"
    },
    {
      "inputs": [],
      "name": "MINTER_ROLE",
      "outputs": [
        {
          "internalType": "bytes32",
          "name": "",
          "type": "bytes32"
        }
      ],
      "stateMutability": "view",
      "type": "function"
    },
    {
      "inputs": [],
      "name": "PAUSER_ROLE",
      "outputs": [
        {
          "internalType": "bytes32",
          "name": "",
          "type": "bytes32"
        }
      ],
      "stateMutability": "view",
      "type": "function"
    },
    {
      "inputs": [
        {
          "internalType": "address",
          "name": "account",
          "type": "address"
        },
        {
          "internalType": "uint256",
          "name": "id",
          "type": "uint256"
        }
      ],
      "name": "balanceOf",
      "outputs": [
        {
          "internalType": "uint256",
          "name": "",
          "type": "uint256"
        }
      ],
      "stateMutability": "view",
      "type": "function"
    },
    {
      "inputs": [
        {
          "internalType": "address[]",
          "name": "accounts",
          "type": "address[]"
        },
        {
          "internalType": "uint256[]",
          "name": "ids",
          "type": "uint256[]"
        }
      ],
      "name": "balanceOfBatch",
      "outputs": [
        {
          "internalType": "uint256[]",
          "name": "",
          "type": "uint256[]"
        }
      ],
      "stateMutability": "view",
      "type": "function"
    },
    {
      "inputs": [
        {
          "internalType": "bytes32",
          "name": "role",
          "type": "bytes32"
        }
      ],
      "name": "getRoleAdmin",
      "outputs": [
        {
          "internalType": "bytes32",
          "name": "",
          "type": "bytes32"
        }
      ],
      "stateMutability": "view",
      "type": "function"
    },
    {
      "inputs": [
        {
          "internalType": "bytes32",
          "name": "role",
          "type": "bytes32"
        },
        {
          "internalType": "uint256",
          "name": "index",
          "type": "uint256"
        }
      ],
      "name": "getRoleMember",
      "outputs": [
        {
          "internalType": "address",
          "name": "",
          "type": "address"
        }
      ],
      "stateMutability": "view",
      "type": "function"
    },
    {
      "inputs": [
        {
          "internalType": "bytes32",
          "name": "role",
          "type": "bytes32"
        }
      ],
      "name": "getRoleMemberCount",
      "outputs": [
        {
          "internalType": "uint256",
          "name": "",
          "type": "uint256"
        }
      ],
      "stateMutability": "view",
      "type": "function"
    },
    {
      "inputs": [
        {
          "internalType": "bytes32",
          "name": "role",
          "type": "bytes32"
        },
        {
          "internalType": "address",
          "name": "account",
          "type": "address"
        }
      ],
      "name": "grantRole",
      "outputs": [],
      "stateMutability": "nonpayable",
      "type": "function"
    },
    {
      "inputs": [
        {
          "internalType": "bytes32",
          "name": "role",
          "type": "bytes32"
        },
        {
          "internalType": "address",
          "name": "account",
          "type": "address"
        }
      ],
      "name": "hasRole",
      "outputs": [
        {
          "internalType": "bool",
          "name": "",
          "type": "bool"
        }
      ],
      "stateMutability": "view",
      "type": "function"
    },
    {
      "inputs": [
        {
          "internalType": "address",
          "name": "account",
          "type": "address"
        },
        {
          "internalType": "address",
          "name": "operator",
          "type": "address"
        }
      ],
      "name": "isApprovedForAll",
      "outputs": [
        {
          "internalType": "bool",
          "name": "",
          "type": "bool"
        }
      ],
      "stateMutability": "view",
      "type": "function"
    },
    {
      "inputs": [
        {
          "internalType": "address",
          "name": "to",
          "type": "address"
        },
        {
          "internalType": "uint256",
          "name": "id",
          "type": "uint256"
        },
        {
          "internalType": "uint256",
          "name": "amount",
          "type": "uint256"
        },
        {
          "internalType": "bytes",
          "name": "data",
          "type": "bytes"
        }
      ],
      "name": "mint",
      "outputs": [],
      "stateMutability": "nonpayable",
      "type": "function"
    },
    {
      "inputs": [
        {
          "internalType": "address",
          "name": "to",
          "type": "address"
        },
        {
          "internalType": "uint256[]",
          "name": "ids",
          "type": "uint256[]"
        },
        {
          "internalType": "uint256[]",
          "name": "amounts",
          "type": "uint256[]"
        },
        {
          "internalType": "bytes",
          "name": "data",
          "type": "bytes"
        }
      ],
      "name": "mintBatch",
      "outputs": [],
      "stateMutability": "nonpayable",
      "type": "function"
    },
    {
      "inputs": [],
      "name": "pause",
      "outputs": [],
      "stateMutability": "nonpayable",
      "type": "function"
    },
    {
      "inputs": [],
      "name": "paused",
      "outputs": [
        {
          "internalType": "bool",
          "name": "",
          "type": "bool"
        }
      ],
      "stateMutability": "view",
      "type": "function"
    },
    {
      "inputs": [
        {
          "internalType": "bytes32",
          "name": "role",
          "type": "bytes32"
        },
        {
          "internalType": "address",
          "name": "account",
          "type": "address"
        }
      ],
      "name": "renounceRole",
      "outputs": [],
      "stateMutability": "nonpayable",
      "type": "function"
    },
    {
      "inputs": [
        {
          "internalType": "bytes32",
          "name": "role",
          "type": "bytes32"
        },
        {
          "internalType": "address",
          "name": "account",
          "type": "address"
        }
      ],
      "name": "revokeRole",
      "outputs": [],
      "stateMutability": "nonpayable",
      "type": "function"
    },
    {
      "inputs": [
        {
          "internalType": "address",
          "name": "from",
          "type": "address"
        },
        {
          "internalType": "address",
          "name": "to",
          "type": "address"
        },
        {
          "internalType": "uint256[]",
          "name": "ids",
          "type": "uint256[]"
        },
        {
          "internalType": "uint256[]",
          "name": "amounts",
          "type": "uint256[]"
        },
        {
          "internalType": "bytes",
          "name": "data",
          "type": "bytes"
        }
      ],
      "name": "safeBatchTransferFrom",
      "outputs": [],
      "stateMutability": "nonpayable",
      "type": "function"
    },
    {
      "inputs": [
        {
          "internalType": "address",
          "name": "from",
          "type": "address"
        },
        {
          "internalType": "address",
          "name": "to",
          "type": "address"
        },
        {
          "internalType": "uint256",
          "name": "id",
          "type": "uint256"
        },
        {
          "internalType": "uint256",
          "name": "amount",
          "type": "uint256"
        },
        {
          "internalType": "bytes",
          "name": "data",
          "type": "bytes"
        }
      ],
      "name": "safeTransferFrom",
      "outputs": [],
      "stateMutability": "nonpayable",
      "type": "function"
    },
    {
      "inputs": [
        {
          "internalType": "address",
          "name": "operator",
          "type": "address"
        },
        {
          "internalType": "bool",
          "name": "approved",
          "type": "bool"
        }
      ],
      "name": "setApprovalForAll",
      "outputs": [],
      "stateMutability": "nonpayable",
      "type": "function"
    },
    {
      "inputs": [
        {
          "internalType": "bytes4",
          "name": "interfaceId",
          "type": "bytes4"
        }
      ],
      "name": "supportsInterface",
      "outputs": [
        {
          "internalType": "bool",
          "name": "",
          "type": "bool"
        }
      ],
      "stateMutability": "view",
      "type": "function"
    },
    {
      "inputs": [],
      "name": "unpause",
      "outputs": [],
      "stateMutability": "nonpayable",
      "type": "function"
    },
    {
      "inputs": [
        {
          "internalType": "address",
          "name": "account",
          "type": "address"
        },
        {
          "internalType": "uint256",
          "name": "id",
          "type": "uint256"
        },
        {
          "internalType": "uint256",
          "name": "value",
          "type": "uint256"
        }
      ],
      "name": "burn",
      "outputs": [],
      "stateMutability": "nonpayable",
      "type": "function"
    },
    {
      "inputs": [
        {
          "internalType": "address",
          "name": "account",
          "type": "address"
        },
        {
          "internalType": "uint256[]",
          "name": "ids",
          "type": "uint256[]"
        },
        {
          "internalType": "uint256[]",
          "name": "values",
          "type": "uint256[]"
        }
      ],
      "name": "burnBatch",
      "outputs": [],
      "stateMutability": "nonpayable",
      "type": "function"
    },
    {
      "inputs": [
        {
          "internalType": "uint256",
          "name": "tokenId",
          "type": "uint256"
        }
      ],
      "name": "uri",
      "outputs": [
        {
          "internalType": "string",
          "name": "",
          "type": "string"
        }
      ],
      "stateMutability": "view",
      "type": "function"
    }
  ],
  "bytecode": "0x60806040523480156200001157600080fd5b506040516200305838038062003058833981016040819052620000349162000315565b80806200004181620000e5565b506005805460ff1916905562000059600033620000fe565b620000857f9f2df0fed2c77648de5860a4cc508cd0818c85b8b8a1ab4ceeef8d981c8956a633620000fe565b620000b17f65d7a28e3265b37a6474929f336521b332c1681b933f6cb9f3376673440d862a33620000fe565b50620000de7fe97b137254058bd94f28d2f3eb79e2d34074ffb488d042e3bc958e0a57d2fa2233620000fe565b506200042d565b8051620000fa90600490602084019062000259565b5050565b620000fa82826200011b82826200014760201b62000ad51760201c565b60008281526001602090815260409091206200014291839062000b59620001e7821b17901c565b505050565b6000828152602081815260408083206001600160a01b038516845290915290205460ff16620000fa576000828152602081815260408083206001600160a01b03851684529091529020805460ff19166001179055620001a33390565b6001600160a01b0316816001600160a01b0316837f2f8788117e7eff1d82e926ec794901d17c78024a50270940304540a733656f0d60405160405180910390a45050565b6000620001fe836001600160a01b03841662000207565b90505b92915050565b6000818152600183016020526040812054620002505750815460018181018455600084815260208082209093018490558454848252828601909352604090209190915562000201565b50600062000201565b8280546200026790620003f1565b90600052602060002090601f0160209004810192826200028b5760008555620002d6565b82601f10620002a657805160ff1916838001178555620002d6565b82800160010185558215620002d6579182015b82811115620002d6578251825591602001919060010190620002b9565b50620002e4929150620002e8565b5090565b5b80821115620002e45760008155600101620002e9565b634e487b7160e01b600052604160045260246000fd5b600060208083850312156200032957600080fd5b82516001600160401b03808211156200034157600080fd5b818501915085601f8301126200035657600080fd5b8151818111156200036b576200036b620002ff565b604051601f8201601f19908116603f01168101908382118183101715620003965762000396620002ff565b816040528281528886848701011115620003af57600080fd5b600093505b82841015620003d35784840186015181850187015292850192620003b4565b82841115620003e55760008684830101525b98975050505050505050565b600181811c908216806200040657607f821691505b6020821081036200042757634e487b7160e01b600052602260045260246000fd5b50919050565b612c1b806200043d6000396000f3fe608060405234801561001057600080fd5b506004361061018d5760003560e01c80638456cb59116100de578063ca15c87311610097578063e63ab1e911610071578063e63ab1e91461039a578063e985e9c5146103c1578063f242432a146103fd578063f5298aca1461041057600080fd5b8063ca15c8731461034d578063d539139314610360578063d547741f1461038757600080fd5b80638456cb59146102c55780639010d07c146102cd57806391d14854146102f8578063a217fddf1461030b578063a22cb46514610313578063b930908f1461032657600080fd5b80632f2ff15d1161014b5780634e1273f4116101255780634e1273f4146102745780635c975abb146102945780636b20c4541461029f578063731133e9146102b257600080fd5b80632f2ff15d1461024657806336568abe146102595780633f4ba83a1461026c57600080fd5b8062fdd58e1461019257806301ffc9a7146101b85780630e89341c146101db5780631f7fdffa146101fb578063248a9ca3146102105780632eb2c2d614610233575b600080fd5b6101a56101a0366004611f34565b610423565b6040519081526020015b60405180910390f35b6101cb6101c6366004611f74565b6104be565b60405190151581526020016101af565b6101ee6101e9366004611f91565b6104c9565b6040516101af9190612002565b61020e61020936600461215e565b61050a565b005b6101a561021e366004611f91565b60009081526020819052604090206001015490565b61020e6102413660046121f6565b610562565b61020e61025436600461229f565b6105ae565b61020e61026736600461229f565b6105d8565b61020e610656565b6102876102823660046122cb565b6106fc565b6040516101af91906123d0565b60055460ff166101cb565b61020e6102ad3660046123e3565b610825565b61020e6102c0366004612456565b610898565b61020e6108ea565b6102e06102db3660046124aa565b61098e565b6040516001600160a01b0390911681526020016101af565b6101cb61030636600461229f565b6109ad565b6101a5600081565b61020e6103213660046124cc565b6109d6565b6101a57fe97b137254058bd94f28d2f3eb79e2d34074ffb488d042e3bc958e0a57d2fa2281565b6101a561035b366004611f91565b6109e1565b6101a57f9f2df0fed2c77648de5860a4cc508cd0818c85b8b8a1ab4ceeef8d981c8956a681565b61020e61039536600461229f565b6109f8565b6101a57f65d7a28e3265b37a6474929f336521b332c1681b933f6cb9f3376673440d862a81565b6101cb6103cf366004612508565b6001600160a01b03918216600090815260036020908152604080832093909416825291909152205460ff1690565b61020e61040b366004612532565b610a1d565b61020e61041e366004612596565b610a62565b60006001600160a01b0383166104935760405162461bcd60e51b815260206004820152602a60248201527f455243313135353a2061646472657373207a65726f206973206e6f742061207660448201526930b634b21037bbb732b960b11b60648201526084015b60405180910390fd5b5060008181526002602090815260408083206001600160a01b03861684529091529020545b92915050565b60006104b882610b6e565b606060006104d683610bae565b9050806104e284610c42565b6040516020016104f39291906125c9565b604051602081830303815290604052915050919050565b6105347f9f2df0fed2c77648de5860a4cc508cd0818c85b8b8a1ab4ceeef8d981c8956a6336109ad565b6105505760405162461bcd60e51b815260040161048a90612608565b61055c84848484610cd4565b50505050565b6001600160a01b03851633148061057e575061057e85336103cf565b61059a5760405162461bcd60e51b815260040161048a90612665565b6105a78585858585610e2f565b5050505050565b6000828152602081905260409020600101546105c981610fdc565b6105d38383610fe9565b505050565b6001600160a01b03811633146106485760405162461bcd60e51b815260206004820152602f60248201527f416363657373436f6e74726f6c3a2063616e206f6e6c792072656e6f756e636560448201526e103937b632b9903337b91039b2b63360891b606482015260840161048a565b610652828261100b565b5050565b6106807f65d7a28e3265b37a6474929f336521b332c1681b933f6cb9f3376673440d862a336109ad565b6106f25760405162461bcd60e51b815260206004820152603b60248201527f455243313135355072657365744d696e7465725061757365723a206d7573742060448201527f686176652070617573657220726f6c6520746f20756e70617573650000000000606482015260840161048a565b6106fa61102d565b565b606081518351146107615760405162461bcd60e51b815260206004820152602960248201527f455243313135353a206163636f756e747320616e6420696473206c656e677468604482015268040dad2e6dac2e8c6d60bb1b606482015260840161048a565b600083516001600160401b0381111561077c5761077c612015565b6040519080825280602002602001820160405280156107a5578160200160208202803683370190505b50905060005b845181101561081d576107f08582815181106107c9576107c96126b3565b60200260200101518583815181106107e3576107e36126b3565b6020026020010151610423565b828281518110610802576108026126b3565b6020908102919091010152610816816126df565b90506107ab565b509392505050565b6001600160a01b038316331480610841575061084183336103cf565b8061087157506108717fe97b137254058bd94f28d2f3eb79e2d34074ffb488d042e3bc958e0a57d2fa22336109ad565b61088d5760405162461bcd60e51b815260040161048a906126f8565b6105d383838361107f565b6108c27f9f2df0fed2c77648de5860a4cc508cd0818c85b8b8a1ab4ceeef8d981c8956a6336109ad565b6108de5760405162461bcd60e51b815260040161048a90612608565b61055c8484848461121e565b6109147f65d7a28e3265b37a6474929f336521b332c1681b933f6cb9f3376673440d862a336109ad565b6109865760405162461bcd60e51b815260206004820152603960248201527f455243313135355072657365744d696e7465725061757365723a206d7573742060448201527f686176652070617573657220726f6c6520746f20706175736500000000000000606482015260840161048a565b6106fa611309565b60008281526001602052604081206109a69083611346565b9392505050565b6000918252602082815260408084206001600160a01b0393909316845291905290205460ff1690565b610652338383611352565b60008181526001602052604081206104b890611432565b600082815260208190526040902060010154610a1381610fdc565b6105d3838361100b565b6001600160a01b038516331480610a395750610a3985336103cf565b610a555760405162461bcd60e51b815260040161048a90612665565b6105a7858585858561143c565b6001600160a01b038316331480610a7e5750610a7e83336103cf565b80610aae5750610aae7fe97b137254058bd94f28d2f3eb79e2d34074ffb488d042e3bc958e0a57d2fa22336109ad565b610aca5760405162461bcd60e51b815260040161048a906126f8565b6105d3838383611578565b610adf82826109ad565b610652576000828152602081815260408083206001600160a01b03851684529091529020805460ff19166001179055610b153390565b6001600160a01b0316816001600160a01b0316837f2f8788117e7eff1d82e926ec794901d17c78024a50270940304540a733656f0d60405160405180910390a45050565b60006109a6836001600160a01b038416611694565b60006001600160e01b03198216636cdb3d1360e11b1480610b9f57506001600160e01b031982166303a24d0760e21b145b806104b857506104b8826116e3565b606060048054610bbd90612741565b80601f0160208091040260200160405190810160405280929190818152602001828054610be990612741565b8015610c365780601f10610c0b57610100808354040283529160200191610c36565b820191906000526020600020905b815481529060010190602001808311610c1957829003601f168201915b50505050509050919050565b60606000610c4f83611708565b60010190506000816001600160401b03811115610c6e57610c6e612015565b6040519080825280601f01601f191660200182016040528015610c98576020820181803683370190505b5090508181016020015b600019016f181899199a1a9b1b9c1cb0b131b232b360811b600a86061a8153600a8504945084610ca257509392505050565b6001600160a01b038416610cfa5760405162461bcd60e51b815260040161048a9061277b565b8151835114610d1b5760405162461bcd60e51b815260040161048a906127bc565b33610d2b816000878787876117e0565b60005b8451811015610dc757838181518110610d4957610d496126b3565b602002602001015160026000878481518110610d6757610d676126b3565b602002602001015181526020019081526020016000206000886001600160a01b03166001600160a01b031681526020019081526020016000206000828254610daf9190612804565b90915550819050610dbf816126df565b915050610d2e565b50846001600160a01b031660006001600160a01b0316826001600160a01b03167f4a39dc06d4c0dbc64b70af90fd698a233a518aa5d07e595d983b8c0526c8f7fb8787604051610e1892919061281c565b60405180910390a46105a7816000878787876117ee565b8151835114610e505760405162461bcd60e51b815260040161048a906127bc565b6001600160a01b038416610e765760405162461bcd60e51b815260040161048a9061284a565b33610e858187878787876117e0565b60005b8451811015610f6e576000858281518110610ea557610ea56126b3565b602002602001015190506000858381518110610ec357610ec36126b3565b60209081029190910181015160008481526002835260408082206001600160a01b038e168352909352919091205490915081811015610f145760405162461bcd60e51b815260040161048a9061288f565b60008381526002602090815260408083206001600160a01b038e8116855292528083208585039055908b16825281208054849290610f53908490612804565b9250508190555050505080610f67906126df565b9050610e88565b50846001600160a01b0316866001600160a01b0316826001600160a01b03167f4a39dc06d4c0dbc64b70af90fd698a233a518aa5d07e595d983b8c0526c8f7fb8787604051610fbe92919061281c565b60405180910390a4610fd48187878787876117ee565b505050505050565b610fe68133611949565b50565b610ff38282610ad5565b60008281526001602052604090206105d39082610b59565b61101582826119a2565b60008281526001602052604090206105d39082611a07565b611035611a1c565b6005805460ff191690557f5db9ee0a495bf2e6ff9c91a7834c1ba4fdd244a5e8aa4e537bd38aeae4b073aa335b6040516001600160a01b03909116815260200160405180910390a1565b6001600160a01b0383166110a55760405162461bcd60e51b815260040161048a906128d9565b80518251146110c65760405162461bcd60e51b815260040161048a906127bc565b60003390506110e9818560008686604051806020016040528060008152506117e0565b60005b83518110156111b1576000848281518110611109576111096126b3565b602002602001015190506000848381518110611127576111276126b3565b60209081029190910181015160008481526002835260408082206001600160a01b038c1683529093529190912054909150818110156111785760405162461bcd60e51b815260040161048a9061291c565b60009283526002602090815260408085206001600160a01b038b16865290915290922091039055806111a9816126df565b9150506110ec565b5060006001600160a01b0316846001600160a01b0316826001600160a01b03167f4a39dc06d4c0dbc64b70af90fd698a233a518aa5d07e595d983b8c0526c8f7fb868660405161120292919061281c565b60405180910390a460408051602081019091526000905261055c565b6001600160a01b0384166112445760405162461bcd60e51b815260040161048a9061277b565b33600061125085611a65565b9050600061125d85611a65565b905061126e836000898585896117e0565b60008681526002602090815260408083206001600160a01b038b168452909152812080548792906112a0908490612804565b909155505060408051878152602081018790526001600160a01b03808a1692600092918716917fc3d58168c5ae7397731d063d5bbf3d657854427343f4c083240f7aacaa2d0f62910160405180910390a461130083600089898989611ab0565b50505050505050565b611311611b6b565b6005805460ff191660011790557f62e78cea01bee320cd4e420270b5ea74000d11b0c9f74754ebdbfc544b05a2586110623390565b60006109a68383611bb1565b816001600160a01b0316836001600160a01b0316036113c55760405162461bcd60e51b815260206004820152602960248201527f455243313135353a2073657474696e6720617070726f76616c20737461747573604482015268103337b91039b2b63360b91b606482015260840161048a565b6001600160a01b03838116600081815260036020908152604080832094871680845294825291829020805460ff191686151590811790915591519182527f17307eab39ab6107e8899845ad3d59bd9653f200f220920489ca2b5937696c31910160405180910390a3505050565b60006104b8825490565b6001600160a01b0384166114625760405162461bcd60e51b815260040161048a9061284a565b33600061146e85611a65565b9050600061147b85611a65565b905061148b8389898585896117e0565b60008681526002602090815260408083206001600160a01b038c168452909152902054858110156114ce5760405162461bcd60e51b815260040161048a9061288f565b60008781526002602090815260408083206001600160a01b038d8116855292528083208985039055908a1682528120805488929061150d908490612804565b909155505060408051888152602081018890526001600160a01b03808b16928c821692918816917fc3d58168c5ae7397731d063d5bbf3d657854427343f4c083240f7aacaa2d0f62910160405180910390a461156d848a8a8a8a8a611ab0565b505050505050505050565b6001600160a01b03831661159e5760405162461bcd60e51b815260040161048a906128d9565b3360006115aa84611a65565b905060006115b784611a65565b90506115d7838760008585604051806020016040528060008152506117e0565b60008581526002602090815260408083206001600160a01b038a1684529091529020548481101561161a5760405162461bcd60e51b815260040161048a9061291c565b60008681526002602090815260408083206001600160a01b038b81168086529184528285208a8703905582518b81529384018a90529092908816917fc3d58168c5ae7397731d063d5bbf3d657854427343f4c083240f7aacaa2d0f62910160405180910390a4604080516020810190915260009052611300565b60008181526001830160205260408120546116db575081546001818101845560008481526020808220909301849055845484825282860190935260409020919091556104b8565b5060006104b8565b60006001600160e01b03198216635a05180f60e01b14806104b857506104b882611bdb565b60008072184f03e93ff9f4daa797ed6e38ed64bf6a1f0160401b83106117475772184f03e93ff9f4daa797ed6e38ed64bf6a1f0160401b830492506040015b6d04ee2d6d415b85acef81000000008310611773576d04ee2d6d415b85acef8100000000830492506020015b662386f26fc10000831061179157662386f26fc10000830492506010015b6305f5e10083106117a9576305f5e100830492506008015b61271083106117bd57612710830492506004015b606483106117cf576064830492506002015b600a83106104b85760010192915050565b610fd4868686868686611c10565b6001600160a01b0384163b15610fd45760405163bc197c8160e01b81526001600160a01b0385169063bc197c81906118329089908990889088908890600401612960565b6020604051808303816000875af192505050801561186d575060408051601f3d908101601f1916820190925261186a918101906129be565b60015b611919576118796129db565b806308c379a0036118b2575061188d6129f7565b8061189857506118b4565b8060405162461bcd60e51b815260040161048a9190612002565b505b60405162461bcd60e51b815260206004820152603460248201527f455243313135353a207472616e7366657220746f206e6f6e2d455243313135356044820152732932b1b2b4bb32b91034b6b83632b6b2b73a32b960611b606482015260840161048a565b6001600160e01b0319811663bc197c8160e01b146113005760405162461bcd60e51b815260040161048a90612a80565b61195382826109ad565b6106525761196081611c78565b61196b836020611c8a565b60405160200161197c929190612ac8565b60408051601f198184030181529082905262461bcd60e51b825261048a91600401612002565b6119ac82826109ad565b15610652576000828152602081815260408083206001600160a01b0385168085529252808320805460ff1916905551339285917ff6391f5c32d9c69d2a47ea670b442974b53935d1edc7fd64eb21e047a839171b9190a45050565b60006109a6836001600160a01b038416611e25565b60055460ff166106fa5760405162461bcd60e51b815260206004820152601460248201527314185d5cd8589b194e881b9bdd081c185d5cd95960621b604482015260640161048a565b60408051600180825281830190925260609160009190602080830190803683370190505090508281600081518110611a9f57611a9f6126b3565b602090810291909101015292915050565b6001600160a01b0384163b15610fd45760405163f23a6e6160e01b81526001600160a01b0385169063f23a6e6190611af49089908990889088908890600401612b3d565b6020604051808303816000875af1925050508015611b2f575060408051601f3d908101601f19168201909252611b2c918101906129be565b60015b611b3b576118796129db565b6001600160e01b0319811663f23a6e6160e01b146113005760405162461bcd60e51b815260040161048a90612a80565b60055460ff16156106fa5760405162461bcd60e51b815260206004820152601060248201526f14185d5cd8589b194e881c185d5cd95960821b604482015260640161048a565b6000826000018281548110611bc857611bc86126b3565b9060005260206000200154905092915050565b60006001600160e01b03198216637965db0b60e01b14806104b857506301ffc9a760e01b6001600160e01b03198316146104b8565b60055460ff1615610fd45760405162461bcd60e51b815260206004820152602c60248201527f455243313135355061757361626c653a20746f6b656e207472616e736665722060448201526b1dda1a5b19481c185d5cd95960a21b606482015260840161048a565b60606104b86001600160a01b03831660145b60606000611c99836002612b82565b611ca4906002612804565b6001600160401b03811115611cbb57611cbb612015565b6040519080825280601f01601f191660200182016040528015611ce5576020820181803683370190505b509050600360fc1b81600081518110611d0057611d006126b3565b60200101906001600160f81b031916908160001a905350600f60fb1b81600181518110611d2f57611d2f6126b3565b60200101906001600160f81b031916908160001a9053506000611d53846002612b82565b611d5e906001612804565b90505b6001811115611dd6576f181899199a1a9b1b9c1cb0b131b232b360811b85600f1660108110611d9257611d926126b3565b1a60f81b828281518110611da857611da86126b3565b60200101906001600160f81b031916908160001a90535060049490941c93611dcf81612ba1565b9050611d61565b5083156109a65760405162461bcd60e51b815260206004820181905260248201527f537472696e67733a20686578206c656e67746820696e73756666696369656e74604482015260640161048a565b60008181526001830160205260408120548015611f0e576000611e49600183612bb8565b8554909150600090611e5d90600190612bb8565b9050818114611ec2576000866000018281548110611e7d57611e7d6126b3565b9060005260206000200154905080876000018481548110611ea057611ea06126b3565b6000918252602080832090910192909255918252600188019052604090208390555b8554869080611ed357611ed3612bcf565b6001900381819060005260206000200160009055905585600101600086815260200190815260200160002060009055600193505050506104b8565b60009150506104b8565b80356001600160a01b0381168114611f2f57600080fd5b919050565b60008060408385031215611f4757600080fd5b611f5083611f18565b946020939093013593505050565b6001600160e01b031981168114610fe657600080fd5b600060208284031215611f8657600080fd5b81356109a681611f5e565b600060208284031215611fa357600080fd5b5035919050565b60005b83811015611fc5578181015183820152602001611fad565b8381111561055c5750506000910152565b60008151808452611fee816020860160208601611faa565b601f01601f19169290920160200192915050565b6020815260006109a66020830184611fd6565b634e487b7160e01b600052604160045260246000fd5b601f8201601f191681016001600160401b038111828210171561205057612050612015565b6040525050565b60006001600160401b0382111561207057612070612015565b5060051b60200190565b600082601f83011261208b57600080fd5b8135602061209882612057565b6040516120a5828261202b565b83815260059390931b85018201928281019150868411156120c557600080fd5b8286015b848110156120e057803583529183019183016120c9565b509695505050505050565b600082601f8301126120fc57600080fd5b81356001600160401b0381111561211557612115612015565b60405161212c601f8301601f19166020018261202b565b81815284602083860101111561214157600080fd5b816020850160208301376000918101602001919091529392505050565b6000806000806080858703121561217457600080fd5b61217d85611f18565b935060208501356001600160401b038082111561219957600080fd5b6121a58883890161207a565b945060408701359150808211156121bb57600080fd5b6121c78883890161207a565b935060608701359150808211156121dd57600080fd5b506121ea878288016120eb565b91505092959194509250565b600080600080600060a0868803121561220e57600080fd5b61221786611f18565b945061222560208701611f18565b935060408601356001600160401b038082111561224157600080fd5b61224d89838a0161207a565b9450606088013591508082111561226357600080fd5b61226f89838a0161207a565b9350608088013591508082111561228557600080fd5b50612292888289016120eb565b9150509295509295909350565b600080604083850312156122b257600080fd5b823591506122c260208401611f18565b90509250929050565b600080604083850312156122de57600080fd5b82356001600160401b03808211156122f557600080fd5b818501915085601f83011261230957600080fd5b8135602061231682612057565b604051612323828261202b565b83815260059390931b850182019282810191508984111561234357600080fd5b948201945b838610156123685761235986611f18565b82529482019490820190612348565b9650508601359250508082111561237e57600080fd5b5061238b8582860161207a565b9150509250929050565b600081518084526020808501945080840160005b838110156123c5578151875295820195908201906001016123a9565b509495945050505050565b6020815260006109a66020830184612395565b6000806000606084860312156123f857600080fd5b61240184611f18565b925060208401356001600160401b038082111561241d57600080fd5b6124298783880161207a565b9350604086013591508082111561243f57600080fd5b5061244c8682870161207a565b9150509250925092565b6000806000806080858703121561246c57600080fd5b61247585611f18565b9350602085013592506040850135915060608501356001600160401b0381111561249e57600080fd5b6121ea878288016120eb565b600080604083850312156124bd57600080fd5b50508035926020909101359150565b600080604083850312156124df57600080fd5b6124e883611f18565b9150602083013580151581146124fd57600080fd5b809150509250929050565b6000806040838503121561251b57600080fd5b61252483611f18565b91506122c260208401611f18565b600080600080600060a0868803121561254a57600080fd5b61255386611f18565b945061256160208701611f18565b9350604086013592506060860135915060808601356001600160401b0381111561258a57600080fd5b612292888289016120eb565b6000806000606084860312156125ab57600080fd5b6125b484611f18565b95602085013595506040909401359392505050565b600083516125db818460208801611faa565b8351908301906125ef818360208801611faa565b64173539b7b760d91b9101908152600501949350505050565b60208082526038908201527f455243313135355072657365744d696e7465725061757365723a206d7573742060408201527f68617665206d696e74657220726f6c6520746f206d696e740000000000000000606082015260800190565b6020808252602e908201527f455243313135353a2063616c6c6572206973206e6f7420746f6b656e206f776e60408201526d195c881bdc88185c1c1c9bdd995960921b606082015260800190565b634e487b7160e01b600052603260045260246000fd5b634e487b7160e01b600052601160045260246000fd5b6000600182016126f1576126f16126c9565b5060010190565b60208082526029908201527f455243313135353a2063616c6c6572206973206e6f74206f776e6572206e6f7260408201526808185c1c1c9bdd995960ba1b606082015260800190565b600181811c9082168061275557607f821691505b60208210810361277557634e487b7160e01b600052602260045260246000fd5b50919050565b60208082526021908201527f455243313135353a206d696e7420746f20746865207a65726f206164647265736040820152607360f81b606082015260800190565b60208082526028908201527f455243313135353a2069647320616e6420616d6f756e7473206c656e677468206040820152670dad2e6dac2e8c6d60c31b606082015260800190565b60008219821115612817576128176126c9565b500190565b60408152600061282f6040830185612395565b82810360208401526128418185612395565b95945050505050565b60208082526025908201527f455243313135353a207472616e7366657220746f20746865207a65726f206164604082015264647265737360d81b606082015260800190565b6020808252602a908201527f455243313135353a20696e73756666696369656e742062616c616e636520666f60408201526939103a3930b739b332b960b11b606082015260800190565b60208082526023908201527f455243313135353a206275726e2066726f6d20746865207a65726f206164647260408201526265737360e81b606082015260800190565b60208082526024908201527f455243313135353a206275726e20616d6f756e7420657863656564732062616c604082015263616e636560e01b606082015260800190565b6001600160a01b0386811682528516602082015260a06040820181905260009061298c90830186612395565b828103606084015261299e8186612395565b905082810360808401526129b28185611fd6565b98975050505050505050565b6000602082840312156129d057600080fd5b81516109a681611f5e565b600060033d11156129f45760046000803e5060005160e01c5b90565b600060443d1015612a055790565b6040516003193d81016004833e81513d6001600160401b038160248401118184111715612a3457505050505090565b8285019150815181811115612a4c5750505050505090565b843d8701016020828501011115612a665750505050505090565b612a756020828601018761202b565b509095945050505050565b60208082526028908201527f455243313135353a204552433131353552656365697665722072656a656374656040820152676420746f6b656e7360c01b606082015260800190565b7f416363657373436f6e74726f6c3a206163636f756e7420000000000000000000815260008351612b00816017850160208801611faa565b7001034b99036b4b9b9b4b733903937b6329607d1b6017918401918201528351612b31816028840160208801611faa565b01602801949350505050565b6001600160a01b03868116825285166020820152604081018490526060810183905260a060808201819052600090612b7790830184611fd6565b979650505050505050565b6000816000190483118215151615612b9c57612b9c6126c9565b500290565b600081612bb057612bb06126c9565b506000190190565b600082821015612bca57612bca6126c9565b500390565b634e487b7160e01b600052603160045260246000fdfea2646970667358221220abe4fb5543e221f349191e47be962b12102f1eb7192d012fd3e734f9931bcdd264736f6c634300080d0033",
  "immutableReferences": {},
  "source": "//SPDX-License-Identifier: MIT\npragma solidity ^0.8.0;\npragma experimental ABIEncoderV2;\n\nimport \"@openzeppelin/contracts/token/ERC1155/presets/ERC1155PresetMinterPauser.sol\";\nimport \"@openzeppelin/contracts/utils/Strings.sol\";\n\ncontract BlessCard is ERC1155PresetMinterPauser {\n    using Strings for uint256;\n    bytes32 public constant BURN_ROLE = keccak256(\"BURN_ROLE\");\n\n    constructor(string memory uri_) ERC1155PresetMinterPauser(uri_) {\n        _setupRole(BURN_ROLE, _msgSender());\n    }\n\n    function burn(\n        address account,\n        uint256 id,\n        uint256 value\n    ) public virtual override(ERC1155Burnable) {\n        require(account == _msgSender() || isApprovedForAll(account, _msgSender()) || hasRole(BURN_ROLE, _msgSender()), \"ERC1155: caller is not owner nor approved\");\n\n        _burn(account, id, value);\n    }\n\n    function burnBatch(\n        address account,\n        uint256[] memory ids,\n        uint256[] memory values\n    ) public virtual override(ERC1155Burnable) {\n        require(account == _msgSender() || isApprovedForAll(account, _msgSender()) || hasRole(BURN_ROLE, _msgSender()), \"ERC1155: caller is not owner nor approved\");\n\n        _burnBatch(account, ids, values);\n    }\n\n    function uri(uint256 tokenId) public view virtual override(ERC1155) returns (string memory) {\n        string memory base_uri = super.uri(tokenId);\n        return string(abi.encodePacked(base_uri, tokenId.toString(), \".json\"));\n    }\n}\n",
  "sourcePath": "/Users/wangxi/work/Walnut-V2/nutbox-contract/contracts/NFT/BlessCard.sol",
  "compiler": {
    "name": "solc",
    "version": "0.8.13+commit.abaa5c0e.Emscripten.clang"
  },
  "schemaVersion": "3.3.4",
  "updatedAt": "2024-06-25T07:57:02.086Z",
  "devdoc": {
    "kind": "dev",
    "methods": {
      "balanceOf(address,uint256)": {
        "details": "See {IERC1155-balanceOf}. Requirements: - `account` cannot be the zero address."
      },
      "balanceOfBatch(address[],uint256[])": {
        "details": "See {IERC1155-balanceOfBatch}. Requirements: - `accounts` and `ids` must have the same length."
      },
      "getRoleAdmin(bytes32)": {
        "details": "Returns the admin role that controls `role`. See {grantRole} and {revokeRole}. To change a role's admin, use {_setRoleAdmin}."
      },
      "getRoleMember(bytes32,uint256)": {
        "details": "Returns one of the accounts that have `role`. `index` must be a value between 0 and {getRoleMemberCount}, non-inclusive. Role bearers are not sorted in any particular way, and their ordering may change at any point. WARNING: When using {getRoleMember} and {getRoleMemberCount}, make sure you perform all queries on the same block. See the following https://forum.openzeppelin.com/t/iterating-over-elements-on-enumerableset-in-openzeppelin-contracts/2296[forum post] for more information."
      },
      "getRoleMemberCount(bytes32)": {
        "details": "Returns the number of accounts that have `role`. Can be used together with {getRoleMember} to enumerate all bearers of a role."
      },
      "grantRole(bytes32,address)": {
        "details": "Grants `role` to `account`. If `account` had not been already granted `role`, emits a {RoleGranted} event. Requirements: - the caller must have ``role``'s admin role. May emit a {RoleGranted} event."
      },
      "hasRole(bytes32,address)": {
        "details": "Returns `true` if `account` has been granted `role`."
      },
      "isApprovedForAll(address,address)": {
        "details": "See {IERC1155-isApprovedForAll}."
      },
      "mint(address,uint256,uint256,bytes)": {
        "details": "Creates `amount` new tokens for `to`, of token type `id`. See {ERC1155-_mint}. Requirements: - the caller must have the `MINTER_ROLE`."
      },
      "mintBatch(address,uint256[],uint256[],bytes)": {
        "details": "xref:ROOT:erc1155.adoc#batch-operations[Batched] variant of {mint}."
      },
      "pause()": {
        "details": "Pauses all token transfers. See {ERC1155Pausable} and {Pausable-_pause}. Requirements: - the caller must have the `PAUSER_ROLE`."
      },
      "paused()": {
        "details": "Returns true if the contract is paused, and false otherwise."
      },
      "renounceRole(bytes32,address)": {
        "details": "Revokes `role` from the calling account. Roles are often managed via {grantRole} and {revokeRole}: this function's purpose is to provide a mechanism for accounts to lose their privileges if they are compromised (such as when a trusted device is misplaced). If the calling account had been revoked `role`, emits a {RoleRevoked} event. Requirements: - the caller must be `account`. May emit a {RoleRevoked} event."
      },
      "revokeRole(bytes32,address)": {
        "details": "Revokes `role` from `account`. If `account` had been granted `role`, emits a {RoleRevoked} event. Requirements: - the caller must have ``role``'s admin role. May emit a {RoleRevoked} event."
      },
      "safeBatchTransferFrom(address,address,uint256[],uint256[],bytes)": {
        "details": "See {IERC1155-safeBatchTransferFrom}."
      },
      "safeTransferFrom(address,address,uint256,uint256,bytes)": {
        "details": "See {IERC1155-safeTransferFrom}."
      },
      "setApprovalForAll(address,bool)": {
        "details": "See {IERC1155-setApprovalForAll}."
      },
      "supportsInterface(bytes4)": {
        "details": "See {IERC165-supportsInterface}."
      },
      "unpause()": {
        "details": "Unpauses all token transfers. See {ERC1155Pausable} and {Pausable-_unpause}. Requirements: - the caller must have the `PAUSER_ROLE`."
      }
    },
    "version": 1
  },
  "userdoc": {
    "kind": "user",
    "methods": {},
    "version": 1
  }
}