{
  "contractName": "Block",
  "abi": [
    {
      "inputs": [],
      "stateMutability": "nonpayable",
      "type": "constructor"
    },
    {
      "inputs": [],
      "name": "getBlock",
      "outputs": [
        {
          "internalType": "uint256",
          "name": "",
          "type": "uint256"
        }
      ],
      "stateMutability": "view",
      "type": "function"
    },
    {
      "inputs": [],
      "name": "getArbBlock",
      "outputs": [
        {
          "internalType": "uint256",
          "name": "",
          "type": "uint256"
        }
      ],
      "stateMutability": "view",
      "type": "function"
    }
  ],
  "bytecode": "0x608060405234801561001057600080fd5b50610126806100206000396000f3fe6080604052348015600f57600080fd5b506004361060325760003560e01c80632e97766d146037578063a46bfbe4146051575b600080fd5b603d6057565b6040516048919060e7565b60405180910390f35b603d605b565b4390565b600060646001600160a01b031663a3b1b31d6040518163ffffffff1660e01b815260040160206040518083038186803b158015609657600080fd5b505afa15801560a9573d6000803e3d6000fd5b505050506040513d601f19601f8201168201806040525081019060cb919060d0565b905090565b60006020828403121560e0578081fd5b5051919050565b9081526020019056fea2646970667358221220849b6249dacc0df3cbc0f70d72e6f0185e8668acee05ec58ffb14324230c5e8864736f6c63430008000033",
  "immutableReferences": {},
  "source": "// SPDX-License-Identifier: MIT\n\npragma solidity 0.8.0;\n/**\n* @title Precompiled contract that exists in every Arbitrum chain at address(100), 0x0000000000000000000000000000000000000064. Exposes a variety of system-level functionality.\n */\ninterface ArbSys {\n    /**\n    * @notice Get internal version number identifying an ArbOS build\n    * @return version number as int\n     */\n    function arbOSVersion() external pure returns (uint);\n\n    /**\n    * @notice Get Arbitrum block number (distinct from L1 block number; Arbitrum genesis block has block number 0)\n    * @return block number as int\n     */\n    function arbBlockNumber() external view returns (uint);\n\n    /**\n    * @notice Send given amount of Eth to dest from sender.\n    * This is a convenience function, which is equivalent to calling sendTxToL1 with empty calldataForL1.\n    * @param destination recipient address on L1\n    * @return unique identifier for this L2-to-L1 transaction.\n    */\n    function withdrawEth(address destination) external payable returns(uint);\n\n    /**\n    * @notice Send a transaction to L1\n    * @param destination recipient address on L1\n    * @param calldataForL1 (optional) calldata for L1 contract call\n    * @return a unique identifier for this L2-to-L1 transaction.\n    */\n    function sendTxToL1(address destination, bytes calldata calldataForL1) external payable returns(uint);\n\n\n\n    /**\n    * @notice get the number of transactions issued by the given external account or the account sequence number of the given contract\n    * @param account target account\n    * @return the number of transactions issued by the given external account or the account sequence number of the given contract\n    */\n    function getTransactionCount(address account) external view returns(uint256);\n\n    /**\n    * @notice get the value of target L2 storage slot\n    * This function is only callable from address 0 to prevent contracts from being able to call it\n    * @param account target account\n    * @param index target index of storage slot\n    * @return stotage value for the given account at the given index\n    */\n    function getStorageAt(address account, uint256 index) external view returns (uint256);\n\n    /**\n    * @notice check if current call is coming from l1\n    * @return true if the caller of this was called directly from L1\n    */\n    function isTopLevelCall() external view returns (bool);\n\n    event EthWithdrawal(address indexed destAddr, uint amount);\n\n    event L2ToL1Transaction(address caller, address indexed destination, uint indexed uniqueId,\n                            uint indexed batchNumber, uint indexInBatch,\n                            uint arbBlockNum, uint ethBlockNum, uint timestamp,\n                            uint callvalue, bytes data);\n}\n\n\ncontract Block{\n    constructor(){}\n\n    function getBlock() public view returns (uint256) {\n        return block.number;\n    }\n\n    function getArbBlock() public view returns (uint256) {\n        return ArbSys(address(100)).arbBlockNumber();\n    }\n}",
  "sourcePath": "/Users/wangxi/work/Walnut-V2/nutbox-contract/contracts/calculators/Block.sol",
  "compiler": {
    "name": "solc",
    "version": "0.8.0+commit.c7dfd78e.Emscripten.clang"
  },
  "schemaVersion": "3.4.14",
  "updatedAt": "2024-06-20T15:00:49.654Z",
  "devdoc": {
    "kind": "dev",
    "methods": {},
    "version": 1
  },
  "userdoc": {
    "kind": "user",
    "methods": {},
    "version": 1
  }
}