{
  "contractName": "BSP",
  "abi": [
    {
      "inputs": [],
      "stateMutability": "nonpayable",
      "type": "constructor"
    },
    {
      "anonymous": false,
      "inputs": [
        {
          "indexed": true,
          "internalType": "address",
          "name": "owner",
          "type": "address"
        },
        {
          "indexed": true,
          "internalType": "address",
          "name": "spender",
          "type": "address"
        },
        {
          "indexed": false,
          "internalType": "uint256",
          "name": "value",
          "type": "uint256"
        }
      ],
      "name": "Approval",
      "type": "event"
    },
    {
      "anonymous": false,
      "inputs": [
        {
          "indexed": false,
          "internalType": "string",
          "name": "steemAccount",
          "type": "string"
        },
        {
          "indexed": true,
          "internalType": "address",
          "name": "to",
          "type": "address"
        },
        {
          "indexed": true,
          "internalType": "uint256",
          "name": "amount",
          "type": "uint256"
        }
      ],
      "name": "BSPToSteem",
      "type": "event"
    },
    {
      "anonymous": false,
      "inputs": [
        {
          "indexed": true,
          "internalType": "address",
          "name": "previousOwner",
          "type": "address"
        },
        {
          "indexed": true,
          "internalType": "address",
          "name": "newOwner",
          "type": "address"
        }
      ],
      "name": "OwnershipTransferred",
      "type": "event"
    },
    {
      "anonymous": false,
      "inputs": [
        {
          "indexed": true,
          "internalType": "bytes32",
          "name": "role",
          "type": "bytes32"
        },
        {
          "indexed": true,
          "internalType": "bytes32",
          "name": "previousAdminRole",
          "type": "bytes32"
        },
        {
          "indexed": true,
          "internalType": "bytes32",
          "name": "newAdminRole",
          "type": "bytes32"
        }
      ],
      "name": "RoleAdminChanged",
      "type": "event"
    },
    {
      "anonymous": false,
      "inputs": [
        {
          "indexed": true,
          "internalType": "bytes32",
          "name": "role",
          "type": "bytes32"
        },
        {
          "indexed": true,
          "internalType": "address",
          "name": "account",
          "type": "address"
        },
        {
          "indexed": true,
          "internalType": "address",
          "name": "sender",
          "type": "address"
        }
      ],
      "name": "RoleGranted",
      "type": "event"
    },
    {
      "anonymous": false,
      "inputs": [
        {
          "indexed": true,
          "internalType": "bytes32",
          "name": "role",
          "type": "bytes32"
        },
        {
          "indexed": true,
          "internalType": "address",
          "name": "account",
          "type": "address"
        },
        {
          "indexed": true,
          "internalType": "address",
          "name": "sender",
          "type": "address"
        }
      ],
      "name": "RoleRevoked",
      "type": "event"
    },
    {
      "anonymous": false,
      "inputs": [
        {
          "indexed": false,
          "internalType": "string",
          "name": "steemAccount",
          "type": "string"
        },
        {
          "indexed": true,
          "internalType": "address",
          "name": "to",
          "type": "address"
        },
        {
          "indexed": true,
          "internalType": "uint256",
          "name": "amount",
          "type": "uint256"
        }
      ],
      "name": "SteemToBSP",
      "type": "event"
    },
    {
      "anonymous": false,
      "inputs": [
        {
          "indexed": true,
          "internalType": "address",
          "name": "from",
          "type": "address"
        },
        {
          "indexed": true,
          "internalType": "address",
          "name": "to",
          "type": "address"
        },
        {
          "indexed": false,
          "internalType": "uint256",
          "name": "value",
          "type": "uint256"
        }
      ],
      "name": "Transfer",
      "type": "event"
    },
    {
      "inputs": [],
      "name": "DEFAULT_ADMIN_ROLE",
      "outputs": [
        {
          "internalType": "bytes32",
          "name": "",
          "type": "bytes32"
        }
      ],
      "stateMutability": "view",
      "type": "function"
    },
    {
      "inputs": [],
      "name": "MINTER_ROLE",
      "outputs": [
        {
          "internalType": "bytes32",
          "name": "",
          "type": "bytes32"
        }
      ],
      "stateMutability": "view",
      "type": "function"
    },
    {
      "inputs": [
        {
          "internalType": "address",
          "name": "owner",
          "type": "address"
        },
        {
          "internalType": "address",
          "name": "spender",
          "type": "address"
        }
      ],
      "name": "allowance",
      "outputs": [
        {
          "internalType": "uint256",
          "name": "",
          "type": "uint256"
        }
      ],
      "stateMutability": "view",
      "type": "function"
    },
    {
      "inputs": [
        {
          "internalType": "address",
          "name": "spender",
          "type": "address"
        },
        {
          "internalType": "uint256",
          "name": "amount",
          "type": "uint256"
        }
      ],
      "name": "approve",
      "outputs": [
        {
          "internalType": "bool",
          "name": "",
          "type": "bool"
        }
      ],
      "stateMutability": "nonpayable",
      "type": "function"
    },
    {
      "inputs": [
        {
          "internalType": "address",
          "name": "account",
          "type": "address"
        }
      ],
      "name": "balanceOf",
      "outputs": [
        {
          "internalType": "uint256",
          "name": "",
          "type": "uint256"
        }
      ],
      "stateMutability": "view",
      "type": "function"
    },
    {
      "inputs": [
        {
          "internalType": "uint256",
          "name": "amount",
          "type": "uint256"
        }
      ],
      "name": "burn",
      "outputs": [],
      "stateMutability": "nonpayable",
      "type": "function"
    },
    {
      "inputs": [
        {
          "internalType": "address",
          "name": "account",
          "type": "address"
        },
        {
          "internalType": "uint256",
          "name": "amount",
          "type": "uint256"
        }
      ],
      "name": "burnFrom",
      "outputs": [],
      "stateMutability": "nonpayable",
      "type": "function"
    },
    {
      "inputs": [],
      "name": "decimals",
      "outputs": [
        {
          "internalType": "uint8",
          "name": "",
          "type": "uint8"
        }
      ],
      "stateMutability": "view",
      "type": "function"
    },
    {
      "inputs": [
        {
          "internalType": "address",
          "name": "spender",
          "type": "address"
        },
        {
          "internalType": "uint256",
          "name": "subtractedValue",
          "type": "uint256"
        }
      ],
      "name": "decreaseAllowance",
      "outputs": [
        {
          "internalType": "bool",
          "name": "",
          "type": "bool"
        }
      ],
      "stateMutability": "nonpayable",
      "type": "function"
    },
    {
      "inputs": [
        {
          "internalType": "bytes32",
          "name": "role",
          "type": "bytes32"
        }
      ],
      "name": "getRoleAdmin",
      "outputs": [
        {
          "internalType": "bytes32",
          "name": "",
          "type": "bytes32"
        }
      ],
      "stateMutability": "view",
      "type": "function"
    },
    {
      "inputs": [
        {
          "internalType": "bytes32",
          "name": "role",
          "type": "bytes32"
        },
        {
          "internalType": "uint256",
          "name": "index",
          "type": "uint256"
        }
      ],
      "name": "getRoleMember",
      "outputs": [
        {
          "internalType": "address",
          "name": "",
          "type": "address"
        }
      ],
      "stateMutability": "view",
      "type": "function"
    },
    {
      "inputs": [
        {
          "internalType": "bytes32",
          "name": "role",
          "type": "bytes32"
        }
      ],
      "name": "getRoleMemberCount",
      "outputs": [
        {
          "internalType": "uint256",
          "name": "",
          "type": "uint256"
        }
      ],
      "stateMutability": "view",
      "type": "function"
    },
    {
      "inputs": [
        {
          "internalType": "bytes32",
          "name": "role",
          "type": "bytes32"
        },
        {
          "internalType": "address",
          "name": "account",
          "type": "address"
        }
      ],
      "name": "grantRole",
      "outputs": [],
      "stateMutability": "nonpayable",
      "type": "function"
    },
    {
      "inputs": [
        {
          "internalType": "bytes32",
          "name": "role",
          "type": "bytes32"
        },
        {
          "internalType": "address",
          "name": "account",
          "type": "address"
        }
      ],
      "name": "hasRole",
      "outputs": [
        {
          "internalType": "bool",
          "name": "",
          "type": "bool"
        }
      ],
      "stateMutability": "view",
      "type": "function"
    },
    {
      "inputs": [
        {
          "internalType": "address",
          "name": "spender",
          "type": "address"
        },
        {
          "internalType": "uint256",
          "name": "addedValue",
          "type": "uint256"
        }
      ],
      "name": "increaseAllowance",
      "outputs": [
        {
          "internalType": "bool",
          "name": "",
          "type": "bool"
        }
      ],
      "stateMutability": "nonpayable",
      "type": "function"
    },
    {
      "inputs": [],
      "name": "name",
      "outputs": [
        {
          "internalType": "string",
          "name": "",
          "type": "string"
        }
      ],
      "stateMutability": "view",
      "type": "function"
    },
    {
      "inputs": [],
      "name": "owner",
      "outputs": [
        {
          "internalType": "address",
          "name": "",
          "type": "address"
        }
      ],
      "stateMutability": "view",
      "type": "function"
    },
    {
      "inputs": [],
      "name": "renounceOwnership",
      "outputs": [],
      "stateMutability": "nonpayable",
      "type": "function"
    },
    {
      "inputs": [
        {
          "internalType": "bytes32",
          "name": "role",
          "type": "bytes32"
        },
        {
          "internalType": "address",
          "name": "account",
          "type": "address"
        }
      ],
      "name": "renounceRole",
      "outputs": [],
      "stateMutability": "nonpayable",
      "type": "function"
    },
    {
      "inputs": [
        {
          "internalType": "bytes32",
          "name": "role",
          "type": "bytes32"
        },
        {
          "internalType": "address",
          "name": "account",
          "type": "address"
        }
      ],
      "name": "revokeRole",
      "outputs": [],
      "stateMutability": "nonpayable",
      "type": "function"
    },
    {
      "inputs": [
        {
          "internalType": "bytes4",
          "name": "interfaceId",
          "type": "bytes4"
        }
      ],
      "name": "supportsInterface",
      "outputs": [
        {
          "internalType": "bool",
          "name": "",
          "type": "bool"
        }
      ],
      "stateMutability": "view",
      "type": "function"
    },
    {
      "inputs": [],
      "name": "symbol",
      "outputs": [
        {
          "internalType": "string",
          "name": "",
          "type": "string"
        }
      ],
      "stateMutability": "view",
      "type": "function"
    },
    {
      "inputs": [],
      "name": "totalSupply",
      "outputs": [
        {
          "internalType": "uint256",
          "name": "",
          "type": "uint256"
        }
      ],
      "stateMutability": "view",
      "type": "function"
    },
    {
      "inputs": [
        {
          "internalType": "address",
          "name": "recipient",
          "type": "address"
        },
        {
          "internalType": "uint256",
          "name": "amount",
          "type": "uint256"
        }
      ],
      "name": "transfer",
      "outputs": [
        {
          "internalType": "bool",
          "name": "",
          "type": "bool"
        }
      ],
      "stateMutability": "nonpayable",
      "type": "function"
    },
    {
      "inputs": [
        {
          "internalType": "address",
          "name": "sender",
          "type": "address"
        },
        {
          "internalType": "address",
          "name": "recipient",
          "type": "address"
        },
        {
          "internalType": "uint256",
          "name": "amount",
          "type": "uint256"
        }
      ],
      "name": "transferFrom",
      "outputs": [
        {
          "internalType": "bool",
          "name": "",
          "type": "bool"
        }
      ],
      "stateMutability": "nonpayable",
      "type": "function"
    },
    {
      "inputs": [
        {
          "internalType": "address",
          "name": "newOwner",
          "type": "address"
        }
      ],
      "name": "transferOwnership",
      "outputs": [],
      "stateMutability": "nonpayable",
      "type": "function"
    },
    {
      "inputs": [
        {
          "internalType": "string",
          "name": "steem",
          "type": "string"
        },
        {
          "internalType": "address",
          "name": "to",
          "type": "address"
        },
        {
          "internalType": "uint256",
          "name": "amount",
          "type": "uint256"
        }
      ],
      "name": "steemToBsp",
      "outputs": [],
      "stateMutability": "nonpayable",
      "type": "function"
    },
    {
      "inputs": [
        {
          "internalType": "string",
          "name": "steem",
          "type": "string"
        },
        {
          "internalType": "uint256",
          "name": "amount",
          "type": "uint256"
        }
      ],
      "name": "bspToSteem",
      "outputs": [],
      "stateMutability": "nonpayable",
      "type": "function"
    }
  ],
  "bytecode": "0x60806040523480156200001157600080fd5b506040518060400160405280600f81526020017f42534320535445455020504f57455200000000000000000000000000000000008152506040518060400160405280600381526020017f425350000000000000000000000000000000000000000000000000000000000081525062000098620000926200011360201b60201c565b62000117565b8151620000ad906006906020850190620002f9565b508051620000c3906007906020840190620002f9565b50620000de915060009050620000d862000113565b62000167565b6200010d7f9f2df0fed2c77648de5860a4cc508cd0818c85b8b8a1ab4ceeef8d981c8956a6620000d862000113565b620003f5565b3390565b600080546001600160a01b038381166001600160a01b0319831681178455604051919092169283917f8be0079c531659141344cd1fd0a4f28419497f9722a3daafe3b4186f6b6457e09190a35050565b62000173828262000177565b5050565b6200018e8282620001ba60201b620009a61760201c565b6000828152600260209081526040909120620001b591839062000a2e62000247821b17901c565b505050565b620001c6828262000267565b620001735760008281526001602081815260408084206001600160a01b0386168552909152909120805460ff191690911790556200020362000113565b6001600160a01b0316816001600160a01b0316837f2f8788117e7eff1d82e926ec794901d17c78024a50270940304540a733656f0d60405160405180910390a45050565b60006200025e836001600160a01b03841662000292565b90505b92915050565b60009182526001602090815260408084206001600160a01b0393909316845291905290205460ff1690565b6000620002a08383620002e1565b620002d85750815460018181018455600084815260208082209093018490558454848252828601909352604090209190915562000261565b50600062000261565b60009081526001919091016020526040902054151590565b82805462000307906200039f565b90600052602060002090601f0160209004810192826200032b576000855562000376565b82601f106200034657805160ff191683800117855562000376565b8280016001018555821562000376579182015b828111156200037657825182559160200191906001019062000359565b506200038492915062000388565b5090565b5b8082111562000384576000815560010162000389565b600281046001821680620003b457607f821691505b60208210811415620003ef577f4e487b7100000000000000000000000000000000000000000000000000000000600052602260045260246000fd5b50919050565b611b9080620004056000396000f3fe608060405234801561001057600080fd5b50600436106101c45760003560e01c806379cc6790116100f9578063a9059cbb11610097578063d547741f11610071578063d547741f14610385578063dd62ed3e14610398578063f2fde38b146103ab578063f8bb18bf146103be576101c4565b8063a9059cbb14610357578063ca15c8731461036a578063d53913931461037d576101c4565b806391d14854116100d357806391d148541461032157806395d89b4114610334578063a217fddf1461033c578063a457c2d714610344576101c4565b806379cc6790146102e65780638da5cb5b146102f95780639010d07c1461030e576101c4565b8063313ce567116101665780633a72ff2a116101405780633a72ff2a146102a557806342966c68146102b857806370a08231146102cb578063715018a6146102de576101c4565b8063313ce5671461026a57806336568abe1461027f5780633950935114610292576101c4565b806318160ddd116101a257806318160ddd1461021a57806323b872dd1461022f578063248a9ca3146102425780632f2ff15d14610255576101c4565b806301ffc9a7146101c957806306fdde03146101f2578063095ea7b314610207575b600080fd5b6101dc6101d73660046114c8565b6103d1565b6040516101e99190611601565b60405180910390f35b6101fa6103fe565b6040516101e99190611615565b6101dc610215366004611444565b610490565b6102226104ae565b6040516101e9919061160c565b6101dc61023d366004611409565b6104b4565b61022261025036600461146d565b61054d565b610268610263366004611485565b610563565b005b61027261058c565b6040516101e99190611a54565b61026861028d366004611485565b610591565b6101dc6102a0366004611444565b6105d7565b6102686102b33660046114f0565b61062b565b6102686102c636600461146d565b6106a2565b6102226102d93660046113bd565b6106b6565b6102686106d1565b6102686102f4366004611444565b61071c565b61030161076a565b6040516101e991906115ed565b61030161031c3660046114a7565b610779565b6101dc61032f366004611485565b610798565b6101fa6107c3565b6102226107d2565b6101dc610352366004611444565b6107d7565b6101dc610365366004611444565b610850565b61022261037836600461146d565b610864565b61022261087b565b610268610393366004611485565b61089f565b6102226103a63660046113d7565b6108be565b6102686103b93660046113bd565b6108e9565b6102686103cc366004611535565b610957565b60006001600160e01b03198216635a05180f60e01b14806103f657506103f682610a43565b90505b919050565b60606006805461040d90611af3565b80601f016020809104026020016040519081016040528092919081815260200182805461043990611af3565b80156104865780601f1061045b57610100808354040283529160200191610486565b820191906000526020600020905b81548152906001019060200180831161046957829003601f168201915b5050505050905090565b60006104a461049d610a68565b8484610a6c565b5060015b92915050565b60055490565b60006104c1848484610b13565b6001600160a01b0384166000908152600460205260408120816104e2610a68565b6001600160a01b03166001600160a01b031681526020019081526020016000205490508281101561052e5760405162461bcd60e51b8152600401610525906117fe565b60405180910390fd5b6105428561053a610a68565b858403610a6c565b506001949350505050565b6000908152600160208190526040909120015490565b61056c8261054d565b61057d81610578610a68565b610c3d565b6105878383610ca1565b505050565b601290565b610599610a68565b6001600160a01b0316816001600160a01b0316146105c95760405162461bcd60e51b8152600401610525906119ce565b6105d38282610cc3565b5050565b60006104a46105e4610a68565b8484600460006105f2610a68565b6001600160a01b03908116825260208083019390935260409182016000908120918b16815292529020546106269190611a62565b610a6c565b6001600160a01b0382166106515760405162461bcd60e51b8152600401610525906116c0565b61065b8282610ce5565b80826001600160a01b03167fe1477fff9d803b9b91b8ef1f736f529bed180393e49b125bfec013e48f8da7c8856040516106959190611615565b60405180910390a3505050565b6106b36106ad610a68565b82610dad565b50565b6001600160a01b031660009081526003602052604090205490565b6106d9610a68565b6001600160a01b03166106ea61076a565b6001600160a01b0316146107105760405162461bcd60e51b815260040161052590611846565b61071a6000610e9e565b565b600061072a836103a6610a68565b90508181101561074c5760405162461bcd60e51b81526004016105259061187b565b61076083610758610a68565b848403610a6c565b6105878383610dad565b6000546001600160a01b031690565b60008281526002602052604081206107919083610eee565b9392505050565b60009182526001602090815260408084206001600160a01b0393909316845291905290205460ff1690565b60606007805461040d90611af3565b600081565b600080600460006107e6610a68565b6001600160a01b03908116825260208083019390935260409182016000908120918816815292529020549050828110156108325760405162461bcd60e51b815260040161052590611989565b61084661083d610a68565b85858403610a6c565b5060019392505050565b60006104a461085d610a68565b8484610b13565b60008181526002602052604081206103f690610efa565b7f9f2df0fed2c77648de5860a4cc508cd0818c85b8b8a1ab4ceeef8d981c8956a681565b6108a88261054d565b6108b481610578610a68565b6105878383610cc3565b6001600160a01b03918216600090815260046020908152604080832093909416825291909152205490565b6108f1610a68565b6001600160a01b031661090261076a565b6001600160a01b0316146109285760405162461bcd60e51b815260040161052590611846565b6001600160a01b03811661094e5760405162461bcd60e51b815260040161052590611730565b6106b381610e9e565b610960816106a2565b80336001600160a01b03167f6ba6c9aed1f56127990ec5d3d33ab6416a80f2612d80a44dcc656fd7212543c88460405161099a9190611615565b60405180910390a35050565b6109b08282610798565b6105d35760008281526001602081815260408084206001600160a01b0386168552909152909120805460ff191690911790556109ea610a68565b6001600160a01b0316816001600160a01b0316837f2f8788117e7eff1d82e926ec794901d17c78024a50270940304540a733656f0d60405160405180910390a45050565b6000610791836001600160a01b038416610f05565b60006001600160e01b03198216637965db0b60e01b14806103f657506103f682610f4f565b3390565b6001600160a01b038316610a925760405162461bcd60e51b815260040161052590611945565b6001600160a01b038216610ab85760405162461bcd60e51b815260040161052590611776565b6001600160a01b0380841660008181526004602090815260408083209487168084529490915290819020849055517f8c5be1e5ebec7d5bd14f71427d1e84f3dd0314c0f7b2291e5b200ac8c7c3b9259061069590859061160c565b6001600160a01b038316610b395760405162461bcd60e51b815260040161052590611900565b6001600160a01b038216610b5f5760405162461bcd60e51b81526004016105259061167d565b610b6a838383610587565b6001600160a01b03831660009081526003602052604090205481811015610ba35760405162461bcd60e51b8152600401610525906117b8565b6001600160a01b03808516600090815260036020526040808220858503905591851681529081208054849290610bda908490611a62565b92505081905550826001600160a01b0316846001600160a01b03167fddf252ad1be2c89b69c2b068fc378daa952ba7f163c4a11628f55a4df523b3ef84604051610c24919061160c565b60405180910390a3610c37848484610587565b50505050565b610c478282610798565b6105d357610c5f816001600160a01b03166014610f68565b610c6a836020610f68565b604051602001610c7b929190611578565b60408051601f198184030181529082905262461bcd60e51b825261052591600401611615565b610cab82826109a6565b60008281526002602052604090206105879082610a2e565b610ccd828261111a565b6000828152600260205260409020610587908261119f565b6001600160a01b038216610d0b5760405162461bcd60e51b815260040161052590611a1d565b610d1760008383610587565b8060056000828254610d299190611a62565b90915550506001600160a01b03821660009081526003602052604081208054839290610d56908490611a62565b90915550506040516001600160a01b038316906000907fddf252ad1be2c89b69c2b068fc378daa952ba7f163c4a11628f55a4df523b3ef90610d9990859061160c565b60405180910390a36105d360008383610587565b6001600160a01b038216610dd35760405162461bcd60e51b8152600401610525906118bf565b610ddf82600083610587565b6001600160a01b03821660009081526003602052604090205481811015610e185760405162461bcd60e51b8152600401610525906116ee565b6001600160a01b0383166000908152600360205260408120838303905560058054849290610e47908490611a99565b90915550506040516000906001600160a01b038516907fddf252ad1be2c89b69c2b068fc378daa952ba7f163c4a11628f55a4df523b3ef90610e8a90869061160c565b60405180910390a361058783600084610587565b600080546001600160a01b038381166001600160a01b0319831681178455604051919092169283917f8be0079c531659141344cd1fd0a4f28419497f9722a3daafe3b4186f6b6457e09190a35050565b600061079183836111b4565b60006103f6826111ec565b6000610f1183836111f0565b610f47575081546001818101845560008481526020808220909301849055845484825282860190935260409020919091556104a8565b5060006104a8565b6001600160e01b031981166301ffc9a760e01b14919050565b60606000610f77836002611a7a565b610f82906002611a62565b67ffffffffffffffff811115610fa857634e487b7160e01b600052604160045260246000fd5b6040519080825280601f01601f191660200182016040528015610fd2576020820181803683370190505b509050600360fc1b81600081518110610ffb57634e487b7160e01b600052603260045260246000fd5b60200101906001600160f81b031916908160001a905350600f60fb1b8160018151811061103857634e487b7160e01b600052603260045260246000fd5b60200101906001600160f81b031916908160001a905350600061105c846002611a7a565b611067906001611a62565b90505b60018111156110fb576f181899199a1a9b1b9c1cb0b131b232b360811b85600f16601081106110a957634e487b7160e01b600052603260045260246000fd5b1a60f81b8282815181106110cd57634e487b7160e01b600052603260045260246000fd5b60200101906001600160f81b031916908160001a90535060049490941c936110f481611adc565b905061106a565b5083156107915760405162461bcd60e51b815260040161052590611648565b6111248282610798565b156105d35760008281526001602090815260408083206001600160a01b03851684529091529020805460ff1916905561115b610a68565b6001600160a01b0316816001600160a01b0316837ff6391f5c32d9c69d2a47ea670b442974b53935d1edc7fd64eb21e047a839171b60405160405180910390a45050565b6000610791836001600160a01b038416611208565b60008260000182815481106111d957634e487b7160e01b600052603260045260246000fd5b9060005260206000200154905092915050565b5490565b60009081526001919091016020526040902054151590565b6000818152600183016020526040812054801561131b57600061122c600183611a99565b855490915060009061124090600190611a99565b90508181146112c157600086600001828154811061126e57634e487b7160e01b600052603260045260246000fd5b906000526020600020015490508087600001848154811061129f57634e487b7160e01b600052603260045260246000fd5b6000918252602080832090910192909255918252600188019052604090208390555b85548690806112e057634e487b7160e01b600052603160045260246000fd5b6001900381819060005260206000200160009055905585600101600086815260200190815260200160002060009055600193505050506104a8565b60009150506104a8565b80356001600160a01b03811681146103f957600080fd5b600082601f83011261134c578081fd5b813567ffffffffffffffff8082111561136757611367611b44565b604051601f8301601f19168101602001828111828210171561138b5761138b611b44565b6040528281528483016020018610156113a2578384fd5b82602086016020830137918201602001929092529392505050565b6000602082840312156113ce578081fd5b61079182611325565b600080604083850312156113e9578081fd5b6113f283611325565b915061140060208401611325565b90509250929050565b60008060006060848603121561141d578081fd5b61142684611325565b925061143460208501611325565b9150604084013590509250925092565b60008060408385031215611456578182fd5b61145f83611325565b946020939093013593505050565b60006020828403121561147e578081fd5b5035919050565b60008060408385031215611497578182fd5b8235915061140060208401611325565b600080604083850312156114b9578182fd5b50508035926020909101359150565b6000602082840312156114d9578081fd5b81356001600160e01b031981168114610791578182fd5b600080600060608486031215611504578283fd5b833567ffffffffffffffff81111561151a578384fd5b6115268682870161133c565b93505061143460208501611325565b60008060408385031215611547578182fd5b823567ffffffffffffffff81111561155d578283fd5b6115698582860161133c565b95602094909401359450505050565b60007f416363657373436f6e74726f6c3a206163636f756e7420000000000000000000825283516115b0816017850160208801611ab0565b7001034b99036b4b9b9b4b733903937b6329607d1b60179184019182015283516115e1816028840160208801611ab0565b01602801949350505050565b6001600160a01b0391909116815260200190565b901515815260200190565b90815260200190565b6000602082528251806020840152611634816040850160208701611ab0565b601f01601f19169190910160400192915050565b6020808252818101527f537472696e67733a20686578206c656e67746820696e73756666696369656e74604082015260600190565b60208082526023908201527f45524332303a207472616e7366657220746f20746865207a65726f206164647260408201526265737360e81b606082015260800190565b60208082526014908201527357726f6e6720746172676574206164647265737360601b604082015260600190565b60208082526022908201527f45524332303a206275726e20616d6f756e7420657863656564732062616c616e604082015261636560f01b606082015260800190565b60208082526026908201527f4f776e61626c653a206e6577206f776e657220697320746865207a65726f206160408201526564647265737360d01b606082015260800190565b60208082526022908201527f45524332303a20617070726f766520746f20746865207a65726f206164647265604082015261737360f01b606082015260800190565b60208082526026908201527f45524332303a207472616e7366657220616d6f756e7420657863656564732062604082015265616c616e636560d01b606082015260800190565b60208082526028908201527f45524332303a207472616e7366657220616d6f756e74206578636565647320616040820152676c6c6f77616e636560c01b606082015260800190565b6020808252818101527f4f776e61626c653a2063616c6c6572206973206e6f7420746865206f776e6572604082015260600190565b60208082526024908201527f45524332303a206275726e20616d6f756e74206578636565647320616c6c6f77604082015263616e636560e01b606082015260800190565b60208082526021908201527f45524332303a206275726e2066726f6d20746865207a65726f206164647265736040820152607360f81b606082015260800190565b60208082526025908201527f45524332303a207472616e736665722066726f6d20746865207a65726f206164604082015264647265737360d81b606082015260800190565b60208082526024908201527f45524332303a20617070726f76652066726f6d20746865207a65726f206164646040820152637265737360e01b606082015260800190565b60208082526025908201527f45524332303a2064656372656173656420616c6c6f77616e63652062656c6f77604082015264207a65726f60d81b606082015260800190565b6020808252602f908201527f416363657373436f6e74726f6c3a2063616e206f6e6c792072656e6f756e636560408201526e103937b632b9903337b91039b2b63360891b606082015260800190565b6020808252601f908201527f45524332303a206d696e7420746f20746865207a65726f206164647265737300604082015260600190565b60ff91909116815260200190565b60008219821115611a7557611a75611b2e565b500190565b6000816000190483118215151615611a9457611a94611b2e565b500290565b600082821015611aab57611aab611b2e565b500390565b60005b83811015611acb578181015183820152602001611ab3565b83811115610c375750506000910152565b600081611aeb57611aeb611b2e565b506000190190565b600281046001821680611b0757607f821691505b60208210811415611b2857634e487b7160e01b600052602260045260246000fd5b50919050565b634e487b7160e01b600052601160045260246000fd5b634e487b7160e01b600052604160045260246000fdfea2646970667358221220b517e5a1c36561177bd9602345cf2247691a0c3ef3633ebe2877d8488e9339b864736f6c63430008000033",
  "immutableReferences": {},
  "source": "// SPDX-License-Identifier: MIT\npragma solidity 0.8.0;\n\nimport \"@openzeppelin/contracts/token/ERC20/extensions/ERC20Burnable.sol\";\nimport \"@openzeppelin/contracts/token/ERC20/ERC20.sol\";\nimport \"@openzeppelin/contracts/access/AccessControlEnumerable.sol\";\nimport \"@openzeppelin/contracts/access/Ownable.sol\";\n\ncontract BSP is Ownable, AccessControlEnumerable, ERC20Burnable {\n    bytes32 public constant MINTER_ROLE = keccak256(\"MINTER_ROLE\");\n\n    event SteemToBSP(\n        string steemAccount,\n        address indexed to,\n        uint256 indexed amount\n    );\n    event BSPToSteem(\n        string steemAccount,\n        address indexed to,\n        uint256 indexed amount\n    );\n\n    constructor() ERC20(\"BSC STEEP POWER\", \"BSP\") {\n        _setupRole(DEFAULT_ADMIN_ROLE, _msgSender());\n        _setupRole(MINTER_ROLE, _msgSender());\n\n        // _name = \"BSC STEEP POWER\";\n        // _symbol = \"BSP\";\n    }\n\n    function steemToBsp(\n        string memory steem,\n        address to,\n        uint256 amount\n    ) public {\n        // require(hasRole(MINTER_ROLE, _msgSender()), \"ERC20PresetMinterPauser: must have minter role to mint\");\n        require(to != address(0), \"Wrong target address\");\n        _mint(to, amount);\n        emit SteemToBSP(steem, to, amount);\n    }\n\n    function bspToSteem(string memory steem, uint256 amount) public {\n        burn(amount);\n        emit BSPToSteem(steem, msg.sender, amount);\n    }\n}\n",
  "sourcePath": "/Users/necklace/work/nutbox/nutbox-contract/contracts/BSP.sol",
  "compiler": {
    "name": "solc",
    "version": "0.8.0+commit.c7dfd78e.Emscripten.clang"
  },
  "schemaVersion": "3.4.11",
  "updatedAt": "2022-12-27T12:17:34.997Z",
  "devdoc": {
    "kind": "dev",
    "methods": {
      "allowance(address,address)": {
        "details": "See {IERC20-allowance}."
      },
      "approve(address,uint256)": {
        "details": "See {IERC20-approve}. Requirements: - `spender` cannot be the zero address."
      },
      "balanceOf(address)": {
        "details": "See {IERC20-balanceOf}."
      },
      "burn(uint256)": {
        "details": "Destroys `amount` tokens from the caller. See {ERC20-_burn}."
      },
      "burnFrom(address,uint256)": {
        "details": "Destroys `amount` tokens from `account`, deducting from the caller's allowance. See {ERC20-_burn} and {ERC20-allowance}. Requirements: - the caller must have allowance for ``accounts``'s tokens of at least `amount`."
      },
      "decimals()": {
        "details": "Returns the number of decimals used to get its user representation. For example, if `decimals` equals `2`, a balance of `505` tokens should be displayed to a user as `5.05` (`505 / 10 ** 2`). Tokens usually opt for a value of 18, imitating the relationship between Ether and Wei. This is the value {ERC20} uses, unless this function is overridden; NOTE: This information is only used for _display_ purposes: it in no way affects any of the arithmetic of the contract, including {IERC20-balanceOf} and {IERC20-transfer}."
      },
      "decreaseAllowance(address,uint256)": {
        "details": "Atomically decreases the allowance granted to `spender` by the caller. This is an alternative to {approve} that can be used as a mitigation for problems described in {IERC20-approve}. Emits an {Approval} event indicating the updated allowance. Requirements: - `spender` cannot be the zero address. - `spender` must have allowance for the caller of at least `subtractedValue`."
      },
      "getRoleAdmin(bytes32)": {
        "details": "Returns the admin role that controls `role`. See {grantRole} and {revokeRole}. To change a role's admin, use {_setRoleAdmin}."
      },
      "getRoleMember(bytes32,uint256)": {
        "details": "Returns one of the accounts that have `role`. `index` must be a value between 0 and {getRoleMemberCount}, non-inclusive. Role bearers are not sorted in any particular way, and their ordering may change at any point. WARNING: When using {getRoleMember} and {getRoleMemberCount}, make sure you perform all queries on the same block. See the following https://forum.openzeppelin.com/t/iterating-over-elements-on-enumerableset-in-openzeppelin-contracts/2296[forum post] for more information."
      },
      "getRoleMemberCount(bytes32)": {
        "details": "Returns the number of accounts that have `role`. Can be used together with {getRoleMember} to enumerate all bearers of a role."
      },
      "grantRole(bytes32,address)": {
        "details": "Grants `role` to `account`. If `account` had not been already granted `role`, emits a {RoleGranted} event. Requirements: - the caller must have ``role``'s admin role."
      },
      "hasRole(bytes32,address)": {
        "details": "Returns `true` if `account` has been granted `role`."
      },
      "increaseAllowance(address,uint256)": {
        "details": "Atomically increases the allowance granted to `spender` by the caller. This is an alternative to {approve} that can be used as a mitigation for problems described in {IERC20-approve}. Emits an {Approval} event indicating the updated allowance. Requirements: - `spender` cannot be the zero address."
      },
      "name()": {
        "details": "Returns the name of the token."
      },
      "owner()": {
        "details": "Returns the address of the current owner."
      },
      "renounceOwnership()": {
        "details": "Leaves the contract without owner. It will not be possible to call `onlyOwner` functions anymore. Can only be called by the current owner. NOTE: Renouncing ownership will leave the contract without an owner, thereby removing any functionality that is only available to the owner."
      },
      "renounceRole(bytes32,address)": {
        "details": "Revokes `role` from the calling account. Roles are often managed via {grantRole} and {revokeRole}: this function's purpose is to provide a mechanism for accounts to lose their privileges if they are compromised (such as when a trusted device is misplaced). If the calling account had been revoked `role`, emits a {RoleRevoked} event. Requirements: - the caller must be `account`."
      },
      "revokeRole(bytes32,address)": {
        "details": "Revokes `role` from `account`. If `account` had been granted `role`, emits a {RoleRevoked} event. Requirements: - the caller must have ``role``'s admin role."
      },
      "supportsInterface(bytes4)": {
        "details": "See {IERC165-supportsInterface}."
      },
      "symbol()": {
        "details": "Returns the symbol of the token, usually a shorter version of the name."
      },
      "totalSupply()": {
        "details": "See {IERC20-totalSupply}."
      },
      "transfer(address,uint256)": {
        "details": "See {IERC20-transfer}. Requirements: - `recipient` cannot be the zero address. - the caller must have a balance of at least `amount`."
      },
      "transferFrom(address,address,uint256)": {
        "details": "See {IERC20-transferFrom}. Emits an {Approval} event indicating the updated allowance. This is not required by the EIP. See the note at the beginning of {ERC20}. Requirements: - `sender` and `recipient` cannot be the zero address. - `sender` must have a balance of at least `amount`. - the caller must have allowance for ``sender``'s tokens of at least `amount`."
      },
      "transferOwnership(address)": {
        "details": "Transfers ownership of the contract to a new account (`newOwner`). Can only be called by the current owner."
      }
    },
    "version": 1
  },
  "userdoc": {
    "kind": "user",
    "methods": {},
    "version": 1
  }
}