{
  "contractName": "CollectBless",
  "abi": [
    {
      "anonymous": false,
      "inputs": [
        {
          "indexed": true,
          "internalType": "address",
          "name": "creator",
          "type": "address"
        },
        {
          "indexed": false,
          "internalType": "uint256[]",
          "name": "ids",
          "type": "uint256[]"
        }
      ],
      "name": "MintBox",
      "type": "event"
    },
    {
      "anonymous": false,
      "inputs": [
        {
          "indexed": true,
          "internalType": "address",
          "name": "user",
          "type": "address"
        },
        {
          "indexed": false,
          "internalType": "uint256[]",
          "name": "ids",
          "type": "uint256[]"
        }
      ],
      "name": "OpenBox",
      "type": "event"
    },
    {
      "anonymous": false,
      "inputs": [
        {
          "indexed": true,
          "internalType": "address",
          "name": "previousOwner",
          "type": "address"
        },
        {
          "indexed": true,
          "internalType": "address",
          "name": "newOwner",
          "type": "address"
        }
      ],
      "name": "OwnershipTransferred",
      "type": "event"
    },
    {
      "inputs": [
        {
          "internalType": "address",
          "name": "",
          "type": "address"
        }
      ],
      "name": "alreadyReceived",
      "outputs": [
        {
          "internalType": "uint256",
          "name": "",
          "type": "uint256"
        }
      ],
      "stateMutability": "view",
      "type": "function"
    },
    {
      "inputs": [],
      "name": "blessCard",
      "outputs": [
        {
          "internalType": "contract ERC1155PresetMinterPauser",
          "name": "",
          "type": "address"
        }
      ],
      "stateMutability": "view",
      "type": "function"
    },
    {
      "inputs": [],
      "name": "blindBoxCount",
      "outputs": [
        {
          "internalType": "uint256",
          "name": "",
          "type": "uint256"
        }
      ],
      "stateMutability": "view",
      "type": "function"
    },
    {
      "inputs": [],
      "name": "blindBoxPrice",
      "outputs": [
        {
          "internalType": "uint256",
          "name": "",
          "type": "uint256"
        }
      ],
      "stateMutability": "view",
      "type": "function"
    },
    {
      "inputs": [],
      "name": "eventEndTime",
      "outputs": [
        {
          "internalType": "uint256",
          "name": "",
          "type": "uint256"
        }
      ],
      "stateMutability": "view",
      "type": "function"
    },
    {
      "inputs": [
        {
          "internalType": "address",
          "name": "",
          "type": "address"
        }
      ],
      "name": "mintBoxCounts",
      "outputs": [
        {
          "internalType": "uint256",
          "name": "",
          "type": "uint256"
        }
      ],
      "stateMutability": "view",
      "type": "function"
    },
    {
      "inputs": [
        {
          "internalType": "address",
          "name": "",
          "type": "address"
        }
      ],
      "name": "openBoxCounts",
      "outputs": [
        {
          "internalType": "uint256",
          "name": "",
          "type": "uint256"
        }
      ],
      "stateMutability": "view",
      "type": "function"
    },
    {
      "inputs": [],
      "name": "owner",
      "outputs": [
        {
          "internalType": "address",
          "name": "",
          "type": "address"
        }
      ],
      "stateMutability": "view",
      "type": "function"
    },
    {
      "inputs": [],
      "name": "prizePoolAmount",
      "outputs": [
        {
          "internalType": "uint256",
          "name": "",
          "type": "uint256"
        }
      ],
      "stateMutability": "view",
      "type": "function"
    },
    {
      "inputs": [],
      "name": "prizePoolToken",
      "outputs": [
        {
          "internalType": "contract IERC20",
          "name": "",
          "type": "address"
        }
      ],
      "stateMutability": "view",
      "type": "function"
    },
    {
      "inputs": [],
      "name": "random",
      "outputs": [
        {
          "internalType": "contract Random",
          "name": "",
          "type": "address"
        }
      ],
      "stateMutability": "view",
      "type": "function"
    },
    {
      "inputs": [],
      "name": "rareCardCount",
      "outputs": [
        {
          "internalType": "uint256",
          "name": "",
          "type": "uint256"
        }
      ],
      "stateMutability": "view",
      "type": "function"
    },
    {
      "inputs": [],
      "name": "rareCardPrice",
      "outputs": [
        {
          "internalType": "uint256",
          "name": "",
          "type": "uint256"
        }
      ],
      "stateMutability": "view",
      "type": "function"
    },
    {
      "inputs": [],
      "name": "rareCradId",
      "outputs": [
        {
          "internalType": "uint256",
          "name": "",
          "type": "uint256"
        }
      ],
      "stateMutability": "view",
      "type": "function"
    },
    {
      "inputs": [],
      "name": "renounceOwnership",
      "outputs": [],
      "stateMutability": "nonpayable",
      "type": "function"
    },
    {
      "inputs": [],
      "name": "totalWeights",
      "outputs": [
        {
          "internalType": "uint256",
          "name": "",
          "type": "uint256"
        }
      ],
      "stateMutability": "view",
      "type": "function"
    },
    {
      "inputs": [
        {
          "internalType": "address",
          "name": "newOwner",
          "type": "address"
        }
      ],
      "name": "transferOwnership",
      "outputs": [],
      "stateMutability": "nonpayable",
      "type": "function"
    },
    {
      "inputs": [
        {
          "internalType": "address",
          "name": "",
          "type": "address"
        }
      ],
      "name": "userWeights",
      "outputs": [
        {
          "internalType": "uint256",
          "name": "",
          "type": "uint256"
        }
      ],
      "stateMutability": "view",
      "type": "function"
    },
    {
      "inputs": [
        {
          "internalType": "address",
          "name": "",
          "type": "address"
        }
      ],
      "name": "whitelistId",
      "outputs": [
        {
          "internalType": "uint256",
          "name": "",
          "type": "uint256"
        }
      ],
      "stateMutability": "view",
      "type": "function"
    },
    {
      "inputs": [],
      "name": "whitelistIdCount",
      "outputs": [
        {
          "internalType": "uint256",
          "name": "",
          "type": "uint256"
        }
      ],
      "stateMutability": "view",
      "type": "function"
    },
    {
      "inputs": [
        {
          "internalType": "address",
          "name": "blessCardAddr",
          "type": "address"
        },
        {
          "internalType": "address",
          "name": "tokenAddr",
          "type": "address"
        },
        {
          "internalType": "address",
          "name": "randomAddr",
          "type": "address"
        },
        {
          "internalType": "uint256",
          "name": "endTime",
          "type": "uint256"
        }
      ],
      "name": "init",
      "outputs": [],
      "stateMutability": "nonpayable",
      "type": "function"
    },
    {
      "inputs": [
        {
          "internalType": "uint256",
          "name": "price",
          "type": "uint256"
        }
      ],
      "name": "setRareCardPrice",
      "outputs": [],
      "stateMutability": "nonpayable",
      "type": "function"
    },
    {
      "inputs": [
        {
          "internalType": "uint256",
          "name": "price",
          "type": "uint256"
        }
      ],
      "name": "setBlindBoxPrice",
      "outputs": [],
      "stateMutability": "nonpayable",
      "type": "function"
    },
    {
      "inputs": [
        {
          "internalType": "uint256",
          "name": "newTime",
          "type": "uint256"
        }
      ],
      "name": "setEventEndTime",
      "outputs": [],
      "stateMutability": "nonpayable",
      "type": "function"
    },
    {
      "inputs": [
        {
          "internalType": "address",
          "name": "user",
          "type": "address"
        }
      ],
      "name": "getUserOpenBoxs",
      "outputs": [
        {
          "internalType": "uint256[]",
          "name": "",
          "type": "uint256[]"
        }
      ],
      "stateMutability": "view",
      "type": "function"
    },
    {
      "inputs": [
        {
          "internalType": "address",
          "name": "token",
          "type": "address"
        },
        {
          "internalType": "uint256",
          "name": "quantity",
          "type": "uint256"
        },
        {
          "internalType": "uint256",
          "name": "totalAmount",
          "type": "uint256"
        }
      ],
      "name": "mintBox",
      "outputs": [],
      "stateMutability": "nonpayable",
      "type": "function"
    },
    {
      "inputs": [
        {
          "internalType": "address",
          "name": "addr",
          "type": "address"
        },
        {
          "internalType": "uint256",
          "name": "nftId",
          "type": "uint256"
        }
      ],
      "name": "mintBoxNFT721",
      "outputs": [],
      "stateMutability": "nonpayable",
      "type": "function"
    },
    {
      "inputs": [
        {
          "internalType": "address",
          "name": "addr",
          "type": "address"
        },
        {
          "internalType": "uint256",
          "name": "nftId",
          "type": "uint256"
        },
        {
          "internalType": "uint256",
          "name": "quantity",
          "type": "uint256"
        }
      ],
      "name": "mintBoxNFT1155",
      "outputs": [],
      "stateMutability": "nonpayable",
      "type": "function"
    },
    {
      "inputs": [
        {
          "internalType": "uint256",
          "name": "quantity",
          "type": "uint256"
        }
      ],
      "name": "mintWhitelistNFT",
      "outputs": [],
      "stateMutability": "nonpayable",
      "type": "function"
    },
    {
      "inputs": [
        {
          "internalType": "uint256",
          "name": "quantity",
          "type": "uint256"
        },
        {
          "internalType": "address",
          "name": "to",
          "type": "address"
        }
      ],
      "name": "mintRareCard",
      "outputs": [],
      "stateMutability": "nonpayable",
      "type": "function"
    },
    {
      "inputs": [
        {
          "internalType": "address[]",
          "name": "tos",
          "type": "address[]"
        },
        {
          "internalType": "uint256[]",
          "name": "quantities",
          "type": "uint256[]"
        }
      ],
      "name": "mintRareCardBatch",
      "outputs": [],
      "stateMutability": "nonpayable",
      "type": "function"
    },
    {
      "inputs": [
        {
          "internalType": "address[]",
          "name": "tos",
          "type": "address[]"
        },
        {
          "internalType": "uint256[]",
          "name": "ids",
          "type": "uint256[]"
        },
        {
          "internalType": "uint256[]",
          "name": "quantities",
          "type": "uint256[]"
        }
      ],
      "name": "mintCard",
      "outputs": [],
      "stateMutability": "nonpayable",
      "type": "function"
    },
    {
      "inputs": [
        {
          "internalType": "uint256",
          "name": "quantity",
          "type": "uint256"
        }
      ],
      "name": "openBox",
      "outputs": [],
      "stateMutability": "nonpayable",
      "type": "function"
    },
    {
      "inputs": [],
      "name": "cashPrize",
      "outputs": [],
      "stateMutability": "nonpayable",
      "type": "function"
    },
    {
      "inputs": [
        {
          "internalType": "uint256",
          "name": "_limit",
          "type": "uint256"
        }
      ],
      "name": "claimBlindBox",
      "outputs": [],
      "stateMutability": "nonpayable",
      "type": "function"
    },
    {
      "inputs": [
        {
          "internalType": "uint256",
          "name": "_limit",
          "type": "uint256"
        }
      ],
      "name": "claimBlindBox2",
      "outputs": [],
      "stateMutability": "nonpayable",
      "type": "function"
    },
    {
      "inputs": [
        {
          "internalType": "address",
          "name": "user",
          "type": "address"
        },
        {
          "internalType": "uint256",
          "name": "startIndex",
          "type": "uint256"
        },
        {
          "internalType": "uint256",
          "name": "lastIndex",
          "type": "uint256"
        }
      ],
      "name": "getUserOpendBox",
      "outputs": [
        {
          "components": [
            {
              "internalType": "enum CollectBless.PrizeType",
              "name": "prizeType",
              "type": "uint8"
            },
            {
              "internalType": "address",
              "name": "token",
              "type": "address"
            },
            {
              "internalType": "address",
              "name": "creator",
              "type": "address"
            },
            {
              "internalType": "uint256",
              "name": "amount",
              "type": "uint256"
            },
            {
              "internalType": "uint256",
              "name": "nftId",
              "type": "uint256"
            },
            {
              "internalType": "uint256",
              "name": "seedBlock",
              "type": "uint256"
            }
          ],
          "internalType": "struct CollectBless.BlindBox[]",
          "name": "boxes",
          "type": "tuple[]"
        },
        {
          "internalType": "uint16[]",
          "name": "weights",
          "type": "uint16[]"
        }
      ],
      "stateMutability": "view",
      "type": "function"
    },
    {
      "inputs": [
        {
          "internalType": "uint256[]",
          "name": "ids",
          "type": "uint256[]"
        }
      ],
      "name": "getBoxsByIds",
      "outputs": [
        {
          "components": [
            {
              "internalType": "enum CollectBless.PrizeType",
              "name": "prizeType",
              "type": "uint8"
            },
            {
              "internalType": "address",
              "name": "token",
              "type": "address"
            },
            {
              "internalType": "address",
              "name": "creator",
              "type": "address"
            },
            {
              "internalType": "uint256",
              "name": "amount",
              "type": "uint256"
            },
            {
              "internalType": "uint256",
              "name": "nftId",
              "type": "uint256"
            },
            {
              "internalType": "uint256",
              "name": "seedBlock",
              "type": "uint256"
            }
          ],
          "internalType": "struct CollectBless.BlindBox[]",
          "name": "boxes",
          "type": "tuple[]"
        },
        {
          "internalType": "uint16[]",
          "name": "weights",
          "type": "uint16[]"
        }
      ],
      "stateMutability": "view",
      "type": "function"
    },
    {
      "inputs": [
        {
          "internalType": "address",
          "name": "",
          "type": "address"
        },
        {
          "internalType": "address",
          "name": "",
          "type": "address"
        },
        {
          "internalType": "uint256",
          "name": "",
          "type": "uint256"
        },
        {
          "internalType": "bytes",
          "name": "",
          "type": "bytes"
        }
      ],
      "name": "onERC721Received",
      "outputs": [
        {
          "internalType": "bytes4",
          "name": "",
          "type": "bytes4"
        }
      ],
      "stateMutability": "pure",
      "type": "function"
    },
    {
      "inputs": [
        {
          "internalType": "address",
          "name": "",
          "type": "address"
        },
        {
          "internalType": "address",
          "name": "",
          "type": "address"
        },
        {
          "internalType": "uint256",
          "name": "",
          "type": "uint256"
        },
        {
          "internalType": "uint256",
          "name": "",
          "type": "uint256"
        },
        {
          "internalType": "bytes",
          "name": "",
          "type": "bytes"
        }
      ],
      "name": "onERC1155Received",
      "outputs": [
        {
          "internalType": "bytes4",
          "name": "",
          "type": "bytes4"
        }
      ],
      "stateMutability": "pure",
      "type": "function"
    },
    {
      "inputs": [
        {
          "internalType": "address",
          "name": "",
          "type": "address"
        },
        {
          "internalType": "address",
          "name": "",
          "type": "address"
        },
        {
          "internalType": "uint256[]",
          "name": "",
          "type": "uint256[]"
        },
        {
          "internalType": "uint256[]",
          "name": "",
          "type": "uint256[]"
        },
        {
          "internalType": "bytes",
          "name": "",
          "type": "bytes"
        }
      ],
      "name": "onERC1155BatchReceived",
      "outputs": [
        {
          "internalType": "bytes4",
          "name": "",
          "type": "bytes4"
        }
      ],
      "stateMutability": "pure",
      "type": "function"
    },
    {
      "inputs": [
        {
          "internalType": "bytes4",
          "name": "interfaceId",
          "type": "bytes4"
        }
      ],
      "name": "supportsInterface",
      "outputs": [
        {
          "internalType": "bool",
          "name": "",
          "type": "bool"
        }
      ],
      "stateMutability": "pure",
      "type": "function"
    }
  ],
  "bytecode": "0x6702c68af0bb1400006005908155670de0b6b3a7640000600655601381905561012060405260016080908152600260a052600360c05260e0829052600a610100526200004f9160159190620000da565b5060006017556063601a553480156200006757600080fd5b506200007c6200007662000086565b6200008a565b600180556200018e565b3390565b600080546001600160a01b038381166001600160a01b0319831681178455604051919092169283917f8be0079c531659141344cd1fd0a4f28419497f9722a3daafe3b4186f6b6457e09190a35050565b600183019183908215620001655791602002820160005b838211156200013357835183826101000a81548161ffff021916908361ffff1602179055509260200192600201602081600101049283019260010302620000f1565b8015620001635782816101000a81549061ffff021916905560020160208160010104928301926001030262000133565b505b506200017392915062000177565b5090565b5b8082111562000173576000815560010162000178565b614a56806200019e6000396000f3fe608060405234801561001057600080fd5b506004361061025e5760003560e01c806383e8e3e511610146578063d6bd5db1116100c3578063f23a6e6111610087578063f23a6e61146104da578063f2fde38b146104ed578063f7b5e31714610500578063f84d13ef14610508578063fc01b0a21461051b578063fd4ab46d1461052e5761025e565b8063d6bd5db11461049c578063dd3c627d146104a4578063e3164044146104ac578063e8efab93146104bf578063edea9555146104d25761025e565b8063b1e5e2b71161010a578063b1e5e2b714610448578063b58067ab1461045b578063b78ef0b91461046e578063bc197c8114610481578063c4fbc2b2146104945761025e565b806383e8e3e51461040a5780638da5cb5b1461041d578063926323d514610425578063a2011d911461042d578063b1648dad146104405761025e565b80632c4adc78116101df5780635e7ff0cc116101a35780635e7ff0cc146103945780635ec01e4d146103a7578063623ec92b146103bc578063715018a6146103dc578063745b08bf146103e457806383e4f941146103f75761025e565b80632c4adc78146103355780633c8884121461034857806346639dba1461035b578063534fb2461461036e578063556a6d8a146103815761025e565b8063150b7a0211610226578063150b7a02146102c657806318f27707146102e657806324a257ae146102ee5780632583fd231461030157806327109641146103225761025e565b806301ffc9a714610263578063043f6b631461028c5780630d080bda146102a15780630f8202d6146102b457806311e80b85146102bc575b600080fd5b610276610271366004614080565b610536565b604051610283919061441d565b60405180910390f35b61029461056f565b604051610283919061443d565b6102946102af366004613cd5565b610575565b610294610587565b6102c461058d565b005b6102d96102d4366004613def565b6106d4565b6040516102839190614428565b6102946106e5565b6102c46102fc3660046140c0565b6106eb565b61031461030f366004613ef9565b610883565b60405161028392919061435c565b610294610330366004613cd5565b610bcc565b61031461034336600461400e565b610bde565b6102c46103563660046140a8565b610e61565b6102c4610369366004613cef565b611204565b6102c461037c366004613f8b565b6114bd565b61029461038f366004613cd5565b611764565b6102c46103a23660046140a8565b611776565b6103af611b97565b6040516102839190614263565b6103cf6103ca366004613cd5565b611ba6565b604051610283919061440a565b6102c4611c12565b6102c46103f2366004613ef9565b611c5d565b610294610405366004613cd5565b611fd7565b6102c46104183660046140a8565b611fe9565b6103af61202d565b61029461203c565b6102c461043b366004613ed0565b612042565b610294612310565b6102c46104563660046140a8565b612316565b6102c4610469366004613f2b565b6127b6565b6102c461047c366004613ef9565b612a45565b6102d961048f366004613d39565b612dd3565b610294612de1565b610294612de7565b6103af612ded565b6102946104ba366004613cd5565b612dfc565b6102c46104cd3660046140a8565b612e0e565b610294612e52565b6102d96104e8366004613e5b565b612e58565b6102c46104fb366004613cd5565b612e6a565b610294612ed8565b6102c46105163660046140a8565b612ede565b6102c46105293660046140a8565b612f22565b6103af613297565b60006001600160e01b03198216630a85bd0160e11b148061056757506001600160e01b03198216630271189760e51b145b90505b919050565b601a5481565b60106020526000908152604090205481565b600e5481565b42600754106105b75760405162461bcd60e51b81526004016105ae906146a6565b60405180910390fd5b6000601754116105d95760405162461bcd60e51b81526004016105ae9061480a565b33600090815260186020526040902054156106065760405162461bcd60e51b81526004016105ae906145e9565b60175433600090815260126020526040812054600e549192916106299190614939565b6106339190614925565b905080156106d157336000818152601860205260409081902083905560048054915163a9059cbb60e01b81526001600160a01b039092169263a9059cbb9261067d92869101614316565b602060405180830381600087803b15801561069757600080fd5b505af11580156106ab573d6000803e3d6000fd5b505050506040513d601f19601f820116820180604052508101906106cf9190614048565b505b50565b630a85bd0160e11b95945050505050565b60135481565b426007541161070c5760405162461bcd60e51b81526004016105ae9061489e565b6000821161072c5760405162461bcd60e51b81526004016105ae906147db565b60008260055461073c9190614939565b600480546040516323b872dd60e01b81529293506001600160a01b0316916323b872dd916107709133913091879101614277565b602060405180830381600087803b15801561078a57600080fd5b505af115801561079e573d6000803e3d6000fd5b505050506040513d601f19601f820116820180604052508101906107c29190614048565b50604080516001808252818301909252600091602082018180368337505060035460135460405163731133e960e01b81529394506001600160a01b039091169263731133e9925061081b9187918990879060040161432f565b600060405180830381600087803b15801561083557600080fd5b505af1158015610849573d6000803e3d6000fd5b5050505081600e600082825461085f919061490d565b925050819055508360086000828254610878919061490d565b909155505050505050565b6060808284106108a55760405162461bcd60e51b81526004016105ae9061474f565b6001600160a01b03851660009081526011602090815260408083208054825181850281018501909352808352919290919083018282801561090557602002820191906000526020600020905b8154815260200190600101908083116108f1575b5050505050905080516000141561091c5750610bc4565b805185811161092c575050610bc4565b848111610937578094505b6109418686614958565b6001600160401b0381111561096657634e487b7160e01b600052604160045260246000fd5b60405190808252806020026020018201604052801561099f57816020015b61098c613b21565b8152602001906001900390816109845790505b5093506109ac8686614958565b6001600160401b038111156109d157634e487b7160e01b600052604160045260246000fd5b6040519080825280602002602001820160405280156109fa578160200160208202803683370190505b5092506000865b86811015610bbf57600d6000600a6000878581518110610a3157634e487b7160e01b600052603260045260246000fd5b602002602001015181526020019081526020016000205481526020019081526020016000206040518060c00160405290816000820160009054906101000a900460ff166003811115610a9357634e487b7160e01b600052602160045260246000fd5b6003811115610ab257634e487b7160e01b600052602160045260246000fd5b815281546001600160a01b03610100909104811660208301526001830154166040820152600282015460608201526003820154608082015260049091015460a0909101528651879084908110610b1857634e487b7160e01b600052603260045260246000fd5b6020026020010181905250600b6000858381518110610b4757634e487b7160e01b600052603260045260246000fd5b6020026020010151815260200190815260200160002060009054906101000a900461ffff16858381518110610b8c57634e487b7160e01b600052603260045260246000fd5b61ffff9092166020928302919091019091015281610ba98161496f565b9250508080610bb79061496f565b915050610a01565b505050505b935093915050565b60186020526000908152604090205481565b606080825160001415610bf057610e5c565b82516001600160401b03811115610c1757634e487b7160e01b600052604160045260246000fd5b604051908082528060200260200182016040528015610c5057816020015b610c3d613b21565b815260200190600190039081610c355790505b50915082516001600160401b03811115610c7a57634e487b7160e01b600052604160045260246000fd5b604051908082528060200260200182016040528015610ca3578160200160208202803683370190505b50905060005b8351811015610e5a57600d6000600a6000878581518110610cda57634e487b7160e01b600052603260045260246000fd5b602002602001015181526020019081526020016000205481526020019081526020016000206040518060c00160405290816000820160009054906101000a900460ff166003811115610d3c57634e487b7160e01b600052602160045260246000fd5b6003811115610d5b57634e487b7160e01b600052602160045260246000fd5b815281546001600160a01b03610100909104811660208301526001830154166040820152600282015460608201526003820154608082015260049091015460a0909101528351849083908110610dc157634e487b7160e01b600052603260045260246000fd5b6020026020010181905250600b6000858381518110610df057634e487b7160e01b600052603260045260246000fd5b6020026020010151815260200190815260200160002060009054906101000a900461ffff16828281518110610e3557634e487b7160e01b600052603260045260246000fd5b61ffff9092166020928302919091019091015280610e528161496f565b915050610ca9565b505b915091565b4260075410610e825760405162461bcd60e51b81526004016105ae906146d1565b601654610e8e576106d1565b61012c8115610e9a5750805b6040805160018082528183019092526000918291906020820181803683375050601654919250600091610ed09150600190614958565b90505b838310156111fd576000600d6000600a600060168681548110610f0657634e487b7160e01b600052603260045260246000fd5b9060005260206000200154815260200190815260200160002054815260200190815260200160002090506001601060008360010160009054906101000a90046001600160a01b03166001600160a01b03166001600160a01b031681526020019081526020016000206000828254610f7d919061490d565b90915550506016805480610fa157634e487b7160e01b600052603160045260246000fd5b6000828152602081208201600019908101919091550190556001815460ff166003811115610fdf57634e487b7160e01b600052602160045260246000fd5b141561107c5780546001820154600283015460405163a9059cbb60e01b81526001600160a01b0361010090940484169363a9059cbb9361102493911691600401614316565b602060405180830381600087803b15801561103e57600080fd5b505af1158015611052573d6000803e3d6000fd5b505050506040513d601f19601f820116820180604052508101906110769190614048565b506111cb565b6002815460ff1660038111156110a257634e487b7160e01b600052602160045260246000fd5b141561112257805460018201546003830154604051632142170760e11b81526101009093046001600160a01b03908116936342842e0e936110eb93309390911691600401614277565b600060405180830381600087803b15801561110557600080fd5b505af1158015611119573d6000803e3d6000fd5b505050506111cb565b6003815460ff16600381111561114857634e487b7160e01b600052602160045260246000fd5b14156111cb578054600182015460038301546002840154604051637921219560e11b81526001600160a01b0361010090950485169463f242432a9461119894309491909216928a9060040161429b565b600060405180830381600087803b1580156111b257600080fd5b505af11580156111c6573d6000803e3d6000fd5b505050505b6016546111d857506111fd565b6016546111e790600190614958565b91505082806111f59061496f565b935050610ed3565b5050505050565b61120c6132a6565b6001600160a01b031661121d61202d565b6001600160a01b0316146112435760405162461bcd60e51b81526004016105ae906147a6565b6003546001600160a01b03161561126c5760405162461bcd60e51b81526004016105ae9061464c565b6001600160a01b0384166112925760405162461bcd60e51b81526004016105ae90614708565b6001600160a01b0382166112b85760405162461bcd60e51b81526004016105ae90614446565b6001600160a01b0383166112de5760405162461bcd60e51b81526004016105ae9061447d565b4281116112fd5760405162461bcd60e51b81526004016105ae9061477a565b600380546001600160a01b038681166001600160a01b031992831617835560028054868316908416178155600785905560048054888416908516178155601480546001818101835560327fce6d7b5282bd9a3661ae061feed1dbda4e52ab073b1f9285be6e155d9c38d4ec9283015582548082018455820183905582548082018455600f9083015582548082018455600a90830155825480820190935560059290910191909155600c80546000908152600d6020526040808220805460ff19169055825482528082208054610100600160a81b03191690558254825280822090930180549097169096558054865281862084018690558054865281862090960185905594548452848420810184905590549351633352da4560e21b815292939091169163cd4b6914916114329185910161443d565b602060405180830381600087803b15801561144c57600080fd5b505af1158015611460573d6000803e3d6000fd5b505050506040513d601f19601f820116820180604052508101906114849190614068565b90506019548160405160200161149b9291906141b0565b60408051601f1981840301815291905280516020909101206019555050505050565b6114c56132a6565b6001600160a01b03166114d661202d565b6001600160a01b0316146114fc5760405162461bcd60e51b81526004016105ae906147a6565b426007541161151d5760405162461bcd60e51b81526004016105ae9061489e565b600083511161153e5760405162461bcd60e51b81526004016105ae90614620565b815183511461155f5760405162461bcd60e51b81526004016105ae906145bd565b80518351146115805760405162461bcd60e51b81526004016105ae906145bd565b60408051600180825281830190925260009160208201818036833701905050905060005b84518110156111fd5760008382815181106115cf57634e487b7160e01b600052603260045260246000fd5b6020026020010151116115f45760405162461bcd60e51b81526004016105ae906147db565b600184828151811061161657634e487b7160e01b600052603260045260246000fd5b6020026020010151101580156116545750600484828151811061164957634e487b7160e01b600052603260045260246000fd5b602002602001015111155b6116705760405162461bcd60e51b81526004016105ae90614562565b60035485516001600160a01b039091169063731133e9908790849081106116a757634e487b7160e01b600052603260045260246000fd5b60200260200101518684815181106116cf57634e487b7160e01b600052603260045260246000fd5b60200260200101518685815181106116f757634e487b7160e01b600052603260045260246000fd5b6020026020010151866040518563ffffffff1660e01b815260040161171f949392919061432f565b600060405180830381600087803b15801561173957600080fd5b505af115801561174d573d6000803e3d6000fd5b50505050808061175c9061496f565b9150506115a4565b60126020526000908152604090205481565b42600754106117975760405162461bcd60e51b81526004016105ae906146d1565b61012c81156117a35750805b33600090815260106020908152604080832054600f9092528220546117c89190614958565b11156106cf5760408051600180825281830190925260009182919060208201818036833701905050905060005b8383108015611805575060165481105b156111fd576000600d6000600a60006016868154811061183557634e487b7160e01b600052603260045260246000fd5b906000526020600020015481526020019081526020016000205481526020019081526020016000209050336001600160a01b03168160010160009054906101000a90046001600160a01b03166001600160a01b03161415611b76576001818101546001600160a01b0316600090815260106020526040812080549091906118bd90849061490d565b9091555050601680546118d290600190614958565b815481106118f057634e487b7160e01b600052603260045260246000fd5b90600052602060002001546016838154811061191c57634e487b7160e01b600052603260045260246000fd5b600091825260209091200155601680548061194757634e487b7160e01b600052603160045260246000fd5b6000828152602081208201600019908101919091550190556001815460ff16600381111561198557634e487b7160e01b600052602160045260246000fd5b1415611a225780546001820154600283015460405163a9059cbb60e01b81526001600160a01b0361010090940484169363a9059cbb936119ca93911691600401614316565b602060405180830381600087803b1580156119e457600080fd5b505af11580156119f8573d6000803e3d6000fd5b505050506040513d601f19601f82011682018060405250810190611a1c9190614048565b50611b71565b6002815460ff166003811115611a4857634e487b7160e01b600052602160045260246000fd5b1415611ac857805460018201546003830154604051632142170760e11b81526101009093046001600160a01b03908116936342842e0e93611a9193309390911691600401614277565b600060405180830381600087803b158015611aab57600080fd5b505af1158015611abf573d6000803e3d6000fd5b50505050611b71565b6003815460ff166003811115611aee57634e487b7160e01b600052602160045260246000fd5b1415611b71578054600182015460038301546002840154604051637921219560e11b81526001600160a01b0361010090950485169463f242432a94611b3e94309491909216928a9060040161429b565b600060405180830381600087803b158015611b5857600080fd5b505af1158015611b6c573d6000803e3d6000fd5b505050505b611b84565b81611b808161496f565b9250505b5082611b8f8161496f565b9350506117f5565b6002546001600160a01b031681565b6001600160a01b038116600090815260116020908152604091829020805483518184028101840190945280845260609392830182828015611c0657602002820191906000526020600020905b815481526020019060010190808311611bf2575b50505050509050919050565b611c1a6132a6565b6001600160a01b0316611c2b61202d565b6001600160a01b031614611c515760405162461bcd60e51b81526004016105ae906147a6565b611c5b60006132aa565b565b4260075411611c7e5760405162461bcd60e51b81526004016105ae9061489e565b6001600160a01b038316611ca45760405162461bcd60e51b81526004016105ae90614586565b6001811015611cc55760405162461bcd60e51b81526004016105ae906147db565b6040805160018082528183019092526000916020820181803683375050604051637921219560e11b8152919250506001600160a01b0385169063f242432a90611d1a903390309088908890889060040161429b565b600060405180830381600087803b158015611d3457600080fd5b505af1158015611d48573d6000803e3d6000fd5b50505050600082600654611d5c9190614939565b600480546040516323b872dd60e01b81529293506001600160a01b0316916323b872dd91611d909133913091879101614277565b602060405180830381600087803b158015611daa57600080fd5b505af1158015611dbe573d6000803e3d6000fd5b505050506040513d601f19601f82011682018060405250810190611de29190614048565b5080600e6000828254611df5919061490d565b9091555050336000908152600f602052604081208054859290611e1990849061490d565b925050819055506001600c6000828254611e33919061490d565b9091555050600c546000908152600d60205260409020805460018083018054336001600160a01b0319909116179055610100600160a81b031960ff19909216600317919091166101006001600160a01b03891602178255611e9590439061490d565b600482015560016002820155600381018590556000846001600160401b03811115611ed057634e487b7160e01b600052604160045260246000fd5b604051908082528060200260200182016040528015611ef9578160200160208202803683370190505b50905060005b85811015611f9e57600160096000828254611f1a919061490d565b92505081905550600954828281518110611f4457634e487b7160e01b600052603260045260246000fd5b602090810291909101810191909152600c54600980546000908152600a909352604083209190915554601680546001810182559252600080516020614a018339815191529091015580611f968161496f565b915050611eff565b50336001600160a01b03166000805160206149e183398151915282604051611fc6919061440a565b60405180910390a250505050505050565b601b6020526000908152604090205481565b611ff16132a6565b6001600160a01b031661200261202d565b6001600160a01b0316146120285760405162461bcd60e51b81526004016105ae906147a6565b600555565b6000546001600160a01b031690565b60175481565b42600754116120635760405162461bcd60e51b81526004016105ae9061489e565b6001600160a01b0382166120895760405162461bcd60e51b81526004016105ae90614586565b600480546006546040516323b872dd60e01b81526001600160a01b03909216926323b872dd926120bd923392309201614277565b602060405180830381600087803b1580156120d757600080fd5b505af11580156120eb573d6000803e3d6000fd5b505050506040513d601f19601f8201168201806040525081019061210f9190614048565b50604051632142170760e11b81526001600160a01b038316906342842e0e9061214090339030908690600401614277565b600060405180830381600087803b15801561215a57600080fd5b505af115801561216e573d6000803e3d6000fd5b50505050600654600e6000828254612186919061490d565b9091555050336000908152600f602052604081208054600192906121ab90849061490d565b925050819055506001600960008282546121c5919061490d565b925050819055506001600c60008282546121df919061490d565b9091555050600c546000908152600d60205260409020805460018083018054336001600160a01b0319909116179055610100600160a81b031960ff19909216600217919091166101006001600160a01b0386160217825561224190439061490d565b600482015560038101829055600c54600980546000908152600a60205260408082209390935590546016805460018181018355918452600080516020614a0183398151915201919091558251818152808401909352909190816020016020820280368337019050509050600954816000815181106122cf57634e487b7160e01b600052603260045260246000fd5b602002602001018181525050336001600160a01b03166000805160206149e183398151915282604051612302919061440a565b60405180910390a250505050565b60085481565b42600754116123375760405162461bcd60e51b81526004016105ae9061489e565b600081116123575760405162461bcd60e51b81526004016105ae906147db565b600a8111156123785760405162461bcd60e51b81526004016105ae90614679565b60408051600580825260c082019092526000916020820160a0803683370190505090506001816000815181106123be57634e487b7160e01b600052603260045260246000fd5b6020026020010181815250506002816001815181106123ed57634e487b7160e01b600052603260045260246000fd5b60200260200101818152505060038160028151811061241c57634e487b7160e01b600052603260045260246000fd5b60200260200101818152505060048160038151811061244b57634e487b7160e01b600052603260045260246000fd5b6020026020010181815250506013548160048151811061247b57634e487b7160e01b600052603260045260246000fd5b602090810291909101015260408051600580825260c0820190925260009181602001602082028036833701905050905082816000815181106124cd57634e487b7160e01b600052603260045260246000fd5b60200260200101818152505082816001815181106124fb57634e487b7160e01b600052603260045260246000fd5b602002602001018181525050828160028151811061252957634e487b7160e01b600052603260045260246000fd5b602002602001018181525050828160038151811061255757634e487b7160e01b600052603260045260246000fd5b602002602001018181525050828160048151811061258557634e487b7160e01b600052603260045260246000fd5b6020908102919091010152600354604051631ac8311560e21b81526001600160a01b0390911690636b20c454906125c4903390869086906004016142e0565b600060405180830381600087803b1580156125de57600080fd5b505af11580156125f2573d6000803e3d6000fd5b5050505082600860008282546126089190614958565b9091555060009050836001600160401b0381111561263657634e487b7160e01b600052604160045260246000fd5b60405190808252806020026020018201604052801561265f578160200160208202803683370190505b50600254604051633352da4560e21b81529192506000916001600160a01b039091169063cd4b69149061269690849060040161443d565b602060405180830381600087803b1580156126b057600080fd5b505af11580156126c4573d6000803e3d6000fd5b505050506040513d601f19601f820116820180604052508101906126e89190614068565b9050601954816040516020016126ff9291906141b0565b60408051601f19818403018152919052805160209091012060195560005b8581101561276d576127303382846132fa565b83828151811061275057634e487b7160e01b600052603260045260246000fd5b6020908102919091010152806127658161496f565b91505061271d565b50336001600160a01b03167f4754632d5b70be4aeb46cfde2a5fbcc5793264e0905a9a280b8b971c3a6a89d9836040516127a7919061440a565b60405180910390a25050505050565b600260015414156127d95760405162461bcd60e51b81526004016105ae90614867565b600260015560075442106127ff5760405162461bcd60e51b81526004016105ae9061489e565b80518251146128205760405162461bcd60e51b81526004016105ae9061453b565b60408051600180825281830190925260009182919060208201818036833701905050905060005b845181101561299d5783818151811061287057634e487b7160e01b600052603260045260246000fd5b60200260200101516005546128859190614939565b61288f908461490d565b60035486519194506001600160a01b03169063731133e9908790849081106128c757634e487b7160e01b600052603260045260246000fd5b60200260200101516013548785815181106128f257634e487b7160e01b600052603260045260246000fd5b6020026020010151866040518563ffffffff1660e01b815260040161291a949392919061432f565b600060405180830381600087803b15801561293457600080fd5b505af1158015612948573d6000803e3d6000fd5b5050505083818151811061296c57634e487b7160e01b600052603260045260246000fd5b602002602001015160086000828254612985919061490d565b909155508190506129958161496f565b915050612847565b50600480546040516323b872dd60e01b81526001600160a01b03909116916323b872dd916129d19133913091889101614277565b602060405180830381600087803b1580156129eb57600080fd5b505af11580156129ff573d6000803e3d6000fd5b505050506040513d601f19601f82011682018060405250810190612a239190614048565b5081600e6000828254612a36919061490d565b90915550506001805550505050565b4260075411612a665760405162461bcd60e51b81526004016105ae9061489e565b6001600160a01b038316612a8c5760405162461bcd60e51b81526004016105ae906144c6565b60008211612aac5760405162461bcd60e51b81526004016105ae906147db565b6000612ab88383614925565b905060018111612ada5760405162461bcd60e51b81526004016105ae90614830565b6001600160a01b0384166323b872dd3330612af58786614939565b6040518463ffffffff1660e01b8152600401612b1393929190614277565b602060405180830381600087803b158015612b2d57600080fd5b505af1158015612b41573d6000803e3d6000fd5b505050506040513d601f19601f82011682018060405250810190612b659190614048565b50600083600654612b769190614939565b600480546040516323b872dd60e01b81529293506001600160a01b0316916323b872dd91612baa9133913091879101614277565b602060405180830381600087803b158015612bc457600080fd5b505af1158015612bd8573d6000803e3d6000fd5b505050506040513d601f19601f82011682018060405250810190612bfc9190614048565b5080600e6000828254612c0f919061490d565b9091555050336000908152600f602052604081208054869290612c3390849061490d565b9091555060009050846001600160401b03811115612c6157634e487b7160e01b600052604160045260246000fd5b604051908082528060200260200182016040528015612c8a578160200160208202803683370190505b5090506001600c6000828254612ca0919061490d565b9091555050600c546000908152600d602052604090208054600180830180546001600160a01b031916331790556001600160a01b0389166101000260ff199092168117610100600160a81b031916919091178255612cff90439061490d565b60048201556002810184905560005b86811015612dab57600160096000828254612d29919061490d565b9091555050600c54600980546000908152600a6020526040902091909155548351849083908110612d6a57634e487b7160e01b600052603260045260246000fd5b602090810291909101015260095460168054600181018255600091909152600080516020614a01833981519152015580612da38161496f565b915050612d0e565b50336001600160a01b03166000805160206149e183398151915283604051611fc6919061440a565b600098975050505050505050565b60055481565b60075481565b6003546001600160a01b031681565b600f6020526000908152604090205481565b612e166132a6565b6001600160a01b0316612e2761202d565b6001600160a01b031614612e4d5760405162461bcd60e51b81526004016105ae906147a6565b600755565b60095481565b63f23a6e6160e01b9695505050505050565b612e726132a6565b6001600160a01b0316612e8361202d565b6001600160a01b031614612ea95760405162461bcd60e51b81526004016105ae906147a6565b6001600160a01b038116612ecf5760405162461bcd60e51b81526004016105ae906144f5565b6106d1816132aa565b60065481565b612ee66132a6565b6001600160a01b0316612ef761202d565b6001600160a01b031614612f1d5760405162461bcd60e51b81526004016105ae906147a6565b600655565b6001811015612f435760405162461bcd60e51b81526004016105ae906147db565b600081600654612f539190614939565b600480546040516323b872dd60e01b81529293506001600160a01b0316916323b872dd91612f879133913091879101614277565b602060405180830381600087803b158015612fa157600080fd5b505af1158015612fb5573d6000803e3d6000fd5b505050506040513d601f19601f82011682018060405250810190612fd99190614048565b5080600e6000828254612fec919061490d565b9091555050336000908152600f60205260408120805484929061301090849061490d565b9091555050336000908152601b60205260409020548061305a576001601a600082825461303d919061490d565b9091555050601a54336000908152601b6020526040902081905590505b6000836001600160401b0381111561308257634e487b7160e01b600052604160045260246000fd5b6040519080825280602002602001820160405280156130ab578160200160208202803683370190505b5090506001600c60008282546130c1919061490d565b9091555050600c546000908152600d602052604090208054600360ff199091168117808355600180840180546001600160a01b0319163317905591546001600160a01b031661010002610100600160a81b031990911617825561312590439061490d565b6004820155600160028201556003810183905560005b858110156131d857600160096000828254613156919061490d565b9091555050600c54600980546000908152600a602052604090209190915554835184908390811061319757634e487b7160e01b600052603260045260246000fd5b602090810291909101015260095460168054600181018255600091909152600080516020614a018339815191520155806131d08161496f565b91505061313b565b50604080516001808252818301909252600091602082018180368337505060035460405163731133e960e01b81529293506001600160a01b03169163731133e9915061322e90309088908b90879060040161432f565b600060405180830381600087803b15801561324857600080fd5b505af115801561325c573d6000803e3d6000fd5b50505050336001600160a01b03166000805160206149e183398151915284604051613287919061440a565b60405180910390a2505050505050565b6004546001600160a01b031681565b3390565b600080546001600160a01b038381166001600160a01b0319831681178455604051919092169283917f8be0079c531659141344cd1fd0a4f28419497f9722a3daafe3b4186f6b6457e09190a35050565b60006002600154141561331f5760405162461bcd60e51b81526004016105ae90614867565b6002600190815560165460009082111561333c5760009150613394565b6008546016541061334c57613394565b600061338285601954898960405160200161336a949392919061422d565b60405160208183030381529060405260016064613a3b565b9050604681111561339257600092505b505b81156139085760006133df8560195489896040516020016133b894939291906141be565b60408051601f198184030181529190526016546000906133da90600190614958565b613a3b565b905060006016828154811061340457634e487b7160e01b600052603260045260246000fd5b6000918252602080832090910154808352600a82526040808420548452600d90925291209091506001815460ff16600381111561345157634e487b7160e01b600052602160045260246000fd5b14156134e8578054600282015460405163a9059cbb60e01b81526101009092046001600160a01b03169163a9059cbb91613490918d9190600401614316565b602060405180830381600087803b1580156134aa57600080fd5b505af11580156134be573d6000803e3d6000fd5b505050506040513d601f19601f820116820180604052508101906134e29190614048565b50613659565b6002815460ff16600381111561350e57634e487b7160e01b600052602160045260246000fd5b14156135855780546003820154604051632142170760e11b81526101009092046001600160a01b0316916342842e0e9161354e9130918e91600401614277565b600060405180830381600087803b15801561356857600080fd5b505af115801561357c573d6000803e3d6000fd5b50505050613659565b6003815460ff1660038111156135ab57634e487b7160e01b600052602160045260246000fd5b1415613659576040805160018082528183019092526000916020820181803683370190505090508160000160019054906101000a90046001600160a01b03166001600160a01b031663f242432a308c85600301548660020154866040518663ffffffff1660e01b815260040161362595949392919061429b565b600060405180830381600087803b15801561363f57600080fd5b505af1158015613653573d6000803e3d6000fd5b50505050505b600254600480830154604051633352da4560e21b81526001600160a01b039093169263cd4b69149261368c92910161443d565b602060405180830381600087803b1580156136a657600080fd5b505af11580156136ba573d6000803e3d6000fd5b505050506040513d601f19601f820116820180604052508101906136de9190614068565b965061375d876019548b8b6040516020016136fc94939291906141f5565b60408051601f198184030181526014805460208181028601810190945280855291939290919083018282801561375157602002820191906000526020600020905b81548152602001906001019080831161373d575b50505050506064613a87565b935060006015856005811061378257634e487b7160e01b600052603260045260246000fd5b6010810491909101546000858152600b602052604090208054600f9093166002026101000a90910461ffff1661ffff199092168217905560168054919250906137cd90600190614958565b815481106137eb57634e487b7160e01b600052603260045260246000fd5b90600052602060002001546016858154811061381757634e487b7160e01b600052603260045260246000fd5b600091825260209091200155601680548061384257634e487b7160e01b600052603160045260246000fd5b6000828152602080822083016000199081018390559092019092556001848101546001600160a01b0316835260109091526040822080549192909161388890849061490d565b90915550506001600160a01b038a16600081815260116020908152604080832080546001810182559084528284200187905592825260129052908120805461ffff841692906138d890849061490d565b925050819055508061ffff16601760008282546138f5919061490d565b90915550929650613a3095505050505050565b60016009600082825461391b919061490d565b90915550506009546000908152600a60209081526040808320929092556019549151613951926136fc9288928b918b91016141f5565b905060006015826005811061397657634e487b7160e01b600052603260045260246000fd5b601081049190910154600980546000908152600b602090815260408083208054600f9097166002026101000a90950461ffff1661ffff1990961686179094556001600160a01b038c16808352601182528483209354845460018101865594845282842090940193909355918152601290915290812080549293508392909190613a0090849061490d565b925050819055508061ffff1660176000828254613a1d919061490d565b90915550506009549350613a3092505050565b600180559392505050565b6000818310613a4b575081613a80565b8351602085012083613a5d8185614958565b613a6890600161490d565b613a72908361498a565b613a7c919061490d565b9150505b9392505050565b600080613a9685600185613a3b565b90506000805b60018651613aaa9190614958565b8114613b0857858181518110613ad057634e487b7160e01b600052603260045260246000fd5b602002602001015182613ae3919061490d565b9150818311613af6579250613a80915050565b80613b008161496f565b915050613a9c565b5060018551613b179190614958565b9695505050505050565b6040805160c08101909152806000815260200160006001600160a01b0316815260200160006001600160a01b031681526020016000815260200160008152602001600081525090565b80356001600160a01b038116811461056a57600080fd5b600082601f830112613b91578081fd5b81356020613ba6613ba1836148ea565b6148c1565b8281528181019085830183850287018401881015613bc2578586fd5b855b85811015613be757613bd582613b6a565b84529284019290840190600101613bc4565b5090979650505050505050565b60008083601f840112613c05578182fd5b5081356001600160401b03811115613c1b578182fd5b6020830191508360208083028501011115613c3557600080fd5b9250929050565b600082601f830112613c4c578081fd5b81356020613c5c613ba1836148ea565b8281528181019085830183850287018401881015613c78578586fd5b855b85811015613be757813584529284019290840190600101613c7a565b60008083601f840112613ca7578182fd5b5081356001600160401b03811115613cbd578182fd5b602083019150836020828501011115613c3557600080fd5b600060208284031215613ce6578081fd5b613a8082613b6a565b60008060008060808587031215613d04578283fd5b613d0d85613b6a565b9350613d1b60208601613b6a565b9250613d2960408601613b6a565b9396929550929360600135925050565b60008060008060008060008060a0898b031215613d54578384fd5b613d5d89613b6a565b9750613d6b60208a01613b6a565b965060408901356001600160401b0380821115613d86578586fd5b613d928c838d01613bf4565b909850965060608b0135915080821115613daa578586fd5b613db68c838d01613bf4565b909650945060808b0135915080821115613dce578384fd5b50613ddb8b828c01613c96565b999c989b5096995094979396929594505050565b600080600080600060808688031215613e06578081fd5b613e0f86613b6a565b9450613e1d60208701613b6a565b93506040860135925060608601356001600160401b03811115613e3e578182fd5b613e4a88828901613c96565b969995985093965092949392505050565b60008060008060008060a08789031215613e73578182fd5b613e7c87613b6a565b9550613e8a60208801613b6a565b9450604087013593506060870135925060808701356001600160401b03811115613eb2578283fd5b613ebe89828a01613c96565b979a9699509497509295939492505050565b60008060408385031215613ee2578182fd5b613eeb83613b6a565b946020939093013593505050565b600080600060608486031215613f0d578283fd5b613f1684613b6a565b95602085013595506040909401359392505050565b60008060408385031215613f3d578182fd5b82356001600160401b0380821115613f53578384fd5b613f5f86838701613b81565b93506020850135915080821115613f74578283fd5b50613f8185828601613c3c565b9150509250929050565b600080600060608486031215613f9f578081fd5b83356001600160401b0380821115613fb5578283fd5b613fc187838801613b81565b94506020860135915080821115613fd6578283fd5b613fe287838801613c3c565b93506040860135915080821115613ff7578283fd5b5061400486828701613c3c565b9150509250925092565b60006020828403121561401f578081fd5b81356001600160401b03811115614034578182fd5b61404084828501613c3c565b949350505050565b600060208284031215614059578081fd5b81518015158114613a80578182fd5b600060208284031215614079578081fd5b5051919050565b600060208284031215614091578081fd5b81356001600160e01b031981168114613a80578182fd5b6000602082840312156140b9578081fd5b5035919050565b600080604083850312156140d2578182fd5b823591506140e260208401613b6a565b90509250929050565b6001600160a01b03169052565b6000815180845260208085019450808401835b8381101561412b57815161ffff168752958201959082019060010161410b565b509495945050505050565b6000815180845260208085019450808401835b8381101561412b57815187529582019590820190600101614149565b60008151808452815b8181101561418a5760208185018101518683018201520161416e565b8181111561419b5782602083870101525b50601f01601f19169290920160200192915050565b918252602082015260400190565b938452602084019290925260601b6001600160601b03191660408301526054820152650ca92dcc8caf60d31b6074820152607a0190565b938452602084019290925260601b6001600160601b03191660408301526054820152667765696768747360c81b6074820152607b0190565b938452602084019290925260601b6001600160601b0319166040830152605482015264189b1a5b9960da1b607482015260790190565b6001600160a01b0391909116815260200190565b6001600160a01b039384168152919092166020820152604081019190915260600190565b6001600160a01b03868116825285166020820152604081018490526060810183905260a0608082018190526000906142d590830184614165565b979650505050505050565b6001600160a01b038416815260606020820181905260009061430490830185614136565b8281036040840152613b178185614136565b6001600160a01b03929092168252602082015260400190565b600060018060a01b038616825284602083015283604083015260806060830152613b176080830184614165565b6040808252835182820181905260009190606090818501906020808901865b838110156143f6578151805160048082106143a357634e487b7160e01b8b526021815260248bfd5b508652808401516001600160a01b031684870152878101516143c7898801826140eb565b5080870151868801526080808201519087015260a0908101519086015260c0909401939082019060010161437b565b505086830390870152506142d581876140f8565b600060208252613a806020830184614136565b901515815260200190565b6001600160e01b031991909116815260200190565b90815260200190565b6020808252601f908201527f696e76616c69642072616e646f6d20636f6e7472616374206164647265737300604082015260600190565b60208082526029908201527f696e76616c6964207072697a6520706f6f6c20746f6b656e20636f6e7472616360408201526874206164647265737360b81b606082015260800190565b602080825260159082015274696e76616c696420746f6b656e206164647265737360581b604082015260600190565b60208082526026908201527f4f776e61626c653a206e6577206f776e657220697320746865207a65726f206160408201526564647265737360d01b606082015260800190565b6020808252600d908201526c696e76616c696420646174617360981b604082015260600190565b6020808252600a90820152691a5b9d985b1a59081a5960b21b604082015260600190565b6020808252601c908201527f696e76616c6964204e465420636f6e7472616374206164647265737300000000604082015260600190565b602080825260129082015271696e76616c6964206461746120617272617960701b604082015260600190565b60208082526019908201527f796f75206861766520616c726561647920726563656976656400000000000000604082015260600190565b602080825260129082015271696e76616c696420746f206164647265737360701b604082015260600190565b602080825260139082015272185b1c9958591e481a5b9a5d1a585b1a5e9959606a1b604082015260600190565b6020808252601390820152727175616e7469747920697320746f6f2062696760681b604082015260600190565b6020808252601190820152704e6f742079657420647261772074696d6560781b604082015260600190565b60208082526019908201527f546865206576656e74206973206e6f74206f7665722079657400000000000000604082015260600190565b60208082526027908201527f696e76616c696420626c6573732063617264204e465420636f6e7472616374206040820152666164647265737360c81b606082015260800190565b60208082526011908201527057726f6e6720696e64657820706172616d60781b604082015260600190565b602080825260129082015271195b99081d1a5b59481d1bdbc81cda1bdc9d60721b604082015260600190565b6020808252818101527f4f776e61626c653a2063616c6c6572206973206e6f7420746865206f776e6572604082015260600190565b6020808252601590820152741c5d585b9d1a5d1e481a5cc81d1bdbc81cdb585b1b605a1b604082015260600190565b6020808252600c908201526b07765696768747320697320360a41b604082015260600190565b60208082526018908201527f746f74616c416d6f756e7420697320746f6f20736d616c6c0000000000000000604082015260600190565b6020808252601f908201527f5265656e7472616e637947756172643a207265656e7472616e742063616c6c00604082015260600190565b6020808252600990820152681a185cc8195b99195960ba1b604082015260600190565b6040518181016001600160401b03811182821017156148e2576148e26149ca565b604052919050565b60006001600160401b03821115614903576149036149ca565b5060209081020190565b600082198211156149205761492061499e565b500190565b600082614934576149346149b4565b500490565b60008160001904831182151516156149535761495361499e565b500290565b60008282101561496a5761496a61499e565b500390565b60006000198214156149835761498361499e565b5060010190565b600082614999576149996149b4565b500690565b634e487b7160e01b600052601160045260246000fd5b634e487b7160e01b600052601260045260246000fd5b634e487b7160e01b600052604160045260246000fdfece5825d66b093769cf76ee2d1360fb23bafc198cfcf066e4575796001447df10d833147d7dc355ba459fc788f669e58cfaf9dc25ddcd0702e87d69c7b5124289a264697066735822122081fdb286fa53e15cbc05b69e259b13a1d1a7648a8ed3b7aeed3e64bcd1dec03864736f6c63430008000033",
  "immutableReferences": {},
  "source": "// SPDX-License-Identifier: MIT\npragma solidity ^0.8.0;\npragma experimental ABIEncoderV2;\n\nimport \"@openzeppelin/contracts/access/Ownable.sol\";\nimport \"@openzeppelin/contracts/token/ERC1155/presets/ERC1155PresetMinterPauser.sol\";\nimport \"@openzeppelin/contracts/token/ERC20/IERC20.sol\";\nimport \"@openzeppelin/contracts/token/ERC721/IERC721.sol\";\nimport \"@openzeppelin/contracts/token/ERC1155/IERC1155.sol\";\nimport \"@openzeppelin/contracts/security/ReentrancyGuard.sol\";\nimport \"@openzeppelin/contracts/token/ERC721/IERC721Receiver.sol\";\nimport \"@openzeppelin/contracts/token/ERC1155/IERC1155Receiver.sol\";\nimport \"./Random.sol\";\nimport \"./Utils.sol\";\n\ncontract CollectBless is Ownable, ReentrancyGuard, IERC721Receiver, IERC1155Receiver {\n    /**\n    Prize type\n     */\n    enum PrizeType {\n        NONE,\n        ERC20,\n        ERC721,\n        ERC1155\n    }\n\n    /**\n    @dev Blind box data structure\n     */\n    struct BlindBox {\n        // prize type\n        PrizeType prizeType;\n        // Prize contract address\n        address token;\n        // Creator\n        address creator;\n        // Number of prizes\n        uint256 amount;\n        uint256 nftId;\n        uint256 seedBlock;\n    }\n\n    /**\n    Random contract address\n     */\n    Random public random;\n\n    /**\n    Bless card contract address\n     */\n    ERC1155PresetMinterPauser public blessCard;\n\n    /**\n    Prize pool token (USDT)\n     */\n    IERC20 public prizePoolToken;\n\n    /**\n    Rare card price\n     */\n    uint256 public rareCardPrice = 0.2 ether;\n\n    /**\n    Blind box price\n     */\n    uint256 public blindBoxPrice = 1 ether;\n\n    /**\n    Event end time\n     */\n    uint256 public eventEndTime;\n\n    /**\n    The number of rare cards\n     */\n    uint256 public rareCardCount;\n\n    uint256 public blindBoxCount;\n    // Blind box id mapping\n    // blindBox id => blindBox type id\n    mapping(uint256 => uint256) private blindBoxTypes;\n    // blind box id => weights\n    mapping(uint256 => uint16) private blindBoxsWeights;\n\n    uint256 private blindBoxTypeId;\n\n    // Blind box type id => BlindBox\n    mapping(uint256 => BlindBox) private _blindBoxs;\n\n    /**\n    Total Prize Pool Amount\n     */\n    uint256 public prizePoolAmount;\n\n    /**\n    user address => count\n     */\n    mapping(address => uint256) public mintBoxCounts;\n\n    /**\n    uaer address => count\n     */\n    mapping(address => uint256) public openBoxCounts;\n\n    // user address => blind box ids\n    mapping(address => uint256[]) userOpenBoxs;\n    // user address => total weights\n    mapping(address => uint256) public userWeights;\n\n    uint256 public rareCradId = 5;\n\n    // weight configuration\n    uint256[] private weightsConfig;\n    uint16[5] private weightsValue = [uint16(1), 2, 3, 5, 10];\n\n    // blind box pool, blind box id array\n    uint256[] private blindBoxPool;\n\n    // all user total weights\n    uint256 public totalWeights = 0;\n\n    // Bonuses already claimed by the user\n    mapping(address => uint256) public alreadyReceived;\n\n    bytes32 private randomFactor;\n\n    // whitelist nft start id\n    uint256 public whitelistIdCount = 99;\n\n    // mint user => id\n    mapping(address => uint256) public whitelistId;\n\n    event MintBox(address indexed creator, uint256[] ids);\n    event OpenBox(address indexed user, uint256[] ids);\n\n    function init(\n        address blessCardAddr,\n        address tokenAddr,\n        address randomAddr,\n        uint256 endTime\n    ) public onlyOwner {\n        require(address(blessCard) == address(0), \"already initialized\");\n        require(blessCardAddr != address(0), \"invalid bless card NFT contract address\");\n        require(randomAddr != address(0), \"invalid random contract address\");\n        require(tokenAddr != address(0), \"invalid prize pool token contract address\");\n        require(endTime > block.timestamp, \"end time too short\");\n        blessCard = ERC1155PresetMinterPauser(blessCardAddr);\n        random = Random(randomAddr);\n        eventEndTime = endTime;\n        prizePoolToken = IERC20(tokenAddr);\n\n        weightsConfig.push(50);\n        weightsConfig.push(20);\n        weightsConfig.push(15);\n        weightsConfig.push(10);\n        weightsConfig.push(5);\n\n        _blindBoxs[blindBoxTypeId].prizeType = PrizeType.NONE;\n        _blindBoxs[blindBoxTypeId].token = address(0);\n        _blindBoxs[blindBoxTypeId].creator = address(0);\n        _blindBoxs[blindBoxTypeId].amount = 0;\n        _blindBoxs[blindBoxTypeId].nftId = 0;\n        _blindBoxs[blindBoxTypeId].seedBlock = 0;\n\n        bytes32 seed = random.getRandom(0);\n        randomFactor = keccak256(abi.encodePacked(randomFactor, seed));\n    }\n\n    /**\n    Set rare card price\n     */\n    function setRareCardPrice(uint256 price) public onlyOwner {\n        rareCardPrice = price;\n    }\n\n    /**\n    Set blind box price\n     */\n    function setBlindBoxPrice(uint256 price) public onlyOwner {\n        blindBoxPrice = price;\n    }\n\n    function setEventEndTime(uint256 newTime) public onlyOwner {\n        eventEndTime = newTime;\n    }\n\n    function getUserOpenBoxs(address user) public view returns (uint256[] memory) {\n        return userOpenBoxs[user];\n    }\n\n    /**\n    Create a token blind box\n     */\n    function mintBox(\n        address token,\n        uint256 quantity,\n        uint256 totalAmount\n    ) public {\n        require(eventEndTime > block.timestamp, \"has ended\");\n        require(token != address(0), \"invalid token address\");\n        require(quantity > 0, \"quantity is too small\");\n\n        uint256 amount = totalAmount / quantity;\n        require(amount > 1, \"totalAmount is too small\");\n\n        // get box token\n        IERC20(token).transferFrom(msg.sender, address(this), amount * quantity);\n\n        // get prize pool token\n        uint256 fee = blindBoxPrice * quantity;\n        prizePoolToken.transferFrom(msg.sender, address(this), fee);\n\n        prizePoolAmount += fee;\n        mintBoxCounts[msg.sender] += quantity;\n\n        uint256[] memory ids = new uint256[](quantity);\n        blindBoxTypeId += 1;\n        BlindBox storage bb = _blindBoxs[blindBoxTypeId];\n        bb.prizeType = PrizeType.ERC20;\n        bb.creator = msg.sender;\n        bb.token = token;\n        bb.seedBlock = block.number + 1;\n        bb.amount = amount;\n\n        for (uint256 i = 0; i < quantity; i++) {\n            blindBoxCount += 1;\n            blindBoxTypes[blindBoxCount] = blindBoxTypeId;\n            ids[i] = blindBoxCount;\n            blindBoxPool.push(blindBoxCount);\n        }\n        emit MintBox(msg.sender, ids);\n    }\n\n    /**\n    Create a ERC721 NFT blind box\n     */\n    function mintBoxNFT721(address addr, uint256 nftId) public {\n        require(eventEndTime > block.timestamp, \"has ended\");\n        require(addr != address(0), \"invalid NFT contract address\");\n\n        prizePoolToken.transferFrom(msg.sender, address(this), blindBoxPrice);\n\n        IERC721(addr).safeTransferFrom(msg.sender, address(this), nftId);\n\n        prizePoolAmount += blindBoxPrice;\n        mintBoxCounts[msg.sender] += 1;\n\n        blindBoxCount += 1;\n        blindBoxTypeId += 1;\n        BlindBox storage bb = _blindBoxs[blindBoxTypeId];\n        bb.prizeType = PrizeType.ERC721;\n        bb.creator = msg.sender;\n        bb.token = addr;\n        bb.seedBlock = block.number + 1;\n        bb.nftId = nftId;\n\n        blindBoxTypes[blindBoxCount] = blindBoxTypeId;\n\n        blindBoxPool.push(blindBoxCount);\n\n        uint256[] memory ids = new uint256[](1);\n        ids[0] = blindBoxCount;\n        emit MintBox(msg.sender, ids);\n    }\n\n    /**\n    Create ERC1155 NFT blind box\n     */\n    function mintBoxNFT1155(\n        address addr,\n        uint256 nftId,\n        uint256 quantity\n    ) public {\n        require(eventEndTime > block.timestamp, \"has ended\");\n        require(addr != address(0), \"invalid NFT contract address\");\n        require(quantity >= 1, \"quantity is too small\");\n\n        bytes memory data = new bytes(1);\n        IERC1155(addr).safeTransferFrom(msg.sender, address(this), nftId, quantity, data);\n\n        uint256 fee = blindBoxPrice * quantity;\n        prizePoolToken.transferFrom(msg.sender, address(this), fee);\n\n        prizePoolAmount += fee;\n        mintBoxCounts[msg.sender] += quantity;\n\n        blindBoxTypeId += 1;\n        BlindBox storage bb = _blindBoxs[blindBoxTypeId];\n        bb.prizeType = PrizeType.ERC1155;\n        bb.creator = msg.sender;\n        bb.token = addr;\n        bb.seedBlock = block.number + 1;\n        bb.amount = 1;\n        bb.nftId = nftId;\n\n        uint256[] memory ids = new uint256[](quantity);\n        for (uint256 i = 0; i < quantity; i++) {\n            blindBoxCount += 1;\n            ids[i] = blindBoxCount;\n            blindBoxTypes[blindBoxCount] = blindBoxTypeId;\n            blindBoxPool.push(blindBoxCount);\n        }\n\n        emit MintBox(msg.sender, ids);\n    }\n\n    function mintWhitelistNFT(uint256 quantity) public {\n        require(quantity >= 1, \"quantity is too small\");\n\n        uint256 fee = blindBoxPrice * quantity;\n        prizePoolToken.transferFrom(msg.sender, address(this), fee);\n\n        prizePoolAmount += fee;\n        mintBoxCounts[msg.sender] += quantity;\n\n        uint256 nftId = whitelistId[msg.sender];\n        if (nftId == 0) {\n            whitelistIdCount += 1;\n            nftId = whitelistIdCount;\n            whitelistId[msg.sender] = nftId;\n        }\n\n        uint256[] memory ids = new uint256[](quantity);\n        blindBoxTypeId += 1;\n        BlindBox storage bb = _blindBoxs[blindBoxTypeId];\n        bb.prizeType = PrizeType.ERC1155;\n        bb.creator = msg.sender;\n        bb.token = address(blessCard);\n        bb.seedBlock = block.number + 1;\n        bb.amount = 1;\n        bb.nftId = nftId;\n\n        for (uint256 i = 0; i < quantity; i++) {\n            blindBoxCount += 1;\n            blindBoxTypes[blindBoxCount] = blindBoxTypeId;\n            ids[i] = blindBoxCount;\n            blindBoxPool.push(blindBoxCount);\n        }\n\n        bytes memory data = new bytes(1);\n        blessCard.mint(address(this), nftId, quantity, data);\n\n        emit MintBox(msg.sender, ids);\n    }\n\n    /**\n    Mint Rare Cards\n     */\n    function mintRareCard(uint256 quantity, address to) public {\n        require(eventEndTime > block.timestamp, \"has ended\");\n        require(quantity > 0, \"quantity is too small\");\n\n        uint256 fee = rareCardPrice * quantity;\n        prizePoolToken.transferFrom(msg.sender, address(this), fee);\n\n        bytes memory data = new bytes(1);\n        blessCard.mint(to, rareCradId, quantity, data);\n\n        prizePoolAmount += fee;\n        rareCardCount += quantity;\n    }\n\n    function mintRareCardBatch(address[] memory tos, uint256[] memory quantities) public nonReentrant {\n        require(eventEndTime > block.timestamp, \"has ended\");\n        require(tos.length == quantities.length, \"invalid datas\");\n\n        uint256 fee;\n        bytes memory data = new bytes(1);\n        for (uint256 i = 0; i < tos.length; i++) {\n            fee += rareCardPrice * quantities[i];\n            blessCard.mint(tos[i], rareCradId, quantities[i], data);\n            rareCardCount += quantities[i];\n        }\n        prizePoolToken.transferFrom(msg.sender, address(this), fee);\n        prizePoolAmount += fee;\n    }\n\n    /**\n    Mint normal card\n     */\n    function mintCard(\n        address[] memory tos,\n        uint256[] memory ids,\n        uint256[] memory quantities\n    ) public onlyOwner {\n        require(eventEndTime > block.timestamp, \"has ended\");\n        require(tos.length > 0, \"invalid to address\");\n        require(tos.length == ids.length, \"invalid data array\");\n        require(tos.length == quantities.length, \"invalid data array\");\n\n        bytes memory data = new bytes(1);\n        for (uint256 i = 0; i < tos.length; i++) {\n            require(quantities[i] > 0, \"quantity is too small\");\n            require(ids[i] >= 1 && ids[i] <= 4, \"invalid id\");\n            blessCard.mint(tos[i], ids[i], quantities[i], data);\n        }\n    }\n\n    /**\n    Consume the card and open the blind box\n     */\n    function openBox(uint256 quantity) public {\n        require(eventEndTime > block.timestamp, \"has ended\");\n        require(quantity > 0, \"quantity is too small\");\n        require(quantity <= 10, \"quantity is too big\");\n\n        uint256[] memory ids = new uint256[](5);\n        ids[0] = 1;\n        ids[1] = 2;\n        ids[2] = 3;\n        ids[3] = 4;\n        ids[4] = rareCradId;\n        uint256[] memory amounts = new uint256[](5);\n        amounts[0] = quantity;\n        amounts[1] = quantity;\n        amounts[2] = quantity;\n        amounts[3] = quantity;\n        amounts[4] = quantity;\n\n        blessCard.burnBatch(msg.sender, ids, amounts);\n        rareCardCount -= quantity;\n\n        uint256[] memory outIds = new uint256[](quantity);\n        bytes32 seed = random.getRandom(0);\n        randomFactor = keccak256(abi.encodePacked(randomFactor, seed));\n        for (uint256 i = 0; i < quantity; i++) {\n            outIds[i] = _openBox(msg.sender, i, seed);\n        }\n\n        emit OpenBox(msg.sender, outIds);\n    }\n\n    function _openBox(\n        address to,\n        uint256 idx,\n        bytes32 seed\n    ) private nonReentrant returns (uint256) {\n        bool isBlind = true;\n        uint256 wIdx = 0;\n        if (blindBoxPool.length < 1) {\n            isBlind = false;\n        } else if (blindBoxPool.length >= rareCardCount) {} else {\n            uint256 w = Utils.randomUint(abi.encodePacked(seed, randomFactor, to, idx, \"blind\"), 1, 100);\n            if (w > 70) {\n                isBlind = false;\n            }\n        }\n\n        if (isBlind) {\n            uint256 index = Utils.randomUint(abi.encodePacked(seed, randomFactor, to, idx, \"eIndex\"), 0, blindBoxPool.length - 1);\n            uint256 boxId = blindBoxPool[index];\n            BlindBox storage bb = _blindBoxs[blindBoxTypes[boxId]];\n\n            if (bb.prizeType == PrizeType.ERC20) {\n                IERC20(bb.token).transfer(to, bb.amount);\n            } else if (bb.prizeType == PrizeType.ERC721) {\n                IERC721(bb.token).safeTransferFrom(address(this), to, bb.nftId);\n            } else if (bb.prizeType == PrizeType.ERC1155) {\n                bytes memory data = new bytes(1);\n                IERC1155(bb.token).safeTransferFrom(address(this), to, bb.nftId, bb.amount, data);\n            }\n\n            seed = random.getRandom(bb.seedBlock);\n            wIdx = Utils.randomWeight(abi.encodePacked(seed, randomFactor, to, idx, \"weights\"), weightsConfig, 100);\n            uint16 weights = weightsValue[wIdx];\n            blindBoxsWeights[boxId] = weights;\n\n            // del from pool\n            blindBoxPool[index] = blindBoxPool[blindBoxPool.length - 1];\n            blindBoxPool.pop();\n\n            openBoxCounts[bb.creator] += 1;\n            userOpenBoxs[to].push(boxId);\n            userWeights[to] += weights;\n            totalWeights += weights;\n\n            return boxId;\n        } else {\n            blindBoxCount += 1;\n            blindBoxTypes[blindBoxCount] = 0;\n            wIdx = Utils.randomWeight(abi.encodePacked(seed, randomFactor, to, idx, \"weights\"), weightsConfig, 100);\n            uint16 weights = weightsValue[wIdx];\n            blindBoxsWeights[blindBoxCount] = weights;\n\n            userOpenBoxs[to].push(blindBoxCount);\n            userWeights[to] += weights;\n            totalWeights += weights;\n\n            return blindBoxCount;\n        }\n    }\n\n    /**\n    Receive the total prize according to the weight obtained\n     */\n    function cashPrize() public {\n        require(eventEndTime < block.timestamp, \"Not yet draw time\");\n        require(totalWeights > 0, \"weights is 0\");\n        require(alreadyReceived[msg.sender] == 0, \"you have already received\");\n\n        uint256 value = (prizePoolAmount * userWeights[msg.sender]) / totalWeights;\n        if (value > 0) {\n            alreadyReceived[msg.sender] = value;\n            prizePoolToken.transfer(msg.sender, value);\n        }\n    }\n\n    /**\n    Claim an unopened blind box\n     */\n    function claimBlindBox(uint256 _limit) public {\n        require(eventEndTime < block.timestamp, \"The event is not over yet\");\n\n        uint256 limit = 300;\n        if (_limit != 0) {\n            limit = _limit;\n        }\n\n        if (mintBoxCounts[msg.sender] - openBoxCounts[msg.sender] > 0) {\n            uint256 j = 0;\n            bytes memory data = new bytes(1);\n            for (uint256 i = 0; j < limit && i < blindBoxPool.length; j++) {\n                BlindBox storage bb = _blindBoxs[blindBoxTypes[blindBoxPool[i]]];\n                if (bb.creator == msg.sender) {\n                    openBoxCounts[bb.creator] += 1;\n                    blindBoxPool[i] = blindBoxPool[blindBoxPool.length - 1];\n                    blindBoxPool.pop();\n\n                    if (bb.prizeType == PrizeType.ERC20) {\n                        IERC20(bb.token).transfer(bb.creator, bb.amount);\n                    } else if (bb.prizeType == PrizeType.ERC721) {\n                        IERC721(bb.token).safeTransferFrom(address(this), bb.creator, bb.nftId);\n                    } else if (bb.prizeType == PrizeType.ERC1155) {\n                        IERC1155(bb.token).safeTransferFrom(address(this), bb.creator, bb.nftId, bb.amount, data);\n                    }\n                } else {\n                    i++;\n                }\n            }\n        }\n    }\n\n    function claimBlindBox2(uint256 _limit) public {\n        require(eventEndTime < block.timestamp, \"The event is not over yet\");\n\n        if (blindBoxPool.length == 0) return;\n\n        uint256 limit = 300;\n        if (_limit != 0) {\n            limit = _limit;\n        }\n\n        uint256 j = 0;\n        bytes memory data = new bytes(1);\n        for (uint256 i = blindBoxPool.length - 1; j < limit; j++) {\n            BlindBox storage bb = _blindBoxs[blindBoxTypes[blindBoxPool[i]]];\n            openBoxCounts[bb.creator] += 1;\n            blindBoxPool.pop();\n\n            if (bb.prizeType == PrizeType.ERC20) {\n                IERC20(bb.token).transfer(bb.creator, bb.amount);\n            } else if (bb.prizeType == PrizeType.ERC721) {\n                IERC721(bb.token).safeTransferFrom(address(this), bb.creator, bb.nftId);\n            } else if (bb.prizeType == PrizeType.ERC1155) {\n                IERC1155(bb.token).safeTransferFrom(address(this), bb.creator, bb.nftId, bb.amount, data);\n            }\n\n            if (blindBoxPool.length == 0) break;\n            i = blindBoxPool.length - 1;\n        }\n    }\n\n    function getUserOpendBox(\n        address user,\n        uint256 startIndex,\n        uint256 lastIndex\n    ) public view returns (BlindBox[] memory boxes, uint16[] memory weights) {\n        require(startIndex < lastIndex, \"Wrong index param\");\n        uint256[] memory ids = userOpenBoxs[user];\n        if (ids.length == 0) {\n            return (boxes, weights);\n        }\n        uint256 len = ids.length;\n        if (len <= startIndex) {\n            return (boxes, weights);\n        }\n        if (len <= lastIndex) {\n            lastIndex = len;\n        }\n        boxes = new BlindBox[](lastIndex - startIndex);\n        weights = new uint16[](lastIndex - startIndex);\n        uint256 i = 0;\n        for (uint256 j = startIndex; j < lastIndex; j++) {\n            boxes[i] = _blindBoxs[blindBoxTypes[ids[j]]];\n            weights[i] = blindBoxsWeights[ids[j]];\n            i++;\n        }\n        return (boxes, weights);\n    }\n\n    function getBoxsByIds(uint256[] memory ids) public view returns (BlindBox[] memory boxes, uint16[] memory weights) {\n        if (ids.length == 0) {\n            return (boxes, weights);\n        }\n        boxes = new BlindBox[](ids.length);\n        weights = new uint16[](ids.length);\n        for (uint256 i = 0; i < ids.length; i++) {\n            boxes[i] = _blindBoxs[blindBoxTypes[ids[i]]];\n            weights[i] = blindBoxsWeights[ids[i]];\n        }\n        return (boxes, weights);\n    }\n\n    function onERC721Received(\n        address,\n        address,\n        uint256,\n        bytes calldata\n    ) public pure override returns (bytes4) {\n        return IERC721Receiver.onERC721Received.selector;\n    }\n\n    function onERC1155Received(\n        address,\n        address,\n        uint256,\n        uint256,\n        bytes calldata\n    ) public pure override returns (bytes4) {\n        return IERC1155Receiver.onERC1155Received.selector;\n    }\n\n    function onERC1155BatchReceived(\n        address,\n        address,\n        uint256[] calldata,\n        uint256[] calldata,\n        bytes calldata\n    ) public pure override returns (bytes4) {\n        return 0;\n    }\n\n    function supportsInterface(bytes4 interfaceId) public pure override returns (bool) {\n        return interfaceId == type(IERC721Receiver).interfaceId || interfaceId == type(IERC1155Receiver).interfaceId;\n    }\n}\n",
  "sourcePath": "/Users/necklace/work/nutbox/nutbox-contract/contracts/CollectBless.sol",
  "compiler": {
    "name": "solc",
    "version": "0.8.0+commit.c7dfd78e.Emscripten.clang"
  },
  "schemaVersion": "3.4.6",
  "updatedAt": "2023-01-11T15:33:36.671Z",
  "devdoc": {
    "kind": "dev",
    "methods": {
      "owner()": {
        "details": "Returns the address of the current owner."
      },
      "renounceOwnership()": {
        "details": "Leaves the contract without owner. It will not be possible to call `onlyOwner` functions anymore. Can only be called by the current owner. NOTE: Renouncing ownership will leave the contract without an owner, thereby removing any functionality that is only available to the owner."
      },
      "supportsInterface(bytes4)": {
        "details": "Returns true if this contract implements the interface defined by `interfaceId`. See the corresponding https://eips.ethereum.org/EIPS/eip-165#how-interfaces-are-identified[EIP section] to learn more about how these ids are created. This function call must use less than 30 000 gas."
      },
      "transferOwnership(address)": {
        "details": "Transfers ownership of the contract to a new account (`newOwner`). Can only be called by the current owner."
      }
    },
    "version": 1
  },
  "userdoc": {
    "kind": "user",
    "methods": {
      "blessCard()": {
        "notice": "Bless card contract address"
      },
      "blindBoxPrice()": {
        "notice": "Blind box price"
      },
      "cashPrize()": {
        "notice": "Receive the total prize according to the weight obtained"
      },
      "claimBlindBox(uint256)": {
        "notice": "Claim an unopened blind box"
      },
      "eventEndTime()": {
        "notice": "Event end time"
      },
      "mintBox(address,uint256,uint256)": {
        "notice": "Create a token blind box"
      },
      "mintBoxCounts(address)": {
        "notice": "user address => count"
      },
      "mintBoxNFT1155(address,uint256,uint256)": {
        "notice": "Create ERC1155 NFT blind box"
      },
      "mintBoxNFT721(address,uint256)": {
        "notice": "Create a ERC721 NFT blind box"
      },
      "mintCard(address[],uint256[],uint256[])": {
        "notice": "Mint normal card"
      },
      "mintRareCard(uint256,address)": {
        "notice": "Mint Rare Cards"
      },
      "openBox(uint256)": {
        "notice": "Consume the card and open the blind box"
      },
      "openBoxCounts(address)": {
        "notice": "uaer address => count"
      },
      "prizePoolAmount()": {
        "notice": "Total Prize Pool Amount"
      },
      "prizePoolToken()": {
        "notice": "Prize pool token (USDT)"
      },
      "random()": {
        "notice": "Random contract address"
      },
      "rareCardCount()": {
        "notice": "The number of rare cards"
      },
      "rareCardPrice()": {
        "notice": "Rare card price"
      },
      "setBlindBoxPrice(uint256)": {
        "notice": "Set blind box price"
      },
      "setRareCardPrice(uint256)": {
        "notice": "Set rare card price"
      }
    },
    "version": 1
  }
}