{
  "contractName": "CollectBless",
  "abi": [
    {
      "anonymous": false,
      "inputs": [
        {
          "indexed": true,
          "internalType": "address",
          "name": "creator",
          "type": "address"
        },
        {
          "indexed": false,
          "internalType": "uint256[]",
          "name": "ids",
          "type": "uint256[]"
        }
      ],
      "name": "MintBox",
      "type": "event"
    },
    {
      "anonymous": false,
      "inputs": [
        {
          "indexed": true,
          "internalType": "address",
          "name": "user",
          "type": "address"
        },
        {
          "indexed": false,
          "internalType": "uint256[]",
          "name": "ids",
          "type": "uint256[]"
        }
      ],
      "name": "OpenBox",
      "type": "event"
    },
    {
      "anonymous": false,
      "inputs": [
        {
          "indexed": true,
          "internalType": "address",
          "name": "previousOwner",
          "type": "address"
        },
        {
          "indexed": true,
          "internalType": "address",
          "name": "newOwner",
          "type": "address"
        }
      ],
      "name": "OwnershipTransferred",
      "type": "event"
    },
    {
      "inputs": [
        {
          "internalType": "address",
          "name": "",
          "type": "address"
        }
      ],
      "name": "alreadyReceived",
      "outputs": [
        {
          "internalType": "uint256",
          "name": "",
          "type": "uint256"
        }
      ],
      "stateMutability": "view",
      "type": "function"
    },
    {
      "inputs": [],
      "name": "blessCard",
      "outputs": [
        {
          "internalType": "contract ERC1155PresetMinterPauser",
          "name": "",
          "type": "address"
        }
      ],
      "stateMutability": "view",
      "type": "function"
    },
    {
      "inputs": [],
      "name": "blindBoxCount",
      "outputs": [
        {
          "internalType": "uint256",
          "name": "",
          "type": "uint256"
        }
      ],
      "stateMutability": "view",
      "type": "function"
    },
    {
      "inputs": [],
      "name": "blindBoxPrice",
      "outputs": [
        {
          "internalType": "uint256",
          "name": "",
          "type": "uint256"
        }
      ],
      "stateMutability": "view",
      "type": "function"
    },
    {
      "inputs": [],
      "name": "claimedAmount",
      "outputs": [
        {
          "internalType": "uint256",
          "name": "",
          "type": "uint256"
        }
      ],
      "stateMutability": "view",
      "type": "function"
    },
    {
      "inputs": [],
      "name": "eventEndTime",
      "outputs": [
        {
          "internalType": "uint256",
          "name": "",
          "type": "uint256"
        }
      ],
      "stateMutability": "view",
      "type": "function"
    },
    {
      "inputs": [
        {
          "internalType": "address",
          "name": "",
          "type": "address"
        }
      ],
      "name": "mintBoxCounts",
      "outputs": [
        {
          "internalType": "uint256",
          "name": "",
          "type": "uint256"
        }
      ],
      "stateMutability": "view",
      "type": "function"
    },
    {
      "inputs": [
        {
          "internalType": "address",
          "name": "",
          "type": "address"
        }
      ],
      "name": "openBoxCounts",
      "outputs": [
        {
          "internalType": "uint256",
          "name": "",
          "type": "uint256"
        }
      ],
      "stateMutability": "view",
      "type": "function"
    },
    {
      "inputs": [],
      "name": "owner",
      "outputs": [
        {
          "internalType": "address",
          "name": "",
          "type": "address"
        }
      ],
      "stateMutability": "view",
      "type": "function"
    },
    {
      "inputs": [],
      "name": "prizePoolAmount",
      "outputs": [
        {
          "internalType": "uint256",
          "name": "",
          "type": "uint256"
        }
      ],
      "stateMutability": "view",
      "type": "function"
    },
    {
      "inputs": [],
      "name": "prizePoolToken",
      "outputs": [
        {
          "internalType": "contract IERC20",
          "name": "",
          "type": "address"
        }
      ],
      "stateMutability": "view",
      "type": "function"
    },
    {
      "inputs": [],
      "name": "random",
      "outputs": [
        {
          "internalType": "contract Random",
          "name": "",
          "type": "address"
        }
      ],
      "stateMutability": "view",
      "type": "function"
    },
    {
      "inputs": [],
      "name": "rareCardCount",
      "outputs": [
        {
          "internalType": "uint256",
          "name": "",
          "type": "uint256"
        }
      ],
      "stateMutability": "view",
      "type": "function"
    },
    {
      "inputs": [],
      "name": "rareCardPrice",
      "outputs": [
        {
          "internalType": "uint256",
          "name": "",
          "type": "uint256"
        }
      ],
      "stateMutability": "view",
      "type": "function"
    },
    {
      "inputs": [],
      "name": "rareCradId",
      "outputs": [
        {
          "internalType": "uint256",
          "name": "",
          "type": "uint256"
        }
      ],
      "stateMutability": "view",
      "type": "function"
    },
    {
      "inputs": [],
      "name": "renounceOwnership",
      "outputs": [],
      "stateMutability": "nonpayable",
      "type": "function"
    },
    {
      "inputs": [],
      "name": "totalWeights",
      "outputs": [
        {
          "internalType": "uint256",
          "name": "",
          "type": "uint256"
        }
      ],
      "stateMutability": "view",
      "type": "function"
    },
    {
      "inputs": [
        {
          "internalType": "address",
          "name": "newOwner",
          "type": "address"
        }
      ],
      "name": "transferOwnership",
      "outputs": [],
      "stateMutability": "nonpayable",
      "type": "function"
    },
    {
      "inputs": [
        {
          "internalType": "address",
          "name": "",
          "type": "address"
        }
      ],
      "name": "userWeights",
      "outputs": [
        {
          "internalType": "uint256",
          "name": "",
          "type": "uint256"
        }
      ],
      "stateMutability": "view",
      "type": "function"
    },
    {
      "inputs": [
        {
          "internalType": "address",
          "name": "",
          "type": "address"
        }
      ],
      "name": "whitelistId",
      "outputs": [
        {
          "internalType": "uint256",
          "name": "",
          "type": "uint256"
        }
      ],
      "stateMutability": "view",
      "type": "function"
    },
    {
      "inputs": [],
      "name": "whitelistIdCount",
      "outputs": [
        {
          "internalType": "uint256",
          "name": "",
          "type": "uint256"
        }
      ],
      "stateMutability": "view",
      "type": "function"
    },
    {
      "inputs": [
        {
          "internalType": "address",
          "name": "blessCardAddr",
          "type": "address"
        },
        {
          "internalType": "address",
          "name": "tokenAddr",
          "type": "address"
        },
        {
          "internalType": "address",
          "name": "randomAddr",
          "type": "address"
        },
        {
          "internalType": "uint256",
          "name": "endTime",
          "type": "uint256"
        }
      ],
      "name": "init",
      "outputs": [],
      "stateMutability": "nonpayable",
      "type": "function"
    },
    {
      "inputs": [
        {
          "internalType": "uint256",
          "name": "price",
          "type": "uint256"
        }
      ],
      "name": "setRareCardPrice",
      "outputs": [],
      "stateMutability": "nonpayable",
      "type": "function"
    },
    {
      "inputs": [
        {
          "internalType": "uint256",
          "name": "price",
          "type": "uint256"
        }
      ],
      "name": "setBlindBoxPrice",
      "outputs": [],
      "stateMutability": "nonpayable",
      "type": "function"
    },
    {
      "inputs": [
        {
          "internalType": "uint256",
          "name": "newTime",
          "type": "uint256"
        }
      ],
      "name": "setEventEndTime",
      "outputs": [],
      "stateMutability": "nonpayable",
      "type": "function"
    },
    {
      "inputs": [
        {
          "internalType": "address",
          "name": "user",
          "type": "address"
        }
      ],
      "name": "getUserOpenBoxs",
      "outputs": [
        {
          "internalType": "uint256[]",
          "name": "",
          "type": "uint256[]"
        }
      ],
      "stateMutability": "view",
      "type": "function"
    },
    {
      "inputs": [
        {
          "internalType": "address",
          "name": "token",
          "type": "address"
        },
        {
          "internalType": "uint256",
          "name": "quantity",
          "type": "uint256"
        },
        {
          "internalType": "uint256",
          "name": "totalAmount",
          "type": "uint256"
        }
      ],
      "name": "mintBox",
      "outputs": [],
      "stateMutability": "nonpayable",
      "type": "function"
    },
    {
      "inputs": [
        {
          "internalType": "address",
          "name": "addr",
          "type": "address"
        },
        {
          "internalType": "uint256",
          "name": "nftId",
          "type": "uint256"
        }
      ],
      "name": "mintBoxNFT721",
      "outputs": [],
      "stateMutability": "nonpayable",
      "type": "function"
    },
    {
      "inputs": [
        {
          "internalType": "address",
          "name": "addr",
          "type": "address"
        },
        {
          "internalType": "uint256",
          "name": "nftId",
          "type": "uint256"
        },
        {
          "internalType": "uint256",
          "name": "quantity",
          "type": "uint256"
        }
      ],
      "name": "mintBoxNFT1155",
      "outputs": [],
      "stateMutability": "nonpayable",
      "type": "function"
    },
    {
      "inputs": [
        {
          "internalType": "uint256",
          "name": "quantity",
          "type": "uint256"
        }
      ],
      "name": "mintWhitelistNFT",
      "outputs": [],
      "stateMutability": "nonpayable",
      "type": "function"
    },
    {
      "inputs": [
        {
          "internalType": "uint256",
          "name": "quantity",
          "type": "uint256"
        },
        {
          "internalType": "address",
          "name": "to",
          "type": "address"
        }
      ],
      "name": "mintRareCard",
      "outputs": [],
      "stateMutability": "nonpayable",
      "type": "function"
    },
    {
      "inputs": [
        {
          "internalType": "address[]",
          "name": "tos",
          "type": "address[]"
        },
        {
          "internalType": "uint256[]",
          "name": "quantities",
          "type": "uint256[]"
        }
      ],
      "name": "mintRareCardBatch",
      "outputs": [],
      "stateMutability": "nonpayable",
      "type": "function"
    },
    {
      "inputs": [
        {
          "internalType": "address[]",
          "name": "tos",
          "type": "address[]"
        },
        {
          "internalType": "uint256[]",
          "name": "ids",
          "type": "uint256[]"
        },
        {
          "internalType": "uint256[]",
          "name": "quantities",
          "type": "uint256[]"
        }
      ],
      "name": "mintCard",
      "outputs": [],
      "stateMutability": "nonpayable",
      "type": "function"
    },
    {
      "inputs": [
        {
          "internalType": "uint256",
          "name": "quantity",
          "type": "uint256"
        }
      ],
      "name": "openBox",
      "outputs": [],
      "stateMutability": "nonpayable",
      "type": "function"
    },
    {
      "inputs": [],
      "name": "cashPrize",
      "outputs": [],
      "stateMutability": "nonpayable",
      "type": "function"
    },
    {
      "inputs": [
        {
          "internalType": "uint256",
          "name": "_limit",
          "type": "uint256"
        }
      ],
      "name": "claimBlindBox",
      "outputs": [],
      "stateMutability": "nonpayable",
      "type": "function"
    },
    {
      "inputs": [
        {
          "internalType": "uint256",
          "name": "_limit",
          "type": "uint256"
        }
      ],
      "name": "claimBlindBox2",
      "outputs": [],
      "stateMutability": "nonpayable",
      "type": "function"
    },
    {
      "inputs": [
        {
          "internalType": "address",
          "name": "user",
          "type": "address"
        },
        {
          "internalType": "uint256",
          "name": "startIndex",
          "type": "uint256"
        },
        {
          "internalType": "uint256",
          "name": "lastIndex",
          "type": "uint256"
        }
      ],
      "name": "getUserOpendBox",
      "outputs": [
        {
          "internalType": "uint256[]",
          "name": "boxIds",
          "type": "uint256[]"
        },
        {
          "components": [
            {
              "internalType": "enum CollectBless.PrizeType",
              "name": "prizeType",
              "type": "uint8"
            },
            {
              "internalType": "address",
              "name": "token",
              "type": "address"
            },
            {
              "internalType": "address",
              "name": "creator",
              "type": "address"
            },
            {
              "internalType": "uint256",
              "name": "amount",
              "type": "uint256"
            },
            {
              "internalType": "uint256",
              "name": "nftId",
              "type": "uint256"
            },
            {
              "internalType": "uint256",
              "name": "seedBlock",
              "type": "uint256"
            }
          ],
          "internalType": "struct CollectBless.BlindBox[]",
          "name": "boxes",
          "type": "tuple[]"
        },
        {
          "internalType": "uint16[]",
          "name": "weights",
          "type": "uint16[]"
        }
      ],
      "stateMutability": "view",
      "type": "function"
    },
    {
      "inputs": [
        {
          "internalType": "uint256[]",
          "name": "ids",
          "type": "uint256[]"
        }
      ],
      "name": "getBoxsByIds",
      "outputs": [
        {
          "components": [
            {
              "internalType": "enum CollectBless.PrizeType",
              "name": "prizeType",
              "type": "uint8"
            },
            {
              "internalType": "address",
              "name": "token",
              "type": "address"
            },
            {
              "internalType": "address",
              "name": "creator",
              "type": "address"
            },
            {
              "internalType": "uint256",
              "name": "amount",
              "type": "uint256"
            },
            {
              "internalType": "uint256",
              "name": "nftId",
              "type": "uint256"
            },
            {
              "internalType": "uint256",
              "name": "seedBlock",
              "type": "uint256"
            }
          ],
          "internalType": "struct CollectBless.BlindBox[]",
          "name": "boxes",
          "type": "tuple[]"
        },
        {
          "internalType": "uint16[]",
          "name": "weights",
          "type": "uint16[]"
        }
      ],
      "stateMutability": "view",
      "type": "function"
    },
    {
      "inputs": [
        {
          "internalType": "address",
          "name": "",
          "type": "address"
        },
        {
          "internalType": "address",
          "name": "",
          "type": "address"
        },
        {
          "internalType": "uint256",
          "name": "",
          "type": "uint256"
        },
        {
          "internalType": "bytes",
          "name": "",
          "type": "bytes"
        }
      ],
      "name": "onERC721Received",
      "outputs": [
        {
          "internalType": "bytes4",
          "name": "",
          "type": "bytes4"
        }
      ],
      "stateMutability": "pure",
      "type": "function"
    },
    {
      "inputs": [
        {
          "internalType": "address",
          "name": "",
          "type": "address"
        },
        {
          "internalType": "address",
          "name": "",
          "type": "address"
        },
        {
          "internalType": "uint256",
          "name": "",
          "type": "uint256"
        },
        {
          "internalType": "uint256",
          "name": "",
          "type": "uint256"
        },
        {
          "internalType": "bytes",
          "name": "",
          "type": "bytes"
        }
      ],
      "name": "onERC1155Received",
      "outputs": [
        {
          "internalType": "bytes4",
          "name": "",
          "type": "bytes4"
        }
      ],
      "stateMutability": "pure",
      "type": "function"
    },
    {
      "inputs": [
        {
          "internalType": "address",
          "name": "",
          "type": "address"
        },
        {
          "internalType": "address",
          "name": "",
          "type": "address"
        },
        {
          "internalType": "uint256[]",
          "name": "",
          "type": "uint256[]"
        },
        {
          "internalType": "uint256[]",
          "name": "",
          "type": "uint256[]"
        },
        {
          "internalType": "bytes",
          "name": "",
          "type": "bytes"
        }
      ],
      "name": "onERC1155BatchReceived",
      "outputs": [
        {
          "internalType": "bytes4",
          "name": "",
          "type": "bytes4"
        }
      ],
      "stateMutability": "pure",
      "type": "function"
    },
    {
      "inputs": [
        {
          "internalType": "bytes4",
          "name": "interfaceId",
          "type": "bytes4"
        }
      ],
      "name": "supportsInterface",
      "outputs": [
        {
          "internalType": "bool",
          "name": "",
          "type": "bool"
        }
      ],
      "stateMutability": "pure",
      "type": "function"
    }
  ],
  "bytecode": "0x6702c68af0bb1400006005908155670de0b6b3a7640000600655601481905561012060405260016080908152600260a052600360c05260e0829052600a610100526200004f9160169190620000cd565b5060006018556063601b553480156200006757600080fd5b5062000073336200007d565b6001805562000181565b600080546001600160a01b038381166001600160a01b0319831681178455604051919092169283917f8be0079c531659141344cd1fd0a4f28419497f9722a3daafe3b4186f6b6457e09190a35050565b600183019183908215620001585791602002820160005b838211156200012657835183826101000a81548161ffff021916908361ffff1602179055509260200192600201602081600101049283019260010302620000e4565b8015620001565782816101000a81549061ffff021916905560020160208160010104928301926001030262000126565b505b50620001669291506200016a565b5090565b5b808211156200016657600081556001016200016b565b61461980620001916000396000f3fe608060405234801561001057600080fd5b50600436106102695760003560e01c806383e8e3e511610151578063d6bd5db1116100c3578063f23a6e6111610087578063f23a6e6114610591578063f2fde38b146105b1578063f7b5e317146105c4578063f84d13ef146105cd578063fc01b0a2146105e0578063fd4ab46d146105f357600080fd5b8063d6bd5db114610539578063dd3c627d14610542578063e316404414610555578063e8efab9314610575578063edea95551461058857600080fd5b8063b1648dad11610115578063b1648dad146104d2578063b1e5e2b7146104db578063b58067ab146104ee578063b78ef0b914610501578063bc197c8114610514578063c4fbc2b21461053057600080fd5b806383e8e3e5146104895780638da5cb5b1461049c578063926323d5146104ad5780639668ceb8146104b6578063a2011d91146104bf57600080fd5b80632c4adc78116101ea5780635e7ff0cc116101ae5780635e7ff0cc146103f05780635ec01e4d14610403578063623ec92b1461042e578063715018a61461044e578063745b08bf1461045657806383e4f9411461046957600080fd5b80632c4adc78146103765780633c8884121461039757806346639dba146103aa578063534fb246146103bd578063556a6d8a146103d057600080fd5b8063150b7a0211610231578063150b7a02146102e057806318f277071461031857806324a257ae146103215780632583fd2314610334578063271096411461035657600080fd5b806301ffc9a71461026e578063043f6b63146102965780630d080bda146102ad5780630f8202d6146102cd57806311e80b85146102d6575b600080fd5b61028161027c366004613af5565b610606565b60405190151581526020015b60405180910390f35b61029f601b5481565b60405190815260200161028d565b61029f6102bb366004613b3b565b60116020526000908152604090205481565b61029f600e5481565b6102de61063d565b005b6102ff6102ee366004613b9e565b630a85bd0160e11b95945050505050565b6040516001600160e01b0319909116815260200161028d565b61029f60145481565b6102de61032f366004613c0c565b6107fe565b610347610342366004613c38565b610987565b60405161028d93929190613d8c565b61029f610364366004613b3b565b60196020526000908152604090205481565b610389610384366004613ea3565b610d0d565b60405161028d929190613edf565b6102de6103a5366004613f0d565b610f1e565b6102de6103b8366004613f26565b61129c565b6102de6103cb366004613fd3565b611612565b61029f6103de366004613b3b565b60136020526000908152604090205481565b6102de6103fe366004613f0d565b6118ba565b600254610416906001600160a01b031681565b6040516001600160a01b03909116815260200161028d565b61044161043c366004613b3b565b611c66565b60405161028d919061405a565b6102de611cd2565b6102de610464366004613c38565b611ce6565b61029f610477366004613b3b565b601c6020526000908152604090205481565b6102de610497366004613f0d565b61205d565b6000546001600160a01b0316610416565b61029f60185481565b61029f600f5481565b6102de6104cd36600461406d565b61206a565b61029f60085481565b6102de6104e9366004613f0d565b612343565b6102de6104fc366004614097565b612756565b6102de61050f366004613c38565b6129a0565b6102ff61052236600461413e565b600098975050505050505050565b61029f60055481565b61029f60075481565b600354610416906001600160a01b031681565b61029f610563366004613b3b565b60106020526000908152604090205481565b6102de610583366004613f0d565b612d46565b61029f60095481565b6102ff61059f3660046141f8565b63f23a6e6160e01b9695505050505050565b6102de6105bf366004613b3b565b612d53565b61029f60065481565b6102de6105db366004613f0d565b612dc9565b6102de6105ee366004613f0d565b612dd6565b600454610416906001600160a01b031681565b60006001600160e01b03198216630a85bd0160e11b148061063757506001600160e01b03198216630271189760e51b145b92915050565b42600754106106875760405162461bcd60e51b81526020600482015260116024820152704e6f742079657420647261772074696d6560781b60448201526064015b60405180910390fd5b6000601854116106c85760405162461bcd60e51b815260206004820152600c60248201526b07765696768747320697320360a41b604482015260640161067e565b33600090815260196020526040902054156107255760405162461bcd60e51b815260206004820152601960248201527f796f75206861766520616c726561647920726563656976656400000000000000604482015260640161067e565b60185433600090815260136020526040812054600e549192916107489190614285565b61075291906142a4565b905080156107fb57336000818152601960205260409081902083905560048054915163a9059cbb60e01b815290810192909252602482018390526001600160a01b03169063a9059cbb906044016020604051808303816000875af11580156107be573d6000803e3d6000fd5b505050506040513d601f19601f820116820180604052508101906107e291906142c6565b5080600f60008282546107f591906142e8565b90915550505b50565b426007541161081f5760405162461bcd60e51b815260040161067e90614300565b6000821161083f5760405162461bcd60e51b815260040161067e90614323565b60008260055461084f9190614285565b600480546040516323b872dd60e01b81529293506001600160a01b0316916323b872dd916108839133913091879101614352565b6020604051808303816000875af11580156108a2573d6000803e3d6000fd5b505050506040513d601f19601f820116820180604052508101906108c691906142c6565b50604080516001808252818301909252600091602082018180368337505060035460145460405163731133e960e01b81529394506001600160a01b039091169263731133e9925061091f918791899087906004016143c3565b600060405180830381600087803b15801561093957600080fd5b505af115801561094d573d6000803e3d6000fd5b5050505081600e600082825461096391906142e8565b92505081905550836008600082825461097c91906142e8565b909155505050505050565b60608060608385106109cf5760405162461bcd60e51b815260206004820152601160248201527057726f6e6720696e64657820706172616d60781b604482015260640161067e565b6001600160a01b038616600090815260126020908152604080832080548251818502810185019093528083529192909190830182828015610a2f57602002820191906000526020600020905b815481526020019060010190808311610a1b575b505050505090508051600003610a455750610d04565b8051868111610a55575050610d04565b858111610a60578095505b610a6a87876143f0565b6001600160401b03811115610a8157610a81613dcf565b604051908082528060200260200182016040528015610aba57816020015b610aa7613aac565b815260200190600190039081610a9f5790505b509350610ac787876143f0565b6001600160401b03811115610ade57610ade613dcf565b604051908082528060200260200182016040528015610b07578160200160208202803683370190505b509250610b1487876143f0565b6001600160401b03811115610b2b57610b2b613dcf565b604051908082528060200260200182016040528015610b54578160200160208202803683370190505b5094506000875b87811015610cff57600d6000600a6000878581518110610b7d57610b7d614407565b602002602001015181526020019081526020016000205481526020019081526020016000206040518060c00160405290816000820160009054906101000a900460ff166003811115610bd157610bd1613ca6565b6003811115610be257610be2613ca6565b815281546001600160a01b03610100909104811660208301526001830154166040820152600282015460608201526003820154608082015260049091015460a0909101528651879084908110610c3a57610c3a614407565b6020026020010181905250600b6000858381518110610c5b57610c5b614407565b6020026020010151815260200190815260200160002060009054906101000a900461ffff16858381518110610c9257610c92614407565b602002602001019061ffff16908161ffff1681525050838181518110610cba57610cba614407565b6020026020010151878381518110610cd457610cd4614407565b602090810291909101015281610ce98161441d565b9250508080610cf79061441d565b915050610b5b565b505050505b93509350939050565b6060808251600003610d1e57915091565b82516001600160401b03811115610d3757610d37613dcf565b604051908082528060200260200182016040528015610d7057816020015b610d5d613aac565b815260200190600190039081610d555790505b50915082516001600160401b03811115610d8c57610d8c613dcf565b604051908082528060200260200182016040528015610db5578160200160208202803683370190505b50905060005b8351811015610f1857600d6000600a6000878581518110610dde57610dde614407565b602002602001015181526020019081526020016000205481526020019081526020016000206040518060c00160405290816000820160009054906101000a900460ff166003811115610e3257610e32613ca6565b6003811115610e4357610e43613ca6565b815281546001600160a01b03610100909104811660208301526001830154166040820152600282015460608201526003820154608082015260049091015460a0909101528351849083908110610e9b57610e9b614407565b6020026020010181905250600b6000858381518110610ebc57610ebc614407565b6020026020010151815260200190815260200160002060009054906101000a900461ffff16828281518110610ef357610ef3614407565b61ffff9092166020928302919091019091015280610f108161441d565b915050610dbb565b50915091565b4260075410610f6b5760405162461bcd60e51b8152602060048201526019602482015278151a1948195d995b9d081a5cc81b9bdd081bdd995c881e595d603a1b604482015260640161067e565b601754600003610f785750565b61012c8115610f845750805b6040805160018082528183019092526000918291906020820181803683375050601754919250600091610fba91506001906143f0565b90505b83831015611295576000600d6000600a600060178681548110610fe257610fe2614407565b9060005260206000200154815260200190815260200160002054815260200190815260200160002090506001601160008360010160009054906101000a90046001600160a01b03166001600160a01b03166001600160a01b03168152602001908152602001600020600082825461105991906142e8565b9091555050601780548061106f5761106f614436565b6000828152602081208201600019908101919091550190556001815460ff16600381111561109f5761109f613ca6565b0361112f5780546001820154600283015460405163a9059cbb60e01b81526001600160a01b0392831660048201526024810191909152610100909204169063a9059cbb906044016020604051808303816000875af1158015611105573d6000803e3d6000fd5b505050506040513d601f19601f8201168201806040525081019061112991906142c6565b50611260565b6002815460ff16600381111561114757611147613ca6565b036111c657805460018201546003830154604051632142170760e11b81526101009093046001600160a01b03908116936342842e0e9361118f93309390911691600401614352565b600060405180830381600087803b1580156111a957600080fd5b505af11580156111bd573d6000803e3d6000fd5b50505050611260565b6003815460ff1660038111156111de576111de613ca6565b03611260578054600182015460038301546002840154604051637921219560e11b81526001600160a01b0361010090950485169463f242432a9461122d94309491909216928a9060040161444c565b600060405180830381600087803b15801561124757600080fd5b505af115801561125b573d6000803e3d6000fd5b505050505b6017546000036112705750611295565b60175461127f906001906143f0565b915050828061128d9061441d565b935050610fbd565b5050505050565b6112a461312d565b6003546001600160a01b0316156112f35760405162461bcd60e51b8152602060048201526013602482015272185b1c9958591e481a5b9a5d1a585b1a5e9959606a1b604482015260640161067e565b6001600160a01b0384166113595760405162461bcd60e51b815260206004820152602760248201527f696e76616c696420626c6573732063617264204e465420636f6e7472616374206044820152666164647265737360c81b606482015260840161067e565b6001600160a01b0382166113af5760405162461bcd60e51b815260206004820152601f60248201527f696e76616c69642072616e646f6d20636f6e7472616374206164647265737300604482015260640161067e565b6001600160a01b0383166114175760405162461bcd60e51b815260206004820152602960248201527f696e76616c6964207072697a6520706f6f6c20746f6b656e20636f6e7472616360448201526874206164647265737360b81b606482015260840161067e565b42811161145b5760405162461bcd60e51b8152602060048201526012602482015271195b99081d1a5b59481d1bdbc81cda1bdc9d60721b604482015260640161067e565b600380546001600160a01b03199081166001600160a01b038781169190911783556002805483168683161781556007859055600480548416888416178155601580546001818101835560327f55f448fdea98c4d29eb340757ef0a66cd03dbb9538908a6a81d96026b71ec475928301558254808201845560149083015582548082018455600f9083015582548082018455600a90830155825480820190935560059290910191909155600c80546000908152600d6020526040808220805460ff19169055825482528082208054610100600160a81b03191690558254825280822090930180549097169096558054865281862084018690558054865281862090960185905594548452848420810184905590549351633352da4560e21b81529081018390529192169063cd4b6914906024016020604051808303816000875af11580156115ac573d6000803e3d6000fd5b505050506040513d601f19601f820116820180604052508101906115d09190614491565b9050601a54816040516020016115f0929190918252602082015260400190565b60408051601f198184030181529190528051602090910120601a555050505050565b61161a61312d565b426007541161163b5760405162461bcd60e51b815260040161067e90614300565b60008351116116815760405162461bcd60e51b8152602060048201526012602482015271696e76616c696420746f206164647265737360701b604482015260640161067e565b81518351146116c75760405162461bcd60e51b8152602060048201526012602482015271696e76616c6964206461746120617272617960701b604482015260640161067e565b805183511461170d5760405162461bcd60e51b8152602060048201526012602482015271696e76616c6964206461746120617272617960701b604482015260640161067e565b60408051600180825281830190925260009160208201818036833701905050905060005b845181101561129557600083828151811061174e5761174e614407565b6020026020010151116117735760405162461bcd60e51b815260040161067e90614323565b600184828151811061178757611787614407565b6020026020010151101580156117b7575060048482815181106117ac576117ac614407565b602002602001015111155b6117f05760405162461bcd60e51b815260206004820152600a6024820152691a5b9d985b1a59081a5960b21b604482015260640161067e565b60035485516001600160a01b039091169063731133e99087908490811061181957611819614407565b602002602001015186848151811061183357611833614407565b602002602001015186858151811061184d5761184d614407565b6020026020010151866040518563ffffffff1660e01b815260040161187594939291906143c3565b600060405180830381600087803b15801561188f57600080fd5b505af11580156118a3573d6000803e3d6000fd5b5050505080806118b29061441d565b915050611731565b42600754106119075760405162461bcd60e51b8152602060048201526019602482015278151a1948195d995b9d081a5cc81b9bdd081bdd995c881e595d603a1b604482015260640161067e565b61012c81156119135750805b33600090815260116020908152604080832054601090925282205461193891906143f0565b1115611c625760408051600180825281830190925260009182919060208201818036833701905050905060005b8383108015611975575060175481105b15611295576000600d6000600a60006017868154811061199757611997614407565b906000526020600020015481526020019081526020016000205481526020019081526020016000209050336001600160a01b03168160010160009054906101000a90046001600160a01b03166001600160a01b031603611c41576001818101546001600160a01b031660009081526011602052604081208054909190611a1e9084906142e8565b909155505060178054611a33906001906143f0565b81548110611a4357611a43614407565b906000526020600020015460178381548110611a6157611a61614407565b6000918252602090912001556017805480611a7e57611a7e614436565b6000828152602081208201600019908101919091550190556001815460ff166003811115611aae57611aae613ca6565b03611b3e5780546001820154600283015460405163a9059cbb60e01b81526001600160a01b0392831660048201526024810191909152610100909204169063a9059cbb906044016020604051808303816000875af1158015611b14573d6000803e3d6000fd5b505050506040513d601f19601f82011682018060405250810190611b3891906142c6565b50611c4f565b6002815460ff166003811115611b5657611b56613ca6565b03611bd557805460018201546003830154604051632142170760e11b81526101009093046001600160a01b03908116936342842e0e93611b9e93309390911691600401614352565b600060405180830381600087803b158015611bb857600080fd5b505af1158015611bcc573d6000803e3d6000fd5b50505050611c4f565b6003815460ff166003811115611bed57611bed613ca6565b03611c3c578054600182015460038301546002840154604051637921219560e11b81526001600160a01b0361010090950485169463f242432a94611b9e94309491909216928a9060040161444c565b611c4f565b81611c4b8161441d565b9250505b5082611c5a8161441d565b935050611965565b5050565b6001600160a01b038116600090815260126020908152604091829020805483518184028101840190945280845260609392830182828015611cc657602002820191906000526020600020905b815481526020019060010190808311611cb2575b50505050509050919050565b611cda61312d565b611ce46000613187565b565b4260075411611d075760405162461bcd60e51b815260040161067e90614300565b6001600160a01b038316611d5d5760405162461bcd60e51b815260206004820152601c60248201527f696e76616c6964204e465420636f6e7472616374206164647265737300000000604482015260640161067e565b6001811015611d7e5760405162461bcd60e51b815260040161067e90614323565b6040805160018082528183019092526000916020820181803683375050604051637921219560e11b8152919250506001600160a01b0385169063f242432a90611dd3903390309088908890889060040161444c565b600060405180830381600087803b158015611ded57600080fd5b505af1158015611e01573d6000803e3d6000fd5b50505050600082600654611e159190614285565b600480546040516323b872dd60e01b81529293506001600160a01b0316916323b872dd91611e499133913091879101614352565b6020604051808303816000875af1158015611e68573d6000803e3d6000fd5b505050506040513d601f19601f82011682018060405250810190611e8c91906142c6565b5080600e6000828254611e9f91906142e8565b90915550503360009081526010602052604081208054859290611ec39084906142e8565b925050819055506001600c6000828254611edd91906142e8565b9091555050600c546000908152600d60205260409020805460018083018054336001600160a01b03199091161790556001600160a81b03199091166101006001600160a01b03891602176003178255611f379043906142e8565b600482015560016002820155600381018590556000846001600160401b03811115611f6457611f64613dcf565b604051908082528060200260200182016040528015611f8d578160200160208202803683370190505b50905060005b8581101561202457600160096000828254611fae91906142e8565b92505081905550600954828281518110611fca57611fca614407565b602090810291909101810191909152600c54600980546000908152600a9093526040832091909155546017805460018101825592526000805160206145c4833981519152909101558061201c8161441d565b915050611f93565b50336001600160a01b03166000805160206145a48339815191528260405161204c919061405a565b60405180910390a250505050505050565b61206561312d565b600555565b426007541161208b5760405162461bcd60e51b815260040161067e90614300565b6001600160a01b0382166120e15760405162461bcd60e51b815260206004820152601c60248201527f696e76616c6964204e465420636f6e7472616374206164647265737300000000604482015260640161067e565b600480546006546040516323b872dd60e01b81526001600160a01b03909216926323b872dd92612115923392309201614352565b6020604051808303816000875af1158015612134573d6000803e3d6000fd5b505050506040513d601f19601f8201168201806040525081019061215891906142c6565b50604051632142170760e11b81526001600160a01b038316906342842e0e9061218990339030908690600401614352565b600060405180830381600087803b1580156121a357600080fd5b505af11580156121b7573d6000803e3d6000fd5b50505050600654600e60008282546121cf91906142e8565b90915550503360009081526010602052604081208054600192906121f49084906142e8565b9250508190555060016009600082825461220e91906142e8565b925050819055506001600c600082825461222891906142e8565b9091555050600c546000908152600d60205260409020805460018083018054336001600160a01b03199091161790556001600160a81b03199091166101006001600160a01b038616021760021782556122829043906142e8565b600482015560038101829055600c54600980546000908152600a602052604080822093909355905460178054600181810183559184526000805160206145c4833981519152019190915582518181528084019093529091908160200160208202803683370190505090506009548160008151811061230257612302614407565b602002602001018181525050336001600160a01b03166000805160206145a483398151915282604051612335919061405a565b60405180910390a250505050565b42600754116123645760405162461bcd60e51b815260040161067e90614300565b600081116123845760405162461bcd60e51b815260040161067e90614323565b600a8111156123cb5760405162461bcd60e51b81526020600482015260136024820152727175616e7469747920697320746f6f2062696760681b604482015260640161067e565b60408051600580825260c082019092526000916020820160a08036833701905050905060018160008151811061240357612403614407565b60200260200101818152505060028160018151811061242457612424614407565b60200260200101818152505060038160028151811061244557612445614407565b60200260200101818152505060048160038151811061246657612466614407565b6020026020010181815250506014548160048151811061248857612488614407565b602090810291909101015260408051600580825260c0820190925260009181602001602082028036833701905050905082816000815181106124cc576124cc614407565b60200260200101818152505082816001815181106124ec576124ec614407565b602002602001018181525050828160028151811061250c5761250c614407565b602002602001018181525050828160038151811061252c5761252c614407565b602002602001018181525050828160048151811061254c5761254c614407565b6020908102919091010152600354604051631ac8311560e21b81526001600160a01b0390911690636b20c4549061258b903390869086906004016144aa565b600060405180830381600087803b1580156125a557600080fd5b505af11580156125b9573d6000803e3d6000fd5b5050505082600860008282546125cf91906143f0565b9091555060009050836001600160401b038111156125ef576125ef613dcf565b604051908082528060200260200182016040528015612618578160200160208202803683370190505b50600254604051633352da4560e21b81526000600482018190529293506001600160a01b039091169063cd4b6914906024016020604051808303816000875af1158015612669573d6000803e3d6000fd5b505050506040513d601f19601f8201168201806040525081019061268d9190614491565b9050601a54816040516020016126ad929190918252602082015260400190565b60408051601f198184030181529190528051602090910120601a5560005b8581101561270d576126de3382846131d7565b8382815181106126f0576126f0614407565b6020908102919091010152806127058161441d565b9150506126cb565b50336001600160a01b03167f4754632d5b70be4aeb46cfde2a5fbcc5793264e0905a9a280b8b971c3a6a89d983604051612747919061405a565b60405180910390a25050505050565b61275e613a53565b426007541161277f5760405162461bcd60e51b815260040161067e90614300565b80518251146127c05760405162461bcd60e51b815260206004820152600d60248201526c696e76616c696420646174617360981b604482015260640161067e565b60408051600180825281830190925260009182919060208201818036833701905050905060005b84518110156129055783818151811061280257612802614407565b60200260200101516005546128179190614285565b61282190846142e8565b60035486519194506001600160a01b03169063731133e99087908490811061284b5761284b614407565b602002602001015160145487858151811061286857612868614407565b6020026020010151866040518563ffffffff1660e01b815260040161289094939291906143c3565b600060405180830381600087803b1580156128aa57600080fd5b505af11580156128be573d6000803e3d6000fd5b505050508381815181106128d4576128d4614407565b6020026020010151600860008282546128ed91906142e8565b909155508190506128fd8161441d565b9150506127e7565b50600480546040516323b872dd60e01b81526001600160a01b03909116916323b872dd916129399133913091889101614352565b6020604051808303816000875af1158015612958573d6000803e3d6000fd5b505050506040513d601f19601f8201168201806040525081019061297c91906142c6565b5081600e600082825461298f91906142e8565b90915550506001805550611c629050565b42600754116129c15760405162461bcd60e51b815260040161067e90614300565b6001600160a01b038316612a0f5760405162461bcd60e51b8152602060048201526015602482015274696e76616c696420746f6b656e206164647265737360581b604482015260640161067e565b60008211612a2f5760405162461bcd60e51b815260040161067e90614323565b6000612a3b83836142a4565b905060018111612a8d5760405162461bcd60e51b815260206004820152601860248201527f746f74616c416d6f756e7420697320746f6f20736d616c6c0000000000000000604482015260640161067e565b6001600160a01b0384166323b872dd3330612aa88786614285565b6040518463ffffffff1660e01b8152600401612ac693929190614352565b6020604051808303816000875af1158015612ae5573d6000803e3d6000fd5b505050506040513d601f19601f82011682018060405250810190612b0991906142c6565b50600083600654612b1a9190614285565b600480546040516323b872dd60e01b81529293506001600160a01b0316916323b872dd91612b4e9133913091879101614352565b6020604051808303816000875af1158015612b6d573d6000803e3d6000fd5b505050506040513d601f19601f82011682018060405250810190612b9191906142c6565b5080600e6000828254612ba491906142e8565b90915550503360009081526010602052604081208054869290612bc89084906142e8565b9091555060009050846001600160401b03811115612be857612be8613dcf565b604051908082528060200260200182016040528015612c11578160200160208202803683370190505b5090506001600c6000828254612c2791906142e8565b9091555050600c546000908152600d60205260409020805460018083018054336001600160a01b03199091161790556001600160a81b03199091166101006001600160a01b038a16021781178255612c809043906142e8565b60048201556002810184905560005b86811015612d1e57600160096000828254612caa91906142e8565b9091555050600c54600980546000908152600a6020526040902091909155548351849083908110612cdd57612cdd614407565b6020908102919091010152600954601780546001810182556000919091526000805160206145c4833981519152015580612d168161441d565b915050612c8f565b50336001600160a01b03166000805160206145a48339815191528360405161204c919061405a565b612d4e61312d565b600755565b612d5b61312d565b6001600160a01b038116612dc05760405162461bcd60e51b815260206004820152602660248201527f4f776e61626c653a206e6577206f776e657220697320746865207a65726f206160448201526564647265737360d01b606482015260840161067e565b6107fb81613187565b612dd161312d565b600655565b6001811015612df75760405162461bcd60e51b815260040161067e90614323565b600081600654612e079190614285565b600480546040516323b872dd60e01b81529293506001600160a01b0316916323b872dd91612e3b9133913091879101614352565b6020604051808303816000875af1158015612e5a573d6000803e3d6000fd5b505050506040513d601f19601f82011682018060405250810190612e7e91906142c6565b5080600e6000828254612e9191906142e8565b90915550503360009081526010602052604081208054849290612eb59084906142e8565b9091555050336000908152601c602052604081205490819003612f02576001601b6000828254612ee591906142e8565b9091555050601b54336000908152601c6020526040902081905590505b6000836001600160401b03811115612f1c57612f1c613dcf565b604051908082528060200260200182016040528015612f45578160200160208202803683370190505b5090506001600c6000828254612f5b91906142e8565b9091555050600c546000908152600d602052604090208054600390829060ff19166001830217905550600180820180546001600160a01b0319163317905560035482546001600160a01b039190911661010002610100600160a81b0319909116178255612fc99043906142e8565b6004820155600160028201556003810183905560005b8581101561306e57600160096000828254612ffa91906142e8565b9091555050600c54600980546000908152600a602052604090209190915554835184908390811061302d5761302d614407565b6020908102919091010152600954601780546001810182556000919091526000805160206145c48339815191520155806130668161441d565b915050612fdf565b50604080516001808252818301909252600091602082018180368337505060035460405163731133e960e01b81529293506001600160a01b03169163731133e991506130c490309088908b9087906004016143c3565b600060405180830381600087803b1580156130de57600080fd5b505af11580156130f2573d6000803e3d6000fd5b50505050336001600160a01b03166000805160206145a48339815191528460405161311d919061405a565b60405180910390a2505050505050565b6000546001600160a01b03163314611ce45760405162461bcd60e51b815260206004820181905260248201527f4f776e61626c653a2063616c6c6572206973206e6f7420746865206f776e6572604482015260640161067e565b600080546001600160a01b038381166001600160a01b0319831681178455604051919092169283917f8be0079c531659141344cd1fd0a4f28419497f9722a3daafe3b4186f6b6457e09190a35050565b60006131e1613a53565b6017546001906000908211156131fa57600091506132f0565b60085460175410156132f057600073__Utils_________________________________636d95520286601a548a8a60405160200161326c9493929190938452602084019290925260601b6001600160601b0319166040830152605482015264189b1a5b9960da1b607482015260790190565b604051602081830303815290604052600160646040518463ffffffff1660e01b815260040161329d939291906144e0565b602060405180830381865af41580156132ba573d6000803e3d6000fd5b505050506040513d601f19601f820116820180604052508101906132de9190614491565b905060468111156132ee57600092505b505b811561389e57600073__Utils_________________________________636d95520286601a548a8a60405160200161335d9493929190938452602084019290925260601b6001600160601b03191660408301526054820152650ca92dcc8caf60d31b6074820152607a0190565b60408051601f1981840301815291905260175460009061337f906001906143f0565b6040518463ffffffff1660e01b815260040161339d939291906144e0565b602060405180830381865af41580156133ba573d6000803e3d6000fd5b505050506040513d601f19601f820116820180604052508101906133de9190614491565b90506000601782815481106133f5576133f5614407565b6000918252602080832090910154808352600a82526040808420548452600d90925291209091506001815460ff16600381111561343457613434613ca6565b036134bf578054600282015460405163a9059cbb60e01b81526001600160a01b038c811660048301526024820192909252610100909204169063a9059cbb906044016020604051808303816000875af1158015613495573d6000803e3d6000fd5b505050506040513d601f19601f820116820180604052508101906134b991906142c6565b50613612565b6002815460ff1660038111156134d7576134d7613ca6565b0361354d5780546003820154604051632142170760e11b81526101009092046001600160a01b0316916342842e0e916135169130918e91600401614352565b600060405180830381600087803b15801561353057600080fd5b505af1158015613544573d6000803e3d6000fd5b50505050613612565b6003815460ff16600381111561356557613565613ca6565b03613612576040805160018082528183019092526000916020820181803683370190505090508160000160019054906101000a90046001600160a01b03166001600160a01b031663f242432a308c85600301548660020154866040518663ffffffff1660e01b81526004016135de95949392919061444c565b600060405180830381600087803b1580156135f857600080fd5b505af115801561360c573d6000803e3d6000fd5b50505050505b600254600482810154604051633352da4560e21b8152918201526001600160a01b039091169063cd4b6914906024016020604051808303816000875af1158015613660573d6000803e3d6000fd5b505050506040513d601f19601f820116820180604052508101906136849190614491565b965073__Utils_________________________________63bb6296ad88601a548c8c6040516020016136b99493929190614505565b604051602081830303815290604052601560646040518463ffffffff1660e01b81526004016136ea9392919061453d565b602060405180830381865af4158015613707573d6000803e3d6000fd5b505050506040513d601f19601f8201168201806040525081019061372b9190614491565b935060006016856005811061374257613742614407565b6010810491909101546000858152600b602052604090208054600f9093166002026101000a90910461ffff1661ffff1990921682179055601780549192509061378d906001906143f0565b8154811061379d5761379d614407565b9060005260206000200154601785815481106137bb576137bb614407565b60009182526020909120015560178054806137d8576137d8614436565b6000828152602080822083016000199081018390559092019092556001848101546001600160a01b0316835260119091526040822080549192909161381e9084906142e8565b90915550506001600160a01b038a16600081815260126020908152604080832080546001810182559084528284200187905592825260139052908120805461ffff8416929061386e9084906142e8565b925050819055508061ffff166018600082825461388b91906142e8565b90915550929650613a4395505050505050565b6001600960008282546138b191906142e8565b90915550506009546000908152600a6020908152604080832092909255601a54915173__Utils_________________________________9263bb6296ad92613900928992918c918c9101614505565b604051602081830303815290604052601560646040518463ffffffff1660e01b81526004016139319392919061453d565b602060405180830381865af415801561394e573d6000803e3d6000fd5b505050506040513d601f19601f820116820180604052508101906139729190614491565b905060006016826005811061398957613989614407565b601081049190910154600980546000908152600b602090815260408083208054600f9097166002026101000a90950461ffff1661ffff1990961686179094556001600160a01b038c16808352601282528483209354845460018101865594845282842090940193909355918152601390915290812080549293508392909190613a139084906142e8565b925050819055508061ffff1660186000828254613a3091906142e8565b90915550506009549350613a4392505050565b613a4c60018055565b9392505050565b600260015403613aa55760405162461bcd60e51b815260206004820152601f60248201527f5265656e7472616e637947756172643a207265656e7472616e742063616c6c00604482015260640161067e565b6002600155565b6040805160c08101909152806000815260200160006001600160a01b0316815260200160006001600160a01b031681526020016000815260200160008152602001600081525090565b600060208284031215613b0757600080fd5b81356001600160e01b031981168114613a4c57600080fd5b80356001600160a01b0381168114613b3657600080fd5b919050565b600060208284031215613b4d57600080fd5b613a4c82613b1f565b60008083601f840112613b6857600080fd5b5081356001600160401b03811115613b7f57600080fd5b602083019150836020828501011115613b9757600080fd5b9250929050565b600080600080600060808688031215613bb657600080fd5b613bbf86613b1f565b9450613bcd60208701613b1f565b93506040860135925060608601356001600160401b03811115613bef57600080fd5b613bfb88828901613b56565b969995985093965092949392505050565b60008060408385031215613c1f57600080fd5b82359150613c2f60208401613b1f565b90509250929050565b600080600060608486031215613c4d57600080fd5b613c5684613b1f565b95602085013595506040909401359392505050565b600081518084526020808501945080840160005b83811015613c9b57815187529582019590820190600101613c7f565b509495945050505050565b634e487b7160e01b600052602160045260246000fd5b60008151808452602080850194508084016000805b84811015613d4c57825180516004808210613cf957634e487b7160e01b855260218152602485fd5b508952808501516001600160a01b03908116868b0152604080830151909116908a0152606080820151908a0152608080820151908a015260a0908101519089015260c09097019691830191600101613cd1565b50959695505050505050565b600081518084526020808501945080840160005b83811015613c9b57815161ffff1687529582019590820190600101613d6c565b606081526000613d9f6060830186613c6b565b8281036020840152613db18186613cbc565b90508281036040840152613dc58185613d58565b9695505050505050565b634e487b7160e01b600052604160045260246000fd5b604051601f8201601f191681016001600160401b0381118282101715613e0d57613e0d613dcf565b604052919050565b60006001600160401b03821115613e2e57613e2e613dcf565b5060051b60200190565b600082601f830112613e4957600080fd5b81356020613e5e613e5983613e15565b613de5565b82815260059290921b84018101918181019086841115613e7d57600080fd5b8286015b84811015613e985780358352918301918301613e81565b509695505050505050565b600060208284031215613eb557600080fd5b81356001600160401b03811115613ecb57600080fd5b613ed784828501613e38565b949350505050565b604081526000613ef26040830185613cbc565b8281036020840152613f048185613d58565b95945050505050565b600060208284031215613f1f57600080fd5b5035919050565b60008060008060808587031215613f3c57600080fd5b613f4585613b1f565b9350613f5360208601613b1f565b9250613f6160408601613b1f565b9396929550929360600135925050565b600082601f830112613f8257600080fd5b81356020613f92613e5983613e15565b82815260059290921b84018101918181019086841115613fb157600080fd5b8286015b84811015613e9857613fc681613b1f565b8352918301918301613fb5565b600080600060608486031215613fe857600080fd5b83356001600160401b0380821115613fff57600080fd5b61400b87838801613f71565b9450602086013591508082111561402157600080fd5b61402d87838801613e38565b9350604086013591508082111561404357600080fd5b5061405086828701613e38565b9150509250925092565b602081526000613a4c6020830184613c6b565b6000806040838503121561408057600080fd5b61408983613b1f565b946020939093013593505050565b600080604083850312156140aa57600080fd5b82356001600160401b03808211156140c157600080fd5b6140cd86838701613f71565b935060208501359150808211156140e357600080fd5b506140f085828601613e38565b9150509250929050565b60008083601f84011261410c57600080fd5b5081356001600160401b0381111561412357600080fd5b6020830191508360208260051b8501011115613b9757600080fd5b60008060008060008060008060a0898b03121561415a57600080fd5b61416389613b1f565b975061417160208a01613b1f565b965060408901356001600160401b038082111561418d57600080fd5b6141998c838d016140fa565b909850965060608b01359150808211156141b257600080fd5b6141be8c838d016140fa565b909650945060808b01359150808211156141d757600080fd5b506141e48b828c01613b56565b999c989b5096995094979396929594505050565b60008060008060008060a0878903121561421157600080fd5b61421a87613b1f565b955061422860208801613b1f565b9450604087013593506060870135925060808701356001600160401b0381111561425157600080fd5b61425d89828a01613b56565b979a9699509497509295939492505050565b634e487b7160e01b600052601160045260246000fd5b600081600019048311821515161561429f5761429f61426f565b500290565b6000826142c157634e487b7160e01b600052601260045260246000fd5b500490565b6000602082840312156142d857600080fd5b81518015158114613a4c57600080fd5b600082198211156142fb576142fb61426f565b500190565b6020808252600990820152681a185cc8195b99195960ba1b604082015260600190565b6020808252601590820152741c5d585b9d1a5d1e481a5cc81d1bdbc81cdb585b1b605a1b604082015260600190565b6001600160a01b039384168152919092166020820152604081019190915260600190565b6000815180845260005b8181101561439c57602081850181015186830182015201614380565b818111156143ae576000602083870101525b50601f01601f19169290920160200192915050565b60018060a01b0385168152836020820152826040820152608060608201526000613dc56080830184614376565b6000828210156144025761440261426f565b500390565b634e487b7160e01b600052603260045260246000fd5b60006001820161442f5761442f61426f565b5060010190565b634e487b7160e01b600052603160045260246000fd5b6001600160a01b03868116825285166020820152604081018490526060810183905260a06080820181905260009061448690830184614376565b979650505050505050565b6000602082840312156144a357600080fd5b5051919050565b6001600160a01b03841681526060602082018190526000906144ce90830185613c6b565b8281036040840152613dc58185613c6b565b6060815260006144f36060830186614376565b60208301949094525060400152919050565b938452602084019290925260601b6001600160601b03191660408301526054820152667765696768747360c81b6074820152607b0190565b6060815260006145506060830186614376565b60208382038185015281865480845282840191508760005282600020935060005b8181101561458d57845483526001948501949284019201614571565b505080935050505082604083015294935050505056fece5825d66b093769cf76ee2d1360fb23bafc198cfcf066e4575796001447df10c624b66cc0138b8fabc209247f72d758e1cf3343756d543badbf24212bed8c15a26469706673582212200d2f82013b949fbb8b50f135c78cf890ae6f3284cc4e077249307c6f62c27e6f64736f6c634300080d0033",
  "immutableReferences": {},
  "source": "// SPDX-License-Identifier: MIT\npragma solidity ^0.8.0;\npragma experimental ABIEncoderV2;\n\nimport \"@openzeppelin/contracts/access/Ownable.sol\";\nimport \"@openzeppelin/contracts/token/ERC1155/presets/ERC1155PresetMinterPauser.sol\";\nimport \"@openzeppelin/contracts/token/ERC20/IERC20.sol\";\nimport \"@openzeppelin/contracts/token/ERC721/IERC721.sol\";\nimport \"@openzeppelin/contracts/token/ERC1155/IERC1155.sol\";\nimport \"@openzeppelin/contracts/security/ReentrancyGuard.sol\";\nimport \"@openzeppelin/contracts/token/ERC721/IERC721Receiver.sol\";\nimport \"@openzeppelin/contracts/token/ERC1155/IERC1155Receiver.sol\";\nimport \"./Random.sol\";\nimport \"./Utils.sol\";\n\ncontract CollectBless is Ownable, ReentrancyGuard, IERC721Receiver, IERC1155Receiver {\n    /**\n    Prize type\n     */\n    enum PrizeType {\n        NONE,\n        ERC20,\n        ERC721,\n        ERC1155\n    }\n\n    /**\n    @dev Blind box data structure\n     */\n    struct BlindBox {\n        // prize type\n        PrizeType prizeType;\n        // Prize contract address\n        address token;\n        // Creator\n        address creator;\n        // Number of prizes\n        uint256 amount;\n        uint256 nftId;\n        uint256 seedBlock;\n    }\n\n    /**\n    Random contract address\n     */\n    Random public random;\n\n    /**\n    Bless card contract address\n     */\n    ERC1155PresetMinterPauser public blessCard;\n\n    /**\n    Prize pool token (USDT)\n     */\n    IERC20 public prizePoolToken;\n\n    /**\n    Rare card price\n     */\n    uint256 public rareCardPrice = 0.2 ether;\n\n    /**\n    Blind box price\n     */\n    uint256 public blindBoxPrice = 1 ether;\n\n    /**\n    Event end time\n     */\n    uint256 public eventEndTime;\n\n    /**\n    The number of rare cards\n     */\n    uint256 public rareCardCount;\n\n    uint256 public blindBoxCount;\n    // Blind box id mapping\n    // blindBox id => blindBox type id\n    mapping(uint256 => uint256) private blindBoxTypes;\n    // blind box id => weights\n    mapping(uint256 => uint16) private blindBoxsWeights;\n\n    uint256 private blindBoxTypeId;\n\n    // Blind box type id => BlindBox\n    mapping(uint256 => BlindBox) private _blindBoxs;\n\n    /**\n    Total Prize Pool Amount\n     */\n    uint256 public prizePoolAmount;\n    uint256 public claimedAmount;\n\n    /**\n    user address => count\n     */\n    mapping(address => uint256) public mintBoxCounts;\n\n    /**\n    uaer address => count\n     */\n    mapping(address => uint256) public openBoxCounts;\n\n    // user address => blind box ids\n    mapping(address => uint256[]) userOpenBoxs;\n    // user address => total weights\n    mapping(address => uint256) public userWeights;\n\n    uint256 public rareCradId = 5;\n\n    // weight configuration\n    uint256[] private weightsConfig;\n    uint16[5] private weightsValue = [uint16(1), 2, 3, 5, 10];\n\n    // blind box pool, blind box id array\n    uint256[] private blindBoxPool;\n\n    // all user total weights\n    uint256 public totalWeights = 0;\n\n    // Bonuses already claimed by the user\n    mapping(address => uint256) public alreadyReceived;\n\n    bytes32 private randomFactor;\n\n    // whitelist nft start id\n    uint256 public whitelistIdCount = 99;\n\n    // mint user => id\n    mapping(address => uint256) public whitelistId;\n\n    event MintBox(address indexed creator, uint256[] ids);\n    event OpenBox(address indexed user, uint256[] ids);\n\n    function init(\n        address blessCardAddr,\n        address tokenAddr,\n        address randomAddr,\n        uint256 endTime\n    ) public onlyOwner {\n        require(address(blessCard) == address(0), \"already initialized\");\n        require(blessCardAddr != address(0), \"invalid bless card NFT contract address\");\n        require(randomAddr != address(0), \"invalid random contract address\");\n        require(tokenAddr != address(0), \"invalid prize pool token contract address\");\n        require(endTime > block.timestamp, \"end time too short\");\n        blessCard = ERC1155PresetMinterPauser(blessCardAddr);\n        random = Random(randomAddr);\n        eventEndTime = endTime;\n        prizePoolToken = IERC20(tokenAddr);\n\n        weightsConfig.push(50);\n        weightsConfig.push(20);\n        weightsConfig.push(15);\n        weightsConfig.push(10);\n        weightsConfig.push(5);\n\n        _blindBoxs[blindBoxTypeId].prizeType = PrizeType.NONE;\n        _blindBoxs[blindBoxTypeId].token = address(0);\n        _blindBoxs[blindBoxTypeId].creator = address(0);\n        _blindBoxs[blindBoxTypeId].amount = 0;\n        _blindBoxs[blindBoxTypeId].nftId = 0;\n        _blindBoxs[blindBoxTypeId].seedBlock = 0;\n\n        bytes32 seed = random.getRandom(0);\n        randomFactor = keccak256(abi.encodePacked(randomFactor, seed));\n    }\n\n    /**\n    Set rare card price\n     */\n    function setRareCardPrice(uint256 price) public onlyOwner {\n        rareCardPrice = price;\n    }\n\n    /**\n    Set blind box price\n     */\n    function setBlindBoxPrice(uint256 price) public onlyOwner {\n        blindBoxPrice = price;\n    }\n\n    function setEventEndTime(uint256 newTime) public onlyOwner {\n        eventEndTime = newTime;\n    }\n\n    function getUserOpenBoxs(address user) public view returns (uint256[] memory) {\n        return userOpenBoxs[user];\n    }\n\n    /**\n    Create a token blind box\n     */\n    function mintBox(\n        address token,\n        uint256 quantity,\n        uint256 totalAmount\n    ) public {\n        require(eventEndTime > block.timestamp, \"has ended\");\n        require(token != address(0), \"invalid token address\");\n        require(quantity > 0, \"quantity is too small\");\n\n        uint256 amount = totalAmount / quantity;\n        require(amount > 1, \"totalAmount is too small\");\n\n        // get box token\n        IERC20(token).transferFrom(msg.sender, address(this), amount * quantity);\n\n        // get prize pool token\n        uint256 fee = blindBoxPrice * quantity;\n        prizePoolToken.transferFrom(msg.sender, address(this), fee);\n\n        prizePoolAmount += fee;\n        mintBoxCounts[msg.sender] += quantity;\n\n        uint256[] memory ids = new uint256[](quantity);\n        blindBoxTypeId += 1;\n        BlindBox storage bb = _blindBoxs[blindBoxTypeId];\n        bb.prizeType = PrizeType.ERC20;\n        bb.creator = msg.sender;\n        bb.token = token;\n        bb.seedBlock = block.number + 1;\n        bb.amount = amount;\n\n        for (uint256 i = 0; i < quantity; i++) {\n            blindBoxCount += 1;\n            blindBoxTypes[blindBoxCount] = blindBoxTypeId;\n            ids[i] = blindBoxCount;\n            blindBoxPool.push(blindBoxCount);\n        }\n        emit MintBox(msg.sender, ids);\n    }\n\n    /**\n    Create a ERC721 NFT blind box\n     */\n    function mintBoxNFT721(address addr, uint256 nftId) public {\n        require(eventEndTime > block.timestamp, \"has ended\");\n        require(addr != address(0), \"invalid NFT contract address\");\n\n        prizePoolToken.transferFrom(msg.sender, address(this), blindBoxPrice);\n\n        IERC721(addr).safeTransferFrom(msg.sender, address(this), nftId);\n\n        prizePoolAmount += blindBoxPrice;\n        mintBoxCounts[msg.sender] += 1;\n\n        blindBoxCount += 1;\n        blindBoxTypeId += 1;\n        BlindBox storage bb = _blindBoxs[blindBoxTypeId];\n        bb.prizeType = PrizeType.ERC721;\n        bb.creator = msg.sender;\n        bb.token = addr;\n        bb.seedBlock = block.number + 1;\n        bb.nftId = nftId;\n\n        blindBoxTypes[blindBoxCount] = blindBoxTypeId;\n\n        blindBoxPool.push(blindBoxCount);\n\n        uint256[] memory ids = new uint256[](1);\n        ids[0] = blindBoxCount;\n        emit MintBox(msg.sender, ids);\n    }\n\n    /**\n    Create ERC1155 NFT blind box\n     */\n    function mintBoxNFT1155(\n        address addr,\n        uint256 nftId,\n        uint256 quantity\n    ) public {\n        require(eventEndTime > block.timestamp, \"has ended\");\n        require(addr != address(0), \"invalid NFT contract address\");\n        require(quantity >= 1, \"quantity is too small\");\n\n        bytes memory data = new bytes(1);\n        IERC1155(addr).safeTransferFrom(msg.sender, address(this), nftId, quantity, data);\n\n        uint256 fee = blindBoxPrice * quantity;\n        prizePoolToken.transferFrom(msg.sender, address(this), fee);\n\n        prizePoolAmount += fee;\n        mintBoxCounts[msg.sender] += quantity;\n\n        blindBoxTypeId += 1;\n        BlindBox storage bb = _blindBoxs[blindBoxTypeId];\n        bb.prizeType = PrizeType.ERC1155;\n        bb.creator = msg.sender;\n        bb.token = addr;\n        bb.seedBlock = block.number + 1;\n        bb.amount = 1;\n        bb.nftId = nftId;\n\n        uint256[] memory ids = new uint256[](quantity);\n        for (uint256 i = 0; i < quantity; i++) {\n            blindBoxCount += 1;\n            ids[i] = blindBoxCount;\n            blindBoxTypes[blindBoxCount] = blindBoxTypeId;\n            blindBoxPool.push(blindBoxCount);\n        }\n\n        emit MintBox(msg.sender, ids);\n    }\n\n    function mintWhitelistNFT(uint256 quantity) public {\n        require(quantity >= 1, \"quantity is too small\");\n\n        uint256 fee = blindBoxPrice * quantity;\n        prizePoolToken.transferFrom(msg.sender, address(this), fee);\n\n        prizePoolAmount += fee;\n        mintBoxCounts[msg.sender] += quantity;\n\n        uint256 nftId = whitelistId[msg.sender];\n        if (nftId == 0) {\n            whitelistIdCount += 1;\n            nftId = whitelistIdCount;\n            whitelistId[msg.sender] = nftId;\n        }\n\n        uint256[] memory ids = new uint256[](quantity);\n        blindBoxTypeId += 1;\n        BlindBox storage bb = _blindBoxs[blindBoxTypeId];\n        bb.prizeType = PrizeType.ERC1155;\n        bb.creator = msg.sender;\n        bb.token = address(blessCard);\n        bb.seedBlock = block.number + 1;\n        bb.amount = 1;\n        bb.nftId = nftId;\n\n        for (uint256 i = 0; i < quantity; i++) {\n            blindBoxCount += 1;\n            blindBoxTypes[blindBoxCount] = blindBoxTypeId;\n            ids[i] = blindBoxCount;\n            blindBoxPool.push(blindBoxCount);\n        }\n\n        bytes memory data = new bytes(1);\n        blessCard.mint(address(this), nftId, quantity, data);\n\n        emit MintBox(msg.sender, ids);\n    }\n\n    /**\n    Mint Rare Cards\n     */\n    function mintRareCard(uint256 quantity, address to) public {\n        require(eventEndTime > block.timestamp, \"has ended\");\n        require(quantity > 0, \"quantity is too small\");\n\n        uint256 fee = rareCardPrice * quantity;\n        prizePoolToken.transferFrom(msg.sender, address(this), fee);\n\n        bytes memory data = new bytes(1);\n        blessCard.mint(to, rareCradId, quantity, data);\n\n        prizePoolAmount += fee;\n        rareCardCount += quantity;\n    }\n\n    function mintRareCardBatch(address[] memory tos, uint256[] memory quantities) public nonReentrant {\n        require(eventEndTime > block.timestamp, \"has ended\");\n        require(tos.length == quantities.length, \"invalid datas\");\n\n        uint256 fee;\n        bytes memory data = new bytes(1);\n        for (uint256 i = 0; i < tos.length; i++) {\n            fee += rareCardPrice * quantities[i];\n            blessCard.mint(tos[i], rareCradId, quantities[i], data);\n            rareCardCount += quantities[i];\n        }\n        prizePoolToken.transferFrom(msg.sender, address(this), fee);\n        prizePoolAmount += fee;\n    }\n\n    /**\n    Mint normal card\n     */\n    function mintCard(\n        address[] memory tos,\n        uint256[] memory ids,\n        uint256[] memory quantities\n    ) public onlyOwner {\n        require(eventEndTime > block.timestamp, \"has ended\");\n        require(tos.length > 0, \"invalid to address\");\n        require(tos.length == ids.length, \"invalid data array\");\n        require(tos.length == quantities.length, \"invalid data array\");\n\n        bytes memory data = new bytes(1);\n        for (uint256 i = 0; i < tos.length; i++) {\n            require(quantities[i] > 0, \"quantity is too small\");\n            require(ids[i] >= 1 && ids[i] <= 4, \"invalid id\");\n            blessCard.mint(tos[i], ids[i], quantities[i], data);\n        }\n    }\n\n    /**\n    Consume the card and open the blind box\n     */\n    function openBox(uint256 quantity) public {\n        require(eventEndTime > block.timestamp, \"has ended\");\n        require(quantity > 0, \"quantity is too small\");\n        require(quantity <= 10, \"quantity is too big\");\n\n        uint256[] memory ids = new uint256[](5);\n        ids[0] = 1;\n        ids[1] = 2;\n        ids[2] = 3;\n        ids[3] = 4;\n        ids[4] = rareCradId;\n        uint256[] memory amounts = new uint256[](5);\n        amounts[0] = quantity;\n        amounts[1] = quantity;\n        amounts[2] = quantity;\n        amounts[3] = quantity;\n        amounts[4] = quantity;\n\n        blessCard.burnBatch(msg.sender, ids, amounts);\n        rareCardCount -= quantity;\n\n        uint256[] memory outIds = new uint256[](quantity);\n        bytes32 seed = random.getRandom(0);\n        randomFactor = keccak256(abi.encodePacked(randomFactor, seed));\n        for (uint256 i = 0; i < quantity; i++) {\n            outIds[i] = _openBox(msg.sender, i, seed);\n        }\n\n        emit OpenBox(msg.sender, outIds);\n    }\n\n    function _openBox(\n        address to,\n        uint256 idx,\n        bytes32 seed\n    ) private nonReentrant returns (uint256) {\n        bool isBlind = true;\n        uint256 wIdx = 0;\n        if (blindBoxPool.length < 1) {\n            isBlind = false;\n        } else if (blindBoxPool.length >= rareCardCount) {} else {\n            uint256 w = Utils.randomUint(abi.encodePacked(seed, randomFactor, to, idx, \"blind\"), 1, 100);\n            if (w > 70) {\n                isBlind = false;\n            }\n        }\n\n        if (isBlind) {\n            uint256 index = Utils.randomUint(abi.encodePacked(seed, randomFactor, to, idx, \"eIndex\"), 0, blindBoxPool.length - 1);\n            uint256 boxId = blindBoxPool[index];\n            BlindBox storage bb = _blindBoxs[blindBoxTypes[boxId]];\n\n            if (bb.prizeType == PrizeType.ERC20) {\n                IERC20(bb.token).transfer(to, bb.amount);\n            } else if (bb.prizeType == PrizeType.ERC721) {\n                IERC721(bb.token).safeTransferFrom(address(this), to, bb.nftId);\n            } else if (bb.prizeType == PrizeType.ERC1155) {\n                bytes memory data = new bytes(1);\n                IERC1155(bb.token).safeTransferFrom(address(this), to, bb.nftId, bb.amount, data);\n            }\n\n            seed = random.getRandom(bb.seedBlock);\n            wIdx = Utils.randomWeight(abi.encodePacked(seed, randomFactor, to, idx, \"weights\"), weightsConfig, 100);\n            uint16 weights = weightsValue[wIdx];\n            blindBoxsWeights[boxId] = weights;\n\n            // del from pool\n            blindBoxPool[index] = blindBoxPool[blindBoxPool.length - 1];\n            blindBoxPool.pop();\n\n            openBoxCounts[bb.creator] += 1;\n            userOpenBoxs[to].push(boxId);\n            userWeights[to] += weights;\n            totalWeights += weights;\n\n            return boxId;\n        } else {\n            blindBoxCount += 1;\n            blindBoxTypes[blindBoxCount] = 0;\n            wIdx = Utils.randomWeight(abi.encodePacked(seed, randomFactor, to, idx, \"weights\"), weightsConfig, 100);\n            uint16 weights = weightsValue[wIdx];\n            blindBoxsWeights[blindBoxCount] = weights;\n\n            userOpenBoxs[to].push(blindBoxCount);\n            userWeights[to] += weights;\n            totalWeights += weights;\n\n            return blindBoxCount;\n        }\n    }\n\n    /**\n    Receive the total prize according to the weight obtained\n     */\n    function cashPrize() public {\n        require(eventEndTime < block.timestamp, \"Not yet draw time\");\n        require(totalWeights > 0, \"weights is 0\");\n        require(alreadyReceived[msg.sender] == 0, \"you have already received\");\n\n        uint256 value = (prizePoolAmount * userWeights[msg.sender]) / totalWeights;\n        if (value > 0) {\n            alreadyReceived[msg.sender] = value;\n            prizePoolToken.transfer(msg.sender, value);\n            claimedAmount += value;\n        }\n    }\n\n    /**\n    Claim an unopened blind box\n     */\n    function claimBlindBox(uint256 _limit) public {\n        require(eventEndTime < block.timestamp, \"The event is not over yet\");\n\n        uint256 limit = 300;\n        if (_limit != 0) {\n            limit = _limit;\n        }\n\n        if (mintBoxCounts[msg.sender] - openBoxCounts[msg.sender] > 0) {\n            uint256 j = 0;\n            bytes memory data = new bytes(1);\n            for (uint256 i = 0; j < limit && i < blindBoxPool.length; j++) {\n                BlindBox storage bb = _blindBoxs[blindBoxTypes[blindBoxPool[i]]];\n                if (bb.creator == msg.sender) {\n                    openBoxCounts[bb.creator] += 1;\n                    blindBoxPool[i] = blindBoxPool[blindBoxPool.length - 1];\n                    blindBoxPool.pop();\n\n                    if (bb.prizeType == PrizeType.ERC20) {\n                        IERC20(bb.token).transfer(bb.creator, bb.amount);\n                    } else if (bb.prizeType == PrizeType.ERC721) {\n                        IERC721(bb.token).safeTransferFrom(address(this), bb.creator, bb.nftId);\n                    } else if (bb.prizeType == PrizeType.ERC1155) {\n                        IERC1155(bb.token).safeTransferFrom(address(this), bb.creator, bb.nftId, bb.amount, data);\n                    }\n                } else {\n                    i++;\n                }\n            }\n        }\n    }\n\n    function claimBlindBox2(uint256 _limit) public {\n        require(eventEndTime < block.timestamp, \"The event is not over yet\");\n\n        if (blindBoxPool.length == 0) return;\n\n        uint256 limit = 300;\n        if (_limit != 0) {\n            limit = _limit;\n        }\n\n        uint256 j = 0;\n        bytes memory data = new bytes(1);\n        for (uint256 i = blindBoxPool.length - 1; j < limit; j++) {\n            BlindBox storage bb = _blindBoxs[blindBoxTypes[blindBoxPool[i]]];\n            openBoxCounts[bb.creator] += 1;\n            blindBoxPool.pop();\n\n            if (bb.prizeType == PrizeType.ERC20) {\n                IERC20(bb.token).transfer(bb.creator, bb.amount);\n            } else if (bb.prizeType == PrizeType.ERC721) {\n                IERC721(bb.token).safeTransferFrom(address(this), bb.creator, bb.nftId);\n            } else if (bb.prizeType == PrizeType.ERC1155) {\n                IERC1155(bb.token).safeTransferFrom(address(this), bb.creator, bb.nftId, bb.amount, data);\n            }\n\n            if (blindBoxPool.length == 0) break;\n            i = blindBoxPool.length - 1;\n        }\n    }\n\n    function getUserOpendBox(\n        address user,\n        uint256 startIndex,\n        uint256 lastIndex\n    )\n        public\n        view\n        returns (\n            uint256[] memory boxIds,\n            BlindBox[] memory boxes,\n            uint16[] memory weights\n        )\n    {\n        require(startIndex < lastIndex, \"Wrong index param\");\n        uint256[] memory ids = userOpenBoxs[user];\n        if (ids.length == 0) {\n            return (boxIds, boxes, weights);\n        }\n        uint256 len = ids.length;\n        if (len <= startIndex) {\n            return (boxIds, boxes, weights);\n        }\n        if (len <= lastIndex) {\n            lastIndex = len;\n        }\n        boxes = new BlindBox[](lastIndex - startIndex);\n        weights = new uint16[](lastIndex - startIndex);\n        boxIds = new uint256[](lastIndex - startIndex);\n        uint256 i = 0;\n        for (uint256 j = startIndex; j < lastIndex; j++) {\n            boxes[i] = _blindBoxs[blindBoxTypes[ids[j]]];\n            weights[i] = blindBoxsWeights[ids[j]];\n            boxIds[i] = ids[j];\n            i++;\n        }\n        return (boxIds, boxes, weights);\n    }\n\n    function getBoxsByIds(uint256[] memory ids) public view returns (BlindBox[] memory boxes, uint16[] memory weights) {\n        if (ids.length == 0) {\n            return (boxes, weights);\n        }\n        boxes = new BlindBox[](ids.length);\n        weights = new uint16[](ids.length);\n        for (uint256 i = 0; i < ids.length; i++) {\n            boxes[i] = _blindBoxs[blindBoxTypes[ids[i]]];\n            weights[i] = blindBoxsWeights[ids[i]];\n        }\n        return (boxes, weights);\n    }\n\n    function onERC721Received(\n        address,\n        address,\n        uint256,\n        bytes calldata\n    ) public pure override returns (bytes4) {\n        return IERC721Receiver.onERC721Received.selector;\n    }\n\n    function onERC1155Received(\n        address,\n        address,\n        uint256,\n        uint256,\n        bytes calldata\n    ) public pure override returns (bytes4) {\n        return IERC1155Receiver.onERC1155Received.selector;\n    }\n\n    function onERC1155BatchReceived(\n        address,\n        address,\n        uint256[] calldata,\n        uint256[] calldata,\n        bytes calldata\n    ) public pure override returns (bytes4) {\n        return 0;\n    }\n\n    function supportsInterface(bytes4 interfaceId) public pure override returns (bool) {\n        return interfaceId == type(IERC721Receiver).interfaceId || interfaceId == type(IERC1155Receiver).interfaceId;\n    }\n}\n",
  "sourcePath": "/Users/wangxi/work/Walnut-V2/nutbox-contract/contracts/CollectBless.sol",
  "compiler": {
    "name": "solc",
    "version": "0.8.13+commit.abaa5c0e.Emscripten.clang"
  },
  "schemaVersion": "3.3.4",
  "updatedAt": "2024-06-25T07:57:01.211Z",
  "devdoc": {
    "kind": "dev",
    "methods": {
      "owner()": {
        "details": "Returns the address of the current owner."
      },
      "renounceOwnership()": {
        "details": "Leaves the contract without owner. It will not be possible to call `onlyOwner` functions. Can only be called by the current owner. NOTE: Renouncing ownership will leave the contract without an owner, thereby disabling any functionality that is only available to the owner."
      },
      "supportsInterface(bytes4)": {
        "details": "Returns true if this contract implements the interface defined by `interfaceId`. See the corresponding https://eips.ethereum.org/EIPS/eip-165#how-interfaces-are-identified[EIP section] to learn more about how these ids are created. This function call must use less than 30 000 gas."
      },
      "transferOwnership(address)": {
        "details": "Transfers ownership of the contract to a new account (`newOwner`). Can only be called by the current owner."
      }
    },
    "version": 1
  },
  "userdoc": {
    "kind": "user",
    "methods": {
      "blessCard()": {
        "notice": "Bless card contract address"
      },
      "blindBoxPrice()": {
        "notice": "Blind box price"
      },
      "cashPrize()": {
        "notice": "Receive the total prize according to the weight obtained"
      },
      "claimBlindBox(uint256)": {
        "notice": "Claim an unopened blind box"
      },
      "eventEndTime()": {
        "notice": "Event end time"
      },
      "mintBox(address,uint256,uint256)": {
        "notice": "Create a token blind box"
      },
      "mintBoxCounts(address)": {
        "notice": "user address => count"
      },
      "mintBoxNFT1155(address,uint256,uint256)": {
        "notice": "Create ERC1155 NFT blind box"
      },
      "mintBoxNFT721(address,uint256)": {
        "notice": "Create a ERC721 NFT blind box"
      },
      "mintCard(address[],uint256[],uint256[])": {
        "notice": "Mint normal card"
      },
      "mintRareCard(uint256,address)": {
        "notice": "Mint Rare Cards"
      },
      "openBox(uint256)": {
        "notice": "Consume the card and open the blind box"
      },
      "openBoxCounts(address)": {
        "notice": "uaer address => count"
      },
      "prizePoolAmount()": {
        "notice": "Total Prize Pool Amount"
      },
      "prizePoolToken()": {
        "notice": "Prize pool token (USDT)"
      },
      "random()": {
        "notice": "Random contract address"
      },
      "rareCardCount()": {
        "notice": "The number of rare cards"
      },
      "rareCardPrice()": {
        "notice": "Rare card price"
      },
      "setBlindBoxPrice(uint256)": {
        "notice": "Set blind box price"
      },
      "setRareCardPrice(uint256)": {
        "notice": "Set rare card price"
      }
    },
    "version": 1
  }
}