{
  "contractName": "CollectBless",
  "abi": [
    {
      "anonymous": false,
      "inputs": [
        {
          "indexed": true,
          "internalType": "address",
          "name": "creator",
          "type": "address"
        },
        {
          "indexed": false,
          "internalType": "uint256[]",
          "name": "ids",
          "type": "uint256[]"
        }
      ],
      "name": "MintBox",
      "type": "event"
    },
    {
      "anonymous": false,
      "inputs": [
        {
          "indexed": true,
          "internalType": "address",
          "name": "user",
          "type": "address"
        },
        {
          "indexed": false,
          "internalType": "uint256[]",
          "name": "ids",
          "type": "uint256[]"
        }
      ],
      "name": "OpenBox",
      "type": "event"
    },
    {
      "anonymous": false,
      "inputs": [
        {
          "indexed": true,
          "internalType": "address",
          "name": "previousOwner",
          "type": "address"
        },
        {
          "indexed": true,
          "internalType": "address",
          "name": "newOwner",
          "type": "address"
        }
      ],
      "name": "OwnershipTransferred",
      "type": "event"
    },
    {
      "inputs": [
        {
          "internalType": "address",
          "name": "",
          "type": "address"
        }
      ],
      "name": "alreadyReceived",
      "outputs": [
        {
          "internalType": "uint256",
          "name": "",
          "type": "uint256"
        }
      ],
      "stateMutability": "view",
      "type": "function",
      "constant": true
    },
    {
      "inputs": [],
      "name": "blessCard",
      "outputs": [
        {
          "internalType": "contract ERC1155PresetMinterPauser",
          "name": "",
          "type": "address"
        }
      ],
      "stateMutability": "view",
      "type": "function",
      "constant": true
    },
    {
      "inputs": [],
      "name": "blindBoxCount",
      "outputs": [
        {
          "internalType": "uint256",
          "name": "",
          "type": "uint256"
        }
      ],
      "stateMutability": "view",
      "type": "function",
      "constant": true
    },
    {
      "inputs": [],
      "name": "blindBoxPrice",
      "outputs": [
        {
          "internalType": "uint256",
          "name": "",
          "type": "uint256"
        }
      ],
      "stateMutability": "view",
      "type": "function",
      "constant": true
    },
    {
      "inputs": [],
      "name": "eventEndTime",
      "outputs": [
        {
          "internalType": "uint256",
          "name": "",
          "type": "uint256"
        }
      ],
      "stateMutability": "view",
      "type": "function",
      "constant": true
    },
    {
      "inputs": [
        {
          "internalType": "address",
          "name": "",
          "type": "address"
        }
      ],
      "name": "mintBoxCounts",
      "outputs": [
        {
          "internalType": "uint256",
          "name": "",
          "type": "uint256"
        }
      ],
      "stateMutability": "view",
      "type": "function",
      "constant": true
    },
    {
      "inputs": [
        {
          "internalType": "address",
          "name": "",
          "type": "address"
        }
      ],
      "name": "openBoxCounts",
      "outputs": [
        {
          "internalType": "uint256",
          "name": "",
          "type": "uint256"
        }
      ],
      "stateMutability": "view",
      "type": "function",
      "constant": true
    },
    {
      "inputs": [],
      "name": "owner",
      "outputs": [
        {
          "internalType": "address",
          "name": "",
          "type": "address"
        }
      ],
      "stateMutability": "view",
      "type": "function",
      "constant": true
    },
    {
      "inputs": [],
      "name": "prizePoolAmount",
      "outputs": [
        {
          "internalType": "uint256",
          "name": "",
          "type": "uint256"
        }
      ],
      "stateMutability": "view",
      "type": "function",
      "constant": true
    },
    {
      "inputs": [],
      "name": "prizePoolToken",
      "outputs": [
        {
          "internalType": "contract IERC20",
          "name": "",
          "type": "address"
        }
      ],
      "stateMutability": "view",
      "type": "function",
      "constant": true
    },
    {
      "inputs": [],
      "name": "random",
      "outputs": [
        {
          "internalType": "contract Random",
          "name": "",
          "type": "address"
        }
      ],
      "stateMutability": "view",
      "type": "function",
      "constant": true
    },
    {
      "inputs": [],
      "name": "rareCardCount",
      "outputs": [
        {
          "internalType": "uint256",
          "name": "",
          "type": "uint256"
        }
      ],
      "stateMutability": "view",
      "type": "function",
      "constant": true
    },
    {
      "inputs": [],
      "name": "rareCardPrice",
      "outputs": [
        {
          "internalType": "uint256",
          "name": "",
          "type": "uint256"
        }
      ],
      "stateMutability": "view",
      "type": "function",
      "constant": true
    },
    {
      "inputs": [],
      "name": "rareCradId",
      "outputs": [
        {
          "internalType": "uint256",
          "name": "",
          "type": "uint256"
        }
      ],
      "stateMutability": "view",
      "type": "function",
      "constant": true
    },
    {
      "inputs": [],
      "name": "renounceOwnership",
      "outputs": [],
      "stateMutability": "nonpayable",
      "type": "function"
    },
    {
      "inputs": [],
      "name": "totalWeights",
      "outputs": [
        {
          "internalType": "uint256",
          "name": "",
          "type": "uint256"
        }
      ],
      "stateMutability": "view",
      "type": "function",
      "constant": true
    },
    {
      "inputs": [
        {
          "internalType": "address",
          "name": "newOwner",
          "type": "address"
        }
      ],
      "name": "transferOwnership",
      "outputs": [],
      "stateMutability": "nonpayable",
      "type": "function"
    },
    {
      "inputs": [
        {
          "internalType": "address",
          "name": "",
          "type": "address"
        }
      ],
      "name": "userWeights",
      "outputs": [
        {
          "internalType": "uint256",
          "name": "",
          "type": "uint256"
        }
      ],
      "stateMutability": "view",
      "type": "function",
      "constant": true
    },
    {
      "inputs": [
        {
          "internalType": "address",
          "name": "",
          "type": "address"
        }
      ],
      "name": "whitelistId",
      "outputs": [
        {
          "internalType": "uint256",
          "name": "",
          "type": "uint256"
        }
      ],
      "stateMutability": "view",
      "type": "function",
      "constant": true
    },
    {
      "inputs": [],
      "name": "whitelistIdCount",
      "outputs": [
        {
          "internalType": "uint256",
          "name": "",
          "type": "uint256"
        }
      ],
      "stateMutability": "view",
      "type": "function",
      "constant": true
    },
    {
      "inputs": [
        {
          "internalType": "address",
          "name": "blessCardAddr",
          "type": "address"
        },
        {
          "internalType": "address",
          "name": "tokenAddr",
          "type": "address"
        },
        {
          "internalType": "address",
          "name": "randomAddr",
          "type": "address"
        },
        {
          "internalType": "uint256",
          "name": "endTime",
          "type": "uint256"
        }
      ],
      "name": "init",
      "outputs": [],
      "stateMutability": "nonpayable",
      "type": "function"
    },
    {
      "inputs": [
        {
          "internalType": "uint256",
          "name": "price",
          "type": "uint256"
        }
      ],
      "name": "setRareCardPrice",
      "outputs": [],
      "stateMutability": "nonpayable",
      "type": "function"
    },
    {
      "inputs": [
        {
          "internalType": "uint256",
          "name": "price",
          "type": "uint256"
        }
      ],
      "name": "setBlindBoxPrice",
      "outputs": [],
      "stateMutability": "nonpayable",
      "type": "function"
    },
    {
      "inputs": [
        {
          "internalType": "uint256",
          "name": "newTime",
          "type": "uint256"
        }
      ],
      "name": "setEventEndTime",
      "outputs": [],
      "stateMutability": "nonpayable",
      "type": "function"
    },
    {
      "inputs": [
        {
          "internalType": "address",
          "name": "user",
          "type": "address"
        }
      ],
      "name": "getUserOpenBoxs",
      "outputs": [
        {
          "internalType": "uint256[]",
          "name": "",
          "type": "uint256[]"
        }
      ],
      "stateMutability": "view",
      "type": "function",
      "constant": true
    },
    {
      "inputs": [
        {
          "internalType": "address",
          "name": "token",
          "type": "address"
        },
        {
          "internalType": "uint256",
          "name": "quantity",
          "type": "uint256"
        },
        {
          "internalType": "uint256",
          "name": "totalAmount",
          "type": "uint256"
        }
      ],
      "name": "mintBox",
      "outputs": [],
      "stateMutability": "nonpayable",
      "type": "function"
    },
    {
      "inputs": [
        {
          "internalType": "address",
          "name": "addr",
          "type": "address"
        },
        {
          "internalType": "uint256",
          "name": "nftId",
          "type": "uint256"
        }
      ],
      "name": "mintBoxNFT721",
      "outputs": [],
      "stateMutability": "nonpayable",
      "type": "function"
    },
    {
      "inputs": [
        {
          "internalType": "address",
          "name": "addr",
          "type": "address"
        },
        {
          "internalType": "uint256",
          "name": "nftId",
          "type": "uint256"
        },
        {
          "internalType": "uint256",
          "name": "quantity",
          "type": "uint256"
        }
      ],
      "name": "mintBoxNFT1155",
      "outputs": [],
      "stateMutability": "nonpayable",
      "type": "function"
    },
    {
      "inputs": [
        {
          "internalType": "uint256",
          "name": "quantity",
          "type": "uint256"
        }
      ],
      "name": "mintWhitelistNFT",
      "outputs": [],
      "stateMutability": "nonpayable",
      "type": "function"
    },
    {
      "inputs": [
        {
          "internalType": "uint256",
          "name": "quantity",
          "type": "uint256"
        },
        {
          "internalType": "address",
          "name": "to",
          "type": "address"
        }
      ],
      "name": "mintRareCard",
      "outputs": [],
      "stateMutability": "nonpayable",
      "type": "function"
    },
    {
      "inputs": [
        {
          "internalType": "address[]",
          "name": "tos",
          "type": "address[]"
        },
        {
          "internalType": "uint256[]",
          "name": "quantities",
          "type": "uint256[]"
        }
      ],
      "name": "mintRareCardBatch",
      "outputs": [],
      "stateMutability": "nonpayable",
      "type": "function"
    },
    {
      "inputs": [
        {
          "internalType": "address[]",
          "name": "tos",
          "type": "address[]"
        },
        {
          "internalType": "uint256[]",
          "name": "ids",
          "type": "uint256[]"
        },
        {
          "internalType": "uint256[]",
          "name": "quantities",
          "type": "uint256[]"
        }
      ],
      "name": "mintCard",
      "outputs": [],
      "stateMutability": "nonpayable",
      "type": "function"
    },
    {
      "inputs": [
        {
          "internalType": "uint256",
          "name": "quantity",
          "type": "uint256"
        }
      ],
      "name": "openBox",
      "outputs": [],
      "stateMutability": "nonpayable",
      "type": "function"
    },
    {
      "inputs": [],
      "name": "cashPrize",
      "outputs": [],
      "stateMutability": "nonpayable",
      "type": "function"
    },
    {
      "inputs": [
        {
          "internalType": "uint256",
          "name": "_limit",
          "type": "uint256"
        }
      ],
      "name": "claimBlindBox",
      "outputs": [],
      "stateMutability": "nonpayable",
      "type": "function"
    },
    {
      "inputs": [
        {
          "internalType": "uint256",
          "name": "_limit",
          "type": "uint256"
        }
      ],
      "name": "claimBlindBox2",
      "outputs": [],
      "stateMutability": "nonpayable",
      "type": "function"
    },
    {
      "inputs": [
        {
          "internalType": "address",
          "name": "user",
          "type": "address"
        },
        {
          "internalType": "uint256",
          "name": "startIndex",
          "type": "uint256"
        },
        {
          "internalType": "uint256",
          "name": "lastIndex",
          "type": "uint256"
        }
      ],
      "name": "getUserOpendBox",
      "outputs": [
        {
          "internalType": "uint256[]",
          "name": "boxIds",
          "type": "uint256[]"
        },
        {
          "components": [
            {
              "internalType": "enum CollectBless.PrizeType",
              "name": "prizeType",
              "type": "uint8"
            },
            {
              "internalType": "address",
              "name": "token",
              "type": "address"
            },
            {
              "internalType": "address",
              "name": "creator",
              "type": "address"
            },
            {
              "internalType": "uint256",
              "name": "amount",
              "type": "uint256"
            },
            {
              "internalType": "uint256",
              "name": "nftId",
              "type": "uint256"
            },
            {
              "internalType": "uint256",
              "name": "seedBlock",
              "type": "uint256"
            }
          ],
          "internalType": "struct CollectBless.BlindBox[]",
          "name": "boxes",
          "type": "tuple[]"
        },
        {
          "internalType": "uint16[]",
          "name": "weights",
          "type": "uint16[]"
        }
      ],
      "stateMutability": "view",
      "type": "function",
      "constant": true
    },
    {
      "inputs": [
        {
          "internalType": "uint256[]",
          "name": "ids",
          "type": "uint256[]"
        }
      ],
      "name": "getBoxsByIds",
      "outputs": [
        {
          "components": [
            {
              "internalType": "enum CollectBless.PrizeType",
              "name": "prizeType",
              "type": "uint8"
            },
            {
              "internalType": "address",
              "name": "token",
              "type": "address"
            },
            {
              "internalType": "address",
              "name": "creator",
              "type": "address"
            },
            {
              "internalType": "uint256",
              "name": "amount",
              "type": "uint256"
            },
            {
              "internalType": "uint256",
              "name": "nftId",
              "type": "uint256"
            },
            {
              "internalType": "uint256",
              "name": "seedBlock",
              "type": "uint256"
            }
          ],
          "internalType": "struct CollectBless.BlindBox[]",
          "name": "boxes",
          "type": "tuple[]"
        },
        {
          "internalType": "uint16[]",
          "name": "weights",
          "type": "uint16[]"
        }
      ],
      "stateMutability": "view",
      "type": "function",
      "constant": true
    },
    {
      "inputs": [
        {
          "internalType": "address",
          "name": "",
          "type": "address"
        },
        {
          "internalType": "address",
          "name": "",
          "type": "address"
        },
        {
          "internalType": "uint256",
          "name": "",
          "type": "uint256"
        },
        {
          "internalType": "bytes",
          "name": "",
          "type": "bytes"
        }
      ],
      "name": "onERC721Received",
      "outputs": [
        {
          "internalType": "bytes4",
          "name": "",
          "type": "bytes4"
        }
      ],
      "stateMutability": "pure",
      "type": "function",
      "constant": true
    },
    {
      "inputs": [
        {
          "internalType": "address",
          "name": "",
          "type": "address"
        },
        {
          "internalType": "address",
          "name": "",
          "type": "address"
        },
        {
          "internalType": "uint256",
          "name": "",
          "type": "uint256"
        },
        {
          "internalType": "uint256",
          "name": "",
          "type": "uint256"
        },
        {
          "internalType": "bytes",
          "name": "",
          "type": "bytes"
        }
      ],
      "name": "onERC1155Received",
      "outputs": [
        {
          "internalType": "bytes4",
          "name": "",
          "type": "bytes4"
        }
      ],
      "stateMutability": "pure",
      "type": "function",
      "constant": true
    },
    {
      "inputs": [
        {
          "internalType": "address",
          "name": "",
          "type": "address"
        },
        {
          "internalType": "address",
          "name": "",
          "type": "address"
        },
        {
          "internalType": "uint256[]",
          "name": "",
          "type": "uint256[]"
        },
        {
          "internalType": "uint256[]",
          "name": "",
          "type": "uint256[]"
        },
        {
          "internalType": "bytes",
          "name": "",
          "type": "bytes"
        }
      ],
      "name": "onERC1155BatchReceived",
      "outputs": [
        {
          "internalType": "bytes4",
          "name": "",
          "type": "bytes4"
        }
      ],
      "stateMutability": "pure",
      "type": "function",
      "constant": true
    },
    {
      "inputs": [
        {
          "internalType": "bytes4",
          "name": "interfaceId",
          "type": "bytes4"
        }
      ],
      "name": "supportsInterface",
      "outputs": [
        {
          "internalType": "bool",
          "name": "",
          "type": "bool"
        }
      ],
      "stateMutability": "pure",
      "type": "function",
      "constant": true
    }
  ],
  "bytecode": "0x6702c68af0bb1400006005908155670de0b6b3a7640000600655601381905561012060405260016080908152600260a052600360c05260e0829052600a610100526200004f9160159190620000da565b5060006017556063601a553480156200006757600080fd5b506200007c6200007662000086565b6200008a565b600180556200018e565b3390565b600080546001600160a01b038381166001600160a01b0319831681178455604051919092169283917f8be0079c531659141344cd1fd0a4f28419497f9722a3daafe3b4186f6b6457e09190a35050565b600183019183908215620001655791602002820160005b838211156200013357835183826101000a81548161ffff021916908361ffff1602179055509260200192600201602081600101049283019260010302620000f1565b8015620001635782816101000a81549061ffff021916905560020160208160010104928301926001030262000133565b505b506200017392915062000177565b5090565b5b8082111562000173576000815560010162000178565b614b5c806200019e6000396000f3fe608060405234801561001057600080fd5b506004361061025e5760003560e01c806383e8e3e511610146578063d6bd5db1116100c3578063f23a6e6111610087578063f23a6e61146104e9578063f2fde38b146104fc578063f7b5e3171461050f578063f84d13ef14610517578063fc01b0a21461052a578063fd4ab46d1461053d5761025e565b8063d6bd5db1146104ab578063dd3c627d146104b3578063e3164044146104bb578063e8efab93146104ce578063edea9555146104e15761025e565b8063b1e5e2b71161010a578063b1e5e2b714610457578063b58067ab1461046a578063b78ef0b91461047d578063bc197c8114610490578063c4fbc2b2146104a35761025e565b806383e8e3e5146104195780638da5cb5b1461042c578063926323d514610434578063a2011d911461043c578063b1648dad1461044f5761025e565b80632c4adc78116101df5780635e7ff0cc116101a35780635e7ff0cc146103a35780635ec01e4d146103b6578063623ec92b146103cb578063715018a6146103eb578063745b08bf146103f357806383e4f941146104065761025e565b80632c4adc78146103365780633c8884121461035757806346639dba1461036a578063534fb2461461037d578063556a6d8a146103905761025e565b8063150b7a0211610226578063150b7a02146102c657806318f27707146102e657806324a257ae146102ee5780632583fd231461030157806327109641146103235761025e565b806301ffc9a714610263578063043f6b631461028c5780630d080bda146102a15780630f8202d6146102b457806311e80b85146102bc575b600080fd5b610276610271366004614143565b610545565b6040516102839190614523565b60405180910390f35b61029461057e565b6040516102839190614543565b6102946102af366004613d98565b610584565b610294610596565b6102c461059c565b005b6102d96102d4366004613eb2565b6106e3565b604051610283919061452e565b6102946106f4565b6102c46102fc366004614183565b6106fa565b61031461030f366004613fbc565b610892565b604051610283939291906144ea565b610294610331366004613d98565b610c8f565b6103496103443660046140d1565b610ca1565b6040516102839291906144b2565b6102c461036536600461416b565b610f24565b6102c4610378366004613db2565b6112c7565b6102c461038b36600461404e565b611580565b61029461039e366004613d98565b611827565b6102c46103b136600461416b565b611839565b6103be611c5a565b60405161028391906143b9565b6103de6103d9366004613d98565b611c69565b60405161028391906144d7565b6102c4611cd5565b6102c4610401366004613fbc565b611d20565b610294610414366004613d98565b61209a565b6102c461042736600461416b565b6120ac565b6103be6120f0565b6102946120ff565b6102c461044a366004613f93565b612105565b6102946123d3565b6102c461046536600461416b565b6123d9565b6102c4610478366004613fee565b612879565b6102c461048b366004613fbc565b612b08565b6102d961049e366004613dfc565b612e96565b610294612ea4565b610294612eaa565b6103be612eb0565b6102946104c9366004613d98565b612ebf565b6102c46104dc36600461416b565b612ed1565b610294612f15565b6102d96104f7366004613f1e565b612f1b565b6102c461050a366004613d98565b612f2d565b610294612f9b565b6102c461052536600461416b565b612fa1565b6102c461053836600461416b565b612fe5565b6103be61335a565b60006001600160e01b03198216630a85bd0160e11b148061057657506001600160e01b03198216630271189760e51b145b90505b919050565b601a5481565b60106020526000908152604090205481565b600e5481565b42600754106105c65760405162461bcd60e51b81526004016105bd906147ac565b60405180910390fd5b6000601754116105e85760405162461bcd60e51b81526004016105bd90614910565b33600090815260186020526040902054156106155760405162461bcd60e51b81526004016105bd906146ef565b60175433600090815260126020526040812054600e549192916106389190614a3f565b6106429190614a2b565b905080156106e057336000818152601860205260409081902083905560048054915163a9059cbb60e01b81526001600160a01b039092169263a9059cbb9261068c9286910161446c565b602060405180830381600087803b1580156106a657600080fd5b505af11580156106ba573d6000803e3d6000fd5b505050506040513d601f19601f820116820180604052508101906106de919061410b565b505b50565b630a85bd0160e11b95945050505050565b60135481565b426007541161071b5760405162461bcd60e51b81526004016105bd906149a4565b6000821161073b5760405162461bcd60e51b81526004016105bd906148e1565b60008260055461074b9190614a3f565b600480546040516323b872dd60e01b81529293506001600160a01b0316916323b872dd9161077f91339130918791016143cd565b602060405180830381600087803b15801561079957600080fd5b505af11580156107ad573d6000803e3d6000fd5b505050506040513d601f19601f820116820180604052508101906107d1919061410b565b50604080516001808252818301909252600091602082018180368337505060035460135460405163731133e960e01b81529394506001600160a01b039091169263731133e9925061082a91879189908790600401614485565b600060405180830381600087803b15801561084457600080fd5b505af1158015610858573d6000803e3d6000fd5b5050505081600e600082825461086e9190614a13565b9250508190555083600860008282546108879190614a13565b909155505050505050565b60608060608385106108b65760405162461bcd60e51b81526004016105bd90614855565b6001600160a01b03861660009081526011602090815260408083208054825181850281018501909352808352919290919083018282801561091657602002820191906000526020600020905b815481526020019060010190808311610902575b5050505050905080516000141561092d5750610c86565b805186811161093d575050610c86565b858111610948578095505b6109528787614a5e565b6001600160401b0381111561097757634e487b7160e01b600052604160045260246000fd5b6040519080825280602002602001820160405280156109b057816020015b61099d613be4565b8152602001906001900390816109955790505b5093506109bd8787614a5e565b6001600160401b038111156109e257634e487b7160e01b600052604160045260246000fd5b604051908082528060200260200182016040528015610a0b578160200160208202803683370190505b509250610a188787614a5e565b6001600160401b03811115610a3d57634e487b7160e01b600052604160045260246000fd5b604051908082528060200260200182016040528015610a66578160200160208202803683370190505b5094506000875b87811015610c8157600d6000600a6000878581518110610a9d57634e487b7160e01b600052603260045260246000fd5b602002602001015181526020019081526020016000205481526020019081526020016000206040518060c00160405290816000820160009054906101000a900460ff166003811115610aff57634e487b7160e01b600052602160045260246000fd5b6003811115610b1e57634e487b7160e01b600052602160045260246000fd5b815281546001600160a01b03610100909104811660208301526001830154166040820152600282015460608201526003820154608082015260049091015460a0909101528651879084908110610b8457634e487b7160e01b600052603260045260246000fd5b6020026020010181905250600b6000858381518110610bb357634e487b7160e01b600052603260045260246000fd5b6020026020010151815260200190815260200160002060009054906101000a900461ffff16858381518110610bf857634e487b7160e01b600052603260045260246000fd5b602002602001019061ffff16908161ffff1681525050838181518110610c2e57634e487b7160e01b600052603260045260246000fd5b6020026020010151878381518110610c5657634e487b7160e01b600052603260045260246000fd5b602090810291909101015281610c6b81614a75565b9250508080610c7990614a75565b915050610a6d565b505050505b93509350939050565b60186020526000908152604090205481565b606080825160001415610cb357610f1f565b82516001600160401b03811115610cda57634e487b7160e01b600052604160045260246000fd5b604051908082528060200260200182016040528015610d1357816020015b610d00613be4565b815260200190600190039081610cf85790505b50915082516001600160401b03811115610d3d57634e487b7160e01b600052604160045260246000fd5b604051908082528060200260200182016040528015610d66578160200160208202803683370190505b50905060005b8351811015610f1d57600d6000600a6000878581518110610d9d57634e487b7160e01b600052603260045260246000fd5b602002602001015181526020019081526020016000205481526020019081526020016000206040518060c00160405290816000820160009054906101000a900460ff166003811115610dff57634e487b7160e01b600052602160045260246000fd5b6003811115610e1e57634e487b7160e01b600052602160045260246000fd5b815281546001600160a01b03610100909104811660208301526001830154166040820152600282015460608201526003820154608082015260049091015460a0909101528351849083908110610e8457634e487b7160e01b600052603260045260246000fd5b6020026020010181905250600b6000858381518110610eb357634e487b7160e01b600052603260045260246000fd5b6020026020010151815260200190815260200160002060009054906101000a900461ffff16828281518110610ef857634e487b7160e01b600052603260045260246000fd5b61ffff9092166020928302919091019091015280610f1581614a75565b915050610d6c565b505b915091565b4260075410610f455760405162461bcd60e51b81526004016105bd906147d7565b601654610f51576106e0565b61012c8115610f5d5750805b6040805160018082528183019092526000918291906020820181803683375050601654919250600091610f939150600190614a5e565b90505b838310156112c0576000600d6000600a600060168681548110610fc957634e487b7160e01b600052603260045260246000fd5b9060005260206000200154815260200190815260200160002054815260200190815260200160002090506001601060008360010160009054906101000a90046001600160a01b03166001600160a01b03166001600160a01b0316815260200190815260200160002060008282546110409190614a13565b9091555050601680548061106457634e487b7160e01b600052603160045260246000fd5b6000828152602081208201600019908101919091550190556001815460ff1660038111156110a257634e487b7160e01b600052602160045260246000fd5b141561113f5780546001820154600283015460405163a9059cbb60e01b81526001600160a01b0361010090940484169363a9059cbb936110e79391169160040161446c565b602060405180830381600087803b15801561110157600080fd5b505af1158015611115573d6000803e3d6000fd5b505050506040513d601f19601f82011682018060405250810190611139919061410b565b5061128e565b6002815460ff16600381111561116557634e487b7160e01b600052602160045260246000fd5b14156111e557805460018201546003830154604051632142170760e11b81526101009093046001600160a01b03908116936342842e0e936111ae933093909116916004016143cd565b600060405180830381600087803b1580156111c857600080fd5b505af11580156111dc573d6000803e3d6000fd5b5050505061128e565b6003815460ff16600381111561120b57634e487b7160e01b600052602160045260246000fd5b141561128e578054600182015460038301546002840154604051637921219560e11b81526001600160a01b0361010090950485169463f242432a9461125b94309491909216928a906004016143f1565b600060405180830381600087803b15801561127557600080fd5b505af1158015611289573d6000803e3d6000fd5b505050505b60165461129b57506112c0565b6016546112aa90600190614a5e565b91505082806112b890614a75565b935050610f96565b5050505050565b6112cf613369565b6001600160a01b03166112e06120f0565b6001600160a01b0316146113065760405162461bcd60e51b81526004016105bd906148ac565b6003546001600160a01b03161561132f5760405162461bcd60e51b81526004016105bd90614752565b6001600160a01b0384166113555760405162461bcd60e51b81526004016105bd9061480e565b6001600160a01b03821661137b5760405162461bcd60e51b81526004016105bd9061454c565b6001600160a01b0383166113a15760405162461bcd60e51b81526004016105bd90614583565b4281116113c05760405162461bcd60e51b81526004016105bd90614880565b600380546001600160a01b038681166001600160a01b031992831617835560028054868316908416178155600785905560048054888416908516178155601480546001818101835560327fce6d7b5282bd9a3661ae061feed1dbda4e52ab073b1f9285be6e155d9c38d4ec9283015582548082018455820183905582548082018455600f9083015582548082018455600a90830155825480820190935560059290910191909155600c80546000908152600d6020526040808220805460ff19169055825482528082208054610100600160a81b03191690558254825280822090930180549097169096558054865281862084018690558054865281862090960185905594548452848420810184905590549351633352da4560e21b815292939091169163cd4b6914916114f591859101614543565b602060405180830381600087803b15801561150f57600080fd5b505af1158015611523573d6000803e3d6000fd5b505050506040513d601f19601f82011682018060405250810190611547919061412b565b90506019548160405160200161155e929190614306565b60408051601f1981840301815291905280516020909101206019555050505050565b611588613369565b6001600160a01b03166115996120f0565b6001600160a01b0316146115bf5760405162461bcd60e51b81526004016105bd906148ac565b42600754116115e05760405162461bcd60e51b81526004016105bd906149a4565b60008351116116015760405162461bcd60e51b81526004016105bd90614726565b81518351146116225760405162461bcd60e51b81526004016105bd906146c3565b80518351146116435760405162461bcd60e51b81526004016105bd906146c3565b60408051600180825281830190925260009160208201818036833701905050905060005b84518110156112c057600083828151811061169257634e487b7160e01b600052603260045260246000fd5b6020026020010151116116b75760405162461bcd60e51b81526004016105bd906148e1565b60018482815181106116d957634e487b7160e01b600052603260045260246000fd5b6020026020010151101580156117175750600484828151811061170c57634e487b7160e01b600052603260045260246000fd5b602002602001015111155b6117335760405162461bcd60e51b81526004016105bd90614668565b60035485516001600160a01b039091169063731133e99087908490811061176a57634e487b7160e01b600052603260045260246000fd5b602002602001015186848151811061179257634e487b7160e01b600052603260045260246000fd5b60200260200101518685815181106117ba57634e487b7160e01b600052603260045260246000fd5b6020026020010151866040518563ffffffff1660e01b81526004016117e29493929190614485565b600060405180830381600087803b1580156117fc57600080fd5b505af1158015611810573d6000803e3d6000fd5b50505050808061181f90614a75565b915050611667565b60126020526000908152604090205481565b426007541061185a5760405162461bcd60e51b81526004016105bd906147d7565b61012c81156118665750805b33600090815260106020908152604080832054600f90925282205461188b9190614a5e565b11156106de5760408051600180825281830190925260009182919060208201818036833701905050905060005b83831080156118c8575060165481105b156112c0576000600d6000600a6000601686815481106118f857634e487b7160e01b600052603260045260246000fd5b906000526020600020015481526020019081526020016000205481526020019081526020016000209050336001600160a01b03168160010160009054906101000a90046001600160a01b03166001600160a01b03161415611c39576001818101546001600160a01b031660009081526010602052604081208054909190611980908490614a13565b90915550506016805461199590600190614a5e565b815481106119b357634e487b7160e01b600052603260045260246000fd5b9060005260206000200154601683815481106119df57634e487b7160e01b600052603260045260246000fd5b6000918252602090912001556016805480611a0a57634e487b7160e01b600052603160045260246000fd5b6000828152602081208201600019908101919091550190556001815460ff166003811115611a4857634e487b7160e01b600052602160045260246000fd5b1415611ae55780546001820154600283015460405163a9059cbb60e01b81526001600160a01b0361010090940484169363a9059cbb93611a8d9391169160040161446c565b602060405180830381600087803b158015611aa757600080fd5b505af1158015611abb573d6000803e3d6000fd5b505050506040513d601f19601f82011682018060405250810190611adf919061410b565b50611c34565b6002815460ff166003811115611b0b57634e487b7160e01b600052602160045260246000fd5b1415611b8b57805460018201546003830154604051632142170760e11b81526101009093046001600160a01b03908116936342842e0e93611b54933093909116916004016143cd565b600060405180830381600087803b158015611b6e57600080fd5b505af1158015611b82573d6000803e3d6000fd5b50505050611c34565b6003815460ff166003811115611bb157634e487b7160e01b600052602160045260246000fd5b1415611c34578054600182015460038301546002840154604051637921219560e11b81526001600160a01b0361010090950485169463f242432a94611c0194309491909216928a906004016143f1565b600060405180830381600087803b158015611c1b57600080fd5b505af1158015611c2f573d6000803e3d6000fd5b505050505b611c47565b81611c4381614a75565b9250505b5082611c5281614a75565b9350506118b8565b6002546001600160a01b031681565b6001600160a01b038116600090815260116020908152604091829020805483518184028101840190945280845260609392830182828015611cc957602002820191906000526020600020905b815481526020019060010190808311611cb5575b50505050509050919050565b611cdd613369565b6001600160a01b0316611cee6120f0565b6001600160a01b031614611d145760405162461bcd60e51b81526004016105bd906148ac565b611d1e600061336d565b565b4260075411611d415760405162461bcd60e51b81526004016105bd906149a4565b6001600160a01b038316611d675760405162461bcd60e51b81526004016105bd9061468c565b6001811015611d885760405162461bcd60e51b81526004016105bd906148e1565b6040805160018082528183019092526000916020820181803683375050604051637921219560e11b8152919250506001600160a01b0385169063f242432a90611ddd90339030908890889088906004016143f1565b600060405180830381600087803b158015611df757600080fd5b505af1158015611e0b573d6000803e3d6000fd5b50505050600082600654611e1f9190614a3f565b600480546040516323b872dd60e01b81529293506001600160a01b0316916323b872dd91611e5391339130918791016143cd565b602060405180830381600087803b158015611e6d57600080fd5b505af1158015611e81573d6000803e3d6000fd5b505050506040513d601f19601f82011682018060405250810190611ea5919061410b565b5080600e6000828254611eb89190614a13565b9091555050336000908152600f602052604081208054859290611edc908490614a13565b925050819055506001600c6000828254611ef69190614a13565b9091555050600c546000908152600d60205260409020805460018083018054336001600160a01b0319909116179055610100600160a81b031960ff19909216600317919091166101006001600160a01b03891602178255611f58904390614a13565b600482015560016002820155600381018590556000846001600160401b03811115611f9357634e487b7160e01b600052604160045260246000fd5b604051908082528060200260200182016040528015611fbc578160200160208202803683370190505b50905060005b8581101561206157600160096000828254611fdd9190614a13565b9250508190555060095482828151811061200757634e487b7160e01b600052603260045260246000fd5b602090810291909101810191909152600c54600980546000908152600a909352604083209190915554601680546001810182559252600080516020614b07833981519152909101558061205981614a75565b915050611fc2565b50336001600160a01b0316600080516020614ae78339815191528260405161208991906144d7565b60405180910390a250505050505050565b601b6020526000908152604090205481565b6120b4613369565b6001600160a01b03166120c56120f0565b6001600160a01b0316146120eb5760405162461bcd60e51b81526004016105bd906148ac565b600555565b6000546001600160a01b031690565b60175481565b42600754116121265760405162461bcd60e51b81526004016105bd906149a4565b6001600160a01b03821661214c5760405162461bcd60e51b81526004016105bd9061468c565b600480546006546040516323b872dd60e01b81526001600160a01b03909216926323b872dd926121809233923092016143cd565b602060405180830381600087803b15801561219a57600080fd5b505af11580156121ae573d6000803e3d6000fd5b505050506040513d601f19601f820116820180604052508101906121d2919061410b565b50604051632142170760e11b81526001600160a01b038316906342842e0e90612203903390309086906004016143cd565b600060405180830381600087803b15801561221d57600080fd5b505af1158015612231573d6000803e3d6000fd5b50505050600654600e60008282546122499190614a13565b9091555050336000908152600f6020526040812080546001929061226e908490614a13565b925050819055506001600960008282546122889190614a13565b925050819055506001600c60008282546122a29190614a13565b9091555050600c546000908152600d60205260409020805460018083018054336001600160a01b0319909116179055610100600160a81b031960ff19909216600217919091166101006001600160a01b03861602178255612304904390614a13565b600482015560038101829055600c54600980546000908152600a60205260408082209390935590546016805460018181018355918452600080516020614b07833981519152019190915582518181528084019093529091908160200160208202803683370190505090506009548160008151811061239257634e487b7160e01b600052603260045260246000fd5b602002602001018181525050336001600160a01b0316600080516020614ae7833981519152826040516123c591906144d7565b60405180910390a250505050565b60085481565b42600754116123fa5760405162461bcd60e51b81526004016105bd906149a4565b6000811161241a5760405162461bcd60e51b81526004016105bd906148e1565b600a81111561243b5760405162461bcd60e51b81526004016105bd9061477f565b60408051600580825260c082019092526000916020820160a08036833701905050905060018160008151811061248157634e487b7160e01b600052603260045260246000fd5b6020026020010181815250506002816001815181106124b057634e487b7160e01b600052603260045260246000fd5b6020026020010181815250506003816002815181106124df57634e487b7160e01b600052603260045260246000fd5b60200260200101818152505060048160038151811061250e57634e487b7160e01b600052603260045260246000fd5b6020026020010181815250506013548160048151811061253e57634e487b7160e01b600052603260045260246000fd5b602090810291909101015260408051600580825260c08201909252600091816020016020820280368337019050509050828160008151811061259057634e487b7160e01b600052603260045260246000fd5b60200260200101818152505082816001815181106125be57634e487b7160e01b600052603260045260246000fd5b60200260200101818152505082816002815181106125ec57634e487b7160e01b600052603260045260246000fd5b602002602001018181525050828160038151811061261a57634e487b7160e01b600052603260045260246000fd5b602002602001018181525050828160048151811061264857634e487b7160e01b600052603260045260246000fd5b6020908102919091010152600354604051631ac8311560e21b81526001600160a01b0390911690636b20c4549061268790339086908690600401614436565b600060405180830381600087803b1580156126a157600080fd5b505af11580156126b5573d6000803e3d6000fd5b5050505082600860008282546126cb9190614a5e565b9091555060009050836001600160401b038111156126f957634e487b7160e01b600052604160045260246000fd5b604051908082528060200260200182016040528015612722578160200160208202803683370190505b50600254604051633352da4560e21b81529192506000916001600160a01b039091169063cd4b691490612759908490600401614543565b602060405180830381600087803b15801561277357600080fd5b505af1158015612787573d6000803e3d6000fd5b505050506040513d601f19601f820116820180604052508101906127ab919061412b565b9050601954816040516020016127c2929190614306565b60408051601f19818403018152919052805160209091012060195560005b85811015612830576127f33382846133bd565b83828151811061281357634e487b7160e01b600052603260045260246000fd5b60209081029190910101528061282881614a75565b9150506127e0565b50336001600160a01b03167f4754632d5b70be4aeb46cfde2a5fbcc5793264e0905a9a280b8b971c3a6a89d98360405161286a91906144d7565b60405180910390a25050505050565b6002600154141561289c5760405162461bcd60e51b81526004016105bd9061496d565b600260015560075442106128c25760405162461bcd60e51b81526004016105bd906149a4565b80518251146128e35760405162461bcd60e51b81526004016105bd90614641565b60408051600180825281830190925260009182919060208201818036833701905050905060005b8451811015612a605783818151811061293357634e487b7160e01b600052603260045260246000fd5b60200260200101516005546129489190614a3f565b6129529084614a13565b60035486519194506001600160a01b03169063731133e99087908490811061298a57634e487b7160e01b600052603260045260246000fd5b60200260200101516013548785815181106129b557634e487b7160e01b600052603260045260246000fd5b6020026020010151866040518563ffffffff1660e01b81526004016129dd9493929190614485565b600060405180830381600087803b1580156129f757600080fd5b505af1158015612a0b573d6000803e3d6000fd5b50505050838181518110612a2f57634e487b7160e01b600052603260045260246000fd5b602002602001015160086000828254612a489190614a13565b90915550819050612a5881614a75565b91505061290a565b50600480546040516323b872dd60e01b81526001600160a01b03909116916323b872dd91612a9491339130918891016143cd565b602060405180830381600087803b158015612aae57600080fd5b505af1158015612ac2573d6000803e3d6000fd5b505050506040513d601f19601f82011682018060405250810190612ae6919061410b565b5081600e6000828254612af99190614a13565b90915550506001805550505050565b4260075411612b295760405162461bcd60e51b81526004016105bd906149a4565b6001600160a01b038316612b4f5760405162461bcd60e51b81526004016105bd906145cc565b60008211612b6f5760405162461bcd60e51b81526004016105bd906148e1565b6000612b7b8383614a2b565b905060018111612b9d5760405162461bcd60e51b81526004016105bd90614936565b6001600160a01b0384166323b872dd3330612bb88786614a3f565b6040518463ffffffff1660e01b8152600401612bd6939291906143cd565b602060405180830381600087803b158015612bf057600080fd5b505af1158015612c04573d6000803e3d6000fd5b505050506040513d601f19601f82011682018060405250810190612c28919061410b565b50600083600654612c399190614a3f565b600480546040516323b872dd60e01b81529293506001600160a01b0316916323b872dd91612c6d91339130918791016143cd565b602060405180830381600087803b158015612c8757600080fd5b505af1158015612c9b573d6000803e3d6000fd5b505050506040513d601f19601f82011682018060405250810190612cbf919061410b565b5080600e6000828254612cd29190614a13565b9091555050336000908152600f602052604081208054869290612cf6908490614a13565b9091555060009050846001600160401b03811115612d2457634e487b7160e01b600052604160045260246000fd5b604051908082528060200260200182016040528015612d4d578160200160208202803683370190505b5090506001600c6000828254612d639190614a13565b9091555050600c546000908152600d602052604090208054600180830180546001600160a01b031916331790556001600160a01b0389166101000260ff199092168117610100600160a81b031916919091178255612dc2904390614a13565b60048201556002810184905560005b86811015612e6e57600160096000828254612dec9190614a13565b9091555050600c54600980546000908152600a6020526040902091909155548351849083908110612e2d57634e487b7160e01b600052603260045260246000fd5b602090810291909101015260095460168054600181018255600091909152600080516020614b07833981519152015580612e6681614a75565b915050612dd1565b50336001600160a01b0316600080516020614ae78339815191528360405161208991906144d7565b600098975050505050505050565b60055481565b60075481565b6003546001600160a01b031681565b600f6020526000908152604090205481565b612ed9613369565b6001600160a01b0316612eea6120f0565b6001600160a01b031614612f105760405162461bcd60e51b81526004016105bd906148ac565b600755565b60095481565b63f23a6e6160e01b9695505050505050565b612f35613369565b6001600160a01b0316612f466120f0565b6001600160a01b031614612f6c5760405162461bcd60e51b81526004016105bd906148ac565b6001600160a01b038116612f925760405162461bcd60e51b81526004016105bd906145fb565b6106e08161336d565b60065481565b612fa9613369565b6001600160a01b0316612fba6120f0565b6001600160a01b031614612fe05760405162461bcd60e51b81526004016105bd906148ac565b600655565b60018110156130065760405162461bcd60e51b81526004016105bd906148e1565b6000816006546130169190614a3f565b600480546040516323b872dd60e01b81529293506001600160a01b0316916323b872dd9161304a91339130918791016143cd565b602060405180830381600087803b15801561306457600080fd5b505af1158015613078573d6000803e3d6000fd5b505050506040513d601f19601f8201168201806040525081019061309c919061410b565b5080600e60008282546130af9190614a13565b9091555050336000908152600f6020526040812080548492906130d3908490614a13565b9091555050336000908152601b60205260409020548061311d576001601a60008282546131009190614a13565b9091555050601a54336000908152601b6020526040902081905590505b6000836001600160401b0381111561314557634e487b7160e01b600052604160045260246000fd5b60405190808252806020026020018201604052801561316e578160200160208202803683370190505b5090506001600c60008282546131849190614a13565b9091555050600c546000908152600d602052604090208054600360ff199091168117808355600180840180546001600160a01b0319163317905591546001600160a01b031661010002610100600160a81b03199091161782556131e8904390614a13565b6004820155600160028201556003810183905560005b8581101561329b576001600960008282546132199190614a13565b9091555050600c54600980546000908152600a602052604090209190915554835184908390811061325a57634e487b7160e01b600052603260045260246000fd5b602090810291909101015260095460168054600181018255600091909152600080516020614b0783398151915201558061329381614a75565b9150506131fe565b50604080516001808252818301909252600091602082018180368337505060035460405163731133e960e01b81529293506001600160a01b03169163731133e991506132f190309088908b908790600401614485565b600060405180830381600087803b15801561330b57600080fd5b505af115801561331f573d6000803e3d6000fd5b50505050336001600160a01b0316600080516020614ae78339815191528460405161334a91906144d7565b60405180910390a2505050505050565b6004546001600160a01b031681565b3390565b600080546001600160a01b038381166001600160a01b0319831681178455604051919092169283917f8be0079c531659141344cd1fd0a4f28419497f9722a3daafe3b4186f6b6457e09190a35050565b6000600260015414156133e25760405162461bcd60e51b81526004016105bd9061496d565b600260019081556016546000908211156133ff5760009150613457565b6008546016541061340f57613457565b600061344585601954898960405160200161342d9493929190614383565b60405160208183030381529060405260016064613afe565b9050604681111561345557600092505b505b81156139cb5760006134a285601954898960405160200161347b9493929190614314565b60408051601f1981840301815291905260165460009061349d90600190614a5e565b613afe565b90506000601682815481106134c757634e487b7160e01b600052603260045260246000fd5b6000918252602080832090910154808352600a82526040808420548452600d90925291209091506001815460ff16600381111561351457634e487b7160e01b600052602160045260246000fd5b14156135ab578054600282015460405163a9059cbb60e01b81526101009092046001600160a01b03169163a9059cbb91613553918d919060040161446c565b602060405180830381600087803b15801561356d57600080fd5b505af1158015613581573d6000803e3d6000fd5b505050506040513d601f19601f820116820180604052508101906135a5919061410b565b5061371c565b6002815460ff1660038111156135d157634e487b7160e01b600052602160045260246000fd5b14156136485780546003820154604051632142170760e11b81526101009092046001600160a01b0316916342842e0e916136119130918e916004016143cd565b600060405180830381600087803b15801561362b57600080fd5b505af115801561363f573d6000803e3d6000fd5b5050505061371c565b6003815460ff16600381111561366e57634e487b7160e01b600052602160045260246000fd5b141561371c576040805160018082528183019092526000916020820181803683370190505090508160000160019054906101000a90046001600160a01b03166001600160a01b031663f242432a308c85600301548660020154866040518663ffffffff1660e01b81526004016136e89594939291906143f1565b600060405180830381600087803b15801561370257600080fd5b505af1158015613716573d6000803e3d6000fd5b50505050505b600254600480830154604051633352da4560e21b81526001600160a01b039093169263cd4b69149261374f929101614543565b602060405180830381600087803b15801561376957600080fd5b505af115801561377d573d6000803e3d6000fd5b505050506040513d601f19601f820116820180604052508101906137a1919061412b565b9650613820876019548b8b6040516020016137bf949392919061434b565b60408051601f198184030181526014805460208181028601810190945280855291939290919083018282801561381457602002820191906000526020600020905b815481526020019060010190808311613800575b50505050506064613b4a565b935060006015856005811061384557634e487b7160e01b600052603260045260246000fd5b6010810491909101546000858152600b602052604090208054600f9093166002026101000a90910461ffff1661ffff1990921682179055601680549192509061389090600190614a5e565b815481106138ae57634e487b7160e01b600052603260045260246000fd5b9060005260206000200154601685815481106138da57634e487b7160e01b600052603260045260246000fd5b600091825260209091200155601680548061390557634e487b7160e01b600052603160045260246000fd5b6000828152602080822083016000199081018390559092019092556001848101546001600160a01b0316835260109091526040822080549192909161394b908490614a13565b90915550506001600160a01b038a16600081815260116020908152604080832080546001810182559084528284200187905592825260129052908120805461ffff8416929061399b908490614a13565b925050819055508061ffff16601760008282546139b89190614a13565b90915550929650613af395505050505050565b6001600960008282546139de9190614a13565b90915550506009546000908152600a60209081526040808320929092556019549151613a14926137bf9288928b918b910161434b565b9050600060158260058110613a3957634e487b7160e01b600052603260045260246000fd5b601081049190910154600980546000908152600b602090815260408083208054600f9097166002026101000a90950461ffff1661ffff1990961686179094556001600160a01b038c16808352601182528483209354845460018101865594845282842090940193909355918152601290915290812080549293508392909190613ac3908490614a13565b925050819055508061ffff1660176000828254613ae09190614a13565b90915550506009549350613af392505050565b600180559392505050565b6000818310613b0e575081613b43565b8351602085012083613b208185614a5e565b613b2b906001614a13565b613b359083614a90565b613b3f9190614a13565b9150505b9392505050565b600080613b5985600185613afe565b90506000805b60018651613b6d9190614a5e565b8114613bcb57858181518110613b9357634e487b7160e01b600052603260045260246000fd5b602002602001015182613ba69190614a13565b9150818311613bb9579250613b43915050565b80613bc381614a75565b915050613b5f565b5060018551613bda9190614a5e565b9695505050505050565b6040805160c08101909152806000815260200160006001600160a01b0316815260200160006001600160a01b031681526020016000815260200160008152602001600081525090565b80356001600160a01b038116811461057957600080fd5b600082601f830112613c54578081fd5b81356020613c69613c64836149f0565b6149c7565b8281528181019085830183850287018401881015613c85578586fd5b855b85811015613caa57613c9882613c2d565b84529284019290840190600101613c87565b5090979650505050505050565b60008083601f840112613cc8578182fd5b5081356001600160401b03811115613cde578182fd5b6020830191508360208083028501011115613cf857600080fd5b9250929050565b600082601f830112613d0f578081fd5b81356020613d1f613c64836149f0565b8281528181019085830183850287018401881015613d3b578586fd5b855b85811015613caa57813584529284019290840190600101613d3d565b60008083601f840112613d6a578182fd5b5081356001600160401b03811115613d80578182fd5b602083019150836020828501011115613cf857600080fd5b600060208284031215613da9578081fd5b613b4382613c2d565b60008060008060808587031215613dc7578283fd5b613dd085613c2d565b9350613dde60208601613c2d565b9250613dec60408601613c2d565b9396929550929360600135925050565b60008060008060008060008060a0898b031215613e17578384fd5b613e2089613c2d565b9750613e2e60208a01613c2d565b965060408901356001600160401b0380821115613e49578586fd5b613e558c838d01613cb7565b909850965060608b0135915080821115613e6d578586fd5b613e798c838d01613cb7565b909650945060808b0135915080821115613e91578384fd5b50613e9e8b828c01613d59565b999c989b5096995094979396929594505050565b600080600080600060808688031215613ec9578081fd5b613ed286613c2d565b9450613ee060208701613c2d565b93506040860135925060608601356001600160401b03811115613f01578182fd5b613f0d88828901613d59565b969995985093965092949392505050565b60008060008060008060a08789031215613f36578182fd5b613f3f87613c2d565b9550613f4d60208801613c2d565b9450604087013593506060870135925060808701356001600160401b03811115613f75578283fd5b613f8189828a01613d59565b979a9699509497509295939492505050565b60008060408385031215613fa5578182fd5b613fae83613c2d565b946020939093013593505050565b600080600060608486031215613fd0578283fd5b613fd984613c2d565b95602085013595506040909401359392505050565b60008060408385031215614000578182fd5b82356001600160401b0380821115614016578384fd5b61402286838701613c44565b93506020850135915080821115614037578283fd5b5061404485828601613cff565b9150509250929050565b600080600060608486031215614062578081fd5b83356001600160401b0380821115614078578283fd5b61408487838801613c44565b94506020860135915080821115614099578283fd5b6140a587838801613cff565b935060408601359150808211156140ba578283fd5b506140c786828701613cff565b9150509250925092565b6000602082840312156140e2578081fd5b81356001600160401b038111156140f7578182fd5b61410384828501613cff565b949350505050565b60006020828403121561411c578081fd5b81518015158114613b43578182fd5b60006020828403121561413c578081fd5b5051919050565b600060208284031215614154578081fd5b81356001600160e01b031981168114613b43578182fd5b60006020828403121561417c578081fd5b5035919050565b60008060408385031215614195578182fd5b823591506141a560208401613c2d565b90509250929050565b6001600160a01b03169052565b6000815180845260208085019450808401835b8381101561424e578151805160048082106141f657634e487b7160e01b885260218152602488fd5b508852808401516001600160a01b03168489015260408082015161421c828b01826141ae565b5050606081810151908901526080808201519089015260a0908101519088015260c090960195908201906001016141ce565b509495945050505050565b6000815180845260208085019450808401835b8381101561424e57815161ffff168752958201959082019060010161426c565b6000815180845260208085019450808401835b8381101561424e5781518752958201959082019060010161429f565b60008151808452815b818110156142e0576020818501810151868301820152016142c4565b818111156142f15782602083870101525b50601f01601f19169290920160200192915050565b918252602082015260400190565b938452602084019290925260601b6001600160601b03191660408301526054820152650ca92dcc8caf60d31b6074820152607a0190565b938452602084019290925260601b6001600160601b03191660408301526054820152667765696768747360c81b6074820152607b0190565b938452602084019290925260601b6001600160601b0319166040830152605482015264189b1a5b9960da1b607482015260790190565b6001600160a01b0391909116815260200190565b6001600160a01b039384168152919092166020820152604081019190915260600190565b6001600160a01b03868116825285166020820152604081018490526060810183905260a06080820181905260009061442b908301846142bb565b979650505050505050565b6001600160a01b038416815260606020820181905260009061445a9083018561428c565b8281036040840152613bda818561428c565b6001600160a01b03929092168252602082015260400190565b600060018060a01b038616825284602083015283604083015260806060830152613bda60808301846142bb565b6000604082526144c560408301856141bb565b8281036020840152613b3f8185614259565b600060208252613b43602083018461428c565b6000606082526144fd606083018661428c565b828103602084015261450f81866141bb565b90508281036040840152613bda8185614259565b901515815260200190565b6001600160e01b031991909116815260200190565b90815260200190565b6020808252601f908201527f696e76616c69642072616e646f6d20636f6e7472616374206164647265737300604082015260600190565b60208082526029908201527f696e76616c6964207072697a6520706f6f6c20746f6b656e20636f6e7472616360408201526874206164647265737360b81b606082015260800190565b602080825260159082015274696e76616c696420746f6b656e206164647265737360581b604082015260600190565b60208082526026908201527f4f776e61626c653a206e6577206f776e657220697320746865207a65726f206160408201526564647265737360d01b606082015260800190565b6020808252600d908201526c696e76616c696420646174617360981b604082015260600190565b6020808252600a90820152691a5b9d985b1a59081a5960b21b604082015260600190565b6020808252601c908201527f696e76616c6964204e465420636f6e7472616374206164647265737300000000604082015260600190565b602080825260129082015271696e76616c6964206461746120617272617960701b604082015260600190565b60208082526019908201527f796f75206861766520616c726561647920726563656976656400000000000000604082015260600190565b602080825260129082015271696e76616c696420746f206164647265737360701b604082015260600190565b602080825260139082015272185b1c9958591e481a5b9a5d1a585b1a5e9959606a1b604082015260600190565b6020808252601390820152727175616e7469747920697320746f6f2062696760681b604082015260600190565b6020808252601190820152704e6f742079657420647261772074696d6560781b604082015260600190565b60208082526019908201527f546865206576656e74206973206e6f74206f7665722079657400000000000000604082015260600190565b60208082526027908201527f696e76616c696420626c6573732063617264204e465420636f6e7472616374206040820152666164647265737360c81b606082015260800190565b60208082526011908201527057726f6e6720696e64657820706172616d60781b604082015260600190565b602080825260129082015271195b99081d1a5b59481d1bdbc81cda1bdc9d60721b604082015260600190565b6020808252818101527f4f776e61626c653a2063616c6c6572206973206e6f7420746865206f776e6572604082015260600190565b6020808252601590820152741c5d585b9d1a5d1e481a5cc81d1bdbc81cdb585b1b605a1b604082015260600190565b6020808252600c908201526b07765696768747320697320360a41b604082015260600190565b60208082526018908201527f746f74616c416d6f756e7420697320746f6f20736d616c6c0000000000000000604082015260600190565b6020808252601f908201527f5265656e7472616e637947756172643a207265656e7472616e742063616c6c00604082015260600190565b6020808252600990820152681a185cc8195b99195960ba1b604082015260600190565b6040518181016001600160401b03811182821017156149e8576149e8614ad0565b604052919050565b60006001600160401b03821115614a0957614a09614ad0565b5060209081020190565b60008219821115614a2657614a26614aa4565b500190565b600082614a3a57614a3a614aba565b500490565b6000816000190483118215151615614a5957614a59614aa4565b500290565b600082821015614a7057614a70614aa4565b500390565b6000600019821415614a8957614a89614aa4565b5060010190565b600082614a9f57614a9f614aba565b500690565b634e487b7160e01b600052601160045260246000fd5b634e487b7160e01b600052601260045260246000fd5b634e487b7160e01b600052604160045260246000fdfece5825d66b093769cf76ee2d1360fb23bafc198cfcf066e4575796001447df10d833147d7dc355ba459fc788f669e58cfaf9dc25ddcd0702e87d69c7b5124289a2646970667358221220e9150492531f25c342f603c32d0fd35b76b50828f2b6aef26a2a492dd5d6503e64736f6c63430008000033",
  "immutableReferences": {},
  "source": "// SPDX-License-Identifier: MIT\npragma solidity ^0.8.0;\npragma experimental ABIEncoderV2;\n\nimport \"@openzeppelin/contracts/access/Ownable.sol\";\nimport \"@openzeppelin/contracts/token/ERC1155/presets/ERC1155PresetMinterPauser.sol\";\nimport \"@openzeppelin/contracts/token/ERC20/IERC20.sol\";\nimport \"@openzeppelin/contracts/token/ERC721/IERC721.sol\";\nimport \"@openzeppelin/contracts/token/ERC1155/IERC1155.sol\";\nimport \"@openzeppelin/contracts/security/ReentrancyGuard.sol\";\nimport \"@openzeppelin/contracts/token/ERC721/IERC721Receiver.sol\";\nimport \"@openzeppelin/contracts/token/ERC1155/IERC1155Receiver.sol\";\nimport \"./Random.sol\";\nimport \"./Utils.sol\";\n\ncontract CollectBless is Ownable, ReentrancyGuard, IERC721Receiver, IERC1155Receiver {\n    /**\n    Prize type\n     */\n    enum PrizeType {\n        NONE,\n        ERC20,\n        ERC721,\n        ERC1155\n    }\n\n    /**\n    @dev Blind box data structure\n     */\n    struct BlindBox {\n        // prize type\n        PrizeType prizeType;\n        // Prize contract address\n        address token;\n        // Creator\n        address creator;\n        // Number of prizes\n        uint256 amount;\n        uint256 nftId;\n        uint256 seedBlock;\n    }\n\n    /**\n    Random contract address\n     */\n    Random public random;\n\n    /**\n    Bless card contract address\n     */\n    ERC1155PresetMinterPauser public blessCard;\n\n    /**\n    Prize pool token (USDT)\n     */\n    IERC20 public prizePoolToken;\n\n    /**\n    Rare card price\n     */\n    uint256 public rareCardPrice = 0.2 ether;\n\n    /**\n    Blind box price\n     */\n    uint256 public blindBoxPrice = 1 ether;\n\n    /**\n    Event end time\n     */\n    uint256 public eventEndTime;\n\n    /**\n    The number of rare cards\n     */\n    uint256 public rareCardCount;\n\n    uint256 public blindBoxCount;\n    // Blind box id mapping\n    // blindBox id => blindBox type id\n    mapping(uint256 => uint256) private blindBoxTypes;\n    // blind box id => weights\n    mapping(uint256 => uint16) private blindBoxsWeights;\n\n    uint256 private blindBoxTypeId;\n\n    // Blind box type id => BlindBox\n    mapping(uint256 => BlindBox) private _blindBoxs;\n\n    /**\n    Total Prize Pool Amount\n     */\n    uint256 public prizePoolAmount;\n\n    /**\n    user address => count\n     */\n    mapping(address => uint256) public mintBoxCounts;\n\n    /**\n    uaer address => count\n     */\n    mapping(address => uint256) public openBoxCounts;\n\n    // user address => blind box ids\n    mapping(address => uint256[]) userOpenBoxs;\n    // user address => total weights\n    mapping(address => uint256) public userWeights;\n\n    uint256 public rareCradId = 5;\n\n    // weight configuration\n    uint256[] private weightsConfig;\n    uint16[5] private weightsValue = [uint16(1), 2, 3, 5, 10];\n\n    // blind box pool, blind box id array\n    uint256[] private blindBoxPool;\n\n    // all user total weights\n    uint256 public totalWeights = 0;\n\n    // Bonuses already claimed by the user\n    mapping(address => uint256) public alreadyReceived;\n\n    bytes32 private randomFactor;\n\n    // whitelist nft start id\n    uint256 public whitelistIdCount = 99;\n\n    // mint user => id\n    mapping(address => uint256) public whitelistId;\n\n    event MintBox(address indexed creator, uint256[] ids);\n    event OpenBox(address indexed user, uint256[] ids);\n\n    function init(\n        address blessCardAddr,\n        address tokenAddr,\n        address randomAddr,\n        uint256 endTime\n    ) public onlyOwner {\n        require(address(blessCard) == address(0), \"already initialized\");\n        require(blessCardAddr != address(0), \"invalid bless card NFT contract address\");\n        require(randomAddr != address(0), \"invalid random contract address\");\n        require(tokenAddr != address(0), \"invalid prize pool token contract address\");\n        require(endTime > block.timestamp, \"end time too short\");\n        blessCard = ERC1155PresetMinterPauser(blessCardAddr);\n        random = Random(randomAddr);\n        eventEndTime = endTime;\n        prizePoolToken = IERC20(tokenAddr);\n\n        weightsConfig.push(50);\n        weightsConfig.push(20);\n        weightsConfig.push(15);\n        weightsConfig.push(10);\n        weightsConfig.push(5);\n\n        _blindBoxs[blindBoxTypeId].prizeType = PrizeType.NONE;\n        _blindBoxs[blindBoxTypeId].token = address(0);\n        _blindBoxs[blindBoxTypeId].creator = address(0);\n        _blindBoxs[blindBoxTypeId].amount = 0;\n        _blindBoxs[blindBoxTypeId].nftId = 0;\n        _blindBoxs[blindBoxTypeId].seedBlock = 0;\n\n        bytes32 seed = random.getRandom(0);\n        randomFactor = keccak256(abi.encodePacked(randomFactor, seed));\n    }\n\n    /**\n    Set rare card price\n     */\n    function setRareCardPrice(uint256 price) public onlyOwner {\n        rareCardPrice = price;\n    }\n\n    /**\n    Set blind box price\n     */\n    function setBlindBoxPrice(uint256 price) public onlyOwner {\n        blindBoxPrice = price;\n    }\n\n    function setEventEndTime(uint256 newTime) public onlyOwner {\n        eventEndTime = newTime;\n    }\n\n    function getUserOpenBoxs(address user) public view returns (uint256[] memory) {\n        return userOpenBoxs[user];\n    }\n\n    /**\n    Create a token blind box\n     */\n    function mintBox(\n        address token,\n        uint256 quantity,\n        uint256 totalAmount\n    ) public {\n        require(eventEndTime > block.timestamp, \"has ended\");\n        require(token != address(0), \"invalid token address\");\n        require(quantity > 0, \"quantity is too small\");\n\n        uint256 amount = totalAmount / quantity;\n        require(amount > 1, \"totalAmount is too small\");\n\n        // get box token\n        IERC20(token).transferFrom(msg.sender, address(this), amount * quantity);\n\n        // get prize pool token\n        uint256 fee = blindBoxPrice * quantity;\n        prizePoolToken.transferFrom(msg.sender, address(this), fee);\n\n        prizePoolAmount += fee;\n        mintBoxCounts[msg.sender] += quantity;\n\n        uint256[] memory ids = new uint256[](quantity);\n        blindBoxTypeId += 1;\n        BlindBox storage bb = _blindBoxs[blindBoxTypeId];\n        bb.prizeType = PrizeType.ERC20;\n        bb.creator = msg.sender;\n        bb.token = token;\n        bb.seedBlock = block.number + 1;\n        bb.amount = amount;\n\n        for (uint256 i = 0; i < quantity; i++) {\n            blindBoxCount += 1;\n            blindBoxTypes[blindBoxCount] = blindBoxTypeId;\n            ids[i] = blindBoxCount;\n            blindBoxPool.push(blindBoxCount);\n        }\n        emit MintBox(msg.sender, ids);\n    }\n\n    /**\n    Create a ERC721 NFT blind box\n     */\n    function mintBoxNFT721(address addr, uint256 nftId) public {\n        require(eventEndTime > block.timestamp, \"has ended\");\n        require(addr != address(0), \"invalid NFT contract address\");\n\n        prizePoolToken.transferFrom(msg.sender, address(this), blindBoxPrice);\n\n        IERC721(addr).safeTransferFrom(msg.sender, address(this), nftId);\n\n        prizePoolAmount += blindBoxPrice;\n        mintBoxCounts[msg.sender] += 1;\n\n        blindBoxCount += 1;\n        blindBoxTypeId += 1;\n        BlindBox storage bb = _blindBoxs[blindBoxTypeId];\n        bb.prizeType = PrizeType.ERC721;\n        bb.creator = msg.sender;\n        bb.token = addr;\n        bb.seedBlock = block.number + 1;\n        bb.nftId = nftId;\n\n        blindBoxTypes[blindBoxCount] = blindBoxTypeId;\n\n        blindBoxPool.push(blindBoxCount);\n\n        uint256[] memory ids = new uint256[](1);\n        ids[0] = blindBoxCount;\n        emit MintBox(msg.sender, ids);\n    }\n\n    /**\n    Create ERC1155 NFT blind box\n     */\n    function mintBoxNFT1155(\n        address addr,\n        uint256 nftId,\n        uint256 quantity\n    ) public {\n        require(eventEndTime > block.timestamp, \"has ended\");\n        require(addr != address(0), \"invalid NFT contract address\");\n        require(quantity >= 1, \"quantity is too small\");\n\n        bytes memory data = new bytes(1);\n        IERC1155(addr).safeTransferFrom(msg.sender, address(this), nftId, quantity, data);\n\n        uint256 fee = blindBoxPrice * quantity;\n        prizePoolToken.transferFrom(msg.sender, address(this), fee);\n\n        prizePoolAmount += fee;\n        mintBoxCounts[msg.sender] += quantity;\n\n        blindBoxTypeId += 1;\n        BlindBox storage bb = _blindBoxs[blindBoxTypeId];\n        bb.prizeType = PrizeType.ERC1155;\n        bb.creator = msg.sender;\n        bb.token = addr;\n        bb.seedBlock = block.number + 1;\n        bb.amount = 1;\n        bb.nftId = nftId;\n\n        uint256[] memory ids = new uint256[](quantity);\n        for (uint256 i = 0; i < quantity; i++) {\n            blindBoxCount += 1;\n            ids[i] = blindBoxCount;\n            blindBoxTypes[blindBoxCount] = blindBoxTypeId;\n            blindBoxPool.push(blindBoxCount);\n        }\n\n        emit MintBox(msg.sender, ids);\n    }\n\n    function mintWhitelistNFT(uint256 quantity) public {\n        require(quantity >= 1, \"quantity is too small\");\n\n        uint256 fee = blindBoxPrice * quantity;\n        prizePoolToken.transferFrom(msg.sender, address(this), fee);\n\n        prizePoolAmount += fee;\n        mintBoxCounts[msg.sender] += quantity;\n\n        uint256 nftId = whitelistId[msg.sender];\n        if (nftId == 0) {\n            whitelistIdCount += 1;\n            nftId = whitelistIdCount;\n            whitelistId[msg.sender] = nftId;\n        }\n\n        uint256[] memory ids = new uint256[](quantity);\n        blindBoxTypeId += 1;\n        BlindBox storage bb = _blindBoxs[blindBoxTypeId];\n        bb.prizeType = PrizeType.ERC1155;\n        bb.creator = msg.sender;\n        bb.token = address(blessCard);\n        bb.seedBlock = block.number + 1;\n        bb.amount = 1;\n        bb.nftId = nftId;\n\n        for (uint256 i = 0; i < quantity; i++) {\n            blindBoxCount += 1;\n            blindBoxTypes[blindBoxCount] = blindBoxTypeId;\n            ids[i] = blindBoxCount;\n            blindBoxPool.push(blindBoxCount);\n        }\n\n        bytes memory data = new bytes(1);\n        blessCard.mint(address(this), nftId, quantity, data);\n\n        emit MintBox(msg.sender, ids);\n    }\n\n    /**\n    Mint Rare Cards\n     */\n    function mintRareCard(uint256 quantity, address to) public {\n        require(eventEndTime > block.timestamp, \"has ended\");\n        require(quantity > 0, \"quantity is too small\");\n\n        uint256 fee = rareCardPrice * quantity;\n        prizePoolToken.transferFrom(msg.sender, address(this), fee);\n\n        bytes memory data = new bytes(1);\n        blessCard.mint(to, rareCradId, quantity, data);\n\n        prizePoolAmount += fee;\n        rareCardCount += quantity;\n    }\n\n    function mintRareCardBatch(address[] memory tos, uint256[] memory quantities) public nonReentrant {\n        require(eventEndTime > block.timestamp, \"has ended\");\n        require(tos.length == quantities.length, \"invalid datas\");\n\n        uint256 fee;\n        bytes memory data = new bytes(1);\n        for (uint256 i = 0; i < tos.length; i++) {\n            fee += rareCardPrice * quantities[i];\n            blessCard.mint(tos[i], rareCradId, quantities[i], data);\n            rareCardCount += quantities[i];\n        }\n        prizePoolToken.transferFrom(msg.sender, address(this), fee);\n        prizePoolAmount += fee;\n    }\n\n    /**\n    Mint normal card\n     */\n    function mintCard(\n        address[] memory tos,\n        uint256[] memory ids,\n        uint256[] memory quantities\n    ) public onlyOwner {\n        require(eventEndTime > block.timestamp, \"has ended\");\n        require(tos.length > 0, \"invalid to address\");\n        require(tos.length == ids.length, \"invalid data array\");\n        require(tos.length == quantities.length, \"invalid data array\");\n\n        bytes memory data = new bytes(1);\n        for (uint256 i = 0; i < tos.length; i++) {\n            require(quantities[i] > 0, \"quantity is too small\");\n            require(ids[i] >= 1 && ids[i] <= 4, \"invalid id\");\n            blessCard.mint(tos[i], ids[i], quantities[i], data);\n        }\n    }\n\n    /**\n    Consume the card and open the blind box\n     */\n    function openBox(uint256 quantity) public {\n        require(eventEndTime > block.timestamp, \"has ended\");\n        require(quantity > 0, \"quantity is too small\");\n        require(quantity <= 10, \"quantity is too big\");\n\n        uint256[] memory ids = new uint256[](5);\n        ids[0] = 1;\n        ids[1] = 2;\n        ids[2] = 3;\n        ids[3] = 4;\n        ids[4] = rareCradId;\n        uint256[] memory amounts = new uint256[](5);\n        amounts[0] = quantity;\n        amounts[1] = quantity;\n        amounts[2] = quantity;\n        amounts[3] = quantity;\n        amounts[4] = quantity;\n\n        blessCard.burnBatch(msg.sender, ids, amounts);\n        rareCardCount -= quantity;\n\n        uint256[] memory outIds = new uint256[](quantity);\n        bytes32 seed = random.getRandom(0);\n        randomFactor = keccak256(abi.encodePacked(randomFactor, seed));\n        for (uint256 i = 0; i < quantity; i++) {\n            outIds[i] = _openBox(msg.sender, i, seed);\n        }\n\n        emit OpenBox(msg.sender, outIds);\n    }\n\n    function _openBox(\n        address to,\n        uint256 idx,\n        bytes32 seed\n    ) private nonReentrant returns (uint256) {\n        bool isBlind = true;\n        uint256 wIdx = 0;\n        if (blindBoxPool.length < 1) {\n            isBlind = false;\n        } else if (blindBoxPool.length >= rareCardCount) {} else {\n            uint256 w = Utils.randomUint(abi.encodePacked(seed, randomFactor, to, idx, \"blind\"), 1, 100);\n            if (w > 70) {\n                isBlind = false;\n            }\n        }\n\n        if (isBlind) {\n            uint256 index = Utils.randomUint(abi.encodePacked(seed, randomFactor, to, idx, \"eIndex\"), 0, blindBoxPool.length - 1);\n            uint256 boxId = blindBoxPool[index];\n            BlindBox storage bb = _blindBoxs[blindBoxTypes[boxId]];\n\n            if (bb.prizeType == PrizeType.ERC20) {\n                IERC20(bb.token).transfer(to, bb.amount);\n            } else if (bb.prizeType == PrizeType.ERC721) {\n                IERC721(bb.token).safeTransferFrom(address(this), to, bb.nftId);\n            } else if (bb.prizeType == PrizeType.ERC1155) {\n                bytes memory data = new bytes(1);\n                IERC1155(bb.token).safeTransferFrom(address(this), to, bb.nftId, bb.amount, data);\n            }\n\n            seed = random.getRandom(bb.seedBlock);\n            wIdx = Utils.randomWeight(abi.encodePacked(seed, randomFactor, to, idx, \"weights\"), weightsConfig, 100);\n            uint16 weights = weightsValue[wIdx];\n            blindBoxsWeights[boxId] = weights;\n\n            // del from pool\n            blindBoxPool[index] = blindBoxPool[blindBoxPool.length - 1];\n            blindBoxPool.pop();\n\n            openBoxCounts[bb.creator] += 1;\n            userOpenBoxs[to].push(boxId);\n            userWeights[to] += weights;\n            totalWeights += weights;\n\n            return boxId;\n        } else {\n            blindBoxCount += 1;\n            blindBoxTypes[blindBoxCount] = 0;\n            wIdx = Utils.randomWeight(abi.encodePacked(seed, randomFactor, to, idx, \"weights\"), weightsConfig, 100);\n            uint16 weights = weightsValue[wIdx];\n            blindBoxsWeights[blindBoxCount] = weights;\n\n            userOpenBoxs[to].push(blindBoxCount);\n            userWeights[to] += weights;\n            totalWeights += weights;\n\n            return blindBoxCount;\n        }\n    }\n\n    /**\n    Receive the total prize according to the weight obtained\n     */\n    function cashPrize() public {\n        require(eventEndTime < block.timestamp, \"Not yet draw time\");\n        require(totalWeights > 0, \"weights is 0\");\n        require(alreadyReceived[msg.sender] == 0, \"you have already received\");\n\n        uint256 value = (prizePoolAmount * userWeights[msg.sender]) / totalWeights;\n        if (value > 0) {\n            alreadyReceived[msg.sender] = value;\n            prizePoolToken.transfer(msg.sender, value);\n        }\n    }\n\n    /**\n    Claim an unopened blind box\n     */\n    function claimBlindBox(uint256 _limit) public {\n        require(eventEndTime < block.timestamp, \"The event is not over yet\");\n\n        uint256 limit = 300;\n        if (_limit != 0) {\n            limit = _limit;\n        }\n\n        if (mintBoxCounts[msg.sender] - openBoxCounts[msg.sender] > 0) {\n            uint256 j = 0;\n            bytes memory data = new bytes(1);\n            for (uint256 i = 0; j < limit && i < blindBoxPool.length; j++) {\n                BlindBox storage bb = _blindBoxs[blindBoxTypes[blindBoxPool[i]]];\n                if (bb.creator == msg.sender) {\n                    openBoxCounts[bb.creator] += 1;\n                    blindBoxPool[i] = blindBoxPool[blindBoxPool.length - 1];\n                    blindBoxPool.pop();\n\n                    if (bb.prizeType == PrizeType.ERC20) {\n                        IERC20(bb.token).transfer(bb.creator, bb.amount);\n                    } else if (bb.prizeType == PrizeType.ERC721) {\n                        IERC721(bb.token).safeTransferFrom(address(this), bb.creator, bb.nftId);\n                    } else if (bb.prizeType == PrizeType.ERC1155) {\n                        IERC1155(bb.token).safeTransferFrom(address(this), bb.creator, bb.nftId, bb.amount, data);\n                    }\n                } else {\n                    i++;\n                }\n            }\n        }\n    }\n\n    function claimBlindBox2(uint256 _limit) public {\n        require(eventEndTime < block.timestamp, \"The event is not over yet\");\n\n        if (blindBoxPool.length == 0) return;\n\n        uint256 limit = 300;\n        if (_limit != 0) {\n            limit = _limit;\n        }\n\n        uint256 j = 0;\n        bytes memory data = new bytes(1);\n        for (uint256 i = blindBoxPool.length - 1; j < limit; j++) {\n            BlindBox storage bb = _blindBoxs[blindBoxTypes[blindBoxPool[i]]];\n            openBoxCounts[bb.creator] += 1;\n            blindBoxPool.pop();\n\n            if (bb.prizeType == PrizeType.ERC20) {\n                IERC20(bb.token).transfer(bb.creator, bb.amount);\n            } else if (bb.prizeType == PrizeType.ERC721) {\n                IERC721(bb.token).safeTransferFrom(address(this), bb.creator, bb.nftId);\n            } else if (bb.prizeType == PrizeType.ERC1155) {\n                IERC1155(bb.token).safeTransferFrom(address(this), bb.creator, bb.nftId, bb.amount, data);\n            }\n\n            if (blindBoxPool.length == 0) break;\n            i = blindBoxPool.length - 1;\n        }\n    }\n\n    function getUserOpendBox(\n        address user,\n        uint256 startIndex,\n        uint256 lastIndex\n    ) public view returns (uint256[] memory boxIds, BlindBox[] memory boxes, uint16[] memory weights) {\n        require(startIndex < lastIndex, \"Wrong index param\");\n        uint256[] memory ids = userOpenBoxs[user];\n        if (ids.length == 0) {\n            return (boxIds, boxes, weights);\n        }\n        uint256 len = ids.length;\n        if (len <= startIndex) {\n            return (boxIds, boxes, weights);\n        }\n        if (len <= lastIndex) {\n            lastIndex = len;\n        }\n        boxes = new BlindBox[](lastIndex - startIndex);\n        weights = new uint16[](lastIndex - startIndex);\n        boxIds = new uint256[](lastIndex - startIndex);\n        uint256 i = 0;\n        for (uint256 j = startIndex; j < lastIndex; j++) {\n            boxes[i] = _blindBoxs[blindBoxTypes[ids[j]]];\n            weights[i] = blindBoxsWeights[ids[j]];\n            boxIds[i] = ids[j];\n            i++;\n        }\n        return (boxIds, boxes, weights);\n    }\n\n    function getBoxsByIds(uint256[] memory ids) public view returns (BlindBox[] memory boxes, uint16[] memory weights) {\n        if (ids.length == 0) {\n            return (boxes, weights);\n        }\n        boxes = new BlindBox[](ids.length);\n        weights = new uint16[](ids.length);\n        for (uint256 i = 0; i < ids.length; i++) {\n            boxes[i] = _blindBoxs[blindBoxTypes[ids[i]]];\n            weights[i] = blindBoxsWeights[ids[i]];\n        }\n        return (boxes, weights);\n    }\n\n    function onERC721Received(\n        address,\n        address,\n        uint256,\n        bytes calldata\n    ) public pure override returns (bytes4) {\n        return IERC721Receiver.onERC721Received.selector;\n    }\n\n    function onERC1155Received(\n        address,\n        address,\n        uint256,\n        uint256,\n        bytes calldata\n    ) public pure override returns (bytes4) {\n        return IERC1155Receiver.onERC1155Received.selector;\n    }\n\n    function onERC1155BatchReceived(\n        address,\n        address,\n        uint256[] calldata,\n        uint256[] calldata,\n        bytes calldata\n    ) public pure override returns (bytes4) {\n        return 0;\n    }\n\n    function supportsInterface(bytes4 interfaceId) public pure override returns (bool) {\n        return interfaceId == type(IERC721Receiver).interfaceId || interfaceId == type(IERC1155Receiver).interfaceId;\n    }\n}\n",
  "sourcePath": "/Users/necklace/work/nutbox/nutbox-contract/contracts/CollectBless.sol",
  "compiler": {
    "name": "solc",
    "version": "0.8.0+commit.c7dfd78e.Emscripten.clang"
  },
  "schemaVersion": "3.4.6",
  "updatedAt": "2023-01-12T06:16:10.658Z",
  "networkType": "ethereum",
  "devdoc": {
    "kind": "dev",
    "methods": {
      "owner()": {
        "details": "Returns the address of the current owner."
      },
      "renounceOwnership()": {
        "details": "Leaves the contract without owner. It will not be possible to call `onlyOwner` functions anymore. Can only be called by the current owner. NOTE: Renouncing ownership will leave the contract without an owner, thereby removing any functionality that is only available to the owner."
      },
      "supportsInterface(bytes4)": {
        "details": "Returns true if this contract implements the interface defined by `interfaceId`. See the corresponding https://eips.ethereum.org/EIPS/eip-165#how-interfaces-are-identified[EIP section] to learn more about how these ids are created. This function call must use less than 30 000 gas."
      },
      "transferOwnership(address)": {
        "details": "Transfers ownership of the contract to a new account (`newOwner`). Can only be called by the current owner."
      }
    },
    "version": 1
  },
  "userdoc": {
    "kind": "user",
    "methods": {
      "blessCard()": {
        "notice": "Bless card contract address"
      },
      "blindBoxPrice()": {
        "notice": "Blind box price"
      },
      "cashPrize()": {
        "notice": "Receive the total prize according to the weight obtained"
      },
      "claimBlindBox(uint256)": {
        "notice": "Claim an unopened blind box"
      },
      "eventEndTime()": {
        "notice": "Event end time"
      },
      "mintBox(address,uint256,uint256)": {
        "notice": "Create a token blind box"
      },
      "mintBoxCounts(address)": {
        "notice": "user address => count"
      },
      "mintBoxNFT1155(address,uint256,uint256)": {
        "notice": "Create ERC1155 NFT blind box"
      },
      "mintBoxNFT721(address,uint256)": {
        "notice": "Create a ERC721 NFT blind box"
      },
      "mintCard(address[],uint256[],uint256[])": {
        "notice": "Mint normal card"
      },
      "mintRareCard(uint256,address)": {
        "notice": "Mint Rare Cards"
      },
      "openBox(uint256)": {
        "notice": "Consume the card and open the blind box"
      },
      "openBoxCounts(address)": {
        "notice": "uaer address => count"
      },
      "prizePoolAmount()": {
        "notice": "Total Prize Pool Amount"
      },
      "prizePoolToken()": {
        "notice": "Prize pool token (USDT)"
      },
      "random()": {
        "notice": "Random contract address"
      },
      "rareCardCount()": {
        "notice": "The number of rare cards"
      },
      "rareCardPrice()": {
        "notice": "Rare card price"
      },
      "setBlindBoxPrice(uint256)": {
        "notice": "Set blind box price"
      },
      "setRareCardPrice(uint256)": {
        "notice": "Set rare card price"
      }
    },
    "version": 1
  }
}