{
  "contractName": "CollectBless",
  "abi": [
    {
      "anonymous": false,
      "inputs": [
        {
          "indexed": true,
          "internalType": "address",
          "name": "creator",
          "type": "address"
        },
        {
          "indexed": false,
          "internalType": "uint256[]",
          "name": "ids",
          "type": "uint256[]"
        }
      ],
      "name": "MintBox",
      "type": "event"
    },
    {
      "anonymous": false,
      "inputs": [
        {
          "indexed": true,
          "internalType": "address",
          "name": "user",
          "type": "address"
        },
        {
          "indexed": false,
          "internalType": "uint256[]",
          "name": "ids",
          "type": "uint256[]"
        }
      ],
      "name": "OpenBox",
      "type": "event"
    },
    {
      "anonymous": false,
      "inputs": [
        {
          "indexed": true,
          "internalType": "address",
          "name": "previousOwner",
          "type": "address"
        },
        {
          "indexed": true,
          "internalType": "address",
          "name": "newOwner",
          "type": "address"
        }
      ],
      "name": "OwnershipTransferred",
      "type": "event"
    },
    {
      "inputs": [
        {
          "internalType": "address",
          "name": "",
          "type": "address"
        }
      ],
      "name": "alreadyReceived",
      "outputs": [
        {
          "internalType": "uint256",
          "name": "",
          "type": "uint256"
        }
      ],
      "stateMutability": "view",
      "type": "function",
      "constant": true
    },
    {
      "inputs": [],
      "name": "blessCard",
      "outputs": [
        {
          "internalType": "contract ERC1155PresetMinterPauser",
          "name": "",
          "type": "address"
        }
      ],
      "stateMutability": "view",
      "type": "function",
      "constant": true
    },
    {
      "inputs": [],
      "name": "blindBoxCount",
      "outputs": [
        {
          "internalType": "uint256",
          "name": "",
          "type": "uint256"
        }
      ],
      "stateMutability": "view",
      "type": "function",
      "constant": true
    },
    {
      "inputs": [],
      "name": "blindBoxPrice",
      "outputs": [
        {
          "internalType": "uint256",
          "name": "",
          "type": "uint256"
        }
      ],
      "stateMutability": "view",
      "type": "function",
      "constant": true
    },
    {
      "inputs": [],
      "name": "claimedAmount",
      "outputs": [
        {
          "internalType": "uint256",
          "name": "",
          "type": "uint256"
        }
      ],
      "stateMutability": "view",
      "type": "function",
      "constant": true
    },
    {
      "inputs": [],
      "name": "eventEndTime",
      "outputs": [
        {
          "internalType": "uint256",
          "name": "",
          "type": "uint256"
        }
      ],
      "stateMutability": "view",
      "type": "function",
      "constant": true
    },
    {
      "inputs": [
        {
          "internalType": "address",
          "name": "",
          "type": "address"
        }
      ],
      "name": "mintBoxCounts",
      "outputs": [
        {
          "internalType": "uint256",
          "name": "",
          "type": "uint256"
        }
      ],
      "stateMutability": "view",
      "type": "function",
      "constant": true
    },
    {
      "inputs": [
        {
          "internalType": "address",
          "name": "",
          "type": "address"
        }
      ],
      "name": "openBoxCounts",
      "outputs": [
        {
          "internalType": "uint256",
          "name": "",
          "type": "uint256"
        }
      ],
      "stateMutability": "view",
      "type": "function",
      "constant": true
    },
    {
      "inputs": [],
      "name": "owner",
      "outputs": [
        {
          "internalType": "address",
          "name": "",
          "type": "address"
        }
      ],
      "stateMutability": "view",
      "type": "function",
      "constant": true
    },
    {
      "inputs": [],
      "name": "prizePoolAmount",
      "outputs": [
        {
          "internalType": "uint256",
          "name": "",
          "type": "uint256"
        }
      ],
      "stateMutability": "view",
      "type": "function",
      "constant": true
    },
    {
      "inputs": [],
      "name": "prizePoolToken",
      "outputs": [
        {
          "internalType": "contract IERC20",
          "name": "",
          "type": "address"
        }
      ],
      "stateMutability": "view",
      "type": "function",
      "constant": true
    },
    {
      "inputs": [],
      "name": "random",
      "outputs": [
        {
          "internalType": "contract Random",
          "name": "",
          "type": "address"
        }
      ],
      "stateMutability": "view",
      "type": "function",
      "constant": true
    },
    {
      "inputs": [],
      "name": "rareCardCount",
      "outputs": [
        {
          "internalType": "uint256",
          "name": "",
          "type": "uint256"
        }
      ],
      "stateMutability": "view",
      "type": "function",
      "constant": true
    },
    {
      "inputs": [],
      "name": "rareCardPrice",
      "outputs": [
        {
          "internalType": "uint256",
          "name": "",
          "type": "uint256"
        }
      ],
      "stateMutability": "view",
      "type": "function",
      "constant": true
    },
    {
      "inputs": [],
      "name": "rareCradId",
      "outputs": [
        {
          "internalType": "uint256",
          "name": "",
          "type": "uint256"
        }
      ],
      "stateMutability": "view",
      "type": "function",
      "constant": true
    },
    {
      "inputs": [],
      "name": "renounceOwnership",
      "outputs": [],
      "stateMutability": "nonpayable",
      "type": "function"
    },
    {
      "inputs": [],
      "name": "totalWeights",
      "outputs": [
        {
          "internalType": "uint256",
          "name": "",
          "type": "uint256"
        }
      ],
      "stateMutability": "view",
      "type": "function",
      "constant": true
    },
    {
      "inputs": [
        {
          "internalType": "address",
          "name": "newOwner",
          "type": "address"
        }
      ],
      "name": "transferOwnership",
      "outputs": [],
      "stateMutability": "nonpayable",
      "type": "function"
    },
    {
      "inputs": [
        {
          "internalType": "address",
          "name": "",
          "type": "address"
        }
      ],
      "name": "userWeights",
      "outputs": [
        {
          "internalType": "uint256",
          "name": "",
          "type": "uint256"
        }
      ],
      "stateMutability": "view",
      "type": "function",
      "constant": true
    },
    {
      "inputs": [
        {
          "internalType": "address",
          "name": "",
          "type": "address"
        }
      ],
      "name": "whitelistId",
      "outputs": [
        {
          "internalType": "uint256",
          "name": "",
          "type": "uint256"
        }
      ],
      "stateMutability": "view",
      "type": "function",
      "constant": true
    },
    {
      "inputs": [],
      "name": "whitelistIdCount",
      "outputs": [
        {
          "internalType": "uint256",
          "name": "",
          "type": "uint256"
        }
      ],
      "stateMutability": "view",
      "type": "function",
      "constant": true
    },
    {
      "inputs": [
        {
          "internalType": "address",
          "name": "blessCardAddr",
          "type": "address"
        },
        {
          "internalType": "address",
          "name": "tokenAddr",
          "type": "address"
        },
        {
          "internalType": "address",
          "name": "randomAddr",
          "type": "address"
        },
        {
          "internalType": "uint256",
          "name": "endTime",
          "type": "uint256"
        }
      ],
      "name": "init",
      "outputs": [],
      "stateMutability": "nonpayable",
      "type": "function"
    },
    {
      "inputs": [
        {
          "internalType": "uint256",
          "name": "price",
          "type": "uint256"
        }
      ],
      "name": "setRareCardPrice",
      "outputs": [],
      "stateMutability": "nonpayable",
      "type": "function"
    },
    {
      "inputs": [
        {
          "internalType": "uint256",
          "name": "price",
          "type": "uint256"
        }
      ],
      "name": "setBlindBoxPrice",
      "outputs": [],
      "stateMutability": "nonpayable",
      "type": "function"
    },
    {
      "inputs": [
        {
          "internalType": "uint256",
          "name": "newTime",
          "type": "uint256"
        }
      ],
      "name": "setEventEndTime",
      "outputs": [],
      "stateMutability": "nonpayable",
      "type": "function"
    },
    {
      "inputs": [
        {
          "internalType": "address",
          "name": "user",
          "type": "address"
        }
      ],
      "name": "getUserOpenBoxs",
      "outputs": [
        {
          "internalType": "uint256[]",
          "name": "",
          "type": "uint256[]"
        }
      ],
      "stateMutability": "view",
      "type": "function",
      "constant": true
    },
    {
      "inputs": [
        {
          "internalType": "address",
          "name": "token",
          "type": "address"
        },
        {
          "internalType": "uint256",
          "name": "quantity",
          "type": "uint256"
        },
        {
          "internalType": "uint256",
          "name": "totalAmount",
          "type": "uint256"
        }
      ],
      "name": "mintBox",
      "outputs": [],
      "stateMutability": "nonpayable",
      "type": "function"
    },
    {
      "inputs": [
        {
          "internalType": "address",
          "name": "addr",
          "type": "address"
        },
        {
          "internalType": "uint256",
          "name": "nftId",
          "type": "uint256"
        }
      ],
      "name": "mintBoxNFT721",
      "outputs": [],
      "stateMutability": "nonpayable",
      "type": "function"
    },
    {
      "inputs": [
        {
          "internalType": "address",
          "name": "addr",
          "type": "address"
        },
        {
          "internalType": "uint256",
          "name": "nftId",
          "type": "uint256"
        },
        {
          "internalType": "uint256",
          "name": "quantity",
          "type": "uint256"
        }
      ],
      "name": "mintBoxNFT1155",
      "outputs": [],
      "stateMutability": "nonpayable",
      "type": "function"
    },
    {
      "inputs": [
        {
          "internalType": "uint256",
          "name": "quantity",
          "type": "uint256"
        }
      ],
      "name": "mintWhitelistNFT",
      "outputs": [],
      "stateMutability": "nonpayable",
      "type": "function"
    },
    {
      "inputs": [
        {
          "internalType": "uint256",
          "name": "quantity",
          "type": "uint256"
        },
        {
          "internalType": "address",
          "name": "to",
          "type": "address"
        }
      ],
      "name": "mintRareCard",
      "outputs": [],
      "stateMutability": "nonpayable",
      "type": "function"
    },
    {
      "inputs": [
        {
          "internalType": "address[]",
          "name": "tos",
          "type": "address[]"
        },
        {
          "internalType": "uint256[]",
          "name": "quantities",
          "type": "uint256[]"
        }
      ],
      "name": "mintRareCardBatch",
      "outputs": [],
      "stateMutability": "nonpayable",
      "type": "function"
    },
    {
      "inputs": [
        {
          "internalType": "address[]",
          "name": "tos",
          "type": "address[]"
        },
        {
          "internalType": "uint256[]",
          "name": "ids",
          "type": "uint256[]"
        },
        {
          "internalType": "uint256[]",
          "name": "quantities",
          "type": "uint256[]"
        }
      ],
      "name": "mintCard",
      "outputs": [],
      "stateMutability": "nonpayable",
      "type": "function"
    },
    {
      "inputs": [
        {
          "internalType": "uint256",
          "name": "quantity",
          "type": "uint256"
        }
      ],
      "name": "openBox",
      "outputs": [],
      "stateMutability": "nonpayable",
      "type": "function"
    },
    {
      "inputs": [],
      "name": "cashPrize",
      "outputs": [],
      "stateMutability": "nonpayable",
      "type": "function"
    },
    {
      "inputs": [
        {
          "internalType": "uint256",
          "name": "_limit",
          "type": "uint256"
        }
      ],
      "name": "claimBlindBox",
      "outputs": [],
      "stateMutability": "nonpayable",
      "type": "function"
    },
    {
      "inputs": [
        {
          "internalType": "uint256",
          "name": "_limit",
          "type": "uint256"
        }
      ],
      "name": "claimBlindBox2",
      "outputs": [],
      "stateMutability": "nonpayable",
      "type": "function"
    },
    {
      "inputs": [
        {
          "internalType": "address",
          "name": "user",
          "type": "address"
        },
        {
          "internalType": "uint256",
          "name": "startIndex",
          "type": "uint256"
        },
        {
          "internalType": "uint256",
          "name": "lastIndex",
          "type": "uint256"
        }
      ],
      "name": "getUserOpendBox",
      "outputs": [
        {
          "internalType": "uint256[]",
          "name": "boxIds",
          "type": "uint256[]"
        },
        {
          "components": [
            {
              "internalType": "enum CollectBless.PrizeType",
              "name": "prizeType",
              "type": "uint8"
            },
            {
              "internalType": "address",
              "name": "token",
              "type": "address"
            },
            {
              "internalType": "address",
              "name": "creator",
              "type": "address"
            },
            {
              "internalType": "uint256",
              "name": "amount",
              "type": "uint256"
            },
            {
              "internalType": "uint256",
              "name": "nftId",
              "type": "uint256"
            },
            {
              "internalType": "uint256",
              "name": "seedBlock",
              "type": "uint256"
            }
          ],
          "internalType": "struct CollectBless.BlindBox[]",
          "name": "boxes",
          "type": "tuple[]"
        },
        {
          "internalType": "uint16[]",
          "name": "weights",
          "type": "uint16[]"
        }
      ],
      "stateMutability": "view",
      "type": "function",
      "constant": true
    },
    {
      "inputs": [
        {
          "internalType": "uint256[]",
          "name": "ids",
          "type": "uint256[]"
        }
      ],
      "name": "getBoxsByIds",
      "outputs": [
        {
          "components": [
            {
              "internalType": "enum CollectBless.PrizeType",
              "name": "prizeType",
              "type": "uint8"
            },
            {
              "internalType": "address",
              "name": "token",
              "type": "address"
            },
            {
              "internalType": "address",
              "name": "creator",
              "type": "address"
            },
            {
              "internalType": "uint256",
              "name": "amount",
              "type": "uint256"
            },
            {
              "internalType": "uint256",
              "name": "nftId",
              "type": "uint256"
            },
            {
              "internalType": "uint256",
              "name": "seedBlock",
              "type": "uint256"
            }
          ],
          "internalType": "struct CollectBless.BlindBox[]",
          "name": "boxes",
          "type": "tuple[]"
        },
        {
          "internalType": "uint16[]",
          "name": "weights",
          "type": "uint16[]"
        }
      ],
      "stateMutability": "view",
      "type": "function",
      "constant": true
    },
    {
      "inputs": [
        {
          "internalType": "address",
          "name": "",
          "type": "address"
        },
        {
          "internalType": "address",
          "name": "",
          "type": "address"
        },
        {
          "internalType": "uint256",
          "name": "",
          "type": "uint256"
        },
        {
          "internalType": "bytes",
          "name": "",
          "type": "bytes"
        }
      ],
      "name": "onERC721Received",
      "outputs": [
        {
          "internalType": "bytes4",
          "name": "",
          "type": "bytes4"
        }
      ],
      "stateMutability": "pure",
      "type": "function",
      "constant": true
    },
    {
      "inputs": [
        {
          "internalType": "address",
          "name": "",
          "type": "address"
        },
        {
          "internalType": "address",
          "name": "",
          "type": "address"
        },
        {
          "internalType": "uint256",
          "name": "",
          "type": "uint256"
        },
        {
          "internalType": "uint256",
          "name": "",
          "type": "uint256"
        },
        {
          "internalType": "bytes",
          "name": "",
          "type": "bytes"
        }
      ],
      "name": "onERC1155Received",
      "outputs": [
        {
          "internalType": "bytes4",
          "name": "",
          "type": "bytes4"
        }
      ],
      "stateMutability": "pure",
      "type": "function",
      "constant": true
    },
    {
      "inputs": [
        {
          "internalType": "address",
          "name": "",
          "type": "address"
        },
        {
          "internalType": "address",
          "name": "",
          "type": "address"
        },
        {
          "internalType": "uint256[]",
          "name": "",
          "type": "uint256[]"
        },
        {
          "internalType": "uint256[]",
          "name": "",
          "type": "uint256[]"
        },
        {
          "internalType": "bytes",
          "name": "",
          "type": "bytes"
        }
      ],
      "name": "onERC1155BatchReceived",
      "outputs": [
        {
          "internalType": "bytes4",
          "name": "",
          "type": "bytes4"
        }
      ],
      "stateMutability": "pure",
      "type": "function",
      "constant": true
    },
    {
      "inputs": [
        {
          "internalType": "bytes4",
          "name": "interfaceId",
          "type": "bytes4"
        }
      ],
      "name": "supportsInterface",
      "outputs": [
        {
          "internalType": "bool",
          "name": "",
          "type": "bool"
        }
      ],
      "stateMutability": "pure",
      "type": "function",
      "constant": true
    }
  ],
  "bytecode": "0x6702c68af0bb1400006005908155670de0b6b3a7640000600655601481905561012060405260016080908152600260a052600360c05260e0829052600a610100526200004f9160169190620000cd565b5060006018556063601b553480156200006757600080fd5b5062000073336200007d565b6001805562000181565b600080546001600160a01b038381166001600160a01b0319831681178455604051919092169283917f8be0079c531659141344cd1fd0a4f28419497f9722a3daafe3b4186f6b6457e09190a35050565b600183019183908215620001585791602002820160005b838211156200012657835183826101000a81548161ffff021916908361ffff1602179055509260200192600201602081600101049283019260010302620000e4565b8015620001565782816101000a81549061ffff021916905560020160208160010104928301926001030262000126565b505b50620001669291506200016a565b5090565b5b808211156200016657600081556001016200016b565b6146c980620001916000396000f3fe608060405234801561001057600080fd5b50600436106102695760003560e01c806383e8e3e511610151578063d6bd5db1116100c3578063f23a6e6111610087578063f23a6e6114610591578063f2fde38b146105b1578063f7b5e317146105c4578063f84d13ef146105cd578063fc01b0a2146105e0578063fd4ab46d146105f357600080fd5b8063d6bd5db114610539578063dd3c627d14610542578063e316404414610555578063e8efab9314610575578063edea95551461058857600080fd5b8063b1648dad11610115578063b1648dad146104d2578063b1e5e2b7146104db578063b58067ab146104ee578063b78ef0b914610501578063bc197c8114610514578063c4fbc2b21461053057600080fd5b806383e8e3e5146104895780638da5cb5b1461049c578063926323d5146104ad5780639668ceb8146104b6578063a2011d91146104bf57600080fd5b80632c4adc78116101ea5780635e7ff0cc116101ae5780635e7ff0cc146103f05780635ec01e4d14610403578063623ec92b1461042e578063715018a61461044e578063745b08bf1461045657806383e4f9411461046957600080fd5b80632c4adc78146103765780633c8884121461039757806346639dba146103aa578063534fb246146103bd578063556a6d8a146103d057600080fd5b8063150b7a0211610231578063150b7a02146102e057806318f277071461031857806324a257ae146103215780632583fd2314610334578063271096411461035657600080fd5b806301ffc9a71461026e578063043f6b63146102965780630d080bda146102ad5780630f8202d6146102cd57806311e80b85146102d6575b600080fd5b61028161027c366004614128565b610606565b60405190151581526020015b60405180910390f35b61029f601b5481565b60405190815260200161028d565b61029f6102bb366004613d65565b60116020526000908152604090205481565b61029f600e5481565b6102de61063d565b005b6102ff6102ee366004613e85565b630a85bd0160e11b95945050505050565b6040516001600160e01b0319909116815260200161028d565b61029f60145481565b6102de61032f36600461416b565b61080d565b610347610342366004613f94565b6109a5565b60405161028d9392919061442b565b61029f610364366004613d65565b60196020526000908152604090205481565b6103896103843660046140b1565b610d2c565b60405161028d9291906143f3565b6102de6103a5366004614152565b610f3e565b6102de6103b8366004613d80565b6112c8565b6102de6103cb36600461402a565b61166f565b61029f6103de366004613d65565b60136020526000908152604090205481565b6102de6103fe366004614152565b611939565b600254610416906001600160a01b031681565b6040516001600160a01b03909116815260200161028d565b61044161043c366004613d65565b611cf8565b60405161028d9190614418565b6102de611d64565b6102de610464366004613f94565b611d9a565b61029f610477366004613d65565b601c6020526000908152604090205481565b6102de610497366004614152565b612120565b6000546001600160a01b0316610416565b61029f60185481565b61029f600f5481565b6102de6104cd366004613f6a565b61214f565b61029f60085481565b6102de6104e9366004614152565b612437565b6102de6104fc366004613fc7565b612859565b6102de61050f366004613f94565b612b00565b6102ff610522366004613dcb565b600098975050505050505050565b61029f60055481565b61029f60075481565b600354610416906001600160a01b031681565b61029f610563366004613d65565b60106020526000908152604090205481565b6102de610583366004614152565b612ec4565b61029f60095481565b6102ff61059f366004613ef3565b63f23a6e6160e01b9695505050505050565b6102de6105bf366004613d65565b612ef3565b61029f60065481565b6102de6105db366004614152565b612f8b565b6102de6105ee366004614152565b612fba565b600454610416906001600160a01b031681565b60006001600160e01b03198216630a85bd0160e11b148061063757506001600160e01b03198216630271189760e51b145b92915050565b42600754106106875760405162461bcd60e51b81526020600482015260116024820152704e6f742079657420647261772074696d6560781b60448201526064015b60405180910390fd5b6000601854116106c85760405162461bcd60e51b815260206004820152600c60248201526b07765696768747320697320360a41b604482015260640161067e565b33600090815260196020526040902054156107255760405162461bcd60e51b815260206004820152601960248201527f796f75206861766520616c726561647920726563656976656400000000000000604482015260640161067e565b60185433600090815260136020526040812054600e54919291610748919061456a565b6107529190614556565b9050801561080a57336000818152601960205260409081902083905560048054915163a9059cbb60e01b815290810192909252602482018390526001600160a01b03169063a9059cbb90604401602060405180830381600087803b1580156107b957600080fd5b505af11580156107cd573d6000803e3d6000fd5b505050506040513d601f19601f820116820180604052508101906107f191906140ed565b5080600f6000828254610804919061453e565b90915550505b50565b426007541161082e5760405162461bcd60e51b815260040161067e906144c8565b6000821161084e5760405162461bcd60e51b815260040161067e90614499565b60008260055461085e919061456a565b600480546040516323b872dd60e01b81529293506001600160a01b0316916323b872dd916108929133913091879101614327565b602060405180830381600087803b1580156108ac57600080fd5b505af11580156108c0573d6000803e3d6000fd5b505050506040513d601f19601f820116820180604052508101906108e491906140ed565b50604080516001808252818301909252600091602082018180368337505060035460145460405163731133e960e01b81529394506001600160a01b039091169263731133e9925061093d918791899087906004016143c6565b600060405180830381600087803b15801561095757600080fd5b505af115801561096b573d6000803e3d6000fd5b5050505081600e6000828254610981919061453e565b92505081905550836008600082825461099a919061453e565b909155505050505050565b60608060608385106109ed5760405162461bcd60e51b815260206004820152601160248201527057726f6e6720696e64657820706172616d60781b604482015260640161067e565b6001600160a01b038616600090815260126020908152604080832080548251818502810185019093528083529192909190830182828015610a4d57602002820191906000526020600020905b815481526020019060010190808311610a39575b50505050509050805160001415610a645750610d23565b8051868111610a74575050610d23565b858111610a7f578095505b610a898787614589565b6001600160401b03811115610aa057610aa061463d565b604051908082528060200260200182016040528015610ad957816020015b610ac6613b9b565b815260200190600190039081610abe5790505b509350610ae68787614589565b6001600160401b03811115610afd57610afd61463d565b604051908082528060200260200182016040528015610b26578160200160208202803683370190505b509250610b338787614589565b6001600160401b03811115610b4a57610b4a61463d565b604051908082528060200260200182016040528015610b73578160200160208202803683370190505b5094506000875b87811015610d1e57600d6000600a6000878581518110610b9c57610b9c614627565b602002602001015181526020019081526020016000205481526020019081526020016000206040518060c00160405290816000820160009054906101000a900460ff166003811115610bf057610bf06145fb565b6003811115610c0157610c016145fb565b815281546001600160a01b03610100909104811660208301526001830154166040820152600282015460608201526003820154608082015260049091015460a0909101528651879084908110610c5957610c59614627565b6020026020010181905250600b6000858381518110610c7a57610c7a614627565b6020026020010151815260200190815260200160002060009054906101000a900461ffff16858381518110610cb157610cb1614627565b602002602001019061ffff16908161ffff1681525050838181518110610cd957610cd9614627565b6020026020010151878381518110610cf357610cf3614627565b602090810291909101015281610d08816145a0565b9250508080610d16906145a0565b915050610b7a565b505050505b93509350939050565b606080825160001415610d3e57915091565b82516001600160401b03811115610d5757610d5761463d565b604051908082528060200260200182016040528015610d9057816020015b610d7d613b9b565b815260200190600190039081610d755790505b50915082516001600160401b03811115610dac57610dac61463d565b604051908082528060200260200182016040528015610dd5578160200160208202803683370190505b50905060005b8351811015610f3857600d6000600a6000878581518110610dfe57610dfe614627565b602002602001015181526020019081526020016000205481526020019081526020016000206040518060c00160405290816000820160009054906101000a900460ff166003811115610e5257610e526145fb565b6003811115610e6357610e636145fb565b815281546001600160a01b03610100909104811660208301526001830154166040820152600282015460608201526003820154608082015260049091015460a0909101528351849083908110610ebb57610ebb614627565b6020026020010181905250600b6000858381518110610edc57610edc614627565b6020026020010151815260200190815260200160002060009054906101000a900461ffff16828281518110610f1357610f13614627565b61ffff9092166020928302919091019091015280610f30816145a0565b915050610ddb565b50915091565b4260075410610f8b5760405162461bcd60e51b8152602060048201526019602482015278151a1948195d995b9d081a5cc81b9bdd081bdd995c881e595d603a1b604482015260640161067e565b601754610f955750565b61012c8115610fa15750805b6040805160018082528183019092526000918291906020820181803683375050601754919250600091610fd79150600190614589565b90505b838310156112c1576000600d6000600a600060178681548110610fff57610fff614627565b9060005260206000200154815260200190815260200160002054815260200190815260200160002090506001601160008360010160009054906101000a90046001600160a01b03166001600160a01b03166001600160a01b031681526020019081526020016000206000828254611076919061453e565b9091555050601780548061108c5761108c614611565b6000828152602081208201600019908101919091550190556001815460ff1660038111156110bc576110bc6145fb565b141561115c5780546001820154600283015460405163a9059cbb60e01b81526001600160a01b0392831660048201526024810191909152610100909204169063a9059cbb90604401602060405180830381600087803b15801561111e57600080fd5b505af1158015611132573d6000803e3d6000fd5b505050506040513d601f19601f8201168201806040525081019061115691906140ed565b5061128f565b6002815460ff166003811115611174576111746145fb565b14156111f457805460018201546003830154604051632142170760e11b81526101009093046001600160a01b03908116936342842e0e936111bd93309390911691600401614327565b600060405180830381600087803b1580156111d757600080fd5b505af11580156111eb573d6000803e3d6000fd5b5050505061128f565b6003815460ff16600381111561120c5761120c6145fb565b141561128f578054600182015460038301546002840154604051637921219560e11b81526001600160a01b0361010090950485169463f242432a9461125c94309491909216928a9060040161434b565b600060405180830381600087803b15801561127657600080fd5b505af115801561128a573d6000803e3d6000fd5b505050505b60175461129c57506112c1565b6017546112ab90600190614589565b91505082806112b9906145a0565b935050610fda565b5050505050565b6000546001600160a01b031633146112f25760405162461bcd60e51b815260040161067e90614464565b6003546001600160a01b0316156113415760405162461bcd60e51b8152602060048201526013602482015272185b1c9958591e481a5b9a5d1a585b1a5e9959606a1b604482015260640161067e565b6001600160a01b0384166113a75760405162461bcd60e51b815260206004820152602760248201527f696e76616c696420626c6573732063617264204e465420636f6e7472616374206044820152666164647265737360c81b606482015260840161067e565b6001600160a01b0382166113fd5760405162461bcd60e51b815260206004820152601f60248201527f696e76616c69642072616e646f6d20636f6e7472616374206164647265737300604482015260640161067e565b6001600160a01b0383166114655760405162461bcd60e51b815260206004820152602960248201527f696e76616c6964207072697a6520706f6f6c20746f6b656e20636f6e7472616360448201526874206164647265737360b81b606482015260840161067e565b4281116114a95760405162461bcd60e51b8152602060048201526012602482015271195b99081d1a5b59481d1bdbc81cda1bdc9d60721b604482015260640161067e565b600380546001600160a01b03199081166001600160a01b038781169190911783556002805483168683161781556007859055600480548416888416178155601580546001818101835560327f55f448fdea98c4d29eb340757ef0a66cd03dbb9538908a6a81d96026b71ec475928301558254808201845560149083015582548082018455600f9083015582548082018455600a90830155825480820190935560059290910191909155600c80546000908152600d6020526040808220805460ff19169055825482528082208054610100600160a81b03191690558254825280822090930180549097169096558054865281862084018690558054865281862090960185905594548452848420810184905590549351633352da4560e21b81529081018390529192169063cd4b691490602401602060405180830381600087803b1580156115f557600080fd5b505af1158015611609573d6000803e3d6000fd5b505050506040513d601f19601f8201168201806040525081019061162d919061410f565b9050601a548160405160200161164d929190918252602082015260400190565b60408051601f198184030181529190528051602090910120601a555050505050565b6000546001600160a01b031633146116995760405162461bcd60e51b815260040161067e90614464565b42600754116116ba5760405162461bcd60e51b815260040161067e906144c8565b60008351116117005760405162461bcd60e51b8152602060048201526012602482015271696e76616c696420746f206164647265737360701b604482015260640161067e565b81518351146117465760405162461bcd60e51b8152602060048201526012602482015271696e76616c6964206461746120617272617960701b604482015260640161067e565b805183511461178c5760405162461bcd60e51b8152602060048201526012602482015271696e76616c6964206461746120617272617960701b604482015260640161067e565b60408051600180825281830190925260009160208201818036833701905050905060005b84518110156112c15760008382815181106117cd576117cd614627565b6020026020010151116117f25760405162461bcd60e51b815260040161067e90614499565b600184828151811061180657611806614627565b6020026020010151101580156118365750600484828151811061182b5761182b614627565b602002602001015111155b61186f5760405162461bcd60e51b815260206004820152600a6024820152691a5b9d985b1a59081a5960b21b604482015260640161067e565b60035485516001600160a01b039091169063731133e99087908490811061189857611898614627565b60200260200101518684815181106118b2576118b2614627565b60200260200101518685815181106118cc576118cc614627565b6020026020010151866040518563ffffffff1660e01b81526004016118f494939291906143c6565b600060405180830381600087803b15801561190e57600080fd5b505af1158015611922573d6000803e3d6000fd5b505050508080611931906145a0565b9150506117b0565b42600754106119865760405162461bcd60e51b8152602060048201526019602482015278151a1948195d995b9d081a5cc81b9bdd081bdd995c881e595d603a1b604482015260640161067e565b61012c81156119925750805b3360009081526011602090815260408083205460109092528220546119b79190614589565b1115611cf45760408051600180825281830190925260009182919060208201818036833701905050905060005b83831080156119f4575060175481105b156112c1576000600d6000600a600060178681548110611a1657611a16614627565b906000526020600020015481526020019081526020016000205481526020019081526020016000209050336001600160a01b03168160010160009054906101000a90046001600160a01b03166001600160a01b03161415611cd3576001818101546001600160a01b031660009081526011602052604081208054909190611a9e90849061453e565b909155505060178054611ab390600190614589565b81548110611ac357611ac3614627565b906000526020600020015460178381548110611ae157611ae1614627565b6000918252602090912001556017805480611afe57611afe614611565b6000828152602081208201600019908101919091550190556001815460ff166003811115611b2e57611b2e6145fb565b1415611bce5780546001820154600283015460405163a9059cbb60e01b81526001600160a01b0392831660048201526024810191909152610100909204169063a9059cbb90604401602060405180830381600087803b158015611b9057600080fd5b505af1158015611ba4573d6000803e3d6000fd5b505050506040513d601f19601f82011682018060405250810190611bc891906140ed565b50611ce1565b6002815460ff166003811115611be657611be66145fb565b1415611c6657805460018201546003830154604051632142170760e11b81526101009093046001600160a01b03908116936342842e0e93611c2f93309390911691600401614327565b600060405180830381600087803b158015611c4957600080fd5b505af1158015611c5d573d6000803e3d6000fd5b50505050611ce1565b6003815460ff166003811115611c7e57611c7e6145fb565b1415611cce578054600182015460038301546002840154604051637921219560e11b81526001600160a01b0361010090950485169463f242432a94611c2f94309491909216928a9060040161434b565b611ce1565b81611cdd816145a0565b9250505b5082611cec816145a0565b9350506119e4565b5050565b6001600160a01b038116600090815260126020908152604091829020805483518184028101840190945280845260609392830182828015611d5857602002820191906000526020600020905b815481526020019060010190808311611d44575b50505050509050919050565b6000546001600160a01b03163314611d8e5760405162461bcd60e51b815260040161067e90614464565b611d98600061331d565b565b4260075411611dbb5760405162461bcd60e51b815260040161067e906144c8565b6001600160a01b038316611e115760405162461bcd60e51b815260206004820152601c60248201527f696e76616c6964204e465420636f6e7472616374206164647265737300000000604482015260640161067e565b6001811015611e325760405162461bcd60e51b815260040161067e90614499565b6040805160018082528183019092526000916020820181803683375050604051637921219560e11b8152919250506001600160a01b0385169063f242432a90611e87903390309088908890889060040161434b565b600060405180830381600087803b158015611ea157600080fd5b505af1158015611eb5573d6000803e3d6000fd5b50505050600082600654611ec9919061456a565b600480546040516323b872dd60e01b81529293506001600160a01b0316916323b872dd91611efd9133913091879101614327565b602060405180830381600087803b158015611f1757600080fd5b505af1158015611f2b573d6000803e3d6000fd5b505050506040513d601f19601f82011682018060405250810190611f4f91906140ed565b5080600e6000828254611f62919061453e565b90915550503360009081526010602052604081208054859290611f8690849061453e565b925050819055506001600c6000828254611fa0919061453e565b9091555050600c546000908152600d60205260409020805460018083018054336001600160a01b03199091161790556001600160a81b03199091166101006001600160a01b03891602176003178255611ffa90439061453e565b600482015560016002820155600381018590556000846001600160401b038111156120275761202761463d565b604051908082528060200260200182016040528015612050578160200160208202803683370190505b50905060005b858110156120e757600160096000828254612071919061453e565b9250508190555060095482828151811061208d5761208d614627565b602090810291909101810191909152600c54600980546000908152600a90935260408320919091555460178054600181018255925260008051602061467483398151915290910155806120df816145a0565b915050612056565b50336001600160a01b03166000805160206146548339815191528260405161210f9190614418565b60405180910390a250505050505050565b6000546001600160a01b0316331461214a5760405162461bcd60e51b815260040161067e90614464565b600555565b42600754116121705760405162461bcd60e51b815260040161067e906144c8565b6001600160a01b0382166121c65760405162461bcd60e51b815260206004820152601c60248201527f696e76616c6964204e465420636f6e7472616374206164647265737300000000604482015260640161067e565b600480546006546040516323b872dd60e01b81526001600160a01b03909216926323b872dd926121fa923392309201614327565b602060405180830381600087803b15801561221457600080fd5b505af1158015612228573d6000803e3d6000fd5b505050506040513d601f19601f8201168201806040525081019061224c91906140ed565b50604051632142170760e11b81526001600160a01b038316906342842e0e9061227d90339030908690600401614327565b600060405180830381600087803b15801561229757600080fd5b505af11580156122ab573d6000803e3d6000fd5b50505050600654600e60008282546122c3919061453e565b90915550503360009081526010602052604081208054600192906122e890849061453e565b92505081905550600160096000828254612302919061453e565b925050819055506001600c600082825461231c919061453e565b9091555050600c546000908152600d60205260409020805460018083018054336001600160a01b03199091161790556001600160a81b03199091166101006001600160a01b0386160217600217825561237690439061453e565b600482015560038101829055600c54600980546000908152600a6020526040808220939093559054601780546001818101835591845260008051602061467483398151915201919091558251818152808401909352909190816020016020820280368337019050509050600954816000815181106123f6576123f6614627565b602002602001018181525050336001600160a01b0316600080516020614654833981519152826040516124299190614418565b60405180910390a250505050565b42600754116124585760405162461bcd60e51b815260040161067e906144c8565b600081116124785760405162461bcd60e51b815260040161067e90614499565b600a8111156124bf5760405162461bcd60e51b81526020600482015260136024820152727175616e7469747920697320746f6f2062696760681b604482015260640161067e565b60408051600580825260c082019092526000916020820160a0803683370190505090506001816000815181106124f7576124f7614627565b60200260200101818152505060028160018151811061251857612518614627565b60200260200101818152505060038160028151811061253957612539614627565b60200260200101818152505060048160038151811061255a5761255a614627565b6020026020010181815250506014548160048151811061257c5761257c614627565b602090810291909101015260408051600580825260c0820190925260009181602001602082028036833701905050905082816000815181106125c0576125c0614627565b60200260200101818152505082816001815181106125e0576125e0614627565b602002602001018181525050828160028151811061260057612600614627565b602002602001018181525050828160038151811061262057612620614627565b602002602001018181525050828160048151811061264057612640614627565b6020908102919091010152600354604051631ac8311560e21b81526001600160a01b0390911690636b20c4549061267f90339086908690600401614390565b600060405180830381600087803b15801561269957600080fd5b505af11580156126ad573d6000803e3d6000fd5b5050505082600860008282546126c39190614589565b9091555060009050836001600160401b038111156126e3576126e361463d565b60405190808252806020026020018201604052801561270c578160200160208202803683370190505b50600254604051633352da4560e21b81526000600482018190529293506001600160a01b039091169063cd4b691490602401602060405180830381600087803b15801561275857600080fd5b505af115801561276c573d6000803e3d6000fd5b505050506040513d601f19601f82011682018060405250810190612790919061410f565b9050601a54816040516020016127b0929190918252602082015260400190565b60408051601f198184030181529190528051602090910120601a5560005b85811015612810576127e133828461336d565b8382815181106127f3576127f3614627565b602090810291909101015280612808816145a0565b9150506127ce565b50336001600160a01b03167f4754632d5b70be4aeb46cfde2a5fbcc5793264e0905a9a280b8b971c3a6a89d98360405161284a9190614418565b60405180910390a25050505050565b600260015414156128ac5760405162461bcd60e51b815260206004820152601f60248201527f5265656e7472616e637947756172643a207265656e7472616e742063616c6c00604482015260640161067e565b600260015560075442106128d25760405162461bcd60e51b815260040161067e906144c8565b80518251146129135760405162461bcd60e51b815260206004820152600d60248201526c696e76616c696420646174617360981b604482015260640161067e565b60408051600180825281830190925260009182919060208201818036833701905050905060005b8451811015612a585783818151811061295557612955614627565b602002602001015160055461296a919061456a565b612974908461453e565b60035486519194506001600160a01b03169063731133e99087908490811061299e5761299e614627565b60200260200101516014548785815181106129bb576129bb614627565b6020026020010151866040518563ffffffff1660e01b81526004016129e394939291906143c6565b600060405180830381600087803b1580156129fd57600080fd5b505af1158015612a11573d6000803e3d6000fd5b50505050838181518110612a2757612a27614627565b602002602001015160086000828254612a40919061453e565b90915550819050612a50816145a0565b91505061293a565b50600480546040516323b872dd60e01b81526001600160a01b03909116916323b872dd91612a8c9133913091889101614327565b602060405180830381600087803b158015612aa657600080fd5b505af1158015612aba573d6000803e3d6000fd5b505050506040513d601f19601f82011682018060405250810190612ade91906140ed565b5081600e6000828254612af1919061453e565b90915550506001805550505050565b4260075411612b215760405162461bcd60e51b815260040161067e906144c8565b6001600160a01b038316612b6f5760405162461bcd60e51b8152602060048201526015602482015274696e76616c696420746f6b656e206164647265737360581b604482015260640161067e565b60008211612b8f5760405162461bcd60e51b815260040161067e90614499565b6000612b9b8383614556565b905060018111612bed5760405162461bcd60e51b815260206004820152601860248201527f746f74616c416d6f756e7420697320746f6f20736d616c6c0000000000000000604482015260640161067e565b6001600160a01b0384166323b872dd3330612c08878661456a565b6040518463ffffffff1660e01b8152600401612c2693929190614327565b602060405180830381600087803b158015612c4057600080fd5b505af1158015612c54573d6000803e3d6000fd5b505050506040513d601f19601f82011682018060405250810190612c7891906140ed565b50600083600654612c89919061456a565b600480546040516323b872dd60e01b81529293506001600160a01b0316916323b872dd91612cbd9133913091879101614327565b602060405180830381600087803b158015612cd757600080fd5b505af1158015612ceb573d6000803e3d6000fd5b505050506040513d601f19601f82011682018060405250810190612d0f91906140ed565b5080600e6000828254612d22919061453e565b90915550503360009081526010602052604081208054869290612d4690849061453e565b9091555060009050846001600160401b03811115612d6657612d6661463d565b604051908082528060200260200182016040528015612d8f578160200160208202803683370190505b5090506001600c6000828254612da5919061453e565b9091555050600c546000908152600d60205260409020805460018083018054336001600160a01b03199091161790556001600160a81b03199091166101006001600160a01b038a16021781178255612dfe90439061453e565b60048201556002810184905560005b86811015612e9c57600160096000828254612e28919061453e565b9091555050600c54600980546000908152600a6020526040902091909155548351849083908110612e5b57612e5b614627565b602090810291909101015260095460178054600181018255600091909152600080516020614674833981519152015580612e94816145a0565b915050612e0d565b50336001600160a01b03166000805160206146548339815191528360405161210f9190614418565b6000546001600160a01b03163314612eee5760405162461bcd60e51b815260040161067e90614464565b600755565b6000546001600160a01b03163314612f1d5760405162461bcd60e51b815260040161067e90614464565b6001600160a01b038116612f825760405162461bcd60e51b815260206004820152602660248201527f4f776e61626c653a206e6577206f776e657220697320746865207a65726f206160448201526564647265737360d01b606482015260840161067e565b61080a8161331d565b6000546001600160a01b03163314612fb55760405162461bcd60e51b815260040161067e90614464565b600655565b6001811015612fdb5760405162461bcd60e51b815260040161067e90614499565b600081600654612feb919061456a565b600480546040516323b872dd60e01b81529293506001600160a01b0316916323b872dd9161301f9133913091879101614327565b602060405180830381600087803b15801561303957600080fd5b505af115801561304d573d6000803e3d6000fd5b505050506040513d601f19601f8201168201806040525081019061307191906140ed565b5080600e6000828254613084919061453e565b909155505033600090815260106020526040812080548492906130a890849061453e565b9091555050336000908152601c6020526040902054806130f2576001601b60008282546130d5919061453e565b9091555050601b54336000908152601c6020526040902081905590505b6000836001600160401b0381111561310c5761310c61463d565b604051908082528060200260200182016040528015613135578160200160208202803683370190505b5090506001600c600082825461314b919061453e565b9091555050600c546000908152600d602052604090208054600390829060ff19166001830217905550600180820180546001600160a01b0319163317905560035482546001600160a01b039190911661010002610100600160a81b03199091161782556131b990439061453e565b6004820155600160028201556003810183905560005b8581101561325e576001600960008282546131ea919061453e565b9091555050600c54600980546000908152600a602052604090209190915554835184908390811061321d5761321d614627565b602090810291909101015260095460178054600181018255600091909152600080516020614674833981519152015580613256816145a0565b9150506131cf565b50604080516001808252818301909252600091602082018180368337505060035460405163731133e960e01b81529293506001600160a01b03169163731133e991506132b490309088908b9087906004016143c6565b600060405180830381600087803b1580156132ce57600080fd5b505af11580156132e2573d6000803e3d6000fd5b50505050336001600160a01b03166000805160206146548339815191528460405161330d9190614418565b60405180910390a2505050505050565b600080546001600160a01b038381166001600160a01b0319831681178455604051919092169283917f8be0079c531659141344cd1fd0a4f28419497f9722a3daafe3b4186f6b6457e09190a35050565b6000600260015414156133c25760405162461bcd60e51b815260206004820152601f60248201527f5265656e7472616e637947756172643a207265656e7472616e742063616c6c00604482015260640161067e565b600260019081556017546000908211156133df5760009150613468565b600854601754106133ef57613468565b600061345685601a54898960405160200161343e9493929190938452602084019290925260601b6001600160601b0319166040830152605482015264189b1a5b9960da1b607482015260790190565b60405160208183030381529060405260016064613ac3565b9050604681111561346657600092505b505b811561399e5760006134e585601a5489896040516020016134be9493929190938452602084019290925260601b6001600160601b03191660408301526054820152650ca92dcc8caf60d31b6074820152607a0190565b60408051601f198184030181529190526017546000906134e090600190614589565b613ac3565b90506000601782815481106134fc576134fc614627565b6000918252602080832090910154808352600a82526040808420548452600d90925291209091506001815460ff16600381111561353b5761353b6145fb565b14156135d6578054600282015460405163a9059cbb60e01b81526001600160a01b038c811660048301526024820192909252610100909204169063a9059cbb90604401602060405180830381600087803b15801561359857600080fd5b505af11580156135ac573d6000803e3d6000fd5b505050506040513d601f19601f820116820180604052508101906135d091906140ed565b5061372b565b6002815460ff1660038111156135ee576135ee6145fb565b14156136655780546003820154604051632142170760e11b81526101009092046001600160a01b0316916342842e0e9161362e9130918e91600401614327565b600060405180830381600087803b15801561364857600080fd5b505af115801561365c573d6000803e3d6000fd5b5050505061372b565b6003815460ff16600381111561367d5761367d6145fb565b141561372b576040805160018082528183019092526000916020820181803683370190505090508160000160019054906101000a90046001600160a01b03166001600160a01b031663f242432a308c85600301548660020154866040518663ffffffff1660e01b81526004016136f795949392919061434b565b600060405180830381600087803b15801561371157600080fd5b505af1158015613725573d6000803e3d6000fd5b50505050505b600254600482810154604051633352da4560e21b8152918201526001600160a01b039091169063cd4b691490602401602060405180830381600087803b15801561377457600080fd5b505af1158015613788573d6000803e3d6000fd5b505050506040513d601f19601f820116820180604052508101906137ac919061410f565b965061382b87601a548b8b6040516020016137ca94939291906142ef565b60408051601f198184030181526015805460208181028601810190945280855291939290919083018282801561381f57602002820191906000526020600020905b81548152602001906001019080831161380b575b50505050506064613b0f565b935060006016856005811061384257613842614627565b6010810491909101546000858152600b602052604090208054600f9093166002026101000a90910461ffff1661ffff1990921682179055601780549192509061388d90600190614589565b8154811061389d5761389d614627565b9060005260206000200154601785815481106138bb576138bb614627565b60009182526020909120015560178054806138d8576138d8614611565b6000828152602080822083016000199081018390559092019092556001848101546001600160a01b0316835260119091526040822080549192909161391e90849061453e565b90915550506001600160a01b038a16600081815260126020908152604080832080546001810182559084528284200187905592825260139052908120805461ffff8416929061396e90849061453e565b925050819055508061ffff166018600082825461398b919061453e565b90915550929650613ab895505050505050565b6001600960008282546139b1919061453e565b90915550506009546000908152600a6020908152604080832092909255601a5491516139e7926137ca9288928b918b91016142ef565b90506000601682600581106139fe576139fe614627565b601081049190910154600980546000908152600b602090815260408083208054600f9097166002026101000a90950461ffff1661ffff1990961686179094556001600160a01b038c16808352601282528483209354845460018101865594845282842090940193909355918152601390915290812080549293508392909190613a8890849061453e565b925050819055508061ffff1660186000828254613aa5919061453e565b90915550506009549350613ab892505050565b600180559392505050565b6000818310613ad3575081613b08565b8351602085012083613ae58185614589565b613af090600161453e565b613afa90836145bb565b613b04919061453e565b9150505b9392505050565b600080613b1e85600185613ac3565b90506000805b60018651613b329190614589565b8114613b8257858181518110613b4a57613b4a614627565b602002602001015182613b5d919061453e565b9150818311613b70579250613b08915050565b80613b7a816145a0565b915050613b24565b5060018551613b919190614589565b9695505050505050565b6040805160c08101909152806000815260200160006001600160a01b0316815260200160006001600160a01b031681526020016000815260200160008152602001600081525090565b80356001600160a01b0381168114613bfb57600080fd5b919050565b600082601f830112613c1157600080fd5b81356020613c26613c218361451b565b6144eb565b80838252828201915082860187848660051b8901011115613c4657600080fd5b60005b85811015613c6c57613c5a82613be4565b84529284019290840190600101613c49565b5090979650505050505050565b60008083601f840112613c8b57600080fd5b5081356001600160401b03811115613ca257600080fd5b6020830191508360208260051b8501011115613cbd57600080fd5b9250929050565b600082601f830112613cd557600080fd5b81356020613ce5613c218361451b565b80838252828201915082860187848660051b8901011115613d0557600080fd5b60005b85811015613c6c57813584529284019290840190600101613d08565b60008083601f840112613d3657600080fd5b5081356001600160401b03811115613d4d57600080fd5b602083019150836020828501011115613cbd57600080fd5b600060208284031215613d7757600080fd5b613b0882613be4565b60008060008060808587031215613d9657600080fd5b613d9f85613be4565b9350613dad60208601613be4565b9250613dbb60408601613be4565b9396929550929360600135925050565b60008060008060008060008060a0898b031215613de757600080fd5b613df089613be4565b9750613dfe60208a01613be4565b965060408901356001600160401b0380821115613e1a57600080fd5b613e268c838d01613c79565b909850965060608b0135915080821115613e3f57600080fd5b613e4b8c838d01613c79565b909650945060808b0135915080821115613e6457600080fd5b50613e718b828c01613d24565b999c989b5096995094979396929594505050565b600080600080600060808688031215613e9d57600080fd5b613ea686613be4565b9450613eb460208701613be4565b93506040860135925060608601356001600160401b03811115613ed657600080fd5b613ee288828901613d24565b969995985093965092949392505050565b60008060008060008060a08789031215613f0c57600080fd5b613f1587613be4565b9550613f2360208801613be4565b9450604087013593506060870135925060808701356001600160401b03811115613f4c57600080fd5b613f5889828a01613d24565b979a9699509497509295939492505050565b60008060408385031215613f7d57600080fd5b613f8683613be4565b946020939093013593505050565b600080600060608486031215613fa957600080fd5b613fb284613be4565b95602085013595506040909401359392505050565b60008060408385031215613fda57600080fd5b82356001600160401b0380821115613ff157600080fd5b613ffd86838701613c00565b9350602085013591508082111561401357600080fd5b5061402085828601613cc4565b9150509250929050565b60008060006060848603121561403f57600080fd5b83356001600160401b038082111561405657600080fd5b61406287838801613c00565b9450602086013591508082111561407857600080fd5b61408487838801613cc4565b9350604086013591508082111561409a57600080fd5b506140a786828701613cc4565b9150509250925092565b6000602082840312156140c357600080fd5b81356001600160401b038111156140d957600080fd5b6140e584828501613cc4565b949350505050565b6000602082840312156140ff57600080fd5b81518015158114613b0857600080fd5b60006020828403121561412157600080fd5b5051919050565b60006020828403121561413a57600080fd5b81356001600160e01b031981168114613b0857600080fd5b60006020828403121561416457600080fd5b5035919050565b6000806040838503121561417e57600080fd5b8235915061418e60208401613be4565b90509250929050565b60008151808452602080850194508084016000805b84811015614227578251805160048082106141d457634e487b7160e01b855260218152602485fd5b508952808501516001600160a01b03908116868b0152604080830151909116908a0152606080820151908a0152608080820151908a015260a0908101519089015260c090970196918301916001016141ac565b50959695505050505050565b600081518084526020808501945080840160005b8381101561426757815161ffff1687529582019590820190600101614247565b509495945050505050565b600081518084526020808501945080840160005b8381101561426757815187529582019590820190600101614286565b6000815180845260005b818110156142c8576020818501810151868301820152016142ac565b818111156142da576000602083870101525b50601f01601f19169290920160200192915050565b938452602084019290925260601b6001600160601b03191660408301526054820152667765696768747360c81b6074820152607b0190565b6001600160a01b039384168152919092166020820152604081019190915260600190565b6001600160a01b03868116825285166020820152604081018490526060810183905260a060808201819052600090614385908301846142a2565b979650505050505050565b6001600160a01b03841681526060602082018190526000906143b490830185614272565b8281036040840152613b918185614272565b60018060a01b0385168152836020820152826040820152608060608201526000613b9160808301846142a2565b6040815260006144066040830185614197565b8281036020840152613b048185614233565b602081526000613b086020830184614272565b60608152600061443e6060830186614272565b82810360208401526144508186614197565b90508281036040840152613b918185614233565b6020808252818101527f4f776e61626c653a2063616c6c6572206973206e6f7420746865206f776e6572604082015260600190565b6020808252601590820152741c5d585b9d1a5d1e481a5cc81d1bdbc81cdb585b1b605a1b604082015260600190565b6020808252600990820152681a185cc8195b99195960ba1b604082015260600190565b604051601f8201601f191681016001600160401b03811182821017156145135761451361463d565b604052919050565b60006001600160401b038211156145345761453461463d565b5060051b60200190565b60008219821115614551576145516145cf565b500190565b600082614565576145656145e5565b500490565b6000816000190483118215151615614584576145846145cf565b500290565b60008282101561459b5761459b6145cf565b500390565b60006000198214156145b4576145b46145cf565b5060010190565b6000826145ca576145ca6145e5565b500690565b634e487b7160e01b600052601160045260246000fd5b634e487b7160e01b600052601260045260246000fd5b634e487b7160e01b600052602160045260246000fd5b634e487b7160e01b600052603160045260246000fd5b634e487b7160e01b600052603260045260246000fd5b634e487b7160e01b600052604160045260246000fdfece5825d66b093769cf76ee2d1360fb23bafc198cfcf066e4575796001447df10c624b66cc0138b8fabc209247f72d758e1cf3343756d543badbf24212bed8c15a26469706673582212201a620887ccb0f1f5cf8dc8ed9f0ecc50ceafde9d523fe4e5c594eafde6ee19b364736f6c63430008070033",
  "immutableReferences": {},
  "source": "// SPDX-License-Identifier: MIT\npragma solidity ^0.8.0;\npragma experimental ABIEncoderV2;\n\nimport \"@openzeppelin/contracts/access/Ownable.sol\";\nimport \"@openzeppelin/contracts/token/ERC1155/presets/ERC1155PresetMinterPauser.sol\";\nimport \"@openzeppelin/contracts/token/ERC20/IERC20.sol\";\nimport \"@openzeppelin/contracts/token/ERC721/IERC721.sol\";\nimport \"@openzeppelin/contracts/token/ERC1155/IERC1155.sol\";\nimport \"@openzeppelin/contracts/security/ReentrancyGuard.sol\";\nimport \"@openzeppelin/contracts/token/ERC721/IERC721Receiver.sol\";\nimport \"@openzeppelin/contracts/token/ERC1155/IERC1155Receiver.sol\";\nimport \"./Random.sol\";\nimport \"./Utils.sol\";\n\ncontract CollectBless is Ownable, ReentrancyGuard, IERC721Receiver, IERC1155Receiver {\n    /**\n    Prize type\n     */\n    enum PrizeType {\n        NONE,\n        ERC20,\n        ERC721,\n        ERC1155\n    }\n\n    /**\n    @dev Blind box data structure\n     */\n    struct BlindBox {\n        // prize type\n        PrizeType prizeType;\n        // Prize contract address\n        address token;\n        // Creator\n        address creator;\n        // Number of prizes\n        uint256 amount;\n        uint256 nftId;\n        uint256 seedBlock;\n    }\n\n    /**\n    Random contract address\n     */\n    Random public random;\n\n    /**\n    Bless card contract address\n     */\n    ERC1155PresetMinterPauser public blessCard;\n\n    /**\n    Prize pool token (USDT)\n     */\n    IERC20 public prizePoolToken;\n\n    /**\n    Rare card price\n     */\n    uint256 public rareCardPrice = 0.2 ether;\n\n    /**\n    Blind box price\n     */\n    uint256 public blindBoxPrice = 1 ether;\n\n    /**\n    Event end time\n     */\n    uint256 public eventEndTime;\n\n    /**\n    The number of rare cards\n     */\n    uint256 public rareCardCount;\n\n    uint256 public blindBoxCount;\n    // Blind box id mapping\n    // blindBox id => blindBox type id\n    mapping(uint256 => uint256) private blindBoxTypes;\n    // blind box id => weights\n    mapping(uint256 => uint16) private blindBoxsWeights;\n\n    uint256 private blindBoxTypeId;\n\n    // Blind box type id => BlindBox\n    mapping(uint256 => BlindBox) private _blindBoxs;\n\n    /**\n    Total Prize Pool Amount\n     */\n    uint256 public prizePoolAmount;\n    uint256 public claimedAmount;\n\n    /**\n    user address => count\n     */\n    mapping(address => uint256) public mintBoxCounts;\n\n    /**\n    uaer address => count\n     */\n    mapping(address => uint256) public openBoxCounts;\n\n    // user address => blind box ids\n    mapping(address => uint256[]) userOpenBoxs;\n    // user address => total weights\n    mapping(address => uint256) public userWeights;\n\n    uint256 public rareCradId = 5;\n\n    // weight configuration\n    uint256[] private weightsConfig;\n    uint16[5] private weightsValue = [uint16(1), 2, 3, 5, 10];\n\n    // blind box pool, blind box id array\n    uint256[] private blindBoxPool;\n\n    // all user total weights\n    uint256 public totalWeights = 0;\n\n    // Bonuses already claimed by the user\n    mapping(address => uint256) public alreadyReceived;\n\n    bytes32 private randomFactor;\n\n    // whitelist nft start id\n    uint256 public whitelistIdCount = 99;\n\n    // mint user => id\n    mapping(address => uint256) public whitelistId;\n\n    event MintBox(address indexed creator, uint256[] ids);\n    event OpenBox(address indexed user, uint256[] ids);\n\n    function init(\n        address blessCardAddr,\n        address tokenAddr,\n        address randomAddr,\n        uint256 endTime\n    ) public onlyOwner {\n        require(address(blessCard) == address(0), \"already initialized\");\n        require(blessCardAddr != address(0), \"invalid bless card NFT contract address\");\n        require(randomAddr != address(0), \"invalid random contract address\");\n        require(tokenAddr != address(0), \"invalid prize pool token contract address\");\n        require(endTime > block.timestamp, \"end time too short\");\n        blessCard = ERC1155PresetMinterPauser(blessCardAddr);\n        random = Random(randomAddr);\n        eventEndTime = endTime;\n        prizePoolToken = IERC20(tokenAddr);\n\n        weightsConfig.push(50);\n        weightsConfig.push(20);\n        weightsConfig.push(15);\n        weightsConfig.push(10);\n        weightsConfig.push(5);\n\n        _blindBoxs[blindBoxTypeId].prizeType = PrizeType.NONE;\n        _blindBoxs[blindBoxTypeId].token = address(0);\n        _blindBoxs[blindBoxTypeId].creator = address(0);\n        _blindBoxs[blindBoxTypeId].amount = 0;\n        _blindBoxs[blindBoxTypeId].nftId = 0;\n        _blindBoxs[blindBoxTypeId].seedBlock = 0;\n\n        bytes32 seed = random.getRandom(0);\n        randomFactor = keccak256(abi.encodePacked(randomFactor, seed));\n    }\n\n    /**\n    Set rare card price\n     */\n    function setRareCardPrice(uint256 price) public onlyOwner {\n        rareCardPrice = price;\n    }\n\n    /**\n    Set blind box price\n     */\n    function setBlindBoxPrice(uint256 price) public onlyOwner {\n        blindBoxPrice = price;\n    }\n\n    function setEventEndTime(uint256 newTime) public onlyOwner {\n        eventEndTime = newTime;\n    }\n\n    function getUserOpenBoxs(address user) public view returns (uint256[] memory) {\n        return userOpenBoxs[user];\n    }\n\n    /**\n    Create a token blind box\n     */\n    function mintBox(\n        address token,\n        uint256 quantity,\n        uint256 totalAmount\n    ) public {\n        require(eventEndTime > block.timestamp, \"has ended\");\n        require(token != address(0), \"invalid token address\");\n        require(quantity > 0, \"quantity is too small\");\n\n        uint256 amount = totalAmount / quantity;\n        require(amount > 1, \"totalAmount is too small\");\n\n        // get box token\n        IERC20(token).transferFrom(msg.sender, address(this), amount * quantity);\n\n        // get prize pool token\n        uint256 fee = blindBoxPrice * quantity;\n        prizePoolToken.transferFrom(msg.sender, address(this), fee);\n\n        prizePoolAmount += fee;\n        mintBoxCounts[msg.sender] += quantity;\n\n        uint256[] memory ids = new uint256[](quantity);\n        blindBoxTypeId += 1;\n        BlindBox storage bb = _blindBoxs[blindBoxTypeId];\n        bb.prizeType = PrizeType.ERC20;\n        bb.creator = msg.sender;\n        bb.token = token;\n        bb.seedBlock = block.number + 1;\n        bb.amount = amount;\n\n        for (uint256 i = 0; i < quantity; i++) {\n            blindBoxCount += 1;\n            blindBoxTypes[blindBoxCount] = blindBoxTypeId;\n            ids[i] = blindBoxCount;\n            blindBoxPool.push(blindBoxCount);\n        }\n        emit MintBox(msg.sender, ids);\n    }\n\n    /**\n    Create a ERC721 NFT blind box\n     */\n    function mintBoxNFT721(address addr, uint256 nftId) public {\n        require(eventEndTime > block.timestamp, \"has ended\");\n        require(addr != address(0), \"invalid NFT contract address\");\n\n        prizePoolToken.transferFrom(msg.sender, address(this), blindBoxPrice);\n\n        IERC721(addr).safeTransferFrom(msg.sender, address(this), nftId);\n\n        prizePoolAmount += blindBoxPrice;\n        mintBoxCounts[msg.sender] += 1;\n\n        blindBoxCount += 1;\n        blindBoxTypeId += 1;\n        BlindBox storage bb = _blindBoxs[blindBoxTypeId];\n        bb.prizeType = PrizeType.ERC721;\n        bb.creator = msg.sender;\n        bb.token = addr;\n        bb.seedBlock = block.number + 1;\n        bb.nftId = nftId;\n\n        blindBoxTypes[blindBoxCount] = blindBoxTypeId;\n\n        blindBoxPool.push(blindBoxCount);\n\n        uint256[] memory ids = new uint256[](1);\n        ids[0] = blindBoxCount;\n        emit MintBox(msg.sender, ids);\n    }\n\n    /**\n    Create ERC1155 NFT blind box\n     */\n    function mintBoxNFT1155(\n        address addr,\n        uint256 nftId,\n        uint256 quantity\n    ) public {\n        require(eventEndTime > block.timestamp, \"has ended\");\n        require(addr != address(0), \"invalid NFT contract address\");\n        require(quantity >= 1, \"quantity is too small\");\n\n        bytes memory data = new bytes(1);\n        IERC1155(addr).safeTransferFrom(msg.sender, address(this), nftId, quantity, data);\n\n        uint256 fee = blindBoxPrice * quantity;\n        prizePoolToken.transferFrom(msg.sender, address(this), fee);\n\n        prizePoolAmount += fee;\n        mintBoxCounts[msg.sender] += quantity;\n\n        blindBoxTypeId += 1;\n        BlindBox storage bb = _blindBoxs[blindBoxTypeId];\n        bb.prizeType = PrizeType.ERC1155;\n        bb.creator = msg.sender;\n        bb.token = addr;\n        bb.seedBlock = block.number + 1;\n        bb.amount = 1;\n        bb.nftId = nftId;\n\n        uint256[] memory ids = new uint256[](quantity);\n        for (uint256 i = 0; i < quantity; i++) {\n            blindBoxCount += 1;\n            ids[i] = blindBoxCount;\n            blindBoxTypes[blindBoxCount] = blindBoxTypeId;\n            blindBoxPool.push(blindBoxCount);\n        }\n\n        emit MintBox(msg.sender, ids);\n    }\n\n    function mintWhitelistNFT(uint256 quantity) public {\n        require(quantity >= 1, \"quantity is too small\");\n\n        uint256 fee = blindBoxPrice * quantity;\n        prizePoolToken.transferFrom(msg.sender, address(this), fee);\n\n        prizePoolAmount += fee;\n        mintBoxCounts[msg.sender] += quantity;\n\n        uint256 nftId = whitelistId[msg.sender];\n        if (nftId == 0) {\n            whitelistIdCount += 1;\n            nftId = whitelistIdCount;\n            whitelistId[msg.sender] = nftId;\n        }\n\n        uint256[] memory ids = new uint256[](quantity);\n        blindBoxTypeId += 1;\n        BlindBox storage bb = _blindBoxs[blindBoxTypeId];\n        bb.prizeType = PrizeType.ERC1155;\n        bb.creator = msg.sender;\n        bb.token = address(blessCard);\n        bb.seedBlock = block.number + 1;\n        bb.amount = 1;\n        bb.nftId = nftId;\n\n        for (uint256 i = 0; i < quantity; i++) {\n            blindBoxCount += 1;\n            blindBoxTypes[blindBoxCount] = blindBoxTypeId;\n            ids[i] = blindBoxCount;\n            blindBoxPool.push(blindBoxCount);\n        }\n\n        bytes memory data = new bytes(1);\n        blessCard.mint(address(this), nftId, quantity, data);\n\n        emit MintBox(msg.sender, ids);\n    }\n\n    /**\n    Mint Rare Cards\n     */\n    function mintRareCard(uint256 quantity, address to) public {\n        require(eventEndTime > block.timestamp, \"has ended\");\n        require(quantity > 0, \"quantity is too small\");\n\n        uint256 fee = rareCardPrice * quantity;\n        prizePoolToken.transferFrom(msg.sender, address(this), fee);\n\n        bytes memory data = new bytes(1);\n        blessCard.mint(to, rareCradId, quantity, data);\n\n        prizePoolAmount += fee;\n        rareCardCount += quantity;\n    }\n\n    function mintRareCardBatch(address[] memory tos, uint256[] memory quantities) public nonReentrant {\n        require(eventEndTime > block.timestamp, \"has ended\");\n        require(tos.length == quantities.length, \"invalid datas\");\n\n        uint256 fee;\n        bytes memory data = new bytes(1);\n        for (uint256 i = 0; i < tos.length; i++) {\n            fee += rareCardPrice * quantities[i];\n            blessCard.mint(tos[i], rareCradId, quantities[i], data);\n            rareCardCount += quantities[i];\n        }\n        prizePoolToken.transferFrom(msg.sender, address(this), fee);\n        prizePoolAmount += fee;\n    }\n\n    /**\n    Mint normal card\n     */\n    function mintCard(\n        address[] memory tos,\n        uint256[] memory ids,\n        uint256[] memory quantities\n    ) public onlyOwner {\n        require(eventEndTime > block.timestamp, \"has ended\");\n        require(tos.length > 0, \"invalid to address\");\n        require(tos.length == ids.length, \"invalid data array\");\n        require(tos.length == quantities.length, \"invalid data array\");\n\n        bytes memory data = new bytes(1);\n        for (uint256 i = 0; i < tos.length; i++) {\n            require(quantities[i] > 0, \"quantity is too small\");\n            require(ids[i] >= 1 && ids[i] <= 4, \"invalid id\");\n            blessCard.mint(tos[i], ids[i], quantities[i], data);\n        }\n    }\n\n    /**\n    Consume the card and open the blind box\n     */\n    function openBox(uint256 quantity) public {\n        require(eventEndTime > block.timestamp, \"has ended\");\n        require(quantity > 0, \"quantity is too small\");\n        require(quantity <= 10, \"quantity is too big\");\n\n        uint256[] memory ids = new uint256[](5);\n        ids[0] = 1;\n        ids[1] = 2;\n        ids[2] = 3;\n        ids[3] = 4;\n        ids[4] = rareCradId;\n        uint256[] memory amounts = new uint256[](5);\n        amounts[0] = quantity;\n        amounts[1] = quantity;\n        amounts[2] = quantity;\n        amounts[3] = quantity;\n        amounts[4] = quantity;\n\n        blessCard.burnBatch(msg.sender, ids, amounts);\n        rareCardCount -= quantity;\n\n        uint256[] memory outIds = new uint256[](quantity);\n        bytes32 seed = random.getRandom(0);\n        randomFactor = keccak256(abi.encodePacked(randomFactor, seed));\n        for (uint256 i = 0; i < quantity; i++) {\n            outIds[i] = _openBox(msg.sender, i, seed);\n        }\n\n        emit OpenBox(msg.sender, outIds);\n    }\n\n    function _openBox(\n        address to,\n        uint256 idx,\n        bytes32 seed\n    ) private nonReentrant returns (uint256) {\n        bool isBlind = true;\n        uint256 wIdx = 0;\n        if (blindBoxPool.length < 1) {\n            isBlind = false;\n        } else if (blindBoxPool.length >= rareCardCount) {} else {\n            uint256 w = Utils.randomUint(abi.encodePacked(seed, randomFactor, to, idx, \"blind\"), 1, 100);\n            if (w > 70) {\n                isBlind = false;\n            }\n        }\n\n        if (isBlind) {\n            uint256 index = Utils.randomUint(abi.encodePacked(seed, randomFactor, to, idx, \"eIndex\"), 0, blindBoxPool.length - 1);\n            uint256 boxId = blindBoxPool[index];\n            BlindBox storage bb = _blindBoxs[blindBoxTypes[boxId]];\n\n            if (bb.prizeType == PrizeType.ERC20) {\n                IERC20(bb.token).transfer(to, bb.amount);\n            } else if (bb.prizeType == PrizeType.ERC721) {\n                IERC721(bb.token).safeTransferFrom(address(this), to, bb.nftId);\n            } else if (bb.prizeType == PrizeType.ERC1155) {\n                bytes memory data = new bytes(1);\n                IERC1155(bb.token).safeTransferFrom(address(this), to, bb.nftId, bb.amount, data);\n            }\n\n            seed = random.getRandom(bb.seedBlock);\n            wIdx = Utils.randomWeight(abi.encodePacked(seed, randomFactor, to, idx, \"weights\"), weightsConfig, 100);\n            uint16 weights = weightsValue[wIdx];\n            blindBoxsWeights[boxId] = weights;\n\n            // del from pool\n            blindBoxPool[index] = blindBoxPool[blindBoxPool.length - 1];\n            blindBoxPool.pop();\n\n            openBoxCounts[bb.creator] += 1;\n            userOpenBoxs[to].push(boxId);\n            userWeights[to] += weights;\n            totalWeights += weights;\n\n            return boxId;\n        } else {\n            blindBoxCount += 1;\n            blindBoxTypes[blindBoxCount] = 0;\n            wIdx = Utils.randomWeight(abi.encodePacked(seed, randomFactor, to, idx, \"weights\"), weightsConfig, 100);\n            uint16 weights = weightsValue[wIdx];\n            blindBoxsWeights[blindBoxCount] = weights;\n\n            userOpenBoxs[to].push(blindBoxCount);\n            userWeights[to] += weights;\n            totalWeights += weights;\n\n            return blindBoxCount;\n        }\n    }\n\n    /**\n    Receive the total prize according to the weight obtained\n     */\n    function cashPrize() public {\n        require(eventEndTime < block.timestamp, \"Not yet draw time\");\n        require(totalWeights > 0, \"weights is 0\");\n        require(alreadyReceived[msg.sender] == 0, \"you have already received\");\n\n        uint256 value = (prizePoolAmount * userWeights[msg.sender]) / totalWeights;\n        if (value > 0) {\n            alreadyReceived[msg.sender] = value;\n            prizePoolToken.transfer(msg.sender, value);\n            claimedAmount += value;\n        }\n    }\n\n    /**\n    Claim an unopened blind box\n     */\n    function claimBlindBox(uint256 _limit) public {\n        require(eventEndTime < block.timestamp, \"The event is not over yet\");\n\n        uint256 limit = 300;\n        if (_limit != 0) {\n            limit = _limit;\n        }\n\n        if (mintBoxCounts[msg.sender] - openBoxCounts[msg.sender] > 0) {\n            uint256 j = 0;\n            bytes memory data = new bytes(1);\n            for (uint256 i = 0; j < limit && i < blindBoxPool.length; j++) {\n                BlindBox storage bb = _blindBoxs[blindBoxTypes[blindBoxPool[i]]];\n                if (bb.creator == msg.sender) {\n                    openBoxCounts[bb.creator] += 1;\n                    blindBoxPool[i] = blindBoxPool[blindBoxPool.length - 1];\n                    blindBoxPool.pop();\n\n                    if (bb.prizeType == PrizeType.ERC20) {\n                        IERC20(bb.token).transfer(bb.creator, bb.amount);\n                    } else if (bb.prizeType == PrizeType.ERC721) {\n                        IERC721(bb.token).safeTransferFrom(address(this), bb.creator, bb.nftId);\n                    } else if (bb.prizeType == PrizeType.ERC1155) {\n                        IERC1155(bb.token).safeTransferFrom(address(this), bb.creator, bb.nftId, bb.amount, data);\n                    }\n                } else {\n                    i++;\n                }\n            }\n        }\n    }\n\n    function claimBlindBox2(uint256 _limit) public {\n        require(eventEndTime < block.timestamp, \"The event is not over yet\");\n\n        if (blindBoxPool.length == 0) return;\n\n        uint256 limit = 300;\n        if (_limit != 0) {\n            limit = _limit;\n        }\n\n        uint256 j = 0;\n        bytes memory data = new bytes(1);\n        for (uint256 i = blindBoxPool.length - 1; j < limit; j++) {\n            BlindBox storage bb = _blindBoxs[blindBoxTypes[blindBoxPool[i]]];\n            openBoxCounts[bb.creator] += 1;\n            blindBoxPool.pop();\n\n            if (bb.prizeType == PrizeType.ERC20) {\n                IERC20(bb.token).transfer(bb.creator, bb.amount);\n            } else if (bb.prizeType == PrizeType.ERC721) {\n                IERC721(bb.token).safeTransferFrom(address(this), bb.creator, bb.nftId);\n            } else if (bb.prizeType == PrizeType.ERC1155) {\n                IERC1155(bb.token).safeTransferFrom(address(this), bb.creator, bb.nftId, bb.amount, data);\n            }\n\n            if (blindBoxPool.length == 0) break;\n            i = blindBoxPool.length - 1;\n        }\n    }\n\n    function getUserOpendBox(\n        address user,\n        uint256 startIndex,\n        uint256 lastIndex\n    )\n        public\n        view\n        returns (\n            uint256[] memory boxIds,\n            BlindBox[] memory boxes,\n            uint16[] memory weights\n        )\n    {\n        require(startIndex < lastIndex, \"Wrong index param\");\n        uint256[] memory ids = userOpenBoxs[user];\n        if (ids.length == 0) {\n            return (boxIds, boxes, weights);\n        }\n        uint256 len = ids.length;\n        if (len <= startIndex) {\n            return (boxIds, boxes, weights);\n        }\n        if (len <= lastIndex) {\n            lastIndex = len;\n        }\n        boxes = new BlindBox[](lastIndex - startIndex);\n        weights = new uint16[](lastIndex - startIndex);\n        boxIds = new uint256[](lastIndex - startIndex);\n        uint256 i = 0;\n        for (uint256 j = startIndex; j < lastIndex; j++) {\n            boxes[i] = _blindBoxs[blindBoxTypes[ids[j]]];\n            weights[i] = blindBoxsWeights[ids[j]];\n            boxIds[i] = ids[j];\n            i++;\n        }\n        return (boxIds, boxes, weights);\n    }\n\n    function getBoxsByIds(uint256[] memory ids) public view returns (BlindBox[] memory boxes, uint16[] memory weights) {\n        if (ids.length == 0) {\n            return (boxes, weights);\n        }\n        boxes = new BlindBox[](ids.length);\n        weights = new uint16[](ids.length);\n        for (uint256 i = 0; i < ids.length; i++) {\n            boxes[i] = _blindBoxs[blindBoxTypes[ids[i]]];\n            weights[i] = blindBoxsWeights[ids[i]];\n        }\n        return (boxes, weights);\n    }\n\n    function onERC721Received(\n        address,\n        address,\n        uint256,\n        bytes calldata\n    ) public pure override returns (bytes4) {\n        return IERC721Receiver.onERC721Received.selector;\n    }\n\n    function onERC1155Received(\n        address,\n        address,\n        uint256,\n        uint256,\n        bytes calldata\n    ) public pure override returns (bytes4) {\n        return IERC1155Receiver.onERC1155Received.selector;\n    }\n\n    function onERC1155BatchReceived(\n        address,\n        address,\n        uint256[] calldata,\n        uint256[] calldata,\n        bytes calldata\n    ) public pure override returns (bytes4) {\n        return 0;\n    }\n\n    function supportsInterface(bytes4 interfaceId) public pure override returns (bool) {\n        return interfaceId == type(IERC721Receiver).interfaceId || interfaceId == type(IERC1155Receiver).interfaceId;\n    }\n}\n",
  "sourcePath": "/Users/necklace/work/nutbox/nutbox-contract/contracts/CollectBless.sol",
  "compiler": {
    "name": "solc",
    "version": "0.8.7+commit.e28d00a7.Emscripten.clang"
  },
  "schemaVersion": "3.4.6",
  "updatedAt": "2023-01-15T09:41:55.888Z",
  "networkType": "ethereum",
  "devdoc": {
    "kind": "dev",
    "methods": {
      "owner()": {
        "details": "Returns the address of the current owner."
      },
      "renounceOwnership()": {
        "details": "Leaves the contract without owner. It will not be possible to call `onlyOwner` functions anymore. Can only be called by the current owner. NOTE: Renouncing ownership will leave the contract without an owner, thereby removing any functionality that is only available to the owner."
      },
      "supportsInterface(bytes4)": {
        "details": "Returns true if this contract implements the interface defined by `interfaceId`. See the corresponding https://eips.ethereum.org/EIPS/eip-165#how-interfaces-are-identified[EIP section] to learn more about how these ids are created. This function call must use less than 30 000 gas."
      },
      "transferOwnership(address)": {
        "details": "Transfers ownership of the contract to a new account (`newOwner`). Can only be called by the current owner."
      }
    },
    "version": 1
  },
  "userdoc": {
    "kind": "user",
    "methods": {
      "blessCard()": {
        "notice": "Bless card contract address"
      },
      "blindBoxPrice()": {
        "notice": "Blind box price"
      },
      "cashPrize()": {
        "notice": "Receive the total prize according to the weight obtained"
      },
      "claimBlindBox(uint256)": {
        "notice": "Claim an unopened blind box"
      },
      "eventEndTime()": {
        "notice": "Event end time"
      },
      "mintBox(address,uint256,uint256)": {
        "notice": "Create a token blind box"
      },
      "mintBoxCounts(address)": {
        "notice": "user address => count"
      },
      "mintBoxNFT1155(address,uint256,uint256)": {
        "notice": "Create ERC1155 NFT blind box"
      },
      "mintBoxNFT721(address,uint256)": {
        "notice": "Create a ERC721 NFT blind box"
      },
      "mintCard(address[],uint256[],uint256[])": {
        "notice": "Mint normal card"
      },
      "mintRareCard(uint256,address)": {
        "notice": "Mint Rare Cards"
      },
      "openBox(uint256)": {
        "notice": "Consume the card and open the blind box"
      },
      "openBoxCounts(address)": {
        "notice": "uaer address => count"
      },
      "prizePoolAmount()": {
        "notice": "Total Prize Pool Amount"
      },
      "prizePoolToken()": {
        "notice": "Prize pool token (USDT)"
      },
      "random()": {
        "notice": "Random contract address"
      },
      "rareCardCount()": {
        "notice": "The number of rare cards"
      },
      "rareCardPrice()": {
        "notice": "Rare card price"
      },
      "setBlindBoxPrice(uint256)": {
        "notice": "Set blind box price"
      },
      "setRareCardPrice(uint256)": {
        "notice": "Set rare card price"
      }
    },
    "version": 1
  }
}