{
  "contractName": "CollectBless",
  "abi": [
    {
      "anonymous": false,
      "inputs": [
        {
          "indexed": true,
          "internalType": "address",
          "name": "creator",
          "type": "address"
        },
        {
          "indexed": false,
          "internalType": "uint256[]",
          "name": "ids",
          "type": "uint256[]"
        }
      ],
      "name": "MintBox",
      "type": "event"
    },
    {
      "anonymous": false,
      "inputs": [
        {
          "indexed": true,
          "internalType": "address",
          "name": "user",
          "type": "address"
        },
        {
          "indexed": false,
          "internalType": "uint256[]",
          "name": "ids",
          "type": "uint256[]"
        }
      ],
      "name": "OpenBox",
      "type": "event"
    },
    {
      "anonymous": false,
      "inputs": [
        {
          "indexed": true,
          "internalType": "address",
          "name": "previousOwner",
          "type": "address"
        },
        {
          "indexed": true,
          "internalType": "address",
          "name": "newOwner",
          "type": "address"
        }
      ],
      "name": "OwnershipTransferred",
      "type": "event"
    },
    {
      "inputs": [
        {
          "internalType": "address",
          "name": "",
          "type": "address"
        }
      ],
      "name": "alreadyReceived",
      "outputs": [
        {
          "internalType": "uint256",
          "name": "",
          "type": "uint256"
        }
      ],
      "stateMutability": "view",
      "type": "function",
      "constant": true
    },
    {
      "inputs": [],
      "name": "blessCard",
      "outputs": [
        {
          "internalType": "contract ERC1155PresetMinterPauser",
          "name": "",
          "type": "address"
        }
      ],
      "stateMutability": "view",
      "type": "function",
      "constant": true
    },
    {
      "inputs": [],
      "name": "blindBoxCount",
      "outputs": [
        {
          "internalType": "uint256",
          "name": "",
          "type": "uint256"
        }
      ],
      "stateMutability": "view",
      "type": "function",
      "constant": true
    },
    {
      "inputs": [],
      "name": "blindBoxPrice",
      "outputs": [
        {
          "internalType": "uint256",
          "name": "",
          "type": "uint256"
        }
      ],
      "stateMutability": "view",
      "type": "function",
      "constant": true
    },
    {
      "inputs": [
        {
          "internalType": "uint256",
          "name": "",
          "type": "uint256"
        }
      ],
      "name": "blindBoxs",
      "outputs": [
        {
          "internalType": "uint256",
          "name": "id",
          "type": "uint256"
        },
        {
          "internalType": "enum CollectBless.PrizeType",
          "name": "prizeType",
          "type": "uint8"
        },
        {
          "internalType": "address",
          "name": "token",
          "type": "address"
        },
        {
          "internalType": "address",
          "name": "creator",
          "type": "address"
        },
        {
          "internalType": "uint16",
          "name": "weights",
          "type": "uint16"
        },
        {
          "internalType": "uint256",
          "name": "amount",
          "type": "uint256"
        },
        {
          "internalType": "uint256",
          "name": "nftId",
          "type": "uint256"
        },
        {
          "internalType": "uint256",
          "name": "seedBlock",
          "type": "uint256"
        }
      ],
      "stateMutability": "view",
      "type": "function",
      "constant": true
    },
    {
      "inputs": [],
      "name": "eventEndTime",
      "outputs": [
        {
          "internalType": "uint256",
          "name": "",
          "type": "uint256"
        }
      ],
      "stateMutability": "view",
      "type": "function",
      "constant": true
    },
    {
      "inputs": [
        {
          "internalType": "address",
          "name": "",
          "type": "address"
        }
      ],
      "name": "mintBoxCounts",
      "outputs": [
        {
          "internalType": "uint256",
          "name": "",
          "type": "uint256"
        }
      ],
      "stateMutability": "view",
      "type": "function",
      "constant": true
    },
    {
      "inputs": [
        {
          "internalType": "address",
          "name": "",
          "type": "address"
        }
      ],
      "name": "openBoxCounts",
      "outputs": [
        {
          "internalType": "uint256",
          "name": "",
          "type": "uint256"
        }
      ],
      "stateMutability": "view",
      "type": "function",
      "constant": true
    },
    {
      "inputs": [],
      "name": "owner",
      "outputs": [
        {
          "internalType": "address",
          "name": "",
          "type": "address"
        }
      ],
      "stateMutability": "view",
      "type": "function",
      "constant": true
    },
    {
      "inputs": [],
      "name": "prizePoolAmount",
      "outputs": [
        {
          "internalType": "uint256",
          "name": "",
          "type": "uint256"
        }
      ],
      "stateMutability": "view",
      "type": "function",
      "constant": true
    },
    {
      "inputs": [],
      "name": "prizePoolToken",
      "outputs": [
        {
          "internalType": "contract IERC20",
          "name": "",
          "type": "address"
        }
      ],
      "stateMutability": "view",
      "type": "function",
      "constant": true
    },
    {
      "inputs": [],
      "name": "random",
      "outputs": [
        {
          "internalType": "contract Random",
          "name": "",
          "type": "address"
        }
      ],
      "stateMutability": "view",
      "type": "function",
      "constant": true
    },
    {
      "inputs": [],
      "name": "rareCardCount",
      "outputs": [
        {
          "internalType": "uint256",
          "name": "",
          "type": "uint256"
        }
      ],
      "stateMutability": "view",
      "type": "function",
      "constant": true
    },
    {
      "inputs": [],
      "name": "rareCardPrice",
      "outputs": [
        {
          "internalType": "uint256",
          "name": "",
          "type": "uint256"
        }
      ],
      "stateMutability": "view",
      "type": "function",
      "constant": true
    },
    {
      "inputs": [],
      "name": "rareCradId",
      "outputs": [
        {
          "internalType": "uint256",
          "name": "",
          "type": "uint256"
        }
      ],
      "stateMutability": "view",
      "type": "function",
      "constant": true
    },
    {
      "inputs": [],
      "name": "renounceOwnership",
      "outputs": [],
      "stateMutability": "nonpayable",
      "type": "function"
    },
    {
      "inputs": [],
      "name": "totalWeights",
      "outputs": [
        {
          "internalType": "uint256",
          "name": "",
          "type": "uint256"
        }
      ],
      "stateMutability": "view",
      "type": "function",
      "constant": true
    },
    {
      "inputs": [
        {
          "internalType": "address",
          "name": "newOwner",
          "type": "address"
        }
      ],
      "name": "transferOwnership",
      "outputs": [],
      "stateMutability": "nonpayable",
      "type": "function"
    },
    {
      "inputs": [
        {
          "internalType": "address",
          "name": "",
          "type": "address"
        }
      ],
      "name": "userWeights",
      "outputs": [
        {
          "internalType": "uint256",
          "name": "",
          "type": "uint256"
        }
      ],
      "stateMutability": "view",
      "type": "function",
      "constant": true
    },
    {
      "inputs": [
        {
          "internalType": "address",
          "name": "",
          "type": "address"
        }
      ],
      "name": "whitelistId",
      "outputs": [
        {
          "internalType": "uint256",
          "name": "",
          "type": "uint256"
        }
      ],
      "stateMutability": "view",
      "type": "function",
      "constant": true
    },
    {
      "inputs": [],
      "name": "whitelistIdCount",
      "outputs": [
        {
          "internalType": "uint256",
          "name": "",
          "type": "uint256"
        }
      ],
      "stateMutability": "view",
      "type": "function",
      "constant": true
    },
    {
      "inputs": [
        {
          "internalType": "address",
          "name": "blessCardAddr",
          "type": "address"
        },
        {
          "internalType": "address",
          "name": "tokenAddr",
          "type": "address"
        },
        {
          "internalType": "address",
          "name": "randomAddr",
          "type": "address"
        },
        {
          "internalType": "uint256",
          "name": "endTime",
          "type": "uint256"
        }
      ],
      "name": "init",
      "outputs": [],
      "stateMutability": "nonpayable",
      "type": "function"
    },
    {
      "inputs": [
        {
          "internalType": "uint256",
          "name": "price",
          "type": "uint256"
        }
      ],
      "name": "setRareCardPrice",
      "outputs": [],
      "stateMutability": "nonpayable",
      "type": "function"
    },
    {
      "inputs": [
        {
          "internalType": "uint256",
          "name": "price",
          "type": "uint256"
        }
      ],
      "name": "setBlindBoxPrice",
      "outputs": [],
      "stateMutability": "nonpayable",
      "type": "function"
    },
    {
      "inputs": [
        {
          "internalType": "uint256",
          "name": "newTime",
          "type": "uint256"
        }
      ],
      "name": "setEventEndTime",
      "outputs": [],
      "stateMutability": "nonpayable",
      "type": "function"
    },
    {
      "inputs": [
        {
          "internalType": "address",
          "name": "user",
          "type": "address"
        }
      ],
      "name": "getUserOpenBoxs",
      "outputs": [
        {
          "internalType": "uint256[]",
          "name": "",
          "type": "uint256[]"
        }
      ],
      "stateMutability": "view",
      "type": "function",
      "constant": true
    },
    {
      "inputs": [
        {
          "internalType": "address",
          "name": "token",
          "type": "address"
        },
        {
          "internalType": "uint256",
          "name": "quantity",
          "type": "uint256"
        },
        {
          "internalType": "uint256",
          "name": "totalAmount",
          "type": "uint256"
        }
      ],
      "name": "mintBox",
      "outputs": [],
      "stateMutability": "nonpayable",
      "type": "function"
    },
    {
      "inputs": [
        {
          "internalType": "address",
          "name": "addr",
          "type": "address"
        },
        {
          "internalType": "uint256",
          "name": "nftId",
          "type": "uint256"
        }
      ],
      "name": "mintBoxNFT721",
      "outputs": [],
      "stateMutability": "nonpayable",
      "type": "function"
    },
    {
      "inputs": [
        {
          "internalType": "address",
          "name": "addr",
          "type": "address"
        },
        {
          "internalType": "uint256",
          "name": "nftId",
          "type": "uint256"
        },
        {
          "internalType": "uint256",
          "name": "quantity",
          "type": "uint256"
        }
      ],
      "name": "mintBoxNFT1155",
      "outputs": [],
      "stateMutability": "nonpayable",
      "type": "function"
    },
    {
      "inputs": [
        {
          "internalType": "uint256",
          "name": "quantity",
          "type": "uint256"
        }
      ],
      "name": "mintWhitelistNFT",
      "outputs": [],
      "stateMutability": "nonpayable",
      "type": "function"
    },
    {
      "inputs": [
        {
          "internalType": "uint256",
          "name": "quantity",
          "type": "uint256"
        },
        {
          "internalType": "address",
          "name": "to",
          "type": "address"
        }
      ],
      "name": "mintRareCard",
      "outputs": [],
      "stateMutability": "nonpayable",
      "type": "function"
    },
    {
      "inputs": [
        {
          "internalType": "address[]",
          "name": "tos",
          "type": "address[]"
        },
        {
          "internalType": "uint256[]",
          "name": "quantities",
          "type": "uint256[]"
        }
      ],
      "name": "mintRareCardBatch",
      "outputs": [],
      "stateMutability": "nonpayable",
      "type": "function"
    },
    {
      "inputs": [
        {
          "internalType": "address[]",
          "name": "tos",
          "type": "address[]"
        },
        {
          "internalType": "uint256[]",
          "name": "ids",
          "type": "uint256[]"
        },
        {
          "internalType": "uint256[]",
          "name": "quantities",
          "type": "uint256[]"
        }
      ],
      "name": "mintCard",
      "outputs": [],
      "stateMutability": "nonpayable",
      "type": "function"
    },
    {
      "inputs": [
        {
          "internalType": "uint256",
          "name": "quantity",
          "type": "uint256"
        }
      ],
      "name": "openBox",
      "outputs": [],
      "stateMutability": "nonpayable",
      "type": "function"
    },
    {
      "inputs": [],
      "name": "cashPrize",
      "outputs": [],
      "stateMutability": "nonpayable",
      "type": "function"
    },
    {
      "inputs": [
        {
          "internalType": "uint256",
          "name": "_limit",
          "type": "uint256"
        }
      ],
      "name": "claimBlindBox",
      "outputs": [],
      "stateMutability": "nonpayable",
      "type": "function"
    },
    {
      "inputs": [
        {
          "internalType": "uint256",
          "name": "_limit",
          "type": "uint256"
        }
      ],
      "name": "claimBlindBox2",
      "outputs": [],
      "stateMutability": "nonpayable",
      "type": "function"
    },
    {
      "inputs": [
        {
          "internalType": "address",
          "name": "user",
          "type": "address"
        },
        {
          "internalType": "uint256",
          "name": "startIndex",
          "type": "uint256"
        },
        {
          "internalType": "uint256",
          "name": "lastIndex",
          "type": "uint256"
        }
      ],
      "name": "getUserOpendBox",
      "outputs": [
        {
          "components": [
            {
              "internalType": "uint256",
              "name": "id",
              "type": "uint256"
            },
            {
              "internalType": "enum CollectBless.PrizeType",
              "name": "prizeType",
              "type": "uint8"
            },
            {
              "internalType": "address",
              "name": "token",
              "type": "address"
            },
            {
              "internalType": "address",
              "name": "creator",
              "type": "address"
            },
            {
              "internalType": "uint16",
              "name": "weights",
              "type": "uint16"
            },
            {
              "internalType": "uint256",
              "name": "amount",
              "type": "uint256"
            },
            {
              "internalType": "uint256",
              "name": "nftId",
              "type": "uint256"
            },
            {
              "internalType": "uint256",
              "name": "seedBlock",
              "type": "uint256"
            }
          ],
          "internalType": "struct CollectBless.BlindBox[]",
          "name": "boxes",
          "type": "tuple[]"
        }
      ],
      "stateMutability": "view",
      "type": "function",
      "constant": true
    },
    {
      "inputs": [
        {
          "internalType": "address",
          "name": "",
          "type": "address"
        },
        {
          "internalType": "address",
          "name": "",
          "type": "address"
        },
        {
          "internalType": "uint256",
          "name": "",
          "type": "uint256"
        },
        {
          "internalType": "bytes",
          "name": "",
          "type": "bytes"
        }
      ],
      "name": "onERC721Received",
      "outputs": [
        {
          "internalType": "bytes4",
          "name": "",
          "type": "bytes4"
        }
      ],
      "stateMutability": "pure",
      "type": "function",
      "constant": true
    },
    {
      "inputs": [
        {
          "internalType": "address",
          "name": "",
          "type": "address"
        },
        {
          "internalType": "address",
          "name": "",
          "type": "address"
        },
        {
          "internalType": "uint256",
          "name": "",
          "type": "uint256"
        },
        {
          "internalType": "uint256",
          "name": "",
          "type": "uint256"
        },
        {
          "internalType": "bytes",
          "name": "",
          "type": "bytes"
        }
      ],
      "name": "onERC1155Received",
      "outputs": [
        {
          "internalType": "bytes4",
          "name": "",
          "type": "bytes4"
        }
      ],
      "stateMutability": "pure",
      "type": "function",
      "constant": true
    },
    {
      "inputs": [
        {
          "internalType": "address",
          "name": "",
          "type": "address"
        },
        {
          "internalType": "address",
          "name": "",
          "type": "address"
        },
        {
          "internalType": "uint256[]",
          "name": "",
          "type": "uint256[]"
        },
        {
          "internalType": "uint256[]",
          "name": "",
          "type": "uint256[]"
        },
        {
          "internalType": "bytes",
          "name": "",
          "type": "bytes"
        }
      ],
      "name": "onERC1155BatchReceived",
      "outputs": [
        {
          "internalType": "bytes4",
          "name": "",
          "type": "bytes4"
        }
      ],
      "stateMutability": "pure",
      "type": "function",
      "constant": true
    },
    {
      "inputs": [
        {
          "internalType": "bytes4",
          "name": "interfaceId",
          "type": "bytes4"
        }
      ],
      "name": "supportsInterface",
      "outputs": [
        {
          "internalType": "bool",
          "name": "",
          "type": "bool"
        }
      ],
      "stateMutability": "pure",
      "type": "function",
      "constant": true
    }
  ],
  "bytecode": "0x6702c68af0bb1400006005908155670de0b6b3a764000060065560006008819055600a818155600b91909155601082905561012060405260016080908152600260a052600360c05260e083905261010091909152620000629160129190620000ed565b50600060145560636017553480156200007a57600080fd5b506200008f6200008962000099565b6200009d565b60018055620001a1565b3390565b600080546001600160a01b038381166001600160a01b0319831681178455604051919092169283917f8be0079c531659141344cd1fd0a4f28419497f9722a3daafe3b4186f6b6457e09190a35050565b600183019183908215620001785791602002820160005b838211156200014657835183826101000a81548161ffff021916908361ffff160217905550926020019260020160208160010104928301926001030262000104565b8015620001765782816101000a81549061ffff021916905560020160208160010104928301926001030262000146565b505b50620001869291506200018a565b5090565b5b808211156200018657600081556001016200018b565b61462980620001b16000396000f3fe608060405234801561001057600080fd5b506004361061025e5760003560e01c80638da5cb5b11610146578063dd3c627d116100c3578063f23a6e6111610087578063f23a6e61146104ed578063f2fde38b14610500578063f7b5e31714610513578063f84d13ef1461051b578063fc01b0a21461052e578063fd4ab46d146105415761025e565b8063dd3c627d14610490578063e316404414610498578063e8efab93146104ab578063edea9555146104be578063f016582c146104c65761025e565b8063b58067ab1161010a578063b58067ab14610447578063b78ef0b91461045a578063bc197c811461046d578063c4fbc2b214610480578063d6bd5db1146104885761025e565b80638da5cb5b14610409578063926323d514610411578063a2011d9114610419578063b1648dad1461042c578063b1e5e2b7146104345761025e565b80633c888412116101df5780635ec01e4d116101a35780635ec01e4d14610393578063623ec92b146103a8578063715018a6146103c8578063745b08bf146103d057806383e4f941146103e357806383e8e3e5146103f65761025e565b80633c8884121461033457806346639dba14610347578063534fb2461461035a578063556a6d8a1461036d5780635e7ff0cc146103805761025e565b8063150b7a0211610226578063150b7a02146102c657806318f27707146102e657806324a257ae146102ee5780632583fd231461030157806327109641146103215761025e565b806301ffc9a714610263578063043f6b631461028c5780630d080bda146102a15780630f8202d6146102b457806311e80b85146102bc575b600080fd5b610276610271366004613c41565b610549565b6040516102839190613fba565b60405180910390f35b610294610582565b6040516102839190613fda565b6102946102af3660046138d0565b610588565b61029461059a565b6102c46105a0565b005b6102d96102d43660046139ea565b6106e7565b6040516102839190613fc5565b6102946106f8565b6102c46102fc366004613c81565b6106fe565b61031461030f366004613af4565b610896565b6040516102839190613eff565b61029461032f3660046138d0565b610b14565b6102c4610342366004613c69565b610b26565b6102c46103553660046138ea565b610ea1565b6102c4610368366004613b86565b6110f5565b61029461037b3660046138d0565b61139c565b6102c461038e366004613c69565b6113ae565b61039b611791565b6040516102839190613e06565b6103bb6103b63660046138d0565b6117a0565b6040516102839190613fa7565b6102c461180c565b6102c46103de366004613af4565b611857565b6102946103f13660046138d0565b611bb8565b6102c4610404366004613c69565b611bca565b61039b611c0e565b610294611c1d565b6102c4610427366004613acb565b611c23565b610294611ed4565b6102c4610442366004613c69565b611eda565b6102c4610455366004613b26565b61237a565b6102c4610468366004613af4565b612609565b6102d961047b366004613934565b612948565b610294612956565b61029461295c565b61039b612962565b6102946104a63660046138d0565b612971565b6102c46104b9366004613c69565b612983565b6102946129c7565b6104d96104d4366004613c69565b6129cd565b60405161028398979695949392919061445e565b6102d96104fb366004613a56565b612a24565b6102c461050e3660046138d0565b612a36565b610294612aa4565b6102c4610529366004613c69565b612aaa565b6102c461053c366004613c69565b612aee565b61039b612e41565b60006001600160e01b03198216630a85bd0160e11b148061057a57506001600160e01b03198216630271189760e51b145b90505b919050565b60175481565b600d6020526000908152604090205481565b600b5481565b42600754106105ca5760405162461bcd60e51b81526004016105c190614243565b60405180910390fd5b6000601454116105ec5760405162461bcd60e51b81526004016105c1906143a7565b33600090815260156020526040902054156106195760405162461bcd60e51b81526004016105c190614186565b601454336000908152600f6020526040812054600b5491929161063c919061452c565b6106469190614518565b905080156106e457336000818152601560205260409081902083905560048054915163a9059cbb60e01b81526001600160a01b039092169263a9059cbb9261069092869101613eb9565b602060405180830381600087803b1580156106aa57600080fd5b505af11580156106be573d6000803e3d6000fd5b505050506040513d601f19601f820116820180604052508101906106e29190613c09565b505b50565b630a85bd0160e11b95945050505050565b60105481565b426007541161071f5760405162461bcd60e51b81526004016105c19061443b565b6000821161073f5760405162461bcd60e51b81526004016105c190614378565b60008260055461074f919061452c565b600480546040516323b872dd60e01b81529293506001600160a01b0316916323b872dd916107839133913091879101613e1a565b602060405180830381600087803b15801561079d57600080fd5b505af11580156107b1573d6000803e3d6000fd5b505050506040513d601f19601f820116820180604052508101906107d59190613c09565b50604080516001808252818301909252600091602082018180368337505060035460105460405163731133e960e01b81529394506001600160a01b039091169263731133e9925061082e91879189908790600401613ed2565b600060405180830381600087803b15801561084857600080fd5b505af115801561085c573d6000803e3d6000fd5b5050505081600b60008282546108729190614500565b92505081905550836008600082825461088b9190614500565b909155505050505050565b60608183106108b75760405162461bcd60e51b81526004016105c1906142ec565b6001600160a01b0384166000908152600e602090815260408083208054825181850281018501909352808352919290919083018282801561091757602002820191906000526020600020905b815481526020019060010190808311610903575b5050505050905080516000141561092e5750610b0d565b805184811161093e575050610b0d565b838111610949578093505b610953858561454b565b6001600160401b0381111561097857634e487b7160e01b600052604160045260246000fd5b6040519080825280602002602001820160405280156109b157816020015b61099e61371f565b8152602001906001900390816109965790505b5092506000855b85811015610b0857600960008583815181106109e457634e487b7160e01b600052603260045260246000fd5b6020026020010151815260200190815260200160002060405180610100016040529081600082015481526020016001820160009054906101000a900460ff166003811115610a4257634e487b7160e01b600052602160045260246000fd5b6003811115610a6157634e487b7160e01b600052602160045260246000fd5b8152600182015461010090046001600160a01b03908116602083015260028301549081166040830152600160a01b900461ffff16606082015260038201546080820152600482015460a082015260059091015460c0909101528551869084908110610adc57634e487b7160e01b600052603260045260246000fd5b60200260200101819052508180610af290614562565b9250508080610b0090614562565b9150506109b8565b505050505b9392505050565b60156020526000908152604090205481565b4260075410610b475760405162461bcd60e51b81526004016105c19061426e565b61012c8115610b535750805b6040805160018082528183019092526000918291906020820181803683375050601354919250600091610b89915060019061454b565b90505b8383108015610b9c575060008112155b15610e9a5760006009600060138481548110610bc857634e487b7160e01b600052603260045260246000fd5b60009182526020808320909101548352828101939093526040918201812060028101546001600160a01b03168252600d9093529081208054929350600192909190610c14908490614500565b90915550506013805480610c3857634e487b7160e01b600052603160045260246000fd5b600190038181906000526020600020016000905590556001601380549050610c60919061454b565b915060018082015460ff166003811115610c8a57634e487b7160e01b600052602160045260246000fd5b1415610d2a5760018101546002820154600383015460405163a9059cbb60e01b81526001600160a01b0361010090940484169363a9059cbb93610cd293911691600401613eb9565b602060405180830381600087803b158015610cec57600080fd5b505af1158015610d00573d6000803e3d6000fd5b505050506040513d601f19601f82011682018060405250810190610d249190613c09565b50610e87565b6002600182015460ff166003811115610d5357634e487b7160e01b600052602160045260246000fd5b1415610dd75760018101546002820154600480840154604051632142170760e11b81526001600160a01b036101009095048516946342842e0e94610da09430949190921692909101613e1a565b600060405180830381600087803b158015610dba57600080fd5b505af1158015610dce573d6000803e3d6000fd5b50505050610e87565b6003600182015460ff166003811115610e0057634e487b7160e01b600052602160045260246000fd5b1415610e8757600181015460028201546004808401546003850154604051637921219560e11b81526101009095046001600160a01b039081169563f242432a95610e549530959390911693918b9101613e3e565b600060405180830381600087803b158015610e6e57600080fd5b505af1158015610e82573d6000803e3d6000fd5b505050505b5082610e9281614562565b935050610b8c565b5050505050565b610ea9612e50565b6001600160a01b0316610eba611c0e565b6001600160a01b031614610ee05760405162461bcd60e51b81526004016105c190614343565b6003546001600160a01b031615610f095760405162461bcd60e51b81526004016105c1906141e9565b6001600160a01b038416610f2f5760405162461bcd60e51b81526004016105c1906142a5565b6001600160a01b038216610f555760405162461bcd60e51b81526004016105c190613fe3565b6001600160a01b038316610f7b5760405162461bcd60e51b81526004016105c19061401a565b428111610f9a5760405162461bcd60e51b81526004016105c190614317565b600380546001600160a01b038087166001600160a01b0319928316179092556002805485841690831617815560078490556004805487851693169290921782556011805460018181018355600083815260327f31ecc21a745e3968a04e9570e4425bc18fa8019c68028196b546d1669c200c68938401558354808301855560149084015583548083018555600f9084015583548083018555600a90840155835491820190935560059101559054604051633352da4560e21b81529193169163cd4b69149161106a91859101613fda565b602060405180830381600087803b15801561108457600080fd5b505af1158015611098573d6000803e3d6000fd5b505050506040513d601f19601f820116820180604052508101906110bc9190613c29565b9050601654816040516020016110d3929190613d53565b60408051601f1981840301815291905280516020909101206016555050505050565b6110fd612e50565b6001600160a01b031661110e611c0e565b6001600160a01b0316146111345760405162461bcd60e51b81526004016105c190614343565b42600754116111555760405162461bcd60e51b81526004016105c19061443b565b60008351116111765760405162461bcd60e51b81526004016105c1906141bd565b81518351146111975760405162461bcd60e51b81526004016105c19061415a565b80518351146111b85760405162461bcd60e51b81526004016105c19061415a565b60408051600180825281830190925260009160208201818036833701905050905060005b8451811015610e9a57600083828151811061120757634e487b7160e01b600052603260045260246000fd5b60200260200101511161122c5760405162461bcd60e51b81526004016105c190614378565b600184828151811061124e57634e487b7160e01b600052603260045260246000fd5b60200260200101511015801561128c5750600484828151811061128157634e487b7160e01b600052603260045260246000fd5b602002602001015111155b6112a85760405162461bcd60e51b81526004016105c1906140ff565b60035485516001600160a01b039091169063731133e9908790849081106112df57634e487b7160e01b600052603260045260246000fd5b602002602001015186848151811061130757634e487b7160e01b600052603260045260246000fd5b602002602001015186858151811061132f57634e487b7160e01b600052603260045260246000fd5b6020026020010151866040518563ffffffff1660e01b81526004016113579493929190613ed2565b600060405180830381600087803b15801561137157600080fd5b505af1158015611385573d6000803e3d6000fd5b50505050808061139490614562565b9150506111dc565b600f6020526000908152604090205481565b42600754106113cf5760405162461bcd60e51b81526004016105c19061426e565b61012c81156113db5750805b336000908152600d6020908152604080832054600c909252822054611400919061454b565b11156106e25760408051600180825281830190925260009182919060208201818036833701905050905060005b838310801561143d575060135481105b15610e9a576000600960006013848154811061146957634e487b7160e01b600052603260045260246000fd5b60009182526020808320909101548352820192909252604001902060028101549091506001600160a01b031633141561177057336000908152600d602052604081208054600192906114bc908490614500565b9091555050601380546114d19060019061454b565b815481106114ef57634e487b7160e01b600052603260045260246000fd5b90600052602060002001546013838154811061151b57634e487b7160e01b600052603260045260246000fd5b600091825260209091200155601380548061154657634e487b7160e01b600052603160045260246000fd5b60008281526020812082016000199081019190915501905560018082015460ff16600381111561158657634e487b7160e01b600052602160045260246000fd5b1415611620576001810154600382015460405163a9059cbb60e01b81526101009092046001600160a01b03169163a9059cbb916115c891339190600401613eb9565b602060405180830381600087803b1580156115e257600080fd5b505af11580156115f6573d6000803e3d6000fd5b505050506040513d601f19601f8201168201806040525081019061161a9190613c09565b5061176b565b6002600182015460ff16600381111561164957634e487b7160e01b600052602160045260246000fd5b14156116c2576001810154600480830154604051632142170760e11b81526101009093046001600160a01b0316926342842e0e9261168b923092339201613e1a565b600060405180830381600087803b1580156116a557600080fd5b505af11580156116b9573d6000803e3d6000fd5b5050505061176b565b6003600182015460ff1660038111156116eb57634e487b7160e01b600052602160045260246000fd5b141561176b5760018101546004808301546003840154604051637921219560e11b81526101009094046001600160a01b03169363f242432a936117389330933393919290918b9101613e3e565b600060405180830381600087803b15801561175257600080fd5b505af1158015611766573d6000803e3d6000fd5b505050505b61177e565b8161177a81614562565b9250505b508261178981614562565b93505061142d565b6002546001600160a01b031681565b6001600160a01b0381166000908152600e602090815260409182902080548351818402810184019094528084526060939283018282801561180057602002820191906000526020600020905b8154815260200190600101908083116117ec575b50505050509050919050565b611814612e50565b6001600160a01b0316611825611c0e565b6001600160a01b03161461184b5760405162461bcd60e51b81526004016105c190614343565b6118556000612e54565b565b42600754116118785760405162461bcd60e51b81526004016105c19061443b565b6001600160a01b03831661189e5760405162461bcd60e51b81526004016105c190614123565b60018110156118bf5760405162461bcd60e51b81526004016105c190614378565b6040805160018082528183019092526000916020820181803683375050604051637921219560e11b8152919250506001600160a01b0385169063f242432a906119149033903090889088908890600401613e3e565b600060405180830381600087803b15801561192e57600080fd5b505af1158015611942573d6000803e3d6000fd5b50505050600082600654611956919061452c565b600480546040516323b872dd60e01b81529293506001600160a01b0316916323b872dd9161198a9133913091879101613e1a565b602060405180830381600087803b1580156119a457600080fd5b505af11580156119b8573d6000803e3d6000fd5b505050506040513d601f19601f820116820180604052508101906119dc9190613c09565b5080600b60008282546119ef9190614500565b9091555050336000908152600c602052604081208054859290611a13908490614500565b9091555060009050836001600160401b03811115611a4157634e487b7160e01b600052604160045260246000fd5b604051908082528060200260200182016040528015611a6a578160200160208202803683370190505b50905060005b84811015611b6e576001600a6000828254611a8b9190614500565b92505081905550600a54828281518110611ab557634e487b7160e01b600052603260045260246000fd5b602090810291909101810191909152600a5460008181526009909252604090912090815560018082018054600284018054336001600160a01b0319909116179055610100600160a81b031960ff19909116600317166101006001600160a01b038c1602179055611b26904390614500565b60058201556001600382018190556004820188905590546013805492830181556000526000805160206145d48339815191529091015580611b6681614562565b915050611a70565b50336001600160a01b03167fce5825d66b093769cf76ee2d1360fb23bafc198cfcf066e4575796001447df1082604051611ba89190613fa7565b60405180910390a2505050505050565b60186020526000908152604090205481565b611bd2612e50565b6001600160a01b0316611be3611c0e565b6001600160a01b031614611c095760405162461bcd60e51b81526004016105c190614343565b600555565b6000546001600160a01b031690565b60145481565b4260075411611c445760405162461bcd60e51b81526004016105c19061443b565b6001600160a01b038216611c6a5760405162461bcd60e51b81526004016105c190614123565b600480546006546040516323b872dd60e01b81526001600160a01b03909216926323b872dd92611c9e923392309201613e1a565b602060405180830381600087803b158015611cb857600080fd5b505af1158015611ccc573d6000803e3d6000fd5b505050506040513d601f19601f82011682018060405250810190611cf09190613c09565b50604051632142170760e11b81526001600160a01b038316906342842e0e90611d2190339030908690600401613e1a565b600060405180830381600087803b158015611d3b57600080fd5b505af1158015611d4f573d6000803e3d6000fd5b50505050600654600b6000828254611d679190614500565b9091555050336000908152600c60205260408120805460019290611d8c908490614500565b925050819055506001600a6000828254611da69190614500565b9091555050600a54600081815260096020526040902090815560018082018054600280850180546001600160a01b031916331790556001600160a01b0387166101000260ff1990921617610100600160a81b031916179055611e09904390614500565b600582015560048101829055600a54601380546001818101835560009283526000805160206145d48339815191529091019290925560408051838152808201909152909160208083019080368337019050509050600a5481600081518110611e8157634e487b7160e01b600052603260045260246000fd5b602002602001018181525050336001600160a01b03167fce5825d66b093769cf76ee2d1360fb23bafc198cfcf066e4575796001447df1082604051611ec69190613fa7565b60405180910390a250505050565b60085481565b4260075411611efb5760405162461bcd60e51b81526004016105c19061443b565b60008111611f1b5760405162461bcd60e51b81526004016105c190614378565b600a811115611f3c5760405162461bcd60e51b81526004016105c190614216565b60408051600580825260c082019092526000916020820160a080368337019050509050600181600081518110611f8257634e487b7160e01b600052603260045260246000fd5b602002602001018181525050600281600181518110611fb157634e487b7160e01b600052603260045260246000fd5b602002602001018181525050600381600281518110611fe057634e487b7160e01b600052603260045260246000fd5b60200260200101818152505060048160038151811061200f57634e487b7160e01b600052603260045260246000fd5b6020026020010181815250506010548160048151811061203f57634e487b7160e01b600052603260045260246000fd5b602090810291909101015260408051600580825260c08201909252600091816020016020820280368337019050509050828160008151811061209157634e487b7160e01b600052603260045260246000fd5b60200260200101818152505082816001815181106120bf57634e487b7160e01b600052603260045260246000fd5b60200260200101818152505082816002815181106120ed57634e487b7160e01b600052603260045260246000fd5b602002602001018181525050828160038151811061211b57634e487b7160e01b600052603260045260246000fd5b602002602001018181525050828160048151811061214957634e487b7160e01b600052603260045260246000fd5b6020908102919091010152600354604051631ac8311560e21b81526001600160a01b0390911690636b20c4549061218890339086908690600401613e83565b600060405180830381600087803b1580156121a257600080fd5b505af11580156121b6573d6000803e3d6000fd5b5050505082600860008282546121cc919061454b565b9091555060009050836001600160401b038111156121fa57634e487b7160e01b600052604160045260246000fd5b604051908082528060200260200182016040528015612223578160200160208202803683370190505b50600254604051633352da4560e21b81529192506000916001600160a01b039091169063cd4b69149061225a908490600401613fda565b602060405180830381600087803b15801561227457600080fd5b505af1158015612288573d6000803e3d6000fd5b505050506040513d601f19601f820116820180604052508101906122ac9190613c29565b9050601654816040516020016122c3929190613d53565b60408051601f19818403018152919052805160209091012060165560005b85811015612331576122f4338284612ea4565b83828151811061231457634e487b7160e01b600052603260045260246000fd5b60209081029190910101528061232981614562565b9150506122e1565b50336001600160a01b03167f4754632d5b70be4aeb46cfde2a5fbcc5793264e0905a9a280b8b971c3a6a89d98360405161236b9190613fa7565b60405180910390a25050505050565b6002600154141561239d5760405162461bcd60e51b81526004016105c190614404565b600260015560075442106123c35760405162461bcd60e51b81526004016105c19061443b565b80518251146123e45760405162461bcd60e51b81526004016105c1906140d8565b60408051600180825281830190925260009182919060208201818036833701905050905060005b84518110156125615783818151811061243457634e487b7160e01b600052603260045260246000fd5b6020026020010151600554612449919061452c565b6124539084614500565b60035486519194506001600160a01b03169063731133e99087908490811061248b57634e487b7160e01b600052603260045260246000fd5b60200260200101516010548785815181106124b657634e487b7160e01b600052603260045260246000fd5b6020026020010151866040518563ffffffff1660e01b81526004016124de9493929190613ed2565b600060405180830381600087803b1580156124f857600080fd5b505af115801561250c573d6000803e3d6000fd5b5050505083818151811061253057634e487b7160e01b600052603260045260246000fd5b6020026020010151600860008282546125499190614500565b9091555081905061255981614562565b91505061240b565b50600480546040516323b872dd60e01b81526001600160a01b03909116916323b872dd916125959133913091889101613e1a565b602060405180830381600087803b1580156125af57600080fd5b505af11580156125c3573d6000803e3d6000fd5b505050506040513d601f19601f820116820180604052508101906125e79190613c09565b5081600b60008282546125fa9190614500565b90915550506001805550505050565b426007541161262a5760405162461bcd60e51b81526004016105c19061443b565b6001600160a01b0383166126505760405162461bcd60e51b81526004016105c190614063565b600182116126705760405162461bcd60e51b81526004016105c190614378565b600061267c8383614518565b90506001811161269e5760405162461bcd60e51b81526004016105c1906143cd565b6001600160a01b0384166323b872dd33306126b9878661452c565b6040518463ffffffff1660e01b81526004016126d793929190613e1a565b602060405180830381600087803b1580156126f157600080fd5b505af1158015612705573d6000803e3d6000fd5b505050506040513d601f19601f820116820180604052508101906127299190613c09565b5060008360065461273a919061452c565b600480546040516323b872dd60e01b81529293506001600160a01b0316916323b872dd9161276e9133913091879101613e1a565b602060405180830381600087803b15801561278857600080fd5b505af115801561279c573d6000803e3d6000fd5b505050506040513d601f19601f820116820180604052508101906127c09190613c09565b5080600b60008282546127d39190614500565b9091555050336000908152600c6020526040812080548692906127f7908490614500565b9091555060009050846001600160401b0381111561282557634e487b7160e01b600052604160045260246000fd5b60405190808252806020026020018201604052801561284e578160200160208202803683370190505b50905060005b85811015611b6e576001600a600082825461286f9190614500565b92505081905550600a5482828151811061289957634e487b7160e01b600052603260045260246000fd5b602090810291909101810191909152600a54600081815260099092526040909120908155600180820180546002840180546001600160a01b031916331790556001600160a01b038b166101000260ff199091168317610100600160a81b031916179055612907904390614500565b6005820155600301849055600a54601380546001810182556000919091526000805160206145d483398151915201558061294081614562565b915050612854565b600098975050505050505050565b60055481565b60075481565b6003546001600160a01b031681565b600c6020526000908152604090205481565b61298b612e50565b6001600160a01b031661299c611c0e565b6001600160a01b0316146129c25760405162461bcd60e51b81526004016105c190614343565b600755565b600a5481565b600960205260009081526040902080546001820154600283015460038401546004850154600590950154939460ff8416946001600160a01b0361010090950485169484169361ffff600160a01b9091041692919088565b63f23a6e6160e01b9695505050505050565b612a3e612e50565b6001600160a01b0316612a4f611c0e565b6001600160a01b031614612a755760405162461bcd60e51b81526004016105c190614343565b6001600160a01b038116612a9b5760405162461bcd60e51b81526004016105c190614092565b6106e481612e54565b60065481565b612ab2612e50565b6001600160a01b0316612ac3611c0e565b6001600160a01b031614612ae95760405162461bcd60e51b81526004016105c190614343565b600655565b6001811015612b0f5760405162461bcd60e51b81526004016105c190614378565b600081600654612b1f919061452c565b600480546040516323b872dd60e01b81529293506001600160a01b0316916323b872dd91612b539133913091879101613e1a565b602060405180830381600087803b158015612b6d57600080fd5b505af1158015612b81573d6000803e3d6000fd5b505050506040513d601f19601f82011682018060405250810190612ba59190613c09565b5080600b6000828254612bb89190614500565b9091555050336000908152600c602052604081208054849290612bdc908490614500565b90915550503360009081526018602052604090205480612c2657600160176000828254612c099190614500565b909155505060175433600090815260186020526040902081905590505b6000836001600160401b03811115612c4e57634e487b7160e01b600052604160045260246000fd5b604051908082528060200260200182016040528015612c77578160200160208202803683370190505b50905060005b84811015612d80576001600a6000828254612c989190614500565b92505081905550600a54828281518110612cc257634e487b7160e01b600052603260045260246000fd5b602090810291909101810191909152600a5460008181526009909252604090912090815560018082018054600360ff1990911681178083556002850180546001600160a01b0319163317905590546001600160a01b031661010002610100600160a81b0319909116179055612d38904390614500565b60058201556001600382018190556004820185905590546013805492830181556000526000805160206145d48339815191529091015580612d7881614562565b915050612c7d565b50604080516001808252818301909252600091602082018180368337505060035460405163731133e960e01b81529293506001600160a01b03169163731133e99150612dd690309087908a908790600401613ed2565b600060405180830381600087803b158015612df057600080fd5b505af1158015612e04573d6000803e3d6000fd5b50505050336001600160a01b03167fce5825d66b093769cf76ee2d1360fb23bafc198cfcf066e4575796001447df108360405161236b9190613fa7565b6004546001600160a01b031681565b3390565b600080546001600160a01b038381166001600160a01b0319831681178455604051919092169283917f8be0079c531659141344cd1fd0a4f28419497f9722a3daafe3b4186f6b6457e09190a35050565b600060026001541415612ec95760405162461bcd60e51b81526004016105c190614404565b60026001908155601354600090821115612ee65760009150612f2e565b6000612f1c856016548989604051602001612f049493929190613dd0565b6040516020818303038152906040526001606461363b565b90506032811115612f2c57600092505b505b81156134d9576000612f79856016548989604051602001612f529493929190613d61565b60408051601f19818403018152919052601354600090612f749060019061454b565b61363b565b905060006009600060138481548110612fa257634e487b7160e01b600052603260045260246000fd5b90600052602060002001548152602001908152602001600020905060016003811115612fde57634e487b7160e01b600052602160045260246000fd5b600182015460ff16600381111561300557634e487b7160e01b600052602160045260246000fd5b141561309f576001810154600382015460405163a9059cbb60e01b81526101009092046001600160a01b03169163a9059cbb91613047918c9190600401613eb9565b602060405180830381600087803b15801561306157600080fd5b505af1158015613075573d6000803e3d6000fd5b505050506040513d601f19601f820116820180604052508101906130999190613c09565b50613218565b6002600182015460ff1660038111156130c857634e487b7160e01b600052602160045260246000fd5b1415613141576001810154600480830154604051632142170760e11b81526101009093046001600160a01b0316926342842e0e9261310a9230928e9201613e1a565b600060405180830381600087803b15801561312457600080fd5b505af1158015613138573d6000803e3d6000fd5b50505050613218565b6003600182015460ff16600381111561316a57634e487b7160e01b600052602160045260246000fd5b1415613218576040805160018082528183019092526000916020820181803683370190505090508160010160019054906101000a90046001600160a01b03166001600160a01b031663f242432a308b85600401548660030154866040518663ffffffff1660e01b81526004016131e4959493929190613e3e565b600060405180830381600087803b1580156131fe57600080fd5b505af1158015613212573d6000803e3d6000fd5b50505050505b6002546005820154604051633352da4560e21b81526001600160a01b039092169163cd4b69149161324b91600401613fda565b602060405180830381600087803b15801561326557600080fd5b505af1158015613279573d6000803e3d6000fd5b505050506040513d601f19601f8201168201806040525081019061329d9190613c29565b955061331c866016548a8a6040516020016132bb9493929190613d98565b60408051601f198184030181526011805460208181028601810190945280855291939290919083018282801561331057602002820191906000526020600020905b8154815260200190600101908083116132fc575b50505050506064613685565b92506012836005811061333f57634e487b7160e01b600052603260045260246000fd5b6010810491909101546002838101805461ffff60a01b1916600f9094169091026101000a90910461ffff16600160a01b02919091179055601380546133869060019061454b565b815481106133a457634e487b7160e01b600052603260045260246000fd5b9060005260206000200154601383815481106133d057634e487b7160e01b600052603260045260246000fd5b60009182526020909120015560138054806133fb57634e487b7160e01b600052603160045260246000fd5b60008281526020808220830160001990810183905590920190925560028301546001600160a01b03168252600d90526040812080546001929061343f908490614500565b90915550506001600160a01b0388166000818152600e6020908152604080832085548154600181018355918552838520909101556002850154938352600f90915281208054600160a01b90930461ffff169290919061349f908490614500565b9091555050600281015460148054600160a01b90920461ffff16916000906134c8908490614500565b909155505054935061363092505050565b6001600a60008282546134ec9190614500565b9091555050600a546000818152600960209081526040918290209283556001830180546002850180546001600160a01b03191690556001600160a81b03191690556016549151613546926132bb9289928c918c9101613d98565b91506012826005811061356957634e487b7160e01b600052603260045260246000fd5b601081049091015460028381018054600160a01b61ffff600f968716949094026101000a9094048316840261ffff60a01b199091161781556001600160a01b038b166000818152600e60209081526040808320600a548154600181018355918552838520909101559354928252959095529084208054939091049091169290916135f4908490614500565b9091555050600281015460148054600160a01b90920461ffff169160009061361d908490614500565b9091555050600a54935061363092505050565b600180559392505050565b600081831061364b575081610b0d565b835160208501208361365d818561454b565b613668906001614500565b613672908361457d565b61367c9190614500565b95945050505050565b6000806136948560018561363b565b90506000805b600186516136a8919061454b565b8114613706578581815181106136ce57634e487b7160e01b600052603260045260246000fd5b6020026020010151826136e19190614500565b91508183116136f4579250610b0d915050565b806136fe81614562565b91505061369a565b5060018551613715919061454b565b9695505050505050565b60408051610100810190915260008082526020820190815260006020820181905260408201819052606082018190526080820181905260a0820181905260c09091015290565b80356001600160a01b038116811461057d57600080fd5b600082601f83011261378c578081fd5b813560206137a161379c836144dd565b6144b4565b82815281810190858301838502870184018810156137bd578586fd5b855b858110156137e2576137d082613765565b845292840192908401906001016137bf565b5090979650505050505050565b60008083601f840112613800578182fd5b5081356001600160401b03811115613816578182fd5b602083019150836020808302850101111561383057600080fd5b9250929050565b600082601f830112613847578081fd5b8135602061385761379c836144dd565b8281528181019085830183850287018401881015613873578586fd5b855b858110156137e257813584529284019290840190600101613875565b60008083601f8401126138a2578182fd5b5081356001600160401b038111156138b8578182fd5b60208301915083602082850101111561383057600080fd5b6000602082840312156138e1578081fd5b610b0d82613765565b600080600080608085870312156138ff578283fd5b61390885613765565b935061391660208601613765565b925061392460408601613765565b9396929550929360600135925050565b60008060008060008060008060a0898b03121561394f578384fd5b61395889613765565b975061396660208a01613765565b965060408901356001600160401b0380821115613981578586fd5b61398d8c838d016137ef565b909850965060608b01359150808211156139a5578586fd5b6139b18c838d016137ef565b909650945060808b01359150808211156139c9578384fd5b506139d68b828c01613891565b999c989b5096995094979396929594505050565b600080600080600060808688031215613a01578081fd5b613a0a86613765565b9450613a1860208701613765565b93506040860135925060608601356001600160401b03811115613a39578182fd5b613a4588828901613891565b969995985093965092949392505050565b60008060008060008060a08789031215613a6e578182fd5b613a7787613765565b9550613a8560208801613765565b9450604087013593506060870135925060808701356001600160401b03811115613aad578283fd5b613ab989828a01613891565b979a9699509497509295939492505050565b60008060408385031215613add578182fd5b613ae683613765565b946020939093013593505050565b600080600060608486031215613b08578283fd5b613b1184613765565b95602085013595506040909401359392505050565b60008060408385031215613b38578182fd5b82356001600160401b0380821115613b4e578384fd5b613b5a8683870161377c565b93506020850135915080821115613b6f578283fd5b50613b7c85828601613837565b9150509250929050565b600080600060608486031215613b9a578081fd5b83356001600160401b0380821115613bb0578283fd5b613bbc8783880161377c565b94506020860135915080821115613bd1578283fd5b613bdd87838801613837565b93506040860135915080821115613bf2578283fd5b50613bff86828701613837565b9150509250925092565b600060208284031215613c1a578081fd5b81518015158114610b0d578182fd5b600060208284031215613c3a578081fd5b5051919050565b600060208284031215613c52578081fd5b81356001600160e01b031981168114610b0d578182fd5b600060208284031215613c7a578081fd5b5035919050565b60008060408385031215613c93578182fd5b82359150613ca360208401613765565b90509250929050565b6000815180845260208085019450808401835b83811015613cdb57815187529582019590820190600101613cbf565b509495945050505050565b60008151808452815b81811015613d0b57602081850181015186830182015201613cef565b81811115613d1c5782602083870101525b50601f01601f19169290920160200192915050565b60048110613d4f57634e487b7160e01b600052602160045260246000fd5b9052565b918252602082015260400190565b938452602084019290925260601b6001600160601b03191660408301526054820152650ca92dcc8caf60d31b6074820152607a0190565b938452602084019290925260601b6001600160601b03191660408301526054820152667765696768747360c81b6074820152607b0190565b938452602084019290925260601b6001600160601b0319166040830152605482015264189b1a5b9960da1b607482015260790190565b6001600160a01b0391909116815260200190565b6001600160a01b039384168152919092166020820152604081019190915260600190565b6001600160a01b03868116825285166020820152604081018490526060810183905260a060808201819052600090613e7890830184613ce6565b979650505050505050565b6001600160a01b0384168152606060208201819052600090613ea790830185613cac565b82810360408401526137158185613cac565b6001600160a01b03929092168252602082015260400190565b600060018060a01b0386168252846020830152836040830152608060608301526137156080830184613ce6565b602080825282518282018190526000919060409081850190868401855b82811015613f9a5781518051855286810151613f3a88870182613d31565b50808601516001600160a01b03908116868801526060808301519091169086015260808082015161ffff169086015260a0808201519086015260c0808201519086015260e090810151908501526101009093019290850190600101613f1c565b5091979650505050505050565b600060208252610b0d6020830184613cac565b901515815260200190565b6001600160e01b031991909116815260200190565b90815260200190565b6020808252601f908201527f696e76616c69642072616e646f6d20636f6e7472616374206164647265737300604082015260600190565b60208082526029908201527f696e76616c6964207072697a6520706f6f6c20746f6b656e20636f6e7472616360408201526874206164647265737360b81b606082015260800190565b602080825260159082015274696e76616c696420746f6b656e206164647265737360581b604082015260600190565b60208082526026908201527f4f776e61626c653a206e6577206f776e657220697320746865207a65726f206160408201526564647265737360d01b606082015260800190565b6020808252600d908201526c696e76616c696420646174617360981b604082015260600190565b6020808252600a90820152691a5b9d985b1a59081a5960b21b604082015260600190565b6020808252601c908201527f696e76616c6964204e465420636f6e7472616374206164647265737300000000604082015260600190565b602080825260129082015271696e76616c6964206461746120617272617960701b604082015260600190565b60208082526019908201527f796f75206861766520616c726561647920726563656976656400000000000000604082015260600190565b602080825260129082015271696e76616c696420746f206164647265737360701b604082015260600190565b602080825260139082015272185b1c9958591e481a5b9a5d1a585b1a5e9959606a1b604082015260600190565b6020808252601390820152727175616e7469747920697320746f6f2062696760681b604082015260600190565b6020808252601190820152704e6f742079657420647261772074696d6560781b604082015260600190565b60208082526019908201527f546865206576656e74206973206e6f74206f7665722079657400000000000000604082015260600190565b60208082526027908201527f696e76616c696420626c6573732063617264204e465420636f6e7472616374206040820152666164647265737360c81b606082015260800190565b60208082526011908201527057726f6e6720696e64657820706172616d60781b604082015260600190565b602080825260129082015271195b99081d1a5b59481d1bdbc81cda1bdc9d60721b604082015260600190565b6020808252818101527f4f776e61626c653a2063616c6c6572206973206e6f7420746865206f776e6572604082015260600190565b6020808252601590820152741c5d585b9d1a5d1e481a5cc81d1bdbc81cdb585b1b605a1b604082015260600190565b6020808252600c908201526b07765696768747320697320360a41b604082015260600190565b60208082526018908201527f746f74616c416d6f756e7420697320746f6f20736d616c6c0000000000000000604082015260600190565b6020808252601f908201527f5265656e7472616e637947756172643a207265656e7472616e742063616c6c00604082015260600190565b6020808252600990820152681a185cc8195b99195960ba1b604082015260600190565b8881526101008101614473602083018a613d31565b6001600160a01b03978816604083015295909616606087015261ffff93909316608086015260a085019190915260c084015260e09092019190915292915050565b6040518181016001600160401b03811182821017156144d5576144d56145bd565b604052919050565b60006001600160401b038211156144f6576144f66145bd565b5060209081020190565b6000821982111561451357614513614591565b500190565b600082614527576145276145a7565b500490565b600081600019048311821515161561454657614546614591565b500290565b60008282101561455d5761455d614591565b500390565b600060001982141561457657614576614591565b5060010190565b60008261458c5761458c6145a7565b500690565b634e487b7160e01b600052601160045260246000fd5b634e487b7160e01b600052601260045260246000fd5b634e487b7160e01b600052604160045260246000fdfe66de8ffda797e3de9c05e8fc57b3bf0ec28a930d40b0d285d93c06501cf6a090a2646970667358221220b206533bca5227a661dcd7954cd91c84cdc0513389377efd86245570aca64b0d64736f6c63430008000033",
  "immutableReferences": {},
  "source": "// SPDX-License-Identifier: MIT\npragma solidity ^0.8.0;\npragma experimental ABIEncoderV2;\n\nimport \"@openzeppelin/contracts/access/Ownable.sol\";\nimport \"@openzeppelin/contracts/token/ERC1155/presets/ERC1155PresetMinterPauser.sol\";\nimport \"@openzeppelin/contracts/token/ERC20/IERC20.sol\";\nimport \"@openzeppelin/contracts/token/ERC721/IERC721.sol\";\nimport \"@openzeppelin/contracts/token/ERC1155/IERC1155.sol\";\nimport \"@openzeppelin/contracts/security/ReentrancyGuard.sol\";\nimport \"@openzeppelin/contracts/token/ERC721/IERC721Receiver.sol\";\nimport \"@openzeppelin/contracts/token/ERC1155/IERC1155Receiver.sol\";\nimport \"./Random.sol\";\nimport \"./Utils.sol\";\n\ncontract CollectBless is Ownable, ReentrancyGuard, IERC721Receiver, IERC1155Receiver {\n    /**\n    Prize type\n     */\n    enum PrizeType {\n        NONE,\n        ERC20,\n        ERC721,\n        ERC1155\n    }\n\n    /**\n    @dev Blind box data structure\n     */\n    struct BlindBox {\n        uint256 id;\n        // prize type\n        PrizeType prizeType;\n        // Prize contract address\n        address token;\n        // Creator\n        address creator;\n        // random weight\n        uint16 weights;\n        // Number of prizes\n        uint256 amount;\n        uint256 nftId;\n        uint256 seedBlock;\n    }\n\n    /**\n    Random contract address\n     */\n    Random public random;\n\n    /**\n    Bless card contract address\n     */\n    ERC1155PresetMinterPauser public blessCard;\n\n    /**\n    Prize pool token (USDT)\n     */\n    IERC20 public prizePoolToken;\n\n    /**\n    Rare card price\n     */\n    uint256 public rareCardPrice = 0.2 ether;\n\n    /**\n    Blind box price\n     */\n    uint256 public blindBoxPrice = 1 ether;\n\n    /**\n    Event end time\n     */\n    uint256 public eventEndTime;\n\n    /**\n    The number of rare cards\n     */\n    uint256 public rareCardCount = 0;\n\n    /**\n    Blind box list\n    id => BlindBox\n     */\n    mapping(uint256 => BlindBox) public blindBoxs;\n    uint256 public blindBoxCount = 0;\n\n    /**\n    Total Prize Pool Amount\n     */\n    uint256 public prizePoolAmount = 0;\n\n    /**\n    user address => count\n     */\n    mapping(address => uint256) public mintBoxCounts;\n\n    /**\n    uaer address => count\n     */\n    mapping(address => uint256) public openBoxCounts;\n\n    // user address => blind box ids\n    mapping(address => uint256[]) userOpenBoxs;\n    // user address => total weights\n    mapping(address => uint256) public userWeights;\n\n    uint256 public rareCradId = 5;\n\n    // weight configuration\n    uint256[] private weightsConfig;\n    uint16[5] private weightsValue = [uint16(1), 2, 3, 5, 10];\n\n    // blind box pool, blind box id array\n    uint256[] private blindBoxPool;\n\n    // all user total weights\n    uint256 public totalWeights = 0;\n\n    // Bonuses already claimed by the user\n    mapping(address => uint256) public alreadyReceived;\n\n    bytes32 private randomFactor;\n\n    // whitelist nft start id\n    uint256 public whitelistIdCount = 99;\n\n    // mint user => id\n    mapping(address => uint256) public whitelistId;\n\n    event MintBox(address indexed creator, uint256[] ids);\n    event OpenBox(address indexed user, uint256[] ids);\n\n    function init(\n        address blessCardAddr,\n        address tokenAddr,\n        address randomAddr,\n        uint256 endTime\n    ) public onlyOwner {\n        require(address(blessCard) == address(0), \"already initialized\");\n        require(blessCardAddr != address(0), \"invalid bless card NFT contract address\");\n        require(randomAddr != address(0), \"invalid random contract address\");\n        require(tokenAddr != address(0), \"invalid prize pool token contract address\");\n        require(endTime > block.timestamp, \"end time too short\");\n        blessCard = ERC1155PresetMinterPauser(blessCardAddr);\n        random = Random(randomAddr);\n        eventEndTime = endTime;\n        prizePoolToken = IERC20(tokenAddr);\n\n        weightsConfig.push(50);\n        weightsConfig.push(20);\n        weightsConfig.push(15);\n        weightsConfig.push(10);\n        weightsConfig.push(5);\n\n        bytes32 seed = random.getRandom(0);\n        randomFactor = keccak256(abi.encodePacked(randomFactor, seed));\n    }\n\n    /**\n    Set rare card price\n     */\n    function setRareCardPrice(uint256 price) public onlyOwner {\n        rareCardPrice = price;\n    }\n\n    /**\n    Set blind box price\n     */\n    function setBlindBoxPrice(uint256 price) public onlyOwner {\n        blindBoxPrice = price;\n    }\n\n    function setEventEndTime(uint256 newTime) public onlyOwner {\n        eventEndTime = newTime;\n    }\n\n    function getUserOpenBoxs(address user) public view returns (uint256[] memory) {\n        return userOpenBoxs[user];\n    }\n\n    /**\n    Create a token blind box\n     */\n    function mintBox(\n        address token,\n        uint256 quantity,\n        uint256 totalAmount\n    ) public {\n        require(eventEndTime > block.timestamp, \"has ended\");\n        require(token != address(0), \"invalid token address\");\n        require(quantity > 1, \"quantity is too small\");\n\n        uint256 amount = totalAmount / quantity;\n        require(amount > 1, \"totalAmount is too small\");\n\n        // get box token\n        IERC20(token).transferFrom(msg.sender, address(this), amount * quantity);\n\n        // get prize pool token\n        uint256 fee = blindBoxPrice * quantity;\n        prizePoolToken.transferFrom(msg.sender, address(this), fee);\n\n        prizePoolAmount += fee;\n        mintBoxCounts[msg.sender] += quantity;\n\n        uint256[] memory ids = new uint256[](quantity);\n        for (uint256 i = 0; i < quantity; i++) {\n            blindBoxCount += 1;\n            ids[i] = blindBoxCount;\n            BlindBox storage bb = blindBoxs[blindBoxCount];\n            bb.id = blindBoxCount;\n            bb.prizeType = PrizeType.ERC20;\n            bb.creator = msg.sender;\n            bb.token = token;\n            bb.seedBlock = block.number + 1;\n            bb.amount = amount;\n\n            blindBoxPool.push(blindBoxCount);\n        }\n        emit MintBox(msg.sender, ids);\n    }\n\n    /**\n    Create a ERC721 NFT blind box\n     */\n    function mintBoxNFT721(address addr, uint256 nftId) public {\n        require(eventEndTime > block.timestamp, \"has ended\");\n        require(addr != address(0), \"invalid NFT contract address\");\n\n        prizePoolToken.transferFrom(msg.sender, address(this), blindBoxPrice);\n\n        IERC721(addr).safeTransferFrom(msg.sender, address(this), nftId);\n\n        prizePoolAmount += blindBoxPrice;\n        mintBoxCounts[msg.sender] += 1;\n\n        blindBoxCount += 1;\n        BlindBox storage bb = blindBoxs[blindBoxCount];\n        bb.id = blindBoxCount;\n        bb.prizeType = PrizeType.ERC721;\n        bb.creator = msg.sender;\n        bb.token = addr;\n        bb.seedBlock = block.number + 1;\n        bb.nftId = nftId;\n\n        blindBoxPool.push(blindBoxCount);\n\n        uint256[] memory ids = new uint256[](1);\n        ids[0] = blindBoxCount;\n        emit MintBox(msg.sender, ids);\n    }\n\n    /**\n    Create ERC1155 NFT blind box\n     */\n    function mintBoxNFT1155(\n        address addr,\n        uint256 nftId,\n        uint256 quantity\n    ) public {\n        require(eventEndTime > block.timestamp, \"has ended\");\n        require(addr != address(0), \"invalid NFT contract address\");\n        require(quantity >= 1, \"quantity is too small\");\n\n        bytes memory data = new bytes(1);\n        IERC1155(addr).safeTransferFrom(msg.sender, address(this), nftId, quantity, data);\n\n        uint256 fee = blindBoxPrice * quantity;\n        prizePoolToken.transferFrom(msg.sender, address(this), fee);\n\n        prizePoolAmount += fee;\n        mintBoxCounts[msg.sender] += quantity;\n\n        uint256[] memory ids = new uint256[](quantity);\n        for (uint256 i = 0; i < quantity; i++) {\n            blindBoxCount += 1;\n            ids[i] = blindBoxCount;\n            BlindBox storage bb = blindBoxs[blindBoxCount];\n            bb.id = blindBoxCount;\n            bb.prizeType = PrizeType.ERC1155;\n            bb.creator = msg.sender;\n            bb.token = addr;\n            bb.seedBlock = block.number + 1;\n            bb.amount = 1;\n            bb.nftId = nftId;\n\n            blindBoxPool.push(bb.id);\n        }\n\n        emit MintBox(msg.sender, ids);\n    }\n\n    function mintWhitelistNFT(uint256 quantity) public {\n        require(quantity >= 1, \"quantity is too small\");\n\n        uint256 fee = blindBoxPrice * quantity;\n        prizePoolToken.transferFrom(msg.sender, address(this), fee);\n\n        prizePoolAmount += fee;\n        mintBoxCounts[msg.sender] += quantity;\n\n        uint256 nftId = whitelistId[msg.sender];\n        if (nftId == 0) {\n            whitelistIdCount += 1;\n            nftId = whitelistIdCount;\n            whitelistId[msg.sender] = nftId;\n        }\n\n        uint256[] memory ids = new uint256[](quantity);\n        for (uint256 i = 0; i < quantity; i++) {\n            blindBoxCount += 1;\n            ids[i] = blindBoxCount;\n            BlindBox storage bb = blindBoxs[blindBoxCount];\n            bb.id = blindBoxCount;\n            bb.prizeType = PrizeType.ERC1155;\n            bb.creator = msg.sender;\n            bb.token = address(blessCard);\n            bb.seedBlock = block.number + 1;\n            bb.amount = 1;\n            bb.nftId = nftId;\n\n            blindBoxPool.push(bb.id);\n        }\n\n        bytes memory data = new bytes(1);\n        blessCard.mint(address(this), nftId, quantity, data);\n\n        emit MintBox(msg.sender, ids);\n    }\n\n    /**\n    Mint Rare Cards\n     */\n    function mintRareCard(uint256 quantity, address to) public {\n        require(eventEndTime > block.timestamp, \"has ended\");\n        require(quantity > 0, \"quantity is too small\");\n\n        uint256 fee = rareCardPrice * quantity;\n        prizePoolToken.transferFrom(msg.sender, address(this), fee);\n\n        bytes memory data = new bytes(1);\n        blessCard.mint(to, rareCradId, quantity, data);\n\n        prizePoolAmount += fee;\n        rareCardCount += quantity;\n    }\n\n    function mintRareCardBatch(address[] memory tos, uint256[] memory quantities) public nonReentrant {\n        require(eventEndTime > block.timestamp, \"has ended\");\n        require(tos.length == quantities.length, \"invalid datas\");\n\n        uint256 fee;\n        bytes memory data = new bytes(1);\n        for (uint256 i = 0; i < tos.length; i++) {\n            fee += rareCardPrice * quantities[i];\n            blessCard.mint(tos[i], rareCradId, quantities[i], data);\n            rareCardCount += quantities[i];\n        }\n        prizePoolToken.transferFrom(msg.sender, address(this), fee);\n        prizePoolAmount += fee;\n    }\n\n    /**\n    Mint normal card\n     */\n    function mintCard(\n        address[] memory tos,\n        uint256[] memory ids,\n        uint256[] memory quantities\n    ) public onlyOwner {\n        require(eventEndTime > block.timestamp, \"has ended\");\n        require(tos.length > 0, \"invalid to address\");\n        require(tos.length == ids.length, \"invalid data array\");\n        require(tos.length == quantities.length, \"invalid data array\");\n\n        bytes memory data = new bytes(1);\n        for (uint256 i = 0; i < tos.length; i++) {\n            require(quantities[i] > 0, \"quantity is too small\");\n            require(ids[i] >= 1 && ids[i] <= 4, \"invalid id\");\n            blessCard.mint(tos[i], ids[i], quantities[i], data);\n        }\n    }\n\n    /**\n    Consume the card and open the blind box\n     */\n    function openBox(uint256 quantity) public {\n        require(eventEndTime > block.timestamp, \"has ended\");\n        require(quantity > 0, \"quantity is too small\");\n        require(quantity <= 10, \"quantity is too big\");\n\n        uint256[] memory ids = new uint256[](5);\n        ids[0] = 1;\n        ids[1] = 2;\n        ids[2] = 3;\n        ids[3] = 4;\n        ids[4] = rareCradId;\n        uint256[] memory amounts = new uint256[](5);\n        amounts[0] = quantity;\n        amounts[1] = quantity;\n        amounts[2] = quantity;\n        amounts[3] = quantity;\n        amounts[4] = quantity;\n\n        blessCard.burnBatch(msg.sender, ids, amounts);\n        rareCardCount -= quantity;\n\n        uint256[] memory outIds = new uint256[](quantity);\n        bytes32 seed = random.getRandom(0);\n        randomFactor = keccak256(abi.encodePacked(randomFactor, seed));\n        for (uint256 i = 0; i < quantity; i++) {\n            outIds[i] = _openBox(msg.sender, i, seed);\n        }\n\n        emit OpenBox(msg.sender, outIds);\n    }\n\n    function _openBox(\n        address to,\n        uint256 idx,\n        bytes32 seed\n    ) private nonReentrant returns (uint256) {\n        bool isBlind = true;\n        uint256 wIdx = 0;\n        if (blindBoxPool.length < 1) {\n            isBlind = false;\n        } else {\n            uint256 w = Utils.randomUint(abi.encodePacked(seed, randomFactor, to, idx, \"blind\"), 1, 100);\n            if (w > 50) {\n                isBlind = false;\n            }\n        }\n\n        if (isBlind) {\n            uint256 index = Utils.randomUint(abi.encodePacked(seed, randomFactor, to, idx, \"eIndex\"), 0, blindBoxPool.length - 1);\n            BlindBox storage bb = blindBoxs[blindBoxPool[index]];\n\n            if (bb.prizeType == PrizeType.ERC20) {\n                IERC20(bb.token).transfer(to, bb.amount);\n            } else if (bb.prizeType == PrizeType.ERC721) {\n                IERC721(bb.token).safeTransferFrom(address(this), to, bb.nftId);\n            } else if (bb.prizeType == PrizeType.ERC1155) {\n                bytes memory data = new bytes(1);\n                IERC1155(bb.token).safeTransferFrom(address(this), to, bb.nftId, bb.amount, data);\n            }\n\n            seed = random.getRandom(bb.seedBlock);\n            wIdx = Utils.randomWeight(abi.encodePacked(seed, randomFactor, to, idx, \"weights\"), weightsConfig, 100);\n            bb.weights = weightsValue[wIdx];\n\n            // del from pool\n            blindBoxPool[index] = blindBoxPool[blindBoxPool.length - 1];\n            blindBoxPool.pop();\n\n            openBoxCounts[bb.creator] += 1;\n            userOpenBoxs[to].push(bb.id);\n            userWeights[to] += bb.weights;\n            totalWeights += bb.weights;\n\n            return bb.id;\n        } else {\n            blindBoxCount += 1;\n            BlindBox storage bb = blindBoxs[blindBoxCount];\n            bb.id = blindBoxCount;\n            bb.prizeType = PrizeType.NONE;\n            bb.creator = address(0);\n            bb.token = address(0);\n            wIdx = Utils.randomWeight(abi.encodePacked(seed, randomFactor, to, idx, \"weights\"), weightsConfig, 100);\n            bb.weights = weightsValue[wIdx];\n\n            userOpenBoxs[to].push(blindBoxCount);\n            userWeights[to] += bb.weights;\n            totalWeights += bb.weights;\n\n            return blindBoxCount;\n        }\n    }\n\n    /**\n    Receive the total prize according to the weight obtained\n     */\n    function cashPrize() public {\n        require(eventEndTime < block.timestamp, \"Not yet draw time\");\n        require(totalWeights > 0, \"weights is 0\");\n        require(alreadyReceived[msg.sender] == 0, \"you have already received\");\n\n        uint256 value = (prizePoolAmount * userWeights[msg.sender]) / totalWeights;\n        if (value > 0) {\n            alreadyReceived[msg.sender] = value;\n            prizePoolToken.transfer(msg.sender, value);\n        }\n    }\n\n    /**\n    Claim an unopened blind box\n     */\n    function claimBlindBox(uint256 _limit) public {\n        require(eventEndTime < block.timestamp, \"The event is not over yet\");\n\n        uint256 limit = 300;\n        if (_limit != 0) {\n            limit = _limit;\n        }\n\n        if (mintBoxCounts[msg.sender] - openBoxCounts[msg.sender] > 0) {\n            uint256 j = 0;\n            bytes memory data = new bytes(1);\n            for (uint256 i = 0; j < limit && i < blindBoxPool.length; j++) {\n                BlindBox storage bb = blindBoxs[blindBoxPool[i]];\n                if (bb.creator == msg.sender) {\n                    openBoxCounts[msg.sender] += 1;\n                    blindBoxPool[i] = blindBoxPool[blindBoxPool.length - 1];\n                    blindBoxPool.pop();\n                    if (bb.prizeType == PrizeType.ERC20) {\n                        IERC20(bb.token).transfer(msg.sender, bb.amount);\n                    } else if (bb.prizeType == PrizeType.ERC721) {\n                        IERC721(bb.token).safeTransferFrom(address(this), msg.sender, bb.nftId);\n                    } else if (bb.prizeType == PrizeType.ERC1155) {\n                        IERC1155(bb.token).safeTransferFrom(address(this), msg.sender, bb.nftId, bb.amount, data);\n                    }\n                } else {\n                    i++;\n                }\n            }\n        }\n    }\n\n    function claimBlindBox2(uint256 _limit) public {\n        require(eventEndTime < block.timestamp, \"The event is not over yet\");\n\n        uint256 limit = 300;\n        if (_limit != 0) {\n            limit = _limit;\n        }\n\n        uint256 j = 0;\n        bytes memory data = new bytes(1);\n        for (int256 i = int256(blindBoxPool.length - 1); j < limit && i >= 0; j++) {\n            BlindBox storage bb = blindBoxs[blindBoxPool[uint256(i)]];\n            openBoxCounts[bb.creator] += 1;\n            blindBoxPool.pop();\n            i = int256(blindBoxPool.length - 1);\n            if (bb.prizeType == PrizeType.ERC20) {\n                IERC20(bb.token).transfer(bb.creator, bb.amount);\n            } else if (bb.prizeType == PrizeType.ERC721) {\n                IERC721(bb.token).safeTransferFrom(address(this), bb.creator, bb.nftId);\n            } else if (bb.prizeType == PrizeType.ERC1155) {\n                IERC1155(bb.token).safeTransferFrom(address(this), bb.creator, bb.nftId, bb.amount, data);\n            }\n        }\n    }\n\n    function getUserOpendBox(\n        address user,\n        uint256 startIndex,\n        uint256 lastIndex\n    ) public view returns (BlindBox[] memory boxes) {\n        require(startIndex < lastIndex, \"Wrong index param\");\n        uint256[] memory ids = userOpenBoxs[user];\n        if (ids.length == 0) {\n            return boxes;\n        }\n        uint256 len = ids.length;\n        if (len <= startIndex) {\n            return boxes;\n        }\n        if (len <= lastIndex) {\n            lastIndex = len;\n        }\n        boxes = new BlindBox[](lastIndex - startIndex);\n        uint256 i = 0;\n        for (uint256 j = startIndex; j < lastIndex; j++) {\n            boxes[i] = blindBoxs[ids[j]];\n            i++;\n        }\n        return boxes;\n    }\n\n    function onERC721Received(\n        address,\n        address,\n        uint256,\n        bytes calldata\n    ) public pure override returns (bytes4) {\n        return IERC721Receiver.onERC721Received.selector;\n    }\n\n    function onERC1155Received(\n        address,\n        address,\n        uint256,\n        uint256,\n        bytes calldata\n    ) public pure override returns (bytes4) {\n        return IERC1155Receiver.onERC1155Received.selector;\n    }\n\n    function onERC1155BatchReceived(\n        address,\n        address,\n        uint256[] calldata,\n        uint256[] calldata,\n        bytes calldata\n    ) public pure override returns (bytes4) {\n        return 0;\n    }\n\n    function supportsInterface(bytes4 interfaceId) public pure override returns (bool) {\n        return interfaceId == type(IERC721Receiver).interfaceId || interfaceId == type(IERC1155Receiver).interfaceId;\n    }\n}\n",
  "sourcePath": "/Users/necklace/work/nutbox/nutbox-contract/contracts/CollectBless.sol",
  "compiler": {
    "name": "solc",
    "version": "0.8.0+commit.c7dfd78e.Emscripten.clang"
  },
  "schemaVersion": "3.4.6",
  "updatedAt": "2023-01-10T12:59:55.815Z",
  "networkType": "ethereum",
  "devdoc": {
    "kind": "dev",
    "methods": {
      "owner()": {
        "details": "Returns the address of the current owner."
      },
      "renounceOwnership()": {
        "details": "Leaves the contract without owner. It will not be possible to call `onlyOwner` functions anymore. Can only be called by the current owner. NOTE: Renouncing ownership will leave the contract without an owner, thereby removing any functionality that is only available to the owner."
      },
      "supportsInterface(bytes4)": {
        "details": "Returns true if this contract implements the interface defined by `interfaceId`. See the corresponding https://eips.ethereum.org/EIPS/eip-165#how-interfaces-are-identified[EIP section] to learn more about how these ids are created. This function call must use less than 30 000 gas."
      },
      "transferOwnership(address)": {
        "details": "Transfers ownership of the contract to a new account (`newOwner`). Can only be called by the current owner."
      }
    },
    "version": 1
  },
  "userdoc": {
    "kind": "user",
    "methods": {
      "blessCard()": {
        "notice": "Bless card contract address"
      },
      "blindBoxPrice()": {
        "notice": "Blind box price"
      },
      "blindBoxs(uint256)": {
        "notice": "Blind box list id => BlindBox"
      },
      "cashPrize()": {
        "notice": "Receive the total prize according to the weight obtained"
      },
      "claimBlindBox(uint256)": {
        "notice": "Claim an unopened blind box"
      },
      "eventEndTime()": {
        "notice": "Event end time"
      },
      "mintBox(address,uint256,uint256)": {
        "notice": "Create a token blind box"
      },
      "mintBoxCounts(address)": {
        "notice": "user address => count"
      },
      "mintBoxNFT1155(address,uint256,uint256)": {
        "notice": "Create ERC1155 NFT blind box"
      },
      "mintBoxNFT721(address,uint256)": {
        "notice": "Create a ERC721 NFT blind box"
      },
      "mintCard(address[],uint256[],uint256[])": {
        "notice": "Mint normal card"
      },
      "mintRareCard(uint256,address)": {
        "notice": "Mint Rare Cards"
      },
      "openBox(uint256)": {
        "notice": "Consume the card and open the blind box"
      },
      "openBoxCounts(address)": {
        "notice": "uaer address => count"
      },
      "prizePoolAmount()": {
        "notice": "Total Prize Pool Amount"
      },
      "prizePoolToken()": {
        "notice": "Prize pool token (USDT)"
      },
      "random()": {
        "notice": "Random contract address"
      },
      "rareCardCount()": {
        "notice": "The number of rare cards"
      },
      "rareCardPrice()": {
        "notice": "Rare card price"
      },
      "setBlindBoxPrice(uint256)": {
        "notice": "Set blind box price"
      },
      "setRareCardPrice(uint256)": {
        "notice": "Set rare card price"
      }
    },
    "version": 1
  }
}