{
  "contractName": "Committee",
  "abi": [
    {
      "inputs": [
        {
          "internalType": "address",
          "name": "_treasury",
          "type": "address"
        },
        {
          "internalType": "address",
          "name": "_nut",
          "type": "address"
        }
      ],
      "stateMutability": "nonpayable",
      "type": "constructor"
    },
    {
      "anonymous": false,
      "inputs": [
        {
          "indexed": true,
          "internalType": "address",
          "name": "c",
          "type": "address"
        }
      ],
      "name": "AdminAddContract",
      "type": "event"
    },
    {
      "anonymous": false,
      "inputs": [
        {
          "indexed": true,
          "internalType": "address",
          "name": "feeFree",
          "type": "address"
        }
      ],
      "name": "AdminAddFeeFreeAddress",
      "type": "event"
    },
    {
      "anonymous": false,
      "inputs": [
        {
          "indexed": true,
          "internalType": "address",
          "name": "wm",
          "type": "address"
        }
      ],
      "name": "AdminAddWhitelistManager",
      "type": "event"
    },
    {
      "anonymous": false,
      "inputs": [
        {
          "indexed": true,
          "internalType": "address",
          "name": "c",
          "type": "address"
        }
      ],
      "name": "AdminRemoveContract",
      "type": "event"
    },
    {
      "anonymous": false,
      "inputs": [
        {
          "indexed": true,
          "internalType": "address",
          "name": "feeFree",
          "type": "address"
        }
      ],
      "name": "AdminRemoveFeeFreeAddress",
      "type": "event"
    },
    {
      "anonymous": false,
      "inputs": [
        {
          "indexed": true,
          "internalType": "address",
          "name": "wm",
          "type": "address"
        }
      ],
      "name": "AdminRemoveWhitelistManager",
      "type": "event"
    },
    {
      "anonymous": false,
      "inputs": [
        {
          "indexed": true,
          "internalType": "address",
          "name": "gauge",
          "type": "address"
        }
      ],
      "name": "AdminSetGauge",
      "type": "event"
    },
    {
      "anonymous": false,
      "inputs": [
        {
          "indexed": true,
          "internalType": "address",
          "name": "nut",
          "type": "address"
        }
      ],
      "name": "AdminSetNut",
      "type": "event"
    },
    {
      "anonymous": false,
      "inputs": [
        {
          "indexed": true,
          "internalType": "address",
          "name": "treasury",
          "type": "address"
        }
      ],
      "name": "AdminSetTreasury",
      "type": "event"
    },
    {
      "anonymous": false,
      "inputs": [
        {
          "indexed": true,
          "internalType": "string",
          "name": "feeType",
          "type": "string"
        },
        {
          "indexed": false,
          "internalType": "uint256",
          "name": "amount",
          "type": "uint256"
        }
      ],
      "name": "FeeSet",
      "type": "event"
    },
    {
      "anonymous": false,
      "inputs": [
        {
          "indexed": false,
          "internalType": "address",
          "name": "recipient",
          "type": "address"
        },
        {
          "indexed": false,
          "internalType": "uint256",
          "name": "amount",
          "type": "uint256"
        }
      ],
      "name": "NewAppropriation",
      "type": "event"
    },
    {
      "anonymous": false,
      "inputs": [
        {
          "indexed": false,
          "internalType": "string",
          "name": "feeType",
          "type": "string"
        },
        {
          "indexed": true,
          "internalType": "address",
          "name": "community",
          "type": "address"
        },
        {
          "indexed": true,
          "internalType": "address",
          "name": "pool",
          "type": "address"
        },
        {
          "indexed": true,
          "internalType": "address",
          "name": "who",
          "type": "address"
        },
        {
          "indexed": false,
          "internalType": "uint256",
          "name": "amount",
          "type": "uint256"
        }
      ],
      "name": "NewRevenue",
      "type": "event"
    },
    {
      "anonymous": false,
      "inputs": [
        {
          "indexed": true,
          "internalType": "address",
          "name": "previousOwner",
          "type": "address"
        },
        {
          "indexed": true,
          "internalType": "address",
          "name": "newOwner",
          "type": "address"
        }
      ],
      "name": "OwnershipTransferred",
      "type": "event"
    },
    {
      "inputs": [],
      "name": "nut",
      "outputs": [
        {
          "internalType": "address",
          "name": "",
          "type": "address"
        }
      ],
      "stateMutability": "view",
      "type": "function"
    },
    {
      "inputs": [],
      "name": "owner",
      "outputs": [
        {
          "internalType": "address",
          "name": "",
          "type": "address"
        }
      ],
      "stateMutability": "view",
      "type": "function"
    },
    {
      "inputs": [],
      "name": "renounceOwnership",
      "outputs": [],
      "stateMutability": "nonpayable",
      "type": "function"
    },
    {
      "inputs": [
        {
          "internalType": "address",
          "name": "newOwner",
          "type": "address"
        }
      ],
      "name": "transferOwnership",
      "outputs": [],
      "stateMutability": "nonpayable",
      "type": "function"
    },
    {
      "inputs": [],
      "name": "treasury",
      "outputs": [
        {
          "internalType": "address",
          "name": "",
          "type": "address"
        }
      ],
      "stateMutability": "view",
      "type": "function"
    },
    {
      "inputs": [
        {
          "internalType": "address",
          "name": "_m",
          "type": "address"
        }
      ],
      "name": "adminAddWhitelistManager",
      "outputs": [],
      "stateMutability": "nonpayable",
      "type": "function"
    },
    {
      "inputs": [
        {
          "internalType": "address",
          "name": "_m",
          "type": "address"
        }
      ],
      "name": "adminRemoveWhitelistManager",
      "outputs": [],
      "stateMutability": "nonpayable",
      "type": "function"
    },
    {
      "inputs": [
        {
          "internalType": "address",
          "name": "_c",
          "type": "address"
        }
      ],
      "name": "adminAddContract",
      "outputs": [],
      "stateMutability": "nonpayable",
      "type": "function"
    },
    {
      "inputs": [
        {
          "internalType": "address",
          "name": "_c",
          "type": "address"
        }
      ],
      "name": "adminRemoveContract",
      "outputs": [],
      "stateMutability": "nonpayable",
      "type": "function"
    },
    {
      "inputs": [
        {
          "internalType": "address",
          "name": "_f",
          "type": "address"
        }
      ],
      "name": "adminAddFeeFreeAddress",
      "outputs": [],
      "stateMutability": "nonpayable",
      "type": "function"
    },
    {
      "inputs": [
        {
          "internalType": "address",
          "name": "_f",
          "type": "address"
        }
      ],
      "name": "adminRemoveFeeFreeAddress",
      "outputs": [],
      "stateMutability": "nonpayable",
      "type": "function"
    },
    {
      "inputs": [
        {
          "internalType": "address",
          "name": "_treasury",
          "type": "address"
        }
      ],
      "name": "adminSetTreasury",
      "outputs": [],
      "stateMutability": "nonpayable",
      "type": "function"
    },
    {
      "inputs": [
        {
          "internalType": "address",
          "name": "_nut",
          "type": "address"
        }
      ],
      "name": "adminSetNut",
      "outputs": [],
      "stateMutability": "nonpayable",
      "type": "function"
    },
    {
      "inputs": [
        {
          "internalType": "address",
          "name": "_gauge",
          "type": "address"
        }
      ],
      "name": "adminSetGauge",
      "outputs": [],
      "stateMutability": "nonpayable",
      "type": "function"
    },
    {
      "inputs": [
        {
          "internalType": "address",
          "name": "recipient",
          "type": "address"
        },
        {
          "internalType": "uint256",
          "name": "amount",
          "type": "uint256"
        }
      ],
      "name": "adminAppropriate",
      "outputs": [],
      "stateMutability": "nonpayable",
      "type": "function"
    },
    {
      "inputs": [
        {
          "internalType": "string",
          "name": "feeType",
          "type": "string"
        },
        {
          "internalType": "uint256",
          "name": "amount",
          "type": "uint256"
        }
      ],
      "name": "adminSetFee",
      "outputs": [],
      "stateMutability": "nonpayable",
      "type": "function"
    },
    {
      "inputs": [
        {
          "internalType": "address",
          "name": "payer",
          "type": "address"
        }
      ],
      "name": "setFeePayer",
      "outputs": [],
      "stateMutability": "nonpayable",
      "type": "function"
    },
    {
      "inputs": [],
      "name": "getNut",
      "outputs": [
        {
          "internalType": "address",
          "name": "",
          "type": "address"
        }
      ],
      "stateMutability": "view",
      "type": "function"
    },
    {
      "inputs": [],
      "name": "getTreasury",
      "outputs": [
        {
          "internalType": "address",
          "name": "",
          "type": "address"
        }
      ],
      "stateMutability": "view",
      "type": "function"
    },
    {
      "inputs": [],
      "name": "getGauge",
      "outputs": [
        {
          "internalType": "address",
          "name": "",
          "type": "address"
        }
      ],
      "stateMutability": "view",
      "type": "function"
    },
    {
      "inputs": [
        {
          "internalType": "string",
          "name": "feeType",
          "type": "string"
        }
      ],
      "name": "getFee",
      "outputs": [
        {
          "internalType": "uint256",
          "name": "",
          "type": "uint256"
        }
      ],
      "stateMutability": "view",
      "type": "function"
    },
    {
      "inputs": [
        {
          "internalType": "string",
          "name": "feeType",
          "type": "string"
        },
        {
          "internalType": "address",
          "name": "community",
          "type": "address"
        },
        {
          "internalType": "address",
          "name": "pool",
          "type": "address"
        },
        {
          "internalType": "address",
          "name": "who",
          "type": "address"
        }
      ],
      "name": "updateLedger",
      "outputs": [],
      "stateMutability": "nonpayable",
      "type": "function"
    },
    {
      "inputs": [
        {
          "internalType": "string",
          "name": "feeType",
          "type": "string"
        }
      ],
      "name": "getRevenue",
      "outputs": [
        {
          "internalType": "uint256",
          "name": "",
          "type": "uint256"
        }
      ],
      "stateMutability": "view",
      "type": "function"
    },
    {
      "inputs": [
        {
          "internalType": "address",
          "name": "c",
          "type": "address"
        }
      ],
      "name": "verifyContract",
      "outputs": [
        {
          "internalType": "bool",
          "name": "",
          "type": "bool"
        }
      ],
      "stateMutability": "view",
      "type": "function"
    },
    {
      "inputs": [
        {
          "internalType": "address",
          "name": "freeAddress",
          "type": "address"
        }
      ],
      "name": "getFeeFree",
      "outputs": [
        {
          "internalType": "bool",
          "name": "",
          "type": "bool"
        }
      ],
      "stateMutability": "view",
      "type": "function"
    },
    {
      "inputs": [
        {
          "internalType": "address",
          "name": "pool",
          "type": "address"
        }
      ],
      "name": "getPoolFees",
      "outputs": [
        {
          "internalType": "uint256",
          "name": "",
          "type": "uint256"
        }
      ],
      "stateMutability": "view",
      "type": "function"
    }
  ],
  "bytecode": "0x60806040523480156200001157600080fd5b5060405162001644380380620016448339810160408190526200003491620001db565b62000048620000426200016a565b6200016e565b6001600160a01b03821662000094576040517f08c379a00000000000000000000000000000000000000000000000000000000081526004016200008b9062000249565b60405180910390fd5b6001600160a01b038116620000d7576040517f08c379a00000000000000000000000000000000000000000000000000000000081526004016200008b9062000212565b600180546001600160a01b038085166001600160a01b0319928316811790935560028054918516919092161790556040517fc413f6d6aa634754c0e4bd4da08d769c76f8ceb02f301e200984cddc25c3229090600090a26040516001600160a01b038216907f569e9bf735346295cd14db6fc684d7cc520c93daef5cb121854fcf82cabb246190600090a2505062000280565b3390565b600080546001600160a01b038381166001600160a01b0319831681178455604051919092169283917f8be0079c531659141344cd1fd0a4f28419497f9722a3daafe3b4186f6b6457e09190a35050565b80516001600160a01b0381168114620001d657600080fd5b919050565b60008060408385031215620001ee578182fd5b620001f983620001be565b91506200020960208401620001be565b90509250929050565b6020808252600b908201527f496e76616c6964206e7574000000000000000000000000000000000000000000604082015260600190565b60208082526010908201527f496e76616c696420747265617375727900000000000000000000000000000000604082015260600190565b6113b480620002906000396000f3fe608060405234801561001057600080fd5b506004361061018e5760003560e01c80638da5cb5b116100de578063d5b555f911610097578063ed1eee6811610071578063ed1eee6814610325578063f2803f0314610338578063f2fde38b14610340578063f6080cb7146103535761018e565b8063d5b555f9146102df578063ddef1098146102f2578063ebe1893e146103125761018e565b80638da5cb5b14610283578063a62cde411461028b578063bfca34111461029e578063c0e503e3146102b1578063c10bde0b146102c4578063d2ae8e4e146102cc5761018e565b80633d200b451161014b57806354a7d6b11161012557806354a7d6b11461024d57806361d027b314610260578063715018a6146102685780637c68088c146102705761018e565b80633d200b45146102075780634ca1a91914610227578063525bc4051461023a5761018e565b80630ad245181461019357806315d3b7a0146101a85780631d1d9b47146101c65780632dfacc01146101d957806338815f30146101ec5780633b19e84a146101ff575b600080fd5b6101a66101a1366004610fb5565b610366565b005b6101b06103f7565b6040516101bd919061111f565b60405180910390f35b6101a66101d4366004610fb5565b610406565b6101a66101e7366004610fb5565b6104b5565b6101a66101fa366004611053565b610544565b6101b06106ce565b61021a610215366004610fb5565b6106dd565b6040516101bd919061114c565b61021a610235366004610fb5565b6106ff565b6101a6610248366004610fb5565b61071d565b6101a661025b366004610fb5565b6107a8565b6101b0610833565b6101a6610842565b6101a661027e366004610fb5565b61088d565b6101b06108e0565b6101a66102993660046110c0565b6108ef565b6101a66102ac366004610fb5565b6109bd565b6101a66102bf366004610fcf565b610a45565b6101b0610ad8565b6101a66102da366004610fb5565b610ae7565b6101a66102ed366004610fb5565b610b96565b610305610300366004611018565b610c1e565b6040516101bd919061130f565b6101a6610320366004610fb5565b610c61565b610305610333366004611018565b610cec565b6101b0610d03565b6101a661034e366004610fb5565b610d12565b610305610361366004610fb5565b610d83565b61036e610d9e565b6001600160a01b031661037f6108e0565b6001600160a01b0316146103ae5760405162461bcd60e51b81526004016103a59061128d565b60405180910390fd5b6001600160a01b038116600081815260086020526040808220805460ff19169055517f44d16bd10bf6b2290eeb91380bb96a65f0ff9abbe08d52dfda440dd2dac0ac9d9190a250565b6002546001600160a01b031681565b61040e610d9e565b6001600160a01b031661041f6108e0565b6001600160a01b0316146104455760405162461bcd60e51b81526004016103a59061128d565b6001600160a01b03811661046b5760405162461bcd60e51b81526004016103a590611263565b600180546001600160a01b0319166001600160a01b0383169081179091556040517fc413f6d6aa634754c0e4bd4da08d769c76f8ceb02f301e200984cddc25c3229090600090a250565b6104bd610d9e565b6001600160a01b03166104ce6108e0565b6001600160a01b0316146104f45760405162461bcd60e51b81526004016103a59061128d565b600380546001600160a01b0319166001600160a01b0383811691909117918290556040519116907feee5255ef7ccbbd434378c505e1e8e7e5f174b406be9189cc7f6bba95eb4e59590600090a250565b6001600160a01b0381166000908152600a602052604090205460ff161561056a576106c8565b3360009081526008602052604090205460ff168061059757503360009081526007602052604090205460ff165b6105b35760405162461bcd60e51b81526004016103a5906112c2565b6000846040516020016105c69190611103565b60408051601f19818403018152918152815160209283012060008181526004909352912054909150806105fa5750506106c8565b6000828152600560205260409020546106139082610da2565b6000838152600560205260409020556001600160a01b0384161561066e576001600160a01b0384166000908152600660205260409020546106549082610da2565b6001600160a01b0385166000908152600660205260409020555b826001600160a01b0316846001600160a01b0316866001600160a01b03167fa879e01c9fc47a1348066fff6c2365ecabf41d80ece4edbc8cee2290b8c7f41589856040516106bd929190611157565b60405180910390a450505b50505050565b6001546001600160a01b031690565b6001600160a01b03811660009081526009602052604090205460ff165b919050565b6001600160a01b03166000908152600a602052604090205460ff1690565b610725610d9e565b6001600160a01b03166107366108e0565b6001600160a01b03161461075c5760405162461bcd60e51b81526004016103a59061128d565b6001600160a01b038116600081815260086020526040808220805460ff19166001179055517fb9e3cfe53b90de6b4f980740b1c8a791f609b238f8edc62b02144af91ab28f049190a250565b6107b0610d9e565b6001600160a01b03166107c16108e0565b6001600160a01b0316146107e75760405162461bcd60e51b81526004016103a59061128d565b6001600160a01b038116600081815260096020526040808220805460ff19166001179055517f669c450abcac951d07d0e129806bef1f6cd6ff18eb85ead24bba717ec48228519190a250565b6001546001600160a01b031681565b61084a610d9e565b6001600160a01b031661085b6108e0565b6001600160a01b0316146108815760405162461bcd60e51b81526004016103a59061128d565b61088b6000610db5565b565b3360009081526008602052604090205460ff166108bc5760405162461bcd60e51b81526004016103a5906112c2565b6001600160a01b03166000908152600760205260409020805460ff19166001179055565b6000546001600160a01b031690565b6108f7610d9e565b6001600160a01b03166109086108e0565b6001600160a01b03161461092e5760405162461bcd60e51b81526004016103a59061128d565b8060046000846040516020016109449190611103565b604051602081830303815290604052805190602001208152602001908152602001600020819055508160405161097a9190611103565b60405180910390207f58747ad374788daae8193883efaa1210ccc2c4072fbf0f0d707893b316a9505e826040516109b1919061130f565b60405180910390a25050565b6109c5610d9e565b6001600160a01b03166109d66108e0565b6001600160a01b0316146109fc5760405162461bcd60e51b81526004016103a59061128d565b6001600160a01b038116600081815260096020526040808220805460ff19169055517f43b2164e2d80ed67b284a6645edeb8cd83aeddcaceb805b12508d2861c3a2f549190a250565b610a4d610d9e565b6001600160a01b0316610a5e6108e0565b6001600160a01b031614610a845760405162461bcd60e51b81526004016103a59061128d565b600254610a9b906001600160a01b03168383610e05565b7f6ecaeeea6fc6a486d45d095dd86e8f63075a2d9b145429cef99f9a8ffd3e75738282604051610acc929190611133565b60405180910390a15050565b6002546001600160a01b031690565b610aef610d9e565b6001600160a01b0316610b006108e0565b6001600160a01b031614610b265760405162461bcd60e51b81526004016103a59061128d565b6001600160a01b038116610b4c5760405162461bcd60e51b81526004016103a5906111c7565b600280546001600160a01b0319166001600160a01b0383169081179091556040517f569e9bf735346295cd14db6fc684d7cc520c93daef5cb121854fcf82cabb246190600090a250565b610b9e610d9e565b6001600160a01b0316610baf6108e0565b6001600160a01b031614610bd55760405162461bcd60e51b81526004016103a59061128d565b6001600160a01b0381166000818152600a6020526040808220805460ff19169055517f323b5c9691be609941beeb11b89c5d77cbbdf8d283fc180625f83e9400dd247d9190a250565b60006005600083604051602001610c359190611103565b604051602081830303815290604052805190602001208152602001908152602001600020549050919050565b610c69610d9e565b6001600160a01b0316610c7a6108e0565b6001600160a01b031614610ca05760405162461bcd60e51b81526004016103a59061128d565b6001600160a01b0381166000818152600a6020526040808220805460ff19166001179055517f7c68847047eda2d5fc2fd0874dcfa06cc4f35e630613ab24b1fdda1204623bce9190a250565b60006004600083604051602001610c359190611103565b6003546001600160a01b031690565b610d1a610d9e565b6001600160a01b0316610d2b6108e0565b6001600160a01b031614610d515760405162461bcd60e51b81526004016103a59061128d565b6001600160a01b038116610d775760405162461bcd60e51b81526004016103a5906111f1565b610d8081610db5565b50565b6001600160a01b031660009081526006602052604090205490565b3390565b6000610dae8284611318565b9392505050565b600080546001600160a01b038381166001600160a01b0319831681178455604051919092169283917f8be0079c531659141344cd1fd0a4f28419497f9722a3daafe3b4186f6b6457e09190a35050565b826106c8818484610e628363a9059cbb60e01b8484604051602401610e2b929190611133565b60408051601f198184030181529190526020810180516001600160e01b03166001600160e01b031990931692909217909152610e67565b505050565b600080836001600160a01b031683604051610e829190611103565b6000604051808303816000865af19150503d8060008114610ebf576040519150601f19603f3d011682016040523d82523d6000602084013e610ec4565b606091505b509150915081610ee65760405162461bcd60e51b81526004016103a590611237565b8051156106c85780806020019051810190610f019190610ff8565b6106c85760405162461bcd60e51b81526004016103a590611192565b80356001600160a01b03811681146106fa57600080fd5b600082601f830112610f44578081fd5b813567ffffffffffffffff80821115610f5f57610f5f611368565b604051601f8301601f191681016020018281118282101715610f8357610f83611368565b604052828152848301602001861015610f9a578384fd5b82602086016020830137918201602001929092529392505050565b600060208284031215610fc6578081fd5b610dae82610f1d565b60008060408385031215610fe1578081fd5b610fea83610f1d565b946020939093013593505050565b600060208284031215611009578081fd5b81518015158114610dae578182fd5b600060208284031215611029578081fd5b813567ffffffffffffffff81111561103f578182fd5b61104b84828501610f34565b949350505050565b60008060008060808587031215611068578182fd5b843567ffffffffffffffff81111561107e578283fd5b61108a87828801610f34565b94505061109960208601610f1d565b92506110a760408601610f1d565b91506110b560608601610f1d565b905092959194509250565b600080604083850312156110d2578182fd5b823567ffffffffffffffff8111156110e8578283fd5b6110f485828601610f34565b95602094909401359450505050565b6000825161111581846020870161133c565b9190910192915050565b6001600160a01b0391909116815260200190565b6001600160a01b03929092168252602082015260400190565b901515815260200190565b600060408252835180604084015261117681606085016020880161133c565b602083019390935250601f91909101601f191601606001919050565b6020808252818101527f45524332303a206f7065726174696f6e20646964206e6f742073756363656564604082015260600190565b60208082526010908201526f496e76616c696465206164647265737360801b604082015260600190565b60208082526026908201527f4f776e61626c653a206e6577206f776e657220697320746865207a65726f206160408201526564647265737360d01b606082015260800190565b602080825260129082015271115490cc8c0e8818d85b1b0819985a5b195960721b604082015260600190565b60208082526010908201526f496e76616c696420747265617375727960801b604082015260600190565b6020808252818101527f4f776e61626c653a2063616c6c6572206973206e6f7420746865206f776e6572604082015260600190565b6020808252602d908201527f5065726d697373696f6e2064656e6965643a2063616c6c6572206973206e6f7460408201526c081a5b881dda1a5d195b1a5cdd609a1b606082015260800190565b90815260200190565b6000821982111561133757634e487b7160e01b81526011600452602481fd5b500190565b60005b8381101561135757818101518382015260200161133f565b838111156106c85750506000910152565b634e487b7160e01b600052604160045260246000fdfea2646970667358221220dd99002f2ebde0a73cb15eea795ddb9121efe9739ae358b496e39c6cf4bd1e7a64736f6c63430008000033",
  "immutableReferences": {},
  "source": "// SPDX-License-Identifier: MIT\n\npragma solidity 0.8.0;\npragma experimental ABIEncoderV2;\n\nimport \"@openzeppelin/contracts/access/Ownable.sol\";\nimport \"@openzeppelin/contracts/utils/math/SafeMath.sol\";\nimport \"./interfaces/ICommittee.sol\";\nimport \"./ERC20Helper.sol\";\n\ncontract Committee is ICommittee, ERC20Helper, Ownable {\n    using SafeMath for uint256;\n\n    // treasury account that reserve all revenues\n    address public treasury;\n    // NUT address\n    address public nut;\n    // gauge setted by committee\n    address private gauge;\n    // feeType => amount\n    mapping(bytes32 => uint256) private fees;\n    // feeType => amount\n    mapping(bytes32 => uint256) private revenues;\n    // pool address => amount\n    mapping(address => uint256) private feeFromPool; \n    // caller => canCall, whitlist of all caller\n    mapping(address => bool) private whitelist;\n    // caller => canCall, can add or remove address from whitelist\n    mapping(address => bool) private whitelistManager;\n    // contract => isWhilistContract\n    mapping(address => bool) private whitelistContracts;\n\n    // some address no need to pay fee. eg: steem brigde\n    mapping(address => bool) private feeFreeList;\n\n    event FeeSet(string indexed feeType, uint256 amount);\n    event NewRevenue(string feeType, address indexed community, address indexed pool, address indexed who, uint256 amount);\n    event NewAppropriation(address recipient, uint256 amount);\n\n    event AdminAddWhitelistManager(address indexed wm);\n    event AdminRemoveWhitelistManager(address indexed wm);\n    event AdminAddContract(address indexed c);\n    event AdminRemoveContract(address indexed c);\n    event AdminAddFeeFreeAddress(address indexed feeFree);\n    event AdminRemoveFeeFreeAddress(address indexed feeFree);\n    event AdminSetTreasury(address indexed treasury);\n    event AdminSetNut(address indexed nut);\n    event AdminSetGauge(address indexed gauge);\n\n    constructor(address _treasury, address _nut) {\n        require(_treasury != address(0), \"Invalid treasury\");\n        require(_nut != address(0), \"Invalid nut\");\n        treasury = _treasury;\n        nut = _nut;\n        emit AdminSetTreasury(_treasury);\n        emit AdminSetNut(_nut);\n    }\n\n    function adminAddWhitelistManager(address _m) external onlyOwner {\n        whitelistManager[_m] = true;\n        emit AdminAddWhitelistManager(_m);\n    }\n\n    function adminRemoveWhitelistManager(address _m) external onlyOwner {\n        whitelistManager[_m] = false;\n        emit AdminRemoveWhitelistManager(_m);\n    }\n\n    function adminAddContract(address _c) external onlyOwner {\n        whitelistContracts[_c] = true;\n        emit AdminAddContract(_c);\n    }\n\n    function adminRemoveContract(address _c) external onlyOwner {\n        whitelistContracts[_c] = false;\n        emit AdminRemoveContract(_c);\n    }\n\n    function adminAddFeeFreeAddress(address _f) external onlyOwner {\n        feeFreeList[_f] = true;\n        emit AdminAddFeeFreeAddress(_f);\n    }\n\n    function adminRemoveFeeFreeAddress(address _f) external onlyOwner {\n        feeFreeList[_f] = false;\n        emit AdminRemoveFeeFreeAddress(_f);\n    }\n\n    function adminSetTreasury(address _treasury) external onlyOwner {\n        require(_treasury != address(0), \"Invalid treasury\");\n        treasury = _treasury;\n        emit AdminSetTreasury(_treasury);\n    }\n\n    function adminSetNut(address _nut) external onlyOwner {\n        require(_nut != address(0), \"Invalide address\");\n        nut = _nut;\n        emit AdminSetNut(_nut);\n    }\n\n    function adminSetGauge(address _gauge) external onlyOwner {\n        // gauge can be set to address(0), that means shut down this function\n        gauge = _gauge;\n        emit AdminSetGauge(gauge);\n    }\n\n    function adminAppropriate(address recipient, uint256 amount) external onlyOwner {\n        releaseERC20(nut, recipient, amount);\n        emit NewAppropriation(recipient, amount);\n    }\n\n    // fee type: COMMUNITY USER\n    function adminSetFee(string memory feeType, uint256 amount) external onlyOwner {\n        fees[keccak256(abi.encodePacked(feeType))] = amount;\n        emit FeeSet(feeType, amount);\n    }\n\n    function setFeePayer(address payer) override external {\n        require(whitelistManager[msg.sender], 'Permission denied: caller is not in whitelist');\n        whitelist[payer] = true;\n    }\n\n    function getNut() external view override returns (address) {\n        return nut;\n    }\n\n    function getTreasury() external view override returns (address) {\n        return treasury;\n    }\n\n    function getGauge() external view override returns (address) {\n        return gauge;\n    }\n\n    function getFee(string memory feeType) external view override returns (uint256) {\n        return fees[keccak256(abi.encodePacked(feeType))];\n    }\n\n    function updateLedger(string memory feeType, address community, address pool, address who) external override {\n        if(feeFreeList[who]) return;\n        require(whitelistManager[msg.sender] || whitelist[msg.sender], 'Permission denied: caller is not in whitelist');\n        bytes32 ft = keccak256(abi.encodePacked(feeType));\n        uint256 amount = fees[ft];\n        if (amount == 0) return;\n        revenues[ft] = revenues[ft].add(amount);\n        if (pool != address(0)) {\n            feeFromPool[pool] = feeFromPool[pool].add(amount);\n        }\n        emit NewRevenue(feeType, community, pool, who, amount);\n    }\n\n    function getRevenue(string memory feeType) external view override returns (uint256) {\n        return revenues[keccak256(abi.encodePacked(feeType))];\n    }\n\n    function verifyContract(address c) external view override returns (bool) {\n        return whitelistContracts[c];\n    }\n\n    function getFeeFree(address freeAddress) external view override returns (bool) {\n        return feeFreeList[freeAddress];\n    }\n\n    function getPoolFees(address pool) external view override returns (uint256) {\n        return feeFromPool[pool];\n    }\n}\n",
  "sourcePath": "/Users/necklace/work/nutbox/nutbox-contract/contracts/Committee.sol",
  "compiler": {
    "name": "solc",
    "version": "0.8.0+commit.c7dfd78e.Emscripten.clang"
  },
  "schemaVersion": "3.4.11",
  "updatedAt": "2022-12-27T12:17:35.067Z",
  "devdoc": {
    "kind": "dev",
    "methods": {
      "owner()": {
        "details": "Returns the address of the current owner."
      },
      "renounceOwnership()": {
        "details": "Leaves the contract without owner. It will not be possible to call `onlyOwner` functions anymore. Can only be called by the current owner. NOTE: Renouncing ownership will leave the contract without an owner, thereby removing any functionality that is only available to the owner."
      },
      "transferOwnership(address)": {
        "details": "Transfers ownership of the contract to a new account (`newOwner`). Can only be called by the current owner."
      }
    },
    "version": 1
  },
  "userdoc": {
    "kind": "user",
    "methods": {},
    "version": 1
  }
}