{
  "contractName": "CommunityCuration",
  "abi": [
    {
      "anonymous": false,
      "inputs": [
        {
          "indexed": true,
          "internalType": "address",
          "name": "previousOwner",
          "type": "address"
        },
        {
          "indexed": true,
          "internalType": "address",
          "name": "newOwner",
          "type": "address"
        }
      ],
      "name": "OwnershipTransferred",
      "type": "event"
    },
    {
      "anonymous": false,
      "inputs": [
        {
          "indexed": true,
          "internalType": "address",
          "name": "oldContract",
          "type": "address"
        },
        {
          "indexed": true,
          "internalType": "address",
          "name": "newContract",
          "type": "address"
        }
      ],
      "name": "Upgrade",
      "type": "event"
    },
    {
      "inputs": [
        {
          "internalType": "uint256",
          "name": "",
          "type": "uint256"
        }
      ],
      "name": "communities",
      "outputs": [
        {
          "internalType": "address",
          "name": "",
          "type": "address"
        }
      ],
      "stateMutability": "view",
      "type": "function"
    },
    {
      "inputs": [],
      "name": "owner",
      "outputs": [
        {
          "internalType": "address",
          "name": "",
          "type": "address"
        }
      ],
      "stateMutability": "view",
      "type": "function"
    },
    {
      "inputs": [],
      "name": "renounceOwnership",
      "outputs": [],
      "stateMutability": "nonpayable",
      "type": "function"
    },
    {
      "inputs": [
        {
          "internalType": "address",
          "name": "newOwner",
          "type": "address"
        }
      ],
      "name": "transferOwnership",
      "outputs": [],
      "stateMutability": "nonpayable",
      "type": "function"
    },
    {
      "inputs": [
        {
          "internalType": "uint256",
          "name": "cid",
          "type": "uint256"
        },
        {
          "internalType": "address",
          "name": "signAddr",
          "type": "address"
        },
        {
          "internalType": "address",
          "name": "prizeToken",
          "type": "address"
        }
      ],
      "name": "createCommunity",
      "outputs": [],
      "stateMutability": "nonpayable",
      "type": "function"
    },
    {
      "inputs": [
        {
          "internalType": "uint256",
          "name": "cid",
          "type": "uint256"
        }
      ],
      "name": "getCommunityInfo",
      "outputs": [
        {
          "internalType": "address",
          "name": "communityAddr",
          "type": "address"
        },
        {
          "internalType": "address",
          "name": "prizeToken",
          "type": "address"
        },
        {
          "internalType": "uint256",
          "name": "balance",
          "type": "uint256"
        },
        {
          "internalType": "address",
          "name": "signAddr",
          "type": "address"
        },
        {
          "internalType": "address",
          "name": "creator",
          "type": "address"
        },
        {
          "internalType": "address",
          "name": "storageAddr",
          "type": "address"
        }
      ],
      "stateMutability": "view",
      "type": "function"
    },
    {
      "inputs": [
        {
          "internalType": "uint256",
          "name": "cid",
          "type": "uint256"
        },
        {
          "internalType": "address",
          "name": "newCommunity",
          "type": "address"
        }
      ],
      "name": "upgrade",
      "outputs": [],
      "stateMutability": "nonpayable",
      "type": "function"
    },
    {
      "inputs": [
        {
          "internalType": "uint256",
          "name": "twitterId",
          "type": "uint256"
        },
        {
          "internalType": "uint256",
          "name": "curationId",
          "type": "uint256"
        }
      ],
      "name": "alreadyClaimed",
      "outputs": [
        {
          "internalType": "bool",
          "name": "",
          "type": "bool"
        }
      ],
      "stateMutability": "view",
      "type": "function"
    },
    {
      "inputs": [],
      "name": "getId",
      "outputs": [
        {
          "internalType": "uint256",
          "name": "",
          "type": "uint256"
        }
      ],
      "stateMutability": "view",
      "type": "function"
    }
  ],
  "bytecode": "0x608060405234801561001057600080fd5b5061001a3361001f565b61006f565b600080546001600160a01b038381166001600160a01b0319831681178455604051919092169283917f8be0079c531659141344cd1fd0a4f28419497f9722a3daafe3b4186f6b6457e09190a35050565b6129268061007e6000396000f3fe608060405234801561001057600080fd5b50600436106100935760003560e01c8063765aec6d11610066578063765aec6d146100db5780638da5cb5b1461012c578063cb9f881314610151578063e590b56a14610174578063f2fde38b1461019d57600080fd5b8063028f4e47146100985780632a30c112146100ad5780635d1ca631146100c0578063715018a6146100d3575b600080fd5b6100ab6100a636600461081e565b6101b0565b005b6100ab6100bb36600461084e565b6102ef565b6040514681526020015b60405180910390f35b6100ab61042b565b6100ee6100e9366004610890565b610461565b604080516001600160a01b039788168152958716602087015285019390935290841660608401528316608083015290911660a082015260c0016100ca565b6000546001600160a01b03165b6040516001600160a01b0390911681526020016100ca565b61016461015f3660046108a9565b61067e565b60405190151581526020016100ca565b610139610182366004610890565b6001602052600090815260409020546001600160a01b031681565b6100ab6101ab3660046108cb565b610711565b6000546001600160a01b031633146101e35760405162461bcd60e51b81526004016101da906108ef565b60405180910390fd5b6000828152600160205260409020546001600160a01b0316806102365760405162461bcd60e51b815260206004820152600b60248201526a1a5b9d985b1a590818da5960aa1b60448201526064016101da565b60405162900f0160e41b81526001600160a01b038381166004830152829190821690630900f01090602401600060405180830381600087803b15801561027b57600080fd5b505af115801561028f573d6000803e3d6000fd5b50505060008581526001602052604080822080546001600160a01b0319166001600160a01b0388811691821790925591519193508516917fd23ce5645530506727523fe6d7939e72bb49102454460bc72f0f5baec60ac71891a350505050565b6000838152600160205260409020546001600160a01b0316156103545760405162461bcd60e51b815260206004820152601860248201527f636f6d6d756e69747920616c726561647920657869737473000000000000000060448201526064016101da565b6000604051610362906107fc565b604051809103906000f08015801561037e573d6000803e3d6000fd5b506040516369218ec960e11b8152600481018690526001600160a01b0385811660248301528481166044830152336064830152600060848301529192509082169063d2431d929060a401600060405180830381600087803b1580156103e257600080fd5b505af11580156103f6573d6000803e3d6000fd5b5050506000948552506001602052604090932080546001600160a01b0319166001600160a01b03909416939093179092555050565b6000546001600160a01b031633146104555760405162461bcd60e51b81526004016101da906108ef565b61045f60006107ac565b565b6000818152600160209081526040808320548151629032ff60e51b815291516001600160a01b039091169392839283928392839288926312065fe0926004808401939192918290030181865afa1580156104bf573d6000803e3d6000fd5b505050506040513d601f19601f820116820180604052508101906104e39190610924565b9350856001600160a01b0316630682bdbc6040518163ffffffff1660e01b8152600401602060405180830381865afa158015610523573d6000803e3d6000fd5b505050506040513d601f19601f82011682018060405250810190610547919061093d565b9250856001600160a01b031663d0ef024a6040518163ffffffff1660e01b8152600401602060405180830381865afa158015610587573d6000803e3d6000fd5b505050506040513d601f19601f820116820180604052508101906105ab919061093d565b9450856001600160a01b03166302d05d3f6040518163ffffffff1660e01b8152600401602060405180830381865afa1580156105eb573d6000803e3d6000fd5b505050506040513d601f19601f8201168201806040525081019061060f919061093d565b9150856001600160a01b0316630fb2ec946040518163ffffffff1660e01b8152600401602060405180830381865afa15801561064f573d6000803e3d6000fd5b505050506040513d601f19601f82011682018060405250810190610673919061093d565b905091939550919395565b603081901c60008181526001602052604080822054905163cb9f881360e01b815260048101869052602481018590529192916001600160a01b0390911690819063cb9f881390604401602060405180830381865afa1580156106e4573d6000803e3d6000fd5b505050506040513d601f19601f82011682018060405250810190610708919061095a565b95945050505050565b6000546001600160a01b0316331461073b5760405162461bcd60e51b81526004016101da906108ef565b6001600160a01b0381166107a05760405162461bcd60e51b815260206004820152602660248201527f4f776e61626c653a206e6577206f776e657220697320746865207a65726f206160448201526564647265737360d01b60648201526084016101da565b6107a9816107ac565b50565b600080546001600160a01b038381166001600160a01b0319831681178455604051919092169283917f8be0079c531659141344cd1fd0a4f28419497f9722a3daafe3b4186f6b6457e09190a35050565b611f748061097d83390190565b6001600160a01b03811681146107a957600080fd5b6000806040838503121561083157600080fd5b82359150602083013561084381610809565b809150509250929050565b60008060006060848603121561086357600080fd5b83359250602084013561087581610809565b9150604084013561088581610809565b809150509250925092565b6000602082840312156108a257600080fd5b5035919050565b600080604083850312156108bc57600080fd5b50508035926020909101359150565b6000602082840312156108dd57600080fd5b81356108e881610809565b9392505050565b6020808252818101527f4f776e61626c653a2063616c6c6572206973206e6f7420746865206f776e6572604082015260600190565b60006020828403121561093657600080fd5b5051919050565b60006020828403121561094f57600080fd5b81516108e881610809565b60006020828403121561096c57600080fd5b815180151581146108e857600080fdfe60806040526003805460ff60a01b1916905534801561001d57600080fd5b5061002733610030565b60018055610080565b600080546001600160a01b038381166001600160a01b0319831681178455604051919092169283917f8be0079c531659141344cd1fd0a4f28419497f9722a3daafe3b4186f6b6457e09190a35050565b611ee58061008f6000396000f3fe60806040523480156200001157600080fd5b5060043610620001155760003560e01c80633ccfd60b11620000a3578063cb9f8813116200006e578063cb9f8813146200022c578063d0ef024a1462000254578063d2431d92146200025e578063f2fde38b146200027557600080fd5b80633ccfd60b14620001ef578063715018a614620001f95780637998994a14620002035780638da5cb5b146200021a57600080fd5b80630fb2ec9411620000e45780630fb2ec94146200019457806311f9a97d14620001a857806312065fe014620001bf5780631513704514620001d857600080fd5b806302d05d3f146200011a5780630682bdbc146200014b5780630900f01014620001555780630c4f87ca146200016e575b600080fd5b6003546200012e906001600160a01b031681565b6040516001600160a01b0390911681526020015b60405180910390f35b6200012e6200028c565b6200016c6200016636600462000fcd565b62000302565b005b620001856200017f3660046200103c565b620003ec565b6040516200014291906200108c565b6002546200012e906001600160a01b031681565b6200016c620001b936600462000fcd565b62000521565b620001c962000581565b60405190815260200162000142565b6200016c620001e936600462000fcd565b620005f1565b6200016c62000651565b6200016c620006df565b6200016c62000214366004620010d4565b6200071a565b6000546001600160a01b03166200012e565b620002436200023d366004620011a1565b62000aee565b604051901515815260200162000142565b6200012e62000b6d565b6200016c6200026f366004620011c4565b62000bb8565b6200016c6200028636600462000fcd565b62000cc6565b600254604080516301a0af6f60e21b815290516000926001600160a01b031691630682bdbc9160048083019260209291908290030181865afa158015620002d7573d6000803e3d6000fd5b505050506040513d601f19601f82011682018060405250810190620002fd919062001235565b905090565b6000546001600160a01b03163314620003385760405162461bcd60e51b81526004016200032f9062001255565b60405180910390fd5b6001600160a01b038116620003875760405162461bcd60e51b8152602060048201526014602482015273696e76616c6964206e6577436f6d6d756e69747960601b60448201526064016200032f565b60025460405163f2fde38b60e01b81526001600160a01b0383811660048301529091169063f2fde38b906024015b600060405180830381600087803b158015620003d057600080fd5b505af1158015620003e5573d6000803e3d6000fd5b5050505050565b606060008267ffffffffffffffff8111156200040c576200040c6200128a565b60405190808252806020026020018201604052801562000436578160200160208202803683370190505b50905060005b8381101562000518576002546001600160a01b031663cb9f8813878787858181106200046c576200046c620012a0565b905060200201356040518363ffffffff1660e01b81526004016200049a929190918252602082015260400190565b602060405180830381865afa158015620004b8573d6000803e3d6000fd5b505050506040513d601f19601f82011682018060405250810190620004de9190620012b6565b828281518110620004f357620004f3620012a0565b91151560209283029190910190910152806200050f81620012f0565b9150506200043c565b50949350505050565b6003546001600160a01b031633146200054e5760405162461bcd60e51b81526004016200032f906200130c565b6002546040516311f9a97d60e01b81526001600160a01b038381166004830152909116906311f9a97d90602401620003b5565b60025460408051629032ff60e51b815290516000926001600160a01b0316916312065fe09160048083019260209291908290030181865afa158015620005cb573d6000803e3d6000fd5b505050506040513d601f19601f82011682018060405250810190620002fd91906200134e565b6003546001600160a01b031633146200061e5760405162461bcd60e51b81526004016200032f906200130c565b600254604051631513704560e01b81526001600160a01b03838116600483015290911690631513704590602401620003b5565b6003546001600160a01b031633146200067e5760405162461bcd60e51b81526004016200032f906200130c565b6002546040516351cff8d960e01b81523360048201526001600160a01b03909116906351cff8d990602401600060405180830381600087803b158015620006c457600080fd5b505af1158015620006d9573d6000803e3d6000fd5b50505050565b6000546001600160a01b031633146200070c5760405162461bcd60e51b81526004016200032f9062001255565b62000718600062000d68565b565b6002600154036200076e5760405162461bcd60e51b815260206004820152601f60248201527f5265656e7472616e637947756172643a207265656e7472616e742063616c6c0060448201526064016200032f565b600260015583620007b55760405162461bcd60e51b815260206004820152601060248201526f676574206174206c65617374206f6e6560801b60448201526064016200032f565b60418114620007fd5760405162461bcd60e51b81526020600482015260136024820152720d2dcecc2d8d2c840e6d2cedc40d8cadccee8d606b1b60448201526064016200032f565b6001600160a01b0386163314620008465760405162461bcd60e51b815260206004820152600c60248201526b34b73b30b634b21030b2323960a11b60448201526064016200032f565b60025460408051636877812560e11b815290516000926001600160a01b03169163d0ef024a9160048083019260209291908290030181865afa15801562000891573d6000803e3d6000fd5b505050506040513d601f19601f82011682018060405250810190620008b7919062001235565b6001600160a01b031603620009055760405162461bcd60e51b81526020600482015260136024820152721c1c9a5e99481d1bdad95b881b9bdd081cd95d606a1b60448201526064016200032f565b6000874688888888604051602001620009249695949392919062001368565b6040516020818303038152906040528051906020012090506200094981848462000db8565b620009865760405162461bcd60e51b815260206004820152600c60248201526b34b73b30b634b21039b4b3b760a11b60448201526064016200032f565b60005b8581101562000a31576002546001600160a01b03166340fb4f1b8a898985818110620009b957620009b9620012a0565b905060200201356040518363ffffffff1660e01b8152600401620009e7929190918252602082015260400190565b600060405180830381600087803b15801562000a0257600080fd5b505af115801562000a17573d6000803e3d6000fd5b50505050808062000a2890620012f0565b91505062000989565b5060025460405163a9059cbb60e01b8152336004820152602481018690526001600160a01b039091169063a9059cbb90604401600060405180830381600087803b15801562000a7f57600080fd5b505af115801562000a94573d6000803e3d6000fd5b50505050336001600160a01b0316887f264ce9308cfd4d4e70c79668f075d14c8ae8074608ff6c0bdf3d8639a8474bcd88888860405162000ad893929190620013c5565b60405180910390a3505060018055505050505050565b60025460405163cb9f881360e01b815260048101849052602481018390526000916001600160a01b03169063cb9f881390604401602060405180830381865afa15801562000b40573d6000803e3d6000fd5b505050506040513d601f19601f8201168201806040525081019062000b669190620012b6565b9392505050565b60025460408051636877812560e11b815290516000926001600160a01b03169163d0ef024a9160048083019260209291908290030181865afa158015620002d7573d6000803e3d6000fd5b6000546001600160a01b0316331462000be55760405162461bcd60e51b81526004016200032f9062001255565b600354600160a01b900460ff16620003e5576001600160a01b03811662000c80578430848660405162000c189062000fa9565b9384526001600160a01b0392831660208501529082166040840152166060820152608001604051809103906000f08015801562000c59573d6000803e3d6000fd5b50600280546001600160a01b0319166001600160a01b039290921691909117905562000c9c565b600280546001600160a01b0319166001600160a01b0383161790555b600380546001600160a01b0384166001600160a81b031990911617600160a01b1790555050505050565b6000546001600160a01b0316331462000cf35760405162461bcd60e51b81526004016200032f9062001255565b6001600160a01b03811662000d5a5760405162461bcd60e51b815260206004820152602660248201527f4f776e61626c653a206e6577206f776e657220697320746865207a65726f206160448201526564647265737360d01b60648201526084016200032f565b62000d658162000d68565b50565b600080546001600160a01b038381166001600160a01b0319831681178455604051919092169283917f8be0079c531659141344cd1fd0a4f28419497f9722a3daafe3b4186f6b6457e09190a35050565b60008062000dca60208285876200140c565b81019062000dd9919062001438565b9050600062000ded6040602086886200140c565b81019062000dfc919062001438565b905060008585604081811062000e165762000e16620012a0565b919091013560f81c915050601b81101562000e555760ff8116158062000e3f57508060ff166001145b1562000e555762000e52601b8262001452565b90505b60006040518060400160405280601c81526020017f19457468657265756d205369676e6564204d6573736167653a0a33320000000081525090506000818960405160200162000ea69291906200147a565b60408051601f198184030181528282528051602091820120600080855291840180845281905260ff87169284019290925260608301889052608083018790529092509060019060a0016020604051602081039080840390855afa15801562000f12573d6000803e3d6000fd5b505060408051601f198101516002546301a0af6f60e21b835292519094506001600160a01b039092169250630682bdbc9160048083019260209291908290030181865afa15801562000f68573d6000803e3d6000fd5b505050506040513d601f19601f8201168201806040525081019062000f8e919062001235565b6001600160a01b039182169116149998505050505050505050565b6109f180620014bf83390190565b6001600160a01b038116811462000d6557600080fd5b60006020828403121562000fe057600080fd5b813562000b668162000fb7565b60008083601f8401126200100057600080fd5b50813567ffffffffffffffff8111156200101957600080fd5b6020830191508360208260051b85010111156200103557600080fd5b9250929050565b6000806000604084860312156200105257600080fd5b83359250602084013567ffffffffffffffff8111156200107157600080fd5b6200107f8682870162000fed565b9497909650939450505050565b6020808252825182820181905260009190848201906040850190845b81811015620010c8578351151583529284019291840191600101620010a8565b50909695505050505050565b600080600080600080600060a0888a031215620010f057600080fd5b873596506020880135620011048162000fb7565b9550604088013567ffffffffffffffff808211156200112257600080fd5b620011308b838c0162000fed565b909750955060608a0135945060808a01359150808211156200115157600080fd5b818a0191508a601f8301126200116657600080fd5b8135818111156200117657600080fd5b8b60208285010111156200118957600080fd5b60208301945080935050505092959891949750929550565b60008060408385031215620011b557600080fd5b50508035926020909101359150565b600080600080600060a08688031215620011dd57600080fd5b853594506020860135620011f18162000fb7565b93506040860135620012038162000fb7565b92506060860135620012158162000fb7565b91506080860135620012278162000fb7565b809150509295509295909350565b6000602082840312156200124857600080fd5b815162000b668162000fb7565b6020808252818101527f4f776e61626c653a2063616c6c6572206973206e6f7420746865206f776e6572604082015260600190565b634e487b7160e01b600052604160045260246000fd5b634e487b7160e01b600052603260045260246000fd5b600060208284031215620012c957600080fd5b8151801515811462000b6657600080fd5b634e487b7160e01b600052601160045260246000fd5b600060018201620013055762001305620012da565b5060010190565b60208082526022908201527f4f776e61626c653a2063616c6c6572206973206e6f742074686520637265617460408201526137b960f11b606082015260800190565b6000602082840312156200136157600080fd5b5051919050565b86815260208101869052606085901b6bffffffffffffffffffffffff1916604082015260006001600160fb1b03841115620013a257600080fd5b8360051b8086605485013760549201918201929092526074019695505050505050565b6040808252810183905260006001600160fb1b03841115620013e657600080fd5b8360051b8086606085013760009083016060019081526020909201929092529392505050565b600080858511156200141d57600080fd5b838611156200142b57600080fd5b5050820193919092039150565b6000602082840312156200144b57600080fd5b5035919050565b600060ff821660ff84168060ff03821115620014725762001472620012da565b019392505050565b6000835160005b818110156200149d576020818701810151858301520162001481565b81811115620014ad576000828501525b50919091019182525060200191905056fe608060405234801561001057600080fd5b506040516109f13803806109f183398101604081905261002f916101bb565b6100383361007f565b6002849055600380546001600160a01b038085166001600160a01b0319928316179092556004805492841692909116919091179055610076836100cf565b50505050610208565b600080546001600160a01b038381166001600160a01b0319831681178455604051919092169283917f8be0079c531659141344cd1fd0a4f28419497f9722a3daafe3b4186f6b6457e09190a35050565b6000546001600160a01b0316331461012e5760405162461bcd60e51b815260206004820181905260248201527f4f776e61626c653a2063616c6c6572206973206e6f7420746865206f776e657260448201526064015b60405180910390fd5b6001600160a01b0381166101935760405162461bcd60e51b815260206004820152602660248201527f4f776e61626c653a206e6577206f776e657220697320746865207a65726f206160448201526564647265737360d01b6064820152608401610125565b61019c8161007f565b50565b80516001600160a01b03811681146101b657600080fd5b919050565b600080600080608085870312156101d157600080fd5b845193506101e16020860161019f565b92506101ef6040860161019f565b91506101fd6060860161019f565b905092959194509250565b6107da806102176000396000f3fe608060405234801561001057600080fd5b50600436106100cf5760003560e01c8063715018a61161008c578063a9059cbb11610066578063a9059cbb1461018a578063cb9f88131461019d578063d0ef024a146101db578063f2fde38b146101ee57600080fd5b8063715018a6146101685780637f50861a146101705780638da5cb5b1461017957600080fd5b80630682bdbc146100d457806311f9a97d1461010457806312065fe014610119578063151370451461012f57806340fb4f1b1461014257806351cff8d914610155575b600080fd5b6004546100e7906001600160a01b031681565b6040516001600160a01b0390911681526020015b60405180910390f35b6101176101123660046106c6565b610201565b005b610121610256565b6040519081526020016100fb565b61011761013d3660046106c6565b6102c8565b6101176101503660046106e8565b610314565b6101176101633660046106c6565b610409565b610117610526565b61012160025481565b6000546001600160a01b03166100e7565b61011761019836600461070a565b61055c565b6101cb6101ab3660046106e8565b600160209081526000928352604080842090915290825290205460ff1681565b60405190151581526020016100fb565b6003546100e7906001600160a01b031681565b6101176101fc3660046106c6565b6105bf565b6000546001600160a01b031633146102345760405162461bcd60e51b815260040161022b90610734565b60405180910390fd5b600380546001600160a01b0319166001600160a01b0392909216919091179055565b6003546040516370a0823160e01b81523060048201526000916001600160a01b0316906370a0823190602401602060405180830381865afa15801561029f573d6000803e3d6000fd5b505050506040513d601f19601f820116820180604052508101906102c39190610769565b905090565b6000546001600160a01b031633146102f25760405162461bcd60e51b815260040161022b90610734565b600480546001600160a01b0319166001600160a01b0392909216919091179055565b6000546001600160a01b0316331461033e5760405162461bcd60e51b815260040161022b90610734565b603081901c600254146103875760405162461bcd60e51b8152602060048201526011602482015270696e76616c696420636f6d6d756e69747960781b604482015260640161022b565b600082815260016020908152604080832084845290915290205460ff16156103e35760405162461bcd60e51b815260206004820152600f60248201526e185b1c9958591e4818db185a5b5959608a1b604482015260640161022b565b60009182526001602081815260408085209385529290529120805460ff19169091179055565b6000546001600160a01b031633146104335760405162461bcd60e51b815260040161022b90610734565b6003546040516370a0823160e01b81523060048201526000916001600160a01b0316906370a0823190602401602060405180830381865afa15801561047c573d6000803e3d6000fd5b505050506040513d601f19601f820116820180604052508101906104a09190610769565b905080156105225760035460405163a9059cbb60e01b81526001600160a01b038481166004830152602482018490529091169063a9059cbb906044015b6020604051808303816000875af11580156104fc573d6000803e3d6000fd5b505050506040513d601f19601f820116820180604052508101906105209190610782565b505b5050565b6000546001600160a01b031633146105505760405162461bcd60e51b815260040161022b90610734565b61055a600061065a565b565b6000546001600160a01b031633146105865760405162461bcd60e51b815260040161022b90610734565b60035460405163a9059cbb60e01b81526001600160a01b038481166004830152602482018490529091169063a9059cbb906044016104dd565b6000546001600160a01b031633146105e95760405162461bcd60e51b815260040161022b90610734565b6001600160a01b03811661064e5760405162461bcd60e51b815260206004820152602660248201527f4f776e61626c653a206e6577206f776e657220697320746865207a65726f206160448201526564647265737360d01b606482015260840161022b565b6106578161065a565b50565b600080546001600160a01b038381166001600160a01b0319831681178455604051919092169283917f8be0079c531659141344cd1fd0a4f28419497f9722a3daafe3b4186f6b6457e09190a35050565b80356001600160a01b03811681146106c157600080fd5b919050565b6000602082840312156106d857600080fd5b6106e1826106aa565b9392505050565b600080604083850312156106fb57600080fd5b50508035926020909101359150565b6000806040838503121561071d57600080fd5b610726836106aa565b946020939093013593505050565b6020808252818101527f4f776e61626c653a2063616c6c6572206973206e6f7420746865206f776e6572604082015260600190565b60006020828403121561077b57600080fd5b5051919050565b60006020828403121561079457600080fd5b815180151581146106e157600080fdfea2646970667358221220b7a6d7231b3a2379fff8aa22dbaa7a125f60a81f502c5ad765eea2559a717bba64736f6c634300080d0033a26469706673582212205d33771a6c7cbef512ac2f338815cb9a7a9c544d70839b4520038aaf5f9cb6f964736f6c634300080d0033a264697066735822122040b19decd24c209e5d57d011de8317cd0430a305edce1e1b232cb597ff0d820c64736f6c634300080d0033",
  "immutableReferences": {},
  "source": "// SPDX-License-Identifier: MIT\npragma solidity ^0.8.0;\n\nimport \"@openzeppelin/contracts/access/Ownable.sol\";\nimport \"./AutoCuration.sol\";\n\ncontract CommunityCuration is Ownable {\n    event Upgrade(address indexed oldContract, address indexed newContract);\n\n    // cid => community contract\n    mapping(uint256 => address) public communities;\n\n    function createCommunity(uint256 cid, address signAddr, address prizeToken) public {\n        require(communities[cid] == address(0), \"community already exists\");\n\n        AutoCuration ac = new AutoCuration();\n        ac.init(cid, signAddr, prizeToken, msg.sender, address(0));\n        communities[cid] = address(ac);\n    }\n\n    function getCommunityInfo(uint256 cid) public view returns (address communityAddr, address prizeToken, uint256 balance, address signAddr, address creator, address storageAddr) {\n        communityAddr = communities[cid];\n        balance = AutoCuration(communityAddr).getBalance();\n        signAddr = AutoCuration(communityAddr).signAddress();\n        prizeToken = AutoCuration(communityAddr).prizeToken();\n        creator = AutoCuration(communityAddr).creator();\n        storageAddr = address(AutoCuration(communityAddr).cStorage());\n    }\n\n    function upgrade(uint256 cid, address newCommunity) public onlyOwner {\n        address oldAddr = communities[cid];\n        require(oldAddr != address(0), \"invalid cid\");\n        AutoCuration ac = AutoCuration(oldAddr);\n        ac.upgrade(newCommunity);\n        communities[cid] = newCommunity;\n        emit Upgrade(oldAddr, newCommunity);\n    }\n\n    function alreadyClaimed(uint256 twitterId, uint256 curationId) public view returns (bool) {\n        uint256 cid = curationId >> 48;\n        address communityAddr = communities[cid];\n        return AutoCuration(communityAddr).alreadyClaimed(twitterId, curationId);\n    }\n\n    function getId() public view returns (uint) {\n        return block.chainid;\n    }\n}\n",
  "sourcePath": "/Users/necklace/work/nutbox/nutbox-contract/contracts/CommunityCuration.sol",
  "compiler": {
    "name": "solc",
    "version": "0.8.13+commit.abaa5c0e.Emscripten.clang"
  },
  "schemaVersion": "3.4.11",
  "updatedAt": "2023-04-26T03:27:36.415Z",
  "devdoc": {
    "kind": "dev",
    "methods": {
      "owner()": {
        "details": "Returns the address of the current owner."
      },
      "renounceOwnership()": {
        "details": "Leaves the contract without owner. It will not be possible to call `onlyOwner` functions anymore. Can only be called by the current owner. NOTE: Renouncing ownership will leave the contract without an owner, thereby removing any functionality that is only available to the owner."
      },
      "transferOwnership(address)": {
        "details": "Transfers ownership of the contract to a new account (`newOwner`). Can only be called by the current owner."
      }
    },
    "version": 1
  },
  "userdoc": {
    "kind": "user",
    "methods": {},
    "version": 1
  }
}