{
  "contractName": "CommunityFactory",
  "abi": [
    {
      "inputs": [
        {
          "internalType": "address",
          "name": "_committee",
          "type": "address"
        }
      ],
      "stateMutability": "nonpayable",
      "type": "constructor"
    },
    {
      "anonymous": false,
      "inputs": [
        {
          "indexed": true,
          "internalType": "address",
          "name": "creator",
          "type": "address"
        },
        {
          "indexed": true,
          "internalType": "address",
          "name": "community",
          "type": "address"
        },
        {
          "indexed": false,
          "internalType": "address",
          "name": "communityToken",
          "type": "address"
        }
      ],
      "name": "CommunityCreated",
      "type": "event"
    },
    {
      "inputs": [
        {
          "internalType": "address",
          "name": "",
          "type": "address"
        }
      ],
      "name": "createdCommunity",
      "outputs": [
        {
          "internalType": "bool",
          "name": "",
          "type": "bool"
        }
      ],
      "stateMutability": "view",
      "type": "function"
    },
    {
      "inputs": [
        {
          "internalType": "bool",
          "name": "isMintable",
          "type": "bool"
        },
        {
          "internalType": "address",
          "name": "communityToken",
          "type": "address"
        },
        {
          "internalType": "address",
          "name": "communityTokenFactory",
          "type": "address"
        },
        {
          "internalType": "bytes",
          "name": "tokenMeta",
          "type": "bytes"
        },
        {
          "internalType": "address",
          "name": "rewardCalculator",
          "type": "address"
        },
        {
          "internalType": "bytes",
          "name": "distributionPolicy",
          "type": "bytes"
        }
      ],
      "name": "createCommunity",
      "outputs": [],
      "stateMutability": "nonpayable",
      "type": "function"
    }
  ],
  "bytecode": "0x60a060405234801561001057600080fd5b5060405161448d38038061448d83398101604081905261002f9161008d565b6001600160a01b038116610078576040517f08c379a000000000000000000000000000000000000000000000000000000000815260040161006f906100bb565b60405180910390fd5b60601b6001600160601b0319166080526100f2565b60006020828403121561009e578081fd5b81516001600160a01b03811681146100b4578182fd5b9392505050565b60208082526011908201527f496e76616c696420636f6d6d6974746565000000000000000000000000000000604082015260600190565b60805160601c6143386101556000396000818160b301528181610195015281816102cd01528181610427015281816104ce01528181610559015281816106960152818161072c015281816107d60152818161087c015261098d01526143386000f3fe60806040523480156200001157600080fd5b50600436106200003a5760003560e01c806368a94b6e146200003f578063cc83eac5146200006e575b600080fd5b620000566200005036600462000bf8565b62000087565b60405162000065919062000e74565b60405180910390f35b620000856200007f36600462000c5c565b6200009c565b005b60006020819052908152604090205460ff1681565b604051633d200b4560e01b81526001600160a01b037f00000000000000000000000000000000000000000000000000000000000000001690633d200b4590620000ea90869060040162000dbf565b60206040518083038186803b1580156200010357600080fd5b505afa15801562000118573d6000803e3d6000fd5b505050506040513d601f19601f820116820180604052508101906200013e919062000c3d565b620001665760405162461bcd60e51b81526004016200015d9062000eb4565b60405180910390fd5b60006001600160a01b038816620002c85750604051633d200b4560e01b81526001985088906001600160a01b037f00000000000000000000000000000000000000000000000000000000000000001690633d200b4590620001cc908a9060040162000dbf565b60206040518083038186803b158015620001e557600080fd5b505afa158015620001fa573d6000803e3d6000fd5b505050506040513d601f19601f8201168201806040525081019062000220919062000c3d565b6200023f5760405162461bcd60e51b81526004016200015d9062000f05565b604051633120db1b60e01b81526001600160a01b03881690633120db1b906200026f908990899060040162000e96565b602060405180830381600087803b1580156200028a57600080fd5b505af11580156200029f573d6000803e3d6000fd5b505050506040513d601f19601f82011682018060405250810190620002c5919062000c1e565b97505b6000337f00000000000000000000000000000000000000000000000000000000000000008a878d604051620002fd9062000ba0565b6200030d95949392919062000ded565b604051809103906000f0801580156200032a573d6000803e3d6000fd5b50905081156200040d57886001600160a01b0316632f2ff15d8a6001600160a01b031663d53913936040518163ffffffff1660e01b815260040160206040518083038186803b1580156200037d57600080fd5b505afa15801562000392573d6000803e3d6000fd5b505050506040513d601f19601f82011682018060405250810190620003b8919062000d24565b836040518363ffffffff1660e01b8152600401620003d892919062000e7f565b600060405180830381600087803b158015620003f357600080fd5b505af115801562000408573d6000803e3d6000fd5b505050505b604051631da3ddcd60e31b81526000906001600160a01b037f0000000000000000000000000000000000000000000000000000000000000000169063ed1eee68906200045c9060040162000f6c565b60206040518083038186803b1580156200047557600080fd5b505afa1580156200048a573d6000803e3d6000fd5b505050506040513d601f19601f82011682018060405250810190620004b0919062000d24565b1115620008ed57604051631da3ddcd60e31b81526001600160a01b037f0000000000000000000000000000000000000000000000000000000000000000169063ed1eee6890620005039060040162000f6c565b60206040518083038186803b1580156200051c57600080fd5b505afa15801562000531573d6000803e3d6000fd5b505050506040513d601f19601f8201168201806040525081019062000557919062000d24565b7f00000000000000000000000000000000000000000000000000000000000000006001600160a01b031663c10bde0b6040518163ffffffff1660e01b815260040160206040518083038186803b158015620005b157600080fd5b505afa158015620005c6573d6000803e3d6000fd5b505050506040513d601f19601f82011682018060405250810190620005ec919062000c1e565b6001600160a01b031663dd62ed3e33306040518363ffffffff1660e01b81526004016200061b92919062000dd3565b60206040518083038186803b1580156200063457600080fd5b505afa15801562000649573d6000803e3d6000fd5b505050506040513d601f19601f820116820180604052508101906200066f919062000d24565b1015620006905760405162461bcd60e51b81526004016200015d9062000f4e565b620008657f00000000000000000000000000000000000000000000000000000000000000006001600160a01b031663c10bde0b6040518163ffffffff1660e01b815260040160206040518083038186803b158015620006ee57600080fd5b505afa15801562000703573d6000803e3d6000fd5b505050506040513d601f19601f8201168201806040525081019062000729919062000c1e565b337f00000000000000000000000000000000000000000000000000000000000000006001600160a01b0316633b19e84a6040518163ffffffff1660e01b815260040160206040518083038186803b1580156200078457600080fd5b505afa15801562000799573d6000803e3d6000fd5b505050506040513d601f19601f82011682018060405250810190620007bf919062000c1e565b604051631da3ddcd60e31b81526001600160a01b037f0000000000000000000000000000000000000000000000000000000000000000169063ed1eee68906200080b9060040162000f6c565b60206040518083038186803b1580156200082457600080fd5b505afa15801562000839573d6000803e3d6000fd5b505050506040513d601f19601f820116820180604052508101906200085f919062000d24565b62000a65565b60405163038815f360e41b81526001600160a01b037f000000000000000000000000000000000000000000000000000000000000000016906338815f3090620008b8908490600090339060040162000f86565b600060405180830381600087803b158015620008d357600080fd5b505af1158015620008e8573d6000803e3d6000fd5b505050505b604051635a6c95f560e01b81526001600160a01b03861690635a6c95f5906200091f9084908890889060040162000e44565b602060405180830381600087803b1580156200093a57600080fd5b505af11580156200094f573d6000803e3d6000fd5b505050506040513d601f19601f8201168201806040525081019062000975919062000c3d565b50604051631f1a022360e21b81526001600160a01b037f00000000000000000000000000000000000000000000000000000000000000001690637c68088c90620009c490849060040162000dbf565b600060405180830381600087803b158015620009df57600080fd5b505af1158015620009f4573d6000803e3d6000fd5b5050506001600160a01b03821660008181526020819052604090819020805460ff191660011790555190915033907fa1d5744e33f2d9cf5537c7ea77603378e4dbda6a0bebd8d33a3e613a4d401bb79062000a51908d9062000dbf565b60405180910390a350505050505050505050565b8362000a748185858562000a7b565b5050505050565b62000ad7846323b872dd60e01b85858560405160240162000a9f9392919062000e20565b60408051601f198184030181529190526020810180516001600160e01b03166001600160e01b03199093169290921790915262000add565b50505050565b600080836001600160a01b03168360405162000afa919062000d83565b6000604051808303816000865af19150503d806000811462000b39576040519150601f19603f3d011682016040523d82523d6000602084013e62000b3e565b606091505b50915091508162000b635760405162461bcd60e51b81526004016200015d9062000f22565b80511562000ad7578080602001905181019062000b81919062000c3d565b62000ad75760405162461bcd60e51b81526004016200015d9062000ed0565b6133198062000fea83390190565b60008083601f84011262000bc0578182fd5b50813567ffffffffffffffff81111562000bd8578182fd5b60208301915083602082850101111562000bf157600080fd5b9250929050565b60006020828403121562000c0a578081fd5b813562000c178162000fc1565b9392505050565b60006020828403121562000c30578081fd5b815162000c178162000fc1565b60006020828403121562000c4f578081fd5b815162000c178162000fda565b60008060008060008060008060c0898b03121562000c78578384fd5b883562000c858162000fda565b9750602089013562000c978162000fc1565b9650604089013562000ca98162000fc1565b9550606089013567ffffffffffffffff8082111562000cc6578586fd5b62000cd48c838d0162000bae565b909750955060808b0135915062000ceb8262000fc1565b90935060a08a0135908082111562000d01578384fd5b5062000d108b828c0162000bae565b999c989b5096995094979396929594505050565b60006020828403121562000d36578081fd5b5051919050565b60008284528282602086013780602084860101526020601f19601f85011685010190509392505050565b6009815268434f4d4d554e49545960b81b602082015260400190565b60008251815b8181101562000da5576020818601810151858301520162000d89565b8181111562000db45782828501525b509190910192915050565b6001600160a01b0391909116815260200190565b6001600160a01b0392831681529116602082015260400190565b6001600160a01b039586168152938516602085015291841660408401529092166060820152901515608082015260a00190565b6001600160a01b039384168152919092166020820152604081019190915260600190565b6001600160a01b038416815260406020820181905260009062000e6b908301848662000d3d565b95945050505050565b901515815260200190565b9182526001600160a01b0316602082015260400190565b60006020825262000eac60208301848662000d3d565b949350505050565b602080825260029082015261554360f01b604082015260600190565b6020808252818101527f45524332303a206f7065726174696f6e20646964206e6f742073756363656564604082015260600190565b60208082526003908201526255544360e81b604082015260600190565b602080825260129082015271115490cc8c0e8818d85b1b0819985a5b195960721b604082015260600190565b6020808252600490820152631b99595960e21b604082015260600190565b60006020825262000f806020830162000d67565b92915050565b60006080825262000f9a6080830162000d67565b6001600160a01b039586166020840152938516604083015250921660609092019190915290565b6001600160a01b038116811462000fd757600080fd5b50565b801515811462000fd757600080fdfe6101006040523480156200001257600080fd5b50604051620033193803806200331983398101604081905262000035916200020e565b6200004962000043620000d4565b620000d8565b620000548562000128565b600180546001600160a01b0387166001600160a01b031990911681179091556001600160601b0319606086811b821660805285811b821660a05284901b1660e05281151560f81b60c0526040516000907f5d777218f34a12264a9fec685df1868059eeec6d632b17a1775a00089e57533a908290a3505050505062000316565b3390565b600080546001600160a01b038381166001600160a01b0319831681178455604051919092169283917f8be0079c531659141344cd1fd0a4f28419497f9722a3daafe3b4186f6b6457e09190a35050565b62000132620000d4565b6001600160a01b031662000145620001e2565b6001600160a01b03161462000191576040517f08c379a00000000000000000000000000000000000000000000000000000000081526004016200018890620002e1565b60405180910390fd5b6001600160a01b038116620001d4576040517f08c379a0000000000000000000000000000000000000000000000000000000008152600401620001889062000284565b620001df81620000d8565b50565b6000546001600160a01b031690565b80516001600160a01b03811681146200020957600080fd5b919050565b600080600080600060a0868803121562000226578081fd5b6200023186620001f1565b94506200024160208701620001f1565b93506200025160408701620001f1565b92506200026160608701620001f1565b91506080860151801515811462000276578182fd5b809150509295509295909350565b60208082526026908201527f4f776e61626c653a206e6577206f776e657220697320746865207a65726f206160408201527f6464726573730000000000000000000000000000000000000000000000000000606082015260800190565b6020808252818101527f4f776e61626c653a2063616c6c6572206973206e6f7420746865206f776e6572604082015260600190565b60805160601c60a05160601c60c05160f81c60e05160601c612f54620003c560003960008181610f2f015281816115f00152611d09015260008181610fe60152818161158e0152612178015260008181610f710152818161102301528181611175015281816121a101526121d10152600081816105f401528181610a010152818161195a01528181611a0101528181611a9201528181611b2401528181611bca0152611c6b0152612f546000f3fe608060405234801561001057600080fd5b506004361061018e5760003560e01c8063a1970fa8116100de578063c10b3aee11610097578063f2fde38b11610071578063f2fde38b14610327578063f739a5291461033a578063fa32ddd81461034d578063fd0c94e3146103555761018e565b8063c10b3aee146102ee578063d262738314610301578063ef9b7208146103145761018e565b8063a1970fa81461027c578063a1a89dbc1461028f578063a2a00ed6146102a2578063a8c478ba146102b5578063af3bd4f2146102c8578063bf16c3c2146102db5761018e565b80637942016c1161014b57806396769e891161012557806396769e891461024457806398f69e9a1461024c57806399efcaec1461026c5780639af2e5ef146102745761018e565b80637942016c146102145780638ae63d6d146102275780638da5cb5b1461023c5761018e565b80630924004e14610193578063207cbd95146101a857806341744dd4146101bb57806354054370146101d95780635f78debd146101ec578063715018a61461020c575b600080fd5b6101a66101a13660046125db565b610368565b005b6101a66101b636600461274c565b610571565b6101c3610826565b6040516101d09190612d27565b60405180910390f35b6101a66101e736600461256b565b610837565b6101ff6101fa36600461284b565b6108f8565b6040516101d091906128d4565b6101a6610922565b6101a6610222366004612679565b61096d565b61022f610f1a565b6040516101d09190612d36565b6101ff610f1e565b6101ff610f2d565b61025f61025a36600461256b565b610f51565b6040516101d09190612a74565b6101ff610f6f565b6101a6610f93565b6101a661028a36600461284b565b611131565b61022f61029d36600461256b565b61119b565b61022f6102b03660046125a3565b6111b6565b61022f6102c336600461256b565b6111e3565b6101a66102d6366004612707565b61125e565b6101a66102e936600461264e565b61129c565b6101a66102fc366004612813565b6112f5565b6101ff61030f36600461284b565b6113e3565b6101a661032236600461264e565b6113f3565b6101a661033536600461256b565b61147e565b6101a66103483660046126b4565b6114ec565b61025f61158c565b61022f6103633660046125a3565b6115b0565b6103706118b2565b6001600160a01b0316610381610f1e565b6001600160a01b0316146103b05760405162461bcd60e51b81526004016103a790612c7e565b60405180910390fd5b6001600160a01b03831660009081526003602052604090205460ff166103e85760405162461bcd60e51b81526004016103a790612d0a565b6009546103f790600190612e2d565b8251146104165760405162461bcd60e51b81526004016103a790612b66565b80518251146104375760405162461bcd60e51b81526004016103a790612b03565b60005b82518110156104bc576003600084838151811061046757634e487b7160e01b600052603260045260246000fd5b6020908102919091018101516001600160a01b031682528101919091526040016000205460ff166104aa5760405162461bcd60e51b81526004016103a790612cd2565b806104b481612e92565b91505061043a565b506104c6816118b6565b6104f960405180604001604052806009815260200168434f4d4d554e49545960b81b8152506104f3610f1e565b85611943565b6001600160a01b0383166000908152600360209081526040909120805460ff19169055825161052e91600991908501906123ae565b506105388161200b565b6040516001600160a01b038416907fd9ddc9dcfa963ac8b810758254dfcbdd868ce81331581e7cfe5686f80cc0ed2090600090a2505050565b6105796118b2565b6001600160a01b031661058a610f1e565b6001600160a01b0316146105b05760405162461bcd60e51b81526004016103a790612c7e565b83516009546105c0906001612db3565b146105dd5760405162461bcd60e51b81526004016103a790612c27565b604051633d200b4560e01b81526001600160a01b037f00000000000000000000000000000000000000000000000000000000000000001690633d200b45906106299086906004016128d4565b60206040518083038186803b15801561064157600080fd5b505afa158015610655573d6000803e3d6000fd5b505050506040513d601f19601f8201168201806040525081019061067991906126e7565b6106955760405162461bcd60e51b81526004016103a790612bce565b61069e846118b6565b604051635c41e61560e11b81526000906001600160a01b0385169063b883cc2a906106d39030908a908890889060040161290c565b602060405180830381600087803b1580156106ed57600080fd5b505af1158015610701573d6000803e3d6000fd5b505050506040513d601f19601f820116820180604052508101906107259190612587565b905061075a60405180604001604052806009815260200168434f4d4d554e49545960b81b815250610754610f1e565b83611943565b6001600160a01b03811660008181526003602090815260408083208054600160ff1991821681179092556007845282852080549091168217905560049092528220829055600980548083019091557f6e1540171b6c0c960b71a7020d9f60077f6af931a8bbf590da0223dacf75c7af0180546001600160a01b03199081168517909155600a805492830181559092527fc65a7bb8d6351c1cf70c95a316cc6a92839c986682d98bc35f958f4883f9d2a8018054909116909117905561081e8561200b565b505050505050565b600054600160a01b900461ffff1681565b61083f6118b2565b6001600160a01b0316610850610f1e565b6001600160a01b0316146108765760405162461bcd60e51b81526004016103a790612c7e565b6001600160a01b03811661089c5760405162461bcd60e51b81526004016103a790612c62565b6001546040516001600160a01b038084169216907f5d777218f34a12264a9fec685df1868059eeec6d632b17a1775a00089e57533a90600090a3600180546001600160a01b0319166001600160a01b0392909216919091179055565b6009818154811061090857600080fd5b6000918252602090912001546001600160a01b0316905081565b61092a6118b2565b6001600160a01b031661093b610f1e565b6001600160a01b0316146109615760405162461bcd60e51b81526004016103a790612c7e565b61096b60006120ef565b565b600b5461097957610f17565b600081511161099a5760405162461bcd60e51b81526004016103a790612b84565b600b546109a5610f1a565b11156109fa576109fa604051806040016040528060048152602001632aa9a2a960e11b81525033836000815181106109ed57634e487b7160e01b600052603260045260246000fd5b6020026020010151611943565b60008060007f00000000000000000000000000000000000000000000000000000000000000006001600160a01b031663f2803f036040518163ffffffff1660e01b815260040160206040518083038186803b158015610a5857600080fd5b505afa158015610a6c573d6000803e3d6000fd5b505050506040513d601f19601f82011682018060405250810190610a909190612587565b905060005b84518160ff161015610eb5576000858260ff1681518110610ac657634e487b7160e01b600052603260045260246000fd5b6020908102919091018101516001600160a01b0381166000908152600790925260409091205490915060ff16610b0e5760405162461bcd60e51b81526004016103a790612cee565b6040516394465b2160e01b81526000906001600160a01b038316906394465b2190610b3d9033906004016128d4565b60206040518083038186803b158015610b5557600080fd5b505afa158015610b69573d6000803e3d6000fd5b505050506040513d601f19601f82011682018060405250810190610b8d9190612863565b6001600160a01b0383166000818152600660209081526040808320338452825280832054938352600490915281205492935091610be79190610be19064e8d4a5100090610bdb90879061213f565b90612152565b9061215e565b905060006001600160a01b03861615801590610c7c5750604051632b6d7e0f60e21b81526001600160a01b0387169063adb5f83c90610c2a9087906004016128d4565b602060405180830381600087803b158015610c4457600080fd5b505af1158015610c58573d6000803e3d6000fd5b505050506040513d601f19601f82011682018060405250810190610c7c91906126e7565b15610d25576000866001600160a01b031663328686f66040518163ffffffff1660e01b815260040160206040518083038186803b158015610cbc57600080fd5b505afa158015610cd0573d6000803e3d6000fd5b505050506040513d601f19601f82011682018060405250810190610cf4919061282f565b905061ffff811615610d2357610d14612710610bdb8561ffff851661213f565b9150610d20838961215e565b92505b505b8015610da35760405163330ff7b560e21b81526001600160a01b0387169063cc3fded490610d5b903090889086906004016128e8565b600060405180830381600087803b158015610d7557600080fd5b505af1158015610d89573d6000803e3d6000fd5b50505050610da0818861216a90919063ffffffff16565b96505b8115610dfc576001600160a01b0384166000908152600560209081526040808320338452909152902054610dd7908361216a565b6001600160a01b03851660009081526005602090815260408083203384529091529020555b6001600160a01b0384166000908152600560209081526040808320338452909152902054610e2b90899061216a565b6001600160a01b038516600090815260046020526040902054909850610e5d9064e8d4a5100090610bdb90869061213f565b6001600160a01b0390941660008181526006602090815260408083203380855290835281842098909855928252600581528282209682529590955284209390935550829150610ead905081612ead565b915050610a95565b508115610ec657610ec68183612176565b610ed03384612176565b336001600160a01b03167f6ef8cf0d66677b36d11ee4e51dbd733fcd95070b8c2eb524fb96952f26115cb28585604051610f0b92919061299d565b60405180910390a25050505b50565b4390565b6000546001600160a01b031690565b7f000000000000000000000000000000000000000000000000000000000000000081565b6001600160a01b031660009081526003602052604090205460ff1690565b7f000000000000000000000000000000000000000000000000000000000000000090565b610f9b6118b2565b6001600160a01b0316610fac610f1e565b6001600160a01b031614610fd25760405162461bcd60e51b81526004016103a790612c7e565b600060025411610fe157600080fd5b6002547f00000000000000000000000000000000000000000000000000000000000000006110c1576040516370a0823160e01b81526000906001600160a01b037f000000000000000000000000000000000000000000000000000000000000000016906370a08231906110589030906004016128d4565b60206040518083038186803b15801561107057600080fd5b505afa158015611084573d6000803e3d6000fd5b505050506040513d601f19601f820116820180604052508101906110a89190612863565b905060025481106110bb576002546110bd565b805b9150505b6001546110d7906001600160a01b031682612176565b6002546110e4908261215e565b6002556001546040516001600160a01b03909116907f86a5cc8fe9af9ae68fb50f62885307a7755a30cbd290131644377f0bd94a718190611126908490612d36565b60405180910390a250565b6111396118b2565b6001600160a01b031661114a610f1e565b6001600160a01b0316146111705760405162461bcd60e51b81526004016103a790612c7e565b610f177f000000000000000000000000000000000000000000000000000000000000000033836121f3565b6001600160a01b031660009081526004602052604090205490565b6001600160a01b038083166000908152600660209081526040808320938516835292905220545b92915050565b600080805b600a5461ffff821610156112575761124361123c600a8361ffff168154811061122157634e487b7160e01b600052603260045260246000fd5b6000918252602090912001546001600160a01b0316866115b0565b839061216a565b91508061124f81612e70565b9150506111e8565b5092915050565b3360009081526007602052604090205460ff1661128d5760405162461bcd60e51b81526004016103a790612c44565b611298828233611943565b5050565b3360009081526007602052604090205460ff166112cb5760405162461bcd60e51b81526004016103a790612c44565b3360009081526006602090815260408083206001600160a01b039590951683529390529190912055565b6112fd6118b2565b6001600160a01b031661130e610f1e565b6001600160a01b0316146113345760405162461bcd60e51b81526004016103a790612c7e565b61271061ffff8216111561135a5760405162461bcd60e51b81526004016103a790612cb3565b61138e60405180604001604052806009815260200168434f4d4d554e49545960b81b815250611387610f1e565b6000611943565b6000805461ffff60a01b1916600160a01b61ffff8416021790556040517fb5ea2431f5202daeb0439a80df086a35ec0abfd105e20f5564a824062596c09e906113d8908390612d27565b60405180910390a150565b600a818154811061090857600080fd5b3360009081526007602052604090205460ff166114225760405162461bcd60e51b81526004016103a790612c44565b3360009081526005602090815260408083206001600160a01b0386168452909152902054611450908261216a565b3360009081526005602090815260408083206001600160a01b03969096168352949052929092209190915550565b6114866118b2565b6001600160a01b0316611497610f1e565b6001600160a01b0316146114bd5760405162461bcd60e51b81526004016103a790612c7e565b6001600160a01b0381166114e35760405162461bcd60e51b81526004016103a790612b20565b610f17816120ef565b6114f46118b2565b6001600160a01b0316611505610f1e565b6001600160a01b03161461152b5760405162461bcd60e51b81526004016103a790612c7e565b80516009541461154d5760405162461bcd60e51b81526004016103a790612c0b565b611556816118b6565b61158360405180604001604052806009815260200168434f4d4d554e49545960b81b815250611387610f1e565b610f178161200b565b7f000000000000000000000000000000000000000000000000000000000000000081565b6000600b54600014156115c5575060006111dd565b600080546116a99061271090610bdb906115ea90600160a01b900461ffff1683612e0a565b61ffff167f00000000000000000000000000000000000000000000000000000000000000006001600160a01b0316632c32c36030600b54600161162d9190612db3565b611635610f1a565b6040518463ffffffff1660e01b81526004016116539392919061297c565b60206040518083038186803b15801561166b57600080fd5b505afa15801561167f573d6000803e3d6000fd5b505050506040513d601f19601f820116820180604052508101906116a39190612863565b9061213f565b90506000846001600160a01b03166394465b21856040518263ffffffff1660e01b81526004016116d991906128d4565b60206040518083038186803b1580156116f157600080fd5b505afa158015611705573d6000803e3d6000fd5b505050506040513d601f19601f820116820180604052508101906117299190612863565b90508061175e575050506001600160a01b038083166000908152600560209081526040808320938516835292905220546111dd565b6000856001600160a01b03166338adb6f06040518163ffffffff1660e01b815260040160206040518083038186803b15801561179957600080fd5b505afa1580156117ad573d6000803e3d6000fd5b505050506040513d601f19601f820116820180604052508101906117d19190612863565b6001600160a01b0387166000908152600860205260408120549192509061183090611811908490610bdb906305f5e100906116a3908a9061ffff1661213f565b6001600160a01b0389166000908152600460205260409020549061216a565b6001600160a01b038089166000908152600660209081526040808320938b168352929052908120549192509061187390610be164e8d4a51000610bdb888761213f565b6001600160a01b03808a166000908152600560209081526040808320938c16835292905220549091506118a6908261216a565b98975050505050505050565b3390565b6000805b82518160ff16101561191057828160ff16815181106118e957634e487b7160e01b600052603260045260246000fd5b6020026020010151826118fc9190612d8d565b91508061190881612ead565b9150506118ba565b5061ffff81166127101480611927575061ffff8116155b6112985760405162461bcd60e51b81526004016103a790612beb565b604051634ca1a91960e01b81526001600160a01b037f00000000000000000000000000000000000000000000000000000000000000001690634ca1a9199061198f9085906004016128d4565b60206040518083038186803b1580156119a757600080fd5b505afa1580156119bb573d6000803e3d6000fd5b505050506040513d601f19601f820116820180604052508101906119df91906126e7565b158015611a885750604051631da3ddcd60e31b81526000906001600160a01b037f0000000000000000000000000000000000000000000000000000000000000000169063ed1eee6890611a36908790600401612a7f565b60206040518083038186803b158015611a4e57600080fd5b505afa158015611a62573d6000803e3d6000fd5b505050506040513d601f19601f82011682018060405250810190611a869190612863565b115b15611cd957611c547f00000000000000000000000000000000000000000000000000000000000000006001600160a01b031663c10bde0b6040518163ffffffff1660e01b815260040160206040518083038186803b158015611ae957600080fd5b505afa158015611afd573d6000803e3d6000fd5b505050506040513d601f19601f82011682018060405250810190611b219190612587565b837f00000000000000000000000000000000000000000000000000000000000000006001600160a01b0316633b19e84a6040518163ffffffff1660e01b815260040160206040518083038186803b158015611b7b57600080fd5b505afa158015611b8f573d6000803e3d6000fd5b505050506040513d601f19601f82011682018060405250810190611bb39190612587565b604051631da3ddcd60e31b81526001600160a01b037f0000000000000000000000000000000000000000000000000000000000000000169063ed1eee6890611bff908a90600401612a7f565b60206040518083038186803b158015611c1757600080fd5b505afa158015611c2b573d6000803e3d6000fd5b505050506040513d601f19601f82011682018060405250810190611c4f9190612863565b612205565b60405163038815f360e41b81526001600160a01b037f000000000000000000000000000000000000000000000000000000000000000016906338815f3090611ca6908690309086908890600401612a92565b600060405180830381600087803b158015611cc057600080fd5b505af1158015611cd4573d6000803e3d6000fd5b505050505b600080611ce4610f1a565b9050600b5460001415611cf757600b8190555b600b548111611d07575050612006565b7f00000000000000000000000000000000000000000000000000000000000000006001600160a01b0316632c32c36030600b546001611d469190612db3565b846040518463ffffffff1660e01b8152600401611d659392919061297c565b60206040518083038186803b158015611d7d57600080fd5b505afa158015611d91573d6000803e3d6000fd5b505050506040513d601f19601f82011682018060405250810190611db59190612863565b91508115611e7657600054600160a01b900461ffff1615611e765760008054611df29061271090610bdb908690600160a01b900461ffff1661213f565b600254909150611e02908261216a565b600255600054611e319061271090610bdb90611e2a908390600160a01b900461ffff1661215e565b869061213f565b9250846001600160a01b03167f2f4ae87a584f00dc35b043dd1c5ac839c1f41cd3a66e834d4e13faa6251634e682604051611e6c9190612d36565b60405180910390a2505b60005b60095461ffff8216101561200057600060098261ffff1681548110611eae57634e487b7160e01b600052603260045260246000fd5b60009182526020808320909101546040805163038adb6f60e41b815290516001600160a01b03909216945084926338adb6f092600480840193829003018186803b158015611efb57600080fd5b505afa158015611f0f573d6000803e3d6000fd5b505050506040513d601f19601f82011682018060405250810190611f339190612863565b9050801580611f5c57506001600160a01b03821660009081526008602052604090205461ffff16155b15611f68575050611fee565b6001600160a01b038216600090815260086020526040812054611fa09061271090610bdb9061ffff166116a38a64e8d4a5100061213f565b9050611fce611faf8284612152565b6001600160a01b0385166000908152600460205260409020549061216a565b6001600160a01b0390931660009081526004602052604090209290925550505b80611ff881612e70565b915050611e79565b50600b55505b505050565b60005b60095461ffff821610156120bc57818161ffff168151811061204057634e487b7160e01b600052603260045260246000fd5b60200260200101516008600060098461ffff168154811061207157634e487b7160e01b600052603260045260246000fd5b6000918252602080832091909101546001600160a01b031683528201929092526040019020805461ffff191661ffff92909216919091179055806120b481612e70565b91505061200e565b507f5b904beeb70c84b12d4105e0582a752c5a2705717790e1a648a27ba8622b97866009826040516113d89291906129ee565b600080546001600160a01b038381166001600160a01b0319831681178455604051919092169283917f8be0079c531659141344cd1fd0a4f28419497f9722a3daafe3b4186f6b6457e09190a35050565b600061214b8284612deb565b9392505050565b600061214b8284612dcb565b600061214b8284612e2d565b600061214b8284612db3565b7f0000000000000000000000000000000000000000000000000000000000000000156121cc576121c77f00000000000000000000000000000000000000000000000000000000000000008383612219565b611298565b6112987f000000000000000000000000000000000000000000000000000000000000000083835b826121ff818484612281565b50505050565b83612212818585856122d7565b5050505050565b6040516340c10f1960e01b815283906001600160a01b038216906340c10f19906122499086908690600401612963565b600060405180830381600087803b15801561226357600080fd5b505af1158015612277573d6000803e3d6000fd5b5050505050505050565b6120068363a9059cbb60e01b84846040516024016122a0929190612963565b60408051601f198184030181529190526020810180516001600160e01b03166001600160e01b0319909316929092179091526122f8565b6121ff846323b872dd60e01b8585856040516024016122a0939291906128e8565b600080836001600160a01b03168360405161231391906128b8565b6000604051808303816000865af19150503d8060008114612350576040519150601f19603f3d011682016040523d82523d6000602084013e612355565b606091505b5091509150816123775760405162461bcd60e51b81526004016103a790612ba2565b8051156121ff578080602001905181019061239291906126e7565b6121ff5760405162461bcd60e51b81526004016103a790612ace565b828054828255906000526020600020908101928215612403579160200282015b8281111561240357825182546001600160a01b0319166001600160a01b039091161782556020909201916001909101906123ce565b5061240f929150612413565b5090565b5b8082111561240f5760008155600101612414565b600082601f830112612438578081fd5b8135602061244d61244883612d69565b612d3f565b8281528181019085830183850287018401881015612469578586fd5b855b8581101561249057813561247e81612ef9565b8452928401929084019060010161246b565b5090979650505050505050565b600082601f8301126124ad578081fd5b813560206124bd61244883612d69565b82815281810190858301838502870184018810156124d9578586fd5b855b858110156124905781356124ee81612f0e565b845292840192908401906001016124db565b600082601f830112612510578081fd5b813567ffffffffffffffff81111561252a5761252a612ee3565b61253d601f8201601f1916602001612d3f565b818152846020838601011115612551578283fd5b816020850160208301379081016020019190915292915050565b60006020828403121561257c578081fd5b813561214b81612ef9565b600060208284031215612598578081fd5b815161214b81612ef9565b600080604083850312156125b5578081fd5b82356125c081612ef9565b915060208301356125d081612ef9565b809150509250929050565b6000806000606084860312156125ef578081fd5b83356125fa81612ef9565b9250602084013567ffffffffffffffff80821115612616578283fd5b61262287838801612428565b93506040860135915080821115612637578283fd5b506126448682870161249d565b9150509250925092565b60008060408385031215612660578182fd5b823561266b81612ef9565b946020939093013593505050565b60006020828403121561268a578081fd5b813567ffffffffffffffff8111156126a0578182fd5b6126ac84828501612428565b949350505050565b6000602082840312156126c5578081fd5b813567ffffffffffffffff8111156126db578182fd5b6126ac8482850161249d565b6000602082840312156126f8578081fd5b8151801515811461214b578182fd5b60008060408385031215612719578182fd5b823567ffffffffffffffff81111561272f578283fd5b61273b85828601612500565b92505060208301356125d081612ef9565b600080600080600060808688031215612763578081fd5b853567ffffffffffffffff8082111561277a578283fd5b61278689838a01612500565b9650602088013591508082111561279b578283fd5b6127a789838a0161249d565b9550604088013591506127b982612ef9565b909350606087013590808211156127ce578283fd5b818801915088601f8301126127e1578283fd5b8135818111156127ef578384fd5b896020828501011115612800578384fd5b9699959850939650602001949392505050565b600060208284031215612824578081fd5b813561214b81612f0e565b600060208284031215612840578081fd5b815161214b81612f0e565b60006020828403121561285c578081fd5b5035919050565b600060208284031215612874578081fd5b5051919050565b6001600160a01b0316815260200190565b600081518084526128a4816020860160208601612e44565b601f01601f19169290920160200192915050565b600082516128ca818460208701612e44565b9190910192915050565b6001600160a01b0391909116815260200190565b6001600160a01b039384168152919092166020820152604081019190915260600190565b6001600160a01b03851681526060602082018190526000906129309083018661288c565b82810360408401528381528385602083013781602085830101526020601f19601f86011682010191505095945050505050565b6001600160a01b03929092168252602082015260400190565b6001600160a01b039390931683526020830191909152604082015260600190565b604080825283519082018190526000906020906060840190828701845b828110156129df5781516001600160a01b0316845292840192908401906001016129ba565b50505092019290925292915050565b6000604082016040835280855480835260608501915086845260209250828420845b82811015612a3c578154612a2e9085906001600160a01b031661287b565b935060019182019101612a10565b50505083810382850152845180825285830191830190845b8181101561249057835161ffff1683529284019291840191600101612a54565b901515815260200190565b60006020825261214b602083018461288c565b600060808252612aa5608083018761288c565b6001600160a01b0395861660208401529385166040830152509216606090920191909152919050565b6020808252818101527f45524332303a206f7065726174696f6e20646964206e6f742073756363656564604082015260600190565b6020808252600390820152624c444d60e81b604082015260600190565b60208082526026908201527f4f776e61626c653a206e6577206f776e657220697320746865207a65726f206160408201526564647265737360d01b606082015260800190565b60208082526004908201526315d0541360e21b604082015260600190565b6020808252600490820152634d484f3160e01b604082015260600190565b602080825260129082015271115490cc8c0e8818d85b1b0819985a5b195960721b604082015260600190565b6020808252600390820152622aa82360e91b604082015260600190565b6020808252600690820152655253213d317760d01b604082015260600190565b60208082526002908201526115d360f21b604082015260600190565b60208082526003908201526257504360e81b604082015260600190565b602080825260049082015263504e495760e01b604082015260600190565b602080825260029082015261494160f01b604082015260600190565b6020808252818101527f4f776e61626c653a2063616c6c6572206973206e6f7420746865206f776e6572604082015260600190565b60208082526005908201526450523e317760d81b604082015260600190565b602080825260029082015261057560f41b604082015260600190565b602080825260029082015261049560f41b604082015260600190565b60208082526003908201526250494160e81b604082015260600190565b61ffff91909116815260200190565b90815260200190565b60405181810167ffffffffffffffff81118282101715612d6157612d61612ee3565b604052919050565b600067ffffffffffffffff821115612d8357612d83612ee3565b5060209081020190565b600061ffff808316818516808303821115612daa57612daa612ecd565b01949350505050565b60008219821115612dc657612dc6612ecd565b500190565b600082612de657634e487b7160e01b81526012600452602481fd5b500490565b6000816000190483118215151615612e0557612e05612ecd565b500290565b600061ffff83811690831681811015612e2557612e25612ecd565b039392505050565b600082821015612e3f57612e3f612ecd565b500390565b60005b83811015612e5f578181015183820152602001612e47565b838111156121ff5750506000910152565b600061ffff80831681811415612e8857612e88612ecd565b6001019392505050565b6000600019821415612ea657612ea6612ecd565b5060010190565b600060ff821660ff811415612ec457612ec4612ecd565b60010192915050565b634e487b7160e01b600052601160045260246000fd5b634e487b7160e01b600052604160045260246000fd5b6001600160a01b0381168114610f1757600080fd5b61ffff81168114610f1757600080fdfea2646970667358221220d8bb4b0387cab20170622c98f34560aeba86371d2993ea5f3bd1d3b2577e7d1664736f6c63430008000033a2646970667358221220033985eb681ed3474523f554e882a703b8a066e2e9c6330115baab4820c65da564736f6c63430008000033",
  "immutableReferences": {
    "2007": [
      {
        "length": 32,
        "start": 179
      },
      {
        "length": 32,
        "start": 405
      },
      {
        "length": 32,
        "start": 717
      },
      {
        "length": 32,
        "start": 1063
      },
      {
        "length": 32,
        "start": 1230
      },
      {
        "length": 32,
        "start": 1369
      },
      {
        "length": 32,
        "start": 1686
      },
      {
        "length": 32,
        "start": 1836
      },
      {
        "length": 32,
        "start": 2006
      },
      {
        "length": 32,
        "start": 2172
      },
      {
        "length": 32,
        "start": 2445
      }
    ]
  },
  "source": "// SPDX-License-Identifier: MIT\n\npragma solidity 0.8.0;\npragma experimental ABIEncoderV2;\n\nimport './Community.sol';\nimport './interfaces/ICalculator.sol';\nimport './interfaces/ICommittee.sol';\nimport \"./interfaces/ICommunityTokenFactory.sol\";\nimport \"./ERC20Helper.sol\";\nimport \"./community-token/MintableERC20.sol\";\n\n/**\n * @dev Factory contract to create an StakingTemplate entity\n *\n * This is the entry contract that user start to create their own staking economy.\n */\ncontract CommunityFactory is ERC20Helper {\n\n    address immutable committee;\n    mapping (address => bool) public createdCommunity;\n\n    event CommunityCreated(address indexed creator, address indexed community, address communityToken);\n\n    constructor(address _committee) {\n        require(_committee != address(0), \"Invalid committee\");\n        committee = _committee;\n    }\n\n    // If communityToken == address(0), we would create a mintable token for cummunity by token factory,\n    // thus caller should give arguments bytes\n    function createCommunity (\n        bool isMintable,\n        address communityToken,\n        address communityTokenFactory,\n        bytes calldata tokenMeta,\n        address rewardCalculator,\n        bytes calldata distributionPolicy\n    ) external {\n        require(ICommittee(committee).verifyContract(rewardCalculator), 'UC'); // Unsupported calculator\n\n        // we would create a new mintable token for community\n        bool needGrantRole = false;\n        if (communityToken == address(0)){\n            needGrantRole = true;\n            isMintable = true;\n            require(ICommittee(committee).verifyContract(communityTokenFactory), 'UTC'); // Unsupported token factory\n            communityToken = ICommunityTokenFactory(communityTokenFactory).createCommunityToken(tokenMeta);\n        }\n\n        Community community = new Community(msg.sender, committee, communityToken, rewardCalculator, isMintable);\n       \n        if (needGrantRole){\n            // Token deployed by walnut need to grant mint role from community factory to sepecify community.\n            MintableERC20(communityToken).grantRole(MintableERC20(communityToken).MINTER_ROLE(), address(community));\n            // Token provided by user need user to grant mint role to community\n            // if user set isMintable to true,\n            // this action will be executed after this method completed.\n        }\n\n        if(ICommittee(committee).getFee('COMMUNITY') > 0){\n            require(ERC20(ICommittee(committee).getNut()).allowance(msg.sender, address(this)) >= ICommittee(committee).getFee('COMMUNITY'), \"need\");\n            lockERC20(ICommittee(committee).getNut(), msg.sender, ICommittee(committee).getTreasury(), ICommittee(committee).getFee('COMMUNITY'));\n            ICommittee(committee).updateLedger('COMMUNITY', address(community), address(0), msg.sender);\n        }\n\n        // set staking feast rewarad distribution distributionPolicy\n        ICalculator(rewardCalculator).setDistributionEra(address(community), distributionPolicy);\n\n        // add community to fee payment whitelist\n        ICommittee(committee).setFeePayer(address(community));\n\n        createdCommunity[address(community)] = true;\n\n        emit CommunityCreated(msg.sender, address(community), communityToken);\n    }\n}\n",
  "sourcePath": "/Users/wangxi/work/Walnut-V2/nutbox-contract/contracts/CommunityFactory.sol",
  "compiler": {
    "name": "solc",
    "version": "0.8.0+commit.c7dfd78e.Emscripten.clang"
  },
  "schemaVersion": "3.3.4",
  "updatedAt": "2024-06-20T10:15:11.878Z",
  "devdoc": {
    "details": "Factory contract to create an StakingTemplate entity This is the entry contract that user start to create their own staking economy.",
    "kind": "dev",
    "methods": {},
    "version": 1
  },
  "userdoc": {
    "kind": "user",
    "methods": {},
    "version": 1
  }
}