{
  "contractName": "CommunityCuration",
  "abi": [
    {
      "anonymous": false,
      "inputs": [
        {
          "indexed": true,
          "internalType": "address",
          "name": "previousOwner",
          "type": "address"
        },
        {
          "indexed": true,
          "internalType": "address",
          "name": "newOwner",
          "type": "address"
        }
      ],
      "name": "OwnershipTransferred",
      "type": "event"
    },
    {
      "anonymous": false,
      "inputs": [
        {
          "indexed": true,
          "internalType": "address",
          "name": "oldContract",
          "type": "address"
        },
        {
          "indexed": true,
          "internalType": "address",
          "name": "newContract",
          "type": "address"
        }
      ],
      "name": "Upgrade",
      "type": "event"
    },
    {
      "inputs": [
        {
          "internalType": "uint256",
          "name": "",
          "type": "uint256"
        }
      ],
      "name": "communities",
      "outputs": [
        {
          "internalType": "address",
          "name": "",
          "type": "address"
        }
      ],
      "stateMutability": "view",
      "type": "function"
    },
    {
      "inputs": [],
      "name": "owner",
      "outputs": [
        {
          "internalType": "address",
          "name": "",
          "type": "address"
        }
      ],
      "stateMutability": "view",
      "type": "function"
    },
    {
      "inputs": [],
      "name": "renounceOwnership",
      "outputs": [],
      "stateMutability": "nonpayable",
      "type": "function"
    },
    {
      "inputs": [
        {
          "internalType": "address",
          "name": "newOwner",
          "type": "address"
        }
      ],
      "name": "transferOwnership",
      "outputs": [],
      "stateMutability": "nonpayable",
      "type": "function"
    },
    {
      "inputs": [
        {
          "internalType": "uint256",
          "name": "cid",
          "type": "uint256"
        },
        {
          "internalType": "address",
          "name": "signAddr",
          "type": "address"
        },
        {
          "internalType": "address",
          "name": "prizeToken",
          "type": "address"
        }
      ],
      "name": "createCommunity",
      "outputs": [],
      "stateMutability": "nonpayable",
      "type": "function"
    },
    {
      "inputs": [
        {
          "internalType": "uint256",
          "name": "cid",
          "type": "uint256"
        }
      ],
      "name": "getCommunityInfo",
      "outputs": [
        {
          "internalType": "address",
          "name": "communityAddr",
          "type": "address"
        },
        {
          "internalType": "address",
          "name": "prizeToken",
          "type": "address"
        },
        {
          "internalType": "uint256",
          "name": "balance",
          "type": "uint256"
        },
        {
          "internalType": "address",
          "name": "signAddr",
          "type": "address"
        },
        {
          "internalType": "address",
          "name": "creator",
          "type": "address"
        },
        {
          "internalType": "address",
          "name": "storageAddr",
          "type": "address"
        }
      ],
      "stateMutability": "view",
      "type": "function"
    },
    {
      "inputs": [
        {
          "internalType": "uint256",
          "name": "cid",
          "type": "uint256"
        },
        {
          "internalType": "address",
          "name": "newCommunity",
          "type": "address"
        }
      ],
      "name": "upgrade",
      "outputs": [],
      "stateMutability": "nonpayable",
      "type": "function"
    },
    {
      "inputs": [
        {
          "internalType": "uint256",
          "name": "twitterId",
          "type": "uint256"
        },
        {
          "internalType": "uint256",
          "name": "curationId",
          "type": "uint256"
        }
      ],
      "name": "alreadyClaimed",
      "outputs": [
        {
          "internalType": "bool",
          "name": "",
          "type": "bool"
        }
      ],
      "stateMutability": "view",
      "type": "function"
    }
  ],
  "bytecode": "0x608060405234801561001057600080fd5b5061001a3361001f565b61006f565b600080546001600160a01b038381166001600160a01b0319831681178455604051919092169283917f8be0079c531659141344cd1fd0a4f28419497f9722a3daafe3b4186f6b6457e09190a35050565b612d1f8061007e6000396000f3fe608060405234801561001057600080fd5b50600436106100885760003560e01c80638da5cb5b1161005b5780638da5cb5b14610113578063cb9f881314610138578063e590b56a1461015b578063f2fde38b1461018457600080fd5b8063028f4e471461008d5780632a30c112146100a2578063715018a6146100b5578063765aec6d146100bd575b600080fd5b6100a061009b366004610805565b610197565b005b6100a06100b0366004610835565b6102d6565b6100a0610412565b6100d06100cb366004610877565b610448565b604080516001600160a01b039788168152958716602087015285019390935290841660608401528316608083015290911660a082015260c0015b60405180910390f35b6000546001600160a01b03165b6040516001600160a01b03909116815260200161010a565b61014b610146366004610890565b610665565b604051901515815260200161010a565b610120610169366004610877565b6001602052600090815260409020546001600160a01b031681565b6100a06101923660046108b2565b6106f8565b6000546001600160a01b031633146101ca5760405162461bcd60e51b81526004016101c1906108d6565b60405180910390fd5b6000828152600160205260409020546001600160a01b03168061021d5760405162461bcd60e51b815260206004820152600b60248201526a1a5b9d985b1a590818da5960aa1b60448201526064016101c1565b60405162900f0160e41b81526001600160a01b038381166004830152829190821690630900f01090602401600060405180830381600087803b15801561026257600080fd5b505af1158015610276573d6000803e3d6000fd5b50505060008581526001602052604080822080546001600160a01b0319166001600160a01b0388811691821790925591519193508516917fd23ce5645530506727523fe6d7939e72bb49102454460bc72f0f5baec60ac71891a350505050565b6000838152600160205260409020546001600160a01b03161561033b5760405162461bcd60e51b815260206004820152601860248201527f636f6d6d756e69747920616c726561647920657869737473000000000000000060448201526064016101c1565b6000604051610349906107e3565b604051809103906000f080158015610365573d6000803e3d6000fd5b506040516369218ec960e11b8152600481018690526001600160a01b0385811660248301528481166044830152336064830152600060848301529192509082169063d2431d929060a401600060405180830381600087803b1580156103c957600080fd5b505af11580156103dd573d6000803e3d6000fd5b5050506000948552506001602052604090932080546001600160a01b0319166001600160a01b03909416939093179092555050565b6000546001600160a01b0316331461043c5760405162461bcd60e51b81526004016101c1906108d6565b6104466000610793565b565b6000818152600160209081526040808320548151629032ff60e51b815291516001600160a01b039091169392839283928392839288926312065fe0926004808401939192918290030181865afa1580156104a6573d6000803e3d6000fd5b505050506040513d601f19601f820116820180604052508101906104ca919061090b565b9350856001600160a01b0316630682bdbc6040518163ffffffff1660e01b8152600401602060405180830381865afa15801561050a573d6000803e3d6000fd5b505050506040513d601f19601f8201168201806040525081019061052e9190610924565b9250856001600160a01b031663d0ef024a6040518163ffffffff1660e01b8152600401602060405180830381865afa15801561056e573d6000803e3d6000fd5b505050506040513d601f19601f820116820180604052508101906105929190610924565b9450856001600160a01b03166302d05d3f6040518163ffffffff1660e01b8152600401602060405180830381865afa1580156105d2573d6000803e3d6000fd5b505050506040513d601f19601f820116820180604052508101906105f69190610924565b9150856001600160a01b0316630fb2ec946040518163ffffffff1660e01b8152600401602060405180830381865afa158015610636573d6000803e3d6000fd5b505050506040513d601f19601f8201168201806040525081019061065a9190610924565b905091939550919395565b603081901c60008181526001602052604080822054905163cb9f881360e01b815260048101869052602481018590529192916001600160a01b0390911690819063cb9f881390604401602060405180830381865afa1580156106cb573d6000803e3d6000fd5b505050506040513d601f19601f820116820180604052508101906106ef9190610941565b95945050505050565b6000546001600160a01b031633146107225760405162461bcd60e51b81526004016101c1906108d6565b6001600160a01b0381166107875760405162461bcd60e51b815260206004820152602660248201527f4f776e61626c653a206e6577206f776e657220697320746865207a65726f206160448201526564647265737360d01b60648201526084016101c1565b61079081610793565b50565b600080546001600160a01b038381166001600160a01b0319831681178455604051919092169283917f8be0079c531659141344cd1fd0a4f28419497f9722a3daafe3b4186f6b6457e09190a35050565b6123868061096483390190565b6001600160a01b038116811461079057600080fd5b6000806040838503121561081857600080fd5b82359150602083013561082a816107f0565b809150509250929050565b60008060006060848603121561084a57600080fd5b83359250602084013561085c816107f0565b9150604084013561086c816107f0565b809150509250925092565b60006020828403121561088957600080fd5b5035919050565b600080604083850312156108a357600080fd5b50508035926020909101359150565b6000602082840312156108c457600080fd5b81356108cf816107f0565b9392505050565b6020808252818101527f4f776e61626c653a2063616c6c6572206973206e6f7420746865206f776e6572604082015260600190565b60006020828403121561091d57600080fd5b5051919050565b60006020828403121561093657600080fd5b81516108cf816107f0565b60006020828403121561095357600080fd5b815180151581146108cf57600080fdfe6080604052600480546001600160a01b0319167306deb72b2e156ddd383651ac3d2dab5892d9c0481790556548c2739500006005556006805460ff1916905534801561004a57600080fd5b506100543361005d565b600180556100ad565b600080546001600160a01b038381166001600160a01b0319831681178455604051919092169283917f8be0079c531659141344cd1fd0a4f28419497f9722a3daafe3b4186f6b6457e09190a35050565b6122ca806100bc6000396000f3fe6080604052600436106200012f5760003560e01c80633ccfd60b11620000ad5780638da5cb5b116200006c5780638da5cb5b1462000334578063cb9f88131462000354578063d0ef024a146200038a578063d2431d9214620003a2578063f2fde38b14620003c757600080fd5b80633ccfd60b14620002a65780634ca33dab14620002be578063546f3ff014620002e0578063715018a614620003055780637998994a146200031d57600080fd5b80630fb2ec9411620000fa5780630fb2ec9414620001ee57806311f9a97d146200021057806312065fe0146200023557806315137045146200025c5780632e75ab50146200028157600080fd5b806302d05d3f146200013c5780630682bdbc146200017b5780630900f01014620001935780630c4f87ca14620001ba57600080fd5b366200013757005b600080fd5b3480156200014957600080fd5b506003546200015e906001600160a01b031681565b6040516001600160a01b0390911681526020015b60405180910390f35b3480156200018857600080fd5b506200015e620003ec565b348015620001a057600080fd5b50620001b8620001b236600462001398565b62000462565b005b348015620001c757600080fd5b50620001df620001d936600462001407565b6200054c565b60405162000172919062001457565b348015620001fb57600080fd5b506002546200015e906001600160a01b031681565b3480156200021d57600080fd5b50620001b86200022f36600462001398565b62000681565b3480156200024257600080fd5b506200024d620006e1565b60405190815260200162000172565b3480156200026957600080fd5b50620001b86200027b36600462001398565b62000751565b3480156200028e57600080fd5b50620001b8620002a03660046200149f565b620007b1565b348015620002b357600080fd5b50620001b862000812565b348015620002cb57600080fd5b506004546200015e906001600160a01b031681565b348015620002ed57600080fd5b50620001b8620002ff36600462001398565b620008a0565b3480156200031257600080fd5b50620001b86200091e565b620001b86200032e366004620014b9565b62000959565b3480156200034157600080fd5b506000546001600160a01b03166200015e565b3480156200036157600080fd5b50620003796200037336600462001586565b62000eb9565b604051901515815260200162000172565b3480156200039757600080fd5b506200015e62000f38565b348015620003af57600080fd5b50620001b8620003c1366004620015a9565b62000f83565b348015620003d457600080fd5b50620001b8620003e636600462001398565b62001091565b600254604080516301a0af6f60e21b815290516000926001600160a01b031691630682bdbc9160048083019260209291908290030181865afa15801562000437573d6000803e3d6000fd5b505050506040513d601f19601f820116820180604052508101906200045d91906200161a565b905090565b6000546001600160a01b03163314620004985760405162461bcd60e51b81526004016200048f906200163a565b60405180910390fd5b6001600160a01b038116620004e75760405162461bcd60e51b8152602060048201526014602482015273696e76616c6964206e6577436f6d6d756e69747960601b60448201526064016200048f565b60025460405163f2fde38b60e01b81526001600160a01b0383811660048301529091169063f2fde38b906024015b600060405180830381600087803b1580156200053057600080fd5b505af115801562000545573d6000803e3d6000fd5b5050505050565b606060008267ffffffffffffffff8111156200056c576200056c6200166f565b60405190808252806020026020018201604052801562000596578160200160208202803683370190505b50905060005b8381101562000678576002546001600160a01b031663cb9f881387878785818110620005cc57620005cc62001685565b905060200201356040518363ffffffff1660e01b8152600401620005fa929190918252602082015260400190565b602060405180830381865afa15801562000618573d6000803e3d6000fd5b505050506040513d601f19601f820116820180604052508101906200063e91906200169b565b82828151811062000653576200065362001685565b91151560209283029190910190910152806200066f81620016d5565b9150506200059c565b50949350505050565b6003546001600160a01b03163314620006ae5760405162461bcd60e51b81526004016200048f90620016f1565b6002546040516311f9a97d60e01b81526001600160a01b038381166004830152909116906311f9a97d9060240162000515565b60025460408051629032ff60e51b815290516000926001600160a01b0316916312065fe09160048083019260209291908290030181865afa1580156200072b573d6000803e3d6000fd5b505050506040513d601f19601f820116820180604052508101906200045d919062001733565b6003546001600160a01b031633146200077e5760405162461bcd60e51b81526004016200048f90620016f1565b600254604051631513704560e01b81526001600160a01b0383811660048301529091169063151370459060240162000515565b6004546001600160a01b031633146200080d5760405162461bcd60e51b815260206004820152601a60248201527f4f776e61626c653a2063616c6c6572206973206e6f742077683300000000000060448201526064016200048f565b600555565b6003546001600160a01b031633146200083f5760405162461bcd60e51b81526004016200048f90620016f1565b6002546040516351cff8d960e01b81523360048201526001600160a01b03909116906351cff8d990602401600060405180830381600087803b1580156200088557600080fd5b505af11580156200089a573d6000803e3d6000fd5b50505050565b6004546001600160a01b03163314620008fc5760405162461bcd60e51b815260206004820152601a60248201527f4f776e61626c653a2063616c6c6572206973206e6f742077683300000000000060448201526064016200048f565b600480546001600160a01b0319166001600160a01b0392909216919091179055565b6000546001600160a01b031633146200094b5760405162461bcd60e51b81526004016200048f906200163a565b62000957600062001133565b565b600260015403620009ad5760405162461bcd60e51b815260206004820152601f60248201527f5265656e7472616e637947756172643a207265656e7472616e742063616c6c0060448201526064016200048f565b600260015583620009f45760405162461bcd60e51b815260206004820152601060248201526f676574206174206c65617374206f6e6560801b60448201526064016200048f565b6041811462000a3c5760405162461bcd60e51b81526020600482015260136024820152720d2dcecc2d8d2c840e6d2cedc40d8cadccee8d606b1b60448201526064016200048f565b6001600160a01b038616331462000a855760405162461bcd60e51b815260206004820152600c60248201526b34b73b30b634b21030b2323960a11b60448201526064016200048f565b60025460408051636877812560e11b815290516000926001600160a01b03169163d0ef024a9160048083019260209291908290030181865afa15801562000ad0573d6000803e3d6000fd5b505050506040513d601f19601f8201168201806040525081019062000af691906200161a565b6001600160a01b03160362000b445760405162461bcd60e51b81526020600482015260136024820152721c1c9a5e99481d1bdad95b881b9bdd081cd95d606a1b60448201526064016200048f565b60055434101562000b8b5760405162461bcd60e51b815260206004820152601060248201526f496e73756666696369656e742066656560801b60448201526064016200048f565b60055434111562000c3557600554600090339062000baa90346200174d565b604051600081818185875af1925050503d806000811462000be8576040519150601f19603f3d011682016040523d82523d6000602084013e62000bed565b606091505b505090508062000c2e5760405162461bcd60e51b815260206004820152600b60248201526a1c99599d5b990819985a5b60aa1b60448201526064016200048f565b5062000cd0565b6004546005546040516000926001600160a01b031691908381818185875af1925050503d806000811462000c86576040519150601f19603f3d011682016040523d82523d6000602084013e62000c8b565b606091505b505090508062000cce5760405162461bcd60e51b815260206004820152600d60248201526c18dbdcdd081999594819985a5b609a1b60448201526064016200048f565b505b600087468888888860405160200162000cef9695949392919062001767565b60405160208183030381529060405280519060200120905062000d1481848462001183565b62000d515760405162461bcd60e51b815260206004820152600c60248201526b34b73b30b634b21039b4b3b760a11b60448201526064016200048f565b60005b8581101562000dfc576002546001600160a01b03166340fb4f1b8a89898581811062000d845762000d8462001685565b905060200201356040518363ffffffff1660e01b815260040162000db2929190918252602082015260400190565b600060405180830381600087803b15801562000dcd57600080fd5b505af115801562000de2573d6000803e3d6000fd5b50505050808062000df390620016d5565b91505062000d54565b5060025460405163a9059cbb60e01b8152336004820152602481018690526001600160a01b039091169063a9059cbb90604401600060405180830381600087803b15801562000e4a57600080fd5b505af115801562000e5f573d6000803e3d6000fd5b50505050336001600160a01b0316887f264ce9308cfd4d4e70c79668f075d14c8ae8074608ff6c0bdf3d8639a8474bcd88888860405162000ea393929190620017c4565b60405180910390a3505060018055505050505050565b60025460405163cb9f881360e01b815260048101849052602481018390526000916001600160a01b03169063cb9f881390604401602060405180830381865afa15801562000f0b573d6000803e3d6000fd5b505050506040513d601f19601f8201168201806040525081019062000f3191906200169b565b9392505050565b60025460408051636877812560e11b815290516000926001600160a01b03169163d0ef024a9160048083019260209291908290030181865afa15801562000437573d6000803e3d6000fd5b6000546001600160a01b0316331462000fb05760405162461bcd60e51b81526004016200048f906200163a565b60065460ff1662000545576001600160a01b03811662001044578430848660405162000fdc9062001374565b9384526001600160a01b0392831660208501529082166040840152166060820152608001604051809103906000f0801580156200101d573d6000803e3d6000fd5b50600280546001600160a01b0319166001600160a01b039290921691909117905562001060565b600280546001600160a01b0319166001600160a01b0383161790555b6006805460ff19166001179055600380546001600160a01b0384166001600160a01b03199091161790555050505050565b6000546001600160a01b03163314620010be5760405162461bcd60e51b81526004016200048f906200163a565b6001600160a01b038116620011255760405162461bcd60e51b815260206004820152602660248201527f4f776e61626c653a206e6577206f776e657220697320746865207a65726f206160448201526564647265737360d01b60648201526084016200048f565b620011308162001133565b50565b600080546001600160a01b038381166001600160a01b0319831681178455604051919092169283917f8be0079c531659141344cd1fd0a4f28419497f9722a3daafe3b4186f6b6457e09190a35050565b6000806200119560208285876200180b565b810190620011a491906200149f565b90506000620011b86040602086886200180b565b810190620011c791906200149f565b9050600085856040818110620011e157620011e162001685565b919091013560f81c915050601b811015620012205760ff811615806200120a57508060ff166001145b1562001220576200121d601b8262001837565b90505b60006040518060400160405280601c81526020017f19457468657265756d205369676e6564204d6573736167653a0a333200000000815250905060008189604051602001620012719291906200185f565b60408051601f198184030181528282528051602091820120600080855291840180845281905260ff87169284019290925260608301889052608083018790529092509060019060a0016020604051602081039080840390855afa158015620012dd573d6000803e3d6000fd5b505060408051601f198101516002546301a0af6f60e21b835292519094506001600160a01b039092169250630682bdbc9160048083019260209291908290030181865afa15801562001333573d6000803e3d6000fd5b505050506040513d601f19601f820116820180604052508101906200135991906200161a565b6001600160a01b039182169116149998505050505050505050565b6109f180620018a483390190565b6001600160a01b03811681146200113057600080fd5b600060208284031215620013ab57600080fd5b813562000f318162001382565b60008083601f840112620013cb57600080fd5b50813567ffffffffffffffff811115620013e457600080fd5b6020830191508360208260051b85010111156200140057600080fd5b9250929050565b6000806000604084860312156200141d57600080fd5b83359250602084013567ffffffffffffffff8111156200143c57600080fd5b6200144a86828701620013b8565b9497909650939450505050565b6020808252825182820181905260009190848201906040850190845b818110156200149357835115158352928401929184019160010162001473565b50909695505050505050565b600060208284031215620014b257600080fd5b5035919050565b600080600080600080600060a0888a031215620014d557600080fd5b873596506020880135620014e98162001382565b9550604088013567ffffffffffffffff808211156200150757600080fd5b620015158b838c01620013b8565b909750955060608a0135945060808a01359150808211156200153657600080fd5b818a0191508a601f8301126200154b57600080fd5b8135818111156200155b57600080fd5b8b60208285010111156200156e57600080fd5b60208301945080935050505092959891949750929550565b600080604083850312156200159a57600080fd5b50508035926020909101359150565b600080600080600060a08688031215620015c257600080fd5b853594506020860135620015d68162001382565b93506040860135620015e88162001382565b92506060860135620015fa8162001382565b915060808601356200160c8162001382565b809150509295509295909350565b6000602082840312156200162d57600080fd5b815162000f318162001382565b6020808252818101527f4f776e61626c653a2063616c6c6572206973206e6f7420746865206f776e6572604082015260600190565b634e487b7160e01b600052604160045260246000fd5b634e487b7160e01b600052603260045260246000fd5b600060208284031215620016ae57600080fd5b8151801515811462000f3157600080fd5b634e487b7160e01b600052601160045260246000fd5b600060018201620016ea57620016ea620016bf565b5060010190565b60208082526022908201527f4f776e61626c653a2063616c6c6572206973206e6f742074686520637265617460408201526137b960f11b606082015260800190565b6000602082840312156200174657600080fd5b5051919050565b600082821015620017625762001762620016bf565b500390565b86815260208101869052606085901b6bffffffffffffffffffffffff1916604082015260006001600160fb1b03841115620017a157600080fd5b8360051b8086605485013760549201918201929092526074019695505050505050565b6040808252810183905260006001600160fb1b03841115620017e557600080fd5b8360051b8086606085013760009083016060019081526020909201929092529392505050565b600080858511156200181c57600080fd5b838611156200182a57600080fd5b5050820193919092039150565b600060ff821660ff84168060ff03821115620018575762001857620016bf565b019392505050565b6000835160005b8181101562001882576020818701810151858301520162001866565b8181111562001892576000828501525b50919091019182525060200191905056fe608060405234801561001057600080fd5b506040516109f13803806109f183398101604081905261002f916101bb565b6100383361007f565b6002849055600380546001600160a01b038085166001600160a01b0319928316179092556004805492841692909116919091179055610076836100cf565b50505050610208565b600080546001600160a01b038381166001600160a01b0319831681178455604051919092169283917f8be0079c531659141344cd1fd0a4f28419497f9722a3daafe3b4186f6b6457e09190a35050565b6000546001600160a01b0316331461012e5760405162461bcd60e51b815260206004820181905260248201527f4f776e61626c653a2063616c6c6572206973206e6f7420746865206f776e657260448201526064015b60405180910390fd5b6001600160a01b0381166101935760405162461bcd60e51b815260206004820152602660248201527f4f776e61626c653a206e6577206f776e657220697320746865207a65726f206160448201526564647265737360d01b6064820152608401610125565b61019c8161007f565b50565b80516001600160a01b03811681146101b657600080fd5b919050565b600080600080608085870312156101d157600080fd5b845193506101e16020860161019f565b92506101ef6040860161019f565b91506101fd6060860161019f565b905092959194509250565b6107da806102176000396000f3fe608060405234801561001057600080fd5b50600436106100cf5760003560e01c8063715018a61161008c578063a9059cbb11610066578063a9059cbb1461018a578063cb9f88131461019d578063d0ef024a146101db578063f2fde38b146101ee57600080fd5b8063715018a6146101685780637f50861a146101705780638da5cb5b1461017957600080fd5b80630682bdbc146100d457806311f9a97d1461010457806312065fe014610119578063151370451461012f57806340fb4f1b1461014257806351cff8d914610155575b600080fd5b6004546100e7906001600160a01b031681565b6040516001600160a01b0390911681526020015b60405180910390f35b6101176101123660046106c6565b610201565b005b610121610256565b6040519081526020016100fb565b61011761013d3660046106c6565b6102c8565b6101176101503660046106e8565b610314565b6101176101633660046106c6565b610409565b610117610526565b61012160025481565b6000546001600160a01b03166100e7565b61011761019836600461070a565b61055c565b6101cb6101ab3660046106e8565b600160209081526000928352604080842090915290825290205460ff1681565b60405190151581526020016100fb565b6003546100e7906001600160a01b031681565b6101176101fc3660046106c6565b6105bf565b6000546001600160a01b031633146102345760405162461bcd60e51b815260040161022b90610734565b60405180910390fd5b600380546001600160a01b0319166001600160a01b0392909216919091179055565b6003546040516370a0823160e01b81523060048201526000916001600160a01b0316906370a0823190602401602060405180830381865afa15801561029f573d6000803e3d6000fd5b505050506040513d601f19601f820116820180604052508101906102c39190610769565b905090565b6000546001600160a01b031633146102f25760405162461bcd60e51b815260040161022b90610734565b600480546001600160a01b0319166001600160a01b0392909216919091179055565b6000546001600160a01b0316331461033e5760405162461bcd60e51b815260040161022b90610734565b603081901c600254146103875760405162461bcd60e51b8152602060048201526011602482015270696e76616c696420636f6d6d756e69747960781b604482015260640161022b565b600082815260016020908152604080832084845290915290205460ff16156103e35760405162461bcd60e51b815260206004820152600f60248201526e185b1c9958591e4818db185a5b5959608a1b604482015260640161022b565b60009182526001602081815260408085209385529290529120805460ff19169091179055565b6000546001600160a01b031633146104335760405162461bcd60e51b815260040161022b90610734565b6003546040516370a0823160e01b81523060048201526000916001600160a01b0316906370a0823190602401602060405180830381865afa15801561047c573d6000803e3d6000fd5b505050506040513d601f19601f820116820180604052508101906104a09190610769565b905080156105225760035460405163a9059cbb60e01b81526001600160a01b038481166004830152602482018490529091169063a9059cbb906044015b6020604051808303816000875af11580156104fc573d6000803e3d6000fd5b505050506040513d601f19601f820116820180604052508101906105209190610782565b505b5050565b6000546001600160a01b031633146105505760405162461bcd60e51b815260040161022b90610734565b61055a600061065a565b565b6000546001600160a01b031633146105865760405162461bcd60e51b815260040161022b90610734565b60035460405163a9059cbb60e01b81526001600160a01b038481166004830152602482018490529091169063a9059cbb906044016104dd565b6000546001600160a01b031633146105e95760405162461bcd60e51b815260040161022b90610734565b6001600160a01b03811661064e5760405162461bcd60e51b815260206004820152602660248201527f4f776e61626c653a206e6577206f776e657220697320746865207a65726f206160448201526564647265737360d01b606482015260840161022b565b6106578161065a565b50565b600080546001600160a01b038381166001600160a01b0319831681178455604051919092169283917f8be0079c531659141344cd1fd0a4f28419497f9722a3daafe3b4186f6b6457e09190a35050565b80356001600160a01b03811681146106c157600080fd5b919050565b6000602082840312156106d857600080fd5b6106e1826106aa565b9392505050565b600080604083850312156106fb57600080fd5b50508035926020909101359150565b6000806040838503121561071d57600080fd5b610726836106aa565b946020939093013593505050565b6020808252818101527f4f776e61626c653a2063616c6c6572206973206e6f7420746865206f776e6572604082015260600190565b60006020828403121561077b57600080fd5b5051919050565b60006020828403121561079457600080fd5b815180151581146106e157600080fdfea2646970667358221220560a45a9eefe6688eb106556ad8215a1b64b0231ef1b6c68931c9008be95783864736f6c634300080d0033a2646970667358221220eb3e0158633a1b1e77f40e4c5849904550bdf554e33789b25900d4f72ed3bc9b64736f6c634300080d0033a2646970667358221220c4f2ca0134b1b171b08a36e2aa21e626017ffd2f7995af8d9f24eb2e210e4dce64736f6c634300080d0033",
  "immutableReferences": {},
  "source": "// SPDX-License-Identifier: MIT\npragma solidity ^0.8.0;\n\nimport \"@openzeppelin/contracts/access/Ownable.sol\";\nimport \"./AutoCuration.sol\";\n\ncontract CommunityCuration is Ownable {\n    event Upgrade(address indexed oldContract, address indexed newContract);\n\n    // cid => community contract\n    mapping(uint256 => address) public communities;\n\n    function createCommunity(uint256 cid, address signAddr, address prizeToken) public {\n        require(communities[cid] == address(0), \"community already exists\");\n\n        AutoCuration ac = new AutoCuration();\n        ac.init(cid, signAddr, prizeToken, msg.sender, address(0));\n        communities[cid] = address(ac);\n    }\n\n    function getCommunityInfo(uint256 cid) public view returns (address communityAddr, address prizeToken, uint256 balance, address signAddr, address creator, address storageAddr) {\n        communityAddr = communities[cid];\n        balance = AutoCuration(payable(communityAddr)).getBalance();\n        signAddr = AutoCuration(payable(communityAddr)).signAddress();\n        prizeToken = AutoCuration(payable(communityAddr)).prizeToken();\n        creator = AutoCuration(payable(communityAddr)).creator();\n        storageAddr = address(AutoCuration(payable(communityAddr)).cStorage());\n    }\n\n    function upgrade(uint256 cid, address newCommunity) public onlyOwner {\n        address oldAddr = communities[cid];\n        require(oldAddr != address(0), \"invalid cid\");\n        AutoCuration ac = AutoCuration(payable(oldAddr));\n        ac.upgrade(newCommunity);\n        communities[cid] = newCommunity;\n        emit Upgrade(oldAddr, newCommunity);\n    }\n\n    function alreadyClaimed(uint256 twitterId, uint256 curationId) public view returns (bool) {\n        uint256 cid = curationId >> 48;\n        address communityAddr = communities[cid];\n        return AutoCuration(payable(communityAddr)).alreadyClaimed(twitterId, curationId);\n    }\n}\n",
  "sourcePath": "/Users/wangxi/work/Walnut-V2/nutbox-contract/contracts/CommunityCuration.sol",
  "compiler": {
    "name": "solc",
    "version": "0.8.13+commit.abaa5c0e.Emscripten.clang"
  },
  "schemaVersion": "3.3.4",
  "updatedAt": "2024-08-12T05:05:56.961Z",
  "devdoc": {
    "kind": "dev",
    "methods": {
      "owner()": {
        "details": "Returns the address of the current owner."
      },
      "renounceOwnership()": {
        "details": "Leaves the contract without owner. It will not be possible to call `onlyOwner` functions anymore. Can only be called by the current owner. NOTE: Renouncing ownership will leave the contract without an owner, thereby removing any functionality that is only available to the owner."
      },
      "transferOwnership(address)": {
        "details": "Transfers ownership of the contract to a new account (`newOwner`). Can only be called by the current owner."
      }
    },
    "version": 1
  },
  "userdoc": {
    "kind": "user",
    "methods": {},
    "version": 1
  }
}