{
  "contractName": "Community",
  "abi": [
    {
      "inputs": [
        {
          "internalType": "address",
          "name": "_admin",
          "type": "address"
        },
        {
          "internalType": "address",
          "name": "_committee",
          "type": "address"
        },
        {
          "internalType": "address",
          "name": "_communityToken",
          "type": "address"
        },
        {
          "internalType": "address",
          "name": "_rewardCalculator",
          "type": "address"
        },
        {
          "internalType": "bool",
          "name": "_isMintableCommunityToken",
          "type": "bool"
        }
      ],
      "stateMutability": "nonpayable",
      "type": "constructor"
    },
    {
      "anonymous": false,
      "inputs": [
        {
          "indexed": true,
          "internalType": "address",
          "name": "pool",
          "type": "address"
        }
      ],
      "name": "AdminClosePool",
      "type": "event"
    },
    {
      "anonymous": false,
      "inputs": [
        {
          "indexed": false,
          "internalType": "uint16",
          "name": "ratio",
          "type": "uint16"
        }
      ],
      "name": "AdminSetFeeRatio",
      "type": "event"
    },
    {
      "anonymous": false,
      "inputs": [
        {
          "indexed": false,
          "internalType": "address[]",
          "name": "pools",
          "type": "address[]"
        },
        {
          "indexed": false,
          "internalType": "uint16[]",
          "name": "ratios",
          "type": "uint16[]"
        }
      ],
      "name": "AdminSetPoolRatio",
      "type": "event"
    },
    {
      "anonymous": false,
      "inputs": [
        {
          "indexed": true,
          "internalType": "address",
          "name": "oldDev",
          "type": "address"
        },
        {
          "indexed": true,
          "internalType": "address",
          "name": "newDev",
          "type": "address"
        }
      ],
      "name": "DevChanged",
      "type": "event"
    },
    {
      "anonymous": false,
      "inputs": [
        {
          "indexed": true,
          "internalType": "address",
          "name": "previousOwner",
          "type": "address"
        },
        {
          "indexed": true,
          "internalType": "address",
          "name": "newOwner",
          "type": "address"
        }
      ],
      "name": "OwnershipTransferred",
      "type": "event"
    },
    {
      "anonymous": false,
      "inputs": [
        {
          "indexed": true,
          "internalType": "address",
          "name": "who",
          "type": "address"
        },
        {
          "indexed": false,
          "internalType": "uint256",
          "name": "amount",
          "type": "uint256"
        }
      ],
      "name": "PoolUpdated",
      "type": "event"
    },
    {
      "anonymous": false,
      "inputs": [
        {
          "indexed": true,
          "internalType": "address",
          "name": "devFund",
          "type": "address"
        },
        {
          "indexed": false,
          "internalType": "uint256",
          "name": "amount",
          "type": "uint256"
        }
      ],
      "name": "RevenueWithdrawn",
      "type": "event"
    },
    {
      "anonymous": false,
      "inputs": [
        {
          "indexed": false,
          "internalType": "address[]",
          "name": "pool",
          "type": "address[]"
        },
        {
          "indexed": true,
          "internalType": "address",
          "name": "who",
          "type": "address"
        },
        {
          "indexed": false,
          "internalType": "uint256",
          "name": "amount",
          "type": "uint256"
        }
      ],
      "name": "WithdrawRewards",
      "type": "event"
    },
    {
      "inputs": [
        {
          "internalType": "uint256",
          "name": "",
          "type": "uint256"
        }
      ],
      "name": "activedPools",
      "outputs": [
        {
          "internalType": "address",
          "name": "",
          "type": "address"
        }
      ],
      "stateMutability": "view",
      "type": "function"
    },
    {
      "inputs": [
        {
          "internalType": "uint256",
          "name": "",
          "type": "uint256"
        }
      ],
      "name": "createdPools",
      "outputs": [
        {
          "internalType": "address",
          "name": "",
          "type": "address"
        }
      ],
      "stateMutability": "view",
      "type": "function"
    },
    {
      "inputs": [],
      "name": "feeRatio",
      "outputs": [
        {
          "internalType": "uint16",
          "name": "",
          "type": "uint16"
        }
      ],
      "stateMutability": "view",
      "type": "function"
    },
    {
      "inputs": [],
      "name": "isMintableCommunityToken",
      "outputs": [
        {
          "internalType": "bool",
          "name": "",
          "type": "bool"
        }
      ],
      "stateMutability": "view",
      "type": "function"
    },
    {
      "inputs": [],
      "name": "owner",
      "outputs": [
        {
          "internalType": "address",
          "name": "",
          "type": "address"
        }
      ],
      "stateMutability": "view",
      "type": "function"
    },
    {
      "inputs": [],
      "name": "renounceOwnership",
      "outputs": [],
      "stateMutability": "nonpayable",
      "type": "function"
    },
    {
      "inputs": [],
      "name": "rewardCalculator",
      "outputs": [
        {
          "internalType": "address",
          "name": "",
          "type": "address"
        }
      ],
      "stateMutability": "view",
      "type": "function"
    },
    {
      "inputs": [
        {
          "internalType": "address",
          "name": "newOwner",
          "type": "address"
        }
      ],
      "name": "transferOwnership",
      "outputs": [],
      "stateMutability": "nonpayable",
      "type": "function"
    },
    {
      "inputs": [
        {
          "internalType": "address",
          "name": "_dev",
          "type": "address"
        }
      ],
      "name": "adminSetDev",
      "outputs": [],
      "stateMutability": "nonpayable",
      "type": "function"
    },
    {
      "inputs": [],
      "name": "adminWithdrawRevenue",
      "outputs": [],
      "stateMutability": "nonpayable",
      "type": "function"
    },
    {
      "inputs": [
        {
          "internalType": "uint16",
          "name": "_ratio",
          "type": "uint16"
        }
      ],
      "name": "adminSetFeeRatio",
      "outputs": [],
      "stateMutability": "nonpayable",
      "type": "function"
    },
    {
      "inputs": [
        {
          "internalType": "uint256",
          "name": "amount",
          "type": "uint256"
        }
      ],
      "name": "adminWithdrawReward",
      "outputs": [],
      "stateMutability": "nonpayable",
      "type": "function"
    },
    {
      "inputs": [
        {
          "internalType": "string",
          "name": "poolName",
          "type": "string"
        },
        {
          "internalType": "uint16[]",
          "name": "ratios",
          "type": "uint16[]"
        },
        {
          "internalType": "address",
          "name": "poolFactory",
          "type": "address"
        },
        {
          "internalType": "bytes",
          "name": "meta",
          "type": "bytes"
        }
      ],
      "name": "adminAddPool",
      "outputs": [],
      "stateMutability": "nonpayable",
      "type": "function"
    },
    {
      "inputs": [
        {
          "internalType": "address",
          "name": "poolAddress",
          "type": "address"
        },
        {
          "internalType": "address[]",
          "name": "_activedPools",
          "type": "address[]"
        },
        {
          "internalType": "uint16[]",
          "name": "ratios",
          "type": "uint16[]"
        }
      ],
      "name": "adminClosePool",
      "outputs": [],
      "stateMutability": "nonpayable",
      "type": "function"
    },
    {
      "inputs": [
        {
          "internalType": "uint16[]",
          "name": "ratios",
          "type": "uint16[]"
        }
      ],
      "name": "adminSetPoolRatios",
      "outputs": [],
      "stateMutability": "nonpayable",
      "type": "function"
    },
    {
      "inputs": [
        {
          "internalType": "address[]",
          "name": "poolAddresses",
          "type": "address[]"
        }
      ],
      "name": "withdrawPoolsRewards",
      "outputs": [],
      "stateMutability": "nonpayable",
      "type": "function"
    },
    {
      "inputs": [
        {
          "internalType": "address",
          "name": "poolAddress",
          "type": "address"
        },
        {
          "internalType": "address",
          "name": "user",
          "type": "address"
        }
      ],
      "name": "getPoolPendingRewards",
      "outputs": [
        {
          "internalType": "uint256",
          "name": "",
          "type": "uint256"
        }
      ],
      "stateMutability": "view",
      "type": "function"
    },
    {
      "inputs": [
        {
          "internalType": "address",
          "name": "user",
          "type": "address"
        }
      ],
      "name": "getTotalPendingRewards",
      "outputs": [
        {
          "internalType": "uint256",
          "name": "",
          "type": "uint256"
        }
      ],
      "stateMutability": "view",
      "type": "function"
    },
    {
      "inputs": [
        {
          "internalType": "address",
          "name": "pool",
          "type": "address"
        }
      ],
      "name": "poolActived",
      "outputs": [
        {
          "internalType": "bool",
          "name": "",
          "type": "bool"
        }
      ],
      "stateMutability": "view",
      "type": "function"
    },
    {
      "inputs": [
        {
          "internalType": "address",
          "name": "pool",
          "type": "address"
        }
      ],
      "name": "getShareAcc",
      "outputs": [
        {
          "internalType": "uint256",
          "name": "",
          "type": "uint256"
        }
      ],
      "stateMutability": "view",
      "type": "function"
    },
    {
      "inputs": [],
      "name": "getCommunityToken",
      "outputs": [
        {
          "internalType": "address",
          "name": "",
          "type": "address"
        }
      ],
      "stateMutability": "view",
      "type": "function"
    },
    {
      "inputs": [
        {
          "internalType": "address",
          "name": "pool",
          "type": "address"
        },
        {
          "internalType": "address",
          "name": "user",
          "type": "address"
        }
      ],
      "name": "getUserDebt",
      "outputs": [
        {
          "internalType": "uint256",
          "name": "",
          "type": "uint256"
        }
      ],
      "stateMutability": "view",
      "type": "function"
    },
    {
      "inputs": [
        {
          "internalType": "address",
          "name": "user",
          "type": "address"
        },
        {
          "internalType": "uint256",
          "name": "amount",
          "type": "uint256"
        }
      ],
      "name": "appendUserReward",
      "outputs": [],
      "stateMutability": "nonpayable",
      "type": "function"
    },
    {
      "inputs": [
        {
          "internalType": "address",
          "name": "user",
          "type": "address"
        },
        {
          "internalType": "uint256",
          "name": "debt",
          "type": "uint256"
        }
      ],
      "name": "setUserDebt",
      "outputs": [],
      "stateMutability": "nonpayable",
      "type": "function"
    },
    {
      "inputs": [
        {
          "internalType": "string",
          "name": "feeType",
          "type": "string"
        },
        {
          "internalType": "address",
          "name": "feePayer",
          "type": "address"
        }
      ],
      "name": "updatePools",
      "outputs": [],
      "stateMutability": "nonpayable",
      "type": "function"
    }
  ],
  "bytecode": "0x6101006040523480156200001257600080fd5b50604051620032d8380380620032d883398101604081905262000035916200020e565b6200004962000043620000d4565b620000d8565b620000548562000128565b600180546001600160a01b0387166001600160a01b031990911681179091556001600160601b0319606086811b821660805285811b821660a05284901b1660e05281151560f81b60c0526040516000907f5d777218f34a12264a9fec685df1868059eeec6d632b17a1775a00089e57533a908290a3505050505062000316565b3390565b600080546001600160a01b038381166001600160a01b0319831681178455604051919092169283917f8be0079c531659141344cd1fd0a4f28419497f9722a3daafe3b4186f6b6457e09190a35050565b62000132620000d4565b6001600160a01b031662000145620001e2565b6001600160a01b03161462000191576040517f08c379a00000000000000000000000000000000000000000000000000000000081526004016200018890620002e1565b60405180910390fd5b6001600160a01b038116620001d4576040517f08c379a0000000000000000000000000000000000000000000000000000000008152600401620001889062000284565b620001df81620000d8565b50565b6000546001600160a01b031690565b80516001600160a01b03811681146200020957600080fd5b919050565b600080600080600060a0868803121562000226578081fd5b6200023186620001f1565b94506200024160208701620001f1565b93506200025160408701620001f1565b92506200026160608701620001f1565b91506080860151801515811462000276578182fd5b809150509295509295909350565b60208082526026908201527f4f776e61626c653a206e6577206f776e657220697320746865207a65726f206160408201527f6464726573730000000000000000000000000000000000000000000000000000606082015260800190565b6020808252818101527f4f776e61626c653a2063616c6c6572206973206e6f7420746865206f776e6572604082015260600190565b60805160601c60a05160601c60c05160f81c60e05160601c612f13620003c560003960008181610f01015281816115c20152611cc8015260008181610fb8015281816115600152612137015260008181610f4301528181610ff5015281816111470152818161216001526121900152600081816105d1015281816109d701528181611925015281816119cc01528181611a5d01528181611aef01528181611b950152611c360152612f136000f3fe608060405234801561001057600080fd5b50600436106101735760003560e01c8063a1970fa8116100de578063c10b3aee11610097578063f2fde38b11610071578063f2fde38b14610304578063f739a52914610317578063fa32ddd81461032a578063fd0c94e31461033257610173565b8063c10b3aee146102cb578063d2627383146102de578063ef9b7208146102f157610173565b8063a1970fa81461024c578063a1a89dbc1461025f578063a2a00ed61461027f578063a8c478ba14610292578063af3bd4f2146102a5578063bf16c3c2146102b857610173565b80637942016c116101305780637942016c146101f95780638da5cb5b1461020c57806396769e891461021457806398f69e9a1461021c57806399efcaec1461023c5780639af2e5ef1461024457610173565b80630924004e14610178578063207cbd951461018d57806341744dd4146101a057806354054370146101be5780635f78debd146101d1578063715018a6146101f1575b600080fd5b61018b61018636600461259a565b610345565b005b61018b61019b36600461270b565b61054e565b6101a8610803565b6040516101b59190612ce6565b60405180910390f35b61018b6101cc36600461252a565b610814565b6101e46101df36600461280a565b6108d5565b6040516101b59190612893565b61018b6108ff565b61018b610207366004612638565b61094a565b6101e4610ef0565b6101e4610eff565b61022f61022a36600461252a565b610f23565b6040516101b59190612a33565b6101e4610f41565b61018b610f65565b61018b61025a36600461280a565b611103565b61027261026d36600461252a565b61116d565b6040516101b59190612cf5565b61027261028d366004612562565b611188565b6102726102a036600461252a565b6111b5565b61018b6102b33660046126c6565b611230565b61018b6102c636600461260d565b61126e565b61018b6102d93660046127d2565b6112c7565b6101e46102ec36600461280a565b6113b5565b61018b6102ff36600461260d565b6113c5565b61018b61031236600461252a565b611450565b61018b610325366004612673565b6114be565b61022f61155e565b610272610340366004612562565b611582565b61034d61187d565b6001600160a01b031661035e610ef0565b6001600160a01b03161461038d5760405162461bcd60e51b815260040161038490612c3d565b60405180910390fd5b6001600160a01b03831660009081526003602052604090205460ff166103c55760405162461bcd60e51b815260040161038490612cc9565b6009546103d490600190612dec565b8251146103f35760405162461bcd60e51b815260040161038490612b25565b80518251146104145760405162461bcd60e51b815260040161038490612ac2565b60005b8251811015610499576003600084838151811061044457634e487b7160e01b600052603260045260246000fd5b6020908102919091018101516001600160a01b031682528101919091526040016000205460ff166104875760405162461bcd60e51b815260040161038490612c91565b8061049181612e51565b915050610417565b506104a381611881565b6104d660405180604001604052806009815260200168434f4d4d554e49545960b81b8152506104d0610ef0565b8561190e565b6001600160a01b0383166000908152600360209081526040909120805460ff19169055825161050b916009919085019061236d565b5061051581611fca565b6040516001600160a01b038416907fd9ddc9dcfa963ac8b810758254dfcbdd868ce81331581e7cfe5686f80cc0ed2090600090a2505050565b61055661187d565b6001600160a01b0316610567610ef0565b6001600160a01b03161461058d5760405162461bcd60e51b815260040161038490612c3d565b835160095461059d906001612d72565b146105ba5760405162461bcd60e51b815260040161038490612be6565b604051633d200b4560e01b81526001600160a01b037f00000000000000000000000000000000000000000000000000000000000000001690633d200b4590610606908690600401612893565b60206040518083038186803b15801561061e57600080fd5b505afa158015610632573d6000803e3d6000fd5b505050506040513d601f19601f8201168201806040525081019061065691906126a6565b6106725760405162461bcd60e51b815260040161038490612b8d565b61067b84611881565b604051635c41e61560e11b81526000906001600160a01b0385169063b883cc2a906106b09030908a90889088906004016128cb565b602060405180830381600087803b1580156106ca57600080fd5b505af11580156106de573d6000803e3d6000fd5b505050506040513d601f19601f820116820180604052508101906107029190612546565b905061073760405180604001604052806009815260200168434f4d4d554e49545960b81b815250610731610ef0565b8361190e565b6001600160a01b03811660008181526003602090815260408083208054600160ff1991821681179092556007845282852080549091168217905560049092528220829055600980548083019091557f6e1540171b6c0c960b71a7020d9f60077f6af931a8bbf590da0223dacf75c7af0180546001600160a01b03199081168517909155600a805492830181559092527fc65a7bb8d6351c1cf70c95a316cc6a92839c986682d98bc35f958f4883f9d2a801805490911690911790556107fb85611fca565b505050505050565b600054600160a01b900461ffff1681565b61081c61187d565b6001600160a01b031661082d610ef0565b6001600160a01b0316146108535760405162461bcd60e51b815260040161038490612c3d565b6001600160a01b0381166108795760405162461bcd60e51b815260040161038490612c21565b6001546040516001600160a01b038084169216907f5d777218f34a12264a9fec685df1868059eeec6d632b17a1775a00089e57533a90600090a3600180546001600160a01b0319166001600160a01b0392909216919091179055565b600981815481106108e557600080fd5b6000918252602090912001546001600160a01b0316905081565b61090761187d565b6001600160a01b0316610918610ef0565b6001600160a01b03161461093e5760405162461bcd60e51b815260040161038490612c3d565b61094860006120ae565b565b600b5461095657610eed565b60008151116109775760405162461bcd60e51b815260040161038490612b43565b600b544311156109d0576109d0604051806040016040528060048152602001632aa9a2a960e11b81525033836000815181106109c357634e487b7160e01b600052603260045260246000fd5b602002602001015161190e565b60008060007f00000000000000000000000000000000000000000000000000000000000000006001600160a01b031663f2803f036040518163ffffffff1660e01b815260040160206040518083038186803b158015610a2e57600080fd5b505afa158015610a42573d6000803e3d6000fd5b505050506040513d601f19601f82011682018060405250810190610a669190612546565b905060005b84518160ff161015610e8b576000858260ff1681518110610a9c57634e487b7160e01b600052603260045260246000fd5b6020908102919091018101516001600160a01b0381166000908152600790925260409091205490915060ff16610ae45760405162461bcd60e51b815260040161038490612cad565b6040516394465b2160e01b81526000906001600160a01b038316906394465b2190610b13903390600401612893565b60206040518083038186803b158015610b2b57600080fd5b505afa158015610b3f573d6000803e3d6000fd5b505050506040513d601f19601f82011682018060405250810190610b639190612822565b6001600160a01b0383166000818152600660209081526040808320338452825280832054938352600490915281205492935091610bbd9190610bb79064e8d4a5100090610bb19087906120fe565b90612111565b9061211d565b905060006001600160a01b03861615801590610c525750604051632b6d7e0f60e21b81526001600160a01b0387169063adb5f83c90610c00908790600401612893565b602060405180830381600087803b158015610c1a57600080fd5b505af1158015610c2e573d6000803e3d6000fd5b505050506040513d601f19601f82011682018060405250810190610c5291906126a6565b15610cfb576000866001600160a01b031663328686f66040518163ffffffff1660e01b815260040160206040518083038186803b158015610c9257600080fd5b505afa158015610ca6573d6000803e3d6000fd5b505050506040513d601f19601f82011682018060405250810190610cca91906127ee565b905061ffff811615610cf957610cea612710610bb18561ffff85166120fe565b9150610cf6838961211d565b92505b505b8015610d795760405163330ff7b560e21b81526001600160a01b0387169063cc3fded490610d31903090889086906004016128a7565b600060405180830381600087803b158015610d4b57600080fd5b505af1158015610d5f573d6000803e3d6000fd5b50505050610d76818861212990919063ffffffff16565b96505b8115610dd2576001600160a01b0384166000908152600560209081526040808320338452909152902054610dad9083612129565b6001600160a01b03851660009081526005602090815260408083203384529091529020555b6001600160a01b0384166000908152600560209081526040808320338452909152902054610e01908990612129565b6001600160a01b038516600090815260046020526040902054909850610e339064e8d4a5100090610bb19086906120fe565b6001600160a01b0390941660008181526006602090815260408083203380855290835281842098909855928252600581528282209682529590955284209390935550829150610e83905081612e6c565b915050610a6b565b508115610e9c57610e9c8183612135565b610ea63384612135565b336001600160a01b03167f6ef8cf0d66677b36d11ee4e51dbd733fcd95070b8c2eb524fb96952f26115cb28585604051610ee192919061295c565b60405180910390a25050505b50565b6000546001600160a01b031690565b7f000000000000000000000000000000000000000000000000000000000000000081565b6001600160a01b031660009081526003602052604090205460ff1690565b7f000000000000000000000000000000000000000000000000000000000000000090565b610f6d61187d565b6001600160a01b0316610f7e610ef0565b6001600160a01b031614610fa45760405162461bcd60e51b815260040161038490612c3d565b600060025411610fb357600080fd5b6002547f0000000000000000000000000000000000000000000000000000000000000000611093576040516370a0823160e01b81526000906001600160a01b037f000000000000000000000000000000000000000000000000000000000000000016906370a082319061102a903090600401612893565b60206040518083038186803b15801561104257600080fd5b505afa158015611056573d6000803e3d6000fd5b505050506040513d601f19601f8201168201806040525081019061107a9190612822565b9050600254811061108d5760025461108f565b805b9150505b6001546110a9906001600160a01b031682612135565b6002546110b6908261211d565b6002556001546040516001600160a01b03909116907f86a5cc8fe9af9ae68fb50f62885307a7755a30cbd290131644377f0bd94a7181906110f8908490612cf5565b60405180910390a250565b61110b61187d565b6001600160a01b031661111c610ef0565b6001600160a01b0316146111425760405162461bcd60e51b815260040161038490612c3d565b610eed7f000000000000000000000000000000000000000000000000000000000000000033836121b2565b6001600160a01b031660009081526004602052604090205490565b6001600160a01b038083166000908152600660209081526040808320938516835292905220545b92915050565b600080805b600a5461ffff821610156112295761121561120e600a8361ffff16815481106111f357634e487b7160e01b600052603260045260246000fd5b6000918252602090912001546001600160a01b031686611582565b8390612129565b91508061122181612e2f565b9150506111ba565b5092915050565b3360009081526007602052604090205460ff1661125f5760405162461bcd60e51b815260040161038490612c03565b61126a82823361190e565b5050565b3360009081526007602052604090205460ff1661129d5760405162461bcd60e51b815260040161038490612c03565b3360009081526006602090815260408083206001600160a01b039590951683529390529190912055565b6112cf61187d565b6001600160a01b03166112e0610ef0565b6001600160a01b0316146113065760405162461bcd60e51b815260040161038490612c3d565b61271061ffff8216111561132c5760405162461bcd60e51b815260040161038490612c72565b61136060405180604001604052806009815260200168434f4d4d554e49545960b81b815250611359610ef0565b600061190e565b6000805461ffff60a01b1916600160a01b61ffff8416021790556040517fb5ea2431f5202daeb0439a80df086a35ec0abfd105e20f5564a824062596c09e906113aa908390612ce6565b60405180910390a150565b600a81815481106108e557600080fd5b3360009081526007602052604090205460ff166113f45760405162461bcd60e51b815260040161038490612c03565b3360009081526005602090815260408083206001600160a01b03861684529091529020546114229082612129565b3360009081526005602090815260408083206001600160a01b03969096168352949052929092209190915550565b61145861187d565b6001600160a01b0316611469610ef0565b6001600160a01b03161461148f5760405162461bcd60e51b815260040161038490612c3d565b6001600160a01b0381166114b55760405162461bcd60e51b815260040161038490612adf565b610eed816120ae565b6114c661187d565b6001600160a01b03166114d7610ef0565b6001600160a01b0316146114fd5760405162461bcd60e51b815260040161038490612c3d565b80516009541461151f5760405162461bcd60e51b815260040161038490612bca565b61152881611881565b61155560405180604001604052806009815260200168434f4d4d554e49545960b81b815250611359610ef0565b610eed81611fca565b7f000000000000000000000000000000000000000000000000000000000000000081565b6000600b5460001415611597575060006111af565b600080546116749061271090610bb1906115bc90600160a01b900461ffff1683612dc9565b61ffff167f00000000000000000000000000000000000000000000000000000000000000006001600160a01b0316632c32c36030600b5460016115ff9190612d72565b436040518463ffffffff1660e01b815260040161161e9392919061293b565b60206040518083038186803b15801561163657600080fd5b505afa15801561164a573d6000803e3d6000fd5b505050506040513d601f19601f8201168201806040525081019061166e9190612822565b906120fe565b90506000846001600160a01b03166394465b21856040518263ffffffff1660e01b81526004016116a49190612893565b60206040518083038186803b1580156116bc57600080fd5b505afa1580156116d0573d6000803e3d6000fd5b505050506040513d601f19601f820116820180604052508101906116f49190612822565b905080611729575050506001600160a01b038083166000908152600560209081526040808320938516835292905220546111af565b6000856001600160a01b03166338adb6f06040518163ffffffff1660e01b815260040160206040518083038186803b15801561176457600080fd5b505afa158015611778573d6000803e3d6000fd5b505050506040513d601f19601f8201168201806040525081019061179c9190612822565b6001600160a01b038716600090815260086020526040812054919250906117fb906117dc908490610bb1906305f5e1009061166e908a9061ffff166120fe565b6001600160a01b03891660009081526004602052604090205490612129565b6001600160a01b038089166000908152600660209081526040808320938b168352929052908120549192509061183e90610bb764e8d4a51000610bb188876120fe565b6001600160a01b03808a166000908152600560209081526040808320938c16835292905220549091506118719082612129565b98975050505050505050565b3390565b6000805b82518160ff1610156118db57828160ff16815181106118b457634e487b7160e01b600052603260045260246000fd5b6020026020010151826118c79190612d4c565b9150806118d381612e6c565b915050611885565b5061ffff811661271014806118f2575061ffff8116155b61126a5760405162461bcd60e51b815260040161038490612baa565b604051634ca1a91960e01b81526001600160a01b037f00000000000000000000000000000000000000000000000000000000000000001690634ca1a9199061195a908590600401612893565b60206040518083038186803b15801561197257600080fd5b505afa158015611986573d6000803e3d6000fd5b505050506040513d601f19601f820116820180604052508101906119aa91906126a6565b158015611a535750604051631da3ddcd60e31b81526000906001600160a01b037f0000000000000000000000000000000000000000000000000000000000000000169063ed1eee6890611a01908790600401612a3e565b60206040518083038186803b158015611a1957600080fd5b505afa158015611a2d573d6000803e3d6000fd5b505050506040513d601f19601f82011682018060405250810190611a519190612822565b115b15611ca457611c1f7f00000000000000000000000000000000000000000000000000000000000000006001600160a01b031663c10bde0b6040518163ffffffff1660e01b815260040160206040518083038186803b158015611ab457600080fd5b505afa158015611ac8573d6000803e3d6000fd5b505050506040513d601f19601f82011682018060405250810190611aec9190612546565b837f00000000000000000000000000000000000000000000000000000000000000006001600160a01b0316633b19e84a6040518163ffffffff1660e01b815260040160206040518083038186803b158015611b4657600080fd5b505afa158015611b5a573d6000803e3d6000fd5b505050506040513d601f19601f82011682018060405250810190611b7e9190612546565b604051631da3ddcd60e31b81526001600160a01b037f0000000000000000000000000000000000000000000000000000000000000000169063ed1eee6890611bca908a90600401612a3e565b60206040518083038186803b158015611be257600080fd5b505afa158015611bf6573d6000803e3d6000fd5b505050506040513d601f19601f82011682018060405250810190611c1a9190612822565b6121c4565b60405163038815f360e41b81526001600160a01b037f000000000000000000000000000000000000000000000000000000000000000016906338815f3090611c71908690309086908890600401612a51565b600060405180830381600087803b158015611c8b57600080fd5b505af1158015611c9f573d6000803e3d6000fd5b505050505b600b546000904390611cb657600b8190555b600b548111611cc6575050611fc5565b7f00000000000000000000000000000000000000000000000000000000000000006001600160a01b0316632c32c36030600b546001611d059190612d72565b846040518463ffffffff1660e01b8152600401611d249392919061293b565b60206040518083038186803b158015611d3c57600080fd5b505afa158015611d50573d6000803e3d6000fd5b505050506040513d601f19601f82011682018060405250810190611d749190612822565b91508115611e3557600054600160a01b900461ffff1615611e355760008054611db19061271090610bb1908690600160a01b900461ffff166120fe565b600254909150611dc19082612129565b600255600054611df09061271090610bb190611de9908390600160a01b900461ffff1661211d565b86906120fe565b9250846001600160a01b03167f2f4ae87a584f00dc35b043dd1c5ac839c1f41cd3a66e834d4e13faa6251634e682604051611e2b9190612cf5565b60405180910390a2505b60005b60095461ffff82161015611fbf57600060098261ffff1681548110611e6d57634e487b7160e01b600052603260045260246000fd5b60009182526020808320909101546040805163038adb6f60e41b815290516001600160a01b03909216945084926338adb6f092600480840193829003018186803b158015611eba57600080fd5b505afa158015611ece573d6000803e3d6000fd5b505050506040513d601f19601f82011682018060405250810190611ef29190612822565b9050801580611f1b57506001600160a01b03821660009081526008602052604090205461ffff16155b15611f27575050611fad565b6001600160a01b038216600090815260086020526040812054611f5f9061271090610bb19061ffff1661166e8a64e8d4a510006120fe565b9050611f8d611f6e8284612111565b6001600160a01b03851660009081526004602052604090205490612129565b6001600160a01b0390931660009081526004602052604090209290925550505b80611fb781612e2f565b915050611e38565b50600b55505b505050565b60005b60095461ffff8216101561207b57818161ffff1681518110611fff57634e487b7160e01b600052603260045260246000fd5b60200260200101516008600060098461ffff168154811061203057634e487b7160e01b600052603260045260246000fd5b6000918252602080832091909101546001600160a01b031683528201929092526040019020805461ffff191661ffff929092169190911790558061207381612e2f565b915050611fcd565b507f5b904beeb70c84b12d4105e0582a752c5a2705717790e1a648a27ba8622b97866009826040516113aa9291906129ad565b600080546001600160a01b038381166001600160a01b0319831681178455604051919092169283917f8be0079c531659141344cd1fd0a4f28419497f9722a3daafe3b4186f6b6457e09190a35050565b600061210a8284612daa565b9392505050565b600061210a8284612d8a565b600061210a8284612dec565b600061210a8284612d72565b7f00000000000000000000000000000000000000000000000000000000000000001561218b576121867f000000000000000000000000000000000000000000000000000000000000000083836121d8565b61126a565b61126a7f000000000000000000000000000000000000000000000000000000000000000083835b826121be818484612240565b50505050565b836121d181858585612296565b5050505050565b6040516340c10f1960e01b815283906001600160a01b038216906340c10f19906122089086908690600401612922565b600060405180830381600087803b15801561222257600080fd5b505af1158015612236573d6000803e3d6000fd5b5050505050505050565b611fc58363a9059cbb60e01b848460405160240161225f929190612922565b60408051601f198184030181529190526020810180516001600160e01b03166001600160e01b0319909316929092179091526122b7565b6121be846323b872dd60e01b85858560405160240161225f939291906128a7565b600080836001600160a01b0316836040516122d29190612877565b6000604051808303816000865af19150503d806000811461230f576040519150601f19603f3d011682016040523d82523d6000602084013e612314565b606091505b5091509150816123365760405162461bcd60e51b815260040161038490612b61565b8051156121be578080602001905181019061235191906126a6565b6121be5760405162461bcd60e51b815260040161038490612a8d565b8280548282559060005260206000209081019282156123c2579160200282015b828111156123c257825182546001600160a01b0319166001600160a01b0390911617825560209092019160019091019061238d565b506123ce9291506123d2565b5090565b5b808211156123ce57600081556001016123d3565b600082601f8301126123f7578081fd5b8135602061240c61240783612d28565b612cfe565b8281528181019085830183850287018401881015612428578586fd5b855b8581101561244f57813561243d81612eb8565b8452928401929084019060010161242a565b5090979650505050505050565b600082601f83011261246c578081fd5b8135602061247c61240783612d28565b8281528181019085830183850287018401881015612498578586fd5b855b8581101561244f5781356124ad81612ecd565b8452928401929084019060010161249a565b600082601f8301126124cf578081fd5b813567ffffffffffffffff8111156124e9576124e9612ea2565b6124fc601f8201601f1916602001612cfe565b818152846020838601011115612510578283fd5b816020850160208301379081016020019190915292915050565b60006020828403121561253b578081fd5b813561210a81612eb8565b600060208284031215612557578081fd5b815161210a81612eb8565b60008060408385031215612574578081fd5b823561257f81612eb8565b9150602083013561258f81612eb8565b809150509250929050565b6000806000606084860312156125ae578081fd5b83356125b981612eb8565b9250602084013567ffffffffffffffff808211156125d5578283fd5b6125e1878388016123e7565b935060408601359150808211156125f6578283fd5b506126038682870161245c565b9150509250925092565b6000806040838503121561261f578182fd5b823561262a81612eb8565b946020939093013593505050565b600060208284031215612649578081fd5b813567ffffffffffffffff81111561265f578182fd5b61266b848285016123e7565b949350505050565b600060208284031215612684578081fd5b813567ffffffffffffffff81111561269a578182fd5b61266b8482850161245c565b6000602082840312156126b7578081fd5b8151801515811461210a578182fd5b600080604083850312156126d8578182fd5b823567ffffffffffffffff8111156126ee578283fd5b6126fa858286016124bf565b925050602083013561258f81612eb8565b600080600080600060808688031215612722578081fd5b853567ffffffffffffffff80821115612739578283fd5b61274589838a016124bf565b9650602088013591508082111561275a578283fd5b61276689838a0161245c565b95506040880135915061277882612eb8565b9093506060870135908082111561278d578283fd5b818801915088601f8301126127a0578283fd5b8135818111156127ae578384fd5b8960208285010111156127bf578384fd5b9699959850939650602001949392505050565b6000602082840312156127e3578081fd5b813561210a81612ecd565b6000602082840312156127ff578081fd5b815161210a81612ecd565b60006020828403121561281b578081fd5b5035919050565b600060208284031215612833578081fd5b5051919050565b6001600160a01b0316815260200190565b60008151808452612863816020860160208601612e03565b601f01601f19169290920160200192915050565b60008251612889818460208701612e03565b9190910192915050565b6001600160a01b0391909116815260200190565b6001600160a01b039384168152919092166020820152604081019190915260600190565b6001600160a01b03851681526060602082018190526000906128ef9083018661284b565b82810360408401528381528385602083013781602085830101526020601f19601f86011682010191505095945050505050565b6001600160a01b03929092168252602082015260400190565b6001600160a01b039390931683526020830191909152604082015260600190565b604080825283519082018190526000906020906060840190828701845b8281101561299e5781516001600160a01b031684529284019290840190600101612979565b50505092019290925292915050565b6000604082016040835280855480835260608501915086845260209250828420845b828110156129fb5781546129ed9085906001600160a01b031661283a565b9350600191820191016129cf565b50505083810382850152845180825285830191830190845b8181101561244f57835161ffff1683529284019291840191600101612a13565b901515815260200190565b60006020825261210a602083018461284b565b600060808252612a64608083018761284b565b6001600160a01b0395861660208401529385166040830152509216606090920191909152919050565b6020808252818101527f45524332303a206f7065726174696f6e20646964206e6f742073756363656564604082015260600190565b6020808252600390820152624c444d60e81b604082015260600190565b60208082526026908201527f4f776e61626c653a206e6577206f776e657220697320746865207a65726f206160408201526564647265737360d01b606082015260800190565b60208082526004908201526315d0541360e21b604082015260600190565b6020808252600490820152634d484f3160e01b604082015260600190565b602080825260129082015271115490cc8c0e8818d85b1b0819985a5b195960721b604082015260600190565b6020808252600390820152622aa82360e91b604082015260600190565b6020808252600690820152655253213d317760d01b604082015260600190565b60208082526002908201526115d360f21b604082015260600190565b60208082526003908201526257504360e81b604082015260600190565b602080825260049082015263504e495760e01b604082015260600190565b602080825260029082015261494160f01b604082015260600190565b6020808252818101527f4f776e61626c653a2063616c6c6572206973206e6f7420746865206f776e6572604082015260600190565b60208082526005908201526450523e317760d81b604082015260600190565b602080825260029082015261057560f41b604082015260600190565b602080825260029082015261049560f41b604082015260600190565b60208082526003908201526250494160e81b604082015260600190565b61ffff91909116815260200190565b90815260200190565b60405181810167ffffffffffffffff81118282101715612d2057612d20612ea2565b604052919050565b600067ffffffffffffffff821115612d4257612d42612ea2565b5060209081020190565b600061ffff808316818516808303821115612d6957612d69612e8c565b01949350505050565b60008219821115612d8557612d85612e8c565b500190565b600082612da557634e487b7160e01b81526012600452602481fd5b500490565b6000816000190483118215151615612dc457612dc4612e8c565b500290565b600061ffff83811690831681811015612de457612de4612e8c565b039392505050565b600082821015612dfe57612dfe612e8c565b500390565b60005b83811015612e1e578181015183820152602001612e06565b838111156121be5750506000910152565b600061ffff80831681811415612e4757612e47612e8c565b6001019392505050565b6000600019821415612e6557612e65612e8c565b5060010190565b600060ff821660ff811415612e8357612e83612e8c565b60010192915050565b634e487b7160e01b600052601160045260246000fd5b634e487b7160e01b600052604160045260246000fd5b6001600160a01b0381168114610eed57600080fd5b61ffff81168114610eed57600080fdfea2646970667358221220c0ec8c083dcb5cbd96c3aa5a3e20086e9ef2c2b5f50c0b3aca2c765b298ab36f64736f6c63430008000033",
  "immutableReferences": {
    "3711": [
      {
        "length": 32,
        "start": 1489
      },
      {
        "length": 32,
        "start": 2519
      },
      {
        "length": 32,
        "start": 6437
      },
      {
        "length": 32,
        "start": 6604
      },
      {
        "length": 32,
        "start": 6749
      },
      {
        "length": 32,
        "start": 6895
      },
      {
        "length": 32,
        "start": 7061
      },
      {
        "length": 32,
        "start": 7222
      }
    ],
    "3755": [
      {
        "length": 32,
        "start": 3907
      },
      {
        "length": 32,
        "start": 4085
      },
      {
        "length": 32,
        "start": 4423
      },
      {
        "length": 32,
        "start": 8544
      },
      {
        "length": 32,
        "start": 8592
      }
    ],
    "3757": [
      {
        "length": 32,
        "start": 4024
      },
      {
        "length": 32,
        "start": 5472
      },
      {
        "length": 32,
        "start": 8503
      }
    ],
    "3759": [
      {
        "length": 32,
        "start": 3841
      },
      {
        "length": 32,
        "start": 5570
      },
      {
        "length": 32,
        "start": 7368
      }
    ]
  },
  "source": "// SPDX-License-Identifier: MIT\n\npragma solidity 0.8.0;\npragma experimental ABIEncoderV2;\n\nimport \"@openzeppelin/contracts/access/Ownable.sol\";\nimport \"@openzeppelin/contracts/utils/math/SafeMath.sol\";\nimport \"./interfaces/ICalculator.sol\";\nimport \"./interfaces/ICommunity.sol\";\nimport \"./interfaces/IPool.sol\";\nimport \"./interfaces/IPoolFactory.sol\";\nimport \"./interfaces/ICommittee.sol\";\nimport \"./interfaces/IGauge.sol\";\nimport \"./ERC20Helper.sol\";\n\n/**\n * @dev Template contract of Nutbox staking based communnity.\n *\n * Community Contract always returns an entity of this contract.\n * Support add serial staking pool into it.\n */\ncontract Community is ICommunity, ERC20Helper, Ownable {\n\n    using SafeMath for uint256;\n    using SafeMath for uint16;\n\n    uint16 constant CONSTANTS_10000 = 10000;\n\n    address immutable committee;\n    // DAO fund ratio\n    uint16 public feeRatio;\n    // DAO fund address\n    address private devFund;\n    // Revenue can be withdrawn by community so far\n    uint256 private retainedRevenue; \n    // pool => hasOpened\n    mapping(address => bool) private openedPools;\n    // pool => shareAcc\n    mapping(address => uint256) private poolAcc;\n    // pool => user => amount\n    mapping(address => mapping(address => uint256)) private userRewards;\n    // pool => user => amount\n    mapping(address => mapping(address => uint256)) private userDebts;\n    // pool => canUpdate, all added pools\n    mapping(address => bool) private whitelists;\n    // pool => ratios\n    mapping(address => uint16) private poolRatios;\n    // actived pools right now\n    address[] public activedPools;\n    // all created pools include closed pools\n    address[] public createdPools;\n    uint256 private lastRewardBlock;\n    address immutable communityToken;\n    bool immutable public isMintableCommunityToken;\n    address immutable public rewardCalculator;\n\n    // events triggered by community admin\n    event AdminSetFeeRatio(uint16 ratio);\n    event AdminClosePool(address indexed pool);\n    event AdminSetPoolRatio(address[] pools, uint16[] ratios);\n    // events triggered by user\n    event WithdrawRewards(address[] pool, address indexed who, uint256 amount);\n    // when user update pool, there may be some fee charge to owner's account\n    event PoolUpdated(address indexed who, uint256 amount);\n    event DevChanged(address indexed oldDev, address indexed newDev);\n    event RevenueWithdrawn(address indexed devFund, uint256 amount);\n\n    modifier onlyPool {\n        require(whitelists[msg.sender], 'PNIW'); // Pool is not in white list\n        _;\n    }\n\n    constructor(address _admin, address _committee, address _communityToken, address _rewardCalculator, bool _isMintableCommunityToken) {\n        transferOwnership(_admin);\n        devFund = _admin;\n        committee = _committee;\n        communityToken = _communityToken;\n        rewardCalculator = _rewardCalculator;\n        isMintableCommunityToken = _isMintableCommunityToken;\n        emit DevChanged(address(0), _admin);\n    }\n    \n    function adminSetDev(address _dev) external onlyOwner {\n        require(_dev != address(0), \"IA\"); // Invalid address\n        emit DevChanged(devFund, _dev);\n        devFund = _dev;\n    }\n    \n    function adminWithdrawRevenue() external onlyOwner {\n        require(retainedRevenue > 0);\n        uint256 harvestAmount = retainedRevenue;\n        if (!isMintableCommunityToken){\n            uint256 balance = ERC20(communityToken).balanceOf(address(this));\n            harvestAmount = balance < retainedRevenue ? balance : retainedRevenue;\n        }\n        _unlockOrMintAsset(devFund, harvestAmount);\n        retainedRevenue = retainedRevenue.sub(harvestAmount);\n\n        emit RevenueWithdrawn(devFund, harvestAmount);\n    }\n    \n    function adminSetFeeRatio(uint16 _ratio) external onlyOwner {\n        require(_ratio <= CONSTANTS_10000, 'PR>1w');//Pool ratio exceeds 10000\n\n        _updatePoolsWithFee(\"COMMUNITY\", owner(), address(0));\n        \n        feeRatio = _ratio;\n        emit AdminSetFeeRatio(_ratio);\n    }\n    \n    function adminWithdrawReward(uint256 amount) external onlyOwner {\n        releaseERC20(communityToken, msg.sender, amount);\n    }\n    \n    function adminAddPool(string memory poolName, uint16[] memory ratios, address poolFactory, bytes calldata meta) external onlyOwner {\n        require((activedPools.length + 1) == ratios.length, 'WPC');//Wrong Pool ratio count\n        require(ICommittee(committee).verifyContract(poolFactory), 'UPF');//Unsupported pool factory\n        _checkRatioSum(ratios);\n\n        // create pool imstance\n        address pool = IPoolFactory(poolFactory).createPool(address(this), poolName, meta);\n        _updatePoolsWithFee(\"COMMUNITY\", owner(), pool);\n        openedPools[pool] = true;\n        whitelists[pool] = true;\n        poolAcc[pool] = 0;\n        activedPools.push(pool);\n        createdPools.push(pool);\n        _updatePoolRatios(ratios);\n    }\n    \n    function adminClosePool(address poolAddress, address[] memory _activedPools, uint16[] memory ratios) external onlyOwner {\n        require(openedPools[poolAddress], 'PIA');// Pool is already inactived\n        require(_activedPools.length == activedPools.length - 1, \"WAPL\");//Wrong activedPools length\n        require(_activedPools.length == ratios.length, 'LDM');//Length of pools and ratios dismatch\n        // check received actived pools array right\n        for (uint256 i = 0; i < _activedPools.length; i ++) {\n            require(openedPools[_activedPools[i]], \"WP\"); // Wrong active pool address\n        }\n        _checkRatioSum(ratios);\n\n        _updatePoolsWithFee(\"COMMUNITY\", owner(), poolAddress);\n\n        // mark as inactived\n        openedPools[poolAddress] = false;\n        activedPools = _activedPools;\n        _updatePoolRatios(ratios);\n\n        emit AdminClosePool(poolAddress);\n    }\n    \n    function adminSetPoolRatios(uint16[] memory ratios) external onlyOwner {\n        require(activedPools.length == ratios.length, 'WL');//Wrong ratio list length\n        _checkRatioSum(ratios);\n\n        _updatePoolsWithFee(\"COMMUNITY\", owner(), address(0));\n\n        _updatePoolRatios(ratios);\n    }\n\n    /**\n     * @dev This function would withdraw all rewards that exist in all pools which available for user\n     * This function will not only travel actived pools, but also closed pools\n     */\n    function withdrawPoolsRewards(address[] memory poolAddresses) external {\n        // game has not started\n        if (lastRewardBlock == 0) return;\n        require(poolAddresses.length > 0, \"MHO1\"); // Must harvest at least one pool\n\n        // There are new blocks created after last updating, so update pools before withdraw\n        if(block.number > lastRewardBlock) {\n            _updatePoolsWithFee(\"USER\", msg.sender, poolAddresses[0]);\n        }\n\n        uint256 totalAvailableRewards = 0;\n        uint256 amountTransferToGauge = 0;\n        address gauge = ICommittee(committee).getGauge();\n        for (uint8 i = 0; i < poolAddresses.length; i++) {\n            address poolAddress = poolAddresses[i];\n            require(whitelists[poolAddress], \"IP\"); // Illegal pool\n            uint256 stakedAmount = IPool(poolAddress).getUserStakedAmount(msg.sender);\n\n            uint256 pending = stakedAmount.mul(poolAcc[poolAddress]).div(1e12).sub(userDebts[poolAddress][msg.sender]);\n            uint256 pendingRewardsToGauge = 0;\n            // if this pool's gauge enabled, calculate the reward and transfer c-token to gauge\n            if (gauge != address(0) && IGauge(gauge).hasGaugeEnabled(poolAddress)) {\n                uint16 ratio = IGauge(gauge).getGaugeRatio();\n                if (ratio > 0) {\n                    pendingRewardsToGauge = pending.mul(ratio).div(CONSTANTS_10000);\n                    pending = pending.sub(amountTransferToGauge);\n                }\n            }\n\n            if (pendingRewardsToGauge > 0){\n                IGauge(gauge).updateLedger(address(this), poolAddress, pendingRewardsToGauge);\n                amountTransferToGauge = amountTransferToGauge.add(pendingRewardsToGauge);\n            }\n\n            if(pending > 0) {\n                userRewards[poolAddress][msg.sender] = userRewards[poolAddress][msg.sender].add(pending);\n            }\n            // add all pools available rewards\n            totalAvailableRewards = totalAvailableRewards.add(userRewards[poolAddress][msg.sender]);\n            userDebts[poolAddress][msg.sender] = stakedAmount.mul(poolAcc[poolAddress]).div(1e12);\n            userRewards[poolAddress][msg.sender] = 0;\n        }\n\n        if (amountTransferToGauge > 0) {\n            _unlockOrMintAsset(gauge, amountTransferToGauge);\n        }\n        // transfer rewards to user\n        _unlockOrMintAsset(msg.sender, totalAvailableRewards);\n        emit WithdrawRewards(poolAddresses, msg.sender, totalAvailableRewards);\n    }\n\n    function getPoolPendingRewards(address poolAddress, address user) public view returns(uint256) {\n        // game has not started\n        if (lastRewardBlock == 0) return 0;\n\n        uint256 rewardsReadyToMintedToPools = ICalculator(rewardCalculator).calculateReward(address(this), lastRewardBlock + 1, block.number).mul(10000 - feeRatio).div(10000);\n        // our lastRewardBlock isn't up to date, as the result, the availableRewards isn't\n        // the right amount that delegator can award\n        uint256 stakedAmount = IPool(poolAddress).getUserStakedAmount(user);\n        if (stakedAmount == 0) return userRewards[poolAddress][user];\n        uint256 totalStakedAmount = IPool(poolAddress).getTotalStakedAmount();\n        uint256 _shareAcc = poolAcc[poolAddress].add(rewardsReadyToMintedToPools.mul(poolRatios[poolAddress]).mul(1e8).div(totalStakedAmount));\n        uint256 pending = stakedAmount.mul(_shareAcc).div(1e12).sub(userDebts[poolAddress][user]);\n        return userRewards[poolAddress][user].add(pending);\n    }\n\n    function getTotalPendingRewards(address user) external view returns(uint256) {\n        uint256 rewards = 0;\n        for (uint16 i = 0; i < createdPools.length; i++) {\n            rewards = rewards.add(getPoolPendingRewards(createdPools[i], user));\n        }\n        return rewards;\n    }\n\n    function poolActived(address pool) external view override returns(bool) {\n        return openedPools[pool];\n    }\n\n    function getShareAcc(address pool) external view override returns (uint256) {\n        return poolAcc[pool];\n    }\n\n    function getCommunityToken() external view override returns (address) {\n        return communityToken;\n    }\n\n    function getUserDebt(address pool, address user)\n        external\n        view\n        override returns (uint256) {\n        return userDebts[pool][user];\n    }\n\n    // Pool callable only\n    function appendUserReward(address user, uint256 amount) external override onlyPool {\n        userRewards[msg.sender][user] = userRewards[msg.sender][user].add(amount);\n    }\n\n    // Pool callable only\n    function setUserDebt(address user, uint256 debt) external override onlyPool {\n        userDebts[msg.sender][user] = debt;\n    }\n\n    // Pool callable only\n    function updatePools(string memory feeType, address feePayer) external override onlyPool {\n        _updatePoolsWithFee(feeType, feePayer, msg.sender);\n    }\n\n    function _updatePoolsWithFee(string memory feeType, address feePayer, address pool) private {\n\n        // need pay staking fee whenever update pools\n        if (!ICommittee(committee).getFeeFree(feePayer) && ICommittee(committee).getFee(feeType) > 0){\n            lockERC20(ICommittee(committee).getNut(), feePayer, ICommittee(committee).getTreasury(), ICommittee(committee).getFee(feeType));\n            ICommittee(committee).updateLedger(feeType, address(this), pool, feePayer);\n        }\n\n        uint256 rewardsReadyToMinted = 0;\n        uint256 currentBlock = block.number;\n\n        if (lastRewardBlock == 0) {\n            lastRewardBlock = currentBlock;\n        }\n\n        // make sure one block can only be calculated one time.\n        // think about this situation that more than one deposit/withdraw/withdrowRewards transactions \n        // were exist in the same block, delegator.amout should be updated after _updateRewardInfo being \n        // invoked and it's award Rewards should be calculated next time\n        if (currentBlock <= lastRewardBlock) return;\n\n        // calculate reward Rewards under current blocks\n        rewardsReadyToMinted = ICalculator(rewardCalculator).calculateReward(address(this), lastRewardBlock + 1, currentBlock);\n\n        // save all rewards to contract temporary\n        if (rewardsReadyToMinted > 0) {\n            if (feeRatio > 0) {\n                // only send rewards belong to community, reward belong to user would send when\n                // they withdraw reward manually\n                uint256 feeAmount = rewardsReadyToMinted.mul(feeRatio).div(CONSTANTS_10000);\n                retainedRevenue = retainedRevenue.add(feeAmount);\n\n                // only rewards belong to pools can used to compute shareAcc\n                rewardsReadyToMinted = rewardsReadyToMinted.mul(CONSTANTS_10000.sub(feeRatio)).div(CONSTANTS_10000);\n                emit PoolUpdated(feePayer, feeAmount);\n            }\n        }\n\n        for (uint16 i = 0; i < activedPools.length; i++) {\n            address poolAddress = activedPools[i];\n            uint256 totalStakedAmount = IPool(poolAddress).getTotalStakedAmount();\n            if(totalStakedAmount == 0 || poolRatios[poolAddress] == 0) continue;\n            uint256 poolRewards = rewardsReadyToMinted.mul(1e12).mul(poolRatios[poolAddress]).div(CONSTANTS_10000);\n            poolAcc[poolAddress] = poolAcc[poolAddress].add(poolRewards.div(totalStakedAmount));\n        }\n\n        lastRewardBlock = currentBlock;\n    }\n\n    function _checkRatioSum(uint16[] memory ratios) private pure {\n        uint16 ratioSum = 0;\n        for(uint8 i = 0; i < ratios.length; i++) {\n            ratioSum += ratios[i];\n        }\n        require(ratioSum == CONSTANTS_10000 || ratioSum == 0, 'RS!=1w');//Ratio summary not equal to 10000\n    }\n\n    function _updatePoolRatios(uint16[] memory ratios) private {\n        for (uint16 i = 0; i < activedPools.length; i++) {\n            poolRatios[activedPools[i]] = ratios[i];\n        }\n        emit AdminSetPoolRatio(activedPools, ratios);\n    }\n\n    function _unlockOrMintAsset(address recipient, uint256 amount) private {\n        if (isMintableCommunityToken) {\n            mintERC20(communityToken, address(recipient), amount);\n        } else {\n            releaseERC20(communityToken, address(recipient), amount);\n        }\n    }\n}\n",
  "sourcePath": "/Users/necklace/work/nutbox/nutbox-contract/contracts/Community.sol",
  "compiler": {
    "name": "solc",
    "version": "0.8.0+commit.c7dfd78e.Emscripten.clang"
  },
  "schemaVersion": "3.4.11",
  "updatedAt": "2022-12-27T12:17:35.079Z",
  "devdoc": {
    "details": "Template contract of Nutbox staking based communnity. Community Contract always returns an entity of this contract. Support add serial staking pool into it.",
    "kind": "dev",
    "methods": {
      "owner()": {
        "details": "Returns the address of the current owner."
      },
      "renounceOwnership()": {
        "details": "Leaves the contract without owner. It will not be possible to call `onlyOwner` functions anymore. Can only be called by the current owner. NOTE: Renouncing ownership will leave the contract without an owner, thereby removing any functionality that is only available to the owner."
      },
      "transferOwnership(address)": {
        "details": "Transfers ownership of the contract to a new account (`newOwner`). Can only be called by the current owner."
      },
      "withdrawPoolsRewards(address[])": {
        "details": "This function would withdraw all rewards that exist in all pools which available for user This function will not only travel actived pools, but also closed pools"
      }
    },
    "version": 1
  },
  "userdoc": {
    "kind": "user",
    "methods": {},
    "version": 1
  }
}