{
  "contractName": "CommunityFactory",
  "abi": [
    {
      "inputs": [
        {
          "internalType": "address",
          "name": "_committee",
          "type": "address"
        }
      ],
      "stateMutability": "nonpayable",
      "type": "constructor"
    },
    {
      "anonymous": false,
      "inputs": [
        {
          "indexed": true,
          "internalType": "address",
          "name": "creator",
          "type": "address"
        },
        {
          "indexed": true,
          "internalType": "address",
          "name": "community",
          "type": "address"
        },
        {
          "indexed": false,
          "internalType": "address",
          "name": "communityToken",
          "type": "address"
        }
      ],
      "name": "CommunityCreated",
      "type": "event"
    },
    {
      "inputs": [
        {
          "internalType": "address",
          "name": "",
          "type": "address"
        }
      ],
      "name": "createdCommunity",
      "outputs": [
        {
          "internalType": "bool",
          "name": "",
          "type": "bool"
        }
      ],
      "stateMutability": "view",
      "type": "function"
    },
    {
      "inputs": [
        {
          "internalType": "bool",
          "name": "isMintable",
          "type": "bool"
        },
        {
          "internalType": "address",
          "name": "communityToken",
          "type": "address"
        },
        {
          "internalType": "address",
          "name": "communityTokenFactory",
          "type": "address"
        },
        {
          "internalType": "bytes",
          "name": "tokenMeta",
          "type": "bytes"
        },
        {
          "internalType": "address",
          "name": "rewardCalculator",
          "type": "address"
        },
        {
          "internalType": "bytes",
          "name": "distributionPolicy",
          "type": "bytes"
        }
      ],
      "name": "createCommunity",
      "outputs": [],
      "stateMutability": "nonpayable",
      "type": "function"
    }
  ],
  "bytecode": "0x60a060405234801561001057600080fd5b5060405161433b38038061433b83398101604081905261002f9161008d565b6001600160a01b038116610078576040517f08c379a000000000000000000000000000000000000000000000000000000000815260040161006f906100bb565b60405180910390fd5b60601b6001600160601b0319166080526100f2565b60006020828403121561009e578081fd5b81516001600160a01b03811681146100b4578182fd5b9392505050565b60208082526011908201527f496e76616c696420636f6d6d6974746565000000000000000000000000000000604082015260600190565b60805160601c6141e66101556000396000818160b301528181610195015281816102cd01528181610427015281816104ce01528181610559015281816106960152818161072c015281816107d60152818161087c015261098d01526141e66000f3fe60806040523480156200001157600080fd5b50600436106200003a5760003560e01c806368a94b6e146200003f578063cc83eac5146200006e575b600080fd5b620000566200005036600462000bf8565b62000087565b60405162000065919062000e74565b60405180910390f35b620000856200007f36600462000c5c565b6200009c565b005b60006020819052908152604090205460ff1681565b604051633d200b4560e01b81526001600160a01b037f00000000000000000000000000000000000000000000000000000000000000001690633d200b4590620000ea90869060040162000dbf565b60206040518083038186803b1580156200010357600080fd5b505afa15801562000118573d6000803e3d6000fd5b505050506040513d601f19601f820116820180604052508101906200013e919062000c3d565b620001665760405162461bcd60e51b81526004016200015d9062000eb4565b60405180910390fd5b60006001600160a01b038816620002c85750604051633d200b4560e01b81526001985088906001600160a01b037f00000000000000000000000000000000000000000000000000000000000000001690633d200b4590620001cc908a9060040162000dbf565b60206040518083038186803b158015620001e557600080fd5b505afa158015620001fa573d6000803e3d6000fd5b505050506040513d601f19601f8201168201806040525081019062000220919062000c3d565b6200023f5760405162461bcd60e51b81526004016200015d9062000f05565b604051633120db1b60e01b81526001600160a01b03881690633120db1b906200026f908990899060040162000e96565b602060405180830381600087803b1580156200028a57600080fd5b505af11580156200029f573d6000803e3d6000fd5b505050506040513d601f19601f82011682018060405250810190620002c5919062000c1e565b97505b6000337f00000000000000000000000000000000000000000000000000000000000000008a878d604051620002fd9062000ba0565b6200030d95949392919062000ded565b604051809103906000f0801580156200032a573d6000803e3d6000fd5b50905081156200040d57886001600160a01b0316632f2ff15d8a6001600160a01b031663d53913936040518163ffffffff1660e01b815260040160206040518083038186803b1580156200037d57600080fd5b505afa15801562000392573d6000803e3d6000fd5b505050506040513d601f19601f82011682018060405250810190620003b8919062000d24565b836040518363ffffffff1660e01b8152600401620003d892919062000e7f565b600060405180830381600087803b158015620003f357600080fd5b505af115801562000408573d6000803e3d6000fd5b505050505b604051631da3ddcd60e31b81526000906001600160a01b037f0000000000000000000000000000000000000000000000000000000000000000169063ed1eee68906200045c9060040162000f6c565b60206040518083038186803b1580156200047557600080fd5b505afa1580156200048a573d6000803e3d6000fd5b505050506040513d601f19601f82011682018060405250810190620004b0919062000d24565b1115620008ed57604051631da3ddcd60e31b81526001600160a01b037f0000000000000000000000000000000000000000000000000000000000000000169063ed1eee6890620005039060040162000f6c565b60206040518083038186803b1580156200051c57600080fd5b505afa15801562000531573d6000803e3d6000fd5b505050506040513d601f19601f8201168201806040525081019062000557919062000d24565b7f00000000000000000000000000000000000000000000000000000000000000006001600160a01b031663c10bde0b6040518163ffffffff1660e01b815260040160206040518083038186803b158015620005b157600080fd5b505afa158015620005c6573d6000803e3d6000fd5b505050506040513d601f19601f82011682018060405250810190620005ec919062000c1e565b6001600160a01b031663dd62ed3e33306040518363ffffffff1660e01b81526004016200061b92919062000dd3565b60206040518083038186803b1580156200063457600080fd5b505afa15801562000649573d6000803e3d6000fd5b505050506040513d601f19601f820116820180604052508101906200066f919062000d24565b1015620006905760405162461bcd60e51b81526004016200015d9062000f4e565b620008657f00000000000000000000000000000000000000000000000000000000000000006001600160a01b031663c10bde0b6040518163ffffffff1660e01b815260040160206040518083038186803b158015620006ee57600080fd5b505afa15801562000703573d6000803e3d6000fd5b505050506040513d601f19601f8201168201806040525081019062000729919062000c1e565b337f00000000000000000000000000000000000000000000000000000000000000006001600160a01b0316633b19e84a6040518163ffffffff1660e01b815260040160206040518083038186803b1580156200078457600080fd5b505afa15801562000799573d6000803e3d6000fd5b505050506040513d601f19601f82011682018060405250810190620007bf919062000c1e565b604051631da3ddcd60e31b81526001600160a01b037f0000000000000000000000000000000000000000000000000000000000000000169063ed1eee68906200080b9060040162000f6c565b60206040518083038186803b1580156200082457600080fd5b505afa15801562000839573d6000803e3d6000fd5b505050506040513d601f19601f820116820180604052508101906200085f919062000d24565b62000a65565b60405163038815f360e41b81526001600160a01b037f000000000000000000000000000000000000000000000000000000000000000016906338815f3090620008b8908490600090339060040162000f86565b600060405180830381600087803b158015620008d357600080fd5b505af1158015620008e8573d6000803e3d6000fd5b505050505b604051635a6c95f560e01b81526001600160a01b03861690635a6c95f5906200091f9084908890889060040162000e44565b602060405180830381600087803b1580156200093a57600080fd5b505af11580156200094f573d6000803e3d6000fd5b505050506040513d601f19601f8201168201806040525081019062000975919062000c3d565b50604051631f1a022360e21b81526001600160a01b037f00000000000000000000000000000000000000000000000000000000000000001690637c68088c90620009c490849060040162000dbf565b600060405180830381600087803b158015620009df57600080fd5b505af1158015620009f4573d6000803e3d6000fd5b5050506001600160a01b03821660008181526020819052604090819020805460ff191660011790555190915033907fa1d5744e33f2d9cf5537c7ea77603378e4dbda6a0bebd8d33a3e613a4d401bb79062000a51908d9062000dbf565b60405180910390a350505050505050505050565b8362000a748185858562000a7b565b5050505050565b62000ad7846323b872dd60e01b85858560405160240162000a9f9392919062000e20565b60408051601f198184030181529190526020810180516001600160e01b03166001600160e01b03199093169290921790915262000add565b50505050565b600080836001600160a01b03168360405162000afa919062000d83565b6000604051808303816000865af19150503d806000811462000b39576040519150601f19603f3d011682016040523d82523d6000602084013e62000b3e565b606091505b50915091508162000b635760405162461bcd60e51b81526004016200015d9062000f22565b80511562000ad7578080602001905181019062000b81919062000c3d565b62000ad75760405162461bcd60e51b81526004016200015d9062000ed0565b6131c78062000fea83390190565b60008083601f84011262000bc0578182fd5b50813567ffffffffffffffff81111562000bd8578182fd5b60208301915083602082850101111562000bf157600080fd5b9250929050565b60006020828403121562000c0a578081fd5b813562000c178162000fc1565b9392505050565b60006020828403121562000c30578081fd5b815162000c178162000fc1565b60006020828403121562000c4f578081fd5b815162000c178162000fda565b60008060008060008060008060c0898b03121562000c78578384fd5b883562000c858162000fda565b9750602089013562000c978162000fc1565b9650604089013562000ca98162000fc1565b9550606089013567ffffffffffffffff8082111562000cc6578586fd5b62000cd48c838d0162000bae565b909750955060808b0135915062000ceb8262000fc1565b90935060a08a0135908082111562000d01578384fd5b5062000d108b828c0162000bae565b999c989b5096995094979396929594505050565b60006020828403121562000d36578081fd5b5051919050565b60008284528282602086013780602084860101526020601f19601f85011685010190509392505050565b6009815268434f4d4d554e49545960b81b602082015260400190565b60008251815b8181101562000da5576020818601810151858301520162000d89565b8181111562000db45782828501525b509190910192915050565b6001600160a01b0391909116815260200190565b6001600160a01b0392831681529116602082015260400190565b6001600160a01b039586168152938516602085015291841660408401529092166060820152901515608082015260a00190565b6001600160a01b039384168152919092166020820152604081019190915260600190565b6001600160a01b038416815260406020820181905260009062000e6b908301848662000d3d565b95945050505050565b901515815260200190565b9182526001600160a01b0316602082015260400190565b60006020825262000eac60208301848662000d3d565b949350505050565b602080825260029082015261554360f01b604082015260600190565b6020808252818101527f45524332303a206f7065726174696f6e20646964206e6f742073756363656564604082015260600190565b60208082526003908201526255544360e81b604082015260600190565b602080825260129082015271115490cc8c0e8818d85b1b0819985a5b195960721b604082015260600190565b6020808252600490820152631b99595960e21b604082015260600190565b60006020825262000f806020830162000d67565b92915050565b60006080825262000f9a6080830162000d67565b6001600160a01b039586166020840152938516604083015250921660609092019190915290565b6001600160a01b038116811462000fd757600080fd5b50565b801515811462000fd757600080fdfe60e0604052604051620031c7380380620031c7833981016040819052620000269162000212565b6200003a62000034620000cc565b620000d0565b620000458562000120565b600280546001600160a01b038088166001600160a01b0319928316811790935560018054918816919092161790556001600160601b0319606085811b821660805284901b1660c05281151560f81b60a0526040516000907f5d777218f34a12264a9fec685df1868059eeec6d632b17a1775a00089e57533a908290a350505050506200031a565b3390565b600080546001600160a01b038381166001600160a01b0319831681178455604051919092169283917f8be0079c531659141344cd1fd0a4f28419497f9722a3daafe3b4186f6b6457e09190a35050565b6200012a62000184565b6001600160a01b03811662000176576040517f08c379a00000000000000000000000000000000000000000000000000000000081526004016200016d9062000288565b60405180910390fd5b6200018181620000d0565b50565b6200018e620000cc565b6001600160a01b0316620001a1620001e6565b6001600160a01b031614620001e4576040517f08c379a00000000000000000000000000000000000000000000000000000000081526004016200016d90620002e5565b565b6000546001600160a01b031690565b80516001600160a01b03811681146200020d57600080fd5b919050565b600080600080600060a086880312156200022a578081fd5b6200023586620001f5565b94506200024560208701620001f5565b93506200025560408701620001f5565b92506200026560608701620001f5565b9150608086015180151581146200027a578182fd5b809150509295509295909350565b60208082526026908201527f4f776e61626c653a206e6577206f776e657220697320746865207a65726f206160408201527f6464726573730000000000000000000000000000000000000000000000000000606082015260800190565b6020808252818101527f4f776e61626c653a2063616c6c6572206973206e6f7420746865206f776e6572604082015260600190565b60805160601c60a05160f81c60c05160601c612e3c6200038b60003960008181610f92015281816115530152611bfb015260008181611012015281816114ed015261206c015260008181610fd40152818161104f0152818161116a0152818161209501526120c50152612e3c6000f3fe6080604052600436106101a05760003560e01c8063a1970fa8116100ec578063d26273831161008a578063f2fde38b11610064578063f2fde38b14610459578063f739a52914610479578063fa32ddd814610499578063fd0c94e3146104ae576101a7565b8063d262738314610404578063d864e74014610424578063ef9b720814610439576101a7565b8063a8c478ba116100c6578063a8c478ba14610391578063af3bd4f2146103b1578063bf16c3c2146103c4578063c10b3aee146103e4576101a7565b8063a1970fa814610331578063a1a89dbc14610351578063a2a00ed614610371576101a7565b80637942016c1161015957806396769e891161013357806396769e89146102c557806398f69e9a146102da57806399efcaec146103075780639af2e5ef1461031c576101a7565b80637942016c1461027b5780638ae63d6d1461028e5780638da5cb5b146102b0576101a7565b80630924004e146101ac578063207cbd95146101ce57806341744dd4146101ee57806354054370146102195780635f78debd14610239578063715018a614610266576101a7565b366101a757005b600080fd5b3480156101b857600080fd5b506101cc6101c7366004612499565b6104ce565b005b3480156101da57600080fd5b506101cc6101e936600461260a565b6106a0565b3480156101fa57600080fd5b50610203610902565b6040516102109190612c0f565b60405180910390f35b34801561022557600080fd5b506101cc610234366004612429565b610913565b34801561024557600080fd5b50610259610254366004612709565b61099d565b6040516102109190612795565b34801561027257600080fd5b506101cc6109c7565b6101cc610289366004612537565b6109db565b34801561029a57600080fd5b506102a3610f7d565b6040516102109190612c1e565b3480156102bc57600080fd5b50610259610f81565b3480156102d157600080fd5b50610259610f90565b3480156102e657600080fd5b506102fa6102f5366004612429565b610fb4565b6040516102109190612935565b34801561031357600080fd5b50610259610fd2565b34801561032857600080fd5b506101cc610ff6565b34801561033d57600080fd5b506101cc61034c366004612709565b61115d565b34801561035d57600080fd5b506102a361036c366004612429565b611190565b34801561037d57600080fd5b506102a361038c366004612461565b6111ab565b34801561039d57600080fd5b506102a36103ac366004612429565b6111d8565b6101cc6103bf3660046125c5565b611253565b3480156103d057600080fd5b506101cc6103df36600461250c565b611291565b3480156103f057600080fd5b506101cc6103ff3660046126d1565b6112ea565b34801561041057600080fd5b5061025961041f366004612709565b6113a1565b34801561043057600080fd5b506102596113b1565b34801561044557600080fd5b506101cc61045436600461250c565b6113c0565b34801561046557600080fd5b506101cc610474366004612429565b61144b565b34801561048557600080fd5b506101cc610494366004612572565b611482565b3480156104a557600080fd5b506102fa6114eb565b3480156104ba57600080fd5b506102a36104c9366004612461565b61150f565b6104d6611815565b6001600160a01b03831660009081526004602052604090205460ff166105175760405162461bcd60e51b815260040161050e90612bf2565b60405180910390fd5b600a5461052690600190612d15565b8251146105455760405162461bcd60e51b815260040161050e90612a27565b80518251146105665760405162461bcd60e51b815260040161050e906129c4565b60005b82518110156105eb576004600084838151811061059657634e487b7160e01b600052603260045260246000fd5b6020908102919091018101516001600160a01b031682528101919091526040016000205460ff166105d95760405162461bcd60e51b815260040161050e90612bba565b806105e381612d7a565b915050610569565b506105f581611854565b61062860405180604001604052806009815260200168434f4d4d554e49545960b81b815250610622610f81565b856118e1565b6001600160a01b0383166000908152600460209081526040909120805460ff19169055825161065d91600a919085019061226c565b5061066781611eff565b6040516001600160a01b038416907fd9ddc9dcfa963ac8b810758254dfcbdd868ce81331581e7cfe5686f80cc0ed2090600090a2505050565b6106a8611815565b8351600a546106b8906001612c9b565b146106d55760405162461bcd60e51b815260040161050e90612b0f565b600154604051633d200b4560e01b81526001600160a01b0390911690633d200b4590610705908690600401612795565b60206040518083038186803b15801561071d57600080fd5b505afa158015610731573d6000803e3d6000fd5b505050506040513d601f19601f8201168201806040525081019061075591906125a5565b6107715760405162461bcd60e51b815260040161050e90612ab6565b61077a84611854565b604051635c41e61560e11b81526000906001600160a01b0385169063b883cc2a906107af9030908a90889088906004016127cd565b602060405180830381600087803b1580156107c957600080fd5b505af11580156107dd573d6000803e3d6000fd5b505050506040513d601f19601f820116820180604052508101906108019190612445565b905061083660405180604001604052806009815260200168434f4d4d554e49545960b81b815250610830610f81565b836118e1565b6001600160a01b03811660008181526004602090815260408083208054600160ff1991821681179092556008845282852080549091168217905560059092528220829055600a80548083019091557fc65a7bb8d6351c1cf70c95a316cc6a92839c986682d98bc35f958f4883f9d2a80180546001600160a01b03199081168517909155600b805492830181559092527f0175b7a638427703f0dbe7bb9bbf987a2551717b34e79f33b5b1008d1fa01db901805490911690911790556108fa85611eff565b505050505050565b600154600160a01b900461ffff1681565b61091b611815565b6001600160a01b0381166109415760405162461bcd60e51b815260040161050e90612b4a565b6002546040516001600160a01b038084169216907f5d777218f34a12264a9fec685df1868059eeec6d632b17a1775a00089e57533a90600090a3600280546001600160a01b0319166001600160a01b0392909216919091179055565b600a81815481106109ad57600080fd5b6000918252602090912001546001600160a01b0316905081565b6109cf611815565b6109d96000611fe3565b565b600c546109e757610f7a565b6000815111610a085760405162461bcd60e51b815260040161050e90612a45565b600c54610a13610f7d565b1115610a6857610a68604051806040016040528060048152602001632aa9a2a960e11b8152503383600081518110610a5b57634e487b7160e01b600052603260045260246000fd5b60200260200101516118e1565b6000806000600160009054906101000a90046001600160a01b03166001600160a01b031663f2803f036040518163ffffffff1660e01b815260040160206040518083038186803b158015610abb57600080fd5b505afa158015610acf573d6000803e3d6000fd5b505050506040513d601f19601f82011682018060405250810190610af39190612445565b905060005b84518160ff161015610f18576000858260ff1681518110610b2957634e487b7160e01b600052603260045260246000fd5b6020908102919091018101516001600160a01b0381166000908152600890925260409091205490915060ff16610b715760405162461bcd60e51b815260040161050e90612bd6565b6040516394465b2160e01b81526000906001600160a01b038316906394465b2190610ba0903390600401612795565b60206040518083038186803b158015610bb857600080fd5b505afa158015610bcc573d6000803e3d6000fd5b505050506040513d601f19601f82011682018060405250810190610bf09190612721565b6001600160a01b0383166000818152600760209081526040808320338452825280832054938352600590915281205492935091610c4a9190610c449064e8d4a5100090610c3e908790612033565b90612046565b90612052565b905060006001600160a01b03861615801590610cdf5750604051632b6d7e0f60e21b81526001600160a01b0387169063adb5f83c90610c8d908790600401612795565b602060405180830381600087803b158015610ca757600080fd5b505af1158015610cbb573d6000803e3d6000fd5b505050506040513d601f19601f82011682018060405250810190610cdf91906125a5565b15610d88576000866001600160a01b031663328686f66040518163ffffffff1660e01b815260040160206040518083038186803b158015610d1f57600080fd5b505afa158015610d33573d6000803e3d6000fd5b505050506040513d601f19601f82011682018060405250810190610d5791906126ed565b905061ffff811615610d8657610d77612710610c3e8561ffff8516612033565b9150610d838389612052565b92505b505b8015610e065760405163330ff7b560e21b81526001600160a01b0387169063cc3fded490610dbe903090889086906004016127a9565b600060405180830381600087803b158015610dd857600080fd5b505af1158015610dec573d6000803e3d6000fd5b50505050610e03818861205e90919063ffffffff16565b96505b8115610e5f576001600160a01b0384166000908152600660209081526040808320338452909152902054610e3a908361205e565b6001600160a01b03851660009081526006602090815260408083203384529091529020555b6001600160a01b0384166000908152600660209081526040808320338452909152902054610e8e90899061205e565b6001600160a01b038516600090815260056020526040902054909850610ec09064e8d4a5100090610c3e908690612033565b6001600160a01b0390941660008181526007602090815260408083203380855290835281842098909855928252600681528282209682529590955284209390935550829150610f10905081612d95565b915050610af8565b508115610f2957610f29818361206a565b610f33338461206a565b336001600160a01b03167f6ef8cf0d66677b36d11ee4e51dbd733fcd95070b8c2eb524fb96952f26115cb28585604051610f6e92919061285e565b60405180910390a25050505b50565b4390565b6000546001600160a01b031690565b7f000000000000000000000000000000000000000000000000000000000000000081565b6001600160a01b031660009081526004602052604090205460ff1690565b7f000000000000000000000000000000000000000000000000000000000000000090565b610ffe611815565b60006003541161100d57600080fd5b6003547f00000000000000000000000000000000000000000000000000000000000000006110ed576040516370a0823160e01b81526000906001600160a01b037f000000000000000000000000000000000000000000000000000000000000000016906370a0823190611084903090600401612795565b60206040518083038186803b15801561109c57600080fd5b505afa1580156110b0573d6000803e3d6000fd5b505050506040513d601f19601f820116820180604052508101906110d49190612721565b905060035481106110e7576003546110e9565b805b9150505b600254611103906001600160a01b03168261206a565b6003546111109082612052565b6003556002546040516001600160a01b03909116907f86a5cc8fe9af9ae68fb50f62885307a7755a30cbd290131644377f0bd94a718190611152908490612c1e565b60405180910390a250565b611165611815565b610f7a7f000000000000000000000000000000000000000000000000000000000000000033836120e7565b6001600160a01b031660009081526005602052604090205490565b6001600160a01b038083166000908152600760209081526040808320938516835292905220545b92915050565b600080805b600b5461ffff8216101561124c57611238611231600b8361ffff168154811061121657634e487b7160e01b600052603260045260246000fd5b6000918252602090912001546001600160a01b03168661150f565b839061205e565b91508061124481612d58565b9150506111dd565b5092915050565b3360009081526008602052604090205460ff166112825760405162461bcd60e51b815260040161050e90612b2c565b61128d8282336118e1565b5050565b3360009081526008602052604090205460ff166112c05760405162461bcd60e51b815260040161050e90612b2c565b3360009081526007602090815260408083206001600160a01b039590951683529390529190912055565b6112f2611815565b61271061ffff821611156113185760405162461bcd60e51b815260040161050e90612b9b565b61134c60405180604001604052806009815260200168434f4d4d554e49545960b81b815250611345610f81565b60006118e1565b6001805461ffff60a01b1916600160a01b61ffff8416021790556040517fb5ea2431f5202daeb0439a80df086a35ec0abfd105e20f5564a824062596c09e90611396908390612c0f565b60405180910390a150565b600b81815481106109ad57600080fd5b6001546001600160a01b031681565b3360009081526008602052604090205460ff166113ef5760405162461bcd60e51b815260040161050e90612b2c565b3360009081526006602090815260408083206001600160a01b038616845290915290205461141d908261205e565b3360009081526006602090815260408083206001600160a01b03969096168352949052929092209190915550565b611453611815565b6001600160a01b0381166114795760405162461bcd60e51b815260040161050e906129e1565b610f7a81611fe3565b61148a611815565b8051600a54146114ac5760405162461bcd60e51b815260040161050e90612af3565b6114b581611854565b6114e260405180604001604052806009815260200168434f4d4d554e49545960b81b815250611345610f81565b610f7a81611eff565b7f000000000000000000000000000000000000000000000000000000000000000081565b6000600c5460001415611524575060006111d2565b600061160c612710610c3e600160149054906101000a900461ffff1661271061154d9190612cf2565b61ffff167f00000000000000000000000000000000000000000000000000000000000000006001600160a01b0316632c32c36030600c5460016115909190612c9b565b611598610f7d565b6040518463ffffffff1660e01b81526004016115b69392919061283d565b60206040518083038186803b1580156115ce57600080fd5b505afa1580156115e2573d6000803e3d6000fd5b505050506040513d601f19601f820116820180604052508101906116069190612721565b90612033565b90506000846001600160a01b03166394465b21856040518263ffffffff1660e01b815260040161163c9190612795565b60206040518083038186803b15801561165457600080fd5b505afa158015611668573d6000803e3d6000fd5b505050506040513d601f19601f8201168201806040525081019061168c9190612721565b9050806116c1575050506001600160a01b038083166000908152600660209081526040808320938516835292905220546111d2565b6000856001600160a01b03166338adb6f06040518163ffffffff1660e01b815260040160206040518083038186803b1580156116fc57600080fd5b505afa158015611710573d6000803e3d6000fd5b505050506040513d601f19601f820116820180604052508101906117349190612721565b6001600160a01b0387166000908152600960205260408120549192509061179390611774908490610c3e906305f5e10090611606908a9061ffff16612033565b6001600160a01b0389166000908152600560205260409020549061205e565b6001600160a01b038089166000908152600760209081526040808320938b16835292905290812054919250906117d690610c4464e8d4a51000610c3e8887612033565b6001600160a01b03808a166000908152600660209081526040808320938c1683529290522054909150611809908261205e565b98975050505050505050565b61181d6120f9565b6001600160a01b031661182e610f81565b6001600160a01b0316146109d95760405162461bcd60e51b815260040161050e90612b66565b6000805b82518160ff1610156118ae57828160ff168151811061188757634e487b7160e01b600052603260045260246000fd5b60200260200101518261189a9190612c75565b9150806118a681612d95565b915050611858565b5061ffff811661271014806118c5575061ffff8116155b61128d5760405162461bcd60e51b815260040161050e90612ad3565b600154604051634ca1a91960e01b81526001600160a01b0390911690634ca1a91990611911908590600401612795565b60206040518083038186803b15801561192957600080fd5b505afa15801561193d573d6000803e3d6000fd5b505050506040513d601f19601f8201168201806040525081019061196191906125a5565b1580156119ec5750600154604051631da3ddcd60e31b81526000916001600160a01b03169063ed1eee689061199a908790600401612940565b60206040518083038186803b1580156119b257600080fd5b505afa1580156119c6573d6000803e3d6000fd5b505050506040513d601f19601f820116820180604052508101906119ea9190612721565b115b15611bcb5760015460408051631d8cf42560e11b815290516000926001600160a01b031691633b19e84a916004808301926020929190829003018186803b158015611a3657600080fd5b505afa158015611a4a573d6000803e3d6000fd5b505050506040513d601f19601f82011682018060405250810190611a6e9190612445565b600154604051631da3ddcd60e31b81526001600160a01b03928316929091169063ed1eee6890611aa2908890600401612940565b60206040518083038186803b158015611aba57600080fd5b505afa158015611ace573d6000803e3d6000fd5b505050506040513d601f19601f82011682018060405250810190611af29190612721565b604051611afe90612792565b60006040518083038185875af1925050503d8060008114611b3b576040519150601f19603f3d011682016040523d82523d6000602084013e611b40565b606091505b5050905080611b615760405162461bcd60e51b815260040161050e90612a8f565b60015460405163038815f360e41b81526001600160a01b03909116906338815f3090611b97908790309087908990600401612953565b600060405180830381600087803b158015611bb157600080fd5b505af1158015611bc5573d6000803e3d6000fd5b50505050505b600080611bd6610f7d565b9050600c5460001415611be957600c8190555b600c548111611bf9575050611efa565b7f00000000000000000000000000000000000000000000000000000000000000006001600160a01b0316632c32c36030600c546001611c389190612c9b565b846040518463ffffffff1660e01b8152600401611c579392919061283d565b60206040518083038186803b158015611c6f57600080fd5b505afa158015611c83573d6000803e3d6000fd5b505050506040513d601f19601f82011682018060405250810190611ca79190612721565b91508115611d6a57600154600160a01b900461ffff1615611d6a57600154600090611ce69061271090610c3e908690600160a01b900461ffff16612033565b600354909150611cf6908261205e565b600355600154611d259061271090610c3e90611d1e908390600160a01b900461ffff16612052565b8690612033565b9250846001600160a01b03167f2f4ae87a584f00dc35b043dd1c5ac839c1f41cd3a66e834d4e13faa6251634e682604051611d609190612c1e565b60405180910390a2505b60005b600a5461ffff82161015611ef4576000600a8261ffff1681548110611da257634e487b7160e01b600052603260045260246000fd5b60009182526020808320909101546040805163038adb6f60e41b815290516001600160a01b03909216945084926338adb6f092600480840193829003018186803b158015611def57600080fd5b505afa158015611e03573d6000803e3d6000fd5b505050506040513d601f19601f82011682018060405250810190611e279190612721565b9050801580611e5057506001600160a01b03821660009081526009602052604090205461ffff16155b15611e5c575050611ee2565b6001600160a01b038216600090815260096020526040812054611e949061271090610c3e9061ffff166116068a64e8d4a51000612033565b9050611ec2611ea38284612046565b6001600160a01b0385166000908152600560205260409020549061205e565b6001600160a01b0390931660009081526005602052604090209290925550505b80611eec81612d58565b915050611d6d565b50600c55505b505050565b60005b600a5461ffff82161015611fb057818161ffff1681518110611f3457634e487b7160e01b600052603260045260246000fd5b602002602001015160096000600a8461ffff1681548110611f6557634e487b7160e01b600052603260045260246000fd5b6000918252602080832091909101546001600160a01b031683528201929092526040019020805461ffff191661ffff9290921691909117905580611fa881612d58565b915050611f02565b507f5b904beeb70c84b12d4105e0582a752c5a2705717790e1a648a27ba8622b9786600a826040516113969291906128af565b600080546001600160a01b038381166001600160a01b0319831681178455604051919092169283917f8be0079c531659141344cd1fd0a4f28419497f9722a3daafe3b4186f6b6457e09190a35050565b600061203f8284612cd3565b9392505050565b600061203f8284612cb3565b600061203f8284612d15565b600061203f8284612c9b565b7f0000000000000000000000000000000000000000000000000000000000000000156120c0576120bb7f000000000000000000000000000000000000000000000000000000000000000083836120fd565b61128d565b61128d7f000000000000000000000000000000000000000000000000000000000000000083835b826120f3818484612165565b50505050565b3390565b6040516340c10f1960e01b815283906001600160a01b038216906340c10f199061212d9086908690600401612824565b600060405180830381600087803b15801561214757600080fd5b505af115801561215b573d6000803e3d6000fd5b5050505050505050565b611efa8363a9059cbb60e01b8484604051602401612184929190612824565b60408051601f198184030181529190526020810180516001600160e01b03166001600160e01b031990931692909217909152600080836001600160a01b0316836040516121d19190612776565b6000604051808303816000865af19150503d806000811461220e576040519150601f19603f3d011682016040523d82523d6000602084013e612213565b606091505b5091509150816122355760405162461bcd60e51b815260040161050e90612a63565b8051156120f3578080602001905181019061225091906125a5565b6120f35760405162461bcd60e51b815260040161050e9061298f565b8280548282559060005260206000209081019282156122c1579160200282015b828111156122c157825182546001600160a01b0319166001600160a01b0390911617825560209092019160019091019061228c565b506122cd9291506122d1565b5090565b5b808211156122cd57600081556001016122d2565b600082601f8301126122f6578081fd5b8135602061230b61230683612c51565b612c27565b8281528181019085830183850287018401881015612327578586fd5b855b8581101561234e57813561233c81612de1565b84529284019290840190600101612329565b5090979650505050505050565b600082601f83011261236b578081fd5b8135602061237b61230683612c51565b8281528181019085830183850287018401881015612397578586fd5b855b8581101561234e5781356123ac81612df6565b84529284019290840190600101612399565b600082601f8301126123ce578081fd5b813567ffffffffffffffff8111156123e8576123e8612dcb565b6123fb601f8201601f1916602001612c27565b81815284602083860101111561240f578283fd5b816020850160208301379081016020019190915292915050565b60006020828403121561243a578081fd5b813561203f81612de1565b600060208284031215612456578081fd5b815161203f81612de1565b60008060408385031215612473578081fd5b823561247e81612de1565b9150602083013561248e81612de1565b809150509250929050565b6000806000606084860312156124ad578081fd5b83356124b881612de1565b9250602084013567ffffffffffffffff808211156124d4578283fd5b6124e0878388016122e6565b935060408601359150808211156124f5578283fd5b506125028682870161235b565b9150509250925092565b6000806040838503121561251e578182fd5b823561252981612de1565b946020939093013593505050565b600060208284031215612548578081fd5b813567ffffffffffffffff81111561255e578182fd5b61256a848285016122e6565b949350505050565b600060208284031215612583578081fd5b813567ffffffffffffffff811115612599578182fd5b61256a8482850161235b565b6000602082840312156125b6578081fd5b8151801515811461203f578182fd5b600080604083850312156125d7578182fd5b823567ffffffffffffffff8111156125ed578283fd5b6125f9858286016123be565b925050602083013561248e81612de1565b600080600080600060808688031215612621578081fd5b853567ffffffffffffffff80821115612638578283fd5b61264489838a016123be565b96506020880135915080821115612659578283fd5b61266589838a0161235b565b95506040880135915061267782612de1565b9093506060870135908082111561268c578283fd5b818801915088601f83011261269f578283fd5b8135818111156126ad578384fd5b8960208285010111156126be578384fd5b9699959850939650602001949392505050565b6000602082840312156126e2578081fd5b813561203f81612df6565b6000602082840312156126fe578081fd5b815161203f81612df6565b60006020828403121561271a578081fd5b5035919050565b600060208284031215612732578081fd5b5051919050565b6001600160a01b0316815260200190565b60008151808452612762816020860160208601612d2c565b601f01601f19169290920160200192915050565b60008251612788818460208701612d2c565b9190910192915050565b90565b6001600160a01b0391909116815260200190565b6001600160a01b039384168152919092166020820152604081019190915260600190565b6001600160a01b03851681526060602082018190526000906127f19083018661274a565b82810360408401528381528385602083013781602085830101526020601f19601f86011682010191505095945050505050565b6001600160a01b03929092168252602082015260400190565b6001600160a01b039390931683526020830191909152604082015260600190565b604080825283519082018190526000906020906060840190828701845b828110156128a05781516001600160a01b03168452928401929084019060010161287b565b50505092019290925292915050565b6000604082016040835280855480835260608501915086845260209250828420845b828110156128fd5781546128ef9085906001600160a01b0316612739565b9350600191820191016128d1565b50505083810382850152845180825285830191830190845b8181101561234e57835161ffff1683529284019291840191600101612915565b901515815260200190565b60006020825261203f602083018461274a565b600060808252612966608083018761274a565b6001600160a01b0395861660208401529385166040830152509216606090920191909152919050565b6020808252818101527f45524332303a206f7065726174696f6e20646964206e6f742073756363656564604082015260600190565b6020808252600390820152624c444d60e81b604082015260600190565b60208082526026908201527f4f776e61626c653a206e6577206f776e657220697320746865207a65726f206160408201526564647265737360d01b606082015260800190565b60208082526004908201526315d0541360e21b604082015260600190565b6020808252600490820152634d484f3160e01b604082015260600190565b602080825260129082015271115490cc8c0e8818d85b1b0819985a5b195960721b604082015260600190565b6020808252600d908201526c18dbdcdd081999594819985a5b609a1b604082015260600190565b6020808252600390820152622aa82360e91b604082015260600190565b6020808252600690820152655253213d317760d01b604082015260600190565b60208082526002908201526115d360f21b604082015260600190565b60208082526003908201526257504360e81b604082015260600190565b602080825260049082015263504e495760e01b604082015260600190565b602080825260029082015261494160f01b604082015260600190565b6020808252818101527f4f776e61626c653a2063616c6c6572206973206e6f7420746865206f776e6572604082015260600190565b60208082526005908201526450523e317760d81b604082015260600190565b602080825260029082015261057560f41b604082015260600190565b602080825260029082015261049560f41b604082015260600190565b60208082526003908201526250494160e81b604082015260600190565b61ffff91909116815260200190565b90815260200190565b60405181810167ffffffffffffffff81118282101715612c4957612c49612dcb565b604052919050565b600067ffffffffffffffff821115612c6b57612c6b612dcb565b5060209081020190565b600061ffff808316818516808303821115612c9257612c92612db5565b01949350505050565b60008219821115612cae57612cae612db5565b500190565b600082612cce57634e487b7160e01b81526012600452602481fd5b500490565b6000816000190483118215151615612ced57612ced612db5565b500290565b600061ffff83811690831681811015612d0d57612d0d612db5565b039392505050565b600082821015612d2757612d27612db5565b500390565b60005b83811015612d47578181015183820152602001612d2f565b838111156120f35750506000910152565b600061ffff80831681811415612d7057612d70612db5565b6001019392505050565b6000600019821415612d8e57612d8e612db5565b5060010190565b600060ff821660ff811415612dac57612dac612db5565b60010192915050565b634e487b7160e01b600052601160045260246000fd5b634e487b7160e01b600052604160045260246000fd5b6001600160a01b0381168114610f7a57600080fd5b61ffff81168114610f7a57600080fdfea26469706673582212209951fadf6dbe70739f10f0dcfc5f8254a4fdfc4f035091f654c172344df5776064736f6c63430008000033a2646970667358221220c669da46c0a80cd63dc18b514c98368de9bfe38babc89b68489975505c5745ba64736f6c63430008000033",
  "immutableReferences": {
    "2014": [
      {
        "length": 32,
        "start": 179
      },
      {
        "length": 32,
        "start": 405
      },
      {
        "length": 32,
        "start": 717
      },
      {
        "length": 32,
        "start": 1063
      },
      {
        "length": 32,
        "start": 1230
      },
      {
        "length": 32,
        "start": 1369
      },
      {
        "length": 32,
        "start": 1686
      },
      {
        "length": 32,
        "start": 1836
      },
      {
        "length": 32,
        "start": 2006
      },
      {
        "length": 32,
        "start": 2172
      },
      {
        "length": 32,
        "start": 2445
      }
    ]
  },
  "source": "// SPDX-License-Identifier: MIT\n\npragma solidity 0.8.0;\npragma experimental ABIEncoderV2;\n\nimport './Community.sol';\nimport './interfaces/ICalculator.sol';\nimport './interfaces/ICommittee.sol';\nimport \"./interfaces/ICommunityTokenFactory.sol\";\nimport \"./ERC20Helper.sol\";\nimport \"./community-token/MintableERC20.sol\";\n\n/**\n * @dev Factory contract to create an StakingTemplate entity\n *\n * This is the entry contract that user start to create their own staking economy.\n */\ncontract CommunityFactory is ERC20Helper {\n\n    address immutable committee;\n    mapping (address => bool) public createdCommunity;\n\n    event CommunityCreated(address indexed creator, address indexed community, address communityToken);\n\n    constructor(address _committee) {\n        require(_committee != address(0), \"Invalid committee\");\n        committee = _committee;\n    }\n\n    // If communityToken == address(0), we would create a mintable token for cummunity by token factory,\n    // thus caller should give arguments bytes\n    function createCommunity (\n        bool isMintable,\n        address communityToken,\n        address communityTokenFactory,\n        bytes calldata tokenMeta,\n        address rewardCalculator,\n        bytes calldata distributionPolicy\n    ) external {\n        require(ICommittee(committee).verifyContract(rewardCalculator), 'UC'); // Unsupported calculator\n\n        // we would create a new mintable token for community\n        bool needGrantRole = false;\n        if (communityToken == address(0)){\n            needGrantRole = true;\n            isMintable = true;\n            require(ICommittee(committee).verifyContract(communityTokenFactory), 'UTC'); // Unsupported token factory\n            communityToken = ICommunityTokenFactory(communityTokenFactory).createCommunityToken(tokenMeta);\n        }\n\n        Community community = new Community(msg.sender, committee, communityToken, rewardCalculator, isMintable);\n       \n        if (needGrantRole){\n            // Token deployed by walnut need to grant mint role from community factory to sepecify community.\n            MintableERC20(communityToken).grantRole(MintableERC20(communityToken).MINTER_ROLE(), address(community));\n            // Token provided by user need user to grant mint role to community\n            // if user set isMintable to true,\n            // this action will be executed after this method completed.\n        }\n\n        if(ICommittee(committee).getFee('COMMUNITY') > 0){\n            require(ERC20(ICommittee(committee).getNut()).allowance(msg.sender, address(this)) >= ICommittee(committee).getFee('COMMUNITY'), \"need\");\n            lockERC20(ICommittee(committee).getNut(), msg.sender, ICommittee(committee).getTreasury(), ICommittee(committee).getFee('COMMUNITY'));\n            ICommittee(committee).updateLedger('COMMUNITY', address(community), address(0), msg.sender);\n        }\n\n        // set staking feast rewarad distribution distributionPolicy\n        ICalculator(rewardCalculator).setDistributionEra(address(community), distributionPolicy);\n\n        // add community to fee payment whitelist\n        ICommittee(committee).setFeePayer(address(community));\n\n        createdCommunity[address(community)] = true;\n\n        emit CommunityCreated(msg.sender, address(community), communityToken);\n    }\n}\n",
  "sourcePath": "/Users/wangxi/work/Walnut-V2/nutbox-contract/contracts/CommunityFactory.sol",
  "compiler": {
    "name": "solc",
    "version": "0.8.0+commit.c7dfd78e.Emscripten.clang"
  },
  "schemaVersion": "3.3.4",
  "updatedAt": "2024-06-25T04:23:12.190Z",
  "devdoc": {
    "details": "Factory contract to create an StakingTemplate entity This is the entry contract that user start to create their own staking economy.",
    "kind": "dev",
    "methods": {},
    "version": 1
  },
  "userdoc": {
    "kind": "user",
    "methods": {},
    "version": 1
  }
}