{
  "contractName": "Community",
  "abi": [
    {
      "inputs": [
        {
          "internalType": "address",
          "name": "_admin",
          "type": "address"
        },
        {
          "internalType": "address",
          "name": "_committee",
          "type": "address"
        },
        {
          "internalType": "address",
          "name": "_communityToken",
          "type": "address"
        },
        {
          "internalType": "address",
          "name": "_rewardCalculator",
          "type": "address"
        },
        {
          "internalType": "bool",
          "name": "_isMintableCommunityToken",
          "type": "bool"
        }
      ],
      "stateMutability": "nonpayable",
      "type": "constructor"
    },
    {
      "anonymous": false,
      "inputs": [
        {
          "indexed": true,
          "internalType": "address",
          "name": "pool",
          "type": "address"
        }
      ],
      "name": "AdminClosePool",
      "type": "event"
    },
    {
      "anonymous": false,
      "inputs": [
        {
          "indexed": false,
          "internalType": "uint16",
          "name": "ratio",
          "type": "uint16"
        }
      ],
      "name": "AdminSetFeeRatio",
      "type": "event"
    },
    {
      "anonymous": false,
      "inputs": [
        {
          "indexed": false,
          "internalType": "address[]",
          "name": "pools",
          "type": "address[]"
        },
        {
          "indexed": false,
          "internalType": "uint16[]",
          "name": "ratios",
          "type": "uint16[]"
        }
      ],
      "name": "AdminSetPoolRatio",
      "type": "event"
    },
    {
      "anonymous": false,
      "inputs": [
        {
          "indexed": true,
          "internalType": "address",
          "name": "oldDev",
          "type": "address"
        },
        {
          "indexed": true,
          "internalType": "address",
          "name": "newDev",
          "type": "address"
        }
      ],
      "name": "DevChanged",
      "type": "event"
    },
    {
      "anonymous": false,
      "inputs": [
        {
          "indexed": true,
          "internalType": "address",
          "name": "previousOwner",
          "type": "address"
        },
        {
          "indexed": true,
          "internalType": "address",
          "name": "newOwner",
          "type": "address"
        }
      ],
      "name": "OwnershipTransferred",
      "type": "event"
    },
    {
      "anonymous": false,
      "inputs": [
        {
          "indexed": true,
          "internalType": "address",
          "name": "who",
          "type": "address"
        },
        {
          "indexed": false,
          "internalType": "uint256",
          "name": "amount",
          "type": "uint256"
        }
      ],
      "name": "PoolUpdated",
      "type": "event"
    },
    {
      "anonymous": false,
      "inputs": [
        {
          "indexed": true,
          "internalType": "address",
          "name": "devFund",
          "type": "address"
        },
        {
          "indexed": false,
          "internalType": "uint256",
          "name": "amount",
          "type": "uint256"
        }
      ],
      "name": "RevenueWithdrawn",
      "type": "event"
    },
    {
      "anonymous": false,
      "inputs": [
        {
          "indexed": false,
          "internalType": "address[]",
          "name": "pool",
          "type": "address[]"
        },
        {
          "indexed": true,
          "internalType": "address",
          "name": "who",
          "type": "address"
        },
        {
          "indexed": false,
          "internalType": "uint256",
          "name": "amount",
          "type": "uint256"
        }
      ],
      "name": "WithdrawRewards",
      "type": "event"
    },
    {
      "inputs": [
        {
          "internalType": "uint256",
          "name": "",
          "type": "uint256"
        }
      ],
      "name": "activedPools",
      "outputs": [
        {
          "internalType": "address",
          "name": "",
          "type": "address"
        }
      ],
      "stateMutability": "view",
      "type": "function"
    },
    {
      "inputs": [
        {
          "internalType": "uint256",
          "name": "",
          "type": "uint256"
        }
      ],
      "name": "createdPools",
      "outputs": [
        {
          "internalType": "address",
          "name": "",
          "type": "address"
        }
      ],
      "stateMutability": "view",
      "type": "function"
    },
    {
      "inputs": [],
      "name": "feeRatio",
      "outputs": [
        {
          "internalType": "uint16",
          "name": "",
          "type": "uint16"
        }
      ],
      "stateMutability": "view",
      "type": "function"
    },
    {
      "inputs": [],
      "name": "isMintableCommunityToken",
      "outputs": [
        {
          "internalType": "bool",
          "name": "",
          "type": "bool"
        }
      ],
      "stateMutability": "view",
      "type": "function"
    },
    {
      "inputs": [],
      "name": "owner",
      "outputs": [
        {
          "internalType": "address",
          "name": "",
          "type": "address"
        }
      ],
      "stateMutability": "view",
      "type": "function"
    },
    {
      "inputs": [],
      "name": "renounceOwnership",
      "outputs": [],
      "stateMutability": "nonpayable",
      "type": "function"
    },
    {
      "inputs": [],
      "name": "rewardCalculator",
      "outputs": [
        {
          "internalType": "address",
          "name": "",
          "type": "address"
        }
      ],
      "stateMutability": "view",
      "type": "function"
    },
    {
      "inputs": [
        {
          "internalType": "address",
          "name": "newOwner",
          "type": "address"
        }
      ],
      "name": "transferOwnership",
      "outputs": [],
      "stateMutability": "nonpayable",
      "type": "function"
    },
    {
      "inputs": [
        {
          "internalType": "address",
          "name": "_dev",
          "type": "address"
        }
      ],
      "name": "adminSetDev",
      "outputs": [],
      "stateMutability": "nonpayable",
      "type": "function"
    },
    {
      "inputs": [],
      "name": "adminWithdrawRevenue",
      "outputs": [],
      "stateMutability": "nonpayable",
      "type": "function"
    },
    {
      "inputs": [
        {
          "internalType": "uint16",
          "name": "_ratio",
          "type": "uint16"
        }
      ],
      "name": "adminSetFeeRatio",
      "outputs": [],
      "stateMutability": "nonpayable",
      "type": "function"
    },
    {
      "inputs": [
        {
          "internalType": "uint256",
          "name": "amount",
          "type": "uint256"
        }
      ],
      "name": "adminWithdrawReward",
      "outputs": [],
      "stateMutability": "nonpayable",
      "type": "function"
    },
    {
      "inputs": [
        {
          "internalType": "string",
          "name": "poolName",
          "type": "string"
        },
        {
          "internalType": "uint16[]",
          "name": "ratios",
          "type": "uint16[]"
        },
        {
          "internalType": "address",
          "name": "poolFactory",
          "type": "address"
        },
        {
          "internalType": "bytes",
          "name": "meta",
          "type": "bytes"
        }
      ],
      "name": "adminAddPool",
      "outputs": [],
      "stateMutability": "nonpayable",
      "type": "function"
    },
    {
      "inputs": [
        {
          "internalType": "address",
          "name": "poolAddress",
          "type": "address"
        },
        {
          "internalType": "address[]",
          "name": "_activedPools",
          "type": "address[]"
        },
        {
          "internalType": "uint16[]",
          "name": "ratios",
          "type": "uint16[]"
        }
      ],
      "name": "adminClosePool",
      "outputs": [],
      "stateMutability": "nonpayable",
      "type": "function"
    },
    {
      "inputs": [
        {
          "internalType": "uint16[]",
          "name": "ratios",
          "type": "uint16[]"
        }
      ],
      "name": "adminSetPoolRatios",
      "outputs": [],
      "stateMutability": "nonpayable",
      "type": "function"
    },
    {
      "inputs": [
        {
          "internalType": "address[]",
          "name": "poolAddresses",
          "type": "address[]"
        }
      ],
      "name": "withdrawPoolsRewards",
      "outputs": [],
      "stateMutability": "nonpayable",
      "type": "function"
    },
    {
      "inputs": [
        {
          "internalType": "address",
          "name": "poolAddress",
          "type": "address"
        },
        {
          "internalType": "address",
          "name": "user",
          "type": "address"
        }
      ],
      "name": "getPoolPendingRewards",
      "outputs": [
        {
          "internalType": "uint256",
          "name": "",
          "type": "uint256"
        }
      ],
      "stateMutability": "view",
      "type": "function"
    },
    {
      "inputs": [
        {
          "internalType": "address",
          "name": "user",
          "type": "address"
        }
      ],
      "name": "getTotalPendingRewards",
      "outputs": [
        {
          "internalType": "uint256",
          "name": "",
          "type": "uint256"
        }
      ],
      "stateMutability": "view",
      "type": "function"
    },
    {
      "inputs": [
        {
          "internalType": "address",
          "name": "pool",
          "type": "address"
        }
      ],
      "name": "poolActived",
      "outputs": [
        {
          "internalType": "bool",
          "name": "",
          "type": "bool"
        }
      ],
      "stateMutability": "view",
      "type": "function"
    },
    {
      "inputs": [
        {
          "internalType": "address",
          "name": "pool",
          "type": "address"
        }
      ],
      "name": "getShareAcc",
      "outputs": [
        {
          "internalType": "uint256",
          "name": "",
          "type": "uint256"
        }
      ],
      "stateMutability": "view",
      "type": "function"
    },
    {
      "inputs": [],
      "name": "getCommunityToken",
      "outputs": [
        {
          "internalType": "address",
          "name": "",
          "type": "address"
        }
      ],
      "stateMutability": "view",
      "type": "function"
    },
    {
      "inputs": [
        {
          "internalType": "address",
          "name": "pool",
          "type": "address"
        },
        {
          "internalType": "address",
          "name": "user",
          "type": "address"
        }
      ],
      "name": "getUserDebt",
      "outputs": [
        {
          "internalType": "uint256",
          "name": "",
          "type": "uint256"
        }
      ],
      "stateMutability": "view",
      "type": "function"
    },
    {
      "inputs": [
        {
          "internalType": "address",
          "name": "user",
          "type": "address"
        },
        {
          "internalType": "uint256",
          "name": "amount",
          "type": "uint256"
        }
      ],
      "name": "appendUserReward",
      "outputs": [],
      "stateMutability": "nonpayable",
      "type": "function"
    },
    {
      "inputs": [
        {
          "internalType": "address",
          "name": "user",
          "type": "address"
        },
        {
          "internalType": "uint256",
          "name": "debt",
          "type": "uint256"
        }
      ],
      "name": "setUserDebt",
      "outputs": [],
      "stateMutability": "nonpayable",
      "type": "function"
    },
    {
      "inputs": [
        {
          "internalType": "string",
          "name": "feeType",
          "type": "string"
        },
        {
          "internalType": "address",
          "name": "feePayer",
          "type": "address"
        }
      ],
      "name": "updatePools",
      "outputs": [],
      "stateMutability": "nonpayable",
      "type": "function"
    },
    {
      "inputs": [],
      "name": "blockNum",
      "outputs": [
        {
          "internalType": "uint256",
          "name": "",
          "type": "uint256"
        }
      ],
      "stateMutability": "view",
      "type": "function"
    }
  ],
  "bytecode": "0x6101006040523480156200001257600080fd5b50604051620031753803806200317583398101604081905262000035916200021a565b6200004962000043620000d4565b620000d8565b620000548562000128565b600180546001600160a01b0387166001600160a01b031990911681179091556001600160601b0319606086811b821660805285811b821660a05284901b1660e05281151560f81b60c0526040516000907f5d777218f34a12264a9fec685df1868059eeec6d632b17a1775a00089e57533a908290a3505050505062000322565b3390565b600080546001600160a01b038381166001600160a01b0319831681178455604051919092169283917f8be0079c531659141344cd1fd0a4f28419497f9722a3daafe3b4186f6b6457e09190a35050565b620001326200018c565b6001600160a01b0381166200017e576040517f08c379a0000000000000000000000000000000000000000000000000000000008152600401620001759062000290565b60405180910390fd5b6200018981620000d8565b50565b62000196620000d4565b6001600160a01b0316620001a9620001ee565b6001600160a01b031614620001ec576040517f08c379a00000000000000000000000000000000000000000000000000000000081526004016200017590620002ed565b565b6000546001600160a01b031690565b80516001600160a01b03811681146200021557600080fd5b919050565b600080600080600060a0868803121562000232578081fd5b6200023d86620001fd565b94506200024d60208701620001fd565b93506200025d60408701620001fd565b92506200026d60608701620001fd565b91506080860151801515811462000282578182fd5b809150509295509295909350565b60208082526026908201527f4f776e61626c653a206e6577206f776e657220697320746865207a65726f206160408201527f6464726573730000000000000000000000000000000000000000000000000000606082015260800190565b6020808252818101527f4f776e61626c653a2063616c6c6572206973206e6f7420746865206f776e6572604082015260600190565b60805160601c60a05160601c60c05160f81c60e05160601c612da4620003d160003960008181610e53015281816114010152611b55015260008181610ed30152818161139f0152611fc4015260008181610e9501528181610f100152818161102b01528181611fed015261201d01526000818161058601528181610925015281816117a60152818161184d015281816118de0152818161197001528181611a160152611ab70152612da46000f3fe608060405234801561001057600080fd5b506004361061018e5760003560e01c8063a1970fa8116100de578063c10b3aee11610097578063f2fde38b11610071578063f2fde38b14610327578063f739a5291461033a578063fa32ddd81461034d578063fd0c94e3146103555761018e565b8063c10b3aee146102ee578063d262738314610301578063ef9b7208146103145761018e565b8063a1970fa81461027c578063a1a89dbc1461028f578063a2a00ed6146102a2578063a8c478ba146102b5578063af3bd4f2146102c8578063bf16c3c2146102db5761018e565b80637942016c1161014b57806396769e891161012557806396769e891461024457806398f69e9a1461024c57806399efcaec1461026c5780639af2e5ef146102745761018e565b80637942016c146102145780638ae63d6d146102275780638da5cb5b1461023c5761018e565b80630924004e14610193578063207cbd95146101a857806341744dd4146101bb57806354054370146101d95780635f78debd146101ec578063715018a61461020c575b600080fd5b6101a66101a136600461242b565b610368565b005b6101a66101b636600461259c565b61053a565b6101c36107b8565b6040516101d09190612b77565b60405180910390f35b6101a66101e73660046123bb565b6107c9565b6101ff6101fa36600461269b565b610853565b6040516101d09190612724565b6101a661087d565b6101a66102223660046124c9565b610891565b61022f610e3e565b6040516101d09190612b86565b6101ff610e42565b6101ff610e51565b61025f61025a3660046123bb565b610e75565b6040516101d091906128c4565b6101ff610e93565b6101a6610eb7565b6101a661028a36600461269b565b61101e565b61022f61029d3660046123bb565b611051565b61022f6102b03660046123f3565b61106c565b61022f6102c33660046123bb565b611099565b6101a66102d6366004612557565b611114565b6101a66102e936600461249e565b611152565b6101a66102fc366004612663565b6111ab565b6101ff61030f36600461269b565b611262565b6101a661032236600461249e565b611272565b6101a66103353660046123bb565b6112fd565b6101a6610348366004612504565b611334565b61025f61139d565b61022f6103633660046123f3565b6113c1565b6103706116c3565b6001600160a01b03831660009081526003602052604090205460ff166103b15760405162461bcd60e51b81526004016103a890612b5a565b60405180910390fd5b6009546103c090600190612c7d565b8251146103df5760405162461bcd60e51b81526004016103a8906129b6565b80518251146104005760405162461bcd60e51b81526004016103a890612953565b60005b8251811015610485576003600084838151811061043057634e487b7160e01b600052603260045260246000fd5b6020908102919091018101516001600160a01b031682528101919091526040016000205460ff166104735760405162461bcd60e51b81526004016103a890612b22565b8061047d81612ce2565b915050610403565b5061048f81611702565b6104c260405180604001604052806009815260200168434f4d4d554e49545960b81b8152506104bc610e42565b8561178f565b6001600160a01b0383166000908152600360209081526040909120805460ff1916905582516104f791600991908501906121fe565b5061050181611e57565b6040516001600160a01b038416907fd9ddc9dcfa963ac8b810758254dfcbdd868ce81331581e7cfe5686f80cc0ed2090600090a2505050565b6105426116c3565b8351600954610552906001612c03565b1461056f5760405162461bcd60e51b81526004016103a890612a77565b604051633d200b4560e01b81526001600160a01b037f00000000000000000000000000000000000000000000000000000000000000001690633d200b45906105bb908690600401612724565b60206040518083038186803b1580156105d357600080fd5b505afa1580156105e7573d6000803e3d6000fd5b505050506040513d601f19601f8201168201806040525081019061060b9190612537565b6106275760405162461bcd60e51b81526004016103a890612a1e565b61063084611702565b604051635c41e61560e11b81526000906001600160a01b0385169063b883cc2a906106659030908a908890889060040161275c565b602060405180830381600087803b15801561067f57600080fd5b505af1158015610693573d6000803e3d6000fd5b505050506040513d601f19601f820116820180604052508101906106b791906123d7565b90506106ec60405180604001604052806009815260200168434f4d4d554e49545960b81b8152506106e6610e42565b8361178f565b6001600160a01b03811660008181526003602090815260408083208054600160ff1991821681179092556007845282852080549091168217905560049092528220829055600980548083019091557f6e1540171b6c0c960b71a7020d9f60077f6af931a8bbf590da0223dacf75c7af0180546001600160a01b03199081168517909155600a805492830181559092527fc65a7bb8d6351c1cf70c95a316cc6a92839c986682d98bc35f958f4883f9d2a801805490911690911790556107b085611e57565b505050505050565b600054600160a01b900461ffff1681565b6107d16116c3565b6001600160a01b0381166107f75760405162461bcd60e51b81526004016103a890612ab2565b6001546040516001600160a01b038084169216907f5d777218f34a12264a9fec685df1868059eeec6d632b17a1775a00089e57533a90600090a3600180546001600160a01b0319166001600160a01b0392909216919091179055565b6009818154811061086357600080fd5b6000918252602090912001546001600160a01b0316905081565b6108856116c3565b61088f6000611f3b565b565b600b5461089d57610e3b565b60008151116108be5760405162461bcd60e51b81526004016103a8906129d4565b600b546108c9610e3e565b111561091e5761091e604051806040016040528060048152602001632aa9a2a960e11b815250338360008151811061091157634e487b7160e01b600052603260045260246000fd5b602002602001015161178f565b60008060007f00000000000000000000000000000000000000000000000000000000000000006001600160a01b031663f2803f036040518163ffffffff1660e01b815260040160206040518083038186803b15801561097c57600080fd5b505afa158015610990573d6000803e3d6000fd5b505050506040513d601f19601f820116820180604052508101906109b491906123d7565b905060005b84518160ff161015610dd9576000858260ff16815181106109ea57634e487b7160e01b600052603260045260246000fd5b6020908102919091018101516001600160a01b0381166000908152600790925260409091205490915060ff16610a325760405162461bcd60e51b81526004016103a890612b3e565b6040516394465b2160e01b81526000906001600160a01b038316906394465b2190610a61903390600401612724565b60206040518083038186803b158015610a7957600080fd5b505afa158015610a8d573d6000803e3d6000fd5b505050506040513d601f19601f82011682018060405250810190610ab191906126b3565b6001600160a01b0383166000818152600660209081526040808320338452825280832054938352600490915281205492935091610b0b9190610b059064e8d4a5100090610aff908790611f8b565b90611f9e565b90611faa565b905060006001600160a01b03861615801590610ba05750604051632b6d7e0f60e21b81526001600160a01b0387169063adb5f83c90610b4e908790600401612724565b602060405180830381600087803b158015610b6857600080fd5b505af1158015610b7c573d6000803e3d6000fd5b505050506040513d601f19601f82011682018060405250810190610ba09190612537565b15610c49576000866001600160a01b031663328686f66040518163ffffffff1660e01b815260040160206040518083038186803b158015610be057600080fd5b505afa158015610bf4573d6000803e3d6000fd5b505050506040513d601f19601f82011682018060405250810190610c18919061267f565b905061ffff811615610c4757610c38612710610aff8561ffff8516611f8b565b9150610c448389611faa565b92505b505b8015610cc75760405163330ff7b560e21b81526001600160a01b0387169063cc3fded490610c7f90309088908690600401612738565b600060405180830381600087803b158015610c9957600080fd5b505af1158015610cad573d6000803e3d6000fd5b50505050610cc48188611fb690919063ffffffff16565b96505b8115610d20576001600160a01b0384166000908152600560209081526040808320338452909152902054610cfb9083611fb6565b6001600160a01b03851660009081526005602090815260408083203384529091529020555b6001600160a01b0384166000908152600560209081526040808320338452909152902054610d4f908990611fb6565b6001600160a01b038516600090815260046020526040902054909850610d819064e8d4a5100090610aff908690611f8b565b6001600160a01b0390941660008181526006602090815260408083203380855290835281842098909855928252600581528282209682529590955284209390935550829150610dd1905081612cfd565b9150506109b9565b508115610dea57610dea8183611fc2565b610df43384611fc2565b336001600160a01b03167f6ef8cf0d66677b36d11ee4e51dbd733fcd95070b8c2eb524fb96952f26115cb28585604051610e2f9291906127ed565b60405180910390a25050505b50565b4390565b6000546001600160a01b031690565b7f000000000000000000000000000000000000000000000000000000000000000081565b6001600160a01b031660009081526003602052604090205460ff1690565b7f000000000000000000000000000000000000000000000000000000000000000090565b610ebf6116c3565b600060025411610ece57600080fd5b6002547f0000000000000000000000000000000000000000000000000000000000000000610fae576040516370a0823160e01b81526000906001600160a01b037f000000000000000000000000000000000000000000000000000000000000000016906370a0823190610f45903090600401612724565b60206040518083038186803b158015610f5d57600080fd5b505afa158015610f71573d6000803e3d6000fd5b505050506040513d601f19601f82011682018060405250810190610f9591906126b3565b90506002548110610fa857600254610faa565b805b9150505b600154610fc4906001600160a01b031682611fc2565b600254610fd19082611faa565b6002556001546040516001600160a01b03909116907f86a5cc8fe9af9ae68fb50f62885307a7755a30cbd290131644377f0bd94a718190611013908490612b86565b60405180910390a250565b6110266116c3565b610e3b7f0000000000000000000000000000000000000000000000000000000000000000338361203f565b6001600160a01b031660009081526004602052604090205490565b6001600160a01b038083166000908152600660209081526040808320938516835292905220545b92915050565b600080805b600a5461ffff8216101561110d576110f96110f2600a8361ffff16815481106110d757634e487b7160e01b600052603260045260246000fd5b6000918252602090912001546001600160a01b0316866113c1565b8390611fb6565b91508061110581612cc0565b91505061109e565b5092915050565b3360009081526007602052604090205460ff166111435760405162461bcd60e51b81526004016103a890612a94565b61114e82823361178f565b5050565b3360009081526007602052604090205460ff166111815760405162461bcd60e51b81526004016103a890612a94565b3360009081526006602090815260408083206001600160a01b039590951683529390529190912055565b6111b36116c3565b61271061ffff821611156111d95760405162461bcd60e51b81526004016103a890612b03565b61120d60405180604001604052806009815260200168434f4d4d554e49545960b81b815250611206610e42565b600061178f565b6000805461ffff60a01b1916600160a01b61ffff8416021790556040517fb5ea2431f5202daeb0439a80df086a35ec0abfd105e20f5564a824062596c09e90611257908390612b77565b60405180910390a150565b600a818154811061086357600080fd5b3360009081526007602052604090205460ff166112a15760405162461bcd60e51b81526004016103a890612a94565b3360009081526005602090815260408083206001600160a01b03861684529091529020546112cf9082611fb6565b3360009081526005602090815260408083206001600160a01b03969096168352949052929092209190915550565b6113056116c3565b6001600160a01b03811661132b5760405162461bcd60e51b81526004016103a890612970565b610e3b81611f3b565b61133c6116c3565b80516009541461135e5760405162461bcd60e51b81526004016103a890612a5b565b61136781611702565b61139460405180604001604052806009815260200168434f4d4d554e49545960b81b815250611206610e42565b610e3b81611e57565b7f000000000000000000000000000000000000000000000000000000000000000081565b6000600b54600014156113d657506000611093565b600080546114ba9061271090610aff906113fb90600160a01b900461ffff1683612c5a565b61ffff167f00000000000000000000000000000000000000000000000000000000000000006001600160a01b0316632c32c36030600b54600161143e9190612c03565b611446610e3e565b6040518463ffffffff1660e01b8152600401611464939291906127cc565b60206040518083038186803b15801561147c57600080fd5b505afa158015611490573d6000803e3d6000fd5b505050506040513d601f19601f820116820180604052508101906114b491906126b3565b90611f8b565b90506000846001600160a01b03166394465b21856040518263ffffffff1660e01b81526004016114ea9190612724565b60206040518083038186803b15801561150257600080fd5b505afa158015611516573d6000803e3d6000fd5b505050506040513d601f19601f8201168201806040525081019061153a91906126b3565b90508061156f575050506001600160a01b03808316600090815260056020908152604080832093851683529290522054611093565b6000856001600160a01b03166338adb6f06040518163ffffffff1660e01b815260040160206040518083038186803b1580156115aa57600080fd5b505afa1580156115be573d6000803e3d6000fd5b505050506040513d601f19601f820116820180604052508101906115e291906126b3565b6001600160a01b0387166000908152600860205260408120549192509061164190611622908490610aff906305f5e100906114b4908a9061ffff16611f8b565b6001600160a01b03891660009081526004602052604090205490611fb6565b6001600160a01b038089166000908152600660209081526040808320938b168352929052908120549192509061168490610b0564e8d4a51000610aff8887611f8b565b6001600160a01b03808a166000908152600560209081526040808320938c16835292905220549091506116b79082611fb6565b98975050505050505050565b6116cb612051565b6001600160a01b03166116dc610e42565b6001600160a01b03161461088f5760405162461bcd60e51b81526004016103a890612ace565b6000805b82518160ff16101561175c57828160ff168151811061173557634e487b7160e01b600052603260045260246000fd5b6020026020010151826117489190612bdd565b91508061175481612cfd565b915050611706565b5061ffff81166127101480611773575061ffff8116155b61114e5760405162461bcd60e51b81526004016103a890612a3b565b604051634ca1a91960e01b81526001600160a01b037f00000000000000000000000000000000000000000000000000000000000000001690634ca1a919906117db908590600401612724565b60206040518083038186803b1580156117f357600080fd5b505afa158015611807573d6000803e3d6000fd5b505050506040513d601f19601f8201168201806040525081019061182b9190612537565b1580156118d45750604051631da3ddcd60e31b81526000906001600160a01b037f0000000000000000000000000000000000000000000000000000000000000000169063ed1eee68906118829087906004016128cf565b60206040518083038186803b15801561189a57600080fd5b505afa1580156118ae573d6000803e3d6000fd5b505050506040513d601f19601f820116820180604052508101906118d291906126b3565b115b15611b2557611aa07f00000000000000000000000000000000000000000000000000000000000000006001600160a01b031663c10bde0b6040518163ffffffff1660e01b815260040160206040518083038186803b15801561193557600080fd5b505afa158015611949573d6000803e3d6000fd5b505050506040513d601f19601f8201168201806040525081019061196d91906123d7565b837f00000000000000000000000000000000000000000000000000000000000000006001600160a01b0316633b19e84a6040518163ffffffff1660e01b815260040160206040518083038186803b1580156119c757600080fd5b505afa1580156119db573d6000803e3d6000fd5b505050506040513d601f19601f820116820180604052508101906119ff91906123d7565b604051631da3ddcd60e31b81526001600160a01b037f0000000000000000000000000000000000000000000000000000000000000000169063ed1eee6890611a4b908a906004016128cf565b60206040518083038186803b158015611a6357600080fd5b505afa158015611a77573d6000803e3d6000fd5b505050506040513d601f19601f82011682018060405250810190611a9b91906126b3565b612055565b60405163038815f360e41b81526001600160a01b037f000000000000000000000000000000000000000000000000000000000000000016906338815f3090611af29086903090869088906004016128e2565b600060405180830381600087803b158015611b0c57600080fd5b505af1158015611b20573d6000803e3d6000fd5b505050505b600080611b30610e3e565b9050600b5460001415611b4357600b8190555b600b548111611b53575050611e52565b7f00000000000000000000000000000000000000000000000000000000000000006001600160a01b0316632c32c36030600b546001611b929190612c03565b846040518463ffffffff1660e01b8152600401611bb1939291906127cc565b60206040518083038186803b158015611bc957600080fd5b505afa158015611bdd573d6000803e3d6000fd5b505050506040513d601f19601f82011682018060405250810190611c0191906126b3565b91508115611cc257600054600160a01b900461ffff1615611cc25760008054611c3e9061271090610aff908690600160a01b900461ffff16611f8b565b600254909150611c4e9082611fb6565b600255600054611c7d9061271090610aff90611c76908390600160a01b900461ffff16611faa565b8690611f8b565b9250846001600160a01b03167f2f4ae87a584f00dc35b043dd1c5ac839c1f41cd3a66e834d4e13faa6251634e682604051611cb89190612b86565b60405180910390a2505b60005b60095461ffff82161015611e4c57600060098261ffff1681548110611cfa57634e487b7160e01b600052603260045260246000fd5b60009182526020808320909101546040805163038adb6f60e41b815290516001600160a01b03909216945084926338adb6f092600480840193829003018186803b158015611d4757600080fd5b505afa158015611d5b573d6000803e3d6000fd5b505050506040513d601f19601f82011682018060405250810190611d7f91906126b3565b9050801580611da857506001600160a01b03821660009081526008602052604090205461ffff16155b15611db4575050611e3a565b6001600160a01b038216600090815260086020526040812054611dec9061271090610aff9061ffff166114b48a64e8d4a51000611f8b565b9050611e1a611dfb8284611f9e565b6001600160a01b03851660009081526004602052604090205490611fb6565b6001600160a01b0390931660009081526004602052604090209290925550505b80611e4481612cc0565b915050611cc5565b50600b55505b505050565b60005b60095461ffff82161015611f0857818161ffff1681518110611e8c57634e487b7160e01b600052603260045260246000fd5b60200260200101516008600060098461ffff1681548110611ebd57634e487b7160e01b600052603260045260246000fd5b6000918252602080832091909101546001600160a01b031683528201929092526040019020805461ffff191661ffff9290921691909117905580611f0081612cc0565b915050611e5a565b507f5b904beeb70c84b12d4105e0582a752c5a2705717790e1a648a27ba8622b978660098260405161125792919061283e565b600080546001600160a01b038381166001600160a01b0319831681178455604051919092169283917f8be0079c531659141344cd1fd0a4f28419497f9722a3daafe3b4186f6b6457e09190a35050565b6000611f978284612c3b565b9392505050565b6000611f978284612c1b565b6000611f978284612c7d565b6000611f978284612c03565b7f000000000000000000000000000000000000000000000000000000000000000015612018576120137f00000000000000000000000000000000000000000000000000000000000000008383612069565b61114e565b61114e7f000000000000000000000000000000000000000000000000000000000000000083835b8261204b8184846120d1565b50505050565b3390565b8361206281858585612127565b5050505050565b6040516340c10f1960e01b815283906001600160a01b038216906340c10f199061209990869086906004016127b3565b600060405180830381600087803b1580156120b357600080fd5b505af11580156120c7573d6000803e3d6000fd5b5050505050505050565b611e528363a9059cbb60e01b84846040516024016120f09291906127b3565b60408051601f198184030181529190526020810180516001600160e01b03166001600160e01b031990931692909217909152612148565b61204b846323b872dd60e01b8585856040516024016120f093929190612738565b600080836001600160a01b0316836040516121639190612708565b6000604051808303816000865af19150503d80600081146121a0576040519150601f19603f3d011682016040523d82523d6000602084013e6121a5565b606091505b5091509150816121c75760405162461bcd60e51b81526004016103a8906129f2565b80511561204b57808060200190518101906121e29190612537565b61204b5760405162461bcd60e51b81526004016103a89061291e565b828054828255906000526020600020908101928215612253579160200282015b8281111561225357825182546001600160a01b0319166001600160a01b0390911617825560209092019160019091019061221e565b5061225f929150612263565b5090565b5b8082111561225f5760008155600101612264565b600082601f830112612288578081fd5b8135602061229d61229883612bb9565b612b8f565b82815281810190858301838502870184018810156122b9578586fd5b855b858110156122e05781356122ce81612d49565b845292840192908401906001016122bb565b5090979650505050505050565b600082601f8301126122fd578081fd5b8135602061230d61229883612bb9565b8281528181019085830183850287018401881015612329578586fd5b855b858110156122e057813561233e81612d5e565b8452928401929084019060010161232b565b600082601f830112612360578081fd5b813567ffffffffffffffff81111561237a5761237a612d33565b61238d601f8201601f1916602001612b8f565b8181528460208386010111156123a1578283fd5b816020850160208301379081016020019190915292915050565b6000602082840312156123cc578081fd5b8135611f9781612d49565b6000602082840312156123e8578081fd5b8151611f9781612d49565b60008060408385031215612405578081fd5b823561241081612d49565b9150602083013561242081612d49565b809150509250929050565b60008060006060848603121561243f578081fd5b833561244a81612d49565b9250602084013567ffffffffffffffff80821115612466578283fd5b61247287838801612278565b93506040860135915080821115612487578283fd5b50612494868287016122ed565b9150509250925092565b600080604083850312156124b0578182fd5b82356124bb81612d49565b946020939093013593505050565b6000602082840312156124da578081fd5b813567ffffffffffffffff8111156124f0578182fd5b6124fc84828501612278565b949350505050565b600060208284031215612515578081fd5b813567ffffffffffffffff81111561252b578182fd5b6124fc848285016122ed565b600060208284031215612548578081fd5b81518015158114611f97578182fd5b60008060408385031215612569578182fd5b823567ffffffffffffffff81111561257f578283fd5b61258b85828601612350565b925050602083013561242081612d49565b6000806000806000608086880312156125b3578081fd5b853567ffffffffffffffff808211156125ca578283fd5b6125d689838a01612350565b965060208801359150808211156125eb578283fd5b6125f789838a016122ed565b95506040880135915061260982612d49565b9093506060870135908082111561261e578283fd5b818801915088601f830112612631578283fd5b81358181111561263f578384fd5b896020828501011115612650578384fd5b9699959850939650602001949392505050565b600060208284031215612674578081fd5b8135611f9781612d5e565b600060208284031215612690578081fd5b8151611f9781612d5e565b6000602082840312156126ac578081fd5b5035919050565b6000602082840312156126c4578081fd5b5051919050565b6001600160a01b0316815260200190565b600081518084526126f4816020860160208601612c94565b601f01601f19169290920160200192915050565b6000825161271a818460208701612c94565b9190910192915050565b6001600160a01b0391909116815260200190565b6001600160a01b039384168152919092166020820152604081019190915260600190565b6001600160a01b0385168152606060208201819052600090612780908301866126dc565b82810360408401528381528385602083013781602085830101526020601f19601f86011682010191505095945050505050565b6001600160a01b03929092168252602082015260400190565b6001600160a01b039390931683526020830191909152604082015260600190565b604080825283519082018190526000906020906060840190828701845b8281101561282f5781516001600160a01b03168452928401929084019060010161280a565b50505092019290925292915050565b6000604082016040835280855480835260608501915086845260209250828420845b8281101561288c57815461287e9085906001600160a01b03166126cb565b935060019182019101612860565b50505083810382850152845180825285830191830190845b818110156122e057835161ffff16835292840192918401916001016128a4565b901515815260200190565b600060208252611f9760208301846126dc565b6000608082526128f560808301876126dc565b6001600160a01b0395861660208401529385166040830152509216606090920191909152919050565b6020808252818101527f45524332303a206f7065726174696f6e20646964206e6f742073756363656564604082015260600190565b6020808252600390820152624c444d60e81b604082015260600190565b60208082526026908201527f4f776e61626c653a206e6577206f776e657220697320746865207a65726f206160408201526564647265737360d01b606082015260800190565b60208082526004908201526315d0541360e21b604082015260600190565b6020808252600490820152634d484f3160e01b604082015260600190565b602080825260129082015271115490cc8c0e8818d85b1b0819985a5b195960721b604082015260600190565b6020808252600390820152622aa82360e91b604082015260600190565b6020808252600690820152655253213d317760d01b604082015260600190565b60208082526002908201526115d360f21b604082015260600190565b60208082526003908201526257504360e81b604082015260600190565b602080825260049082015263504e495760e01b604082015260600190565b602080825260029082015261494160f01b604082015260600190565b6020808252818101527f4f776e61626c653a2063616c6c6572206973206e6f7420746865206f776e6572604082015260600190565b60208082526005908201526450523e317760d81b604082015260600190565b602080825260029082015261057560f41b604082015260600190565b602080825260029082015261049560f41b604082015260600190565b60208082526003908201526250494160e81b604082015260600190565b61ffff91909116815260200190565b90815260200190565b60405181810167ffffffffffffffff81118282101715612bb157612bb1612d33565b604052919050565b600067ffffffffffffffff821115612bd357612bd3612d33565b5060209081020190565b600061ffff808316818516808303821115612bfa57612bfa612d1d565b01949350505050565b60008219821115612c1657612c16612d1d565b500190565b600082612c3657634e487b7160e01b81526012600452602481fd5b500490565b6000816000190483118215151615612c5557612c55612d1d565b500290565b600061ffff83811690831681811015612c7557612c75612d1d565b039392505050565b600082821015612c8f57612c8f612d1d565b500390565b60005b83811015612caf578181015183820152602001612c97565b8381111561204b5750506000910152565b600061ffff80831681811415612cd857612cd8612d1d565b6001019392505050565b6000600019821415612cf657612cf6612d1d565b5060010190565b600060ff821660ff811415612d1457612d14612d1d565b60010192915050565b634e487b7160e01b600052601160045260246000fd5b634e487b7160e01b600052604160045260246000fd5b6001600160a01b0381168114610e3b57600080fd5b61ffff81168114610e3b57600080fdfea26469706673582212201f24248c32b0ffdbfdef18229fc708ab019b0c6ffe9792dd9fe76656118c5ba564736f6c63430008000033",
  "immutableReferences": {
    "6581": [
      {
        "length": 32,
        "start": 1414
      },
      {
        "length": 32,
        "start": 2341
      },
      {
        "length": 32,
        "start": 6054
      },
      {
        "length": 32,
        "start": 6221
      },
      {
        "length": 32,
        "start": 6366
      },
      {
        "length": 32,
        "start": 6512
      },
      {
        "length": 32,
        "start": 6678
      },
      {
        "length": 32,
        "start": 6839
      }
    ],
    "6625": [
      {
        "length": 32,
        "start": 3733
      },
      {
        "length": 32,
        "start": 3856
      },
      {
        "length": 32,
        "start": 4139
      },
      {
        "length": 32,
        "start": 8173
      },
      {
        "length": 32,
        "start": 8221
      }
    ],
    "6627": [
      {
        "length": 32,
        "start": 3795
      },
      {
        "length": 32,
        "start": 5023
      },
      {
        "length": 32,
        "start": 8132
      }
    ],
    "6629": [
      {
        "length": 32,
        "start": 3667
      },
      {
        "length": 32,
        "start": 5121
      },
      {
        "length": 32,
        "start": 6997
      }
    ]
  },
  "source": "// SPDX-License-Identifier: MIT\n\npragma solidity 0.8.0;\npragma experimental ABIEncoderV2;\n\nimport \"@openzeppelin/contracts/access/Ownable.sol\";\nimport \"@openzeppelin/contracts/utils/math/SafeMath.sol\";\nimport \"./interfaces/ICalculator.sol\";\nimport \"./interfaces/ICommunity.sol\";\nimport \"./interfaces/IPool.sol\";\nimport \"./interfaces/IPoolFactory.sol\";\nimport \"./interfaces/ICommittee.sol\";\nimport \"./interfaces/IGauge.sol\";\nimport \"./ERC20Helper.sol\";\nimport \"./interfaces/ArbSys.sol\";\n\n/**\n * @dev Template contract of Nutbox staking based communnity.\n *\n * Community Contract always returns an entity of this contract.\n * Support add serial staking pool into it.\n */\ncontract Community is ICommunity, ERC20Helper, Ownable {\n\n    using SafeMath for uint256;\n    using SafeMath for uint16;\n\n    uint16 constant CONSTANTS_10000 = 10000;\n\n    address immutable committee;\n    // DAO fund ratio\n    uint16 public feeRatio;\n    // DAO fund address\n    address private devFund;\n    // Revenue can be withdrawn by community so far\n    uint256 private retainedRevenue; \n    // pool => hasOpened\n    mapping(address => bool) private openedPools;\n    // pool => shareAcc\n    mapping(address => uint256) private poolAcc;\n    // pool => user => amount\n    mapping(address => mapping(address => uint256)) private userRewards;\n    // pool => user => amount\n    mapping(address => mapping(address => uint256)) private userDebts;\n    // pool => canUpdate, all added pools\n    mapping(address => bool) private whitelists;\n    // pool => ratios\n    mapping(address => uint16) private poolRatios;\n    // actived pools right now\n    address[] public activedPools;\n    // all created pools include closed pools\n    address[] public createdPools;\n    uint256 private lastRewardBlock;\n    address immutable communityToken;\n    bool immutable public isMintableCommunityToken;\n    address immutable public rewardCalculator;\n\n    // events triggered by community admin\n    event AdminSetFeeRatio(uint16 ratio);\n    event AdminClosePool(address indexed pool);\n    event AdminSetPoolRatio(address[] pools, uint16[] ratios);\n    // events triggered by user\n    event WithdrawRewards(address[] pool, address indexed who, uint256 amount);\n    // when user update pool, there may be some fee charge to owner's account\n    event PoolUpdated(address indexed who, uint256 amount);\n    event DevChanged(address indexed oldDev, address indexed newDev);\n    event RevenueWithdrawn(address indexed devFund, uint256 amount);\n\n    modifier onlyPool {\n        require(whitelists[msg.sender], 'PNIW'); // Pool is not in white list\n        _;\n    }\n\n    constructor(address _admin, address _committee, address _communityToken, address _rewardCalculator, bool _isMintableCommunityToken) {\n        transferOwnership(_admin);\n        devFund = _admin;\n        committee = _committee;\n        communityToken = _communityToken;\n        rewardCalculator = _rewardCalculator;\n        isMintableCommunityToken = _isMintableCommunityToken;\n        emit DevChanged(address(0), _admin);\n    }\n    \n    function adminSetDev(address _dev) external onlyOwner {\n        require(_dev != address(0), \"IA\"); // Invalid address\n        emit DevChanged(devFund, _dev);\n        devFund = _dev;\n    }\n    \n    function adminWithdrawRevenue() external onlyOwner {\n        require(retainedRevenue > 0);\n        uint256 harvestAmount = retainedRevenue;\n        if (!isMintableCommunityToken){\n            uint256 balance = ERC20(communityToken).balanceOf(address(this));\n            harvestAmount = balance < retainedRevenue ? balance : retainedRevenue;\n        }\n        _unlockOrMintAsset(devFund, harvestAmount);\n        retainedRevenue = retainedRevenue.sub(harvestAmount);\n\n        emit RevenueWithdrawn(devFund, harvestAmount);\n    }\n    \n    function adminSetFeeRatio(uint16 _ratio) external onlyOwner {\n        require(_ratio <= CONSTANTS_10000, 'PR>1w');//Pool ratio exceeds 10000\n\n        _updatePoolsWithFee(\"COMMUNITY\", owner(), address(0));\n        \n        feeRatio = _ratio;\n        emit AdminSetFeeRatio(_ratio);\n    }\n    \n    function adminWithdrawReward(uint256 amount) external onlyOwner {\n        releaseERC20(communityToken, msg.sender, amount);\n    }\n    \n    function adminAddPool(string memory poolName, uint16[] memory ratios, address poolFactory, bytes calldata meta) external onlyOwner {\n        require((activedPools.length + 1) == ratios.length, 'WPC');//Wrong Pool ratio count\n        require(ICommittee(committee).verifyContract(poolFactory), 'UPF');//Unsupported pool factory\n        _checkRatioSum(ratios);\n\n        // create pool imstance\n        address pool = IPoolFactory(poolFactory).createPool(address(this), poolName, meta);\n        _updatePoolsWithFee(\"COMMUNITY\", owner(), pool);\n        openedPools[pool] = true;\n        whitelists[pool] = true;\n        poolAcc[pool] = 0;\n        activedPools.push(pool);\n        createdPools.push(pool);\n        _updatePoolRatios(ratios);\n    }\n    \n    function adminClosePool(address poolAddress, address[] memory _activedPools, uint16[] memory ratios) external onlyOwner {\n        require(openedPools[poolAddress], 'PIA');// Pool is already inactived\n        require(_activedPools.length == activedPools.length - 1, \"WAPL\");//Wrong activedPools length\n        require(_activedPools.length == ratios.length, 'LDM');//Length of pools and ratios dismatch\n        // check received actived pools array right\n        for (uint256 i = 0; i < _activedPools.length; i ++) {\n            require(openedPools[_activedPools[i]], \"WP\"); // Wrong active pool address\n        }\n        _checkRatioSum(ratios);\n\n        _updatePoolsWithFee(\"COMMUNITY\", owner(), poolAddress);\n\n        // mark as inactived\n        openedPools[poolAddress] = false;\n        activedPools = _activedPools;\n        _updatePoolRatios(ratios);\n\n        emit AdminClosePool(poolAddress);\n    }\n    \n    function adminSetPoolRatios(uint16[] memory ratios) external onlyOwner {\n        require(activedPools.length == ratios.length, 'WL');//Wrong ratio list length\n        _checkRatioSum(ratios);\n\n        _updatePoolsWithFee(\"COMMUNITY\", owner(), address(0));\n\n        _updatePoolRatios(ratios);\n    }\n\n    /**\n     * @dev This function would withdraw all rewards that exist in all pools which available for user\n     * This function will not only travel actived pools, but also closed pools\n     */\n    function withdrawPoolsRewards(address[] memory poolAddresses) external {\n        // game has not started\n        if (lastRewardBlock == 0) return;\n        require(poolAddresses.length > 0, \"MHO1\"); // Must harvest at least one pool\n\n        // There are new blocks created after last updating, so update pools before withdraw\n        if(blockNum() > lastRewardBlock) {\n            _updatePoolsWithFee(\"USER\", msg.sender, poolAddresses[0]);\n        }\n\n        uint256 totalAvailableRewards = 0;\n        uint256 amountTransferToGauge = 0;\n        address gauge = ICommittee(committee).getGauge();\n        for (uint8 i = 0; i < poolAddresses.length; i++) {\n            address poolAddress = poolAddresses[i];\n            require(whitelists[poolAddress], \"IP\"); // Illegal pool\n            uint256 stakedAmount = IPool(poolAddress).getUserStakedAmount(msg.sender);\n\n            uint256 pending = stakedAmount.mul(poolAcc[poolAddress]).div(1e12).sub(userDebts[poolAddress][msg.sender]);\n            uint256 pendingRewardsToGauge = 0;\n            // if this pool's gauge enabled, calculate the reward and transfer c-token to gauge\n            if (gauge != address(0) && IGauge(gauge).hasGaugeEnabled(poolAddress)) {\n                uint16 ratio = IGauge(gauge).getGaugeRatio();\n                if (ratio > 0) {\n                    pendingRewardsToGauge = pending.mul(ratio).div(CONSTANTS_10000);\n                    pending = pending.sub(amountTransferToGauge);\n                }\n            }\n\n            if (pendingRewardsToGauge > 0){\n                IGauge(gauge).updateLedger(address(this), poolAddress, pendingRewardsToGauge);\n                amountTransferToGauge = amountTransferToGauge.add(pendingRewardsToGauge);\n            }\n\n            if(pending > 0) {\n                userRewards[poolAddress][msg.sender] = userRewards[poolAddress][msg.sender].add(pending);\n            }\n            // add all pools available rewards\n            totalAvailableRewards = totalAvailableRewards.add(userRewards[poolAddress][msg.sender]);\n            userDebts[poolAddress][msg.sender] = stakedAmount.mul(poolAcc[poolAddress]).div(1e12);\n            userRewards[poolAddress][msg.sender] = 0;\n        }\n\n        if (amountTransferToGauge > 0) {\n            _unlockOrMintAsset(gauge, amountTransferToGauge);\n        }\n        // transfer rewards to user\n        _unlockOrMintAsset(msg.sender, totalAvailableRewards);\n        emit WithdrawRewards(poolAddresses, msg.sender, totalAvailableRewards);\n    }\n\n    function getPoolPendingRewards(address poolAddress, address user) public view returns(uint256) {\n        // game has not started\n        if (lastRewardBlock == 0) return 0;\n\n        uint256 rewardsReadyToMintedToPools = ICalculator(rewardCalculator).calculateReward(address(this), lastRewardBlock + 1, blockNum()).mul(10000 - feeRatio).div(10000);\n        // our lastRewardBlock isn't up to date, as the result, the availableRewards isn't\n        // the right amount that delegator can award\n        uint256 stakedAmount = IPool(poolAddress).getUserStakedAmount(user);\n        if (stakedAmount == 0) return userRewards[poolAddress][user];\n        uint256 totalStakedAmount = IPool(poolAddress).getTotalStakedAmount();\n        uint256 _shareAcc = poolAcc[poolAddress].add(rewardsReadyToMintedToPools.mul(poolRatios[poolAddress]).mul(1e8).div(totalStakedAmount));\n        uint256 pending = stakedAmount.mul(_shareAcc).div(1e12).sub(userDebts[poolAddress][user]);\n        return userRewards[poolAddress][user].add(pending);\n    }\n\n    function getTotalPendingRewards(address user) external view returns(uint256) {\n        uint256 rewards = 0;\n        for (uint16 i = 0; i < createdPools.length; i++) {\n            rewards = rewards.add(getPoolPendingRewards(createdPools[i], user));\n        }\n        return rewards;\n    }\n\n    function poolActived(address pool) external view override returns(bool) {\n        return openedPools[pool];\n    }\n\n    function getShareAcc(address pool) external view override returns (uint256) {\n        return poolAcc[pool];\n    }\n\n    function getCommunityToken() external view override returns (address) {\n        return communityToken;\n    }\n\n    function getUserDebt(address pool, address user)\n        external\n        view\n        override returns (uint256) {\n        return userDebts[pool][user];\n    }\n\n    // Pool callable only\n    function appendUserReward(address user, uint256 amount) external override onlyPool {\n        userRewards[msg.sender][user] = userRewards[msg.sender][user].add(amount);\n    }\n\n    // Pool callable only\n    function setUserDebt(address user, uint256 debt) external override onlyPool {\n        userDebts[msg.sender][user] = debt;\n    }\n\n    // Pool callable only\n    function updatePools(string memory feeType, address feePayer) external override onlyPool {\n        _updatePoolsWithFee(feeType, feePayer, msg.sender);\n    }\n\n    function _updatePoolsWithFee(string memory feeType, address feePayer, address pool) private {\n\n        // need pay staking fee whenever update pools\n        if (!ICommittee(committee).getFeeFree(feePayer) && ICommittee(committee).getFee(feeType) > 0){\n            lockERC20(ICommittee(committee).getNut(), feePayer, ICommittee(committee).getTreasury(), ICommittee(committee).getFee(feeType));\n            ICommittee(committee).updateLedger(feeType, address(this), pool, feePayer);\n        }\n\n        uint256 rewardsReadyToMinted = 0;\n        uint256 currentBlock = blockNum();\n\n        if (lastRewardBlock == 0) {\n            lastRewardBlock = currentBlock;\n        }\n\n        // make sure one block can only be calculated one time.\n        // think about this situation that more than one deposit/withdraw/withdrowRewards transactions \n        // were exist in the same block, delegator.amout should be updated after _updateRewardInfo being \n        // invoked and it's award Rewards should be calculated next time\n        if (currentBlock <= lastRewardBlock) return;\n\n        // calculate reward Rewards under current blocks\n        rewardsReadyToMinted = ICalculator(rewardCalculator).calculateReward(address(this), lastRewardBlock + 1, currentBlock);\n\n        // save all rewards to contract temporary\n        if (rewardsReadyToMinted > 0) {\n            if (feeRatio > 0) {\n                // only send rewards belong to community, reward belong to user would send when\n                // they withdraw reward manually\n                uint256 feeAmount = rewardsReadyToMinted.mul(feeRatio).div(CONSTANTS_10000);\n                retainedRevenue = retainedRevenue.add(feeAmount);\n\n                // only rewards belong to pools can used to compute shareAcc\n                rewardsReadyToMinted = rewardsReadyToMinted.mul(CONSTANTS_10000.sub(feeRatio)).div(CONSTANTS_10000);\n                emit PoolUpdated(feePayer, feeAmount);\n            }\n        }\n\n        for (uint16 i = 0; i < activedPools.length; i++) {\n            address poolAddress = activedPools[i];\n            uint256 totalStakedAmount = IPool(poolAddress).getTotalStakedAmount();\n            if(totalStakedAmount == 0 || poolRatios[poolAddress] == 0) continue;\n            uint256 poolRewards = rewardsReadyToMinted.mul(1e12).mul(poolRatios[poolAddress]).div(CONSTANTS_10000);\n            poolAcc[poolAddress] = poolAcc[poolAddress].add(poolRewards.div(totalStakedAmount));\n        }\n\n        lastRewardBlock = currentBlock;\n    }\n\n    function _checkRatioSum(uint16[] memory ratios) private pure {\n        uint16 ratioSum = 0;\n        for(uint8 i = 0; i < ratios.length; i++) {\n            ratioSum += ratios[i];\n        }\n        require(ratioSum == CONSTANTS_10000 || ratioSum == 0, 'RS!=1w');//Ratio summary not equal to 10000\n    }\n\n    function _updatePoolRatios(uint16[] memory ratios) private {\n        for (uint16 i = 0; i < activedPools.length; i++) {\n            poolRatios[activedPools[i]] = ratios[i];\n        }\n        emit AdminSetPoolRatio(activedPools, ratios);\n    }\n\n    function _unlockOrMintAsset(address recipient, uint256 amount) private {\n        if (isMintableCommunityToken) {\n            mintERC20(communityToken, address(recipient), amount);\n        } else {\n            releaseERC20(communityToken, address(recipient), amount);\n        }\n    }\n\n    function blockNum() public view returns (uint256) {\n        return block.number;\n        // return ArbSys(address(100)).arbBlockNumber();\n    }\n}\n",
  "sourcePath": "/Users/wangxi/work/Walnut-V2/nutbox-contract/contracts/Community.sol",
  "compiler": {
    "name": "solc",
    "version": "0.8.0+commit.c7dfd78e.Emscripten.clang"
  },
  "schemaVersion": "3.4.14",
  "updatedAt": "2024-06-20T15:00:49.576Z",
  "devdoc": {
    "details": "Template contract of Nutbox staking based communnity. Community Contract always returns an entity of this contract. Support add serial staking pool into it.",
    "kind": "dev",
    "methods": {
      "owner()": {
        "details": "Returns the address of the current owner."
      },
      "renounceOwnership()": {
        "details": "Leaves the contract without owner. It will not be possible to call `onlyOwner` functions. Can only be called by the current owner. NOTE: Renouncing ownership will leave the contract without an owner, thereby disabling any functionality that is only available to the owner."
      },
      "transferOwnership(address)": {
        "details": "Transfers ownership of the contract to a new account (`newOwner`). Can only be called by the current owner."
      },
      "withdrawPoolsRewards(address[])": {
        "details": "This function would withdraw all rewards that exist in all pools which available for user This function will not only travel actived pools, but also closed pools"
      }
    },
    "version": 1
  },
  "userdoc": {
    "kind": "user",
    "methods": {},
    "version": 1
  }
}