{
  "contractName": "CommunityStorage",
  "abi": [
    {
      "inputs": [
        {
          "internalType": "uint256",
          "name": "cid",
          "type": "uint256"
        },
        {
          "internalType": "address",
          "name": "owner",
          "type": "address"
        },
        {
          "internalType": "address",
          "name": "token",
          "type": "address"
        },
        {
          "internalType": "address",
          "name": "signAddr",
          "type": "address"
        }
      ],
      "stateMutability": "nonpayable",
      "type": "constructor"
    },
    {
      "anonymous": false,
      "inputs": [
        {
          "indexed": true,
          "internalType": "address",
          "name": "previousOwner",
          "type": "address"
        },
        {
          "indexed": true,
          "internalType": "address",
          "name": "newOwner",
          "type": "address"
        }
      ],
      "name": "OwnershipTransferred",
      "type": "event"
    },
    {
      "inputs": [
        {
          "internalType": "uint256",
          "name": "",
          "type": "uint256"
        },
        {
          "internalType": "uint256",
          "name": "",
          "type": "uint256"
        }
      ],
      "name": "alreadyClaimed",
      "outputs": [
        {
          "internalType": "bool",
          "name": "",
          "type": "bool"
        }
      ],
      "stateMutability": "view",
      "type": "function"
    },
    {
      "inputs": [],
      "name": "communityId",
      "outputs": [
        {
          "internalType": "uint256",
          "name": "",
          "type": "uint256"
        }
      ],
      "stateMutability": "view",
      "type": "function"
    },
    {
      "inputs": [],
      "name": "owner",
      "outputs": [
        {
          "internalType": "address",
          "name": "",
          "type": "address"
        }
      ],
      "stateMutability": "view",
      "type": "function"
    },
    {
      "inputs": [],
      "name": "prizeToken",
      "outputs": [
        {
          "internalType": "address",
          "name": "",
          "type": "address"
        }
      ],
      "stateMutability": "view",
      "type": "function"
    },
    {
      "inputs": [],
      "name": "renounceOwnership",
      "outputs": [],
      "stateMutability": "nonpayable",
      "type": "function"
    },
    {
      "inputs": [],
      "name": "signAddress",
      "outputs": [
        {
          "internalType": "address",
          "name": "",
          "type": "address"
        }
      ],
      "stateMutability": "view",
      "type": "function"
    },
    {
      "inputs": [
        {
          "internalType": "address",
          "name": "newOwner",
          "type": "address"
        }
      ],
      "name": "transferOwnership",
      "outputs": [],
      "stateMutability": "nonpayable",
      "type": "function"
    },
    {
      "inputs": [
        {
          "internalType": "address",
          "name": "addr",
          "type": "address"
        }
      ],
      "name": "setSignAddress",
      "outputs": [],
      "stateMutability": "nonpayable",
      "type": "function"
    },
    {
      "inputs": [
        {
          "internalType": "address",
          "name": "addr",
          "type": "address"
        }
      ],
      "name": "setPrizeToken",
      "outputs": [],
      "stateMutability": "nonpayable",
      "type": "function"
    },
    {
      "inputs": [
        {
          "internalType": "address",
          "name": "to",
          "type": "address"
        }
      ],
      "name": "withdraw",
      "outputs": [],
      "stateMutability": "nonpayable",
      "type": "function"
    },
    {
      "inputs": [
        {
          "internalType": "address",
          "name": "to",
          "type": "address"
        },
        {
          "internalType": "uint256",
          "name": "amount",
          "type": "uint256"
        }
      ],
      "name": "transfer",
      "outputs": [],
      "stateMutability": "nonpayable",
      "type": "function"
    },
    {
      "inputs": [
        {
          "internalType": "uint256",
          "name": "twitterId",
          "type": "uint256"
        },
        {
          "internalType": "uint256",
          "name": "curationId",
          "type": "uint256"
        }
      ],
      "name": "saveAlreadyClaimed",
      "outputs": [],
      "stateMutability": "nonpayable",
      "type": "function"
    },
    {
      "inputs": [],
      "name": "getBalance",
      "outputs": [
        {
          "internalType": "uint256",
          "name": "",
          "type": "uint256"
        }
      ],
      "stateMutability": "view",
      "type": "function"
    }
  ],
  "bytecode": "0x608060405234801561001057600080fd5b506040516109f13803806109f183398101604081905261002f916101bb565b6100383361007f565b6002849055600380546001600160a01b038085166001600160a01b0319928316179092556004805492841692909116919091179055610076836100cf565b50505050610208565b600080546001600160a01b038381166001600160a01b0319831681178455604051919092169283917f8be0079c531659141344cd1fd0a4f28419497f9722a3daafe3b4186f6b6457e09190a35050565b6000546001600160a01b0316331461012e5760405162461bcd60e51b815260206004820181905260248201527f4f776e61626c653a2063616c6c6572206973206e6f7420746865206f776e657260448201526064015b60405180910390fd5b6001600160a01b0381166101935760405162461bcd60e51b815260206004820152602660248201527f4f776e61626c653a206e6577206f776e657220697320746865207a65726f206160448201526564647265737360d01b6064820152608401610125565b61019c8161007f565b50565b80516001600160a01b03811681146101b657600080fd5b919050565b600080600080608085870312156101d157600080fd5b845193506101e16020860161019f565b92506101ef6040860161019f565b91506101fd6060860161019f565b905092959194509250565b6107da806102176000396000f3fe608060405234801561001057600080fd5b50600436106100cf5760003560e01c8063715018a61161008c578063a9059cbb11610066578063a9059cbb1461018a578063cb9f88131461019d578063d0ef024a146101db578063f2fde38b146101ee57600080fd5b8063715018a6146101685780637f50861a146101705780638da5cb5b1461017957600080fd5b80630682bdbc146100d457806311f9a97d1461010457806312065fe014610119578063151370451461012f57806340fb4f1b1461014257806351cff8d914610155575b600080fd5b6004546100e7906001600160a01b031681565b6040516001600160a01b0390911681526020015b60405180910390f35b6101176101123660046106c6565b610201565b005b610121610256565b6040519081526020016100fb565b61011761013d3660046106c6565b6102c8565b6101176101503660046106e8565b610314565b6101176101633660046106c6565b610409565b610117610526565b61012160025481565b6000546001600160a01b03166100e7565b61011761019836600461070a565b61055c565b6101cb6101ab3660046106e8565b600160209081526000928352604080842090915290825290205460ff1681565b60405190151581526020016100fb565b6003546100e7906001600160a01b031681565b6101176101fc3660046106c6565b6105bf565b6000546001600160a01b031633146102345760405162461bcd60e51b815260040161022b90610734565b60405180910390fd5b600380546001600160a01b0319166001600160a01b0392909216919091179055565b6003546040516370a0823160e01b81523060048201526000916001600160a01b0316906370a0823190602401602060405180830381865afa15801561029f573d6000803e3d6000fd5b505050506040513d601f19601f820116820180604052508101906102c39190610769565b905090565b6000546001600160a01b031633146102f25760405162461bcd60e51b815260040161022b90610734565b600480546001600160a01b0319166001600160a01b0392909216919091179055565b6000546001600160a01b0316331461033e5760405162461bcd60e51b815260040161022b90610734565b603081901c600254146103875760405162461bcd60e51b8152602060048201526011602482015270696e76616c696420636f6d6d756e69747960781b604482015260640161022b565b600082815260016020908152604080832084845290915290205460ff16156103e35760405162461bcd60e51b815260206004820152600f60248201526e185b1c9958591e4818db185a5b5959608a1b604482015260640161022b565b60009182526001602081815260408085209385529290529120805460ff19169091179055565b6000546001600160a01b031633146104335760405162461bcd60e51b815260040161022b90610734565b6003546040516370a0823160e01b81523060048201526000916001600160a01b0316906370a0823190602401602060405180830381865afa15801561047c573d6000803e3d6000fd5b505050506040513d601f19601f820116820180604052508101906104a09190610769565b905080156105225760035460405163a9059cbb60e01b81526001600160a01b038481166004830152602482018490529091169063a9059cbb906044015b6020604051808303816000875af11580156104fc573d6000803e3d6000fd5b505050506040513d601f19601f820116820180604052508101906105209190610782565b505b5050565b6000546001600160a01b031633146105505760405162461bcd60e51b815260040161022b90610734565b61055a600061065a565b565b6000546001600160a01b031633146105865760405162461bcd60e51b815260040161022b90610734565b60035460405163a9059cbb60e01b81526001600160a01b038481166004830152602482018490529091169063a9059cbb906044016104dd565b6000546001600160a01b031633146105e95760405162461bcd60e51b815260040161022b90610734565b6001600160a01b03811661064e5760405162461bcd60e51b815260206004820152602660248201527f4f776e61626c653a206e6577206f776e657220697320746865207a65726f206160448201526564647265737360d01b606482015260840161022b565b6106578161065a565b50565b600080546001600160a01b038381166001600160a01b0319831681178455604051919092169283917f8be0079c531659141344cd1fd0a4f28419497f9722a3daafe3b4186f6b6457e09190a35050565b80356001600160a01b03811681146106c157600080fd5b919050565b6000602082840312156106d857600080fd5b6106e1826106aa565b9392505050565b600080604083850312156106fb57600080fd5b50508035926020909101359150565b6000806040838503121561071d57600080fd5b610726836106aa565b946020939093013593505050565b6020808252818101527f4f776e61626c653a2063616c6c6572206973206e6f7420746865206f776e6572604082015260600190565b60006020828403121561077b57600080fd5b5051919050565b60006020828403121561079457600080fd5b815180151581146106e157600080fdfea2646970667358221220560a45a9eefe6688eb106556ad8215a1b64b0231ef1b6c68931c9008be95783864736f6c634300080d0033",
  "immutableReferences": {},
  "source": "// SPDX-License-Identifier: MIT\npragma solidity ^0.8.0;\n\nimport \"@openzeppelin/contracts/access/Ownable.sol\";\nimport \"@openzeppelin/contracts/token/ERC20/IERC20.sol\";\n\ncontract CommunityStorage is Ownable {\n    // Flag claimed users\n    // twitterid => curation id => bool\n    mapping(uint256 => mapping(uint256 => bool)) public alreadyClaimed;\n\n    // communityId\n    uint256 public communityId;\n    address public prizeToken;\n    address public signAddress;\n\n    constructor(uint256 cid, address owner, address token, address signAddr) {\n        communityId = cid;\n        prizeToken = token;\n        signAddress = signAddr;\n        transferOwnership(owner);\n    }\n\n    function setSignAddress(address addr) public onlyOwner {\n        signAddress = addr;\n    }\n\n    function setPrizeToken(address addr) public onlyOwner {\n        prizeToken = addr;\n    }\n\n    function withdraw(address to) public onlyOwner {\n        uint256 balance = IERC20(prizeToken).balanceOf(address(this));\n        if (balance > 0) {\n            IERC20(prizeToken).transfer(to, balance);\n        }\n    }\n\n    function transfer(address to, uint256 amount) public onlyOwner {\n        IERC20(prizeToken).transfer(to, amount);\n    }\n\n    function saveAlreadyClaimed(uint256 twitterId, uint256 curationId) public onlyOwner {\n        require(communityId == curationId >> 48, \"invalid community\");\n        require(alreadyClaimed[twitterId][curationId] == false, \"already claimed\");\n        alreadyClaimed[twitterId][curationId] = true;\n    }\n\n    function getBalance() public view returns (uint256) {\n        return IERC20(prizeToken).balanceOf(address(this));\n    }\n}\n",
  "sourcePath": "/Users/wangxi/work/Walnut-V2/nutbox-contract/contracts/CommunityStorage.sol",
  "compiler": {
    "name": "solc",
    "version": "0.8.13+commit.abaa5c0e.Emscripten.clang"
  },
  "schemaVersion": "3.3.4",
  "updatedAt": "2024-06-22T08:10:24.831Z",
  "devdoc": {
    "kind": "dev",
    "methods": {
      "owner()": {
        "details": "Returns the address of the current owner."
      },
      "renounceOwnership()": {
        "details": "Leaves the contract without owner. It will not be possible to call `onlyOwner` functions anymore. Can only be called by the current owner. NOTE: Renouncing ownership will leave the contract without an owner, thereby removing any functionality that is only available to the owner."
      },
      "transferOwnership(address)": {
        "details": "Transfers ownership of the contract to a new account (`newOwner`). Can only be called by the current owner."
      }
    },
    "version": 1
  },
  "userdoc": {
    "kind": "user",
    "methods": {},
    "version": 1
  }
}