{
  "contractName": "Community",
  "abi": [
    {
      "inputs": [
        {
          "internalType": "address",
          "name": "_admin",
          "type": "address"
        },
        {
          "internalType": "address",
          "name": "_committee",
          "type": "address"
        },
        {
          "internalType": "address",
          "name": "_communityToken",
          "type": "address"
        },
        {
          "internalType": "address",
          "name": "_rewardCalculator",
          "type": "address"
        },
        {
          "internalType": "bool",
          "name": "_isMintableCommunityToken",
          "type": "bool"
        }
      ],
      "stateMutability": "nonpayable",
      "type": "constructor"
    },
    {
      "anonymous": false,
      "inputs": [
        {
          "indexed": true,
          "internalType": "address",
          "name": "pool",
          "type": "address"
        }
      ],
      "name": "AdminClosePool",
      "type": "event"
    },
    {
      "anonymous": false,
      "inputs": [
        {
          "indexed": false,
          "internalType": "uint16",
          "name": "ratio",
          "type": "uint16"
        }
      ],
      "name": "AdminSetFeeRatio",
      "type": "event"
    },
    {
      "anonymous": false,
      "inputs": [
        {
          "indexed": false,
          "internalType": "address[]",
          "name": "pools",
          "type": "address[]"
        },
        {
          "indexed": false,
          "internalType": "uint16[]",
          "name": "ratios",
          "type": "uint16[]"
        }
      ],
      "name": "AdminSetPoolRatio",
      "type": "event"
    },
    {
      "anonymous": false,
      "inputs": [
        {
          "indexed": true,
          "internalType": "address",
          "name": "oldDev",
          "type": "address"
        },
        {
          "indexed": true,
          "internalType": "address",
          "name": "newDev",
          "type": "address"
        }
      ],
      "name": "DevChanged",
      "type": "event"
    },
    {
      "anonymous": false,
      "inputs": [
        {
          "indexed": true,
          "internalType": "address",
          "name": "previousOwner",
          "type": "address"
        },
        {
          "indexed": true,
          "internalType": "address",
          "name": "newOwner",
          "type": "address"
        }
      ],
      "name": "OwnershipTransferred",
      "type": "event"
    },
    {
      "anonymous": false,
      "inputs": [
        {
          "indexed": true,
          "internalType": "address",
          "name": "who",
          "type": "address"
        },
        {
          "indexed": false,
          "internalType": "uint256",
          "name": "amount",
          "type": "uint256"
        }
      ],
      "name": "PoolUpdated",
      "type": "event"
    },
    {
      "anonymous": false,
      "inputs": [
        {
          "indexed": true,
          "internalType": "address",
          "name": "devFund",
          "type": "address"
        },
        {
          "indexed": false,
          "internalType": "uint256",
          "name": "amount",
          "type": "uint256"
        }
      ],
      "name": "RevenueWithdrawn",
      "type": "event"
    },
    {
      "anonymous": false,
      "inputs": [
        {
          "indexed": false,
          "internalType": "address[]",
          "name": "pool",
          "type": "address[]"
        },
        {
          "indexed": true,
          "internalType": "address",
          "name": "who",
          "type": "address"
        },
        {
          "indexed": false,
          "internalType": "uint256",
          "name": "amount",
          "type": "uint256"
        }
      ],
      "name": "WithdrawRewards",
      "type": "event"
    },
    {
      "inputs": [
        {
          "internalType": "uint256",
          "name": "",
          "type": "uint256"
        }
      ],
      "name": "activedPools",
      "outputs": [
        {
          "internalType": "address",
          "name": "",
          "type": "address"
        }
      ],
      "stateMutability": "view",
      "type": "function"
    },
    {
      "inputs": [
        {
          "internalType": "uint256",
          "name": "",
          "type": "uint256"
        }
      ],
      "name": "createdPools",
      "outputs": [
        {
          "internalType": "address",
          "name": "",
          "type": "address"
        }
      ],
      "stateMutability": "view",
      "type": "function"
    },
    {
      "inputs": [],
      "name": "feeRatio",
      "outputs": [
        {
          "internalType": "uint16",
          "name": "",
          "type": "uint16"
        }
      ],
      "stateMutability": "view",
      "type": "function"
    },
    {
      "inputs": [],
      "name": "isMintableCommunityToken",
      "outputs": [
        {
          "internalType": "bool",
          "name": "",
          "type": "bool"
        }
      ],
      "stateMutability": "view",
      "type": "function"
    },
    {
      "inputs": [],
      "name": "owner",
      "outputs": [
        {
          "internalType": "address",
          "name": "",
          "type": "address"
        }
      ],
      "stateMutability": "view",
      "type": "function"
    },
    {
      "inputs": [],
      "name": "renounceOwnership",
      "outputs": [],
      "stateMutability": "nonpayable",
      "type": "function"
    },
    {
      "inputs": [],
      "name": "rewardCalculator",
      "outputs": [
        {
          "internalType": "address",
          "name": "",
          "type": "address"
        }
      ],
      "stateMutability": "view",
      "type": "function"
    },
    {
      "inputs": [
        {
          "internalType": "address",
          "name": "newOwner",
          "type": "address"
        }
      ],
      "name": "transferOwnership",
      "outputs": [],
      "stateMutability": "nonpayable",
      "type": "function"
    },
    {
      "inputs": [
        {
          "internalType": "address",
          "name": "_dev",
          "type": "address"
        }
      ],
      "name": "adminSetDev",
      "outputs": [],
      "stateMutability": "nonpayable",
      "type": "function"
    },
    {
      "inputs": [],
      "name": "adminWithdrawRevenue",
      "outputs": [],
      "stateMutability": "nonpayable",
      "type": "function"
    },
    {
      "inputs": [
        {
          "internalType": "uint16",
          "name": "_ratio",
          "type": "uint16"
        }
      ],
      "name": "adminSetFeeRatio",
      "outputs": [],
      "stateMutability": "nonpayable",
      "type": "function"
    },
    {
      "inputs": [
        {
          "internalType": "uint256",
          "name": "amount",
          "type": "uint256"
        }
      ],
      "name": "adminWithdrawReward",
      "outputs": [],
      "stateMutability": "nonpayable",
      "type": "function"
    },
    {
      "inputs": [
        {
          "internalType": "string",
          "name": "poolName",
          "type": "string"
        },
        {
          "internalType": "uint16[]",
          "name": "ratios",
          "type": "uint16[]"
        },
        {
          "internalType": "address",
          "name": "poolFactory",
          "type": "address"
        },
        {
          "internalType": "bytes",
          "name": "meta",
          "type": "bytes"
        }
      ],
      "name": "adminAddPool",
      "outputs": [],
      "stateMutability": "nonpayable",
      "type": "function"
    },
    {
      "inputs": [
        {
          "internalType": "address",
          "name": "poolAddress",
          "type": "address"
        },
        {
          "internalType": "address[]",
          "name": "_activedPools",
          "type": "address[]"
        },
        {
          "internalType": "uint16[]",
          "name": "ratios",
          "type": "uint16[]"
        }
      ],
      "name": "adminClosePool",
      "outputs": [],
      "stateMutability": "nonpayable",
      "type": "function"
    },
    {
      "inputs": [
        {
          "internalType": "uint16[]",
          "name": "ratios",
          "type": "uint16[]"
        }
      ],
      "name": "adminSetPoolRatios",
      "outputs": [],
      "stateMutability": "nonpayable",
      "type": "function"
    },
    {
      "inputs": [
        {
          "internalType": "address[]",
          "name": "poolAddresses",
          "type": "address[]"
        }
      ],
      "name": "withdrawPoolsRewards",
      "outputs": [],
      "stateMutability": "nonpayable",
      "type": "function"
    },
    {
      "inputs": [
        {
          "internalType": "address",
          "name": "poolAddress",
          "type": "address"
        },
        {
          "internalType": "address",
          "name": "user",
          "type": "address"
        }
      ],
      "name": "getPoolPendingRewards",
      "outputs": [
        {
          "internalType": "uint256",
          "name": "",
          "type": "uint256"
        }
      ],
      "stateMutability": "view",
      "type": "function"
    },
    {
      "inputs": [
        {
          "internalType": "address",
          "name": "user",
          "type": "address"
        }
      ],
      "name": "getTotalPendingRewards",
      "outputs": [
        {
          "internalType": "uint256",
          "name": "",
          "type": "uint256"
        }
      ],
      "stateMutability": "view",
      "type": "function"
    },
    {
      "inputs": [
        {
          "internalType": "address",
          "name": "pool",
          "type": "address"
        }
      ],
      "name": "poolActived",
      "outputs": [
        {
          "internalType": "bool",
          "name": "",
          "type": "bool"
        }
      ],
      "stateMutability": "view",
      "type": "function"
    },
    {
      "inputs": [
        {
          "internalType": "address",
          "name": "pool",
          "type": "address"
        }
      ],
      "name": "getShareAcc",
      "outputs": [
        {
          "internalType": "uint256",
          "name": "",
          "type": "uint256"
        }
      ],
      "stateMutability": "view",
      "type": "function"
    },
    {
      "inputs": [],
      "name": "getCommunityToken",
      "outputs": [
        {
          "internalType": "address",
          "name": "",
          "type": "address"
        }
      ],
      "stateMutability": "view",
      "type": "function"
    },
    {
      "inputs": [
        {
          "internalType": "address",
          "name": "pool",
          "type": "address"
        },
        {
          "internalType": "address",
          "name": "user",
          "type": "address"
        }
      ],
      "name": "getUserDebt",
      "outputs": [
        {
          "internalType": "uint256",
          "name": "",
          "type": "uint256"
        }
      ],
      "stateMutability": "view",
      "type": "function"
    },
    {
      "inputs": [
        {
          "internalType": "address",
          "name": "user",
          "type": "address"
        },
        {
          "internalType": "uint256",
          "name": "amount",
          "type": "uint256"
        }
      ],
      "name": "appendUserReward",
      "outputs": [],
      "stateMutability": "nonpayable",
      "type": "function"
    },
    {
      "inputs": [
        {
          "internalType": "address",
          "name": "user",
          "type": "address"
        },
        {
          "internalType": "uint256",
          "name": "debt",
          "type": "uint256"
        }
      ],
      "name": "setUserDebt",
      "outputs": [],
      "stateMutability": "nonpayable",
      "type": "function"
    },
    {
      "inputs": [
        {
          "internalType": "string",
          "name": "feeType",
          "type": "string"
        },
        {
          "internalType": "address",
          "name": "feePayer",
          "type": "address"
        }
      ],
      "name": "updatePools",
      "outputs": [],
      "stateMutability": "nonpayable",
      "type": "function"
    },
    {
      "inputs": [],
      "name": "blockNum",
      "outputs": [
        {
          "internalType": "uint256",
          "name": "",
          "type": "uint256"
        }
      ],
      "stateMutability": "view",
      "type": "function"
    }
  ],
  "bytecode": "0x6101006040523480156200001257600080fd5b506040516200338e3803806200338e83398101604081905262000035916200020e565b6200004962000043620000d4565b620000d8565b620000548562000128565b600180546001600160a01b0387166001600160a01b031990911681179091556001600160601b0319606086811b821660805285811b821660a05284901b1660e05281151560f81b60c0526040516000907f5d777218f34a12264a9fec685df1868059eeec6d632b17a1775a00089e57533a908290a3505050505062000316565b3390565b600080546001600160a01b038381166001600160a01b0319831681178455604051919092169283917f8be0079c531659141344cd1fd0a4f28419497f9722a3daafe3b4186f6b6457e09190a35050565b62000132620000d4565b6001600160a01b031662000145620001e2565b6001600160a01b03161462000191576040517f08c379a00000000000000000000000000000000000000000000000000000000081526004016200018890620002e1565b60405180910390fd5b6001600160a01b038116620001d4576040517f08c379a0000000000000000000000000000000000000000000000000000000008152600401620001889062000284565b620001df81620000d8565b50565b6000546001600160a01b031690565b80516001600160a01b03811681146200020957600080fd5b919050565b600080600080600060a0868803121562000226578081fd5b6200023186620001f1565b94506200024160208701620001f1565b93506200025160408701620001f1565b92506200026160608701620001f1565b91506080860151801515811462000276578182fd5b809150509295509295909350565b60208082526026908201527f4f776e61626c653a206e6577206f776e657220697320746865207a65726f206160408201527f6464726573730000000000000000000000000000000000000000000000000000606082015260800190565b6020808252818101527f4f776e61626c653a2063616c6c6572206973206e6f7420746865206f776e6572604082015260600190565b60805160601c60a05160601c60c05160f81c60e05160601c612fc9620003c560003960008181610fa4015281816116650152611d7e01526000818161105b0152818161160301526121ed015260008181610fe601528181611098015281816111ea0152818161221601526122460152600081816105f401528181610a01015281816119cf01528181611a7601528181611b0701528181611b9901528181611c3f0152611ce00152612fc96000f3fe608060405234801561001057600080fd5b506004361061018e5760003560e01c8063a1970fa8116100de578063c10b3aee11610097578063f2fde38b11610071578063f2fde38b14610327578063f739a5291461033a578063fa32ddd81461034d578063fd0c94e3146103555761018e565b8063c10b3aee146102ee578063d262738314610301578063ef9b7208146103145761018e565b8063a1970fa81461027c578063a1a89dbc1461028f578063a2a00ed6146102a2578063a8c478ba146102b5578063af3bd4f2146102c8578063bf16c3c2146102db5761018e565b80637942016c1161014b57806396769e891161012557806396769e891461024457806398f69e9a1461024c57806399efcaec1461026c5780639af2e5ef146102745761018e565b80637942016c146102145780638ae63d6d146102275780638da5cb5b1461023c5761018e565b80630924004e14610193578063207cbd95146101a857806341744dd4146101bb57806354054370146101d95780635f78debd146101ec578063715018a61461020c575b600080fd5b6101a66101a1366004612650565b610368565b005b6101a66101b63660046127c1565b610571565b6101c3610826565b6040516101d09190612d9c565b60405180910390f35b6101a66101e73660046125e0565b610837565b6101ff6101fa3660046128c0565b6108f8565b6040516101d09190612949565b6101a6610922565b6101a66102223660046126ee565b61096d565b61022f610f1a565b6040516101d09190612dab565b6101ff610f93565b6101ff610fa2565b61025f61025a3660046125e0565b610fc6565b6040516101d09190612ae9565b6101ff610fe4565b6101a6611008565b6101a661028a3660046128c0565b6111a6565b61022f61029d3660046125e0565b611210565b61022f6102b0366004612618565b61122b565b61022f6102c33660046125e0565b611258565b6101a66102d636600461277c565b6112d3565b6101a66102e93660046126c3565b611311565b6101a66102fc366004612888565b61136a565b6101ff61030f3660046128c0565b611458565b6101a66103223660046126c3565b611468565b6101a66103353660046125e0565b6114f3565b6101a6610348366004612729565b611561565b61025f611601565b61022f610363366004612618565b611625565b610370611927565b6001600160a01b0316610381610f93565b6001600160a01b0316146103b05760405162461bcd60e51b81526004016103a790612cf3565b60405180910390fd5b6001600160a01b03831660009081526003602052604090205460ff166103e85760405162461bcd60e51b81526004016103a790612d7f565b6009546103f790600190612ea2565b8251146104165760405162461bcd60e51b81526004016103a790612bdb565b80518251146104375760405162461bcd60e51b81526004016103a790612b78565b60005b82518110156104bc576003600084838151811061046757634e487b7160e01b600052603260045260246000fd5b6020908102919091018101516001600160a01b031682528101919091526040016000205460ff166104aa5760405162461bcd60e51b81526004016103a790612d47565b806104b481612f07565b91505061043a565b506104c68161192b565b6104f960405180604001604052806009815260200168434f4d4d554e49545960b81b8152506104f3610f93565b856119b8565b6001600160a01b0383166000908152600360209081526040909120805460ff19169055825161052e9160099190850190612423565b5061053881612080565b6040516001600160a01b038416907fd9ddc9dcfa963ac8b810758254dfcbdd868ce81331581e7cfe5686f80cc0ed2090600090a2505050565b610579611927565b6001600160a01b031661058a610f93565b6001600160a01b0316146105b05760405162461bcd60e51b81526004016103a790612cf3565b83516009546105c0906001612e28565b146105dd5760405162461bcd60e51b81526004016103a790612c9c565b604051633d200b4560e01b81526001600160a01b037f00000000000000000000000000000000000000000000000000000000000000001690633d200b4590610629908690600401612949565b60206040518083038186803b15801561064157600080fd5b505afa158015610655573d6000803e3d6000fd5b505050506040513d601f19601f82011682018060405250810190610679919061275c565b6106955760405162461bcd60e51b81526004016103a790612c43565b61069e8461192b565b604051635c41e61560e11b81526000906001600160a01b0385169063b883cc2a906106d39030908a9088908890600401612981565b602060405180830381600087803b1580156106ed57600080fd5b505af1158015610701573d6000803e3d6000fd5b505050506040513d601f19601f8201168201806040525081019061072591906125fc565b905061075a60405180604001604052806009815260200168434f4d4d554e49545960b81b815250610754610f93565b836119b8565b6001600160a01b03811660008181526003602090815260408083208054600160ff1991821681179092556007845282852080549091168217905560049092528220829055600980548083019091557f6e1540171b6c0c960b71a7020d9f60077f6af931a8bbf590da0223dacf75c7af0180546001600160a01b03199081168517909155600a805492830181559092527fc65a7bb8d6351c1cf70c95a316cc6a92839c986682d98bc35f958f4883f9d2a8018054909116909117905561081e85612080565b505050505050565b600054600160a01b900461ffff1681565b61083f611927565b6001600160a01b0316610850610f93565b6001600160a01b0316146108765760405162461bcd60e51b81526004016103a790612cf3565b6001600160a01b03811661089c5760405162461bcd60e51b81526004016103a790612cd7565b6001546040516001600160a01b038084169216907f5d777218f34a12264a9fec685df1868059eeec6d632b17a1775a00089e57533a90600090a3600180546001600160a01b0319166001600160a01b0392909216919091179055565b6009818154811061090857600080fd5b6000918252602090912001546001600160a01b0316905081565b61092a611927565b6001600160a01b031661093b610f93565b6001600160a01b0316146109615760405162461bcd60e51b81526004016103a790612cf3565b61096b6000612164565b565b600b5461097957610f17565b600081511161099a5760405162461bcd60e51b81526004016103a790612bf9565b600b546109a5610f1a565b11156109fa576109fa604051806040016040528060048152602001632aa9a2a960e11b81525033836000815181106109ed57634e487b7160e01b600052603260045260246000fd5b60200260200101516119b8565b60008060007f00000000000000000000000000000000000000000000000000000000000000006001600160a01b031663f2803f036040518163ffffffff1660e01b815260040160206040518083038186803b158015610a5857600080fd5b505afa158015610a6c573d6000803e3d6000fd5b505050506040513d601f19601f82011682018060405250810190610a9091906125fc565b905060005b84518160ff161015610eb5576000858260ff1681518110610ac657634e487b7160e01b600052603260045260246000fd5b6020908102919091018101516001600160a01b0381166000908152600790925260409091205490915060ff16610b0e5760405162461bcd60e51b81526004016103a790612d63565b6040516394465b2160e01b81526000906001600160a01b038316906394465b2190610b3d903390600401612949565b60206040518083038186803b158015610b5557600080fd5b505afa158015610b69573d6000803e3d6000fd5b505050506040513d601f19601f82011682018060405250810190610b8d91906128d8565b6001600160a01b0383166000818152600660209081526040808320338452825280832054938352600490915281205492935091610be79190610be19064e8d4a5100090610bdb9087906121b4565b906121c7565b906121d3565b905060006001600160a01b03861615801590610c7c5750604051632b6d7e0f60e21b81526001600160a01b0387169063adb5f83c90610c2a908790600401612949565b602060405180830381600087803b158015610c4457600080fd5b505af1158015610c58573d6000803e3d6000fd5b505050506040513d601f19601f82011682018060405250810190610c7c919061275c565b15610d25576000866001600160a01b031663328686f66040518163ffffffff1660e01b815260040160206040518083038186803b158015610cbc57600080fd5b505afa158015610cd0573d6000803e3d6000fd5b505050506040513d601f19601f82011682018060405250810190610cf491906128a4565b905061ffff811615610d2357610d14612710610bdb8561ffff85166121b4565b9150610d2083896121d3565b92505b505b8015610da35760405163330ff7b560e21b81526001600160a01b0387169063cc3fded490610d5b9030908890869060040161295d565b600060405180830381600087803b158015610d7557600080fd5b505af1158015610d89573d6000803e3d6000fd5b50505050610da081886121df90919063ffffffff16565b96505b8115610dfc576001600160a01b0384166000908152600560209081526040808320338452909152902054610dd790836121df565b6001600160a01b03851660009081526005602090815260408083203384529091529020555b6001600160a01b0384166000908152600560209081526040808320338452909152902054610e2b9089906121df565b6001600160a01b038516600090815260046020526040902054909850610e5d9064e8d4a5100090610bdb9086906121b4565b6001600160a01b0390941660008181526006602090815260408083203380855290835281842098909855928252600581528282209682529590955284209390935550829150610ead905081612f22565b915050610a95565b508115610ec657610ec681836121eb565b610ed033846121eb565b336001600160a01b03167f6ef8cf0d66677b36d11ee4e51dbd733fcd95070b8c2eb524fb96952f26115cb28585604051610f0b929190612a12565b60405180910390a25050505b50565b600060646001600160a01b031663a3b1b31d6040518163ffffffff1660e01b815260040160206040518083038186803b158015610f5657600080fd5b505afa158015610f6a573d6000803e3d6000fd5b505050506040513d601f19601f82011682018060405250810190610f8e91906128d8565b905090565b6000546001600160a01b031690565b7f000000000000000000000000000000000000000000000000000000000000000081565b6001600160a01b031660009081526003602052604090205460ff1690565b7f000000000000000000000000000000000000000000000000000000000000000090565b611010611927565b6001600160a01b0316611021610f93565b6001600160a01b0316146110475760405162461bcd60e51b81526004016103a790612cf3565b60006002541161105657600080fd5b6002547f0000000000000000000000000000000000000000000000000000000000000000611136576040516370a0823160e01b81526000906001600160a01b037f000000000000000000000000000000000000000000000000000000000000000016906370a08231906110cd903090600401612949565b60206040518083038186803b1580156110e557600080fd5b505afa1580156110f9573d6000803e3d6000fd5b505050506040513d601f19601f8201168201806040525081019061111d91906128d8565b9050600254811061113057600254611132565b805b9150505b60015461114c906001600160a01b0316826121eb565b60025461115990826121d3565b6002556001546040516001600160a01b03909116907f86a5cc8fe9af9ae68fb50f62885307a7755a30cbd290131644377f0bd94a71819061119b908490612dab565b60405180910390a250565b6111ae611927565b6001600160a01b03166111bf610f93565b6001600160a01b0316146111e55760405162461bcd60e51b81526004016103a790612cf3565b610f177f00000000000000000000000000000000000000000000000000000000000000003383612268565b6001600160a01b031660009081526004602052604090205490565b6001600160a01b038083166000908152600660209081526040808320938516835292905220545b92915050565b600080805b600a5461ffff821610156112cc576112b86112b1600a8361ffff168154811061129657634e487b7160e01b600052603260045260246000fd5b6000918252602090912001546001600160a01b031686611625565b83906121df565b9150806112c481612ee5565b91505061125d565b5092915050565b3360009081526007602052604090205460ff166113025760405162461bcd60e51b81526004016103a790612cb9565b61130d8282336119b8565b5050565b3360009081526007602052604090205460ff166113405760405162461bcd60e51b81526004016103a790612cb9565b3360009081526006602090815260408083206001600160a01b039590951683529390529190912055565b611372611927565b6001600160a01b0316611383610f93565b6001600160a01b0316146113a95760405162461bcd60e51b81526004016103a790612cf3565b61271061ffff821611156113cf5760405162461bcd60e51b81526004016103a790612d28565b61140360405180604001604052806009815260200168434f4d4d554e49545960b81b8152506113fc610f93565b60006119b8565b6000805461ffff60a01b1916600160a01b61ffff8416021790556040517fb5ea2431f5202daeb0439a80df086a35ec0abfd105e20f5564a824062596c09e9061144d908390612d9c565b60405180910390a150565b600a818154811061090857600080fd5b3360009081526007602052604090205460ff166114975760405162461bcd60e51b81526004016103a790612cb9565b3360009081526005602090815260408083206001600160a01b03861684529091529020546114c590826121df565b3360009081526005602090815260408083206001600160a01b03969096168352949052929092209190915550565b6114fb611927565b6001600160a01b031661150c610f93565b6001600160a01b0316146115325760405162461bcd60e51b81526004016103a790612cf3565b6001600160a01b0381166115585760405162461bcd60e51b81526004016103a790612b95565b610f1781612164565b611569611927565b6001600160a01b031661157a610f93565b6001600160a01b0316146115a05760405162461bcd60e51b81526004016103a790612cf3565b8051600954146115c25760405162461bcd60e51b81526004016103a790612c80565b6115cb8161192b565b6115f860405180604001604052806009815260200168434f4d4d554e49545960b81b8152506113fc610f93565b610f1781612080565b7f000000000000000000000000000000000000000000000000000000000000000081565b6000600b546000141561163a57506000611252565b6000805461171e9061271090610bdb9061165f90600160a01b900461ffff1683612e7f565b61ffff167f00000000000000000000000000000000000000000000000000000000000000006001600160a01b0316632c32c36030600b5460016116a29190612e28565b6116aa610f1a565b6040518463ffffffff1660e01b81526004016116c8939291906129f1565b60206040518083038186803b1580156116e057600080fd5b505afa1580156116f4573d6000803e3d6000fd5b505050506040513d601f19601f8201168201806040525081019061171891906128d8565b906121b4565b90506000846001600160a01b03166394465b21856040518263ffffffff1660e01b815260040161174e9190612949565b60206040518083038186803b15801561176657600080fd5b505afa15801561177a573d6000803e3d6000fd5b505050506040513d601f19601f8201168201806040525081019061179e91906128d8565b9050806117d3575050506001600160a01b03808316600090815260056020908152604080832093851683529290522054611252565b6000856001600160a01b03166338adb6f06040518163ffffffff1660e01b815260040160206040518083038186803b15801561180e57600080fd5b505afa158015611822573d6000803e3d6000fd5b505050506040513d601f19601f8201168201806040525081019061184691906128d8565b6001600160a01b038716600090815260086020526040812054919250906118a590611886908490610bdb906305f5e10090611718908a9061ffff166121b4565b6001600160a01b038916600090815260046020526040902054906121df565b6001600160a01b038089166000908152600660209081526040808320938b16835292905290812054919250906118e890610be164e8d4a51000610bdb88876121b4565b6001600160a01b03808a166000908152600560209081526040808320938c168352929052205490915061191b90826121df565b98975050505050505050565b3390565b6000805b82518160ff16101561198557828160ff168151811061195e57634e487b7160e01b600052603260045260246000fd5b6020026020010151826119719190612e02565b91508061197d81612f22565b91505061192f565b5061ffff8116612710148061199c575061ffff8116155b61130d5760405162461bcd60e51b81526004016103a790612c60565b604051634ca1a91960e01b81526001600160a01b037f00000000000000000000000000000000000000000000000000000000000000001690634ca1a91990611a04908590600401612949565b60206040518083038186803b158015611a1c57600080fd5b505afa158015611a30573d6000803e3d6000fd5b505050506040513d601f19601f82011682018060405250810190611a54919061275c565b158015611afd5750604051631da3ddcd60e31b81526000906001600160a01b037f0000000000000000000000000000000000000000000000000000000000000000169063ed1eee6890611aab908790600401612af4565b60206040518083038186803b158015611ac357600080fd5b505afa158015611ad7573d6000803e3d6000fd5b505050506040513d601f19601f82011682018060405250810190611afb91906128d8565b115b15611d4e57611cc97f00000000000000000000000000000000000000000000000000000000000000006001600160a01b031663c10bde0b6040518163ffffffff1660e01b815260040160206040518083038186803b158015611b5e57600080fd5b505afa158015611b72573d6000803e3d6000fd5b505050506040513d601f19601f82011682018060405250810190611b9691906125fc565b837f00000000000000000000000000000000000000000000000000000000000000006001600160a01b0316633b19e84a6040518163ffffffff1660e01b815260040160206040518083038186803b158015611bf057600080fd5b505afa158015611c04573d6000803e3d6000fd5b505050506040513d601f19601f82011682018060405250810190611c2891906125fc565b604051631da3ddcd60e31b81526001600160a01b037f0000000000000000000000000000000000000000000000000000000000000000169063ed1eee6890611c74908a90600401612af4565b60206040518083038186803b158015611c8c57600080fd5b505afa158015611ca0573d6000803e3d6000fd5b505050506040513d601f19601f82011682018060405250810190611cc491906128d8565b61227a565b60405163038815f360e41b81526001600160a01b037f000000000000000000000000000000000000000000000000000000000000000016906338815f3090611d1b908690309086908890600401612b07565b600060405180830381600087803b158015611d3557600080fd5b505af1158015611d49573d6000803e3d6000fd5b505050505b600080611d59610f1a565b9050600b5460001415611d6c57600b8190555b600b548111611d7c57505061207b565b7f00000000000000000000000000000000000000000000000000000000000000006001600160a01b0316632c32c36030600b546001611dbb9190612e28565b846040518463ffffffff1660e01b8152600401611dda939291906129f1565b60206040518083038186803b158015611df257600080fd5b505afa158015611e06573d6000803e3d6000fd5b505050506040513d601f19601f82011682018060405250810190611e2a91906128d8565b91508115611eeb57600054600160a01b900461ffff1615611eeb5760008054611e679061271090610bdb908690600160a01b900461ffff166121b4565b600254909150611e7790826121df565b600255600054611ea69061271090610bdb90611e9f908390600160a01b900461ffff166121d3565b86906121b4565b9250846001600160a01b03167f2f4ae87a584f00dc35b043dd1c5ac839c1f41cd3a66e834d4e13faa6251634e682604051611ee19190612dab565b60405180910390a2505b60005b60095461ffff8216101561207557600060098261ffff1681548110611f2357634e487b7160e01b600052603260045260246000fd5b60009182526020808320909101546040805163038adb6f60e41b815290516001600160a01b03909216945084926338adb6f092600480840193829003018186803b158015611f7057600080fd5b505afa158015611f84573d6000803e3d6000fd5b505050506040513d601f19601f82011682018060405250810190611fa891906128d8565b9050801580611fd157506001600160a01b03821660009081526008602052604090205461ffff16155b15611fdd575050612063565b6001600160a01b0382166000908152600860205260408120546120159061271090610bdb9061ffff166117188a64e8d4a510006121b4565b905061204361202482846121c7565b6001600160a01b038516600090815260046020526040902054906121df565b6001600160a01b0390931660009081526004602052604090209290925550505b8061206d81612ee5565b915050611eee565b50600b55505b505050565b60005b60095461ffff8216101561213157818161ffff16815181106120b557634e487b7160e01b600052603260045260246000fd5b60200260200101516008600060098461ffff16815481106120e657634e487b7160e01b600052603260045260246000fd5b6000918252602080832091909101546001600160a01b031683528201929092526040019020805461ffff191661ffff929092169190911790558061212981612ee5565b915050612083565b507f5b904beeb70c84b12d4105e0582a752c5a2705717790e1a648a27ba8622b978660098260405161144d929190612a63565b600080546001600160a01b038381166001600160a01b0319831681178455604051919092169283917f8be0079c531659141344cd1fd0a4f28419497f9722a3daafe3b4186f6b6457e09190a35050565b60006121c08284612e60565b9392505050565b60006121c08284612e40565b60006121c08284612ea2565b60006121c08284612e28565b7f0000000000000000000000000000000000000000000000000000000000000000156122415761223c7f0000000000000000000000000000000000000000000000000000000000000000838361228e565b61130d565b61130d7f000000000000000000000000000000000000000000000000000000000000000083835b826122748184846122f6565b50505050565b836122878185858561234c565b5050505050565b6040516340c10f1960e01b815283906001600160a01b038216906340c10f19906122be90869086906004016129d8565b600060405180830381600087803b1580156122d857600080fd5b505af11580156122ec573d6000803e3d6000fd5b5050505050505050565b61207b8363a9059cbb60e01b84846040516024016123159291906129d8565b60408051601f198184030181529190526020810180516001600160e01b03166001600160e01b03199093169290921790915261236d565b612274846323b872dd60e01b8585856040516024016123159392919061295d565b600080836001600160a01b031683604051612388919061292d565b6000604051808303816000865af19150503d80600081146123c5576040519150601f19603f3d011682016040523d82523d6000602084013e6123ca565b606091505b5091509150816123ec5760405162461bcd60e51b81526004016103a790612c17565b8051156122745780806020019051810190612407919061275c565b6122745760405162461bcd60e51b81526004016103a790612b43565b828054828255906000526020600020908101928215612478579160200282015b8281111561247857825182546001600160a01b0319166001600160a01b03909116178255602090920191600190910190612443565b50612484929150612488565b5090565b5b808211156124845760008155600101612489565b600082601f8301126124ad578081fd5b813560206124c26124bd83612dde565b612db4565b82815281810190858301838502870184018810156124de578586fd5b855b858110156125055781356124f381612f6e565b845292840192908401906001016124e0565b5090979650505050505050565b600082601f830112612522578081fd5b813560206125326124bd83612dde565b828152818101908583018385028701840188101561254e578586fd5b855b8581101561250557813561256381612f83565b84529284019290840190600101612550565b600082601f830112612585578081fd5b813567ffffffffffffffff81111561259f5761259f612f58565b6125b2601f8201601f1916602001612db4565b8181528460208386010111156125c6578283fd5b816020850160208301379081016020019190915292915050565b6000602082840312156125f1578081fd5b81356121c081612f6e565b60006020828403121561260d578081fd5b81516121c081612f6e565b6000806040838503121561262a578081fd5b823561263581612f6e565b9150602083013561264581612f6e565b809150509250929050565b600080600060608486031215612664578081fd5b833561266f81612f6e565b9250602084013567ffffffffffffffff8082111561268b578283fd5b6126978783880161249d565b935060408601359150808211156126ac578283fd5b506126b986828701612512565b9150509250925092565b600080604083850312156126d5578182fd5b82356126e081612f6e565b946020939093013593505050565b6000602082840312156126ff578081fd5b813567ffffffffffffffff811115612715578182fd5b6127218482850161249d565b949350505050565b60006020828403121561273a578081fd5b813567ffffffffffffffff811115612750578182fd5b61272184828501612512565b60006020828403121561276d578081fd5b815180151581146121c0578182fd5b6000806040838503121561278e578182fd5b823567ffffffffffffffff8111156127a4578283fd5b6127b085828601612575565b925050602083013561264581612f6e565b6000806000806000608086880312156127d8578081fd5b853567ffffffffffffffff808211156127ef578283fd5b6127fb89838a01612575565b96506020880135915080821115612810578283fd5b61281c89838a01612512565b95506040880135915061282e82612f6e565b90935060608701359080821115612843578283fd5b818801915088601f830112612856578283fd5b813581811115612864578384fd5b896020828501011115612875578384fd5b9699959850939650602001949392505050565b600060208284031215612899578081fd5b81356121c081612f83565b6000602082840312156128b5578081fd5b81516121c081612f83565b6000602082840312156128d1578081fd5b5035919050565b6000602082840312156128e9578081fd5b5051919050565b6001600160a01b0316815260200190565b60008151808452612919816020860160208601612eb9565b601f01601f19169290920160200192915050565b6000825161293f818460208701612eb9565b9190910192915050565b6001600160a01b0391909116815260200190565b6001600160a01b039384168152919092166020820152604081019190915260600190565b6001600160a01b03851681526060602082018190526000906129a590830186612901565b82810360408401528381528385602083013781602085830101526020601f19601f86011682010191505095945050505050565b6001600160a01b03929092168252602082015260400190565b6001600160a01b039390931683526020830191909152604082015260600190565b604080825283519082018190526000906020906060840190828701845b82811015612a545781516001600160a01b031684529284019290840190600101612a2f565b50505092019290925292915050565b6000604082016040835280855480835260608501915086845260209250828420845b82811015612ab1578154612aa39085906001600160a01b03166128f0565b935060019182019101612a85565b50505083810382850152845180825285830191830190845b8181101561250557835161ffff1683529284019291840191600101612ac9565b901515815260200190565b6000602082526121c06020830184612901565b600060808252612b1a6080830187612901565b6001600160a01b0395861660208401529385166040830152509216606090920191909152919050565b6020808252818101527f45524332303a206f7065726174696f6e20646964206e6f742073756363656564604082015260600190565b6020808252600390820152624c444d60e81b604082015260600190565b60208082526026908201527f4f776e61626c653a206e6577206f776e657220697320746865207a65726f206160408201526564647265737360d01b606082015260800190565b60208082526004908201526315d0541360e21b604082015260600190565b6020808252600490820152634d484f3160e01b604082015260600190565b602080825260129082015271115490cc8c0e8818d85b1b0819985a5b195960721b604082015260600190565b6020808252600390820152622aa82360e91b604082015260600190565b6020808252600690820152655253213d317760d01b604082015260600190565b60208082526002908201526115d360f21b604082015260600190565b60208082526003908201526257504360e81b604082015260600190565b602080825260049082015263504e495760e01b604082015260600190565b602080825260029082015261494160f01b604082015260600190565b6020808252818101527f4f776e61626c653a2063616c6c6572206973206e6f7420746865206f776e6572604082015260600190565b60208082526005908201526450523e317760d81b604082015260600190565b602080825260029082015261057560f41b604082015260600190565b602080825260029082015261049560f41b604082015260600190565b60208082526003908201526250494160e81b604082015260600190565b61ffff91909116815260200190565b90815260200190565b60405181810167ffffffffffffffff81118282101715612dd657612dd6612f58565b604052919050565b600067ffffffffffffffff821115612df857612df8612f58565b5060209081020190565b600061ffff808316818516808303821115612e1f57612e1f612f42565b01949350505050565b60008219821115612e3b57612e3b612f42565b500190565b600082612e5b57634e487b7160e01b81526012600452602481fd5b500490565b6000816000190483118215151615612e7a57612e7a612f42565b500290565b600061ffff83811690831681811015612e9a57612e9a612f42565b039392505050565b600082821015612eb457612eb4612f42565b500390565b60005b83811015612ed4578181015183820152602001612ebc565b838111156122745750506000910152565b600061ffff80831681811415612efd57612efd612f42565b6001019392505050565b6000600019821415612f1b57612f1b612f42565b5060010190565b600060ff821660ff811415612f3957612f39612f42565b60010192915050565b634e487b7160e01b600052601160045260246000fd5b634e487b7160e01b600052604160045260246000fd5b6001600160a01b0381168114610f1757600080fd5b61ffff81168114610f1757600080fdfea2646970667358221220c37038deb0750564796c17d8d84ba65d2df75f4ae9d354b01380520e4209f5b464736f6c63430008000033",
  "immutableReferences": {
    "30": [
      {
        "length": 32,
        "start": 1524
      },
      {
        "length": 32,
        "start": 2561
      },
      {
        "length": 32,
        "start": 6607
      },
      {
        "length": 32,
        "start": 6774
      },
      {
        "length": 32,
        "start": 6919
      },
      {
        "length": 32,
        "start": 7065
      },
      {
        "length": 32,
        "start": 7231
      },
      {
        "length": 32,
        "start": 7392
      }
    ],
    "74": [
      {
        "length": 32,
        "start": 4070
      },
      {
        "length": 32,
        "start": 4248
      },
      {
        "length": 32,
        "start": 4586
      },
      {
        "length": 32,
        "start": 8726
      },
      {
        "length": 32,
        "start": 8774
      }
    ],
    "76": [
      {
        "length": 32,
        "start": 4187
      },
      {
        "length": 32,
        "start": 5635
      },
      {
        "length": 32,
        "start": 8685
      }
    ],
    "78": [
      {
        "length": 32,
        "start": 4004
      },
      {
        "length": 32,
        "start": 5733
      },
      {
        "length": 32,
        "start": 7550
      }
    ]
  },
  "source": "// SPDX-License-Identifier: MIT\n\npragma solidity 0.8.0;\npragma experimental ABIEncoderV2;\n\nimport \"@openzeppelin/contracts/access/Ownable.sol\";\nimport \"@openzeppelin/contracts/utils/math/SafeMath.sol\";\nimport \"./interfaces/ICalculator.sol\";\nimport \"./interfaces/ICommunity.sol\";\nimport \"./interfaces/IPool.sol\";\nimport \"./interfaces/IPoolFactory.sol\";\nimport \"./interfaces/ICommittee.sol\";\nimport \"./interfaces/IGauge.sol\";\nimport \"./ERC20Helper.sol\";\nimport \"./interfaces/ArbSys.sol\";\n\n/**\n * @dev Template contract of Nutbox staking based communnity.\n *\n * Community Contract always returns an entity of this contract.\n * Support add serial staking pool into it.\n */\ncontract Community is ICommunity, ERC20Helper, Ownable {\n\n    using SafeMath for uint256;\n    using SafeMath for uint16;\n\n    uint16 constant CONSTANTS_10000 = 10000;\n\n    address immutable committee;\n    // DAO fund ratio\n    uint16 public feeRatio;\n    // DAO fund address\n    address private devFund;\n    // Revenue can be withdrawn by community so far\n    uint256 private retainedRevenue; \n    // pool => hasOpened\n    mapping(address => bool) private openedPools;\n    // pool => shareAcc\n    mapping(address => uint256) private poolAcc;\n    // pool => user => amount\n    mapping(address => mapping(address => uint256)) private userRewards;\n    // pool => user => amount\n    mapping(address => mapping(address => uint256)) private userDebts;\n    // pool => canUpdate, all added pools\n    mapping(address => bool) private whitelists;\n    // pool => ratios\n    mapping(address => uint16) private poolRatios;\n    // actived pools right now\n    address[] public activedPools;\n    // all created pools include closed pools\n    address[] public createdPools;\n    uint256 private lastRewardBlock;\n    address immutable communityToken;\n    bool immutable public isMintableCommunityToken;\n    address immutable public rewardCalculator;\n\n    // events triggered by community admin\n    event AdminSetFeeRatio(uint16 ratio);\n    event AdminClosePool(address indexed pool);\n    event AdminSetPoolRatio(address[] pools, uint16[] ratios);\n    // events triggered by user\n    event WithdrawRewards(address[] pool, address indexed who, uint256 amount);\n    // when user update pool, there may be some fee charge to owner's account\n    event PoolUpdated(address indexed who, uint256 amount);\n    event DevChanged(address indexed oldDev, address indexed newDev);\n    event RevenueWithdrawn(address indexed devFund, uint256 amount);\n\n    modifier onlyPool {\n        require(whitelists[msg.sender], 'PNIW'); // Pool is not in white list\n        _;\n    }\n\n    constructor(address _admin, address _committee, address _communityToken, address _rewardCalculator, bool _isMintableCommunityToken) {\n        transferOwnership(_admin);\n        devFund = _admin;\n        committee = _committee;\n        communityToken = _communityToken;\n        rewardCalculator = _rewardCalculator;\n        isMintableCommunityToken = _isMintableCommunityToken;\n        emit DevChanged(address(0), _admin);\n    }\n    \n    function adminSetDev(address _dev) external onlyOwner {\n        require(_dev != address(0), \"IA\"); // Invalid address\n        emit DevChanged(devFund, _dev);\n        devFund = _dev;\n    }\n    \n    function adminWithdrawRevenue() external onlyOwner {\n        require(retainedRevenue > 0);\n        uint256 harvestAmount = retainedRevenue;\n        if (!isMintableCommunityToken){\n            uint256 balance = ERC20(communityToken).balanceOf(address(this));\n            harvestAmount = balance < retainedRevenue ? balance : retainedRevenue;\n        }\n        _unlockOrMintAsset(devFund, harvestAmount);\n        retainedRevenue = retainedRevenue.sub(harvestAmount);\n\n        emit RevenueWithdrawn(devFund, harvestAmount);\n    }\n    \n    function adminSetFeeRatio(uint16 _ratio) external onlyOwner {\n        require(_ratio <= CONSTANTS_10000, 'PR>1w');//Pool ratio exceeds 10000\n\n        _updatePoolsWithFee(\"COMMUNITY\", owner(), address(0));\n        \n        feeRatio = _ratio;\n        emit AdminSetFeeRatio(_ratio);\n    }\n    \n    function adminWithdrawReward(uint256 amount) external onlyOwner {\n        releaseERC20(communityToken, msg.sender, amount);\n    }\n    \n    function adminAddPool(string memory poolName, uint16[] memory ratios, address poolFactory, bytes calldata meta) external onlyOwner {\n        require((activedPools.length + 1) == ratios.length, 'WPC');//Wrong Pool ratio count\n        require(ICommittee(committee).verifyContract(poolFactory), 'UPF');//Unsupported pool factory\n        _checkRatioSum(ratios);\n\n        // create pool imstance\n        address pool = IPoolFactory(poolFactory).createPool(address(this), poolName, meta);\n        _updatePoolsWithFee(\"COMMUNITY\", owner(), pool);\n        openedPools[pool] = true;\n        whitelists[pool] = true;\n        poolAcc[pool] = 0;\n        activedPools.push(pool);\n        createdPools.push(pool);\n        _updatePoolRatios(ratios);\n    }\n    \n    function adminClosePool(address poolAddress, address[] memory _activedPools, uint16[] memory ratios) external onlyOwner {\n        require(openedPools[poolAddress], 'PIA');// Pool is already inactived\n        require(_activedPools.length == activedPools.length - 1, \"WAPL\");//Wrong activedPools length\n        require(_activedPools.length == ratios.length, 'LDM');//Length of pools and ratios dismatch\n        // check received actived pools array right\n        for (uint256 i = 0; i < _activedPools.length; i ++) {\n            require(openedPools[_activedPools[i]], \"WP\"); // Wrong active pool address\n        }\n        _checkRatioSum(ratios);\n\n        _updatePoolsWithFee(\"COMMUNITY\", owner(), poolAddress);\n\n        // mark as inactived\n        openedPools[poolAddress] = false;\n        activedPools = _activedPools;\n        _updatePoolRatios(ratios);\n\n        emit AdminClosePool(poolAddress);\n    }\n    \n    function adminSetPoolRatios(uint16[] memory ratios) external onlyOwner {\n        require(activedPools.length == ratios.length, 'WL');//Wrong ratio list length\n        _checkRatioSum(ratios);\n\n        _updatePoolsWithFee(\"COMMUNITY\", owner(), address(0));\n\n        _updatePoolRatios(ratios);\n    }\n\n    /**\n     * @dev This function would withdraw all rewards that exist in all pools which available for user\n     * This function will not only travel actived pools, but also closed pools\n     */\n    function withdrawPoolsRewards(address[] memory poolAddresses) external {\n        // game has not started\n        if (lastRewardBlock == 0) return;\n        require(poolAddresses.length > 0, \"MHO1\"); // Must harvest at least one pool\n\n        // There are new blocks created after last updating, so update pools before withdraw\n        if(blockNum() > lastRewardBlock) {\n            _updatePoolsWithFee(\"USER\", msg.sender, poolAddresses[0]);\n        }\n\n        uint256 totalAvailableRewards = 0;\n        uint256 amountTransferToGauge = 0;\n        address gauge = ICommittee(committee).getGauge();\n        for (uint8 i = 0; i < poolAddresses.length; i++) {\n            address poolAddress = poolAddresses[i];\n            require(whitelists[poolAddress], \"IP\"); // Illegal pool\n            uint256 stakedAmount = IPool(poolAddress).getUserStakedAmount(msg.sender);\n\n            uint256 pending = stakedAmount.mul(poolAcc[poolAddress]).div(1e12).sub(userDebts[poolAddress][msg.sender]);\n            uint256 pendingRewardsToGauge = 0;\n            // if this pool's gauge enabled, calculate the reward and transfer c-token to gauge\n            if (gauge != address(0) && IGauge(gauge).hasGaugeEnabled(poolAddress)) {\n                uint16 ratio = IGauge(gauge).getGaugeRatio();\n                if (ratio > 0) {\n                    pendingRewardsToGauge = pending.mul(ratio).div(CONSTANTS_10000);\n                    pending = pending.sub(amountTransferToGauge);\n                }\n            }\n\n            if (pendingRewardsToGauge > 0){\n                IGauge(gauge).updateLedger(address(this), poolAddress, pendingRewardsToGauge);\n                amountTransferToGauge = amountTransferToGauge.add(pendingRewardsToGauge);\n            }\n\n            if(pending > 0) {\n                userRewards[poolAddress][msg.sender] = userRewards[poolAddress][msg.sender].add(pending);\n            }\n            // add all pools available rewards\n            totalAvailableRewards = totalAvailableRewards.add(userRewards[poolAddress][msg.sender]);\n            userDebts[poolAddress][msg.sender] = stakedAmount.mul(poolAcc[poolAddress]).div(1e12);\n            userRewards[poolAddress][msg.sender] = 0;\n        }\n\n        if (amountTransferToGauge > 0) {\n            _unlockOrMintAsset(gauge, amountTransferToGauge);\n        }\n        // transfer rewards to user\n        _unlockOrMintAsset(msg.sender, totalAvailableRewards);\n        emit WithdrawRewards(poolAddresses, msg.sender, totalAvailableRewards);\n    }\n\n    function getPoolPendingRewards(address poolAddress, address user) public view returns(uint256) {\n        // game has not started\n        if (lastRewardBlock == 0) return 0;\n\n        uint256 rewardsReadyToMintedToPools = ICalculator(rewardCalculator).calculateReward(address(this), lastRewardBlock + 1, blockNum()).mul(10000 - feeRatio).div(10000);\n        // our lastRewardBlock isn't up to date, as the result, the availableRewards isn't\n        // the right amount that delegator can award\n        uint256 stakedAmount = IPool(poolAddress).getUserStakedAmount(user);\n        if (stakedAmount == 0) return userRewards[poolAddress][user];\n        uint256 totalStakedAmount = IPool(poolAddress).getTotalStakedAmount();\n        uint256 _shareAcc = poolAcc[poolAddress].add(rewardsReadyToMintedToPools.mul(poolRatios[poolAddress]).mul(1e8).div(totalStakedAmount));\n        uint256 pending = stakedAmount.mul(_shareAcc).div(1e12).sub(userDebts[poolAddress][user]);\n        return userRewards[poolAddress][user].add(pending);\n    }\n\n    function getTotalPendingRewards(address user) external view returns(uint256) {\n        uint256 rewards = 0;\n        for (uint16 i = 0; i < createdPools.length; i++) {\n            rewards = rewards.add(getPoolPendingRewards(createdPools[i], user));\n        }\n        return rewards;\n    }\n\n    function poolActived(address pool) external view override returns(bool) {\n        return openedPools[pool];\n    }\n\n    function getShareAcc(address pool) external view override returns (uint256) {\n        return poolAcc[pool];\n    }\n\n    function getCommunityToken() external view override returns (address) {\n        return communityToken;\n    }\n\n    function getUserDebt(address pool, address user)\n        external\n        view\n        override returns (uint256) {\n        return userDebts[pool][user];\n    }\n\n    // Pool callable only\n    function appendUserReward(address user, uint256 amount) external override onlyPool {\n        userRewards[msg.sender][user] = userRewards[msg.sender][user].add(amount);\n    }\n\n    // Pool callable only\n    function setUserDebt(address user, uint256 debt) external override onlyPool {\n        userDebts[msg.sender][user] = debt;\n    }\n\n    // Pool callable only\n    function updatePools(string memory feeType, address feePayer) external override onlyPool {\n        _updatePoolsWithFee(feeType, feePayer, msg.sender);\n    }\n\n    function _updatePoolsWithFee(string memory feeType, address feePayer, address pool) private {\n\n        // need pay staking fee whenever update pools\n        if (!ICommittee(committee).getFeeFree(feePayer) && ICommittee(committee).getFee(feeType) > 0){\n            lockERC20(ICommittee(committee).getNut(), feePayer, ICommittee(committee).getTreasury(), ICommittee(committee).getFee(feeType));\n            ICommittee(committee).updateLedger(feeType, address(this), pool, feePayer);\n        }\n\n        uint256 rewardsReadyToMinted = 0;\n        uint256 currentBlock = blockNum();\n\n        if (lastRewardBlock == 0) {\n            lastRewardBlock = currentBlock;\n        }\n\n        // make sure one block can only be calculated one time.\n        // think about this situation that more than one deposit/withdraw/withdrowRewards transactions \n        // were exist in the same block, delegator.amout should be updated after _updateRewardInfo being \n        // invoked and it's award Rewards should be calculated next time\n        if (currentBlock <= lastRewardBlock) return;\n\n        // calculate reward Rewards under current blocks\n        rewardsReadyToMinted = ICalculator(rewardCalculator).calculateReward(address(this), lastRewardBlock + 1, currentBlock);\n\n        // save all rewards to contract temporary\n        if (rewardsReadyToMinted > 0) {\n            if (feeRatio > 0) {\n                // only send rewards belong to community, reward belong to user would send when\n                // they withdraw reward manually\n                uint256 feeAmount = rewardsReadyToMinted.mul(feeRatio).div(CONSTANTS_10000);\n                retainedRevenue = retainedRevenue.add(feeAmount);\n\n                // only rewards belong to pools can used to compute shareAcc\n                rewardsReadyToMinted = rewardsReadyToMinted.mul(CONSTANTS_10000.sub(feeRatio)).div(CONSTANTS_10000);\n                emit PoolUpdated(feePayer, feeAmount);\n            }\n        }\n\n        for (uint16 i = 0; i < activedPools.length; i++) {\n            address poolAddress = activedPools[i];\n            uint256 totalStakedAmount = IPool(poolAddress).getTotalStakedAmount();\n            if(totalStakedAmount == 0 || poolRatios[poolAddress] == 0) continue;\n            uint256 poolRewards = rewardsReadyToMinted.mul(1e12).mul(poolRatios[poolAddress]).div(CONSTANTS_10000);\n            poolAcc[poolAddress] = poolAcc[poolAddress].add(poolRewards.div(totalStakedAmount));\n        }\n\n        lastRewardBlock = currentBlock;\n    }\n\n    function _checkRatioSum(uint16[] memory ratios) private pure {\n        uint16 ratioSum = 0;\n        for(uint8 i = 0; i < ratios.length; i++) {\n            ratioSum += ratios[i];\n        }\n        require(ratioSum == CONSTANTS_10000 || ratioSum == 0, 'RS!=1w');//Ratio summary not equal to 10000\n    }\n\n    function _updatePoolRatios(uint16[] memory ratios) private {\n        for (uint16 i = 0; i < activedPools.length; i++) {\n            poolRatios[activedPools[i]] = ratios[i];\n        }\n        emit AdminSetPoolRatio(activedPools, ratios);\n    }\n\n    function _unlockOrMintAsset(address recipient, uint256 amount) private {\n        if (isMintableCommunityToken) {\n            mintERC20(communityToken, address(recipient), amount);\n        } else {\n            releaseERC20(communityToken, address(recipient), amount);\n        }\n    }\n\n    function blockNum() public view returns (uint256) {\n        return ArbSys(address(100)).arbBlockNumber();\n    }\n}\n",
  "sourcePath": "/Users/wangxi/work/Walnut-V2/nutbox-contract/contracts/Community.sol",
  "compiler": {
    "name": "solc",
    "version": "0.8.0+commit.c7dfd78e.Emscripten.clang"
  },
  "schemaVersion": "3.3.4",
  "updatedAt": "2023-06-14T03:47:44.476Z",
  "devdoc": {
    "details": "Template contract of Nutbox staking based communnity. Community Contract always returns an entity of this contract. Support add serial staking pool into it.",
    "kind": "dev",
    "methods": {
      "owner()": {
        "details": "Returns the address of the current owner."
      },
      "renounceOwnership()": {
        "details": "Leaves the contract without owner. It will not be possible to call `onlyOwner` functions anymore. Can only be called by the current owner. NOTE: Renouncing ownership will leave the contract without an owner, thereby removing any functionality that is only available to the owner."
      },
      "transferOwnership(address)": {
        "details": "Transfers ownership of the contract to a new account (`newOwner`). Can only be called by the current owner."
      },
      "withdrawPoolsRewards(address[])": {
        "details": "This function would withdraw all rewards that exist in all pools which available for user This function will not only travel actived pools, but also closed pools"
      }
    },
    "version": 1
  },
  "userdoc": {
    "kind": "user",
    "methods": {},
    "version": 1
  }
}