{
  "contractName": "CosmosStaking",
  "abi": [
    {
      "inputs": [
        {
          "internalType": "address",
          "name": "_community",
          "type": "address"
        },
        {
          "internalType": "string",
          "name": "_name",
          "type": "string"
        },
        {
          "internalType": "uint8",
          "name": "_chainId",
          "type": "uint8"
        },
        {
          "internalType": "address",
          "name": "_delegatee",
          "type": "address"
        }
      ],
      "stateMutability": "nonpayable",
      "type": "constructor"
    },
    {
      "anonymous": false,
      "inputs": [
        {
          "indexed": true,
          "internalType": "address",
          "name": "community",
          "type": "address"
        },
        {
          "indexed": true,
          "internalType": "address",
          "name": "who",
          "type": "address"
        },
        {
          "indexed": false,
          "internalType": "uint256",
          "name": "previousAmount",
          "type": "uint256"
        },
        {
          "indexed": false,
          "internalType": "uint256",
          "name": "newAmount",
          "type": "uint256"
        }
      ],
      "name": "UpdateStaking",
      "type": "event"
    },
    {
      "inputs": [
        {
          "internalType": "address",
          "name": "",
          "type": "address"
        }
      ],
      "name": "accountBindMap",
      "outputs": [
        {
          "internalType": "address",
          "name": "",
          "type": "address"
        }
      ],
      "stateMutability": "view",
      "type": "function"
    },
    {
      "inputs": [],
      "name": "delegatee",
      "outputs": [
        {
          "internalType": "address",
          "name": "",
          "type": "address"
        }
      ],
      "stateMutability": "view",
      "type": "function"
    },
    {
      "inputs": [],
      "name": "name",
      "outputs": [
        {
          "internalType": "string",
          "name": "",
          "type": "string"
        }
      ],
      "stateMutability": "view",
      "type": "function"
    },
    {
      "inputs": [],
      "name": "totalStakedAmount",
      "outputs": [
        {
          "internalType": "uint256",
          "name": "",
          "type": "uint256"
        }
      ],
      "stateMutability": "view",
      "type": "function"
    },
    {
      "inputs": [
        {
          "internalType": "uint8",
          "name": "_chainId",
          "type": "uint8"
        },
        {
          "internalType": "address",
          "name": "_delegatee",
          "type": "address"
        },
        {
          "internalType": "address",
          "name": "depositor",
          "type": "address"
        },
        {
          "internalType": "uint256",
          "name": "amount",
          "type": "uint256"
        },
        {
          "internalType": "address",
          "name": "_bindAccount",
          "type": "address"
        }
      ],
      "name": "update",
      "outputs": [],
      "stateMutability": "nonpayable",
      "type": "function"
    },
    {
      "inputs": [],
      "name": "getFactory",
      "outputs": [
        {
          "internalType": "address",
          "name": "",
          "type": "address"
        }
      ],
      "stateMutability": "view",
      "type": "function"
    },
    {
      "inputs": [],
      "name": "getCommunity",
      "outputs": [
        {
          "internalType": "address",
          "name": "",
          "type": "address"
        }
      ],
      "stateMutability": "view",
      "type": "function"
    },
    {
      "inputs": [
        {
          "internalType": "address",
          "name": "user",
          "type": "address"
        }
      ],
      "name": "getUserStakedAmount",
      "outputs": [
        {
          "internalType": "uint256",
          "name": "",
          "type": "uint256"
        }
      ],
      "stateMutability": "view",
      "type": "function"
    },
    {
      "inputs": [],
      "name": "getTotalStakedAmount",
      "outputs": [
        {
          "internalType": "uint256",
          "name": "",
          "type": "uint256"
        }
      ],
      "stateMutability": "view",
      "type": "function"
    },
    {
      "inputs": [
        {
          "internalType": "address",
          "name": "user",
          "type": "address"
        }
      ],
      "name": "getUserDepositInfo",
      "outputs": [
        {
          "components": [
            {
              "internalType": "bool",
              "name": "hasDeposited",
              "type": "bool"
            },
            {
              "internalType": "uint256",
              "name": "amount",
              "type": "uint256"
            },
            {
              "internalType": "address",
              "name": "bindAccount",
              "type": "address"
            }
          ],
          "internalType": "struct CosmosStaking.StakingInfo",
          "name": "",
          "type": "tuple"
        }
      ],
      "stateMutability": "view",
      "type": "function"
    }
  ],
  "bytecode": "0x60e06040523480156200001157600080fd5b506040516200124c3803806200124c833981016040819052620000349162000189565b33606090811b60805284901b6001600160601b03191660a052825162000062906002906020860190620000b4565b50600380546001600160a01b0319166001600160a01b039290921691909117905560f81b7fff000000000000000000000000000000000000000000000000000000000000001660c05250620003199050565b828054620000c29062000294565b90600052602060002090601f016020900481019282620000e6576000855562000131565b82601f106200010157805160ff191683800117855562000131565b8280016001018555821562000131579182015b828111156200013157825182559160200191906001019062000114565b506200013f92915062000143565b5090565b5b808211156200013f576000815560010162000144565b80516001600160a01b03811681146200017257600080fd5b919050565b805160ff811681146200017257600080fd5b600080600080608085870312156200019f578384fd5b620001aa856200015a565b602086810151919550906001600160401b0380821115620001c9578586fd5b818801915088601f830112620001dd578586fd5b815181811115620001f257620001f2620002ea565b604051601f8201601f1916810185018381118282101715620002185762000218620002ea565b60405281815283820185018b10156200022f578788fd5b8792505b8183101562000252578383018501518184018601529184019162000233565b818311156200026357878583830101525b8097505050505050620002796040860162000177565b915062000289606086016200015a565b905092959194509250565b600281046001821680620002a957607f821691505b60208210811415620002e4577f4e487b7100000000000000000000000000000000000000000000000000000000600052602260045260246000fd5b50919050565b7f4e487b7100000000000000000000000000000000000000000000000000000000600052604160045260246000fd5b60805160601c60a05160601c60c05160f81c610ebb6200039160003960006102c40152600081816103d901528181610546015281816105f6015281816106a00152818161078801528181610840015281816108e901526109f80152600081816102120152818161057301526109610152610ebb6000f3fe608060405234801561001057600080fd5b506004361061009e5760003560e01c806388cc58e41161006657806388cc58e41461010857806394465b2114610110578063b3a7834d14610123578063c51db6b214610143578063e73df6741461014b5761009e565b806306fdde03146100a35780631e31d053146100c15780632b8509a7146100d657806338adb6f0146100eb578063567e98f914610100575b600080fd5b6100ab61015e565b6040516100b89190610ba0565b60405180910390f35b6100c96101ec565b6040516100b89190610b59565b6100e96100e4366004610af5565b6101fb565b005b6100f3610953565b6040516100b89190610d93565b6100f3610959565b6100c961095f565b6100f361011e366004610aa3565b610983565b610136610131366004610aa3565b6109a6565b6040516100b89190610d67565b6100c96109f6565b6100c9610159366004610aa3565b610a1a565b6002805461016b90610e34565b80601f016020809104026020016040519081016040528092919081815260200182805461019790610e34565b80156101e45780601f106101b9576101008083540402835291602001916101e4565b820191906000526020600020905b8154815290600101906020018083116101c757829003601f168201915b505050505081565b6003546001600160a01b031681565b6040516372923f6d60e11b81526001600160a01b037f0000000000000000000000000000000000000000000000000000000000000000169063e5247eda906102499088903390600401610daa565b60206040518083038186803b15801561026157600080fd5b505afa158015610275573d6000803e3d6000fd5b505050506040513d601f19601f820116820180604052508101906102999190610abd565b6102be5760405162461bcd60e51b81526004016102b590610c9a565b60405180910390fd5b8460ff167f000000000000000000000000000000000000000000000000000000000000000060ff16146103035760405162461bcd60e51b81526004016102b590610d08565b6003546001600160a01b038581169116146103305760405162461bcd60e51b81526004016102b590610c63565b6001600160a01b0381811660009081526020819052604090205416158061037357506001600160a01b038181166000908152602081905260409020548116908416145b61038f5760405162461bcd60e51b81526004016102b590610cd1565b6001600160a01b03831660009081526001602081905260409091200154828114156103ba575061094c565b8281101561047a57604051634c7b4f4d60e11b81526001600160a01b037f000000000000000000000000000000000000000000000000000000000000000016906398f69e9a9061040e903090600401610b59565b60206040518083038186803b15801561042657600080fd5b505afa15801561043a573d6000803e3d6000fd5b505050506040513d601f19601f8201168201806040525081019061045e9190610abd565b61047a5760405162461bcd60e51b81526004016102b590610c22565b6001600160a01b03841660009081526001602052604090205460ff166104f0576001600160a01b038085166000818152600160208181526040808420805460ff19169093178355600290920180549588166001600160a01b0319968716811790915583528290529020805490921617905561052f565b6001600160a01b0384811660009081526001602052604090206002015481169083161461052f5760405162461bcd60e51b81526004016102b590610d30565b60405163579dea7960e11b81526001600160a01b037f0000000000000000000000000000000000000000000000000000000000000000169063af3bd4f29061059b907f000000000000000000000000000000000000000000000000000000000000000090600401610bf3565b600060405180830381600087803b1580156105b557600080fd5b505af11580156105c9573d6000803e3d6000fd5b505050506001600160a01b03841660009081526001602081905260409091200154156107f45760006107697f00000000000000000000000000000000000000000000000000000000000000006001600160a01b031663a2a00ed630886040518363ffffffff1660e01b8152600401610642929190610b6d565b60206040518083038186803b15801561065a57600080fd5b505afa15801561066e573d6000803e3d6000fd5b505050506040513d601f19601f820116820180604052508101906106929190610add565b61076364e8d4a5100061075d7f00000000000000000000000000000000000000000000000000000000000000006001600160a01b031663a1a89dbc306040518263ffffffff1660e01b81526004016106ea9190610b59565b60206040518083038186803b15801561070257600080fd5b505afa158015610716573d6000803e3d6000fd5b505050506040513d601f19601f8201168201806040525081019061073a9190610add565b6001600160a01b038b166000908152600160208190526040909120015490610a35565b90610a48565b90610a54565b905080156107f257604051631df36e4160e31b81526001600160a01b037f0000000000000000000000000000000000000000000000000000000000000000169063ef9b7208906107bf9088908590600401610b87565b600060405180830381600087803b1580156107d957600080fd5b505af11580156107ed573d6000803e3d6000fd5b505050505b505b61080d8161076385600454610a6090919063ffffffff16565b60049081556001600160a01b03808616600090815260016020819052604091829020018690555163286a276f60e21b81527f00000000000000000000000000000000000000000000000000000000000000009091169163bf16c3c291879161088e9164e8d4a510009161075d91879163a1a89dbc916106ea91309101610b59565b6040518363ffffffff1660e01b81526004016108ab929190610b87565b600060405180830381600087803b1580156108c557600080fd5b505af11580156108d9573d6000803e3d6000fd5b50505050836001600160a01b03167f00000000000000000000000000000000000000000000000000000000000000006001600160a01b03167f8572960e25f62a888f92ba98fda1ca3cba3fc98b664e8ae79fdc97a644c7bae48386604051610942929190610d9c565b60405180910390a3505b5050505050565b60045490565b60045481565b7f000000000000000000000000000000000000000000000000000000000000000090565b6001600160a01b038116600090815260016020819052604090912001545b919050565b6109ae610a6c565b506001600160a01b039081166000908152600160208181526040928390208351606081018552815460ff16151581529281015491830191909152600201549092169082015290565b7f000000000000000000000000000000000000000000000000000000000000000090565b6000602081905290815260409020546001600160a01b031681565b6000610a418284610dfe565b9392505050565b6000610a418284610dde565b6000610a418284610e1d565b6000610a418284610dc6565b604080516060810182526000808252602082018190529181019190915290565b80356001600160a01b03811681146109a157600080fd5b600060208284031215610ab4578081fd5b610a4182610a8c565b600060208284031215610ace578081fd5b81518015158114610a41578182fd5b600060208284031215610aee578081fd5b5051919050565b600080600080600060a08688031215610b0c578081fd5b853560ff81168114610b1c578182fd5b9450610b2a60208701610a8c565b9350610b3860408701610a8c565b925060608601359150610b4d60808701610a8c565b90509295509295909350565b6001600160a01b0391909116815260200190565b6001600160a01b0392831681529116602082015260400190565b6001600160a01b03929092168252602082015260400190565b6000602080835283518082850152825b81811015610bcc57858101830151858201604001528201610bb0565b81811115610bdd5783604083870101525b50601f01601f1916929092016040019392505050565b6040808252600490820152632aa9a2a960e11b60608201526001600160a01b0391909116602082015260800190565b60208082526021908201527f43616e206e6f74206465706f73697420746f206120636c6f73656420706f6f6c6040820152601760f91b606082015260800190565b60208082526017908201527f57726f6e672064656c656761746565206163636f756e74000000000000000000604082015260600190565b6020808252601d908201527f4f6e6c79207665726966696564206272696467652063616e2063616c6c000000604082015260600190565b6020808252601a908201527f426f756e6420627363206163636f756e74206469736d61746368000000000000604082015260600190565b6020808252600e908201526d15dc9bdb99c818da185a5b881a5960921b604082015260600190565b6020808252601d908201527f426f756e6420636f736d6f73206163636f756e74206469736d61746368000000604082015260600190565b815115158152602080830151908201526040918201516001600160a01b03169181019190915260600190565b90815260200190565b918252602082015260400190565b60ff9290921682526001600160a01b0316602082015260400190565b60008219821115610dd957610dd9610e6f565b500190565b600082610df957634e487b7160e01b81526012600452602481fd5b500490565b6000816000190483118215151615610e1857610e18610e6f565b500290565b600082821015610e2f57610e2f610e6f565b500390565b600281046001821680610e4857607f821691505b60208210811415610e6957634e487b7160e01b600052602260045260246000fd5b50919050565b634e487b7160e01b600052601160045260246000fdfea2646970667358221220c5c1f4117be040549d961875d6462f868d10e23919d534c7ec0d198195a5c6cc64736f6c63430008000033",
  "immutableReferences": {
    "10508": [
      {
        "length": 32,
        "start": 530
      },
      {
        "length": 32,
        "start": 1395
      },
      {
        "length": 32,
        "start": 2401
      }
    ],
    "10512": [
      {
        "length": 32,
        "start": 985
      },
      {
        "length": 32,
        "start": 1350
      },
      {
        "length": 32,
        "start": 1526
      },
      {
        "length": 32,
        "start": 1696
      },
      {
        "length": 32,
        "start": 1928
      },
      {
        "length": 32,
        "start": 2112
      },
      {
        "length": 32,
        "start": 2281
      },
      {
        "length": 32,
        "start": 2552
      }
    ],
    "10516": [
      {
        "length": 32,
        "start": 708
      }
    ]
  },
  "source": "// SPDX-License-Identifier: MIT\n\npragma solidity 0.8.0;\npragma experimental ABIEncoderV2;\n\nimport \"@openzeppelin/contracts/utils/math/SafeMath.sol\";\nimport \"../../interfaces/ICommunity.sol\";\nimport \"../../interfaces/IPool.sol\";\nimport \"./CosmosStakingFactory.sol\";\n\n/**\n * @dev Template contract of Atom staking pool.\n * Delegation only can be updated through update() by bridge.\n *\n */\ncontract CosmosStaking is IPool {\n    using SafeMath for uint256;\n\n    struct StakingInfo {\n        // First time when user staking, we need set options like userDebt to zero\n        bool hasDeposited;\n        // User staked amount\n        uint256 amount;\n        // User's foreign account identity\n        address bindAccount;\n    }\n\n    // fetch address use bound account\n    mapping(address => address) public accountBindMap;\n\n    // stakingInfo used to save every user's staking information,\n    // including how many they deposited and its external chain account\n    // ( we support crosschain asset staking). With every staking event\n    // happened including deposit and withdraw asset this field should be updated.\n    mapping(address => StakingInfo) stakingInfo;\n\n    address immutable factory;\n    string public name;\n\n    // community that pool belongs to\n    address immutable community;\n    // delegatee account,the pubkey of cosmos is bytes20, so here encode it to address\n    // It should be convert to specify format to the corresponding blockchain\n    address public delegatee;\n    // chain id: atom: 3  osmo: 4\n    uint8 immutable chainId;\n\n    // Total staked amount\n    uint256 public totalStakedAmount;\n\n    event UpdateStaking(\n        address indexed community,\n        address indexed who,\n        uint256 previousAmount,\n        uint256 newAmount\n    );\n\n    constructor(address _community, string memory _name, uint8 _chainId, address _delegatee) {\n        factory = msg.sender;\n        community = _community;\n        name = _name;\n        delegatee = _delegatee;\n        chainId = _chainId;\n    }\n\n    function update(\n        uint8 _chainId,\n        address _delegatee,\n        address depositor,\n        uint256 amount,\n        address _bindAccount\n    ) external {\n        require(CosmosStakingFactory(factory).isBridge(_chainId, msg.sender), \"Only verified bridge can call\");\n        require(chainId == _chainId, \"Wrong chain id\");\n        require(delegatee == _delegatee, \"Wrong delegatee account\");\n        require(accountBindMap[_bindAccount] == address(0) || accountBindMap[_bindAccount] == depositor, \"Bound bsc account dismatch\");\n\n        uint256 prevAmount = stakingInfo[depositor].amount;\n        if (prevAmount == amount) return;\n        if (prevAmount < amount) {\n            // deposit\n            require(ICommunity(community).poolActived(address(this)), 'Can not deposit to a closed pool.');\n        }\n\n        // Add to staking list if account hasn't deposited before\n        if (!stakingInfo[depositor].hasDeposited) {\n            stakingInfo[depositor].hasDeposited = true;\n            stakingInfo[depositor].bindAccount = _bindAccount;\n            accountBindMap[_bindAccount] = depositor;\n        } else {\n            require(stakingInfo[depositor].bindAccount == _bindAccount,\n                \"Bound cosmos account dismatch\"\n            );\n        }\n\n        // trigger community update all pool staking info, send factory as fee payer to ignore fee payment.\n        ICommunity(community).updatePools(\"USER\", factory);\n\n        if (stakingInfo[depositor].amount > 0) {\n            uint256 pending = stakingInfo[depositor]\n                .amount\n                .mul(ICommunity(community).getShareAcc(address(this)))\n                .div(1e12)\n                .sub(ICommunity(community).getUserDebt(address(this), depositor));\n            if (pending > 0) {\n                ICommunity(community).appendUserReward(depositor, pending);\n            }\n        }\n\n        totalStakedAmount = totalStakedAmount.add(amount).sub(prevAmount);\n        stakingInfo[depositor].amount = amount;\n\n        ICommunity(community).setUserDebt(\n            depositor,\n            stakingInfo[depositor]\n            .amount\n            .mul(ICommunity(community).getShareAcc(address(this)))\n            .div(1e12));\n        \n        emit UpdateStaking(community, depositor, prevAmount, amount);\n    }\n\n    function getFactory() external view override returns (address) {\n        return factory;\n    }\n\n    function getCommunity() external view override returns (address) {\n        return community;\n    }\n\n    function getUserStakedAmount(address user)\n        external\n        view\n        override returns (uint256)\n    {\n        return stakingInfo[user].amount;\n    }\n\n    function getTotalStakedAmount()\n        external\n        view\n        override returns (uint256)\n    {\n        return totalStakedAmount;\n    }\n\n    function getUserDepositInfo(address user)\n        external\n        view\n        returns (StakingInfo memory)\n    {\n        return stakingInfo[user];\n    }\n}\n",
  "sourcePath": "/Users/necklace/work/nutbox/nutbox-contract/contracts/dapps/cosmos-atom/CosmosStaking.sol",
  "compiler": {
    "name": "solc",
    "version": "0.8.0+commit.c7dfd78e.Emscripten.clang"
  },
  "schemaVersion": "3.4.11",
  "updatedAt": "2022-12-27T12:17:35.172Z",
  "devdoc": {
    "details": "Template contract of Atom staking pool. Delegation only can be updated through update() by bridge.",
    "kind": "dev",
    "methods": {},
    "version": 1
  },
  "userdoc": {
    "kind": "user",
    "methods": {},
    "version": 1
  }
}