{
  "contractName": "CosmosStakingFactory",
  "abi": [
    {
      "inputs": [
        {
          "internalType": "address",
          "name": "_communityFactory",
          "type": "address"
        }
      ],
      "stateMutability": "nonpayable",
      "type": "constructor"
    },
    {
      "anonymous": false,
      "inputs": [
        {
          "indexed": true,
          "internalType": "uint8",
          "name": "chainId",
          "type": "uint8"
        },
        {
          "indexed": true,
          "internalType": "address",
          "name": "bridge",
          "type": "address"
        }
      ],
      "name": "AdminAddBridge",
      "type": "event"
    },
    {
      "anonymous": false,
      "inputs": [
        {
          "indexed": true,
          "internalType": "uint8",
          "name": "chainId",
          "type": "uint8"
        },
        {
          "indexed": true,
          "internalType": "address",
          "name": "bridge",
          "type": "address"
        }
      ],
      "name": "AdminRemoveBridge",
      "type": "event"
    },
    {
      "anonymous": false,
      "inputs": [
        {
          "indexed": true,
          "internalType": "address",
          "name": "pool",
          "type": "address"
        },
        {
          "indexed": true,
          "internalType": "address",
          "name": "community",
          "type": "address"
        },
        {
          "indexed": false,
          "internalType": "string",
          "name": "name",
          "type": "string"
        },
        {
          "indexed": false,
          "internalType": "uint8",
          "name": "chainId",
          "type": "uint8"
        },
        {
          "indexed": false,
          "internalType": "address",
          "name": "delegatee",
          "type": "address"
        }
      ],
      "name": "CosmosStakingCreated",
      "type": "event"
    },
    {
      "anonymous": false,
      "inputs": [
        {
          "indexed": true,
          "internalType": "address",
          "name": "previousOwner",
          "type": "address"
        },
        {
          "indexed": true,
          "internalType": "address",
          "name": "newOwner",
          "type": "address"
        }
      ],
      "name": "OwnershipTransferred",
      "type": "event"
    },
    {
      "inputs": [],
      "name": "communityFactory",
      "outputs": [
        {
          "internalType": "address",
          "name": "",
          "type": "address"
        }
      ],
      "stateMutability": "view",
      "type": "function"
    },
    {
      "inputs": [
        {
          "internalType": "uint8",
          "name": "",
          "type": "uint8"
        },
        {
          "internalType": "address",
          "name": "",
          "type": "address"
        }
      ],
      "name": "isBridge",
      "outputs": [
        {
          "internalType": "bool",
          "name": "",
          "type": "bool"
        }
      ],
      "stateMutability": "view",
      "type": "function"
    },
    {
      "inputs": [],
      "name": "owner",
      "outputs": [
        {
          "internalType": "address",
          "name": "",
          "type": "address"
        }
      ],
      "stateMutability": "view",
      "type": "function"
    },
    {
      "inputs": [],
      "name": "renounceOwnership",
      "outputs": [],
      "stateMutability": "nonpayable",
      "type": "function"
    },
    {
      "inputs": [
        {
          "internalType": "address",
          "name": "newOwner",
          "type": "address"
        }
      ],
      "name": "transferOwnership",
      "outputs": [],
      "stateMutability": "nonpayable",
      "type": "function"
    },
    {
      "inputs": [],
      "name": "getFeeInfo",
      "outputs": [
        {
          "internalType": "address",
          "name": "",
          "type": "address"
        },
        {
          "internalType": "uint256",
          "name": "",
          "type": "uint256"
        }
      ],
      "stateMutability": "view",
      "type": "function"
    },
    {
      "inputs": [
        {
          "internalType": "address",
          "name": "community",
          "type": "address"
        },
        {
          "internalType": "string",
          "name": "name",
          "type": "string"
        },
        {
          "internalType": "bytes",
          "name": "meta",
          "type": "bytes"
        }
      ],
      "name": "createPool",
      "outputs": [
        {
          "internalType": "address",
          "name": "",
          "type": "address"
        }
      ],
      "stateMutability": "nonpayable",
      "type": "function"
    },
    {
      "inputs": [
        {
          "internalType": "uint8",
          "name": "_chainId",
          "type": "uint8"
        },
        {
          "internalType": "address",
          "name": "_bridge",
          "type": "address"
        }
      ],
      "name": "adminAddBridge",
      "outputs": [],
      "stateMutability": "nonpayable",
      "type": "function"
    },
    {
      "inputs": [
        {
          "internalType": "uint8",
          "name": "_chainId",
          "type": "uint8"
        },
        {
          "internalType": "address",
          "name": "_bridge",
          "type": "address"
        }
      ],
      "name": "adminRemoveBridge",
      "outputs": [],
      "stateMutability": "nonpayable",
      "type": "function"
    }
  ],
  "bytecode": "0x60a06040526509184e72a00060025534801561001a57600080fd5b50604051611f32380380611f32833981016040819052610039916100fb565b6100496100446100a7565b6100ab565b6001600160a01b038116610092576040517f08c379a000000000000000000000000000000000000000000000000000000000815260040161008990610129565b60405180910390fd5b60601b6001600160601b031916608052610160565b3390565b600080546001600160a01b038381166001600160a01b0319831681178455604051919092169283917f8be0079c531659141344cd1fd0a4f28419497f9722a3daafe3b4186f6b6457e09190a35050565b60006020828403121561010c578081fd5b81516001600160a01b0381168114610122578182fd5b9392505050565b6020808252600f908201527f496e76616c696420616464726573730000000000000000000000000000000000604082015260600190565b60805160601c611dad6101856000396000818161029601526105630152611dad6000f3fe60806040523480156200001157600080fd5b50600436106200009f5760003560e01c8063b883cc2a116200006f578063b883cc2a1462000103578063e5247eda146200011a578063eadef9bb1462000140578063f2fde38b1462000157578063fac8a610146200016e576200009f565b806202eab714620000a45780634040768c14620000c7578063715018a614620000e05780638da5cb5b14620000ea575b600080fd5b620000ae62000178565b604051620000be9291906200091f565b60405180910390f35b620000de620000d836600462000840565b62000190565b005b620000de6200022b565b620000f462000243565b604051620000be9190620008cb565b620000f46200011436600462000735565b62000252565b620001316200012b36600462000840565b62000473565b604051620000be919062000938565b620000de6200015136600462000840565b62000493565b620000de6200016836600462000711565b62000520565b620000f462000561565b6000806200018562000243565b600254915091509091565b6200019a62000585565b6001600160a01b038116620001cc5760405162461bcd60e51b8152600401620001c3906200097b565b60405180910390fd5b60ff821660008181526001602081815260408084206001600160a01b0387168086529252808420805460ff191690931790925590519092917f61fe8d00fc1fc3740ddf3274c6ed063cf44f8aad526f5786ab55a7da3793c09291a35050565b6200023562000585565b620002416000620005cb565b565b6000546001600160a01b031690565b60006001600160a01b03851633146200027f5760405162461bcd60e51b8152600401620001c390620009ea565b604051633454a5b760e11b81526001600160a01b037f000000000000000000000000000000000000000000000000000000000000000016906368a94b6e90620002cd908890600401620008cb565b60206040518083038186803b158015620002e657600080fd5b505afa158015620002fb573d6000803e3d6000fd5b505050506040513d601f19601f820116820180604052508101906200032191906200081e565b620003405760405162461bcd60e51b8152600401620001c39062000a98565b600062000388600085858080601f01602080910402602001604051908101604052809392919081815260200183838082843760009201919091525092939250506200061b9050565b90506000620003d2600186868080601f0160208091040260200160405190810160405280939291908181526020018383808284376000920191909152509293925050620006569050565b9050600087878484604051620003e8906200069c565b620003f79493929190620008df565b604051809103906000f08015801562000414573d6000803e3d6000fd5b509050876001600160a01b0316816001600160a01b03167f9dc0534a7e6ff3805b6764eebcb730c12d1df3eaa0edb613388fec082cd89ce5898686604051620004609392919062000943565b60405180910390a3979650505050505050565b600160209081526000928352604080842090915290825290205460ff1681565b6200049d62000585565b6001600160a01b038116620004c65760405162461bcd60e51b8152600401620001c3906200097b565b60ff821660008181526001602090815260408083206001600160a01b0386168085529252808320805460ff19169055519092917f6e231a60b8d8b543cda9d08b527a8f288d6e61728f0af434c56cb526b930a43591a35050565b6200052a62000585565b6001600160a01b038116620005535760405162461bcd60e51b8152600401620001c390620009a4565b6200055e81620005cb565b50565b7f000000000000000000000000000000000000000000000000000000000000000081565b6200058f62000698565b6001600160a01b0316620005a262000243565b6001600160a01b031614620002415760405162461bcd60e51b8152600401620001c39062000a34565b600080546001600160a01b038381166001600160a01b0319831681178455604051919092169283917f8be0079c531659141344cd1fd0a4f28419497f9722a3daafe3b4186f6b6457e09190a35050565b60006200062a82600162000af0565b835110156200064d5760405162461bcd60e51b8152600401620001c39062000ac3565b50016001015190565b60006200066582601462000af0565b83511015620006885760405162461bcd60e51b8152600401620001c39062000a69565b500160200151600160601b900490565b3390565b61124c8062000b2c83390190565b80356001600160a01b0381168114620006c257600080fd5b919050565b60008083601f840112620006d9578081fd5b50813567ffffffffffffffff811115620006f1578182fd5b6020830191508360208285010111156200070a57600080fd5b9250929050565b60006020828403121562000723578081fd5b6200072e82620006aa565b9392505050565b600080600080606085870312156200074b578283fd5b6200075685620006aa565b935060208086013567ffffffffffffffff8082111562000774578586fd5b818801915088601f83011262000788578586fd5b8135818111156200079d576200079d62000b15565b604051601f8201601f1916810185018381118282101715620007c357620007c362000b15565b60405281815283820185018b1015620007da578788fd5b8185850186830137878583830101528097505050604088013592508083111562000802578485fd5b50506200081287828801620006c7565b95989497509550505050565b60006020828403121562000830578081fd5b815180151581146200072e578182fd5b6000806040838503121562000853578182fd5b823560ff8116811462000864578283fd5b91506200087460208401620006aa565b90509250929050565b60008151808452815b81811015620008a45760208185018101518683018201520162000886565b81811115620008b65782602083870101525b50601f01601f19169290920160200192915050565b6001600160a01b0391909116815260200190565b600060018060a01b038087168352608060208401526200090360808401876200087d565b60ff959095166040840152929092166060909101525092915050565b6001600160a01b03929092168252602082015260400190565b901515815260200190565b6000606082526200095860608301866200087d565b60ff949094166020830152506001600160a01b0391909116604090910152919050565b6020808252600f908201526e496e76616c6964206164647265737360881b604082015260600190565b60208082526026908201527f4f776e61626c653a206e6577206f776e657220697320746865207a65726f206160408201526564647265737360d01b606082015260800190565b6020808252602a908201527f5065726d697373696f6e2064656e6965643a2063616c6c6572206973206e6f7460408201526920636f6d6d756e69747960b01b606082015260800190565b6020808252818101527f4f776e61626c653a2063616c6c6572206973206e6f7420746865206f776e6572604082015260600190565b602080825260159082015274746f416464726573735f6f75744f66426f756e647360581b604082015260600190565b602080825260119082015270496e76616c696420636f6d6d756e69747960781b604082015260600190565b602080825260139082015272746f55696e74385f6f75744f66426f756e647360681b604082015260600190565b6000821982111562000b1057634e487b7160e01b81526011600452602481fd5b500190565b634e487b7160e01b600052604160045260246000fdfe60e06040523480156200001157600080fd5b506040516200124c3803806200124c833981016040819052620000349162000189565b33606090811b60805284901b6001600160601b03191660a052825162000062906002906020860190620000b4565b50600380546001600160a01b0319166001600160a01b039290921691909117905560f81b7fff000000000000000000000000000000000000000000000000000000000000001660c05250620003199050565b828054620000c29062000294565b90600052602060002090601f016020900481019282620000e6576000855562000131565b82601f106200010157805160ff191683800117855562000131565b8280016001018555821562000131579182015b828111156200013157825182559160200191906001019062000114565b506200013f92915062000143565b5090565b5b808211156200013f576000815560010162000144565b80516001600160a01b03811681146200017257600080fd5b919050565b805160ff811681146200017257600080fd5b600080600080608085870312156200019f578384fd5b620001aa856200015a565b602086810151919550906001600160401b0380821115620001c9578586fd5b818801915088601f830112620001dd578586fd5b815181811115620001f257620001f2620002ea565b604051601f8201601f1916810185018381118282101715620002185762000218620002ea565b60405281815283820185018b10156200022f578788fd5b8792505b8183101562000252578383018501518184018601529184019162000233565b818311156200026357878583830101525b8097505050505050620002796040860162000177565b915062000289606086016200015a565b905092959194509250565b600281046001821680620002a957607f821691505b60208210811415620002e4577f4e487b7100000000000000000000000000000000000000000000000000000000600052602260045260246000fd5b50919050565b7f4e487b7100000000000000000000000000000000000000000000000000000000600052604160045260246000fd5b60805160601c60a05160601c60c05160f81c610ebb6200039160003960006102c40152600081816103d901528181610546015281816105f6015281816106a00152818161078801528181610840015281816108e901526109f80152600081816102120152818161057301526109610152610ebb6000f3fe608060405234801561001057600080fd5b506004361061009e5760003560e01c806388cc58e41161006657806388cc58e41461010857806394465b2114610110578063b3a7834d14610123578063c51db6b214610143578063e73df6741461014b5761009e565b806306fdde03146100a35780631e31d053146100c15780632b8509a7146100d657806338adb6f0146100eb578063567e98f914610100575b600080fd5b6100ab61015e565b6040516100b89190610ba0565b60405180910390f35b6100c96101ec565b6040516100b89190610b59565b6100e96100e4366004610af5565b6101fb565b005b6100f3610953565b6040516100b89190610d93565b6100f3610959565b6100c961095f565b6100f361011e366004610aa3565b610983565b610136610131366004610aa3565b6109a6565b6040516100b89190610d67565b6100c96109f6565b6100c9610159366004610aa3565b610a1a565b6002805461016b90610e34565b80601f016020809104026020016040519081016040528092919081815260200182805461019790610e34565b80156101e45780601f106101b9576101008083540402835291602001916101e4565b820191906000526020600020905b8154815290600101906020018083116101c757829003601f168201915b505050505081565b6003546001600160a01b031681565b6040516372923f6d60e11b81526001600160a01b037f0000000000000000000000000000000000000000000000000000000000000000169063e5247eda906102499088903390600401610daa565b60206040518083038186803b15801561026157600080fd5b505afa158015610275573d6000803e3d6000fd5b505050506040513d601f19601f820116820180604052508101906102999190610abd565b6102be5760405162461bcd60e51b81526004016102b590610c9a565b60405180910390fd5b8460ff167f000000000000000000000000000000000000000000000000000000000000000060ff16146103035760405162461bcd60e51b81526004016102b590610d08565b6003546001600160a01b038581169116146103305760405162461bcd60e51b81526004016102b590610c63565b6001600160a01b0381811660009081526020819052604090205416158061037357506001600160a01b038181166000908152602081905260409020548116908416145b61038f5760405162461bcd60e51b81526004016102b590610cd1565b6001600160a01b03831660009081526001602081905260409091200154828114156103ba575061094c565b8281101561047a57604051634c7b4f4d60e11b81526001600160a01b037f000000000000000000000000000000000000000000000000000000000000000016906398f69e9a9061040e903090600401610b59565b60206040518083038186803b15801561042657600080fd5b505afa15801561043a573d6000803e3d6000fd5b505050506040513d601f19601f8201168201806040525081019061045e9190610abd565b61047a5760405162461bcd60e51b81526004016102b590610c22565b6001600160a01b03841660009081526001602052604090205460ff166104f0576001600160a01b038085166000818152600160208181526040808420805460ff19169093178355600290920180549588166001600160a01b0319968716811790915583528290529020805490921617905561052f565b6001600160a01b0384811660009081526001602052604090206002015481169083161461052f5760405162461bcd60e51b81526004016102b590610d30565b60405163579dea7960e11b81526001600160a01b037f0000000000000000000000000000000000000000000000000000000000000000169063af3bd4f29061059b907f000000000000000000000000000000000000000000000000000000000000000090600401610bf3565b600060405180830381600087803b1580156105b557600080fd5b505af11580156105c9573d6000803e3d6000fd5b505050506001600160a01b03841660009081526001602081905260409091200154156107f45760006107697f00000000000000000000000000000000000000000000000000000000000000006001600160a01b031663a2a00ed630886040518363ffffffff1660e01b8152600401610642929190610b6d565b60206040518083038186803b15801561065a57600080fd5b505afa15801561066e573d6000803e3d6000fd5b505050506040513d601f19601f820116820180604052508101906106929190610add565b61076364e8d4a5100061075d7f00000000000000000000000000000000000000000000000000000000000000006001600160a01b031663a1a89dbc306040518263ffffffff1660e01b81526004016106ea9190610b59565b60206040518083038186803b15801561070257600080fd5b505afa158015610716573d6000803e3d6000fd5b505050506040513d601f19601f8201168201806040525081019061073a9190610add565b6001600160a01b038b166000908152600160208190526040909120015490610a35565b90610a48565b90610a54565b905080156107f257604051631df36e4160e31b81526001600160a01b037f0000000000000000000000000000000000000000000000000000000000000000169063ef9b7208906107bf9088908590600401610b87565b600060405180830381600087803b1580156107d957600080fd5b505af11580156107ed573d6000803e3d6000fd5b505050505b505b61080d8161076385600454610a6090919063ffffffff16565b60049081556001600160a01b03808616600090815260016020819052604091829020018690555163286a276f60e21b81527f00000000000000000000000000000000000000000000000000000000000000009091169163bf16c3c291879161088e9164e8d4a510009161075d91879163a1a89dbc916106ea91309101610b59565b6040518363ffffffff1660e01b81526004016108ab929190610b87565b600060405180830381600087803b1580156108c557600080fd5b505af11580156108d9573d6000803e3d6000fd5b50505050836001600160a01b03167f00000000000000000000000000000000000000000000000000000000000000006001600160a01b03167f8572960e25f62a888f92ba98fda1ca3cba3fc98b664e8ae79fdc97a644c7bae48386604051610942929190610d9c565b60405180910390a3505b5050505050565b60045490565b60045481565b7f000000000000000000000000000000000000000000000000000000000000000090565b6001600160a01b038116600090815260016020819052604090912001545b919050565b6109ae610a6c565b506001600160a01b039081166000908152600160208181526040928390208351606081018552815460ff16151581529281015491830191909152600201549092169082015290565b7f000000000000000000000000000000000000000000000000000000000000000090565b6000602081905290815260409020546001600160a01b031681565b6000610a418284610dfe565b9392505050565b6000610a418284610dde565b6000610a418284610e1d565b6000610a418284610dc6565b604080516060810182526000808252602082018190529181019190915290565b80356001600160a01b03811681146109a157600080fd5b600060208284031215610ab4578081fd5b610a4182610a8c565b600060208284031215610ace578081fd5b81518015158114610a41578182fd5b600060208284031215610aee578081fd5b5051919050565b600080600080600060a08688031215610b0c578081fd5b853560ff81168114610b1c578182fd5b9450610b2a60208701610a8c565b9350610b3860408701610a8c565b925060608601359150610b4d60808701610a8c565b90509295509295909350565b6001600160a01b0391909116815260200190565b6001600160a01b0392831681529116602082015260400190565b6001600160a01b03929092168252602082015260400190565b6000602080835283518082850152825b81811015610bcc57858101830151858201604001528201610bb0565b81811115610bdd5783604083870101525b50601f01601f1916929092016040019392505050565b6040808252600490820152632aa9a2a960e11b60608201526001600160a01b0391909116602082015260800190565b60208082526021908201527f43616e206e6f74206465706f73697420746f206120636c6f73656420706f6f6c6040820152601760f91b606082015260800190565b60208082526017908201527f57726f6e672064656c656761746565206163636f756e74000000000000000000604082015260600190565b6020808252601d908201527f4f6e6c79207665726966696564206272696467652063616e2063616c6c000000604082015260600190565b6020808252601a908201527f426f756e6420627363206163636f756e74206469736d61746368000000000000604082015260600190565b6020808252600e908201526d15dc9bdb99c818da185a5b881a5960921b604082015260600190565b6020808252601d908201527f426f756e6420636f736d6f73206163636f756e74206469736d61746368000000604082015260600190565b815115158152602080830151908201526040918201516001600160a01b03169181019190915260600190565b90815260200190565b918252602082015260400190565b60ff9290921682526001600160a01b0316602082015260400190565b60008219821115610dd957610dd9610e6f565b500190565b600082610df957634e487b7160e01b81526012600452602481fd5b500490565b6000816000190483118215151615610e1857610e18610e6f565b500290565b600082821015610e2f57610e2f610e6f565b500390565b600281046001821680610e4857607f821691505b60208210811415610e6957634e487b7160e01b600052602260045260246000fd5b50919050565b634e487b7160e01b600052601160045260246000fdfea26469706673582212204c104f0cf054b0c37630ce05d2e221395cb76bd66a22d0909f99674813e3f1cc64736f6c63430008000033a26469706673582212200a38df491239462593054f4c86f121355d64e7c1c06fe350c7ec00bdfd2bbdbe64736f6c63430008000033",
  "immutableReferences": {
    "14235": [
      {
        "length": 32,
        "start": 662
      },
      {
        "length": 32,
        "start": 1379
      }
    ]
  },
  "source": "// SPDX-License-Identifier: MIT\n\npragma solidity 0.8.0;\npragma experimental ABIEncoderV2;\n\nimport \"../../interfaces/IPoolFactory.sol\";\nimport \"./CosmosStaking.sol\";\nimport \"@openzeppelin/contracts/access/Ownable.sol\";\nimport \"solidity-bytes-utils/contracts/BytesLib.sol\";\nimport \"../../CommunityFactory.sol\";\n\n/**\n * @dev Factory contract of Nutbox cosmos delegate pool.\n * Like the sp delegate, we use update method to update user's total delegate amount of the validator\n *x\n */\ncontract CosmosStakingFactory is IPoolFactory, Ownable {\n    using BytesLib for bytes;\n    // chain id => user address => is bridge\n    // every chain has it's own bridge accounts\n    mapping (uint8 => mapping(address => bool)) public isBridge;\n    address public immutable communityFactory;\n    uint256 private transFee = 0.00001 ether;\n\n    constructor(address _communityFactory) {\n        require(_communityFactory != address(0), \"Invalid address\");\n        communityFactory = _communityFactory;\n    }\n\n    event CosmosStakingCreated(\n        address indexed pool,\n        address indexed community,\n        string name,\n        uint8 chainId,\n        address delegatee\n    );\n\n    event AdminAddBridge(uint8 indexed chainId, address indexed bridge);\n    event AdminRemoveBridge(uint8 indexed chainId, address indexed bridge);\n\n    function getFeeInfo() public override view returns (address, uint256) {\n        return (owner(), transFee);\n    }\n\n    function createPool(address community, string memory name, bytes calldata meta) override external returns(address) {\n        require(community == msg.sender, 'Permission denied: caller is not community');\n        require(CommunityFactory(communityFactory).createdCommunity(community), \"Invalid community\");\n        uint8 chainId = meta.toUint8(0);  // cosmos-hub: 3\n        address delegatee = meta.toAddress(1);\n        CosmosStaking pool = new CosmosStaking(community, name, chainId, delegatee);\n        emit CosmosStakingCreated(address(pool), community, name, chainId, delegatee);\n        return address(pool);\n    }\n\n    function adminAddBridge(uint8 _chainId, address _bridge) external onlyOwner {\n        require(_bridge != address(0), \"Invalid address\");\n        isBridge[_chainId][_bridge] = true;\n        emit AdminAddBridge(_chainId, _bridge);\n    }\n\n    function adminRemoveBridge(uint8 _chainId, address _bridge) external onlyOwner {\n        require(_bridge != address(0), \"Invalid address\");\n        isBridge[_chainId][_bridge] = false;\n        emit AdminRemoveBridge(_chainId, _bridge);\n    }\n}\n",
  "sourcePath": "/Users/wangxi/work/Walnut-V2/nutbox-contract/contracts/dapps/cosmos-atom/CosmosStakingFactory.sol",
  "compiler": {
    "name": "solc",
    "version": "0.8.0+commit.c7dfd78e.Emscripten.clang"
  },
  "schemaVersion": "3.4.14",
  "updatedAt": "2024-06-20T15:00:49.690Z",
  "devdoc": {
    "details": "Factory contract of Nutbox cosmos delegate pool. Like the sp delegate, we use update method to update user's total delegate amount of the validator x",
    "kind": "dev",
    "methods": {
      "owner()": {
        "details": "Returns the address of the current owner."
      },
      "renounceOwnership()": {
        "details": "Leaves the contract without owner. It will not be possible to call `onlyOwner` functions. Can only be called by the current owner. NOTE: Renouncing ownership will leave the contract without an owner, thereby disabling any functionality that is only available to the owner."
      },
      "transferOwnership(address)": {
        "details": "Transfers ownership of the contract to a new account (`newOwner`). Can only be called by the current owner."
      }
    },
    "version": 1
  },
  "userdoc": {
    "kind": "user",
    "methods": {},
    "version": 1
  }
}