{
  "contractName": "CrowdloanFactory",
  "abi": [
    {
      "inputs": [
        {
          "internalType": "address",
          "name": "_communityFactory",
          "type": "address"
        }
      ],
      "stateMutability": "nonpayable",
      "type": "constructor"
    },
    {
      "anonymous": false,
      "inputs": [
        {
          "indexed": true,
          "internalType": "uint8",
          "name": "chainId",
          "type": "uint8"
        },
        {
          "indexed": true,
          "internalType": "address",
          "name": "bridge",
          "type": "address"
        },
        {
          "indexed": false,
          "internalType": "bool",
          "name": "flag",
          "type": "bool"
        }
      ],
      "name": "AdminSetBridge",
      "type": "event"
    },
    {
      "anonymous": false,
      "inputs": [
        {
          "indexed": true,
          "internalType": "address",
          "name": "pool",
          "type": "address"
        },
        {
          "indexed": true,
          "internalType": "address",
          "name": "community",
          "type": "address"
        },
        {
          "indexed": false,
          "internalType": "string",
          "name": "name",
          "type": "string"
        },
        {
          "indexed": false,
          "internalType": "uint8",
          "name": "chainId",
          "type": "uint8"
        },
        {
          "indexed": false,
          "internalType": "uint256",
          "name": "paraId",
          "type": "uint256"
        },
        {
          "indexed": false,
          "internalType": "uint256",
          "name": "fundIndex",
          "type": "uint256"
        }
      ],
      "name": "CrowdloanCreated",
      "type": "event"
    },
    {
      "anonymous": false,
      "inputs": [
        {
          "indexed": true,
          "internalType": "address",
          "name": "previousOwner",
          "type": "address"
        },
        {
          "indexed": true,
          "internalType": "address",
          "name": "newOwner",
          "type": "address"
        }
      ],
      "name": "OwnershipTransferred",
      "type": "event"
    },
    {
      "inputs": [],
      "name": "communityFactory",
      "outputs": [
        {
          "internalType": "address",
          "name": "",
          "type": "address"
        }
      ],
      "stateMutability": "view",
      "type": "function"
    },
    {
      "inputs": [
        {
          "internalType": "uint8",
          "name": "",
          "type": "uint8"
        },
        {
          "internalType": "address",
          "name": "",
          "type": "address"
        }
      ],
      "name": "isBridge",
      "outputs": [
        {
          "internalType": "bool",
          "name": "",
          "type": "bool"
        }
      ],
      "stateMutability": "view",
      "type": "function"
    },
    {
      "inputs": [],
      "name": "owner",
      "outputs": [
        {
          "internalType": "address",
          "name": "",
          "type": "address"
        }
      ],
      "stateMutability": "view",
      "type": "function"
    },
    {
      "inputs": [],
      "name": "renounceOwnership",
      "outputs": [],
      "stateMutability": "nonpayable",
      "type": "function"
    },
    {
      "inputs": [
        {
          "internalType": "address",
          "name": "newOwner",
          "type": "address"
        }
      ],
      "name": "transferOwnership",
      "outputs": [],
      "stateMutability": "nonpayable",
      "type": "function"
    },
    {
      "inputs": [
        {
          "internalType": "address",
          "name": "community",
          "type": "address"
        },
        {
          "internalType": "string",
          "name": "name",
          "type": "string"
        },
        {
          "internalType": "bytes",
          "name": "meta",
          "type": "bytes"
        }
      ],
      "name": "createPool",
      "outputs": [
        {
          "internalType": "address",
          "name": "",
          "type": "address"
        }
      ],
      "stateMutability": "nonpayable",
      "type": "function"
    },
    {
      "inputs": [
        {
          "internalType": "uint8",
          "name": "_chainId",
          "type": "uint8"
        },
        {
          "internalType": "address",
          "name": "_bridge",
          "type": "address"
        },
        {
          "internalType": "bool",
          "name": "_flag",
          "type": "bool"
        }
      ],
      "name": "adminSetBridge",
      "outputs": [],
      "stateMutability": "nonpayable",
      "type": "function"
    }
  ],
  "bytecode": "0x60a060405234801561001057600080fd5b5060405161203e38038061203e83398101604081905261002f916100f1565b61003f61003a61009d565b6100a1565b6001600160a01b038116610088576040517f08c379a000000000000000000000000000000000000000000000000000000000815260040161007f9061011f565b60405180910390fd5b60601b6001600160601b031916608052610156565b3390565b600080546001600160a01b038381166001600160a01b0319831681178455604051919092169283917f8be0079c531659141344cd1fd0a4f28419497f9722a3daafe3b4186f6b6457e09190a35050565b600060208284031215610102578081fd5b81516001600160a01b0381168114610118578182fd5b9392505050565b6020808252600f908201527f496e76616c696420616464726573730000000000000000000000000000000000604082015260600190565b60805160601c611ec361017b600039600081816102c4015261058f0152611ec36000f3fe60806040523480156200001157600080fd5b5060043610620000885760003560e01c8063b883cc2a1162000063578063b883cc2a14620000d2578063e5247eda14620000e9578063f2fde38b146200010f578063fac8a61014620001265762000088565b8063715018a6146200008d5780638da5cb5b14620000995780639367606514620000bb575b600080fd5b6200009762000130565b005b620000a36200018d565b604051620000b2919062000900565b60405180910390f35b62000097620000cc36600462000865565b6200019c565b620000a3620000e336600462000726565b62000280565b62000100620000fa3660046200082e565b620004f0565b604051620000b291906200095a565b620000976200012036600462000702565b62000510565b620000a36200058d565b6200013a620005b1565b6001600160a01b03166200014d6200018d565b6001600160a01b0316146200017f5760405162461bcd60e51b8152600401620001769062000a81565b60405180910390fd5b6200018b6000620005b5565b565b6000546001600160a01b031690565b620001a6620005b1565b6001600160a01b0316620001b96200018d565b6001600160a01b031614620001e25760405162461bcd60e51b8152600401620001769062000a81565b6001600160a01b0382166200020b5760405162461bcd60e51b8152600401620001769062000999565b60ff831660008181526001602090815260408083206001600160a01b038716808552925291829020805460ff191685151517905590519091907fc812b0a6d6a18fab044c9279f72d514c1ccf0131f857a86c8e4c2319274a723c90620002739085906200095a565b60405180910390a3505050565b60006001600160a01b0385163314620002ad5760405162461bcd60e51b8152600401620001769062000a08565b604051633454a5b760e11b81526001600160a01b037f000000000000000000000000000000000000000000000000000000000000000016906368a94b6e90620002fb90889060040162000900565b60206040518083038186803b1580156200031457600080fd5b505afa15801562000329573d6000803e3d6000fd5b505050506040513d601f19601f820116820180604052508101906200034f91906200080f565b6200036e5760405162461bcd60e51b8152600401620001769062000ab6565b6000620003b6600085858080601f0160208091040260200160405190810160405280939291908181526020018383808284376000920191909152509293925050620006059050565b9050600062000400600186868080601f0160208091040260200160405190810160405280939291908181526020018383808284376000920191909152509293925050620006409050565b905060006200044a602187878080601f0160208091040260200160405190810160405280939291908181526020018383808284376000920191909152509293925050620006409050565b90506000888885858560405162000461906200067b565b6200047195949392919062000914565b604051809103906000f0801580156200048e573d6000803e3d6000fd5b509050886001600160a01b0316816001600160a01b03167fb0621793df895ab057e38e5f82ef8e9f30925c114c9bda459369d6bca4da18508a878787604051620004dc949392919062000965565b60405180910390a398975050505050505050565b600160209081526000928352604080842090915290825290205460ff1681565b6200051a620005b1565b6001600160a01b03166200052d6200018d565b6001600160a01b031614620005565760405162461bcd60e51b8152600401620001769062000a81565b6001600160a01b0381166200057f5760405162461bcd60e51b81526004016200017690620009c2565b6200058a81620005b5565b50565b7f000000000000000000000000000000000000000000000000000000000000000081565b3390565b600080546001600160a01b038381166001600160a01b0319831681178455604051919092169283917f8be0079c531659141344cd1fd0a4f28419497f9722a3daafe3b4186f6b6457e09190a35050565b60006200061482600162000b0e565b83511015620006375760405162461bcd60e51b8152600401620001769062000ae1565b50016001015190565b60006200064f82602062000b0e565b83511015620006725760405162461bcd60e51b8152600401620001769062000a52565b50016020015190565b6113358062000b5983390190565b80356001600160a01b0381168114620006a157600080fd5b919050565b60008083601f840112620006b8578182fd5b50813567ffffffffffffffff811115620006d0578182fd5b602083019150836020828501011115620006e957600080fd5b9250929050565b803560ff81168114620006a157600080fd5b60006020828403121562000714578081fd5b6200071f8262000689565b9392505050565b600080600080606085870312156200073c578283fd5b620007478562000689565b935060208086013567ffffffffffffffff8082111562000765578586fd5b818801915088601f83011262000779578586fd5b8135818111156200078e576200078e62000b33565b604051601f8201601f1916810185018381118282101715620007b457620007b462000b33565b60405281815283820185018b1015620007cb578788fd5b81858501868301378785838301015280975050506040880135925080831115620007f3578485fd5b50506200080387828801620006a6565b95989497509550505050565b60006020828403121562000821578081fd5b81516200071f8162000b49565b6000806040838503121562000841578182fd5b6200084c83620006f0565b91506200085c6020840162000689565b90509250929050565b6000806000606084860312156200087a578283fd5b6200088584620006f0565b9250620008956020850162000689565b91506040840135620008a78162000b49565b809150509250925092565b60008151808452815b81811015620008d957602081850181015186830182015201620008bb565b81811115620008eb5782602083870101525b50601f01601f19169290920160200192915050565b6001600160a01b0391909116815260200190565b6001600160a01b038616815260a0602082018190526000906200093a90830187620008b2565b60ff95909516604083015250606081019290925260809091015292915050565b901515815260200190565b6000608082526200097a6080830187620008b2565b60ff959095166020830152506040810192909252606090910152919050565b6020808252600f908201526e496e76616c6964206164647265737360881b604082015260600190565b60208082526026908201527f4f776e61626c653a206e6577206f776e657220697320746865207a65726f206160408201526564647265737360d01b606082015260800190565b6020808252602a908201527f5065726d697373696f6e2064656e6965643a2063616c6c6572206973206e6f7460408201526920636f6d6d756e69747960b01b606082015260800190565b602080825260159082015274746f55696e743235365f6f75744f66426f756e647360581b604082015260600190565b6020808252818101527f4f776e61626c653a2063616c6c6572206973206e6f7420746865206f776e6572604082015260600190565b602080825260119082015270496e76616c696420636f6d6d756e69747960781b604082015260600190565b602080825260139082015272746f55696e74385f6f75744f66426f756e647360681b604082015260600190565b6000821982111562000b2e57634e487b7160e01b81526011600452602481fd5b500190565b634e487b7160e01b600052604160045260246000fd5b80151581146200058a57600080fdfe6101206040523480156200001257600080fd5b50604051620013353803806200133583398101604081905262000035916200015c565b33606090811b60805285901b6001600160601b03191660a0528351620000639060029060208701906200009f565b5060f89290921b7fff00000000000000000000000000000000000000000000000000000000000000166101005260c05260e05250620002f89050565b828054620000ad9062000273565b90600052602060002090601f016020900481019282620000d157600085556200011c565b82601f10620000ec57805160ff19168380011785556200011c565b828001600101855582156200011c579182015b828111156200011c578251825591602001919060010190620000ff565b506200012a9291506200012e565b5090565b5b808211156200012a57600081556001016200012f565b805160ff811681146200015757600080fd5b919050565b600080600080600060a0868803121562000174578081fd5b85516001600160a01b03811681146200018b578182fd5b602087810151919650906001600160401b0380821115620001aa578384fd5b818901915089601f830112620001be578384fd5b815181811115620001d357620001d3620002c9565b604051601f8201601f1916810185018381118282101715620001f957620001f9620002c9565b60405281815283820185018c101562000210578586fd5b8592505b8183101562000233578383018501518184018601529184019162000214565b818311156200024457858583830101525b80985050505050506200025a6040870162000145565b6060870151608090970151959894975095949392505050565b6002810460018216806200028857607f821691505b60208210811415620002c3577f4e487b7100000000000000000000000000000000000000000000000000000000600052602260045260246000fd5b50919050565b7f4e487b7100000000000000000000000000000000000000000000000000000000600052604160045260246000fd5b60805160601c60a05160601c60c05160e0516101005160f81c610f94620003a16000396000818161026a015261030f0152600081816103900152610a6d0152600081816103510152610adf01526000818161043c0152818161059f0152818161064f015281816106f9015281816107e1015281816108b2015281816108ee015281816109930152610b0301526000818161023d015281816105cc0152610a260152610f946000f3fe608060405234801561001057600080fd5b50600436106100a95760003560e01c806388cc58e41161007157806388cc58e41461011e57806394465b2114610126578063a5a7096514610139578063b3a7834d14610141578063b4fc08e914610161578063c51db6b214610169576100a9565b806306fdde03146100ae57806338adb6f0146100cc578063567e98f9146100e1578063630949c7146100e95780637f02901c14610109575b600080fd5b6100b6610171565b6040516100c39190610ca2565b60405180910390f35b6100d46101ff565b6040516100c39190610e6c565b6100d4610205565b6100fc6100f7366004610bcd565b61020b565b6040516100c39190610c5b565b61011c610117366004610bfd565b610226565b005b6100fc610a24565b6100d4610134366004610b93565b610a48565b6100d4610a6b565b61015461014f366004610b93565b610a8f565b6040516100c39190610e49565b6100d4610add565b6100fc610b01565b6002805461017e90610f0d565b80601f01602080910402602001604051908101604052809291908181526020018280546101aa90610f0d565b80156101f75780601f106101cc576101008083540402835291602001916101f7565b820191906000526020600020905b8154815290600101906020018083116101da57829003601f168201915b505050505081565b60035490565b60035481565b6000602081905290815260409020546001600160a01b031681565b6040516372923f6d60e11b81526001600160a01b037f0000000000000000000000000000000000000000000000000000000000000000169063e5247eda90610294907f0000000000000000000000000000000000000000000000000000000000000000903390600401610e83565b60206040518083038186803b1580156102ac57600080fd5b505afa1580156102c0573d6000803e3d6000fd5b505050506040513d601f19601f820116820180604052508101906102e49190610bad565b6103095760405162461bcd60e51b815260040161030090610d65565b60405180910390fd5b8560ff167f000000000000000000000000000000000000000000000000000000000000000060ff161461034e5760405162461bcd60e51b815260040161030090610d9c565b847f00000000000000000000000000000000000000000000000000000000000000001461038d5760405162461bcd60e51b815260040161030090610dc4565b837f0000000000000000000000000000000000000000000000000000000000000000146103cc5760405162461bcd60e51b815260040161030090610dea565b6000818152602081905260409020546001600160a01b0316158061040957506000818152602081905260409020546001600160a01b038481169116145b6104255760405162461bcd60e51b815260040161030090610e14565b604051634c7b4f4d60e11b81526001600160a01b037f000000000000000000000000000000000000000000000000000000000000000016906398f69e9a90610471903090600401610c5b565b60206040518083038186803b15801561048957600080fd5b505afa15801561049d573d6000803e3d6000fd5b505050506040513d601f19601f820116820180604052508101906104c19190610bad565b6104dd5760405162461bcd60e51b815260040161030090610d24565b6001600160a01b03831660009081526001602052604090205460ff1661054e576001600160a01b0383166000818152600160208181526040808420805460ff1916841781559283018490556002909201859055848352829052902080546001600160a01b0319169091179055610588565b6001600160a01b03831660009081526001602052604090206002015481146105885760405162461bcd60e51b815260040161030090610e14565b60405163579dea7960e11b81526001600160a01b037f0000000000000000000000000000000000000000000000000000000000000000169063af3bd4f2906105f4907f000000000000000000000000000000000000000000000000000000000000000090600401610cf5565b600060405180830381600087803b15801561060e57600080fd5b505af1158015610622573d6000803e3d6000fd5b505050506001600160a01b038316600090815260016020819052604090912001541561084d5760006107c27f00000000000000000000000000000000000000000000000000000000000000006001600160a01b031663a2a00ed630876040518363ffffffff1660e01b815260040161069b929190610c6f565b60206040518083038186803b1580156106b357600080fd5b505afa1580156106c7573d6000803e3d6000fd5b505050506040513d601f19601f820116820180604052508101906106eb9190610be5565b6107bc64e8d4a510006107b67f00000000000000000000000000000000000000000000000000000000000000006001600160a01b031663a1a89dbc306040518263ffffffff1660e01b81526004016107439190610c5b565b60206040518083038186803b15801561075b57600080fd5b505afa15801561076f573d6000803e3d6000fd5b505050506040513d601f19601f820116820180604052508101906107939190610be5565b6001600160a01b038a166000908152600160208190526040909120015490610b25565b90610b38565b90610b44565b9050801561084b57604051631df36e4160e31b81526001600160a01b037f0000000000000000000000000000000000000000000000000000000000000000169063ef9b7208906108189087908590600401610c89565b600060405180830381600087803b15801561083257600080fd5b505af1158015610846573d6000803e3d6000fd5b505050505b505b60035461085a9083610b50565b6003556001600160a01b038316600090815260016020819052604090912001546108849083610b50565b60016000856001600160a01b03166001600160a01b03168152602001908152602001600020600101819055507f00000000000000000000000000000000000000000000000000000000000000006001600160a01b031663bf16c3c28461093864e8d4a510006107b67f00000000000000000000000000000000000000000000000000000000000000006001600160a01b031663a1a89dbc306040518263ffffffff1660e01b81526004016107439190610c5b565b6040518363ffffffff1660e01b8152600401610955929190610c89565b600060405180830381600087803b15801561096f57600080fd5b505af1158015610983573d6000803e3d6000fd5b50505050826001600160a01b03167f00000000000000000000000000000000000000000000000000000000000000006001600160a01b03167f44a1ddc51ace1542c482b6e70a4f0300716de6ac2f749e7f9d44e590806e3fd48460016000886001600160a01b03166001600160a01b0316815260200190815260200160002060010154604051610a14929190610e75565b60405180910390a3505050505050565b7f000000000000000000000000000000000000000000000000000000000000000090565b6001600160a01b038116600090815260016020819052604090912001545b919050565b7f000000000000000000000000000000000000000000000000000000000000000081565b610a97610b5c565b506001600160a01b03166000908152600160208181526040928390208351606081018552815460ff16151581529281015491830191909152600201549181019190915290565b7f000000000000000000000000000000000000000000000000000000000000000081565b7f000000000000000000000000000000000000000000000000000000000000000090565b6000610b318284610ed7565b9392505050565b6000610b318284610eb7565b6000610b318284610ef6565b6000610b318284610e9f565b604080516060810182526000808252602082018190529181019190915290565b80356001600160a01b0381168114610a6657600080fd5b600060208284031215610ba4578081fd5b610b3182610b7c565b600060208284031215610bbe578081fd5b81518015158114610b31578182fd5b600060208284031215610bde578081fd5b5035919050565b600060208284031215610bf6578081fd5b5051919050565b60008060008060008060c08789031215610c15578182fd5b863560ff81168114610c25578283fd5b95506020870135945060408701359350610c4160608801610b7c565b92506080870135915060a087013590509295509295509295565b6001600160a01b0391909116815260200190565b6001600160a01b0392831681529116602082015260400190565b6001600160a01b03929092168252602082015260400190565b6000602080835283518082850152825b81811015610cce57858101830151858201604001528201610cb2565b81811115610cdf5783604083870101525b50601f01601f1916929092016040019392505050565b6040808252600490820152632aa9a2a960e11b60608201526001600160a01b0391909116602082015260800190565b60208082526021908201527f43616e206e6f74206465706f73697420746f206120636c6f73656420706f6f6c6040820152601760f91b606082015260800190565b6020808252601d908201527f4f6e6c79207665726966696564206272696467652063616e2063616c6c000000604082015260600190565b6020808252600e908201526d15dc9bdb99c818da185a5b881a5960921b604082015260600190565b6020808252600c908201526b15dc9bdb99c81c185c98525960a21b604082015260600190565b60208082526010908201526f0aee4dedcce40cceadcc840d2dcc8caf60831b604082015260600190565b6020808252818101527f426f756e6420737562737472617465206163636f756e74206469736d61746368604082015260600190565b815115158152602080830151908201526040918201519181019190915260600190565b90815260200190565b918252602082015260400190565b60ff9290921682526001600160a01b0316602082015260400190565b60008219821115610eb257610eb2610f48565b500190565b600082610ed257634e487b7160e01b81526012600452602481fd5b500490565b6000816000190483118215151615610ef157610ef1610f48565b500290565b600082821015610f0857610f08610f48565b500390565b600281046001821680610f2157607f821691505b60208210811415610f4257634e487b7160e01b600052602260045260246000fd5b50919050565b634e487b7160e01b600052601160045260246000fdfea2646970667358221220345441356031fcb34abcd15157afca730c2ffe97f5e284b6cb52811fe563ce2e64736f6c63430008000033a264697066735822122086ee95a91cfa2f3e75e99f1f49f439ea8b13f32b1e7a3ce0017edfc2f5aba70264736f6c63430008000033",
  "immutableReferences": {
    "8435": [
      {
        "length": 32,
        "start": 708
      },
      {
        "length": 32,
        "start": 1423
      }
    ]
  },
  "source": "// SPDX-License-Identifier: MIT\n\npragma solidity 0.8.0;\npragma experimental ABIEncoderV2;\n\nimport \"../../interfaces/IPoolFactory.sol\";\nimport \"./Crowdloan.sol\";\nimport \"@openzeppelin/contracts/access/Ownable.sol\";\nimport \"solidity-bytes-utils/contracts/BytesLib.sol\";\nimport \"../../CommunityFactory.sol\";\n\n/**\n * @dev Factory contract of Nutbox Crowdloan contribute pool.\n *x\n */\ncontract CrowdloanFactory is IPoolFactory, Ownable {\n    using BytesLib for bytes;\n    mapping (uint8 => mapping(address => bool)) public isBridge;\n    address public immutable communityFactory;\n\n    constructor(address _communityFactory) {\n        require(_communityFactory != address(0), \"Invalid address\");\n        communityFactory = _communityFactory;\n    }\n\n    event CrowdloanCreated(\n        address indexed pool,\n        address indexed community,\n        string name,\n        uint8 chainId,\n        uint256 paraId,\n        uint256 fundIndex\n    );\n\n    event AdminSetBridge(uint8 indexed chainId, address indexed bridge, bool flag);\n\n    function createPool(address community, string memory name, bytes calldata meta) override external returns(address) {\n        require(community == msg.sender, 'Permission denied: caller is not community');\n        require(CommunityFactory(communityFactory).createdCommunity(community), \"Invalid community\");\n        uint8 chainId = meta.toUint8(0);\n        uint256 paraId = meta.toUint256(1);\n        uint256 fundIndex = meta.toUint256(33);\n        Crowdloan pool = new Crowdloan(community, name, chainId, paraId, fundIndex);\n        emit CrowdloanCreated(address(pool), community, name, chainId, paraId, fundIndex);\n        return address(pool);\n    }\n\n    function adminSetBridge(uint8 _chainId, address _bridge, bool _flag) external onlyOwner {\n        require(_bridge != address(0), \"Invalid address\");\n        isBridge[_chainId][_bridge] = _flag;\n        emit AdminSetBridge(_chainId, _bridge, _flag);\n    }\n}\n",
  "sourcePath": "/Users/necklace/work/nutbox/nutbox-contract/contracts/dapps/substrate-crowdloan/CrowdloanFactory.sol",
  "compiler": {
    "name": "solc",
    "version": "0.8.0+commit.c7dfd78e.Emscripten.clang"
  },
  "schemaVersion": "3.4.7",
  "updatedAt": "2022-05-26T06:57:12.324Z",
  "devdoc": {
    "details": "Factory contract of Nutbox Crowdloan contribute pool. x",
    "kind": "dev",
    "methods": {
      "owner()": {
        "details": "Returns the address of the current owner."
      },
      "renounceOwnership()": {
        "details": "Leaves the contract without owner. It will not be possible to call `onlyOwner` functions anymore. Can only be called by the current owner. NOTE: Renouncing ownership will leave the contract without an owner, thereby removing any functionality that is only available to the owner."
      },
      "transferOwnership(address)": {
        "details": "Transfers ownership of the contract to a new account (`newOwner`). Can only be called by the current owner."
      }
    },
    "version": 1
  },
  "userdoc": {
    "kind": "user",
    "methods": {},
    "version": 1
  }
}