{
  "contractName": "Crowdloan",
  "abi": [
    {
      "inputs": [
        {
          "internalType": "address",
          "name": "_community",
          "type": "address"
        },
        {
          "internalType": "string",
          "name": "_name",
          "type": "string"
        },
        {
          "internalType": "uint8",
          "name": "_chainId",
          "type": "uint8"
        },
        {
          "internalType": "uint256",
          "name": "_paraId",
          "type": "uint256"
        },
        {
          "internalType": "uint256",
          "name": "_fundIndex",
          "type": "uint256"
        }
      ],
      "stateMutability": "nonpayable",
      "type": "constructor"
    },
    {
      "anonymous": false,
      "inputs": [
        {
          "indexed": true,
          "internalType": "address",
          "name": "community",
          "type": "address"
        },
        {
          "indexed": true,
          "internalType": "address",
          "name": "who",
          "type": "address"
        },
        {
          "indexed": false,
          "internalType": "uint256",
          "name": "newAmount",
          "type": "uint256"
        },
        {
          "indexed": false,
          "internalType": "uint256",
          "name": "totalAmount",
          "type": "uint256"
        }
      ],
      "name": "Contributed",
      "type": "event"
    },
    {
      "inputs": [
        {
          "internalType": "bytes32",
          "name": "",
          "type": "bytes32"
        }
      ],
      "name": "accountBindMap",
      "outputs": [
        {
          "internalType": "address",
          "name": "",
          "type": "address"
        }
      ],
      "stateMutability": "view",
      "type": "function"
    },
    {
      "inputs": [],
      "name": "fundIndex",
      "outputs": [
        {
          "internalType": "uint256",
          "name": "",
          "type": "uint256"
        }
      ],
      "stateMutability": "view",
      "type": "function"
    },
    {
      "inputs": [],
      "name": "name",
      "outputs": [
        {
          "internalType": "string",
          "name": "",
          "type": "string"
        }
      ],
      "stateMutability": "view",
      "type": "function"
    },
    {
      "inputs": [],
      "name": "paraId",
      "outputs": [
        {
          "internalType": "uint256",
          "name": "",
          "type": "uint256"
        }
      ],
      "stateMutability": "view",
      "type": "function"
    },
    {
      "inputs": [],
      "name": "totalStakedAmount",
      "outputs": [
        {
          "internalType": "uint256",
          "name": "",
          "type": "uint256"
        }
      ],
      "stateMutability": "view",
      "type": "function"
    },
    {
      "inputs": [
        {
          "internalType": "uint8",
          "name": "_chainId",
          "type": "uint8"
        },
        {
          "internalType": "uint256",
          "name": "_paraId",
          "type": "uint256"
        },
        {
          "internalType": "uint256",
          "name": "_fundIndex",
          "type": "uint256"
        },
        {
          "internalType": "address",
          "name": "depositor",
          "type": "address"
        },
        {
          "internalType": "uint256",
          "name": "amount",
          "type": "uint256"
        },
        {
          "internalType": "bytes32",
          "name": "_bindAccount",
          "type": "bytes32"
        }
      ],
      "name": "contribute",
      "outputs": [],
      "stateMutability": "nonpayable",
      "type": "function"
    },
    {
      "inputs": [],
      "name": "getFactory",
      "outputs": [
        {
          "internalType": "address",
          "name": "",
          "type": "address"
        }
      ],
      "stateMutability": "view",
      "type": "function"
    },
    {
      "inputs": [],
      "name": "getCommunity",
      "outputs": [
        {
          "internalType": "address",
          "name": "",
          "type": "address"
        }
      ],
      "stateMutability": "view",
      "type": "function"
    },
    {
      "inputs": [
        {
          "internalType": "address",
          "name": "user",
          "type": "address"
        }
      ],
      "name": "getUserStakedAmount",
      "outputs": [
        {
          "internalType": "uint256",
          "name": "",
          "type": "uint256"
        }
      ],
      "stateMutability": "view",
      "type": "function"
    },
    {
      "inputs": [],
      "name": "getTotalStakedAmount",
      "outputs": [
        {
          "internalType": "uint256",
          "name": "",
          "type": "uint256"
        }
      ],
      "stateMutability": "view",
      "type": "function"
    },
    {
      "inputs": [
        {
          "internalType": "address",
          "name": "user",
          "type": "address"
        }
      ],
      "name": "getUserDepositInfo",
      "outputs": [
        {
          "components": [
            {
              "internalType": "bool",
              "name": "hasDeposited",
              "type": "bool"
            },
            {
              "internalType": "uint256",
              "name": "amount",
              "type": "uint256"
            },
            {
              "internalType": "bytes32",
              "name": "bindAccount",
              "type": "bytes32"
            }
          ],
          "internalType": "struct Crowdloan.StakingInfo",
          "name": "",
          "type": "tuple"
        }
      ],
      "stateMutability": "view",
      "type": "function"
    }
  ],
  "bytecode": "0x6101206040523480156200001257600080fd5b50604051620013353803806200133583398101604081905262000035916200015c565b33606090811b60805285901b6001600160601b03191660a0528351620000639060029060208701906200009f565b5060f89290921b7fff00000000000000000000000000000000000000000000000000000000000000166101005260c05260e05250620002f89050565b828054620000ad9062000273565b90600052602060002090601f016020900481019282620000d157600085556200011c565b82601f10620000ec57805160ff19168380011785556200011c565b828001600101855582156200011c579182015b828111156200011c578251825591602001919060010190620000ff565b506200012a9291506200012e565b5090565b5b808211156200012a57600081556001016200012f565b805160ff811681146200015757600080fd5b919050565b600080600080600060a0868803121562000174578081fd5b85516001600160a01b03811681146200018b578182fd5b602087810151919650906001600160401b0380821115620001aa578384fd5b818901915089601f830112620001be578384fd5b815181811115620001d357620001d3620002c9565b604051601f8201601f1916810185018381118282101715620001f957620001f9620002c9565b60405281815283820185018c101562000210578586fd5b8592505b8183101562000233578383018501518184018601529184019162000214565b818311156200024457858583830101525b80985050505050506200025a6040870162000145565b6060870151608090970151959894975095949392505050565b6002810460018216806200028857607f821691505b60208210811415620002c3577f4e487b7100000000000000000000000000000000000000000000000000000000600052602260045260246000fd5b50919050565b7f4e487b7100000000000000000000000000000000000000000000000000000000600052604160045260246000fd5b60805160601c60a05160601c60c05160e0516101005160f81c610f94620003a16000396000818161026a015261030f0152600081816103900152610a6d0152600081816103510152610adf01526000818161043c0152818161059f0152818161064f015281816106f9015281816107e1015281816108b2015281816108ee015281816109930152610b0301526000818161023d015281816105cc0152610a260152610f946000f3fe608060405234801561001057600080fd5b50600436106100a95760003560e01c806388cc58e41161007157806388cc58e41461011e57806394465b2114610126578063a5a7096514610139578063b3a7834d14610141578063b4fc08e914610161578063c51db6b214610169576100a9565b806306fdde03146100ae57806338adb6f0146100cc578063567e98f9146100e1578063630949c7146100e95780637f02901c14610109575b600080fd5b6100b6610171565b6040516100c39190610ca2565b60405180910390f35b6100d46101ff565b6040516100c39190610e6c565b6100d4610205565b6100fc6100f7366004610bcd565b61020b565b6040516100c39190610c5b565b61011c610117366004610bfd565b610226565b005b6100fc610a24565b6100d4610134366004610b93565b610a48565b6100d4610a6b565b61015461014f366004610b93565b610a8f565b6040516100c39190610e49565b6100d4610add565b6100fc610b01565b6002805461017e90610f0d565b80601f01602080910402602001604051908101604052809291908181526020018280546101aa90610f0d565b80156101f75780601f106101cc576101008083540402835291602001916101f7565b820191906000526020600020905b8154815290600101906020018083116101da57829003601f168201915b505050505081565b60035490565b60035481565b6000602081905290815260409020546001600160a01b031681565b6040516372923f6d60e11b81526001600160a01b037f0000000000000000000000000000000000000000000000000000000000000000169063e5247eda90610294907f0000000000000000000000000000000000000000000000000000000000000000903390600401610e83565b60206040518083038186803b1580156102ac57600080fd5b505afa1580156102c0573d6000803e3d6000fd5b505050506040513d601f19601f820116820180604052508101906102e49190610bad565b6103095760405162461bcd60e51b815260040161030090610d65565b60405180910390fd5b8560ff167f000000000000000000000000000000000000000000000000000000000000000060ff161461034e5760405162461bcd60e51b815260040161030090610d9c565b847f00000000000000000000000000000000000000000000000000000000000000001461038d5760405162461bcd60e51b815260040161030090610dc4565b837f0000000000000000000000000000000000000000000000000000000000000000146103cc5760405162461bcd60e51b815260040161030090610dea565b6000818152602081905260409020546001600160a01b0316158061040957506000818152602081905260409020546001600160a01b038481169116145b6104255760405162461bcd60e51b815260040161030090610e14565b604051634c7b4f4d60e11b81526001600160a01b037f000000000000000000000000000000000000000000000000000000000000000016906398f69e9a90610471903090600401610c5b565b60206040518083038186803b15801561048957600080fd5b505afa15801561049d573d6000803e3d6000fd5b505050506040513d601f19601f820116820180604052508101906104c19190610bad565b6104dd5760405162461bcd60e51b815260040161030090610d24565b6001600160a01b03831660009081526001602052604090205460ff1661054e576001600160a01b0383166000818152600160208181526040808420805460ff1916841781559283018490556002909201859055848352829052902080546001600160a01b0319169091179055610588565b6001600160a01b03831660009081526001602052604090206002015481146105885760405162461bcd60e51b815260040161030090610e14565b60405163579dea7960e11b81526001600160a01b037f0000000000000000000000000000000000000000000000000000000000000000169063af3bd4f2906105f4907f000000000000000000000000000000000000000000000000000000000000000090600401610cf5565b600060405180830381600087803b15801561060e57600080fd5b505af1158015610622573d6000803e3d6000fd5b505050506001600160a01b038316600090815260016020819052604090912001541561084d5760006107c27f00000000000000000000000000000000000000000000000000000000000000006001600160a01b031663a2a00ed630876040518363ffffffff1660e01b815260040161069b929190610c6f565b60206040518083038186803b1580156106b357600080fd5b505afa1580156106c7573d6000803e3d6000fd5b505050506040513d601f19601f820116820180604052508101906106eb9190610be5565b6107bc64e8d4a510006107b67f00000000000000000000000000000000000000000000000000000000000000006001600160a01b031663a1a89dbc306040518263ffffffff1660e01b81526004016107439190610c5b565b60206040518083038186803b15801561075b57600080fd5b505afa15801561076f573d6000803e3d6000fd5b505050506040513d601f19601f820116820180604052508101906107939190610be5565b6001600160a01b038a166000908152600160208190526040909120015490610b25565b90610b38565b90610b44565b9050801561084b57604051631df36e4160e31b81526001600160a01b037f0000000000000000000000000000000000000000000000000000000000000000169063ef9b7208906108189087908590600401610c89565b600060405180830381600087803b15801561083257600080fd5b505af1158015610846573d6000803e3d6000fd5b505050505b505b60035461085a9083610b50565b6003556001600160a01b038316600090815260016020819052604090912001546108849083610b50565b60016000856001600160a01b03166001600160a01b03168152602001908152602001600020600101819055507f00000000000000000000000000000000000000000000000000000000000000006001600160a01b031663bf16c3c28461093864e8d4a510006107b67f00000000000000000000000000000000000000000000000000000000000000006001600160a01b031663a1a89dbc306040518263ffffffff1660e01b81526004016107439190610c5b565b6040518363ffffffff1660e01b8152600401610955929190610c89565b600060405180830381600087803b15801561096f57600080fd5b505af1158015610983573d6000803e3d6000fd5b50505050826001600160a01b03167f00000000000000000000000000000000000000000000000000000000000000006001600160a01b03167f44a1ddc51ace1542c482b6e70a4f0300716de6ac2f749e7f9d44e590806e3fd48460016000886001600160a01b03166001600160a01b0316815260200190815260200160002060010154604051610a14929190610e75565b60405180910390a3505050505050565b7f000000000000000000000000000000000000000000000000000000000000000090565b6001600160a01b038116600090815260016020819052604090912001545b919050565b7f000000000000000000000000000000000000000000000000000000000000000081565b610a97610b5c565b506001600160a01b03166000908152600160208181526040928390208351606081018552815460ff16151581529281015491830191909152600201549181019190915290565b7f000000000000000000000000000000000000000000000000000000000000000081565b7f000000000000000000000000000000000000000000000000000000000000000090565b6000610b318284610ed7565b9392505050565b6000610b318284610eb7565b6000610b318284610ef6565b6000610b318284610e9f565b604080516060810182526000808252602082018190529181019190915290565b80356001600160a01b0381168114610a6657600080fd5b600060208284031215610ba4578081fd5b610b3182610b7c565b600060208284031215610bbe578081fd5b81518015158114610b31578182fd5b600060208284031215610bde578081fd5b5035919050565b600060208284031215610bf6578081fd5b5051919050565b60008060008060008060c08789031215610c15578182fd5b863560ff81168114610c25578283fd5b95506020870135945060408701359350610c4160608801610b7c565b92506080870135915060a087013590509295509295509295565b6001600160a01b0391909116815260200190565b6001600160a01b0392831681529116602082015260400190565b6001600160a01b03929092168252602082015260400190565b6000602080835283518082850152825b81811015610cce57858101830151858201604001528201610cb2565b81811115610cdf5783604083870101525b50601f01601f1916929092016040019392505050565b6040808252600490820152632aa9a2a960e11b60608201526001600160a01b0391909116602082015260800190565b60208082526021908201527f43616e206e6f74206465706f73697420746f206120636c6f73656420706f6f6c6040820152601760f91b606082015260800190565b6020808252601d908201527f4f6e6c79207665726966696564206272696467652063616e2063616c6c000000604082015260600190565b6020808252600e908201526d15dc9bdb99c818da185a5b881a5960921b604082015260600190565b6020808252600c908201526b15dc9bdb99c81c185c98525960a21b604082015260600190565b60208082526010908201526f0aee4dedcce40cceadcc840d2dcc8caf60831b604082015260600190565b6020808252818101527f426f756e6420737562737472617465206163636f756e74206469736d61746368604082015260600190565b815115158152602080830151908201526040918201519181019190915260600190565b90815260200190565b918252602082015260400190565b60ff9290921682526001600160a01b0316602082015260400190565b60008219821115610eb257610eb2610f48565b500190565b600082610ed257634e487b7160e01b81526012600452602481fd5b500490565b6000816000190483118215151615610ef157610ef1610f48565b500290565b600082821015610f0857610f08610f48565b500390565b600281046001821680610f2157607f821691505b60208210811415610f4257634e487b7160e01b600052602260045260246000fd5b50919050565b634e487b7160e01b600052601160045260246000fdfea2646970667358221220345441356031fcb34abcd15157afca730c2ffe97f5e284b6cb52811fe563ce2e64736f6c63430008000033",
  "immutableReferences": {
    "8053": [
      {
        "length": 32,
        "start": 573
      },
      {
        "length": 32,
        "start": 1484
      },
      {
        "length": 32,
        "start": 2598
      }
    ],
    "8057": [
      {
        "length": 32,
        "start": 1084
      },
      {
        "length": 32,
        "start": 1439
      },
      {
        "length": 32,
        "start": 1615
      },
      {
        "length": 32,
        "start": 1785
      },
      {
        "length": 32,
        "start": 2017
      },
      {
        "length": 32,
        "start": 2226
      },
      {
        "length": 32,
        "start": 2286
      },
      {
        "length": 32,
        "start": 2451
      },
      {
        "length": 32,
        "start": 2819
      }
    ],
    "8059": [
      {
        "length": 32,
        "start": 849
      },
      {
        "length": 32,
        "start": 2783
      }
    ],
    "8061": [
      {
        "length": 32,
        "start": 912
      },
      {
        "length": 32,
        "start": 2669
      }
    ],
    "8063": [
      {
        "length": 32,
        "start": 618
      },
      {
        "length": 32,
        "start": 783
      }
    ]
  },
  "source": "// SPDX-License-Identifier: MIT\n\npragma solidity 0.8.0;\npragma experimental ABIEncoderV2;\n\nimport \"@openzeppelin/contracts/utils/math/SafeMath.sol\";\nimport \"../../interfaces/ICommunity.sol\";\nimport \"../../interfaces/IPool.sol\";\nimport \"./CrowdloanFactory.sol\";\n\n/**\n * @dev Template contract of SP/HP staking pool.\n * Delegation only can be updated through update().\n *\n */\ncontract Crowdloan is IPool {\n    using SafeMath for uint256;\n\n    struct StakingInfo {\n        // First time when user staking, we need set options like userDebt to zero\n        bool hasDeposited;\n        // User staked amount\n        uint256 amount;\n        // User's foreign account identity\n        // substrate account is sr25519 form, it can be revert with byte32\n        bytes32 bindAccount;\n    }\n\n    // fetch address use bound account\n    mapping(bytes32 => address) public accountBindMap;\n\n    // stakingInfo used to save every user's staking information,\n    // including how many they deposited and its external chain account\n    // ( we support crosschain asset staking). With every staking event\n    // happened including deposit and withdraw asset this field should be updated.\n    mapping(address => StakingInfo) stakingInfo;\n\n    address immutable factory;\n    string public name;\n\n    // community that pool belongs to\n    address immutable community;\n    // crowdlaon paraId\n    uint256 public immutable paraId;\n    uint256 public immutable fundIndex;\n    // chain id: polkadot : 0  kusama: 2\n    uint8 immutable chainId;\n\n    // Total staked amount\n    uint256 public totalStakedAmount;\n\n    event Contributed(\n        address indexed community,\n        address indexed who,\n        uint256 newAmount,\n        uint256 totalAmount\n    );\n\n    constructor(address _community, string memory _name, uint8 _chainId, uint256 _paraId, uint256 _fundIndex) {\n        factory = msg.sender;\n        community = _community;\n        name = _name;\n        chainId = _chainId;\n        paraId = _paraId;\n        fundIndex = _fundIndex;\n    }\n\n    // contribute to crowdloan, user can only add contribution during the crowdloan period\n    function contribute(\n        uint8 _chainId,\n        uint256 _paraId,\n        uint256 _fundIndex,\n        address depositor,\n        uint256 amount,\n        bytes32 _bindAccount\n    ) external {\n        require(CrowdloanFactory(factory).isBridge(chainId, msg.sender), \"Only verified bridge can call\");\n        require(chainId == _chainId, \"Wrong chain id\");\n        require(paraId == _paraId, \"Wrong paraId\");\n        require(fundIndex == _fundIndex, \"Wrong fund index\");\n        require(accountBindMap[_bindAccount] == address(0) || accountBindMap[_bindAccount] == depositor, \"Bound substrate account dismatch\");\n\n        require(ICommunity(community).poolActived(address(this)), 'Can not deposit to a closed pool.');\n\n        // Add to staking list if account hasn't deposited before\n        if (!stakingInfo[depositor].hasDeposited) {\n            stakingInfo[depositor].hasDeposited = true;\n            stakingInfo[depositor].amount = 0;\n            stakingInfo[depositor].bindAccount = _bindAccount;\n            accountBindMap[_bindAccount] = depositor;\n        } else {\n            require(\n                stakingInfo[depositor].bindAccount == _bindAccount,\n                \"Bound substrate account dismatch\"\n            );\n        }\n\n        // trigger community update all pool staking info, send factory as fee payer to ignore fee payment.\n        ICommunity(community).updatePools(\"USER\", factory);\n\n        if (stakingInfo[depositor].amount > 0) {\n            uint256 pending = stakingInfo[depositor]\n                .amount\n                .mul(ICommunity(community).getShareAcc(address(this)))\n                .div(1e12)\n                .sub(ICommunity(community).getUserDebt(address(this), depositor));\n            if (pending > 0) {\n                ICommunity(community).appendUserReward(depositor, pending);\n            }\n        }\n\n        totalStakedAmount = totalStakedAmount.add(amount);\n        stakingInfo[depositor].amount = stakingInfo[depositor].amount.add(amount);\n\n        ICommunity(community).setUserDebt(\n            depositor,\n            stakingInfo[depositor]\n            .amount\n            .mul(ICommunity(community).getShareAcc(address(this)))\n            .div(1e12));\n        \n        emit Contributed(community, depositor, amount, stakingInfo[depositor].amount);\n    }\n\n    function getFactory() external view override returns (address) {\n        return factory;\n    }\n\n    function getCommunity() external view override returns (address) {\n        return community;\n    }\n\n    function getUserStakedAmount(address user)\n        external\n        view\n        override returns (uint256)\n    {\n        return stakingInfo[user].amount;\n    }\n\n    function getTotalStakedAmount()\n        external\n        view\n        override returns (uint256)\n    {\n        return totalStakedAmount;\n    }\n\n    function getUserDepositInfo(address user)\n        external\n        view\n        returns (StakingInfo memory)\n    {\n        return stakingInfo[user];\n    }\n}\n",
  "sourcePath": "/Users/necklace/work/nutbox/nutbox-contract/contracts/dapps/substrate-crowdloan/Crowdloan.sol",
  "compiler": {
    "name": "solc",
    "version": "0.8.0+commit.c7dfd78e.Emscripten.clang"
  },
  "schemaVersion": "3.4.7",
  "updatedAt": "2022-05-26T06:57:12.319Z",
  "devdoc": {
    "details": "Template contract of SP/HP staking pool. Delegation only can be updated through update().",
    "kind": "dev",
    "methods": {},
    "version": 1
  },
  "userdoc": {
    "kind": "user",
    "methods": {},
    "version": 1
  }
}