{
  "contractName": "Curation",
  "abi": [
    {
      "inputs": [
        {
          "internalType": "address",
          "name": "addr",
          "type": "address"
        }
      ],
      "stateMutability": "nonpayable",
      "type": "constructor"
    },
    {
      "anonymous": false,
      "inputs": [
        {
          "indexed": true,
          "internalType": "uint256",
          "name": "taskId",
          "type": "uint256"
        },
        {
          "indexed": true,
          "internalType": "address",
          "name": "contributor",
          "type": "address"
        },
        {
          "indexed": false,
          "internalType": "uint256",
          "name": "amount",
          "type": "uint256"
        }
      ],
      "name": "AddReward",
      "type": "event"
    },
    {
      "anonymous": false,
      "inputs": [
        {
          "indexed": true,
          "internalType": "address",
          "name": "owner",
          "type": "address"
        },
        {
          "indexed": true,
          "internalType": "address",
          "name": "token",
          "type": "address"
        },
        {
          "indexed": false,
          "internalType": "uint256",
          "name": "amount",
          "type": "uint256"
        },
        {
          "indexed": false,
          "internalType": "uint256",
          "name": "endTime",
          "type": "uint256"
        }
      ],
      "name": "NewTask",
      "type": "event"
    },
    {
      "anonymous": false,
      "inputs": [
        {
          "indexed": true,
          "internalType": "address",
          "name": "previousOwner",
          "type": "address"
        },
        {
          "indexed": true,
          "internalType": "address",
          "name": "newOwner",
          "type": "address"
        }
      ],
      "name": "OwnershipTransferred",
      "type": "event"
    },
    {
      "anonymous": false,
      "inputs": [
        {
          "indexed": true,
          "internalType": "uint256",
          "name": "id",
          "type": "uint256"
        }
      ],
      "name": "Redeem",
      "type": "event"
    },
    {
      "anonymous": false,
      "inputs": [
        {
          "indexed": true,
          "internalType": "uint256",
          "name": "twitterId",
          "type": "uint256"
        },
        {
          "indexed": true,
          "internalType": "address",
          "name": "user",
          "type": "address"
        },
        {
          "indexed": false,
          "internalType": "uint256[]",
          "name": "taskIds",
          "type": "uint256[]"
        },
        {
          "indexed": false,
          "internalType": "uint256[]",
          "name": "amounts",
          "type": "uint256[]"
        }
      ],
      "name": "RewardInfo",
      "type": "event"
    },
    {
      "inputs": [
        {
          "internalType": "uint256",
          "name": "",
          "type": "uint256"
        },
        {
          "internalType": "uint256",
          "name": "",
          "type": "uint256"
        }
      ],
      "name": "alreadyClaimed",
      "outputs": [
        {
          "internalType": "bool",
          "name": "",
          "type": "bool"
        }
      ],
      "stateMutability": "view",
      "type": "function"
    },
    {
      "inputs": [],
      "name": "owner",
      "outputs": [
        {
          "internalType": "address",
          "name": "",
          "type": "address"
        }
      ],
      "stateMutability": "view",
      "type": "function"
    },
    {
      "inputs": [],
      "name": "renounceOwnership",
      "outputs": [],
      "stateMutability": "nonpayable",
      "type": "function"
    },
    {
      "inputs": [],
      "name": "signAddress",
      "outputs": [
        {
          "internalType": "address",
          "name": "",
          "type": "address"
        }
      ],
      "stateMutability": "view",
      "type": "function"
    },
    {
      "inputs": [
        {
          "internalType": "address",
          "name": "newOwner",
          "type": "address"
        }
      ],
      "name": "transferOwnership",
      "outputs": [],
      "stateMutability": "nonpayable",
      "type": "function"
    },
    {
      "inputs": [
        {
          "internalType": "address",
          "name": "addr",
          "type": "address"
        }
      ],
      "name": "setSignAddress",
      "outputs": [],
      "stateMutability": "nonpayable",
      "type": "function"
    },
    {
      "inputs": [
        {
          "internalType": "uint256",
          "name": "id",
          "type": "uint256"
        },
        {
          "internalType": "uint256",
          "name": "endTime",
          "type": "uint256"
        },
        {
          "internalType": "address",
          "name": "token",
          "type": "address"
        },
        {
          "internalType": "uint256",
          "name": "amount",
          "type": "uint256"
        },
        {
          "internalType": "uint256",
          "name": "maxCount",
          "type": "uint256"
        }
      ],
      "name": "newTask",
      "outputs": [],
      "stateMutability": "nonpayable",
      "type": "function"
    },
    {
      "inputs": [
        {
          "internalType": "uint256",
          "name": "id",
          "type": "uint256"
        },
        {
          "internalType": "uint256",
          "name": "amount",
          "type": "uint256"
        }
      ],
      "name": "appendReward",
      "outputs": [],
      "stateMutability": "nonpayable",
      "type": "function"
    },
    {
      "inputs": [
        {
          "internalType": "uint256",
          "name": "id",
          "type": "uint256"
        }
      ],
      "name": "redeem",
      "outputs": [],
      "stateMutability": "nonpayable",
      "type": "function"
    },
    {
      "inputs": [
        {
          "internalType": "uint256",
          "name": "twitterId",
          "type": "uint256"
        },
        {
          "internalType": "address",
          "name": "addr",
          "type": "address"
        },
        {
          "internalType": "uint256[]",
          "name": "curationIds",
          "type": "uint256[]"
        },
        {
          "internalType": "uint256[]",
          "name": "amounts",
          "type": "uint256[]"
        },
        {
          "internalType": "bytes",
          "name": "sign",
          "type": "bytes"
        }
      ],
      "name": "claimPrize",
      "outputs": [],
      "stateMutability": "nonpayable",
      "type": "function"
    },
    {
      "inputs": [
        {
          "internalType": "uint256",
          "name": "id",
          "type": "uint256"
        }
      ],
      "name": "taskInfo",
      "outputs": [
        {
          "components": [
            {
              "internalType": "uint256",
              "name": "endTime",
              "type": "uint256"
            },
            {
              "internalType": "address",
              "name": "owner",
              "type": "address"
            },
            {
              "internalType": "address",
              "name": "token",
              "type": "address"
            },
            {
              "internalType": "uint256",
              "name": "amount",
              "type": "uint256"
            },
            {
              "internalType": "uint256",
              "name": "claimedAmount",
              "type": "uint256"
            },
            {
              "internalType": "uint256",
              "name": "maxCount",
              "type": "uint256"
            },
            {
              "internalType": "uint256",
              "name": "userCount",
              "type": "uint256"
            }
          ],
          "internalType": "struct Curation.TaskInfo",
          "name": "task",
          "type": "tuple"
        }
      ],
      "stateMutability": "view",
      "type": "function"
    }
  ],
  "bytecode": "0x608060405234801561001057600080fd5b5060405161159338038061159383398101604081905261002f916100b1565b61003833610061565b60018055600480546001600160a01b0319166001600160a01b03929092169190911790556100e1565b600080546001600160a01b038381166001600160a01b0319831681178455604051919092169283917f8be0079c531659141344cd1fd0a4f28419497f9722a3daafe3b4186f6b6457e09190a35050565b6000602082840312156100c357600080fd5b81516001600160a01b03811681146100da57600080fd5b9392505050565b6114a3806100f06000396000f3fe608060405234801561001057600080fd5b50600436106100a95760003560e01c80638da5cb5b116100715780638da5cb5b14610180578063b9b8890614610191578063cb9f8813146101a4578063cc167c9e146101e2578063db006a75146101f5578063f2fde38b1461020857600080fd5b80630682bdbc146100ae57806315137045146100de5780635d358910146100f3578063715018a614610106578063773642911461010e575b600080fd5b6004546100c1906001600160a01b031681565b6040516001600160a01b0390911681526020015b60405180910390f35b6100f16100ec366004611066565b61021b565b005b6100f16101013660046111c6565b610270565b6100f161041c565b61012161011c3660046110aa565b610452565b60408051825181526020808401516001600160a01b0390811691830191909152838301511691810191909152606080830151908201526080808301519082015260a0808301519082015260c0918201519181019190915260e0016100d5565b6000546001600160a01b03166100c1565b6100f161019f3660046110c3565b610514565b6101d26101b23660046111a4565b600360209081526000928352604080842090915290825290205460ff1681565b60405190151581526020016100d5565b6100f16101f03660046111a4565b6109f5565b6100f16102033660046110aa565b610b94565b6100f1610216366004611066565b610dad565b6000546001600160a01b0316331461024e5760405162461bcd60e51b815260040161024590611324565b60405180910390fd5b600480546001600160a01b0319166001600160a01b0392909216919091179055565b600085815260026020526040902054156102c45760405162461bcd60e51b815260206004820152601560248201527415185cdac81a185cc81899595b8818dc99585d1959605a1b6044820152606401610245565b4284116103045760405162461bcd60e51b815260206004820152600e60248201526d57726f6e6720656e642074696d6560901b6044820152606401610245565b6040516323b872dd60e01b8152336004820152306024820152604481018390526001600160a01b038416906323b872dd90606401602060405180830381600087803b15801561035257600080fd5b505af1158015610366573d6000803e3d6000fd5b505050506040513d601f19601f8201168201806040525081019061038a9190611088565b506000858152600260208181526040928390208781556001810180546001600160a01b03199081163390811790925593820180546001600160a01b038a16951685179055600382018790556005909101859055835186815291820188905291927f9f0e91b5a5a94e5bc6c3f170f2871885e67bcba5d4029f7d3b65d9c7522e06a2910160405180910390a35050505050565b6000546001600160a01b031633146104465760405162461bcd60e51b815260040161024590611324565b6104506000610e48565b565b6104a46040518060e001604052806000815260200160006001600160a01b0316815260200160006001600160a01b03168152602001600081526020016000815260200160008152602001600081525090565b50600090815260026020818152604092839020835160e0810185528154815260018201546001600160a01b039081169382019390935292810154909116928201929092526003820154606082015260048201546080820152600582015460a082015260069091015460c082015290565b600260015414156105675760405162461bcd60e51b815260206004820152601f60248201527f5265656e7472616e637947756172643a207265656e7472616e742063616c6c006044820152606401610245565b6002600155846105ac5760405162461bcd60e51b815260206004820152601060248201526f676574206174206c65617374206f6e6560801b6044820152606401610245565b8483146105ea5760405162461bcd60e51b815260206004820152600c60248201526b696e76616c6964206461746160a01b6044820152606401610245565b604181146106305760405162461bcd60e51b81526020600482015260136024820152720d2dcecc2d8d2c840e6d2cedc40d8cadccee8d606b1b6044820152606401610245565b600088888888888860405160200161064d969594939291906112b1565b604051602081830303815290604052805190602001209050610670818484610e98565b6106ab5760405162461bcd60e51b815260206004820152600c60248201526b34b73b30b634b21039b4b3b760a11b6044820152606401610245565b60005b8681101561099d5760008a8152600360205260408120908989848181106106d7576106d7611457565b602090810292909201358352508101919091526040016000205460ff1661098b576000600260008a8a8581811061071057610710611457565b9050602002013581526020019081526020016000209050428160000154106107715760405162461bcd60e51b815260206004820152601460248201527331bab930ba34b7b71034b9903737ba1037bb32b960611b6044820152606401610245565b8060040154816003015461078591906113c0565b87878481811061079757610797611457565b9050602002013511156107dd5760405162461bcd60e51b815260206004820152600e60248201526d1a5b9d985b1a5908185b5bdd5b9d60921b6044820152606401610245565b600581015460068201546107f2906001611383565b11156108405760405162461bcd60e51b815260206004820152601c60248201527f70617274696369706174696f6e206c696d6974206578636565646564000000006044820152606401610245565b60008b81526003602052604081206001918b8b8681811061086357610863611457565b90506020020135815260200190815260200160002060006101000a81548160ff02191690831515021790555060018160060160008282546108a49190611383565b9091555087905086838181106108bc576108bc611457565b905060200201358160040160008282546108d69190611383565b909155505060028101546001600160a01b031663a9059cbb3389898681811061090157610901611457565b6040516001600160e01b031960e087901b1681526001600160a01b0390941660048501526020029190910135602483015250604401602060405180830381600087803b15801561095057600080fd5b505af1158015610964573d6000803e3d6000fd5b505050506040513d601f19601f820116820180604052508101906109889190611088565b50505b8061099581611426565b9150506106ae565b50336001600160a01b0316897f7ce43466dab4c09becb50e4bad56f53274d62cbabf9946b1eff6d84ebd41f18a898989896040516109de94939291906112f2565b60405180910390a350506001805550505050505050565b600082815260026020526040902054610a4c5760405162461bcd60e51b815260206004820152601960248201527815185cdac81a185cc81b9bdd081899595b8818dc99585d1959603a1b6044820152606401610245565b6000828152600260205260409020544210610a985760405162461bcd60e51b815260206004820152600c60248201526b3a30b9b59034b99037bb32b960a11b6044820152606401610245565b600082815260026020819052604091829020015490516323b872dd60e01b8152336004820152306024820152604481018390526001600160a01b03909116906323b872dd90606401602060405180830381600087803b158015610afa57600080fd5b505af1158015610b0e573d6000803e3d6000fd5b505050506040513d601f19601f82011682018060405250810190610b329190611088565b5060008281526002602052604081206003018054839290610b54908490611383565b9091555050604051818152339083907fecb17d85773a7badfe83b5e9972f80ca4f1e2ad21096741a115c36c31ef016019060200160405180910390a35050565b60026001541415610be75760405162461bcd60e51b815260206004820152601f60248201527f5265656e7472616e637947756172643a207265656e7472616e742063616c6c006044820152606401610245565b60026001556000546001600160a01b03163314610c165760405162461bcd60e51b815260040161024590611324565b600081815260026020526040902054610c6d5760405162461bcd60e51b815260206004820152601960248201527815185cdac81a185cc81b9bdd081899595b8818dc99585d1959603a1b6044820152606401610245565b6000818152600260205260409020544211610cc05760405162461bcd60e51b81526020600482015260136024820152720a8c2e6d640d0c2e640dcdee840ccd2dcd2e6d606b1b6044820152606401610245565b60008181526002602052604090206003015415610d7b57600081815260026020819052604091829020908101546001820154600390920154925163a9059cbb60e01b81526001600160a01b0392831660048201526024810193909352169063a9059cbb90604401602060405180830381600087803b158015610d4157600080fd5b505af1158015610d55573d6000803e3d6000fd5b505050506040513d601f19601f82011682018060405250810190610d799190611088565b505b60405181907f702d5967f45f6513a38ffc42d6ba9bf230bd40e8f53b16363c7eb4fd2deb9a4490600090a25060018055565b6000546001600160a01b03163314610dd75760405162461bcd60e51b815260040161024590611324565b6001600160a01b038116610e3c5760405162461bcd60e51b815260206004820152602660248201527f4f776e61626c653a206e6577206f776e657220697320746865207a65726f206160448201526564647265737360d01b6064820152608401610245565b610e4581610e48565b50565b600080546001600160a01b038381166001600160a01b0319831681178455604051919092169283917f8be0079c531659141344cd1fd0a4f28419497f9722a3daafe3b4186f6b6457e09190a35050565b600080610ea86020828587611359565b610eb191611407565b90506000610ec3604060208688611359565b610ecc91611407565b90506000610edd8560408189611359565b610ee6916113d7565b60f81c9050601b811015610f1a5760ff81161580610f0757508060ff166001145b15610f1a57610f17601b8261139b565b90505b60006040518060400160405280601c81526020017f19457468657265756d205369676e6564204d6573736167653a0a333200000000815250905060008189604051602001610f69929190611270565b60408051601f198184030181528282528051602091820120600080855291840180845281905260ff87169284019290925260608301889052608083018790529092509060019060a0016020604051602081039080840390855afa158015610fd4573d6000803e3d6000fd5b5050604051601f1901516004546001600160a01b039081169116149b9a5050505050505050505050565b80356001600160a01b038116811461101557600080fd5b919050565b60008083601f84011261102c57600080fd5b50813567ffffffffffffffff81111561104457600080fd5b6020830191508360208260051b850101111561105f57600080fd5b9250929050565b60006020828403121561107857600080fd5b61108182610ffe565b9392505050565b60006020828403121561109a57600080fd5b8151801515811461108157600080fd5b6000602082840312156110bc57600080fd5b5035919050565b60008060008060008060008060a0898b0312156110df57600080fd5b883597506110ef60208a01610ffe565b9650604089013567ffffffffffffffff8082111561110c57600080fd5b6111188c838d0161101a565b909850965060608b013591508082111561113157600080fd5b61113d8c838d0161101a565b909650945060808b013591508082111561115657600080fd5b818b0191508b601f83011261116a57600080fd5b81358181111561117957600080fd5b8c602082850101111561118b57600080fd5b6020830194508093505050509295985092959890939650565b600080604083850312156111b757600080fd5b50508035926020909101359150565b600080600080600060a086880312156111de57600080fd5b85359450602086013593506111f560408701610ffe565b94979396509394606081013594506080013592915050565b81835260006001600160fb1b0383111561122657600080fd5b8260051b8083602087013760009401602001938452509192915050565b60006001600160fb1b0383111561125957600080fd5b8260051b8083863760009401938452509192915050565b6000835160005b818110156112915760208187018101518583015201611277565b818111156112a0576000828501525b509190910191825250602001919050565b8681526bffffffffffffffffffffffff198660601b16602082015260006112e66112df603484018789611243565b8486611243565b98975050505050505050565b60408152600061130660408301868861120d565b828103602084015261131981858761120d565b979650505050505050565b6020808252818101527f4f776e61626c653a2063616c6c6572206973206e6f7420746865206f776e6572604082015260600190565b6000808585111561136957600080fd5b8386111561137657600080fd5b5050820193919092039150565b6000821982111561139657611396611441565b500190565b600060ff821660ff84168060ff038211156113b8576113b8611441565b019392505050565b6000828210156113d2576113d2611441565b500390565b6001600160f81b031981358181169160018510156113ff5780818660010360031b1b83161692505b505092915050565b8035602083101561142057600019602084900360031b1b165b92915050565b600060001982141561143a5761143a611441565b5060010190565b634e487b7160e01b600052601160045260246000fd5b634e487b7160e01b600052603260045260246000fdfea26469706673582212206cb7f09e9cee5304a34a838d0f62df5af39934ecf6063a17336fdc3caea94d0f64736f6c63430008070033",
  "immutableReferences": {},
  "source": "// SPDX-License-Identifier: MIT\npragma solidity ^0.8.7;\npragma experimental ABIEncoderV2;\n\nimport \"@openzeppelin/contracts/access/Ownable.sol\";\nimport \"@openzeppelin/contracts/security/ReentrancyGuard.sol\";\nimport \"@openzeppelin/contracts/token/ERC20/IERC20.sol\";\n\ncontract Curation is Ownable, ReentrancyGuard {\n    struct TaskInfo {\n        uint256 endTime; // after this timestamp, the owner can change the state\n        address owner; // who create this task\n        address token; // the reward token\n        uint256 amount; // reward amount\n        uint256 claimedAmount;\n        uint256 maxCount; // Maximum number of rewards\n        uint256 userCount; // The number of users who have claim.\n    }\n\n    event NewTask(address indexed owner, address indexed token, uint256 amount, uint256 endTime);\n    event AddReward(uint256 indexed taskId, address indexed contributor, uint256 amount);\n    event Redeem(uint256 indexed id);\n    event RewardInfo(uint256 indexed twitterId, address indexed user, uint256[] taskIds, uint256[] amounts);\n\n    // all tasks list\n    // curation id => TaskInfo\n    mapping(uint256 => TaskInfo) private taskList;\n\n    // Flag claimed users\n    // twitterid => task id => bool\n    mapping(uint256 => mapping(uint256 => bool)) public alreadyClaimed;\n\n    address public signAddress;\n\n    constructor(address addr) {\n        signAddress = addr;\n    }\n\n    function setSignAddress(address addr) public onlyOwner {\n        signAddress = addr;\n    }\n\n    // create a new task\n    // every one can create a task\n    function newTask(\n        uint256 id,\n        uint256 endTime,\n        address token,\n        uint256 amount,\n        uint256 maxCount\n    ) public {\n        require(taskList[id].endTime == 0, \"Task has been created\");\n        require(endTime > block.timestamp, \"Wrong end time\");\n\n        IERC20(token).transferFrom(msg.sender, address(this), amount);\n\n        taskList[id].endTime = endTime;\n        taskList[id].owner = msg.sender;\n        taskList[id].token = token;\n        taskList[id].amount = amount;\n        taskList[id].maxCount = maxCount;\n\n        emit NewTask(msg.sender, token, amount, endTime);\n    }\n\n    function appendReward(uint256 id, uint256 amount) public {\n        require(taskList[id].endTime > 0, \"Task has not been created\");\n        require(block.timestamp < taskList[id].endTime, \"task is over\");\n        IERC20(taskList[id].token).transferFrom(msg.sender, address(this), amount);\n        taskList[id].amount += amount;\n        emit AddReward(id, msg.sender, amount);\n    }\n\n    function redeem(uint256 id) public nonReentrant onlyOwner {\n        require(taskList[id].endTime > 0, \"Task has not been created\");\n        require(taskList[id].endTime < block.timestamp, \"Task has not finish\");\n\n        if (taskList[id].amount > 0) {\n            IERC20(taskList[id].token).transfer(taskList[id].owner, taskList[id].amount);\n        }\n        emit Redeem(id);\n    }\n\n    function claimPrize(\n        uint256 twitterId,\n        address addr,\n        uint256[] calldata curationIds,\n        uint256[] calldata amounts,\n        bytes calldata sign\n    ) public nonReentrant {\n        require(curationIds.length > 0, \"get at least one\");\n        require(curationIds.length == amounts.length, \"invalid data\");\n        require(sign.length == 65, \"invalid sign length\");\n\n        bytes32 data = keccak256(abi.encodePacked(twitterId, addr, curationIds, amounts));\n        require(_check(data, sign), \"invalid sign\");\n\n        for (uint256 i = 0; i < curationIds.length; i++) {\n            if (alreadyClaimed[twitterId][curationIds[i]] == false) {\n                TaskInfo storage curation = taskList[curationIds[i]];\n                require(curation.endTime < block.timestamp, \"curation is not over\");\n                require(amounts[i] <= curation.amount - curation.claimedAmount, \"invalid amount\");\n                require(curation.userCount + 1 <= curation.maxCount, \"participation limit exceeded\");\n\n                alreadyClaimed[twitterId][curationIds[i]] = true;\n                curation.userCount += 1;\n                curation.claimedAmount += amounts[i];\n\n                IERC20(curation.token).transfer(msg.sender, amounts[i]);\n            }\n        }\n        emit RewardInfo(twitterId, msg.sender, curationIds, amounts);\n    }\n\n    function _check(bytes32 data, bytes calldata sign) internal view returns (bool) {\n        bytes32 r = bytes32(sign[:32]);\n        bytes32 s = bytes32(sign[32:64]);\n        uint8 v = uint8(bytes1(sign[64:]));\n        if (v < 27) {\n            if (v == 0 || v == 1) v += 27;\n        }\n        bytes memory profix = \"\\x19Ethereum Signed Message:\\n32\";\n        bytes32 info = keccak256(abi.encodePacked(profix, data));\n        address addr = ecrecover(info, v, r, s);\n        return addr == signAddress;\n    }\n\n    // Get task's info\n    function taskInfo(uint256 id) public view returns (TaskInfo memory task) {\n        task = taskList[id];\n    }\n}\n",
  "sourcePath": "/Users/necklace/work/nutbox/nutbox-contract/contracts/Curation.sol",
  "compiler": {
    "name": "solc",
    "version": "0.8.7+commit.e28d00a7.Emscripten.clang"
  },
  "schemaVersion": "3.4.6",
  "updatedAt": "2023-01-13T04:46:25.455Z",
  "devdoc": {
    "kind": "dev",
    "methods": {
      "owner()": {
        "details": "Returns the address of the current owner."
      },
      "renounceOwnership()": {
        "details": "Leaves the contract without owner. It will not be possible to call `onlyOwner` functions anymore. Can only be called by the current owner. NOTE: Renouncing ownership will leave the contract without an owner, thereby removing any functionality that is only available to the owner."
      },
      "transferOwnership(address)": {
        "details": "Transfers ownership of the contract to a new account (`newOwner`). Can only be called by the current owner."
      }
    },
    "version": 1
  },
  "userdoc": {
    "kind": "user",
    "methods": {},
    "version": 1
  }
}