{
  "contractName": "Curation",
  "abi": [
    {
      "inputs": [
        {
          "internalType": "uint256",
          "name": "_chainId",
          "type": "uint256"
        },
        {
          "internalType": "address",
          "name": "addr",
          "type": "address"
        }
      ],
      "stateMutability": "nonpayable",
      "type": "constructor"
    },
    {
      "anonymous": false,
      "inputs": [
        {
          "indexed": true,
          "internalType": "uint256",
          "name": "taskId",
          "type": "uint256"
        },
        {
          "indexed": true,
          "internalType": "address",
          "name": "contributor",
          "type": "address"
        },
        {
          "indexed": false,
          "internalType": "uint256",
          "name": "amount",
          "type": "uint256"
        }
      ],
      "name": "AddReward",
      "type": "event"
    },
    {
      "anonymous": false,
      "inputs": [
        {
          "indexed": true,
          "internalType": "address",
          "name": "owner",
          "type": "address"
        },
        {
          "indexed": true,
          "internalType": "address",
          "name": "token",
          "type": "address"
        },
        {
          "indexed": false,
          "internalType": "uint256",
          "name": "amount",
          "type": "uint256"
        },
        {
          "indexed": false,
          "internalType": "uint256",
          "name": "endTime",
          "type": "uint256"
        }
      ],
      "name": "NewTask",
      "type": "event"
    },
    {
      "anonymous": false,
      "inputs": [
        {
          "indexed": true,
          "internalType": "address",
          "name": "previousOwner",
          "type": "address"
        },
        {
          "indexed": true,
          "internalType": "address",
          "name": "newOwner",
          "type": "address"
        }
      ],
      "name": "OwnershipTransferred",
      "type": "event"
    },
    {
      "anonymous": false,
      "inputs": [
        {
          "indexed": true,
          "internalType": "uint256",
          "name": "id",
          "type": "uint256"
        }
      ],
      "name": "Redeem",
      "type": "event"
    },
    {
      "anonymous": false,
      "inputs": [
        {
          "indexed": true,
          "internalType": "uint256",
          "name": "twitterId",
          "type": "uint256"
        },
        {
          "indexed": true,
          "internalType": "address",
          "name": "user",
          "type": "address"
        },
        {
          "indexed": false,
          "internalType": "uint256[]",
          "name": "taskIds",
          "type": "uint256[]"
        },
        {
          "indexed": false,
          "internalType": "uint256[]",
          "name": "amounts",
          "type": "uint256[]"
        }
      ],
      "name": "RewardInfo",
      "type": "event"
    },
    {
      "inputs": [
        {
          "internalType": "uint256",
          "name": "",
          "type": "uint256"
        },
        {
          "internalType": "uint256",
          "name": "",
          "type": "uint256"
        }
      ],
      "name": "alreadyClaimed",
      "outputs": [
        {
          "internalType": "bool",
          "name": "",
          "type": "bool"
        }
      ],
      "stateMutability": "view",
      "type": "function",
      "constant": true
    },
    {
      "inputs": [],
      "name": "chainId",
      "outputs": [
        {
          "internalType": "uint256",
          "name": "",
          "type": "uint256"
        }
      ],
      "stateMutability": "view",
      "type": "function",
      "constant": true
    },
    {
      "inputs": [],
      "name": "owner",
      "outputs": [
        {
          "internalType": "address",
          "name": "",
          "type": "address"
        }
      ],
      "stateMutability": "view",
      "type": "function",
      "constant": true
    },
    {
      "inputs": [],
      "name": "renounceOwnership",
      "outputs": [],
      "stateMutability": "nonpayable",
      "type": "function"
    },
    {
      "inputs": [],
      "name": "signAddress",
      "outputs": [
        {
          "internalType": "address",
          "name": "",
          "type": "address"
        }
      ],
      "stateMutability": "view",
      "type": "function",
      "constant": true
    },
    {
      "inputs": [
        {
          "internalType": "address",
          "name": "newOwner",
          "type": "address"
        }
      ],
      "name": "transferOwnership",
      "outputs": [],
      "stateMutability": "nonpayable",
      "type": "function"
    },
    {
      "inputs": [
        {
          "internalType": "address",
          "name": "addr",
          "type": "address"
        }
      ],
      "name": "setSignAddress",
      "outputs": [],
      "stateMutability": "nonpayable",
      "type": "function"
    },
    {
      "inputs": [
        {
          "internalType": "uint256",
          "name": "twitterId",
          "type": "uint256"
        },
        {
          "internalType": "uint256[]",
          "name": "curationIds",
          "type": "uint256[]"
        }
      ],
      "name": "checkClaim",
      "outputs": [
        {
          "internalType": "bool[]",
          "name": "",
          "type": "bool[]"
        }
      ],
      "stateMutability": "view",
      "type": "function",
      "constant": true
    },
    {
      "inputs": [
        {
          "internalType": "uint256",
          "name": "id",
          "type": "uint256"
        },
        {
          "internalType": "uint256",
          "name": "endTime",
          "type": "uint256"
        },
        {
          "internalType": "address",
          "name": "token",
          "type": "address"
        },
        {
          "internalType": "uint256",
          "name": "amount",
          "type": "uint256"
        },
        {
          "internalType": "uint256",
          "name": "maxCount",
          "type": "uint256"
        }
      ],
      "name": "newTask",
      "outputs": [],
      "stateMutability": "nonpayable",
      "type": "function"
    },
    {
      "inputs": [
        {
          "internalType": "uint256",
          "name": "id",
          "type": "uint256"
        },
        {
          "internalType": "uint256",
          "name": "amount",
          "type": "uint256"
        }
      ],
      "name": "appendReward",
      "outputs": [],
      "stateMutability": "nonpayable",
      "type": "function"
    },
    {
      "inputs": [
        {
          "internalType": "uint256",
          "name": "id",
          "type": "uint256"
        }
      ],
      "name": "redeem",
      "outputs": [],
      "stateMutability": "nonpayable",
      "type": "function"
    },
    {
      "inputs": [
        {
          "internalType": "uint256",
          "name": "twitterId",
          "type": "uint256"
        },
        {
          "internalType": "address",
          "name": "addr",
          "type": "address"
        },
        {
          "internalType": "uint256[]",
          "name": "curationIds",
          "type": "uint256[]"
        },
        {
          "internalType": "uint256[]",
          "name": "amounts",
          "type": "uint256[]"
        },
        {
          "internalType": "bytes",
          "name": "sign",
          "type": "bytes"
        }
      ],
      "name": "claimPrize",
      "outputs": [],
      "stateMutability": "nonpayable",
      "type": "function"
    },
    {
      "inputs": [
        {
          "internalType": "uint256",
          "name": "id",
          "type": "uint256"
        }
      ],
      "name": "taskInfo",
      "outputs": [
        {
          "components": [
            {
              "internalType": "uint256",
              "name": "endTime",
              "type": "uint256"
            },
            {
              "internalType": "address",
              "name": "owner",
              "type": "address"
            },
            {
              "internalType": "address",
              "name": "token",
              "type": "address"
            },
            {
              "internalType": "uint256",
              "name": "amount",
              "type": "uint256"
            },
            {
              "internalType": "uint256",
              "name": "claimedAmount",
              "type": "uint256"
            },
            {
              "internalType": "uint256",
              "name": "maxCount",
              "type": "uint256"
            },
            {
              "internalType": "uint256",
              "name": "userCount",
              "type": "uint256"
            }
          ],
          "internalType": "struct Curation.TaskInfo",
          "name": "task",
          "type": "tuple"
        }
      ],
      "stateMutability": "view",
      "type": "function",
      "constant": true
    }
  ],
  "bytecode": "0x608060405260896005553480156200001657600080fd5b50604051620018e2380380620018e28339810160408190526200003991620000d0565b6200004d620000476200007c565b62000080565b60018055600591909155600480546001600160a01b0319166001600160a01b039092169190911790556200010d565b3390565b600080546001600160a01b038381166001600160a01b0319831681178455604051919092169283917f8be0079c531659141344cd1fd0a4f28419497f9722a3daafe3b4186f6b6457e09190a35050565b60008060408385031215620000e3578182fd5b825160208401519092506001600160a01b038116811462000102578182fd5b809150509250929050565b6117c5806200011d6000396000f3fe608060405234801561001057600080fd5b50600436106100cf5760003560e01c80638da5cb5b1161008c578063cb9f881311610066578063cb9f881314610192578063cc167c9e146101b2578063db006a75146101c5578063f2fde38b146101d8576100cf565b80638da5cb5b146101625780639a8a05921461016a578063b9b889061461017f576100cf565b80630682bdbc146100d45780630c4f87ca146100f257806315137045146101125780635d35891014610127578063715018a61461013a5780637736429114610142575b600080fd5b6100dc6101eb565b6040516100e99190611293565b60405180910390f35b6101056101003660046110fc565b6101fa565b6040516100e991906112e4565b610125610120366004610fc9565b6102f9565b005b610125610135366004611167565b610363565b6101256104c6565b61015561015036600461100a565b610511565b6040516100e9919061166f565b6100dc610589565b610172610598565b6040516100e991906116cb565b61012561018d366004611022565b61059e565b6101a56101a0366004611146565b6109bf565b6040516100e9919061135c565b6101256101c0366004611146565b6109df565b6101256101d336600461100a565b610b34565b6101256101e6366004610fc9565b610cdd565b6004546001600160a01b031681565b606060008267ffffffffffffffff81111561022557634e487b7160e01b600052604160045260246000fd5b60405190808252806020026020018201604052801561024e578160200160208202803683370190505b50905060005b838110156102f05760008681526003602052604081209086868481811061028b57634e487b7160e01b600052603260045260246000fd5b90506020020135815260200190815260200160002060009054906101000a900460ff168282815181106102ce57634e487b7160e01b600052603260045260246000fd5b91151560209283029190910190910152806102e88161175e565b915050610254565b50949350505050565b610301610d4e565b6001600160a01b0316610312610589565b6001600160a01b0316146103415760405162461bcd60e51b8152600401610338906114f2565b60405180910390fd5b600480546001600160a01b0319166001600160a01b0392909216919091179055565b6000858152600260205260409020541561038f5760405162461bcd60e51b81526004016103389061149d565b4284116103ae5760405162461bcd60e51b815260040161033890611556565b6040516323b872dd60e01b81526001600160a01b038416906323b872dd906103de903390309087906004016112a7565b602060405180830381600087803b1580156103f857600080fd5b505af115801561040c573d6000803e3d6000fd5b505050506040513d601f19601f820116820180604052508101906104309190610fea565b506000858152600260208190526040918290208681556001810180546001600160a01b03199081163390811790925592820180546001600160a01b03891694168417905560038201869055600590910184905591519091907f9f0e91b5a5a94e5bc6c3f170f2871885e67bcba5d4029f7d3b65d9c7522e06a2906104b790869089906116d4565b60405180910390a35050505050565b6104ce610d4e565b6001600160a01b03166104df610589565b6001600160a01b0316146105055760405162461bcd60e51b8152600401610338906114f2565b61050f6000610d52565b565b610519610f15565b50600090815260026020818152604092839020835160e0810185528154815260018201546001600160a01b039081169382019390935292810154909116928201929092526003820154606082015260048201546080820152600582015460a082015260069091015460c082015290565b6000546001600160a01b031690565b60055481565b600260015414156105c15760405162461bcd60e51b815260040161033890611612565b6002600155846105e35760405162461bcd60e51b815260040161033890611385565b8483146106025760405162461bcd60e51b8152600401610338906115b5565b604181146106225760405162461bcd60e51b815260040161033890611470565b6001600160a01b038716331461064a5760405162461bcd60e51b8152600401610338906113af565b600088600554898989898960405160200161066b979695949392919061124b565b60405160208183030381529060405280519060200120905061068e818484610da2565b6106aa5760405162461bcd60e51b8152600401610338906114cc565b60005b868110156109675760008a8152600360205260408120908989848181106106e457634e487b7160e01b600052603260045260246000fd5b602090810292909201358352508101919091526040016000205460ff16610955576000600260008a8a8581811061072b57634e487b7160e01b600052603260045260246000fd5b9050602002013581526020019081526020016000209050428160000154106107655760405162461bcd60e51b815260040161033890611527565b806004015481600301546107799190611747565b87878481811061079957634e487b7160e01b600052603260045260246000fd5b9050602002013511156107be5760405162461bcd60e51b81526004016103389061141b565b600581015460068201546107d390600161170a565b11156107f15760405162461bcd60e51b81526004016103389061157e565b60008b81526003602052604081206001918b8b8681811061082257634e487b7160e01b600052603260045260246000fd5b90506020020135815260200190815260200160002060006101000a81548160ff0219169083151502179055506001816006016000828254610863919061170a565b90915550879050868381811061088957634e487b7160e01b600052603260045260246000fd5b905060200201358160040160008282546108a3919061170a565b909155505060028101546001600160a01b031663a9059cbb338989868181106108dc57634e487b7160e01b600052603260045260246000fd5b905060200201356040518363ffffffff1660e01b81526004016109009291906112cb565b602060405180830381600087803b15801561091a57600080fd5b505af115801561092e573d6000803e3d6000fd5b505050506040513d601f19601f820116820180604052508101906109529190610fea565b50505b8061095f8161175e565b9150506106ad565b50336001600160a01b0316897f7ce43466dab4c09becb50e4bad56f53274d62cbabf9946b1eff6d84ebd41f18a898989896040516109a8949392919061132a565b60405180910390a350506001805550505050505050565b600360209081526000928352604080842090915290825290205460ff1681565b600082815260026020526040902054610a0a5760405162461bcd60e51b8152600401610338906115db565b6000828152600260205260409020544210610a375760405162461bcd60e51b815260040161033890611649565b600082815260026020819052604091829020015490516323b872dd60e01b81526001600160a01b03909116906323b872dd90610a7b903390309086906004016112a7565b602060405180830381600087803b158015610a9557600080fd5b505af1158015610aa9573d6000803e3d6000fd5b505050506040513d601f19601f82011682018060405250810190610acd9190610fea565b5060008281526002602052604081206003018054839290610aef90849061170a565b9091555050604051339083907fecb17d85773a7badfe83b5e9972f80ca4f1e2ad21096741a115c36c31ef0160190610b289085906116cb565b60405180910390a35050565b60026001541415610b575760405162461bcd60e51b815260040161033890611612565b6002600155610b64610d4e565b6001600160a01b0316610b75610589565b6001600160a01b031614610b9b5760405162461bcd60e51b8152600401610338906114f2565b600081815260026020526040902054610bc65760405162461bcd60e51b8152600401610338906115db565b6000818152600260205260409020544211610bf35760405162461bcd60e51b815260040161033890611443565b60008181526002602052604090206003015415610cab57600081815260026020819052604091829020908101546001820154600390920154925163a9059cbb60e01b81526001600160a01b039182169363a9059cbb93610c579316916004016112cb565b602060405180830381600087803b158015610c7157600080fd5b505af1158015610c85573d6000803e3d6000fd5b505050506040513d601f19601f82011682018060405250810190610ca99190610fea565b505b60405181907f702d5967f45f6513a38ffc42d6ba9bf230bd40e8f53b16363c7eb4fd2deb9a4490600090a25060018055565b610ce5610d4e565b6001600160a01b0316610cf6610589565b6001600160a01b031614610d1c5760405162461bcd60e51b8152600401610338906114f2565b6001600160a01b038116610d425760405162461bcd60e51b8152600401610338906113d5565b610d4b81610d52565b50565b3390565b600080546001600160a01b038381166001600160a01b0319831681178455604051919092169283917f8be0079c531659141344cd1fd0a4f28419497f9722a3daafe3b4186f6b6457e09190a35050565b600080610db260208285876116e2565b810190610dbf919061100a565b90506000610dd16040602086886116e2565b810190610dde919061100a565b9050600085856040818110610e0357634e487b7160e01b600052603260045260246000fd5b919091013560f81c915050601b811015610e3d5760ff81161580610e2a57508060ff166001145b15610e3d57610e3a601b82611722565b90505b60006040518060400160405280601c81526020017f19457468657265756d205369676e6564204d6573736167653a0a333200000000815250905060008189604051602001610e8c92919061120c565b604051602081830303815290604052805190602001209050600060018285888860405160008152602001604052604051610ec99493929190611367565b6020604051602081039080840390855afa158015610eeb573d6000803e3d6000fd5b5050604051601f1901516004546001600160a01b039081169116149b9a5050505050505050505050565b6040518060e001604052806000815260200160006001600160a01b0316815260200160006001600160a01b03168152602001600081526020016000815260200160008152602001600081525090565b80356001600160a01b0381168114610f7b57600080fd5b919050565b60008083601f840112610f91578182fd5b50813567ffffffffffffffff811115610fa8578182fd5b6020830191508360208083028501011115610fc257600080fd5b9250929050565b600060208284031215610fda578081fd5b610fe382610f64565b9392505050565b600060208284031215610ffb578081fd5b81518015158114610fe3578182fd5b60006020828403121561101b578081fd5b5035919050565b60008060008060008060008060a0898b03121561103d578384fd5b8835975061104d60208a01610f64565b9650604089013567ffffffffffffffff80821115611069578586fd5b6110758c838d01610f80565b909850965060608b013591508082111561108d578586fd5b6110998c838d01610f80565b909650945060808b01359150808211156110b1578384fd5b818b0191508b601f8301126110c4578384fd5b8135818111156110d2578485fd5b8c60208285010111156110e3578485fd5b6020830194508093505050509295985092959890939650565b600080600060408486031215611110578283fd5b83359250602084013567ffffffffffffffff81111561112d578283fd5b61113986828701610f80565b9497909650939450505050565b60008060408385031215611158578182fd5b50508035926020909101359150565b600080600080600060a0868803121561117e578081fd5b853594506020860135935061119560408701610f64565b94979396509394606081013594506080013592915050565b81835260006001600160fb1b038311156111c5578081fd5b6020830280836020870137939093016020019283525090919050565b60006001600160fb1b038311156111f6578081fd5b6020830280838637939093019283525090919050565b60008351815b8181101561122c5760208187018101518583015201611212565b8181111561123a5782828501525b509190910191825250602001919050565b60008882528760208301526bffffffffffffffffffffffff198760601b16604083015261128661127f6054840187896111e1565b84866111e1565b9998505050505050505050565b6001600160a01b0391909116815260200190565b6001600160a01b039384168152919092166020820152604081019190915260600190565b6001600160a01b03929092168252602082015260400190565b6020808252825182820181905260009190848201906040850190845b8181101561131e578351151583529284019291840191600101611300565b50909695505050505050565b60006040825261133e6040830186886111ad565b82810360208401526113518185876111ad565b979650505050505050565b901515815260200190565b93845260ff9290921660208401526040830152606082015260800190565b60208082526010908201526f676574206174206c65617374206f6e6560801b604082015260600190565b6020808252600c908201526b34b73b30b634b21030b2323960a11b604082015260600190565b60208082526026908201527f4f776e61626c653a206e6577206f776e657220697320746865207a65726f206160408201526564647265737360d01b606082015260800190565b6020808252600e908201526d1a5b9d985b1a5908185b5bdd5b9d60921b604082015260600190565b6020808252601390820152720a8c2e6d640d0c2e640dcdee840ccd2dcd2e6d606b1b604082015260600190565b6020808252601390820152720d2dcecc2d8d2c840e6d2cedc40d8cadccee8d606b1b604082015260600190565b60208082526015908201527415185cdac81a185cc81899595b8818dc99585d1959605a1b604082015260600190565b6020808252600c908201526b34b73b30b634b21039b4b3b760a11b604082015260600190565b6020808252818101527f4f776e61626c653a2063616c6c6572206973206e6f7420746865206f776e6572604082015260600190565b60208082526015908201527431bab930ba34b7b71034b9903737ba1037bb32b91760591b604082015260600190565b6020808252600e908201526d57726f6e6720656e642074696d6560901b604082015260600190565b6020808252601c908201527f70617274696369706174696f6e206c696d697420657863656564656400000000604082015260600190565b6020808252600c908201526b696e76616c6964206461746160a01b604082015260600190565b60208082526019908201527f5461736b20686173206e6f74206265656e206372656174656400000000000000604082015260600190565b6020808252601f908201527f5265656e7472616e637947756172643a207265656e7472616e742063616c6c00604082015260600190565b6020808252600c908201526b3a30b9b59034b99037bb32b960a11b604082015260600190565b600060e08201905082518252602083015160018060a01b0380821660208501528060408601511660408501525050606083015160608301526080830151608083015260a083015160a083015260c083015160c083015292915050565b90815260200190565b918252602082015260400190565b600080858511156116f1578182fd5b838611156116fd578182fd5b5050820193919092039150565b6000821982111561171d5761171d611779565b500190565b600060ff821660ff84168060ff0382111561173f5761173f611779565b019392505050565b60008282101561175957611759611779565b500390565b600060001982141561177257611772611779565b5060010190565b634e487b7160e01b600052601160045260246000fdfea2646970667358221220a7003dfaba2b33a2a4b30ecc0e2e0c391a7d95dafd84b4488c58f5ef792f149d64736f6c63430008000033",
  "immutableReferences": {},
  "source": "// SPDX-License-Identifier: MIT\npragma solidity ^0.8.0;\npragma experimental ABIEncoderV2;\n\nimport \"@openzeppelin/contracts/access/Ownable.sol\";\nimport \"@openzeppelin/contracts/security/ReentrancyGuard.sol\";\nimport \"@openzeppelin/contracts/token/ERC20/IERC20.sol\";\n\ncontract Curation is Ownable, ReentrancyGuard {\n    struct TaskInfo {\n        uint256 endTime; // after this timestamp, the owner can change the state\n        address owner; // who create this task\n        address token; // the reward token\n        uint256 amount; // reward amount\n        uint256 claimedAmount;\n        uint256 maxCount; // Maximum number of rewards\n        uint256 userCount; // The number of users who have claim.\n    }\n\n    event NewTask(address indexed owner, address indexed token, uint256 amount, uint256 endTime);\n    event AddReward(uint256 indexed taskId, address indexed contributor, uint256 amount);\n    event Redeem(uint256 indexed id);\n    event RewardInfo(uint256 indexed twitterId, address indexed user, uint256[] taskIds, uint256[] amounts);\n\n    // all tasks list\n    // curation id => TaskInfo\n    mapping(uint256 => TaskInfo) private taskList;\n\n    // Flag claimed users\n    // twitterid => task id => bool\n    mapping(uint256 => mapping(uint256 => bool)) public alreadyClaimed;\n\n    address public signAddress;\n    uint256 public chainId = 137;\n\n    constructor(uint256 _chainId, address addr) {\n        chainId = _chainId;\n        signAddress = addr;\n    }\n\n    function setSignAddress(address addr) public onlyOwner {\n        signAddress = addr;\n    }\n\n    function checkClaim(uint256 twitterId, uint256[] calldata curationIds) public view returns (bool[] memory) {\n        bool[] memory result = new bool[](curationIds.length);\n        for (uint256 i = 0; i < curationIds.length; i++) {\n            result[i] = alreadyClaimed[twitterId][curationIds[i]];\n        }\n        return result;\n    }\n\n    // create a new task\n    // every one can create a task\n    function newTask(\n        uint256 id,\n        uint256 endTime,\n        address token,\n        uint256 amount,\n        uint256 maxCount\n    ) public {\n        require(taskList[id].endTime == 0, \"Task has been created\");\n        require(endTime > block.timestamp, \"Wrong end time\");\n\n        IERC20(token).transferFrom(msg.sender, address(this), amount);\n\n        taskList[id].endTime = endTime;\n        taskList[id].owner = msg.sender;\n        taskList[id].token = token;\n        taskList[id].amount = amount;\n        taskList[id].maxCount = maxCount;\n\n        emit NewTask(msg.sender, token, amount, endTime);\n    }\n\n    function appendReward(uint256 id, uint256 amount) public {\n        require(taskList[id].endTime > 0, \"Task has not been created\");\n        require(block.timestamp < taskList[id].endTime, \"task is over\");\n        IERC20(taskList[id].token).transferFrom(msg.sender, address(this), amount);\n        taskList[id].amount += amount;\n        emit AddReward(id, msg.sender, amount);\n    }\n\n    function redeem(uint256 id) public nonReentrant onlyOwner {\n        require(taskList[id].endTime > 0, \"Task has not been created\");\n        require(taskList[id].endTime < block.timestamp, \"Task has not finish\");\n\n        if (taskList[id].amount > 0) {\n            IERC20(taskList[id].token).transfer(taskList[id].owner, taskList[id].amount);\n        }\n        emit Redeem(id);\n    }\n\n    function claimPrize(\n        uint256 twitterId,\n        address addr,\n        uint256[] calldata curationIds,\n        uint256[] calldata amounts,\n        bytes calldata sign\n    ) public nonReentrant {\n        require(curationIds.length > 0, \"get at least one\");\n        require(curationIds.length == amounts.length, \"invalid data\");\n        require(sign.length == 65, \"invalid sign length\");\n        require(addr == msg.sender, \"invalid addr\");\n\n        bytes32 data = keccak256(abi.encodePacked(twitterId, chainId, addr, curationIds, amounts));\n        require(_check(data, sign), \"invalid sign\");\n\n        for (uint256 i = 0; i < curationIds.length; i++) {\n            if (alreadyClaimed[twitterId][curationIds[i]] == false) {\n                TaskInfo storage curation = taskList[curationIds[i]];\n                require(curation.endTime < block.timestamp, \"curation is not over.\");\n                require(amounts[i] <= curation.amount - curation.claimedAmount, \"invalid amount\");\n                require(curation.userCount + 1 <= curation.maxCount, \"participation limit exceeded\");\n\n                alreadyClaimed[twitterId][curationIds[i]] = true;\n                curation.userCount += 1;\n                curation.claimedAmount += amounts[i];\n\n                IERC20(curation.token).transfer(msg.sender, amounts[i]);\n            }\n        }\n        emit RewardInfo(twitterId, msg.sender, curationIds, amounts);\n    }\n\n    function _check(bytes32 data, bytes calldata sign) internal view returns (bool) {\n        bytes32 r = abi.decode(sign[:32], (bytes32));\n        bytes32 s = abi.decode(sign[32:64], (bytes32));\n        uint8 v = uint8(sign[64]);\n        if (v < 27) {\n            if (v == 0 || v == 1) v += 27;\n        }\n        bytes memory profix = \"\\x19Ethereum Signed Message:\\n32\";\n        bytes32 info = keccak256(abi.encodePacked(profix, data));\n        address addr = ecrecover(info, v, r, s);\n        return addr == signAddress;\n    }\n\n    // Get task's info\n    function taskInfo(uint256 id) public view returns (TaskInfo memory task) {\n        task = taskList[id];\n    }\n}\n",
  "sourcePath": "/Users/necklace/work/nutbox/nutbox-contract/contracts/Curation.sol",
  "compiler": {
    "name": "solc",
    "version": "0.8.0+commit.c7dfd78e.Emscripten.clang"
  },
  "schemaVersion": "3.4.6",
  "updatedAt": "2023-01-17T09:46:16.873Z",
  "networkType": "ethereum",
  "devdoc": {
    "kind": "dev",
    "methods": {
      "owner()": {
        "details": "Returns the address of the current owner."
      },
      "renounceOwnership()": {
        "details": "Leaves the contract without owner. It will not be possible to call `onlyOwner` functions anymore. Can only be called by the current owner. NOTE: Renouncing ownership will leave the contract without an owner, thereby removing any functionality that is only available to the owner."
      },
      "transferOwnership(address)": {
        "details": "Transfers ownership of the contract to a new account (`newOwner`). Can only be called by the current owner."
      }
    },
    "version": 1
  },
  "userdoc": {
    "kind": "user",
    "methods": {},
    "version": 1
  }
}