{
  "contractName": "Curation",
  "abi": [
    {
      "anonymous": false,
      "inputs": [
        {
          "indexed": true,
          "internalType": "uint256",
          "name": "taskId",
          "type": "uint256"
        },
        {
          "indexed": true,
          "internalType": "address",
          "name": "contributor",
          "type": "address"
        },
        {
          "indexed": false,
          "internalType": "uint256",
          "name": "amount",
          "type": "uint256"
        }
      ],
      "name": "AddReward",
      "type": "event"
    },
    {
      "anonymous": false,
      "inputs": [
        {
          "indexed": true,
          "internalType": "address",
          "name": "owner",
          "type": "address"
        },
        {
          "indexed": true,
          "internalType": "address",
          "name": "token",
          "type": "address"
        },
        {
          "indexed": false,
          "internalType": "uint256",
          "name": "amount",
          "type": "uint256"
        },
        {
          "indexed": false,
          "internalType": "uint256",
          "name": "endTime",
          "type": "uint256"
        }
      ],
      "name": "NewTask",
      "type": "event"
    },
    {
      "anonymous": false,
      "inputs": [
        {
          "indexed": true,
          "internalType": "address",
          "name": "previousOwner",
          "type": "address"
        },
        {
          "indexed": true,
          "internalType": "address",
          "name": "newOwner",
          "type": "address"
        }
      ],
      "name": "OwnershipTransferred",
      "type": "event"
    },
    {
      "anonymous": false,
      "inputs": [
        {
          "indexed": true,
          "internalType": "uint256",
          "name": "twitterId",
          "type": "uint256"
        },
        {
          "indexed": true,
          "internalType": "address",
          "name": "user",
          "type": "address"
        },
        {
          "indexed": false,
          "internalType": "address[]",
          "name": "tokens",
          "type": "address[]"
        },
        {
          "indexed": false,
          "internalType": "uint256[]",
          "name": "amounts",
          "type": "uint256[]"
        }
      ],
      "name": "RewardInfo",
      "type": "event"
    },
    {
      "anonymous": false,
      "inputs": [
        {
          "indexed": true,
          "internalType": "uint256",
          "name": "id",
          "type": "uint256"
        },
        {
          "indexed": false,
          "internalType": "uint8",
          "name": "state",
          "type": "uint8"
        }
      ],
      "name": "TaskStateChange",
      "type": "event"
    },
    {
      "inputs": [],
      "name": "owner",
      "outputs": [
        {
          "internalType": "address",
          "name": "",
          "type": "address"
        }
      ],
      "stateMutability": "view",
      "type": "function"
    },
    {
      "inputs": [],
      "name": "renounceOwnership",
      "outputs": [],
      "stateMutability": "nonpayable",
      "type": "function"
    },
    {
      "inputs": [
        {
          "internalType": "uint256",
          "name": "",
          "type": "uint256"
        }
      ],
      "name": "taskIds",
      "outputs": [
        {
          "internalType": "uint256",
          "name": "",
          "type": "uint256"
        }
      ],
      "stateMutability": "view",
      "type": "function"
    },
    {
      "inputs": [
        {
          "internalType": "address",
          "name": "newOwner",
          "type": "address"
        }
      ],
      "name": "transferOwnership",
      "outputs": [],
      "stateMutability": "nonpayable",
      "type": "function"
    },
    {
      "inputs": [
        {
          "internalType": "uint256",
          "name": "id",
          "type": "uint256"
        },
        {
          "internalType": "uint256",
          "name": "endTime",
          "type": "uint256"
        },
        {
          "internalType": "address",
          "name": "token",
          "type": "address"
        },
        {
          "internalType": "uint256",
          "name": "amount",
          "type": "uint256"
        },
        {
          "internalType": "uint256",
          "name": "topCount",
          "type": "uint256"
        },
        {
          "internalType": "uint256",
          "name": "maxCount",
          "type": "uint256"
        }
      ],
      "name": "newTask",
      "outputs": [],
      "stateMutability": "nonpayable",
      "type": "function"
    },
    {
      "inputs": [
        {
          "internalType": "uint256",
          "name": "id",
          "type": "uint256"
        },
        {
          "internalType": "uint256",
          "name": "amount",
          "type": "uint256"
        }
      ],
      "name": "appendReward",
      "outputs": [],
      "stateMutability": "nonpayable",
      "type": "function"
    },
    {
      "inputs": [
        {
          "internalType": "uint256",
          "name": "id",
          "type": "uint256"
        }
      ],
      "name": "redeem",
      "outputs": [],
      "stateMutability": "nonpayable",
      "type": "function"
    },
    {
      "inputs": [
        {
          "internalType": "uint256",
          "name": "twitterId",
          "type": "uint256"
        },
        {
          "internalType": "uint256[]",
          "name": "curationIds",
          "type": "uint256[]"
        },
        {
          "internalType": "uint256[]",
          "name": "amounts",
          "type": "uint256[]"
        },
        {
          "internalType": "bytes",
          "name": "sign",
          "type": "bytes"
        }
      ],
      "name": "claimPrize",
      "outputs": [],
      "stateMutability": "nonpayable",
      "type": "function"
    },
    {
      "inputs": [
        {
          "internalType": "uint256",
          "name": "id",
          "type": "uint256"
        }
      ],
      "name": "taskInfo",
      "outputs": [
        {
          "components": [
            {
              "internalType": "uint256",
              "name": "endTime",
              "type": "uint256"
            },
            {
              "internalType": "address",
              "name": "owner",
              "type": "address"
            },
            {
              "internalType": "address",
              "name": "token",
              "type": "address"
            },
            {
              "internalType": "uint256",
              "name": "amount",
              "type": "uint256"
            },
            {
              "internalType": "enum Curation.TaskState",
              "name": "taskState",
              "type": "uint8"
            },
            {
              "internalType": "uint256",
              "name": "id",
              "type": "uint256"
            },
            {
              "internalType": "uint256",
              "name": "currentIndex",
              "type": "uint256"
            },
            {
              "internalType": "uint256",
              "name": "topCount",
              "type": "uint256"
            },
            {
              "internalType": "uint256",
              "name": "maxCount",
              "type": "uint256"
            },
            {
              "internalType": "uint256",
              "name": "userCount",
              "type": "uint256"
            }
          ],
          "internalType": "struct Curation.TaskInfo",
          "name": "task",
          "type": "tuple"
        }
      ],
      "stateMutability": "view",
      "type": "function"
    },
    {
      "inputs": [],
      "name": "openningTasks",
      "outputs": [
        {
          "internalType": "uint256[]",
          "name": "ids",
          "type": "uint256[]"
        }
      ],
      "stateMutability": "view",
      "type": "function"
    },
    {
      "inputs": [],
      "name": "pendingTasks",
      "outputs": [
        {
          "internalType": "uint256[]",
          "name": "ids",
          "type": "uint256[]"
        }
      ],
      "stateMutability": "view",
      "type": "function"
    }
  ],
  "bytecode": "0x608060405234801561001057600080fd5b5061002161001c61002a565b61002e565b6001805561007e565b3390565b600080546001600160a01b038381166001600160a01b0319831681178455604051919092169283917f8be0079c531659141344cd1fd0a4f28419497f9722a3daafe3b4186f6b6457e09190a35050565b6113f28061008d6000396000f3fe608060405234801561001057600080fd5b50600436106100a95760003560e01c8063715018a611610071578063715018a61461011c57806377364291146101245780638da5cb5b14610144578063cc167c9e14610159578063db006a751461016c578063f2fde38b1461017f576100a9565b80630a1a8130146100ae5780633246be7f146100cc57806339118d25146100e1578063516f86e7146101015780635a95da4114610114575b600080fd5b6100b6610192565b6040516100c3919061101d565b60405180910390f35b6100df6100da366004610f4d565b6101a3565b005b6100f46100ef366004610e32565b610411565b6040516100c39190611352565b6100df61010f366004610e62565b610432565b6100b66104c3565b6100df6104cf565b610137610132366004610e32565b61051a565b6040516100c391906112c9565b61014c6105fc565b6040516100c39190610fcc565b6100df610167366004610f2c565b61060b565b6100df61017a366004610e32565b610832565b6100df61018d366004610df1565b610a67565b606061019e6004610ad8565b905090565b600086815260026020526040902054156101d85760405162461bcd60e51b81526004016101cf90611159565b60405180910390fd5b6040516370a0823160e01b815283906001600160a01b038616906370a0823190610206903390600401610fcc565b60206040518083038186803b15801561021e57600080fd5b505afa158015610232573d6000803e3d6000fd5b505050506040513d601f19601f820116820180604052508101906102569190610e4a565b10156102745760405162461bcd60e51b81526004016101cf906110d1565b4285116102935760405162461bcd60e51b81526004016101cf9061120d565b6040516323b872dd60e01b81526001600160a01b038516906323b872dd906102c390339030908890600401610fe0565b602060405180830381600087803b1580156102dd57600080fd5b505af11580156102f1573d6000803e3d6000fd5b505050506040513d601f19601f820116820180604052508101906103159190610e0b565b506000868152600260208190526040822087815560018082018054336001600160a01b03199182161790915592820180549093166001600160a01b0389161790925560038082018790556004808301805460ff19169055600583018b9055600783018790556008909201859055805492830181559092527fc2575a0e9e593c00f959f8c92f12db2869c3395a3b0502d05e2516446f71f85b018790556103bb9087610aee565b50836001600160a01b0316336001600160a01b03167f9f0e91b5a5a94e5bc6c3f170f2871885e67bcba5d4029f7d3b65d9c7522e06a2858860405161040192919061135b565b60405180910390a3505050505050565b6003818154811061042157600080fd5b600091825260209091200154905081565b600260015414156104555760405162461bcd60e51b81526004016101cf90611292565b6002600155846104775760405162461bcd60e51b81526004016101cf90611061565b8483146104965760405162461bcd60e51b81526004016101cf90611235565b604181146104b65760405162461bcd60e51b81526004016101cf906111b2565b5050600180555050505050565b606061019e6006610ad8565b6104d7610b03565b6001600160a01b03166104e86105fc565b6001600160a01b03161461050e5760405162461bcd60e51b81526004016101cf906111d8565b6105186000610b07565b565b610522610d3e565b6000828152600260208181526040928390208351610140810185528154815260018201546001600160a01b0390811693820193909352928101549091169282019290925260038083015460608301526004830154919291608084019160ff909116908111156105a157634e487b7160e01b600052602160045260246000fd5b60038111156105c057634e487b7160e01b600052602160045260246000fd5b81526005820154602082015260068201546040820152600782015460608201526008820154608082015260099091015460a09091015292915050565b6000546001600160a01b031690565b6000828152600260205260409020546106365760405162461bcd60e51b81526004016101cf9061125b565b600082815260026020819052604091829020015490516370a0823160e01b815282916001600160a01b0316906370a0823190610676903390600401610fcc565b60206040518083038186803b15801561068e57600080fd5b505afa1580156106a2573d6000803e3d6000fd5b505050506040513d601f19601f820116820180604052508101906106c69190610e4a565b10156106e45760405162461bcd60e51b81526004016101cf906110d1565b60008281526002602052604081206004015460ff16600381111561071857634e487b7160e01b600052602160045260246000fd5b146107355760405162461bcd60e51b81526004016101cf90611188565b600082815260026020819052604091829020015490516323b872dd60e01b81526001600160a01b03909116906323b872dd9061077990339030908690600401610fe0565b602060405180830381600087803b15801561079357600080fd5b505af11580156107a7573d6000803e3d6000fd5b505050506040513d601f19601f820116820180604052508101906107cb9190610e0b565b50600082815260026020526040812060030180548392906107ed908490611377565b9091555050604051339083907fecb17d85773a7badfe83b5e9972f80ca4f1e2ad21096741a115c36c31ef0160190610826908590611352565b60405180910390a35050565b600260015414156108555760405162461bcd60e51b81526004016101cf90611292565b6002600155610862610b03565b6001600160a01b03166108736105fc565b6001600160a01b0316146108995760405162461bcd60e51b81526004016101cf906111d8565b6000818152600260205260409020546108c45760405162461bcd60e51b81526004016101cf9061125b565b60008181526002602052604090205442116108f15760405162461bcd60e51b81526004016101cf906110ff565b60008181526002602052604081206004015460ff16600381111561092557634e487b7160e01b600052602160045260246000fd5b146109425760405162461bcd60e51b81526004016101cf9061112c565b6000818152600260208190526040909120600401805460ff1916600183021790555061096f600482610b57565b5060008181526002602052604090206003015415610a2857600081815260026020819052604091829020908101546001820154600390920154925163a9059cbb60e01b81526001600160a01b039182169363a9059cbb936109d4931691600401611004565b602060405180830381600087803b1580156109ee57600080fd5b505af1158015610a02573d6000803e3d6000fd5b505050506040513d601f19601f82011682018060405250810190610a269190610e0b565b505b807e79f62f5302f0da1aa03e7beeab939e6f4ff2e1d686044cba6149385d2a52816002604051610a589190611369565b60405180910390a25060018055565b610a6f610b03565b6001600160a01b0316610a806105fc565b6001600160a01b031614610aa65760405162461bcd60e51b81526004016101cf906111d8565b6001600160a01b038116610acc5760405162461bcd60e51b81526004016101cf9061108b565b610ad581610b07565b50565b60606000610ae583610b63565b9150505b919050565b6000610afa8383610bbf565b90505b92915050565b3390565b600080546001600160a01b038381166001600160a01b0319831681178455604051919092169283917f8be0079c531659141344cd1fd0a4f28419497f9722a3daafe3b4186f6b6457e09190a35050565b6000610afa8383610c09565b606081600001805480602002602001604051908101604052809291908181526020018280548015610bb357602002820191906000526020600020905b815481526020019060010190808311610b9f575b50505050509050919050565b6000610bcb8383610d26565b610c0157508154600181810184556000848152602080822090930184905584548482528286019093526040902091909155610afd565b506000610afd565b60008181526001830160205260408120548015610d1c576000610c2d60018361138f565b8554909150600090610c419060019061138f565b9050818114610cc2576000866000018281548110610c6f57634e487b7160e01b600052603260045260246000fd5b9060005260206000200154905080876000018481548110610ca057634e487b7160e01b600052603260045260246000fd5b6000918252602080832090910192909255918252600188019052604090208390555b8554869080610ce157634e487b7160e01b600052603160045260246000fd5b600190038181906000526020600020016000905590558560010160008681526020019081526020016000206000905560019350505050610afd565b6000915050610afd565b60009081526001919091016020526040902054151590565b604080516101408101825260008082526020820181905291810182905260608101829052906080820190815260200160008152602001600081526020016000815260200160008152602001600081525090565b80356001600160a01b0381168114610ae957600080fd5b60008083601f840112610db9578182fd5b50813567ffffffffffffffff811115610dd0578182fd5b6020830191508360208083028501011115610dea57600080fd5b9250929050565b600060208284031215610e02578081fd5b610afa82610d91565b600060208284031215610e1c578081fd5b81518015158114610e2b578182fd5b9392505050565b600060208284031215610e43578081fd5b5035919050565b600060208284031215610e5b578081fd5b5051919050565b60008060008060008060006080888a031215610e7c578283fd5b87359650602088013567ffffffffffffffff80821115610e9a578485fd5b610ea68b838c01610da8565b909850965060408a0135915080821115610ebe578485fd5b610eca8b838c01610da8565b909650945060608a0135915080821115610ee2578384fd5b818a0191508a601f830112610ef5578384fd5b813581811115610f03578485fd5b8b6020828501011115610f14578485fd5b60208301945080935050505092959891949750929550565b60008060408385031215610f3e578182fd5b50508035926020909101359150565b60008060008060008060c08789031215610f65578182fd5b8635955060208701359450610f7c60408801610d91565b9350606087013592506080870135915060a087013590509295509295509295565b6001600160a01b03169052565b60048110610fc857634e487b7160e01b600052602160045260246000fd5b9052565b6001600160a01b0391909116815260200190565b6001600160a01b039384168152919092166020820152604081019190915260600190565b6001600160a01b03929092168252602082015260400190565b6020808252825182820181905260009190848201906040850190845b8181101561105557835183529284019291840191600101611039565b50909695505050505050565b60208082526010908201526f676574206174206c65617374206f6e6560801b604082015260600190565b60208082526026908201527f4f776e61626c653a206e6577206f776e657220697320746865207a65726f206160408201526564647265737360d01b606082015260800190565b602080825260149082015273496e73756666696369656e742062616c616e636560601b604082015260600190565b6020808252601390820152720a8c2e6d640d0c2e640dcdee840ccd2dcd2e6d606b1b604082015260600190565b6020808252601390820152725461736b206973206e6f74206f70656e696e6760681b604082015260600190565b60208082526015908201527415185cdac81a185cc81899595b8818dc99585d1959605a1b604082015260600190565b60208082526010908201526f57726f6e67207461736b20737461746560801b604082015260600190565b6020808252600c908201526b34b73b30b634b21039b4b3b760a11b604082015260600190565b6020808252818101527f4f776e61626c653a2063616c6c6572206973206e6f7420746865206f776e6572604082015260600190565b6020808252600e908201526d57726f6e6720656e642074696d6560901b604082015260600190565b6020808252600c908201526b696e76616c6964206461746160a01b604082015260600190565b60208082526019908201527f5461736b20686173206e6f74206265656e206372656174656400000000000000604082015260600190565b6020808252601f908201527f5265656e7472616e637947756172643a207265656e7472616e742063616c6c00604082015260600190565b815181526020808301516101408301916112e590840182610f9d565b5060408301516112f86040840182610f9d565b506060830151606083015260808301516113156080840182610faa565b5060a083015160a083015260c083015160c083015260e083015160e083015261010080840151818401525061012080840151818401525092915050565b90815260200190565b918252602082015260400190565b60ff91909116815260200190565b6000821982111561138a5761138a6113a6565b500190565b6000828210156113a1576113a16113a6565b500390565b634e487b7160e01b600052601160045260246000fdfea264697066735822122079cba80e972354829d3709999495c434f644c4a04967bedf1b8da358c6c5281a64736f6c63430008000033",
  "immutableReferences": {},
  "source": "// SPDX-License-Identifier: MIT\npragma solidity ^0.8.0;\npragma experimental ABIEncoderV2;\n\nimport \"@openzeppelin/contracts/access/Ownable.sol\";\nimport \"@openzeppelin/contracts/security/ReentrancyGuard.sol\";\nimport \"@openzeppelin/contracts/utils/structs/EnumerableSet.sol\";\nimport \"@openzeppelin/contracts/token/ERC20/IERC20.sol\";\n\ncontract Curation is Ownable, ReentrancyGuard {\n    using EnumerableSet for EnumerableSet.UintSet;\n\n    // task status:\n    // Openning: when user create a new task;\n    // Pending: when we fill the user list;\n    // Closed: The task finished, token distribute to the users;\n    // Clean: clear the list of rewardList\n    enum TaskState {\n        Openning,\n        Pending,\n        Closed,\n        Clean\n    }\n\n    struct TaskInfo {\n        uint256 endTime; // after this timestamp, the owner can change the state\n        address owner; // who create this task\n        address token; // the reward token\n        uint256 amount; // reward amount\n        TaskState taskState;\n        uint256 id; // task id\n        uint256 currentIndex; // user tags that are currently distributed\n        uint256 topCount; // Define the number of top\n        uint256 maxCount; // Maximum number of rewards\n        uint256 userCount; // The number of users who have claim.\n    }\n\n    event NewTask(address indexed owner, address indexed token, uint256 amount, uint256 endTime);\n    event AddReward(uint256 indexed taskId, address indexed contributor, uint256 amount);\n    event TaskStateChange(uint256 indexed id, uint8 state);\n    event RewardInfo(uint256 indexed twitterId, address indexed user, address[] tokens, uint256[] amounts);\n\n    // all tasks list\n    mapping(uint256 => TaskInfo) private taskList;\n\n    // all tasks id\n    uint256[] public taskIds;\n    EnumerableSet.UintSet private openningTaskIds;\n    EnumerableSet.UintSet private pendingTaskIds;\n\n    // Flag claimed users\n    // twitterid => task id => bool\n    mapping(uint256 => mapping(uint256 => bool)) alreadyClaimed;\n\n    // create a new task\n    // every one can create a task\n    function newTask(\n        uint256 id,\n        uint256 endTime,\n        address token,\n        uint256 amount,\n        uint256 topCount,\n        uint256 maxCount\n    ) public {\n        require(taskList[id].endTime == 0, \"Task has been created\");\n        require(IERC20(token).balanceOf(msg.sender) >= amount, \"Insufficient balance\");\n        require(endTime > block.timestamp, \"Wrong end time\");\n        IERC20(token).transferFrom(msg.sender, address(this), amount);\n\n        taskList[id].endTime = endTime;\n        taskList[id].owner = msg.sender;\n        taskList[id].token = token;\n        taskList[id].amount = amount;\n        taskList[id].taskState = TaskState.Openning;\n        taskList[id].id = id;\n        taskList[id].topCount = topCount;\n        taskList[id].maxCount = maxCount;\n\n        taskIds.push(id);\n        openningTaskIds.add(id);\n\n        emit NewTask(msg.sender, token, amount, endTime);\n    }\n\n    function appendReward(uint256 id, uint256 amount) public {\n        require(taskList[id].endTime > 0, \"Task has not been created\");\n        require(IERC20(taskList[id].token).balanceOf(msg.sender) >= amount, \"Insufficient balance\");\n        require(taskList[id].taskState == TaskState.Openning, \"Wrong task state\");\n        IERC20(taskList[id].token).transferFrom(msg.sender, address(this), amount);\n        taskList[id].amount += amount;\n        emit AddReward(id, msg.sender, amount);\n    }\n\n    function redeem(uint256 id) public nonReentrant onlyOwner {\n        require(taskList[id].endTime > 0, \"Task has not been created\");\n        require(taskList[id].endTime < block.timestamp, \"Task has not finish\");\n        require(taskList[id].taskState == TaskState.Openning, \"Task is not opening\");\n        taskList[id].taskState = TaskState.Closed;\n        openningTaskIds.remove(id);\n        if (taskList[id].amount > 0) {\n            IERC20(taskList[id].token).transfer(taskList[id].owner, taskList[id].amount);\n        }\n        emit TaskStateChange(id, uint8(TaskState.Closed));\n    }\n\n    function claimPrize(\n        uint256 twitterId,\n        uint256[] calldata curationIds,\n        uint256[] calldata amounts,\n        bytes calldata sign\n    ) public nonReentrant {\n        require(curationIds.length > 0, \"get at least one\");\n        require(curationIds.length == amounts.length, \"invalid data\");\n        require(sign.length == 65, \"invalid sign\");\n    }\n\n    // Get task's head info\n    function taskInfo(uint256 id) public view returns (TaskInfo memory task) {\n        task = taskList[id];\n    }\n\n    function openningTasks() public view returns (uint256[] memory ids) {\n        ids = openningTaskIds.values();\n    }\n\n    function pendingTasks() public view returns (uint256[] memory ids) {\n        ids = pendingTaskIds.values();\n    }\n}\n",
  "sourcePath": "/Users/necklace/work/nutbox/nutbox-contract/contracts/Curation.sol",
  "compiler": {
    "name": "solc",
    "version": "0.8.0+commit.c7dfd78e.Emscripten.clang"
  },
  "schemaVersion": "3.4.6",
  "updatedAt": "2023-01-11T13:24:37.793Z",
  "devdoc": {
    "kind": "dev",
    "methods": {
      "owner()": {
        "details": "Returns the address of the current owner."
      },
      "renounceOwnership()": {
        "details": "Leaves the contract without owner. It will not be possible to call `onlyOwner` functions anymore. Can only be called by the current owner. NOTE: Renouncing ownership will leave the contract without an owner, thereby removing any functionality that is only available to the owner."
      },
      "transferOwnership(address)": {
        "details": "Transfers ownership of the contract to a new account (`newOwner`). Can only be called by the current owner."
      }
    },
    "version": 1
  },
  "userdoc": {
    "kind": "user",
    "methods": {},
    "version": 1
  }
}