{
  "contractName": "CurationGaugeFactory",
  "abi": [
    {
      "inputs": [
        {
          "internalType": "address",
          "name": "_communityFactory",
          "type": "address"
        }
      ],
      "stateMutability": "nonpayable",
      "type": "constructor"
    },
    {
      "anonymous": false,
      "inputs": [
        {
          "indexed": true,
          "internalType": "address",
          "name": "pool",
          "type": "address"
        },
        {
          "indexed": true,
          "internalType": "address",
          "name": "community",
          "type": "address"
        },
        {
          "indexed": false,
          "internalType": "string",
          "name": "name",
          "type": "string"
        },
        {
          "indexed": true,
          "internalType": "address",
          "name": "recipient",
          "type": "address"
        }
      ],
      "name": "CurationGaugeCreated",
      "type": "event"
    },
    {
      "anonymous": false,
      "inputs": [
        {
          "indexed": true,
          "internalType": "address",
          "name": "previousOwner",
          "type": "address"
        },
        {
          "indexed": true,
          "internalType": "address",
          "name": "newOwner",
          "type": "address"
        }
      ],
      "name": "OwnershipTransferred",
      "type": "event"
    },
    {
      "inputs": [],
      "name": "communityFactory",
      "outputs": [
        {
          "internalType": "address",
          "name": "",
          "type": "address"
        }
      ],
      "stateMutability": "view",
      "type": "function"
    },
    {
      "inputs": [],
      "name": "owner",
      "outputs": [
        {
          "internalType": "address",
          "name": "",
          "type": "address"
        }
      ],
      "stateMutability": "view",
      "type": "function"
    },
    {
      "inputs": [],
      "name": "renounceOwnership",
      "outputs": [],
      "stateMutability": "nonpayable",
      "type": "function"
    },
    {
      "inputs": [
        {
          "internalType": "address",
          "name": "newOwner",
          "type": "address"
        }
      ],
      "name": "transferOwnership",
      "outputs": [],
      "stateMutability": "nonpayable",
      "type": "function"
    },
    {
      "inputs": [],
      "name": "getFeeInfo",
      "outputs": [
        {
          "internalType": "address",
          "name": "",
          "type": "address"
        },
        {
          "internalType": "uint256",
          "name": "",
          "type": "uint256"
        }
      ],
      "stateMutability": "view",
      "type": "function"
    },
    {
      "inputs": [
        {
          "internalType": "uint256",
          "name": "_transFee",
          "type": "uint256"
        }
      ],
      "name": "updateFee",
      "outputs": [],
      "stateMutability": "nonpayable",
      "type": "function"
    },
    {
      "inputs": [
        {
          "internalType": "address",
          "name": "community",
          "type": "address"
        },
        {
          "internalType": "string",
          "name": "name",
          "type": "string"
        },
        {
          "internalType": "bytes",
          "name": "meta",
          "type": "bytes"
        }
      ],
      "name": "createPool",
      "outputs": [
        {
          "internalType": "address",
          "name": "",
          "type": "address"
        }
      ],
      "stateMutability": "nonpayable",
      "type": "function"
    }
  ],
  "bytecode": "0x60a06040526509184e72a00060015534801561001a57600080fd5b50604051611890380380611890833981016040819052610039916100fb565b6100496100446100a7565b6100ab565b6001600160a01b038116610092576040517f08c379a000000000000000000000000000000000000000000000000000000000815260040161008990610129565b60405180910390fd5b60601b6001600160601b031916608052610160565b3390565b600080546001600160a01b038381166001600160a01b0319831681178455604051919092169283917f8be0079c531659141344cd1fd0a4f28419497f9722a3daafe3b4186f6b6457e09190a35050565b60006020828403121561010c578081fd5b81516001600160a01b0381168114610122578182fd5b9392505050565b6020808252600f908201527f496e76616c696420616464726573730000000000000000000000000000000000604082015260600190565b60805160601c61170b610185600039600081816101be01526103aa015261170b6000f3fe60806040523480156200001157600080fd5b5060043610620000875760003560e01c80639012c4a811620000635780639012c4a814620000d4578063b883cc2a14620000eb578063f2fde38b1462000102578063fac8a61014620001195762000087565b806202eab7146200008c578063715018a614620000af5780638da5cb5b14620000bb575b600080fd5b6200009662000123565b604051620000a692919062000792565b60405180910390f35b620000b96200013b565b005b620000c562000153565b604051620000a6919062000747565b620000b9620000e5366004620006e0565b62000162565b620000c5620000fc366004620005d5565b62000171565b620000b962000113366004620005b1565b62000367565b620000c5620003a8565b6000806200013062000153565b600154915091509091565b62000145620003cc565b62000151600062000412565b565b6000546001600160a01b031690565b6200016c620003cc565b600155565b60006001600160a01b0385163314620001a75760405162461bcd60e51b81526004016200019e906200082e565b60405180910390fd5b604051633454a5b760e11b81526001600160a01b037f000000000000000000000000000000000000000000000000000000000000000016906368a94b6e90620001f590889060040162000747565b60206040518083038186803b1580156200020e57600080fd5b505afa15801562000223573d6000803e3d6000fd5b505050506040513d601f19601f82011682018060405250810190620002499190620006be565b620002685760405162461bcd60e51b81526004016200019e90620008d8565b6000620002b36000601486868080601f016020809104026020016040519081016040528093929190818152602001838380828437600092019190915250929493925050620004629050565b9050600060208201519050600087878360601c604051620002d4906200053c565b620002e2939291906200075b565b604051809103906000f080158015620002ff573d6000803e3d6000fd5b5090508160601c6001600160a01b0316886001600160a01b0316826001600160a01b03167f193ebe996767683a9d6219f81cb2487ff13d9ff9441ed1cd7ace1038766e09f98a604051620003549190620007ab565b60405180910390a4979650505050505050565b62000371620003cc565b6001600160a01b0381166200039a5760405162461bcd60e51b81526004016200019e90620007c0565b620003a58162000412565b50565b7f000000000000000000000000000000000000000000000000000000000000000081565b620003d662000538565b6001600160a01b0316620003e962000153565b6001600160a01b031614620001515760405162461bcd60e51b81526004016200019e9062000878565b600080546001600160a01b038381166001600160a01b0319831681178455604051919092169283917f8be0079c531659141344cd1fd0a4f28419497f9722a3daafe3b4186f6b6457e09190a35050565b6060816200047281601f62000903565b1015620004935760405162461bcd60e51b81526004016200019e9062000806565b6200049f828462000903565b84511015620004c25760405162461bcd60e51b81526004016200019e90620008ad565b606082158015620004e357604051915060008252602082016040526200052f565b6040519150601f8416801560200281840101858101878315602002848b0101015b818310156200051e57805183526020928301920162000504565b5050858452601f01601f1916604052505b50949350505050565b3390565b610d97806200093f83390190565b80356001600160a01b03811681146200056257600080fd5b919050565b60008083601f84011262000579578081fd5b50813567ffffffffffffffff81111562000591578182fd5b602083019150836020828501011115620005aa57600080fd5b9250929050565b600060208284031215620005c3578081fd5b620005ce826200054a565b9392505050565b60008060008060608587031215620005eb578283fd5b620005f6856200054a565b935060208086013567ffffffffffffffff8082111562000614578586fd5b818801915088601f83011262000628578586fd5b8135818111156200063d576200063d62000928565b604051601f8201601f191681018501838111828210171562000663576200066362000928565b60405281815283820185018b10156200067a578788fd5b81858501868301378785838301015280975050506040880135925080831115620006a2578485fd5b5050620006b28782880162000567565b95989497509550505050565b600060208284031215620006d0578081fd5b81518015158114620005ce578182fd5b600060208284031215620006f2578081fd5b5035919050565b60008151808452815b81811015620007205760208185018101518683018201520162000702565b81811115620007325782602083870101525b50601f01601f19169290920160200192915050565b6001600160a01b0391909116815260200190565b600060018060a01b038086168352606060208401526200077f6060840186620006f9565b9150808416604084015250949350505050565b6001600160a01b03929092168252602082015260400190565b600060208252620005ce6020830184620006f9565b60208082526026908201527f4f776e61626c653a206e6577206f776e657220697320746865207a65726f206160408201526564647265737360d01b606082015260800190565b6020808252600e908201526d736c6963655f6f766572666c6f7760901b604082015260600190565b6020808252602a908201527f5065726d697373696f6e2064656e6965643a2063616c6c6572206973206e6f7460408201526920636f6d6d756e69747960b01b606082015260800190565b6020808252818101527f4f776e61626c653a2063616c6c6572206973206e6f7420746865206f776e6572604082015260600190565b602080825260119082015270736c6963655f6f75744f66426f756e647360781b604082015260600190565b602080825260119082015270496e76616c696420636f6d6d756e69747960781b604082015260600190565b600082198211156200092357634e487b7160e01b81526011600452602481fd5b500190565b634e487b7160e01b600052604160045260246000fdfe60a06040523480156200001157600080fd5b5060405162000d9738038062000d9783398101604081905262000034916200018b565b600160008190553360601b60805260028054610100600160a81b0319166101006001600160a01b0387160217905582516200007591906020850190620000c8565b50600380546001600160a01b0319166001600160a01b0383169081179091556040516000907f68dd0f2c9ca18dce1e14e2e3f99123a6292bfde61698d10163545ee09a2bb7bb908290a350505062000308565b828054620000d69062000283565b90600052602060002090601f016020900481019282620000fa576000855562000145565b82601f106200011557805160ff191683800117855562000145565b8280016001018555821562000145579182015b828111156200014557825182559160200191906001019062000128565b506200015392915062000157565b5090565b5b8082111562000153576000815560010162000158565b80516001600160a01b03811681146200018657600080fd5b919050565b600080600060608486031215620001a0578283fd5b620001ab846200016e565b602085810151919450906001600160401b0380821115620001ca578485fd5b818701915087601f830112620001de578485fd5b815181811115620001f357620001f3620002d9565b604051601f8201601f1916810185018381118282101715620002195762000219620002d9565b60405281815283820185018a101562000230578687fd5b8692505b8183101562000253578383018501518184018601529184019162000234565b818311156200026457868583830101525b80965050505050506200027a604085016200016e565b90509250925092565b6002810460018216806200029857607f821691505b60208210811415620002d3577f4e487b7100000000000000000000000000000000000000000000000000000000600052602260045260246000fd5b50919050565b7f4e487b7100000000000000000000000000000000000000000000000000000000600052604160045260246000fd5b60805160601c610a7062000327600039600061040d0152610a706000f3fe608060405234801561001057600080fd5b50600436106100a95760003560e01c806394465b211161007157806394465b21146101085780639a4069c51461011b578063c51db6b21461012e578063dc1fb5a514610136578063e3332f931461013e578063fa08c90814610153576100a9565b80630309a27e146100ae57806306fdde03146100b857806338adb6f0146100d657806366d003ac146100eb57806388cc58e414610100575b600080fd5b6100b661015b565b005b6100c0610368565b6040516100cd9190610878565b60405180910390f35b6100de6103f6565b6040516100cd91906109b2565b6100f36103fc565b6040516100cd91906107f3565b6100f361040b565b6100de610116366004610760565b61042f565b6100b6610129366004610760565b610454565b6100f3610556565b6100f361056a565b61014661057e565b6040516100cd919061086d565b6100b6610587565b60408051600180825281830190925260009160208083019080368337019050509050308160008151811061019f57634e487b7160e01b600052603260045260246000fd5b6001600160a01b039283166020918202929092010152600254604051631e50805b60e21b815261010090910490911690637942016c906101e3908490600401610820565b600060405180830381600087803b1580156101fd57600080fd5b505af1158015610211573d6000803e3d6000fd5b505050506000600260019054906101000a90046001600160a01b03166001600160a01b03166399efcaec6040518163ffffffff1660e01b815260040160206040518083038186803b15801561026557600080fd5b505afa158015610279573d6000803e3d6000fd5b505050506040513d601f19601f8201168201806040525081019061029d9190610783565b90506000816001600160a01b03166370a08231306040518263ffffffff1660e01b81526004016102cd91906107f3565b60206040518083038186803b1580156102e557600080fd5b505afa1580156102f9573d6000803e3d6000fd5b505050506040513d601f19601f8201168201806040525081019061031d91906107bf565b6003549091506103389083906001600160a01b03168361063d565b60405181907fba2c90d43e3865c0bf465b80929fceeb2e0a2623c07973d81118460d549711b490600090a2505050565b60018054610375906109e7565b80601f01602080910402602001604051908101604052809291908181526020018280546103a1906109e7565b80156103ee5780601f106103c3576101008083540402835291602001916103ee565b820191906000526020600020905b8154815290600101906020018083116103d157829003601f168201915b505050505081565b60045490565b6003546001600160a01b031681565b7f000000000000000000000000000000000000000000000000000000000000000090565b60006001600160a01b03821630141561044b575060045461044f565b5060005b919050565b60025460408051638da5cb5b60e01b81529051339261010090046001600160a01b031691638da5cb5b916004808301926020929190829003018186803b15801561049d57600080fd5b505afa1580156104b1573d6000803e3d6000fd5b505050506040513d601f19601f820116820180604052508101906104d59190610783565b6001600160a01b0316146105045760405162461bcd60e51b81526004016104fb90610965565b60405180910390fd5b600380546001600160a01b038381166001600160a01b0319831681179093556040519116919082907f68dd0f2c9ca18dce1e14e2e3f99123a6292bfde61698d10163545ee09a2bb7bb90600090a35050565b60025461010090046001600160a01b031690565b60025461010090046001600160a01b031681565b60025460ff1681565b600454156105a75760405162461bcd60e51b81526004016104fb9061090f565b60025460405163579dea7960e11b81526101009091046001600160a01b03169063af3bd4f2906105db9030906004016108e0565b600060405180830381600087803b1580156105f557600080fd5b505af1158015610609573d6000803e3d6000fd5b5050600160045550506040517f960682678fca98f3ed131eaf165e59544bcd738e948f0b3c64f58fa9e1c65e6090600090a1565b8261064981848461064f565b50505050565b6106a58363a9059cbb60e01b848460405160240161066e929190610807565b60408051601f198184030181529190526020810180516001600160e01b03166001600160e01b0319909316929092179091526106aa565b505050565b600080836001600160a01b0316836040516106c591906107d7565b6000604051808303816000865af19150503d8060008114610702576040519150601f19603f3d011682016040523d82523d6000602084013e610707565b606091505b5091509150816107295760405162461bcd60e51b81526004016104fb90610939565b8051156106495780806020019051810190610744919061079f565b6106495760405162461bcd60e51b81526004016104fb906108ab565b600060208284031215610771578081fd5b813561077c81610a22565b9392505050565b600060208284031215610794578081fd5b815161077c81610a22565b6000602082840312156107b0578081fd5b8151801515811461077c578182fd5b6000602082840312156107d0578081fd5b5051919050565b600082516107e98184602087016109bb565b9190910192915050565b6001600160a01b0391909116815260200190565b6001600160a01b03929092168252602082015260400190565b6020808252825182820181905260009190848201906040850190845b818110156108615783516001600160a01b03168352928401929184019160010161083c565b50909695505050505050565b901515815260200190565b60006020825282518060208401526108978160408501602087016109bb565b601f01601f19169190910160400192915050565b6020808252818101527f45524332303a206f7065726174696f6e20646964206e6f742073756363656564604082015260600190565b6040808252600490820152632aa9a2a960e11b60608201526001600160a01b0391909116602082015260800190565b60208082526010908201526f141bdbdb081a185cc81cdd185c9d195960821b604082015260600190565b602080825260129082015271115490cc8c0e8818d85b1b0819985a5b195960721b604082015260600190565b6020808252602d908201527f4f6e6c792074686520636f6d6d756e697479206f776e65722063616e2063686160408201526c1b99d9481c9958da5c1a595b9d609a1b606082015260800190565b90815260200190565b60005b838110156109d65781810151838201526020016109be565b838111156106495750506000910152565b6002810460018216806109fb57607f821691505b60208210811415610a1c57634e487b7160e01b600052602260045260246000fd5b50919050565b6001600160a01b0381168114610a3757600080fd5b5056fea264697066735822122041ffa69530773dc47dc3b469125097172c6a94cbc9c7f7c680e1e7f2d5b31e2864736f6c63430008000033a2646970667358221220e8736142f95973515d14ce7ffb84a14faa09c591f5c071382c92eda1725bea0b64736f6c63430008000033",
  "immutableReferences": {
    "14704": [
      {
        "length": 32,
        "start": 446
      },
      {
        "length": 32,
        "start": 938
      }
    ]
  },
  "source": "// SPDX-License-Identifier: MIT\n\npragma solidity 0.8.0;\npragma experimental ABIEncoderV2;\n\nimport \"solidity-bytes-utils/contracts/BytesLib.sol\";\nimport \"../../interfaces/IPoolFactory.sol\";\nimport \"./CurationGauge.sol\";\nimport \"../../CommunityFactory.sol\";\nimport \"@openzeppelin/contracts/access/Ownable.sol\";\n\n/**\n * @dev Factory contract of curation pool factory.\n */\ncontract CurationGaugeFactory is IPoolFactory, Ownable {\n    using BytesLib for bytes;\n    address public immutable communityFactory;\n    uint256 private transFee = 0.00001 ether;\n\n    constructor(address _communityFactory) {\n        require(_communityFactory != address(0), \"Invalid address\");\n        communityFactory = _communityFactory;\n    }\n\n    event CurationGaugeCreated(\n        address indexed pool,\n        address indexed community,\n        string name,\n        address indexed recipient\n    );\n\n    function getFeeInfo() public override view returns (address, uint256) {\n        return (owner(), transFee);\n    }\n\n    function updateFee(uint256 _transFee) public onlyOwner() {\n        transFee = _transFee;\n    }\n\n    function createPool(address community, string memory name, bytes calldata meta) override external returns(address) {\n        require(community == msg.sender, 'Permission denied: caller is not community');\n        require(CommunityFactory(communityFactory).createdCommunity(community), \"Invalid community\");\n        bytes memory recipientBytes = meta.slice(0, 20);\n        bytes20 recipient;\n        assembly {\n            recipient := mload(add(recipientBytes, 0x20))\n        }\n        CurationGauge pool = new CurationGauge(community, name, address(recipient));\n        emit CurationGaugeCreated(address(pool), community, name, address(recipient));\n        return address(pool);\n    }\n}\n",
  "sourcePath": "/Users/wangxi/work/Walnut-V2/nutbox-contract/contracts/dapps/curation/CurationGaugeFactory.sol",
  "compiler": {
    "name": "solc",
    "version": "0.8.0+commit.c7dfd78e.Emscripten.clang"
  },
  "schemaVersion": "3.4.14",
  "updatedAt": "2024-06-20T15:00:49.699Z",
  "devdoc": {
    "details": "Factory contract of curation pool factory.",
    "kind": "dev",
    "methods": {
      "owner()": {
        "details": "Returns the address of the current owner."
      },
      "renounceOwnership()": {
        "details": "Leaves the contract without owner. It will not be possible to call `onlyOwner` functions. Can only be called by the current owner. NOTE: Renouncing ownership will leave the contract without an owner, thereby disabling any functionality that is only available to the owner."
      },
      "transferOwnership(address)": {
        "details": "Transfers ownership of the contract to a new account (`newOwner`). Can only be called by the current owner."
      }
    },
    "version": 1
  },
  "userdoc": {
    "kind": "user",
    "methods": {},
    "version": 1
  }
}