{
  "contractName": "Curation",
  "abi": [
    {
      "inputs": [
        {
          "internalType": "uint256",
          "name": "_chainId",
          "type": "uint256"
        },
        {
          "internalType": "address",
          "name": "addr",
          "type": "address"
        }
      ],
      "stateMutability": "nonpayable",
      "type": "constructor"
    },
    {
      "anonymous": false,
      "inputs": [
        {
          "indexed": true,
          "internalType": "uint256",
          "name": "taskId",
          "type": "uint256"
        },
        {
          "indexed": true,
          "internalType": "address",
          "name": "contributor",
          "type": "address"
        },
        {
          "indexed": false,
          "internalType": "uint256",
          "name": "amount",
          "type": "uint256"
        }
      ],
      "name": "AddReward",
      "type": "event"
    },
    {
      "anonymous": false,
      "inputs": [
        {
          "indexed": true,
          "internalType": "address",
          "name": "owner",
          "type": "address"
        },
        {
          "indexed": true,
          "internalType": "address",
          "name": "token",
          "type": "address"
        },
        {
          "indexed": false,
          "internalType": "uint256",
          "name": "amount",
          "type": "uint256"
        },
        {
          "indexed": false,
          "internalType": "uint256",
          "name": "endTime",
          "type": "uint256"
        }
      ],
      "name": "NewTask",
      "type": "event"
    },
    {
      "anonymous": false,
      "inputs": [
        {
          "indexed": true,
          "internalType": "address",
          "name": "previousOwner",
          "type": "address"
        },
        {
          "indexed": true,
          "internalType": "address",
          "name": "newOwner",
          "type": "address"
        }
      ],
      "name": "OwnershipTransferred",
      "type": "event"
    },
    {
      "anonymous": false,
      "inputs": [
        {
          "indexed": true,
          "internalType": "uint256",
          "name": "id",
          "type": "uint256"
        }
      ],
      "name": "Redeem",
      "type": "event"
    },
    {
      "anonymous": false,
      "inputs": [
        {
          "indexed": true,
          "internalType": "uint256",
          "name": "twitterId",
          "type": "uint256"
        },
        {
          "indexed": true,
          "internalType": "address",
          "name": "user",
          "type": "address"
        },
        {
          "indexed": false,
          "internalType": "uint256[]",
          "name": "taskIds",
          "type": "uint256[]"
        },
        {
          "indexed": false,
          "internalType": "uint256[]",
          "name": "amounts",
          "type": "uint256[]"
        }
      ],
      "name": "RewardInfo",
      "type": "event"
    },
    {
      "inputs": [
        {
          "internalType": "uint256",
          "name": "",
          "type": "uint256"
        },
        {
          "internalType": "uint256",
          "name": "",
          "type": "uint256"
        }
      ],
      "name": "alreadyClaimed",
      "outputs": [
        {
          "internalType": "bool",
          "name": "",
          "type": "bool"
        }
      ],
      "stateMutability": "view",
      "type": "function"
    },
    {
      "inputs": [],
      "name": "chainId",
      "outputs": [
        {
          "internalType": "uint256",
          "name": "",
          "type": "uint256"
        }
      ],
      "stateMutability": "view",
      "type": "function"
    },
    {
      "inputs": [],
      "name": "owner",
      "outputs": [
        {
          "internalType": "address",
          "name": "",
          "type": "address"
        }
      ],
      "stateMutability": "view",
      "type": "function"
    },
    {
      "inputs": [],
      "name": "renounceOwnership",
      "outputs": [],
      "stateMutability": "nonpayable",
      "type": "function"
    },
    {
      "inputs": [],
      "name": "signAddress",
      "outputs": [
        {
          "internalType": "address",
          "name": "",
          "type": "address"
        }
      ],
      "stateMutability": "view",
      "type": "function"
    },
    {
      "inputs": [
        {
          "internalType": "address",
          "name": "newOwner",
          "type": "address"
        }
      ],
      "name": "transferOwnership",
      "outputs": [],
      "stateMutability": "nonpayable",
      "type": "function"
    },
    {
      "inputs": [
        {
          "internalType": "address",
          "name": "addr",
          "type": "address"
        }
      ],
      "name": "setSignAddress",
      "outputs": [],
      "stateMutability": "nonpayable",
      "type": "function"
    },
    {
      "inputs": [
        {
          "internalType": "uint256",
          "name": "twitterId",
          "type": "uint256"
        },
        {
          "internalType": "uint256[]",
          "name": "curationIds",
          "type": "uint256[]"
        }
      ],
      "name": "checkClaim",
      "outputs": [
        {
          "internalType": "bool[]",
          "name": "",
          "type": "bool[]"
        }
      ],
      "stateMutability": "view",
      "type": "function"
    },
    {
      "inputs": [
        {
          "internalType": "uint256",
          "name": "id",
          "type": "uint256"
        },
        {
          "internalType": "uint256",
          "name": "endTime",
          "type": "uint256"
        },
        {
          "internalType": "address",
          "name": "token",
          "type": "address"
        },
        {
          "internalType": "uint256",
          "name": "amount",
          "type": "uint256"
        },
        {
          "internalType": "uint256",
          "name": "maxCount",
          "type": "uint256"
        }
      ],
      "name": "newTask",
      "outputs": [],
      "stateMutability": "nonpayable",
      "type": "function"
    },
    {
      "inputs": [
        {
          "internalType": "uint256",
          "name": "id",
          "type": "uint256"
        },
        {
          "internalType": "uint256",
          "name": "amount",
          "type": "uint256"
        }
      ],
      "name": "appendReward",
      "outputs": [],
      "stateMutability": "nonpayable",
      "type": "function"
    },
    {
      "inputs": [
        {
          "internalType": "uint256",
          "name": "id",
          "type": "uint256"
        }
      ],
      "name": "redeem",
      "outputs": [],
      "stateMutability": "nonpayable",
      "type": "function"
    },
    {
      "inputs": [
        {
          "internalType": "uint256",
          "name": "twitterId",
          "type": "uint256"
        },
        {
          "internalType": "address",
          "name": "addr",
          "type": "address"
        },
        {
          "internalType": "uint256[]",
          "name": "curationIds",
          "type": "uint256[]"
        },
        {
          "internalType": "uint256[]",
          "name": "amounts",
          "type": "uint256[]"
        },
        {
          "internalType": "bytes",
          "name": "sign",
          "type": "bytes"
        }
      ],
      "name": "claimPrize",
      "outputs": [],
      "stateMutability": "nonpayable",
      "type": "function"
    },
    {
      "inputs": [
        {
          "internalType": "uint256",
          "name": "id",
          "type": "uint256"
        }
      ],
      "name": "taskInfo",
      "outputs": [
        {
          "components": [
            {
              "internalType": "uint256",
              "name": "endTime",
              "type": "uint256"
            },
            {
              "internalType": "address",
              "name": "owner",
              "type": "address"
            },
            {
              "internalType": "address",
              "name": "token",
              "type": "address"
            },
            {
              "internalType": "uint256",
              "name": "amount",
              "type": "uint256"
            },
            {
              "internalType": "uint256",
              "name": "claimedAmount",
              "type": "uint256"
            },
            {
              "internalType": "uint256",
              "name": "maxCount",
              "type": "uint256"
            },
            {
              "internalType": "uint256",
              "name": "userCount",
              "type": "uint256"
            }
          ],
          "internalType": "struct Curation.TaskInfo",
          "name": "task",
          "type": "tuple"
        }
      ],
      "stateMutability": "view",
      "type": "function"
    }
  ],
  "bytecode": "0x6080604052608960055534801561001557600080fd5b506040516117dc3803806117dc833981016040819052610034916100bb565b61003d3361006b565b60018055600591909155600480546001600160a01b0319166001600160a01b039092169190911790556100f8565b600080546001600160a01b038381166001600160a01b0319831681178455604051919092169283917f8be0079c531659141344cd1fd0a4f28419497f9722a3daafe3b4186f6b6457e09190a35050565b600080604083850312156100ce57600080fd5b825160208401519092506001600160a01b03811681146100ed57600080fd5b809150509250929050565b6116d5806101076000396000f3fe608060405234801561001057600080fd5b50600436106100cf5760003560e01c80638da5cb5b1161008c578063cb9f881311610066578063cb9f881314610201578063cc167c9e1461023f578063db006a7514610252578063f2fde38b1461026557600080fd5b80638da5cb5b146101c65780639a8a0592146101d7578063b9b88906146101ee57600080fd5b80630682bdbc146100d45780630c4f87ca1461010457806315137045146101245780635d35891014610139578063715018a61461014c5780637736429114610154575b600080fd5b6004546100e7906001600160a01b031681565b6040516001600160a01b0390911681526020015b60405180910390f35b61011761011236600461121e565b610278565b6040516100fb919061126a565b6101376101323660046112cc565b61034d565b005b6101376101473660046112ee565b6103a2565b61013761053f565b610167610162366004611335565b610575565b60408051825181526020808401516001600160a01b0390811691830191909152838301511691810191909152606080830151908201526080808301519082015260a0808301519082015260c0918201519181019190915260e0016100fb565b6000546001600160a01b03166100e7565b6101e060055481565b6040519081526020016100fb565b6101376101fc36600461134e565b610637565b61022f61020f36600461142f565b600360209081526000928352604080842090915290825290205460ff1681565b60405190151581526020016100fb565b61013761024d36600461142f565b610b7c565b610137610260366004611335565b610d0c565b6101376102733660046112cc565b610f76565b606060008267ffffffffffffffff81111561029557610295611451565b6040519080825280602002602001820160405280156102be578160200160208202803683370190505b50905060005b83811015610344576000868152600360205260408120908686848181106102ed576102ed611467565b90506020020135815260200190815260200160002060009054906101000a900460ff1682828151811061032257610322611467565b911515602092830291909101909101528061033c81611493565b9150506102c4565b50949350505050565b6000546001600160a01b031633146103805760405162461bcd60e51b8152600401610377906114ac565b60405180910390fd5b600480546001600160a01b0319166001600160a01b0392909216919091179055565b600085815260026020526040902054156103f65760405162461bcd60e51b815260206004820152601560248201527415185cdac81a185cc81899595b8818dc99585d1959605a1b6044820152606401610377565b4284116104365760405162461bcd60e51b815260206004820152600e60248201526d57726f6e6720656e642074696d6560901b6044820152606401610377565b6040516323b872dd60e01b8152336004820152306024820152604481018390526001600160a01b038416906323b872dd906064016020604051808303816000875af1158015610489573d6000803e3d6000fd5b505050506040513d601f19601f820116820180604052508101906104ad91906114e1565b506000858152600260208181526040928390208781556001810180546001600160a01b03199081163390811790925593820180546001600160a01b038a16951685179055600382018790556005909101859055835186815291820188905291927f9f0e91b5a5a94e5bc6c3f170f2871885e67bcba5d4029f7d3b65d9c7522e06a2910160405180910390a35050505050565b6000546001600160a01b031633146105695760405162461bcd60e51b8152600401610377906114ac565b6105736000611011565b565b6105c76040518060e001604052806000815260200160006001600160a01b0316815260200160006001600160a01b03168152602001600081526020016000815260200160008152602001600081525090565b50600090815260026020818152604092839020835160e0810185528154815260018201546001600160a01b039081169382019390935292810154909116928201929092526003820154606082015260048201546080820152600582015460a082015260069091015460c082015290565b6002600154036106895760405162461bcd60e51b815260206004820152601f60248201527f5265656e7472616e637947756172643a207265656e7472616e742063616c6c006044820152606401610377565b6002600155846106ce5760405162461bcd60e51b815260206004820152601060248201526f676574206174206c65617374206f6e6560801b6044820152606401610377565b84831461070c5760405162461bcd60e51b815260206004820152600c60248201526b696e76616c6964206461746160a01b6044820152606401610377565b604181146107525760405162461bcd60e51b81526020600482015260136024820152720d2dcecc2d8d2c840e6d2cedc40d8cadccee8d606b1b6044820152606401610377565b6001600160a01b03871633146107995760405162461bcd60e51b815260206004820152600c60248201526b34b73b30b634b21030b2323960a11b6044820152606401610377565b60008860055489898989896040516020016107ba9796959493929190611530565b6040516020818303038152906040528051906020012090506107dd818484611061565b6108185760405162461bcd60e51b815260206004820152600c60248201526b34b73b30b634b21039b4b3b760a11b6044820152606401610377565b60005b86811015610b245760008a81526003602052604081209089898481811061084457610844611467565b6020908102929092013583525081019190915260400160009081205460ff1615159003610b12576000600260008a8a8581811061088357610883611467565b9050602002013581526020019081526020016000209050428160000154106108e55760405162461bcd60e51b815260206004820152601560248201527431bab930ba34b7b71034b9903737ba1037bb32b91760591b6044820152606401610377565b806004015481600301546108f99190611578565b87878481811061090b5761090b611467565b9050602002013511156109515760405162461bcd60e51b815260206004820152600e60248201526d1a5b9d985b1a5908185b5bdd5b9d60921b6044820152606401610377565b6005810154600682015461096690600161158f565b11156109b45760405162461bcd60e51b815260206004820152601c60248201527f70617274696369706174696f6e206c696d6974206578636565646564000000006044820152606401610377565b60008b81526003602052604081206001918b8b868181106109d7576109d7611467565b90506020020135815260200190815260200160002060006101000a81548160ff0219169083151502179055506000878784818110610a1757610a17611467565b905060200201351115610b10576001816006016000828254610a39919061158f565b909155508790508683818110610a5157610a51611467565b90506020020135816004016000828254610a6b919061158f565b909155505060028101546001600160a01b031663a9059cbb33898986818110610a9657610a96611467565b6040516001600160e01b031960e087901b1681526001600160a01b03909416600485015260200291909101356024830152506044016020604051808303816000875af1158015610aea573d6000803e3d6000fd5b505050506040513d601f19601f82011682018060405250810190610b0e91906114e1565b505b505b80610b1c81611493565b91505061081b565b50336001600160a01b0316897f7ce43466dab4c09becb50e4bad56f53274d62cbabf9946b1eff6d84ebd41f18a89898989604051610b6594939291906115dd565b60405180910390a350506001805550505050505050565b600082815260026020526040902054610bd35760405162461bcd60e51b815260206004820152601960248201527815185cdac81a185cc81b9bdd081899595b8818dc99585d1959603a1b6044820152606401610377565b6000828152600260205260409020544210610c1f5760405162461bcd60e51b815260206004820152600c60248201526b3a30b9b59034b99037bb32b960a11b6044820152606401610377565b600082815260026020819052604091829020015490516323b872dd60e01b8152336004820152306024820152604481018390526001600160a01b03909116906323b872dd906064016020604051808303816000875af1158015610c86573d6000803e3d6000fd5b505050506040513d601f19601f82011682018060405250810190610caa91906114e1565b5060008281526002602052604081206003018054839290610ccc90849061158f565b9091555050604051818152339083907fecb17d85773a7badfe83b5e9972f80ca4f1e2ad21096741a115c36c31ef016019060200160405180910390a35050565b600260015403610d5e5760405162461bcd60e51b815260206004820152601f60248201527f5265656e7472616e637947756172643a207265656e7472616e742063616c6c006044820152606401610377565b60026001556000546001600160a01b03163314610d8d5760405162461bcd60e51b8152600401610377906114ac565b600081815260026020526040902054610de45760405162461bcd60e51b815260206004820152601960248201527815185cdac81a185cc81b9bdd081899595b8818dc99585d1959603a1b6044820152606401610377565b6000818152600260205260409020544211610e375760405162461bcd60e51b81526020600482015260136024820152720a8c2e6d640d0c2e640dcdee840ccd2dcd2e6d606b1b6044820152606401610377565b60008181526002602052604090206004015415610e8e5760405162461bcd60e51b8152602060048201526015602482015274746869732063616e6e6f742062652072656465656d60581b6044820152606401610377565b60008181526002602052604090206003015415610f44576000818152600260208190526040918290206003810154600480830182905592820154600190920154935163a9059cbb60e01b81526001600160a01b03948516938101939093526024830152919091169063a9059cbb906044016020604051808303816000875af1158015610f1e573d6000803e3d6000fd5b505050506040513d601f19601f82011682018060405250810190610f4291906114e1565b505b60405181907f702d5967f45f6513a38ffc42d6ba9bf230bd40e8f53b16363c7eb4fd2deb9a4490600090a25060018055565b6000546001600160a01b03163314610fa05760405162461bcd60e51b8152600401610377906114ac565b6001600160a01b0381166110055760405162461bcd60e51b815260206004820152602660248201527f4f776e61626c653a206e6577206f776e657220697320746865207a65726f206160448201526564647265737360d01b6064820152608401610377565b61100e81611011565b50565b600080546001600160a01b038381166001600160a01b0319831681178455604051919092169283917f8be0079c531659141344cd1fd0a4f28419497f9722a3daafe3b4186f6b6457e09190a35050565b600080611071602082858761160f565b81019061107e9190611335565b9050600061109060406020868861160f565b81019061109d9190611335565b90506000858560408181106110b4576110b4611467565b919091013560f81c915050601b8110156110ee5760ff811615806110db57508060ff166001145b156110ee576110eb601b82611639565b90505b60006040518060400160405280601c81526020017f19457468657265756d205369676e6564204d6573736167653a0a33320000000081525090506000818960405160200161113d92919061165e565b60408051601f198184030181528282528051602091820120600080855291840180845281905260ff87169284019290925260608301889052608083018790529092509060019060a0016020604051602081039080840390855afa1580156111a8573d6000803e3d6000fd5b5050604051601f1901516004546001600160a01b039081169116149b9a5050505050505050505050565b60008083601f8401126111e457600080fd5b50813567ffffffffffffffff8111156111fc57600080fd5b6020830191508360208260051b850101111561121757600080fd5b9250929050565b60008060006040848603121561123357600080fd5b83359250602084013567ffffffffffffffff81111561125157600080fd5b61125d868287016111d2565b9497909650939450505050565b6020808252825182820181905260009190848201906040850190845b818110156112a4578351151583529284019291840191600101611286565b50909695505050505050565b80356001600160a01b03811681146112c757600080fd5b919050565b6000602082840312156112de57600080fd5b6112e7826112b0565b9392505050565b600080600080600060a0868803121561130657600080fd5b853594506020860135935061131d604087016112b0565b94979396509394606081013594506080013592915050565b60006020828403121561134757600080fd5b5035919050565b60008060008060008060008060a0898b03121561136a57600080fd5b8835975061137a60208a016112b0565b9650604089013567ffffffffffffffff8082111561139757600080fd5b6113a38c838d016111d2565b909850965060608b01359150808211156113bc57600080fd5b6113c88c838d016111d2565b909650945060808b01359150808211156113e157600080fd5b818b0191508b601f8301126113f557600080fd5b81358181111561140457600080fd5b8c602082850101111561141657600080fd5b6020830194508093505050509295985092959890939650565b6000806040838503121561144257600080fd5b50508035926020909101359150565b634e487b7160e01b600052604160045260246000fd5b634e487b7160e01b600052603260045260246000fd5b634e487b7160e01b600052601160045260246000fd5b6000600182016114a5576114a561147d565b5060010190565b6020808252818101527f4f776e61626c653a2063616c6c6572206973206e6f7420746865206f776e6572604082015260600190565b6000602082840312156114f357600080fd5b815180151581146112e757600080fd5b60006001600160fb1b0383111561151957600080fd5b8260051b8083863760009401938452509192915050565b8781528660208201526bffffffffffffffffffffffff198660601b166040820152600061156b611564605484018789611503565b8486611503565b9998505050505050505050565b60008282101561158a5761158a61147d565b500390565b600082198211156115a2576115a261147d565b500190565b81835260006001600160fb1b038311156115c057600080fd5b8260051b8083602087013760009401602001938452509192915050565b6040815260006115f16040830186886115a7565b82810360208401526116048185876115a7565b979650505050505050565b6000808585111561161f57600080fd5b8386111561162c57600080fd5b5050820193919092039150565b600060ff821660ff84168060ff038211156116565761165661147d565b019392505050565b6000835160005b8181101561167f5760208187018101518583015201611665565b8181111561168e576000828501525b50919091019182525060200191905056fea26469706673582212203e0cae8593e8f6fb0a90113066baa7eff09332302813ff6f4d35ab4be05c310d64736f6c634300080d0033",
  "immutableReferences": {},
  "source": "// SPDX-License-Identifier: MIT\npragma solidity ^0.8.0;\npragma experimental ABIEncoderV2;\n\nimport \"@openzeppelin/contracts/access/Ownable.sol\";\nimport \"@openzeppelin/contracts/security/ReentrancyGuard.sol\";\nimport \"@openzeppelin/contracts/token/ERC20/IERC20.sol\";\n\ncontract Curation is Ownable, ReentrancyGuard {\n    struct TaskInfo {\n        uint256 endTime; // after this timestamp, the owner can change the state\n        address owner; // who create this task\n        address token; // the reward token\n        uint256 amount; // reward amount\n        uint256 claimedAmount;\n        uint256 maxCount; // Maximum number of rewards\n        uint256 userCount; // The number of users who have claim.\n    }\n\n    event NewTask(address indexed owner, address indexed token, uint256 amount, uint256 endTime);\n    event AddReward(uint256 indexed taskId, address indexed contributor, uint256 amount);\n    event Redeem(uint256 indexed id);\n    event RewardInfo(uint256 indexed twitterId, address indexed user, uint256[] taskIds, uint256[] amounts);\n\n    // all tasks list\n    // curation id => TaskInfo\n    mapping(uint256 => TaskInfo) private taskList;\n\n    // Flag claimed users\n    // twitterid => task id => bool\n    mapping(uint256 => mapping(uint256 => bool)) public alreadyClaimed;\n\n    address public signAddress;\n    uint256 public chainId = 137;\n\n    // mapping(address => uint256) private tmpValue;\n    // address[] private tmpList;\n\n    constructor(uint256 _chainId, address addr) {\n        chainId = _chainId;\n        signAddress = addr;\n    }\n\n    function setSignAddress(address addr) public onlyOwner {\n        signAddress = addr;\n    }\n\n    function checkClaim(uint256 twitterId, uint256[] calldata curationIds) public view returns (bool[] memory) {\n        bool[] memory result = new bool[](curationIds.length);\n        for (uint256 i = 0; i < curationIds.length; i++) {\n            result[i] = alreadyClaimed[twitterId][curationIds[i]];\n        }\n        return result;\n    }\n\n    // create a new task\n    // every one can create a task\n    function newTask(\n        uint256 id,\n        uint256 endTime,\n        address token,\n        uint256 amount,\n        uint256 maxCount\n    ) public {\n        require(taskList[id].endTime == 0, \"Task has been created\");\n        require(endTime > block.timestamp, \"Wrong end time\");\n\n        IERC20(token).transferFrom(msg.sender, address(this), amount);\n\n        taskList[id].endTime = endTime;\n        taskList[id].owner = msg.sender;\n        taskList[id].token = token;\n        taskList[id].amount = amount;\n        taskList[id].maxCount = maxCount;\n\n        emit NewTask(msg.sender, token, amount, endTime);\n    }\n\n    function appendReward(uint256 id, uint256 amount) public {\n        require(taskList[id].endTime > 0, \"Task has not been created\");\n        require(block.timestamp < taskList[id].endTime, \"task is over\");\n        IERC20(taskList[id].token).transferFrom(msg.sender, address(this), amount);\n        taskList[id].amount += amount;\n        emit AddReward(id, msg.sender, amount);\n    }\n\n    function redeem(uint256 id) public nonReentrant onlyOwner {\n        require(taskList[id].endTime > 0, \"Task has not been created\");\n        require(taskList[id].endTime < block.timestamp, \"Task has not finish\");\n        require(taskList[id].claimedAmount == 0, \"this cannot be redeem\");\n\n        if (taskList[id].amount > 0) {\n            taskList[id].claimedAmount = taskList[id].amount;\n            IERC20(taskList[id].token).transfer(taskList[id].owner, taskList[id].amount);\n        }\n        emit Redeem(id);\n    }\n\n    function claimPrize(\n        uint256 twitterId,\n        address addr,\n        uint256[] calldata curationIds,\n        uint256[] calldata amounts,\n        bytes calldata sign\n    ) public nonReentrant {\n        require(curationIds.length > 0, \"get at least one\");\n        require(curationIds.length == amounts.length, \"invalid data\");\n        require(sign.length == 65, \"invalid sign length\");\n        require(addr == msg.sender, \"invalid addr\");\n\n        bytes32 data = keccak256(abi.encodePacked(twitterId, chainId, addr, curationIds, amounts));\n        require(_check(data, sign), \"invalid sign\");\n\n        for (uint256 i = 0; i < curationIds.length; i++) {\n            if (alreadyClaimed[twitterId][curationIds[i]] == false) {\n                TaskInfo storage curation = taskList[curationIds[i]];\n                require(curation.endTime < block.timestamp, \"curation is not over.\");\n                require(amounts[i] <= curation.amount - curation.claimedAmount, \"invalid amount\");\n                require(curation.userCount + 1 <= curation.maxCount, \"participation limit exceeded\");\n\n                alreadyClaimed[twitterId][curationIds[i]] = true;\n\n                if (amounts[i] > 0) {\n                    curation.userCount += 1;\n                    curation.claimedAmount += amounts[i];\n                    // tmpValue[curation.token] += amounts[i];\n                    // tmpList.push(curation.token);\n                    IERC20(curation.token).transfer(msg.sender, amounts[i]);\n                }\n            }\n        }\n        // for (uint256 a = 0; a < tmpList.length; a++) {\n        //     IERC20(tmpList[a]).transfer(msg.sender, tmpValue[tmpList[a]]);\n        //     tmpValue[tmpList[a]] = 0;\n        // }\n        // delete tmpList;\n        emit RewardInfo(twitterId, msg.sender, curationIds, amounts);\n    }\n\n    function _check(bytes32 data, bytes calldata sign) internal view returns (bool) {\n        bytes32 r = abi.decode(sign[:32], (bytes32));\n        bytes32 s = abi.decode(sign[32:64], (bytes32));\n        uint8 v = uint8(sign[64]);\n        if (v < 27) {\n            if (v == 0 || v == 1) v += 27;\n        }\n        bytes memory profix = \"\\x19Ethereum Signed Message:\\n32\";\n        bytes32 info = keccak256(abi.encodePacked(profix, data));\n        address addr = ecrecover(info, v, r, s);\n        return addr == signAddress;\n    }\n\n    // Get task's info\n    function taskInfo(uint256 id) public view returns (TaskInfo memory task) {\n        task = taskList[id];\n    }\n}\n",
  "sourcePath": "/Users/necklace/work/nutbox/nutbox-contract/contracts/Curation.sol",
  "compiler": {
    "name": "solc",
    "version": "0.8.13+commit.abaa5c0e.Emscripten.clang"
  },
  "schemaVersion": "3.4.11",
  "updatedAt": "2023-04-13T15:38:45.610Z",
  "devdoc": {
    "kind": "dev",
    "methods": {
      "owner()": {
        "details": "Returns the address of the current owner."
      },
      "renounceOwnership()": {
        "details": "Leaves the contract without owner. It will not be possible to call `onlyOwner` functions anymore. Can only be called by the current owner. NOTE: Renouncing ownership will leave the contract without an owner, thereby removing any functionality that is only available to the owner."
      },
      "transferOwnership(address)": {
        "details": "Transfers ownership of the contract to a new account (`newOwner`). Can only be called by the current owner."
      }
    },
    "version": 1
  },
  "userdoc": {
    "kind": "user",
    "methods": {},
    "version": 1
  }
}