{
  "contractName": "CurationGauge",
  "abi": [
    {
      "inputs": [
        {
          "internalType": "address",
          "name": "_community",
          "type": "address"
        },
        {
          "internalType": "string",
          "name": "_name",
          "type": "string"
        },
        {
          "internalType": "address",
          "name": "_recipient",
          "type": "address"
        }
      ],
      "stateMutability": "nonpayable",
      "type": "constructor"
    },
    {
      "anonymous": false,
      "inputs": [
        {
          "indexed": true,
          "internalType": "address",
          "name": "oldRecipent",
          "type": "address"
        },
        {
          "indexed": true,
          "internalType": "address",
          "name": "newRecipient",
          "type": "address"
        }
      ],
      "name": "ChangeRecipient",
      "type": "event"
    },
    {
      "anonymous": false,
      "inputs": [],
      "name": "PoolStarted",
      "type": "event"
    },
    {
      "anonymous": false,
      "inputs": [
        {
          "indexed": true,
          "internalType": "uint256",
          "name": "amount",
          "type": "uint256"
        }
      ],
      "name": "WithdrawRewardsToRecipient",
      "type": "event"
    },
    {
      "inputs": [],
      "name": "community",
      "outputs": [
        {
          "internalType": "address",
          "name": "",
          "type": "address"
        }
      ],
      "stateMutability": "view",
      "type": "function"
    },
    {
      "inputs": [],
      "name": "name",
      "outputs": [
        {
          "internalType": "string",
          "name": "",
          "type": "string"
        }
      ],
      "stateMutability": "view",
      "type": "function"
    },
    {
      "inputs": [],
      "name": "poolStarted",
      "outputs": [
        {
          "internalType": "bool",
          "name": "",
          "type": "bool"
        }
      ],
      "stateMutability": "view",
      "type": "function"
    },
    {
      "inputs": [],
      "name": "recipient",
      "outputs": [
        {
          "internalType": "address",
          "name": "",
          "type": "address"
        }
      ],
      "stateMutability": "view",
      "type": "function"
    },
    {
      "inputs": [],
      "name": "startPool",
      "outputs": [],
      "stateMutability": "nonpayable",
      "type": "function"
    },
    {
      "inputs": [
        {
          "internalType": "address",
          "name": "_recipient",
          "type": "address"
        }
      ],
      "name": "adminSetRecipient",
      "outputs": [],
      "stateMutability": "nonpayable",
      "type": "function"
    },
    {
      "inputs": [],
      "name": "withdrawRewardsToRecipient",
      "outputs": [],
      "stateMutability": "nonpayable",
      "type": "function"
    },
    {
      "inputs": [],
      "name": "getFactory",
      "outputs": [
        {
          "internalType": "address",
          "name": "",
          "type": "address"
        }
      ],
      "stateMutability": "view",
      "type": "function"
    },
    {
      "inputs": [],
      "name": "getCommunity",
      "outputs": [
        {
          "internalType": "address",
          "name": "",
          "type": "address"
        }
      ],
      "stateMutability": "view",
      "type": "function"
    },
    {
      "inputs": [
        {
          "internalType": "address",
          "name": "user",
          "type": "address"
        }
      ],
      "name": "getUserStakedAmount",
      "outputs": [
        {
          "internalType": "uint256",
          "name": "",
          "type": "uint256"
        }
      ],
      "stateMutability": "view",
      "type": "function"
    },
    {
      "inputs": [],
      "name": "getTotalStakedAmount",
      "outputs": [
        {
          "internalType": "uint256",
          "name": "",
          "type": "uint256"
        }
      ],
      "stateMutability": "view",
      "type": "function"
    }
  ],
  "bytecode": "0x60a06040523480156200001157600080fd5b5060405162000d9738038062000d9783398101604081905262000034916200018b565b600160008190553360601b60805260028054610100600160a81b0319166101006001600160a01b0387160217905582516200007591906020850190620000c8565b50600380546001600160a01b0319166001600160a01b0383169081179091556040516000907f68dd0f2c9ca18dce1e14e2e3f99123a6292bfde61698d10163545ee09a2bb7bb908290a350505062000308565b828054620000d69062000283565b90600052602060002090601f016020900481019282620000fa576000855562000145565b82601f106200011557805160ff191683800117855562000145565b8280016001018555821562000145579182015b828111156200014557825182559160200191906001019062000128565b506200015392915062000157565b5090565b5b8082111562000153576000815560010162000158565b80516001600160a01b03811681146200018657600080fd5b919050565b600080600060608486031215620001a0578283fd5b620001ab846200016e565b602085810151919450906001600160401b0380821115620001ca578485fd5b818701915087601f830112620001de578485fd5b815181811115620001f357620001f3620002d9565b604051601f8201601f1916810185018381118282101715620002195762000219620002d9565b60405281815283820185018a101562000230578687fd5b8692505b8183101562000253578383018501518184018601529184019162000234565b818311156200026457868583830101525b80965050505050506200027a604085016200016e565b90509250925092565b6002810460018216806200029857607f821691505b60208210811415620002d3577f4e487b7100000000000000000000000000000000000000000000000000000000600052602260045260246000fd5b50919050565b7f4e487b7100000000000000000000000000000000000000000000000000000000600052604160045260246000fd5b60805160601c610a7062000327600039600061040d0152610a706000f3fe608060405234801561001057600080fd5b50600436106100a95760003560e01c806394465b211161007157806394465b21146101085780639a4069c51461011b578063c51db6b21461012e578063dc1fb5a514610136578063e3332f931461013e578063fa08c90814610153576100a9565b80630309a27e146100ae57806306fdde03146100b857806338adb6f0146100d657806366d003ac146100eb57806388cc58e414610100575b600080fd5b6100b661015b565b005b6100c0610368565b6040516100cd9190610878565b60405180910390f35b6100de6103f6565b6040516100cd91906109b2565b6100f36103fc565b6040516100cd91906107f3565b6100f361040b565b6100de610116366004610760565b61042f565b6100b6610129366004610760565b610454565b6100f3610556565b6100f361056a565b61014661057e565b6040516100cd919061086d565b6100b6610587565b60408051600180825281830190925260009160208083019080368337019050509050308160008151811061019f57634e487b7160e01b600052603260045260246000fd5b6001600160a01b039283166020918202929092010152600254604051631e50805b60e21b815261010090910490911690637942016c906101e3908490600401610820565b600060405180830381600087803b1580156101fd57600080fd5b505af1158015610211573d6000803e3d6000fd5b505050506000600260019054906101000a90046001600160a01b03166001600160a01b03166399efcaec6040518163ffffffff1660e01b815260040160206040518083038186803b15801561026557600080fd5b505afa158015610279573d6000803e3d6000fd5b505050506040513d601f19601f8201168201806040525081019061029d9190610783565b90506000816001600160a01b03166370a08231306040518263ffffffff1660e01b81526004016102cd91906107f3565b60206040518083038186803b1580156102e557600080fd5b505afa1580156102f9573d6000803e3d6000fd5b505050506040513d601f19601f8201168201806040525081019061031d91906107bf565b6003549091506103389083906001600160a01b03168361063d565b60405181907fba2c90d43e3865c0bf465b80929fceeb2e0a2623c07973d81118460d549711b490600090a2505050565b60018054610375906109e7565b80601f01602080910402602001604051908101604052809291908181526020018280546103a1906109e7565b80156103ee5780601f106103c3576101008083540402835291602001916103ee565b820191906000526020600020905b8154815290600101906020018083116103d157829003601f168201915b505050505081565b60045490565b6003546001600160a01b031681565b7f000000000000000000000000000000000000000000000000000000000000000090565b60006001600160a01b03821630141561044b575060045461044f565b5060005b919050565b60025460408051638da5cb5b60e01b81529051339261010090046001600160a01b031691638da5cb5b916004808301926020929190829003018186803b15801561049d57600080fd5b505afa1580156104b1573d6000803e3d6000fd5b505050506040513d601f19601f820116820180604052508101906104d59190610783565b6001600160a01b0316146105045760405162461bcd60e51b81526004016104fb90610965565b60405180910390fd5b600380546001600160a01b038381166001600160a01b0319831681179093556040519116919082907f68dd0f2c9ca18dce1e14e2e3f99123a6292bfde61698d10163545ee09a2bb7bb90600090a35050565b60025461010090046001600160a01b031690565b60025461010090046001600160a01b031681565b60025460ff1681565b600454156105a75760405162461bcd60e51b81526004016104fb9061090f565b60025460405163579dea7960e11b81526101009091046001600160a01b03169063af3bd4f2906105db9030906004016108e0565b600060405180830381600087803b1580156105f557600080fd5b505af1158015610609573d6000803e3d6000fd5b5050600160045550506040517f960682678fca98f3ed131eaf165e59544bcd738e948f0b3c64f58fa9e1c65e6090600090a1565b8261064981848461064f565b50505050565b6106a58363a9059cbb60e01b848460405160240161066e929190610807565b60408051601f198184030181529190526020810180516001600160e01b03166001600160e01b0319909316929092179091526106aa565b505050565b600080836001600160a01b0316836040516106c591906107d7565b6000604051808303816000865af19150503d8060008114610702576040519150601f19603f3d011682016040523d82523d6000602084013e610707565b606091505b5091509150816107295760405162461bcd60e51b81526004016104fb90610939565b8051156106495780806020019051810190610744919061079f565b6106495760405162461bcd60e51b81526004016104fb906108ab565b600060208284031215610771578081fd5b813561077c81610a22565b9392505050565b600060208284031215610794578081fd5b815161077c81610a22565b6000602082840312156107b0578081fd5b8151801515811461077c578182fd5b6000602082840312156107d0578081fd5b5051919050565b600082516107e98184602087016109bb565b9190910192915050565b6001600160a01b0391909116815260200190565b6001600160a01b03929092168252602082015260400190565b6020808252825182820181905260009190848201906040850190845b818110156108615783516001600160a01b03168352928401929184019160010161083c565b50909695505050505050565b901515815260200190565b60006020825282518060208401526108978160408501602087016109bb565b601f01601f19169190910160400192915050565b6020808252818101527f45524332303a206f7065726174696f6e20646964206e6f742073756363656564604082015260600190565b6040808252600490820152632aa9a2a960e11b60608201526001600160a01b0391909116602082015260800190565b60208082526010908201526f141bdbdb081a185cc81cdd185c9d195960821b604082015260600190565b602080825260129082015271115490cc8c0e8818d85b1b0819985a5b195960721b604082015260600190565b6020808252602d908201527f4f6e6c792074686520636f6d6d756e697479206f776e65722063616e2063686160408201526c1b99d9481c9958da5c1a595b9d609a1b606082015260800190565b90815260200190565b60005b838110156109d65781810151838201526020016109be565b838111156106495750506000910152565b6002810460018216806109fb57607f821691505b60208210811415610a1c57634e487b7160e01b600052602260045260246000fd5b50919050565b6001600160a01b0381168114610a3757600080fd5b5056fea264697066735822122060b29a8016e285b576acd8e444ed3c42bbbdf3236d11f744319f46d3ad1333a864736f6c63430008000033",
  "immutableReferences": {
    "8040": [
      {
        "length": 32,
        "start": 1037
      }
    ]
  },
  "source": "// SPDX-License-Identifier: MIT\n\npragma solidity 0.8.0;\npragma experimental ABIEncoderV2;\n\nimport \"@openzeppelin/contracts/utils/math/SafeMath.sol\";\nimport \"@openzeppelin/contracts/security/ReentrancyGuard.sol\";\nimport \"../../interfaces/ICommunity.sol\";\nimport \"../../interfaces/IPool.sol\";\nimport \"../../ERC20Helper.sol\";\nimport \"@openzeppelin/contracts/access/Ownable.sol\";\nimport \"../../Community.sol\";\n\n/**\n * @dev Template curation contract of Nutbox.\n * Every community can only deploy one curation pool\n * The community DAO can reset the pool ratio from token mint and reset the recipient address(always be another contract)\n * Everyone can claim reward from curation pool, the reward will mint to the recipient address\n *x\n */\ncontract CurationGauge is IPool, ERC20Helper, ReentrancyGuard {\n    using SafeMath for uint256;\n\n    address immutable factory;\n\n    string public name;\n    bool public poolStarted;\n\n    // community that pool belongs to\n    address public community;\n    address public recipient;\n    uint256 deposit;\n\n    event ChangeRecipient(address indexed oldRecipent, address indexed newRecipient);\n    event WithdrawRewardsToRecipient(uint256 indexed amount);\n    event PoolStarted();\n\n    constructor(address _community, string memory _name, address _recipient) {\n        factory = msg.sender;\n        community = _community;\n        name = _name;\n        recipient = _recipient;\n        emit ChangeRecipient(address(0), _recipient);\n    }\n\n    function startPool() public {\n        require(deposit == 0, \"Pool has started\");\n        Community(community).updatePools(\"USER\", address(this));\n        deposit = 1;\n        emit PoolStarted();\n    }\n\n    function adminSetRecipient(address _recipient) public {\n        require(Ownable(community).owner() == msg.sender, \"Only the community owner can change recipient\");\n        address oldRecipient = recipient;\n        recipient = _recipient;\n        emit ChangeRecipient(oldRecipient, _recipient);\n    }\n\n    // diffrient with other pools in community, this community reward can't be called from community contract\n    // because the depositor is this pool itself, so user call this function and this pool call the community withdraw method\n    // then transfer the received reward to recipient\n    function withdrawRewardsToRecipient() public {\n        address[] memory pools = new address[](1);\n        pools[0] = address(this);\n        Community(community).withdrawPoolsRewards(pools);\n        address rewardToken = Community(community).getCommunityToken();\n        uint256 balance = ERC20(rewardToken).balanceOf(address(this));\n        releaseERC20(rewardToken, recipient, balance);\n        emit WithdrawRewardsToRecipient(balance);\n    }\n\n    function getFactory() external view override returns (address) {\n        return factory;\n    }\n\n    function getCommunity() external view override returns (address) {\n        return community;\n    }\n\n    function getUserStakedAmount(address user)\n        external\n        view\n        override returns (uint256)\n    {\n        if (user == address(this)) {\n            return deposit;\n        }else {\n            return 0;\n        }\n    }\n\n    function getTotalStakedAmount()\n        external\n        view\n        override returns (uint256)\n    {\n        return deposit;\n    }\n}\n",
  "sourcePath": "/Users/wangxi/work/Walnut-V2/nutbox-contract/contracts/dapps/curation/CurationGauge.sol",
  "compiler": {
    "name": "solc",
    "version": "0.8.0+commit.c7dfd78e.Emscripten.clang"
  },
  "schemaVersion": "3.3.4",
  "updatedAt": "2023-08-11T03:12:16.121Z",
  "devdoc": {
    "details": "Template curation contract of Nutbox. Every community can only deploy one curation pool The community DAO can reset the pool ratio from token mint and reset the recipient address(always be another contract) Everyone can claim reward from curation pool, the reward will mint to the recipient address x",
    "kind": "dev",
    "methods": {},
    "version": 1
  },
  "userdoc": {
    "kind": "user",
    "methods": {},
    "version": 1
  }
}