{
  "contractName": "DelegateDappsStaking",
  "abi": [
    {
      "anonymous": false,
      "inputs": [
        {
          "indexed": true,
          "internalType": "address",
          "name": "previousOwner",
          "type": "address"
        },
        {
          "indexed": true,
          "internalType": "address",
          "name": "newOwner",
          "type": "address"
        }
      ],
      "name": "OwnershipTransferred",
      "type": "event"
    },
    {
      "inputs": [],
      "name": "dappsStaking",
      "outputs": [
        {
          "internalType": "address",
          "name": "",
          "type": "address"
        }
      ],
      "stateMutability": "view",
      "type": "function"
    },
    {
      "inputs": [],
      "name": "maxUnlockingChunks",
      "outputs": [
        {
          "internalType": "uint256",
          "name": "",
          "type": "uint256"
        }
      ],
      "stateMutability": "view",
      "type": "function"
    },
    {
      "inputs": [],
      "name": "minimumStake",
      "outputs": [
        {
          "internalType": "uint256",
          "name": "",
          "type": "uint256"
        }
      ],
      "stateMutability": "view",
      "type": "function"
    },
    {
      "inputs": [],
      "name": "owner",
      "outputs": [
        {
          "internalType": "address",
          "name": "",
          "type": "address"
        }
      ],
      "stateMutability": "view",
      "type": "function"
    },
    {
      "inputs": [],
      "name": "precision",
      "outputs": [
        {
          "internalType": "uint256",
          "name": "",
          "type": "uint256"
        }
      ],
      "stateMutability": "view",
      "type": "function"
    },
    {
      "inputs": [],
      "name": "renounceOwnership",
      "outputs": [],
      "stateMutability": "nonpayable",
      "type": "function"
    },
    {
      "inputs": [
        {
          "internalType": "address",
          "name": "newOwner",
          "type": "address"
        }
      ],
      "name": "transferOwnership",
      "outputs": [],
      "stateMutability": "nonpayable",
      "type": "function"
    },
    {
      "inputs": [
        {
          "internalType": "address",
          "name": "contractAddress",
          "type": "address"
        }
      ],
      "name": "setDappsStaking",
      "outputs": [],
      "stateMutability": "nonpayable",
      "type": "function"
    },
    {
      "inputs": [
        {
          "internalType": "uint256",
          "name": "_minimumStake",
          "type": "uint256"
        }
      ],
      "name": "setMinimumStake",
      "outputs": [],
      "stateMutability": "nonpayable",
      "type": "function"
    },
    {
      "inputs": [
        {
          "internalType": "uint256",
          "name": "_maxUnlockingChunks",
          "type": "uint256"
        }
      ],
      "name": "setMaxUnlockingChunks",
      "outputs": [],
      "stateMutability": "nonpayable",
      "type": "function"
    },
    {
      "inputs": [],
      "name": "read_current_era",
      "outputs": [
        {
          "internalType": "uint256",
          "name": "",
          "type": "uint256"
        }
      ],
      "stateMutability": "view",
      "type": "function"
    },
    {
      "inputs": [],
      "name": "read_unbonding_period",
      "outputs": [
        {
          "internalType": "uint256",
          "name": "",
          "type": "uint256"
        }
      ],
      "stateMutability": "view",
      "type": "function"
    },
    {
      "inputs": [
        {
          "internalType": "uint32",
          "name": "era",
          "type": "uint32"
        }
      ],
      "name": "read_era_reward",
      "outputs": [
        {
          "internalType": "uint128",
          "name": "",
          "type": "uint128"
        }
      ],
      "stateMutability": "view",
      "type": "function"
    },
    {
      "inputs": [
        {
          "internalType": "uint32",
          "name": "era",
          "type": "uint32"
        }
      ],
      "name": "read_era_staked",
      "outputs": [
        {
          "internalType": "uint128",
          "name": "",
          "type": "uint128"
        }
      ],
      "stateMutability": "view",
      "type": "function"
    },
    {
      "inputs": [
        {
          "internalType": "bytes",
          "name": "staker",
          "type": "bytes"
        }
      ],
      "name": "read_staked_amount",
      "outputs": [
        {
          "internalType": "uint128",
          "name": "",
          "type": "uint128"
        }
      ],
      "stateMutability": "view",
      "type": "function"
    },
    {
      "inputs": [
        {
          "internalType": "address",
          "name": "contract_id",
          "type": "address"
        },
        {
          "internalType": "bytes",
          "name": "staker",
          "type": "bytes"
        }
      ],
      "name": "read_staked_amount_on_contract",
      "outputs": [
        {
          "internalType": "uint128",
          "name": "",
          "type": "uint128"
        }
      ],
      "stateMutability": "view",
      "type": "function"
    },
    {
      "inputs": [
        {
          "internalType": "address",
          "name": "contract_id",
          "type": "address"
        }
      ],
      "name": "read_contract_stake",
      "outputs": [
        {
          "internalType": "uint128",
          "name": "",
          "type": "uint128"
        }
      ],
      "stateMutability": "view",
      "type": "function"
    },
    {
      "inputs": [
        {
          "internalType": "address",
          "name": "dapp",
          "type": "address"
        }
      ],
      "name": "register",
      "outputs": [],
      "stateMutability": "nonpayable",
      "type": "function"
    },
    {
      "inputs": [
        {
          "internalType": "address",
          "name": "dapp",
          "type": "address"
        },
        {
          "internalType": "uint256",
          "name": "amount",
          "type": "uint256"
        }
      ],
      "name": "bond_and_stake",
      "outputs": [],
      "stateMutability": "nonpayable",
      "type": "function"
    },
    {
      "inputs": [
        {
          "internalType": "address",
          "name": "dapp",
          "type": "address"
        },
        {
          "internalType": "uint256",
          "name": "amount",
          "type": "uint256"
        }
      ],
      "name": "unbond_and_unstake",
      "outputs": [],
      "stateMutability": "nonpayable",
      "type": "function"
    },
    {
      "inputs": [],
      "name": "withdraw_unbonded",
      "outputs": [],
      "stateMutability": "nonpayable",
      "type": "function"
    },
    {
      "inputs": [
        {
          "internalType": "address",
          "name": "dapp",
          "type": "address"
        }
      ],
      "name": "claim_staker",
      "outputs": [],
      "stateMutability": "nonpayable",
      "type": "function"
    },
    {
      "inputs": [
        {
          "internalType": "address",
          "name": "dapp",
          "type": "address"
        },
        {
          "internalType": "uint256",
          "name": "era",
          "type": "uint256"
        }
      ],
      "name": "claim_dapp",
      "outputs": [],
      "stateMutability": "nonpayable",
      "type": "function"
    },
    {
      "inputs": [
        {
          "internalType": "uint256",
          "name": "reward_destination",
          "type": "uint256"
        }
      ],
      "name": "set_reward_destination",
      "outputs": [],
      "stateMutability": "nonpayable",
      "type": "function"
    },
    {
      "inputs": [
        {
          "internalType": "address",
          "name": "dapp",
          "type": "address"
        }
      ],
      "name": "withdraw_from_unregistered",
      "outputs": [],
      "stateMutability": "nonpayable",
      "type": "function"
    },
    {
      "inputs": [
        {
          "internalType": "address",
          "name": "origin_smart_contract",
          "type": "address"
        },
        {
          "internalType": "uint128",
          "name": "amount",
          "type": "uint128"
        },
        {
          "internalType": "address",
          "name": "target_smart_contract",
          "type": "address"
        }
      ],
      "name": "nomination_transfer",
      "outputs": [],
      "stateMutability": "nonpayable",
      "type": "function"
    }
  ],
  "bytecode": "0x6080604052600180546001600160a01b031916615001179055670de0b6b3a7640000600255674563918244f40000600355602060045534801561004157600080fd5b5061005261004d610057565b61005b565b6100ab565b3390565b600080546001600160a01b038381166001600160a01b0319831681178455604051919092169283917f8be0079c531659141344cd1fd0a4f28419497f9722a3daafe3b4186f6b6457e09190a35050565b611537806100ba6000396000f3fe608060405234801561001057600080fd5b506004361061018e5760003560e01c8063a0b9d8be116100de578063db62b20111610097578063e608d80b11610071578063e608d80b14610325578063ec5ffac21461032d578063f2fde38b14610335578063f8293403146103485761018e565b8063db62b201146102f7578063dd33172d146102ff578063de0e8c64146103125761018e565b8063a0b9d8be14610290578063ba0ab99c146102a3578063bc4b2360146102b6578063d140ffed146102c9578063d3b5dc3b146102dc578063d9424b16146102e45761018e565b8063513483aa1161014b5780636cbcfa49116101255780636cbcfa4914610256578063715018a61461026b57806377a0fe02146102735780638da5cb5b1461027b5761018e565b8063513483aa1461021d578063539d595714610230578063667e56b3146102435761018e565b806318386693146101935780631aa71958146101bc578063233e9903146101d15780632f2000cd146101e4578063305b1342146101f75780634420e4861461020a575b600080fd5b6101a66101a1366004611133565b610350565b6040516101b391906114be565b60405180910390f35b6101cf6101ca366004611103565b6103d9565b005b6101cf6101df366004611103565b610426565b6101cf6101f236600461103a565b61046a565b6101cf610205366004611103565b61053d565b6101cf610218366004610fcf565b61062b565b6101cf61022b366004610fcf565b6106f4565b6101a661023e366004610fcf565b610755565b6101cf61025136600461107e565b610786565b61025e610856565b6040516101b391906114d2565b6101cf61085c565b6101cf6108a7565b61028361094e565b6040516101b391906111ba565b6101cf61029e366004610fcf565b61095d565b6101cf6102b1366004610fcf565b610a26565b6101cf6102c436600461107e565b610aef565b6101cf6102d736600461107e565b610bba565b61025e610c85565b6101a66102f2366004611133565b610c8b565b61025e610cbc565b6101a661030d366004610fe9565b610d3e565b6101a66103203660046110a7565b610dcb565b61025e610e55565b61025e610e9a565b6101cf610343366004610fcf565b610ea0565b610283610f0e565b600154604051631838669360e01b81526000916001600160a01b0316906318386693906103819085906004016114db565b60206040518083038186803b15801561039957600080fd5b505afa1580156103ad573d6000803e3d6000fd5b505050506040513d601f19601f820116820180604052508101906103d191906110e7565b90505b919050565b6103e1610f1d565b6001600160a01b03166103f261094e565b6001600160a01b0316146104215760405162461bcd60e51b8152600401610418906113c7565b60405180910390fd5b600455565b61042e610f1d565b6001600160a01b031661043f61094e565b6001600160a01b0316146104655760405162461bcd60e51b8152600401610418906113c7565b600355565b6001546040516000916001600160a01b031690632f2000cd60e01b906104989087908790879060240161121e565b60408051601f198184030181529181526020820180516001600160e01b03166001600160e01b03199094169390931790925290516104d69190611181565b600060405180830381855af49150503d8060008114610511576040519150601f19603f3d011682016040523d82523d6000602084013e610516565b606091505b50509050806105375760405162461bcd60e51b815260040161041890611338565b50505050565b600180546000916001600160a01b039091169063258d874360e11b90849081111561057857634e487b7160e01b600052602160045260246000fd5b604051602401610588919061125e565b60408051601f198184030181529181526020820180516001600160e01b03166001600160e01b03199094169390931790925290516105c69190611181565b600060405180830381855af49150503d8060008114610601576040519150601f19603f3d011682016040523d82523d6000602084013e610606565b606091505b50509050806106275760405162461bcd60e51b815260040161041890611301565b5050565b6001546040516000916001600160a01b031690632210724360e11b906106559085906024016111ba565b60408051601f198184030181529181526020820180516001600160e01b03166001600160e01b03199094169390931790925290516106939190611181565b600060405180830381855af49150503d80600081146106ce576040519150601f19603f3d011682016040523d82523d6000602084013e6106d3565b606091505b50509050806106275760405162461bcd60e51b8152600401610418906113fc565b6106fc610f1d565b6001600160a01b031661070d61094e565b6001600160a01b0316146107335760405162461bcd60e51b8152600401610418906113c7565b600180546001600160a01b0319166001600160a01b0392909216919091179055565b60015460405163539d595760e01b81526000916001600160a01b03169063539d5957906103819085906004016111ba565b6001546040516000916001600160a01b0316906352b73e4160e01b906107b290869086906024016111fc565b60408051601f198184030181529181526020820180516001600160e01b03166001600160e01b03199094169390931790925290516107f09190611181565b600060405180830381855af49150503d806000811461082b576040519150601f19603f3d011682016040523d82523d6000602084013e610830565b606091505b50509050806108515760405162461bcd60e51b815260040161041890611399565b505050565b60045481565b610864610f1d565b6001600160a01b031661087561094e565b6001600160a01b03161461089b5760405162461bcd60e51b8152600401610418906113c7565b6108a56000610f21565b565b60015460408051600481526024810182526020810180516001600160e01b0316633bd07f0160e11b17905290516000926001600160a01b0316916108ea91611181565b600060405180830381855af49150503d8060008114610925576040519150601f19603f3d011682016040523d82523d6000602084013e61092a565b606091505b505090508061094b5760405162461bcd60e51b815260040161041890611450565b50565b6000546001600160a01b031690565b6001546040516000916001600160a01b03169063505cec5f60e11b906109879085906024016111ba565b60408051601f198184030181529181526020820180516001600160e01b03166001600160e01b03199094169390931790925290516109c59190611181565b600060405180830381855af49150503d8060008114610a00576040519150601f19603f3d011682016040523d82523d6000602084013e610a05565b606091505b50509050806106275760405162461bcd60e51b815260040161041890611424565b6001546040516000916001600160a01b031690632e82ae6760e21b90610a509085906024016111ba565b60408051601f198184030181529181526020820180516001600160e01b03166001600160e01b0319909416939093179092529051610a8e9190611181565b600060405180830381855af49150503d8060008114610ac9576040519150601f19603f3d011682016040523d82523d6000602084013e610ace565b606091505b50509050806106275760405162461bcd60e51b8152600401610418906112cc565b6001546040516000916001600160a01b031690631b70ba6560e01b90610b1b90869086906024016111fc565b60408051601f198184030181529181526020820180516001600160e01b03166001600160e01b0319909416939093179092529051610b599190611181565b600060405180830381855af49150503d8060008114610b94576040519150601f19603f3d011682016040523d82523d6000602084013e610b99565b606091505b50509050806108515760405162461bcd60e51b81526004016104189061136f565b6001546040516000916001600160a01b0316906363c20ee960e11b90610be690869086906024016111fc565b60408051601f198184030181529181526020820180516001600160e01b03166001600160e01b0319909416939093179092529051610c249190611181565b600060405180830381855af49150503d8060008114610c5f576040519150601f19603f3d011682016040523d82523d6000602084013e610c64565b606091505b50509050806108515760405162461bcd60e51b815260040161041890611487565b60025481565b600154604051636ca1258b60e11b81526000916001600160a01b03169063d9424b16906103819085906004016114db565b6001546040805163db62b20160e01b815290516000926001600160a01b03169163db62b201916004808301926020929190829003018186803b158015610d0157600080fd5b505afa158015610d15573d6000803e3d6000fd5b505050506040513d601f19601f82011682018060405250810190610d39919061111b565b905090565b60015460405163dd33172d60e01b81526000916001600160a01b03169063dd33172d90610d73908790879087906004016111ce565b60206040518083038186803b158015610d8b57600080fd5b505afa158015610d9f573d6000803e3d6000fd5b505050506040513d601f19601f82011682018060405250810190610dc391906110e7565b949350505050565b600154604051633783a31960e21b81526000916001600160a01b03169063de0e8c6490610dfe908690869060040161124a565b60206040518083038186803b158015610e1657600080fd5b505afa158015610e2a573d6000803e3d6000fd5b505050506040513d601f19601f82011682018060405250810190610e4e91906110e7565b9392505050565b6001546040805163e608d80b60e01b815290516000926001600160a01b03169163e608d80b916004808301926020929190829003018186803b158015610d0157600080fd5b60035481565b610ea8610f1d565b6001600160a01b0316610eb961094e565b6001600160a01b031614610edf5760405162461bcd60e51b8152600401610418906113c7565b6001600160a01b038116610f055760405162461bcd60e51b815260040161041890611286565b61094b81610f21565b6001546001600160a01b031681565b3390565b600080546001600160a01b038381166001600160a01b0319831681178455604051919092169283917f8be0079c531659141344cd1fd0a4f28419497f9722a3daafe3b4186f6b6457e09190a35050565b80356001600160a01b03811681146103d457600080fd5b60008083601f840112610f99578182fd5b50813567ffffffffffffffff811115610fb0578182fd5b602083019150836020828501011115610fc857600080fd5b9250929050565b600060208284031215610fe0578081fd5b610e4e82610f71565b600080600060408486031215610ffd578182fd5b61100684610f71565b9250602084013567ffffffffffffffff811115611021578283fd5b61102d86828701610f88565b9497909650939450505050565b60008060006060848603121561104e578283fd5b61105784610f71565b92506020840135611067816114ec565b915061107560408501610f71565b90509250925092565b60008060408385031215611090578182fd5b61109983610f71565b946020939093013593505050565b600080602083850312156110b9578182fd5b823567ffffffffffffffff8111156110cf578283fd5b6110db85828601610f88565b90969095509350505050565b6000602082840312156110f8578081fd5b8151610e4e816114ec565b600060208284031215611114578081fd5b5035919050565b60006020828403121561112c578081fd5b5051919050565b600060208284031215611144578081fd5b813563ffffffff81168114610e4e578182fd5b60008284528282602086013780602084860101526020601f19601f85011685010190509392505050565b60008251815b818110156111a15760208186018101518583015201611187565b818111156111af5782828501525b509190910192915050565b6001600160a01b0391909116815260200190565b6001600160a01b03841681526040602082018190526000906111f39083018486611157565b95945050505050565b6001600160a01b039290921682526001600160801b0316602082015260400190565b6001600160a01b0393841681526001600160801b03929092166020830152909116604082015260600190565b600060208252610dc3602083018486611157565b602081016002831061128057634e487b7160e01b600052602160045260246000fd5b91905290565b60208082526026908201527f4f776e61626c653a206e6577206f776e657220697320746865207a65726f206160408201526564647265737360d01b606082015260800190565b6020808252818101527f77697468647261775f66726f6d5f756e72656769737465726564206572726f72604082015260600190565b6020808252601c908201527f7365745f7265776172645f64657374696e6174696f6e206572726f7200000000604082015260600190565b60208082526019908201527f6e6f6d696e6174696f6e5f7472616e73666572206572726f7200000000000000604082015260600190565b60208082526010908201526f31b630b4b6afb230b8381032b93937b960811b604082015260600190565b6020808252601490820152733137b7322fb0b7322fb9ba30b5b29032b93937b960611b604082015260600190565b6020808252818101527f4f776e61626c653a2063616c6c6572206973206e6f7420746865206f776e6572604082015260600190565b6020808252600e908201526d3932b3b4b9ba32b91032b93937b960911b604082015260600190565b60208082526012908201527131b630b4b6afb9ba30b5b2b91032b93937b960711b604082015260600190565b60208082526017908201527f77697468647261775f756e626f6e646564206572726f72000000000000000000604082015260600190565b60208082526018908201527f756e626f6e645f616e645f756e7374616b65206572726f720000000000000000604082015260600190565b6001600160801b0391909116815260200190565b90815260200190565b63ffffffff91909116815260200190565b6001600160801b038116811461094b57600080fdfea2646970667358221220490a4c873a5732c61f4ea50292f952f5859227f9e710c73d816cb4c2270840c164736f6c63430008000033",
  "immutableReferences": {},
  "source": "// SPDX-License-Identifier: MIT\n\npragma solidity ^0.8.0;\npragma abicoder v2;\n\nimport \"./DappsStaking.sol\";\nimport \"./IAstarDappStakingConfig.sol\";\nimport \"@openzeppelin/contracts/access/Ownable.sol\";\n\ncontract DelegateDappsStaking is IAstarDappStakingConfig, Ownable {\n    address public dappsStaking = 0x0000000000000000000000000000000000005001;\n    uint256 public override precision = 1 ether;\n    uint256 public override minimumStake = 5 ether; // Note: This parameter is different for different chains\n    uint256 public override maxUnlockingChunks = 32;\n\n    function setDappsStaking(address contractAddress) public onlyOwner {\n        dappsStaking = contractAddress;\n    }\n\n    function setMinimumStake(uint256 _minimumStake) public onlyOwner {\n        minimumStake = _minimumStake;\n    }\n\n    function setMaxUnlockingChunks(uint256 _maxUnlockingChunks) public onlyOwner {\n        maxUnlockingChunks = _maxUnlockingChunks;\n    }\n\n    function read_current_era() public view returns (uint256) {\n        return DappsStaking(dappsStaking).read_current_era();\n    }\n\n    function read_unbonding_period() public view returns (uint256) {\n        return DappsStaking(dappsStaking).read_unbonding_period();\n    }\n\n    function read_era_reward(uint32 era) public view returns (uint128) {\n        return DappsStaking(dappsStaking).read_era_reward(era);\n    }\n\n    function read_era_staked(uint32 era) public view returns (uint128) {\n        return DappsStaking(dappsStaking).read_era_staked(era);\n    }\n\n    function read_staked_amount(bytes calldata staker) public view returns (uint128) {\n        return DappsStaking(dappsStaking).read_staked_amount(staker);\n    }\n\n    function read_staked_amount_on_contract(address contract_id, bytes calldata staker) public view returns (uint128) {\n        return DappsStaking(dappsStaking).read_staked_amount_on_contract(contract_id, staker);\n    }\n\n    function read_contract_stake(address contract_id) public view returns (uint128) {\n        return DappsStaking(dappsStaking).read_contract_stake(contract_id);\n    }\n\n    function register(address dapp) public {\n        (bool success, ) = dappsStaking.delegatecall(abi.encodeWithSelector(DappsStaking.register.selector, dapp));\n        require(success, \"register error\");\n    }\n\n    function bond_and_stake(address dapp, uint256 amount) public {\n        (bool success, ) = dappsStaking.delegatecall(abi.encodeWithSelector(DappsStaking.bond_and_stake.selector, dapp, uint128(amount)));\n        require(success, \"bond_and_stake error\");\n    }\n\n    function unbond_and_unstake(address dapp, uint256 amount) public {\n        (bool success, ) = dappsStaking.delegatecall(abi.encodeWithSelector(DappsStaking.unbond_and_unstake.selector, dapp, uint128(amount)));\n        require(success, \"unbond_and_unstake error\");\n    }\n\n    function withdraw_unbonded() public {\n        (bool success, ) = dappsStaking.delegatecall(abi.encodeWithSelector(DappsStaking.withdraw_unbonded.selector));\n        require(success, \"withdraw_unbonded error\");\n    }\n\n    function claim_staker(address dapp) public {\n        (bool success, ) = dappsStaking.delegatecall(abi.encodeWithSelector(DappsStaking.claim_staker.selector, dapp));\n        require(success, \"claim_staker error\");\n    }\n\n    function claim_dapp(address dapp, uint256 era) public {\n        (bool success, ) = dappsStaking.delegatecall(abi.encodeWithSelector(DappsStaking.claim_dapp.selector, dapp, uint128(era)));\n        require(success, \"claim_dapp error\");\n    }\n\n    function set_reward_destination(uint256 reward_destination) public {\n        (bool success, ) = dappsStaking.delegatecall(\n            abi.encodeWithSelector(DappsStaking.set_reward_destination.selector, DappsStaking.RewardDestination(reward_destination))\n        );\n        require(success, \"set_reward_destination error\");\n    }\n\n    function withdraw_from_unregistered(address dapp) public {\n        (bool success, ) = dappsStaking.delegatecall(abi.encodeWithSelector(DappsStaking.withdraw_from_unregistered.selector, dapp));\n        require(success, \"withdraw_from_unregistered error\");\n    }\n\n    function nomination_transfer(\n        address origin_smart_contract,\n        uint128 amount,\n        address target_smart_contract\n    ) public {\n        (bool success, ) = dappsStaking.delegatecall(\n            abi.encodeWithSelector(DappsStaking.nomination_transfer.selector, origin_smart_contract, amount, target_smart_contract)\n        );\n        require(success, \"nomination_transfer error\");\n    }\n}\n",
  "sourcePath": "/Users/necklace/work/nutbox/nutbox-contract/contracts/dapps/astar-dapp-staking/DelegateDappsStaking.sol",
  "compiler": {
    "name": "solc",
    "version": "0.8.0+commit.c7dfd78e.Emscripten.clang"
  },
  "schemaVersion": "3.4.7",
  "updatedAt": "2022-05-26T06:57:12.285Z",
  "devdoc": {
    "kind": "dev",
    "methods": {
      "owner()": {
        "details": "Returns the address of the current owner."
      },
      "renounceOwnership()": {
        "details": "Leaves the contract without owner. It will not be possible to call `onlyOwner` functions anymore. Can only be called by the current owner. NOTE: Renouncing ownership will leave the contract without an owner, thereby removing any functionality that is only available to the owner."
      },
      "transferOwnership(address)": {
        "details": "Transfers ownership of the contract to a new account (`newOwner`). Can only be called by the current owner."
      }
    },
    "version": 1
  },
  "userdoc": {
    "kind": "user",
    "methods": {
      "minimumStake()": {
        "notice": "Minimum stake amount"
      },
      "precision()": {
        "notice": "The factor by which the molecule is magnified. default: 10^18"
      }
    },
    "version": 1
  }
}