{
  "contractName": "ERC1155NFT",
  "abi": [
    {
      "inputs": [
        {
          "internalType": "string",
          "name": "uri_",
          "type": "string"
        }
      ],
      "stateMutability": "nonpayable",
      "type": "constructor"
    },
    {
      "anonymous": false,
      "inputs": [
        {
          "indexed": true,
          "internalType": "address",
          "name": "account",
          "type": "address"
        },
        {
          "indexed": true,
          "internalType": "address",
          "name": "operator",
          "type": "address"
        },
        {
          "indexed": false,
          "internalType": "bool",
          "name": "approved",
          "type": "bool"
        }
      ],
      "name": "ApprovalForAll",
      "type": "event"
    },
    {
      "anonymous": false,
      "inputs": [
        {
          "indexed": false,
          "internalType": "address",
          "name": "account",
          "type": "address"
        }
      ],
      "name": "Paused",
      "type": "event"
    },
    {
      "anonymous": false,
      "inputs": [
        {
          "indexed": true,
          "internalType": "bytes32",
          "name": "role",
          "type": "bytes32"
        },
        {
          "indexed": true,
          "internalType": "bytes32",
          "name": "previousAdminRole",
          "type": "bytes32"
        },
        {
          "indexed": true,
          "internalType": "bytes32",
          "name": "newAdminRole",
          "type": "bytes32"
        }
      ],
      "name": "RoleAdminChanged",
      "type": "event"
    },
    {
      "anonymous": false,
      "inputs": [
        {
          "indexed": true,
          "internalType": "bytes32",
          "name": "role",
          "type": "bytes32"
        },
        {
          "indexed": true,
          "internalType": "address",
          "name": "account",
          "type": "address"
        },
        {
          "indexed": true,
          "internalType": "address",
          "name": "sender",
          "type": "address"
        }
      ],
      "name": "RoleGranted",
      "type": "event"
    },
    {
      "anonymous": false,
      "inputs": [
        {
          "indexed": true,
          "internalType": "bytes32",
          "name": "role",
          "type": "bytes32"
        },
        {
          "indexed": true,
          "internalType": "address",
          "name": "account",
          "type": "address"
        },
        {
          "indexed": true,
          "internalType": "address",
          "name": "sender",
          "type": "address"
        }
      ],
      "name": "RoleRevoked",
      "type": "event"
    },
    {
      "anonymous": false,
      "inputs": [
        {
          "indexed": true,
          "internalType": "address",
          "name": "operator",
          "type": "address"
        },
        {
          "indexed": true,
          "internalType": "address",
          "name": "from",
          "type": "address"
        },
        {
          "indexed": true,
          "internalType": "address",
          "name": "to",
          "type": "address"
        },
        {
          "indexed": false,
          "internalType": "uint256[]",
          "name": "ids",
          "type": "uint256[]"
        },
        {
          "indexed": false,
          "internalType": "uint256[]",
          "name": "values",
          "type": "uint256[]"
        }
      ],
      "name": "TransferBatch",
      "type": "event"
    },
    {
      "anonymous": false,
      "inputs": [
        {
          "indexed": true,
          "internalType": "address",
          "name": "operator",
          "type": "address"
        },
        {
          "indexed": true,
          "internalType": "address",
          "name": "from",
          "type": "address"
        },
        {
          "indexed": true,
          "internalType": "address",
          "name": "to",
          "type": "address"
        },
        {
          "indexed": false,
          "internalType": "uint256",
          "name": "id",
          "type": "uint256"
        },
        {
          "indexed": false,
          "internalType": "uint256",
          "name": "value",
          "type": "uint256"
        }
      ],
      "name": "TransferSingle",
      "type": "event"
    },
    {
      "anonymous": false,
      "inputs": [
        {
          "indexed": false,
          "internalType": "string",
          "name": "value",
          "type": "string"
        },
        {
          "indexed": true,
          "internalType": "uint256",
          "name": "id",
          "type": "uint256"
        }
      ],
      "name": "URI",
      "type": "event"
    },
    {
      "anonymous": false,
      "inputs": [
        {
          "indexed": false,
          "internalType": "address",
          "name": "account",
          "type": "address"
        }
      ],
      "name": "Unpaused",
      "type": "event"
    },
    {
      "inputs": [],
      "name": "DEFAULT_ADMIN_ROLE",
      "outputs": [
        {
          "internalType": "bytes32",
          "name": "",
          "type": "bytes32"
        }
      ],
      "stateMutability": "view",
      "type": "function"
    },
    {
      "inputs": [],
      "name": "MINTER_ROLE",
      "outputs": [
        {
          "internalType": "bytes32",
          "name": "",
          "type": "bytes32"
        }
      ],
      "stateMutability": "view",
      "type": "function"
    },
    {
      "inputs": [],
      "name": "PAUSER_ROLE",
      "outputs": [
        {
          "internalType": "bytes32",
          "name": "",
          "type": "bytes32"
        }
      ],
      "stateMutability": "view",
      "type": "function"
    },
    {
      "inputs": [
        {
          "internalType": "address",
          "name": "account",
          "type": "address"
        },
        {
          "internalType": "uint256",
          "name": "id",
          "type": "uint256"
        }
      ],
      "name": "balanceOf",
      "outputs": [
        {
          "internalType": "uint256",
          "name": "",
          "type": "uint256"
        }
      ],
      "stateMutability": "view",
      "type": "function"
    },
    {
      "inputs": [
        {
          "internalType": "address[]",
          "name": "accounts",
          "type": "address[]"
        },
        {
          "internalType": "uint256[]",
          "name": "ids",
          "type": "uint256[]"
        }
      ],
      "name": "balanceOfBatch",
      "outputs": [
        {
          "internalType": "uint256[]",
          "name": "",
          "type": "uint256[]"
        }
      ],
      "stateMutability": "view",
      "type": "function"
    },
    {
      "inputs": [
        {
          "internalType": "address",
          "name": "account",
          "type": "address"
        },
        {
          "internalType": "uint256",
          "name": "id",
          "type": "uint256"
        },
        {
          "internalType": "uint256",
          "name": "value",
          "type": "uint256"
        }
      ],
      "name": "burn",
      "outputs": [],
      "stateMutability": "nonpayable",
      "type": "function"
    },
    {
      "inputs": [
        {
          "internalType": "address",
          "name": "account",
          "type": "address"
        },
        {
          "internalType": "uint256[]",
          "name": "ids",
          "type": "uint256[]"
        },
        {
          "internalType": "uint256[]",
          "name": "values",
          "type": "uint256[]"
        }
      ],
      "name": "burnBatch",
      "outputs": [],
      "stateMutability": "nonpayable",
      "type": "function"
    },
    {
      "inputs": [
        {
          "internalType": "bytes32",
          "name": "role",
          "type": "bytes32"
        }
      ],
      "name": "getRoleAdmin",
      "outputs": [
        {
          "internalType": "bytes32",
          "name": "",
          "type": "bytes32"
        }
      ],
      "stateMutability": "view",
      "type": "function"
    },
    {
      "inputs": [
        {
          "internalType": "bytes32",
          "name": "role",
          "type": "bytes32"
        },
        {
          "internalType": "uint256",
          "name": "index",
          "type": "uint256"
        }
      ],
      "name": "getRoleMember",
      "outputs": [
        {
          "internalType": "address",
          "name": "",
          "type": "address"
        }
      ],
      "stateMutability": "view",
      "type": "function"
    },
    {
      "inputs": [
        {
          "internalType": "bytes32",
          "name": "role",
          "type": "bytes32"
        }
      ],
      "name": "getRoleMemberCount",
      "outputs": [
        {
          "internalType": "uint256",
          "name": "",
          "type": "uint256"
        }
      ],
      "stateMutability": "view",
      "type": "function"
    },
    {
      "inputs": [
        {
          "internalType": "bytes32",
          "name": "role",
          "type": "bytes32"
        },
        {
          "internalType": "address",
          "name": "account",
          "type": "address"
        }
      ],
      "name": "grantRole",
      "outputs": [],
      "stateMutability": "nonpayable",
      "type": "function"
    },
    {
      "inputs": [
        {
          "internalType": "bytes32",
          "name": "role",
          "type": "bytes32"
        },
        {
          "internalType": "address",
          "name": "account",
          "type": "address"
        }
      ],
      "name": "hasRole",
      "outputs": [
        {
          "internalType": "bool",
          "name": "",
          "type": "bool"
        }
      ],
      "stateMutability": "view",
      "type": "function"
    },
    {
      "inputs": [
        {
          "internalType": "address",
          "name": "account",
          "type": "address"
        },
        {
          "internalType": "address",
          "name": "operator",
          "type": "address"
        }
      ],
      "name": "isApprovedForAll",
      "outputs": [
        {
          "internalType": "bool",
          "name": "",
          "type": "bool"
        }
      ],
      "stateMutability": "view",
      "type": "function"
    },
    {
      "inputs": [
        {
          "internalType": "address",
          "name": "to",
          "type": "address"
        },
        {
          "internalType": "uint256",
          "name": "id",
          "type": "uint256"
        },
        {
          "internalType": "uint256",
          "name": "amount",
          "type": "uint256"
        },
        {
          "internalType": "bytes",
          "name": "data",
          "type": "bytes"
        }
      ],
      "name": "mint",
      "outputs": [],
      "stateMutability": "nonpayable",
      "type": "function"
    },
    {
      "inputs": [
        {
          "internalType": "address",
          "name": "to",
          "type": "address"
        },
        {
          "internalType": "uint256[]",
          "name": "ids",
          "type": "uint256[]"
        },
        {
          "internalType": "uint256[]",
          "name": "amounts",
          "type": "uint256[]"
        },
        {
          "internalType": "bytes",
          "name": "data",
          "type": "bytes"
        }
      ],
      "name": "mintBatch",
      "outputs": [],
      "stateMutability": "nonpayable",
      "type": "function"
    },
    {
      "inputs": [],
      "name": "pause",
      "outputs": [],
      "stateMutability": "nonpayable",
      "type": "function"
    },
    {
      "inputs": [],
      "name": "paused",
      "outputs": [
        {
          "internalType": "bool",
          "name": "",
          "type": "bool"
        }
      ],
      "stateMutability": "view",
      "type": "function"
    },
    {
      "inputs": [
        {
          "internalType": "bytes32",
          "name": "role",
          "type": "bytes32"
        },
        {
          "internalType": "address",
          "name": "account",
          "type": "address"
        }
      ],
      "name": "renounceRole",
      "outputs": [],
      "stateMutability": "nonpayable",
      "type": "function"
    },
    {
      "inputs": [
        {
          "internalType": "bytes32",
          "name": "role",
          "type": "bytes32"
        },
        {
          "internalType": "address",
          "name": "account",
          "type": "address"
        }
      ],
      "name": "revokeRole",
      "outputs": [],
      "stateMutability": "nonpayable",
      "type": "function"
    },
    {
      "inputs": [
        {
          "internalType": "address",
          "name": "from",
          "type": "address"
        },
        {
          "internalType": "address",
          "name": "to",
          "type": "address"
        },
        {
          "internalType": "uint256[]",
          "name": "ids",
          "type": "uint256[]"
        },
        {
          "internalType": "uint256[]",
          "name": "amounts",
          "type": "uint256[]"
        },
        {
          "internalType": "bytes",
          "name": "data",
          "type": "bytes"
        }
      ],
      "name": "safeBatchTransferFrom",
      "outputs": [],
      "stateMutability": "nonpayable",
      "type": "function"
    },
    {
      "inputs": [
        {
          "internalType": "address",
          "name": "from",
          "type": "address"
        },
        {
          "internalType": "address",
          "name": "to",
          "type": "address"
        },
        {
          "internalType": "uint256",
          "name": "id",
          "type": "uint256"
        },
        {
          "internalType": "uint256",
          "name": "amount",
          "type": "uint256"
        },
        {
          "internalType": "bytes",
          "name": "data",
          "type": "bytes"
        }
      ],
      "name": "safeTransferFrom",
      "outputs": [],
      "stateMutability": "nonpayable",
      "type": "function"
    },
    {
      "inputs": [
        {
          "internalType": "address",
          "name": "operator",
          "type": "address"
        },
        {
          "internalType": "bool",
          "name": "approved",
          "type": "bool"
        }
      ],
      "name": "setApprovalForAll",
      "outputs": [],
      "stateMutability": "nonpayable",
      "type": "function"
    },
    {
      "inputs": [
        {
          "internalType": "bytes4",
          "name": "interfaceId",
          "type": "bytes4"
        }
      ],
      "name": "supportsInterface",
      "outputs": [
        {
          "internalType": "bool",
          "name": "",
          "type": "bool"
        }
      ],
      "stateMutability": "view",
      "type": "function"
    },
    {
      "inputs": [],
      "name": "unpause",
      "outputs": [],
      "stateMutability": "nonpayable",
      "type": "function"
    },
    {
      "inputs": [
        {
          "internalType": "uint256",
          "name": "",
          "type": "uint256"
        }
      ],
      "name": "uri",
      "outputs": [
        {
          "internalType": "string",
          "name": "",
          "type": "string"
        }
      ],
      "stateMutability": "view",
      "type": "function"
    },
    {
      "inputs": [
        {
          "internalType": "string",
          "name": "newuri",
          "type": "string"
        }
      ],
      "name": "setURI",
      "outputs": [],
      "stateMutability": "nonpayable",
      "type": "function"
    }
  ],
  "bytecode": "0x60806040523480156200001157600080fd5b50604051620031723803806200317283398101604081905262000034916200030e565b80806200004181620000c8565b506005805460ff191690556200006260006200005c620000e1565b620000e5565b620000917f9f2df0fed2c77648de5860a4cc508cd0818c85b8b8a1ab4ceeef8d981c8956a66200005c620000e1565b620000c07f65d7a28e3265b37a6474929f336521b332c1681b933f6cb9f3376673440d862a6200005c620000e1565b505062000462565b8051620000dd90600490602084019062000268565b5050565b3390565b620000dd82826200010282826200012e60201b62000a131760201c565b60008281526001602090815260409091206200012991839062000a98620001b8821b17901c565b505050565b6200013a8282620001d8565b620000dd576000828152602081815260408083206001600160a01b03851684529091529020805460ff1916600117905562000174620000e1565b6001600160a01b0316816001600160a01b0316837f2f8788117e7eff1d82e926ec794901d17c78024a50270940304540a733656f0d60405160405180910390a45050565b6000620001cf836001600160a01b03841662000201565b90505b92915050565b6000918252602082815260408084206001600160a01b0393909316845291905290205460ff1690565b60006200020f838362000250565b6200024757508154600181810184556000848152602080822090930184905584548482528286019093526040902091909155620001d2565b506000620001d2565b60009081526001919091016020526040902054151590565b8280546200027690620003dd565b90600052602060002090601f0160209004810192826200029a5760008555620002e5565b82601f10620002b557805160ff1916838001178555620002e5565b82800160010185558215620002e5579182015b82811115620002e5578251825591602001919060010190620002c8565b50620002f3929150620002f7565b5090565b5b80821115620002f35760008155600101620002f8565b6000602080838503121562000321578182fd5b82516001600160401b038082111562000338578384fd5b818501915085601f8301126200034c578384fd5b81518181111562000361576200036162000433565b604051601f8201601f191681018501838111828210171562000387576200038762000433565b60405281815283820185018810156200039e578586fd5b8592505b81831015620003c15783830185015181840186015291840191620003a2565b81831115620003d257858583830101525b979650505050505050565b600281046001821680620003f257607f821691505b602082108114156200042d577f4e487b7100000000000000000000000000000000000000000000000000000000600052602260045260246000fd5b50919050565b7f4e487b7100000000000000000000000000000000000000000000000000000000600052604160045260246000fd5b612d0080620004726000396000f3fe608060405234801561001057600080fd5b506004361061018d5760003560e01c8063731133e9116100de578063ca15c87311610097578063e63ab1e911610071578063e63ab1e914610349578063e985e9c514610351578063f242432a14610364578063f5298aca146103775761018d565b8063ca15c8731461031b578063d53913931461032e578063d547741f146103365761018d565b8063731133e9146102b25780638456cb59146102c55780639010d07c146102cd57806391d14854146102ed578063a217fddf14610300578063a22cb465146103085761018d565b80632eb2c2d61161014b5780633f4ba83a116101255780633f4ba83a1461026f5780634e1273f4146102775780635c975abb146102975780636b20c4541461029f5761018d565b80632eb2c2d6146102365780632f2ff15d1461024957806336568abe1461025c5761018d565b8062fdd58e1461019257806301ffc9a7146101bb57806302fe5305146101db5780630e89341c146101f05780631f7fdffa14610210578063248a9ca314610223575b600080fd5b6101a56101a0366004612064565b61038a565b6040516101b2919061248c565b60405180910390f35b6101ce6101c9366004612229565b6103e6565b6040516101b29190612481565b6101ee6101e9366004612261565b6103f9565b005b6102036101fe3660046121ce565b610421565b6040516101b29190612495565b6101ee61021e366004611f96565b6104b5565b6101a56102313660046121ce565b61050f565b6101ee610244366004611e1f565b610524565b6101ee6102573660046121e6565b610582565b6101ee61026a3660046121e6565b6105a6565b6101ee6105e8565b61028a610285366004612111565b61063a565b6040516101b29190612440565b6101ce610759565b6101ee6102ad366004611f26565b610763565b6101ee6102c03660046120bf565b6107b8565b6101ee61080c565b6102e06102db366004612208565b61085c565b6040516101b29190612389565b6101ce6102fb3660046121e6565b61087b565b6101a56108a4565b6101ee61031636600461202a565b6108a9565b6101a56103293660046121ce565b6108bb565b6101a56108d2565b6101ee6103443660046121e6565b6108f6565b6101a5610915565b6101ce61035f366004611ded565b610939565b6101ee610372366004611ec4565b610967565b6101ee61038536600461208d565b6109be565b60006001600160a01b0383166103bb5760405162461bcd60e51b81526004016103b2906125a7565b60405180910390fd5b5060008181526002602090815260408083206001600160a01b03861684529091529020545b92915050565b60006103f182610aad565b90505b919050565b610403600061050f565b6104148161040f610aed565b610af1565b61041d82610b55565b5050565b60606004805461043090612b85565b80601f016020809104026020016040519081016040528092919081815260200182805461045c90612b85565b80156104a95780601f1061047e576101008083540402835291602001916104a9565b820191906000526020600020905b81548152906001019060200180831161048c57829003601f168201915b50505050509050919050565b6104e17f9f2df0fed2c77648de5860a4cc508cd0818c85b8b8a1ab4ceeef8d981c8956a66102fb610aed565b6104fd5760405162461bcd60e51b81526004016103b2906127cf565b61050984848484610b68565b50505050565b60009081526020819052604090206001015490565b61052c610aed565b6001600160a01b0316856001600160a01b0316148061055257506105528561035f610aed565b61056e5760405162461bcd60e51b81526004016103b29061273a565b61057b8585858585610cea565b5050505050565b61058b8261050f565b6105978161040f610aed565b6105a18383610ebe565b505050565b6105ae610aed565b6001600160a01b0316816001600160a01b0316146105de5760405162461bcd60e51b81526004016103b290612a4b565b61041d8282610ee0565b6106147f65d7a28e3265b37a6474929f336521b332c1681b933f6cb9f3376673440d862a6102fb610aed565b6106305760405162461bcd60e51b81526004016103b290612876565b610638610f02565b565b6060815183511461065d5760405162461bcd60e51b81526004016103b290612979565b600083516001600160401b0381111561068657634e487b7160e01b600052604160045260246000fd5b6040519080825280602002602001820160405280156106af578160200160208202803683370190505b50905060005b8451811015610751576107168582815181106106e157634e487b7160e01b600052603260045260246000fd5b602002602001015185838151811061070957634e487b7160e01b600052603260045260246000fd5b602002602001015161038a565b82828151811061073657634e487b7160e01b600052603260045260246000fd5b602090810291909101015261074a81612bc0565b90506106b5565b509392505050565b60055460ff165b90565b61076b610aed565b6001600160a01b0316836001600160a01b0316148061079157506107918361035f610aed565b6107ad5760405162461bcd60e51b81526004016103b290612682565b6105a1838383610f70565b6107e47f9f2df0fed2c77648de5860a4cc508cd0818c85b8b8a1ab4ceeef8d981c8956a66102fb610aed565b6108005760405162461bcd60e51b81526004016103b2906127cf565b61050984848484611124565b6108387f65d7a28e3265b37a6474929f336521b332c1681b933f6cb9f3376673440d862a6102fb610aed565b6108545760405162461bcd60e51b81526004016103b2906128d3565b610638611215565b60008281526001602052604081206108749083611270565b9392505050565b6000918252602082815260408084206001600160a01b0393909316845291905290205460ff1690565b600081565b61041d6108b4610aed565b838361127c565b60008181526001602052604081206103f19061131f565b7f9f2df0fed2c77648de5860a4cc508cd0818c85b8b8a1ab4ceeef8d981c8956a681565b6108ff8261050f565b61090b8161040f610aed565b6105a18383610ee0565b7f65d7a28e3265b37a6474929f336521b332c1681b933f6cb9f3376673440d862a81565b6001600160a01b03918216600090815260036020908152604080832093909416825291909152205460ff1690565b61096f610aed565b6001600160a01b0316856001600160a01b0316148061099557506109958561035f610aed565b6109b15760405162461bcd60e51b81526004016103b290612682565b61057b858585858561132a565b6109c6610aed565b6001600160a01b0316836001600160a01b031614806109ec57506109ec8361035f610aed565b610a085760405162461bcd60e51b81526004016103b290612682565b6105a1838383611462565b610a1d828261087b565b61041d576000828152602081815260408083206001600160a01b03851684529091529020805460ff19166001179055610a54610aed565b6001600160a01b0316816001600160a01b0316837f2f8788117e7eff1d82e926ec794901d17c78024a50270940304540a733656f0d60405160405180910390a45050565b6000610874836001600160a01b038416611575565b60006001600160e01b03198216636cdb3d1360e11b1480610ade57506001600160e01b031982166303a24d0760e21b145b806103f157506103f1826115bf565b3390565b610afb828261087b565b61041d57610b13816001600160a01b031660146115e4565b610b1e8360206115e4565b604051602001610b2f929190612314565b60408051601f198184030181529082905262461bcd60e51b82526103b291600401612495565b805161041d906004906020840190611c5b565b6001600160a01b038416610b8e5760405162461bcd60e51b81526004016103b290612a0a565b8151835114610baf5760405162461bcd60e51b81526004016103b2906129c2565b6000610bb9610aed565b9050610bca81600087878787611795565b60005b8451811015610c8257838181518110610bf657634e487b7160e01b600052603260045260246000fd5b602002602001015160026000878481518110610c2257634e487b7160e01b600052603260045260246000fd5b602002602001015181526020019081526020016000206000886001600160a01b03166001600160a01b031681526020019081526020016000206000828254610c6a9190612af4565b90915550819050610c7a81612bc0565b915050610bcd565b50846001600160a01b031660006001600160a01b0316826001600160a01b03167f4a39dc06d4c0dbc64b70af90fd698a233a518aa5d07e595d983b8c0526c8f7fb8787604051610cd3929190612453565b60405180910390a461057b816000878787876117a3565b8151835114610d0b5760405162461bcd60e51b81526004016103b2906129c2565b6001600160a01b038416610d315760405162461bcd60e51b81526004016103b2906126f5565b6000610d3b610aed565b9050610d4b818787878787611795565b60005b8451811015610e50576000858281518110610d7957634e487b7160e01b600052603260045260246000fd5b602002602001015190506000858381518110610da557634e487b7160e01b600052603260045260246000fd5b60209081029190910181015160008481526002835260408082206001600160a01b038e168352909352919091205490915081811015610df65760405162461bcd60e51b81526004016103b29061282c565b60008381526002602090815260408083206001600160a01b038e8116855292528083208585039055908b16825281208054849290610e35908490612af4565b9250508190555050505080610e4990612bc0565b9050610d4e565b50846001600160a01b0316866001600160a01b0316826001600160a01b03167f4a39dc06d4c0dbc64b70af90fd698a233a518aa5d07e595d983b8c0526c8f7fb8787604051610ea0929190612453565b60405180910390a4610eb68187878787876117a3565b505050505050565b610ec88282610a13565b60008281526001602052604090206105a19082610a98565b610eea82826118b1565b60008281526001602052604090206105a19082611934565b610f0a610759565b610f265760405162461bcd60e51b81526004016103b290612579565b6005805460ff191690557f5db9ee0a495bf2e6ff9c91a7834c1ba4fdd244a5e8aa4e537bd38aeae4b073aa610f59610aed565b604051610f669190612389565b60405180910390a1565b6001600160a01b038316610f965760405162461bcd60e51b81526004016103b29061278c565b8051825114610fb75760405162461bcd60e51b81526004016103b2906129c2565b6000610fc1610aed565b9050610fe181856000868660405180602001604052806000815250611795565b60005b83518110156110c557600084828151811061100f57634e487b7160e01b600052603260045260246000fd5b60200260200101519050600084838151811061103b57634e487b7160e01b600052603260045260246000fd5b60209081029190910181015160008481526002835260408082206001600160a01b038c16835290935291909120549091508181101561108c5760405162461bcd60e51b81526004016103b2906125f2565b60009283526002602090815260408085206001600160a01b038b16865290915290922091039055806110bd81612bc0565b915050610fe4565b5060006001600160a01b0316846001600160a01b0316826001600160a01b03167f4a39dc06d4c0dbc64b70af90fd698a233a518aa5d07e595d983b8c0526c8f7fb8686604051611116929190612453565b60405180910390a450505050565b6001600160a01b03841661114a5760405162461bcd60e51b81526004016103b290612a0a565b6000611154610aed565b90506111758160008761116688611949565b61116f88611949565b87611795565b60008481526002602090815260408083206001600160a01b0389168452909152812080548592906111a7908490612af4565b92505081905550846001600160a01b031660006001600160a01b0316826001600160a01b03167fc3d58168c5ae7397731d063d5bbf3d657854427343f4c083240f7aacaa2d0f6287876040516111fe929190612a9a565b60405180910390a461057b816000878787876119a2565b61121d610759565b1561123a5760405162461bcd60e51b81526004016103b2906126cb565b6005805460ff191660011790557f62e78cea01bee320cd4e420270b5ea74000d11b0c9f74754ebdbfc544b05a258610f59610aed565b60006108748383611a73565b816001600160a01b0316836001600160a01b031614156112ae5760405162461bcd60e51b81526004016103b290612930565b6001600160a01b0383811660008181526003602090815260408083209487168084529490915290819020805460ff1916851515179055517f17307eab39ab6107e8899845ad3d59bd9653f200f220920489ca2b5937696c3190611312908590612481565b60405180910390a3505050565b60006103f182611aab565b6001600160a01b0384166113505760405162461bcd60e51b81526004016103b2906126f5565b600061135a610aed565b905061136b81878761116688611949565b60008481526002602090815260408083206001600160a01b038a168452909152902054838110156113ae5760405162461bcd60e51b81526004016103b29061282c565b60008581526002602090815260408083206001600160a01b038b81168552925280832087850390559088168252812080548692906113ed908490612af4565b92505081905550856001600160a01b0316876001600160a01b0316836001600160a01b03167fc3d58168c5ae7397731d063d5bbf3d657854427343f4c083240f7aacaa2d0f628888604051611443929190612a9a565b60405180910390a46114598288888888886119a2565b50505050505050565b6001600160a01b0383166114885760405162461bcd60e51b81526004016103b29061278c565b6000611492610aed565b90506114c2818560006114a487611949565b6114ad87611949565b60405180602001604052806000815250611795565b60008381526002602090815260408083206001600160a01b0388168452909152902054828110156115055760405162461bcd60e51b81526004016103b2906125f2565b60008481526002602090815260408083206001600160a01b03808a16808652919093528184208786039055905190918516907fc3d58168c5ae7397731d063d5bbf3d657854427343f4c083240f7aacaa2d0f62906115669089908990612a9a565b60405180910390a45050505050565b60006115818383611aaf565b6115b7575081546001818101845560008481526020808220909301849055845484825282860190935260409020919091556103e0565b5060006103e0565b60006001600160e01b03198216635a05180f60e01b14806103f157506103f182611ac7565b606060006115f3836002612b0c565b6115fe906002612af4565b6001600160401b0381111561162357634e487b7160e01b600052604160045260246000fd5b6040519080825280601f01601f19166020018201604052801561164d576020820181803683370190505b509050600360fc1b8160008151811061167657634e487b7160e01b600052603260045260246000fd5b60200101906001600160f81b031916908160001a905350600f60fb1b816001815181106116b357634e487b7160e01b600052603260045260246000fd5b60200101906001600160f81b031916908160001a90535060006116d7846002612b0c565b6116e2906001612af4565b90505b6001811115611776576f181899199a1a9b1b9c1cb0b131b232b360811b85600f166010811061172457634e487b7160e01b600052603260045260246000fd5b1a60f81b82828151811061174857634e487b7160e01b600052603260045260246000fd5b60200101906001600160f81b031916908160001a90535060049490941c9361176f81612b6e565b90506116e5565b5083156108745760405162461bcd60e51b81526004016103b2906124fc565b610eb6868686868686611aec565b6117b5846001600160a01b0316611b1f565b15610eb65760405163bc197c8160e01b81526001600160a01b0385169063bc197c81906117ee908990899088908890889060040161239d565b602060405180830381600087803b15801561180857600080fd5b505af1925050508015611838575060408051601f3d908101601f1916820190925261183591810190612245565b60015b61188157611844612c0d565b8061184f5750611869565b8060405162461bcd60e51b81526004016103b29190612495565b60405162461bcd60e51b81526004016103b2906124a8565b6001600160e01b0319811663bc197c8160e01b146114595760405162461bcd60e51b81526004016103b290612531565b6118bb828261087b565b1561041d576000828152602081815260408083206001600160a01b03851684529091529020805460ff191690556118f0610aed565b6001600160a01b0316816001600160a01b0316837ff6391f5c32d9c69d2a47ea670b442974b53935d1edc7fd64eb21e047a839171b60405160405180910390a45050565b6000610874836001600160a01b038416611b25565b6040805160018082528183019092526060916000919060208083019080368337019050509050828160008151811061199157634e487b7160e01b600052603260045260246000fd5b602090810291909101015292915050565b6119b4846001600160a01b0316611b1f565b15610eb65760405163f23a6e6160e01b81526001600160a01b0385169063f23a6e61906119ed90899089908890889088906004016123fb565b602060405180830381600087803b158015611a0757600080fd5b505af1925050508015611a37575060408051601f3d908101601f19168201909252611a3491810190612245565b60015b611a4357611844612c0d565b6001600160e01b0319811663f23a6e6160e01b146114595760405162461bcd60e51b81526004016103b290612531565b6000826000018281548110611a9857634e487b7160e01b600052603260045260246000fd5b9060005260206000200154905092915050565b5490565b60009081526001919091016020526040902054151590565b60006001600160e01b03198216637965db0b60e01b14806103f157506103f182611c42565b611afa868686868686610eb6565b611b02610759565b15610eb65760405162461bcd60e51b81526004016103b290612636565b3b151590565b60008181526001830160205260408120548015611c38576000611b49600183612b2b565b8554909150600090611b5d90600190612b2b565b9050818114611bde576000866000018281548110611b8b57634e487b7160e01b600052603260045260246000fd5b9060005260206000200154905080876000018481548110611bbc57634e487b7160e01b600052603260045260246000fd5b6000918252602080832090910192909255918252600188019052604090208390555b8554869080611bfd57634e487b7160e01b600052603160045260246000fd5b6001900381819060005260206000200160009055905585600101600086815260200190815260200160002060009055600193505050506103e0565b60009150506103e0565b6001600160e01b031981166301ffc9a760e01b14919050565b828054611c6790612b85565b90600052602060002090601f016020900481019282611c895760008555611ccf565b82601f10611ca257805160ff1916838001178555611ccf565b82800160010185558215611ccf579182015b82811115611ccf578251825591602001919060010190611cb4565b50611cdb929150611cdf565b5090565b5b80821115611cdb5760008155600101611ce0565b60006001600160401b03831115611d0d57611d0d612bf1565b611d20601f8401601f1916602001612aa8565b9050828152838383011115611d3457600080fd5b828260208301376000602084830101529392505050565b80356001600160a01b03811681146103f457600080fd5b600082601f830112611d72578081fd5b81356020611d87611d8283612ad1565b612aa8565b8281528181019085830183850287018401881015611da3578586fd5b855b85811015611dc157813584529284019290840190600101611da5565b5090979650505050505050565b600082601f830112611dde578081fd5b61087483833560208501611cf4565b60008060408385031215611dff578182fd5b611e0883611d4b565b9150611e1660208401611d4b565b90509250929050565b600080600080600060a08688031215611e36578081fd5b611e3f86611d4b565b9450611e4d60208701611d4b565b935060408601356001600160401b0380821115611e68578283fd5b611e7489838a01611d62565b94506060880135915080821115611e89578283fd5b611e9589838a01611d62565b93506080880135915080821115611eaa578283fd5b50611eb788828901611dce565b9150509295509295909350565b600080600080600060a08688031215611edb578081fd5b611ee486611d4b565b9450611ef260208701611d4b565b9350604086013592506060860135915060808601356001600160401b03811115611f1a578182fd5b611eb788828901611dce565b600080600060608486031215611f3a578283fd5b611f4384611d4b565b925060208401356001600160401b0380821115611f5e578384fd5b611f6a87838801611d62565b93506040860135915080821115611f7f578283fd5b50611f8c86828701611d62565b9150509250925092565b60008060008060808587031215611fab578384fd5b611fb485611d4b565b935060208501356001600160401b0380821115611fcf578485fd5b611fdb88838901611d62565b94506040870135915080821115611ff0578384fd5b611ffc88838901611d62565b93506060870135915080821115612011578283fd5b5061201e87828801611dce565b91505092959194509250565b6000806040838503121561203c578182fd5b61204583611d4b565b915060208301358015158114612059578182fd5b809150509250929050565b60008060408385031215612076578182fd5b61207f83611d4b565b946020939093013593505050565b6000806000606084860312156120a1578081fd5b6120aa84611d4b565b95602085013595506040909401359392505050565b600080600080608085870312156120d4578182fd5b6120dd85611d4b565b9350602085013592506040850135915060608501356001600160401b03811115612105578182fd5b61201e87828801611dce565b60008060408385031215612123578182fd5b82356001600160401b0380821115612139578384fd5b818501915085601f83011261214c578384fd5b8135602061215c611d8283612ad1565b82815281810190858301838502870184018b1015612178578889fd5b8896505b848710156121a15761218d81611d4b565b83526001969096019591830191830161217c565b50965050860135925050808211156121b7578283fd5b506121c485828601611d62565b9150509250929050565b6000602082840312156121df578081fd5b5035919050565b600080604083850312156121f8578182fd5b82359150611e1660208401611d4b565b6000806040838503121561221a578182fd5b50508035926020909101359150565b60006020828403121561223a578081fd5b813561087481612cb1565b600060208284031215612256578081fd5b815161087481612cb1565b600060208284031215612272578081fd5b81356001600160401b03811115612287578182fd5b8201601f81018413612297578182fd5b6122a684823560208401611cf4565b949350505050565b6000815180845260208085019450808401835b838110156122dd578151875295820195908201906001016122c1565b509495945050505050565b60008151808452612300816020860160208601612b42565b601f01601f19169290920160200192915050565b60007f416363657373436f6e74726f6c3a206163636f756e74200000000000000000008252835161234c816017850160208801612b42565b7001034b99036b4b9b9b4b733903937b6329607d1b601791840191820152835161237d816028840160208801612b42565b01602801949350505050565b6001600160a01b0391909116815260200190565b6001600160a01b0386811682528516602082015260a0604082018190526000906123c9908301866122ae565b82810360608401526123db81866122ae565b905082810360808401526123ef81856122e8565b98975050505050505050565b6001600160a01b03868116825285166020820152604081018490526060810183905260a060808201819052600090612435908301846122e8565b979650505050505050565b60006020825261087460208301846122ae565b60006040825261246660408301856122ae565b828103602084015261247881856122ae565b95945050505050565b901515815260200190565b90815260200190565b60006020825261087460208301846122e8565b60208082526034908201527f455243313135353a207472616e7366657220746f206e6f6e20455243313135356040820152732932b1b2b4bb32b91034b6b83632b6b2b73a32b960611b606082015260800190565b6020808252818101527f537472696e67733a20686578206c656e67746820696e73756666696369656e74604082015260600190565b60208082526028908201527f455243313135353a204552433131353552656365697665722072656a656374656040820152676420746f6b656e7360c01b606082015260800190565b60208082526014908201527314185d5cd8589b194e881b9bdd081c185d5cd95960621b604082015260600190565b6020808252602b908201527f455243313135353a2062616c616e636520717565727920666f7220746865207a60408201526a65726f206164647265737360a81b606082015260800190565b60208082526024908201527f455243313135353a206275726e20616d6f756e7420657863656564732062616c604082015263616e636560e01b606082015260800190565b6020808252602c908201527f455243313135355061757361626c653a20746f6b656e207472616e736665722060408201526b1dda1a5b19481c185d5cd95960a21b606082015260800190565b60208082526029908201527f455243313135353a2063616c6c6572206973206e6f74206f776e6572206e6f7260408201526808185c1c1c9bdd995960ba1b606082015260800190565b60208082526010908201526f14185d5cd8589b194e881c185d5cd95960821b604082015260600190565b60208082526025908201527f455243313135353a207472616e7366657220746f20746865207a65726f206164604082015264647265737360d81b606082015260800190565b60208082526032908201527f455243313135353a207472616e736665722063616c6c6572206973206e6f74206040820152711bdddb995c881b9bdc88185c1c1c9bdd995960721b606082015260800190565b60208082526023908201527f455243313135353a206275726e2066726f6d20746865207a65726f206164647260408201526265737360e81b606082015260800190565b60208082526038908201527f455243313135355072657365744d696e7465725061757365723a206d7573742060408201527f68617665206d696e74657220726f6c6520746f206d696e740000000000000000606082015260800190565b6020808252602a908201527f455243313135353a20696e73756666696369656e742062616c616e636520666f60408201526939103a3930b739b332b960b11b606082015260800190565b6020808252603b908201527f455243313135355072657365744d696e7465725061757365723a206d7573742060408201527f686176652070617573657220726f6c6520746f20756e70617573650000000000606082015260800190565b60208082526039908201527f455243313135355072657365744d696e7465725061757365723a206d7573742060408201527f686176652070617573657220726f6c6520746f20706175736500000000000000606082015260800190565b60208082526029908201527f455243313135353a2073657474696e6720617070726f76616c20737461747573604082015268103337b91039b2b63360b91b606082015260800190565b60208082526029908201527f455243313135353a206163636f756e747320616e6420696473206c656e677468604082015268040dad2e6dac2e8c6d60bb1b606082015260800190565b60208082526028908201527f455243313135353a2069647320616e6420616d6f756e7473206c656e677468206040820152670dad2e6dac2e8c6d60c31b606082015260800190565b60208082526021908201527f455243313135353a206d696e7420746f20746865207a65726f206164647265736040820152607360f81b606082015260800190565b6020808252602f908201527f416363657373436f6e74726f6c3a2063616e206f6e6c792072656e6f756e636560408201526e103937b632b9903337b91039b2b63360891b606082015260800190565b918252602082015260400190565b6040518181016001600160401b0381118282101715612ac957612ac9612bf1565b604052919050565b60006001600160401b03821115612aea57612aea612bf1565b5060209081020190565b60008219821115612b0757612b07612bdb565b500190565b6000816000190483118215151615612b2657612b26612bdb565b500290565b600082821015612b3d57612b3d612bdb565b500390565b60005b83811015612b5d578181015183820152602001612b45565b838111156105095750506000910152565b600081612b7d57612b7d612bdb565b506000190190565b600281046001821680612b9957607f821691505b60208210811415612bba57634e487b7160e01b600052602260045260246000fd5b50919050565b6000600019821415612bd457612bd4612bdb565b5060010190565b634e487b7160e01b600052601160045260246000fd5b634e487b7160e01b600052604160045260246000fd5b60e01c90565b600060443d1015612c1d57610760565b600481823e6308c379a0612c318251612c07565b14612c3b57610760565b6040513d600319016004823e80513d6001600160401b038160248401118184111715612c6a5750505050610760565b82840192508251915080821115612c845750505050610760565b503d83016020828401011115612c9c57505050610760565b601f01601f1916810160200160405291505090565b6001600160e01b031981168114612cc757600080fd5b5056fea26469706673582212207f6c705c884e4c16278a2e566bde56b9cb03baa23e7b04a76b005cc83d0efbe164736f6c63430008000033",
  "immutableReferences": {},
  "source": "//SPDX-License-Identifier: Unlicense\npragma solidity ^0.8.0;\npragma experimental ABIEncoderV2;\n\nimport \"@openzeppelin/contracts/token/ERC1155/presets/ERC1155PresetMinterPauser.sol\";\n\ncontract ERC1155NFT is ERC1155PresetMinterPauser {\n    constructor(string memory uri_) ERC1155PresetMinterPauser(uri_){}\n\n    function setURI(string memory newuri)public onlyRole(getRoleAdmin(DEFAULT_ADMIN_ROLE)){\n        _setURI(newuri);\n    }\n}",
  "sourcePath": "/Users/necklace/work/nutbox/nutbox-contract/contracts/ERC1155NFT.sol",
  "compiler": {
    "name": "solc",
    "version": "0.8.0+commit.c7dfd78e.Emscripten.clang"
  },
  "schemaVersion": "3.4.11",
  "updatedAt": "2023-03-25T07:32:52.090Z",
  "devdoc": {
    "kind": "dev",
    "methods": {
      "balanceOf(address,uint256)": {
        "details": "See {IERC1155-balanceOf}. Requirements: - `account` cannot be the zero address."
      },
      "balanceOfBatch(address[],uint256[])": {
        "details": "See {IERC1155-balanceOfBatch}. Requirements: - `accounts` and `ids` must have the same length."
      },
      "getRoleAdmin(bytes32)": {
        "details": "Returns the admin role that controls `role`. See {grantRole} and {revokeRole}. To change a role's admin, use {_setRoleAdmin}."
      },
      "getRoleMember(bytes32,uint256)": {
        "details": "Returns one of the accounts that have `role`. `index` must be a value between 0 and {getRoleMemberCount}, non-inclusive. Role bearers are not sorted in any particular way, and their ordering may change at any point. WARNING: When using {getRoleMember} and {getRoleMemberCount}, make sure you perform all queries on the same block. See the following https://forum.openzeppelin.com/t/iterating-over-elements-on-enumerableset-in-openzeppelin-contracts/2296[forum post] for more information."
      },
      "getRoleMemberCount(bytes32)": {
        "details": "Returns the number of accounts that have `role`. Can be used together with {getRoleMember} to enumerate all bearers of a role."
      },
      "grantRole(bytes32,address)": {
        "details": "Grants `role` to `account`. If `account` had not been already granted `role`, emits a {RoleGranted} event. Requirements: - the caller must have ``role``'s admin role."
      },
      "hasRole(bytes32,address)": {
        "details": "Returns `true` if `account` has been granted `role`."
      },
      "isApprovedForAll(address,address)": {
        "details": "See {IERC1155-isApprovedForAll}."
      },
      "mint(address,uint256,uint256,bytes)": {
        "details": "Creates `amount` new tokens for `to`, of token type `id`. See {ERC1155-_mint}. Requirements: - the caller must have the `MINTER_ROLE`."
      },
      "mintBatch(address,uint256[],uint256[],bytes)": {
        "details": "xref:ROOT:erc1155.adoc#batch-operations[Batched] variant of {mint}."
      },
      "pause()": {
        "details": "Pauses all token transfers. See {ERC1155Pausable} and {Pausable-_pause}. Requirements: - the caller must have the `PAUSER_ROLE`."
      },
      "paused()": {
        "details": "Returns true if the contract is paused, and false otherwise."
      },
      "renounceRole(bytes32,address)": {
        "details": "Revokes `role` from the calling account. Roles are often managed via {grantRole} and {revokeRole}: this function's purpose is to provide a mechanism for accounts to lose their privileges if they are compromised (such as when a trusted device is misplaced). If the calling account had been revoked `role`, emits a {RoleRevoked} event. Requirements: - the caller must be `account`."
      },
      "revokeRole(bytes32,address)": {
        "details": "Revokes `role` from `account`. If `account` had been granted `role`, emits a {RoleRevoked} event. Requirements: - the caller must have ``role``'s admin role."
      },
      "safeBatchTransferFrom(address,address,uint256[],uint256[],bytes)": {
        "details": "See {IERC1155-safeBatchTransferFrom}."
      },
      "safeTransferFrom(address,address,uint256,uint256,bytes)": {
        "details": "See {IERC1155-safeTransferFrom}."
      },
      "setApprovalForAll(address,bool)": {
        "details": "See {IERC1155-setApprovalForAll}."
      },
      "supportsInterface(bytes4)": {
        "details": "See {IERC165-supportsInterface}."
      },
      "unpause()": {
        "details": "Unpauses all token transfers. See {ERC1155Pausable} and {Pausable-_unpause}. Requirements: - the caller must have the `PAUSER_ROLE`."
      },
      "uri(uint256)": {
        "details": "See {IERC1155MetadataURI-uri}. This implementation returns the same URI for *all* token types. It relies on the token type ID substitution mechanism https://eips.ethereum.org/EIPS/eip-1155#metadata[defined in the EIP]. Clients calling this function must replace the `\\{id\\}` substring with the actual token type ID."
      }
    },
    "version": 1
  },
  "userdoc": {
    "kind": "user",
    "methods": {},
    "version": 1
  }
}