{
  "contractName": "ERC1155Staking",
  "abi": [
    {
      "inputs": [
        {
          "internalType": "address",
          "name": "_community",
          "type": "address"
        },
        {
          "internalType": "string",
          "name": "_name",
          "type": "string"
        },
        {
          "internalType": "address",
          "name": "_stakeToken",
          "type": "address"
        },
        {
          "internalType": "uint256",
          "name": "_tokenId",
          "type": "uint256"
        }
      ],
      "stateMutability": "nonpayable",
      "type": "constructor"
    },
    {
      "anonymous": false,
      "inputs": [
        {
          "indexed": true,
          "internalType": "address",
          "name": "community",
          "type": "address"
        },
        {
          "indexed": true,
          "internalType": "address",
          "name": "who",
          "type": "address"
        },
        {
          "indexed": false,
          "internalType": "uint256",
          "name": "amount",
          "type": "uint256"
        }
      ],
      "name": "Deposited",
      "type": "event"
    },
    {
      "anonymous": false,
      "inputs": [
        {
          "indexed": true,
          "internalType": "address",
          "name": "community",
          "type": "address"
        },
        {
          "indexed": true,
          "internalType": "address",
          "name": "who",
          "type": "address"
        },
        {
          "indexed": false,
          "internalType": "uint256",
          "name": "amount",
          "type": "uint256"
        }
      ],
      "name": "Withdrawn",
      "type": "event"
    },
    {
      "inputs": [],
      "name": "name",
      "outputs": [
        {
          "internalType": "string",
          "name": "",
          "type": "string"
        }
      ],
      "stateMutability": "view",
      "type": "function"
    },
    {
      "inputs": [],
      "name": "stakeToken",
      "outputs": [
        {
          "internalType": "address",
          "name": "",
          "type": "address"
        }
      ],
      "stateMutability": "view",
      "type": "function"
    },
    {
      "inputs": [],
      "name": "tokenId",
      "outputs": [
        {
          "internalType": "uint256",
          "name": "",
          "type": "uint256"
        }
      ],
      "stateMutability": "view",
      "type": "function"
    },
    {
      "inputs": [],
      "name": "totalStakedAmount",
      "outputs": [
        {
          "internalType": "uint256",
          "name": "",
          "type": "uint256"
        }
      ],
      "stateMutability": "view",
      "type": "function"
    },
    {
      "inputs": [
        {
          "internalType": "uint256",
          "name": "amount",
          "type": "uint256"
        }
      ],
      "name": "deposit",
      "outputs": [],
      "stateMutability": "nonpayable",
      "type": "function"
    },
    {
      "inputs": [
        {
          "internalType": "uint256",
          "name": "amount",
          "type": "uint256"
        }
      ],
      "name": "withdraw",
      "outputs": [],
      "stateMutability": "nonpayable",
      "type": "function"
    },
    {
      "inputs": [],
      "name": "getFactory",
      "outputs": [
        {
          "internalType": "address",
          "name": "",
          "type": "address"
        }
      ],
      "stateMutability": "view",
      "type": "function"
    },
    {
      "inputs": [],
      "name": "getCommunity",
      "outputs": [
        {
          "internalType": "address",
          "name": "",
          "type": "address"
        }
      ],
      "stateMutability": "view",
      "type": "function"
    },
    {
      "inputs": [
        {
          "internalType": "address",
          "name": "user",
          "type": "address"
        }
      ],
      "name": "getUserStakedAmount",
      "outputs": [
        {
          "internalType": "uint256",
          "name": "",
          "type": "uint256"
        }
      ],
      "stateMutability": "view",
      "type": "function"
    },
    {
      "inputs": [],
      "name": "getTotalStakedAmount",
      "outputs": [
        {
          "internalType": "uint256",
          "name": "",
          "type": "uint256"
        }
      ],
      "stateMutability": "view",
      "type": "function"
    },
    {
      "inputs": [
        {
          "internalType": "address",
          "name": "user",
          "type": "address"
        }
      ],
      "name": "getUserDepositInfo",
      "outputs": [
        {
          "components": [
            {
              "internalType": "bool",
              "name": "hasDeposited",
              "type": "bool"
            },
            {
              "internalType": "uint256",
              "name": "amount",
              "type": "uint256"
            }
          ],
          "internalType": "struct ERC1155Staking.StakingInfo",
          "name": "",
          "type": "tuple"
        }
      ],
      "stateMutability": "view",
      "type": "function"
    },
    {
      "inputs": [
        {
          "internalType": "address",
          "name": "operator",
          "type": "address"
        },
        {
          "internalType": "address",
          "name": "from",
          "type": "address"
        },
        {
          "internalType": "uint256",
          "name": "id",
          "type": "uint256"
        },
        {
          "internalType": "uint256",
          "name": "value",
          "type": "uint256"
        },
        {
          "internalType": "bytes",
          "name": "data",
          "type": "bytes"
        }
      ],
      "name": "onERC1155Received",
      "outputs": [
        {
          "internalType": "bytes4",
          "name": "",
          "type": "bytes4"
        }
      ],
      "stateMutability": "nonpayable",
      "type": "function"
    },
    {
      "inputs": [
        {
          "internalType": "address",
          "name": "operator",
          "type": "address"
        },
        {
          "internalType": "address",
          "name": "from",
          "type": "address"
        },
        {
          "internalType": "uint256[]",
          "name": "ids",
          "type": "uint256[]"
        },
        {
          "internalType": "uint256[]",
          "name": "values",
          "type": "uint256[]"
        },
        {
          "internalType": "bytes",
          "name": "data",
          "type": "bytes"
        }
      ],
      "name": "onERC1155BatchReceived",
      "outputs": [
        {
          "internalType": "bytes4",
          "name": "",
          "type": "bytes4"
        }
      ],
      "stateMutability": "nonpayable",
      "type": "function"
    },
    {
      "inputs": [
        {
          "internalType": "bytes4",
          "name": "interfaceId",
          "type": "bytes4"
        }
      ],
      "name": "supportsInterface",
      "outputs": [
        {
          "internalType": "bool",
          "name": "",
          "type": "bool"
        }
      ],
      "stateMutability": "view",
      "type": "function"
    }
  ],
  "bytecode": "0x6101006040523480156200001257600080fd5b50604051620016a7380380620016a783398101604081905262000035916200014b565b600160005533606090811b60805284901b6001600160601b03191660e05282516200006890600290602086019062000088565b5060609190911b6001600160601b03191660a05260c05250620002d09050565b82805462000096906200024b565b90600052602060002090601f016020900481019282620000ba576000855562000105565b82601f10620000d557805160ff191683800117855562000105565b8280016001018555821562000105579182015b8281111562000105578251825591602001919060010190620000e8565b506200011392915062000117565b5090565b5b8082111562000113576000815560010162000118565b80516001600160a01b03811681146200014657600080fd5b919050565b6000806000806080858703121562000161578384fd5b6200016c856200012e565b602086810151919550906001600160401b03808211156200018b578586fd5b818801915088601f8301126200019f578586fd5b815181811115620001b457620001b4620002a1565b604051601f8201601f1916810185018381118282101715620001da57620001da620002a1565b60405281815283820185018b1015620001f1578788fd5b8792505b81831015620002145783830185015181840186015291840191620001f5565b818311156200022557878583830101525b80975050505050506200023b604086016200012e565b6060959095015193969295505050565b6002810460018216806200026057607f821691505b602082108114156200029b577f4e487b7100000000000000000000000000000000000000000000000000000000600052602260045260246000fd5b50919050565b7f4e487b7100000000000000000000000000000000000000000000000000000000600052604160045260246000fd5b60805160601c60a05160601c60c05160e05160601c611324620003836000396000818161032e0152818161039c0152818161044601528181610525015281816106c30152818161076c015281816108c8015281816109bf01528181610a4801528181610ab301528181610c1d01528181610cc60152610d4301526000818161029d0152818161060d0152610b670152600081816105dc015281816107de0152610b360152600061080801526113246000f3fe608060405234801561001057600080fd5b50600436106100ea5760003560e01c806388cc58e41161008c578063b6b55f2511610066578063b6b55f25146101b7578063bc197c81146101ca578063c51db6b2146101ea578063f23a6e61146101f2576100ea565b806388cc58e41461017c57806394465b2114610184578063b3a7834d14610197576100ea565b80632e1a7d4d116100c85780632e1a7d4d1461014257806338adb6f01461015757806351ed6a301461015f578063567e98f914610174576100ea565b806301ffc9a7146100ef57806306fdde031461011857806317d70f7c1461012d575b600080fd5b6101026100fd366004610fcc565b610205565b60405161010f91906110f3565b60405180910390f35b61012061020d565b60405161010f9190611113565b61013561029b565b60405161010f9190611226565b610155610150366004610ff4565b6102bf565b005b6101356107d6565b6101676107dc565b60405161010f9190611024565b610135610800565b610167610806565b610135610192366004610e65565b61082a565b6101aa6101a5366004610e65565b610849565b60405161010f919061120d565b6101556101c5366004610ff4565b610889565b6101dd6101d8366004610e7f565b610d2d565b60405161010f91906110fe565b610167610d41565b6101dd610200366004610f36565b610d65565b60005b919050565b6002805461021a9061129d565b80601f01602080910402602001604051908101604052809291908181526020018280546102469061129d565b80156102935780601f1061026857610100808354040283529160200191610293565b820191906000526020600020905b81548152906001019060200180831161027657829003601f168201915b505050505081565b7f000000000000000000000000000000000000000000000000000000000000000081565b600260005414156102eb5760405162461bcd60e51b81526004016102e2906111d6565b60405180910390fd5b6002600055806102fa576107ce565b3360009081526001602081905260409091200154610317576107ce565b60405163579dea7960e11b81526001600160a01b037f0000000000000000000000000000000000000000000000000000000000000000169063af3bd4f290610363903390600401611166565b600060405180830381600087803b15801561037d57600080fd5b505af1158015610391573d6000803e3d6000fd5b5050505060006105067f00000000000000000000000000000000000000000000000000000000000000006001600160a01b031663a2a00ed630336040518363ffffffff1660e01b81526004016103e8929190611038565b60206040518083038186803b15801561040057600080fd5b505afa158015610414573d6000803e3d6000fd5b505050506040513d601f19601f82011682018060405250810190610438919061100c565b61050064e8d4a510006104fa7f00000000000000000000000000000000000000000000000000000000000000006001600160a01b031663a1a89dbc306040518263ffffffff1660e01b81526004016104909190611024565b60206040518083038186803b1580156104a857600080fd5b505afa1580156104bc573d6000803e3d6000fd5b505050506040513d601f19601f820116820180604052508101906104e0919061100c565b336000908152600160208190526040909120015490610d77565b90610d8a565b90610d96565b9050801561058f57604051631df36e4160e31b81526001600160a01b037f0000000000000000000000000000000000000000000000000000000000000000169063ef9b72089061055c90339085906004016110da565b600060405180830381600087803b15801561057657600080fd5b505af115801561058a573d6000803e3d6000fd5b505050505b3360009081526001602081905260408220015483106105c2575033600090815260016020819052604090912001546105c5565b50815b604051637921219560e11b81526001600160a01b037f0000000000000000000000000000000000000000000000000000000000000000169063f242432a9061063790309033907f0000000000000000000000000000000000000000000000000000000000000000908790600401611052565b600060405180830381600087803b15801561065157600080fd5b505af1158015610665573d6000803e3d6000fd5b505033600090815260016020819052604090912001546106889250905082610d96565b33600090815260016020819052604090912001556003546106a99082610d96565b60035560405163286a276f60e21b81526001600160a01b037f0000000000000000000000000000000000000000000000000000000000000000169063bf16c3c29033906107119064e8d4a51000906104fa90869063a1a89dbc90610490903090600401611024565b6040518363ffffffff1660e01b815260040161072e9291906110da565b600060405180830381600087803b15801561074857600080fd5b505af115801561075c573d6000803e3d6000fd5b50505050336001600160a01b03167f00000000000000000000000000000000000000000000000000000000000000006001600160a01b03167fd1c19fbcd4551a5edfb66d43d2e337c04837afda3482b42bdf569a8fccdae5fb836040516107c39190611226565b60405180910390a350505b506001600055565b60035490565b7f000000000000000000000000000000000000000000000000000000000000000081565b60035481565b7f000000000000000000000000000000000000000000000000000000000000000090565b6001600160a01b03166000908152600160208190526040909120015490565b610851610dae565b506001600160a01b03166000908152600160208181526040928390208351808501909452805460ff1615158452909101549082015290565b600260005414156108ac5760405162461bcd60e51b81526004016102e2906111d6565b6002600055604051634c7b4f4d60e11b81526001600160a01b037f000000000000000000000000000000000000000000000000000000000000000016906398f69e9a906108fd903090600401611024565b60206040518083038186803b15801561091557600080fd5b505afa158015610929573d6000803e3d6000fd5b505050506040513d601f19601f8201168201806040525081019061094d9190610fac565b6109695760405162461bcd60e51b81526004016102e290611195565b80610973576107ce565b3360009081526001602052604090205460ff166109a8573360009081526001602081905260408220805460ff19168217815501555b60405163579dea7960e11b81526001600160a01b037f0000000000000000000000000000000000000000000000000000000000000000169063af3bd4f2906109f4903390600401611166565b600060405180830381600087803b158015610a0e57600080fd5b505af1158015610a22573d6000803e3d6000fd5b50503360009081526001602081905260409091200154159150610b1f9050576000610a947f00000000000000000000000000000000000000000000000000000000000000006001600160a01b031663a2a00ed630336040518363ffffffff1660e01b81526004016103e8929190611038565b90508015610b1d57604051631df36e4160e31b81526001600160a01b037f0000000000000000000000000000000000000000000000000000000000000000169063ef9b720890610aea90339085906004016110da565b600060405180830381600087803b158015610b0457600080fd5b505af1158015610b18573d6000803e3d6000fd5b505050505b505b604051637921219560e11b81526001600160a01b037f0000000000000000000000000000000000000000000000000000000000000000169063f242432a90610b9190339030907f0000000000000000000000000000000000000000000000000000000000000000908790600401611097565b600060405180830381600087803b158015610bab57600080fd5b505af1158015610bbf573d6000803e3d6000fd5b50503360009081526001602081905260409091200154610be29250905082610da2565b3360009081526001602081905260409091200155600354610c039082610da2565b60035560405163286a276f60e21b81526001600160a01b037f0000000000000000000000000000000000000000000000000000000000000000169063bf16c3c2903390610c6b9064e8d4a51000906104fa90869063a1a89dbc90610490903090600401611024565b6040518363ffffffff1660e01b8152600401610c889291906110da565b600060405180830381600087803b158015610ca257600080fd5b505af1158015610cb6573d6000803e3d6000fd5b50505050336001600160a01b03167f00000000000000000000000000000000000000000000000000000000000000006001600160a01b03167f8752a472e571a816aea92eec8dae9baf628e840f4929fbcc2d155e6233ff68a783604051610d1d9190611226565b60405180910390a3506001600055565b63bc197c8160e01b98975050505050505050565b7f000000000000000000000000000000000000000000000000000000000000000090565b63f23a6e6160e01b9695505050505050565b6000610d838284611267565b9392505050565b6000610d838284611247565b6000610d838284611286565b6000610d83828461122f565b604080518082019091526000808252602082015290565b80356001600160a01b038116811461020857600080fd5b60008083601f840112610ded578182fd5b50813567ffffffffffffffff811115610e04578182fd5b6020830191508360208083028501011115610e1e57600080fd5b9250929050565b60008083601f840112610e36578182fd5b50813567ffffffffffffffff811115610e4d578182fd5b602083019150836020828501011115610e1e57600080fd5b600060208284031215610e76578081fd5b610d8382610dc5565b60008060008060008060008060a0898b031215610e9a578384fd5b610ea389610dc5565b9750610eb160208a01610dc5565b9650604089013567ffffffffffffffff80821115610ecd578586fd5b610ed98c838d01610ddc565b909850965060608b0135915080821115610ef1578586fd5b610efd8c838d01610ddc565b909650945060808b0135915080821115610f15578384fd5b50610f228b828c01610e25565b999c989b5096995094979396929594505050565b60008060008060008060a08789031215610f4e578182fd5b610f5787610dc5565b9550610f6560208801610dc5565b94506040870135935060608701359250608087013567ffffffffffffffff811115610f8e578283fd5b610f9a89828a01610e25565b979a9699509497509295939492505050565b600060208284031215610fbd578081fd5b81518015158114610d83578182fd5b600060208284031215610fdd578081fd5b81356001600160e01b031981168114610d83578182fd5b600060208284031215611005578081fd5b5035919050565b60006020828403121561101d578081fd5b5051919050565b6001600160a01b0391909116815260200190565b6001600160a01b0392831681529116602082015260400190565b6001600160a01b0394851681529290931660208301526040820152606081019190915260a060808201819052600490820152630307830360e41b60c082015260e00190565b6001600160a01b0394851681529290931660208301526040820152606081019190915260a06080820181905260029082015261060f60f31b60c082015260e00190565b6001600160a01b03929092168252602082015260400190565b901515815260200190565b6001600160e01b031991909116815260200190565b6000602080835283518082850152825b8181101561113f57858101830151858201604001528201611123565b818111156111505783604083870101525b50601f01601f1916929092016040019392505050565b6040808252600490820152632aa9a2a960e11b60608201526001600160a01b0391909116602082015260800190565b60208082526021908201527f43616e206e6f74206465706f73697420746f206120636c6f73656420706f6f6c6040820152601760f91b606082015260800190565b6020808252601f908201527f5265656e7472616e637947756172643a207265656e7472616e742063616c6c00604082015260600190565b8151151581526020918201519181019190915260400190565b90815260200190565b60008219821115611242576112426112d8565b500190565b60008261126257634e487b7160e01b81526012600452602481fd5b500490565b6000816000190483118215151615611281576112816112d8565b500290565b600082821015611298576112986112d8565b500390565b6002810460018216806112b157607f821691505b602082108114156112d257634e487b7160e01b600052602260045260246000fd5b50919050565b634e487b7160e01b600052601160045260246000fdfea2646970667358221220214d5770e8543e30f7bf44b10d90931a7a77c6e88cf6eebda20e886782dfb8c364736f6c63430008000033",
  "immutableReferences": {
    "8858": [
      {
        "length": 32,
        "start": 2056
      }
    ],
    "8867": [
      {
        "length": 32,
        "start": 1500
      },
      {
        "length": 32,
        "start": 2014
      },
      {
        "length": 32,
        "start": 2870
      }
    ],
    "8869": [
      {
        "length": 32,
        "start": 669
      },
      {
        "length": 32,
        "start": 1549
      },
      {
        "length": 32,
        "start": 2919
      }
    ],
    "8871": [
      {
        "length": 32,
        "start": 814
      },
      {
        "length": 32,
        "start": 924
      },
      {
        "length": 32,
        "start": 1094
      },
      {
        "length": 32,
        "start": 1317
      },
      {
        "length": 32,
        "start": 1731
      },
      {
        "length": 32,
        "start": 1900
      },
      {
        "length": 32,
        "start": 2248
      },
      {
        "length": 32,
        "start": 2495
      },
      {
        "length": 32,
        "start": 2632
      },
      {
        "length": 32,
        "start": 2739
      },
      {
        "length": 32,
        "start": 3101
      },
      {
        "length": 32,
        "start": 3270
      },
      {
        "length": 32,
        "start": 3395
      }
    ]
  },
  "source": "// SPDX-License-Identifier: MIT\n\npragma solidity 0.8.0;\npragma experimental ABIEncoderV2;\n\nimport \"@openzeppelin/contracts/utils/math/SafeMath.sol\";\nimport \"@openzeppelin/contracts/security/ReentrancyGuard.sol\";\nimport \"@openzeppelin/contracts/token/ERC1155/IERC1155.sol\";\nimport \"@openzeppelin/contracts/token/ERC1155/IERC1155Receiver.sol\";\nimport \"../../interfaces/ICommunity.sol\";\nimport \"../../interfaces/IPool.sol\";\n\n/**\n * @dev Template contract of Nutbox staking pool.\n *\n * Every pool saves a user staking ledger of a specific staking asset.\n * The only place that user can deposit and withdraw their staked asset.\n * Also only user themself than withdraw their staked asset\n * One pool surport only one token id of an ERC1155 token\n */\ncontract ERC1155Staking is IPool, ReentrancyGuard, IERC1155Receiver {\n    using SafeMath for uint256;\n\n    struct StakingInfo {\n        // First time when user staking, we need set options like userDebt to zero\n        bool hasDeposited;\n        // User staked amount\n        uint256 amount;\n    }\n    address immutable factory;\n\n    // stakingInfo used to save every user's staking information,\n    // including how many they deposited and its external chain account\n    // ( we support crosschain asset staking). With every staking event\n    // happened including deposit and withdraw asset this field should be updated.\n    mapping(address => StakingInfo) stakingInfo;\n\n    string public name;\n\n    // stakeToken actually is a asset contract entity, it represents the asset user stake of this pool.\n    // Bascially, it should be a normal ERC1155\n    address immutable public stakeToken;\n    // one pool for a single token id of ERC1155 token\n    uint256 immutable public tokenId;\n    // community that pool belongs to\n    address immutable community;\n\n    // Total staked amount\n    uint256 public totalStakedAmount;\n\n    event Deposited(\n        address indexed community,\n        address indexed who,\n        uint256 amount\n    );\n    event Withdrawn(\n        address indexed community,\n        address indexed who,\n        uint256 amount\n    );\n\n    constructor(address _community, string memory _name, address _stakeToken, uint256 _tokenId) {\n        factory = msg.sender;\n        community = _community;\n        name = _name;\n        stakeToken = _stakeToken;\n        tokenId = _tokenId;\n    }\n\n    function deposit(\n        uint256 amount\n    ) external nonReentrant {\n        require(ICommunity(community).poolActived(address(this)), 'Can not deposit to a closed pool.');\n        if (amount == 0) return;\n\n        // Add to staking list if account hasn't deposited before\n        if (!stakingInfo[msg.sender].hasDeposited) {\n            stakingInfo[msg.sender].hasDeposited = true;\n            stakingInfo[msg.sender].amount = 0;\n        }\n\n        // trigger community update all pool staking info\n        ICommunity(community).updatePools(\"USER\", msg.sender);\n\n        if (stakingInfo[msg.sender].amount > 0) {\n            uint256 pending = stakingInfo[msg.sender]\n                .amount\n                .mul(ICommunity(community).getShareAcc(address(this)))\n                .div(1e12)\n                .sub(ICommunity(community).getUserDebt(address(this), msg.sender));\n            if (pending > 0) {\n                ICommunity(community).appendUserReward(msg.sender, pending);\n            }\n        }\n\n        IERC1155(stakeToken).safeTransferFrom(msg.sender, address(this), tokenId, amount, \"0x\");\n\n        stakingInfo[msg.sender].amount = stakingInfo[msg.sender]\n            .amount\n            .add(amount);\n        totalStakedAmount = totalStakedAmount\n            .add(amount);\n\n        ICommunity(community).setUserDebt(\n            msg.sender,\n            stakingInfo[msg.sender]\n            .amount\n            .mul(ICommunity(community).getShareAcc(address(this)))\n            .div(1e12));\n\n        emit Deposited(community, msg.sender, amount);\n    }\n\n    function withdraw(\n        uint256 amount\n    ) external nonReentrant {\n        if (amount == 0) return;\n        if (stakingInfo[msg.sender].amount == 0) return;\n\n        // trigger community update all pool staking info\n        ICommunity(community).updatePools(\"USER\", msg.sender);\n\n        uint256 pending = stakingInfo[msg.sender]\n            .amount\n            .mul(ICommunity(community).getShareAcc(address(this)))\n            .div(1e12)\n            .sub(ICommunity(community).getUserDebt(address(this), msg.sender));\n        if (pending > 0) {\n            ICommunity(community).appendUserReward(msg.sender, pending);\n        }\n\n        uint256 withdrawAmount;\n        if (amount >= stakingInfo[msg.sender].amount)\n            withdrawAmount = stakingInfo[msg.sender].amount;\n        else withdrawAmount = amount;\n\n        IERC1155(stakeToken).safeTransferFrom(address(this), address(msg.sender), tokenId, withdrawAmount, \"0x00\");\n\n        stakingInfo[msg.sender].amount = stakingInfo[msg.sender]\n            .amount\n            .sub(withdrawAmount);\n        totalStakedAmount = totalStakedAmount\n            .sub(withdrawAmount);\n\n        ICommunity(community).setUserDebt(\n            msg.sender,\n            stakingInfo[msg.sender]\n            .amount\n            .mul(ICommunity(community).getShareAcc(address(this)))\n            .div(1e12));\n\n        emit Withdrawn(community, msg.sender, withdrawAmount);\n    }\n\n    function getFactory() external view override returns (address) {\n        return factory;\n    }\n\n    function getCommunity() external view override returns (address) {\n        return community;\n    }\n\n    function getUserStakedAmount(address user)\n        external\n        view\n        override returns (uint256)\n    {\n        return stakingInfo[user].amount;\n    }\n\n    function getTotalStakedAmount()\n        external\n        view\n        override returns (uint256)\n    {\n        return totalStakedAmount;\n    }\n\n    function getUserDepositInfo(address user)\n        external\n        view\n        returns (StakingInfo memory)\n    {\n        return stakingInfo[user];\n    }\n\n     function onERC1155Received(\n        address operator,\n        address from,\n        uint256 id,\n        uint256 value,\n        bytes calldata data\n    ) external override returns (bytes4) {\n        return 0xf23a6e61;\n    }\n\n    function onERC1155BatchReceived(\n        address operator,\n        address from,\n        uint256[] calldata ids,\n        uint256[] calldata values,\n        bytes calldata data\n    ) external override returns (bytes4) {\n        return 0xbc197c81;\n    }\n\n    function supportsInterface(bytes4 interfaceId) external override view returns (bool) {\n        return false;\n    }\n}\n",
  "sourcePath": "/Users/wangxi/work/Walnut-V2/nutbox-contract/contracts/dapps/erc1155-staking/ERC1155Staking.sol",
  "compiler": {
    "name": "solc",
    "version": "0.8.0+commit.c7dfd78e.Emscripten.clang"
  },
  "schemaVersion": "3.3.4",
  "updatedAt": "2024-06-20T10:15:12.425Z",
  "devdoc": {
    "details": "Template contract of Nutbox staking pool. Every pool saves a user staking ledger of a specific staking asset. The only place that user can deposit and withdraw their staked asset. Also only user themself than withdraw their staked asset One pool surport only one token id of an ERC1155 token",
    "kind": "dev",
    "methods": {
      "onERC1155BatchReceived(address,address,uint256[],uint256[],bytes)": {
        "details": "Handles the receipt of a multiple ERC1155 token types. This function is called at the end of a `safeBatchTransferFrom` after the balances have been updated. To accept the transfer(s), this must return `bytes4(keccak256(\"onERC1155BatchReceived(address,address,uint256[],uint256[],bytes)\"))` (i.e. 0xbc197c81, or its own function selector).",
        "params": {
          "data": "Additional data with no specified format",
          "from": "The address which previously owned the token",
          "ids": "An array containing ids of each token being transferred (order and length must match values array)",
          "operator": "The address which initiated the batch transfer (i.e. msg.sender)",
          "values": "An array containing amounts of each token being transferred (order and length must match ids array)"
        },
        "returns": {
          "_0": "`bytes4(keccak256(\"onERC1155BatchReceived(address,address,uint256[],uint256[],bytes)\"))` if transfer is allowed"
        }
      },
      "onERC1155Received(address,address,uint256,uint256,bytes)": {
        "details": "Handles the receipt of a single ERC1155 token type. This function is called at the end of a `safeTransferFrom` after the balance has been updated. To accept the transfer, this must return `bytes4(keccak256(\"onERC1155Received(address,address,uint256,uint256,bytes)\"))` (i.e. 0xf23a6e61, or its own function selector).",
        "params": {
          "data": "Additional data with no specified format",
          "from": "The address which previously owned the token",
          "id": "The ID of the token being transferred",
          "operator": "The address which initiated the transfer (i.e. msg.sender)",
          "value": "The amount of tokens being transferred"
        },
        "returns": {
          "_0": "`bytes4(keccak256(\"onERC1155Received(address,address,uint256,uint256,bytes)\"))` if transfer is allowed"
        }
      },
      "supportsInterface(bytes4)": {
        "details": "Returns true if this contract implements the interface defined by `interfaceId`. See the corresponding https://eips.ethereum.org/EIPS/eip-165#how-interfaces-are-identified[EIP section] to learn more about how these ids are created. This function call must use less than 30 000 gas."
      }
    },
    "version": 1
  },
  "userdoc": {
    "kind": "user",
    "methods": {},
    "version": 1
  }
}