{
  "contractName": "ERC20Staking",
  "abi": [
    {
      "inputs": [
        {
          "internalType": "address",
          "name": "_community",
          "type": "address"
        },
        {
          "internalType": "string",
          "name": "_name",
          "type": "string"
        },
        {
          "internalType": "address",
          "name": "_stakeToken",
          "type": "address"
        }
      ],
      "stateMutability": "nonpayable",
      "type": "constructor"
    },
    {
      "anonymous": false,
      "inputs": [
        {
          "indexed": true,
          "internalType": "address",
          "name": "community",
          "type": "address"
        },
        {
          "indexed": true,
          "internalType": "address",
          "name": "who",
          "type": "address"
        },
        {
          "indexed": false,
          "internalType": "uint256",
          "name": "amount",
          "type": "uint256"
        }
      ],
      "name": "Deposited",
      "type": "event"
    },
    {
      "anonymous": false,
      "inputs": [
        {
          "indexed": true,
          "internalType": "address",
          "name": "community",
          "type": "address"
        },
        {
          "indexed": true,
          "internalType": "address",
          "name": "who",
          "type": "address"
        },
        {
          "indexed": false,
          "internalType": "uint256",
          "name": "amount",
          "type": "uint256"
        }
      ],
      "name": "Withdrawn",
      "type": "event"
    },
    {
      "inputs": [],
      "name": "name",
      "outputs": [
        {
          "internalType": "string",
          "name": "",
          "type": "string"
        }
      ],
      "stateMutability": "view",
      "type": "function"
    },
    {
      "inputs": [],
      "name": "stakeToken",
      "outputs": [
        {
          "internalType": "address",
          "name": "",
          "type": "address"
        }
      ],
      "stateMutability": "view",
      "type": "function"
    },
    {
      "inputs": [],
      "name": "totalStakedAmount",
      "outputs": [
        {
          "internalType": "uint256",
          "name": "",
          "type": "uint256"
        }
      ],
      "stateMutability": "view",
      "type": "function"
    },
    {
      "inputs": [
        {
          "internalType": "uint256",
          "name": "amount",
          "type": "uint256"
        }
      ],
      "name": "deposit",
      "outputs": [],
      "stateMutability": "nonpayable",
      "type": "function"
    },
    {
      "inputs": [
        {
          "internalType": "uint256",
          "name": "amount",
          "type": "uint256"
        }
      ],
      "name": "withdraw",
      "outputs": [],
      "stateMutability": "nonpayable",
      "type": "function"
    },
    {
      "inputs": [],
      "name": "getFactory",
      "outputs": [
        {
          "internalType": "address",
          "name": "",
          "type": "address"
        }
      ],
      "stateMutability": "view",
      "type": "function"
    },
    {
      "inputs": [],
      "name": "getCommunity",
      "outputs": [
        {
          "internalType": "address",
          "name": "",
          "type": "address"
        }
      ],
      "stateMutability": "view",
      "type": "function"
    },
    {
      "inputs": [
        {
          "internalType": "address",
          "name": "user",
          "type": "address"
        }
      ],
      "name": "getUserStakedAmount",
      "outputs": [
        {
          "internalType": "uint256",
          "name": "",
          "type": "uint256"
        }
      ],
      "stateMutability": "view",
      "type": "function"
    },
    {
      "inputs": [],
      "name": "getTotalStakedAmount",
      "outputs": [
        {
          "internalType": "uint256",
          "name": "",
          "type": "uint256"
        }
      ],
      "stateMutability": "view",
      "type": "function"
    },
    {
      "inputs": [
        {
          "internalType": "address",
          "name": "user",
          "type": "address"
        }
      ],
      "name": "getUserDepositInfo",
      "outputs": [
        {
          "components": [
            {
              "internalType": "bool",
              "name": "hasDeposited",
              "type": "bool"
            },
            {
              "internalType": "uint256",
              "name": "amount",
              "type": "uint256"
            }
          ],
          "internalType": "struct ERC20Staking.StakingInfo",
          "name": "",
          "type": "tuple"
        }
      ],
      "stateMutability": "view",
      "type": "function"
    }
  ],
  "bytecode": "0x60e06040523480156200001157600080fd5b506040516200140938038062001409833981016040819052620000349162000144565b600160005533606090811b60805283901b6001600160601b03191660c05281516200006790600290602085019062000081565b5060601b6001600160601b03191660a05250620002c19050565b8280546200008f906200023c565b90600052602060002090601f016020900481019282620000b35760008555620000fe565b82601f10620000ce57805160ff1916838001178555620000fe565b82800160010185558215620000fe579182015b82811115620000fe578251825591602001919060010190620000e1565b506200010c92915062000110565b5090565b5b808211156200010c576000815560010162000111565b80516001600160a01b03811681146200013f57600080fd5b919050565b60008060006060848603121562000159578283fd5b620001648462000127565b602085810151919450906001600160401b038082111562000183578485fd5b818701915087601f83011262000197578485fd5b815181811115620001ac57620001ac62000292565b604051601f8201601f1916810185018381118282101715620001d257620001d262000292565b60405281815283820185018a1015620001e9578687fd5b8692505b818310156200020c5783830185015181840186015291840191620001ed565b818311156200021d57868583830101525b8096505050505050620002336040850162000127565b90509250925092565b6002810460018216806200025157607f821691505b602082108114156200028c577f4e487b7100000000000000000000000000000000000000000000000000000000600052602260045260246000fd5b50919050565b7f4e487b7100000000000000000000000000000000000000000000000000000000600052604160045260246000fd5b60805160601c60a05160601c60c05160601c6110ad6200035c6000396000818161025b015281816102c90152818161037301528181610452015281816105760152818161061f0152818161077b01528181610872015281816108fb0152818161096601528181610a5701528181610b000152610b690152600081816104f70152818161069101526109d7015260006106bb01526110ad6000f3fe608060405234801561001057600080fd5b506004361061009e5760003560e01c806388cc58e41161006657806388cc58e41461010857806394465b2114610110578063b3a7834d14610123578063b6b55f2514610143578063c51db6b2146101565761009e565b806306fdde03146100a35780632e1a7d4d146100c157806338adb6f0146100d657806351ed6a30146100eb578063567e98f914610100575b600080fd5b6100ab61015e565b6040516100b89190610e2f565b60405180910390f35b6100d46100cf366004610d78565b6101ec565b005b6100de610689565b6040516100b89190610f83565b6100f361068f565b6040516100b89190610dc4565b6100de6106b3565b6100f36106b9565b6100de61011e366004610d31565b6106dd565b610136610131366004610d31565b6106fc565b6040516100b89190610f6a565b6100d4610151366004610d78565b61073c565b6100f3610b67565b6002805461016b90611026565b80601f016020809104026020016040519081016040528092919081815260200182805461019790611026565b80156101e45780601f106101b9576101008083540402835291602001916101e4565b820191906000526020600020905b8154815290600101906020018083116101c757829003601f168201915b505050505081565b600260005414156102185760405162461bcd60e51b815260040161020f90610f33565b60405180910390fd5b60026000558061022757610681565b336000908152600160208190526040909120015461024457610681565b60405163579dea7960e11b81526001600160a01b037f0000000000000000000000000000000000000000000000000000000000000000169063af3bd4f290610290903390600401610e97565b600060405180830381600087803b1580156102aa57600080fd5b505af11580156102be573d6000803e3d6000fd5b5050505060006104337f00000000000000000000000000000000000000000000000000000000000000006001600160a01b031663a2a00ed630336040518363ffffffff1660e01b8152600401610315929190610dd8565b60206040518083038186803b15801561032d57600080fd5b505afa158015610341573d6000803e3d6000fd5b505050506040513d601f19601f820116820180604052508101906103659190610d90565b61042d64e8d4a510006104277f00000000000000000000000000000000000000000000000000000000000000006001600160a01b031663a1a89dbc306040518263ffffffff1660e01b81526004016103bd9190610dc4565b60206040518083038186803b1580156103d557600080fd5b505afa1580156103e9573d6000803e3d6000fd5b505050506040513d601f19601f8201168201806040525081019061040d9190610d90565b336000908152600160208190526040909120015490610b8b565b90610b9e565b90610baa565b905080156104bc57604051631df36e4160e31b81526001600160a01b037f0000000000000000000000000000000000000000000000000000000000000000169063ef9b7208906104899033908590600401610e16565b600060405180830381600087803b1580156104a357600080fd5b505af11580156104b7573d6000803e3d6000fd5b505050505b3360009081526001602081905260408220015483106104ef575033600090815260016020819052604090912001546104f2565b50815b61051d7f00000000000000000000000000000000000000000000000000000000000000003383610bb6565b336000908152600160208190526040909120015461053b9082610baa565b336000908152600160208190526040909120015560035461055c9082610baa565b60035560405163286a276f60e21b81526001600160a01b037f0000000000000000000000000000000000000000000000000000000000000000169063bf16c3c29033906105c49064e8d4a510009061042790869063a1a89dbc906103bd903090600401610dc4565b6040518363ffffffff1660e01b81526004016105e1929190610e16565b600060405180830381600087803b1580156105fb57600080fd5b505af115801561060f573d6000803e3d6000fd5b50505050336001600160a01b03167f00000000000000000000000000000000000000000000000000000000000000006001600160a01b03167fd1c19fbcd4551a5edfb66d43d2e337c04837afda3482b42bdf569a8fccdae5fb836040516106769190610f83565b60405180910390a350505b506001600055565b60035490565b7f000000000000000000000000000000000000000000000000000000000000000081565b60035481565b7f000000000000000000000000000000000000000000000000000000000000000090565b6001600160a01b03166000908152600160208190526040909120015490565b610704610d1a565b506001600160a01b03166000908152600160208181526040928390208351808501909452805460ff1615158452909101549082015290565b6002600054141561075f5760405162461bcd60e51b815260040161020f90610f33565b6002600055604051634c7b4f4d60e11b81526001600160a01b037f000000000000000000000000000000000000000000000000000000000000000016906398f69e9a906107b0903090600401610dc4565b60206040518083038186803b1580156107c857600080fd5b505afa1580156107dc573d6000803e3d6000fd5b505050506040513d601f19601f820116820180604052508101906108009190610d58565b61081c5760405162461bcd60e51b815260040161020f90610ef2565b8061082657610681565b3360009081526001602052604090205460ff1661085b573360009081526001602081905260408220805460ff19168217815501555b60405163579dea7960e11b81526001600160a01b037f0000000000000000000000000000000000000000000000000000000000000000169063af3bd4f2906108a7903390600401610e97565b600060405180830381600087803b1580156108c157600080fd5b505af11580156108d5573d6000803e3d6000fd5b505033600090815260016020819052604090912001541591506109d290505760006109477f00000000000000000000000000000000000000000000000000000000000000006001600160a01b031663a2a00ed630336040518363ffffffff1660e01b8152600401610315929190610dd8565b905080156109d057604051631df36e4160e31b81526001600160a01b037f0000000000000000000000000000000000000000000000000000000000000000169063ef9b72089061099d9033908590600401610e16565b600060405180830381600087803b1580156109b757600080fd5b505af11580156109cb573d6000803e3d6000fd5b505050505b505b6109fe7f0000000000000000000000000000000000000000000000000000000000000000333084610bc8565b3360009081526001602081905260409091200154610a1c9082610bdc565b3360009081526001602081905260409091200155600354610a3d9082610bdc565b60035560405163286a276f60e21b81526001600160a01b037f0000000000000000000000000000000000000000000000000000000000000000169063bf16c3c2903390610aa59064e8d4a510009061042790869063a1a89dbc906103bd903090600401610dc4565b6040518363ffffffff1660e01b8152600401610ac2929190610e16565b600060405180830381600087803b158015610adc57600080fd5b505af1158015610af0573d6000803e3d6000fd5b50505050336001600160a01b03167f00000000000000000000000000000000000000000000000000000000000000006001600160a01b03167f8752a472e571a816aea92eec8dae9baf628e840f4929fbcc2d155e6233ff68a783604051610b579190610f83565b60405180910390a3506001600055565b7f000000000000000000000000000000000000000000000000000000000000000090565b6000610b978284610fc4565b9392505050565b6000610b978284610fa4565b6000610b978284610fe3565b82610bc2818484610be8565b50505050565b83610bd581858585610c43565b5050505050565b6000610b978284610f8c565b610c3e8363a9059cbb60e01b8484604051602401610c07929190610e16565b60408051601f198184030181529190526020810180516001600160e01b03166001600160e01b031990931692909217909152610c64565b505050565b610bc2846323b872dd60e01b858585604051602401610c0793929190610df2565b600080836001600160a01b031683604051610c7f9190610da8565b6000604051808303816000865af19150503d8060008114610cbc576040519150601f19603f3d011682016040523d82523d6000602084013e610cc1565b606091505b509150915081610ce35760405162461bcd60e51b815260040161020f90610ec6565b805115610bc25780806020019051810190610cfe9190610d58565b610bc25760405162461bcd60e51b815260040161020f90610e62565b604080518082019091526000808252602082015290565b600060208284031215610d42578081fd5b81356001600160a01b0381168114610b97578182fd5b600060208284031215610d69578081fd5b81518015158114610b97578182fd5b600060208284031215610d89578081fd5b5035919050565b600060208284031215610da1578081fd5b5051919050565b60008251610dba818460208701610ffa565b9190910192915050565b6001600160a01b0391909116815260200190565b6001600160a01b0392831681529116602082015260400190565b6001600160a01b039384168152919092166020820152604081019190915260600190565b6001600160a01b03929092168252602082015260400190565b6000602082528251806020840152610e4e816040850160208701610ffa565b601f01601f19169190910160400192915050565b6020808252818101527f45524332303a206f7065726174696f6e20646964206e6f742073756363656564604082015260600190565b6040808252600490820152632aa9a2a960e11b60608201526001600160a01b0391909116602082015260800190565b602080825260129082015271115490cc8c0e8818d85b1b0819985a5b195960721b604082015260600190565b60208082526021908201527f43616e206e6f74206465706f73697420746f206120636c6f73656420706f6f6c6040820152601760f91b606082015260800190565b6020808252601f908201527f5265656e7472616e637947756172643a207265656e7472616e742063616c6c00604082015260600190565b8151151581526020918201519181019190915260400190565b90815260200190565b60008219821115610f9f57610f9f611061565b500190565b600082610fbf57634e487b7160e01b81526012600452602481fd5b500490565b6000816000190483118215151615610fde57610fde611061565b500290565b600082821015610ff557610ff5611061565b500390565b60005b83811015611015578181015183820152602001610ffd565b83811115610bc25750506000910152565b60028104600182168061103a57607f821691505b6020821081141561105b57634e487b7160e01b600052602260045260246000fd5b50919050565b634e487b7160e01b600052601160045260246000fdfea264697066735822122005c00aa78e9bc3f326397052bf5d31760b6603d2703851305e3849dfaa90745f64736f6c63430008000033",
  "immutableReferences": {
    "9046": [
      {
        "length": 32,
        "start": 1723
      }
    ],
    "9055": [
      {
        "length": 32,
        "start": 1271
      },
      {
        "length": 32,
        "start": 1681
      },
      {
        "length": 32,
        "start": 2519
      }
    ],
    "9057": [
      {
        "length": 32,
        "start": 603
      },
      {
        "length": 32,
        "start": 713
      },
      {
        "length": 32,
        "start": 883
      },
      {
        "length": 32,
        "start": 1106
      },
      {
        "length": 32,
        "start": 1398
      },
      {
        "length": 32,
        "start": 1567
      },
      {
        "length": 32,
        "start": 1915
      },
      {
        "length": 32,
        "start": 2162
      },
      {
        "length": 32,
        "start": 2299
      },
      {
        "length": 32,
        "start": 2406
      },
      {
        "length": 32,
        "start": 2647
      },
      {
        "length": 32,
        "start": 2816
      },
      {
        "length": 32,
        "start": 2921
      }
    ]
  },
  "source": "// SPDX-License-Identifier: MIT\n\npragma solidity 0.8.0;\npragma experimental ABIEncoderV2;\n\nimport \"@openzeppelin/contracts/utils/math/SafeMath.sol\";\nimport \"@openzeppelin/contracts/security/ReentrancyGuard.sol\";\nimport \"../../interfaces/ICommunity.sol\";\nimport \"../../interfaces/IPool.sol\";\nimport \"../../ERC20Helper.sol\";\n\n/**\n * @dev Template contract of Nutbox staking pool.\n *\n * Every pool saves a user staking ledger of a specific staking asset.\n * The only place that user can deposit and withdraw their staked asset.\n * Also only user themself than withdraw their staked asset\n */\ncontract ERC20Staking is IPool, ERC20Helper, ReentrancyGuard {\n    using SafeMath for uint256;\n\n    struct StakingInfo {\n        // First time when user staking, we need set options like userDebt to zero\n        bool hasDeposited;\n        // User staked amount\n        uint256 amount;\n    }\n    address immutable factory;\n\n    // stakingInfo used to save every user's staking information,\n    // including how many they deposited and its external chain account\n    // ( we support crosschain asset staking). With every staking event\n    // happened including deposit and withdraw asset this field should be updated.\n    mapping(address => StakingInfo) stakingInfo;\n\n    string public name;\n\n    // stakeToken actually is a asset contract entity, it represents the asset user stake of this pool.\n    // Bascially, it should be a normal ERC20 token or a lptoken of a specific token exchange pair\n    address immutable public stakeToken;\n    // community that pool belongs to\n    address immutable community;\n\n    // Total staked amount\n    uint256 public totalStakedAmount;\n\n    event Deposited(\n        address indexed community,\n        address indexed who,\n        uint256 amount\n    );\n    event Withdrawn(\n        address indexed community,\n        address indexed who,\n        uint256 amount\n    );\n\n    constructor(address _community, string memory _name, address _stakeToken) {\n        factory = msg.sender;\n        community = _community;\n        name = _name;\n        stakeToken = _stakeToken;\n    }\n\n    function deposit(\n        uint256 amount\n    ) external nonReentrant {\n        require(ICommunity(community).poolActived(address(this)), 'Can not deposit to a closed pool.');\n        if (amount == 0) return;\n\n        // Add to staking list if account hasn't deposited before\n        if (!stakingInfo[msg.sender].hasDeposited) {\n            stakingInfo[msg.sender].hasDeposited = true;\n            stakingInfo[msg.sender].amount = 0;\n        }\n\n        // trigger community update all pool staking info\n        ICommunity(community).updatePools(\"USER\", msg.sender);\n\n        if (stakingInfo[msg.sender].amount > 0) {\n            uint256 pending = stakingInfo[msg.sender]\n                .amount\n                .mul(ICommunity(community).getShareAcc(address(this)))\n                .div(1e12)\n                .sub(ICommunity(community).getUserDebt(address(this), msg.sender));\n            if (pending > 0) {\n                ICommunity(community).appendUserReward(msg.sender, pending);\n            }\n        }\n\n        lockERC20(stakeToken, msg.sender, address(this), amount);\n\n        stakingInfo[msg.sender].amount = stakingInfo[msg.sender]\n            .amount\n            .add(amount);\n        totalStakedAmount = totalStakedAmount\n            .add(amount);\n\n        ICommunity(community).setUserDebt(\n            msg.sender,\n            stakingInfo[msg.sender]\n            .amount\n            .mul(ICommunity(community).getShareAcc(address(this)))\n            .div(1e12));\n\n        emit Deposited(community, msg.sender, amount);\n    }\n\n    function withdraw(\n        uint256 amount\n    ) external nonReentrant {\n        if (amount == 0) return;\n        if (stakingInfo[msg.sender].amount == 0) return;\n\n        // trigger community update all pool staking info\n        ICommunity(community).updatePools(\"USER\", msg.sender);\n\n        uint256 pending = stakingInfo[msg.sender]\n            .amount\n            .mul(ICommunity(community).getShareAcc(address(this)))\n            .div(1e12)\n            .sub(ICommunity(community).getUserDebt(address(this), msg.sender));\n        if (pending > 0) {\n            ICommunity(community).appendUserReward(msg.sender, pending);\n        }\n\n        uint256 withdrawAmount;\n        if (amount >= stakingInfo[msg.sender].amount)\n            withdrawAmount = stakingInfo[msg.sender].amount;\n        else withdrawAmount = amount;\n\n        releaseERC20(stakeToken, address(msg.sender), withdrawAmount);\n\n        stakingInfo[msg.sender].amount = stakingInfo[msg.sender]\n            .amount\n            .sub(withdrawAmount);\n        totalStakedAmount = totalStakedAmount\n            .sub(withdrawAmount);\n\n        ICommunity(community).setUserDebt(\n            msg.sender,\n            stakingInfo[msg.sender]\n            .amount\n            .mul(ICommunity(community).getShareAcc(address(this)))\n            .div(1e12));\n\n        emit Withdrawn(community, msg.sender, withdrawAmount);\n    }\n\n    function getFactory() external view override returns (address) {\n        return factory;\n    }\n\n    function getCommunity() external view override returns (address) {\n        return community;\n    }\n\n    function getUserStakedAmount(address user)\n        external\n        view\n        override returns (uint256)\n    {\n        return stakingInfo[user].amount;\n    }\n\n    function getTotalStakedAmount()\n        external\n        view\n        override returns (uint256)\n    {\n        return totalStakedAmount;\n    }\n\n    function getUserDepositInfo(address user)\n        external\n        view\n        returns (StakingInfo memory)\n    {\n        return stakingInfo[user];\n    }\n}\n",
  "sourcePath": "/Users/wangxi/work/Walnut-V2/nutbox-contract/contracts/dapps/erc20-staking/ERC20Staking.sol",
  "compiler": {
    "name": "solc",
    "version": "0.8.0+commit.c7dfd78e.Emscripten.clang"
  },
  "schemaVersion": "3.3.4",
  "updatedAt": "2023-06-08T12:20:18.866Z",
  "devdoc": {
    "details": "Template contract of Nutbox staking pool. Every pool saves a user staking ledger of a specific staking asset. The only place that user can deposit and withdraw their staked asset. Also only user themself than withdraw their staked asset",
    "kind": "dev",
    "methods": {},
    "version": 1
  },
  "userdoc": {
    "kind": "user",
    "methods": {},
    "version": 1
  }
}