{
  "contractName": "ERC721PresetMinterPauserAutoId",
  "abi": [
    {
      "inputs": [
        {
          "internalType": "string",
          "name": "name",
          "type": "string"
        },
        {
          "internalType": "string",
          "name": "symbol",
          "type": "string"
        },
        {
          "internalType": "string",
          "name": "baseTokenURI",
          "type": "string"
        }
      ],
      "stateMutability": "nonpayable",
      "type": "constructor"
    },
    {
      "anonymous": false,
      "inputs": [
        {
          "indexed": true,
          "internalType": "address",
          "name": "owner",
          "type": "address"
        },
        {
          "indexed": true,
          "internalType": "address",
          "name": "approved",
          "type": "address"
        },
        {
          "indexed": true,
          "internalType": "uint256",
          "name": "tokenId",
          "type": "uint256"
        }
      ],
      "name": "Approval",
      "type": "event"
    },
    {
      "anonymous": false,
      "inputs": [
        {
          "indexed": true,
          "internalType": "address",
          "name": "owner",
          "type": "address"
        },
        {
          "indexed": true,
          "internalType": "address",
          "name": "operator",
          "type": "address"
        },
        {
          "indexed": false,
          "internalType": "bool",
          "name": "approved",
          "type": "bool"
        }
      ],
      "name": "ApprovalForAll",
      "type": "event"
    },
    {
      "anonymous": false,
      "inputs": [
        {
          "indexed": false,
          "internalType": "address",
          "name": "account",
          "type": "address"
        }
      ],
      "name": "Paused",
      "type": "event"
    },
    {
      "anonymous": false,
      "inputs": [
        {
          "indexed": true,
          "internalType": "bytes32",
          "name": "role",
          "type": "bytes32"
        },
        {
          "indexed": true,
          "internalType": "bytes32",
          "name": "previousAdminRole",
          "type": "bytes32"
        },
        {
          "indexed": true,
          "internalType": "bytes32",
          "name": "newAdminRole",
          "type": "bytes32"
        }
      ],
      "name": "RoleAdminChanged",
      "type": "event"
    },
    {
      "anonymous": false,
      "inputs": [
        {
          "indexed": true,
          "internalType": "bytes32",
          "name": "role",
          "type": "bytes32"
        },
        {
          "indexed": true,
          "internalType": "address",
          "name": "account",
          "type": "address"
        },
        {
          "indexed": true,
          "internalType": "address",
          "name": "sender",
          "type": "address"
        }
      ],
      "name": "RoleGranted",
      "type": "event"
    },
    {
      "anonymous": false,
      "inputs": [
        {
          "indexed": true,
          "internalType": "bytes32",
          "name": "role",
          "type": "bytes32"
        },
        {
          "indexed": true,
          "internalType": "address",
          "name": "account",
          "type": "address"
        },
        {
          "indexed": true,
          "internalType": "address",
          "name": "sender",
          "type": "address"
        }
      ],
      "name": "RoleRevoked",
      "type": "event"
    },
    {
      "anonymous": false,
      "inputs": [
        {
          "indexed": true,
          "internalType": "address",
          "name": "from",
          "type": "address"
        },
        {
          "indexed": true,
          "internalType": "address",
          "name": "to",
          "type": "address"
        },
        {
          "indexed": true,
          "internalType": "uint256",
          "name": "tokenId",
          "type": "uint256"
        }
      ],
      "name": "Transfer",
      "type": "event"
    },
    {
      "anonymous": false,
      "inputs": [
        {
          "indexed": false,
          "internalType": "address",
          "name": "account",
          "type": "address"
        }
      ],
      "name": "Unpaused",
      "type": "event"
    },
    {
      "inputs": [],
      "name": "DEFAULT_ADMIN_ROLE",
      "outputs": [
        {
          "internalType": "bytes32",
          "name": "",
          "type": "bytes32"
        }
      ],
      "stateMutability": "view",
      "type": "function",
      "constant": true
    },
    {
      "inputs": [],
      "name": "MINTER_ROLE",
      "outputs": [
        {
          "internalType": "bytes32",
          "name": "",
          "type": "bytes32"
        }
      ],
      "stateMutability": "view",
      "type": "function",
      "constant": true
    },
    {
      "inputs": [],
      "name": "PAUSER_ROLE",
      "outputs": [
        {
          "internalType": "bytes32",
          "name": "",
          "type": "bytes32"
        }
      ],
      "stateMutability": "view",
      "type": "function",
      "constant": true
    },
    {
      "inputs": [
        {
          "internalType": "address",
          "name": "to",
          "type": "address"
        },
        {
          "internalType": "uint256",
          "name": "tokenId",
          "type": "uint256"
        }
      ],
      "name": "approve",
      "outputs": [],
      "stateMutability": "nonpayable",
      "type": "function"
    },
    {
      "inputs": [
        {
          "internalType": "address",
          "name": "owner",
          "type": "address"
        }
      ],
      "name": "balanceOf",
      "outputs": [
        {
          "internalType": "uint256",
          "name": "",
          "type": "uint256"
        }
      ],
      "stateMutability": "view",
      "type": "function",
      "constant": true
    },
    {
      "inputs": [
        {
          "internalType": "uint256",
          "name": "tokenId",
          "type": "uint256"
        }
      ],
      "name": "burn",
      "outputs": [],
      "stateMutability": "nonpayable",
      "type": "function"
    },
    {
      "inputs": [
        {
          "internalType": "uint256",
          "name": "tokenId",
          "type": "uint256"
        }
      ],
      "name": "getApproved",
      "outputs": [
        {
          "internalType": "address",
          "name": "",
          "type": "address"
        }
      ],
      "stateMutability": "view",
      "type": "function",
      "constant": true
    },
    {
      "inputs": [
        {
          "internalType": "bytes32",
          "name": "role",
          "type": "bytes32"
        }
      ],
      "name": "getRoleAdmin",
      "outputs": [
        {
          "internalType": "bytes32",
          "name": "",
          "type": "bytes32"
        }
      ],
      "stateMutability": "view",
      "type": "function",
      "constant": true
    },
    {
      "inputs": [
        {
          "internalType": "bytes32",
          "name": "role",
          "type": "bytes32"
        },
        {
          "internalType": "uint256",
          "name": "index",
          "type": "uint256"
        }
      ],
      "name": "getRoleMember",
      "outputs": [
        {
          "internalType": "address",
          "name": "",
          "type": "address"
        }
      ],
      "stateMutability": "view",
      "type": "function",
      "constant": true
    },
    {
      "inputs": [
        {
          "internalType": "bytes32",
          "name": "role",
          "type": "bytes32"
        }
      ],
      "name": "getRoleMemberCount",
      "outputs": [
        {
          "internalType": "uint256",
          "name": "",
          "type": "uint256"
        }
      ],
      "stateMutability": "view",
      "type": "function",
      "constant": true
    },
    {
      "inputs": [
        {
          "internalType": "bytes32",
          "name": "role",
          "type": "bytes32"
        },
        {
          "internalType": "address",
          "name": "account",
          "type": "address"
        }
      ],
      "name": "grantRole",
      "outputs": [],
      "stateMutability": "nonpayable",
      "type": "function"
    },
    {
      "inputs": [
        {
          "internalType": "bytes32",
          "name": "role",
          "type": "bytes32"
        },
        {
          "internalType": "address",
          "name": "account",
          "type": "address"
        }
      ],
      "name": "hasRole",
      "outputs": [
        {
          "internalType": "bool",
          "name": "",
          "type": "bool"
        }
      ],
      "stateMutability": "view",
      "type": "function",
      "constant": true
    },
    {
      "inputs": [
        {
          "internalType": "address",
          "name": "owner",
          "type": "address"
        },
        {
          "internalType": "address",
          "name": "operator",
          "type": "address"
        }
      ],
      "name": "isApprovedForAll",
      "outputs": [
        {
          "internalType": "bool",
          "name": "",
          "type": "bool"
        }
      ],
      "stateMutability": "view",
      "type": "function",
      "constant": true
    },
    {
      "inputs": [],
      "name": "name",
      "outputs": [
        {
          "internalType": "string",
          "name": "",
          "type": "string"
        }
      ],
      "stateMutability": "view",
      "type": "function",
      "constant": true
    },
    {
      "inputs": [
        {
          "internalType": "uint256",
          "name": "tokenId",
          "type": "uint256"
        }
      ],
      "name": "ownerOf",
      "outputs": [
        {
          "internalType": "address",
          "name": "",
          "type": "address"
        }
      ],
      "stateMutability": "view",
      "type": "function",
      "constant": true
    },
    {
      "inputs": [],
      "name": "paused",
      "outputs": [
        {
          "internalType": "bool",
          "name": "",
          "type": "bool"
        }
      ],
      "stateMutability": "view",
      "type": "function",
      "constant": true
    },
    {
      "inputs": [
        {
          "internalType": "bytes32",
          "name": "role",
          "type": "bytes32"
        },
        {
          "internalType": "address",
          "name": "account",
          "type": "address"
        }
      ],
      "name": "renounceRole",
      "outputs": [],
      "stateMutability": "nonpayable",
      "type": "function"
    },
    {
      "inputs": [
        {
          "internalType": "bytes32",
          "name": "role",
          "type": "bytes32"
        },
        {
          "internalType": "address",
          "name": "account",
          "type": "address"
        }
      ],
      "name": "revokeRole",
      "outputs": [],
      "stateMutability": "nonpayable",
      "type": "function"
    },
    {
      "inputs": [
        {
          "internalType": "address",
          "name": "from",
          "type": "address"
        },
        {
          "internalType": "address",
          "name": "to",
          "type": "address"
        },
        {
          "internalType": "uint256",
          "name": "tokenId",
          "type": "uint256"
        }
      ],
      "name": "safeTransferFrom",
      "outputs": [],
      "stateMutability": "nonpayable",
      "type": "function"
    },
    {
      "inputs": [
        {
          "internalType": "address",
          "name": "from",
          "type": "address"
        },
        {
          "internalType": "address",
          "name": "to",
          "type": "address"
        },
        {
          "internalType": "uint256",
          "name": "tokenId",
          "type": "uint256"
        },
        {
          "internalType": "bytes",
          "name": "_data",
          "type": "bytes"
        }
      ],
      "name": "safeTransferFrom",
      "outputs": [],
      "stateMutability": "nonpayable",
      "type": "function"
    },
    {
      "inputs": [
        {
          "internalType": "address",
          "name": "operator",
          "type": "address"
        },
        {
          "internalType": "bool",
          "name": "approved",
          "type": "bool"
        }
      ],
      "name": "setApprovalForAll",
      "outputs": [],
      "stateMutability": "nonpayable",
      "type": "function"
    },
    {
      "inputs": [],
      "name": "symbol",
      "outputs": [
        {
          "internalType": "string",
          "name": "",
          "type": "string"
        }
      ],
      "stateMutability": "view",
      "type": "function",
      "constant": true
    },
    {
      "inputs": [
        {
          "internalType": "uint256",
          "name": "index",
          "type": "uint256"
        }
      ],
      "name": "tokenByIndex",
      "outputs": [
        {
          "internalType": "uint256",
          "name": "",
          "type": "uint256"
        }
      ],
      "stateMutability": "view",
      "type": "function",
      "constant": true
    },
    {
      "inputs": [
        {
          "internalType": "address",
          "name": "owner",
          "type": "address"
        },
        {
          "internalType": "uint256",
          "name": "index",
          "type": "uint256"
        }
      ],
      "name": "tokenOfOwnerByIndex",
      "outputs": [
        {
          "internalType": "uint256",
          "name": "",
          "type": "uint256"
        }
      ],
      "stateMutability": "view",
      "type": "function",
      "constant": true
    },
    {
      "inputs": [
        {
          "internalType": "uint256",
          "name": "tokenId",
          "type": "uint256"
        }
      ],
      "name": "tokenURI",
      "outputs": [
        {
          "internalType": "string",
          "name": "",
          "type": "string"
        }
      ],
      "stateMutability": "view",
      "type": "function",
      "constant": true
    },
    {
      "inputs": [],
      "name": "totalSupply",
      "outputs": [
        {
          "internalType": "uint256",
          "name": "",
          "type": "uint256"
        }
      ],
      "stateMutability": "view",
      "type": "function",
      "constant": true
    },
    {
      "inputs": [
        {
          "internalType": "address",
          "name": "from",
          "type": "address"
        },
        {
          "internalType": "address",
          "name": "to",
          "type": "address"
        },
        {
          "internalType": "uint256",
          "name": "tokenId",
          "type": "uint256"
        }
      ],
      "name": "transferFrom",
      "outputs": [],
      "stateMutability": "nonpayable",
      "type": "function"
    },
    {
      "inputs": [
        {
          "internalType": "address",
          "name": "to",
          "type": "address"
        }
      ],
      "name": "mint",
      "outputs": [],
      "stateMutability": "nonpayable",
      "type": "function"
    },
    {
      "inputs": [],
      "name": "pause",
      "outputs": [],
      "stateMutability": "nonpayable",
      "type": "function"
    },
    {
      "inputs": [],
      "name": "unpause",
      "outputs": [],
      "stateMutability": "nonpayable",
      "type": "function"
    },
    {
      "inputs": [
        {
          "internalType": "bytes4",
          "name": "interfaceId",
          "type": "bytes4"
        }
      ],
      "name": "supportsInterface",
      "outputs": [
        {
          "internalType": "bool",
          "name": "",
          "type": "bool"
        }
      ],
      "stateMutability": "view",
      "type": "function",
      "constant": true
    }
  ],
  "bytecode": "0x60806040523480156200001157600080fd5b5060405162002cba38038062002cba8339810160408190526200003491620003e5565b8251839083906200004d90600290602085019062000294565b5080516200006390600390602084019062000294565b5050600c805460ff191690555080516200008590600e90602084019062000294565b506200009c60006200009662000103565b62000107565b620000cb7f9f2df0fed2c77648de5860a4cc508cd0818c85b8b8a1ab4ceeef8d981c8956a66200009662000103565b620000fa7f65d7a28e3265b37a6474929f336521b332c1681b933f6cb9f3376673440d862a6200009662000103565b505050620004f7565b3390565b62000113828262000117565b5050565b6200012e82826200015a60201b62000abb1760201c565b60008281526001602090815260409091206200015591839062000b40620001e4821b17901c565b505050565b62000166828262000204565b62000113576000828152602081815260408083206001600160a01b03851684529091529020805460ff19166001179055620001a062000103565b6001600160a01b0316816001600160a01b0316837f2f8788117e7eff1d82e926ec794901d17c78024a50270940304540a733656f0d60405160405180910390a45050565b6000620001fb836001600160a01b0384166200022d565b90505b92915050565b6000918252602082815260408084206001600160a01b0393909316845291905290205460ff1690565b60006200023b83836200027c565b6200027357508154600181810184556000848152602080822090930184905584548482528286019093526040902091909155620001fe565b506000620001fe565b60009081526001919091016020526040902054151590565b828054620002a29062000472565b90600052602060002090601f016020900481019282620002c6576000855562000311565b82601f10620002e157805160ff191683800117855562000311565b8280016001018555821562000311579182015b8281111562000311578251825591602001919060010190620002f4565b506200031f92915062000323565b5090565b5b808211156200031f576000815560010162000324565b600082601f8301126200034b578081fd5b81516001600160401b0380821115620003685762000368620004c8565b6040516020601f8401601f1916820181018381118382101715620003905762000390620004c8565b6040528382528584018101871015620003a7578485fd5b8492505b83831015620003ca5785830181015182840182015291820191620003ab565b83831115620003db57848185840101525b5095945050505050565b600080600060608486031215620003fa578283fd5b83516001600160401b038082111562000411578485fd5b6200041f878388016200033a565b9450602086015191508082111562000435578384fd5b62000443878388016200033a565b9350604086015191508082111562000459578283fd5b5062000468868287016200033a565b9150509250925092565b6002810460018216806200048757607f821691505b60208210811415620004c2577f4e487b7100000000000000000000000000000000000000000000000000000000600052602260045260246000fd5b50919050565b7f4e487b7100000000000000000000000000000000000000000000000000000000600052604160045260246000fd5b6127b380620005076000396000f3fe608060405234801561001057600080fd5b50600436106101e55760003560e01c80636352211e1161010f578063a22cb465116100a2578063d539139311610071578063d5391393146103dd578063d547741f146103e5578063e63ab1e9146103f8578063e985e9c514610400576101e5565b8063a22cb46514610391578063b88d4fde146103a4578063c87b56dd146103b7578063ca15c873146103ca576101e5565b80639010d07c116100de5780639010d07c1461035b57806391d148541461036e57806395d89b4114610381578063a217fddf14610389576101e5565b80636352211e1461031a5780636a6278421461032d57806370a08231146103405780638456cb5914610353576101e5565b80632f2ff15d1161018757806342842e0e1161015657806342842e0e146102d957806342966c68146102ec5780634f6ccce7146102ff5780635c975abb14610312576101e5565b80632f2ff15d146102985780632f745c59146102ab57806336568abe146102be5780633f4ba83a146102d1576101e5565b8063095ea7b3116101c3578063095ea7b31461024857806318160ddd1461025d57806323b872dd14610272578063248a9ca314610285576101e5565b806301ffc9a7146101ea57806306fdde0314610213578063081812fc14610228575b600080fd5b6101fd6101f8366004611d85565b610413565b60405161020a9190611ede565b60405180910390f35b61021b610426565b60405161020a9190611ef2565b61023b610236366004611d2a565b6104b8565b60405161020a9190611e8d565b61025b610256366004611d01565b610504565b005b61026561059c565b60405161020a9190611ee9565b61025b610280366004611bc0565b6105a2565b610265610293366004611d2a565b6105da565b61025b6102a6366004611d42565b6105ef565b6102656102b9366004611d01565b610613565b61025b6102cc366004611d42565b610668565b61025b6106ae565b61025b6102e7366004611bc0565b610700565b61025b6102fa366004611d2a565b61071b565b61026561030d366004611d2a565b61074e565b6101fd6107a9565b61023b610328366004611d2a565b6107b2565b61025b61033b366004611b74565b6107e7565b61026561034e366004611b74565b61084c565b61025b610890565b61023b610369366004611d64565b6108e0565b6101fd61037c366004611d42565b6108ff565b61021b610928565b610265610937565b61025b61039f366004611cc7565b61093c565b61025b6103b2366004611bfb565b61094e565b61021b6103c5366004611d2a565b61098d565b6102656103d8366004611d2a565b610a0f565b610265610a26565b61025b6103f3366004611d42565b610a4a565b610265610a69565b6101fd61040e366004611b8e565b610a8d565b600061041e82610b55565b90505b919050565b606060028054610435906126bb565b80601f0160208091040260200160405190810160405280929190818152602001828054610461906126bb565b80156104ae5780601f10610483576101008083540402835291602001916104ae565b820191906000526020600020905b81548152906001019060200180831161049157829003601f168201915b5050505050905090565b60006104c382610b7a565b6104e85760405162461bcd60e51b81526004016104df906122fa565b60405180910390fd5b506000908152600660205260409020546001600160a01b031690565b600061050f826107b2565b9050806001600160a01b0316836001600160a01b031614156105435760405162461bcd60e51b81526004016104df906123de565b806001600160a01b0316610555610b97565b6001600160a01b0316148061057157506105718161040e610b97565b61058d5760405162461bcd60e51b81526004016104df906121d5565b6105978383610b9b565b505050565b600a5490565b6105b36105ad610b97565b82610c09565b6105cf5760405162461bcd60e51b81526004016104df9061241f565b610597838383610c8e565b60009081526020819052604090206001015490565b6105f8826105da565b61060981610604610b97565b610dbb565b6105978383610e1f565b600061061e8361084c565b821061063c5760405162461bcd60e51b81526004016104df90611fb3565b506001600160a01b03821660009081526008602090815260408083208484529091529020545b92915050565b610670610b97565b6001600160a01b0316816001600160a01b0316146106a05760405162461bcd60e51b81526004016104df906125c7565b6106aa8282610e41565b5050565b6106da7f65d7a28e3265b37a6474929f336521b332c1681b933f6cb9f3376673440d862a61037c610b97565b6106f65760405162461bcd60e51b81526004016104df90612569565b6106fe610e63565b565b6105978383836040518060200160405280600081525061094e565b6107266105ad610b97565b6107425760405162461bcd60e51b81526004016104df90612519565b61074b81610ed1565b50565b600061075861059c565b82106107765760405162461bcd60e51b81526004016104df90612470565b600a828154811061079757634e487b7160e01b600052603260045260246000fd5b90600052602060002001549050919050565b600c5460ff1690565b6000818152600460205260408120546001600160a01b03168061041e5760405162461bcd60e51b81526004016104df9061227c565b6108137f9f2df0fed2c77648de5860a4cc508cd0818c85b8b8a1ab4ceeef8d981c8956a661037c610b97565b61082f5760405162461bcd60e51b81526004016104df906124bc565b6108428161083d600d610f78565b610f7c565b61074b600d61105b565b60006001600160a01b0382166108745760405162461bcd60e51b81526004016104df90612232565b506001600160a01b031660009081526005602052604090205490565b6108bc7f65d7a28e3265b37a6474929f336521b332c1681b933f6cb9f3376673440d862a61037c610b97565b6108d85760405162461bcd60e51b81526004016104df90612087565b6106fe611064565b60008281526001602052604081206108f890836110bf565b9392505050565b6000918252602082815260408084206001600160a01b0393909316845291905290205460ff1690565b606060038054610435906126bb565b600081565b6106aa610947610b97565b83836110cb565b61095f610959610b97565b83610c09565b61097b5760405162461bcd60e51b81526004016104df9061241f565b6109878484848461116e565b50505050565b606061099882610b7a565b6109b45760405162461bcd60e51b81526004016104df9061238f565b60006109be6111a1565b905060008151116109de57604051806020016040528060008152506108f8565b806109e8846111b0565b6040516020016109f9929190611de9565b6040516020818303038152906040529392505050565b600081815260016020526040812061041e906112cb565b7f9f2df0fed2c77648de5860a4cc508cd0818c85b8b8a1ab4ceeef8d981c8956a681565b610a53826105da565b610a5f81610604610b97565b6105978383610e41565b7f65d7a28e3265b37a6474929f336521b332c1681b933f6cb9f3376673440d862a81565b6001600160a01b03918216600090815260076020908152604080832093909416825291909152205460ff1690565b610ac582826108ff565b6106aa576000828152602081815260408083206001600160a01b03851684529091529020805460ff19166001179055610afc610b97565b6001600160a01b0316816001600160a01b0316837f2f8788117e7eff1d82e926ec794901d17c78024a50270940304540a733656f0d60405160405180910390a45050565b60006108f8836001600160a01b0384166112d6565b60006001600160e01b0319821663780e9d6360e01b148061041e575061041e82611320565b6000908152600460205260409020546001600160a01b0316151590565b3390565b600081815260066020526040902080546001600160a01b0319166001600160a01b0384169081179091558190610bd0826107b2565b6001600160a01b03167f8c5be1e5ebec7d5bd14f71427d1e84f3dd0314c0f7b2291e5b200ac8c7c3b92560405160405180910390a45050565b6000610c1482610b7a565b610c305760405162461bcd60e51b81526004016104df9061215f565b6000610c3b836107b2565b9050806001600160a01b0316846001600160a01b03161480610c765750836001600160a01b0316610c6b846104b8565b6001600160a01b0316145b80610c865750610c868185610a8d565b949350505050565b826001600160a01b0316610ca1826107b2565b6001600160a01b031614610cc75760405162461bcd60e51b81526004016104df90612346565b6001600160a01b038216610ced5760405162461bcd60e51b81526004016104df906120e4565b610cf8838383611360565b610d03600082610b9b565b6001600160a01b0383166000908152600560205260408120805460019290610d2c908490612661565b90915550506001600160a01b0382166000908152600560205260408120805460019290610d5a908490612616565b909155505060008181526004602052604080822080546001600160a01b0319166001600160a01b0386811691821790925591518493918716917fddf252ad1be2c89b69c2b068fc378daa952ba7f163c4a11628f55a4df523b3ef91a4505050565b610dc582826108ff565b6106aa57610ddd816001600160a01b0316601461136b565b610de883602061136b565b604051602001610df9929190611e18565b60408051601f198184030181529082905262461bcd60e51b82526104df91600401611ef2565b610e298282610abb565b60008281526001602052604090206105979082610b40565b610e4b828261151d565b600082815260016020526040902061059790826115a0565b610e6b6107a9565b610e875760405162461bcd60e51b81526004016104df90611f85565b600c805460ff191690557f5db9ee0a495bf2e6ff9c91a7834c1ba4fdd244a5e8aa4e537bd38aeae4b073aa610eba610b97565b604051610ec79190611e8d565b60405180910390a1565b6000610edc826107b2565b9050610eea81600084611360565b610ef5600083610b9b565b6001600160a01b0381166000908152600560205260408120805460019290610f1e908490612661565b909155505060008281526004602052604080822080546001600160a01b0319169055518391906001600160a01b038416907fddf252ad1be2c89b69c2b068fc378daa952ba7f163c4a11628f55a4df523b3ef908390a45050565b5490565b6001600160a01b038216610fa25760405162461bcd60e51b81526004016104df906122c5565b610fab81610b7a565b15610fc85760405162461bcd60e51b81526004016104df90612050565b610fd460008383611360565b6001600160a01b0382166000908152600560205260408120805460019290610ffd908490612616565b909155505060008181526004602052604080822080546001600160a01b0319166001600160a01b03861690811790915590518392907fddf252ad1be2c89b69c2b068fc378daa952ba7f163c4a11628f55a4df523b3ef908290a45050565b80546001019055565b61106c6107a9565b156110895760405162461bcd60e51b81526004016104df906121ab565b600c805460ff191660011790557f62e78cea01bee320cd4e420270b5ea74000d11b0c9f74754ebdbfc544b05a258610eba610b97565b60006108f883836115b5565b816001600160a01b0316836001600160a01b031614156110fd5760405162461bcd60e51b81526004016104df90612128565b6001600160a01b0383811660008181526007602090815260408083209487168084529490915290819020805460ff1916851515179055517f17307eab39ab6107e8899845ad3d59bd9653f200f220920489ca2b5937696c3190611161908590611ede565b60405180910390a3505050565b611179848484610c8e565b611185848484846115ed565b6109875760405162461bcd60e51b81526004016104df90611ffe565b6060600e8054610435906126bb565b6060816111d557506040805180820190915260018152600360fc1b6020820152610421565b8160005b81156111ff57806111e9816126f6565b91506111f89050600a8361262e565b91506111d9565b60008167ffffffffffffffff81111561122857634e487b7160e01b600052604160045260246000fd5b6040519080825280601f01601f191660200182016040528015611252576020820181803683370190505b5090505b8415610c8657611267600183612661565b9150611274600a86612711565b61127f906030612616565b60f81b8183815181106112a257634e487b7160e01b600052603260045260246000fd5b60200101906001600160f81b031916908160001a9053506112c4600a8661262e565b9450611256565b600061041e82610f78565b60006112e28383611708565b61131857508154600181810184556000848152602080822090930184905584548482528286019093526040902091909155610662565b506000610662565b60006001600160e01b031982166380ac58cd60e01b148061135157506001600160e01b03198216635b5e139f60e01b145b8061041e575061041e82611720565b610597838383611745565b6060600061137a836002612642565b611385906002612616565b67ffffffffffffffff8111156113ab57634e487b7160e01b600052604160045260246000fd5b6040519080825280601f01601f1916602001820160405280156113d5576020820181803683370190505b509050600360fc1b816000815181106113fe57634e487b7160e01b600052603260045260246000fd5b60200101906001600160f81b031916908160001a905350600f60fb1b8160018151811061143b57634e487b7160e01b600052603260045260246000fd5b60200101906001600160f81b031916908160001a905350600061145f846002612642565b61146a906001612616565b90505b60018111156114fe576f181899199a1a9b1b9c1cb0b131b232b360811b85600f16601081106114ac57634e487b7160e01b600052603260045260246000fd5b1a60f81b8282815181106114d057634e487b7160e01b600052603260045260246000fd5b60200101906001600160f81b031916908160001a90535060049490941c936114f7816126a4565b905061146d565b5083156108f85760405162461bcd60e51b81526004016104df90611f05565b61152782826108ff565b156106aa576000828152602081815260408083206001600160a01b03851684529091529020805460ff1916905561155c610b97565b6001600160a01b0316816001600160a01b0316837ff6391f5c32d9c69d2a47ea670b442974b53935d1edc7fd64eb21e047a839171b60405160405180910390a45050565b60006108f8836001600160a01b038416611775565b60008260000182815481106115da57634e487b7160e01b600052603260045260246000fd5b9060005260206000200154905092915050565b6000611601846001600160a01b0316611892565b156116fd57836001600160a01b031663150b7a0261161d610b97565b8786866040518563ffffffff1660e01b815260040161163f9493929190611ea1565b602060405180830381600087803b15801561165957600080fd5b505af1925050508015611689575060408051601f3d908101601f1916820190925261168691810190611da1565b60015b6116e3573d8080156116b7576040519150601f19603f3d011682016040523d82523d6000602084013e6116bc565b606091505b5080516116db5760405162461bcd60e51b81526004016104df90611ffe565b805181602001fd5b6001600160e01b031916630a85bd0160e11b149050610c86565b506001949350505050565b60009081526001919091016020526040902054151590565b60006001600160e01b03198216635a05180f60e01b148061041e575061041e82611898565b6117508383836118bd565b6117586107a9565b156105975760405162461bcd60e51b81526004016104df90611f3a565b60008181526001830160205260408120548015611888576000611799600183612661565b85549091506000906117ad90600190612661565b905081811461182e5760008660000182815481106117db57634e487b7160e01b600052603260045260246000fd5b906000526020600020015490508087600001848154811061180c57634e487b7160e01b600052603260045260246000fd5b6000918252602080832090910192909255918252600188019052604090208390555b855486908061184d57634e487b7160e01b600052603160045260246000fd5b600190038181906000526020600020016000905590558560010160008681526020019081526020016000206000905560019350505050610662565b6000915050610662565b3b151590565b60006001600160e01b03198216637965db0b60e01b148061041e575061041e82611946565b6118c8838383610597565b6001600160a01b0383166118e4576118df8161195f565b611907565b816001600160a01b0316836001600160a01b0316146119075761190783826119a3565b6001600160a01b0382166119235761191e81611a40565b610597565b826001600160a01b0316826001600160a01b031614610597576105978282611b19565b6001600160e01b031981166301ffc9a760e01b14919050565b600a80546000838152600b60205260408120829055600182018355919091527fc65a7bb8d6351c1cf70c95a316cc6a92839c986682d98bc35f958f4883f9d2a80155565b600060016119b08461084c565b6119ba9190612661565b600083815260096020526040902054909150808214611a0d576001600160a01b03841660009081526008602090815260408083208584528252808320548484528184208190558352600990915290208190555b5060009182526009602090815260408084208490556001600160a01b039094168352600881528383209183525290812055565b600a54600090611a5290600190612661565b6000838152600b6020526040812054600a8054939450909284908110611a8857634e487b7160e01b600052603260045260246000fd5b9060005260206000200154905080600a8381548110611ab757634e487b7160e01b600052603260045260246000fd5b6000918252602080832090910192909255828152600b9091526040808220849055858252812055600a805480611afd57634e487b7160e01b600052603160045260246000fd5b6001900381819060005260206000200160009055905550505050565b6000611b248361084c565b6001600160a01b039093166000908152600860209081526040808320868452825280832085905593825260099052919091209190915550565b80356001600160a01b038116811461042157600080fd5b600060208284031215611b85578081fd5b6108f882611b5d565b60008060408385031215611ba0578081fd5b611ba983611b5d565b9150611bb760208401611b5d565b90509250929050565b600080600060608486031215611bd4578081fd5b611bdd84611b5d565b9250611beb60208501611b5d565b9150604084013590509250925092565b60008060008060808587031215611c10578081fd5b611c1985611b5d565b93506020611c28818701611b5d565b935060408601359250606086013567ffffffffffffffff80821115611c4b578384fd5b818801915088601f830112611c5e578384fd5b813581811115611c7057611c70612751565b604051601f8201601f1916810185018381118282101715611c9357611c93612751565b60405281815283820185018b1015611ca9578586fd5b81858501868301379081019093019390935250939692955090935050565b60008060408385031215611cd9578182fd5b611ce283611b5d565b915060208301358015158114611cf6578182fd5b809150509250929050565b60008060408385031215611d13578182fd5b611d1c83611b5d565b946020939093013593505050565b600060208284031215611d3b578081fd5b5035919050565b60008060408385031215611d54578182fd5b82359150611bb760208401611b5d565b60008060408385031215611d76578182fd5b50508035926020909101359150565b600060208284031215611d96578081fd5b81356108f881612767565b600060208284031215611db2578081fd5b81516108f881612767565b60008151808452611dd5816020860160208601612678565b601f01601f19169290920160200192915050565b60008351611dfb818460208801612678565b835190830190611e0f818360208801612678565b01949350505050565b60007f416363657373436f6e74726f6c3a206163636f756e742000000000000000000082528351611e50816017850160208801612678565b7001034b99036b4b9b9b4b733903937b6329607d1b6017918401918201528351611e81816028840160208801612678565b01602801949350505050565b6001600160a01b0391909116815260200190565b6001600160a01b0385811682528416602082015260408101839052608060608201819052600090611ed490830184611dbd565b9695505050505050565b901515815260200190565b90815260200190565b6000602082526108f86020830184611dbd565b6020808252818101527f537472696e67733a20686578206c656e67746820696e73756666696369656e74604082015260600190565b6020808252602b908201527f4552433732315061757361626c653a20746f6b656e207472616e73666572207760408201526a1a1a5b19481c185d5cd95960aa1b606082015260800190565b60208082526014908201527314185d5cd8589b194e881b9bdd081c185d5cd95960621b604082015260600190565b6020808252602b908201527f455243373231456e756d657261626c653a206f776e657220696e646578206f7560408201526a74206f6620626f756e647360a81b606082015260800190565b60208082526032908201527f4552433732313a207472616e7366657220746f206e6f6e20455243373231526560408201527131b2b4bb32b91034b6b83632b6b2b73a32b960711b606082015260800190565b6020808252601c908201527f4552433732313a20746f6b656e20616c7265616479206d696e74656400000000604082015260600190565b6020808252603e908201527f4552433732315072657365744d696e7465725061757365724175746f49643a2060408201527f6d75737420686176652070617573657220726f6c6520746f2070617573650000606082015260800190565b60208082526024908201527f4552433732313a207472616e7366657220746f20746865207a65726f206164646040820152637265737360e01b606082015260800190565b60208082526019908201527f4552433732313a20617070726f766520746f2063616c6c657200000000000000604082015260600190565b6020808252602c908201527f4552433732313a206f70657261746f7220717565727920666f72206e6f6e657860408201526b34b9ba32b73a103a37b5b2b760a11b606082015260800190565b60208082526010908201526f14185d5cd8589b194e881c185d5cd95960821b604082015260600190565b60208082526038908201527f4552433732313a20617070726f76652063616c6c6572206973206e6f74206f7760408201527f6e6572206e6f7220617070726f76656420666f7220616c6c0000000000000000606082015260800190565b6020808252602a908201527f4552433732313a2062616c616e636520717565727920666f7220746865207a65604082015269726f206164647265737360b01b606082015260800190565b60208082526029908201527f4552433732313a206f776e657220717565727920666f72206e6f6e657869737460408201526832b73a103a37b5b2b760b91b606082015260800190565b6020808252818101527f4552433732313a206d696e7420746f20746865207a65726f2061646472657373604082015260600190565b6020808252602c908201527f4552433732313a20617070726f76656420717565727920666f72206e6f6e657860408201526b34b9ba32b73a103a37b5b2b760a11b606082015260800190565b60208082526029908201527f4552433732313a207472616e73666572206f6620746f6b656e2074686174206960408201526839903737ba1037bbb760b91b606082015260800190565b6020808252602f908201527f4552433732314d657461646174613a2055524920717565727920666f72206e6f60408201526e3732bc34b9ba32b73a103a37b5b2b760891b606082015260800190565b60208082526021908201527f4552433732313a20617070726f76616c20746f2063757272656e74206f776e656040820152603960f91b606082015260800190565b60208082526031908201527f4552433732313a207472616e736665722063616c6c6572206973206e6f74206f6040820152701ddb995c881b9bdc88185c1c1c9bdd9959607a1b606082015260800190565b6020808252602c908201527f455243373231456e756d657261626c653a20676c6f62616c20696e646578206f60408201526b7574206f6620626f756e647360a01b606082015260800190565b6020808252603d908201527f4552433732315072657365744d696e7465725061757365724175746f49643a2060408201527f6d7573742068617665206d696e74657220726f6c6520746f206d696e74000000606082015260800190565b60208082526030908201527f4552433732314275726e61626c653a2063616c6c6572206973206e6f74206f7760408201526f1b995c881b9bdc88185c1c1c9bdd995960821b606082015260800190565b602080825260409082018190527f4552433732315072657365744d696e7465725061757365724175746f49643a20908201527f6d75737420686176652070617573657220726f6c6520746f20756e7061757365606082015260800190565b6020808252602f908201527f416363657373436f6e74726f6c3a2063616e206f6e6c792072656e6f756e636560408201526e103937b632b9903337b91039b2b63360891b606082015260800190565b6000821982111561262957612629612725565b500190565b60008261263d5761263d61273b565b500490565b600081600019048311821515161561265c5761265c612725565b500290565b60008282101561267357612673612725565b500390565b60005b8381101561269357818101518382015260200161267b565b838111156109875750506000910152565b6000816126b3576126b3612725565b506000190190565b6002810460018216806126cf57607f821691505b602082108114156126f057634e487b7160e01b600052602260045260246000fd5b50919050565b600060001982141561270a5761270a612725565b5060010190565b6000826127205761272061273b565b500690565b634e487b7160e01b600052601160045260246000fd5b634e487b7160e01b600052601260045260246000fd5b634e487b7160e01b600052604160045260246000fd5b6001600160e01b03198116811461074b57600080fdfea2646970667358221220c50231044d25fabdcd2375fc0200a22c0c5a22a4a7ffb1870251ba304138a94564736f6c63430008000033",
  "immutableReferences": {},
  "source": "// SPDX-License-Identifier: MIT\n// OpenZeppelin Contracts v4.4.1 (token/ERC721/presets/ERC721PresetMinterPauserAutoId.sol)\n\npragma solidity ^0.8.0;\n\nimport \"../ERC721.sol\";\nimport \"../extensions/ERC721Enumerable.sol\";\nimport \"../extensions/ERC721Burnable.sol\";\nimport \"../extensions/ERC721Pausable.sol\";\nimport \"../../../access/AccessControlEnumerable.sol\";\nimport \"../../../utils/Context.sol\";\nimport \"../../../utils/Counters.sol\";\n\n/**\n * @dev {ERC721} token, including:\n *\n *  - ability for holders to burn (destroy) their tokens\n *  - a minter role that allows for token minting (creation)\n *  - a pauser role that allows to stop all token transfers\n *  - token ID and URI autogeneration\n *\n * This contract uses {AccessControl} to lock permissioned functions using the\n * different roles - head to its documentation for details.\n *\n * The account that deploys the contract will be granted the minter and pauser\n * roles, as well as the default admin role, which will let it grant both minter\n * and pauser roles to other accounts.\n */\ncontract ERC721PresetMinterPauserAutoId is\n    Context,\n    AccessControlEnumerable,\n    ERC721Enumerable,\n    ERC721Burnable,\n    ERC721Pausable\n{\n    using Counters for Counters.Counter;\n\n    bytes32 public constant MINTER_ROLE = keccak256(\"MINTER_ROLE\");\n    bytes32 public constant PAUSER_ROLE = keccak256(\"PAUSER_ROLE\");\n\n    Counters.Counter private _tokenIdTracker;\n\n    string private _baseTokenURI;\n\n    /**\n     * @dev Grants `DEFAULT_ADMIN_ROLE`, `MINTER_ROLE` and `PAUSER_ROLE` to the\n     * account that deploys the contract.\n     *\n     * Token URIs will be autogenerated based on `baseURI` and their token IDs.\n     * See {ERC721-tokenURI}.\n     */\n    constructor(\n        string memory name,\n        string memory symbol,\n        string memory baseTokenURI\n    ) ERC721(name, symbol) {\n        _baseTokenURI = baseTokenURI;\n\n        _setupRole(DEFAULT_ADMIN_ROLE, _msgSender());\n\n        _setupRole(MINTER_ROLE, _msgSender());\n        _setupRole(PAUSER_ROLE, _msgSender());\n    }\n\n    function _baseURI() internal view virtual override returns (string memory) {\n        return _baseTokenURI;\n    }\n\n    /**\n     * @dev Creates a new token for `to`. Its token ID will be automatically\n     * assigned (and available on the emitted {IERC721-Transfer} event), and the token\n     * URI autogenerated based on the base URI passed at construction.\n     *\n     * See {ERC721-_mint}.\n     *\n     * Requirements:\n     *\n     * - the caller must have the `MINTER_ROLE`.\n     */\n    function mint(address to) public virtual {\n        require(hasRole(MINTER_ROLE, _msgSender()), \"ERC721PresetMinterPauserAutoId: must have minter role to mint\");\n\n        // We cannot just use balanceOf to create the new tokenId because tokens\n        // can be burned (destroyed), so we need a separate counter.\n        _mint(to, _tokenIdTracker.current());\n        _tokenIdTracker.increment();\n    }\n\n    /**\n     * @dev Pauses all token transfers.\n     *\n     * See {ERC721Pausable} and {Pausable-_pause}.\n     *\n     * Requirements:\n     *\n     * - the caller must have the `PAUSER_ROLE`.\n     */\n    function pause() public virtual {\n        require(hasRole(PAUSER_ROLE, _msgSender()), \"ERC721PresetMinterPauserAutoId: must have pauser role to pause\");\n        _pause();\n    }\n\n    /**\n     * @dev Unpauses all token transfers.\n     *\n     * See {ERC721Pausable} and {Pausable-_unpause}.\n     *\n     * Requirements:\n     *\n     * - the caller must have the `PAUSER_ROLE`.\n     */\n    function unpause() public virtual {\n        require(hasRole(PAUSER_ROLE, _msgSender()), \"ERC721PresetMinterPauserAutoId: must have pauser role to unpause\");\n        _unpause();\n    }\n\n    function _beforeTokenTransfer(\n        address from,\n        address to,\n        uint256 tokenId\n    ) internal virtual override(ERC721, ERC721Enumerable, ERC721Pausable) {\n        super._beforeTokenTransfer(from, to, tokenId);\n    }\n\n    /**\n     * @dev See {IERC165-supportsInterface}.\n     */\n    function supportsInterface(bytes4 interfaceId)\n        public\n        view\n        virtual\n        override(AccessControlEnumerable, ERC721, ERC721Enumerable)\n        returns (bool)\n    {\n        return super.supportsInterface(interfaceId);\n    }\n}\n",
  "sourcePath": "@openzeppelin/contracts/token/ERC721/presets/ERC721PresetMinterPauserAutoId.sol",
  "compiler": {
    "name": "solc",
    "version": "0.8.0+commit.c7dfd78e.Emscripten.clang"
  },
  "schemaVersion": "3.4.6",
  "updatedAt": "2023-01-15T09:41:55.968Z",
  "networkType": "ethereum",
  "devdoc": {
    "details": "{ERC721} token, including:  - ability for holders to burn (destroy) their tokens  - a minter role that allows for token minting (creation)  - a pauser role that allows to stop all token transfers  - token ID and URI autogeneration This contract uses {AccessControl} to lock permissioned functions using the different roles - head to its documentation for details. The account that deploys the contract will be granted the minter and pauser roles, as well as the default admin role, which will let it grant both minter and pauser roles to other accounts.",
    "kind": "dev",
    "methods": {
      "approve(address,uint256)": {
        "details": "See {IERC721-approve}."
      },
      "balanceOf(address)": {
        "details": "See {IERC721-balanceOf}."
      },
      "burn(uint256)": {
        "details": "Burns `tokenId`. See {ERC721-_burn}. Requirements: - The caller must own `tokenId` or be an approved operator."
      },
      "constructor": {
        "details": "Grants `DEFAULT_ADMIN_ROLE`, `MINTER_ROLE` and `PAUSER_ROLE` to the account that deploys the contract. Token URIs will be autogenerated based on `baseURI` and their token IDs. See {ERC721-tokenURI}."
      },
      "getApproved(uint256)": {
        "details": "See {IERC721-getApproved}."
      },
      "getRoleAdmin(bytes32)": {
        "details": "Returns the admin role that controls `role`. See {grantRole} and {revokeRole}. To change a role's admin, use {_setRoleAdmin}."
      },
      "getRoleMember(bytes32,uint256)": {
        "details": "Returns one of the accounts that have `role`. `index` must be a value between 0 and {getRoleMemberCount}, non-inclusive. Role bearers are not sorted in any particular way, and their ordering may change at any point. WARNING: When using {getRoleMember} and {getRoleMemberCount}, make sure you perform all queries on the same block. See the following https://forum.openzeppelin.com/t/iterating-over-elements-on-enumerableset-in-openzeppelin-contracts/2296[forum post] for more information."
      },
      "getRoleMemberCount(bytes32)": {
        "details": "Returns the number of accounts that have `role`. Can be used together with {getRoleMember} to enumerate all bearers of a role."
      },
      "grantRole(bytes32,address)": {
        "details": "Grants `role` to `account`. If `account` had not been already granted `role`, emits a {RoleGranted} event. Requirements: - the caller must have ``role``'s admin role."
      },
      "hasRole(bytes32,address)": {
        "details": "Returns `true` if `account` has been granted `role`."
      },
      "isApprovedForAll(address,address)": {
        "details": "See {IERC721-isApprovedForAll}."
      },
      "mint(address)": {
        "details": "Creates a new token for `to`. Its token ID will be automatically assigned (and available on the emitted {IERC721-Transfer} event), and the token URI autogenerated based on the base URI passed at construction. See {ERC721-_mint}. Requirements: - the caller must have the `MINTER_ROLE`."
      },
      "name()": {
        "details": "See {IERC721Metadata-name}."
      },
      "ownerOf(uint256)": {
        "details": "See {IERC721-ownerOf}."
      },
      "pause()": {
        "details": "Pauses all token transfers. See {ERC721Pausable} and {Pausable-_pause}. Requirements: - the caller must have the `PAUSER_ROLE`."
      },
      "paused()": {
        "details": "Returns true if the contract is paused, and false otherwise."
      },
      "renounceRole(bytes32,address)": {
        "details": "Revokes `role` from the calling account. Roles are often managed via {grantRole} and {revokeRole}: this function's purpose is to provide a mechanism for accounts to lose their privileges if they are compromised (such as when a trusted device is misplaced). If the calling account had been revoked `role`, emits a {RoleRevoked} event. Requirements: - the caller must be `account`."
      },
      "revokeRole(bytes32,address)": {
        "details": "Revokes `role` from `account`. If `account` had been granted `role`, emits a {RoleRevoked} event. Requirements: - the caller must have ``role``'s admin role."
      },
      "safeTransferFrom(address,address,uint256)": {
        "details": "See {IERC721-safeTransferFrom}."
      },
      "safeTransferFrom(address,address,uint256,bytes)": {
        "details": "See {IERC721-safeTransferFrom}."
      },
      "setApprovalForAll(address,bool)": {
        "details": "See {IERC721-setApprovalForAll}."
      },
      "supportsInterface(bytes4)": {
        "details": "See {IERC165-supportsInterface}."
      },
      "symbol()": {
        "details": "See {IERC721Metadata-symbol}."
      },
      "tokenByIndex(uint256)": {
        "details": "See {IERC721Enumerable-tokenByIndex}."
      },
      "tokenOfOwnerByIndex(address,uint256)": {
        "details": "See {IERC721Enumerable-tokenOfOwnerByIndex}."
      },
      "tokenURI(uint256)": {
        "details": "See {IERC721Metadata-tokenURI}."
      },
      "totalSupply()": {
        "details": "See {IERC721Enumerable-totalSupply}."
      },
      "transferFrom(address,address,uint256)": {
        "details": "See {IERC721-transferFrom}."
      },
      "unpause()": {
        "details": "Unpauses all token transfers. See {ERC721Pausable} and {Pausable-_unpause}. Requirements: - the caller must have the `PAUSER_ROLE`."
      }
    },
    "version": 1
  },
  "userdoc": {
    "kind": "user",
    "methods": {},
    "version": 1
  }
}