{
  "contractName": "ETHStaking",
  "abi": [
    {
      "inputs": [
        {
          "internalType": "address",
          "name": "_community",
          "type": "address"
        },
        {
          "internalType": "string",
          "name": "_name",
          "type": "string"
        }
      ],
      "stateMutability": "nonpayable",
      "type": "constructor"
    },
    {
      "anonymous": false,
      "inputs": [
        {
          "indexed": true,
          "internalType": "address",
          "name": "community",
          "type": "address"
        },
        {
          "indexed": true,
          "internalType": "address",
          "name": "who",
          "type": "address"
        },
        {
          "indexed": false,
          "internalType": "uint256",
          "name": "amount",
          "type": "uint256"
        }
      ],
      "name": "Deposited",
      "type": "event"
    },
    {
      "anonymous": false,
      "inputs": [
        {
          "indexed": true,
          "internalType": "address",
          "name": "community",
          "type": "address"
        },
        {
          "indexed": true,
          "internalType": "address",
          "name": "who",
          "type": "address"
        },
        {
          "indexed": false,
          "internalType": "uint256",
          "name": "amount",
          "type": "uint256"
        }
      ],
      "name": "Withdrawn",
      "type": "event"
    },
    {
      "inputs": [],
      "name": "name",
      "outputs": [
        {
          "internalType": "string",
          "name": "",
          "type": "string"
        }
      ],
      "stateMutability": "view",
      "type": "function"
    },
    {
      "inputs": [],
      "name": "totalStakedAmount",
      "outputs": [
        {
          "internalType": "uint256",
          "name": "",
          "type": "uint256"
        }
      ],
      "stateMutability": "view",
      "type": "function"
    },
    {
      "stateMutability": "payable",
      "type": "receive"
    },
    {
      "inputs": [],
      "name": "deposit",
      "outputs": [],
      "stateMutability": "payable",
      "type": "function"
    },
    {
      "inputs": [
        {
          "internalType": "uint256",
          "name": "amount",
          "type": "uint256"
        }
      ],
      "name": "withdraw",
      "outputs": [],
      "stateMutability": "payable",
      "type": "function"
    },
    {
      "inputs": [],
      "name": "getFactory",
      "outputs": [
        {
          "internalType": "address",
          "name": "",
          "type": "address"
        }
      ],
      "stateMutability": "view",
      "type": "function"
    },
    {
      "inputs": [],
      "name": "getCommunity",
      "outputs": [
        {
          "internalType": "address",
          "name": "",
          "type": "address"
        }
      ],
      "stateMutability": "view",
      "type": "function"
    },
    {
      "inputs": [
        {
          "internalType": "address",
          "name": "user",
          "type": "address"
        }
      ],
      "name": "getUserStakedAmount",
      "outputs": [
        {
          "internalType": "uint256",
          "name": "",
          "type": "uint256"
        }
      ],
      "stateMutability": "view",
      "type": "function"
    },
    {
      "inputs": [],
      "name": "getTotalStakedAmount",
      "outputs": [
        {
          "internalType": "uint256",
          "name": "",
          "type": "uint256"
        }
      ],
      "stateMutability": "view",
      "type": "function"
    },
    {
      "inputs": [
        {
          "internalType": "address",
          "name": "user",
          "type": "address"
        }
      ],
      "name": "getUserDepositInfo",
      "outputs": [
        {
          "components": [
            {
              "internalType": "bool",
              "name": "hasDeposited",
              "type": "bool"
            },
            {
              "internalType": "uint256",
              "name": "amount",
              "type": "uint256"
            }
          ],
          "internalType": "struct ETHStaking.StakingInfo",
          "name": "",
          "type": "tuple"
        }
      ],
      "stateMutability": "view",
      "type": "function"
    }
  ],
  "bytecode": "0x60c06040523480156200001157600080fd5b506040516200156538038062001565833981016040819052620000349162000116565b600160005533606090811b60805282901b6001600160601b03191660a05280516200006790600290602084019062000070565b5050506200028d565b8280546200007e9062000208565b90600052602060002090601f016020900481019282620000a25760008555620000ed565b82601f10620000bd57805160ff1916838001178555620000ed565b82800160010185558215620000ed579182015b82811115620000ed578251825591602001919060010190620000d0565b50620000fb929150620000ff565b5090565b5b80821115620000fb576000815560010162000100565b6000806040838503121562000129578182fd5b82516001600160a01b038116811462000140578283fd5b602084810151919350906001600160401b03808211156200015f578384fd5b818601915086601f83011262000173578384fd5b8151818111156200018857620001886200025e565b604051601f8201601f1916810185018381118282101715620001ae57620001ae6200025e565b6040528181528382018501891015620001c5578586fd5b8592505b81831015620001e85783830185015181840186015291840191620001c9565b81831115620001f957858583830101525b80955050505050509250929050565b6002810460018216806200021d57607f821691505b6020821081141562000258577f4e487b7100000000000000000000000000000000000000000000000000000000600052602260045260246000fd5b50919050565b7f4e487b7100000000000000000000000000000000000000000000000000000000600052604160045260246000fd5b60805160601c60a05160601c61124a6200031b600039600081816103bc0152818161042a015281816104d4015281816105b301528181610728015281816107d1015281816108d20152818161091501528181610b5401528181610bdd01528181610c4801528181610d0d0152610db601526000818161025b0152818161084f01526109c6015261124a6000f3fe60806040526004361061008a5760003560e01c806388cc58e41161005957806388cc58e41461010d57806394465b211461012f578063b3a7834d1461014f578063c51db6b21461017c578063d0e30db01461019157610091565b806306fdde03146100965780632e1a7d4d146100c157806338adb6f0146100d6578063567e98f9146100f857610091565b3661009157005b600080fd5b3480156100a257600080fd5b506100ab610199565b6040516100b89190610f85565b60405180910390f35b6100d46100cf366004610f0b565b610227565b005b3480156100e257600080fd5b506100eb610841565b6040516100b89190611137565b34801561010457600080fd5b506100eb610847565b34801561011957600080fd5b5061012261084d565b6040516100b89190610f3e565b34801561013b57600080fd5b506100eb61014a366004610ea2565b610871565b34801561015b57600080fd5b5061016f61016a366004610ea2565b610890565b6040516100b8919061111e565b34801561018857600080fd5b506101226108d0565b6100d46108f4565b600280546101a6906111ae565b80601f01602080910402602001604051908101604052809291908181526020018280546101d2906111ae565b801561021f5780601f106101f45761010080835404028352916020019161021f565b820191906000526020600020905b81548152906001019060200180831161020257829003601f168201915b505050505081565b61022f610e23565b8061023957610836565b336000908152600160208190526040909120015461025657610836565b6000807f00000000000000000000000000000000000000000000000000000000000000006001600160a01b03166202eab76040518163ffffffff1660e01b8152600401604080518083038186803b1580156102b057600080fd5b505afa1580156102c4573d6000803e3d6000fd5b505050506040513d601f19601f820116820180604052508101906102e89190610ebe565b909250905080156103a55780831161031b5760405162461bcd60e51b81526004016103129061106f565b60405180910390fd5b6000826001600160a01b03168260405161033490610f3b565b60006040518083038185875af1925050503d8060008114610371576040519150601f19603f3d011682016040523d82523d6000602084013e610376565b606091505b50509050806103975760405162461bcd60e51b815260040161031290611099565b6103a18483610e4d565b9350505b60405163579dea7960e11b81526001600160a01b037f0000000000000000000000000000000000000000000000000000000000000000169063af3bd4f2906103f1903390600401610fd8565b600060405180830381600087803b15801561040b57600080fd5b505af115801561041f573d6000803e3d6000fd5b5050505060006105947f00000000000000000000000000000000000000000000000000000000000000006001600160a01b031663a2a00ed630336040518363ffffffff1660e01b8152600401610476929190610f52565b60206040518083038186803b15801561048e57600080fd5b505afa1580156104a2573d6000803e3d6000fd5b505050506040513d601f19601f820116820180604052508101906104c69190610f23565b61058e64e8d4a510006105887f00000000000000000000000000000000000000000000000000000000000000006001600160a01b031663a1a89dbc306040518263ffffffff1660e01b815260040161051e9190610f3e565b60206040518083038186803b15801561053657600080fd5b505afa15801561054a573d6000803e3d6000fd5b505050506040513d601f19601f8201168201806040525081019061056e9190610f23565b336000908152600160208190526040909120015490610e60565b90610e6c565b90610e4d565b9050801561061d57604051631df36e4160e31b81526001600160a01b037f0000000000000000000000000000000000000000000000000000000000000000169063ef9b7208906105ea9033908590600401610f6c565b600060405180830381600087803b15801561060457600080fd5b505af1158015610618573d6000803e3d6000fd5b505050505b33600090815260016020819052604082200154851061065057503360009081526001602081905260409091200154610653565b50835b6000336001600160a01b03168260405161066c90610f3b565b60006040518083038185875af1925050503d80600081146106a9576040519150601f19603f3d011682016040523d82523d6000602084013e6106ae565b606091505b50509050806106cf5760405162461bcd60e51b8152600401610312906110f7565b33600090815260016020819052604090912001546106ed9083610e4d565b336000908152600160208190526040909120015560035461070e9083610e4d565b60035560405163286a276f60e21b81526001600160a01b037f0000000000000000000000000000000000000000000000000000000000000000169063bf16c3c29033906107769064e8d4a510009061058890869063a1a89dbc9061051e903090600401610f3e565b6040518363ffffffff1660e01b8152600401610793929190610f6c565b600060405180830381600087803b1580156107ad57600080fd5b505af11580156107c1573d6000803e3d6000fd5b50505050336001600160a01b03167f00000000000000000000000000000000000000000000000000000000000000006001600160a01b03167fd1c19fbcd4551a5edfb66d43d2e337c04837afda3482b42bdf569a8fccdae5fb846040516108289190611137565b60405180910390a350505050505b61083e610e78565b50565b60035490565b60035481565b7f000000000000000000000000000000000000000000000000000000000000000090565b6001600160a01b03166000908152600160208190526040909120015490565b610898610e8b565b506001600160a01b03166000908152600160208181526040928390208351808501909452805460ff1615158452909101549082015290565b7f000000000000000000000000000000000000000000000000000000000000000090565b6108fc610e23565b604051634c7b4f4d60e11b815234906001600160a01b037f000000000000000000000000000000000000000000000000000000000000000016906398f69e9a9061094a903090600401610f3e565b60206040518083038186803b15801561096257600080fd5b505afa158015610976573d6000803e3d6000fd5b505050506040513d601f19601f8201168201806040525081019061099a9190610eeb565b6109b65760405162461bcd60e51b815260040161031290611007565b806109c15750610e19565b6000807f00000000000000000000000000000000000000000000000000000000000000006001600160a01b03166202eab76040518163ffffffff1660e01b8152600401604080518083038186803b158015610a1b57600080fd5b505afa158015610a2f573d6000803e3d6000fd5b505050506040513d601f19601f82011682018060405250810190610a539190610ebe565b90925090508015610b085780831015610a7e5760405162461bcd60e51b81526004016103129061106f565b6000826001600160a01b031682604051610a9790610f3b565b60006040518083038185875af1925050503d8060008114610ad4576040519150601f19603f3d011682016040523d82523d6000602084013e610ad9565b606091505b5050905080610afa5760405162461bcd60e51b815260040161031290611048565b610b048483610e4d565b9350505b3360009081526001602052604090205460ff16610b3d573360009081526001602081905260408220805460ff19168217815501555b60405163579dea7960e11b81526001600160a01b037f0000000000000000000000000000000000000000000000000000000000000000169063af3bd4f290610b89903390600401610fd8565b600060405180830381600087803b158015610ba357600080fd5b505af1158015610bb7573d6000803e3d6000fd5b50503360009081526001602081905260409091200154159150610cb49050576000610c297f00000000000000000000000000000000000000000000000000000000000000006001600160a01b031663a2a00ed630336040518363ffffffff1660e01b8152600401610476929190610f52565b90508015610cb257604051631df36e4160e31b81526001600160a01b037f0000000000000000000000000000000000000000000000000000000000000000169063ef9b720890610c7f9033908590600401610f6c565b600060405180830381600087803b158015610c9957600080fd5b505af1158015610cad573d6000803e3d6000fd5b505050505b505b3360009081526001602081905260409091200154610cd29084610e7f565b3360009081526001602081905260409091200155600354610cf39084610e7f565b60035560405163286a276f60e21b81526001600160a01b037f0000000000000000000000000000000000000000000000000000000000000000169063bf16c3c2903390610d5b9064e8d4a510009061058890869063a1a89dbc9061051e903090600401610f3e565b6040518363ffffffff1660e01b8152600401610d78929190610f6c565b600060405180830381600087803b158015610d9257600080fd5b505af1158015610da6573d6000803e3d6000fd5b50505050336001600160a01b03167f00000000000000000000000000000000000000000000000000000000000000006001600160a01b03167f8752a472e571a816aea92eec8dae9baf628e840f4929fbcc2d155e6233ff68a785604051610e0d9190611137565b60405180910390a35050505b610e21610e78565b565b60026000541415610e465760405162461bcd60e51b8152600401610312906110c0565b6002600055565b6000610e598284611197565b9392505050565b6000610e598284611178565b6000610e598284611158565b6001600055565b6000610e598284611140565b604080518082019091526000808252602082015290565b600060208284031215610eb3578081fd5b8135610e59816111ff565b60008060408385031215610ed0578081fd5b8251610edb816111ff565b6020939093015192949293505050565b600060208284031215610efc578081fd5b81518015158114610e59578182fd5b600060208284031215610f1c578081fd5b5035919050565b600060208284031215610f34578081fd5b5051919050565b90565b6001600160a01b0391909116815260200190565b6001600160a01b0392831681529116602082015260400190565b6001600160a01b03929092168252602082015260400190565b6000602080835283518082850152825b81811015610fb157858101830151858201604001528201610f95565b81811115610fc25783604083870101525b50601f01601f1916929092016040019392505050565b6040808252600490820152632aa9a2a960e11b60608201526001600160a01b0391909116602082015260800190565b60208082526021908201527f43616e206e6f74206465706f73697420746f206120636c6f73656420706f6f6c6040820152601760f91b606082015260800190565b6020808252600d908201526c18dbdcdd081999594819985a5b609a1b604082015260600190565b60208082526010908201526f496e73756666696369656e742066656560801b604082015260600190565b6020808252600d908201526c10dbdcdd081199594819985a5b609a1b604082015260600190565b6020808252601f908201527f5265656e7472616e637947756172643a207265656e7472616e742063616c6c00604082015260600190565b6020808252600d908201526c15da5d1a191c985dc819985a5b609a1b604082015260600190565b8151151581526020918201519181019190915260400190565b90815260200190565b60008219821115611153576111536111e9565b500190565b60008261117357634e487b7160e01b81526012600452602481fd5b500490565b6000816000190483118215151615611192576111926111e9565b500290565b6000828210156111a9576111a96111e9565b500390565b6002810460018216806111c257607f821691505b602082108114156111e357634e487b7160e01b600052602260045260246000fd5b50919050565b634e487b7160e01b600052601160045260246000fd5b6001600160a01b038116811461083e57600080fdfea264697066735822122087460b6ba96f2dc3725a3899dcfb1f83892c86607e6c6ffaa805a9a6f474109c64736f6c63430008000033",
  "immutableReferences": {
    "16333": [
      {
        "length": 32,
        "start": 603
      },
      {
        "length": 32,
        "start": 2127
      },
      {
        "length": 32,
        "start": 2502
      }
    ],
    "16342": [
      {
        "length": 32,
        "start": 956
      },
      {
        "length": 32,
        "start": 1066
      },
      {
        "length": 32,
        "start": 1236
      },
      {
        "length": 32,
        "start": 1459
      },
      {
        "length": 32,
        "start": 1832
      },
      {
        "length": 32,
        "start": 2001
      },
      {
        "length": 32,
        "start": 2258
      },
      {
        "length": 32,
        "start": 2325
      },
      {
        "length": 32,
        "start": 2900
      },
      {
        "length": 32,
        "start": 3037
      },
      {
        "length": 32,
        "start": 3144
      },
      {
        "length": 32,
        "start": 3341
      },
      {
        "length": 32,
        "start": 3510
      }
    ]
  },
  "source": "// SPDX-License-Identifier: MIT\n\npragma solidity 0.8.0;\npragma experimental ABIEncoderV2;\n\nimport \"@openzeppelin/contracts/utils/math/SafeMath.sol\";\nimport \"@openzeppelin/contracts/security/ReentrancyGuard.sol\";\nimport \"../../interfaces/ICommunity.sol\";\nimport \"../../interfaces/IPool.sol\";\nimport \"../../interfaces/IPoolFactory.sol\";\n\n/**\n * @dev Template contract of Nutbox staking pool.\n *\n * Every pool saves a user staking ledger of a specific staking asset.\n * The only place that user can deposit and withdraw their staked asset.\n * Also only user themself than withdraw their staked asset\n */\ncontract ETHStaking is IPool, ReentrancyGuard {\n    using SafeMath for uint256;\n\n    struct StakingInfo {\n        // First time when user staking, we need set options like userDebt to zero\n        bool hasDeposited;\n        // User staked amount\n        uint256 amount;\n    }\n    address immutable factory;\n\n    // stakingInfo used to save every user's staking information,\n    // including how many they deposited and its external chain account\n    // ( we support crosschain asset staking). With every staking event\n    // happened including deposit and withdraw asset this field should be updated.\n    mapping(address => StakingInfo) stakingInfo;\n\n    string public name;\n\n    // community that pool belongs to\n    address immutable community;\n\n    // Total staked amount\n    uint256 public totalStakedAmount;\n\n    event Deposited(\n        address indexed community,\n        address indexed who,\n        uint256 amount\n    );\n    event Withdrawn(\n        address indexed community,\n        address indexed who,\n        uint256 amount\n    );\n\n    constructor(address _community, string memory _name) {\n        factory = msg.sender;\n        community = _community;\n        name = _name;\n    }\n\n    receive() external payable {}\n\n    function deposit() external nonReentrant payable {\n        uint256 amount = msg.value;\n        require(ICommunity(community).poolActived(address(this)), 'Can not deposit to a closed pool.');\n        if (amount == 0) return;\n\n        // check fee\n        (address receiver, uint256 feeAmount) = IPoolFactory(factory).getFeeInfo();\n        if (feeAmount > 0) {\n            require(amount >= feeAmount, \"Insufficient fee\");\n            (bool success, ) = receiver.call{value: feeAmount}(\"\");\n            require(success, \"cost fee fail\");\n            amount = amount.sub(feeAmount);\n        }\n\n        // Add to staking list if account hasn't deposited before\n        if (!stakingInfo[msg.sender].hasDeposited) {\n            stakingInfo[msg.sender].hasDeposited = true;\n            stakingInfo[msg.sender].amount = 0;\n        }\n\n        // trigger community update all pool staking info\n        ICommunity(community).updatePools(\"USER\", msg.sender);\n\n        if (stakingInfo[msg.sender].amount > 0) {\n            uint256 pending = stakingInfo[msg.sender]\n                .amount\n                .mul(ICommunity(community).getShareAcc(address(this)))\n                .div(1e12)\n                .sub(ICommunity(community).getUserDebt(address(this), msg.sender));\n            if (pending > 0) {\n                ICommunity(community).appendUserReward(msg.sender, pending);\n            }\n        }\n\n        stakingInfo[msg.sender].amount = stakingInfo[msg.sender]\n            .amount\n            .add(amount);\n        totalStakedAmount = totalStakedAmount\n            .add(amount);\n\n        ICommunity(community).setUserDebt(\n            msg.sender,\n            stakingInfo[msg.sender]\n            .amount\n            .mul(ICommunity(community).getShareAcc(address(this)))\n            .div(1e12));\n\n        emit Deposited(community, msg.sender, amount);\n    }\n\n    function withdraw(\n        uint256 amount\n    ) external nonReentrant payable {\n        if (amount == 0) return;\n        if (stakingInfo[msg.sender].amount == 0) return;\n\n        // check fee\n        (address receiver, uint256 feeAmount) = IPoolFactory(factory).getFeeInfo();\n        if (feeAmount > 0) {\n            require(amount > feeAmount, \"Insufficient fee\");\n            (bool success1, ) = receiver.call{value: feeAmount}(\"\");\n            require(success1, \"Cost Fee fail\");\n            amount = amount.sub(feeAmount);\n        }\n\n        // trigger community update all pool staking info\n        ICommunity(community).updatePools(\"USER\", msg.sender);\n\n        uint256 pending = stakingInfo[msg.sender]\n            .amount\n            .mul(ICommunity(community).getShareAcc(address(this)))\n            .div(1e12)\n            .sub(ICommunity(community).getUserDebt(address(this), msg.sender));\n        if (pending > 0) {\n            ICommunity(community).appendUserReward(msg.sender, pending);\n        }\n\n        uint256 withdrawAmount;\n        if (amount >= stakingInfo[msg.sender].amount)\n            withdrawAmount = stakingInfo[msg.sender].amount;\n        else withdrawAmount = amount;\n\n        // releaseERC20(stakeToken, address(msg.sender), withdrawAmount);\n        (bool success, ) = msg.sender.call{value: withdrawAmount}('');\n        require(success, \"Withdraw fail\");\n\n        stakingInfo[msg.sender].amount = stakingInfo[msg.sender]\n            .amount\n            .sub(withdrawAmount);\n        totalStakedAmount = totalStakedAmount\n            .sub(withdrawAmount);\n\n        ICommunity(community).setUserDebt(\n            msg.sender,\n            stakingInfo[msg.sender]\n            .amount\n            .mul(ICommunity(community).getShareAcc(address(this)))\n            .div(1e12));\n\n        emit Withdrawn(community, msg.sender, withdrawAmount);\n    }\n\n    function getFactory() external view override returns (address) {\n        return factory;\n    }\n\n    function getCommunity() external view override returns (address) {\n        return community;\n    }\n\n    function getUserStakedAmount(address user)\n        external\n        view\n        override returns (uint256)\n    {\n        return stakingInfo[user].amount;\n    }\n\n    function getTotalStakedAmount()\n        external\n        view\n        override returns (uint256)\n    {\n        return totalStakedAmount;\n    }\n\n    function getUserDepositInfo(address user)\n        external\n        view\n        returns (StakingInfo memory)\n    {\n        return stakingInfo[user];\n    }\n}\n",
  "sourcePath": "/Users/wangxi/work/Walnut-V2/nutbox-contract/contracts/dapps/eth-staking/ETHStaking.sol",
  "compiler": {
    "name": "solc",
    "version": "0.8.0+commit.c7dfd78e.Emscripten.clang"
  },
  "schemaVersion": "3.4.14",
  "updatedAt": "2024-06-20T15:00:49.728Z",
  "devdoc": {
    "details": "Template contract of Nutbox staking pool. Every pool saves a user staking ledger of a specific staking asset. The only place that user can deposit and withdraw their staked asset. Also only user themself than withdraw their staked asset",
    "kind": "dev",
    "methods": {},
    "version": 1
  },
  "userdoc": {
    "kind": "user",
    "methods": {},
    "version": 1
  }
}