{
  "contractName": "ETHStakingFactory",
  "abi": [
    {
      "inputs": [
        {
          "internalType": "address",
          "name": "_communityFactory",
          "type": "address"
        }
      ],
      "stateMutability": "nonpayable",
      "type": "constructor"
    },
    {
      "anonymous": false,
      "inputs": [
        {
          "indexed": true,
          "internalType": "address",
          "name": "pool",
          "type": "address"
        },
        {
          "indexed": true,
          "internalType": "address",
          "name": "community",
          "type": "address"
        },
        {
          "indexed": false,
          "internalType": "string",
          "name": "name",
          "type": "string"
        }
      ],
      "name": "ETHStakingCreated",
      "type": "event"
    },
    {
      "anonymous": false,
      "inputs": [
        {
          "indexed": true,
          "internalType": "address",
          "name": "previousOwner",
          "type": "address"
        },
        {
          "indexed": true,
          "internalType": "address",
          "name": "newOwner",
          "type": "address"
        }
      ],
      "name": "OwnershipTransferred",
      "type": "event"
    },
    {
      "inputs": [],
      "name": "communityFactory",
      "outputs": [
        {
          "internalType": "address",
          "name": "",
          "type": "address"
        }
      ],
      "stateMutability": "view",
      "type": "function"
    },
    {
      "inputs": [],
      "name": "owner",
      "outputs": [
        {
          "internalType": "address",
          "name": "",
          "type": "address"
        }
      ],
      "stateMutability": "view",
      "type": "function"
    },
    {
      "inputs": [],
      "name": "renounceOwnership",
      "outputs": [],
      "stateMutability": "nonpayable",
      "type": "function"
    },
    {
      "inputs": [
        {
          "internalType": "address",
          "name": "newOwner",
          "type": "address"
        }
      ],
      "name": "transferOwnership",
      "outputs": [],
      "stateMutability": "nonpayable",
      "type": "function"
    },
    {
      "inputs": [],
      "name": "getFeeInfo",
      "outputs": [
        {
          "internalType": "address",
          "name": "",
          "type": "address"
        },
        {
          "internalType": "uint256",
          "name": "",
          "type": "uint256"
        }
      ],
      "stateMutability": "view",
      "type": "function"
    },
    {
      "inputs": [
        {
          "internalType": "uint256",
          "name": "_transFee",
          "type": "uint256"
        }
      ],
      "name": "updateFee",
      "outputs": [],
      "stateMutability": "nonpayable",
      "type": "function"
    },
    {
      "inputs": [
        {
          "internalType": "address",
          "name": "community",
          "type": "address"
        },
        {
          "internalType": "string",
          "name": "name",
          "type": "string"
        },
        {
          "internalType": "bytes",
          "name": "meta",
          "type": "bytes"
        }
      ],
      "name": "createPool",
      "outputs": [
        {
          "internalType": "address",
          "name": "",
          "type": "address"
        }
      ],
      "stateMutability": "nonpayable",
      "type": "function"
    }
  ],
  "bytecode": "0x60a06040526509184e72a00060015534801561001a57600080fd5b50604051611e9d380380611e9d833981016040819052610039916100fb565b6100496100446100a7565b6100ab565b6001600160a01b038116610092576040517f08c379a000000000000000000000000000000000000000000000000000000000815260040161008990610129565b60405180910390fd5b60601b6001600160601b031916608052610160565b3390565b600080546001600160a01b038381166001600160a01b0319831681178455604051919092169283917f8be0079c531659141344cd1fd0a4f28419497f9722a3daafe3b4186f6b6457e09190a35050565b60006020828403121561010c578081fd5b81516001600160a01b0381168114610122578182fd5b9392505050565b6020808252600f908201527f496e76616c696420616464726573730000000000000000000000000000000000604082015260600190565b60805160601c611d18610185600039600081816101be01526103400152611d186000f3fe60806040523480156200001157600080fd5b5060043610620000875760003560e01c80639012c4a811620000635780639012c4a814620000d4578063b883cc2a14620000eb578063f2fde38b1462000102578063fac8a61014620001195762000087565b806202eab7146200008c578063715018a614620000af5780638da5cb5b14620000bb575b600080fd5b6200009662000123565b604051620000a692919062000649565b60405180910390f35b620000b96200013b565b005b620000c562000153565b604051620000a6919062000607565b620000b9620000e5366004620005a0565b62000162565b620000c5620000fc36600462000495565b62000171565b620000b96200011336600462000471565b620002fd565b620000c56200033e565b6000806200013062000153565b600154915091509091565b6200014562000362565b620001516000620003a8565b565b6000546001600160a01b031690565b6200016c62000362565b600155565b60006001600160a01b0385163314620001a75760405162461bcd60e51b81526004016200019e90620006bd565b60405180910390fd5b604051633454a5b760e11b81526001600160a01b037f000000000000000000000000000000000000000000000000000000000000000016906368a94b6e90620001f590889060040162000607565b60206040518083038186803b1580156200020e57600080fd5b505afa15801562000223573d6000803e3d6000fd5b505050506040513d601f19601f820116820180604052508101906200024991906200057e565b620002685760405162461bcd60e51b81526004016200019e906200073c565b600085856040516200027a90620003fc565b620002879291906200061b565b604051809103906000f080158015620002a4573d6000803e3d6000fd5b509050856001600160a01b0316816001600160a01b03167fc0448b7d5fc5f22bcd53bbb5fe2ef024855b1995cc010c296627a9e3c0bb8ce087604051620002ec919062000662565b60405180910390a395945050505050565b6200030762000362565b6001600160a01b038116620003305760405162461bcd60e51b81526004016200019e9062000677565b6200033b81620003a8565b50565b7f000000000000000000000000000000000000000000000000000000000000000081565b6200036c620003f8565b6001600160a01b03166200037f62000153565b6001600160a01b031614620001515760405162461bcd60e51b81526004016200019e9062000707565b600080546001600160a01b038381166001600160a01b0319831681178455604051919092169283917f8be0079c531659141344cd1fd0a4f28419497f9722a3daafe3b4186f6b6457e09190a35050565b3390565b611565806200077e83390190565b80356001600160a01b03811681146200042257600080fd5b919050565b60008083601f84011262000439578081fd5b50813567ffffffffffffffff81111562000451578182fd5b6020830191508360208285010111156200046a57600080fd5b9250929050565b60006020828403121562000483578081fd5b6200048e826200040a565b9392505050565b60008060008060608587031215620004ab578283fd5b620004b6856200040a565b935060208086013567ffffffffffffffff80821115620004d4578586fd5b818801915088601f830112620004e8578586fd5b813581811115620004fd57620004fd62000767565b604051601f8201601f191681018501838111828210171562000523576200052362000767565b60405281815283820185018b10156200053a578788fd5b8185850186830137878583830101528097505050604088013592508083111562000562578485fd5b5050620005728782880162000427565b95989497509550505050565b60006020828403121562000590578081fd5b815180151581146200048e578182fd5b600060208284031215620005b2578081fd5b5035919050565b60008151808452815b81811015620005e057602081850181015186830182015201620005c2565b81811115620005f25782602083870101525b50601f01601f19169290920160200192915050565b6001600160a01b0391909116815260200190565b6001600160a01b03831681526040602082018190526000906200064190830184620005b9565b949350505050565b6001600160a01b03929092168252602082015260400190565b6000602082526200048e6020830184620005b9565b60208082526026908201527f4f776e61626c653a206e6577206f776e657220697320746865207a65726f206160408201526564647265737360d01b606082015260800190565b6020808252602a908201527f5065726d697373696f6e2064656e6965643a2063616c6c6572206973206e6f7460408201526920636f6d6d756e69747960b01b606082015260800190565b6020808252818101527f4f776e61626c653a2063616c6c6572206973206e6f7420746865206f776e6572604082015260600190565b602080825260119082015270496e76616c696420636f6d6d756e69747960781b604082015260600190565b634e487b7160e01b600052604160045260246000fdfe60c06040523480156200001157600080fd5b506040516200156538038062001565833981016040819052620000349162000116565b600160005533606090811b60805282901b6001600160601b03191660a05280516200006790600290602084019062000070565b5050506200028d565b8280546200007e9062000208565b90600052602060002090601f016020900481019282620000a25760008555620000ed565b82601f10620000bd57805160ff1916838001178555620000ed565b82800160010185558215620000ed579182015b82811115620000ed578251825591602001919060010190620000d0565b50620000fb929150620000ff565b5090565b5b80821115620000fb576000815560010162000100565b6000806040838503121562000129578182fd5b82516001600160a01b038116811462000140578283fd5b602084810151919350906001600160401b03808211156200015f578384fd5b818601915086601f83011262000173578384fd5b8151818111156200018857620001886200025e565b604051601f8201601f1916810185018381118282101715620001ae57620001ae6200025e565b6040528181528382018501891015620001c5578586fd5b8592505b81831015620001e85783830185015181840186015291840191620001c9565b81831115620001f957858583830101525b80955050505050509250929050565b6002810460018216806200021d57607f821691505b6020821081141562000258577f4e487b7100000000000000000000000000000000000000000000000000000000600052602260045260246000fd5b50919050565b7f4e487b7100000000000000000000000000000000000000000000000000000000600052604160045260246000fd5b60805160601c60a05160601c61124a6200031b600039600081816103bc0152818161042a015281816104d4015281816105b301528181610728015281816107d1015281816108d20152818161091501528181610b5401528181610bdd01528181610c4801528181610d0d0152610db601526000818161025b0152818161084f01526109c6015261124a6000f3fe60806040526004361061008a5760003560e01c806388cc58e41161005957806388cc58e41461010d57806394465b211461012f578063b3a7834d1461014f578063c51db6b21461017c578063d0e30db01461019157610091565b806306fdde03146100965780632e1a7d4d146100c157806338adb6f0146100d6578063567e98f9146100f857610091565b3661009157005b600080fd5b3480156100a257600080fd5b506100ab610199565b6040516100b89190610f85565b60405180910390f35b6100d46100cf366004610f0b565b610227565b005b3480156100e257600080fd5b506100eb610841565b6040516100b89190611137565b34801561010457600080fd5b506100eb610847565b34801561011957600080fd5b5061012261084d565b6040516100b89190610f3e565b34801561013b57600080fd5b506100eb61014a366004610ea2565b610871565b34801561015b57600080fd5b5061016f61016a366004610ea2565b610890565b6040516100b8919061111e565b34801561018857600080fd5b506101226108d0565b6100d46108f4565b600280546101a6906111ae565b80601f01602080910402602001604051908101604052809291908181526020018280546101d2906111ae565b801561021f5780601f106101f45761010080835404028352916020019161021f565b820191906000526020600020905b81548152906001019060200180831161020257829003601f168201915b505050505081565b61022f610e23565b8061023957610836565b336000908152600160208190526040909120015461025657610836565b6000807f00000000000000000000000000000000000000000000000000000000000000006001600160a01b03166202eab76040518163ffffffff1660e01b8152600401604080518083038186803b1580156102b057600080fd5b505afa1580156102c4573d6000803e3d6000fd5b505050506040513d601f19601f820116820180604052508101906102e89190610ebe565b909250905080156103a55780831161031b5760405162461bcd60e51b81526004016103129061106f565b60405180910390fd5b6000826001600160a01b03168260405161033490610f3b565b60006040518083038185875af1925050503d8060008114610371576040519150601f19603f3d011682016040523d82523d6000602084013e610376565b606091505b50509050806103975760405162461bcd60e51b815260040161031290611099565b6103a18483610e4d565b9350505b60405163579dea7960e11b81526001600160a01b037f0000000000000000000000000000000000000000000000000000000000000000169063af3bd4f2906103f1903390600401610fd8565b600060405180830381600087803b15801561040b57600080fd5b505af115801561041f573d6000803e3d6000fd5b5050505060006105947f00000000000000000000000000000000000000000000000000000000000000006001600160a01b031663a2a00ed630336040518363ffffffff1660e01b8152600401610476929190610f52565b60206040518083038186803b15801561048e57600080fd5b505afa1580156104a2573d6000803e3d6000fd5b505050506040513d601f19601f820116820180604052508101906104c69190610f23565b61058e64e8d4a510006105887f00000000000000000000000000000000000000000000000000000000000000006001600160a01b031663a1a89dbc306040518263ffffffff1660e01b815260040161051e9190610f3e565b60206040518083038186803b15801561053657600080fd5b505afa15801561054a573d6000803e3d6000fd5b505050506040513d601f19601f8201168201806040525081019061056e9190610f23565b336000908152600160208190526040909120015490610e60565b90610e6c565b90610e4d565b9050801561061d57604051631df36e4160e31b81526001600160a01b037f0000000000000000000000000000000000000000000000000000000000000000169063ef9b7208906105ea9033908590600401610f6c565b600060405180830381600087803b15801561060457600080fd5b505af1158015610618573d6000803e3d6000fd5b505050505b33600090815260016020819052604082200154851061065057503360009081526001602081905260409091200154610653565b50835b6000336001600160a01b03168260405161066c90610f3b565b60006040518083038185875af1925050503d80600081146106a9576040519150601f19603f3d011682016040523d82523d6000602084013e6106ae565b606091505b50509050806106cf5760405162461bcd60e51b8152600401610312906110f7565b33600090815260016020819052604090912001546106ed9083610e4d565b336000908152600160208190526040909120015560035461070e9083610e4d565b60035560405163286a276f60e21b81526001600160a01b037f0000000000000000000000000000000000000000000000000000000000000000169063bf16c3c29033906107769064e8d4a510009061058890869063a1a89dbc9061051e903090600401610f3e565b6040518363ffffffff1660e01b8152600401610793929190610f6c565b600060405180830381600087803b1580156107ad57600080fd5b505af11580156107c1573d6000803e3d6000fd5b50505050336001600160a01b03167f00000000000000000000000000000000000000000000000000000000000000006001600160a01b03167fd1c19fbcd4551a5edfb66d43d2e337c04837afda3482b42bdf569a8fccdae5fb846040516108289190611137565b60405180910390a350505050505b61083e610e78565b50565b60035490565b60035481565b7f000000000000000000000000000000000000000000000000000000000000000090565b6001600160a01b03166000908152600160208190526040909120015490565b610898610e8b565b506001600160a01b03166000908152600160208181526040928390208351808501909452805460ff1615158452909101549082015290565b7f000000000000000000000000000000000000000000000000000000000000000090565b6108fc610e23565b604051634c7b4f4d60e11b815234906001600160a01b037f000000000000000000000000000000000000000000000000000000000000000016906398f69e9a9061094a903090600401610f3e565b60206040518083038186803b15801561096257600080fd5b505afa158015610976573d6000803e3d6000fd5b505050506040513d601f19601f8201168201806040525081019061099a9190610eeb565b6109b65760405162461bcd60e51b815260040161031290611007565b806109c15750610e19565b6000807f00000000000000000000000000000000000000000000000000000000000000006001600160a01b03166202eab76040518163ffffffff1660e01b8152600401604080518083038186803b158015610a1b57600080fd5b505afa158015610a2f573d6000803e3d6000fd5b505050506040513d601f19601f82011682018060405250810190610a539190610ebe565b90925090508015610b085780831015610a7e5760405162461bcd60e51b81526004016103129061106f565b6000826001600160a01b031682604051610a9790610f3b565b60006040518083038185875af1925050503d8060008114610ad4576040519150601f19603f3d011682016040523d82523d6000602084013e610ad9565b606091505b5050905080610afa5760405162461bcd60e51b815260040161031290611048565b610b048483610e4d565b9350505b3360009081526001602052604090205460ff16610b3d573360009081526001602081905260408220805460ff19168217815501555b60405163579dea7960e11b81526001600160a01b037f0000000000000000000000000000000000000000000000000000000000000000169063af3bd4f290610b89903390600401610fd8565b600060405180830381600087803b158015610ba357600080fd5b505af1158015610bb7573d6000803e3d6000fd5b50503360009081526001602081905260409091200154159150610cb49050576000610c297f00000000000000000000000000000000000000000000000000000000000000006001600160a01b031663a2a00ed630336040518363ffffffff1660e01b8152600401610476929190610f52565b90508015610cb257604051631df36e4160e31b81526001600160a01b037f0000000000000000000000000000000000000000000000000000000000000000169063ef9b720890610c7f9033908590600401610f6c565b600060405180830381600087803b158015610c9957600080fd5b505af1158015610cad573d6000803e3d6000fd5b505050505b505b3360009081526001602081905260409091200154610cd29084610e7f565b3360009081526001602081905260409091200155600354610cf39084610e7f565b60035560405163286a276f60e21b81526001600160a01b037f0000000000000000000000000000000000000000000000000000000000000000169063bf16c3c2903390610d5b9064e8d4a510009061058890869063a1a89dbc9061051e903090600401610f3e565b6040518363ffffffff1660e01b8152600401610d78929190610f6c565b600060405180830381600087803b158015610d9257600080fd5b505af1158015610da6573d6000803e3d6000fd5b50505050336001600160a01b03167f00000000000000000000000000000000000000000000000000000000000000006001600160a01b03167f8752a472e571a816aea92eec8dae9baf628e840f4929fbcc2d155e6233ff68a785604051610e0d9190611137565b60405180910390a35050505b610e21610e78565b565b60026000541415610e465760405162461bcd60e51b8152600401610312906110c0565b6002600055565b6000610e598284611197565b9392505050565b6000610e598284611178565b6000610e598284611158565b6001600055565b6000610e598284611140565b604080518082019091526000808252602082015290565b600060208284031215610eb3578081fd5b8135610e59816111ff565b60008060408385031215610ed0578081fd5b8251610edb816111ff565b6020939093015192949293505050565b600060208284031215610efc578081fd5b81518015158114610e59578182fd5b600060208284031215610f1c578081fd5b5035919050565b600060208284031215610f34578081fd5b5051919050565b90565b6001600160a01b0391909116815260200190565b6001600160a01b0392831681529116602082015260400190565b6001600160a01b03929092168252602082015260400190565b6000602080835283518082850152825b81811015610fb157858101830151858201604001528201610f95565b81811115610fc25783604083870101525b50601f01601f1916929092016040019392505050565b6040808252600490820152632aa9a2a960e11b60608201526001600160a01b0391909116602082015260800190565b60208082526021908201527f43616e206e6f74206465706f73697420746f206120636c6f73656420706f6f6c6040820152601760f91b606082015260800190565b6020808252600d908201526c18dbdcdd081999594819985a5b609a1b604082015260600190565b60208082526010908201526f496e73756666696369656e742066656560801b604082015260600190565b6020808252600d908201526c10dbdcdd081199594819985a5b609a1b604082015260600190565b6020808252601f908201527f5265656e7472616e637947756172643a207265656e7472616e742063616c6c00604082015260600190565b6020808252600d908201526c15da5d1a191c985dc819985a5b609a1b604082015260600190565b8151151581526020918201519181019190915260400190565b90815260200190565b60008219821115611153576111536111e9565b500190565b60008261117357634e487b7160e01b81526012600452602481fd5b500490565b6000816000190483118215151615611192576111926111e9565b500290565b6000828210156111a9576111a96111e9565b500390565b6002810460018216806111c257607f821691505b602082108114156111e357634e487b7160e01b600052602260045260246000fd5b50919050565b634e487b7160e01b600052601160045260246000fd5b6001600160a01b038116811461083e57600080fdfea264697066735822122087460b6ba96f2dc3725a3899dcfb1f83892c86607e6c6ffaa805a9a6f474109c64736f6c63430008000033a2646970667358221220e5007f07a947728e0847e9724a0a26bd4adeb4c27b1935fcde0d0f15ef3a67cb64736f6c63430008000033",
  "immutableReferences": {
    "16894": [
      {
        "length": 32,
        "start": 446
      },
      {
        "length": 32,
        "start": 832
      }
    ]
  },
  "source": "// SPDX-License-Identifier: MIT\n\npragma solidity 0.8.0;\npragma experimental ABIEncoderV2;\n\nimport \"solidity-bytes-utils/contracts/BytesLib.sol\";\nimport \"../../interfaces/IPoolFactory.sol\";\nimport \"./ETHStaking.sol\";\nimport \"../../CommunityFactory.sol\";\nimport \"@openzeppelin/contracts/access/Ownable.sol\";\n\n/**\n * @dev Factory contract of Nutbox ERC20 staking pool.\n *x\n */\ncontract ETHStakingFactory is IPoolFactory, Ownable {\n    using BytesLib for bytes;\n    address public immutable communityFactory;\n    uint256 private transFee = 0.00001 ether;\n\n    constructor(address _communityFactory) {\n        require(_communityFactory != address(0), \"Invalid address\");\n        communityFactory = _communityFactory;\n    }\n\n    event ETHStakingCreated(\n        address indexed pool,\n        address indexed community,\n        string name\n    );\n\n    function getFeeInfo() public override view returns (address, uint256) {\n        return (owner(), transFee);\n    }\n\n    function updateFee(uint256 _transFee) public onlyOwner() {\n        transFee = _transFee;\n    }\n\n    function createPool(address community, string memory name, bytes calldata meta) override external returns(address) {\n        require(community == msg.sender, 'Permission denied: caller is not community');\n        require(CommunityFactory(communityFactory).createdCommunity(community), \"Invalid community\");\n\n        ETHStaking pool = new ETHStaking(community, name);\n        emit ETHStakingCreated(address(pool), community, name);\n        return address(pool);\n    }\n}\n",
  "sourcePath": "/Users/wangxi/work/Walnut-V2/nutbox-contract/contracts/dapps/eth-staking/ETHStakingFactory.sol",
  "compiler": {
    "name": "solc",
    "version": "0.8.0+commit.c7dfd78e.Emscripten.clang"
  },
  "schemaVersion": "3.4.14",
  "updatedAt": "2024-06-20T15:00:49.731Z",
  "devdoc": {
    "details": "Factory contract of Nutbox ERC20 staking pool. x",
    "kind": "dev",
    "methods": {
      "owner()": {
        "details": "Returns the address of the current owner."
      },
      "renounceOwnership()": {
        "details": "Leaves the contract without owner. It will not be possible to call `onlyOwner` functions. Can only be called by the current owner. NOTE: Renouncing ownership will leave the contract without an owner, thereby disabling any functionality that is only available to the owner."
      },
      "transferOwnership(address)": {
        "details": "Transfers ownership of the contract to a new account (`newOwner`). Can only be called by the current owner."
      }
    },
    "version": 1
  },
  "userdoc": {
    "kind": "user",
    "methods": {},
    "version": 1
  }
}