{
  "contractName": "ETHStaking",
  "abi": [
    {
      "inputs": [
        {
          "internalType": "address",
          "name": "_community",
          "type": "address"
        },
        {
          "internalType": "string",
          "name": "_name",
          "type": "string"
        }
      ],
      "stateMutability": "nonpayable",
      "type": "constructor"
    },
    {
      "anonymous": false,
      "inputs": [
        {
          "indexed": true,
          "internalType": "address",
          "name": "community",
          "type": "address"
        },
        {
          "indexed": true,
          "internalType": "address",
          "name": "who",
          "type": "address"
        },
        {
          "indexed": false,
          "internalType": "uint256",
          "name": "amount",
          "type": "uint256"
        }
      ],
      "name": "Deposited",
      "type": "event"
    },
    {
      "anonymous": false,
      "inputs": [
        {
          "indexed": true,
          "internalType": "address",
          "name": "community",
          "type": "address"
        },
        {
          "indexed": true,
          "internalType": "address",
          "name": "who",
          "type": "address"
        },
        {
          "indexed": false,
          "internalType": "uint256",
          "name": "amount",
          "type": "uint256"
        }
      ],
      "name": "Withdrawn",
      "type": "event"
    },
    {
      "inputs": [],
      "name": "name",
      "outputs": [
        {
          "internalType": "string",
          "name": "",
          "type": "string"
        }
      ],
      "stateMutability": "view",
      "type": "function"
    },
    {
      "inputs": [],
      "name": "totalStakedAmount",
      "outputs": [
        {
          "internalType": "uint256",
          "name": "",
          "type": "uint256"
        }
      ],
      "stateMutability": "view",
      "type": "function"
    },
    {
      "stateMutability": "payable",
      "type": "receive"
    },
    {
      "inputs": [
        {
          "internalType": "uint256",
          "name": "amount",
          "type": "uint256"
        }
      ],
      "name": "deposit",
      "outputs": [],
      "stateMutability": "payable",
      "type": "function"
    },
    {
      "inputs": [
        {
          "internalType": "uint256",
          "name": "amount",
          "type": "uint256"
        }
      ],
      "name": "withdraw",
      "outputs": [],
      "stateMutability": "payable",
      "type": "function"
    },
    {
      "inputs": [],
      "name": "getFactory",
      "outputs": [
        {
          "internalType": "address",
          "name": "",
          "type": "address"
        }
      ],
      "stateMutability": "view",
      "type": "function"
    },
    {
      "inputs": [],
      "name": "getCommunity",
      "outputs": [
        {
          "internalType": "address",
          "name": "",
          "type": "address"
        }
      ],
      "stateMutability": "view",
      "type": "function"
    },
    {
      "inputs": [
        {
          "internalType": "address",
          "name": "user",
          "type": "address"
        }
      ],
      "name": "getUserStakedAmount",
      "outputs": [
        {
          "internalType": "uint256",
          "name": "",
          "type": "uint256"
        }
      ],
      "stateMutability": "view",
      "type": "function"
    },
    {
      "inputs": [],
      "name": "getTotalStakedAmount",
      "outputs": [
        {
          "internalType": "uint256",
          "name": "",
          "type": "uint256"
        }
      ],
      "stateMutability": "view",
      "type": "function"
    },
    {
      "inputs": [
        {
          "internalType": "address",
          "name": "user",
          "type": "address"
        }
      ],
      "name": "getUserDepositInfo",
      "outputs": [
        {
          "components": [
            {
              "internalType": "bool",
              "name": "hasDeposited",
              "type": "bool"
            },
            {
              "internalType": "uint256",
              "name": "amount",
              "type": "uint256"
            }
          ],
          "internalType": "struct ETHStaking.StakingInfo",
          "name": "",
          "type": "tuple"
        }
      ],
      "stateMutability": "view",
      "type": "function"
    }
  ],
  "bytecode": "0x60c06040523480156200001157600080fd5b506040516200142b3803806200142b833981016040819052620000349162000116565b600160005533606090811b60805282901b6001600160601b03191660a05280516200006790600290602084019062000070565b5050506200028d565b8280546200007e9062000208565b90600052602060002090601f016020900481019282620000a25760008555620000ed565b82601f10620000bd57805160ff1916838001178555620000ed565b82800160010185558215620000ed579182015b82811115620000ed578251825591602001919060010190620000d0565b50620000fb929150620000ff565b5090565b5b80821115620000fb576000815560010162000100565b6000806040838503121562000129578182fd5b82516001600160a01b038116811462000140578283fd5b602084810151919350906001600160401b03808211156200015f578384fd5b818601915086601f83011262000173578384fd5b8151818111156200018857620001886200025e565b604051601f8201601f1916810185018381118282101715620001ae57620001ae6200025e565b6040528181528382018501891015620001c5578586fd5b8592505b81831015620001e85783830185015181840186015291840191620001c9565b81831115620001f957858583830101525b80955050505050509250929050565b6002810460018216806200021d57607f821691505b6020821081141562000258577f4e487b7100000000000000000000000000000000000000000000000000000000600052602260045260246000fd5b50919050565b7f4e487b7100000000000000000000000000000000000000000000000000000000600052604160045260246000fd5b60805160601c60a05160601c611117620003146000396000818161029b015281816103ea0152818161045a01528181610504015281816105e301528181610722015281816107cb015281816108e9015281816109f301528181610a9301528181610afe01528181610bc301528181610c6c0152610cd50152600061084901526111176000f3fe60806040526004361061008a5760003560e01c806388cc58e41161005957806388cc58e41461010d57806394465b211461012f578063b3a7834d1461014f578063b6b55f251461017c578063c51db6b21461018f57610091565b806306fdde03146100965780632e1a7d4d146100c157806338adb6f0146100d6578063567e98f9146100f857610091565b3661009157005b600080fd5b3480156100a257600080fd5b506100ab6101a4565b6040516100b89190610e5f565b60405180910390f35b6100d46100cf366004610dce565b610232565b005b3480156100e257600080fd5b506100eb61083b565b6040516100b89190611004565b34801561010457600080fd5b506100eb610841565b34801561011957600080fd5b50610122610847565b6040516100b89190610e18565b34801561013b57600080fd5b506100eb61014a366004610d76565b61086b565b34801561015b57600080fd5b5061016f61016a366004610d76565b61088a565b6040516100b89190610feb565b6100d461018a366004610dce565b6108ca565b34801561019b57600080fd5b50610122610cd3565b600280546101b19061107b565b80601f01602080910402602001604051908101604052809291908181526020018280546101dd9061107b565b801561022a5780601f106101ff5761010080835404028352916020019161022a565b820191906000526020600020905b81548152906001019060200180831161020d57829003601f168201915b505050505081565b61023a610cf7565b8061024457610830565b336000908152600160208190526040909120015461026157610830565b33600090815260016020819052604082200154821061029457503360009081526001602081905260409091200154610297565b50805b60007f00000000000000000000000000000000000000000000000000000000000000006001600160a01b031663d864e7406040518163ffffffff1660e01b815260040160206040518083038186803b1580156102f257600080fd5b505afa158015610306573d6000803e3d6000fd5b505050506040513d601f19601f8201168201806040525081019061032a9190610d92565b90506000816001600160a01b031663ed1eee686040518163ffffffff1660e01b815260040161035890610eb2565b60206040518083038186803b15801561037057600080fd5b505afa158015610384573d6000803e3d6000fd5b505050506040513d601f19601f820116820180604052508101906103a89190610de6565b9050808310156103d35760405162461bcd60e51b81526004016103ca90610f63565b60405180910390fd5b60405163579dea7960e11b81526001600160a01b037f0000000000000000000000000000000000000000000000000000000000000000169063af3bd4f2908390610421903390600401610eca565b6000604051808303818588803b15801561043a57600080fd5b505af115801561044e573d6000803e3d6000fd5b505050505060006105c47f00000000000000000000000000000000000000000000000000000000000000006001600160a01b031663a2a00ed630336040518363ffffffff1660e01b81526004016104a6929190610e2c565b60206040518083038186803b1580156104be57600080fd5b505afa1580156104d2573d6000803e3d6000fd5b505050506040513d601f19601f820116820180604052508101906104f69190610de6565b6105be64e8d4a510006105b87f00000000000000000000000000000000000000000000000000000000000000006001600160a01b031663a1a89dbc306040518263ffffffff1660e01b815260040161054e9190610e18565b60206040518083038186803b15801561056657600080fd5b505afa15801561057a573d6000803e3d6000fd5b505050506040513d601f19601f8201168201806040525081019061059e9190610de6565b336000908152600160208190526040909120015490610d21565b90610d34565b90610d40565b9050801561064d57604051631df36e4160e31b81526001600160a01b037f0000000000000000000000000000000000000000000000000000000000000000169063ef9b72089061061a9033908590600401610e46565b600060405180830381600087803b15801561063457600080fd5b505af1158015610648573d6000803e3d6000fd5b505050505b60003361065a8487611064565b60405161066690610e15565b60006040518083038185875af1925050503d80600081146106a3576040519150601f19603f3d011682016040523d82523d6000602084013e6106a8565b606091505b50509050806106c95760405162461bcd60e51b81526004016103ca90610fc4565b33600090815260016020819052604090912001546106e79086610d40565b33600090815260016020819052604090912001556003546107089086610d40565b60035560405163286a276f60e21b81526001600160a01b037f0000000000000000000000000000000000000000000000000000000000000000169063bf16c3c29033906107709064e8d4a51000906105b890869063a1a89dbc9061054e903090600401610e18565b6040518363ffffffff1660e01b815260040161078d929190610e46565b600060405180830381600087803b1580156107a757600080fd5b505af11580156107bb573d6000803e3d6000fd5b50505050336001600160a01b03167f00000000000000000000000000000000000000000000000000000000000000006001600160a01b03167fd1c19fbcd4551a5edfb66d43d2e337c04837afda3482b42bdf569a8fccdae5fb876040516108229190611004565b60405180910390a350505050505b610838610d4c565b50565b60035490565b60035481565b7f000000000000000000000000000000000000000000000000000000000000000090565b6001600160a01b03166000908152600160208190526040909120015490565b610892610d5f565b506001600160a01b03166000908152600160208181526040928390208351808501909452805460ff1615158452909101549082015290565b6108d2610cf7565b604051634c7b4f4d60e11b81526001600160a01b037f000000000000000000000000000000000000000000000000000000000000000016906398f69e9a9061091e903090600401610e18565b60206040518083038186803b15801561093657600080fd5b505afa15801561094a573d6000803e3d6000fd5b505050506040513d601f19601f8201168201806040525081019061096e9190610dae565b61098a5760405162461bcd60e51b81526004016103ca90610ef6565b8061099457610830565b803410156109b45760405162461bcd60e51b81526004016103ca90610f37565b3360009081526001602052604090205460ff166109e9573360009081526001602081905260408220805460ff19168217815501555b6001600160a01b037f00000000000000000000000000000000000000000000000000000000000000001663af3bd4f2610a228334611064565b336040518363ffffffff1660e01b8152600401610a3f9190610eca565b6000604051808303818588803b158015610a5857600080fd5b505af1158015610a6c573d6000803e3d6000fd5b50503360009081526001602081905260409091200154159250610b6a915050576000610adf7f00000000000000000000000000000000000000000000000000000000000000006001600160a01b031663a2a00ed630336040518363ffffffff1660e01b81526004016104a6929190610e2c565b90508015610b6857604051631df36e4160e31b81526001600160a01b037f0000000000000000000000000000000000000000000000000000000000000000169063ef9b720890610b359033908590600401610e46565b600060405180830381600087803b158015610b4f57600080fd5b505af1158015610b63573d6000803e3d6000fd5b505050505b505b3360009081526001602081905260409091200154610b889082610d53565b3360009081526001602081905260409091200155600354610ba99082610d53565b60035560405163286a276f60e21b81526001600160a01b037f0000000000000000000000000000000000000000000000000000000000000000169063bf16c3c2903390610c119064e8d4a51000906105b890869063a1a89dbc9061054e903090600401610e18565b6040518363ffffffff1660e01b8152600401610c2e929190610e46565b600060405180830381600087803b158015610c4857600080fd5b505af1158015610c5c573d6000803e3d6000fd5b50505050336001600160a01b03167f00000000000000000000000000000000000000000000000000000000000000006001600160a01b03167f8752a472e571a816aea92eec8dae9baf628e840f4929fbcc2d155e6233ff68a783604051610cc39190611004565b60405180910390a3610838610d4c565b7f000000000000000000000000000000000000000000000000000000000000000090565b60026000541415610d1a5760405162461bcd60e51b81526004016103ca90610f8d565b6002600055565b6000610d2d8284611045565b9392505050565b6000610d2d8284611025565b6000610d2d8284611064565b6001600055565b6000610d2d828461100d565b604080518082019091526000808252602082015290565b600060208284031215610d87578081fd5b8135610d2d816110cc565b600060208284031215610da3578081fd5b8151610d2d816110cc565b600060208284031215610dbf578081fd5b81518015158114610d2d578182fd5b600060208284031215610ddf578081fd5b5035919050565b600060208284031215610df7578081fd5b5051919050565b60048152632aa9a2a960e11b602082015260400190565b90565b6001600160a01b0391909116815260200190565b6001600160a01b0392831681529116602082015260400190565b6001600160a01b03929092168252602082015260400190565b6000602080835283518082850152825b81811015610e8b57858101830151858201604001528201610e6f565b81811115610e9c5783604083870101525b50601f01601f1916929092016040019392505050565b600060208252610ec460208301610dfe565b92915050565b600060408252610edc60408301610dfe565b6001600160a01b0393909316602092909201919091525090565b60208082526021908201527f43616e206e6f74206465706f73697420746f206120636c6f73656420706f6f6c6040820152601760f91b606082015260800190565b602080825260129082015271696e73756666696369656e742076616c756560701b604082015260600190565b60208082526010908201526f496e73756666696369656e742066656560801b604082015260600190565b6020808252601f908201527f5265656e7472616e637947756172643a207265656e7472616e742063616c6c00604082015260600190565b6020808252600d908201526c15da5d1a191c985dc819985a5b609a1b604082015260600190565b8151151581526020918201519181019190915260400190565b90815260200190565b60008219821115611020576110206110b6565b500190565b60008261104057634e487b7160e01b81526012600452602481fd5b500490565b600081600019048311821515161561105f5761105f6110b6565b500290565b600082821015611076576110766110b6565b500390565b60028104600182168061108f57607f821691505b602082108114156110b057634e487b7160e01b600052602260045260246000fd5b50919050565b634e487b7160e01b600052601160045260246000fd5b6001600160a01b038116811461083857600080fdfea2646970667358221220fcb464f143fd9833fab15d547c5ccb3e9e2fa651a51bfbc616080b8a60f9fd8064736f6c63430008000033",
  "immutableReferences": {
    "10183": [
      {
        "length": 32,
        "start": 2121
      }
    ],
    "10192": [
      {
        "length": 32,
        "start": 667
      },
      {
        "length": 32,
        "start": 1002
      },
      {
        "length": 32,
        "start": 1114
      },
      {
        "length": 32,
        "start": 1284
      },
      {
        "length": 32,
        "start": 1507
      },
      {
        "length": 32,
        "start": 1826
      },
      {
        "length": 32,
        "start": 1995
      },
      {
        "length": 32,
        "start": 2281
      },
      {
        "length": 32,
        "start": 2547
      },
      {
        "length": 32,
        "start": 2707
      },
      {
        "length": 32,
        "start": 2814
      },
      {
        "length": 32,
        "start": 3011
      },
      {
        "length": 32,
        "start": 3180
      },
      {
        "length": 32,
        "start": 3285
      }
    ]
  },
  "source": "// SPDX-License-Identifier: MIT\n\npragma solidity 0.8.0;\npragma experimental ABIEncoderV2;\n\nimport \"@openzeppelin/contracts/utils/math/SafeMath.sol\";\nimport \"@openzeppelin/contracts/security/ReentrancyGuard.sol\";\nimport \"../../Community.sol\";\nimport \"../../interfaces/IPool.sol\";\nimport \"../../Committee.sol\";\n\n/**\n * @dev Template contract of Nutbox staking pool.\n *\n * Every pool saves a user staking ledger of a specific staking asset.\n * The only place that user can deposit and withdraw their staked asset.\n * Also only user themself than withdraw their staked asset\n */\ncontract ETHStaking is IPool, ReentrancyGuard {\n    using SafeMath for uint256;\n\n    struct StakingInfo {\n        // First time when user staking, we need set options like userDebt to zero\n        bool hasDeposited;\n        // User staked amount\n        uint256 amount;\n    }\n    address immutable factory;\n\n    // stakingInfo used to save every user's staking information,\n    // including how many they deposited and its external chain account\n    // ( we support crosschain asset staking). With every staking event\n    // happened including deposit and withdraw asset this field should be updated.\n    mapping(address => StakingInfo) stakingInfo;\n\n    string public name;\n\n    // community that pool belongs to\n    address immutable community;\n\n    // Total staked amount\n    uint256 public totalStakedAmount;\n\n    event Deposited(\n        address indexed community,\n        address indexed who,\n        uint256 amount\n    );\n    event Withdrawn(\n        address indexed community,\n        address indexed who,\n        uint256 amount\n    );\n\n    constructor(address _community, string memory _name) {\n        factory = msg.sender;\n        community = _community;\n        name = _name;\n    }\n\n    receive() external payable {}\n\n    function deposit(uint256 amount) external nonReentrant payable {\n        require(ICommunity(community).poolActived(address(this)), 'Can not deposit to a closed pool.');\n        if (amount == 0) return;\n        require(msg.value >= amount, 'insufficient value');\n\n        // Add to staking list if account hasn't deposited before\n        if (!stakingInfo[msg.sender].hasDeposited) {\n            stakingInfo[msg.sender].hasDeposited = true;\n            stakingInfo[msg.sender].amount = 0;\n        }\n\n        // trigger community update all pool staking info\n        ICommunity(community).updatePools{value: msg.value - amount}(\"USER\", msg.sender);\n\n        if (stakingInfo[msg.sender].amount > 0) {\n            uint256 pending = stakingInfo[msg.sender]\n                .amount\n                .mul(ICommunity(community).getShareAcc(address(this)))\n                .div(1e12)\n                .sub(ICommunity(community).getUserDebt(address(this), msg.sender));\n            if (pending > 0) {\n                ICommunity(community).appendUserReward(msg.sender, pending);\n            }\n        }\n\n        stakingInfo[msg.sender].amount = stakingInfo[msg.sender]\n            .amount\n            .add(amount);\n        totalStakedAmount = totalStakedAmount\n            .add(amount);\n\n        ICommunity(community).setUserDebt(\n            msg.sender,\n            stakingInfo[msg.sender]\n            .amount\n            .mul(ICommunity(community).getShareAcc(address(this)))\n            .div(1e12));\n\n        emit Deposited(community, msg.sender, amount);\n    }\n\n    function withdraw(\n        uint256 amount\n    ) external nonReentrant payable {\n        if (amount == 0) return;\n        if (stakingInfo[msg.sender].amount == 0) return;\n\n        uint256 withdrawAmount;\n        if (amount >= stakingInfo[msg.sender].amount)\n            withdrawAmount = stakingInfo[msg.sender].amount;\n        else withdrawAmount = amount;\n\n        // check fee\n        address committee = Community(payable(community)).committee();\n        uint256 fee = Committee(payable(committee)).getFee('USER');\n        require(withdrawAmount >= fee, 'Insufficient fee');\n        Community(payable(community)).updatePools{value: fee}(\"USER\", msg.sender);\n\n        // trigger community update all pool staking info\n        uint256 pending = stakingInfo[msg.sender]\n            .amount\n            .mul(ICommunity(community).getShareAcc(address(this)))\n            .div(1e12)\n            .sub(ICommunity(community).getUserDebt(address(this), msg.sender));\n        if (pending > 0) {\n            ICommunity(community).appendUserReward(msg.sender, pending);\n        }\n\n        // releaseERC20(stakeToken, address(msg.sender), withdrawAmount);\n        (bool success, ) = msg.sender.call{value: withdrawAmount - fee}('');\n        require(success, \"Withdraw fail\");\n\n        stakingInfo[msg.sender].amount = stakingInfo[msg.sender]\n            .amount\n            .sub(withdrawAmount);\n        totalStakedAmount = totalStakedAmount\n            .sub(withdrawAmount);\n\n        ICommunity(community).setUserDebt(\n            msg.sender,\n            stakingInfo[msg.sender]\n            .amount\n            .mul(ICommunity(community).getShareAcc(address(this)))\n            .div(1e12));\n\n        emit Withdrawn(community, msg.sender, withdrawAmount);\n    }\n\n    function getFactory() external view override returns (address) {\n        return factory;\n    }\n\n    function getCommunity() external view override returns (address) {\n        return community;\n    }\n\n    function getUserStakedAmount(address user)\n        external\n        view\n        override returns (uint256)\n    {\n        return stakingInfo[user].amount;\n    }\n\n    function getTotalStakedAmount()\n        external\n        view\n        override returns (uint256)\n    {\n        return totalStakedAmount;\n    }\n\n    function getUserDepositInfo(address user)\n        external\n        view\n        returns (StakingInfo memory)\n    {\n        return stakingInfo[user];\n    }\n}\n",
  "sourcePath": "/Users/wangxi/work/Walnut-V2/nutbox-contract/contracts/dapps/eth-staking/ETHStaking.sol",
  "compiler": {
    "name": "solc",
    "version": "0.8.0+commit.c7dfd78e.Emscripten.clang"
  },
  "schemaVersion": "3.3.4",
  "updatedAt": "2024-06-25T04:23:12.482Z",
  "devdoc": {
    "details": "Template contract of Nutbox staking pool. Every pool saves a user staking ledger of a specific staking asset. The only place that user can deposit and withdraw their staked asset. Also only user themself than withdraw their staked asset",
    "kind": "dev",
    "methods": {},
    "version": 1
  },
  "userdoc": {
    "kind": "user",
    "methods": {},
    "version": 1
  }
}