{
  "contractName": "ETHStaking",
  "abi": [
    {
      "inputs": [
        {
          "internalType": "address",
          "name": "_community",
          "type": "address"
        },
        {
          "internalType": "string",
          "name": "_name",
          "type": "string"
        }
      ],
      "stateMutability": "nonpayable",
      "type": "constructor"
    },
    {
      "anonymous": false,
      "inputs": [
        {
          "indexed": true,
          "internalType": "address",
          "name": "community",
          "type": "address"
        },
        {
          "indexed": true,
          "internalType": "address",
          "name": "who",
          "type": "address"
        },
        {
          "indexed": false,
          "internalType": "uint256",
          "name": "amount",
          "type": "uint256"
        }
      ],
      "name": "Deposited",
      "type": "event"
    },
    {
      "anonymous": false,
      "inputs": [
        {
          "indexed": true,
          "internalType": "address",
          "name": "community",
          "type": "address"
        },
        {
          "indexed": true,
          "internalType": "address",
          "name": "who",
          "type": "address"
        },
        {
          "indexed": false,
          "internalType": "uint256",
          "name": "amount",
          "type": "uint256"
        }
      ],
      "name": "Withdrawn",
      "type": "event"
    },
    {
      "inputs": [],
      "name": "name",
      "outputs": [
        {
          "internalType": "string",
          "name": "",
          "type": "string"
        }
      ],
      "stateMutability": "view",
      "type": "function"
    },
    {
      "inputs": [],
      "name": "totalStakedAmount",
      "outputs": [
        {
          "internalType": "uint256",
          "name": "",
          "type": "uint256"
        }
      ],
      "stateMutability": "view",
      "type": "function"
    },
    {
      "stateMutability": "payable",
      "type": "receive"
    },
    {
      "inputs": [],
      "name": "deposit",
      "outputs": [],
      "stateMutability": "payable",
      "type": "function"
    },
    {
      "inputs": [
        {
          "internalType": "uint256",
          "name": "amount",
          "type": "uint256"
        }
      ],
      "name": "withdraw",
      "outputs": [],
      "stateMutability": "payable",
      "type": "function"
    },
    {
      "inputs": [],
      "name": "getFactory",
      "outputs": [
        {
          "internalType": "address",
          "name": "",
          "type": "address"
        }
      ],
      "stateMutability": "view",
      "type": "function"
    },
    {
      "inputs": [],
      "name": "getCommunity",
      "outputs": [
        {
          "internalType": "address",
          "name": "",
          "type": "address"
        }
      ],
      "stateMutability": "view",
      "type": "function"
    },
    {
      "inputs": [
        {
          "internalType": "address",
          "name": "user",
          "type": "address"
        }
      ],
      "name": "getUserStakedAmount",
      "outputs": [
        {
          "internalType": "uint256",
          "name": "",
          "type": "uint256"
        }
      ],
      "stateMutability": "view",
      "type": "function"
    },
    {
      "inputs": [],
      "name": "getTotalStakedAmount",
      "outputs": [
        {
          "internalType": "uint256",
          "name": "",
          "type": "uint256"
        }
      ],
      "stateMutability": "view",
      "type": "function"
    },
    {
      "inputs": [
        {
          "internalType": "address",
          "name": "user",
          "type": "address"
        }
      ],
      "name": "getUserDepositInfo",
      "outputs": [
        {
          "components": [
            {
              "internalType": "bool",
              "name": "hasDeposited",
              "type": "bool"
            },
            {
              "internalType": "uint256",
              "name": "amount",
              "type": "uint256"
            }
          ],
          "internalType": "struct ETHStaking.StakingInfo",
          "name": "",
          "type": "tuple"
        }
      ],
      "stateMutability": "view",
      "type": "function"
    }
  ],
  "bytecode": "0x60c06040523480156200001157600080fd5b506040516200122038038062001220833981016040819052620000349162000116565b600160005533606090811b60805282901b6001600160601b03191660a05280516200006790600290602084019062000070565b5050506200028d565b8280546200007e9062000208565b90600052602060002090601f016020900481019282620000a25760008555620000ed565b82601f10620000bd57805160ff1916838001178555620000ed565b82800160010185558215620000ed579182015b82811115620000ed578251825591602001919060010190620000d0565b50620000fb929150620000ff565b5090565b5b80821115620000fb576000815560010162000100565b6000806040838503121562000129578182fd5b82516001600160a01b038116811462000140578283fd5b602084810151919350906001600160401b03808211156200015f578384fd5b818601915086601f83011262000173578384fd5b8151818111156200018857620001886200025e565b604051601f8201601f1916810185018381118282101715620001ae57620001ae6200025e565b6040528181528382018501891015620001c5578586fd5b8592505b81831015620001e85783830185015181840186015291840191620001c9565b81831115620001f957858583830101525b80955050505050509250929050565b6002810460018216806200021d57607f821691505b6020821081141562000258577f4e487b7100000000000000000000000000000000000000000000000000000000600052602260045260246000fd5b50919050565b7f4e487b7100000000000000000000000000000000000000000000000000000000600052604160045260246000fd5b60805160601c60a05160601c610f136200030d6000396000818161029601528181610304015281816103ae0152818161048d01528181610602015281816106ab015281816107a70152818161080a015281816109020152818161098b015281816109f601528181610abb0152610b64015260006107240152610f136000f3fe60806040526004361061008a5760003560e01c806388cc58e41161005957806388cc58e41461010d57806394465b211461012f578063b3a7834d1461014f578063c51db6b21461017c578063d0e30db01461019157610091565b806306fdde03146100965780632e1a7d4d146100c157806338adb6f0146100d6578063567e98f9146100f857610091565b3661009157005b600080fd5b3480156100a257600080fd5b506100ab610199565b6040516100b89190610cdb565b60405180910390f35b6100d46100cf366004610c61565b610227565b005b3480156100e257600080fd5b506100eb610716565b6040516100b89190610e15565b34801561010457600080fd5b506100eb61071c565b34801561011957600080fd5b50610122610722565b6040516100b89190610c94565b34801561013b57600080fd5b506100eb61014a366004610c1a565b610746565b34801561015b57600080fd5b5061016f61016a366004610c1a565b610765565b6040516100b89190610dfc565b34801561018857600080fd5b506101226107a5565b6100d46107c9565b600280546101a690610e8c565b80601f01602080910402602001604051908101604052809291908181526020018280546101d290610e8c565b801561021f5780601f106101f45761010080835404028352916020019161021f565b820191906000526020600020905b81548152906001019060200180831161020257829003601f168201915b505050505081565b600260005414156102535760405162461bcd60e51b815260040161024a90610d9e565b60405180910390fd5b6002600055806102625761070e565b336000908152600160208190526040909120015461027f5761070e565b60405163579dea7960e11b81526001600160a01b037f0000000000000000000000000000000000000000000000000000000000000000169063af3bd4f2906102cb903390600401610d2e565b600060405180830381600087803b1580156102e557600080fd5b505af11580156102f9573d6000803e3d6000fd5b50505050600061046e7f00000000000000000000000000000000000000000000000000000000000000006001600160a01b031663a2a00ed630336040518363ffffffff1660e01b8152600401610350929190610ca8565b60206040518083038186803b15801561036857600080fd5b505afa15801561037c573d6000803e3d6000fd5b505050506040513d601f19601f820116820180604052508101906103a09190610c79565b61046864e8d4a510006104627f00000000000000000000000000000000000000000000000000000000000000006001600160a01b031663a1a89dbc306040518263ffffffff1660e01b81526004016103f89190610c94565b60206040518083038186803b15801561041057600080fd5b505afa158015610424573d6000803e3d6000fd5b505050506040513d601f19601f820116820180604052508101906104489190610c79565b336000908152600160208190526040909120015490610bcc565b90610bdf565b90610beb565b905080156104f757604051631df36e4160e31b81526001600160a01b037f0000000000000000000000000000000000000000000000000000000000000000169063ef9b7208906104c49033908590600401610cc2565b600060405180830381600087803b1580156104de57600080fd5b505af11580156104f2573d6000803e3d6000fd5b505050505b33600090815260016020819052604082200154831061052a5750336000908152600160208190526040909120015461052d565b50815b6000336001600160a01b03168260405161054690610c91565b60006040518083038185875af1925050503d8060008114610583576040519150601f19603f3d011682016040523d82523d6000602084013e610588565b606091505b50509050806105a95760405162461bcd60e51b815260040161024a90610dd5565b33600090815260016020819052604090912001546105c79083610beb565b33600090815260016020819052604090912001556003546105e89083610beb565b60035560405163286a276f60e21b81526001600160a01b037f0000000000000000000000000000000000000000000000000000000000000000169063bf16c3c29033906106509064e8d4a510009061046290869063a1a89dbc906103f8903090600401610c94565b6040518363ffffffff1660e01b815260040161066d929190610cc2565b600060405180830381600087803b15801561068757600080fd5b505af115801561069b573d6000803e3d6000fd5b50505050336001600160a01b03167f00000000000000000000000000000000000000000000000000000000000000006001600160a01b03167fd1c19fbcd4551a5edfb66d43d2e337c04837afda3482b42bdf569a8fccdae5fb846040516107029190610e15565b60405180910390a35050505b506001600055565b60035490565b60035481565b7f000000000000000000000000000000000000000000000000000000000000000090565b6001600160a01b03166000908152600160208190526040909120015490565b61076d610c03565b506001600160a01b03166000908152600160208181526040928390208351808501909452805460ff1615158452909101549082015290565b7f000000000000000000000000000000000000000000000000000000000000000090565b600260005414156107ec5760405162461bcd60e51b815260040161024a90610d9e565b6002600055604051634c7b4f4d60e11b815234906001600160a01b037f000000000000000000000000000000000000000000000000000000000000000016906398f69e9a9061083f903090600401610c94565b60206040518083038186803b15801561085757600080fd5b505afa15801561086b573d6000803e3d6000fd5b505050506040513d601f19601f8201168201806040525081019061088f9190610c41565b6108ab5760405162461bcd60e51b815260040161024a90610d5d565b806108b65750610bc5565b3360009081526001602052604090205460ff166108eb573360009081526001602081905260408220805460ff19168217815501555b60405163579dea7960e11b81526001600160a01b037f0000000000000000000000000000000000000000000000000000000000000000169063af3bd4f290610937903390600401610d2e565b600060405180830381600087803b15801561095157600080fd5b505af1158015610965573d6000803e3d6000fd5b50503360009081526001602081905260409091200154159150610a6290505760006109d77f00000000000000000000000000000000000000000000000000000000000000006001600160a01b031663a2a00ed630336040518363ffffffff1660e01b8152600401610350929190610ca8565b90508015610a6057604051631df36e4160e31b81526001600160a01b037f0000000000000000000000000000000000000000000000000000000000000000169063ef9b720890610a2d9033908590600401610cc2565b600060405180830381600087803b158015610a4757600080fd5b505af1158015610a5b573d6000803e3d6000fd5b505050505b505b3360009081526001602081905260409091200154610a809082610bf7565b3360009081526001602081905260409091200155600354610aa19082610bf7565b60035560405163286a276f60e21b81526001600160a01b037f0000000000000000000000000000000000000000000000000000000000000000169063bf16c3c2903390610b099064e8d4a510009061046290869063a1a89dbc906103f8903090600401610c94565b6040518363ffffffff1660e01b8152600401610b26929190610cc2565b600060405180830381600087803b158015610b4057600080fd5b505af1158015610b54573d6000803e3d6000fd5b50505050336001600160a01b03167f00000000000000000000000000000000000000000000000000000000000000006001600160a01b03167f8752a472e571a816aea92eec8dae9baf628e840f4929fbcc2d155e6233ff68a783604051610bbb9190610e15565b60405180910390a3505b6001600055565b6000610bd88284610e56565b9392505050565b6000610bd88284610e36565b6000610bd88284610e75565b6000610bd88284610e1e565b604080518082019091526000808252602082015290565b600060208284031215610c2b578081fd5b81356001600160a01b0381168114610bd8578182fd5b600060208284031215610c52578081fd5b81518015158114610bd8578182fd5b600060208284031215610c72578081fd5b5035919050565b600060208284031215610c8a578081fd5b5051919050565b90565b6001600160a01b0391909116815260200190565b6001600160a01b0392831681529116602082015260400190565b6001600160a01b03929092168252602082015260400190565b6000602080835283518082850152825b81811015610d0757858101830151858201604001528201610ceb565b81811115610d185783604083870101525b50601f01601f1916929092016040019392505050565b6040808252600490820152632aa9a2a960e11b60608201526001600160a01b0391909116602082015260800190565b60208082526021908201527f43616e206e6f74206465706f73697420746f206120636c6f73656420706f6f6c6040820152601760f91b606082015260800190565b6020808252601f908201527f5265656e7472616e637947756172643a207265656e7472616e742063616c6c00604082015260600190565b6020808252600d908201526c15da5d1a191c985dc819985a5b609a1b604082015260600190565b8151151581526020918201519181019190915260400190565b90815260200190565b60008219821115610e3157610e31610ec7565b500190565b600082610e5157634e487b7160e01b81526012600452602481fd5b500490565b6000816000190483118215151615610e7057610e70610ec7565b500290565b600082821015610e8757610e87610ec7565b500390565b600281046001821680610ea057607f821691505b60208210811415610ec157634e487b7160e01b600052602260045260246000fd5b50919050565b634e487b7160e01b600052601160045260246000fdfea26469706673582212202e11f992bb51a97d53853d501c2b6a833a6ff37988f55ebf19743fe0328fdc5b64736f6c63430008000033",
  "immutableReferences": {
    "10269": [
      {
        "length": 32,
        "start": 1828
      }
    ],
    "10278": [
      {
        "length": 32,
        "start": 662
      },
      {
        "length": 32,
        "start": 772
      },
      {
        "length": 32,
        "start": 942
      },
      {
        "length": 32,
        "start": 1165
      },
      {
        "length": 32,
        "start": 1538
      },
      {
        "length": 32,
        "start": 1707
      },
      {
        "length": 32,
        "start": 1959
      },
      {
        "length": 32,
        "start": 2058
      },
      {
        "length": 32,
        "start": 2306
      },
      {
        "length": 32,
        "start": 2443
      },
      {
        "length": 32,
        "start": 2550
      },
      {
        "length": 32,
        "start": 2747
      },
      {
        "length": 32,
        "start": 2916
      }
    ]
  },
  "source": "// SPDX-License-Identifier: MIT\n\npragma solidity 0.8.0;\npragma experimental ABIEncoderV2;\n\nimport \"@openzeppelin/contracts/utils/math/SafeMath.sol\";\nimport \"@openzeppelin/contracts/security/ReentrancyGuard.sol\";\nimport \"../../interfaces/ICommunity.sol\";\nimport \"../../interfaces/IPool.sol\";\nimport \"../../ERC20Helper.sol\";\n\n/**\n * @dev Template contract of Nutbox staking pool.\n *\n * Every pool saves a user staking ledger of a specific staking asset.\n * The only place that user can deposit and withdraw their staked asset.\n * Also only user themself than withdraw their staked asset\n */\ncontract ETHStaking is IPool, ERC20Helper, ReentrancyGuard {\n    using SafeMath for uint256;\n\n    struct StakingInfo {\n        // First time when user staking, we need set options like userDebt to zero\n        bool hasDeposited;\n        // User staked amount\n        uint256 amount;\n    }\n    address immutable factory;\n\n    // stakingInfo used to save every user's staking information,\n    // including how many they deposited and its external chain account\n    // ( we support crosschain asset staking). With every staking event\n    // happened including deposit and withdraw asset this field should be updated.\n    mapping(address => StakingInfo) stakingInfo;\n\n    string public name;\n\n    // community that pool belongs to\n    address immutable community;\n\n    // Total staked amount\n    uint256 public totalStakedAmount;\n\n    event Deposited(\n        address indexed community,\n        address indexed who,\n        uint256 amount\n    );\n    event Withdrawn(\n        address indexed community,\n        address indexed who,\n        uint256 amount\n    );\n\n    constructor(address _community, string memory _name) {\n        factory = msg.sender;\n        community = _community;\n        name = _name;\n    }\n\n    receive() external payable {}\n\n    function deposit() external nonReentrant payable {\n        uint256 amount = msg.value;\n        require(ICommunity(community).poolActived(address(this)), 'Can not deposit to a closed pool.');\n        if (amount == 0) return;\n\n        // Add to staking list if account hasn't deposited before\n        if (!stakingInfo[msg.sender].hasDeposited) {\n            stakingInfo[msg.sender].hasDeposited = true;\n            stakingInfo[msg.sender].amount = 0;\n        }\n\n        // trigger community update all pool staking info\n        ICommunity(community).updatePools(\"USER\", msg.sender);\n\n        if (stakingInfo[msg.sender].amount > 0) {\n            uint256 pending = stakingInfo[msg.sender]\n                .amount\n                .mul(ICommunity(community).getShareAcc(address(this)))\n                .div(1e12)\n                .sub(ICommunity(community).getUserDebt(address(this), msg.sender));\n            if (pending > 0) {\n                ICommunity(community).appendUserReward(msg.sender, pending);\n            }\n        }\n\n        stakingInfo[msg.sender].amount = stakingInfo[msg.sender]\n            .amount\n            .add(amount);\n        totalStakedAmount = totalStakedAmount\n            .add(amount);\n\n        ICommunity(community).setUserDebt(\n            msg.sender,\n            stakingInfo[msg.sender]\n            .amount\n            .mul(ICommunity(community).getShareAcc(address(this)))\n            .div(1e12));\n\n        emit Deposited(community, msg.sender, amount);\n    }\n\n    function withdraw(\n        uint256 amount\n    ) external nonReentrant payable {\n        if (amount == 0) return;\n        if (stakingInfo[msg.sender].amount == 0) return;\n\n        // trigger community update all pool staking info\n        ICommunity(community).updatePools(\"USER\", msg.sender);\n\n        uint256 pending = stakingInfo[msg.sender]\n            .amount\n            .mul(ICommunity(community).getShareAcc(address(this)))\n            .div(1e12)\n            .sub(ICommunity(community).getUserDebt(address(this), msg.sender));\n        if (pending > 0) {\n            ICommunity(community).appendUserReward(msg.sender, pending);\n        }\n\n        uint256 withdrawAmount;\n        if (amount >= stakingInfo[msg.sender].amount)\n            withdrawAmount = stakingInfo[msg.sender].amount;\n        else withdrawAmount = amount;\n\n        // releaseERC20(stakeToken, address(msg.sender), withdrawAmount);\n        (bool success, ) = msg.sender.call{value: withdrawAmount}('');\n        require(success, \"Withdraw fail\");\n\n        stakingInfo[msg.sender].amount = stakingInfo[msg.sender]\n            .amount\n            .sub(withdrawAmount);\n        totalStakedAmount = totalStakedAmount\n            .sub(withdrawAmount);\n\n        ICommunity(community).setUserDebt(\n            msg.sender,\n            stakingInfo[msg.sender]\n            .amount\n            .mul(ICommunity(community).getShareAcc(address(this)))\n            .div(1e12));\n\n        emit Withdrawn(community, msg.sender, withdrawAmount);\n    }\n\n    function getFactory() external view override returns (address) {\n        return factory;\n    }\n\n    function getCommunity() external view override returns (address) {\n        return community;\n    }\n\n    function getUserStakedAmount(address user)\n        external\n        view\n        override returns (uint256)\n    {\n        return stakingInfo[user].amount;\n    }\n\n    function getTotalStakedAmount()\n        external\n        view\n        override returns (uint256)\n    {\n        return totalStakedAmount;\n    }\n\n    function getUserDepositInfo(address user)\n        external\n        view\n        returns (StakingInfo memory)\n    {\n        return stakingInfo[user];\n    }\n}\n",
  "sourcePath": "/Users/wangxi/work/Walnut-V2/nutbox-contract/contracts/dapps/eth-staking/ETHStaking.sol",
  "compiler": {
    "name": "solc",
    "version": "0.8.0+commit.c7dfd78e.Emscripten.clang"
  },
  "schemaVersion": "3.3.4",
  "updatedAt": "2024-06-20T10:15:12.511Z",
  "devdoc": {
    "details": "Template contract of Nutbox staking pool. Every pool saves a user staking ledger of a specific staking asset. The only place that user can deposit and withdraw their staked asset. Also only user themself than withdraw their staked asset",
    "kind": "dev",
    "methods": {},
    "version": 1
  },
  "userdoc": {
    "kind": "user",
    "methods": {},
    "version": 1
  }
}