{
  "contractName": "Gauge",
  "abi": [
    {
      "inputs": [
        {
          "internalType": "address",
          "name": "_communityFactory",
          "type": "address"
        },
        {
          "internalType": "uint16",
          "name": "_gaugeRatio",
          "type": "uint16"
        },
        {
          "components": [
            {
              "internalType": "uint16",
              "name": "community",
              "type": "uint16"
            },
            {
              "internalType": "uint16",
              "name": "poolFactory",
              "type": "uint16"
            },
            {
              "internalType": "uint16",
              "name": "user",
              "type": "uint16"
            }
          ],
          "internalType": "struct Gauge.DistributionRatio",
          "name": "ratios",
          "type": "tuple"
        },
        {
          "internalType": "address",
          "name": "_NP",
          "type": "address"
        },
        {
          "internalType": "address",
          "name": "_nut",
          "type": "address"
        }
      ],
      "stateMutability": "nonpayable",
      "type": "constructor"
    },
    {
      "anonymous": false,
      "inputs": [
        {
          "indexed": true,
          "internalType": "uint16",
          "name": "gaugeRatio",
          "type": "uint16"
        }
      ],
      "name": "AdminSetDappGaugeRatio",
      "type": "event"
    },
    {
      "anonymous": false,
      "inputs": [
        {
          "indexed": false,
          "internalType": "uint16",
          "name": "community",
          "type": "uint16"
        },
        {
          "indexed": false,
          "internalType": "uint16",
          "name": "poolFactory",
          "type": "uint16"
        },
        {
          "indexed": false,
          "internalType": "uint16",
          "name": "user",
          "type": "uint16"
        }
      ],
      "name": "AdminSetNutDistributionRatio",
      "type": "event"
    },
    {
      "anonymous": false,
      "inputs": [
        {
          "indexed": true,
          "internalType": "uint256",
          "name": "nutRewardPerBlock",
          "type": "uint256"
        }
      ],
      "name": "AdminSetNutRewardPerBlock",
      "type": "event"
    },
    {
      "anonymous": false,
      "inputs": [
        {
          "indexed": true,
          "internalType": "uint256",
          "name": "rewardPerBlock",
          "type": "uint256"
        }
      ],
      "name": "AdminSetRewardNUTPerBlock",
      "type": "event"
    },
    {
      "anonymous": false,
      "inputs": [
        {
          "indexed": true,
          "internalType": "address",
          "name": "pool",
          "type": "address"
        },
        {
          "indexed": true,
          "internalType": "address",
          "name": "recipient",
          "type": "address"
        },
        {
          "indexed": false,
          "internalType": "uint256",
          "name": "amount",
          "type": "uint256"
        }
      ],
      "name": "CTokenWithdrawn",
      "type": "event"
    },
    {
      "anonymous": false,
      "inputs": [
        {
          "indexed": true,
          "internalType": "address",
          "name": "community",
          "type": "address"
        },
        {
          "indexed": true,
          "internalType": "address",
          "name": "recipient",
          "type": "address"
        },
        {
          "indexed": false,
          "internalType": "uint256",
          "name": "amount",
          "type": "uint256"
        }
      ],
      "name": "CommunityWithdrewNut",
      "type": "event"
    },
    {
      "anonymous": false,
      "inputs": [
        {
          "indexed": true,
          "internalType": "address",
          "name": "community",
          "type": "address"
        },
        {
          "indexed": true,
          "internalType": "address",
          "name": "factory",
          "type": "address"
        },
        {
          "indexed": true,
          "internalType": "address",
          "name": "pool",
          "type": "address"
        }
      ],
      "name": "CreateNewGauge",
      "type": "event"
    },
    {
      "anonymous": false,
      "inputs": [
        {
          "indexed": true,
          "internalType": "address",
          "name": "previousOwner",
          "type": "address"
        },
        {
          "indexed": true,
          "internalType": "address",
          "name": "newOwner",
          "type": "address"
        }
      ],
      "name": "OwnershipTransferred",
      "type": "event"
    },
    {
      "anonymous": false,
      "inputs": [
        {
          "indexed": true,
          "internalType": "address",
          "name": "poolFactory",
          "type": "address"
        },
        {
          "indexed": true,
          "internalType": "address",
          "name": "recipient",
          "type": "address"
        },
        {
          "indexed": false,
          "internalType": "uint256",
          "name": "amount",
          "type": "uint256"
        }
      ],
      "name": "PoolFactoryWithdrewNut",
      "type": "event"
    },
    {
      "anonymous": false,
      "inputs": [
        {
          "indexed": true,
          "internalType": "address",
          "name": "community",
          "type": "address"
        },
        {
          "indexed": true,
          "internalType": "address",
          "name": "factory",
          "type": "address"
        },
        {
          "indexed": true,
          "internalType": "address",
          "name": "pool",
          "type": "address"
        },
        {
          "indexed": false,
          "internalType": "address",
          "name": "user",
          "type": "address"
        },
        {
          "indexed": false,
          "internalType": "uint256",
          "name": "amount",
          "type": "uint256"
        }
      ],
      "name": "Unvoted",
      "type": "event"
    },
    {
      "anonymous": false,
      "inputs": [
        {
          "indexed": true,
          "internalType": "address",
          "name": "community",
          "type": "address"
        },
        {
          "indexed": true,
          "internalType": "address",
          "name": "factory",
          "type": "address"
        },
        {
          "indexed": true,
          "internalType": "address",
          "name": "pool",
          "type": "address"
        },
        {
          "indexed": false,
          "internalType": "uint256",
          "name": "amount",
          "type": "uint256"
        }
      ],
      "name": "UpdateLedger",
      "type": "event"
    },
    {
      "anonymous": false,
      "inputs": [
        {
          "indexed": true,
          "internalType": "address",
          "name": "pool",
          "type": "address"
        },
        {
          "indexed": true,
          "internalType": "address",
          "name": "recipient",
          "type": "address"
        },
        {
          "indexed": false,
          "internalType": "uint256",
          "name": "amount",
          "type": "uint256"
        }
      ],
      "name": "UserWithdrewNut",
      "type": "event"
    },
    {
      "anonymous": false,
      "inputs": [
        {
          "indexed": true,
          "internalType": "address",
          "name": "community",
          "type": "address"
        },
        {
          "indexed": true,
          "internalType": "address",
          "name": "factory",
          "type": "address"
        },
        {
          "indexed": true,
          "internalType": "address",
          "name": "pool",
          "type": "address"
        },
        {
          "indexed": false,
          "internalType": "address",
          "name": "user",
          "type": "address"
        },
        {
          "indexed": false,
          "internalType": "uint256",
          "name": "amount",
          "type": "uint256"
        }
      ],
      "name": "Voted",
      "type": "event"
    },
    {
      "inputs": [
        {
          "internalType": "address",
          "name": "",
          "type": "address"
        }
      ],
      "name": "communityTotalLockedNP",
      "outputs": [
        {
          "internalType": "uint256",
          "name": "",
          "type": "uint256"
        }
      ],
      "stateMutability": "view",
      "type": "function"
    },
    {
      "inputs": [],
      "name": "distributionRatio",
      "outputs": [
        {
          "internalType": "uint16",
          "name": "community",
          "type": "uint16"
        },
        {
          "internalType": "uint16",
          "name": "poolFactory",
          "type": "uint16"
        },
        {
          "internalType": "uint16",
          "name": "user",
          "type": "uint16"
        }
      ],
      "stateMutability": "view",
      "type": "function"
    },
    {
      "inputs": [],
      "name": "gaugeRatio",
      "outputs": [
        {
          "internalType": "uint16",
          "name": "",
          "type": "uint16"
        }
      ],
      "stateMutability": "view",
      "type": "function"
    },
    {
      "inputs": [],
      "name": "owner",
      "outputs": [
        {
          "internalType": "address",
          "name": "",
          "type": "address"
        }
      ],
      "stateMutability": "view",
      "type": "function"
    },
    {
      "inputs": [
        {
          "internalType": "address",
          "name": "",
          "type": "address"
        }
      ],
      "name": "poolFactoryTotalLockedNP",
      "outputs": [
        {
          "internalType": "uint256",
          "name": "",
          "type": "uint256"
        }
      ],
      "stateMutability": "view",
      "type": "function"
    },
    {
      "inputs": [],
      "name": "renounceOwnership",
      "outputs": [],
      "stateMutability": "nonpayable",
      "type": "function"
    },
    {
      "inputs": [],
      "name": "rewardNUTPerBlock",
      "outputs": [
        {
          "internalType": "uint256",
          "name": "",
          "type": "uint256"
        }
      ],
      "stateMutability": "view",
      "type": "function"
    },
    {
      "inputs": [],
      "name": "totalLockedNP",
      "outputs": [
        {
          "internalType": "uint256",
          "name": "",
          "type": "uint256"
        }
      ],
      "stateMutability": "view",
      "type": "function"
    },
    {
      "inputs": [
        {
          "internalType": "address",
          "name": "newOwner",
          "type": "address"
        }
      ],
      "name": "transferOwnership",
      "outputs": [],
      "stateMutability": "nonpayable",
      "type": "function"
    },
    {
      "inputs": [
        {
          "internalType": "address",
          "name": "pool",
          "type": "address"
        }
      ],
      "name": "hasGaugeEnabled",
      "outputs": [
        {
          "internalType": "bool",
          "name": "",
          "type": "bool"
        }
      ],
      "stateMutability": "nonpayable",
      "type": "function"
    },
    {
      "inputs": [
        {
          "internalType": "uint16",
          "name": "_gaugeRatio",
          "type": "uint16"
        }
      ],
      "name": "adminSetGaugeRatio",
      "outputs": [],
      "stateMutability": "nonpayable",
      "type": "function"
    },
    {
      "inputs": [],
      "name": "getGaugeRatio",
      "outputs": [
        {
          "internalType": "uint16",
          "name": "",
          "type": "uint16"
        }
      ],
      "stateMutability": "view",
      "type": "function"
    },
    {
      "inputs": [
        {
          "internalType": "uint256",
          "name": "reward",
          "type": "uint256"
        }
      ],
      "name": "adminSetRewardNUTPerBlock",
      "outputs": [],
      "stateMutability": "nonpayable",
      "type": "function"
    },
    {
      "inputs": [
        {
          "components": [
            {
              "internalType": "uint16",
              "name": "community",
              "type": "uint16"
            },
            {
              "internalType": "uint16",
              "name": "poolFactory",
              "type": "uint16"
            },
            {
              "internalType": "uint16",
              "name": "user",
              "type": "uint16"
            }
          ],
          "internalType": "struct Gauge.DistributionRatio",
          "name": "ratios",
          "type": "tuple"
        }
      ],
      "name": "adminSetNutDistributionRatio",
      "outputs": [],
      "stateMutability": "nonpayable",
      "type": "function"
    },
    {
      "inputs": [
        {
          "internalType": "address",
          "name": "community",
          "type": "address"
        },
        {
          "internalType": "address",
          "name": "pool",
          "type": "address"
        },
        {
          "internalType": "uint256",
          "name": "amount",
          "type": "uint256"
        }
      ],
      "name": "updateLedger",
      "outputs": [],
      "stateMutability": "nonpayable",
      "type": "function"
    },
    {
      "inputs": [
        {
          "internalType": "address",
          "name": "community",
          "type": "address"
        },
        {
          "internalType": "address",
          "name": "pool",
          "type": "address"
        }
      ],
      "name": "addNewGauge",
      "outputs": [],
      "stateMutability": "nonpayable",
      "type": "function"
    },
    {
      "inputs": [
        {
          "internalType": "address",
          "name": "pool",
          "type": "address"
        },
        {
          "internalType": "uint256",
          "name": "amount",
          "type": "uint256"
        }
      ],
      "name": "vote",
      "outputs": [],
      "stateMutability": "nonpayable",
      "type": "function"
    },
    {
      "inputs": [
        {
          "internalType": "address",
          "name": "pool",
          "type": "address"
        },
        {
          "internalType": "uint256",
          "name": "amount",
          "type": "uint256"
        }
      ],
      "name": "unvote",
      "outputs": [],
      "stateMutability": "nonpayable",
      "type": "function"
    },
    {
      "inputs": [
        {
          "internalType": "address",
          "name": "pool",
          "type": "address"
        }
      ],
      "name": "userWithdrawReward",
      "outputs": [],
      "stateMutability": "nonpayable",
      "type": "function"
    },
    {
      "inputs": [
        {
          "internalType": "address",
          "name": "community",
          "type": "address"
        }
      ],
      "name": "communityWithdrawNut",
      "outputs": [],
      "stateMutability": "nonpayable",
      "type": "function"
    },
    {
      "inputs": [
        {
          "internalType": "address",
          "name": "factory",
          "type": "address"
        }
      ],
      "name": "poolFactoryWithdrawNut",
      "outputs": [],
      "stateMutability": "nonpayable",
      "type": "function"
    },
    {
      "inputs": [
        {
          "internalType": "address",
          "name": "pool",
          "type": "address"
        },
        {
          "internalType": "address",
          "name": "user",
          "type": "address"
        }
      ],
      "name": "getUserPendingReward",
      "outputs": [
        {
          "internalType": "uint256",
          "name": "rewardNut",
          "type": "uint256"
        },
        {
          "internalType": "uint256",
          "name": "rewardCToken",
          "type": "uint256"
        }
      ],
      "stateMutability": "view",
      "type": "function"
    },
    {
      "inputs": [
        {
          "internalType": "address",
          "name": "pool",
          "type": "address"
        },
        {
          "internalType": "address",
          "name": "user",
          "type": "address"
        }
      ],
      "name": "getUserLocked",
      "outputs": [
        {
          "internalType": "uint256",
          "name": "locked",
          "type": "uint256"
        }
      ],
      "stateMutability": "view",
      "type": "function"
    },
    {
      "inputs": [
        {
          "internalType": "address",
          "name": "pool",
          "type": "address"
        }
      ],
      "name": "getLockedNpInGauge",
      "outputs": [
        {
          "internalType": "uint256",
          "name": "totalLocked",
          "type": "uint256"
        }
      ],
      "stateMutability": "view",
      "type": "function"
    },
    {
      "inputs": [
        {
          "internalType": "address",
          "name": "community",
          "type": "address"
        }
      ],
      "name": "getCommunityPendingRewardNut",
      "outputs": [
        {
          "internalType": "uint256",
          "name": "rewardNut",
          "type": "uint256"
        }
      ],
      "stateMutability": "view",
      "type": "function"
    },
    {
      "inputs": [
        {
          "internalType": "address",
          "name": "factory",
          "type": "address"
        }
      ],
      "name": "getPoolFactoryPendingRewardNut",
      "outputs": [
        {
          "internalType": "uint256",
          "name": "rewardNut",
          "type": "uint256"
        }
      ],
      "stateMutability": "view",
      "type": "function"
    },
    {
      "inputs": [],
      "name": "blockNum",
      "outputs": [
        {
          "internalType": "uint256",
          "name": "",
          "type": "uint256"
        }
      ],
      "stateMutability": "view",
      "type": "function"
    }
  ],
  "bytecode": "0x60e06040523480156200001157600080fd5b506040516200396c3803806200396c833981016040819052620000349162000281565b6200004862000042620001fd565b62000201565b600180556001600160a01b03851662000098576040517f08c379a00000000000000000000000000000000000000000000000000000000081526004016200008f90620003b0565b60405180910390fd5b6040830151602084015184516127109291620000b49162000405565b620000c0919062000405565b61ffff1614620000fe576040517f08c379a00000000000000000000000000000000000000000000000000000000081526004016200008f9062000379565b825160098054602086015160408088015161ffff1993841661ffff9687161763ffff0000191662010000938716939093029290921761ffff60201b19166401000000009286169290920291909117909255606088811b6001600160601b031990811660c0526002805490931694891694851790925585811b821660805284901b1660a052517fc1e21f86eeaf8282626597cc4a0157034066e12cb0a37eeffd899e6975884f3090600090a27fcaa41cb22bf5f5f46f725bd8caf9e7a27fa5a6c40ed3e1b96ce9507d8190fc61836000015184602001518560400151604051620001ea93929190620003e7565b60405180910390a1505050505062000451565b3390565b600080546001600160a01b038381166001600160a01b0319831681178455604051919092169283917f8be0079c531659141344cd1fd0a4f28419497f9722a3daafe3b4186f6b6457e09190a35050565b80516001600160a01b03811681146200026957600080fd5b919050565b805161ffff811681146200026957600080fd5b600080600080600085870360e08112156200029a578182fd5b620002a58762000251565b9550620002b5602088016200026e565b94506060603f1982011215620002c9578182fd5b50604051606081016001600160401b038111828210171562000312577f4e487b710000000000000000000000000000000000000000000000000000000083526041600452602483fd5b806040525062000325604088016200026e565b815262000335606088016200026e565b602082015262000348608088016200026e565b604082015292506200035d60a0870162000251565b91506200036d60c0870162000251565b90509295509295909350565b6020808252601d908201527f53756d206f6620726174696f732073686f756c64206265203130303030000000604082015260600190565b6020808252601a908201527f496e76616c69646520636f6d6d756e69747920666163746f7279000000000000604082015260600190565b61ffff93841681529183166020830152909116604082015260600190565b600061ffff80831681851680830382111562000448577f4e487b710000000000000000000000000000000000000000000000000000000084526011600452602484fd5b01949350505050565b60805160601c60a05160601c60c05160601c6134b1620004bb6000396000818161212a015261243a015260008181610be401528181610ca7015281816112500152818161131301528181611ec70152611f8a015260008181610799015261188501526134b16000f3fe608060405234801561001057600080fd5b50600436106101a95760003560e01c80638ae63d6d116100f9578063c0a32c8b11610097578063d5cb5f8511610071578063d5cb5f8514610372578063ecd4f84d14610385578063efcbc6671461038d578063f2fde38b146103a0576101a9565b8063c0a32c8b14610339578063cc3fded41461034c578063cdeb50c01461035f576101a9565b8063988a783b116100d3578063988a783b146102e0578063a0ea9423146102f3578063adb5f83c14610306578063b5e084d114610326576101a9565b80638ae63d6d146102bb5780638da5cb5b146102c357806396edb49a146102d8576101a9565b80634b6b0fc2116101665780635f74bbde116101405780635f74bbde1461027a5780636a22da951461028d578063715018a6146102a057806373403a01146102a8576101a9565b80634b6b0fc214610234578063577a3936146102545780635956df9914610267576101a9565b806302aa9be2146101ae5780630f4bba7f146101c35780631613250a146101d6578063193a14d614610200578063328686f6146102175780633ac5e6c11461022c575b600080fd5b6101c16101bc366004612e3f565b6103b3565b005b6101c16101d1366004612d8f565b610aa3565b6101e96101e4366004612dc7565b610d6c565b6040516101f79291906133ae565b60405180910390f35b610208610f7d565b6040516101f793929190613387565b61021f610f9d565b6040516101f79190613378565b61021f610fa7565b610247610242366004612d8f565b610fb1565b6040516101f791906133a5565b610247610262366004612dc7565b611049565b6101c1610275366004612d8f565b6110b9565b6101c1610288366004612e3f565b6114c6565b6101c161029b366004612f1b565b611b7c565b6101c1611bf6565b6101c16102b6366004612f01565b611c41565b610247611ce6565b6102cb611d5f565b6040516101f79190612f84565b610247611d6e565b6102476102ee366004612d8f565b611d74565b6101c1610301366004612d8f565b611d86565b610319610314366004612d8f565b61203e565b6040516101f79190612fb1565b610247610334366004612d8f565b612060565b6101c1610347366004612dc7565b612072565b6101c161035a366004612dff565b612423565b6101c161036d366004612e8a565b6126d5565b610247610380366004612d8f565b6127e9565b610247612876565b61024761039b366004612d8f565b61287c565b6101c16103ae366004612d8f565b61289a565b600260015414156103df5760405162461bcd60e51b81526004016103d690613341565b60405180910390fd5b60026001556001600160a01b0382166000908152600a6020908152604080832033845260070190915290205460ff1661042a5760405162461bcd60e51b81526004016103d690613061565b8061043457610a9b565b61043c61290b565b61044582612951565b6001600160a01b038083166000908152600a60209081526040808320805460018083015433875260079093019094529190932090910154610100909104831692919091169083106104bf576001600160a01b0384166000908152600a602090815260408083203384526007019091529020600101546104c1565b825b6001600160a01b0385166000908152600a6020908152604080832033845260070190915290206001015490935015610642576001600160a01b0384166000908152600a602090815260408083203384526007019091528120600381015460055460019092015461054c926105469164e8d4a51000916105409190612a7d565b90612a90565b90612a9c565b6001600160a01b0386166000908152600a60209081526040808320338452600781019092528220600581015460039092015460019091015493945091926105a2926105469164e8d4a51000916105409190612a7d565b6001600160a01b0387166000908152600a602090815260408083203384526007019091529020600201549091506105d99083612aa8565b6001600160a01b0387166000908152600a6020908152604080832033845260070190915290206002810191909155600401546106159082612aa8565b6001600160a01b0387166000908152600a6020908152604080832033845260070190915290206004015550505b6001600160a01b0382166000908152600b6020526040902054156106e2576001600160a01b0382166000908152600f6020908152604080832054600754600b909352908320546106a1926105469164e8d4a51000916105409190612a7d565b6001600160a01b0384166000908152600d60205260409020549091506106c79082612aa8565b6001600160a01b0384166000908152600d6020526040902055505b6001600160a01b0381166000908152600c602052604090205415610782576001600160a01b038116600090815260106020908152604080832054600654600c90935290832054610741926105469164e8d4a51000916105409190612a7d565b6001600160a01b0383166000908152600e60205260409020549091506107679082612aa8565b6001600160a01b0383166000908152600e6020526040902055505b604051637eee288d60e01b81526001600160a01b037f00000000000000000000000000000000000000000000000000000000000000001690637eee288d906107d09033908790600401612f98565b600060405180830381600087803b1580156107ea57600080fd5b505af11580156107fe573d6000803e3d6000fd5b5050506001600160a01b0385166000908152600a60209081526040808320338452600701909152902060010154610836915084612a9c565b6001600160a01b0385166000818152600a6020818152604080842033855260078101835290842060010195909555929091529052600601546108789084612a9c565b6001600160a01b038086166000908152600a60209081526040808320600601949094559185168152600b90915220546108b19084612a9c565b6001600160a01b038084166000908152600b60209081526040808320949094559184168152600c90915220546108e79084612a9c565b6001600160a01b0382166000908152600c602052604090205560085461090d9084612a9c565b6008556005546001600160a01b0385166000908152600a602090815260408083203384526007019091529020600101546109519164e8d4a510009161054091612a7d565b6001600160a01b0385166000908152600a602090815260408083203384526007810190925290912060038082019390935591015460019091015461099f9164e8d4a510009161054091612a7d565b6001600160a01b038086166000908152600a60209081526040808320338452600790810183528184206005019590955593549286168252600b905291909120546109f39164e8d4a510009161054091612a7d565b6001600160a01b038084166000908152600f60209081526040808320949094556006549285168252600c90529190912054610a389164e8d4a510009161054091612a7d565b6001600160a01b038083166000818152601060205260409081902093909355915186821692918516907f4b165e1c14d0cdd7d2fbe27945f3417f5fe4da6f02b5b8ec3b915392505b2b8690610a909033908990612f98565b60405180910390a450505b505060018055565b60026001541415610ac65760405162461bcd60e51b81526004016103d690613341565b6002600181905550336001600160a01b0316816001600160a01b0316638da5cb5b6040518163ffffffff1660e01b815260040160206040518083038186803b158015610b1157600080fd5b505afa158015610b25573d6000803e3d6000fd5b505050506040513d601f19601f82011682018060405250810190610b499190612dab565b6001600160a01b031614610b6f5760405162461bcd60e51b81526004016103d6906131a8565b610b7761290b565b6001600160a01b0381166000908152600f6020908152604080832054600754600b90935290832054610bb8926105469164e8d4a51000916105409190612a7d565b6001600160a01b0383166000908152600d602052604081205491925090610bdf9083612aa8565b9050807f00000000000000000000000000000000000000000000000000000000000000006001600160a01b03166370a08231306040518263ffffffff1660e01b8152600401610c2e9190612f84565b60206040518083038186803b158015610c4657600080fd5b505afa158015610c5a573d6000803e3d6000fd5b505050506040513d601f19601f82011682018060405250810190610c7e9190612f33565b1015610c9c5760405162461bcd60e51b81526004016103d6906132a9565b8015610ccd57610ccd7f00000000000000000000000000000000000000000000000000000000000000003383612ab4565b6001600160a01b0383166000908152600d60209081526040808320839055600754600b90925290912054610d0b9164e8d4a510009161054091612a7d565b6001600160a01b0384166000818152600f6020526040908190209290925590513391907faa2bc99b8e0f4d7c97f94d36d5273baad8f19ea0514903cf463b4f80dd4be8df90610d5b9085906133a5565b60405180910390a350506001805550565b6001600160a01b038083166000908152600a6020908152604080832093851683526007909301905290812054819060ff16610dac57506000905080610f76565b600854610de7576001600160a01b038085166000908152600a6020908152604080832093871683526007909301905220600201549150610e57565b6000610df1612ac6565b6001600160a01b038881166000908152600a60209081526040808320938b168352600790930190522060028101546003820154600190920154929550610e5394509250610e4d916105469064e8d4a51000906105409088612a7d565b90612aa8565b9250505b6001600160a01b0384166000908152600a6020526040902060060154610eaa57506001600160a01b038084166000908152600a602090815260408083209386168352600790930190522060040154610f76565b6001600160a01b0384166000908152600a6020526040812060068101546005820154600490920154610f1792610ef592916105409164e8d4a5100091610eef91612a9c565b90612a7d565b6001600160a01b0387166000908152600a602052604090206003015490612aa8565b6001600160a01b038681166000908152600a602090815260408083209389168352600790930190522060048101546005820154600190920154929350610f72929091610e4d916105469064e8d4a51000906105409088612a7d565b9150505b9250929050565b60095461ffff808216916201000081048216916401000000009091041683565b60025461ffff1690565b60025461ffff1681565b6001600160a01b0381166000908152600c602052604081205480610fef576001600160a01b0383166000908152600e60205260409020549150611043565b6000610ff9612ac6565b506001600160a01b0386166000908152600e602090815260408083205460109092529091205491935061103f925090610e4d9061054664e8d4a510006105408888612a7d565b9250505b50919050565b6001600160a01b038083166000908152600a602090815260408083209385168352600790930190529081205460ff16611084575060006110b3565b506001600160a01b038083166000908152600a6020908152604080832093851683526007909301905220600101545b92915050565b600260015414156110dc5760405162461bcd60e51b81526004016103d690613341565b60026001556001600160a01b0381166000908152600a6020908152604080832033845260070190915290205460ff166111275760405162461bcd60e51b81526004016103d690613061565b61112f61290b565b61113881612951565b6001600160a01b0381166000908152600a6020908152604080832033845260070190915281206003810154600554600190920154611185926105469164e8d4a51000916105409190612a7d565b6001600160a01b0383166000908152600a60209081526040808320338452600781019092528220600581015460039092015460019091015493945091926111db926105469164e8d4a51000916105409190612a7d565b6001600160a01b0384166000908152600a60209081526040808320338452600701909152812060020154919250906112139084612aa8565b6001600160a01b0385166000908152600a602090815260408083203384526007019091528120600401549192509061124b9084612aa8565b9050817f00000000000000000000000000000000000000000000000000000000000000006001600160a01b03166370a08231306040518263ffffffff1660e01b815260040161129a9190612f84565b60206040518083038186803b1580156112b257600080fd5b505afa1580156112c6573d6000803e3d6000fd5b505050506040513d601f19601f820116820180604052508101906112ea9190612f33565b10156113085760405162461bcd60e51b81526004016103d6906132a9565b8115611339576113397f00000000000000000000000000000000000000000000000000000000000000003384612ab4565b8015611368576001600160a01b038086166000908152600a602052604090206002015461136891163383612ab4565b6001600160a01b0385166000908152600a6020908152604080832033845260070190915281206002810182905560048101919091556005546001909101546113ba9164e8d4a510009161054091612a7d565b6001600160a01b0386166000908152600a60209081526040808320338452600781019092529091206003808201939093559101546001909101546114089164e8d4a510009161054091612a7d565b6001600160a01b0386166000818152600a602090815260408083203380855260079091019092529182902060050193909355517f1b5c4fd38f593948e19e8520646171f8f1e4cdbb550f4224936fb20dd80f489b906114689086906133a5565b60405180910390a3336001600160a01b0316856001600160a01b03167fbe79b489d79f386834ea4ea487e866469c68bfde4520f36132f90b6003c2fc4d836040516114b391906133a5565b60405180910390a3505060018055505050565b600260015414156114e95760405162461bcd60e51b81526004016103d690613341565b60026001556001600160a01b0382166000908152600a602052604090205460ff166115265760405162461bcd60e51b81526004016103d69061327e565b8061153057610a9b565b6001600160a01b0382166000908152600a6020908152604080832033845260070190915290205460ff16611590576001600160a01b0382166000908152600a602090815260408083203384526007019091529020805460ff191660011790555b61159861290b565b6115a182612951565b6001600160a01b038083166000908152600a6020908152604080832080546001808301543387526007909301909452919093209091015461010090910483169291909116901561172e576001600160a01b0384166000908152600a6020908152604080832033845260070190915281206003810154600554600190920154611638926105469164e8d4a51000916105409190612a7d565b6001600160a01b0386166000908152600a602090815260408083203384526007810190925282206005810154600390920154600190910154939450919261168e926105469164e8d4a51000916105409190612a7d565b6001600160a01b0387166000908152600a602090815260408083203384526007019091529020600201549091506116c59083612aa8565b6001600160a01b0387166000908152600a6020908152604080832033845260070190915290206002810191909155600401546117019082612aa8565b6001600160a01b0387166000908152600a6020908152604080832033845260070190915290206004015550505b6001600160a01b0382166000908152600b6020526040902054156117ce576001600160a01b0382166000908152600f6020908152604080832054600754600b9093529083205461178d926105469164e8d4a51000916105409190612a7d565b6001600160a01b0384166000908152600d60205260409020549091506117b39082612aa8565b6001600160a01b0384166000908152600d6020526040902055505b6001600160a01b0381166000908152600c60205260409020541561186e576001600160a01b038116600090815260106020908152604080832054600654600c9093529083205461182d926105469164e8d4a51000916105409190612a7d565b6001600160a01b0383166000908152600e60205260409020549091506118539082612aa8565b6001600160a01b0383166000908152600e6020526040902055505b60405163282d3fdf60e01b81526001600160a01b037f0000000000000000000000000000000000000000000000000000000000000000169063282d3fdf906118bc9033908790600401612f98565b600060405180830381600087803b1580156118d657600080fd5b505af11580156118ea573d6000803e3d6000fd5b5050506001600160a01b0385166000908152600a60209081526040808320338452600701909152902060010154611922915084612aa8565b6001600160a01b0385166000818152600a6020818152604080842033855260078101835290842060010195909555929091529052600601546119649084612aa8565b6001600160a01b038086166000908152600a60209081526040808320600601949094559185168152600b909152205461199d9084612aa8565b6001600160a01b038084166000908152600b60209081526040808320949094559184168152600c90915220546119d39084612aa8565b6001600160a01b0382166000908152600c60205260409020556008546119f99084612aa8565b6008556005546001600160a01b0385166000908152600a60209081526040808320338452600701909152902060010154611a3d9164e8d4a510009161054091612a7d565b6001600160a01b0385166000908152600a6020908152604080832033845260078101909252909120600380820193909355910154600190910154611a8b9164e8d4a510009161054091612a7d565b6001600160a01b038086166000908152600a60209081526040808320338452600790810183528184206005019590955593549286168252600b90529190912054611adf9164e8d4a510009161054091612a7d565b6001600160a01b038084166000908152600f60209081526040808320949094556006549285168252600c90529190912054611b249164e8d4a510009161054091612a7d565b6001600160a01b038083166000818152601060205260409081902093909355915186821692918516907f1d951b7eea5a24db5ac6960d4b8ef98655d7e2e30a9f616be39b3a432fdb516a90610a909033908990612f98565b611b84612b8a565b6001600160a01b0316611b95611d5f565b6001600160a01b031614611bbb5760405162461bcd60e51b81526004016103d690613249565b611bc361290b565b600381905560405181907f528b87b815dc5bf51860cc985cb3186e9205527f7d82ded7a6d21d2e8ea360bb90600090a250565b611bfe612b8a565b6001600160a01b0316611c0f611d5f565b6001600160a01b031614611c355760405162461bcd60e51b81526004016103d690613249565b611c3f6000612b8e565b565b611c49612b8a565b6001600160a01b0316611c5a611d5f565b6001600160a01b031614611c805760405162461bcd60e51b81526004016103d690613249565b61271061ffff82161115611ca65760405162461bcd60e51b81526004016103d6906132fe565b6002805461ffff191661ffff83169081179091556040517fc1e21f86eeaf8282626597cc4a0157034066e12cb0a37eeffd899e6975884f3090600090a250565b600060646001600160a01b031663a3b1b31d6040518163ffffffff1660e01b815260040160206040518083038186803b158015611d2257600080fd5b505afa158015611d36573d6000803e3d6000fd5b505050506040513d601f19601f82011682018060405250810190611d5a9190612f33565b905090565b6000546001600160a01b031690565b60035481565b600b6020526000908152604090205481565b60026001541415611da95760405162461bcd60e51b81526004016103d690613341565b6002600181905550336001600160a01b0316816001600160a01b0316638da5cb5b6040518163ffffffff1660e01b815260040160206040518083038186803b158015611df457600080fd5b505afa158015611e08573d6000803e3d6000fd5b505050506040513d601f19601f82011682018060405250810190611e2c9190612dab565b6001600160a01b031614611e525760405162461bcd60e51b81526004016103d69061301e565b611e5a61290b565b6001600160a01b038116600090815260106020908152604080832054600654600c90935290832054611e9b926105469164e8d4a51000916105409190612a7d565b6001600160a01b0383166000908152600e602052604081205491925090611ec29083612aa8565b9050807f00000000000000000000000000000000000000000000000000000000000000006001600160a01b03166370a08231306040518263ffffffff1660e01b8152600401611f119190612f84565b60206040518083038186803b158015611f2957600080fd5b505afa158015611f3d573d6000803e3d6000fd5b505050506040513d601f19601f82011682018060405250810190611f619190612f33565b1015611f7f5760405162461bcd60e51b81526004016103d6906132a9565b8015611fb057611fb07f00000000000000000000000000000000000000000000000000000000000000003383612ab4565b6001600160a01b0383166000908152600e60209081526040808320839055600654600c90925290912054611fee9164e8d4a510009161054091612a7d565b6001600160a01b038416600081815260106020526040908190209290925590513391907fd758faabbb7ce25ddd20d7b6a96321fbfeddaa364efec57174c9d56ff3462d5f90610d5b9085906133a5565b6001600160a01b0381166000908152600a602052604090205460ff165b919050565b600c6020526000908152604090205481565b336001600160a01b0316826001600160a01b0316638da5cb5b6040518163ffffffff1660e01b815260040160206040518083038186803b1580156120b557600080fd5b505afa1580156120c9573d6000803e3d6000fd5b505050506040513d601f19601f820116820180604052508101906120ed9190612dab565b6001600160a01b0316146121135760405162461bcd60e51b81526004016103d690613171565b604051633454a5b760e11b81526001600160a01b037f000000000000000000000000000000000000000000000000000000000000000016906368a94b6e9061215f908590600401612f84565b60206040518083038186803b15801561217757600080fd5b505afa15801561218b573d6000803e3d6000fd5b505050506040513d601f19601f820116820180604052508101906121af9190612e6a565b6121cb5760405162461bcd60e51b81526004016103d6906132d3565b604051634c7b4f4d60e11b81526001600160a01b038316906398f69e9a906121f7908490600401612f84565b60206040518083038186803b15801561220f57600080fd5b505afa158015612223573d6000803e3d6000fd5b505050506040513d601f19601f820116820180604052508101906122479190612e6a565b6122635760405162461bcd60e51b81526004016103d69061313a565b6001600160a01b0381166000908152600a602052604090205460ff161561229c5760405162461bcd60e51b81526004016103d6906131e9565b6000826001600160a01b03166399efcaec6040518163ffffffff1660e01b815260040160206040518083038186803b1580156122d757600080fd5b505afa1580156122eb573d6000803e3d6000fd5b505050506040513d601f19601f8201168201806040525081019061230f9190612dab565b90506000826001600160a01b03166388cc58e46040518163ffffffff1660e01b815260040160206040518083038186803b15801561234c57600080fd5b505afa158015612360573d6000803e3d6000fd5b505050506040513d601f19601f820116820180604052508101906123849190612dab565b6001600160a01b038085166000818152600a602052604080822080548a86166101008102610100600160a81b031960ff1990931660019081179390931617835590820180548789166001600160a01b0319918216811790925560029093018054978b169790931696909617909155905194955091937f81abdaee058fb5343c449f83d7434277f871526731d3b46b7427a88f8c0bdb709190a450505050565b604051633454a5b760e11b81526001600160a01b037f000000000000000000000000000000000000000000000000000000000000000016906368a94b6e9061246f908690600401612f84565b60206040518083038186803b15801561248757600080fd5b505afa15801561249b573d6000803e3d6000fd5b505050506040513d601f19601f820116820180604052508101906124bf9190612e6a565b6124db5760405162461bcd60e51b81526004016103d6906132d3565b6001600160a01b03831633146125035760405162461bcd60e51b81526004016103d690613212565b604051634c7b4f4d60e11b81526001600160a01b038416906398f69e9a9061252f908590600401612f84565b60206040518083038186803b15801561254757600080fd5b505afa15801561255b573d6000803e3d6000fd5b505050506040513d601f19601f8201168201806040525081019061257f9190612e6a565b61259b5760405162461bcd60e51b81526004016103d69061313a565b6001600160a01b0382166000908152600a602052604090205460ff166125d35760405162461bcd60e51b81526004016103d690612fbc565b6000826001600160a01b03166388cc58e46040518163ffffffff1660e01b815260040160206040518083038186803b15801561260e57600080fd5b505afa158015612622573d6000803e3d6000fd5b505050506040513d601f19601f820116820180604052508101906126469190612dab565b6001600160a01b0384166000908152600a602052604090206004015490915061266f9083612aa8565b6001600160a01b038085166000818152600a602052604090819020600401939093559151838216918716907f630d967e6aa5a0552cfc5e83109394c422516f864805ab9804ad8d806b64ee53906126c79087906133a5565b60405180910390a450505050565b6126dd612b8a565b6001600160a01b03166126ee611d5f565b6001600160a01b0316146127145760405162461bcd60e51b81526004016103d690613249565b604081015160208201518251612710929161272e916133bc565b61273891906133bc565b61ffff16146127595760405162461bcd60e51b81526004016103d6906130d7565b61276161290b565b805160098054602084015160408086015161ffff1990931661ffff8087169190911763ffff0000191662010000828516021765ffff000000001916640100000000918516919091021790935591517fcaa41cb22bf5f5f46f725bd8caf9e7a27fa5a6c40ed3e1b96ce9507d8190fc61936127de9390929091613387565b60405180910390a150565b6001600160a01b0381166000908152600b602052604081205480612827576001600160a01b0383166000908152600d60205260409020549150611043565b6000612831612ac6565b50506001600160a01b0385166000908152600d6020908152604080832054600f9092529091205491925061103f91610e4d9061054664e8d4a510006105408888612a7d565b60085481565b6001600160a01b03166000908152600a602052604090206006015490565b6128a2612b8a565b6001600160a01b03166128b3611d5f565b6001600160a01b0316146128d95760405162461bcd60e51b81526004016103d690613249565b6001600160a01b0381166128ff5760405162461bcd60e51b81526004016103d690613091565b61290881612b8e565b50565b60045461291e5761291a611ce6565b6004555b600454612929611ce6565b1161293357611c3f565b61293b612ac6565b60055560065560075561294c611ce6565b600455565b6001600160a01b0381166000908152600a602052604090205460ff1661297657612908565b6001600160a01b0381166000908152600a60205260409020600501546129ba576001600160a01b0381166000908152600a6020526040902060048101546005909101555b6001600160a01b0381166000908152600a60205260409020600481015460059091015414156129e857612908565b6001600160a01b0381166000908152600a6020526040902060068101546005820154600490920154612a4f92612a2d92916105409164e8d4a5100091610eef91612a9c565b6001600160a01b0383166000908152600a602052604090206003015490612aa8565b6001600160a01b0382166000908152600a602052604090206003810191909155600481015460059091015550565b6000612a89828461341a565b9392505050565b6000612a8982846133fa565b6000612a898284613439565b6000612a8982846133e2565b82612ac0818484612bde565b50505050565b600080600060085460001415612aea57600754925060065491506005549050612b85565b6000806000612af7612c39565b925092509250612b27612b1e60085461054064e8d4a5100087612a7d90919063ffffffff16565b60075490612aa8565b9550612b53612b4a60085461054064e8d4a5100086612a7d90919063ffffffff16565b60065490612aa8565b9450612b7f612b7660085461054064e8d4a5100085612a7d90919063ffffffff16565b60055490612aa8565b93505050505b909192565b3390565b600080546001600160a01b038381166001600160a01b0319831681178455604051919092169283917f8be0079c531659141344cd1fd0a4f28419497f9722a3daafe3b4186f6b6457e09190a35050565b612c348363a9059cbb60e01b8484604051602401612bfd929190612f98565b60408051601f198184030181529190526020810180516001600160e01b03166001600160e01b031990931692909217909152612cc7565b505050565b600080600080612c5a600354600454612c50611ce6565b610eef9190613439565b600954909150612c77906127109061054090849061ffff16612a7d565b600954909450612c9a906127109061054090849062010000900461ffff16612a7d565b600954909350612cbf9061271090610540908490640100000000900461ffff16612a7d565b915050909192565b600080836001600160a01b031683604051612ce29190612f4b565b6000604051808303816000865af19150503d8060008114612d1f576040519150601f19603f3d011682016040523d82523d6000602084013e612d24565b606091505b509150915081612d465760405162461bcd60e51b81526004016103d69061310e565b805115612ac05780806020019051810190612d619190612e6a565b612ac05760405162461bcd60e51b81526004016103d690612fe9565b803561ffff8116811461205b57600080fd5b600060208284031215612da0578081fd5b8135612a8981613466565b600060208284031215612dbc578081fd5b8151612a8981613466565b60008060408385031215612dd9578081fd5b8235612de481613466565b91506020830135612df481613466565b809150509250929050565b600080600060608486031215612e13578081fd5b8335612e1e81613466565b92506020840135612e2e81613466565b929592945050506040919091013590565b60008060408385031215612e51578182fd5b8235612e5c81613466565b946020939093013593505050565b600060208284031215612e7b578081fd5b81518015158114612a89578182fd5b600060608284031215612e9b578081fd5b6040516060810181811067ffffffffffffffff82111715612eca57634e487b7160e01b83526041600452602483fd5b604052612ed683612d7d565b8152612ee460208401612d7d565b6020820152612ef560408401612d7d565b60408201529392505050565b600060208284031215612f12578081fd5b612a8982612d7d565b600060208284031215612f2c578081fd5b5035919050565b600060208284031215612f44578081fd5b5051919050565b60008251815b81811015612f6b5760208186018101518583015201612f51565b81811115612f795782828501525b509190910192915050565b6001600160a01b0391909116815260200190565b6001600160a01b03929092168252602082015260400190565b901515815260200190565b60208082526013908201527211d85d59d9481a185cc81b9bdd081859191959606a1b604082015260600190565b6020808252818101527f45524332303a206f7065726174696f6e20646964206e6f742073756363656564604082015260600190565b60208082526023908201527f4f6e6c7920706f6f6c466163746f7279206f776e65722063616e20776974686460408201526272617760e81b606082015260800190565b60208082526016908201527521b0b63632b9103737ba1030903232b837b9b4ba37b960511b604082015260600190565b60208082526026908201527f4f776e61626c653a206e6577206f776e657220697320746865207a65726f206160408201526564647265737360d01b606082015260800190565b6020808252601d908201527f53756d206f6620726174696f732073686f756c64206265203130303030000000604082015260600190565b602080825260129082015271115490cc8c0e8818d85b1b0819985a5b195960721b604082015260600190565b6020808252601b908201527f506f6f6c206973206e6f74206578697374206f7220636c6f7365640000000000604082015260600190565b6020808252601d908201527f4f6e6c7920636f6d6d756e697479206f776e65722063616e2063616c6c000000604082015260600190565b60208082526021908201527f4f6e6c7920636f6d6d756e697479206f776e65722063616e20776974686472616040820152607760f81b606082015260800190565b6020808252600f908201526e11d85d59d9481a185cc81859191959608a1b604082015260600190565b60208082526018908201527f4f6e6c792063616c6c656420627920636f6d6d756e6974790000000000000000604082015260600190565b6020808252818101527f4f776e61626c653a2063616c6c6572206973206e6f7420746865206f776e6572604082015260600190565b60208082526011908201527011d85d59d9481b9bdd0818dc99585d1959607a1b604082015260600190565b60208082526010908201526f125b9cdd59999a58da595b9d0813955560821b604082015260600190565b602080825260119082015270496e76616c696420636f6d6d756e69747960781b604082015260600190565b60208082526023908201527f526174696f206d757374206c657373206f7220657175616c207468616e20313060408201526203030360ec1b606082015260800190565b6020808252601f908201527f5265656e7472616e637947756172643a207265656e7472616e742063616c6c00604082015260600190565b61ffff91909116815260200190565b61ffff93841681529183166020830152909116604082015260600190565b90815260200190565b918252602082015260400190565b600061ffff8083168185168083038211156133d9576133d9613450565b01949350505050565b600082198211156133f5576133f5613450565b500190565b60008261341557634e487b7160e01b81526012600452602481fd5b500490565b600081600019048311821515161561343457613434613450565b500290565b60008282101561344b5761344b613450565b500390565b634e487b7160e01b600052601160045260246000fd5b6001600160a01b038116811461290857600080fdfea26469706673582212207a7d0fd21475b55973616d650318fc6a2668d42b8d3c8073a04df15a63db7ceb64736f6c63430008000033",
  "immutableReferences": {
    "1948": [
      {
        "length": 32,
        "start": 1945
      },
      {
        "length": 32,
        "start": 6277
      }
    ],
    "1950": [
      {
        "length": 32,
        "start": 3044
      },
      {
        "length": 32,
        "start": 3239
      },
      {
        "length": 32,
        "start": 4688
      },
      {
        "length": 32,
        "start": 4883
      },
      {
        "length": 32,
        "start": 7879
      },
      {
        "length": 32,
        "start": 8074
      }
    ],
    "1969": [
      {
        "length": 32,
        "start": 8490
      },
      {
        "length": 32,
        "start": 9274
      }
    ]
  },
  "source": "// SPDX-License-Identifier: MIT\n\npragma solidity 0.8.0;\n\nimport \"@openzeppelin/contracts/access/Ownable.sol\";\nimport \"@openzeppelin/contracts/utils/math/SafeMath.sol\";\nimport \"@openzeppelin/contracts/security/ReentrancyGuard.sol\";\nimport \"./interfaces/IPool.sol\";\nimport \"./interfaces/IGauge.sol\";\nimport \"./CommunityFactory.sol\";\nimport \"./interfaces/ICommunity.sol\";\nimport \"./ERC20Helper.sol\";\nimport \"./NUTToken.sol\";\nimport \"./NutPower.sol\";\nimport \"./interfaces/ArbSys.sol\";\n\ncontract Gauge is IGauge, Ownable, ERC20Helper, ReentrancyGuard {\n\n    using SafeMath for uint256;\n    using SafeMath for uint16;\n\n    uint16 constant private CONSTANT_10000 = 10000;\n\n    struct User {\n        bool hasDeposited;\n        uint256 amount; // NP amount\n        uint256 nutAvailable;\n        uint256 nutDebt;\n        uint256 cTokenAvailable;\n        uint256 cTokenDebt;\n    }\n\n    struct GaugeMeta {\n        bool hasCreated;\n        address community;\n        address factory;\n        address cToken;\n        uint256 cTokenAcc;\n        uint256 cTokenRevenue;\n        uint256 lastCTokenRevenue;\n        uint256 totalLockedNP;\n        mapping (address => User) users;\n    }\n\n    // define the NUT distribution to 3 parts\n    struct DistributionRatio {\n        uint16 community;\n        uint16 poolFactory;\n        uint16 user;\n    }\n    \n    // Nutbox Power addresss\n    address immutable NP;\n    // NUT address\n    address immutable NUT;\n    // Only Nutbox committee can set this. Communities which enabled this function in their pools,\n    // part of the cToken rewards(dappToolsRatio / 10000 of total rewards) will be transfered\n    // to gauge contract when user harvest their rewards, those rewards and NUTs would be\n    // distributed based on the NP locked by user.\n    uint16 public gaugeRatio;\n    // Total reward nut per block, can be reset by Nutbox DAO\n    uint256 public rewardNUTPerBlock;\n    // Last nut reward block\n    uint256 private lastRewardBlock;\n\n    // nutAcc means how many nut will 1 NP locked earn, it departed by community/poolFactory/user\n    uint256 private userNutAcc;\n    uint256 private poolFactoryNutAcc;\n    uint256 private communityNutAcc;\n\n    uint256 public totalLockedNP;\n\n    // can be rest by Nutbox DAO(Multi-sign contract held by nutbox committee), total of the ratios should be 10000\n    DistributionRatio public distributionRatio;\n\n    // communityFactory\n    address immutable communityFactory;\n    // all created gauges by community owner\n    // pool address => gauge\n    mapping (address => GaugeMeta) private gauges;\n\n    // reward nut distribute to community and tool dev\n    mapping (address => uint256) public communityTotalLockedNP;\n    mapping (address => uint256) public poolFactoryTotalLockedNP;\n    mapping (address => uint256) private communityAvailable;\n    mapping (address => uint256) private poolFactoryAvailable;\n    mapping (address => uint256) private communityDebt;\n    mapping (address => uint256) private poolFactoryDebt;\n\n    event AdminSetDappGaugeRatio(uint16 indexed gaugeRatio);\n    event AdminSetNutRewardPerBlock(uint256 indexed nutRewardPerBlock);\n    event AdminSetNutDistributionRatio(uint16 community, uint16 poolFactory, uint16 user);\n    event AdminSetRewardNUTPerBlock(uint256 indexed rewardPerBlock);\n    event CreateNewGauge(address indexed community, address indexed factory, address indexed pool);\n    event UpdateLedger(address indexed community, address indexed factory, address indexed pool, uint256 amount);\n\n    event Voted(address indexed community, address indexed factory, address indexed pool, address user, uint256 amount);\n    event Unvoted(address indexed community, address indexed factory, address indexed pool, address user, uint256 amount);\n\n    event CTokenWithdrawn(address indexed pool, address indexed recipient, uint256 amount);\n    event UserWithdrewNut(address indexed pool, address indexed recipient, uint256 amount);\n    event CommunityWithdrewNut(address indexed community, address indexed recipient, uint256 amount);\n    event PoolFactoryWithdrewNut(address indexed poolFactory, address indexed recipient, uint256 amount);\n\n    constructor(address _communityFactory, uint16 _gaugeRatio, DistributionRatio memory ratios, address _NP, address _nut) {\n        require(_communityFactory != address(0), \"Invalide community factory\");\n        require(ratios.community + ratios.poolFactory + ratios.user == CONSTANT_10000, \"Sum of ratios should be 10000\");\n        distributionRatio.community = ratios.community;\n        distributionRatio.poolFactory = ratios.poolFactory;\n        distributionRatio.user = ratios.user;\n        communityFactory = _communityFactory;\n        gaugeRatio = _gaugeRatio;\n        NP = _NP;\n        NUT = _nut;\n        emit AdminSetDappGaugeRatio(_gaugeRatio);\n        emit AdminSetNutDistributionRatio(ratios.community, ratios.poolFactory, ratios.user);\n    }\n\n    function hasGaugeEnabled(address pool) external override returns (bool) {\n        return gauges[pool].hasCreated;\n    }\n\n    // set the ratio of user harvest cToken\n    function adminSetGaugeRatio(uint16 _gaugeRatio) external onlyOwner {\n        require(_gaugeRatio <= CONSTANT_10000, \"Ratio must less or equal than 10000\");\n        gaugeRatio = _gaugeRatio;\n        emit AdminSetDappGaugeRatio(_gaugeRatio);\n    }\n\n    function getGaugeRatio() external view override returns (uint16) {\n        return gaugeRatio;\n    }\n\n    function adminSetRewardNUTPerBlock(uint256 reward) external onlyOwner {\n        _updateNutAcc();\n        rewardNUTPerBlock = reward;\n        emit AdminSetRewardNUTPerBlock(reward);\n    }\n\n    function adminSetNutDistributionRatio(DistributionRatio memory ratios) external onlyOwner {\n        require(ratios.community + ratios.poolFactory + ratios.user == CONSTANT_10000, \"Sum of ratios should be 10000\");\n        // update accs before reset the ratios\n        _updateNutAcc();\n        distributionRatio.community = ratios.community;\n        distributionRatio.poolFactory = ratios.poolFactory;\n        distributionRatio.user = ratios.user;\n        emit AdminSetNutDistributionRatio(ratios.community, ratios.poolFactory, ratios.user);\n    }\n\n    // only called by community contract, from some user of community call harvestReward\n    function updateLedger(address community, address pool, uint256 amount) external override {\n        require(CommunityFactory(communityFactory).createdCommunity(community), \"Invalid community\");\n        require(community == msg.sender, \"Only called by community\");\n        require(ICommunity(community).poolActived(pool), \"Pool is not exist or closed\");\n        require(gauges[pool].hasCreated, \"Gauge has not added\");\n\n        address factory = IPool(pool).getFactory();\n        \n        gauges[pool].cTokenRevenue = gauges[pool].cTokenRevenue.add(amount);\n\n        emit UpdateLedger(community, factory, pool, amount);\n    }\n\n    function addNewGauge(address community, address pool) external {\n        require(Ownable(community).owner() == msg.sender, \"Only community owner can call\");\n        require(CommunityFactory(communityFactory).createdCommunity(community), \"Invalid community\");\n        require(ICommunity(community).poolActived(pool), \"Pool is not exist or closed\");\n        require(!gauges[pool].hasCreated, \"Gauge has added\");\n\n        address cToken = ICommunity(community).getCommunityToken();\n        address factory = IPool(pool).getFactory();\n\n        gauges[pool].hasCreated = true;\n        gauges[pool].community = community;\n        gauges[pool].factory = factory;\n        gauges[pool].cToken = cToken;\n\n        emit CreateNewGauge(community, factory, pool);\n    }\n\n    function vote(address pool, uint256 amount) external nonReentrant {\n        require(gauges[pool].hasCreated, \"Gauge not created\");\n        if (amount == 0) return;\n        if (!gauges[pool].users[msg.sender].hasDeposited) {\n            gauges[pool].users[msg.sender].hasDeposited = true;\n        }\n\n        _updateNutAcc();\n        _updatePoolAcc(pool);\n\n        address community = gauges[pool].community;\n        address factory = gauges[pool].factory;\n\n        if(gauges[pool].users[msg.sender].amount > 0) {\n            // update user's reward include nut and ctoken\n            uint256 pendingNut = gauges[pool].users[msg.sender].amount.mul(userNutAcc).div(1e12).sub(gauges[pool].users[msg.sender].nutDebt);\n            uint256 pendingCToken = gauges[pool].users[msg.sender].amount.mul(gauges[pool].cTokenAcc).div(1e12).sub(gauges[pool].users[msg.sender].cTokenDebt);\n            gauges[pool].users[msg.sender].nutAvailable = gauges[pool].users[msg.sender].nutAvailable.add(pendingNut);\n            gauges[pool].users[msg.sender].cTokenAvailable = gauges[pool].users[msg.sender].cTokenAvailable.add(pendingCToken);\n        }\n        if (communityTotalLockedNP[community] > 0) {\n            // update community's reward only nut\n            uint256 commmunityPending = communityTotalLockedNP[community].mul(communityNutAcc).div(1e12).sub(communityDebt[community]);\n            communityAvailable[community] = communityAvailable[community].add(commmunityPending);\n        }\n        if (poolFactoryTotalLockedNP[factory] > 0) {\n            // update tool dev's reward only nut\n            uint256 poolFactoryPending = poolFactoryTotalLockedNP[factory].mul(poolFactoryNutAcc).div(1e12).sub(poolFactoryDebt[factory]);\n            poolFactoryAvailable[factory] = poolFactoryAvailable[factory].add(poolFactoryPending);\n        }\n\n        // using lock method, NP is not transferable\n        NutPower(NP).lock(msg.sender, amount);\n\n        // update amount\n        gauges[pool].users[msg.sender].amount = gauges[pool].users[msg.sender].amount.add(amount);\n        gauges[pool].totalLockedNP = gauges[pool].totalLockedNP.add(amount);\n        communityTotalLockedNP[community] = communityTotalLockedNP[community].add(amount);\n        poolFactoryTotalLockedNP[factory] = poolFactoryTotalLockedNP[factory].add(amount);\n        totalLockedNP = totalLockedNP.add(amount);\n\n        // update debt\n        gauges[pool].users[msg.sender].nutDebt = gauges[pool].users[msg.sender].amount.mul(userNutAcc).div(1e12);\n        gauges[pool].users[msg.sender].cTokenDebt = gauges[pool].users[msg.sender].amount.mul(gauges[pool].cTokenAcc).div(1e12);\n        communityDebt[community] = communityTotalLockedNP[community].mul(communityNutAcc).div(1e12);\n        poolFactoryDebt[factory] = poolFactoryTotalLockedNP[factory].mul(poolFactoryNutAcc).div(1e12);\n\n        emit Voted(community, factory, pool, msg.sender, amount);\n    }\n\n    function unvote(address pool, uint256 amount) external nonReentrant {\n        require(gauges[pool].users[msg.sender].hasDeposited, \"Caller not a depositor\");\n        if (amount == 0) return;\n\n        _updateNutAcc();\n        _updatePoolAcc(pool);\n\n        address community = gauges[pool].community;\n        address factory = gauges[pool].factory;\n\n        amount = gauges[pool].users[msg.sender].amount > amount ? amount : gauges[pool].users[msg.sender].amount;\n\n        if(gauges[pool].users[msg.sender].amount > 0) {\n            // update user's reward include nut and ctoken\n            uint256 pendingNut = gauges[pool].users[msg.sender].amount.mul(userNutAcc).div(1e12).sub(gauges[pool].users[msg.sender].nutDebt);\n            uint256 pendingCToken = gauges[pool].users[msg.sender].amount.mul(gauges[pool].cTokenAcc).div(1e12).sub(gauges[pool].users[msg.sender].cTokenDebt);\n            gauges[pool].users[msg.sender].nutAvailable = gauges[pool].users[msg.sender].nutAvailable.add(pendingNut);\n            gauges[pool].users[msg.sender].cTokenAvailable = gauges[pool].users[msg.sender].cTokenAvailable.add(pendingCToken);\n        }\n        if (communityTotalLockedNP[community] > 0) {\n            // update community's reward only nut\n            uint256 commmunityPending = communityTotalLockedNP[community].mul(communityNutAcc).div(1e12).sub(communityDebt[community]);\n            communityAvailable[community] = communityAvailable[community].add(commmunityPending);\n        }\n        if (poolFactoryTotalLockedNP[factory] > 0) {\n            // update tool dev's reward only nut\n            uint256 poolFactoryPending = poolFactoryTotalLockedNP[factory].mul(poolFactoryNutAcc).div(1e12).sub(poolFactoryDebt[factory]);\n            poolFactoryAvailable[factory] = poolFactoryAvailable[factory].add(poolFactoryPending);\n        }\n\n        NutPower(NP).unlock(msg.sender, amount);\n\n        // update amount\n        gauges[pool].users[msg.sender].amount = gauges[pool].users[msg.sender].amount.sub(amount);\n        gauges[pool].totalLockedNP = gauges[pool].totalLockedNP.sub(amount);\n        communityTotalLockedNP[community] = communityTotalLockedNP[community].sub(amount);\n        poolFactoryTotalLockedNP[factory] = poolFactoryTotalLockedNP[factory].sub(amount);\n        totalLockedNP = totalLockedNP.sub(amount);\n\n        // update debt\n        gauges[pool].users[msg.sender].nutDebt = gauges[pool].users[msg.sender].amount.mul(userNutAcc).div(1e12);\n        gauges[pool].users[msg.sender].cTokenDebt = gauges[pool].users[msg.sender].amount.mul(gauges[pool].cTokenAcc).div(1e12);\n        communityDebt[community] = communityTotalLockedNP[community].mul(communityNutAcc).div(1e12);\n        poolFactoryDebt[factory] = poolFactoryTotalLockedNP[factory].mul(poolFactoryNutAcc).div(1e12);\n\n        emit Unvoted(community, factory, pool, msg.sender, amount);\n    }\n\n    function userWithdrawReward(address pool) external nonReentrant {\n        require(gauges[pool].users[msg.sender].hasDeposited, \"Caller not a depositor\");\n\n        _updateNutAcc();\n        _updatePoolAcc(pool);\n\n        // calculate reward\n        uint256 pendingNut = gauges[pool].users[msg.sender].amount.mul(userNutAcc).div(1e12).sub(gauges[pool].users[msg.sender].nutDebt);\n        uint256 pendingCToken = gauges[pool].users[msg.sender].amount.mul(gauges[pool].cTokenAcc).div(1e12).sub(gauges[pool].users[msg.sender].cTokenDebt);\n        uint256 rewardNut = gauges[pool].users[msg.sender].nutAvailable.add(pendingNut);\n        uint256 rewardCToken = gauges[pool].users[msg.sender].cTokenAvailable.add(pendingCToken);\n\n        // transfer reward\n        require(NUTToken(NUT).balanceOf(address(this)) >= rewardNut, \"Insufficient NUT\");\n        if (rewardNut > 0) \n            releaseERC20(NUT, msg.sender, rewardNut);\n        \n        if (rewardCToken > 0)\n            releaseERC20(gauges[pool].cToken, msg.sender, rewardCToken);\n\n        // update user data\n        gauges[pool].users[msg.sender].nutAvailable = 0;\n        gauges[pool].users[msg.sender].cTokenAvailable = 0;\n        gauges[pool].users[msg.sender].nutDebt = gauges[pool].users[msg.sender].amount.mul(userNutAcc).div(1e12);\n        gauges[pool].users[msg.sender].cTokenDebt = gauges[pool].users[msg.sender].amount.mul(gauges[pool].cTokenAcc).div(1e12);\n        \n        emit UserWithdrewNut(pool, msg.sender, rewardNut);\n        emit CTokenWithdrawn(pool, msg.sender, rewardCToken);\n    }\n\n    function communityWithdrawNut(address community) external nonReentrant {\n        require(Ownable(community).owner() == msg.sender, \"Only community owner can withdraw\");\n    \n        _updateNutAcc();\n\n        // calculate reward\n        uint256 pendingNut = communityTotalLockedNP[community].mul(communityNutAcc).div(1e12).sub(communityDebt[community]);\n        uint256 rewardNut = communityAvailable[community].add(pendingNut);\n\n        // transfer nut\n        require(NUTToken(NUT).balanceOf(address(this)) >= rewardNut, \"Insufficient NUT\");\n        if (rewardNut > 0) \n            releaseERC20(NUT, msg.sender, rewardNut);\n\n        //update community data\n        communityAvailable[community] = 0;\n        communityDebt[community] = communityTotalLockedNP[community].mul(communityNutAcc).div(1e12);\n\n        emit CommunityWithdrewNut(community, msg.sender, rewardNut); \n    }\n\n    function poolFactoryWithdrawNut(address factory) external nonReentrant {\n        require(Ownable(factory).owner() == msg.sender, \"Only poolFactory owner can withdraw\");\n    \n        _updateNutAcc();\n\n        // calculate reward\n        uint256 pendingNut = poolFactoryTotalLockedNP[factory].mul(poolFactoryNutAcc).div(1e12).sub(poolFactoryDebt[factory]);\n        uint256 rewardNut = poolFactoryAvailable[factory].add(pendingNut);\n\n        // transfer nut\n        require(NUTToken(NUT).balanceOf(address(this)) >= rewardNut, \"Insufficient NUT\");\n        if (rewardNut > 0) \n            releaseERC20(NUT, msg.sender, rewardNut);\n\n        //update poolFactory data\n        poolFactoryAvailable[factory] = 0;\n        poolFactoryDebt[factory] = poolFactoryTotalLockedNP[factory].mul(poolFactoryNutAcc).div(1e12);\n\n        emit PoolFactoryWithdrewNut(factory, msg.sender, rewardNut); \n    }\n\n    function getUserPendingReward(address pool, address user) external view \n        returns (uint256 rewardNut, uint256  rewardCToken) \n    {\n        if (!gauges[pool].users[user].hasDeposited) {\n            rewardNut = 0;\n            rewardCToken = 0;\n        }else {\n            if (totalLockedNP == 0)\n                rewardNut = gauges[pool].users[user].nutAvailable;\n            else {\n                (,,uint256 _userNutAcc) = _cuclateNutAcc();\n                rewardNut = gauges[pool].users[user].amount.mul(_userNutAcc).div(1e12).sub(gauges[pool].users[user].nutDebt).add(gauges[pool].users[user].nutAvailable);\n            }\n\n            if (gauges[pool].totalLockedNP == 0) \n                rewardCToken = gauges[pool].users[user].cTokenAvailable;\n            else {\n                uint256 _cTokenAcc = gauges[pool].cTokenAcc.add(gauges[pool].cTokenRevenue.sub(gauges[pool].lastCTokenRevenue).mul(1e12).div(gauges[pool].totalLockedNP));\n                rewardCToken = gauges[pool].users[user].amount.mul(_cTokenAcc).div(1e12).sub(gauges[pool].users[user].cTokenDebt).add(gauges[pool].users[user].cTokenAvailable);\n            }\n        }\n    }\n\n    function getUserLocked(address pool, address user) external view returns (uint256 locked) {\n        if (!gauges[pool].users[user].hasDeposited) {\n            locked = 0;\n        }else {\n            locked = gauges[pool].users[user].amount;\n        }\n    }\n\n    function getLockedNpInGauge(address pool) external view returns (uint256 totalLocked) {\n        totalLocked = gauges[pool].totalLockedNP;\n    }\n\n    function getCommunityPendingRewardNut(address community) external view\n        returns (uint256 rewardNut)\n    {\n        uint256 communityLockedNP = communityTotalLockedNP[community];\n        if (communityLockedNP == 0)\n            rewardNut = communityAvailable[community];\n        else {\n            (uint256 _communityNutAcc,,) = _cuclateNutAcc();\n            rewardNut = communityLockedNP.mul(_communityNutAcc).div(1e12).sub(communityDebt[community]).add(communityAvailable[community]);\n        }\n    }\n\n    function getPoolFactoryPendingRewardNut(address factory) external view\n        returns (uint256 rewardNut) \n    {\n        uint256 poolFactoryLockedNP = poolFactoryTotalLockedNP[factory];\n        if (poolFactoryLockedNP == 0)\n            rewardNut = poolFactoryAvailable[factory];\n        else {\n            (,uint256 _poolFactoryAcc,) = _cuclateNutAcc();\n            rewardNut = poolFactoryLockedNP.mul(_poolFactoryAcc).div(1e12).sub(poolFactoryDebt[factory]).add(poolFactoryAvailable[factory]);\n        }\n    }\n\n    function _updateNutAcc() private {\n        // start game when the first operation\n        if (0 == lastRewardBlock) {\n            lastRewardBlock = blockNum();\n        }\n\n        if (blockNum() <= lastRewardBlock) return;\n\n        (communityNutAcc, poolFactoryNutAcc, userNutAcc) = _cuclateNutAcc();\n\n        lastRewardBlock = blockNum();\n    }\n\n    function _updatePoolAcc(address pool) private {\n        if (!gauges[pool].hasCreated) return;\n        if (gauges[pool].lastCTokenRevenue == 0) \n            gauges[pool].lastCTokenRevenue = gauges[pool].cTokenRevenue;\n        \n        if (gauges[pool].lastCTokenRevenue == gauges[pool].cTokenRevenue) return;\n\n        gauges[pool].cTokenAcc = gauges[pool].cTokenAcc.add(gauges[pool].cTokenRevenue.sub(gauges[pool].lastCTokenRevenue).mul(1e12).div(gauges[pool].totalLockedNP));\n\n        gauges[pool].lastCTokenRevenue = gauges[pool].cTokenRevenue;\n    }\n\n    function _cuclateNutAcc() private view returns (uint256 _communityNutAcc, uint256 _poolFactoryNutAcc, uint256 _userNutAcc) {\n        if (totalLockedNP == 0) {\n            _communityNutAcc = communityNutAcc;\n            _poolFactoryNutAcc = poolFactoryNutAcc;\n            _userNutAcc = userNutAcc;\n        }else {\n            (uint256 communityReadyToMint, uint256 poolFactoryReadyToMint, uint256 userReadyToMint) = _calculateNutReadyToMint();\n            _communityNutAcc = communityNutAcc.add(communityReadyToMint.mul(1e12).div(totalLockedNP));\n            _poolFactoryNutAcc = poolFactoryNutAcc.add(poolFactoryReadyToMint.mul(1e12).div(totalLockedNP));\n            _userNutAcc = userNutAcc.add(userReadyToMint.mul(1e12).div(totalLockedNP));\n        }\n    }\n\n    function _calculateNutReadyToMint() private view returns (uint256 communityReadyToMint, uint256 poolFactoryReadyToMint, uint256 userReadyToMint) {\n        uint256 readyToMint = (blockNum() - lastRewardBlock).mul(rewardNUTPerBlock);\n        communityReadyToMint = readyToMint.mul(distributionRatio.community).div(CONSTANT_10000);\n        poolFactoryReadyToMint = readyToMint.mul(distributionRatio.poolFactory).div(CONSTANT_10000);\n        userReadyToMint = readyToMint.mul(distributionRatio.user).div(CONSTANT_10000);\n    }\n\n    function blockNum() public view returns (uint256) {\n        return ArbSys(address(100)).arbBlockNumber();\n    }\n}\n\n\n",
  "sourcePath": "/Users/wangxi/work/Walnut-V2/nutbox-contract/contracts/Gauge.sol",
  "compiler": {
    "name": "solc",
    "version": "0.8.0+commit.c7dfd78e.Emscripten.clang"
  },
  "schemaVersion": "3.3.4",
  "updatedAt": "2023-06-14T03:47:44.555Z",
  "devdoc": {
    "kind": "dev",
    "methods": {
      "owner()": {
        "details": "Returns the address of the current owner."
      },
      "renounceOwnership()": {
        "details": "Leaves the contract without owner. It will not be possible to call `onlyOwner` functions anymore. Can only be called by the current owner. NOTE: Renouncing ownership will leave the contract without an owner, thereby removing any functionality that is only available to the owner."
      },
      "transferOwnership(address)": {
        "details": "Transfers ownership of the contract to a new account (`newOwner`). Can only be called by the current owner."
      }
    },
    "version": 1
  },
  "userdoc": {
    "kind": "user",
    "methods": {},
    "version": 1
  }
}