{
  "contractName": "LinearCalculator",
  "abi": [
    {
      "inputs": [
        {
          "internalType": "address",
          "name": "_communityFactory",
          "type": "address"
        }
      ],
      "stateMutability": "nonpayable",
      "type": "constructor"
    },
    {
      "anonymous": false,
      "inputs": [
        {
          "indexed": true,
          "internalType": "address",
          "name": "community",
          "type": "address"
        },
        {
          "indexed": false,
          "internalType": "bytes",
          "name": "policy",
          "type": "bytes"
        }
      ],
      "name": "DistributionEraSet",
      "type": "event"
    },
    {
      "inputs": [
        {
          "internalType": "address",
          "name": "",
          "type": "address"
        }
      ],
      "name": "distributionCountMap",
      "outputs": [
        {
          "internalType": "uint8",
          "name": "",
          "type": "uint8"
        }
      ],
      "stateMutability": "view",
      "type": "function"
    },
    {
      "inputs": [
        {
          "internalType": "address",
          "name": "",
          "type": "address"
        },
        {
          "internalType": "uint256",
          "name": "",
          "type": "uint256"
        }
      ],
      "name": "distributionErasMap",
      "outputs": [
        {
          "internalType": "uint256",
          "name": "amount",
          "type": "uint256"
        },
        {
          "internalType": "uint256",
          "name": "startHeight",
          "type": "uint256"
        },
        {
          "internalType": "uint256",
          "name": "stopHeight",
          "type": "uint256"
        }
      ],
      "stateMutability": "view",
      "type": "function"
    },
    {
      "inputs": [
        {
          "internalType": "address",
          "name": "community",
          "type": "address"
        },
        {
          "internalType": "bytes",
          "name": "policy",
          "type": "bytes"
        }
      ],
      "name": "setDistributionEra",
      "outputs": [
        {
          "internalType": "bool",
          "name": "",
          "type": "bool"
        }
      ],
      "stateMutability": "nonpayable",
      "type": "function"
    },
    {
      "inputs": [
        {
          "internalType": "address",
          "name": "community",
          "type": "address"
        },
        {
          "internalType": "uint256",
          "name": "from",
          "type": "uint256"
        },
        {
          "internalType": "uint256",
          "name": "to",
          "type": "uint256"
        }
      ],
      "name": "calculateReward",
      "outputs": [
        {
          "internalType": "uint256",
          "name": "",
          "type": "uint256"
        }
      ],
      "stateMutability": "view",
      "type": "function"
    },
    {
      "inputs": [
        {
          "internalType": "address",
          "name": "community",
          "type": "address"
        }
      ],
      "name": "getCurrentRewardPerBlock",
      "outputs": [
        {
          "internalType": "uint256",
          "name": "",
          "type": "uint256"
        }
      ],
      "stateMutability": "view",
      "type": "function"
    },
    {
      "inputs": [
        {
          "internalType": "address",
          "name": "community",
          "type": "address"
        }
      ],
      "name": "getCurrentDistributionEra",
      "outputs": [
        {
          "components": [
            {
              "internalType": "uint256",
              "name": "amount",
              "type": "uint256"
            },
            {
              "internalType": "uint256",
              "name": "startHeight",
              "type": "uint256"
            },
            {
              "internalType": "uint256",
              "name": "stopHeight",
              "type": "uint256"
            }
          ],
          "internalType": "struct LinearCalculator.Distribution",
          "name": "era",
          "type": "tuple"
        }
      ],
      "stateMutability": "view",
      "type": "function"
    },
    {
      "inputs": [
        {
          "internalType": "address",
          "name": "community",
          "type": "address"
        }
      ],
      "name": "getStartBlock",
      "outputs": [
        {
          "internalType": "uint256",
          "name": "",
          "type": "uint256"
        }
      ],
      "stateMutability": "view",
      "type": "function"
    },
    {
      "inputs": [],
      "name": "blockNum",
      "outputs": [
        {
          "internalType": "uint256",
          "name": "",
          "type": "uint256"
        }
      ],
      "stateMutability": "view",
      "type": "function"
    }
  ],
  "bytecode": "0x60a060405234801561001057600080fd5b506040516110a13803806110a183398101604081905261002f9161008d565b6001600160a01b038116610078576040517f08c379a000000000000000000000000000000000000000000000000000000000815260040161006f906100bb565b60405180910390fd5b60601b6001600160601b0319166080526100f2565b60006020828403121561009e578081fd5b81516001600160a01b03811681146100b4578182fd5b9392505050565b6020808252600f908201527f496e76616c696420616464726573730000000000000000000000000000000000604082015260600190565b60805160601c610f9161011060003960006104870152610f916000f3fe608060405234801561001057600080fd5b50600436106100885760003560e01c80638ae63d6d1161005b5780638ae63d6d14610109578063b5884f4214610111578063e1bf907514610131578063fe2778501461015357610088565b80632c32c3601461008d57806353ba2f04146100b65780635a6c95f5146100d65780636e378716146100f6575b600080fd5b6100a061009b366004610bc6565b610166565b6040516100ad9190610e59565b60405180910390f35b6100c96100c4366004610b05565b610465565b6040516100ad9190610e78565b6100e96100e4366004610b1f565b61047a565b6040516100ad9190610bf8565b6100a0610104366004610b05565b61054b565b6100a061055f565b61012461011f366004610b05565b610563565b6040516100ad9190610e38565b61014461013f366004610b9d565b6106eb565b6040516100ad93929190610e62565b6100a0610161366004610b05565b61072d565b600080610174600185610f0e565b6001600160a01b0386166000908152602081815260408083208054825181850281018501909352808352949550929384939192849084015b828210156101fc57838290600052602060002090600302016040518060600160405290816000820154815260200160018201548152602001600282015481525050815260200190600101906101ac565b50505050905080516000148061024557508060008151811061022e57634e487b7160e01b600052603260045260246000fd5b60200260200101516020015161024261055f565b11155b156102545750915061045e9050565b8060008151811061027557634e487b7160e01b600052603260045260246000fd5b6020026020010151602001518310156102c4576001816000815181106102ab57634e487b7160e01b600052603260045260246000fd5b6020026020010151602001516102c19190610f0e565b92505b60005b81518160ff16101561045757818160ff16815181106102f657634e487b7160e01b600052603260045260246000fd5b60200260200101516040015184111561030e57610445565b818160ff168151811061033157634e487b7160e01b600052603260045260246000fd5b602002602001015160400151861161039b5761038f610388838360ff168151811061036c57634e487b7160e01b600052603260045260246000fd5b602090810291909101015151610382898861077c565b90610788565b8490610794565b945061045e9350505050565b610411610388838360ff16815181106103c457634e487b7160e01b600052603260045260246000fd5b60200260200101516000015161038287868660ff16815181106103f757634e487b7160e01b600052603260045260246000fd5b60200260200101516040015161077c90919063ffffffff16565b9250818160ff168151811061043657634e487b7160e01b600052603260045260246000fd5b60200260200101516040015193505b8061044f81610f25565b9150506102c7565b5090925050505b9392505050565b60016020526000908152604090205460ff1681565b6000336001600160a01b037f000000000000000000000000000000000000000000000000000000000000000016146104cd5760405162461bcd60e51b81526004016104c490610dc7565b60405180910390fd5b6001600160a01b0384166104f35760405162461bcd60e51b81526004016104c490610c32565b6104fe8484846107a0565b836001600160a01b03167f2d2dfa6fc5f662c81da8110bfe4407afe69af659440ae2d4c93502483f6122498484604051610539929190610c03565b60405180910390a25060019392505050565b600061055682610563565b5190505b919050565b4390565b61056b610acd565b6001600160a01b03821660009081526020818152604080832080548251818502810185019093528083529192909190849084015b828210156105ef578382906000526020600020906003020160405180606001604052908160008201548152602001600182015481526020016002820154815250508152602001906001019061059f565b50505050905060005b6001600160a01b03841660009081526001602052604090205460ff90811690821610156106e457818160ff168151811061064257634e487b7160e01b600052603260045260246000fd5b60200260200101516020015161065661055f565b101580156106995750818160ff168151811061068257634e487b7160e01b600052603260045260246000fd5b60200260200101516040015161069661055f565b11155b156106d257818160ff16815181106106c157634e487b7160e01b600052603260045260246000fd5b60200260200101519250505061055a565b806106dc81610f25565b9150506105f8565b5050919050565b6000602052816000526040600020818154811061070757600080fd5b600091825260209091206003909102018054600182015460029092015490935090915083565b6001600160a01b03811660009081526020819052604081208054829061076357634e487b7160e01b600052603260045260246000fd5b9060005260206000209060030201600101549050919050565b600061045e8284610f0e565b600061045e8284610eef565b600061045e8284610e86565b60006107e6600084848080601f0160208091040260200160405190810160405280939291908181526020018383808284376000920191909152509293925050610a619050565b905060018160ff16101561080c5760405162461bcd60e51b81526004016104c490610c9e565b600160005b8260ff168160ff161015610a5957600061086e8367ffffffffffffffff1687878080601f0160208091040260200160405190810160405280939291908181526020018383808284376000920191909152509293925050610a979050565b905061087b836020610e9e565b925060006108cc8467ffffffffffffffff1688888080601f0160208091040260200160405190810160405280939291908181526020018383808284376000920191909152509293925050610a979050565b90506108d9846020610e9e565b9350600061092a8567ffffffffffffffff1689898080601f0160208091040260200160405190810160405280939291908181526020018383808284376000920191909152509293925050610a979050565b9050610937856020610e9e565b9450600081116109595760405162461bcd60e51b81526004016104c490610ce5565b60ff84166109875761096961055f565b83116109875760405162461bcd60e51b81526004016104c490610d83565b8183106109a65760405162461bcd60e51b81526004016104c490610c5b565b6001600160a01b0389166000818152602081815260408083208151606081018352868152808401898152818401898152835460018181018655948852868820935160039091029093019283559051828401555160029091015593835290839052902054610a189160ff90911690610eca565b6001600160a01b038a166000908152600160205260409020805460ff191660ff9290921691909117905550829150610a51905081610f25565b915050610811565b505050505050565b6000610a6e826001610e86565b83511015610a8e5760405162461bcd60e51b81526004016104c490610e0b565b50016001015190565b6000610aa4826020610e86565b83511015610ac45760405162461bcd60e51b81526004016104c490610d54565b50016020015190565b60405180606001604052806000815260200160008152602001600081525090565b80356001600160a01b038116811461055a57600080fd5b600060208284031215610b16578081fd5b61045e82610aee565b600080600060408486031215610b33578182fd5b610b3c84610aee565b9250602084013567ffffffffffffffff80821115610b58578384fd5b818601915086601f830112610b6b578384fd5b813581811115610b79578485fd5b876020828501011115610b8a578485fd5b6020830194508093505050509250925092565b60008060408385031215610baf578182fd5b610bb883610aee565b946020939093013593505050565b600080600060608486031215610bda578283fd5b610be384610aee565b95602085013595506040909401359392505050565b901515815260200190565b60006020825282602083015282846040840137818301604090810191909152601f909201601f19160101919050565b6020808252600f908201526e496e76616c6964206164647265737360881b604082015260600190565b60208082526023908201527f496e76616c69642073746f7020686569676874206f662064697374726962757460408201526234b7b760e91b606082015260800190565b60208082526027908201527f4174206c65617374206f6e6520646973747269627574696f6e20657261206973604082015266081b995959195960ca1b606082015260800190565b60208082526049908201527f496e76616c69642072657761726420616d6f756e74206f66206469737472696260408201527f7574696f6e2c20636f6e736964657220676976696e67206120706f7369746976606082015268329034b73a32b3b2b960b91b608082015260a00190565b602080825260159082015274746f55696e743235365f6f75744f66426f756e647360581b604082015260600190565b60208082526024908201527f496e76616c696420737461727420686569676874206f662064697374726962756040820152633a34b7b760e11b606082015260800190565b60208082526024908201527f4163636f756e74206973206e6f742074686520636f6d6d756e69747920666163604082015263746f727960e01b606082015260800190565b602080825260139082015272746f55696e74385f6f75744f66426f756e647360681b604082015260600190565b81518152602080830151908201526040918201519181019190915260600190565b90815260200190565b9283526020830191909152604082015260600190565b60ff91909116815260200190565b60008219821115610e9957610e99610f45565b500190565b600067ffffffffffffffff808316818516808303821115610ec157610ec1610f45565b01949350505050565b600060ff821660ff84168060ff03821115610ee757610ee7610f45565b019392505050565b6000816000190483118215151615610f0957610f09610f45565b500290565b600082821015610f2057610f20610f45565b500390565b600060ff821660ff811415610f3c57610f3c610f45565b60010192915050565b634e487b7160e01b600052601160045260246000fdfea26469706673582212202e607270d33c1fb222ef3f6ff8ac5e3c5c35107c95929725e3a2bce6fd17f85d64736f6c63430008000033",
  "immutableReferences": {
    "6941": [
      {
        "length": 32,
        "start": 1159
      }
    ]
  },
  "source": "// SPDX-License-Identifier: MIT\n\npragma solidity 0.8.0;\npragma experimental ABIEncoderV2;\n\nimport '@openzeppelin/contracts/utils/math/SafeMath.sol';\nimport 'solidity-bytes-utils/contracts/BytesLib.sol';\nimport '../interfaces/ICalculator.sol';\nimport '../interfaces/ArbSys.sol';\n\n/**\n * LinearCalculator is a distribution mechanism that people can set a reward on specific blocks height.\n *\n * Spec:\n *     length: uint8, distribution eras length\n *     eras[0]\n *     eras[1]\n *     ...\n *     eras[n]\n *     Era:\n *         uint256: startHeight,\n *         uint256: stopHeight,\n *         uint256: amount\n */\ncontract LinearCalculator is ICalculator {\n    struct Distribution {\n        // rewards per block of this distribution.\n        uint256 amount;\n        // when current block height > startHeight, distribution was enabled.\n        uint256 startHeight;\n        // when curent block height > stopHeight, distribution was disabled\n        uint256 stopHeight;\n    }\n\n    using SafeMath for uint256;\n    using BytesLib for bytes;\n\n    address immutable communityFactory;\n    mapping (address => Distribution[]) public distributionErasMap;\n    mapping (address => uint8) public distributionCountMap;\n\n    event DistributionEraSet(address indexed community, bytes policy);\n\n    modifier onlyFactory() {\n        require(msg.sender == communityFactory, \"Account is not the community factory\");\n        _;\n    }\n\n    constructor(address _communityFactory) {\n        require(_communityFactory != address(0), \"Invalid address\");\n        communityFactory = _communityFactory;\n    }\n\n    function setDistributionEra(address community, bytes calldata policy) onlyFactory external override returns(bool) {\n        require(community != address(0), 'Invalid address');\n        _applyDistributionEras(community, policy);\n        emit DistributionEraSet(community, policy);\n        return true;\n    }\n\n    function calculateReward(address community, uint256 from, uint256 to) external view override returns(uint256) {\n        uint256 rewardedBlock = from - 1;\n        uint256 rewards = 0;\n        Distribution[] memory eras = distributionErasMap[community];\n\n        if (eras.length == 0 || blockNum() <= eras[0].startHeight) {\n            return rewards;\n        }\n        if (rewardedBlock < eras[0].startHeight){\n            rewardedBlock = eras[0].startHeight - 1;\n        }\n\n        for (uint8 i = 0; i < eras.length; i++) {\n            if (rewardedBlock > eras[i].stopHeight){\n                continue;\n            }\n\n            if (to <= eras[i].stopHeight) {\n                rewards = rewards.add(to.sub(rewardedBlock).mul(eras[i].amount));\n                return rewards;\n            } else {\n                rewards = rewards.add(eras[i].stopHeight.sub(rewardedBlock).mul(eras[i].amount));\n                rewardedBlock = eras[i].stopHeight;\n            }\n        }\n        return rewards;\n    }\n    \n    function getCurrentRewardPerBlock(address community) external view override returns (uint256) {\n        return getCurrentDistributionEra(community).amount;\n    }\n\n    function getCurrentDistributionEra(address community) public view returns (Distribution memory era) {\n        Distribution[] memory eras = distributionErasMap[community];\n        for(uint8 i = 0; i < distributionCountMap[community]; i++) {\n            if (blockNum() >= eras[i].startHeight && blockNum() <= eras[i].stopHeight) {\n                era = eras[i];\n                return era;\n            }\n        }\n    }\n    \n    function getStartBlock(address community) external view override returns (uint256) {\n        return distributionErasMap[community][0].startHeight;\n    }\n\n    /**\n     * @dev Check and set distribution policy\n     * All distribution should meet following condidtion: \n     * 1) amount should greater than 0\n     * 2) first distrubtion startHeight should greater than current block height\n     * 3) startHeight shold less than stopHeight\n     */\n    function _applyDistributionEras(address community, bytes calldata policy) private {\n        uint8 erasLength = policy.toUint8(0);\n        require(erasLength >= 1, 'At least one distribution era is needed');\n\n        uint64 index = 1;\n        for(uint8 i = 0; i < erasLength; i++) {\n            uint256 start = policy.toUint256(index);\n            index = index + 32;\n            uint256 stop = policy.toUint256(index);\n            index = index + 32;\n            uint256 amount = policy.toUint256(index);\n            index = index + 32;\n\n            // check 1)\n            require(amount > 0, 'Invalid reward amount of distribution, consider giving a positive integer');\n            // check 2)\n            if (i == 0) {\n                require(start > blockNum(), 'Invalid start height of distribution');\n            }\n            // check 3)\n            require(start < stop, 'Invalid stop height of distribution');\n            // set distribution policy\n            distributionErasMap[community].push(Distribution ({\n                startHeight: start,\n                stopHeight: stop,\n                amount: amount\n            }));\n            distributionCountMap[community] = distributionCountMap[community] + 1;\n        }\n    }\n\n    function blockNum() public view returns (uint256) {\n        return block.number;\n        // return ArbSys(address(100)).arbBlockNumber();\n    }\n}\n",
  "sourcePath": "/Users/wangxi/work/Walnut-V2/nutbox-contract/contracts/calculators/LinearCalculator.sol",
  "compiler": {
    "name": "solc",
    "version": "0.8.0+commit.c7dfd78e.Emscripten.clang"
  },
  "schemaVersion": "3.3.4",
  "updatedAt": "2024-06-25T04:23:12.348Z",
  "devdoc": {
    "kind": "dev",
    "methods": {},
    "version": 1
  },
  "userdoc": {
    "kind": "user",
    "methods": {},
    "notice": "LinearCalculator is a distribution mechanism that people can set a reward on specific blocks height. Spec:     length: uint8, distribution eras length     eras[0]     eras[1]     ...     eras[n]     Era:         uint256: startHeight,         uint256: stopHeight,         uint256: amount",
    "version": 1
  }
}