{
  "contractName": "LinearCalculator",
  "abi": [
    {
      "inputs": [
        {
          "internalType": "address",
          "name": "_communityFactory",
          "type": "address"
        }
      ],
      "stateMutability": "nonpayable",
      "type": "constructor"
    },
    {
      "anonymous": false,
      "inputs": [
        {
          "indexed": true,
          "internalType": "address",
          "name": "community",
          "type": "address"
        },
        {
          "indexed": false,
          "internalType": "bytes",
          "name": "policy",
          "type": "bytes"
        }
      ],
      "name": "DistributionEraSet",
      "type": "event"
    },
    {
      "inputs": [
        {
          "internalType": "address",
          "name": "",
          "type": "address"
        }
      ],
      "name": "distributionCountMap",
      "outputs": [
        {
          "internalType": "uint8",
          "name": "",
          "type": "uint8"
        }
      ],
      "stateMutability": "view",
      "type": "function"
    },
    {
      "inputs": [
        {
          "internalType": "address",
          "name": "",
          "type": "address"
        },
        {
          "internalType": "uint256",
          "name": "",
          "type": "uint256"
        }
      ],
      "name": "distributionErasMap",
      "outputs": [
        {
          "internalType": "uint256",
          "name": "amount",
          "type": "uint256"
        },
        {
          "internalType": "uint256",
          "name": "startHeight",
          "type": "uint256"
        },
        {
          "internalType": "uint256",
          "name": "stopHeight",
          "type": "uint256"
        }
      ],
      "stateMutability": "view",
      "type": "function"
    },
    {
      "inputs": [
        {
          "internalType": "address",
          "name": "community",
          "type": "address"
        },
        {
          "internalType": "bytes",
          "name": "policy",
          "type": "bytes"
        }
      ],
      "name": "setDistributionEra",
      "outputs": [
        {
          "internalType": "bool",
          "name": "",
          "type": "bool"
        }
      ],
      "stateMutability": "nonpayable",
      "type": "function"
    },
    {
      "inputs": [
        {
          "internalType": "address",
          "name": "community",
          "type": "address"
        },
        {
          "internalType": "uint256",
          "name": "from",
          "type": "uint256"
        },
        {
          "internalType": "uint256",
          "name": "to",
          "type": "uint256"
        }
      ],
      "name": "calculateReward",
      "outputs": [
        {
          "internalType": "uint256",
          "name": "",
          "type": "uint256"
        }
      ],
      "stateMutability": "view",
      "type": "function"
    },
    {
      "inputs": [
        {
          "internalType": "address",
          "name": "community",
          "type": "address"
        }
      ],
      "name": "getCurrentRewardPerBlock",
      "outputs": [
        {
          "internalType": "uint256",
          "name": "",
          "type": "uint256"
        }
      ],
      "stateMutability": "view",
      "type": "function"
    },
    {
      "inputs": [
        {
          "internalType": "address",
          "name": "community",
          "type": "address"
        }
      ],
      "name": "getCurrentDistributionEra",
      "outputs": [
        {
          "components": [
            {
              "internalType": "uint256",
              "name": "amount",
              "type": "uint256"
            },
            {
              "internalType": "uint256",
              "name": "startHeight",
              "type": "uint256"
            },
            {
              "internalType": "uint256",
              "name": "stopHeight",
              "type": "uint256"
            }
          ],
          "internalType": "struct LinearCalculator.Distribution",
          "name": "era",
          "type": "tuple"
        }
      ],
      "stateMutability": "view",
      "type": "function"
    },
    {
      "inputs": [
        {
          "internalType": "address",
          "name": "community",
          "type": "address"
        }
      ],
      "name": "getStartBlock",
      "outputs": [
        {
          "internalType": "uint256",
          "name": "",
          "type": "uint256"
        }
      ],
      "stateMutability": "view",
      "type": "function"
    },
    {
      "inputs": [],
      "name": "blockNum",
      "outputs": [
        {
          "internalType": "uint256",
          "name": "",
          "type": "uint256"
        }
      ],
      "stateMutability": "view",
      "type": "function"
    }
  ],
  "bytecode": "0x60a060405234801561001057600080fd5b5060405161112e38038061112e83398101604081905261002f9161008d565b6001600160a01b038116610078576040517f08c379a000000000000000000000000000000000000000000000000000000000815260040161006f906100bb565b60405180910390fd5b60601b6001600160601b0319166080526100f2565b60006020828403121561009e578081fd5b81516001600160a01b03811681146100b4578182fd5b9392505050565b6020808252600f908201527f496e76616c696420616464726573730000000000000000000000000000000000604082015260600190565b60805160601c61101e6101106000396000610487015261101e6000f3fe608060405234801561001057600080fd5b50600436106100885760003560e01c80638ae63d6d1161005b5780638ae63d6d14610109578063b5884f4214610111578063e1bf907514610131578063fe2778501461015357610088565b80632c32c3601461008d57806353ba2f04146100b65780635a6c95f5146100d65780636e378716146100f6575b600080fd5b6100a061009b366004610c3b565b610166565b6040516100ad9190610ee6565b60405180910390f35b6100c96100c4366004610b7a565b610465565b6040516100ad9190610f05565b6100e96100e4366004610b94565b61047a565b6040516100ad9190610c85565b6100a0610104366004610b7a565b61054b565b6100a061055f565b61012461011f366004610b7a565b6105d8565b6040516100ad9190610ec5565b61014461013f366004610c12565b610760565b6040516100ad93929190610eef565b6100a0610161366004610b7a565b6107a2565b600080610174600185610f9b565b6001600160a01b0386166000908152602081815260408083208054825181850281018501909352808352949550929384939192849084015b828210156101fc57838290600052602060002090600302016040518060600160405290816000820154815260200160018201548152602001600282015481525050815260200190600101906101ac565b50505050905080516000148061024557508060008151811061022e57634e487b7160e01b600052603260045260246000fd5b60200260200101516020015161024261055f565b11155b156102545750915061045e9050565b8060008151811061027557634e487b7160e01b600052603260045260246000fd5b6020026020010151602001518310156102c4576001816000815181106102ab57634e487b7160e01b600052603260045260246000fd5b6020026020010151602001516102c19190610f9b565b92505b60005b81518160ff16101561045757818160ff16815181106102f657634e487b7160e01b600052603260045260246000fd5b60200260200101516040015184111561030e57610445565b818160ff168151811061033157634e487b7160e01b600052603260045260246000fd5b602002602001015160400151861161039b5761038f610388838360ff168151811061036c57634e487b7160e01b600052603260045260246000fd5b60209081029190910101515161038289886107f1565b906107fd565b8490610809565b945061045e9350505050565b610411610388838360ff16815181106103c457634e487b7160e01b600052603260045260246000fd5b60200260200101516000015161038287868660ff16815181106103f757634e487b7160e01b600052603260045260246000fd5b6020026020010151604001516107f190919063ffffffff16565b9250818160ff168151811061043657634e487b7160e01b600052603260045260246000fd5b60200260200101516040015193505b8061044f81610fb2565b9150506102c7565b5090925050505b9392505050565b60016020526000908152604090205460ff1681565b6000336001600160a01b037f000000000000000000000000000000000000000000000000000000000000000016146104cd5760405162461bcd60e51b81526004016104c490610e54565b60405180910390fd5b6001600160a01b0384166104f35760405162461bcd60e51b81526004016104c490610cbf565b6104fe848484610815565b836001600160a01b03167f2d2dfa6fc5f662c81da8110bfe4407afe69af659440ae2d4c93502483f6122498484604051610539929190610c90565b60405180910390a25060019392505050565b6000610556826105d8565b5190505b919050565b600060646001600160a01b031663a3b1b31d6040518163ffffffff1660e01b815260040160206040518083038186803b15801561059b57600080fd5b505afa1580156105af573d6000803e3d6000fd5b505050506040513d601f19601f820116820180604052508101906105d39190610c6d565b905090565b6105e0610b42565b6001600160a01b03821660009081526020818152604080832080548251818502810185019093528083529192909190849084015b828210156106645783829060005260206000209060030201604051806060016040529081600082015481526020016001820154815260200160028201548152505081526020019060010190610614565b50505050905060005b6001600160a01b03841660009081526001602052604090205460ff908116908216101561075957818160ff16815181106106b757634e487b7160e01b600052603260045260246000fd5b6020026020010151602001516106cb61055f565b1015801561070e5750818160ff16815181106106f757634e487b7160e01b600052603260045260246000fd5b60200260200101516040015161070b61055f565b11155b1561074757818160ff168151811061073657634e487b7160e01b600052603260045260246000fd5b60200260200101519250505061055a565b8061075181610fb2565b91505061066d565b5050919050565b6000602052816000526040600020818154811061077c57600080fd5b600091825260209091206003909102018054600182015460029092015490935090915083565b6001600160a01b0381166000908152602081905260408120805482906107d857634e487b7160e01b600052603260045260246000fd5b9060005260206000209060030201600101549050919050565b600061045e8284610f9b565b600061045e8284610f7c565b600061045e8284610f13565b600061085b600084848080601f0160208091040260200160405190810160405280939291908181526020018383808284376000920191909152509293925050610ad69050565b905060018160ff1610156108815760405162461bcd60e51b81526004016104c490610d2b565b600160005b8260ff168160ff161015610ace5760006108e38367ffffffffffffffff1687878080601f0160208091040260200160405190810160405280939291908181526020018383808284376000920191909152509293925050610b0c9050565b90506108f0836020610f2b565b925060006109418467ffffffffffffffff1688888080601f0160208091040260200160405190810160405280939291908181526020018383808284376000920191909152509293925050610b0c9050565b905061094e846020610f2b565b9350600061099f8567ffffffffffffffff1689898080601f0160208091040260200160405190810160405280939291908181526020018383808284376000920191909152509293925050610b0c9050565b90506109ac856020610f2b565b9450600081116109ce5760405162461bcd60e51b81526004016104c490610d72565b60ff84166109fc576109de61055f565b83116109fc5760405162461bcd60e51b81526004016104c490610e10565b818310610a1b5760405162461bcd60e51b81526004016104c490610ce8565b6001600160a01b0389166000818152602081815260408083208151606081018352868152808401898152818401898152835460018181018655948852868820935160039091029093019283559051828401555160029091015593835290839052902054610a8d9160ff90911690610f57565b6001600160a01b038a166000908152600160205260409020805460ff191660ff9290921691909117905550829150610ac6905081610fb2565b915050610886565b505050505050565b6000610ae3826001610f13565b83511015610b035760405162461bcd60e51b81526004016104c490610e98565b50016001015190565b6000610b19826020610f13565b83511015610b395760405162461bcd60e51b81526004016104c490610de1565b50016020015190565b60405180606001604052806000815260200160008152602001600081525090565b80356001600160a01b038116811461055a57600080fd5b600060208284031215610b8b578081fd5b61045e82610b63565b600080600060408486031215610ba8578182fd5b610bb184610b63565b9250602084013567ffffffffffffffff80821115610bcd578384fd5b818601915086601f830112610be0578384fd5b813581811115610bee578485fd5b876020828501011115610bff578485fd5b6020830194508093505050509250925092565b60008060408385031215610c24578182fd5b610c2d83610b63565b946020939093013593505050565b600080600060608486031215610c4f578283fd5b610c5884610b63565b95602085013595506040909401359392505050565b600060208284031215610c7e578081fd5b5051919050565b901515815260200190565b60006020825282602083015282846040840137818301604090810191909152601f909201601f19160101919050565b6020808252600f908201526e496e76616c6964206164647265737360881b604082015260600190565b60208082526023908201527f496e76616c69642073746f7020686569676874206f662064697374726962757460408201526234b7b760e91b606082015260800190565b60208082526027908201527f4174206c65617374206f6e6520646973747269627574696f6e20657261206973604082015266081b995959195960ca1b606082015260800190565b60208082526049908201527f496e76616c69642072657761726420616d6f756e74206f66206469737472696260408201527f7574696f6e2c20636f6e736964657220676976696e67206120706f7369746976606082015268329034b73a32b3b2b960b91b608082015260a00190565b602080825260159082015274746f55696e743235365f6f75744f66426f756e647360581b604082015260600190565b60208082526024908201527f496e76616c696420737461727420686569676874206f662064697374726962756040820152633a34b7b760e11b606082015260800190565b60208082526024908201527f4163636f756e74206973206e6f742074686520636f6d6d756e69747920666163604082015263746f727960e01b606082015260800190565b602080825260139082015272746f55696e74385f6f75744f66426f756e647360681b604082015260600190565b81518152602080830151908201526040918201519181019190915260600190565b90815260200190565b9283526020830191909152604082015260600190565b60ff91909116815260200190565b60008219821115610f2657610f26610fd2565b500190565b600067ffffffffffffffff808316818516808303821115610f4e57610f4e610fd2565b01949350505050565b600060ff821660ff84168060ff03821115610f7457610f74610fd2565b019392505050565b6000816000190483118215151615610f9657610f96610fd2565b500290565b600082821015610fad57610fad610fd2565b500390565b600060ff821660ff811415610fc957610fc9610fd2565b60010192915050565b634e487b7160e01b600052601160045260246000fdfea26469706673582212206e0a1692569e163ae769e5f86a9aa2c3fc7f8f02ed62deefd2fd2755610fde3964736f6c63430008000033",
  "immutableReferences": {
    "6192": [
      {
        "length": 32,
        "start": 1159
      }
    ]
  },
  "source": "// SPDX-License-Identifier: MIT\n\npragma solidity 0.8.0;\npragma experimental ABIEncoderV2;\n\nimport '@openzeppelin/contracts/utils/math/SafeMath.sol';\nimport 'solidity-bytes-utils/contracts/BytesLib.sol';\nimport '../interfaces/ICalculator.sol';\nimport '../interfaces/ArbSys.sol';\n\n/**\n * LinearCalculator is a distribution mechanism that people can set a reward on specific blocks height.\n *\n * Spec:\n *     length: uint8, distribution eras length\n *     eras[0]\n *     eras[1]\n *     ...\n *     eras[n]\n *     Era:\n *         uint256: startHeight,\n *         uint256: stopHeight,\n *         uint256: amount\n */\ncontract LinearCalculator is ICalculator {\n    struct Distribution {\n        // rewards per block of this distribution.\n        uint256 amount;\n        // when current block height > startHeight, distribution was enabled.\n        uint256 startHeight;\n        // when curent block height > stopHeight, distribution was disabled\n        uint256 stopHeight;\n    }\n\n    using SafeMath for uint256;\n    using BytesLib for bytes;\n\n    address immutable communityFactory;\n    mapping (address => Distribution[]) public distributionErasMap;\n    mapping (address => uint8) public distributionCountMap;\n\n    event DistributionEraSet(address indexed community, bytes policy);\n\n    modifier onlyFactory() {\n        require(msg.sender == communityFactory, \"Account is not the community factory\");\n        _;\n    }\n\n    constructor(address _communityFactory) {\n        require(_communityFactory != address(0), \"Invalid address\");\n        communityFactory = _communityFactory;\n    }\n\n    function setDistributionEra(address community, bytes calldata policy) onlyFactory external override returns(bool) {\n        require(community != address(0), 'Invalid address');\n        _applyDistributionEras(community, policy);\n        emit DistributionEraSet(community, policy);\n        return true;\n    }\n\n    function calculateReward(address community, uint256 from, uint256 to) external view override returns(uint256) {\n        uint256 rewardedBlock = from - 1;\n        uint256 rewards = 0;\n        Distribution[] memory eras = distributionErasMap[community];\n\n        if (eras.length == 0 || blockNum() <= eras[0].startHeight) {\n            return rewards;\n        }\n        if (rewardedBlock < eras[0].startHeight){\n            rewardedBlock = eras[0].startHeight - 1;\n        }\n\n        for (uint8 i = 0; i < eras.length; i++) {\n            if (rewardedBlock > eras[i].stopHeight){\n                continue;\n            }\n\n            if (to <= eras[i].stopHeight) {\n                rewards = rewards.add(to.sub(rewardedBlock).mul(eras[i].amount));\n                return rewards;\n            } else {\n                rewards = rewards.add(eras[i].stopHeight.sub(rewardedBlock).mul(eras[i].amount));\n                rewardedBlock = eras[i].stopHeight;\n            }\n        }\n        return rewards;\n    }\n    \n    function getCurrentRewardPerBlock(address community) external view override returns (uint256) {\n        return getCurrentDistributionEra(community).amount;\n    }\n\n    function getCurrentDistributionEra(address community) public view returns (Distribution memory era) {\n        Distribution[] memory eras = distributionErasMap[community];\n        for(uint8 i = 0; i < distributionCountMap[community]; i++) {\n            if (blockNum() >= eras[i].startHeight && blockNum() <= eras[i].stopHeight) {\n                era = eras[i];\n                return era;\n            }\n        }\n    }\n    \n    function getStartBlock(address community) external view override returns (uint256) {\n        return distributionErasMap[community][0].startHeight;\n    }\n\n    /**\n     * @dev Check and set distribution policy\n     * All distribution should meet following condidtion: \n     * 1) amount should greater than 0\n     * 2) first distrubtion startHeight should greater than current block height\n     * 3) startHeight shold less than stopHeight\n     */\n    function _applyDistributionEras(address community, bytes calldata policy) private {\n        uint8 erasLength = policy.toUint8(0);\n        require(erasLength >= 1, 'At least one distribution era is needed');\n\n        uint64 index = 1;\n        for(uint8 i = 0; i < erasLength; i++) {\n            uint256 start = policy.toUint256(index);\n            index = index + 32;\n            uint256 stop = policy.toUint256(index);\n            index = index + 32;\n            uint256 amount = policy.toUint256(index);\n            index = index + 32;\n\n            // check 1)\n            require(amount > 0, 'Invalid reward amount of distribution, consider giving a positive integer');\n            // check 2)\n            if (i == 0) {\n                require(start > blockNum(), 'Invalid start height of distribution');\n            }\n            // check 3)\n            require(start < stop, 'Invalid stop height of distribution');\n            // set distribution policy\n            distributionErasMap[community].push(Distribution ({\n                startHeight: start,\n                stopHeight: stop,\n                amount: amount\n            }));\n            distributionCountMap[community] = distributionCountMap[community] + 1;\n        }\n    }\n\n    function blockNum() public view returns (uint256) {\n        return ArbSys(address(100)).arbBlockNumber();\n    }\n}\n",
  "sourcePath": "/Users/wangxi/work/Walnut-V2/nutbox-contract/contracts/calculators/LinearCalculator.sol",
  "compiler": {
    "name": "solc",
    "version": "0.8.0+commit.c7dfd78e.Emscripten.clang"
  },
  "schemaVersion": "3.3.4",
  "updatedAt": "2023-06-14T03:47:44.644Z",
  "devdoc": {
    "kind": "dev",
    "methods": {},
    "version": 1
  },
  "userdoc": {
    "kind": "user",
    "methods": {},
    "notice": "LinearCalculator is a distribution mechanism that people can set a reward on specific blocks height. Spec:     length: uint8, distribution eras length     eras[0]     eras[1]     ...     eras[n]     Era:         uint256: startHeight,         uint256: stopHeight,         uint256: amount",
    "version": 1
  }
}