{
  "contractName": "LinearCalculator",
  "abi": [
    {
      "inputs": [
        {
          "internalType": "address",
          "name": "_communityFactory",
          "type": "address"
        }
      ],
      "stateMutability": "nonpayable",
      "type": "constructor"
    },
    {
      "anonymous": false,
      "inputs": [
        {
          "indexed": true,
          "internalType": "address",
          "name": "community",
          "type": "address"
        },
        {
          "indexed": false,
          "internalType": "bytes",
          "name": "policy",
          "type": "bytes"
        }
      ],
      "name": "DistributionEraSet",
      "type": "event"
    },
    {
      "inputs": [
        {
          "internalType": "address",
          "name": "",
          "type": "address"
        }
      ],
      "name": "distributionCountMap",
      "outputs": [
        {
          "internalType": "uint8",
          "name": "",
          "type": "uint8"
        }
      ],
      "stateMutability": "view",
      "type": "function"
    },
    {
      "inputs": [
        {
          "internalType": "address",
          "name": "",
          "type": "address"
        },
        {
          "internalType": "uint256",
          "name": "",
          "type": "uint256"
        }
      ],
      "name": "distributionErasMap",
      "outputs": [
        {
          "internalType": "uint256",
          "name": "amount",
          "type": "uint256"
        },
        {
          "internalType": "uint256",
          "name": "startHeight",
          "type": "uint256"
        },
        {
          "internalType": "uint256",
          "name": "stopHeight",
          "type": "uint256"
        }
      ],
      "stateMutability": "view",
      "type": "function"
    },
    {
      "inputs": [
        {
          "internalType": "address",
          "name": "community",
          "type": "address"
        },
        {
          "internalType": "bytes",
          "name": "policy",
          "type": "bytes"
        }
      ],
      "name": "setDistributionEra",
      "outputs": [
        {
          "internalType": "bool",
          "name": "",
          "type": "bool"
        }
      ],
      "stateMutability": "nonpayable",
      "type": "function"
    },
    {
      "inputs": [
        {
          "internalType": "address",
          "name": "community",
          "type": "address"
        },
        {
          "internalType": "uint256",
          "name": "from",
          "type": "uint256"
        },
        {
          "internalType": "uint256",
          "name": "to",
          "type": "uint256"
        }
      ],
      "name": "calculateReward",
      "outputs": [
        {
          "internalType": "uint256",
          "name": "",
          "type": "uint256"
        }
      ],
      "stateMutability": "view",
      "type": "function"
    },
    {
      "inputs": [
        {
          "internalType": "address",
          "name": "community",
          "type": "address"
        }
      ],
      "name": "getCurrentRewardPerBlock",
      "outputs": [
        {
          "internalType": "uint256",
          "name": "",
          "type": "uint256"
        }
      ],
      "stateMutability": "view",
      "type": "function"
    },
    {
      "inputs": [
        {
          "internalType": "address",
          "name": "community",
          "type": "address"
        }
      ],
      "name": "getCurrentDistributionEra",
      "outputs": [
        {
          "components": [
            {
              "internalType": "uint256",
              "name": "amount",
              "type": "uint256"
            },
            {
              "internalType": "uint256",
              "name": "startHeight",
              "type": "uint256"
            },
            {
              "internalType": "uint256",
              "name": "stopHeight",
              "type": "uint256"
            }
          ],
          "internalType": "struct LinearCalculator.Distribution",
          "name": "era",
          "type": "tuple"
        }
      ],
      "stateMutability": "view",
      "type": "function"
    },
    {
      "inputs": [
        {
          "internalType": "address",
          "name": "community",
          "type": "address"
        }
      ],
      "name": "getStartBlock",
      "outputs": [
        {
          "internalType": "uint256",
          "name": "",
          "type": "uint256"
        }
      ],
      "stateMutability": "view",
      "type": "function"
    }
  ],
  "bytecode": "0x60a060405234801561001057600080fd5b5060405161106e38038061106e83398101604081905261002f9161008d565b6001600160a01b038116610078576040517f08c379a000000000000000000000000000000000000000000000000000000000815260040161006f906100bb565b60405180910390fd5b60601b6001600160601b0319166080526100f2565b60006020828403121561009e578081fd5b81516001600160a01b03811681146100b4578182fd5b9392505050565b6020808252600f908201527f496e76616c696420616464726573730000000000000000000000000000000000604082015260600190565b60805160601c610f5e610110600039600061046d0152610f5e6000f3fe608060405234801561001057600080fd5b506004361061007d5760003560e01c80636e3787161161005b5780636e378716146100eb578063b5884f42146100fe578063e1bf90751461011e578063fe277850146101405761007d565b80632c32c3601461008257806353ba2f04146100ab5780635a6c95f5146100cb575b600080fd5b610095610090366004610b93565b610153565b6040516100a29190610e26565b60405180910390f35b6100be6100b9366004610ad2565b61044b565b6040516100a29190610e45565b6100de6100d9366004610aec565b610460565b6040516100a29190610bc5565b6100956100f9366004610ad2565b610531565b61011161010c366004610ad2565b610545565b6040516100a29190610e05565b61013161012c366004610b6a565b6106bf565b6040516100a293929190610e2f565b61009561014e366004610ad2565b610701565b600080610161600185610edb565b6001600160a01b0386166000908152602081815260408083208054825181850281018501909352808352949550929384939192849084015b828210156101e95783829060005260206000209060030201604051806060016040529081600082015481526020016001820154815260200160028201548152505081526020019060010190610199565b50505050905080516000148061022b57508060008151811061021b57634e487b7160e01b600052603260045260246000fd5b6020026020010151602001514311155b1561023a575091506104449050565b8060008151811061025b57634e487b7160e01b600052603260045260246000fd5b6020026020010151602001518310156102aa5760018160008151811061029157634e487b7160e01b600052603260045260246000fd5b6020026020010151602001516102a79190610edb565b92505b60005b81518160ff16101561043d57818160ff16815181106102dc57634e487b7160e01b600052603260045260246000fd5b6020026020010151604001518411156102f45761042b565b818160ff168151811061031757634e487b7160e01b600052603260045260246000fd5b60200260200101516040015186116103815761037561036e838360ff168151811061035257634e487b7160e01b600052603260045260246000fd5b6020908102919091010151516103688988610750565b9061075c565b8490610768565b94506104449350505050565b6103f761036e838360ff16815181106103aa57634e487b7160e01b600052603260045260246000fd5b60200260200101516000015161036887868660ff16815181106103dd57634e487b7160e01b600052603260045260246000fd5b60200260200101516040015161075090919063ffffffff16565b9250818160ff168151811061041c57634e487b7160e01b600052603260045260246000fd5b60200260200101516040015193505b8061043581610ef2565b9150506102ad565b5090925050505b9392505050565b60016020526000908152604090205460ff1681565b6000336001600160a01b037f000000000000000000000000000000000000000000000000000000000000000016146104b35760405162461bcd60e51b81526004016104aa90610d94565b60405180910390fd5b6001600160a01b0384166104d95760405162461bcd60e51b81526004016104aa90610bff565b6104e4848484610774565b836001600160a01b03167f2d2dfa6fc5f662c81da8110bfe4407afe69af659440ae2d4c93502483f612249848460405161051f929190610bd0565b60405180910390a25060019392505050565b600061053c82610545565b5190505b919050565b61054d610a9a565b6001600160a01b03821660009081526020818152604080832080548251818502810185019093528083529192909190849084015b828210156105d15783829060005260206000209060030201604051806060016040529081600082015481526020016001820154815260200160028201548152505081526020019060010190610581565b50505050905060005b6001600160a01b03841660009081526001602052604090205460ff90811690821610156106b857818160ff168151811061062457634e487b7160e01b600052603260045260246000fd5b602002602001015160200151431015801561066d5750818160ff168151811061065d57634e487b7160e01b600052603260045260246000fd5b6020026020010151604001514311155b156106a657818160ff168151811061069557634e487b7160e01b600052603260045260246000fd5b602002602001015192505050610540565b806106b081610ef2565b9150506105da565b5050919050565b600060205281600052604060002081815481106106db57600080fd5b600091825260209091206003909102018054600182015460029092015490935090915083565b6001600160a01b03811660009081526020819052604081208054829061073757634e487b7160e01b600052603260045260246000fd5b9060005260206000209060030201600101549050919050565b60006104448284610edb565b60006104448284610ebc565b60006104448284610e53565b60006107ba600084848080601f0160208091040260200160405190810160405280939291908181526020018383808284376000920191909152509293925050610a2e9050565b905060018160ff1610156107e05760405162461bcd60e51b81526004016104aa90610c6b565b600160005b8260ff168160ff161015610a265760006108428367ffffffffffffffff1687878080601f0160208091040260200160405190810160405280939291908181526020018383808284376000920191909152509293925050610a649050565b905061084f836020610e6b565b925060006108a08467ffffffffffffffff1688888080601f0160208091040260200160405190810160405280939291908181526020018383808284376000920191909152509293925050610a649050565b90506108ad846020610e6b565b935060006108fe8567ffffffffffffffff1689898080601f0160208091040260200160405190810160405280939291908181526020018383808284376000920191909152509293925050610a649050565b905061090b856020610e6b565b94506000811161092d5760405162461bcd60e51b81526004016104aa90610cb2565b60ff8416610954574383116109545760405162461bcd60e51b81526004016104aa90610d50565b8183106109735760405162461bcd60e51b81526004016104aa90610c28565b6001600160a01b03891660008181526020818152604080832081516060810183528681528084018981528184018981528354600181810186559488528688209351600390910290930192835590518284015551600290910155938352908390529020546109e59160ff90911690610e97565b6001600160a01b038a166000908152600160205260409020805460ff191660ff9290921691909117905550829150610a1e905081610ef2565b9150506107e5565b505050505050565b6000610a3b826001610e53565b83511015610a5b5760405162461bcd60e51b81526004016104aa90610dd8565b50016001015190565b6000610a71826020610e53565b83511015610a915760405162461bcd60e51b81526004016104aa90610d21565b50016020015190565b60405180606001604052806000815260200160008152602001600081525090565b80356001600160a01b038116811461054057600080fd5b600060208284031215610ae3578081fd5b61044482610abb565b600080600060408486031215610b00578182fd5b610b0984610abb565b9250602084013567ffffffffffffffff80821115610b25578384fd5b818601915086601f830112610b38578384fd5b813581811115610b46578485fd5b876020828501011115610b57578485fd5b6020830194508093505050509250925092565b60008060408385031215610b7c578182fd5b610b8583610abb565b946020939093013593505050565b600080600060608486031215610ba7578283fd5b610bb084610abb565b95602085013595506040909401359392505050565b901515815260200190565b60006020825282602083015282846040840137818301604090810191909152601f909201601f19160101919050565b6020808252600f908201526e496e76616c6964206164647265737360881b604082015260600190565b60208082526023908201527f496e76616c69642073746f7020686569676874206f662064697374726962757460408201526234b7b760e91b606082015260800190565b60208082526027908201527f4174206c65617374206f6e6520646973747269627574696f6e20657261206973604082015266081b995959195960ca1b606082015260800190565b60208082526049908201527f496e76616c69642072657761726420616d6f756e74206f66206469737472696260408201527f7574696f6e2c20636f6e736964657220676976696e67206120706f7369746976606082015268329034b73a32b3b2b960b91b608082015260a00190565b602080825260159082015274746f55696e743235365f6f75744f66426f756e647360581b604082015260600190565b60208082526024908201527f496e76616c696420737461727420686569676874206f662064697374726962756040820152633a34b7b760e11b606082015260800190565b60208082526024908201527f4163636f756e74206973206e6f742074686520636f6d6d756e69747920666163604082015263746f727960e01b606082015260800190565b602080825260139082015272746f55696e74385f6f75744f66426f756e647360681b604082015260600190565b81518152602080830151908201526040918201519181019190915260600190565b90815260200190565b9283526020830191909152604082015260600190565b60ff91909116815260200190565b60008219821115610e6657610e66610f12565b500190565b600067ffffffffffffffff808316818516808303821115610e8e57610e8e610f12565b01949350505050565b600060ff821660ff84168060ff03821115610eb457610eb4610f12565b019392505050565b6000816000190483118215151615610ed657610ed6610f12565b500290565b600082821015610eed57610eed610f12565b500390565b600060ff821660ff811415610f0957610f09610f12565b60010192915050565b634e487b7160e01b600052601160045260246000fdfea2646970667358221220be0b3714c313713c7ac8090b70b392118e5a1f245cb8ac80580f287ae30e390564736f6c63430008000033",
  "immutableReferences": {
    "9841": [
      {
        "length": 32,
        "start": 1133
      }
    ]
  },
  "source": "// SPDX-License-Identifier: MIT\n\npragma solidity 0.8.0;\npragma experimental ABIEncoderV2;\n\nimport '@openzeppelin/contracts/utils/math/SafeMath.sol';\nimport 'solidity-bytes-utils/contracts/BytesLib.sol';\nimport '../interfaces/ICalculator.sol';\n\n/**\n * LinearCalculator is a distribution mechanism that people can set a reward on specific blocks height.\n *\n * Spec:\n *     length: uint8, distribution eras length\n *     eras[0]\n *     eras[1]\n *     ...\n *     eras[n]\n *     Era:\n *         uint256: startHeight,\n *         uint256: stopHeight,\n *         uint256: amount\n */\ncontract LinearCalculator is ICalculator {\n    struct Distribution {\n        // rewards per block of this distribution.\n        uint256 amount;\n        // when current block height > startHeight, distribution was enabled.\n        uint256 startHeight;\n        // when curent block height > stopHeight, distribution was disabled\n        uint256 stopHeight;\n    }\n\n    using SafeMath for uint256;\n    using BytesLib for bytes;\n\n    address immutable communityFactory;\n    mapping (address => Distribution[]) public distributionErasMap;\n    mapping (address => uint8) public distributionCountMap;\n\n    event DistributionEraSet(address indexed community, bytes policy);\n\n    modifier onlyFactory() {\n        require(msg.sender == communityFactory, \"Account is not the community factory\");\n        _;\n    }\n\n    constructor(address _communityFactory) {\n        require(_communityFactory != address(0), \"Invalid address\");\n        communityFactory = _communityFactory;\n    }\n\n    function setDistributionEra(address community, bytes calldata policy) onlyFactory external override returns(bool) {\n        require(community != address(0), 'Invalid address');\n        _applyDistributionEras(community, policy);\n        emit DistributionEraSet(community, policy);\n        return true;\n    }\n\n    function calculateReward(address community, uint256 from, uint256 to) external view override returns(uint256) {\n        uint256 rewardedBlock = from - 1;\n        uint256 rewards = 0;\n        Distribution[] memory eras = distributionErasMap[community];\n\n        if (eras.length == 0 || block.number <= eras[0].startHeight) {\n            return rewards;\n        }\n        if (rewardedBlock < eras[0].startHeight){\n            rewardedBlock = eras[0].startHeight - 1;\n        }\n\n        for (uint8 i = 0; i < eras.length; i++) {\n            if (rewardedBlock > eras[i].stopHeight){\n                continue;\n            }\n\n            if (to <= eras[i].stopHeight) {\n                rewards = rewards.add(to.sub(rewardedBlock).mul(eras[i].amount));\n                return rewards;\n            } else {\n                rewards = rewards.add(eras[i].stopHeight.sub(rewardedBlock).mul(eras[i].amount));\n                rewardedBlock = eras[i].stopHeight;\n            }\n        }\n        return rewards;\n    }\n    \n    function getCurrentRewardPerBlock(address community) external view override returns (uint256) {\n        return getCurrentDistributionEra(community).amount;\n    }\n\n    function getCurrentDistributionEra(address community) public view returns (Distribution memory era) {\n        Distribution[] memory eras = distributionErasMap[community];\n        for(uint8 i = 0; i < distributionCountMap[community]; i++) {\n            if (block.number >= eras[i].startHeight && block.number <= eras[i].stopHeight) {\n                era = eras[i];\n                return era;\n            }\n        }\n    }\n    \n    function getStartBlock(address community) external view override returns (uint256) {\n        return distributionErasMap[community][0].startHeight;\n    }\n\n    /**\n     * @dev Check and set distribution policy\n     * All distribution should meet following condidtion: \n     * 1) amount should greater than 0\n     * 2) first distrubtion startHeight should greater than current block height\n     * 3) startHeight shold less than stopHeight\n     */\n    function _applyDistributionEras(address community, bytes calldata policy) private {\n        uint8 erasLength = policy.toUint8(0);\n        require(erasLength >= 1, 'At least one distribution era is needed');\n\n        uint64 index = 1;\n        for(uint8 i = 0; i < erasLength; i++) {\n            uint256 start = policy.toUint256(index);\n            index = index + 32;\n            uint256 stop = policy.toUint256(index);\n            index = index + 32;\n            uint256 amount = policy.toUint256(index);\n            index = index + 32;\n\n            // check 1)\n            require(amount > 0, 'Invalid reward amount of distribution, consider giving a positive integer');\n            // check 2)\n            if (i == 0) {\n                require(start > block.number, 'Invalid start height of distribution');\n            }\n            // check 3)\n            require(start < stop, 'Invalid stop height of distribution');\n            // set distribution policy\n            distributionErasMap[community].push(Distribution ({\n                startHeight: start,\n                stopHeight: stop,\n                amount: amount\n            }));\n            distributionCountMap[community] = distributionCountMap[community] + 1;\n        }\n    }\n}\n",
  "sourcePath": "/Users/necklace/work/nutbox/nutbox-contract/contracts/calculators/LinearCalculator.sol",
  "compiler": {
    "name": "solc",
    "version": "0.8.0+commit.c7dfd78e.Emscripten.clang"
  },
  "schemaVersion": "3.4.11",
  "updatedAt": "2022-12-27T12:17:35.155Z",
  "devdoc": {
    "kind": "dev",
    "methods": {},
    "version": 1
  },
  "userdoc": {
    "kind": "user",
    "methods": {},
    "notice": "LinearCalculator is a distribution mechanism that people can set a reward on specific blocks height. Spec:     length: uint8, distribution eras length     eras[0]     eras[1]     ...     eras[n]     Era:         uint256: startHeight,         uint256: stopHeight,         uint256: amount",
    "version": 1
  }
}