{
  "contractName": "MintablePoint",
  "abi": [
    {
      "inputs": [
        {
          "internalType": "address",
          "name": "_transferModifier",
          "type": "address"
        },
        {
          "internalType": "string",
          "name": "name",
          "type": "string"
        },
        {
          "internalType": "string",
          "name": "symbol",
          "type": "string"
        },
        {
          "internalType": "uint256",
          "name": "initialSupply",
          "type": "uint256"
        },
        {
          "internalType": "address",
          "name": "owner",
          "type": "address"
        },
        {
          "internalType": "address",
          "name": "communityFactory",
          "type": "address"
        }
      ],
      "stateMutability": "nonpayable",
      "type": "constructor"
    },
    {
      "anonymous": false,
      "inputs": [
        {
          "indexed": true,
          "internalType": "address",
          "name": "owner",
          "type": "address"
        },
        {
          "indexed": true,
          "internalType": "address",
          "name": "spender",
          "type": "address"
        },
        {
          "indexed": false,
          "internalType": "uint256",
          "name": "value",
          "type": "uint256"
        }
      ],
      "name": "Approval",
      "type": "event"
    },
    {
      "anonymous": false,
      "inputs": [
        {
          "indexed": true,
          "internalType": "address",
          "name": "sender",
          "type": "address"
        },
        {
          "indexed": true,
          "internalType": "bool",
          "name": "canSend",
          "type": "bool"
        }
      ],
      "name": "ChangeSender",
      "type": "event"
    },
    {
      "anonymous": false,
      "inputs": [
        {
          "indexed": true,
          "internalType": "bytes32",
          "name": "role",
          "type": "bytes32"
        },
        {
          "indexed": true,
          "internalType": "bytes32",
          "name": "previousAdminRole",
          "type": "bytes32"
        },
        {
          "indexed": true,
          "internalType": "bytes32",
          "name": "newAdminRole",
          "type": "bytes32"
        }
      ],
      "name": "RoleAdminChanged",
      "type": "event"
    },
    {
      "anonymous": false,
      "inputs": [
        {
          "indexed": true,
          "internalType": "bytes32",
          "name": "role",
          "type": "bytes32"
        },
        {
          "indexed": true,
          "internalType": "address",
          "name": "account",
          "type": "address"
        },
        {
          "indexed": true,
          "internalType": "address",
          "name": "sender",
          "type": "address"
        }
      ],
      "name": "RoleGranted",
      "type": "event"
    },
    {
      "anonymous": false,
      "inputs": [
        {
          "indexed": true,
          "internalType": "bytes32",
          "name": "role",
          "type": "bytes32"
        },
        {
          "indexed": true,
          "internalType": "address",
          "name": "account",
          "type": "address"
        },
        {
          "indexed": true,
          "internalType": "address",
          "name": "sender",
          "type": "address"
        }
      ],
      "name": "RoleRevoked",
      "type": "event"
    },
    {
      "anonymous": false,
      "inputs": [
        {
          "indexed": true,
          "internalType": "address",
          "name": "from",
          "type": "address"
        },
        {
          "indexed": true,
          "internalType": "address",
          "name": "to",
          "type": "address"
        },
        {
          "indexed": false,
          "internalType": "uint256",
          "name": "value",
          "type": "uint256"
        }
      ],
      "name": "Transfer",
      "type": "event"
    },
    {
      "inputs": [],
      "name": "DEFAULT_ADMIN_ROLE",
      "outputs": [
        {
          "internalType": "bytes32",
          "name": "",
          "type": "bytes32"
        }
      ],
      "stateMutability": "view",
      "type": "function"
    },
    {
      "inputs": [],
      "name": "MINTER_ROLE",
      "outputs": [
        {
          "internalType": "bytes32",
          "name": "",
          "type": "bytes32"
        }
      ],
      "stateMutability": "view",
      "type": "function"
    },
    {
      "inputs": [
        {
          "internalType": "address",
          "name": "owner",
          "type": "address"
        },
        {
          "internalType": "address",
          "name": "spender",
          "type": "address"
        }
      ],
      "name": "allowance",
      "outputs": [
        {
          "internalType": "uint256",
          "name": "",
          "type": "uint256"
        }
      ],
      "stateMutability": "view",
      "type": "function"
    },
    {
      "inputs": [
        {
          "internalType": "address",
          "name": "spender",
          "type": "address"
        },
        {
          "internalType": "uint256",
          "name": "amount",
          "type": "uint256"
        }
      ],
      "name": "approve",
      "outputs": [
        {
          "internalType": "bool",
          "name": "",
          "type": "bool"
        }
      ],
      "stateMutability": "nonpayable",
      "type": "function"
    },
    {
      "inputs": [
        {
          "internalType": "address",
          "name": "account",
          "type": "address"
        }
      ],
      "name": "balanceOf",
      "outputs": [
        {
          "internalType": "uint256",
          "name": "",
          "type": "uint256"
        }
      ],
      "stateMutability": "view",
      "type": "function"
    },
    {
      "inputs": [
        {
          "internalType": "uint256",
          "name": "amount",
          "type": "uint256"
        }
      ],
      "name": "burn",
      "outputs": [],
      "stateMutability": "nonpayable",
      "type": "function"
    },
    {
      "inputs": [
        {
          "internalType": "address",
          "name": "account",
          "type": "address"
        },
        {
          "internalType": "uint256",
          "name": "amount",
          "type": "uint256"
        }
      ],
      "name": "burnFrom",
      "outputs": [],
      "stateMutability": "nonpayable",
      "type": "function"
    },
    {
      "inputs": [],
      "name": "decimals",
      "outputs": [
        {
          "internalType": "uint8",
          "name": "",
          "type": "uint8"
        }
      ],
      "stateMutability": "view",
      "type": "function"
    },
    {
      "inputs": [
        {
          "internalType": "address",
          "name": "spender",
          "type": "address"
        },
        {
          "internalType": "uint256",
          "name": "subtractedValue",
          "type": "uint256"
        }
      ],
      "name": "decreaseAllowance",
      "outputs": [
        {
          "internalType": "bool",
          "name": "",
          "type": "bool"
        }
      ],
      "stateMutability": "nonpayable",
      "type": "function"
    },
    {
      "inputs": [
        {
          "internalType": "bytes32",
          "name": "role",
          "type": "bytes32"
        }
      ],
      "name": "getRoleAdmin",
      "outputs": [
        {
          "internalType": "bytes32",
          "name": "",
          "type": "bytes32"
        }
      ],
      "stateMutability": "view",
      "type": "function"
    },
    {
      "inputs": [
        {
          "internalType": "bytes32",
          "name": "role",
          "type": "bytes32"
        },
        {
          "internalType": "uint256",
          "name": "index",
          "type": "uint256"
        }
      ],
      "name": "getRoleMember",
      "outputs": [
        {
          "internalType": "address",
          "name": "",
          "type": "address"
        }
      ],
      "stateMutability": "view",
      "type": "function"
    },
    {
      "inputs": [
        {
          "internalType": "bytes32",
          "name": "role",
          "type": "bytes32"
        }
      ],
      "name": "getRoleMemberCount",
      "outputs": [
        {
          "internalType": "uint256",
          "name": "",
          "type": "uint256"
        }
      ],
      "stateMutability": "view",
      "type": "function"
    },
    {
      "inputs": [
        {
          "internalType": "bytes32",
          "name": "role",
          "type": "bytes32"
        },
        {
          "internalType": "address",
          "name": "account",
          "type": "address"
        }
      ],
      "name": "grantRole",
      "outputs": [],
      "stateMutability": "nonpayable",
      "type": "function"
    },
    {
      "inputs": [
        {
          "internalType": "bytes32",
          "name": "role",
          "type": "bytes32"
        },
        {
          "internalType": "address",
          "name": "account",
          "type": "address"
        }
      ],
      "name": "hasRole",
      "outputs": [
        {
          "internalType": "bool",
          "name": "",
          "type": "bool"
        }
      ],
      "stateMutability": "view",
      "type": "function"
    },
    {
      "inputs": [
        {
          "internalType": "address",
          "name": "spender",
          "type": "address"
        },
        {
          "internalType": "uint256",
          "name": "addedValue",
          "type": "uint256"
        }
      ],
      "name": "increaseAllowance",
      "outputs": [
        {
          "internalType": "bool",
          "name": "",
          "type": "bool"
        }
      ],
      "stateMutability": "nonpayable",
      "type": "function"
    },
    {
      "inputs": [],
      "name": "name",
      "outputs": [
        {
          "internalType": "string",
          "name": "",
          "type": "string"
        }
      ],
      "stateMutability": "view",
      "type": "function"
    },
    {
      "inputs": [
        {
          "internalType": "bytes32",
          "name": "role",
          "type": "bytes32"
        },
        {
          "internalType": "address",
          "name": "account",
          "type": "address"
        }
      ],
      "name": "renounceRole",
      "outputs": [],
      "stateMutability": "nonpayable",
      "type": "function"
    },
    {
      "inputs": [
        {
          "internalType": "bytes32",
          "name": "role",
          "type": "bytes32"
        },
        {
          "internalType": "address",
          "name": "account",
          "type": "address"
        }
      ],
      "name": "revokeRole",
      "outputs": [],
      "stateMutability": "nonpayable",
      "type": "function"
    },
    {
      "inputs": [
        {
          "internalType": "bytes4",
          "name": "interfaceId",
          "type": "bytes4"
        }
      ],
      "name": "supportsInterface",
      "outputs": [
        {
          "internalType": "bool",
          "name": "",
          "type": "bool"
        }
      ],
      "stateMutability": "view",
      "type": "function"
    },
    {
      "inputs": [],
      "name": "symbol",
      "outputs": [
        {
          "internalType": "string",
          "name": "",
          "type": "string"
        }
      ],
      "stateMutability": "view",
      "type": "function"
    },
    {
      "inputs": [],
      "name": "totalSupply",
      "outputs": [
        {
          "internalType": "uint256",
          "name": "",
          "type": "uint256"
        }
      ],
      "stateMutability": "view",
      "type": "function"
    },
    {
      "inputs": [
        {
          "internalType": "address",
          "name": "recipient",
          "type": "address"
        },
        {
          "internalType": "uint256",
          "name": "amount",
          "type": "uint256"
        }
      ],
      "name": "transfer",
      "outputs": [
        {
          "internalType": "bool",
          "name": "",
          "type": "bool"
        }
      ],
      "stateMutability": "nonpayable",
      "type": "function"
    },
    {
      "inputs": [
        {
          "internalType": "address",
          "name": "sender",
          "type": "address"
        },
        {
          "internalType": "address",
          "name": "recipient",
          "type": "address"
        },
        {
          "internalType": "uint256",
          "name": "amount",
          "type": "uint256"
        }
      ],
      "name": "transferFrom",
      "outputs": [
        {
          "internalType": "bool",
          "name": "",
          "type": "bool"
        }
      ],
      "stateMutability": "nonpayable",
      "type": "function"
    },
    {
      "inputs": [],
      "name": "transferModifier",
      "outputs": [
        {
          "internalType": "address",
          "name": "",
          "type": "address"
        }
      ],
      "stateMutability": "view",
      "type": "function"
    },
    {
      "inputs": [],
      "name": "renounceModifyRole",
      "outputs": [],
      "stateMutability": "nonpayable",
      "type": "function"
    },
    {
      "inputs": [
        {
          "internalType": "address",
          "name": "sender",
          "type": "address"
        },
        {
          "internalType": "bool",
          "name": "canSend",
          "type": "bool"
        }
      ],
      "name": "setSender",
      "outputs": [],
      "stateMutability": "nonpayable",
      "type": "function"
    },
    {
      "inputs": [
        {
          "internalType": "address",
          "name": "to",
          "type": "address"
        },
        {
          "internalType": "uint256",
          "name": "amount",
          "type": "uint256"
        }
      ],
      "name": "mint",
      "outputs": [],
      "stateMutability": "nonpayable",
      "type": "function"
    }
  ],
  "bytecode": "0x60806040526009805460ff191660011790553480156200001e57600080fd5b506040516200221238038062002212833981016040819052620000419162000551565b8451859085906200005a906005906020850190620003e3565b50805162000070906006906020840190620003e3565b5050600780546001600160a01b0319166001600160a01b038916179055506200009b600082620000b3565b620000a78284620000c3565b50505050505062000733565b620000bf8282620001bb565b5050565b6001600160a01b0382166200010f576040517f08c379a0000000000000000000000000000000000000000000000000000000008152600401620001069062000630565b60405180910390fd5b6200011d60008383620001fe565b806004600082825462000131919062000670565b90915550506001600160a01b038216600090815260026020526040812080548392906200016090849062000670565b90915550506040516001600160a01b038316906000907fddf252ad1be2c89b69c2b068fc378daa952ba7f163c4a11628f55a4df523b3ef90620001a590859062000667565b60405180910390a3620000bf60008383620001f9565b620001d28282620002a560201b6200091e1760201c565b6000828152600160209081526040909120620001f9918390620009a36200032f821b17901c565b505050565b62000216838383620001f960201b6200058e1760201c565b6200024b7f9f2df0fed2c77648de5860a4cc508cd0818c85b8b8a1ab4ceeef8d981c8956a6620002456200034f565b62000353565b620001f9576001600160a01b03831660009081526008602052604090205460ff16620001f9576040517f08c379a00000000000000000000000000000000000000000000000000000000081526004016200010690620005f9565b620002b1828262000353565b620000bf576000828152602081815260408083206001600160a01b03851684529091529020805460ff19166001179055620002eb6200034f565b6001600160a01b0316816001600160a01b0316837f2f8788117e7eff1d82e926ec794901d17c78024a50270940304540a733656f0d60405160405180910390a45050565b600062000346836001600160a01b0384166200037c565b90505b92915050565b3390565b6000918252602082815260408084206001600160a01b0393909316845291905290205460ff1690565b60006200038a8383620003cb565b620003c25750815460018181018455600084815260208082209093018490558454848252828601909352604090209190915562000349565b50600062000349565b60009081526001919091016020526040902054151590565b828054620003f190620006ae565b90600052602060002090601f01602090048101928262000415576000855562000460565b82601f106200043057805160ff191683800117855562000460565b8280016001018555821562000460579182015b828111156200046057825182559160200191906001019062000443565b506200046e92915062000472565b5090565b5b808211156200046e576000815560010162000473565b80516001600160a01b0381168114620004a157600080fd5b919050565b600082601f830112620004b7578081fd5b81516001600160401b0380821115620004d457620004d462000704565b6040516020601f8401601f1916820181018381118382101715620004fc57620004fc62000704565b604052838252858401810187101562000513578485fd5b8492505b8383101562000536578583018101518284018201529182019162000517565b838311156200054757848185840101525b5095945050505050565b60008060008060008060c087890312156200056a578182fd5b620005758762000489565b60208801519096506001600160401b038082111562000592578384fd5b620005a08a838b01620004a6565b96506040890151915080821115620005b6578384fd5b50620005c589828a01620004a6565b94505060608701519250620005dd6080880162000489565b9150620005ed60a0880162000489565b90509295509295509295565b6020808252601e908201527f596f7520686173206e6f20726967687420746f2073656e6420706f696e740000604082015260600190565b6020808252601f908201527f45524332303a206d696e7420746f20746865207a65726f206164647265737300604082015260600190565b90815260200190565b60008219821115620006a9577f4e487b710000000000000000000000000000000000000000000000000000000081526011600452602481fd5b500190565b600281046001821680620006c357607f821691505b60208210811415620006fe577f4e487b7100000000000000000000000000000000000000000000000000000000600052602260045260246000fd5b50919050565b7f4e487b7100000000000000000000000000000000000000000000000000000000600052604160045260246000fd5b611acf80620007436000396000f3fe608060405234801561001057600080fd5b50600436106101a95760003560e01c80636f69e18d116100f9578063a457c2d711610097578063cf2c550c11610071578063cf2c550c14610362578063d539139314610375578063d547741f1461037d578063dd62ed3e14610390576101a9565b8063a457c2d714610329578063a9059cbb1461033c578063ca15c8731461034f576101a9565b80639010d07c116100d35780639010d07c146102f357806391d148541461030657806395d89b4114610319578063a217fddf14610321576101a9565b80636f69e18d146102b857806370a08231146102cd57806379cc6790146102e0576101a9565b8063248a9ca31161016657806336568abe1161014057806336568abe1461026c578063395093511461027f57806340c10f191461029257806342966c68146102a5576101a9565b8063248a9ca3146102315780632f2ff15d14610244578063313ce56714610257576101a9565b806301ffc9a7146101ae57806306fdde03146101d7578063095ea7b3146101ec57806309768244146101ff57806318160ddd1461020957806323b872dd1461021e575b600080fd5b6101c16101bc366004611424565b6103a3565b6040516101ce91906114d5565b60405180910390f35b6101df6103d0565b6040516101ce91906114e9565b6101c16101fa3660046113a0565b610462565b610207610480565b005b6102116104bf565b6040516101ce91906114e0565b6101c161022c36600461132b565b6104c5565b61021161023f3660046113c9565b610555565b6102076102523660046113e1565b61056a565b61025f610593565b6040516101ce91906119a9565b61020761027a3660046113e1565b610598565b6101c161028d3660046113a0565b6105de565b6102076102a03660046113a0565b610632565b6102076102b33660046113c9565b610684565b6102c0610698565b6040516101ce91906114c1565b6102116102db3660046112df565b6106a7565b6102076102ee3660046113a0565b6106c2565b6102c0610301366004611403565b610710565b6101c16103143660046113e1565b61072f565b6101df610758565b610211610767565b6101c16103373660046113a0565b61076c565b6101c161034a3660046113a0565b6107e5565b61021161035d3660046113c9565b6107f9565b610207610370366004611366565b610810565b6102116108b0565b61020761038b3660046113e1565b6108d4565b61021161039e3660046112f9565b6108f3565b60006001600160e01b03198216635a05180f60e01b14806103c857506103c8826109b8565b90505b919050565b6060600580546103df90611a48565b80601f016020809104026020016040519081016040528092919081815260200182805461040b90611a48565b80156104585780601f1061042d57610100808354040283529160200191610458565b820191906000526020600020905b81548152906001019060200180831161043b57829003601f168201915b5050505050905090565b600061047661046f6109dd565b84846109e1565b5060015b92915050565b6007546001600160a01b031633146104b35760405162461bcd60e51b81526004016104aa9061160d565b60405180910390fd5b6009805460ff19169055565b60045490565b60006104d2848484610a95565b6001600160a01b0384166000908152600360205260408120816104f36109dd565b6001600160a01b03166001600160a01b03168152602001908152602001600020549050828110156105365760405162461bcd60e51b81526004016104aa90611732565b61054a856105426109dd565b8584036109e1565b506001949350505050565b60009081526020819052604090206001015490565b61057382610555565b6105848161057f6109dd565b610bbf565b61058e8383610c23565b505050565b601290565b6105a06109dd565b6001600160a01b0316816001600160a01b0316146105d05760405162461bcd60e51b81526004016104aa90611923565b6105da8282610c45565b5050565b60006104766105eb6109dd565b8484600360006105f96109dd565b6001600160a01b03908116825260208083019390935260409182016000908120918b168152925290205461062d91906119b7565b6109e1565b61065e7f9f2df0fed2c77648de5860a4cc508cd0818c85b8b8a1ab4ceeef8d981c8956a66103146109dd565b61067a5760405162461bcd60e51b81526004016104aa9061177a565b6105da8282610c67565b61069561068f6109dd565b82610d2f565b50565b6007546001600160a01b031681565b6001600160a01b031660009081526002602052604090205490565b60006106d08361039e6109dd565b9050818110156106f25760405162461bcd60e51b81526004016104aa906117d0565b610706836106fe6109dd565b8484036109e1565b61058e8383610d2f565b60008281526001602052604081206107289083610e20565b9392505050565b6000918252602082815260408084206001600160a01b0393909316845291905290205460ff1690565b6060600680546103df90611a48565b600081565b6000806003600061077b6109dd565b6001600160a01b03908116825260208083019390935260409182016000908120918816815292529020549050828110156107c75760405162461bcd60e51b81526004016104aa906118de565b6107db6107d26109dd565b858584036109e1565b5060019392505050565b60006104766107f26109dd565b8484610a95565b60008181526001602052604081206103c890610e2c565b6007546001600160a01b0316331461083a5760405162461bcd60e51b81526004016104aa90611703565b60095460ff1661085c5760405162461bcd60e51b81526004016104aa90611594565b6001600160a01b038216600081815260086020526040808220805460ff191685151590811790915590519092917fca60a307b080c527b5f08250c656f6d8f8c8063d278a7390373c9e19c515296b91a35050565b7f9f2df0fed2c77648de5860a4cc508cd0818c85b8b8a1ab4ceeef8d981c8956a681565b6108dd82610555565b6108e98161057f6109dd565b61058e8383610c45565b6001600160a01b03918216600090815260036020908152604080832093909416825291909152205490565b610928828261072f565b6105da576000828152602081815260408083206001600160a01b03851684529091529020805460ff1916600117905561095f6109dd565b6001600160a01b0316816001600160a01b0316837f2f8788117e7eff1d82e926ec794901d17c78024a50270940304540a733656f0d60405160405180910390a45050565b6000610728836001600160a01b038416610e37565b60006001600160e01b03198216637965db0b60e01b14806103c857506103c882610e81565b3390565b6001600160a01b038316610a075760405162461bcd60e51b81526004016104aa9061189a565b6001600160a01b038216610a2d5760405162461bcd60e51b81526004016104aa90611644565b6001600160a01b0380841660008181526003602090815260408083209487168084529490915290819020849055517f8c5be1e5ebec7d5bd14f71427d1e84f3dd0314c0f7b2291e5b200ac8c7c3b92590610a889085906114e0565b60405180910390a3505050565b6001600160a01b038316610abb5760405162461bcd60e51b81526004016104aa90611855565b6001600160a01b038216610ae15760405162461bcd60e51b81526004016104aa90611551565b610aec838383610e9a565b6001600160a01b03831660009081526002602052604090205481811015610b255760405162461bcd60e51b81526004016104aa90611686565b6001600160a01b03808516600090815260026020526040808220858503905591851681529081208054849290610b5c9084906119b7565b92505081905550826001600160a01b0316846001600160a01b03167fddf252ad1be2c89b69c2b068fc378daa952ba7f163c4a11628f55a4df523b3ef84604051610ba691906114e0565b60405180910390a3610bb984848461058e565b50505050565b610bc9828261072f565b6105da57610be1816001600160a01b03166014610f0d565b610bec836020610f0d565b604051602001610bfd92919061144c565b60408051601f198184030181529082905262461bcd60e51b82526104aa916004016114e9565b610c2d828261091e565b600082815260016020526040902061058e90826109a3565b610c4f82826110bf565b600082815260016020526040902061058e9082611142565b6001600160a01b038216610c8d5760405162461bcd60e51b81526004016104aa90611972565b610c9960008383610e9a565b8060046000828254610cab91906119b7565b90915550506001600160a01b03821660009081526002602052604081208054839290610cd89084906119b7565b90915550506040516001600160a01b038316906000907fddf252ad1be2c89b69c2b068fc378daa952ba7f163c4a11628f55a4df523b3ef90610d1b9085906114e0565b60405180910390a36105da6000838361058e565b6001600160a01b038216610d555760405162461bcd60e51b81526004016104aa90611814565b610d6182600083610e9a565b6001600160a01b03821660009081526002602052604090205481811015610d9a5760405162461bcd60e51b81526004016104aa906115cb565b6001600160a01b0383166000908152600260205260408120838303905560048054849290610dc99084906119ee565b90915550506040516000906001600160a01b038516907fddf252ad1be2c89b69c2b068fc378daa952ba7f163c4a11628f55a4df523b3ef90610e0c9086906114e0565b60405180910390a361058e8360008461058e565b60006107288383611157565b60006103c88261118f565b6000610e438383611193565b610e795750815460018181018455600084815260208082209093018490558454848252828601909352604090209190915561047a565b50600061047a565b6001600160e01b031981166301ffc9a760e01b14919050565b610ea583838361058e565b610ed17f9f2df0fed2c77648de5860a4cc508cd0818c85b8b8a1ab4ceeef8d981c8956a66103146109dd565b61058e576001600160a01b03831660009081526008602052604090205460ff1661058e5760405162461bcd60e51b81526004016104aa906116cc565b60606000610f1c8360026119cf565b610f279060026119b7565b67ffffffffffffffff811115610f4d57634e487b7160e01b600052604160045260246000fd5b6040519080825280601f01601f191660200182016040528015610f77576020820181803683370190505b509050600360fc1b81600081518110610fa057634e487b7160e01b600052603260045260246000fd5b60200101906001600160f81b031916908160001a905350600f60fb1b81600181518110610fdd57634e487b7160e01b600052603260045260246000fd5b60200101906001600160f81b031916908160001a90535060006110018460026119cf565b61100c9060016119b7565b90505b60018111156110a0576f181899199a1a9b1b9c1cb0b131b232b360811b85600f166010811061104e57634e487b7160e01b600052603260045260246000fd5b1a60f81b82828151811061107257634e487b7160e01b600052603260045260246000fd5b60200101906001600160f81b031916908160001a90535060049490941c9361109981611a31565b905061100f565b5083156107285760405162461bcd60e51b81526004016104aa9061151c565b6110c9828261072f565b156105da576000828152602081815260408083206001600160a01b03851684529091529020805460ff191690556110fe6109dd565b6001600160a01b0316816001600160a01b0316837ff6391f5c32d9c69d2a47ea670b442974b53935d1edc7fd64eb21e047a839171b60405160405180910390a45050565b6000610728836001600160a01b0384166111ab565b600082600001828154811061117c57634e487b7160e01b600052603260045260246000fd5b9060005260206000200154905092915050565b5490565b60009081526001919091016020526040902054151590565b600081815260018301602052604081205480156112be5760006111cf6001836119ee565b85549091506000906111e3906001906119ee565b905081811461126457600086600001828154811061121157634e487b7160e01b600052603260045260246000fd5b906000526020600020015490508087600001848154811061124257634e487b7160e01b600052603260045260246000fd5b6000918252602080832090910192909255918252600188019052604090208390555b855486908061128357634e487b7160e01b600052603160045260246000fd5b60019003818190600052602060002001600090559055856001016000868152602001908152602001600020600090556001935050505061047a565b600091505061047a565b80356001600160a01b03811681146103cb57600080fd5b6000602082840312156112f0578081fd5b610728826112c8565b6000806040838503121561130b578081fd5b611314836112c8565b9150611322602084016112c8565b90509250929050565b60008060006060848603121561133f578081fd5b611348846112c8565b9250611356602085016112c8565b9150604084013590509250925092565b60008060408385031215611378578182fd5b611381836112c8565b915060208301358015158114611395578182fd5b809150509250929050565b600080604083850312156113b2578182fd5b6113bb836112c8565b946020939093013593505050565b6000602082840312156113da578081fd5b5035919050565b600080604083850312156113f3578182fd5b82359150611322602084016112c8565b60008060408385031215611415578182fd5b50508035926020909101359150565b600060208284031215611435578081fd5b81356001600160e01b031981168114610728578182fd5b60007f416363657373436f6e74726f6c3a206163636f756e742000000000000000000082528351611484816017850160208801611a05565b7001034b99036b4b9b9b4b733903937b6329607d1b60179184019182015283516114b5816028840160208801611a05565b01602801949350505050565b6001600160a01b0391909116815260200190565b901515815260200190565b90815260200190565b6000602082528251806020840152611508816040850160208701611a05565b601f01601f19169190910160400192915050565b6020808252818101527f537472696e67733a20686578206c656e67746820696e73756666696369656e74604082015260600190565b60208082526023908201527f45524332303a207472616e7366657220746f20746865207a65726f206164647260408201526265737360e81b606082015260800190565b6020808252601c908201527f43616e2774206368616e67652073656e6465727320666f726576657200000000604082015260600190565b60208082526022908201527f45524332303a206275726e20616d6f756e7420657863656564732062616c616e604082015261636560f01b606082015260800190565b60208082526018908201527f596f7520617265206e6f7420746865206d6f6469666965720000000000000000604082015260600190565b60208082526022908201527f45524332303a20617070726f766520746f20746865207a65726f206164647265604082015261737360f01b606082015260800190565b60208082526026908201527f45524332303a207472616e7366657220616d6f756e7420657863656564732062604082015265616c616e636560d01b606082015260800190565b6020808252601e908201527f596f7520686173206e6f20726967687420746f2073656e6420706f696e740000604082015260600190565b6020808252601590820152742cb7ba9031b0b713ba1039b2ba1039b2b73232b91760591b604082015260600190565b60208082526028908201527f45524332303a207472616e7366657220616d6f756e74206578636565647320616040820152676c6c6f77616e636560c01b606082015260800190565b60208082526036908201527f45524332305072657365744d696e7465725061757365723a206d7573742068616040820152751d99481b5a5b9d195c881c9bdb19481d1bc81b5a5b9d60521b606082015260800190565b60208082526024908201527f45524332303a206275726e20616d6f756e74206578636565647320616c6c6f77604082015263616e636560e01b606082015260800190565b60208082526021908201527f45524332303a206275726e2066726f6d20746865207a65726f206164647265736040820152607360f81b606082015260800190565b60208082526025908201527f45524332303a207472616e736665722066726f6d20746865207a65726f206164604082015264647265737360d81b606082015260800190565b60208082526024908201527f45524332303a20617070726f76652066726f6d20746865207a65726f206164646040820152637265737360e01b606082015260800190565b60208082526025908201527f45524332303a2064656372656173656420616c6c6f77616e63652062656c6f77604082015264207a65726f60d81b606082015260800190565b6020808252602f908201527f416363657373436f6e74726f6c3a2063616e206f6e6c792072656e6f756e636560408201526e103937b632b9903337b91039b2b63360891b606082015260800190565b6020808252601f908201527f45524332303a206d696e7420746f20746865207a65726f206164647265737300604082015260600190565b60ff91909116815260200190565b600082198211156119ca576119ca611a83565b500190565b60008160001904831182151516156119e9576119e9611a83565b500290565b600082821015611a0057611a00611a83565b500390565b60005b83811015611a20578181015183820152602001611a08565b83811115610bb95750506000910152565b600081611a4057611a40611a83565b506000190190565b600281046001821680611a5c57607f821691505b60208210811415611a7d57634e487b7160e01b600052602260045260246000fd5b50919050565b634e487b7160e01b600052601160045260246000fdfea2646970667358221220f79f8c69ecdd149c4b8174fd2902543ebcc380ecb4a36209ddf777a9c312951064736f6c63430008000033",
  "immutableReferences": {},
  "source": "// SPDX-License-Identifier: MIT\npragma solidity 0.8.0;\n\nimport \"@openzeppelin/contracts/token/ERC20/extensions/ERC20Burnable.sol\";\nimport \"@openzeppelin/contracts/token/ERC20/ERC20.sol\";\nimport \"@openzeppelin/contracts/access/AccessControlEnumerable.sol\";\nimport \"@openzeppelin/contracts/utils/Context.sol\";\n\ncontract MintablePoint is Context, AccessControlEnumerable, ERC20Burnable {\n    bytes32 public constant MINTER_ROLE = keccak256(\"MINTER_ROLE\");\n\n    address public transferModifier;\n    mapping(address => bool) senders;\n    bool canChangeSender = true;\n\n    event ChangeSender(address indexed sender, bool indexed canSend);\n\n    constructor(\n    address _transferModifier,\n    string memory name, \n    string memory symbol, \n    uint256 initialSupply,\n    address owner,\n    address communityFactory) ERC20(name, symbol) {\n        transferModifier = _transferModifier;\n        _setupRole(DEFAULT_ADMIN_ROLE, communityFactory);\n        _mint(owner, initialSupply);\n    }\n\n    function renounceModifyRole() external {\n        require(transferModifier == msg.sender, \"You are not the modifier\");\n        canChangeSender = false;\n    }\n\n    function setSender(address sender, bool canSend) external {\n        require(transferModifier == msg.sender, \"You can't set sender.\");\n        require(canChangeSender, \"Can't change senders forever\");\n        senders[sender] = canSend;\n        emit ChangeSender(sender, canSend);\n    }\n\n    /**\n     * @dev Creates `amount` new tokens for `to`.\n     *\n     * See {ERC20-_mint}.\n     *\n     * Requirements:\n     *\n     * - the caller must have the `MINTER_ROLE`.\n     */\n    function mint(address to, uint256 amount) external virtual {\n        require(hasRole(MINTER_ROLE, _msgSender()), \"ERC20PresetMinterPauser: must have minter role to mint\");\n        _mint(to, amount);\n    }\n\n    function _beforeTokenTransfer(\n        address from,\n        address to,\n        uint256 amount\n    ) internal virtual override(ERC20) {\n        super._beforeTokenTransfer(from, to, amount);\n        if (!hasRole(MINTER_ROLE, _msgSender())) {\n            require(senders[from], \"You has no right to send point\");\n        }\n    }\n}",
  "sourcePath": "/Users/wangxi/work/Walnut-V2/nutbox-contract/contracts/community-token/MintablePoint.sol",
  "compiler": {
    "name": "solc",
    "version": "0.8.0+commit.c7dfd78e.Emscripten.clang"
  },
  "schemaVersion": "3.3.4",
  "updatedAt": "2023-06-08T12:20:18.827Z",
  "devdoc": {
    "kind": "dev",
    "methods": {
      "allowance(address,address)": {
        "details": "See {IERC20-allowance}."
      },
      "approve(address,uint256)": {
        "details": "See {IERC20-approve}. Requirements: - `spender` cannot be the zero address."
      },
      "balanceOf(address)": {
        "details": "See {IERC20-balanceOf}."
      },
      "burn(uint256)": {
        "details": "Destroys `amount` tokens from the caller. See {ERC20-_burn}."
      },
      "burnFrom(address,uint256)": {
        "details": "Destroys `amount` tokens from `account`, deducting from the caller's allowance. See {ERC20-_burn} and {ERC20-allowance}. Requirements: - the caller must have allowance for ``accounts``'s tokens of at least `amount`."
      },
      "decimals()": {
        "details": "Returns the number of decimals used to get its user representation. For example, if `decimals` equals `2`, a balance of `505` tokens should be displayed to a user as `5.05` (`505 / 10 ** 2`). Tokens usually opt for a value of 18, imitating the relationship between Ether and Wei. This is the value {ERC20} uses, unless this function is overridden; NOTE: This information is only used for _display_ purposes: it in no way affects any of the arithmetic of the contract, including {IERC20-balanceOf} and {IERC20-transfer}."
      },
      "decreaseAllowance(address,uint256)": {
        "details": "Atomically decreases the allowance granted to `spender` by the caller. This is an alternative to {approve} that can be used as a mitigation for problems described in {IERC20-approve}. Emits an {Approval} event indicating the updated allowance. Requirements: - `spender` cannot be the zero address. - `spender` must have allowance for the caller of at least `subtractedValue`."
      },
      "getRoleAdmin(bytes32)": {
        "details": "Returns the admin role that controls `role`. See {grantRole} and {revokeRole}. To change a role's admin, use {_setRoleAdmin}."
      },
      "getRoleMember(bytes32,uint256)": {
        "details": "Returns one of the accounts that have `role`. `index` must be a value between 0 and {getRoleMemberCount}, non-inclusive. Role bearers are not sorted in any particular way, and their ordering may change at any point. WARNING: When using {getRoleMember} and {getRoleMemberCount}, make sure you perform all queries on the same block. See the following https://forum.openzeppelin.com/t/iterating-over-elements-on-enumerableset-in-openzeppelin-contracts/2296[forum post] for more information."
      },
      "getRoleMemberCount(bytes32)": {
        "details": "Returns the number of accounts that have `role`. Can be used together with {getRoleMember} to enumerate all bearers of a role."
      },
      "grantRole(bytes32,address)": {
        "details": "Grants `role` to `account`. If `account` had not been already granted `role`, emits a {RoleGranted} event. Requirements: - the caller must have ``role``'s admin role."
      },
      "hasRole(bytes32,address)": {
        "details": "Returns `true` if `account` has been granted `role`."
      },
      "increaseAllowance(address,uint256)": {
        "details": "Atomically increases the allowance granted to `spender` by the caller. This is an alternative to {approve} that can be used as a mitigation for problems described in {IERC20-approve}. Emits an {Approval} event indicating the updated allowance. Requirements: - `spender` cannot be the zero address."
      },
      "mint(address,uint256)": {
        "details": "Creates `amount` new tokens for `to`. See {ERC20-_mint}. Requirements: - the caller must have the `MINTER_ROLE`."
      },
      "name()": {
        "details": "Returns the name of the token."
      },
      "renounceRole(bytes32,address)": {
        "details": "Revokes `role` from the calling account. Roles are often managed via {grantRole} and {revokeRole}: this function's purpose is to provide a mechanism for accounts to lose their privileges if they are compromised (such as when a trusted device is misplaced). If the calling account had been revoked `role`, emits a {RoleRevoked} event. Requirements: - the caller must be `account`."
      },
      "revokeRole(bytes32,address)": {
        "details": "Revokes `role` from `account`. If `account` had been granted `role`, emits a {RoleRevoked} event. Requirements: - the caller must have ``role``'s admin role."
      },
      "supportsInterface(bytes4)": {
        "details": "See {IERC165-supportsInterface}."
      },
      "symbol()": {
        "details": "Returns the symbol of the token, usually a shorter version of the name."
      },
      "totalSupply()": {
        "details": "See {IERC20-totalSupply}."
      },
      "transfer(address,uint256)": {
        "details": "See {IERC20-transfer}. Requirements: - `recipient` cannot be the zero address. - the caller must have a balance of at least `amount`."
      },
      "transferFrom(address,address,uint256)": {
        "details": "See {IERC20-transferFrom}. Emits an {Approval} event indicating the updated allowance. This is not required by the EIP. See the note at the beginning of {ERC20}. Requirements: - `sender` and `recipient` cannot be the zero address. - `sender` must have a balance of at least `amount`. - the caller must have allowance for ``sender``'s tokens of at least `amount`."
      }
    },
    "version": 1
  },
  "userdoc": {
    "kind": "user",
    "methods": {},
    "version": 1
  }
}