{
  "contractName": "MintableERC20Factory",
  "abi": [
    {
      "inputs": [],
      "stateMutability": "nonpayable",
      "type": "constructor"
    },
    {
      "inputs": [
        {
          "internalType": "bytes",
          "name": "meta",
          "type": "bytes"
        }
      ],
      "name": "createCommunityToken",
      "outputs": [
        {
          "internalType": "address",
          "name": "",
          "type": "address"
        }
      ],
      "stateMutability": "nonpayable",
      "type": "function"
    }
  ],
  "bytecode": "0x608060405234801561001057600080fd5b506123e3806100206000396000f3fe60806040523480156200001157600080fd5b50600436106200002e5760003560e01c80633120db1b1462000033575b600080fd5b6200004a620000443660046200046f565b62000062565b6040516200005991906200052f565b60405180910390f35b600080620000ab600085858080601f0160208091040260200160405190810160405280939291908181526020018383808284376000920191909152509293925050620002ca9050565b90506000620000fa60018360ff1687878080601f0160208091040260200160405190810160405280939291908181526020018383808284376000920191909152509294939250506200030e9050565b90506000620001526200010f8460016200068d565b60ff1687878080601f0160208091040260200160405190810160405280939291908181526020018383808284376000920191909152509293925050620002ca9050565b90506000620001af620001678560026200068d565b60ff168360ff1689898080601f0160208091040260200160405190810160405280939291908181526020018383808284376000920191909152509294939250506200030e9050565b9050600062000213620001c384876200068d565b620001d09060026200068d565b60ff1689898080601f0160208091040260200160405190810160405280939291908181526020018383808284376000920191909152509293925050620003e49050565b90506000620002776200022785886200068d565b620002349060226200068d565b60ff168a8a8080601f01602080910402602001604051908101604052809392919081815260200183838082843760009201919091525092939250506200041f9050565b9050600085848484336040516200028e9062000461565b6200029e95949392919062000543565b604051809103906000f080158015620002bb573d6000803e3d6000fd5b509a9950505050505050505050565b6000620002d982600162000672565b83511015620003055760405162461bcd60e51b8152600401620002fc9062000645565b60405180910390fd5b50016001015190565b6060816200031e81601f62000672565b10156200033f5760405162461bcd60e51b8152600401620002fc9062000594565b6200034b828462000672565b845110156200036e5760405162461bcd60e51b8152600401620002fc906200061a565b6060821580156200038f5760405191506000825260208201604052620003db565b6040519150601f8416801560200281840101858101878315602002848b0101015b81831015620003ca578051835260209283019201620003b0565b5050858452601f01601f1916604052505b50949350505050565b6000620003f382602062000672565b83511015620004165760405162461bcd60e51b8152600401620002fc90620005bc565b50016020015190565b60006200042e82601462000672565b83511015620004515760405162461bcd60e51b8152600401620002fc90620005eb565b500160200151600160601b900490565b611ce280620006cc83390190565b6000806020838503121562000482578182fd5b823567ffffffffffffffff808211156200049a578384fd5b818501915085601f830112620004ae578384fd5b813581811115620004bd578485fd5b866020828501011115620004cf578485fd5b60209290920196919550909350505050565b60008151808452815b818110156200050857602081850181015186830182015201620004ea565b818111156200051a5782602083870101525b50601f01601f19169290920160200192915050565b6001600160a01b0391909116815260200190565b600060a082526200055860a0830188620004e1565b82810360208401526200056c8188620004e1565b604084019690965250506001600160a01b039283166060820152911660809091015292915050565b6020808252600e908201526d736c6963655f6f766572666c6f7760901b604082015260600190565b602080825260159082015274746f55696e743235365f6f75744f66426f756e647360581b604082015260600190565b602080825260159082015274746f416464726573735f6f75744f66426f756e647360581b604082015260600190565b602080825260119082015270736c6963655f6f75744f66426f756e647360781b604082015260600190565b602080825260139082015272746f55696e74385f6f75744f66426f756e647360681b604082015260600190565b60008219821115620006885762000688620006b5565b500190565b600060ff821660ff84168060ff03821115620006ad57620006ad620006b5565b019392505050565b634e487b7160e01b600052601160045260246000fdfe60806040523480156200001157600080fd5b5060405162001ce238038062001ce283398101604081905262000034916200047b565b8451859085906200004d9060059060208501906200030d565b508051620000639060069060208401906200030d565b5062000075915060009050826200008c565b6200008182846200009c565b505050505062000614565b62000098828262000174565b5050565b6001600160a01b038216620000e8576040517f08c379a0000000000000000000000000000000000000000000000000000000008152600401620000df9062000511565b60405180910390fd5b620000f660008383620001b7565b80600460008282546200010a919062000551565b90915550506001600160a01b038216600081815260026020526040808220805485019055517fddf252ad1be2c89b69c2b068fc378daa952ba7f163c4a11628f55a4df523b3ef906200015e90859062000548565b60405180910390a36200009860008383620001b2565b6200018b8282620001cf60201b620006d71760201c565b6000828152600160209081526040909120620001b29183906200075c62000259821b17901c565b505050565b620001b2838383620001b260201b620004771760201c565b620001db828262000279565b62000098576000828152602081815260408083206001600160a01b03851684529091529020805460ff1916600117905562000215620002a2565b6001600160a01b0316816001600160a01b0316837f2f8788117e7eff1d82e926ec794901d17c78024a50270940304540a733656f0d60405160405180910390a45050565b600062000270836001600160a01b038416620002a6565b90505b92915050565b6000918252602082815260408084206001600160a01b0393909316845291905290205460ff1690565b3390565b6000620002b48383620002f5565b620002ec5750815460018181018455600084815260208082209093018490558454848252828601909352604090209190915562000273565b50600062000273565b60009081526001919091016020526040902054151590565b8280546200031b906200058f565b90600052602060002090601f0160209004810192826200033f57600085556200038a565b82601f106200035a57805160ff19168380011785556200038a565b828001600101855582156200038a579182015b828111156200038a5782518255916020019190600101906200036d565b50620003989291506200039c565b5090565b5b808211156200039857600081556001016200039d565b80516001600160a01b0381168114620003cb57600080fd5b919050565b600082601f830112620003e1578081fd5b81516001600160401b0380821115620003fe57620003fe620005e5565b6040516020601f8401601f1916820181018381118382101715620004265762000426620005e5565b60405283825285840181018710156200043d578485fd5b8492505b8383101562000460578583018101518284018201529182019162000441565b838311156200047157848185840101525b5095945050505050565b600080600080600060a0868803121562000493578081fd5b85516001600160401b0380821115620004aa578283fd5b620004b889838a01620003d0565b96506020880151915080821115620004ce578283fd5b50620004dd88828901620003d0565b94505060408601519250620004f560608701620003b3565b91506200050560808701620003b3565b90509295509295909350565b6020808252601f908201527f45524332303a206d696e7420746f20746865207a65726f206164647265737300604082015260600190565b90815260200190565b600082198211156200058a577f4e487b710000000000000000000000000000000000000000000000000000000081526011600452602481fd5b500190565b600281046001821680620005a457607f821691505b60208210811415620005df577f4e487b7100000000000000000000000000000000000000000000000000000000600052602260045260246000fd5b50919050565b7f4e487b7100000000000000000000000000000000000000000000000000000000600052604160045260246000fd5b6116be80620006246000396000f3fe608060405234801561001057600080fd5b50600436106101585760003560e01c806370a08231116100c3578063a457c2d71161007c578063a457c2d7146102c8578063a9059cbb146102db578063ca15c873146102ee578063d539139314610301578063d547741f14610309578063dd62ed3e1461031c57610158565b806370a082311461025f57806379cc6790146102725780639010d07c1461028557806391d14854146102a557806395d89b41146102b8578063a217fddf146102c057610158565b80632f2ff15d116101155780632f2ff15d146101e9578063313ce567146101fe57806336568abe14610213578063395093511461022657806340c10f191461023957806342966c681461024c57610158565b806301ffc9a71461015d57806306fdde0314610186578063095ea7b31461019b57806318160ddd146101ae57806323b872dd146101c3578063248a9ca3146101d6575b600080fd5b61017061016b36600461113c565b61032f565b60405161017d91906111ed565b60405180910390f35b61018e61035c565b60405161017d9190611201565b6101706101a93660046110b8565b6103ee565b6101b6610412565b60405161017d91906111f8565b6101706101d136600461107d565b610418565b6101b66101e43660046110e1565b610446565b6101fc6101f73660046110f9565b61045b565b005b61020661047c565b60405161017d9190611598565b6101fc6102213660046110f9565b610481565b6101706102343660046110b8565b6104d0565b6101fc6102473660046110b8565b6104fc565b6101fc61025a3660046110e1565b61054e565b6101b661026d366004611031565b610562565b6101fc6102803660046110b8565b61057d565b61029861029336600461111b565b610599565b60405161017d91906111d9565b6101706102b33660046110f9565b6105b8565b61018e6105e1565b6101b66105f0565b6101706102d63660046110b8565b6105f5565b6101706102e93660046110b8565b61063d565b6101b66102fc3660046110e1565b610655565b6101b661066c565b6101fc6103173660046110f9565b610690565b6101b661032a36600461104b565b6106ac565b60006001600160e01b03198216635a05180f60e01b1480610354575061035482610771565b90505b919050565b60606005805461036b90611637565b80601f016020809104026020016040519081016040528092919081815260200182805461039790611637565b80156103e45780601f106103b9576101008083540402835291602001916103e4565b820191906000526020600020905b8154815290600101906020018083116103c757829003601f168201915b5050505050905090565b6000806103f9610796565b905061040681858561079a565b60019150505b92915050565b60045490565b600080610423610796565b905061043085828561084e565b61043b858585610898565b506001949350505050565b60009081526020819052604090206001015490565b61046482610446565b61046d81610999565b61047783836109aa565b505050565b601290565b610489610796565b6001600160a01b0316816001600160a01b0316146104c25760405162461bcd60e51b81526004016104b990611512565b60405180910390fd5b6104cc82826109cc565b5050565b6000806104db610796565b90506104068185856104ed85896106ac565b6104f791906115a6565b61079a565b6105287f9f2df0fed2c77648de5860a4cc508cd0818c85b8b8a1ab4ceeef8d981c8956a66102b3610796565b6105445760405162461bcd60e51b81526004016104b9906113ad565b6104cc82826109ee565b61055f610559610796565b82610a98565b50565b6001600160a01b031660009081526002602052604090205490565b61058f82610589610796565b8361084e565b6104cc8282610a98565b60008281526001602052604081206105b19083610b6f565b9392505050565b6000918252602082815260408084206001600160a01b0393909316845291905290205460ff1690565b60606006805461036b90611637565b600081565b600080610600610796565b9050600061060e82866106ac565b9050838110156106305760405162461bcd60e51b81526004016104b9906114cd565b61043b828686840361079a565b600080610648610796565b9050610406818585610898565b600081815260016020526040812061035490610b7b565b7f9f2df0fed2c77648de5860a4cc508cd0818c85b8b8a1ab4ceeef8d981c8956a681565b61069982610446565b6106a281610999565b61047783836109cc565b6001600160a01b03918216600090815260036020908152604080832093909416825291909152205490565b6106e182826105b8565b6104cc576000828152602081815260408083206001600160a01b03851684529091529020805460ff19166001179055610718610796565b6001600160a01b0316816001600160a01b0316837f2f8788117e7eff1d82e926ec794901d17c78024a50270940304540a733656f0d60405160405180910390a45050565b60006105b1836001600160a01b038416610b86565b60006001600160e01b03198216637965db0b60e01b1480610354575061035482610bd0565b3390565b6001600160a01b0383166107c05760405162461bcd60e51b81526004016104b990611489565b6001600160a01b0382166107e65760405162461bcd60e51b81526004016104b9906112ee565b6001600160a01b0380841660008181526003602090815260408083209487168084529490915290819020849055517f8c5be1e5ebec7d5bd14f71427d1e84f3dd0314c0f7b2291e5b200ac8c7c3b925906108419085906111f8565b60405180910390a3505050565b600061085a84846106ac565b9050600019811461089257818110156108855760405162461bcd60e51b81526004016104b990611330565b610892848484840361079a565b50505050565b6001600160a01b0383166108be5760405162461bcd60e51b81526004016104b990611444565b6001600160a01b0382166108e45760405162461bcd60e51b81526004016104b990611269565b6108ef838383610be9565b6001600160a01b038316600090815260026020526040902054818110156109285760405162461bcd60e51b81526004016104b990611367565b6001600160a01b0380851660008181526002602052604080822086860390559286168082529083902080548601905591517fddf252ad1be2c89b69c2b068fc378daa952ba7f163c4a11628f55a4df523b3ef906109869086906111f8565b60405180910390a3610892848484610477565b61055f816109a5610796565b610bf4565b6109b482826106d7565b6000828152600160205260409020610477908261075c565b6109d68282610c4d565b60008281526001602052604090206104779082610cd0565b6001600160a01b038216610a145760405162461bcd60e51b81526004016104b990611561565b610a2060008383610be9565b8060046000828254610a3291906115a6565b90915550506001600160a01b038216600081815260026020526040808220805485019055517fddf252ad1be2c89b69c2b068fc378daa952ba7f163c4a11628f55a4df523b3ef90610a849085906111f8565b60405180910390a36104cc60008383610477565b6001600160a01b038216610abe5760405162461bcd60e51b81526004016104b990611403565b610aca82600083610be9565b6001600160a01b03821660009081526002602052604090205481811015610b035760405162461bcd60e51b81526004016104b9906112ac565b6001600160a01b0383166000818152600260205260408082208585039055600480548690039055519091907fddf252ad1be2c89b69c2b068fc378daa952ba7f163c4a11628f55a4df523b3ef90610b5b9086906111f8565b60405180910390a361047783600084610477565b60006105b18383610ce5565b600061035482610d1d565b6000610b928383610d21565b610bc85750815460018181018455600084815260208082209093018490558454848252828601909352604090209190915561040c565b50600061040c565b6001600160e01b031981166301ffc9a760e01b14919050565b610477838383610477565b610bfe82826105b8565b6104cc57610c0b81610d39565b610c16836020610d4b565b604051602001610c27929190611164565b60408051601f198184030181529082905262461bcd60e51b82526104b991600401611201565b610c5782826105b8565b156104cc576000828152602081815260408083206001600160a01b03851684529091529020805460ff19169055610c8c610796565b6001600160a01b0316816001600160a01b0316837ff6391f5c32d9c69d2a47ea670b442974b53935d1edc7fd64eb21e047a839171b60405160405180910390a45050565b60006105b1836001600160a01b038416610efd565b6000826000018281548110610d0a57634e487b7160e01b600052603260045260246000fd5b9060005260206000200154905092915050565b5490565b60009081526001919091016020526040902054151590565b60606103546001600160a01b03831660145b60606000610d5a8360026115be565b610d659060026115a6565b67ffffffffffffffff811115610d8b57634e487b7160e01b600052604160045260246000fd5b6040519080825280601f01601f191660200182016040528015610db5576020820181803683370190505b509050600360fc1b81600081518110610dde57634e487b7160e01b600052603260045260246000fd5b60200101906001600160f81b031916908160001a905350600f60fb1b81600181518110610e1b57634e487b7160e01b600052603260045260246000fd5b60200101906001600160f81b031916908160001a9053506000610e3f8460026115be565b610e4a9060016115a6565b90505b6001811115610ede576f181899199a1a9b1b9c1cb0b131b232b360811b85600f1660108110610e8c57634e487b7160e01b600052603260045260246000fd5b1a60f81b828281518110610eb057634e487b7160e01b600052603260045260246000fd5b60200101906001600160f81b031916908160001a90535060049490941c93610ed781611620565b9050610e4d565b5083156105b15760405162461bcd60e51b81526004016104b990611234565b60008181526001830160205260408120548015611010576000610f216001836115dd565b8554909150600090610f35906001906115dd565b9050818114610fb6576000866000018281548110610f6357634e487b7160e01b600052603260045260246000fd5b9060005260206000200154905080876000018481548110610f9457634e487b7160e01b600052603260045260246000fd5b6000918252602080832090910192909255918252600188019052604090208390555b8554869080610fd557634e487b7160e01b600052603160045260246000fd5b60019003818190600052602060002001600090559055856001016000868152602001908152602001600020600090556001935050505061040c565b600091505061040c565b80356001600160a01b038116811461035757600080fd5b600060208284031215611042578081fd5b6105b18261101a565b6000806040838503121561105d578081fd5b6110668361101a565b91506110746020840161101a565b90509250929050565b600080600060608486031215611091578081fd5b61109a8461101a565b92506110a86020850161101a565b9150604084013590509250925092565b600080604083850312156110ca578182fd5b6110d38361101a565b946020939093013593505050565b6000602082840312156110f2578081fd5b5035919050565b6000806040838503121561110b578182fd5b823591506110746020840161101a565b6000806040838503121561112d578182fd5b50508035926020909101359150565b60006020828403121561114d578081fd5b81356001600160e01b0319811681146105b1578182fd5b60007f416363657373436f6e74726f6c3a206163636f756e74200000000000000000008252835161119c8160178501602088016115f4565b7001034b99036b4b9b9b4b733903937b6329607d1b60179184019182015283516111cd8160288401602088016115f4565b01602801949350505050565b6001600160a01b0391909116815260200190565b901515815260200190565b90815260200190565b60006020825282518060208401526112208160408501602087016115f4565b601f01601f19169190910160400192915050565b6020808252818101527f537472696e67733a20686578206c656e67746820696e73756666696369656e74604082015260600190565b60208082526023908201527f45524332303a207472616e7366657220746f20746865207a65726f206164647260408201526265737360e81b606082015260800190565b60208082526022908201527f45524332303a206275726e20616d6f756e7420657863656564732062616c616e604082015261636560f01b606082015260800190565b60208082526022908201527f45524332303a20617070726f766520746f20746865207a65726f206164647265604082015261737360f01b606082015260800190565b6020808252601d908201527f45524332303a20696e73756666696369656e7420616c6c6f77616e6365000000604082015260600190565b60208082526026908201527f45524332303a207472616e7366657220616d6f756e7420657863656564732062604082015265616c616e636560d01b606082015260800190565b60208082526036908201527f45524332305072657365744d696e7465725061757365723a206d7573742068616040820152751d99481b5a5b9d195c881c9bdb19481d1bc81b5a5b9d60521b606082015260800190565b60208082526021908201527f45524332303a206275726e2066726f6d20746865207a65726f206164647265736040820152607360f81b606082015260800190565b60208082526025908201527f45524332303a207472616e736665722066726f6d20746865207a65726f206164604082015264647265737360d81b606082015260800190565b60208082526024908201527f45524332303a20617070726f76652066726f6d20746865207a65726f206164646040820152637265737360e01b606082015260800190565b60208082526025908201527f45524332303a2064656372656173656420616c6c6f77616e63652062656c6f77604082015264207a65726f60d81b606082015260800190565b6020808252602f908201527f416363657373436f6e74726f6c3a2063616e206f6e6c792072656e6f756e636560408201526e103937b632b9903337b91039b2b63360891b606082015260800190565b6020808252601f908201527f45524332303a206d696e7420746f20746865207a65726f206164647265737300604082015260600190565b60ff91909116815260200190565b600082198211156115b9576115b9611672565b500190565b60008160001904831182151516156115d8576115d8611672565b500290565b6000828210156115ef576115ef611672565b500390565b60005b8381101561160f5781810151838201526020016115f7565b838111156108925750506000910152565b60008161162f5761162f611672565b506000190190565b60028104600182168061164b57607f821691505b6020821081141561166c57634e487b7160e01b600052602260045260246000fd5b50919050565b634e487b7160e01b600052601160045260246000fdfea26469706673582212206335211c12f4cc6a7e12d2310a52b787fa3f187c1e2fcccbedc9289de615337164736f6c63430008000033a2646970667358221220c2982d045ff29d713ebd3cbb4248666753c410ca549979550f581ada58029f5f64736f6c63430008000033",
  "immutableReferences": {},
  "source": "// SPDX-License-Identifier: MIT\n\n// This is a factory contract to create a new token\n// token's mint right will totally transfer to community contract and can't be changed in the future\n\npragma solidity 0.8.0;\npragma experimental ABIEncoderV2;\n\nimport \"./MintableERC20.sol\";\nimport \"solidity-bytes-utils/contracts/BytesLib.sol\";\nimport \"../interfaces/ICommunityTokenFactory.sol\";\n\ncontract MintableERC20Factory is ICommunityTokenFactory {\n\n    using BytesLib for bytes;\n\n    constructor () {\n    }\n\n    function createCommunityToken(bytes calldata meta) external override returns (address) {\n        uint8 nameLength = meta.toUint8(0);\n        string memory name = string(meta.slice(1, nameLength));\n        uint8 symbolLength = meta.toUint8(nameLength + 1);\n        string memory symbol = string(meta.slice(nameLength + 2, symbolLength));\n        uint256 supply = meta.toUint256(nameLength + symbolLength + 2);\n        address owner = meta.toAddress(nameLength + symbolLength + 34);\n        MintableERC20 token = new MintableERC20(name, symbol, supply, owner, msg.sender);\n        return address(token);\n    }\n}",
  "sourcePath": "/Users/wangxi/work/Walnut-V2/nutbox-contract/contracts/community-token/MintableERC20Factory.sol",
  "compiler": {
    "name": "solc",
    "version": "0.8.0+commit.c7dfd78e.Emscripten.clang"
  },
  "schemaVersion": "3.4.14",
  "updatedAt": "2024-06-20T15:00:49.670Z",
  "devdoc": {
    "kind": "dev",
    "methods": {},
    "version": 1
  },
  "userdoc": {
    "kind": "user",
    "methods": {},
    "version": 1
  }
}