{
  "contractName": "NutPower",
  "abi": [
    {
      "inputs": [
        {
          "internalType": "address",
          "name": "_nut",
          "type": "address"
        }
      ],
      "stateMutability": "nonpayable",
      "type": "constructor"
    },
    {
      "anonymous": false,
      "inputs": [
        {
          "indexed": true,
          "internalType": "address",
          "name": "oldNut",
          "type": "address"
        },
        {
          "indexed": true,
          "internalType": "address",
          "name": "newNut",
          "type": "address"
        }
      ],
      "name": "AdminChangeNut",
      "type": "event"
    },
    {
      "anonymous": false,
      "inputs": [
        {
          "indexed": true,
          "internalType": "address",
          "name": "who",
          "type": "address"
        },
        {
          "indexed": false,
          "internalType": "bool",
          "name": "tag",
          "type": "bool"
        }
      ],
      "name": "AdminSetWhiteList",
      "type": "event"
    },
    {
      "anonymous": false,
      "inputs": [
        {
          "indexed": true,
          "internalType": "address",
          "name": "previousOwner",
          "type": "address"
        },
        {
          "indexed": true,
          "internalType": "address",
          "name": "newOwner",
          "type": "address"
        }
      ],
      "name": "OwnershipTransferred",
      "type": "event"
    },
    {
      "anonymous": false,
      "inputs": [
        {
          "indexed": true,
          "internalType": "address",
          "name": "who",
          "type": "address"
        },
        {
          "indexed": false,
          "internalType": "enum NutPower.Period",
          "name": "period",
          "type": "uint8"
        },
        {
          "indexed": false,
          "internalType": "uint256",
          "name": "amount",
          "type": "uint256"
        }
      ],
      "name": "PowerDown",
      "type": "event"
    },
    {
      "anonymous": false,
      "inputs": [
        {
          "indexed": true,
          "internalType": "address",
          "name": "who",
          "type": "address"
        },
        {
          "indexed": false,
          "internalType": "enum NutPower.Period",
          "name": "period",
          "type": "uint8"
        },
        {
          "indexed": false,
          "internalType": "uint256",
          "name": "amount",
          "type": "uint256"
        }
      ],
      "name": "PowerUp",
      "type": "event"
    },
    {
      "anonymous": false,
      "inputs": [
        {
          "indexed": true,
          "internalType": "address",
          "name": "who",
          "type": "address"
        },
        {
          "indexed": false,
          "internalType": "uint256",
          "name": "amount",
          "type": "uint256"
        }
      ],
      "name": "Redeemd",
      "type": "event"
    },
    {
      "anonymous": false,
      "inputs": [
        {
          "indexed": true,
          "internalType": "address",
          "name": "who",
          "type": "address"
        },
        {
          "indexed": false,
          "internalType": "enum NutPower.Period",
          "name": "src",
          "type": "uint8"
        },
        {
          "indexed": false,
          "internalType": "enum NutPower.Period",
          "name": "dest",
          "type": "uint8"
        },
        {
          "indexed": false,
          "internalType": "uint256",
          "name": "amount",
          "type": "uint256"
        }
      ],
      "name": "Upgrade",
      "type": "event"
    },
    {
      "inputs": [],
      "name": "PERIOD_COUNT",
      "outputs": [
        {
          "internalType": "uint256",
          "name": "",
          "type": "uint256"
        }
      ],
      "stateMutability": "view",
      "type": "function"
    },
    {
      "inputs": [],
      "name": "WEEK",
      "outputs": [
        {
          "internalType": "uint256",
          "name": "",
          "type": "uint256"
        }
      ],
      "stateMutability": "view",
      "type": "function"
    },
    {
      "inputs": [],
      "name": "nut",
      "outputs": [
        {
          "internalType": "address",
          "name": "",
          "type": "address"
        }
      ],
      "stateMutability": "view",
      "type": "function"
    },
    {
      "inputs": [],
      "name": "owner",
      "outputs": [
        {
          "internalType": "address",
          "name": "",
          "type": "address"
        }
      ],
      "stateMutability": "view",
      "type": "function"
    },
    {
      "inputs": [],
      "name": "renounceOwnership",
      "outputs": [],
      "stateMutability": "nonpayable",
      "type": "function"
    },
    {
      "inputs": [],
      "name": "totalLockedNut",
      "outputs": [
        {
          "internalType": "uint256",
          "name": "",
          "type": "uint256"
        }
      ],
      "stateMutability": "view",
      "type": "function"
    },
    {
      "inputs": [],
      "name": "totalSupply",
      "outputs": [
        {
          "internalType": "uint256",
          "name": "",
          "type": "uint256"
        }
      ],
      "stateMutability": "view",
      "type": "function"
    },
    {
      "inputs": [
        {
          "internalType": "address",
          "name": "newOwner",
          "type": "address"
        }
      ],
      "name": "transferOwnership",
      "outputs": [],
      "stateMutability": "nonpayable",
      "type": "function"
    },
    {
      "inputs": [
        {
          "internalType": "address",
          "name": "",
          "type": "address"
        }
      ],
      "name": "whitelists",
      "outputs": [
        {
          "internalType": "bool",
          "name": "",
          "type": "bool"
        }
      ],
      "stateMutability": "view",
      "type": "function"
    },
    {
      "inputs": [
        {
          "internalType": "address",
          "name": "_nut",
          "type": "address"
        }
      ],
      "name": "adminSetNut",
      "outputs": [],
      "stateMutability": "nonpayable",
      "type": "function"
    },
    {
      "inputs": [
        {
          "internalType": "address",
          "name": "_who",
          "type": "address"
        },
        {
          "internalType": "bool",
          "name": "_tag",
          "type": "bool"
        }
      ],
      "name": "adminSetWhitelist",
      "outputs": [],
      "stateMutability": "nonpayable",
      "type": "function"
    },
    {
      "inputs": [
        {
          "internalType": "uint256",
          "name": "_nutAmount",
          "type": "uint256"
        },
        {
          "internalType": "enum NutPower.Period",
          "name": "_period",
          "type": "uint8"
        }
      ],
      "name": "powerUp",
      "outputs": [],
      "stateMutability": "nonpayable",
      "type": "function"
    },
    {
      "inputs": [
        {
          "internalType": "uint256",
          "name": "_npAmount",
          "type": "uint256"
        },
        {
          "internalType": "enum NutPower.Period",
          "name": "_period",
          "type": "uint8"
        }
      ],
      "name": "powerDown",
      "outputs": [],
      "stateMutability": "nonpayable",
      "type": "function"
    },
    {
      "inputs": [
        {
          "internalType": "uint256",
          "name": "_nutAmount",
          "type": "uint256"
        },
        {
          "internalType": "enum NutPower.Period",
          "name": "_src",
          "type": "uint8"
        },
        {
          "internalType": "enum NutPower.Period",
          "name": "_dest",
          "type": "uint8"
        }
      ],
      "name": "upgrade",
      "outputs": [],
      "stateMutability": "nonpayable",
      "type": "function"
    },
    {
      "inputs": [],
      "name": "redeem",
      "outputs": [],
      "stateMutability": "nonpayable",
      "type": "function"
    },
    {
      "inputs": [
        {
          "internalType": "address",
          "name": "_who",
          "type": "address"
        },
        {
          "internalType": "uint256",
          "name": "_npAmount",
          "type": "uint256"
        }
      ],
      "name": "lock",
      "outputs": [],
      "stateMutability": "nonpayable",
      "type": "function"
    },
    {
      "inputs": [
        {
          "internalType": "address",
          "name": "_who",
          "type": "address"
        },
        {
          "internalType": "uint256",
          "name": "_npAmount",
          "type": "uint256"
        }
      ],
      "name": "unlock",
      "outputs": [],
      "stateMutability": "nonpayable",
      "type": "function"
    },
    {
      "inputs": [],
      "name": "name",
      "outputs": [
        {
          "internalType": "string",
          "name": "",
          "type": "string"
        }
      ],
      "stateMutability": "pure",
      "type": "function"
    },
    {
      "inputs": [],
      "name": "symbol",
      "outputs": [
        {
          "internalType": "string",
          "name": "",
          "type": "string"
        }
      ],
      "stateMutability": "pure",
      "type": "function"
    },
    {
      "inputs": [],
      "name": "decimals",
      "outputs": [
        {
          "internalType": "uint8",
          "name": "",
          "type": "uint8"
        }
      ],
      "stateMutability": "pure",
      "type": "function"
    },
    {
      "inputs": [
        {
          "internalType": "address",
          "name": "account",
          "type": "address"
        }
      ],
      "name": "balanceOf",
      "outputs": [
        {
          "components": [
            {
              "internalType": "uint256",
              "name": "free",
              "type": "uint256"
            },
            {
              "internalType": "uint256",
              "name": "locked",
              "type": "uint256"
            }
          ],
          "internalType": "struct NutPower.PowerInfo",
          "name": "",
          "type": "tuple"
        }
      ],
      "stateMutability": "view",
      "type": "function"
    },
    {
      "inputs": [
        {
          "internalType": "address",
          "name": "_who",
          "type": "address"
        },
        {
          "internalType": "enum NutPower.Period",
          "name": "_period",
          "type": "uint8"
        }
      ],
      "name": "redeemRequestCountOfPeriod",
      "outputs": [
        {
          "internalType": "uint256",
          "name": "len",
          "type": "uint256"
        }
      ],
      "stateMutability": "view",
      "type": "function"
    },
    {
      "inputs": [
        {
          "internalType": "address",
          "name": "_who",
          "type": "address"
        },
        {
          "internalType": "enum NutPower.Period",
          "name": "_period",
          "type": "uint8"
        }
      ],
      "name": "redeemRequestsOfPeriod",
      "outputs": [
        {
          "components": [
            {
              "internalType": "uint256",
              "name": "nutAmount",
              "type": "uint256"
            },
            {
              "internalType": "uint256",
              "name": "claimed",
              "type": "uint256"
            },
            {
              "internalType": "uint256",
              "name": "startTime",
              "type": "uint256"
            },
            {
              "internalType": "uint256",
              "name": "endTime",
              "type": "uint256"
            }
          ],
          "internalType": "struct NutPower.RedeemRequest[]",
          "name": "reqs",
          "type": "tuple[]"
        }
      ],
      "stateMutability": "view",
      "type": "function"
    },
    {
      "inputs": [
        {
          "internalType": "address",
          "name": "_who",
          "type": "address"
        },
        {
          "internalType": "enum NutPower.Period",
          "name": "_period",
          "type": "uint8"
        }
      ],
      "name": "firstRedeemRequest",
      "outputs": [
        {
          "components": [
            {
              "internalType": "uint256",
              "name": "nutAmount",
              "type": "uint256"
            },
            {
              "internalType": "uint256",
              "name": "claimed",
              "type": "uint256"
            },
            {
              "internalType": "uint256",
              "name": "startTime",
              "type": "uint256"
            },
            {
              "internalType": "uint256",
              "name": "endTime",
              "type": "uint256"
            }
          ],
          "internalType": "struct NutPower.RedeemRequest",
          "name": "req",
          "type": "tuple"
        }
      ],
      "stateMutability": "view",
      "type": "function"
    },
    {
      "inputs": [
        {
          "internalType": "address",
          "name": "_who",
          "type": "address"
        },
        {
          "internalType": "enum NutPower.Period",
          "name": "_period",
          "type": "uint8"
        }
      ],
      "name": "lastRedeemRequest",
      "outputs": [
        {
          "components": [
            {
              "internalType": "uint256",
              "name": "nutAmount",
              "type": "uint256"
            },
            {
              "internalType": "uint256",
              "name": "claimed",
              "type": "uint256"
            },
            {
              "internalType": "uint256",
              "name": "startTime",
              "type": "uint256"
            },
            {
              "internalType": "uint256",
              "name": "endTime",
              "type": "uint256"
            }
          ],
          "internalType": "struct NutPower.RedeemRequest",
          "name": "req",
          "type": "tuple"
        }
      ],
      "stateMutability": "view",
      "type": "function"
    },
    {
      "inputs": [
        {
          "internalType": "address",
          "name": "_who",
          "type": "address"
        }
      ],
      "name": "claimableNut",
      "outputs": [
        {
          "internalType": "uint256",
          "name": "amount",
          "type": "uint256"
        }
      ],
      "stateMutability": "view",
      "type": "function"
    },
    {
      "inputs": [
        {
          "internalType": "address",
          "name": "_who",
          "type": "address"
        },
        {
          "internalType": "enum NutPower.Period",
          "name": "_period",
          "type": "uint8"
        }
      ],
      "name": "lockedNutOfPeriod",
      "outputs": [
        {
          "internalType": "uint256",
          "name": "",
          "type": "uint256"
        }
      ],
      "stateMutability": "view",
      "type": "function"
    }
  ],
  "bytecode": "0x610160604090815260016080908152600260a052600460c052600860e052601061010052602061012052610140919091526200003f90600790816200014e565b503480156200004d57600080fd5b5060405162002cbc38038062002cbc8339810160408190526200007091620001ad565b620000846200007e620000fa565b620000fe565b600180556001600160a01b038116620000d4576040517f08c379a0000000000000000000000000000000000000000000000000000000008152600401620000cb90620001dd565b60405180910390fd5b600280546001600160a01b0319166001600160a01b039290921691909117905562000214565b3390565b600080546001600160a01b038381166001600160a01b0319831681178455604051919092169283917f8be0079c531659141344cd1fd0a4f28419497f9722a3daafe3b4186f6b6457e09190a35050565b826007810192821562000184579160200282015b8281111562000184578251829060ff1690559160200191906001019062000162565b506200019292915062000196565b5090565b5b8082111562000192576000815560010162000197565b600060208284031215620001bf578081fd5b81516001600160a01b0381168114620001d6578182fd5b9392505050565b60208082526013908201527f496e76616c6964206e7574206164647265737300000000000000000000000000604082015260600190565b612a9880620002246000396000f3fe608060405234801561001057600080fd5b50600436106101a95760003560e01c80637ba180d1116100f9578063be040fb011610097578063e36c639811610071578063e36c639814610373578063f1382b261461037b578063f2fde38b1461038e578063f4359ce5146103a1576101a9565b8063be040fb014610345578063c41b3cd21461034d578063d2ae8e4e14610360576101a9565b80638da5cb5b116100d35780638da5cb5b1461030f5780638e80408f1461031757806395d89b411461032a578063a328164c14610332576101a9565b80637ba180d1146102d65780637eee288d146102e95780638cf2d00a146102fc576101a9565b80633441c5d4116101665780636e7d2cb3116101405780636e7d2cb31461028657806370a08231146102a6578063715018a6146102c6578063783b912b146102ce576101a9565b80633441c5d4146102405780633b5b7115146102535780635e995caf14610273576101a9565b806306fdde03146101ae57806315d3b7a0146101cc57806318160ddd146101e15780631e7be210146101f6578063282d3fdf14610216578063313ce5671461022b575b600080fd5b6101b66103a9565b6040516101c39190612634565b60405180910390f35b6101d46103cc565b6040516101c39190612529565b6101e96103db565b6040516101c3919061299e565b6102096102043660046123a5565b6103e1565b6040516101c391906125e5565b610229610224366004612427565b6103f6565b005b6102336104d5565b6040516101c391906129a7565b61022961024e366004612484565b6104da565b6102666102613660046123f5565b610761565b6040516101c39190612990565b6101e96102813660046123f5565b610932565b6102996102943660046123f5565b610a19565b6040516101c39190612597565b6102b96102b43660046123a5565b610ce7565b6040516101c39190612979565b610229610d26565b6101e9610d71565b6101e96102e43660046123f5565b610d77565b6102296102f7366004612427565b610de9565b61022961030a366004612484565b610e9f565b6101d461124f565b6101e96103253660046123a5565b61125e565b6101b66114b2565b6102666103403660046123f5565b6114ce565b610229611647565b61022961035b3660046124a6565b611ccc565b61022961036e3660046123a5565b612046565b6101e96120ff565b6102296103893660046123bf565b612104565b61022961039c3660046123a5565b6121c9565b6101e961223a565b604080518082019091526009815268273aba102837bbb2b960b91b602082015290565b6002546001600160a01b031681565b60045481565b600f6020526000908152604090205460ff1681565b336000908152600f602052604090205460ff1661042e5760405162461bcd60e51b815260040161042590612726565b60405180910390fd5b6001600160a01b0382166000908152600560205260409020548111156104665760405162461bcd60e51b81526004016104259061275d565b6001600160a01b0382166000908152600560205260409020546104899082612241565b6001600160a01b0383166000908152600560205260409020908155600101546104b2908261224d565b6001600160a01b0390921660009081526005602052604090206001019190915550565b601290565b600260015414156104fd5760405162461bcd60e51b815260040161042590612942565b60026001558161051f5760405162461bcd60e51b815260040161042590612802565b6002546040516323b872dd60e01b81526001600160a01b03909116906323b872dd906105539033903090879060040161253d565b602060405180830381600087803b15801561056d57600080fd5b505af1158015610581573d6000803e3d6000fd5b505050506040513d601f19601f820116820180604052508101906105a59190612450565b5060006105f460078360068111156105cd57634e487b7160e01b600052602160045260246000fd5b600781106105eb57634e487b7160e01b600052603260045260246000fd5b01548490612259565b600354909150610604908461224d565b600355600454610614908261224d565b60045533600090815260056020526040902054610631908261224d565b336000908152600560209081526040808320939093556006908190529181206106b292869290869081111561067657634e487b7160e01b600052602160045260246000fd5b600681111561069557634e487b7160e01b600052602160045260246000fd5b81526020019081526020016000205461224d90919063ffffffff16565b3360009081526006602081905260408220919085908111156106e457634e487b7160e01b600052602160045260246000fd5b600681111561070357634e487b7160e01b600052602160045260246000fd5b815260200190815260200160002081905550336001600160a01b03167f7972ff6ab166095fb7f719b77bc03b91f0c19d369a03b9ef8b6fa6c75c58ba2c8385604051610750929190612619565b60405180910390a250506001805550565b61076961233d565b6001600160a01b0383166000908152600e60205260408120818460068111156107a257634e487b7160e01b600052602160045260246000fd5b60068111156107c157634e487b7160e01b600052602160045260246000fd5b8152602081019190915260400160002060010154111561092c576001600160a01b0383166000908152600e602052604081209083600681111561081457634e487b7160e01b600052602160045260246000fd5b600681111561083357634e487b7160e01b600052602160045260246000fd5b81526020019081526020016000206001016001600e6000866001600160a01b03166001600160a01b03168152602001908152602001600020600085600681111561088d57634e487b7160e01b600052602160045260246000fd5b60068111156108ac57634e487b7160e01b600052602160045260246000fd5b81526020810191909152604001600020600101546108ca9190612a0c565b815481106108e857634e487b7160e01b600052603260045260246000fd5b906000526020600020906004020160405180608001604052908160008201548152602001600182015481526020016002820154815260200160038201548152505090505b92915050565b6001600160a01b0382166000908152600e602052604081208183600681111561096b57634e487b7160e01b600052602160045260246000fd5b600681111561098a57634e487b7160e01b600052602160045260246000fd5b815260208082019290925260409081016000908120546001600160a01b0387168252600e909352908120908460068111156109d557634e487b7160e01b600052602160045260246000fd5b60068111156109f457634e487b7160e01b600052602160045260246000fd5b8152602081019190915260400160002060010154610a129190612a0c565b9392505050565b604051635e995caf60e01b81526060903090635e995caf90610a419086908690600401612561565b60206040518083038186803b158015610a5957600080fd5b505afa158015610a6d573d6000803e3d6000fd5b505050506040513d601f19601f82011682018060405250810190610a91919061246c565b67ffffffffffffffff811115610ab757634e487b7160e01b600052604160045260246000fd5b604051908082528060200260200182016040528015610af057816020015b610add61233d565b815260200190600190039081610ad55790505b506001600160a01b0384166000908152600e602052604081209192509081846006811115610b2e57634e487b7160e01b600052602160045260246000fd5b6006811115610b4d57634e487b7160e01b600052602160045260246000fd5b81526020019081526020016000206000015490505b6001600160a01b0384166000908152600e6020526040812090846006811115610b9b57634e487b7160e01b600052602160045260246000fd5b6006811115610bba57634e487b7160e01b600052602160045260246000fd5b8152602081019190915260400160002060010154811015610ce0576001600160a01b0384166000908152600e6020526040812081856006811115610c0e57634e487b7160e01b600052602160045260246000fd5b6006811115610c2d57634e487b7160e01b600052602160045260246000fd5b81526020019081526020016000206001018281548110610c5d57634e487b7160e01b600052603260045260246000fd5b9060005260206000209060040201905080604051806080016040529081600082015481526020016001820154815260200160028201548152602001600382015481525050838381518110610cc157634e487b7160e01b600052603260045260246000fd5b6020026020010181905250508080610cd890612a23565b915050610b62565b5092915050565b610cef612365565b506001600160a01b03811660009081526005602090815260409182902082518084019093528054835260010154908201525b919050565b610d2e612265565b6001600160a01b0316610d3f61124f565b6001600160a01b031614610d655760405162461bcd60e51b81526004016104259061282f565b610d6f6000612269565b565b60035481565b6001600160a01b038216600090815260066020819052604082209082908490811115610db357634e487b7160e01b600052602160045260246000fd5b6006811115610dd257634e487b7160e01b600052602160045260246000fd5b815260200190815260200160002054905092915050565b336000908152600f602052604090205460ff16610e185760405162461bcd60e51b815260040161042590612726565b6001600160a01b038216600090815260056020526040902060010154811115610e535760405162461bcd60e51b8152600401610425906127cb565b6001600160a01b038216600090815260056020526040902054610e76908261224d565b6001600160a01b0383166000908152600560205260409020908155600101546104b29082612241565b60026001541415610ec25760405162461bcd60e51b815260040161042590612942565b60026001556000610f156007836006811115610eee57634e487b7160e01b600052602160045260246000fd5b60078110610f0c57634e487b7160e01b600052603260045260246000fd5b015484906122b9565b905060008311610f375760405162461bcd60e51b815260040161042590612917565b3360009081526006602081905260408220839290918590811115610f6b57634e487b7160e01b600052602160045260246000fd5b6006811115610f8a57634e487b7160e01b600052602160045260246000fd5b8152602001908152602001600020541015610fb75760405162461bcd60e51b815260040161042590612687565b33600090815260056020526040902054831115610fe65760405162461bcd60e51b8152600401610425906128e9565b336000908152600560205260409020546110009084612241565b3360009081526005602090815260408083209390935560069081905291812061108192849290869081111561104557634e487b7160e01b600052602160045260246000fd5b600681111561106457634e487b7160e01b600052602160045260246000fd5b81526020019081526020016000205461224190919063ffffffff16565b3360009081526006602081905260408220919085908111156110b357634e487b7160e01b600052602160045260246000fd5b60068111156110d257634e487b7160e01b600052602160045260246000fd5b81526020808201929092526040908101600090812093909355338352600e90915281209083600681111561111657634e487b7160e01b600052602160045260246000fd5b600681111561113557634e487b7160e01b600052602160045260246000fd5b81526020019081526020016000206001016040518060800160405280838152602001600081526020014281526020016111bd6111b6600787600681111561118c57634e487b7160e01b600052602160045260246000fd5b600781106111aa57634e487b7160e01b600052603260045260246000fd5b015462093a8090612259565b429061224d565b90528154600181810184556000938452602093849020835160049093020191825592820151928101929092556040810151600283015560600151600391820155546112089082612241565b6003556004546112189084612241565b60045560405133907f6399656c46da7a8bc6e6f764c73c74a1a82620c1c589a8afc97851490877a301906107509085908790612619565b6000546001600160a01b031690565b6000805b60078110156114ac576001600160a01b0383166000908152600e60205260408120818360068111156112a457634e487b7160e01b600052602160045260246000fd5b60068111156112c357634e487b7160e01b600052602160045260246000fd5b60068111156112e257634e487b7160e01b600052602160045260246000fd5b81526020019081526020016000206000015490505b6001600160a01b0384166000908152600e602052604081209083600681111561133057634e487b7160e01b600052602160045260246000fd5b600681111561134f57634e487b7160e01b600052602160045260246000fd5b600681111561136e57634e487b7160e01b600052602160045260246000fd5b8152602081019190915260400160002060010154811015611499576001600160a01b0384166000908152600e602052604081206114859161147e91908560068111156113ca57634e487b7160e01b600052602160045260246000fd5b60068111156113e957634e487b7160e01b600052602160045260246000fd5b600681111561140857634e487b7160e01b600052602160045260246000fd5b8152602001908152602001600020600101838154811061143857634e487b7160e01b600052603260045260246000fd5b90600052602060002090600402016040518060800160405290816000820154815260200160018201548152602001600282015481526020016003820154815250506122c5565b849061224d565b92508061149181612a23565b9150506112f7565b50806114a481612a23565b915050611262565b50919050565b60408051808201909152600281526104e560f41b602082015290565b6114d661233d565b6001600160a01b0383166000908152600e602052604081208184600681111561150f57634e487b7160e01b600052602160045260246000fd5b600681111561152e57634e487b7160e01b600052602160045260246000fd5b8152602081019190915260400160002060010154111561092c576001600160a01b0383166000908152600e602052604081209083600681111561158157634e487b7160e01b600052602160045260246000fd5b60068111156115a057634e487b7160e01b600052602160045260246000fd5b8152602001908152602001600020600101600e6000856001600160a01b03166001600160a01b0316815260200190815260200160002060008460068111156115f857634e487b7160e01b600052602160045260246000fd5b600681111561161757634e487b7160e01b600052602160045260246000fd5b815260200190815260200160002060000154815481106108e857634e487b7160e01b600052603260045260246000fd5b6002600154141561166a5760405162461bcd60e51b815260040161042590612942565b60026001556000805b6007811015611b6057336000908152600e60205260408120818360068111156116ac57634e487b7160e01b600052602160045260246000fd5b60068111156116cb57634e487b7160e01b600052602160045260246000fd5b60068111156116ea57634e487b7160e01b600052602160045260246000fd5b81526020019081526020016000206000015490505b336000908152600e602052604081209083600681111561172f57634e487b7160e01b600052602160045260246000fd5b600681111561174e57634e487b7160e01b600052602160045260246000fd5b600681111561176d57634e487b7160e01b600052602160045260246000fd5b8152602081019190915260400160002060010154811015611b4d57336000908152600e602052604081206117bc90828560068111156113ca57634e487b7160e01b600052602160045260246000fd5b336000908152600e602052604081209192506118829183918660068111156117f457634e487b7160e01b600052602160045260246000fd5b600681111561181357634e487b7160e01b600052602160045260246000fd5b600681111561183257634e487b7160e01b600052602160045260246000fd5b8152602001908152602001600020600101848154811061186257634e487b7160e01b600052603260045260246000fd5b90600052602060002090600402016001015461224d90919063ffffffff16565b336000908152600e60205260408120908560068111156118b257634e487b7160e01b600052602160045260246000fd5b60068111156118d157634e487b7160e01b600052602160045260246000fd5b60068111156118f057634e487b7160e01b600052602160045260246000fd5b8152602001908152602001600020600101838154811061192057634e487b7160e01b600052603260045260246000fd5b6000918252602080832060016004909302019190910192909255338152600e909152604081209084600681111561196757634e487b7160e01b600052602160045260246000fd5b600681111561198657634e487b7160e01b600052602160045260246000fd5b60068111156119a557634e487b7160e01b600052602160045260246000fd5b815260200190815260200160002060010182815481106119d557634e487b7160e01b600052603260045260246000fd5b60009182526020808320600490920290910154338352600e909152604082209091856006811115611a1657634e487b7160e01b600052602160045260246000fd5b6006811115611a3557634e487b7160e01b600052602160045260246000fd5b6006811115611a5457634e487b7160e01b600052602160045260246000fd5b81526020019081526020016000206001018381548110611a8457634e487b7160e01b600052603260045260246000fd5b9060005260206000209060040201600101541415611b2757611aa78260016129b5565b336000908152600e6020526040812090856006811115611ad757634e487b7160e01b600052602160045260246000fd5b6006811115611af657634e487b7160e01b600052602160045260246000fd5b6006811115611b1557634e487b7160e01b600052602160045260246000fd5b81526020810191909152604001600020555b8015611b3a57611b37848261224d565b93505b5080611b4581612a23565b9150506116ff565b5080611b5881612a23565b915050611673565b506002546040516370a0823160e01b815282916001600160a01b0316906370a0823190611b91903090600401612529565b60206040518083038186803b158015611ba957600080fd5b505afa158015611bbd573d6000803e3d6000fd5b505050506040513d601f19601f82011682018060405250810190611be1919061246c565b1015611bff5760405162461bcd60e51b815260040161042590612794565b60025460405163a9059cbb60e01b81526001600160a01b039091169063a9059cbb90611c31903390859060040161257e565b602060405180830381600087803b158015611c4b57600080fd5b505af1158015611c5f573d6000803e3d6000fd5b505050506040513d601f19601f82011682018060405250810190611c839190612450565b50336001600160a01b03167fb578364c426df8997eccfe4dacffc3f4c871ca3996054b3c64127b88b1c92bac82604051611cbd919061299e565b60405180910390a25060018055565b60026001541415611cef5760405162461bcd60e51b815260040161042590612942565b600260015533600090815260066020819052604082209082908590811115611d2757634e487b7160e01b600052602160045260246000fd5b6006811115611d4657634e487b7160e01b600052602160045260246000fd5b8152602001908152602001600020549050600084118015611d675750838110155b611d835760405162461bcd60e51b815260040161042590612891565b816006811115611da357634e487b7160e01b600052602160045260246000fd5b836006811115611dc357634e487b7160e01b600052602160045260246000fd5b10611de05760405162461bcd60e51b8152600401610425906128c1565b3360009081526006602081905260408220611e16928792879081111561104557634e487b7160e01b600052602160045260246000fd5b336000908152600660208190526040822091908690811115611e4857634e487b7160e01b600052602160045260246000fd5b6006811115611e6757634e487b7160e01b600052602160045260246000fd5b815260200190815260200160002081905550611ec48460066000336001600160a01b03166001600160a01b03168152602001908152602001600020600085600681111561067657634e487b7160e01b600052602160045260246000fd5b336000908152600660208190526040822091908590811115611ef657634e487b7160e01b600052602160045260246000fd5b6006811115611f1557634e487b7160e01b600052602160045260246000fd5b8152602001908152602001600020819055506000611fc0611fb96007866006811115611f5157634e487b7160e01b600052602160045260246000fd5b60078110611f6f57634e487b7160e01b600052603260045260246000fd5b01546007866006811115611f9357634e487b7160e01b600052602160045260246000fd5b60078110611fb157634e487b7160e01b600052603260045260246000fd5b015490612241565b8690612259565b33600090815260056020526040902054909150611fdd908261224d565b33600090815260056020526040902055600454611ffa908261224d565b60045560405133907f2f971bc8536ce1daf2506d77fe7b09b7c0bdd7b393039285dbba0c4a7e6535219061203390879087908a906125f0565b60405180910390a2505060018055505050565b61204e612265565b6001600160a01b031661205f61124f565b6001600160a01b0316146120855760405162461bcd60e51b81526004016104259061282f565b6001600160a01b0381166120ab5760405162461bcd60e51b815260040161042590612864565b600280546001600160a01b038381166001600160a01b03198316179283905560405191811692169082907fd92bf222094101f3287808fc65a0312c44076c93bcd96d1c2f5ab6ebb14ae17890600090a35050565b600781565b61210c612265565b6001600160a01b031661211d61124f565b6001600160a01b0316146121435760405162461bcd60e51b81526004016104259061282f565b6001600160a01b0382166121695760405162461bcd60e51b8152600401610425906126b6565b6001600160a01b0382166000818152600f602052604090819020805460ff1916841515179055517ff1d497700239c46c020ff28b5d2fccbab95001d62879bafbc628b56347d34107906121bd9084906125e5565b60405180910390a25050565b6121d1612265565b6001600160a01b03166121e261124f565b6001600160a01b0316146122085760405162461bcd60e51b81526004016104259061282f565b6001600160a01b03811661222e5760405162461bcd60e51b8152600401610425906126e0565b61223781612269565b50565b62093a8081565b6000610a128284612a0c565b6000610a1282846129b5565b6000610a1282846129ed565b3390565b600080546001600160a01b038381166001600160a01b0319831681178455604051919092169283917f8be0079c531659141344cd1fd0a4f28419497f9722a3daafe3b4186f6b6457e09190a35050565b6000610a1282846129cd565b6000816060015142106122e957602082015182516122e291612241565b9050610d21565b61092c826020015161233761230f8560400151866060015161224190919063ffffffff16565b61233161232987604001514261224190919063ffffffff16565b875190612259565b906122b9565b90612241565b6040518060800160405280600081526020016000815260200160008152602001600081525090565b604051806040016040528060008152602001600081525090565b80356001600160a01b0381168114610d2157600080fd5b803560078110610d2157600080fd5b6000602082840312156123b6578081fd5b610a128261237f565b600080604083850312156123d1578081fd5b6123da8361237f565b915060208301356123ea81612a54565b809150509250929050565b60008060408385031215612407578182fd5b6124108361237f565b915061241e60208401612396565b90509250929050565b60008060408385031215612439578182fd5b6124428361237f565b946020939093013593505050565b600060208284031215612461578081fd5b8151610a1281612a54565b60006020828403121561247d578081fd5b5051919050565b60008060408385031215612496578182fd5b8235915061241e60208401612396565b6000806000606084860312156124ba578081fd5b833592506124ca60208501612396565b91506124d860408501612396565b90509250925092565b600781106124ff57634e487b7160e01b600052602160045260246000fd5b9052565b805182526020810151602083015260408101516040830152606081015160608301525050565b6001600160a01b0391909116815260200190565b6001600160a01b039384168152919092166020820152604081019190915260600190565b6001600160a01b038316815260408101610a1260208301846124e1565b6001600160a01b03929092168252602082015260400190565b6020808252825182820181905260009190848201906040850190845b818110156125d9576125c6838551612503565b92840192608092909201916001016125b3565b50909695505050505050565b901515815260200190565b606081016125fe82866124e1565b61260b60208301856124e1565b826040830152949350505050565b6040810161262782856124e1565b8260208301529392505050565b6000602080835283518082850152825b8181101561266057858101830151858201604001528201612644565b818111156126715783604083870101525b50601f01601f1916929092016040019392505050565b602080825260159082015274125b9cdd59999a58da595b9d08199c995948139555605a1b604082015260600190565b60208082526010908201526f496e76616c696465206164647265737360801b604082015260600190565b60208082526026908201527f4f776e61626c653a206e6577206f776e657220697320746865207a65726f206160408201526564647265737360d01b606082015260800190565b6020808252601a908201527f41646472657373206973206e6f742077686974656c6973746564000000000000604082015260600190565b60208082526019908201527f496e636566696369656e7420706f77657220746f206c6f636b00000000000000604082015260600190565b6020808252601a908201527f496e636566696369656e742062616c616e6365206f66204e5554000000000000604082015260600190565b6020808252601b908201527f496e636566696369656e7420706f77657220746f20756e6c6f636b0000000000604082015260600190565b602080825260139082015272125b9d985b1a59081b1bd8dac8185b5bdd5b9d606a1b604082015260600190565b6020808252818101527f4f776e61626c653a2063616c6c6572206973206e6f7420746865206f776e6572604082015260600190565b602080825260139082015272496e76616c6964206e7574206164647265737360681b604082015260600190565b602080825260169082015275125b9d985b1a59081d5c19dc98591948185b5bdd5b9d60521b604082015260600190565b6020808252600e908201526d125b9d985b1a59081c195c9a5bd960921b604082015260600190565b6020808252601490820152730496e73756666696369656e742066726565204e560641b604082015260600190565b6020808252601190820152700496e76616c696420756e6c6f636b204e5607c1b604082015260600190565b6020808252601f908201527f5265656e7472616e637947756172643a207265656e7472616e742063616c6c00604082015260600190565b815181526020918201519181019190915260400190565b6080810161092c8284612503565b90815260200190565b60ff91909116815260200190565b600082198211156129c8576129c8612a3e565b500190565b6000826129e857634e487b7160e01b81526012600452602481fd5b500490565b6000816000190483118215151615612a0757612a07612a3e565b500290565b600082821015612a1e57612a1e612a3e565b500390565b6000600019821415612a3757612a37612a3e565b5060010190565b634e487b7160e01b600052601160045260246000fd5b801515811461223757600080fdfea2646970667358221220de190e64005e3890935922f70d8c0586b5fff556eb4c07b579ac049620e03a7a64736f6c63430008000033",
  "immutableReferences": {},
  "source": "//SPDX-License-Identifier: Unlicense\npragma solidity 0.8.0;\npragma experimental ABIEncoderV2;\n\nimport \"@openzeppelin/contracts/utils/math/SafeMath.sol\";\nimport \"@openzeppelin/contracts/access/Ownable.sol\";\nimport \"@openzeppelin/contracts/token/ERC20/IERC20.sol\";\nimport \"@openzeppelin/contracts/security/ReentrancyGuard.sol\";\n\ncontract NutPower is Ownable, ReentrancyGuard {\n    using SafeMath for uint256;\n\n    uint256 constant public WEEK = 604800;\n    uint256 constant public PERIOD_COUNT = 7;\n\n    enum Period {\n        W1,\n        W2,\n        W4,\n        W8,\n        W16,\n        W32,\n        W64\n    }\n\n    struct RedeemRequest {\n        uint256 nutAmount;\n        uint256 claimed;\n        uint256 startTime;\n        uint256 endTime;\n    }\n\n    struct RequestsOfPeriod {\n        uint256 index;\n        RedeemRequest[] queue;\n    }\n\n    struct PowerInfo {\n        // Amount of NP can be power down\n        uint256 free;\n        // Amount of NP has been locked, e.g. staked\n        uint256 locked;\n    }\n\n    address public nut;\n    // total locked nut\n    uint256 public totalLockedNut;\n    // total NP\n    uint256 public totalSupply;\n\n    mapping (address => PowerInfo) private powers;\n    mapping (address => mapping (Period => uint256)) private depositInfos;\n    uint256[7] private multipier = [1, 2, 4, 8, 16, 32, 64];\n    mapping (address => mapping (Period => RequestsOfPeriod)) private requests;\n    mapping (address => bool) public whitelists;\n\n    event AdminChangeNut(address indexed oldNut, address indexed newNut);\n    event AdminSetWhiteList(address indexed who, bool tag);\n\n    event PowerUp(address indexed who, Period period, uint256 amount);\n    event PowerDown(address indexed who, Period period, uint256 amount);\n    event Upgrade(address indexed who, Period src, Period dest, uint256 amount);\n    event Redeemd(address indexed who, uint256 amount);\n\n    modifier onlyWhitelist {\n        require(whitelists[msg.sender], \"Address is not whitelisted\");\n        _;\n    }\n\n    constructor(address _nut) {\n        require(_nut != address(0), \"Invalid nut address\");\n        nut = _nut;\n    }\n\n    function adminSetNut(address _nut) external onlyOwner {\n        require(_nut != address(0), \"Invalid nut address\");\n        address oldNut = nut;\n        nut = _nut;\n        emit AdminChangeNut(oldNut, nut);\n    }\n\n    function adminSetWhitelist(address _who, bool _tag) external onlyOwner {\n        require(_who != address(0), \"Invalide address\");\n        whitelists[_who] = _tag;\n        emit AdminSetWhiteList(_who, _tag);\n    }\n\n    function powerUp(uint256 _nutAmount, Period _period) external nonReentrant {\n        require(_nutAmount > 0, \"Invalid lock amount\");\n        IERC20(nut).transferFrom(msg.sender, address(this), _nutAmount);\n        uint256 issuedNp = _nutAmount.mul(multipier[uint256(_period)]);\n        // NUT is locked\n        totalLockedNut = totalLockedNut.add(_nutAmount);\n        totalSupply = totalSupply.add(issuedNp);\n        powers[msg.sender].free = powers[msg.sender].free.add(issuedNp);\n        depositInfos[msg.sender][_period] = depositInfos[msg.sender][_period].add(_nutAmount);\n\n        emit PowerUp(msg.sender, _period, _nutAmount);\n    }\n\n    function powerDown(uint256 _npAmount, Period _period) external nonReentrant {\n        uint256 downNut = _npAmount.div(multipier[uint256(_period)]);\n        require(_npAmount > 0, \"Invalid unlock NP\");\n        require(depositInfos[msg.sender][_period] >= downNut, \"Insufficient free NUT\");\n        require(powers[msg.sender].free >= _npAmount, \"Insufficient free NP\");\n\n        powers[msg.sender].free = powers[msg.sender].free.sub(_npAmount);\n        depositInfos[msg.sender][_period] = depositInfos[msg.sender][_period].sub(downNut);\n        // Add to redeem request queue\n        requests[msg.sender][_period].queue.push(RedeemRequest ({\n            nutAmount: downNut,\n            claimed: 0,\n            startTime: block.timestamp,\n            endTime: block.timestamp.add(WEEK.mul(multipier[uint256(_period)]))\n        }));\n        totalLockedNut = totalLockedNut.sub(downNut);\n        totalSupply = totalSupply.sub(_npAmount);\n        emit PowerDown(msg.sender, _period, _npAmount);\n    }\n\n    function upgrade(uint256 _nutAmount, Period _src, Period _dest) external nonReentrant {\n        uint256 srcLockedAmount = depositInfos[msg.sender][_src];\n        require(_nutAmount > 0 && srcLockedAmount >= _nutAmount, \"Invalid upgrade amount\");\n        require(uint256(_src) < uint256(_dest), 'Invalid period');\n\n        depositInfos[msg.sender][_src] = depositInfos[msg.sender][_src].sub(_nutAmount);\n        depositInfos[msg.sender][_dest] = depositInfos[msg.sender][_dest].add(_nutAmount);\n        uint256 issuedNp = _nutAmount.mul(\n                multipier[uint256(_dest)].sub(multipier[uint256(_src)])\n            );\n        powers[msg.sender].free = powers[msg.sender].free.add(issuedNp);\n        totalSupply = totalSupply.add(issuedNp);\n\n        emit Upgrade(msg.sender, _src, _dest, _nutAmount);\n    }\n\n    function redeem() external nonReentrant {\n        uint256 avaliableRedeemNut = 0;\n        for (uint256 period = 0; period < PERIOD_COUNT; period++) {\n            for (uint256 idx = requests[msg.sender][Period(period)].index; idx < requests[msg.sender][Period(period)].queue.length; idx++) {\n                uint256 claimable = _claimableNutOfRequest(requests[msg.sender][Period(period)].queue[idx]);\n                requests[msg.sender][Period(period)].queue[idx].claimed = requests[msg.sender][Period(period)].queue[idx].claimed.add(claimable);\n                // Ignore requests that has already claimed completely next time.\n                if (requests[msg.sender][Period(period)].queue[idx].claimed == requests[msg.sender][Period(period)].queue[idx].nutAmount) {\n                    requests[msg.sender][Period(period)].index = idx + 1;\n                }\n\n                if (claimable > 0) {\n                    avaliableRedeemNut = avaliableRedeemNut.add(claimable);\n                }\n            }\n        }\n\n        require(IERC20(nut).balanceOf(address(this)) >= avaliableRedeemNut, \"Inceficient balance of NUT\");\n        IERC20(nut).transfer(msg.sender, avaliableRedeemNut);\n        emit Redeemd(msg.sender, avaliableRedeemNut);\n    }\n\n    function lock(address _who, uint256 _npAmount) external onlyWhitelist {\n        require(powers[_who].free >= _npAmount, \"Inceficient power to lock\");\n        powers[_who].free = powers[_who].free.sub(_npAmount);\n        powers[_who].locked = powers[_who].locked.add(_npAmount);\n    }\n\n    function unlock(address _who, uint256 _npAmount) external onlyWhitelist {\n        require(powers[_who].locked >= _npAmount, \"Inceficient power to unlock\");\n        powers[_who].free = powers[_who].free.add(_npAmount);\n        powers[_who].locked = powers[_who].locked.sub(_npAmount);\n    }\n\n    function name() external pure returns (string memory)  {\n        return \"Nut Power\";\n    }\n\n    function symbol() external pure returns (string memory) {\n        return \"NP\";\n    }\n\n    function decimals() external pure returns (uint8) {\n        return 18;\n    }\n\n    function balanceOf(address account) external view returns (PowerInfo memory) {\n        return powers[account];\n    }\n\n    function redeemRequestCountOfPeriod(address _who, Period _period) external view returns (uint256 len) {\n        len = requests[_who][_period].queue.length - requests[_who][_period].index;\n    }\n\n    function redeemRequestsOfPeriod(address _who, Period _period) external view returns (RedeemRequest[] memory reqs) {\n        reqs = new RedeemRequest[](this.redeemRequestCountOfPeriod(_who, _period));\n        for (uint i = requests[_who][_period].index; i < requests[_who][_period].queue.length; i++) {\n            RedeemRequest storage req = requests[_who][_period].queue[i];\n            reqs[i] = req;\n        }\n    }\n\n    function firstRedeemRequest(address _who, Period _period) external view returns (RedeemRequest memory req) {\n        if (requests[_who][_period].queue.length > 0) {\n            req = requests[_who][_period].queue[requests[_who][_period].index];\n        }\n    }\n\n    function lastRedeemRequest(address _who, Period _period) external view returns (RedeemRequest memory req) {\n        if (requests[_who][_period].queue.length > 0) {\n            req = requests[_who][_period].queue[requests[_who][_period].queue.length - 1];\n        }\n    }\n\n    function claimableNut(address _who) external view returns (uint256 amount) {\n        for (uint256 period = 0; period < PERIOD_COUNT; period++) {\n            for (uint256 idx = requests[_who][Period(period)].index; idx < requests[_who][Period(period)].queue.length; idx++) {\n                amount = amount.add(_claimableNutOfRequest(requests[_who][Period(period)].queue[idx]));\n            }\n        }\n    }\n\n    function lockedNutOfPeriod(address _who, Period _period) external view returns (uint256) {\n        return depositInfos[_who][_period];\n    }\n\n    function _claimableNutOfRequest(RedeemRequest memory _req) private view returns (uint256 amount) {\n        if (block.timestamp >= _req.endTime) {\n            amount = _req.nutAmount.sub(_req.claimed);\n        } else {\n            amount = _req.nutAmount\n                    .mul(block.timestamp.sub(_req.startTime))\n                    .div(_req.endTime.sub(_req.startTime))\n                    .sub(_req.claimed);\n        }\n    }\n}",
  "sourcePath": "/Users/necklace/work/nutbox/nutbox-contract/contracts/NutPower.sol",
  "compiler": {
    "name": "solc",
    "version": "0.8.0+commit.c7dfd78e.Emscripten.clang"
  },
  "schemaVersion": "3.4.11",
  "updatedAt": "2022-12-27T12:17:35.136Z",
  "devdoc": {
    "kind": "dev",
    "methods": {
      "owner()": {
        "details": "Returns the address of the current owner."
      },
      "renounceOwnership()": {
        "details": "Leaves the contract without owner. It will not be possible to call `onlyOwner` functions anymore. Can only be called by the current owner. NOTE: Renouncing ownership will leave the contract without an owner, thereby removing any functionality that is only available to the owner."
      },
      "transferOwnership(address)": {
        "details": "Transfers ownership of the contract to a new account (`newOwner`). Can only be called by the current owner."
      }
    },
    "version": 1
  },
  "userdoc": {
    "kind": "user",
    "methods": {},
    "version": 1
  }
}