{
  "contractName": "NUTToken",
  "abi": [
    {
      "inputs": [
        {
          "internalType": "string",
          "name": "name",
          "type": "string"
        },
        {
          "internalType": "string",
          "name": "symbol",
          "type": "string"
        },
        {
          "internalType": "uint256",
          "name": "initialSupply",
          "type": "uint256"
        },
        {
          "internalType": "address",
          "name": "owner",
          "type": "address"
        }
      ],
      "stateMutability": "nonpayable",
      "type": "constructor"
    },
    {
      "anonymous": false,
      "inputs": [
        {
          "indexed": true,
          "internalType": "address",
          "name": "owner",
          "type": "address"
        },
        {
          "indexed": true,
          "internalType": "address",
          "name": "spender",
          "type": "address"
        },
        {
          "indexed": false,
          "internalType": "uint256",
          "name": "value",
          "type": "uint256"
        }
      ],
      "name": "Approval",
      "type": "event"
    },
    {
      "anonymous": false,
      "inputs": [],
      "name": "DisableTransfer",
      "type": "event"
    },
    {
      "anonymous": false,
      "inputs": [],
      "name": "EnableTransfer",
      "type": "event"
    },
    {
      "anonymous": false,
      "inputs": [
        {
          "indexed": true,
          "internalType": "address",
          "name": "previousOwner",
          "type": "address"
        },
        {
          "indexed": true,
          "internalType": "address",
          "name": "newOwner",
          "type": "address"
        }
      ],
      "name": "OwnershipTransferred",
      "type": "event"
    },
    {
      "anonymous": false,
      "inputs": [
        {
          "indexed": true,
          "internalType": "address",
          "name": "contractAddress",
          "type": "address"
        }
      ],
      "name": "RemoveWhiteList",
      "type": "event"
    },
    {
      "anonymous": false,
      "inputs": [
        {
          "indexed": true,
          "internalType": "bytes32",
          "name": "role",
          "type": "bytes32"
        },
        {
          "indexed": true,
          "internalType": "bytes32",
          "name": "previousAdminRole",
          "type": "bytes32"
        },
        {
          "indexed": true,
          "internalType": "bytes32",
          "name": "newAdminRole",
          "type": "bytes32"
        }
      ],
      "name": "RoleAdminChanged",
      "type": "event"
    },
    {
      "anonymous": false,
      "inputs": [
        {
          "indexed": true,
          "internalType": "bytes32",
          "name": "role",
          "type": "bytes32"
        },
        {
          "indexed": true,
          "internalType": "address",
          "name": "account",
          "type": "address"
        },
        {
          "indexed": true,
          "internalType": "address",
          "name": "sender",
          "type": "address"
        }
      ],
      "name": "RoleGranted",
      "type": "event"
    },
    {
      "anonymous": false,
      "inputs": [
        {
          "indexed": true,
          "internalType": "bytes32",
          "name": "role",
          "type": "bytes32"
        },
        {
          "indexed": true,
          "internalType": "address",
          "name": "account",
          "type": "address"
        },
        {
          "indexed": true,
          "internalType": "address",
          "name": "sender",
          "type": "address"
        }
      ],
      "name": "RoleRevoked",
      "type": "event"
    },
    {
      "anonymous": false,
      "inputs": [
        {
          "indexed": true,
          "internalType": "address",
          "name": "contractAddress",
          "type": "address"
        }
      ],
      "name": "SetWhiteList",
      "type": "event"
    },
    {
      "anonymous": false,
      "inputs": [
        {
          "indexed": true,
          "internalType": "address",
          "name": "from",
          "type": "address"
        },
        {
          "indexed": true,
          "internalType": "address",
          "name": "to",
          "type": "address"
        },
        {
          "indexed": false,
          "internalType": "uint256",
          "name": "value",
          "type": "uint256"
        }
      ],
      "name": "Transfer",
      "type": "event"
    },
    {
      "inputs": [],
      "name": "DEFAULT_ADMIN_ROLE",
      "outputs": [
        {
          "internalType": "bytes32",
          "name": "",
          "type": "bytes32"
        }
      ],
      "stateMutability": "view",
      "type": "function"
    },
    {
      "inputs": [],
      "name": "MINTER_ROLE",
      "outputs": [
        {
          "internalType": "bytes32",
          "name": "",
          "type": "bytes32"
        }
      ],
      "stateMutability": "view",
      "type": "function"
    },
    {
      "inputs": [
        {
          "internalType": "address",
          "name": "owner",
          "type": "address"
        },
        {
          "internalType": "address",
          "name": "spender",
          "type": "address"
        }
      ],
      "name": "allowance",
      "outputs": [
        {
          "internalType": "uint256",
          "name": "",
          "type": "uint256"
        }
      ],
      "stateMutability": "view",
      "type": "function"
    },
    {
      "inputs": [
        {
          "internalType": "address",
          "name": "spender",
          "type": "address"
        },
        {
          "internalType": "uint256",
          "name": "amount",
          "type": "uint256"
        }
      ],
      "name": "approve",
      "outputs": [
        {
          "internalType": "bool",
          "name": "",
          "type": "bool"
        }
      ],
      "stateMutability": "nonpayable",
      "type": "function"
    },
    {
      "inputs": [
        {
          "internalType": "address",
          "name": "account",
          "type": "address"
        }
      ],
      "name": "balanceOf",
      "outputs": [
        {
          "internalType": "uint256",
          "name": "",
          "type": "uint256"
        }
      ],
      "stateMutability": "view",
      "type": "function"
    },
    {
      "inputs": [
        {
          "internalType": "uint256",
          "name": "amount",
          "type": "uint256"
        }
      ],
      "name": "burn",
      "outputs": [],
      "stateMutability": "nonpayable",
      "type": "function"
    },
    {
      "inputs": [
        {
          "internalType": "address",
          "name": "account",
          "type": "address"
        },
        {
          "internalType": "uint256",
          "name": "amount",
          "type": "uint256"
        }
      ],
      "name": "burnFrom",
      "outputs": [],
      "stateMutability": "nonpayable",
      "type": "function"
    },
    {
      "inputs": [],
      "name": "decimals",
      "outputs": [
        {
          "internalType": "uint8",
          "name": "",
          "type": "uint8"
        }
      ],
      "stateMutability": "view",
      "type": "function"
    },
    {
      "inputs": [
        {
          "internalType": "address",
          "name": "spender",
          "type": "address"
        },
        {
          "internalType": "uint256",
          "name": "subtractedValue",
          "type": "uint256"
        }
      ],
      "name": "decreaseAllowance",
      "outputs": [
        {
          "internalType": "bool",
          "name": "",
          "type": "bool"
        }
      ],
      "stateMutability": "nonpayable",
      "type": "function"
    },
    {
      "inputs": [
        {
          "internalType": "bytes32",
          "name": "role",
          "type": "bytes32"
        }
      ],
      "name": "getRoleAdmin",
      "outputs": [
        {
          "internalType": "bytes32",
          "name": "",
          "type": "bytes32"
        }
      ],
      "stateMutability": "view",
      "type": "function"
    },
    {
      "inputs": [
        {
          "internalType": "bytes32",
          "name": "role",
          "type": "bytes32"
        },
        {
          "internalType": "uint256",
          "name": "index",
          "type": "uint256"
        }
      ],
      "name": "getRoleMember",
      "outputs": [
        {
          "internalType": "address",
          "name": "",
          "type": "address"
        }
      ],
      "stateMutability": "view",
      "type": "function"
    },
    {
      "inputs": [
        {
          "internalType": "bytes32",
          "name": "role",
          "type": "bytes32"
        }
      ],
      "name": "getRoleMemberCount",
      "outputs": [
        {
          "internalType": "uint256",
          "name": "",
          "type": "uint256"
        }
      ],
      "stateMutability": "view",
      "type": "function"
    },
    {
      "inputs": [
        {
          "internalType": "bytes32",
          "name": "role",
          "type": "bytes32"
        },
        {
          "internalType": "address",
          "name": "account",
          "type": "address"
        }
      ],
      "name": "grantRole",
      "outputs": [],
      "stateMutability": "nonpayable",
      "type": "function"
    },
    {
      "inputs": [
        {
          "internalType": "bytes32",
          "name": "role",
          "type": "bytes32"
        },
        {
          "internalType": "address",
          "name": "account",
          "type": "address"
        }
      ],
      "name": "hasRole",
      "outputs": [
        {
          "internalType": "bool",
          "name": "",
          "type": "bool"
        }
      ],
      "stateMutability": "view",
      "type": "function"
    },
    {
      "inputs": [
        {
          "internalType": "address",
          "name": "spender",
          "type": "address"
        },
        {
          "internalType": "uint256",
          "name": "addedValue",
          "type": "uint256"
        }
      ],
      "name": "increaseAllowance",
      "outputs": [
        {
          "internalType": "bool",
          "name": "",
          "type": "bool"
        }
      ],
      "stateMutability": "nonpayable",
      "type": "function"
    },
    {
      "inputs": [],
      "name": "name",
      "outputs": [
        {
          "internalType": "string",
          "name": "",
          "type": "string"
        }
      ],
      "stateMutability": "view",
      "type": "function"
    },
    {
      "inputs": [],
      "name": "owner",
      "outputs": [
        {
          "internalType": "address",
          "name": "",
          "type": "address"
        }
      ],
      "stateMutability": "view",
      "type": "function"
    },
    {
      "inputs": [],
      "name": "renounceOwnership",
      "outputs": [],
      "stateMutability": "nonpayable",
      "type": "function"
    },
    {
      "inputs": [
        {
          "internalType": "bytes32",
          "name": "role",
          "type": "bytes32"
        },
        {
          "internalType": "address",
          "name": "account",
          "type": "address"
        }
      ],
      "name": "renounceRole",
      "outputs": [],
      "stateMutability": "nonpayable",
      "type": "function"
    },
    {
      "inputs": [
        {
          "internalType": "bytes32",
          "name": "role",
          "type": "bytes32"
        },
        {
          "internalType": "address",
          "name": "account",
          "type": "address"
        }
      ],
      "name": "revokeRole",
      "outputs": [],
      "stateMutability": "nonpayable",
      "type": "function"
    },
    {
      "inputs": [
        {
          "internalType": "bytes4",
          "name": "interfaceId",
          "type": "bytes4"
        }
      ],
      "name": "supportsInterface",
      "outputs": [
        {
          "internalType": "bool",
          "name": "",
          "type": "bool"
        }
      ],
      "stateMutability": "view",
      "type": "function"
    },
    {
      "inputs": [],
      "name": "symbol",
      "outputs": [
        {
          "internalType": "string",
          "name": "",
          "type": "string"
        }
      ],
      "stateMutability": "view",
      "type": "function"
    },
    {
      "inputs": [],
      "name": "totalSupply",
      "outputs": [
        {
          "internalType": "uint256",
          "name": "",
          "type": "uint256"
        }
      ],
      "stateMutability": "view",
      "type": "function"
    },
    {
      "inputs": [
        {
          "internalType": "address",
          "name": "recipient",
          "type": "address"
        },
        {
          "internalType": "uint256",
          "name": "amount",
          "type": "uint256"
        }
      ],
      "name": "transfer",
      "outputs": [
        {
          "internalType": "bool",
          "name": "",
          "type": "bool"
        }
      ],
      "stateMutability": "nonpayable",
      "type": "function"
    },
    {
      "inputs": [
        {
          "internalType": "address",
          "name": "sender",
          "type": "address"
        },
        {
          "internalType": "address",
          "name": "recipient",
          "type": "address"
        },
        {
          "internalType": "uint256",
          "name": "amount",
          "type": "uint256"
        }
      ],
      "name": "transferFrom",
      "outputs": [
        {
          "internalType": "bool",
          "name": "",
          "type": "bool"
        }
      ],
      "stateMutability": "nonpayable",
      "type": "function"
    },
    {
      "inputs": [],
      "name": "transferOpened",
      "outputs": [
        {
          "internalType": "bool",
          "name": "",
          "type": "bool"
        }
      ],
      "stateMutability": "view",
      "type": "function"
    },
    {
      "inputs": [
        {
          "internalType": "address",
          "name": "newOwner",
          "type": "address"
        }
      ],
      "name": "transferOwnership",
      "outputs": [],
      "stateMutability": "nonpayable",
      "type": "function"
    },
    {
      "inputs": [
        {
          "internalType": "address",
          "name": "",
          "type": "address"
        }
      ],
      "name": "whiteList",
      "outputs": [
        {
          "internalType": "bool",
          "name": "",
          "type": "bool"
        }
      ],
      "stateMutability": "view",
      "type": "function"
    },
    {
      "inputs": [
        {
          "internalType": "address",
          "name": "to",
          "type": "address"
        },
        {
          "internalType": "uint256",
          "name": "amount",
          "type": "uint256"
        }
      ],
      "name": "mint",
      "outputs": [],
      "stateMutability": "nonpayable",
      "type": "function"
    },
    {
      "inputs": [
        {
          "internalType": "address",
          "name": "_contract",
          "type": "address"
        }
      ],
      "name": "setWhiteList",
      "outputs": [],
      "stateMutability": "nonpayable",
      "type": "function"
    },
    {
      "inputs": [
        {
          "internalType": "address",
          "name": "_contract",
          "type": "address"
        }
      ],
      "name": "removeWhiteList",
      "outputs": [],
      "stateMutability": "nonpayable",
      "type": "function"
    },
    {
      "inputs": [],
      "name": "enableTransfer",
      "outputs": [],
      "stateMutability": "nonpayable",
      "type": "function"
    },
    {
      "inputs": [],
      "name": "disableTransfer",
      "outputs": [],
      "stateMutability": "nonpayable",
      "type": "function"
    }
  ],
  "bytecode": "0x60806040523480156200001157600080fd5b506040516200257d3803806200257d83398101604081905262000034916200055d565b83836200004a620000446200011f565b62000123565b81516200005f9060069060208501906200040c565b508051620000759060079060208401906200040c565b5050506001600160a01b038116620000c4576040517f08c379a0000000000000000000000000000000000000000000000000000000008152600401620000bb90620005ee565b60405180910390fd5b620000da6000620000d46200011f565b62000173565b620001097f9f2df0fed2c77648de5860a4cc508cd0818c85b8b8a1ab4ceeef8d981c8956a6620000d46200011f565b62000115818362000183565b5050505062000728565b3390565b600080546001600160a01b038381166001600160a01b0319831681178455604051919092169283917f8be0079c531659141344cd1fd0a4f28419497f9722a3daafe3b4186f6b6457e09190a35050565b6200017f828262000272565b5050565b6001600160a01b038216620001c6576040517f08c379a0000000000000000000000000000000000000000000000000000000008152600401620000bb9062000625565b620001d460008383620002b5565b8060056000828254620001e8919062000665565b90915550506001600160a01b038216600090815260036020526040812080548392906200021790849062000665565b90915550506040516001600160a01b038316906000907fddf252ad1be2c89b69c2b068fc378daa952ba7f163c4a11628f55a4df523b3ef906200025c9085906200065c565b60405180910390a36200017f60008383620002b0565b620002898282620002cd60201b62000c0f1760201c565b6000828152600260209081526040909120620002b091839062000c976200035a821b17901c565b505050565b620002b0838383620002b060201b620006aa1760201c565b620002d982826200037a565b6200017f5760008281526001602081815260408084206001600160a01b0386168552909152909120805460ff19169091179055620003166200011f565b6001600160a01b0316816001600160a01b0316837f2f8788117e7eff1d82e926ec794901d17c78024a50270940304540a733656f0d60405160405180910390a45050565b600062000371836001600160a01b038416620003a5565b90505b92915050565b60009182526001602090815260408084206001600160a01b0393909316845291905290205460ff1690565b6000620003b38383620003f4565b620003eb5750815460018181018455600084815260208082209093018490558454848252828601909352604090209190915562000374565b50600062000374565b60009081526001919091016020526040902054151590565b8280546200041a90620006a3565b90600052602060002090601f0160209004810192826200043e576000855562000489565b82601f106200045957805160ff191683800117855562000489565b8280016001018555821562000489579182015b82811115620004895782518255916020019190600101906200046c565b50620004979291506200049b565b5090565b5b808211156200049757600081556001016200049c565b600082601f830112620004c3578081fd5b81516001600160401b0380821115620004e057620004e0620006f9565b6040516020601f8401601f1916820181018381118382101715620005085762000508620006f9565b60405283825285840181018710156200051f578485fd5b8492505b8383101562000542578583018101518284018201529182019162000523565b838311156200055357848185840101525b5095945050505050565b6000806000806080858703121562000573578384fd5b84516001600160401b03808211156200058a578586fd5b6200059888838901620004b2565b95506020870151915080821115620005ae578485fd5b50620005bd87828801620004b2565b60408701516060880151919550935090506001600160a01b0381168114620005e3578182fd5b939692955090935050565b60208082526019908201527f5265636569766520616464726573732063616e74206265203000000000000000604082015260600190565b6020808252601f908201527f45524332303a206d696e7420746f20746865207a65726f206164647265737300604082015260600190565b90815260200190565b600082198211156200069e577f4e487b710000000000000000000000000000000000000000000000000000000081526011600452602481fd5b500190565b600281046001821680620006b857607f821691505b60208210811415620006f3577f4e487b7100000000000000000000000000000000000000000000000000000000600052602260045260246000fd5b50919050565b7f4e487b7100000000000000000000000000000000000000000000000000000000600052604160045260246000fd5b611e4580620007386000396000f3fe608060405234801561001057600080fd5b50600436106101fb5760003560e01c806370a082311161011a578063a457c2d7116100ad578063d53913931161007c578063d5391393146103fd578063d547741f14610405578063dd62ed3e14610418578063f1b50c1d1461042b578063f2fde38b14610433576101fb565b8063a457c2d7146103bc578063a9059cbb146103cf578063b187984f146103e2578063ca15c873146103ea576101fb565b80639010d07c116100e95780639010d07c1461038657806391d148541461039957806395d89b41146103ac578063a217fddf146103b4576101fb565b806370a0823114610343578063715018a61461035657806379cc67901461035e5780638da5cb5b14610371576101fb565b8063313ce5671161019257806339e899ee1161016157806339e899ee146103025780633a1302c31461031557806340c10f191461031d57806342966c6814610330576101fb565b8063313ce567146102b457806336568abe146102c9578063372c12b1146102dc57806339509351146102ef576101fb565b80632042e5c2116101ce5780632042e5c21461026657806323b872dd1461027b578063248a9ca31461028e5780632f2ff15d146102a1576101fb565b806301ffc9a71461020057806306fdde0314610229578063095ea7b31461023e57806318160ddd14610251575b600080fd5b61021361020e36600461175f565b610446565b6040516102209190611810565b60405180910390f35b610231610473565b6040516102209190611824565b61021361024c3660046116db565b610505565b610259610523565b604051610220919061181b565b610279610274366004611654565b610529565b005b6102136102893660046116a0565b6105e0565b61025961029c366004611704565b610670565b6102796102af36600461171c565b610686565b6102bc6106af565b6040516102209190611d1f565b6102796102d736600461171c565b6106b4565b6102136102ea366004611654565b6106fa565b6102136102fd3660046116db565b61070f565b610279610310366004611654565b610763565b610213610814565b61027961032b3660046116db565b61081d565b61027961033e366004611704565b61086f565b610259610351366004611654565b610883565b61027961089e565b61027961036c3660046116db565b6108e9565b610379610937565b60405161022091906117fc565b61037961039436600461173e565b610946565b6102136103a736600461171c565b610965565b610231610990565b61025961099f565b6102136103ca3660046116db565b6109a4565b6102136103dd3660046116db565b610a1d565b610279610a31565b6102596103f8366004611704565b610aa5565b610259610abc565b61027961041336600461171c565b610ae0565b61025961042636600461166e565b610aff565b610279610b2a565b610279610441366004611654565b610ba1565b60006001600160e01b03198216635a05180f60e01b148061046b575061046b82610cac565b90505b919050565b60606006805461048290611dbe565b80601f01602080910402602001604051908101604052809291908181526020018280546104ae90611dbe565b80156104fb5780601f106104d0576101008083540402835291602001916104fb565b820191906000526020600020905b8154815290600101906020018083116104de57829003601f168201915b5050505050905090565b6000610519610512610cd1565b8484610cd5565b5060015b92915050565b60055490565b610531610cd1565b6001600160a01b0316610542610937565b6001600160a01b0316146105715760405162461bcd60e51b815260040161056890611a5e565b60405180910390fd5b6001600160a01b0381166105975760405162461bcd60e51b8152600401610568906119df565b6001600160a01b038116600081815260086020526040808220805460ff19169055517f1e17ee0599b7c09bb1d0ff1e8086007909da8bfba5c7d18319cb558e66db37ee9190a250565b60006105ed848484610d89565b6001600160a01b03841660009081526004602052604081208161060e610cd1565b6001600160a01b03166001600160a01b03168152602001908152602001600020549050828110156106515760405162461bcd60e51b815260040161056890611a16565b6106658561065d610cd1565b858403610cd5565b506001949350505050565b6000908152600160208190526040909120015490565b61068f82610670565b6106a08161069b610cd1565b610e20565b6106aa8383610e84565b505050565b601290565b6106bc610cd1565b6001600160a01b0316816001600160a01b0316146106ec5760405162461bcd60e51b815260040161056890611c99565b6106f68282610ea6565b5050565b60086020526000908152604090205460ff1681565b600061051961071c610cd1565b84846004600061072a610cd1565b6001600160a01b03908116825260208083019390935260409182016000908120918b168152925290205461075e9190611d2d565b610cd5565b61076b610cd1565b6001600160a01b031661077c610937565b6001600160a01b0316146107a25760405162461bcd60e51b815260040161056890611a5e565b6001600160a01b0381166107c85760405162461bcd60e51b8152600401610568906119df565b6001600160a01b038116600081815260086020526040808220805460ff19166001179055517f3990e3e141b903f4f5602428874be692206642a653b416f336d965e2f04813ce9190a250565b60095460ff1681565b6108497f9f2df0fed2c77648de5860a4cc508cd0818c85b8b8a1ab4ceeef8d981c8956a66103a7610cd1565b6108655760405162461bcd60e51b815260040161056890611a93565b6106f68282610ec8565b61088061087a610cd1565b82610f90565b50565b6001600160a01b031660009081526003602052604090205490565b6108a6610cd1565b6001600160a01b03166108b7610937565b6001600160a01b0316146108dd5760405162461bcd60e51b815260040161056890611a5e565b6108e76000611081565b565b60006108f783610426610cd1565b9050818110156109195760405162461bcd60e51b815260040161056890611ae9565b61092d83610925610cd1565b848403610cd5565b6106aa8383610f90565b6000546001600160a01b031690565b600082815260026020526040812061095e90836110d1565b9392505050565b60009182526001602090815260408084206001600160a01b0393909316845291905290205460ff1690565b60606007805461048290611dbe565b600081565b600080600460006109b3610cd1565b6001600160a01b03908116825260208083019390935260409182016000908120918816815292529020549050828110156109ff5760405162461bcd60e51b815260040161056890611c54565b610a13610a0a610cd1565b85858403610cd5565b5060019392505050565b6000610519610a2a610cd1565b8484610d89565b610a39610cd1565b6001600160a01b0316610a4a610937565b6001600160a01b031614610a705760405162461bcd60e51b815260040161056890611a5e565b6009805460ff191690556040517fb5268fa45a1d68f6e477c989133949190a0b45c510dc9ba635e824dd172eecb490600090a1565b600081815260026020526040812061046b906110dd565b7f9f2df0fed2c77648de5860a4cc508cd0818c85b8b8a1ab4ceeef8d981c8956a681565b610ae982610670565b610af58161069b610cd1565b6106aa8383610ea6565b6001600160a01b03918216600090815260046020908152604080832093909416825291909152205490565b610b32610cd1565b6001600160a01b0316610b43610937565b6001600160a01b031614610b695760405162461bcd60e51b815260040161056890611a5e565b6009805460ff191660011790556040517faf7d697ef0ba633b3eae6ce87f1d049667fd2e034bfa7f83c89314a9592827e090600090a1565b610ba9610cd1565b6001600160a01b0316610bba610937565b6001600160a01b031614610be05760405162461bcd60e51b815260040161056890611a5e565b6001600160a01b038116610c065760405162461bcd60e51b815260040161056890611911565b61088081611081565b610c198282610965565b6106f65760008281526001602081815260408084206001600160a01b0386168552909152909120805460ff19169091179055610c53610cd1565b6001600160a01b0316816001600160a01b0316837f2f8788117e7eff1d82e926ec794901d17c78024a50270940304540a733656f0d60405160405180910390a45050565b600061095e836001600160a01b0384166110e8565b60006001600160e01b03198216637965db0b60e01b148061046b575061046b82611132565b3390565b6001600160a01b038316610cfb5760405162461bcd60e51b815260040161056890611bb3565b6001600160a01b038216610d215760405162461bcd60e51b815260040161056890611957565b6001600160a01b0380841660008181526004602090815260408083209487168084529490915290819020849055517f8c5be1e5ebec7d5bd14f71427d1e84f3dd0314c0f7b2291e5b200ac8c7c3b92590610d7c90859061181b565b60405180910390a3505050565b60095460ff16158015610db55750610d9f610937565b6001600160a01b0316336001600160a01b031614155b15610e15576001600160a01b03821660009081526008602052604090205460ff1680610df957506001600160a01b03831660009081526008602052604090205460ff165b610e155760405162461bcd60e51b815260040161056890611bf7565b6106aa83838361114b565b610e2a8282610965565b6106f657610e42816001600160a01b03166014611275565b610e4d836020611275565b604051602001610e5e929190611787565b60408051601f198184030181529082905262461bcd60e51b825261056891600401611824565b610e8e8282610c0f565b60008281526002602052604090206106aa9082610c97565b610eb08282611427565b60008281526002602052604090206106aa90826114ac565b6001600160a01b038216610eee5760405162461bcd60e51b815260040161056890611ce8565b610efa600083836114c1565b8060056000828254610f0c9190611d2d565b90915550506001600160a01b03821660009081526003602052604081208054839290610f39908490611d2d565b90915550506040516001600160a01b038316906000907fddf252ad1be2c89b69c2b068fc378daa952ba7f163c4a11628f55a4df523b3ef90610f7c90859061181b565b60405180910390a36106f6600083836106aa565b6001600160a01b038216610fb65760405162461bcd60e51b815260040161056890611b2d565b610fc2826000836114c1565b6001600160a01b03821660009081526003602052604090205481811015610ffb5760405162461bcd60e51b8152600401610568906118cf565b6001600160a01b038316600090815260036020526040812083830390556005805484929061102a908490611d64565b90915550506040516000906001600160a01b038516907fddf252ad1be2c89b69c2b068fc378daa952ba7f163c4a11628f55a4df523b3ef9061106d90869061181b565b60405180910390a36106aa836000846106aa565b600080546001600160a01b038381166001600160a01b0319831681178455604051919092169283917f8be0079c531659141344cd1fd0a4f28419497f9722a3daafe3b4186f6b6457e09190a35050565b600061095e83836114cc565b600061046b82611504565b60006110f48383611508565b61112a5750815460018181018455600084815260208082209093018490558454848252828601909352604090209190915561051d565b50600061051d565b6001600160e01b031981166301ffc9a760e01b14919050565b6001600160a01b0383166111715760405162461bcd60e51b815260040161056890611b6e565b6001600160a01b0382166111975760405162461bcd60e51b81526004016105689061188c565b6111a28383836114c1565b6001600160a01b038316600090815260036020526040902054818110156111db5760405162461bcd60e51b815260040161056890611999565b6001600160a01b03808516600090815260036020526040808220858503905591851681529081208054849290611212908490611d2d565b92505081905550826001600160a01b0316846001600160a01b03167fddf252ad1be2c89b69c2b068fc378daa952ba7f163c4a11628f55a4df523b3ef8460405161125c919061181b565b60405180910390a361126f8484846106aa565b50505050565b60606000611284836002611d45565b61128f906002611d2d565b67ffffffffffffffff8111156112b557634e487b7160e01b600052604160045260246000fd5b6040519080825280601f01601f1916602001820160405280156112df576020820181803683370190505b509050600360fc1b8160008151811061130857634e487b7160e01b600052603260045260246000fd5b60200101906001600160f81b031916908160001a905350600f60fb1b8160018151811061134557634e487b7160e01b600052603260045260246000fd5b60200101906001600160f81b031916908160001a9053506000611369846002611d45565b611374906001611d2d565b90505b6001811115611408576f181899199a1a9b1b9c1cb0b131b232b360811b85600f16601081106113b657634e487b7160e01b600052603260045260246000fd5b1a60f81b8282815181106113da57634e487b7160e01b600052603260045260246000fd5b60200101906001600160f81b031916908160001a90535060049490941c9361140181611da7565b9050611377565b50831561095e5760405162461bcd60e51b815260040161056890611857565b6114318282610965565b156106f65760008281526001602090815260408083206001600160a01b03851684529091529020805460ff19169055611468610cd1565b6001600160a01b0316816001600160a01b0316837ff6391f5c32d9c69d2a47ea670b442974b53935d1edc7fd64eb21e047a839171b60405160405180910390a45050565b600061095e836001600160a01b038416611520565b6106aa8383836106aa565b60008260000182815481106114f157634e487b7160e01b600052603260045260246000fd5b9060005260206000200154905092915050565b5490565b60009081526001919091016020526040902054151590565b60008181526001830160205260408120548015611633576000611544600183611d64565b855490915060009061155890600190611d64565b90508181146115d957600086600001828154811061158657634e487b7160e01b600052603260045260246000fd5b90600052602060002001549050808760000184815481106115b757634e487b7160e01b600052603260045260246000fd5b6000918252602080832090910192909255918252600188019052604090208390555b85548690806115f857634e487b7160e01b600052603160045260246000fd5b60019003818190600052602060002001600090559055856001016000868152602001908152602001600020600090556001935050505061051d565b600091505061051d565b80356001600160a01b038116811461046e57600080fd5b600060208284031215611665578081fd5b61095e8261163d565b60008060408385031215611680578081fd5b6116898361163d565b91506116976020840161163d565b90509250929050565b6000806000606084860312156116b4578081fd5b6116bd8461163d565b92506116cb6020850161163d565b9150604084013590509250925092565b600080604083850312156116ed578182fd5b6116f68361163d565b946020939093013593505050565b600060208284031215611715578081fd5b5035919050565b6000806040838503121561172e578182fd5b823591506116976020840161163d565b60008060408385031215611750578182fd5b50508035926020909101359150565b600060208284031215611770578081fd5b81356001600160e01b03198116811461095e578182fd5b60007f416363657373436f6e74726f6c3a206163636f756e7420000000000000000000825283516117bf816017850160208801611d7b565b7001034b99036b4b9b9b4b733903937b6329607d1b60179184019182015283516117f0816028840160208801611d7b565b01602801949350505050565b6001600160a01b0391909116815260200190565b901515815260200190565b90815260200190565b6000602082528251806020840152611843816040850160208701611d7b565b601f01601f19169190910160400192915050565b6020808252818101527f537472696e67733a20686578206c656e67746820696e73756666696369656e74604082015260600190565b60208082526023908201527f45524332303a207472616e7366657220746f20746865207a65726f206164647260408201526265737360e81b606082015260800190565b60208082526022908201527f45524332303a206275726e20616d6f756e7420657863656564732062616c616e604082015261636560f01b606082015260800190565b60208082526026908201527f4f776e61626c653a206e6577206f776e657220697320746865207a65726f206160408201526564647265737360d01b606082015260800190565b60208082526022908201527f45524332303a20617070726f766520746f20746865207a65726f206164647265604082015261737360f01b606082015260800190565b60208082526026908201527f45524332303a207472616e7366657220616d6f756e7420657863656564732062604082015265616c616e636560d01b606082015260800190565b60208082526018908201527f496e76616c696420636f6e747261637420616464726573730000000000000000604082015260600190565b60208082526028908201527f45524332303a207472616e7366657220616d6f756e74206578636565647320616040820152676c6c6f77616e636560c01b606082015260800190565b6020808252818101527f4f776e61626c653a2063616c6c6572206973206e6f7420746865206f776e6572604082015260600190565b60208082526036908201527f45524332305072657365744d696e7465725061757365723a206d7573742068616040820152751d99481b5a5b9d195c881c9bdb19481d1bc81b5a5b9d60521b606082015260800190565b60208082526024908201527f45524332303a206275726e20616d6f756e74206578636565647320616c6c6f77604082015263616e636560e01b606082015260800190565b60208082526021908201527f45524332303a206275726e2066726f6d20746865207a65726f206164647265736040820152607360f81b606082015260800190565b60208082526025908201527f45524332303a207472616e736665722066726f6d20746865207a65726f206164604082015264647265737360d81b606082015260800190565b60208082526024908201527f45524332303a20617070726f76652066726f6d20746865207a65726f206164646040820152637265737360e01b606082015260800190565b60208082526038908201527f5065726d697373696f6e2064656e6965643a2073656e646572206f722072656360408201527f697069656e74206973206e6f74207768697465206c6973740000000000000000606082015260800190565b60208082526025908201527f45524332303a2064656372656173656420616c6c6f77616e63652062656c6f77604082015264207a65726f60d81b606082015260800190565b6020808252602f908201527f416363657373436f6e74726f6c3a2063616e206f6e6c792072656e6f756e636560408201526e103937b632b9903337b91039b2b63360891b606082015260800190565b6020808252601f908201527f45524332303a206d696e7420746f20746865207a65726f206164647265737300604082015260600190565b60ff91909116815260200190565b60008219821115611d4057611d40611df9565b500190565b6000816000190483118215151615611d5f57611d5f611df9565b500290565b600082821015611d7657611d76611df9565b500390565b60005b83811015611d96578181015183820152602001611d7e565b8381111561126f5750506000910152565b600081611db657611db6611df9565b506000190190565b600281046001821680611dd257607f821691505b60208210811415611df357634e487b7160e01b600052602260045260246000fd5b50919050565b634e487b7160e01b600052601160045260246000fdfea2646970667358221220b63a68e3114b0a9c7c57c72fab0a7984cb70025a6126d765bc44eafded8198d164736f6c63430008000033",
  "immutableReferences": {},
  "source": "// SPDX-License-Identifier: MIT\npragma solidity 0.8.0;\n\nimport \"@openzeppelin/contracts/token/ERC20/extensions/ERC20Burnable.sol\";\nimport \"@openzeppelin/contracts/token/ERC20/ERC20.sol\";\nimport \"@openzeppelin/contracts/access/AccessControlEnumerable.sol\";\nimport \"@openzeppelin/contracts/access/Ownable.sol\";\n\ncontract NUTToken is Ownable, AccessControlEnumerable, ERC20Burnable {\n    bytes32 public constant MINTER_ROLE = keccak256(\"MINTER_ROLE\");\n\n    // address => hasWhitelisted\n    mapping (address => bool) public whiteList;\n    bool public transferOpened;\n\n    event SetWhiteList(address indexed contractAddress);\n    event RemoveWhiteList(address indexed contractAddress);\n    event EnableTransfer();\n    event DisableTransfer();\n\n    /**\n     * @dev Grants `DEFAULT_ADMIN_ROLE`, `MINTER_ROLE` and `PAUSER_ROLE` to the\n     * account that deploys the contract.\n     *\n     * See {ERC20-constructor}.\n     */\n    constructor(\n        string memory name, \n        string memory symbol, \n        uint256 initialSupply,\n        address owner\n    ) ERC20(name, symbol) {\n        require(owner != address(0), \"Receive address cant be 0\");\n        _setupRole(DEFAULT_ADMIN_ROLE, _msgSender());\n        _setupRole(MINTER_ROLE, _msgSender());\n        _mint(owner, initialSupply);\n    }\n\n    /**\n     * @dev Creates `amount` new tokens for `to`.\n     *\n     * See {ERC20-_mint}.\n     *\n     * Requirements:\n     *\n     * - the caller must have the `MINTER_ROLE`.\n     */\n    function mint(address to, uint256 amount) external virtual {\n        require(hasRole(MINTER_ROLE, _msgSender()), \"ERC20PresetMinterPauser: must have minter role to mint\");\n        _mint(to, amount);\n    }\n\n    function setWhiteList(address _contract) external onlyOwner {\n        require(_contract != address(0), 'Invalid contract address');\n        whiteList[_contract] = true;\n        emit SetWhiteList(_contract);\n    }\n\n    function removeWhiteList(address _contract) external onlyOwner {\n        require(_contract != address(0), 'Invalid contract address');\n        whiteList[_contract] = false;\n        emit RemoveWhiteList(_contract);\n    }\n\n    function enableTransfer() external onlyOwner {\n        transferOpened = true;\n        emit EnableTransfer();\n    }\n\n    function disableTransfer() external onlyOwner {\n        transferOpened = false;\n        emit DisableTransfer();\n    }\n\n    function _beforeTokenTransfer(\n        address from,\n        address to,\n        uint256 amount\n    ) internal virtual override(ERC20) {\n        super._beforeTokenTransfer(from, to, amount);\n    }\n\n    function _transfer(address sender, address recipient, uint256 amount) internal virtual override {\n        // before NUT enable transfer to public, only owner can make  transfer(for airdrop),\n        // other NUT holders can only transfer to whitlisted recipient(join staking etc.)\n        if (!transferOpened && msg.sender != owner())\n            require(whiteList[recipient] || whiteList[sender], 'Permission denied: sender or recipient is not white list');\n        super._transfer(sender, recipient, amount);\n    }\n}\n",
  "sourcePath": "/Users/wangxi/work/Walnut-V2/nutbox-contract/contracts/NUTToken.sol",
  "compiler": {
    "name": "solc",
    "version": "0.8.0+commit.c7dfd78e.Emscripten.clang"
  },
  "schemaVersion": "3.3.4",
  "updatedAt": "2024-06-20T10:15:12.138Z",
  "devdoc": {
    "kind": "dev",
    "methods": {
      "allowance(address,address)": {
        "details": "See {IERC20-allowance}."
      },
      "approve(address,uint256)": {
        "details": "See {IERC20-approve}. Requirements: - `spender` cannot be the zero address."
      },
      "balanceOf(address)": {
        "details": "See {IERC20-balanceOf}."
      },
      "burn(uint256)": {
        "details": "Destroys `amount` tokens from the caller. See {ERC20-_burn}."
      },
      "burnFrom(address,uint256)": {
        "details": "Destroys `amount` tokens from `account`, deducting from the caller's allowance. See {ERC20-_burn} and {ERC20-allowance}. Requirements: - the caller must have allowance for ``accounts``'s tokens of at least `amount`."
      },
      "constructor": {
        "details": "Grants `DEFAULT_ADMIN_ROLE`, `MINTER_ROLE` and `PAUSER_ROLE` to the account that deploys the contract. See {ERC20-constructor}."
      },
      "decimals()": {
        "details": "Returns the number of decimals used to get its user representation. For example, if `decimals` equals `2`, a balance of `505` tokens should be displayed to a user as `5.05` (`505 / 10 ** 2`). Tokens usually opt for a value of 18, imitating the relationship between Ether and Wei. This is the value {ERC20} uses, unless this function is overridden; NOTE: This information is only used for _display_ purposes: it in no way affects any of the arithmetic of the contract, including {IERC20-balanceOf} and {IERC20-transfer}."
      },
      "decreaseAllowance(address,uint256)": {
        "details": "Atomically decreases the allowance granted to `spender` by the caller. This is an alternative to {approve} that can be used as a mitigation for problems described in {IERC20-approve}. Emits an {Approval} event indicating the updated allowance. Requirements: - `spender` cannot be the zero address. - `spender` must have allowance for the caller of at least `subtractedValue`."
      },
      "getRoleAdmin(bytes32)": {
        "details": "Returns the admin role that controls `role`. See {grantRole} and {revokeRole}. To change a role's admin, use {_setRoleAdmin}."
      },
      "getRoleMember(bytes32,uint256)": {
        "details": "Returns one of the accounts that have `role`. `index` must be a value between 0 and {getRoleMemberCount}, non-inclusive. Role bearers are not sorted in any particular way, and their ordering may change at any point. WARNING: When using {getRoleMember} and {getRoleMemberCount}, make sure you perform all queries on the same block. See the following https://forum.openzeppelin.com/t/iterating-over-elements-on-enumerableset-in-openzeppelin-contracts/2296[forum post] for more information."
      },
      "getRoleMemberCount(bytes32)": {
        "details": "Returns the number of accounts that have `role`. Can be used together with {getRoleMember} to enumerate all bearers of a role."
      },
      "grantRole(bytes32,address)": {
        "details": "Grants `role` to `account`. If `account` had not been already granted `role`, emits a {RoleGranted} event. Requirements: - the caller must have ``role``'s admin role."
      },
      "hasRole(bytes32,address)": {
        "details": "Returns `true` if `account` has been granted `role`."
      },
      "increaseAllowance(address,uint256)": {
        "details": "Atomically increases the allowance granted to `spender` by the caller. This is an alternative to {approve} that can be used as a mitigation for problems described in {IERC20-approve}. Emits an {Approval} event indicating the updated allowance. Requirements: - `spender` cannot be the zero address."
      },
      "mint(address,uint256)": {
        "details": "Creates `amount` new tokens for `to`. See {ERC20-_mint}. Requirements: - the caller must have the `MINTER_ROLE`."
      },
      "name()": {
        "details": "Returns the name of the token."
      },
      "owner()": {
        "details": "Returns the address of the current owner."
      },
      "renounceOwnership()": {
        "details": "Leaves the contract without owner. It will not be possible to call `onlyOwner` functions anymore. Can only be called by the current owner. NOTE: Renouncing ownership will leave the contract without an owner, thereby removing any functionality that is only available to the owner."
      },
      "renounceRole(bytes32,address)": {
        "details": "Revokes `role` from the calling account. Roles are often managed via {grantRole} and {revokeRole}: this function's purpose is to provide a mechanism for accounts to lose their privileges if they are compromised (such as when a trusted device is misplaced). If the calling account had been revoked `role`, emits a {RoleRevoked} event. Requirements: - the caller must be `account`."
      },
      "revokeRole(bytes32,address)": {
        "details": "Revokes `role` from `account`. If `account` had been granted `role`, emits a {RoleRevoked} event. Requirements: - the caller must have ``role``'s admin role."
      },
      "supportsInterface(bytes4)": {
        "details": "See {IERC165-supportsInterface}."
      },
      "symbol()": {
        "details": "Returns the symbol of the token, usually a shorter version of the name."
      },
      "totalSupply()": {
        "details": "See {IERC20-totalSupply}."
      },
      "transfer(address,uint256)": {
        "details": "See {IERC20-transfer}. Requirements: - `recipient` cannot be the zero address. - the caller must have a balance of at least `amount`."
      },
      "transferFrom(address,address,uint256)": {
        "details": "See {IERC20-transferFrom}. Emits an {Approval} event indicating the updated allowance. This is not required by the EIP. See the note at the beginning of {ERC20}. Requirements: - `sender` and `recipient` cannot be the zero address. - `sender` must have a balance of at least `amount`. - the caller must have allowance for ``sender``'s tokens of at least `amount`."
      },
      "transferOwnership(address)": {
        "details": "Transfers ownership of the contract to a new account (`newOwner`). Can only be called by the current owner."
      }
    },
    "version": 1
  },
  "userdoc": {
    "kind": "user",
    "methods": {},
    "version": 1
  }
}