{
  "contractName": "Point",
  "abi": [
    {
      "inputs": [
        {
          "internalType": "string",
          "name": "name",
          "type": "string"
        },
        {
          "internalType": "string",
          "name": "symbol",
          "type": "string"
        },
        {
          "internalType": "uint256",
          "name": "_startTradableTime",
          "type": "uint256"
        },
        {
          "internalType": "uint256",
          "name": "initialSupply",
          "type": "uint256"
        },
        {
          "internalType": "address",
          "name": "owner",
          "type": "address"
        },
        {
          "internalType": "address",
          "name": "communityFactory",
          "type": "address"
        }
      ],
      "stateMutability": "nonpayable",
      "type": "constructor"
    },
    {
      "anonymous": false,
      "inputs": [
        {
          "indexed": true,
          "internalType": "address",
          "name": "owner",
          "type": "address"
        },
        {
          "indexed": true,
          "internalType": "address",
          "name": "spender",
          "type": "address"
        },
        {
          "indexed": false,
          "internalType": "uint256",
          "name": "value",
          "type": "uint256"
        }
      ],
      "name": "Approval",
      "type": "event"
    },
    {
      "anonymous": false,
      "inputs": [
        {
          "indexed": true,
          "internalType": "bytes32",
          "name": "role",
          "type": "bytes32"
        },
        {
          "indexed": true,
          "internalType": "bytes32",
          "name": "previousAdminRole",
          "type": "bytes32"
        },
        {
          "indexed": true,
          "internalType": "bytes32",
          "name": "newAdminRole",
          "type": "bytes32"
        }
      ],
      "name": "RoleAdminChanged",
      "type": "event"
    },
    {
      "anonymous": false,
      "inputs": [
        {
          "indexed": true,
          "internalType": "bytes32",
          "name": "role",
          "type": "bytes32"
        },
        {
          "indexed": true,
          "internalType": "address",
          "name": "account",
          "type": "address"
        },
        {
          "indexed": true,
          "internalType": "address",
          "name": "sender",
          "type": "address"
        }
      ],
      "name": "RoleGranted",
      "type": "event"
    },
    {
      "anonymous": false,
      "inputs": [
        {
          "indexed": true,
          "internalType": "bytes32",
          "name": "role",
          "type": "bytes32"
        },
        {
          "indexed": true,
          "internalType": "address",
          "name": "account",
          "type": "address"
        },
        {
          "indexed": true,
          "internalType": "address",
          "name": "sender",
          "type": "address"
        }
      ],
      "name": "RoleRevoked",
      "type": "event"
    },
    {
      "anonymous": false,
      "inputs": [
        {
          "indexed": true,
          "internalType": "address",
          "name": "from",
          "type": "address"
        },
        {
          "indexed": true,
          "internalType": "address",
          "name": "to",
          "type": "address"
        },
        {
          "indexed": false,
          "internalType": "uint256",
          "name": "value",
          "type": "uint256"
        }
      ],
      "name": "Transfer",
      "type": "event"
    },
    {
      "inputs": [],
      "name": "DEFAULT_ADMIN_ROLE",
      "outputs": [
        {
          "internalType": "bytes32",
          "name": "",
          "type": "bytes32"
        }
      ],
      "stateMutability": "view",
      "type": "function"
    },
    {
      "inputs": [],
      "name": "MINTER_ROLE",
      "outputs": [
        {
          "internalType": "bytes32",
          "name": "",
          "type": "bytes32"
        }
      ],
      "stateMutability": "view",
      "type": "function"
    },
    {
      "inputs": [],
      "name": "TRANSFER_ROLE",
      "outputs": [
        {
          "internalType": "bytes32",
          "name": "",
          "type": "bytes32"
        }
      ],
      "stateMutability": "view",
      "type": "function"
    },
    {
      "inputs": [],
      "name": "TRANSFER_ROLE_ADMIN",
      "outputs": [
        {
          "internalType": "bytes32",
          "name": "",
          "type": "bytes32"
        }
      ],
      "stateMutability": "view",
      "type": "function"
    },
    {
      "inputs": [
        {
          "internalType": "address",
          "name": "owner",
          "type": "address"
        },
        {
          "internalType": "address",
          "name": "spender",
          "type": "address"
        }
      ],
      "name": "allowance",
      "outputs": [
        {
          "internalType": "uint256",
          "name": "",
          "type": "uint256"
        }
      ],
      "stateMutability": "view",
      "type": "function"
    },
    {
      "inputs": [
        {
          "internalType": "address",
          "name": "spender",
          "type": "address"
        },
        {
          "internalType": "uint256",
          "name": "amount",
          "type": "uint256"
        }
      ],
      "name": "approve",
      "outputs": [
        {
          "internalType": "bool",
          "name": "",
          "type": "bool"
        }
      ],
      "stateMutability": "nonpayable",
      "type": "function"
    },
    {
      "inputs": [
        {
          "internalType": "address",
          "name": "account",
          "type": "address"
        }
      ],
      "name": "balanceOf",
      "outputs": [
        {
          "internalType": "uint256",
          "name": "",
          "type": "uint256"
        }
      ],
      "stateMutability": "view",
      "type": "function"
    },
    {
      "inputs": [
        {
          "internalType": "uint256",
          "name": "amount",
          "type": "uint256"
        }
      ],
      "name": "burn",
      "outputs": [],
      "stateMutability": "nonpayable",
      "type": "function"
    },
    {
      "inputs": [
        {
          "internalType": "address",
          "name": "account",
          "type": "address"
        },
        {
          "internalType": "uint256",
          "name": "amount",
          "type": "uint256"
        }
      ],
      "name": "burnFrom",
      "outputs": [],
      "stateMutability": "nonpayable",
      "type": "function"
    },
    {
      "inputs": [],
      "name": "decimals",
      "outputs": [
        {
          "internalType": "uint8",
          "name": "",
          "type": "uint8"
        }
      ],
      "stateMutability": "view",
      "type": "function"
    },
    {
      "inputs": [
        {
          "internalType": "address",
          "name": "spender",
          "type": "address"
        },
        {
          "internalType": "uint256",
          "name": "subtractedValue",
          "type": "uint256"
        }
      ],
      "name": "decreaseAllowance",
      "outputs": [
        {
          "internalType": "bool",
          "name": "",
          "type": "bool"
        }
      ],
      "stateMutability": "nonpayable",
      "type": "function"
    },
    {
      "inputs": [
        {
          "internalType": "bytes32",
          "name": "role",
          "type": "bytes32"
        }
      ],
      "name": "getRoleAdmin",
      "outputs": [
        {
          "internalType": "bytes32",
          "name": "",
          "type": "bytes32"
        }
      ],
      "stateMutability": "view",
      "type": "function"
    },
    {
      "inputs": [
        {
          "internalType": "bytes32",
          "name": "role",
          "type": "bytes32"
        },
        {
          "internalType": "uint256",
          "name": "index",
          "type": "uint256"
        }
      ],
      "name": "getRoleMember",
      "outputs": [
        {
          "internalType": "address",
          "name": "",
          "type": "address"
        }
      ],
      "stateMutability": "view",
      "type": "function"
    },
    {
      "inputs": [
        {
          "internalType": "bytes32",
          "name": "role",
          "type": "bytes32"
        }
      ],
      "name": "getRoleMemberCount",
      "outputs": [
        {
          "internalType": "uint256",
          "name": "",
          "type": "uint256"
        }
      ],
      "stateMutability": "view",
      "type": "function"
    },
    {
      "inputs": [
        {
          "internalType": "bytes32",
          "name": "role",
          "type": "bytes32"
        },
        {
          "internalType": "address",
          "name": "account",
          "type": "address"
        }
      ],
      "name": "grantRole",
      "outputs": [],
      "stateMutability": "nonpayable",
      "type": "function"
    },
    {
      "inputs": [
        {
          "internalType": "bytes32",
          "name": "role",
          "type": "bytes32"
        },
        {
          "internalType": "address",
          "name": "account",
          "type": "address"
        }
      ],
      "name": "hasRole",
      "outputs": [
        {
          "internalType": "bool",
          "name": "",
          "type": "bool"
        }
      ],
      "stateMutability": "view",
      "type": "function"
    },
    {
      "inputs": [
        {
          "internalType": "address",
          "name": "spender",
          "type": "address"
        },
        {
          "internalType": "uint256",
          "name": "addedValue",
          "type": "uint256"
        }
      ],
      "name": "increaseAllowance",
      "outputs": [
        {
          "internalType": "bool",
          "name": "",
          "type": "bool"
        }
      ],
      "stateMutability": "nonpayable",
      "type": "function"
    },
    {
      "inputs": [],
      "name": "name",
      "outputs": [
        {
          "internalType": "string",
          "name": "",
          "type": "string"
        }
      ],
      "stateMutability": "view",
      "type": "function"
    },
    {
      "inputs": [
        {
          "internalType": "bytes32",
          "name": "role",
          "type": "bytes32"
        },
        {
          "internalType": "address",
          "name": "account",
          "type": "address"
        }
      ],
      "name": "renounceRole",
      "outputs": [],
      "stateMutability": "nonpayable",
      "type": "function"
    },
    {
      "inputs": [
        {
          "internalType": "bytes32",
          "name": "role",
          "type": "bytes32"
        },
        {
          "internalType": "address",
          "name": "account",
          "type": "address"
        }
      ],
      "name": "revokeRole",
      "outputs": [],
      "stateMutability": "nonpayable",
      "type": "function"
    },
    {
      "inputs": [],
      "name": "startTradableTime",
      "outputs": [
        {
          "internalType": "uint256",
          "name": "",
          "type": "uint256"
        }
      ],
      "stateMutability": "view",
      "type": "function"
    },
    {
      "inputs": [],
      "name": "symbol",
      "outputs": [
        {
          "internalType": "string",
          "name": "",
          "type": "string"
        }
      ],
      "stateMutability": "view",
      "type": "function"
    },
    {
      "inputs": [],
      "name": "totalSupply",
      "outputs": [
        {
          "internalType": "uint256",
          "name": "",
          "type": "uint256"
        }
      ],
      "stateMutability": "view",
      "type": "function"
    },
    {
      "inputs": [
        {
          "internalType": "address",
          "name": "recipient",
          "type": "address"
        },
        {
          "internalType": "uint256",
          "name": "amount",
          "type": "uint256"
        }
      ],
      "name": "transfer",
      "outputs": [
        {
          "internalType": "bool",
          "name": "",
          "type": "bool"
        }
      ],
      "stateMutability": "nonpayable",
      "type": "function"
    },
    {
      "inputs": [
        {
          "internalType": "address",
          "name": "sender",
          "type": "address"
        },
        {
          "internalType": "address",
          "name": "recipient",
          "type": "address"
        },
        {
          "internalType": "uint256",
          "name": "amount",
          "type": "uint256"
        }
      ],
      "name": "transferFrom",
      "outputs": [
        {
          "internalType": "bool",
          "name": "",
          "type": "bool"
        }
      ],
      "stateMutability": "nonpayable",
      "type": "function"
    },
    {
      "inputs": [
        {
          "internalType": "address",
          "name": "to",
          "type": "address"
        },
        {
          "internalType": "uint256",
          "name": "amount",
          "type": "uint256"
        }
      ],
      "name": "mint",
      "outputs": [],
      "stateMutability": "nonpayable",
      "type": "function"
    },
    {
      "inputs": [
        {
          "internalType": "bytes4",
          "name": "interfaceId",
          "type": "bytes4"
        }
      ],
      "name": "supportsInterface",
      "outputs": [
        {
          "internalType": "bool",
          "name": "",
          "type": "bool"
        }
      ],
      "stateMutability": "view",
      "type": "function"
    }
  ],
  "bytecode": "0x60806040523480156200001157600080fd5b50604051620021e2380380620021e28339810160408190526200003491620005fb565b8551869086906200004d90600590602085019062000492565b5080516200006390600690602084019062000492565b505050600784905562000095600080516020620021a2833981519152600080516020620021c2833981519152620000d5565b620000a26000826200012a565b620000bd600080516020620021c2833981519152836200012a565b620000c982846200013a565b505050505050620007d3565b6000620000e28362000232565b600084815260208190526040808220600101859055519192508391839186917fbd79b86ffe0ab8e8776151514217cd7cacd52c909f66475c3af44e129f0b00ff9190a4505050565b6200013682826200024a565b5050565b6001600160a01b03821662000186576040517f08c379a00000000000000000000000000000000000000000000000000000000081526004016200017d90620006d0565b60405180910390fd5b62000194600083836200028d565b8060046000828254620001a8919062000710565b90915550506001600160a01b03821660009081526002602052604081208054839290620001d790849062000710565b90915550506040516001600160a01b038316906000907fddf252ad1be2c89b69c2b068fc378daa952ba7f163c4a11628f55a4df523b3ef906200021c90859062000707565b60405180910390a3620001366000838362000288565b6000818152602081905260409020600101545b919050565b6200026182826200035460201b6200087c1760201c565b60008281526001602090815260409091206200028891839062000901620003de821b17901c565b505050565b6001600160a01b03831615801590620002ae57506001600160a01b03821615155b8015620002d35750620002d1600080516020620021a283398151915284620003fe565b155b8015620002f85750620002f6600080516020620021a283398151915283620003fe565b155b156200033c5760075442116200033c576040517f08c379a00000000000000000000000000000000000000000000000000000000081526004016200017d9062000699565b620002888383836200028860201b620005711760201c565b620003608282620003fe565b62000136576000828152602081815260408083206001600160a01b03851684529091529020805460ff191660011790556200039a62000427565b6001600160a01b0316816001600160a01b0316837f2f8788117e7eff1d82e926ec794901d17c78024a50270940304540a733656f0d60405160405180910390a45050565b6000620003f5836001600160a01b0384166200042b565b90505b92915050565b6000918252602082815260408084206001600160a01b0393909316845291905290205460ff1690565b3390565b60006200043983836200047a565b6200047157508154600181810184556000848152602080822090930184905584548482528286019093526040902091909155620003f8565b506000620003f8565b60009081526001919091016020526040902054151590565b828054620004a0906200074e565b90600052602060002090601f016020900481019282620004c457600085556200050f565b82601f10620004df57805160ff19168380011785556200050f565b828001600101855582156200050f579182015b828111156200050f578251825591602001919060010190620004f2565b506200051d92915062000521565b5090565b5b808211156200051d576000815560010162000522565b80516001600160a01b03811681146200024557600080fd5b600082601f83011262000561578081fd5b81516001600160401b03808211156200057e576200057e620007a4565b6040516020601f8401601f1916820181018381118382101715620005a657620005a6620007a4565b6040528382528584018101871015620005bd578485fd5b8492505b83831015620005e05785830181015182840182015291820191620005c1565b83831115620005f157848185840101525b5095945050505050565b60008060008060008060c0878903121562000614578182fd5b86516001600160401b03808211156200062b578384fd5b620006398a838b0162000550565b975060208901519150808211156200064f578384fd5b506200065e89828a0162000550565b95505060408701519350606087015192506200067d6080880162000538565b91506200068d60a0880162000538565b90509295509295509295565b6020808252601e908201527f546f6b656e2063616e2774207472616461626c65207269676874206e6f770000604082015260600190565b6020808252601f908201527f45524332303a206d696e7420746f20746865207a65726f206164647265737300604082015260600190565b90815260200190565b6000821982111562000749577f4e487b710000000000000000000000000000000000000000000000000000000081526011600452602481fd5b500190565b6002810460018216806200076357607f821691505b602082108114156200079e577f4e487b7100000000000000000000000000000000000000000000000000000000600052602260045260246000fd5b50919050565b7f4e487b7100000000000000000000000000000000000000000000000000000000600052604160045260246000fd5b6119bf80620007e36000396000f3fe608060405234801561001057600080fd5b50600436106101a95760003560e01c806370a08231116100f9578063a9059cbb11610097578063d547741f11610071578063d547741f14610362578063d68fc93c14610375578063dd62ed3e1461037d578063e88b24ba14610390576101a9565b8063a9059cbb14610334578063ca15c87314610347578063d53913931461035a576101a9565b806391d14854116100d357806391d14854146102fe57806395d89b4114610311578063a217fddf14610319578063a457c2d714610321576101a9565b806370a08231146102b857806379cc6790146102cb5780639010d07c146102de576101a9565b8063248a9ca31161016657806336568abe1161014057806336568abe1461026c578063395093511461027f57806340c10f191461029257806342966c68146102a5576101a9565b8063248a9ca31461022f5780632f2ff15d14610242578063313ce56714610257576101a9565b806301ffc9a7146101ae57806306fdde03146101d7578063095ea7b3146101ec57806318160ddd146101ff578063206b60f91461021457806323b872dd1461021c575b600080fd5b6101c16101bc3660046113b1565b610398565b6040516101ce9190611462565b60405180910390f35b6101df6103c5565b6040516101ce9190611476565b6101c16101fa36600461132d565b610457565b610207610475565b6040516101ce919061146d565b61020761047b565b6101c161022a3660046112f2565b61049f565b61020761023d366004611356565b610538565b61025561025036600461136e565b61054d565b005b61025f610576565b6040516101ce9190611899565b61025561027a36600461136e565b61057b565b6101c161028d36600461132d565b6105c1565b6102556102a036600461132d565b610615565b6102556102b3366004611356565b610667565b6102076102c63660046112a6565b61067b565b6102556102d936600461132d565b610696565b6102f16102ec366004611390565b6106e4565b6040516101ce919061144e565b6101c161030c36600461136e565b610703565b6101df61072c565b61020761073b565b6101c161032f36600461132d565b610740565b6101c161034236600461132d565b6107b9565b610207610355366004611356565b6107cd565b6102076107e4565b61025561037036600461136e565b610808565b610207610827565b61020761038b3660046112c0565b61084b565b610207610876565b60006001600160e01b03198216630ade522160e01b14806103bd57506103bd82610916565b90505b919050565b6060600580546103d490611938565b80601f016020809104026020016040519081016040528092919081815260200182805461040090611938565b801561044d5780601f106104225761010080835404028352916020019161044d565b820191906000526020600020905b81548152906001019060200180831161043057829003601f168201915b5050505050905090565b600061046b61046461093b565b848461093f565b5060015b92915050565b60045490565b7f8502233096d909befbda0999bb8ea2f3a6be3c138b9fbf003752a4c8bce86f6c81565b60006104ac8484846109f3565b6001600160a01b0384166000908152600360205260408120816104cd61093b565b6001600160a01b03166001600160a01b03168152602001908152602001600020549050828110156105195760405162461bcd60e51b815260040161051090611622565b60405180910390fd5b61052d8561052561093b565b85840361093f565b506001949350505050565b60009081526020819052604090206001015490565b61055682610538565b6105678161056261093b565b610b1d565b6105718383610b81565b505050565b601290565b61058361093b565b6001600160a01b0316816001600160a01b0316146105b35760405162461bcd60e51b815260040161051090611813565b6105bd8282610ba3565b5050565b600061046b6105ce61093b565b8484600360006105dc61093b565b6001600160a01b03908116825260208083019390935260409182016000908120918b168152925290205461061091906118a7565b61093f565b6106417f9f2df0fed2c77648de5860a4cc508cd0818c85b8b8a1ab4ceeef8d981c8956a661030c61093b565b61065d5760405162461bcd60e51b81526004016105109061166a565b6105bd8282610bc5565b61067861067261093b565b82610c8d565b50565b6001600160a01b031660009081526002602052604090205490565b60006106a48361038b61093b565b9050818110156106c65760405162461bcd60e51b8152600401610510906116c0565b6106da836106d261093b565b84840361093f565b6105718383610c8d565b60008281526001602052604081206106fc9083610d7e565b9392505050565b6000918252602082815260408084206001600160a01b0393909316845291905290205460ff1690565b6060600680546103d490611938565b600081565b6000806003600061074f61093b565b6001600160a01b039081168252602080830193909352604091820160009081209188168152925290205490508281101561079b5760405162461bcd60e51b8152600401610510906117ce565b6107af6107a661093b565b8585840361093f565b5060019392505050565b600061046b6107c661093b565b84846109f3565b60008181526001602052604081206103bd90610d8a565b7f9f2df0fed2c77648de5860a4cc508cd0818c85b8b8a1ab4ceeef8d981c8956a681565b61081182610538565b61081d8161056261093b565b6105718383610ba3565b7f1179bec0ccbe6d15ea750b5422555e189e0fa411a2104da6763fedb6c73c147081565b6001600160a01b03918216600090815260036020908152604080832093909416825291909152205490565b60075481565b6108868282610703565b6105bd576000828152602081815260408083206001600160a01b03851684529091529020805460ff191660011790556108bd61093b565b6001600160a01b0316816001600160a01b0316837f2f8788117e7eff1d82e926ec794901d17c78024a50270940304540a733656f0d60405160405180910390a45050565b60006106fc836001600160a01b038416610d95565b60006001600160e01b03198216635a05180f60e01b14806103bd57506103bd82610ddf565b3390565b6001600160a01b0383166109655760405162461bcd60e51b81526004016105109061178a565b6001600160a01b03821661098b5760405162461bcd60e51b815260040161051090611563565b6001600160a01b0380841660008181526003602090815260408083209487168084529490915290819020849055517f8c5be1e5ebec7d5bd14f71427d1e84f3dd0314c0f7b2291e5b200ac8c7c3b925906109e690859061146d565b60405180910390a3505050565b6001600160a01b038316610a195760405162461bcd60e51b815260040161051090611745565b6001600160a01b038216610a3f5760405162461bcd60e51b8152600401610510906114de565b610a4a838383610e04565b6001600160a01b03831660009081526002602052604090205481811015610a835760405162461bcd60e51b8152600401610510906115a5565b6001600160a01b03808516600090815260026020526040808220858503905591851681529081208054849290610aba9084906118a7565b92505081905550826001600160a01b0316846001600160a01b03167fddf252ad1be2c89b69c2b068fc378daa952ba7f163c4a11628f55a4df523b3ef84604051610b04919061146d565b60405180910390a3610b17848484610571565b50505050565b610b278282610703565b6105bd57610b3f816001600160a01b03166014610ebb565b610b4a836020610ebb565b604051602001610b5b9291906113d9565b60408051601f198184030181529082905262461bcd60e51b825261051091600401611476565b610b8b828261087c565b60008281526001602052604090206105719082610901565b610bad828261106d565b600082815260016020526040902061057190826110f0565b6001600160a01b038216610beb5760405162461bcd60e51b815260040161051090611862565b610bf760008383610e04565b8060046000828254610c0991906118a7565b90915550506001600160a01b03821660009081526002602052604081208054839290610c369084906118a7565b90915550506040516001600160a01b038316906000907fddf252ad1be2c89b69c2b068fc378daa952ba7f163c4a11628f55a4df523b3ef90610c7990859061146d565b60405180910390a36105bd60008383610571565b6001600160a01b038216610cb35760405162461bcd60e51b815260040161051090611704565b610cbf82600083610e04565b6001600160a01b03821660009081526002602052604090205481811015610cf85760405162461bcd60e51b815260040161051090611521565b6001600160a01b0383166000908152600260205260408120838303905560048054849290610d279084906118de565b90915550506040516000906001600160a01b038516907fddf252ad1be2c89b69c2b068fc378daa952ba7f163c4a11628f55a4df523b3ef90610d6a90869061146d565b60405180910390a361057183600084610571565b60006106fc8383611105565b60006103bd8261113d565b6000610da18383611141565b610dd75750815460018181018455600084815260208082209093018490558454848252828601909352604090209190915561046f565b50600061046f565b60006001600160e01b03198216637965db0b60e01b14806103bd57506103bd82611159565b6001600160a01b03831615801590610e2457506001600160a01b03821615155b8015610e575750610e557f8502233096d909befbda0999bb8ea2f3a6be3c138b9fbf003752a4c8bce86f6c84610703565b155b8015610e8a5750610e887f8502233096d909befbda0999bb8ea2f3a6be3c138b9fbf003752a4c8bce86f6c83610703565b155b15610eb0576007544211610eb05760405162461bcd60e51b8152600401610510906115eb565b610571838383610571565b60606000610eca8360026118bf565b610ed59060026118a7565b67ffffffffffffffff811115610efb57634e487b7160e01b600052604160045260246000fd5b6040519080825280601f01601f191660200182016040528015610f25576020820181803683370190505b509050600360fc1b81600081518110610f4e57634e487b7160e01b600052603260045260246000fd5b60200101906001600160f81b031916908160001a905350600f60fb1b81600181518110610f8b57634e487b7160e01b600052603260045260246000fd5b60200101906001600160f81b031916908160001a9053506000610faf8460026118bf565b610fba9060016118a7565b90505b600181111561104e576f181899199a1a9b1b9c1cb0b131b232b360811b85600f1660108110610ffc57634e487b7160e01b600052603260045260246000fd5b1a60f81b82828151811061102057634e487b7160e01b600052603260045260246000fd5b60200101906001600160f81b031916908160001a90535060049490941c9361104781611921565b9050610fbd565b5083156106fc5760405162461bcd60e51b8152600401610510906114a9565b6110778282610703565b156105bd576000828152602081815260408083206001600160a01b03851684529091529020805460ff191690556110ac61093b565b6001600160a01b0316816001600160a01b0316837ff6391f5c32d9c69d2a47ea670b442974b53935d1edc7fd64eb21e047a839171b60405160405180910390a45050565b60006106fc836001600160a01b038416611172565b600082600001828154811061112a57634e487b7160e01b600052603260045260246000fd5b9060005260206000200154905092915050565b5490565b60009081526001919091016020526040902054151590565b6001600160e01b031981166301ffc9a760e01b14919050565b600081815260018301602052604081205480156112855760006111966001836118de565b85549091506000906111aa906001906118de565b905081811461122b5760008660000182815481106111d857634e487b7160e01b600052603260045260246000fd5b906000526020600020015490508087600001848154811061120957634e487b7160e01b600052603260045260246000fd5b6000918252602080832090910192909255918252600188019052604090208390555b855486908061124a57634e487b7160e01b600052603160045260246000fd5b60019003818190600052602060002001600090559055856001016000868152602001908152602001600020600090556001935050505061046f565b600091505061046f565b80356001600160a01b03811681146103c057600080fd5b6000602082840312156112b7578081fd5b6106fc8261128f565b600080604083850312156112d2578081fd5b6112db8361128f565b91506112e96020840161128f565b90509250929050565b600080600060608486031215611306578081fd5b61130f8461128f565b925061131d6020850161128f565b9150604084013590509250925092565b6000806040838503121561133f578182fd5b6113488361128f565b946020939093013593505050565b600060208284031215611367578081fd5b5035919050565b60008060408385031215611380578182fd5b823591506112e96020840161128f565b600080604083850312156113a2578182fd5b50508035926020909101359150565b6000602082840312156113c2578081fd5b81356001600160e01b0319811681146106fc578182fd5b60007f416363657373436f6e74726f6c3a206163636f756e7420000000000000000000825283516114118160178501602088016118f5565b7001034b99036b4b9b9b4b733903937b6329607d1b60179184019182015283516114428160288401602088016118f5565b01602801949350505050565b6001600160a01b0391909116815260200190565b901515815260200190565b90815260200190565b60006020825282518060208401526114958160408501602087016118f5565b601f01601f19169190910160400192915050565b6020808252818101527f537472696e67733a20686578206c656e67746820696e73756666696369656e74604082015260600190565b60208082526023908201527f45524332303a207472616e7366657220746f20746865207a65726f206164647260408201526265737360e81b606082015260800190565b60208082526022908201527f45524332303a206275726e20616d6f756e7420657863656564732062616c616e604082015261636560f01b606082015260800190565b60208082526022908201527f45524332303a20617070726f766520746f20746865207a65726f206164647265604082015261737360f01b606082015260800190565b60208082526026908201527f45524332303a207472616e7366657220616d6f756e7420657863656564732062604082015265616c616e636560d01b606082015260800190565b6020808252601e908201527f546f6b656e2063616e2774207472616461626c65207269676874206e6f770000604082015260600190565b60208082526028908201527f45524332303a207472616e7366657220616d6f756e74206578636565647320616040820152676c6c6f77616e636560c01b606082015260800190565b60208082526036908201527f45524332305072657365744d696e7465725061757365723a206d7573742068616040820152751d99481b5a5b9d195c881c9bdb19481d1bc81b5a5b9d60521b606082015260800190565b60208082526024908201527f45524332303a206275726e20616d6f756e74206578636565647320616c6c6f77604082015263616e636560e01b606082015260800190565b60208082526021908201527f45524332303a206275726e2066726f6d20746865207a65726f206164647265736040820152607360f81b606082015260800190565b60208082526025908201527f45524332303a207472616e736665722066726f6d20746865207a65726f206164604082015264647265737360d81b606082015260800190565b60208082526024908201527f45524332303a20617070726f76652066726f6d20746865207a65726f206164646040820152637265737360e01b606082015260800190565b60208082526025908201527f45524332303a2064656372656173656420616c6c6f77616e63652062656c6f77604082015264207a65726f60d81b606082015260800190565b6020808252602f908201527f416363657373436f6e74726f6c3a2063616e206f6e6c792072656e6f756e636560408201526e103937b632b9903337b91039b2b63360891b606082015260800190565b6020808252601f908201527f45524332303a206d696e7420746f20746865207a65726f206164647265737300604082015260600190565b60ff91909116815260200190565b600082198211156118ba576118ba611973565b500190565b60008160001904831182151516156118d9576118d9611973565b500290565b6000828210156118f0576118f0611973565b500390565b60005b838110156119105781810151838201526020016118f8565b83811115610b175750506000910152565b60008161193057611930611973565b506000190190565b60028104600182168061194c57607f821691505b6020821081141561196d57634e487b7160e01b600052602260045260246000fd5b50919050565b634e487b7160e01b600052601160045260246000fdfea26469706673582212209d19a564a29be1e374d29b4c0307e176423e1cb8143e7e1f1fafd79ee757613464736f6c634300080000338502233096d909befbda0999bb8ea2f3a6be3c138b9fbf003752a4c8bce86f6c1179bec0ccbe6d15ea750b5422555e189e0fa411a2104da6763fedb6c73c1470",
  "immutableReferences": {},
  "source": "// SPDX-License-Identifier: MIT\npragma solidity 0.8.0;\n\nimport \"@openzeppelin/contracts/token/ERC20/extensions/ERC20Burnable.sol\";\nimport \"@openzeppelin/contracts/token/ERC20/ERC20.sol\";\nimport \"@openzeppelin/contracts/access/AccessControlEnumerable.sol\";\nimport \"@openzeppelin/contracts/utils/Context.sol\";\n\n/**\n * @dev {ERC20} token, including:\n *\n *  - Preminted initial supply\n *  - Ability for holders to burn (destroy) their tokens\n *  - No access control mechanism (for minting/pausing) and hence no governance\n *\n * This contract uses {ERC20Burnable} to include burn capabilities - head to\n * its documentation for details.\n *\n * _Available since v3.4._\n */\ncontract Point is Context, AccessControlEnumerable, ERC20Burnable {\n    bytes32 public constant MINTER_ROLE = keccak256(\"MINTER_ROLE\");\n    bytes32 public constant TRANSFER_ROLE = keccak256(\"TRANSFER_ROLE\");\n    bytes32 public constant TRANSFER_ROLE_ADMIN = keccak256(\"TRANSFER_ROLE_ADMIN\");\n\n    uint256 public startTradableTime;\n\n    /**\n     * @dev Grants `DEFAULT_ADMIN_ROLE` to the\n     * community factory contract,\n     * then community factory will grant mint role to the community.\n     *\n     * See {ERC20-constructor}.\n     */\n    constructor(string memory name, \n    string memory symbol, \n    uint256 _startTradableTime,\n    uint256 initialSupply,\n    address owner,\n    address communityFactory) ERC20(name, symbol) {\n        startTradableTime = _startTradableTime;\n        _setRoleAdmin(TRANSFER_ROLE, TRANSFER_ROLE_ADMIN);\n        _setupRole(DEFAULT_ADMIN_ROLE, communityFactory);\n        _setupRole(TRANSFER_ROLE_ADMIN, owner);\n        _mint(owner, initialSupply);\n    }\n    /**\n     * @dev Creates `amount` new tokens for `to`.\n     *\n     * See {ERC20-_mint}.\n     *\n     * Requirements:\n     *\n     * - the caller must have the `MINTER_ROLE`.\n     */\n    function mint(address to, uint256 amount) external virtual {\n        require(hasRole(MINTER_ROLE, _msgSender()), \"ERC20PresetMinterPauser: must have minter role to mint\");\n        _mint(to, amount);\n    }\n\n    function supportsInterface(bytes4 interfaceId) public view virtual override returns (bool) {\n        return interfaceId == bytes4(keccak256('DelayTransactionPoint'))\n                || super.supportsInterface(interfaceId);\n    }\n\n    function _beforeTokenTransfer(\n        address from,\n        address to,\n        uint256 amount\n    ) internal virtual override(ERC20) {\n        if (from != address(0) && to != address(0) && !hasRole(TRANSFER_ROLE, from) && !hasRole(TRANSFER_ROLE, to)) {\n            // can mint or burn point\n            require(block.timestamp > startTradableTime, \"Token can't tradable right now\");\n        }\n        super._beforeTokenTransfer(from, to, amount);\n    }\n}",
  "sourcePath": "/Users/wangxi/work/Walnut-V2/nutbox-contract/contracts/community-token/Point.sol",
  "compiler": {
    "name": "solc",
    "version": "0.8.0+commit.c7dfd78e.Emscripten.clang"
  },
  "schemaVersion": "3.3.4",
  "updatedAt": "2024-06-20T10:15:12.307Z",
  "devdoc": {
    "details": "{ERC20} token, including:  - Preminted initial supply  - Ability for holders to burn (destroy) their tokens  - No access control mechanism (for minting/pausing) and hence no governance This contract uses {ERC20Burnable} to include burn capabilities - head to its documentation for details. _Available since v3.4._",
    "kind": "dev",
    "methods": {
      "allowance(address,address)": {
        "details": "See {IERC20-allowance}."
      },
      "approve(address,uint256)": {
        "details": "See {IERC20-approve}. Requirements: - `spender` cannot be the zero address."
      },
      "balanceOf(address)": {
        "details": "See {IERC20-balanceOf}."
      },
      "burn(uint256)": {
        "details": "Destroys `amount` tokens from the caller. See {ERC20-_burn}."
      },
      "burnFrom(address,uint256)": {
        "details": "Destroys `amount` tokens from `account`, deducting from the caller's allowance. See {ERC20-_burn} and {ERC20-allowance}. Requirements: - the caller must have allowance for ``accounts``'s tokens of at least `amount`."
      },
      "constructor": {
        "details": "Grants `DEFAULT_ADMIN_ROLE` to the community factory contract, then community factory will grant mint role to the community. See {ERC20-constructor}."
      },
      "decimals()": {
        "details": "Returns the number of decimals used to get its user representation. For example, if `decimals` equals `2`, a balance of `505` tokens should be displayed to a user as `5.05` (`505 / 10 ** 2`). Tokens usually opt for a value of 18, imitating the relationship between Ether and Wei. This is the value {ERC20} uses, unless this function is overridden; NOTE: This information is only used for _display_ purposes: it in no way affects any of the arithmetic of the contract, including {IERC20-balanceOf} and {IERC20-transfer}."
      },
      "decreaseAllowance(address,uint256)": {
        "details": "Atomically decreases the allowance granted to `spender` by the caller. This is an alternative to {approve} that can be used as a mitigation for problems described in {IERC20-approve}. Emits an {Approval} event indicating the updated allowance. Requirements: - `spender` cannot be the zero address. - `spender` must have allowance for the caller of at least `subtractedValue`."
      },
      "getRoleAdmin(bytes32)": {
        "details": "Returns the admin role that controls `role`. See {grantRole} and {revokeRole}. To change a role's admin, use {_setRoleAdmin}."
      },
      "getRoleMember(bytes32,uint256)": {
        "details": "Returns one of the accounts that have `role`. `index` must be a value between 0 and {getRoleMemberCount}, non-inclusive. Role bearers are not sorted in any particular way, and their ordering may change at any point. WARNING: When using {getRoleMember} and {getRoleMemberCount}, make sure you perform all queries on the same block. See the following https://forum.openzeppelin.com/t/iterating-over-elements-on-enumerableset-in-openzeppelin-contracts/2296[forum post] for more information."
      },
      "getRoleMemberCount(bytes32)": {
        "details": "Returns the number of accounts that have `role`. Can be used together with {getRoleMember} to enumerate all bearers of a role."
      },
      "grantRole(bytes32,address)": {
        "details": "Grants `role` to `account`. If `account` had not been already granted `role`, emits a {RoleGranted} event. Requirements: - the caller must have ``role``'s admin role."
      },
      "hasRole(bytes32,address)": {
        "details": "Returns `true` if `account` has been granted `role`."
      },
      "increaseAllowance(address,uint256)": {
        "details": "Atomically increases the allowance granted to `spender` by the caller. This is an alternative to {approve} that can be used as a mitigation for problems described in {IERC20-approve}. Emits an {Approval} event indicating the updated allowance. Requirements: - `spender` cannot be the zero address."
      },
      "mint(address,uint256)": {
        "details": "Creates `amount` new tokens for `to`. See {ERC20-_mint}. Requirements: - the caller must have the `MINTER_ROLE`."
      },
      "name()": {
        "details": "Returns the name of the token."
      },
      "renounceRole(bytes32,address)": {
        "details": "Revokes `role` from the calling account. Roles are often managed via {grantRole} and {revokeRole}: this function's purpose is to provide a mechanism for accounts to lose their privileges if they are compromised (such as when a trusted device is misplaced). If the calling account had been revoked `role`, emits a {RoleRevoked} event. Requirements: - the caller must be `account`."
      },
      "revokeRole(bytes32,address)": {
        "details": "Revokes `role` from `account`. If `account` had been granted `role`, emits a {RoleRevoked} event. Requirements: - the caller must have ``role``'s admin role."
      },
      "supportsInterface(bytes4)": {
        "details": "See {IERC165-supportsInterface}."
      },
      "symbol()": {
        "details": "Returns the symbol of the token, usually a shorter version of the name."
      },
      "totalSupply()": {
        "details": "See {IERC20-totalSupply}."
      },
      "transfer(address,uint256)": {
        "details": "See {IERC20-transfer}. Requirements: - `recipient` cannot be the zero address. - the caller must have a balance of at least `amount`."
      },
      "transferFrom(address,address,uint256)": {
        "details": "See {IERC20-transferFrom}. Emits an {Approval} event indicating the updated allowance. This is not required by the EIP. See the note at the beginning of {ERC20}. Requirements: - `sender` and `recipient` cannot be the zero address. - `sender` must have a balance of at least `amount`. - the caller must have allowance for ``sender``'s tokens of at least `amount`."
      }
    },
    "version": 1
  },
  "userdoc": {
    "kind": "user",
    "methods": {},
    "version": 1
  }
}