{
  "contractName": "Point",
  "abi": [
    {
      "inputs": [
        {
          "internalType": "string",
          "name": "name",
          "type": "string"
        },
        {
          "internalType": "string",
          "name": "symbol",
          "type": "string"
        },
        {
          "internalType": "uint256",
          "name": "_startTradableTime",
          "type": "uint256"
        },
        {
          "internalType": "uint256",
          "name": "initialSupply",
          "type": "uint256"
        },
        {
          "internalType": "address",
          "name": "owner",
          "type": "address"
        },
        {
          "internalType": "address",
          "name": "communityFactory",
          "type": "address"
        }
      ],
      "stateMutability": "nonpayable",
      "type": "constructor"
    },
    {
      "anonymous": false,
      "inputs": [
        {
          "indexed": true,
          "internalType": "address",
          "name": "owner",
          "type": "address"
        },
        {
          "indexed": true,
          "internalType": "address",
          "name": "spender",
          "type": "address"
        },
        {
          "indexed": false,
          "internalType": "uint256",
          "name": "value",
          "type": "uint256"
        }
      ],
      "name": "Approval",
      "type": "event"
    },
    {
      "anonymous": false,
      "inputs": [
        {
          "indexed": true,
          "internalType": "bytes32",
          "name": "role",
          "type": "bytes32"
        },
        {
          "indexed": true,
          "internalType": "bytes32",
          "name": "previousAdminRole",
          "type": "bytes32"
        },
        {
          "indexed": true,
          "internalType": "bytes32",
          "name": "newAdminRole",
          "type": "bytes32"
        }
      ],
      "name": "RoleAdminChanged",
      "type": "event"
    },
    {
      "anonymous": false,
      "inputs": [
        {
          "indexed": true,
          "internalType": "bytes32",
          "name": "role",
          "type": "bytes32"
        },
        {
          "indexed": true,
          "internalType": "address",
          "name": "account",
          "type": "address"
        },
        {
          "indexed": true,
          "internalType": "address",
          "name": "sender",
          "type": "address"
        }
      ],
      "name": "RoleGranted",
      "type": "event"
    },
    {
      "anonymous": false,
      "inputs": [
        {
          "indexed": true,
          "internalType": "bytes32",
          "name": "role",
          "type": "bytes32"
        },
        {
          "indexed": true,
          "internalType": "address",
          "name": "account",
          "type": "address"
        },
        {
          "indexed": true,
          "internalType": "address",
          "name": "sender",
          "type": "address"
        }
      ],
      "name": "RoleRevoked",
      "type": "event"
    },
    {
      "anonymous": false,
      "inputs": [
        {
          "indexed": true,
          "internalType": "address",
          "name": "from",
          "type": "address"
        },
        {
          "indexed": true,
          "internalType": "address",
          "name": "to",
          "type": "address"
        },
        {
          "indexed": false,
          "internalType": "uint256",
          "name": "value",
          "type": "uint256"
        }
      ],
      "name": "Transfer",
      "type": "event"
    },
    {
      "inputs": [],
      "name": "DEFAULT_ADMIN_ROLE",
      "outputs": [
        {
          "internalType": "bytes32",
          "name": "",
          "type": "bytes32"
        }
      ],
      "stateMutability": "view",
      "type": "function"
    },
    {
      "inputs": [],
      "name": "MINTER_ROLE",
      "outputs": [
        {
          "internalType": "bytes32",
          "name": "",
          "type": "bytes32"
        }
      ],
      "stateMutability": "view",
      "type": "function"
    },
    {
      "inputs": [],
      "name": "TRANSFER_ROLE",
      "outputs": [
        {
          "internalType": "bytes32",
          "name": "",
          "type": "bytes32"
        }
      ],
      "stateMutability": "view",
      "type": "function"
    },
    {
      "inputs": [],
      "name": "TRANSFER_ROLE_ADMIN",
      "outputs": [
        {
          "internalType": "bytes32",
          "name": "",
          "type": "bytes32"
        }
      ],
      "stateMutability": "view",
      "type": "function"
    },
    {
      "inputs": [
        {
          "internalType": "address",
          "name": "owner",
          "type": "address"
        },
        {
          "internalType": "address",
          "name": "spender",
          "type": "address"
        }
      ],
      "name": "allowance",
      "outputs": [
        {
          "internalType": "uint256",
          "name": "",
          "type": "uint256"
        }
      ],
      "stateMutability": "view",
      "type": "function"
    },
    {
      "inputs": [
        {
          "internalType": "address",
          "name": "spender",
          "type": "address"
        },
        {
          "internalType": "uint256",
          "name": "amount",
          "type": "uint256"
        }
      ],
      "name": "approve",
      "outputs": [
        {
          "internalType": "bool",
          "name": "",
          "type": "bool"
        }
      ],
      "stateMutability": "nonpayable",
      "type": "function"
    },
    {
      "inputs": [
        {
          "internalType": "address",
          "name": "account",
          "type": "address"
        }
      ],
      "name": "balanceOf",
      "outputs": [
        {
          "internalType": "uint256",
          "name": "",
          "type": "uint256"
        }
      ],
      "stateMutability": "view",
      "type": "function"
    },
    {
      "inputs": [
        {
          "internalType": "uint256",
          "name": "amount",
          "type": "uint256"
        }
      ],
      "name": "burn",
      "outputs": [],
      "stateMutability": "nonpayable",
      "type": "function"
    },
    {
      "inputs": [
        {
          "internalType": "address",
          "name": "account",
          "type": "address"
        },
        {
          "internalType": "uint256",
          "name": "amount",
          "type": "uint256"
        }
      ],
      "name": "burnFrom",
      "outputs": [],
      "stateMutability": "nonpayable",
      "type": "function"
    },
    {
      "inputs": [],
      "name": "decimals",
      "outputs": [
        {
          "internalType": "uint8",
          "name": "",
          "type": "uint8"
        }
      ],
      "stateMutability": "view",
      "type": "function"
    },
    {
      "inputs": [
        {
          "internalType": "address",
          "name": "spender",
          "type": "address"
        },
        {
          "internalType": "uint256",
          "name": "subtractedValue",
          "type": "uint256"
        }
      ],
      "name": "decreaseAllowance",
      "outputs": [
        {
          "internalType": "bool",
          "name": "",
          "type": "bool"
        }
      ],
      "stateMutability": "nonpayable",
      "type": "function"
    },
    {
      "inputs": [
        {
          "internalType": "bytes32",
          "name": "role",
          "type": "bytes32"
        }
      ],
      "name": "getRoleAdmin",
      "outputs": [
        {
          "internalType": "bytes32",
          "name": "",
          "type": "bytes32"
        }
      ],
      "stateMutability": "view",
      "type": "function"
    },
    {
      "inputs": [
        {
          "internalType": "bytes32",
          "name": "role",
          "type": "bytes32"
        },
        {
          "internalType": "uint256",
          "name": "index",
          "type": "uint256"
        }
      ],
      "name": "getRoleMember",
      "outputs": [
        {
          "internalType": "address",
          "name": "",
          "type": "address"
        }
      ],
      "stateMutability": "view",
      "type": "function"
    },
    {
      "inputs": [
        {
          "internalType": "bytes32",
          "name": "role",
          "type": "bytes32"
        }
      ],
      "name": "getRoleMemberCount",
      "outputs": [
        {
          "internalType": "uint256",
          "name": "",
          "type": "uint256"
        }
      ],
      "stateMutability": "view",
      "type": "function"
    },
    {
      "inputs": [
        {
          "internalType": "bytes32",
          "name": "role",
          "type": "bytes32"
        },
        {
          "internalType": "address",
          "name": "account",
          "type": "address"
        }
      ],
      "name": "grantRole",
      "outputs": [],
      "stateMutability": "nonpayable",
      "type": "function"
    },
    {
      "inputs": [
        {
          "internalType": "bytes32",
          "name": "role",
          "type": "bytes32"
        },
        {
          "internalType": "address",
          "name": "account",
          "type": "address"
        }
      ],
      "name": "hasRole",
      "outputs": [
        {
          "internalType": "bool",
          "name": "",
          "type": "bool"
        }
      ],
      "stateMutability": "view",
      "type": "function"
    },
    {
      "inputs": [
        {
          "internalType": "address",
          "name": "spender",
          "type": "address"
        },
        {
          "internalType": "uint256",
          "name": "addedValue",
          "type": "uint256"
        }
      ],
      "name": "increaseAllowance",
      "outputs": [
        {
          "internalType": "bool",
          "name": "",
          "type": "bool"
        }
      ],
      "stateMutability": "nonpayable",
      "type": "function"
    },
    {
      "inputs": [],
      "name": "name",
      "outputs": [
        {
          "internalType": "string",
          "name": "",
          "type": "string"
        }
      ],
      "stateMutability": "view",
      "type": "function"
    },
    {
      "inputs": [
        {
          "internalType": "bytes32",
          "name": "role",
          "type": "bytes32"
        },
        {
          "internalType": "address",
          "name": "account",
          "type": "address"
        }
      ],
      "name": "renounceRole",
      "outputs": [],
      "stateMutability": "nonpayable",
      "type": "function"
    },
    {
      "inputs": [
        {
          "internalType": "bytes32",
          "name": "role",
          "type": "bytes32"
        },
        {
          "internalType": "address",
          "name": "account",
          "type": "address"
        }
      ],
      "name": "revokeRole",
      "outputs": [],
      "stateMutability": "nonpayable",
      "type": "function"
    },
    {
      "inputs": [],
      "name": "startTradableTime",
      "outputs": [
        {
          "internalType": "uint256",
          "name": "",
          "type": "uint256"
        }
      ],
      "stateMutability": "view",
      "type": "function"
    },
    {
      "inputs": [],
      "name": "symbol",
      "outputs": [
        {
          "internalType": "string",
          "name": "",
          "type": "string"
        }
      ],
      "stateMutability": "view",
      "type": "function"
    },
    {
      "inputs": [],
      "name": "totalSupply",
      "outputs": [
        {
          "internalType": "uint256",
          "name": "",
          "type": "uint256"
        }
      ],
      "stateMutability": "view",
      "type": "function"
    },
    {
      "inputs": [
        {
          "internalType": "address",
          "name": "to",
          "type": "address"
        },
        {
          "internalType": "uint256",
          "name": "amount",
          "type": "uint256"
        }
      ],
      "name": "transfer",
      "outputs": [
        {
          "internalType": "bool",
          "name": "",
          "type": "bool"
        }
      ],
      "stateMutability": "nonpayable",
      "type": "function"
    },
    {
      "inputs": [
        {
          "internalType": "address",
          "name": "from",
          "type": "address"
        },
        {
          "internalType": "address",
          "name": "to",
          "type": "address"
        },
        {
          "internalType": "uint256",
          "name": "amount",
          "type": "uint256"
        }
      ],
      "name": "transferFrom",
      "outputs": [
        {
          "internalType": "bool",
          "name": "",
          "type": "bool"
        }
      ],
      "stateMutability": "nonpayable",
      "type": "function"
    },
    {
      "inputs": [
        {
          "internalType": "address",
          "name": "to",
          "type": "address"
        },
        {
          "internalType": "uint256",
          "name": "amount",
          "type": "uint256"
        }
      ],
      "name": "mint",
      "outputs": [],
      "stateMutability": "nonpayable",
      "type": "function"
    },
    {
      "inputs": [
        {
          "internalType": "bytes4",
          "name": "interfaceId",
          "type": "bytes4"
        }
      ],
      "name": "supportsInterface",
      "outputs": [
        {
          "internalType": "bool",
          "name": "",
          "type": "bool"
        }
      ],
      "stateMutability": "view",
      "type": "function"
    }
  ],
  "bytecode": "0x60806040523480156200001157600080fd5b5060405162002080380380620020808339810160408190526200003491620005db565b8551869086906200004d90600590602085019062000472565b5080516200006390600690602084019062000472565b5050506007849055620000956000805160206200204083398151915260008051602062002060833981519152620000d5565b620000a26000826200012a565b620000bd60008051602062002060833981519152836200012a565b620000c982846200013a565b505050505050620007b3565b6000620000e28362000212565b600084815260208190526040808220600101859055519192508391839186917fbd79b86ffe0ab8e8776151514217cd7cacd52c909f66475c3af44e129f0b00ff9190a4505050565b6200013682826200022a565b5050565b6001600160a01b03821662000186576040517f08c379a00000000000000000000000000000000000000000000000000000000081526004016200017d90620006b0565b60405180910390fd5b62000194600083836200026d565b8060046000828254620001a89190620006f0565b90915550506001600160a01b038216600081815260026020526040808220805485019055517fddf252ad1be2c89b69c2b068fc378daa952ba7f163c4a11628f55a4df523b3ef90620001fc908590620006e7565b60405180910390a3620001366000838362000268565b6000818152602081905260409020600101545b919050565b6200024182826200033460201b6200078e1760201c565b60008281526001602090815260409091206200026891839062000813620003be821b17901c565b505050565b6001600160a01b038316158015906200028e57506001600160a01b03821615155b8015620002b35750620002b16000805160206200204083398151915284620003de565b155b8015620002d85750620002d66000805160206200204083398151915283620003de565b155b156200031c5760075442116200031c576040517f08c379a00000000000000000000000000000000000000000000000000000000081526004016200017d9062000679565b620002688383836200026860201b620005041760201c565b620003408282620003de565b62000136576000828152602081815260408083206001600160a01b03851684529091529020805460ff191660011790556200037a62000407565b6001600160a01b0316816001600160a01b0316837f2f8788117e7eff1d82e926ec794901d17c78024a50270940304540a733656f0d60405160405180910390a45050565b6000620003d5836001600160a01b0384166200040b565b90505b92915050565b6000918252602082815260408084206001600160a01b0393909316845291905290205460ff1690565b3390565b60006200041983836200045a565b6200045157508154600181810184556000848152602080822090930184905584548482528286019093526040902091909155620003d8565b506000620003d8565b60009081526001919091016020526040902054151590565b82805462000480906200072e565b90600052602060002090601f016020900481019282620004a45760008555620004ef565b82601f10620004bf57805160ff1916838001178555620004ef565b82800160010185558215620004ef579182015b82811115620004ef578251825591602001919060010190620004d2565b50620004fd92915062000501565b5090565b5b80821115620004fd576000815560010162000502565b80516001600160a01b03811681146200022557600080fd5b600082601f83011262000541578081fd5b81516001600160401b03808211156200055e576200055e62000784565b6040516020601f8401601f191682018101838111838210171562000586576200058662000784565b60405283825285840181018710156200059d578485fd5b8492505b83831015620005c05785830181015182840182015291820191620005a1565b83831115620005d157848185840101525b5095945050505050565b60008060008060008060c08789031215620005f4578182fd5b86516001600160401b03808211156200060b578384fd5b620006198a838b0162000530565b975060208901519150808211156200062f578384fd5b506200063e89828a0162000530565b95505060408701519350606087015192506200065d6080880162000518565b91506200066d60a0880162000518565b90509295509295509295565b6020808252601e908201527f546f6b656e2063616e2774207472616461626c65207269676874206e6f770000604082015260600190565b6020808252601f908201527f45524332303a206d696e7420746f20746865207a65726f206164647265737300604082015260600190565b90815260200190565b6000821982111562000729577f4e487b710000000000000000000000000000000000000000000000000000000081526011600452602481fd5b500190565b6002810460018216806200074357607f821691505b602082108114156200077e577f4e487b7100000000000000000000000000000000000000000000000000000000600052602260045260246000fd5b50919050565b7f4e487b7100000000000000000000000000000000000000000000000000000000600052604160045260246000fd5b61187d80620007c36000396000f3fe608060405234801561001057600080fd5b50600436106101a95760003560e01c806370a08231116100f9578063a9059cbb11610097578063d547741f11610071578063d547741f14610362578063d68fc93c14610375578063dd62ed3e1461037d578063e88b24ba14610390576101a9565b8063a9059cbb14610334578063ca15c87314610347578063d53913931461035a576101a9565b806391d14854116100d357806391d14854146102fe57806395d89b4114610311578063a217fddf14610319578063a457c2d714610321576101a9565b806370a08231146102b857806379cc6790146102cb5780639010d07c146102de576101a9565b8063248a9ca31161016657806336568abe1161014057806336568abe1461026c578063395093511461027f57806340c10f191461029257806342966c68146102a5576101a9565b8063248a9ca31461022f5780632f2ff15d14610242578063313ce56714610257576101a9565b806301ffc9a7146101ae57806306fdde03146101d7578063095ea7b3146101ec57806318160ddd146101ff578063206b60f91461021457806323b872dd1461021c575b600080fd5b6101c16101bc3660046112c4565b610398565b6040516101ce9190611375565b60405180910390f35b6101df6103c5565b6040516101ce9190611389565b6101c16101fa366004611240565b610457565b61020761047b565b6040516101ce9190611380565b610207610481565b6101c161022a366004611205565b6104a5565b61020761023d366004611269565b6104d3565b610255610250366004611281565b6104e8565b005b61025f610509565b6040516101ce9190611757565b61025561027a366004611281565b61050e565b6101c161028d366004611240565b61055d565b6102556102a0366004611240565b610589565b6102556102b3366004611269565b6105db565b6102076102c63660046111b9565b6105ef565b6102556102d9366004611240565b61060a565b6102f16102ec3660046112a3565b610626565b6040516101ce9190611361565b6101c161030c366004611281565b610645565b6101df61066e565b61020761067d565b6101c161032f366004611240565b610682565b6101c1610342366004611240565b6106ca565b610207610355366004611269565b6106e2565b6102076106f9565b610255610370366004611281565b61071d565b610207610739565b61020761038b3660046111d3565b61075d565b610207610788565b60006001600160e01b03198216630ade522160e01b14806103bd57506103bd82610828565b90505b919050565b6060600580546103d4906117f6565b80601f0160208091040260200160405190810160405280929190818152602001828054610400906117f6565b801561044d5780601f106104225761010080835404028352916020019161044d565b820191906000526020600020905b81548152906001019060200180831161043057829003601f168201915b5050505050905090565b60008061046261084d565b905061046f818585610851565b60019150505b92915050565b60045490565b7f8502233096d909befbda0999bb8ea2f3a6be3c138b9fbf003752a4c8bce86f6c81565b6000806104b061084d565b90506104bd858285610905565b6104c885858561094f565b506001949350505050565b60009081526020819052604090206001015490565b6104f1826104d3565b6104fa81610a50565b6105048383610a61565b505050565b601290565b61051661084d565b6001600160a01b0316816001600160a01b03161461054f5760405162461bcd60e51b8152600401610546906116d1565b60405180910390fd5b6105598282610a83565b5050565b60008061056861084d565b905061046f81858561057a858961075d565b6105849190611765565b610851565b6105b57f9f2df0fed2c77648de5860a4cc508cd0818c85b8b8a1ab4ceeef8d981c8956a661030c61084d565b6105d15760405162461bcd60e51b81526004016105469061156c565b6105598282610aa5565b6105ec6105e661084d565b82610b4f565b50565b6001600160a01b031660009081526002602052604090205490565b61061c8261061661084d565b83610905565b6105598282610b4f565b600082815260016020526040812061063e9083610c26565b9392505050565b6000918252602082815260408084206001600160a01b0393909316845291905290205460ff1690565b6060600680546103d4906117f6565b600081565b60008061068d61084d565b9050600061069b828661075d565b9050838110156106bd5760405162461bcd60e51b81526004016105469061168c565b6104c88286868403610851565b6000806106d561084d565b905061046f81858561094f565b60008181526001602052604081206103bd90610c32565b7f9f2df0fed2c77648de5860a4cc508cd0818c85b8b8a1ab4ceeef8d981c8956a681565b610726826104d3565b61072f81610a50565b6105048383610a83565b7f1179bec0ccbe6d15ea750b5422555e189e0fa411a2104da6763fedb6c73c147081565b6001600160a01b03918216600090815260036020908152604080832093909416825291909152205490565b60075481565b6107988282610645565b610559576000828152602081815260408083206001600160a01b03851684529091529020805460ff191660011790556107cf61084d565b6001600160a01b0316816001600160a01b0316837f2f8788117e7eff1d82e926ec794901d17c78024a50270940304540a733656f0d60405160405180910390a45050565b600061063e836001600160a01b038416610c3d565b60006001600160e01b03198216635a05180f60e01b14806103bd57506103bd82610c87565b3390565b6001600160a01b0383166108775760405162461bcd60e51b815260040161054690611648565b6001600160a01b03821661089d5760405162461bcd60e51b815260040161054690611476565b6001600160a01b0380841660008181526003602090815260408083209487168084529490915290819020849055517f8c5be1e5ebec7d5bd14f71427d1e84f3dd0314c0f7b2291e5b200ac8c7c3b925906108f8908590611380565b60405180910390a3505050565b6000610911848461075d565b90506000198114610949578181101561093c5760405162461bcd60e51b8152600401610546906114b8565b6109498484848403610851565b50505050565b6001600160a01b0383166109755760405162461bcd60e51b815260040161054690611603565b6001600160a01b03821661099b5760405162461bcd60e51b8152600401610546906113f1565b6109a6838383610cac565b6001600160a01b038316600090815260026020526040902054818110156109df5760405162461bcd60e51b8152600401610546906114ef565b6001600160a01b0380851660008181526002602052604080822086860390559286168082529083902080548601905591517fddf252ad1be2c89b69c2b068fc378daa952ba7f163c4a11628f55a4df523b3ef90610a3d908690611380565b60405180910390a3610949848484610504565b6105ec81610a5c61084d565b610d63565b610a6b828261078e565b60008281526001602052604090206105049082610813565b610a8d8282610dbc565b60008281526001602052604090206105049082610e3f565b6001600160a01b038216610acb5760405162461bcd60e51b815260040161054690611720565b610ad760008383610cac565b8060046000828254610ae99190611765565b90915550506001600160a01b038216600081815260026020526040808220805485019055517fddf252ad1be2c89b69c2b068fc378daa952ba7f163c4a11628f55a4df523b3ef90610b3b908590611380565b60405180910390a361055960008383610504565b6001600160a01b038216610b755760405162461bcd60e51b8152600401610546906115c2565b610b8182600083610cac565b6001600160a01b03821660009081526002602052604090205481811015610bba5760405162461bcd60e51b815260040161054690611434565b6001600160a01b0383166000818152600260205260408082208585039055600480548690039055519091907fddf252ad1be2c89b69c2b068fc378daa952ba7f163c4a11628f55a4df523b3ef90610c12908690611380565b60405180910390a361050483600084610504565b600061063e8383610e54565b60006103bd82610e8c565b6000610c498383610e90565b610c7f57508154600181810184556000848152602080822090930184905584548482528286019093526040902091909155610475565b506000610475565b60006001600160e01b03198216637965db0b60e01b14806103bd57506103bd82610ea8565b6001600160a01b03831615801590610ccc57506001600160a01b03821615155b8015610cff5750610cfd7f8502233096d909befbda0999bb8ea2f3a6be3c138b9fbf003752a4c8bce86f6c84610645565b155b8015610d325750610d307f8502233096d909befbda0999bb8ea2f3a6be3c138b9fbf003752a4c8bce86f6c83610645565b155b15610d58576007544211610d585760405162461bcd60e51b815260040161054690611535565b610504838383610504565b610d6d8282610645565b61055957610d7a81610ec1565b610d85836020610ed3565b604051602001610d969291906112ec565b60408051601f198184030181529082905262461bcd60e51b825261054691600401611389565b610dc68282610645565b15610559576000828152602081815260408083206001600160a01b03851684529091529020805460ff19169055610dfb61084d565b6001600160a01b0316816001600160a01b0316837ff6391f5c32d9c69d2a47ea670b442974b53935d1edc7fd64eb21e047a839171b60405160405180910390a45050565b600061063e836001600160a01b038416611085565b6000826000018281548110610e7957634e487b7160e01b600052603260045260246000fd5b9060005260206000200154905092915050565b5490565b60009081526001919091016020526040902054151590565b6001600160e01b031981166301ffc9a760e01b14919050565b60606103bd6001600160a01b03831660145b60606000610ee283600261177d565b610eed906002611765565b67ffffffffffffffff811115610f1357634e487b7160e01b600052604160045260246000fd5b6040519080825280601f01601f191660200182016040528015610f3d576020820181803683370190505b509050600360fc1b81600081518110610f6657634e487b7160e01b600052603260045260246000fd5b60200101906001600160f81b031916908160001a905350600f60fb1b81600181518110610fa357634e487b7160e01b600052603260045260246000fd5b60200101906001600160f81b031916908160001a9053506000610fc784600261177d565b610fd2906001611765565b90505b6001811115611066576f181899199a1a9b1b9c1cb0b131b232b360811b85600f166010811061101457634e487b7160e01b600052603260045260246000fd5b1a60f81b82828151811061103857634e487b7160e01b600052603260045260246000fd5b60200101906001600160f81b031916908160001a90535060049490941c9361105f816117df565b9050610fd5565b50831561063e5760405162461bcd60e51b8152600401610546906113bc565b600081815260018301602052604081205480156111985760006110a960018361179c565b85549091506000906110bd9060019061179c565b905081811461113e5760008660000182815481106110eb57634e487b7160e01b600052603260045260246000fd5b906000526020600020015490508087600001848154811061111c57634e487b7160e01b600052603260045260246000fd5b6000918252602080832090910192909255918252600188019052604090208390555b855486908061115d57634e487b7160e01b600052603160045260246000fd5b600190038181906000526020600020016000905590558560010160008681526020019081526020016000206000905560019350505050610475565b6000915050610475565b80356001600160a01b03811681146103c057600080fd5b6000602082840312156111ca578081fd5b61063e826111a2565b600080604083850312156111e5578081fd5b6111ee836111a2565b91506111fc602084016111a2565b90509250929050565b600080600060608486031215611219578081fd5b611222846111a2565b9250611230602085016111a2565b9150604084013590509250925092565b60008060408385031215611252578182fd5b61125b836111a2565b946020939093013593505050565b60006020828403121561127a578081fd5b5035919050565b60008060408385031215611293578182fd5b823591506111fc602084016111a2565b600080604083850312156112b5578182fd5b50508035926020909101359150565b6000602082840312156112d5578081fd5b81356001600160e01b03198116811461063e578182fd5b60007f416363657373436f6e74726f6c3a206163636f756e7420000000000000000000825283516113248160178501602088016117b3565b7001034b99036b4b9b9b4b733903937b6329607d1b60179184019182015283516113558160288401602088016117b3565b01602801949350505050565b6001600160a01b0391909116815260200190565b901515815260200190565b90815260200190565b60006020825282518060208401526113a88160408501602087016117b3565b601f01601f19169190910160400192915050565b6020808252818101527f537472696e67733a20686578206c656e67746820696e73756666696369656e74604082015260600190565b60208082526023908201527f45524332303a207472616e7366657220746f20746865207a65726f206164647260408201526265737360e81b606082015260800190565b60208082526022908201527f45524332303a206275726e20616d6f756e7420657863656564732062616c616e604082015261636560f01b606082015260800190565b60208082526022908201527f45524332303a20617070726f766520746f20746865207a65726f206164647265604082015261737360f01b606082015260800190565b6020808252601d908201527f45524332303a20696e73756666696369656e7420616c6c6f77616e6365000000604082015260600190565b60208082526026908201527f45524332303a207472616e7366657220616d6f756e7420657863656564732062604082015265616c616e636560d01b606082015260800190565b6020808252601e908201527f546f6b656e2063616e2774207472616461626c65207269676874206e6f770000604082015260600190565b60208082526036908201527f45524332305072657365744d696e7465725061757365723a206d7573742068616040820152751d99481b5a5b9d195c881c9bdb19481d1bc81b5a5b9d60521b606082015260800190565b60208082526021908201527f45524332303a206275726e2066726f6d20746865207a65726f206164647265736040820152607360f81b606082015260800190565b60208082526025908201527f45524332303a207472616e736665722066726f6d20746865207a65726f206164604082015264647265737360d81b606082015260800190565b60208082526024908201527f45524332303a20617070726f76652066726f6d20746865207a65726f206164646040820152637265737360e01b606082015260800190565b60208082526025908201527f45524332303a2064656372656173656420616c6c6f77616e63652062656c6f77604082015264207a65726f60d81b606082015260800190565b6020808252602f908201527f416363657373436f6e74726f6c3a2063616e206f6e6c792072656e6f756e636560408201526e103937b632b9903337b91039b2b63360891b606082015260800190565b6020808252601f908201527f45524332303a206d696e7420746f20746865207a65726f206164647265737300604082015260600190565b60ff91909116815260200190565b6000821982111561177857611778611831565b500190565b600081600019048311821515161561179757611797611831565b500290565b6000828210156117ae576117ae611831565b500390565b60005b838110156117ce5781810151838201526020016117b6565b838111156109495750506000910152565b6000816117ee576117ee611831565b506000190190565b60028104600182168061180a57607f821691505b6020821081141561182b57634e487b7160e01b600052602260045260246000fd5b50919050565b634e487b7160e01b600052601160045260246000fdfea26469706673582212200631c1ed47c72c7440e6270a4fe15f6849c07a29fd0bb05231a34749cbd74d8264736f6c634300080000338502233096d909befbda0999bb8ea2f3a6be3c138b9fbf003752a4c8bce86f6c1179bec0ccbe6d15ea750b5422555e189e0fa411a2104da6763fedb6c73c1470",
  "immutableReferences": {},
  "source": "// SPDX-License-Identifier: MIT\npragma solidity 0.8.0;\n\nimport \"@openzeppelin/contracts/token/ERC20/extensions/ERC20Burnable.sol\";\nimport \"@openzeppelin/contracts/token/ERC20/ERC20.sol\";\nimport \"@openzeppelin/contracts/access/AccessControlEnumerable.sol\";\nimport \"@openzeppelin/contracts/utils/Context.sol\";\n\n/**\n * @dev {ERC20} token, including:\n *\n *  - Preminted initial supply\n *  - Ability for holders to burn (destroy) their tokens\n *  - No access control mechanism (for minting/pausing) and hence no governance\n *\n * This contract uses {ERC20Burnable} to include burn capabilities - head to\n * its documentation for details.\n *\n * _Available since v3.4._\n */\ncontract Point is Context, AccessControlEnumerable, ERC20Burnable {\n    bytes32 public constant MINTER_ROLE = keccak256(\"MINTER_ROLE\");\n    bytes32 public constant TRANSFER_ROLE = keccak256(\"TRANSFER_ROLE\");\n    bytes32 public constant TRANSFER_ROLE_ADMIN = keccak256(\"TRANSFER_ROLE_ADMIN\");\n\n    uint256 public startTradableTime;\n\n    /**\n     * @dev Grants `DEFAULT_ADMIN_ROLE` to the\n     * community factory contract,\n     * then community factory will grant mint role to the community.\n     *\n     * See {ERC20-constructor}.\n     */\n    constructor(string memory name, \n    string memory symbol, \n    uint256 _startTradableTime,\n    uint256 initialSupply,\n    address owner,\n    address communityFactory) ERC20(name, symbol) {\n        startTradableTime = _startTradableTime;\n        _setRoleAdmin(TRANSFER_ROLE, TRANSFER_ROLE_ADMIN);\n        _setupRole(DEFAULT_ADMIN_ROLE, communityFactory);\n        _setupRole(TRANSFER_ROLE_ADMIN, owner);\n        _mint(owner, initialSupply);\n    }\n    /**\n     * @dev Creates `amount` new tokens for `to`.\n     *\n     * See {ERC20-_mint}.\n     *\n     * Requirements:\n     *\n     * - the caller must have the `MINTER_ROLE`.\n     */\n    function mint(address to, uint256 amount) external virtual {\n        require(hasRole(MINTER_ROLE, _msgSender()), \"ERC20PresetMinterPauser: must have minter role to mint\");\n        _mint(to, amount);\n    }\n\n    function supportsInterface(bytes4 interfaceId) public view virtual override returns (bool) {\n        return interfaceId == bytes4(keccak256('DelayTransactionPoint'))\n                || super.supportsInterface(interfaceId);\n    }\n\n    function _beforeTokenTransfer(\n        address from,\n        address to,\n        uint256 amount\n    ) internal virtual override(ERC20) {\n        if (from != address(0) && to != address(0) && !hasRole(TRANSFER_ROLE, from) && !hasRole(TRANSFER_ROLE, to)) {\n            // can mint or burn point\n            require(block.timestamp > startTradableTime, \"Token can't tradable right now\");\n        }\n        super._beforeTokenTransfer(from, to, amount);\n    }\n}",
  "sourcePath": "/Users/wangxi/work/Walnut-V2/nutbox-contract/contracts/community-token/Point.sol",
  "compiler": {
    "name": "solc",
    "version": "0.8.0+commit.c7dfd78e.Emscripten.clang"
  },
  "schemaVersion": "3.4.14",
  "updatedAt": "2024-06-20T15:00:49.674Z",
  "devdoc": {
    "details": "{ERC20} token, including:  - Preminted initial supply  - Ability for holders to burn (destroy) their tokens  - No access control mechanism (for minting/pausing) and hence no governance This contract uses {ERC20Burnable} to include burn capabilities - head to its documentation for details. _Available since v3.4._",
    "kind": "dev",
    "methods": {
      "allowance(address,address)": {
        "details": "See {IERC20-allowance}."
      },
      "approve(address,uint256)": {
        "details": "See {IERC20-approve}. NOTE: If `amount` is the maximum `uint256`, the allowance is not updated on `transferFrom`. This is semantically equivalent to an infinite approval. Requirements: - `spender` cannot be the zero address."
      },
      "balanceOf(address)": {
        "details": "See {IERC20-balanceOf}."
      },
      "burn(uint256)": {
        "details": "Destroys `amount` tokens from the caller. See {ERC20-_burn}."
      },
      "burnFrom(address,uint256)": {
        "details": "Destroys `amount` tokens from `account`, deducting from the caller's allowance. See {ERC20-_burn} and {ERC20-allowance}. Requirements: - the caller must have allowance for ``accounts``'s tokens of at least `amount`."
      },
      "constructor": {
        "details": "Grants `DEFAULT_ADMIN_ROLE` to the community factory contract, then community factory will grant mint role to the community. See {ERC20-constructor}."
      },
      "decimals()": {
        "details": "Returns the number of decimals used to get its user representation. For example, if `decimals` equals `2`, a balance of `505` tokens should be displayed to a user as `5.05` (`505 / 10 ** 2`). Tokens usually opt for a value of 18, imitating the relationship between Ether and Wei. This is the default value returned by this function, unless it's overridden. NOTE: This information is only used for _display_ purposes: it in no way affects any of the arithmetic of the contract, including {IERC20-balanceOf} and {IERC20-transfer}."
      },
      "decreaseAllowance(address,uint256)": {
        "details": "Atomically decreases the allowance granted to `spender` by the caller. This is an alternative to {approve} that can be used as a mitigation for problems described in {IERC20-approve}. Emits an {Approval} event indicating the updated allowance. Requirements: - `spender` cannot be the zero address. - `spender` must have allowance for the caller of at least `subtractedValue`."
      },
      "getRoleAdmin(bytes32)": {
        "details": "Returns the admin role that controls `role`. See {grantRole} and {revokeRole}. To change a role's admin, use {_setRoleAdmin}."
      },
      "getRoleMember(bytes32,uint256)": {
        "details": "Returns one of the accounts that have `role`. `index` must be a value between 0 and {getRoleMemberCount}, non-inclusive. Role bearers are not sorted in any particular way, and their ordering may change at any point. WARNING: When using {getRoleMember} and {getRoleMemberCount}, make sure you perform all queries on the same block. See the following https://forum.openzeppelin.com/t/iterating-over-elements-on-enumerableset-in-openzeppelin-contracts/2296[forum post] for more information."
      },
      "getRoleMemberCount(bytes32)": {
        "details": "Returns the number of accounts that have `role`. Can be used together with {getRoleMember} to enumerate all bearers of a role."
      },
      "grantRole(bytes32,address)": {
        "details": "Grants `role` to `account`. If `account` had not been already granted `role`, emits a {RoleGranted} event. Requirements: - the caller must have ``role``'s admin role. May emit a {RoleGranted} event."
      },
      "hasRole(bytes32,address)": {
        "details": "Returns `true` if `account` has been granted `role`."
      },
      "increaseAllowance(address,uint256)": {
        "details": "Atomically increases the allowance granted to `spender` by the caller. This is an alternative to {approve} that can be used as a mitigation for problems described in {IERC20-approve}. Emits an {Approval} event indicating the updated allowance. Requirements: - `spender` cannot be the zero address."
      },
      "mint(address,uint256)": {
        "details": "Creates `amount` new tokens for `to`. See {ERC20-_mint}. Requirements: - the caller must have the `MINTER_ROLE`."
      },
      "name()": {
        "details": "Returns the name of the token."
      },
      "renounceRole(bytes32,address)": {
        "details": "Revokes `role` from the calling account. Roles are often managed via {grantRole} and {revokeRole}: this function's purpose is to provide a mechanism for accounts to lose their privileges if they are compromised (such as when a trusted device is misplaced). If the calling account had been revoked `role`, emits a {RoleRevoked} event. Requirements: - the caller must be `account`. May emit a {RoleRevoked} event."
      },
      "revokeRole(bytes32,address)": {
        "details": "Revokes `role` from `account`. If `account` had been granted `role`, emits a {RoleRevoked} event. Requirements: - the caller must have ``role``'s admin role. May emit a {RoleRevoked} event."
      },
      "supportsInterface(bytes4)": {
        "details": "See {IERC165-supportsInterface}."
      },
      "symbol()": {
        "details": "Returns the symbol of the token, usually a shorter version of the name."
      },
      "totalSupply()": {
        "details": "See {IERC20-totalSupply}."
      },
      "transfer(address,uint256)": {
        "details": "See {IERC20-transfer}. Requirements: - `to` cannot be the zero address. - the caller must have a balance of at least `amount`."
      },
      "transferFrom(address,address,uint256)": {
        "details": "See {IERC20-transferFrom}. Emits an {Approval} event indicating the updated allowance. This is not required by the EIP. See the note at the beginning of {ERC20}. NOTE: Does not update the allowance if the current allowance is the maximum `uint256`. Requirements: - `from` and `to` cannot be the zero address. - `from` must have a balance of at least `amount`. - the caller must have allowance for ``from``'s tokens of at least `amount`."
      }
    },
    "version": 1
  },
  "userdoc": {
    "kind": "user",
    "methods": {},
    "version": 1
  }
}