{
  "contractName": "Popup",
  "abi": [
    {
      "anonymous": false,
      "inputs": [
        {
          "indexed": true,
          "internalType": "address",
          "name": "owner",
          "type": "address"
        },
        {
          "indexed": true,
          "internalType": "address",
          "name": "token",
          "type": "address"
        },
        {
          "indexed": false,
          "internalType": "uint256",
          "name": "bonus",
          "type": "uint256"
        },
        {
          "indexed": false,
          "internalType": "uint256",
          "name": "endTime",
          "type": "uint256"
        }
      ],
      "name": "NewPopup",
      "type": "event"
    },
    {
      "anonymous": false,
      "inputs": [
        {
          "indexed": true,
          "internalType": "address",
          "name": "previousOwner",
          "type": "address"
        },
        {
          "indexed": true,
          "internalType": "address",
          "name": "newOwner",
          "type": "address"
        }
      ],
      "name": "OwnershipTransferred",
      "type": "event"
    },
    {
      "anonymous": false,
      "inputs": [
        {
          "indexed": true,
          "internalType": "uint256",
          "name": "curationId",
          "type": "uint256"
        },
        {
          "indexed": false,
          "internalType": "uint256",
          "name": "popupTweetId",
          "type": "uint256"
        },
        {
          "indexed": false,
          "internalType": "uint8",
          "name": "state",
          "type": "uint8"
        }
      ],
      "name": "StateChange",
      "type": "event"
    },
    {
      "inputs": [],
      "name": "fee",
      "outputs": [
        {
          "internalType": "uint256",
          "name": "",
          "type": "uint256"
        }
      ],
      "stateMutability": "view",
      "type": "function"
    },
    {
      "inputs": [],
      "name": "max_winners",
      "outputs": [
        {
          "internalType": "uint256",
          "name": "",
          "type": "uint256"
        }
      ],
      "stateMutability": "view",
      "type": "function"
    },
    {
      "inputs": [],
      "name": "owner",
      "outputs": [
        {
          "internalType": "address",
          "name": "",
          "type": "address"
        }
      ],
      "stateMutability": "view",
      "type": "function"
    },
    {
      "inputs": [],
      "name": "renounceOwnership",
      "outputs": [],
      "stateMutability": "nonpayable",
      "type": "function"
    },
    {
      "inputs": [
        {
          "internalType": "address",
          "name": "newOwner",
          "type": "address"
        }
      ],
      "name": "transferOwnership",
      "outputs": [],
      "stateMutability": "nonpayable",
      "type": "function"
    },
    {
      "inputs": [
        {
          "internalType": "uint256",
          "name": "popupTweetId",
          "type": "uint256"
        }
      ],
      "name": "getPopup",
      "outputs": [
        {
          "components": [
            {
              "internalType": "bytes32",
              "name": "seed",
              "type": "bytes32"
            },
            {
              "internalType": "address",
              "name": "owner",
              "type": "address"
            },
            {
              "internalType": "uint256",
              "name": "curationId",
              "type": "uint256"
            },
            {
              "internalType": "uint256",
              "name": "popupTweetId",
              "type": "uint256"
            },
            {
              "internalType": "enum Popup.PopupState",
              "name": "status",
              "type": "uint8"
            },
            {
              "internalType": "uint256",
              "name": "endTime",
              "type": "uint256"
            },
            {
              "internalType": "uint256",
              "name": "winnerCount",
              "type": "uint256"
            },
            {
              "internalType": "address",
              "name": "token",
              "type": "address"
            },
            {
              "internalType": "uint256",
              "name": "bonus",
              "type": "uint256"
            },
            {
              "components": [
                {
                  "internalType": "address",
                  "name": "user",
                  "type": "address"
                },
                {
                  "internalType": "uint256",
                  "name": "amount",
                  "type": "uint256"
                },
                {
                  "internalType": "uint256",
                  "name": "twitterId",
                  "type": "uint256"
                },
                {
                  "internalType": "uint256",
                  "name": "index",
                  "type": "uint256"
                }
              ],
              "internalType": "struct Popup.RewardInfo[]",
              "name": "rewards",
              "type": "tuple[]"
            }
          ],
          "internalType": "struct Popup.PopupInfo",
          "name": "info",
          "type": "tuple"
        }
      ],
      "stateMutability": "view",
      "type": "function"
    },
    {
      "inputs": [
        {
          "internalType": "uint256",
          "name": "curationId",
          "type": "uint256"
        }
      ],
      "name": "getPopupByCuration",
      "outputs": [
        {
          "components": [
            {
              "internalType": "bytes32",
              "name": "seed",
              "type": "bytes32"
            },
            {
              "internalType": "address",
              "name": "owner",
              "type": "address"
            },
            {
              "internalType": "uint256",
              "name": "curationId",
              "type": "uint256"
            },
            {
              "internalType": "uint256",
              "name": "popupTweetId",
              "type": "uint256"
            },
            {
              "internalType": "enum Popup.PopupState",
              "name": "status",
              "type": "uint8"
            },
            {
              "internalType": "uint256",
              "name": "endTime",
              "type": "uint256"
            },
            {
              "internalType": "uint256",
              "name": "winnerCount",
              "type": "uint256"
            },
            {
              "internalType": "address",
              "name": "token",
              "type": "address"
            },
            {
              "internalType": "uint256",
              "name": "bonus",
              "type": "uint256"
            },
            {
              "components": [
                {
                  "internalType": "address",
                  "name": "user",
                  "type": "address"
                },
                {
                  "internalType": "uint256",
                  "name": "amount",
                  "type": "uint256"
                },
                {
                  "internalType": "uint256",
                  "name": "twitterId",
                  "type": "uint256"
                },
                {
                  "internalType": "uint256",
                  "name": "index",
                  "type": "uint256"
                }
              ],
              "internalType": "struct Popup.RewardInfo[]",
              "name": "rewards",
              "type": "tuple[]"
            }
          ],
          "internalType": "struct Popup.PopupInfo[]",
          "name": "",
          "type": "tuple[]"
        }
      ],
      "stateMutability": "view",
      "type": "function"
    },
    {
      "inputs": [
        {
          "internalType": "uint256",
          "name": "_fee",
          "type": "uint256"
        }
      ],
      "name": "setFee",
      "outputs": [],
      "stateMutability": "nonpayable",
      "type": "function"
    },
    {
      "inputs": [
        {
          "internalType": "uint256",
          "name": "curationId",
          "type": "uint256"
        },
        {
          "internalType": "uint256",
          "name": "popupTweetId",
          "type": "uint256"
        },
        {
          "internalType": "uint256",
          "name": "endTime",
          "type": "uint256"
        },
        {
          "internalType": "uint256",
          "name": "winnerCount",
          "type": "uint256"
        },
        {
          "internalType": "address",
          "name": "token",
          "type": "address"
        },
        {
          "internalType": "uint256",
          "name": "bonus",
          "type": "uint256"
        }
      ],
      "name": "createPopup",
      "outputs": [],
      "stateMutability": "payable",
      "type": "function"
    },
    {
      "inputs": [
        {
          "internalType": "bytes32",
          "name": "seed",
          "type": "bytes32"
        },
        {
          "internalType": "uint256",
          "name": "popupTweetId",
          "type": "uint256"
        },
        {
          "components": [
            {
              "internalType": "address",
              "name": "user",
              "type": "address"
            },
            {
              "internalType": "uint256",
              "name": "amount",
              "type": "uint256"
            },
            {
              "internalType": "uint256",
              "name": "twitterId",
              "type": "uint256"
            },
            {
              "internalType": "uint256",
              "name": "index",
              "type": "uint256"
            }
          ],
          "internalType": "struct Popup.RewardInfo[]",
          "name": "rewards",
          "type": "tuple[]"
        }
      ],
      "name": "commitReward",
      "outputs": [],
      "stateMutability": "nonpayable",
      "type": "function"
    },
    {
      "inputs": [
        {
          "internalType": "uint256",
          "name": "popupTweetId",
          "type": "uint256"
        }
      ],
      "name": "distribute",
      "outputs": [],
      "stateMutability": "nonpayable",
      "type": "function"
    }
  ],
  "bytecode": "0x6080604052606460025534801561001557600080fd5b5061001f33610024565b610074565b600080546001600160a01b038381166001600160a01b0319831681178455604051919092169283917f8be0079c531659141344cd1fd0a4f28419497f9722a3daafe3b4186f6b6457e09190a35050565b611544806100836000396000f3fe60806040526004361061009c5760003560e01c8063715018a611610064578063715018a614610150578063759e9dbd146101655780638da5cb5b1461019257806391c05b0b146101ba578063ddca3f43146101da578063f2fde38b146101f057600080fd5b806305a0dcca146100a15780630c7c059b146100d75780635349995c146100f95780635e4931fa1461010c57806369fe0e2d14610130575b600080fd5b3480156100ad57600080fd5b506100c16100bc3660046110fa565b610210565b6040516100ce9190611257565b60405180910390f35b3480156100e357600080fd5b506100f76100f2366004611271565b610373565b005b6100f7610107366004611309565b610626565b34801561011857600080fd5b5061012260025481565b6040519081526020016100ce565b34801561013c57600080fd5b506100f761014b3660046110fa565b610955565b34801561015c57600080fd5b506100f7610962565b34801561017157600080fd5b506101856101803660046110fa565b610976565b6040516100ce919061135e565b34801561019e57600080fd5b506000546040516001600160a01b0390911681526020016100ce565b3480156101c657600080fd5b506100f76101d53660046110fa565b610bb4565b3480156101e657600080fd5b5061012260015481565b3480156101fc57600080fd5b506100f761020b3660046113c0565b610daa565b61021861109e565b6000828152600360208181526040928390208351610140810185528154815260018201546001600160a01b0316928101929092526002810154938201939093528282015460608201526004830154909291608084019160ff169081111561028157610281611113565b600381111561029257610292611113565b815260200160058201548152602001600682015481526020016007820160009054906101000a90046001600160a01b03166001600160a01b03166001600160a01b031681526020016008820154815260200160098201805480602002602001604051908101604052809291908181526020016000905b82821015610365576000848152602090819020604080516080810182526004860290920180546001600160a01b03168352600180820154848601526002820154928401929092526003015460608301529083529092019101610308565b505050915250909392505050565b61037b610e23565b60008381526003602052604090206009810154156103d45760405162461bcd60e51b8152602060048201526011602482015270185b1c9958591e481cdd589b5a5d1d1959607a1b60448201526064015b60405180910390fd5b6000600482015460ff1660038111156103ef576103ef611113565b146104545760405162461bcd60e51b815260206004820152602f60248201527f4120706f70757020696e2061206e6f726d616c2073746174652063616e206f6e60448201526e1b1e481899481cdd589b5a5d1d1959608a1b60648201526084016103cb565b600681015482111561049a5760405162461bcd60e51b815260206004820152600f60248201526e696e76616c6964207265776172647360881b60448201526064016103cb565b42816005015411156104e55760405162461bcd60e51b8152602060048201526014602482015273115b99081d1a5b59481b9bdd081c995858da195960621b60448201526064016103cb565b6000805b8381101561057357848482818110610503576105036113dd565b90506080020160200135826105189190611409565b915082600901858583818110610530576105306113dd565b83546001810185556000948552602090942060809091029290920192600402909101905061055e8282611421565b5050808061056b90611469565b9150506104e9565b508015806105845750816008015481145b6105c85760405162461bcd60e51b81526020600482015260156024820152741a5b9d985b1a59081c995dd85c9908185b5bdd5b9d605a1b60448201526064016103cb565b85825560048201805460ff19166001908117909155600283015460408051888152602081019390935290917ff8718717b9a650b7d700d2f50912a63c881f549a03c06f84dd25a8028a94fb12910160405180910390a2505050505050565b60025483111561066e5760405162461bcd60e51b81526020600482015260136024820152721a5b9d985b1a59081dda5b9b995c90dbdd5b9d606a1b60448201526064016103cb565b600085815260036020526040902060050154156106c65760405162461bcd60e51b8152602060048201526016602482015275141bdc1d5c081a185cc81899595b8818dc99585d195960521b60448201526064016103cb565b61271081101561070a5760405162461bcd60e51b815260206004820152600f60248201526e189bdb9d5cc81d1bdbc81cdb585b1b608a1b60448201526064016103cb565b6040516370a0823160e01b815233600482015281906001600160a01b038416906370a0823190602401602060405180830381865afa158015610750573d6000803e3d6000fd5b505050506040513d601f19601f820116820180604052508101906107749190611482565b10156107b95760405162461bcd60e51b8152602060048201526014602482015273496e73756666696369656e742062616c616e636560601b60448201526064016103cb565b4284116107f95760405162461bcd60e51b815260206004820152600e60248201526d57726f6e6720656e642074696d6560901b60448201526064016103cb565b6001541561087c576001543410156108405760405162461bcd60e51b815260206004820152600a602482015269696e766c69642066656560b01b60448201526064016103cb565b600080546040516001600160a01b03909116913480156108fc02929091818181858888f1935050505015801561087a573d6000803e3d6000fd5b505b61088882333084610e7d565b6000858152600360208181526040808420600180820180546001600160a01b031990811633908117909255600284018e90559583018c9055600583018b9055600683018a90556007830180546001600160a01b038b16971687179055600883018890556004928301805460ff191690558c87529184528286208054918201815586529483902090940189905580518581529182018890529192917ff5e0e27156c9b09610f312a424905ca6088f7bb3950eb386d7a7ff782a8a69b9910160405180910390a3505050505050565b61095d610e23565b600155565b61096a610e23565b6109746000610e91565b565b6000818152600460205260408120546060919067ffffffffffffffff8111156109a1576109a161149b565b6040519080825280602002602001820160405280156109da57816020015b6109c761109e565b8152602001906001900390816109bf5790505b50905060005b600084815260046020526040902054811015610bad5760008481526004602052604081208054600392919084908110610a1b57610a1b6113dd565b6000918252602080832090910154835282810193909352604091820190208151610140810183528154815260018201546001600160a01b03169381019390935260028101549183019190915260038082015460608401526004820154608084019160ff90911690811115610a9157610a91611113565b6003811115610aa257610aa2611113565b815260200160058201548152602001600682015481526020016007820160009054906101000a90046001600160a01b03166001600160a01b03166001600160a01b031681526020016008820154815260200160098201805480602002602001604051908101604052809291908181526020016000905b82821015610b75576000848152602090819020604080516080810182526004860290920180546001600160a01b03168352600180820154848601526002820154928401929092526003015460608301529083529092019101610b18565b5050505081525050828281518110610b8f57610b8f6113dd565b60200260200101819052508080610ba590611469565b9150506109e0565b5092915050565b60008181526003602052604090206001600482015460ff166003811115610bdd57610bdd611113565b14610c425760405162461bcd60e51b815260206004820152602f60248201527f4120706f70757020696e206120656e6465642073746174652063616e206f6e6c60448201526e79206265206469737472696275746560881b60648201526084016103cb565b6009810154600003610cc65760048101805460ff19166003179055600781015460018201546008830154610c83926001600160a01b03908116921690610ee1565b600281015460408051848152600360208201527ff8718717b9a650b7d700d2f50912a63c881f549a03c06f84dd25a8028a94fb1291015b60405180910390a25050565b60048101805460ff1916600217905560005b6009820154811015610d6a576007820154600983018054610d58926001600160a01b0316919084908110610d0e57610d0e6113dd565b60009182526020909120600490910201546009850180546001600160a01b039092169185908110610d4157610d416113dd565b906000526020600020906004020160010154610ee1565b80610d6281611469565b915050610cd8565b5060028181015460408051858152602081019390935290917ff8718717b9a650b7d700d2f50912a63c881f549a03c06f84dd25a8028a94fb129101610cba565b610db2610e23565b6001600160a01b038116610e175760405162461bcd60e51b815260206004820152602660248201527f4f776e61626c653a206e6577206f776e657220697320746865207a65726f206160448201526564647265737360d01b60648201526084016103cb565b610e2081610e91565b50565b6000546001600160a01b031633146109745760405162461bcd60e51b815260206004820181905260248201527f4f776e61626c653a2063616c6c6572206973206e6f7420746865206f776e657260448201526064016103cb565b83610e8a81858585610ef3565b5050505050565b600080546001600160a01b038381166001600160a01b0319831681178455604051919092169283917f8be0079c531659141344cd1fd0a4f28419497f9722a3daafe3b4186f6b6457e09190a35050565b82610eed818484610f5e565b50505050565b6040516001600160a01b0380851660248301528316604482015260648101829052610eed9085906323b872dd60e01b906084015b60408051601f198184030181529190526020810180516001600160e01b03166001600160e01b031990931692909217909152610f93565b6040516001600160a01b038316602482015260448101829052610f8e90849063a9059cbb60e01b90606401610f27565b505050565b600080836001600160a01b031683604051610fae91906114b1565b6000604051808303816000865af19150503d8060008114610feb576040519150601f19603f3d011682016040523d82523d6000602084013e610ff0565b606091505b5091509150816110375760405162461bcd60e51b8152602060048201526012602482015271115490cc8c0e8818d85b1b0819985a5b195960721b60448201526064016103cb565b805115610eed578080602001905181019061105291906114ec565b610eed5760405162461bcd60e51b815260206004820181905260248201527f45524332303a206f7065726174696f6e20646964206e6f74207375636365656460448201526064016103cb565b6040805161014081018252600080825260208201819052918101829052606081018290529060808201908152602001600081526020016000815260200160006001600160a01b0316815260200160008152602001606081525090565b60006020828403121561110c57600080fd5b5035919050565b634e487b7160e01b600052602160045260246000fd5b6004811061114757634e487b7160e01b600052602160045260246000fd5b9052565b600081518084526020808501945080840160005b838110156111a457815180516001600160a01b03168852838101518489015260408082015190890152606090810151908801526080909601959082019060010161115f565b509495945050505050565b60006101408251845260208301516111d260208601826001600160a01b03169052565b50604083015160408501526060830151606085015260808301516111f96080860182611129565b5060a083015160a085015260c083015160c085015260e083015161122860e08601826001600160a01b03169052565b5061010080840151818601525061012080840151828287015261124d8387018261114b565b9695505050505050565b60208152600061126a60208301846111af565b9392505050565b6000806000806060858703121561128757600080fd5b8435935060208501359250604085013567ffffffffffffffff808211156112ad57600080fd5b818701915087601f8301126112c157600080fd5b8135818111156112d057600080fd5b8860208260071b85010111156112e557600080fd5b95989497505060200194505050565b6001600160a01b0381168114610e2057600080fd5b60008060008060008060c0878903121561132257600080fd5b863595506020870135945060408701359350606087013592506080870135611349816112f4565b8092505060a087013590509295509295509295565b6000602080830181845280855180835260408601915060408160051b870101925083870160005b828110156113b357603f198886030184526113a18583516111af565b94509285019290850190600101611385565b5092979650505050505050565b6000602082840312156113d257600080fd5b813561126a816112f4565b634e487b7160e01b600052603260045260246000fd5b634e487b7160e01b600052601160045260246000fd5b6000821982111561141c5761141c6113f3565b500190565b813561142c816112f4565b81546001600160a01b0319166001600160a01b03919091161781556020820135600182015560408201356002820155606090910135600390910155565b60006001820161147b5761147b6113f3565b5060010190565b60006020828403121561149457600080fd5b5051919050565b634e487b7160e01b600052604160045260246000fd5b6000825160005b818110156114d257602081860181015185830152016114b8565b818111156114e1576000828501525b509190910192915050565b6000602082840312156114fe57600080fd5b8151801515811461126a57600080fdfea264697066735822122014220a4234bc99ec4243bde856d6521a6171d479d8cb0908f81df74307e6c87364736f6c634300080d0033",
  "immutableReferences": {},
  "source": "// SPDX-License-Identifier: MIT\npragma solidity ^0.8.0;\npragma experimental ABIEncoderV2;\n\nimport \"@openzeppelin/contracts/access/Ownable.sol\";\nimport \"@openzeppelin/contracts/token/ERC20/ERC20.sol\";\nimport \"./ERC20Helper.sol\";\n\ncontract Popup is Ownable, ERC20Helper {\n    enum PopupState {\n        normal,\n        ended,\n        distributed,\n        closed\n    }\n\n    struct PopupInfo {\n        bytes32 seed;   // Seed for off-chain random\n        address owner; // who create this popup\n        uint256 curationId; // curation task id\n        uint256 popupTweetId; // popup tweet id\n        PopupState status;\n        uint256 endTime;\n        uint256 winnerCount; // Number of winners\n        address token; // reward token\n        uint256 bonus; // reward amount\n        RewardInfo[] rewards;\n    }\n\n    struct RewardInfo {\n        address user;\n        uint256 amount;\n        uint256 twitterId;\n        uint256 index;\n    }\n\n    /// fee\n    uint256 public fee;\n\n    /// Maximum number of winners\n    uint256 public max_winners = 100;\n\n    event NewPopup(address indexed owner, address indexed token, uint256 bonus, uint256 endTime);\n    event StateChange(uint256 indexed curationId, uint256 popupTweetId, uint8 state);\n\n    // popup twitter id => PopupInfo\n    mapping(uint256 => PopupInfo) popupList;\n\n    // curation Id => [popup twitter id]\n    mapping(uint256 => uint256[]) curationList;\n\n    function getPopup(uint256 popupTweetId) public view returns (PopupInfo memory info) {\n        info = popupList[popupTweetId];\n    }\n\n    function getPopupByCuration(uint256 curationId) public view returns (PopupInfo[] memory) {\n        PopupInfo[] memory ps = new PopupInfo[](curationList[curationId].length);\n        for (uint256 i = 0; i < curationList[curationId].length; i++) {\n            ps[i] = popupList[curationList[curationId][i]];\n        }\n        return ps;\n    }\n\n    function setFee(uint256 _fee) public onlyOwner {\n        fee = _fee;\n    }\n\n    function createPopup(\n        uint256 curationId,\n        uint256 popupTweetId,\n        uint256 endTime,\n        uint256 winnerCount,\n        address token,\n        uint256 bonus\n    ) public payable {\n        require(winnerCount <= max_winners, \"invalid winnerCount\");\n        require(popupList[popupTweetId].endTime == 0, \"Popup has been created\");\n        require(bonus >= 10000, \"bonus too small\");\n        require(ERC20(token).balanceOf(msg.sender) >= bonus, \"Insufficient balance\");\n        require(endTime > block.timestamp, \"Wrong end time\");\n        if (fee > 0) {\n            require(msg.value >= fee, \"invlid fee\");\n            payable(owner()).transfer(msg.value);\n        }\n        lockERC20(token, msg.sender, address(this), bonus);\n\n        popupList[popupTweetId].owner = msg.sender;\n        popupList[popupTweetId].curationId = curationId;\n        popupList[popupTweetId].popupTweetId = popupTweetId;\n        popupList[popupTweetId].endTime = endTime;\n        popupList[popupTweetId].winnerCount = winnerCount;\n        popupList[popupTweetId].token = token;\n        popupList[popupTweetId].bonus = bonus;\n        popupList[popupTweetId].status = PopupState.normal;\n\n        curationList[curationId].push(popupTweetId);\n\n        emit NewPopup(msg.sender, token, bonus, endTime);\n    }\n\n    function commitReward(\n        bytes32 seed,\n        uint256 popupTweetId,\n        RewardInfo[] calldata rewards\n    ) public onlyOwner {\n        PopupInfo storage popup = popupList[popupTweetId];\n        require(popup.rewards.length == 0, \"already submitted\");\n        require(popup.status == PopupState.normal, \"A popup in a normal state can only be submitted\");\n        require(popup.winnerCount >= rewards.length, \"invalid rewards\");\n        require(popup.endTime <= block.timestamp, \"End time not reached\");\n\n        uint256 amount = 0;\n        for (uint256 i = 0; i < rewards.length; i++) {\n            amount += rewards[i].amount;\n            popup.rewards.push(rewards[i]);\n        }\n        require(amount == 0 || amount == popup.bonus, \"invalid reward amount\");\n\n        popup.seed = seed;\n        popup.status = PopupState.ended;\n\n        emit StateChange(popup.curationId, popupTweetId, uint8(PopupState.ended));\n    }\n\n    function distribute(uint256 popupTweetId) public {\n        PopupInfo storage popup = popupList[popupTweetId];\n        require(popup.status == PopupState.ended, \"A popup in a ended state can only be distribute\");\n        if (popup.rewards.length == 0) {\n            popup.status = PopupState.closed;\n            releaseERC20(popup.token, popup.owner, popup.bonus);\n            emit StateChange(popup.curationId, popupTweetId, uint8(PopupState.closed));\n        } else {\n            popup.status = PopupState.distributed;\n            for (uint256 i = 0; i < popup.rewards.length; i++) {\n                releaseERC20(popup.token, popup.rewards[i].user, popup.rewards[i].amount);\n            }\n            emit StateChange(popup.curationId, popupTweetId, uint8(PopupState.distributed));\n        }\n    }\n}\n",
  "sourcePath": "/Users/wangxi/work/Walnut-V2/nutbox-contract/contracts/Popup.sol",
  "compiler": {
    "name": "solc",
    "version": "0.8.13+commit.abaa5c0e.Emscripten.clang"
  },
  "schemaVersion": "3.3.4",
  "updatedAt": "2024-06-25T07:57:02.463Z",
  "devdoc": {
    "kind": "dev",
    "methods": {
      "owner()": {
        "details": "Returns the address of the current owner."
      },
      "renounceOwnership()": {
        "details": "Leaves the contract without owner. It will not be possible to call `onlyOwner` functions. Can only be called by the current owner. NOTE: Renouncing ownership will leave the contract without an owner, thereby disabling any functionality that is only available to the owner."
      },
      "transferOwnership(address)": {
        "details": "Transfers ownership of the contract to a new account (`newOwner`). Can only be called by the current owner."
      }
    },
    "version": 1
  },
  "userdoc": {
    "kind": "user",
    "methods": {
      "fee()": {
        "notice": "fee"
      },
      "max_winners()": {
        "notice": "Maximum number of winners"
      }
    },
    "version": 1
  }
}