{
  "contractName": "Popup",
  "abi": [
    {
      "anonymous": false,
      "inputs": [
        {
          "indexed": true,
          "internalType": "address",
          "name": "owner",
          "type": "address"
        },
        {
          "indexed": true,
          "internalType": "address",
          "name": "token",
          "type": "address"
        },
        {
          "indexed": false,
          "internalType": "uint256",
          "name": "bonus",
          "type": "uint256"
        },
        {
          "indexed": false,
          "internalType": "uint256",
          "name": "endTime",
          "type": "uint256"
        }
      ],
      "name": "NewPopup",
      "type": "event"
    },
    {
      "anonymous": false,
      "inputs": [
        {
          "indexed": true,
          "internalType": "address",
          "name": "previousOwner",
          "type": "address"
        },
        {
          "indexed": true,
          "internalType": "address",
          "name": "newOwner",
          "type": "address"
        }
      ],
      "name": "OwnershipTransferred",
      "type": "event"
    },
    {
      "anonymous": false,
      "inputs": [
        {
          "indexed": true,
          "internalType": "uint256",
          "name": "curationId",
          "type": "uint256"
        },
        {
          "indexed": false,
          "internalType": "uint256",
          "name": "popupTweetId",
          "type": "uint256"
        },
        {
          "indexed": false,
          "internalType": "uint8",
          "name": "state",
          "type": "uint8"
        }
      ],
      "name": "StateChange",
      "type": "event"
    },
    {
      "inputs": [],
      "name": "fee",
      "outputs": [
        {
          "internalType": "uint256",
          "name": "",
          "type": "uint256"
        }
      ],
      "stateMutability": "view",
      "type": "function"
    },
    {
      "inputs": [],
      "name": "max_winners",
      "outputs": [
        {
          "internalType": "uint256",
          "name": "",
          "type": "uint256"
        }
      ],
      "stateMutability": "view",
      "type": "function"
    },
    {
      "inputs": [],
      "name": "owner",
      "outputs": [
        {
          "internalType": "address",
          "name": "",
          "type": "address"
        }
      ],
      "stateMutability": "view",
      "type": "function"
    },
    {
      "inputs": [],
      "name": "renounceOwnership",
      "outputs": [],
      "stateMutability": "nonpayable",
      "type": "function"
    },
    {
      "inputs": [
        {
          "internalType": "address",
          "name": "newOwner",
          "type": "address"
        }
      ],
      "name": "transferOwnership",
      "outputs": [],
      "stateMutability": "nonpayable",
      "type": "function"
    },
    {
      "inputs": [
        {
          "internalType": "uint256",
          "name": "popupTweetId",
          "type": "uint256"
        }
      ],
      "name": "getPopup",
      "outputs": [
        {
          "components": [
            {
              "internalType": "bytes32",
              "name": "seed",
              "type": "bytes32"
            },
            {
              "internalType": "address",
              "name": "owner",
              "type": "address"
            },
            {
              "internalType": "uint256",
              "name": "curationId",
              "type": "uint256"
            },
            {
              "internalType": "uint256",
              "name": "popupTweetId",
              "type": "uint256"
            },
            {
              "internalType": "enum Popup.PopupState",
              "name": "status",
              "type": "uint8"
            },
            {
              "internalType": "uint256",
              "name": "endTime",
              "type": "uint256"
            },
            {
              "internalType": "uint256",
              "name": "winnerCount",
              "type": "uint256"
            },
            {
              "internalType": "address",
              "name": "token",
              "type": "address"
            },
            {
              "internalType": "uint256",
              "name": "bonus",
              "type": "uint256"
            },
            {
              "components": [
                {
                  "internalType": "address",
                  "name": "user",
                  "type": "address"
                },
                {
                  "internalType": "uint256",
                  "name": "amount",
                  "type": "uint256"
                },
                {
                  "internalType": "uint256",
                  "name": "twitterId",
                  "type": "uint256"
                },
                {
                  "internalType": "uint256",
                  "name": "index",
                  "type": "uint256"
                }
              ],
              "internalType": "struct Popup.RewardInfo[]",
              "name": "rewards",
              "type": "tuple[]"
            }
          ],
          "internalType": "struct Popup.PopupInfo",
          "name": "info",
          "type": "tuple"
        }
      ],
      "stateMutability": "view",
      "type": "function"
    },
    {
      "inputs": [
        {
          "internalType": "uint256",
          "name": "curationId",
          "type": "uint256"
        }
      ],
      "name": "getPopupByCuration",
      "outputs": [
        {
          "components": [
            {
              "internalType": "bytes32",
              "name": "seed",
              "type": "bytes32"
            },
            {
              "internalType": "address",
              "name": "owner",
              "type": "address"
            },
            {
              "internalType": "uint256",
              "name": "curationId",
              "type": "uint256"
            },
            {
              "internalType": "uint256",
              "name": "popupTweetId",
              "type": "uint256"
            },
            {
              "internalType": "enum Popup.PopupState",
              "name": "status",
              "type": "uint8"
            },
            {
              "internalType": "uint256",
              "name": "endTime",
              "type": "uint256"
            },
            {
              "internalType": "uint256",
              "name": "winnerCount",
              "type": "uint256"
            },
            {
              "internalType": "address",
              "name": "token",
              "type": "address"
            },
            {
              "internalType": "uint256",
              "name": "bonus",
              "type": "uint256"
            },
            {
              "components": [
                {
                  "internalType": "address",
                  "name": "user",
                  "type": "address"
                },
                {
                  "internalType": "uint256",
                  "name": "amount",
                  "type": "uint256"
                },
                {
                  "internalType": "uint256",
                  "name": "twitterId",
                  "type": "uint256"
                },
                {
                  "internalType": "uint256",
                  "name": "index",
                  "type": "uint256"
                }
              ],
              "internalType": "struct Popup.RewardInfo[]",
              "name": "rewards",
              "type": "tuple[]"
            }
          ],
          "internalType": "struct Popup.PopupInfo[]",
          "name": "",
          "type": "tuple[]"
        }
      ],
      "stateMutability": "view",
      "type": "function"
    },
    {
      "inputs": [
        {
          "internalType": "uint256",
          "name": "_fee",
          "type": "uint256"
        }
      ],
      "name": "setFee",
      "outputs": [],
      "stateMutability": "nonpayable",
      "type": "function"
    },
    {
      "inputs": [
        {
          "internalType": "uint256",
          "name": "curationId",
          "type": "uint256"
        },
        {
          "internalType": "uint256",
          "name": "popupTweetId",
          "type": "uint256"
        },
        {
          "internalType": "uint256",
          "name": "endTime",
          "type": "uint256"
        },
        {
          "internalType": "uint256",
          "name": "winnerCount",
          "type": "uint256"
        },
        {
          "internalType": "address",
          "name": "token",
          "type": "address"
        },
        {
          "internalType": "uint256",
          "name": "bonus",
          "type": "uint256"
        }
      ],
      "name": "createPopup",
      "outputs": [],
      "stateMutability": "payable",
      "type": "function"
    },
    {
      "inputs": [
        {
          "internalType": "bytes32",
          "name": "seed",
          "type": "bytes32"
        },
        {
          "internalType": "uint256",
          "name": "popupTweetId",
          "type": "uint256"
        },
        {
          "components": [
            {
              "internalType": "address",
              "name": "user",
              "type": "address"
            },
            {
              "internalType": "uint256",
              "name": "amount",
              "type": "uint256"
            },
            {
              "internalType": "uint256",
              "name": "twitterId",
              "type": "uint256"
            },
            {
              "internalType": "uint256",
              "name": "index",
              "type": "uint256"
            }
          ],
          "internalType": "struct Popup.RewardInfo[]",
          "name": "rewards",
          "type": "tuple[]"
        }
      ],
      "name": "commitReward",
      "outputs": [],
      "stateMutability": "nonpayable",
      "type": "function"
    },
    {
      "inputs": [
        {
          "internalType": "uint256",
          "name": "popupTweetId",
          "type": "uint256"
        }
      ],
      "name": "distribute",
      "outputs": [],
      "stateMutability": "nonpayable",
      "type": "function"
    }
  ],
  "bytecode": "0x6080604052606460025534801561001557600080fd5b5061001f33610024565b610074565b600080546001600160a01b038381166001600160a01b0319831681178455604051919092169283917f8be0079c531659141344cd1fd0a4f28419497f9722a3daafe3b4186f6b6457e09190a35050565b6115ab806100836000396000f3fe60806040526004361061009c5760003560e01c8063715018a611610064578063715018a614610150578063759e9dbd146101655780638da5cb5b1461019257806391c05b0b146101ba578063ddca3f43146101da578063f2fde38b146101f057600080fd5b806305a0dcca146100a15780630c7c059b146100d75780635349995c146100f95780635e4931fa1461010c57806369fe0e2d14610130575b600080fd5b3480156100ad57600080fd5b506100c16100bc36600461112c565b610210565b6040516100ce9190611289565b60405180910390f35b3480156100e357600080fd5b506100f76100f23660046112a3565b610373565b005b6100f761010736600461133b565b61064c565b34801561011857600080fd5b5061012260025481565b6040519081526020016100ce565b34801561013c57600080fd5b506100f761014b36600461112c565b61097b565b34801561015c57600080fd5b506100f76109aa565b34801561017157600080fd5b5061018561018036600461112c565b6109e0565b6040516100ce9190611390565b34801561019e57600080fd5b506000546040516001600160a01b0390911681526020016100ce565b3480156101c657600080fd5b506100f76101d536600461112c565b610c1e565b3480156101e657600080fd5b5061012260015481565b3480156101fc57600080fd5b506100f761020b3660046113f2565b610e14565b6102186110d0565b6000828152600360208181526040928390208351610140810185528154815260018201546001600160a01b0316928101929092526002810154938201939093528282015460608201526004830154909291608084019160ff169081111561028157610281611145565b600381111561029257610292611145565b815260200160058201548152602001600682015481526020016007820160009054906101000a90046001600160a01b03166001600160a01b03166001600160a01b031681526020016008820154815260200160098201805480602002602001604051908101604052809291908181526020016000905b82821015610365576000848152602090819020604080516080810182526004860290920180546001600160a01b03168352600180820154848601526002820154928401929092526003015460608301529083529092019101610308565b505050915250909392505050565b6000546001600160a01b031633146103a65760405162461bcd60e51b815260040161039d9061140f565b60405180910390fd5b60008381526003602052604090206009810154156103fa5760405162461bcd60e51b8152602060048201526011602482015270185b1c9958591e481cdd589b5a5d1d1959607a1b604482015260640161039d565b6000600482015460ff16600381111561041557610415611145565b1461047a5760405162461bcd60e51b815260206004820152602f60248201527f4120706f70757020696e2061206e6f726d616c2073746174652063616e206f6e60448201526e1b1e481899481cdd589b5a5d1d1959608a1b606482015260840161039d565b60068101548211156104c05760405162461bcd60e51b815260206004820152600f60248201526e696e76616c6964207265776172647360881b604482015260640161039d565b428160050154111561050b5760405162461bcd60e51b8152602060048201526014602482015273115b99081d1a5b59481b9bdd081c995858da195960621b604482015260640161039d565b6000805b838110156105995784848281811061052957610529611444565b905060800201602001358261053e9190611470565b91508260090185858381811061055657610556611444565b8354600181018555600094855260209094206080909102929092019260040290910190506105848282611488565b50508080610591906114d0565b91505061050f565b508015806105aa5750816008015481145b6105ee5760405162461bcd60e51b81526020600482015260156024820152741a5b9d985b1a59081c995dd85c9908185b5bdd5b9d605a1b604482015260640161039d565b85825560048201805460ff19166001908117909155600283015460408051888152602081019390935290917ff8718717b9a650b7d700d2f50912a63c881f549a03c06f84dd25a8028a94fb12910160405180910390a2505050505050565b6002548311156106945760405162461bcd60e51b81526020600482015260136024820152721a5b9d985b1a59081dda5b9b995c90dbdd5b9d606a1b604482015260640161039d565b600085815260036020526040902060050154156106ec5760405162461bcd60e51b8152602060048201526016602482015275141bdc1d5c081a185cc81899595b8818dc99585d195960521b604482015260640161039d565b6127108110156107305760405162461bcd60e51b815260206004820152600f60248201526e189bdb9d5cc81d1bdbc81cdb585b1b608a1b604482015260640161039d565b6040516370a0823160e01b815233600482015281906001600160a01b038416906370a0823190602401602060405180830381865afa158015610776573d6000803e3d6000fd5b505050506040513d601f19601f8201168201806040525081019061079a91906114e9565b10156107df5760405162461bcd60e51b8152602060048201526014602482015273496e73756666696369656e742062616c616e636560601b604482015260640161039d565b42841161081f5760405162461bcd60e51b815260206004820152600e60248201526d57726f6e6720656e642074696d6560901b604482015260640161039d565b600154156108a2576001543410156108665760405162461bcd60e51b815260206004820152600a602482015269696e766c69642066656560b01b604482015260640161039d565b600080546040516001600160a01b03909116913480156108fc02929091818181858888f193505050501580156108a0573d6000803e3d6000fd5b505b6108ae82333084610eaf565b6000858152600360208181526040808420600180820180546001600160a01b031990811633908117909255600284018e90559583018c9055600583018b9055600683018a90556007830180546001600160a01b038b16971687179055600883018890556004928301805460ff191690558c87529184528286208054918201815586529483902090940189905580518581529182018890529192917ff5e0e27156c9b09610f312a424905ca6088f7bb3950eb386d7a7ff782a8a69b9910160405180910390a3505050505050565b6000546001600160a01b031633146109a55760405162461bcd60e51b815260040161039d9061140f565b600155565b6000546001600160a01b031633146109d45760405162461bcd60e51b815260040161039d9061140f565b6109de6000610ec3565b565b6000818152600460205260408120546060919067ffffffffffffffff811115610a0b57610a0b611502565b604051908082528060200260200182016040528015610a4457816020015b610a316110d0565b815260200190600190039081610a295790505b50905060005b600084815260046020526040902054811015610c175760008481526004602052604081208054600392919084908110610a8557610a85611444565b6000918252602080832090910154835282810193909352604091820190208151610140810183528154815260018201546001600160a01b03169381019390935260028101549183019190915260038082015460608401526004820154608084019160ff90911690811115610afb57610afb611145565b6003811115610b0c57610b0c611145565b815260200160058201548152602001600682015481526020016007820160009054906101000a90046001600160a01b03166001600160a01b03166001600160a01b031681526020016008820154815260200160098201805480602002602001604051908101604052809291908181526020016000905b82821015610bdf576000848152602090819020604080516080810182526004860290920180546001600160a01b03168352600180820154848601526002820154928401929092526003015460608301529083529092019101610b82565b5050505081525050828281518110610bf957610bf9611444565b60200260200101819052508080610c0f906114d0565b915050610a4a565b5092915050565b60008181526003602052604090206001600482015460ff166003811115610c4757610c47611145565b14610cac5760405162461bcd60e51b815260206004820152602f60248201527f4120706f70757020696e206120656e6465642073746174652063616e206f6e6c60448201526e79206265206469737472696275746560881b606482015260840161039d565b6009810154600003610d305760048101805460ff19166003179055600781015460018201546008830154610ced926001600160a01b03908116921690610f13565b600281015460408051848152600360208201527ff8718717b9a650b7d700d2f50912a63c881f549a03c06f84dd25a8028a94fb1291015b60405180910390a25050565b60048101805460ff1916600217905560005b6009820154811015610dd4576007820154600983018054610dc2926001600160a01b0316919084908110610d7857610d78611444565b60009182526020909120600490910201546009850180546001600160a01b039092169185908110610dab57610dab611444565b906000526020600020906004020160010154610f13565b80610dcc816114d0565b915050610d42565b5060028181015460408051858152602081019390935290917ff8718717b9a650b7d700d2f50912a63c881f549a03c06f84dd25a8028a94fb129101610d24565b6000546001600160a01b03163314610e3e5760405162461bcd60e51b815260040161039d9061140f565b6001600160a01b038116610ea35760405162461bcd60e51b815260206004820152602660248201527f4f776e61626c653a206e6577206f776e657220697320746865207a65726f206160448201526564647265737360d01b606482015260840161039d565b610eac81610ec3565b50565b83610ebc81858585610f25565b5050505050565b600080546001600160a01b038381166001600160a01b0319831681178455604051919092169283917f8be0079c531659141344cd1fd0a4f28419497f9722a3daafe3b4186f6b6457e09190a35050565b82610f1f818484610f90565b50505050565b6040516001600160a01b0380851660248301528316604482015260648101829052610f1f9085906323b872dd60e01b906084015b60408051601f198184030181529190526020810180516001600160e01b03166001600160e01b031990931692909217909152610fc5565b6040516001600160a01b038316602482015260448101829052610fc090849063a9059cbb60e01b90606401610f59565b505050565b600080836001600160a01b031683604051610fe09190611518565b6000604051808303816000865af19150503d806000811461101d576040519150601f19603f3d011682016040523d82523d6000602084013e611022565b606091505b5091509150816110695760405162461bcd60e51b8152602060048201526012602482015271115490cc8c0e8818d85b1b0819985a5b195960721b604482015260640161039d565b805115610f1f57808060200190518101906110849190611553565b610f1f5760405162461bcd60e51b815260206004820181905260248201527f45524332303a206f7065726174696f6e20646964206e6f742073756363656564604482015260640161039d565b6040805161014081018252600080825260208201819052918101829052606081018290529060808201908152602001600081526020016000815260200160006001600160a01b0316815260200160008152602001606081525090565b60006020828403121561113e57600080fd5b5035919050565b634e487b7160e01b600052602160045260246000fd5b6004811061117957634e487b7160e01b600052602160045260246000fd5b9052565b600081518084526020808501945080840160005b838110156111d657815180516001600160a01b031688528381015184890152604080820151908901526060908101519088015260809096019590820190600101611191565b509495945050505050565b600061014082518452602083015161120460208601826001600160a01b03169052565b506040830151604085015260608301516060850152608083015161122b608086018261115b565b5060a083015160a085015260c083015160c085015260e083015161125a60e08601826001600160a01b03169052565b5061010080840151818601525061012080840151828287015261127f8387018261117d565b9695505050505050565b60208152600061129c60208301846111e1565b9392505050565b600080600080606085870312156112b957600080fd5b8435935060208501359250604085013567ffffffffffffffff808211156112df57600080fd5b818701915087601f8301126112f357600080fd5b81358181111561130257600080fd5b8860208260071b850101111561131757600080fd5b95989497505060200194505050565b6001600160a01b0381168114610eac57600080fd5b60008060008060008060c0878903121561135457600080fd5b86359550602087013594506040870135935060608701359250608087013561137b81611326565b8092505060a087013590509295509295509295565b6000602080830181845280855180835260408601915060408160051b870101925083870160005b828110156113e557603f198886030184526113d38583516111e1565b945092850192908501906001016113b7565b5092979650505050505050565b60006020828403121561140457600080fd5b813561129c81611326565b6020808252818101527f4f776e61626c653a2063616c6c6572206973206e6f7420746865206f776e6572604082015260600190565b634e487b7160e01b600052603260045260246000fd5b634e487b7160e01b600052601160045260246000fd5b600082198211156114835761148361145a565b500190565b813561149381611326565b81546001600160a01b0319166001600160a01b03919091161781556020820135600182015560408201356002820155606090910135600390910155565b6000600182016114e2576114e261145a565b5060010190565b6000602082840312156114fb57600080fd5b5051919050565b634e487b7160e01b600052604160045260246000fd5b6000825160005b81811015611539576020818601810151858301520161151f565b81811115611548576000828501525b509190910192915050565b60006020828403121561156557600080fd5b8151801515811461129c57600080fdfea2646970667358221220756b24d4a3bd744604df150208691746a7d31f8874654122e37f4b5b8ece4b5964736f6c634300080d0033",
  "immutableReferences": {},
  "source": "// SPDX-License-Identifier: MIT\npragma solidity ^0.8.0;\npragma experimental ABIEncoderV2;\n\nimport \"@openzeppelin/contracts/access/Ownable.sol\";\nimport \"@openzeppelin/contracts/token/ERC20/ERC20.sol\";\nimport \"./ERC20Helper.sol\";\n\ncontract Popup is Ownable, ERC20Helper {\n    enum PopupState {\n        normal,\n        ended,\n        distributed,\n        closed\n    }\n\n    struct PopupInfo {\n        bytes32 seed;   // Seed for off-chain random\n        address owner; // who create this popup\n        uint256 curationId; // curation task id\n        uint256 popupTweetId; // popup tweet id\n        PopupState status;\n        uint256 endTime;\n        uint256 winnerCount; // Number of winners\n        address token; // reward token\n        uint256 bonus; // reward amount\n        RewardInfo[] rewards;\n    }\n\n    struct RewardInfo {\n        address user;\n        uint256 amount;\n        uint256 twitterId;\n        uint256 index;\n    }\n\n    /// fee\n    uint256 public fee;\n\n    /// Maximum number of winners\n    uint256 public max_winners = 100;\n\n    event NewPopup(address indexed owner, address indexed token, uint256 bonus, uint256 endTime);\n    event StateChange(uint256 indexed curationId, uint256 popupTweetId, uint8 state);\n\n    // popup twitter id => PopupInfo\n    mapping(uint256 => PopupInfo) popupList;\n\n    // curation Id => [popup twitter id]\n    mapping(uint256 => uint256[]) curationList;\n\n    function getPopup(uint256 popupTweetId) public view returns (PopupInfo memory info) {\n        info = popupList[popupTweetId];\n    }\n\n    function getPopupByCuration(uint256 curationId) public view returns (PopupInfo[] memory) {\n        PopupInfo[] memory ps = new PopupInfo[](curationList[curationId].length);\n        for (uint256 i = 0; i < curationList[curationId].length; i++) {\n            ps[i] = popupList[curationList[curationId][i]];\n        }\n        return ps;\n    }\n\n    function setFee(uint256 _fee) public onlyOwner {\n        fee = _fee;\n    }\n\n    function createPopup(\n        uint256 curationId,\n        uint256 popupTweetId,\n        uint256 endTime,\n        uint256 winnerCount,\n        address token,\n        uint256 bonus\n    ) public payable {\n        require(winnerCount <= max_winners, \"invalid winnerCount\");\n        require(popupList[popupTweetId].endTime == 0, \"Popup has been created\");\n        require(bonus >= 10000, \"bonus too small\");\n        require(ERC20(token).balanceOf(msg.sender) >= bonus, \"Insufficient balance\");\n        require(endTime > block.timestamp, \"Wrong end time\");\n        if (fee > 0) {\n            require(msg.value >= fee, \"invlid fee\");\n            payable(owner()).transfer(msg.value);\n        }\n        lockERC20(token, msg.sender, address(this), bonus);\n\n        popupList[popupTweetId].owner = msg.sender;\n        popupList[popupTweetId].curationId = curationId;\n        popupList[popupTweetId].popupTweetId = popupTweetId;\n        popupList[popupTweetId].endTime = endTime;\n        popupList[popupTweetId].winnerCount = winnerCount;\n        popupList[popupTweetId].token = token;\n        popupList[popupTweetId].bonus = bonus;\n        popupList[popupTweetId].status = PopupState.normal;\n\n        curationList[curationId].push(popupTweetId);\n\n        emit NewPopup(msg.sender, token, bonus, endTime);\n    }\n\n    function commitReward(\n        bytes32 seed,\n        uint256 popupTweetId,\n        RewardInfo[] calldata rewards\n    ) public onlyOwner {\n        PopupInfo storage popup = popupList[popupTweetId];\n        require(popup.rewards.length == 0, \"already submitted\");\n        require(popup.status == PopupState.normal, \"A popup in a normal state can only be submitted\");\n        require(popup.winnerCount >= rewards.length, \"invalid rewards\");\n        require(popup.endTime <= block.timestamp, \"End time not reached\");\n\n        uint256 amount = 0;\n        for (uint256 i = 0; i < rewards.length; i++) {\n            amount += rewards[i].amount;\n            popup.rewards.push(rewards[i]);\n        }\n        require(amount == 0 || amount == popup.bonus, \"invalid reward amount\");\n\n        popup.seed = seed;\n        popup.status = PopupState.ended;\n\n        emit StateChange(popup.curationId, popupTweetId, uint8(PopupState.ended));\n    }\n\n    function distribute(uint256 popupTweetId) public {\n        PopupInfo storage popup = popupList[popupTweetId];\n        require(popup.status == PopupState.ended, \"A popup in a ended state can only be distribute\");\n        if (popup.rewards.length == 0) {\n            popup.status = PopupState.closed;\n            releaseERC20(popup.token, popup.owner, popup.bonus);\n            emit StateChange(popup.curationId, popupTweetId, uint8(PopupState.closed));\n        } else {\n            popup.status = PopupState.distributed;\n            for (uint256 i = 0; i < popup.rewards.length; i++) {\n                releaseERC20(popup.token, popup.rewards[i].user, popup.rewards[i].amount);\n            }\n            emit StateChange(popup.curationId, popupTweetId, uint8(PopupState.distributed));\n        }\n    }\n}\n",
  "sourcePath": "/Users/necklace/work/nutbox/nutbox-contract/contracts/Popup.sol",
  "compiler": {
    "name": "solc",
    "version": "0.8.13+commit.abaa5c0e.Emscripten.clang"
  },
  "schemaVersion": "3.4.11",
  "updatedAt": "2023-01-18T10:02:27.509Z",
  "devdoc": {
    "kind": "dev",
    "methods": {
      "owner()": {
        "details": "Returns the address of the current owner."
      },
      "renounceOwnership()": {
        "details": "Leaves the contract without owner. It will not be possible to call `onlyOwner` functions anymore. Can only be called by the current owner. NOTE: Renouncing ownership will leave the contract without an owner, thereby removing any functionality that is only available to the owner."
      },
      "transferOwnership(address)": {
        "details": "Transfers ownership of the contract to a new account (`newOwner`). Can only be called by the current owner."
      }
    },
    "version": 1
  },
  "userdoc": {
    "kind": "user",
    "methods": {
      "fee()": {
        "notice": "fee"
      },
      "max_winners()": {
        "notice": "Maximum number of winners"
      }
    },
    "version": 1
  }
}