{
  "contractName": "Random",
  "abi": [
    {
      "inputs": [
        {
          "internalType": "uint256",
          "name": "",
          "type": "uint256"
        }
      ],
      "name": "randoms",
      "outputs": [
        {
          "internalType": "bytes32",
          "name": "",
          "type": "bytes32"
        }
      ],
      "stateMutability": "view",
      "type": "function"
    },
    {
      "inputs": [
        {
          "internalType": "uint256",
          "name": "blockNumber",
          "type": "uint256"
        }
      ],
      "name": "getRandom",
      "outputs": [
        {
          "internalType": "bytes32",
          "name": "",
          "type": "bytes32"
        }
      ],
      "stateMutability": "nonpayable",
      "type": "function"
    }
  ],
  "bytecode": "0x608060405234801561001057600080fd5b506101a8806100206000396000f3fe608060405234801561001057600080fd5b50600436106100365760003560e01c8063c0d0ed7c1461003b578063cd4b69141461006d575b600080fd5b61005b610049366004610114565b60006020819052908152604090205481565b60405190815260200160405180910390f35b61005b61007b366004610114565b6000818152602081905260408120548082036100e25750814060008190036100ca576100ae60ff84164360ff1916610143565b92504383106100c6576100c36101008461015b565b92505b5081405b82156100e25760008381526020819052604090208190555b604080516020810183905290810184905260600160405160208183030381529060405280519060200120915050919050565b60006020828403121561012657600080fd5b5035919050565b634e487b7160e01b600052601160045260246000fd5b600082198211156101565761015661012d565b500190565b60008282101561016d5761016d61012d565b50039056fea2646970667358221220347c49ab6bc832c1269a45cce195cfb9208d35ce58cdc5426739d56f73631e6064736f6c634300080d0033",
  "immutableReferences": {},
  "source": "pragma solidity ^0.8.0;\n\n// SPDX-License-Identifier: Apache-2.0\n\ncontract Random {\n    uint256 internal constant maskLast8Bits = uint256(0x00000000000000000000000000000000000000000000000000000000000000FF);\n    uint256 internal constant maskFirst248Bits = uint256(0xFFFFFFFFFFFFFFFFFFFFFFFFFFFFFFFFFFFFFFFFFFFFFFFFFFFFFFFFFFFFFF00);\n\n    mapping(uint256 => bytes32) public randoms;\n\n    function getRandom(uint256 blockNumber) external returns (bytes32) {\n        bytes32 randomN = randoms[blockNumber];\n        if (randomN == 0) {\n            randomN = blockhash(blockNumber);\n            if (randomN == 0) {\n                blockNumber = (block.number & maskFirst248Bits) + (blockNumber & maskLast8Bits);\n                if (blockNumber >= block.number) blockNumber -= 256;\n                randomN = blockhash(blockNumber);\n            }\n            if (blockNumber != 0) {\n                randoms[blockNumber] = randomN;\n            }\n        }\n        return keccak256(abi.encode(randomN, blockNumber));\n    }\n}\n",
  "sourcePath": "/Users/necklace/work/nutbox/nutbox-contract/contracts/Random.sol",
  "compiler": {
    "name": "solc",
    "version": "0.8.13+commit.abaa5c0e.Emscripten.clang"
  },
  "schemaVersion": "3.4.11",
  "updatedAt": "2023-04-13T15:38:45.709Z",
  "devdoc": {
    "kind": "dev",
    "methods": {},
    "version": 1
  },
  "userdoc": {
    "kind": "user",
    "methods": {},
    "version": 1
  }
}