{
  "contractName": "Random",
  "abi": [
    {
      "inputs": [
        {
          "internalType": "uint256",
          "name": "",
          "type": "uint256"
        }
      ],
      "name": "randoms",
      "outputs": [
        {
          "internalType": "bytes32",
          "name": "",
          "type": "bytes32"
        }
      ],
      "stateMutability": "view",
      "type": "function"
    },
    {
      "inputs": [
        {
          "internalType": "uint256",
          "name": "blockNumber",
          "type": "uint256"
        }
      ],
      "name": "getRandom",
      "outputs": [
        {
          "internalType": "bytes32",
          "name": "",
          "type": "bytes32"
        }
      ],
      "stateMutability": "nonpayable",
      "type": "function"
    }
  ],
  "bytecode": "0x608060405234801561001057600080fd5b506101c5806100206000396000f3fe608060405234801561001057600080fd5b50600436106100365760003560e01c8063c0d0ed7c1461003b578063cd4b691414610064575b600080fd5b61004e61004936600461011b565b610077565b60405161005b9190610133565b60405180910390f35b61004e61007236600461011b565b610089565b60006020819052908152604090205481565b600081815260208190526040812054806100ea57508140806100d2576100b660ff84164360ff191661014a565b92504383106100ce576100cb61010084610162565b92505b5081405b82156100ea5760008381526020819052604090208190555b80836040516020016100fd92919061013c565b60405160208183030381529060405280519060200120915050919050565b60006020828403121561012c578081fd5b5035919050565b90815260200190565b918252602082015260400190565b6000821982111561015d5761015d610179565b500190565b60008282101561017457610174610179565b500390565b634e487b7160e01b600052601160045260246000fdfea2646970667358221220e4d3dfb1232baa24c8840b6a18c8df2b77ec6af596f3395611692f62e07f8cec64736f6c63430008000033",
  "immutableReferences": {},
  "source": "pragma solidity ^0.8.0;\n\n// SPDX-License-Identifier: Apache-2.0\n\ncontract Random {\n    uint256 internal constant maskLast8Bits = uint256(0x00000000000000000000000000000000000000000000000000000000000000FF);\n    uint256 internal constant maskFirst248Bits = uint256(0xFFFFFFFFFFFFFFFFFFFFFFFFFFFFFFFFFFFFFFFFFFFFFFFFFFFFFFFFFFFFFF00);\n\n    mapping(uint256 => bytes32) public randoms;\n\n    function getRandom(uint256 blockNumber) external returns (bytes32) {\n        bytes32 randomN = randoms[blockNumber];\n        if (randomN == 0) {\n            randomN = blockhash(blockNumber);\n            if (randomN == 0) {\n                blockNumber = (block.number & maskFirst248Bits) + (blockNumber & maskLast8Bits);\n                if (blockNumber >= block.number) blockNumber -= 256;\n                randomN = blockhash(blockNumber);\n            }\n            if (blockNumber != 0) {\n                randoms[blockNumber] = randomN;\n            }\n        }\n        return keccak256(abi.encode(randomN, blockNumber));\n    }\n}\n",
  "sourcePath": "/Users/necklace/work/nutbox/nutbox-contract/contracts/Random.sol",
  "compiler": {
    "name": "solc",
    "version": "0.8.0+commit.c7dfd78e.Emscripten.clang"
  },
  "schemaVersion": "3.4.6",
  "updatedAt": "2023-01-17T09:18:59.650Z",
  "devdoc": {
    "kind": "dev",
    "methods": {},
    "version": 1
  },
  "userdoc": {
    "kind": "user",
    "methods": {},
    "version": 1
  }
}