{
  "contractName": "Reputation",
  "abi": [
    {
      "inputs": [
        {
          "internalType": "string",
          "name": "uri_",
          "type": "string"
        }
      ],
      "stateMutability": "nonpayable",
      "type": "constructor"
    },
    {
      "anonymous": false,
      "inputs": [
        {
          "indexed": true,
          "internalType": "address",
          "name": "account",
          "type": "address"
        },
        {
          "indexed": true,
          "internalType": "address",
          "name": "operator",
          "type": "address"
        },
        {
          "indexed": false,
          "internalType": "bool",
          "name": "approved",
          "type": "bool"
        }
      ],
      "name": "ApprovalForAll",
      "type": "event"
    },
    {
      "anonymous": false,
      "inputs": [
        {
          "indexed": false,
          "internalType": "address",
          "name": "account",
          "type": "address"
        }
      ],
      "name": "Paused",
      "type": "event"
    },
    {
      "anonymous": false,
      "inputs": [
        {
          "indexed": true,
          "internalType": "bytes32",
          "name": "role",
          "type": "bytes32"
        },
        {
          "indexed": true,
          "internalType": "bytes32",
          "name": "previousAdminRole",
          "type": "bytes32"
        },
        {
          "indexed": true,
          "internalType": "bytes32",
          "name": "newAdminRole",
          "type": "bytes32"
        }
      ],
      "name": "RoleAdminChanged",
      "type": "event"
    },
    {
      "anonymous": false,
      "inputs": [
        {
          "indexed": true,
          "internalType": "bytes32",
          "name": "role",
          "type": "bytes32"
        },
        {
          "indexed": true,
          "internalType": "address",
          "name": "account",
          "type": "address"
        },
        {
          "indexed": true,
          "internalType": "address",
          "name": "sender",
          "type": "address"
        }
      ],
      "name": "RoleGranted",
      "type": "event"
    },
    {
      "anonymous": false,
      "inputs": [
        {
          "indexed": true,
          "internalType": "bytes32",
          "name": "role",
          "type": "bytes32"
        },
        {
          "indexed": true,
          "internalType": "address",
          "name": "account",
          "type": "address"
        },
        {
          "indexed": true,
          "internalType": "address",
          "name": "sender",
          "type": "address"
        }
      ],
      "name": "RoleRevoked",
      "type": "event"
    },
    {
      "anonymous": false,
      "inputs": [
        {
          "indexed": true,
          "internalType": "address",
          "name": "operator",
          "type": "address"
        },
        {
          "indexed": true,
          "internalType": "address",
          "name": "from",
          "type": "address"
        },
        {
          "indexed": true,
          "internalType": "address",
          "name": "to",
          "type": "address"
        },
        {
          "indexed": false,
          "internalType": "uint256[]",
          "name": "ids",
          "type": "uint256[]"
        },
        {
          "indexed": false,
          "internalType": "uint256[]",
          "name": "values",
          "type": "uint256[]"
        }
      ],
      "name": "TransferBatch",
      "type": "event"
    },
    {
      "anonymous": false,
      "inputs": [
        {
          "indexed": true,
          "internalType": "address",
          "name": "operator",
          "type": "address"
        },
        {
          "indexed": true,
          "internalType": "address",
          "name": "from",
          "type": "address"
        },
        {
          "indexed": true,
          "internalType": "address",
          "name": "to",
          "type": "address"
        },
        {
          "indexed": false,
          "internalType": "uint256",
          "name": "id",
          "type": "uint256"
        },
        {
          "indexed": false,
          "internalType": "uint256",
          "name": "value",
          "type": "uint256"
        }
      ],
      "name": "TransferSingle",
      "type": "event"
    },
    {
      "anonymous": false,
      "inputs": [
        {
          "indexed": false,
          "internalType": "string",
          "name": "value",
          "type": "string"
        },
        {
          "indexed": true,
          "internalType": "uint256",
          "name": "id",
          "type": "uint256"
        }
      ],
      "name": "URI",
      "type": "event"
    },
    {
      "anonymous": false,
      "inputs": [
        {
          "indexed": false,
          "internalType": "address",
          "name": "account",
          "type": "address"
        }
      ],
      "name": "Unpaused",
      "type": "event"
    },
    {
      "inputs": [],
      "name": "BURN_ROLE",
      "outputs": [
        {
          "internalType": "bytes32",
          "name": "",
          "type": "bytes32"
        }
      ],
      "stateMutability": "view",
      "type": "function"
    },
    {
      "inputs": [],
      "name": "DEFAULT_ADMIN_ROLE",
      "outputs": [
        {
          "internalType": "bytes32",
          "name": "",
          "type": "bytes32"
        }
      ],
      "stateMutability": "view",
      "type": "function"
    },
    {
      "inputs": [],
      "name": "MINTER_ROLE",
      "outputs": [
        {
          "internalType": "bytes32",
          "name": "",
          "type": "bytes32"
        }
      ],
      "stateMutability": "view",
      "type": "function"
    },
    {
      "inputs": [],
      "name": "PAUSER_ROLE",
      "outputs": [
        {
          "internalType": "bytes32",
          "name": "",
          "type": "bytes32"
        }
      ],
      "stateMutability": "view",
      "type": "function"
    },
    {
      "inputs": [],
      "name": "TRANSFER_ROLE",
      "outputs": [
        {
          "internalType": "bytes32",
          "name": "",
          "type": "bytes32"
        }
      ],
      "stateMutability": "view",
      "type": "function"
    },
    {
      "inputs": [],
      "name": "URLSETTER_ROLE",
      "outputs": [
        {
          "internalType": "bytes32",
          "name": "",
          "type": "bytes32"
        }
      ],
      "stateMutability": "view",
      "type": "function"
    },
    {
      "inputs": [
        {
          "internalType": "address",
          "name": "account",
          "type": "address"
        },
        {
          "internalType": "uint256",
          "name": "id",
          "type": "uint256"
        }
      ],
      "name": "balanceOf",
      "outputs": [
        {
          "internalType": "uint256",
          "name": "",
          "type": "uint256"
        }
      ],
      "stateMutability": "view",
      "type": "function"
    },
    {
      "inputs": [
        {
          "internalType": "address[]",
          "name": "accounts",
          "type": "address[]"
        },
        {
          "internalType": "uint256[]",
          "name": "ids",
          "type": "uint256[]"
        }
      ],
      "name": "balanceOfBatch",
      "outputs": [
        {
          "internalType": "uint256[]",
          "name": "",
          "type": "uint256[]"
        }
      ],
      "stateMutability": "view",
      "type": "function"
    },
    {
      "inputs": [
        {
          "internalType": "address",
          "name": "account",
          "type": "address"
        },
        {
          "internalType": "uint256",
          "name": "id",
          "type": "uint256"
        },
        {
          "internalType": "uint256",
          "name": "value",
          "type": "uint256"
        }
      ],
      "name": "burn",
      "outputs": [],
      "stateMutability": "nonpayable",
      "type": "function"
    },
    {
      "inputs": [
        {
          "internalType": "address",
          "name": "account",
          "type": "address"
        },
        {
          "internalType": "uint256[]",
          "name": "ids",
          "type": "uint256[]"
        },
        {
          "internalType": "uint256[]",
          "name": "values",
          "type": "uint256[]"
        }
      ],
      "name": "burnBatch",
      "outputs": [],
      "stateMutability": "nonpayable",
      "type": "function"
    },
    {
      "inputs": [
        {
          "internalType": "bytes32",
          "name": "role",
          "type": "bytes32"
        }
      ],
      "name": "getRoleAdmin",
      "outputs": [
        {
          "internalType": "bytes32",
          "name": "",
          "type": "bytes32"
        }
      ],
      "stateMutability": "view",
      "type": "function"
    },
    {
      "inputs": [
        {
          "internalType": "bytes32",
          "name": "role",
          "type": "bytes32"
        },
        {
          "internalType": "uint256",
          "name": "index",
          "type": "uint256"
        }
      ],
      "name": "getRoleMember",
      "outputs": [
        {
          "internalType": "address",
          "name": "",
          "type": "address"
        }
      ],
      "stateMutability": "view",
      "type": "function"
    },
    {
      "inputs": [
        {
          "internalType": "bytes32",
          "name": "role",
          "type": "bytes32"
        }
      ],
      "name": "getRoleMemberCount",
      "outputs": [
        {
          "internalType": "uint256",
          "name": "",
          "type": "uint256"
        }
      ],
      "stateMutability": "view",
      "type": "function"
    },
    {
      "inputs": [
        {
          "internalType": "bytes32",
          "name": "role",
          "type": "bytes32"
        },
        {
          "internalType": "address",
          "name": "account",
          "type": "address"
        }
      ],
      "name": "grantRole",
      "outputs": [],
      "stateMutability": "nonpayable",
      "type": "function"
    },
    {
      "inputs": [
        {
          "internalType": "bytes32",
          "name": "role",
          "type": "bytes32"
        },
        {
          "internalType": "address",
          "name": "account",
          "type": "address"
        }
      ],
      "name": "hasRole",
      "outputs": [
        {
          "internalType": "bool",
          "name": "",
          "type": "bool"
        }
      ],
      "stateMutability": "view",
      "type": "function"
    },
    {
      "inputs": [
        {
          "internalType": "address",
          "name": "account",
          "type": "address"
        },
        {
          "internalType": "address",
          "name": "operator",
          "type": "address"
        }
      ],
      "name": "isApprovedForAll",
      "outputs": [
        {
          "internalType": "bool",
          "name": "",
          "type": "bool"
        }
      ],
      "stateMutability": "view",
      "type": "function"
    },
    {
      "inputs": [
        {
          "internalType": "address",
          "name": "to",
          "type": "address"
        },
        {
          "internalType": "uint256",
          "name": "id",
          "type": "uint256"
        },
        {
          "internalType": "uint256",
          "name": "amount",
          "type": "uint256"
        },
        {
          "internalType": "bytes",
          "name": "data",
          "type": "bytes"
        }
      ],
      "name": "mint",
      "outputs": [],
      "stateMutability": "nonpayable",
      "type": "function"
    },
    {
      "inputs": [
        {
          "internalType": "address",
          "name": "to",
          "type": "address"
        },
        {
          "internalType": "uint256[]",
          "name": "ids",
          "type": "uint256[]"
        },
        {
          "internalType": "uint256[]",
          "name": "amounts",
          "type": "uint256[]"
        },
        {
          "internalType": "bytes",
          "name": "data",
          "type": "bytes"
        }
      ],
      "name": "mintBatch",
      "outputs": [],
      "stateMutability": "nonpayable",
      "type": "function"
    },
    {
      "inputs": [],
      "name": "pause",
      "outputs": [],
      "stateMutability": "nonpayable",
      "type": "function"
    },
    {
      "inputs": [],
      "name": "paused",
      "outputs": [
        {
          "internalType": "bool",
          "name": "",
          "type": "bool"
        }
      ],
      "stateMutability": "view",
      "type": "function"
    },
    {
      "inputs": [
        {
          "internalType": "bytes32",
          "name": "role",
          "type": "bytes32"
        },
        {
          "internalType": "address",
          "name": "account",
          "type": "address"
        }
      ],
      "name": "renounceRole",
      "outputs": [],
      "stateMutability": "nonpayable",
      "type": "function"
    },
    {
      "inputs": [
        {
          "internalType": "bytes32",
          "name": "role",
          "type": "bytes32"
        },
        {
          "internalType": "address",
          "name": "account",
          "type": "address"
        }
      ],
      "name": "revokeRole",
      "outputs": [],
      "stateMutability": "nonpayable",
      "type": "function"
    },
    {
      "inputs": [
        {
          "internalType": "address",
          "name": "from",
          "type": "address"
        },
        {
          "internalType": "address",
          "name": "to",
          "type": "address"
        },
        {
          "internalType": "uint256[]",
          "name": "ids",
          "type": "uint256[]"
        },
        {
          "internalType": "uint256[]",
          "name": "amounts",
          "type": "uint256[]"
        },
        {
          "internalType": "bytes",
          "name": "data",
          "type": "bytes"
        }
      ],
      "name": "safeBatchTransferFrom",
      "outputs": [],
      "stateMutability": "nonpayable",
      "type": "function"
    },
    {
      "inputs": [
        {
          "internalType": "address",
          "name": "from",
          "type": "address"
        },
        {
          "internalType": "address",
          "name": "to",
          "type": "address"
        },
        {
          "internalType": "uint256",
          "name": "id",
          "type": "uint256"
        },
        {
          "internalType": "uint256",
          "name": "amount",
          "type": "uint256"
        },
        {
          "internalType": "bytes",
          "name": "data",
          "type": "bytes"
        }
      ],
      "name": "safeTransferFrom",
      "outputs": [],
      "stateMutability": "nonpayable",
      "type": "function"
    },
    {
      "inputs": [
        {
          "internalType": "address",
          "name": "operator",
          "type": "address"
        },
        {
          "internalType": "bool",
          "name": "approved",
          "type": "bool"
        }
      ],
      "name": "setApprovalForAll",
      "outputs": [],
      "stateMutability": "nonpayable",
      "type": "function"
    },
    {
      "inputs": [
        {
          "internalType": "bytes4",
          "name": "interfaceId",
          "type": "bytes4"
        }
      ],
      "name": "supportsInterface",
      "outputs": [
        {
          "internalType": "bool",
          "name": "",
          "type": "bool"
        }
      ],
      "stateMutability": "view",
      "type": "function"
    },
    {
      "inputs": [],
      "name": "unpause",
      "outputs": [],
      "stateMutability": "nonpayable",
      "type": "function"
    },
    {
      "inputs": [
        {
          "internalType": "uint256",
          "name": "id",
          "type": "uint256"
        }
      ],
      "name": "supplysOf",
      "outputs": [
        {
          "internalType": "uint256",
          "name": "",
          "type": "uint256"
        }
      ],
      "stateMutability": "view",
      "type": "function"
    },
    {
      "inputs": [
        {
          "internalType": "address",
          "name": "account",
          "type": "address"
        },
        {
          "internalType": "uint256",
          "name": "id",
          "type": "uint256"
        },
        {
          "internalType": "uint256",
          "name": "value",
          "type": "uint256"
        }
      ],
      "name": "adminBurn",
      "outputs": [],
      "stateMutability": "nonpayable",
      "type": "function"
    },
    {
      "inputs": [
        {
          "internalType": "address",
          "name": "from",
          "type": "address"
        },
        {
          "internalType": "uint256[]",
          "name": "ids",
          "type": "uint256[]"
        },
        {
          "internalType": "uint256[]",
          "name": "amounts",
          "type": "uint256[]"
        }
      ],
      "name": "adminBurnBatch",
      "outputs": [],
      "stateMutability": "nonpayable",
      "type": "function"
    },
    {
      "inputs": [
        {
          "internalType": "address",
          "name": "account",
          "type": "address"
        },
        {
          "internalType": "uint256",
          "name": "id",
          "type": "uint256"
        }
      ],
      "name": "getReputation",
      "outputs": [
        {
          "internalType": "uint256",
          "name": "",
          "type": "uint256"
        }
      ],
      "stateMutability": "view",
      "type": "function"
    },
    {
      "inputs": [
        {
          "internalType": "uint256",
          "name": "_id",
          "type": "uint256"
        },
        {
          "internalType": "string",
          "name": "_uri",
          "type": "string"
        }
      ],
      "name": "setURI",
      "outputs": [],
      "stateMutability": "nonpayable",
      "type": "function"
    },
    {
      "inputs": [
        {
          "internalType": "uint256",
          "name": "_id",
          "type": "uint256"
        }
      ],
      "name": "uri",
      "outputs": [
        {
          "internalType": "string",
          "name": "",
          "type": "string"
        }
      ],
      "stateMutability": "view",
      "type": "function"
    }
  ],
  "bytecode": "0x60806040523480156200001157600080fd5b506040516200340a3803806200340a83398101604081905262000034916200036d565b808062000041816200013d565b506005805460ff191690556200005960003362000156565b620000857f9f2df0fed2c77648de5860a4cc508cd0818c85b8b8a1ab4ceeef8d981c8956a63362000156565b620000b17f65d7a28e3265b37a6474929f336521b332c1681b933f6cb9f3376673440d862a3362000156565b50620000de7f8502233096d909befbda0999bb8ea2f3a6be3c138b9fbf003752a4c8bce86f6c3362000156565b6200010a7fe97b137254058bd94f28d2f3eb79e2d34074ffb488d042e3bc958e0a57d2fa223362000156565b620001367f8207333f63dadcd0f8115c92187d0d7102dbcb682d67cc7f9dfccbfc085348be3362000156565b5062000485565b805162000152906004906020840190620002b1565b5050565b6200015282826200017382826200019f60201b62000e601760201c565b60008281526001602090815260409091206200019a91839062000ee46200023f821b17901c565b505050565b6000828152602081815260408083206001600160a01b038516845290915290205460ff1662000152576000828152602081815260408083206001600160a01b03851684529091529020805460ff19166001179055620001fb3390565b6001600160a01b0316816001600160a01b0316837f2f8788117e7eff1d82e926ec794901d17c78024a50270940304540a733656f0d60405160405180910390a45050565b600062000256836001600160a01b0384166200025f565b90505b92915050565b6000818152600183016020526040812054620002a85750815460018181018455600084815260208082209093018490558454848252828601909352604090209190915562000259565b50600062000259565b828054620002bf9062000449565b90600052602060002090601f016020900481019282620002e357600085556200032e565b82601f10620002fe57805160ff19168380011785556200032e565b828001600101855582156200032e579182015b828111156200032e57825182559160200191906001019062000311565b506200033c92915062000340565b5090565b5b808211156200033c576000815560010162000341565b634e487b7160e01b600052604160045260246000fd5b600060208083850312156200038157600080fd5b82516001600160401b03808211156200039957600080fd5b818501915085601f830112620003ae57600080fd5b815181811115620003c357620003c362000357565b604051601f8201601f19908116603f01168101908382118183101715620003ee57620003ee62000357565b8160405282815288868487010111156200040757600080fd5b600093505b828410156200042b57848401860151818501870152928501926200040c565b828411156200043d5760008684830101525b98975050505050505050565b600181811c908216806200045e57607f821691505b6020821081036200047f57634e487b7160e01b600052602260045260246000fd5b50919050565b612f7580620004956000396000f3fe608060405234801561001057600080fd5b50600436106101fa5760003560e01c8063862440e21161011a578063ca15c873116100ad578063e63ab1e91161007c578063e63ab1e9146104a1578063e985e9c5146104c8578063f242432a14610504578063f5298aca14610517578063face1ec51461052a57600080fd5b8063ca15c87314610441578063cd955e5c14610454578063d539139314610467578063d547741f1461048e57600080fd5b8063a22cb465116100e9578063a22cb465146103cd578063a24b951e146103e0578063ae8da89c14610407578063b930908f1461041a57600080fd5b8063862440e2146103745780639010d07c1461038757806391d14854146103b2578063a217fddf146103c557600080fd5b80632f2ff15d116101925780635c975abb116101615780635c975abb1461033b5780636b20c45414610346578063731133e9146103595780638456cb591461036c57600080fd5b80632f2ff15d146102ed57806336568abe146103005780633f4ba83a146103135780634e1273f41461031b57600080fd5b80631f7fdffa116101ce5780631f7fdffa1461027d578063206b60f914610290578063248a9ca3146102b75780632eb2c2d6146102da57600080fd5b8062fdd58e146101ff57806301ffc9a7146102255780630e89341c146102485780631b56a5be14610268575b600080fd5b61021261020d36600461229a565b61054a565b6040519081526020015b60405180910390f35b6102386102333660046122da565b6105e5565b604051901515815260200161021c565b61025b6102563660046122f7565b6105f0565b60405161021c9190612368565b61027b61027636600461237b565b610692565b005b61027b61028b366004612501565b610718565b6102127f8502233096d909befbda0999bb8ea2f3a6be3c138b9fbf003752a4c8bce86f6c81565b6102126102c53660046122f7565b60009081526020819052604090206001015490565b61027b6102e8366004612599565b610770565b61027b6102fb366004612642565b6107bc565b61027b61030e366004612642565b6107e1565b61027b61085f565b61032e61032936600461266e565b610905565b60405161021c9190612773565b60055460ff16610238565b61027b610354366004612786565b610a2e565b61027b6103673660046127f9565b610a71565b61027b610ac3565b61027b61038236600461284d565b610b67565b61039a61039536600461289d565b610c39565b6040516001600160a01b03909116815260200161021c565b6102386103c0366004612642565b610c58565b610212600081565b61027b6103db3660046128bf565b610c81565b6102127f8207333f63dadcd0f8115c92187d0d7102dbcb682d67cc7f9dfccbfc085348be81565b61021261041536600461229a565b610c8c565b6102127fe97b137254058bd94f28d2f3eb79e2d34074ffb488d042e3bc958e0a57d2fa2281565b61021261044f3660046122f7565b610d31565b61027b610462366004612786565b610d48565b6102127f9f2df0fed2c77648de5860a4cc508cd0818c85b8b8a1ab4ceeef8d981c8956a681565b61027b61049c366004612642565b610dbe565b6102127f65d7a28e3265b37a6474929f336521b332c1681b933f6cb9f3376673440d862a81565b6102386104d63660046128fb565b6001600160a01b03918216600090815260036020908152604080832093909416825291909152205460ff1690565b61027b610512366004612925565b610de3565b61027b61052536600461237b565b610e28565b6102126105383660046122f7565b60009081526006602052604090205490565b60006001600160a01b0383166105ba5760405162461bcd60e51b815260206004820152602a60248201527f455243313135353a2061646472657373207a65726f206973206e6f742061207660448201526930b634b21037bbb732b960b11b60648201526084015b60405180910390fd5b5060008181526002602090815260408083206001600160a01b03861684529091529020545b92915050565b60006105df82610ef9565b600081815260076020526040902080546060919061060d90612989565b80601f016020809104026020016040519081016040528092919081815260200182805461063990612989565b80156106865780601f1061065b57610100808354040283529160200191610686565b820191906000526020600020905b81548152906001019060200180831161066957829003601f168201915b50505050509050919050565b6106bc7fe97b137254058bd94f28d2f3eb79e2d34074ffb488d042e3bc958e0a57d2fa2233610c58565b6107085760405162461bcd60e51b815260206004820152601b60248201527f4d7573742068617665206275726e20726f6c6520746f206275726e000000000060448201526064016105b1565b610713838383610f39565b505050565b6107427f9f2df0fed2c77648de5860a4cc508cd0818c85b8b8a1ab4ceeef8d981c8956a633610c58565b61075e5760405162461bcd60e51b81526004016105b1906129c3565b61076a8484848461105a565b50505050565b6001600160a01b03851633148061078c575061078c85336104d6565b6107a85760405162461bcd60e51b81526004016105b190612a20565b6107b585858585856111b5565b5050505050565b6000828152602081905260409020600101546107d781611362565b610713838361136f565b6001600160a01b03811633146108515760405162461bcd60e51b815260206004820152602f60248201527f416363657373436f6e74726f6c3a2063616e206f6e6c792072656e6f756e636560448201526e103937b632b9903337b91039b2b63360891b60648201526084016105b1565b61085b8282611391565b5050565b6108897f65d7a28e3265b37a6474929f336521b332c1681b933f6cb9f3376673440d862a33610c58565b6108fb5760405162461bcd60e51b815260206004820152603b60248201527f455243313135355072657365744d696e7465725061757365723a206d7573742060448201527f686176652070617573657220726f6c6520746f20756e7061757365000000000060648201526084016105b1565b6109036113b3565b565b6060815183511461096a5760405162461bcd60e51b815260206004820152602960248201527f455243313135353a206163636f756e747320616e6420696473206c656e677468604482015268040dad2e6dac2e8c6d60bb1b60648201526084016105b1565b600083516001600160401b03811115610985576109856123ae565b6040519080825280602002602001820160405280156109ae578160200160208202803683370190505b50905060005b8451811015610a26576109f98582815181106109d2576109d2612a6e565b60200260200101518583815181106109ec576109ec612a6e565b602002602001015161054a565b828281518110610a0b57610a0b612a6e565b6020908102919091010152610a1f81612a9a565b90506109b4565b509392505050565b6001600160a01b038316331480610a4a5750610a4a83336104d6565b610a665760405162461bcd60e51b81526004016105b190612a20565b610713838383611405565b610a9b7f9f2df0fed2c77648de5860a4cc508cd0818c85b8b8a1ab4ceeef8d981c8956a633610c58565b610ab75760405162461bcd60e51b81526004016105b1906129c3565b61076a848484846115a4565b610aed7f65d7a28e3265b37a6474929f336521b332c1681b933f6cb9f3376673440d862a33610c58565b610b5f5760405162461bcd60e51b815260206004820152603960248201527f455243313135355072657365744d696e7465725061757365723a206d7573742060448201527f686176652070617573657220726f6c6520746f2070617573650000000000000060648201526084016105b1565b610903611686565b610b917f8207333f63dadcd0f8115c92187d0d7102dbcb682d67cc7f9dfccbfc085348be33610c58565b610bdd5760405162461bcd60e51b815260206004820181905260248201527f4d75737420686176652075726c2073657474657220726f6c6520746f2073657460448201526064016105b1565b60008281526007602090815260409091208251610bfc928401906121e5565b50817f6bb7ff708619ba0610cba295a58592e0451dee2622938c8755667688daf3529b82604051610c2d9190612368565b60405180910390a25050565b6000828152600160205260408120610c5190836116c3565b9392505050565b6000918252602082815260408084206001600160a01b0393909316845291905290205460ff1690565b61085b3383836116cf565b60006001600160a01b038316610cf25760405162461bcd60e51b815260206004820152602560248201527f52657075746174696f6e20717565727920666f7220746865207a65726f206164604482015264647265737360d81b60648201526084016105b1565b6000610cfe848461054a565b600084815260066020526040902054909150610d1f8264e8d4a51000612ab3565b610d299190612ad2565b949350505050565b60008181526001602052604081206105df906117af565b610d727fe97b137254058bd94f28d2f3eb79e2d34074ffb488d042e3bc958e0a57d2fa2233610c58565b610a665760405162461bcd60e51b815260206004820152601b60248201527f4d7573742068617665206275726e20726f6c6520746f206275726e000000000060448201526064016105b1565b600082815260208190526040902060010154610dd981611362565b6107138383611391565b6001600160a01b038516331480610dff5750610dff85336104d6565b610e1b5760405162461bcd60e51b81526004016105b190612a20565b6107b585858585856117b9565b6001600160a01b038316331480610e445750610e4483336104d6565b6107085760405162461bcd60e51b81526004016105b190612a20565b610e6a8282610c58565b61085b576000828152602081815260408083206001600160a01b03851684529091529020805460ff19166001179055610ea03390565b6001600160a01b0316816001600160a01b0316837f2f8788117e7eff1d82e926ec794901d17c78024a50270940304540a733656f0d60405160405180910390a45050565b6000610c51836001600160a01b0384166118f5565b60006001600160e01b03198216636cdb3d1360e11b1480610f2a57506001600160e01b031982166303a24d0760e21b145b806105df57506105df82611944565b6001600160a01b038316610f5f5760405162461bcd60e51b81526004016105b190612af4565b336000610f6b84611969565b90506000610f7884611969565b9050610f98838760008585604051806020016040528060008152506119b4565b60008581526002602090815260408083206001600160a01b038a16845290915290205484811015610fdb5760405162461bcd60e51b81526004016105b190612b37565b60008681526002602090815260408083206001600160a01b038b81168086529184528285208a8703905582518b81529384018a90529092908816917fc3d58168c5ae7397731d063d5bbf3d657854427343f4c083240f7aacaa2d0f62910160405180910390a46040805160208101909152600090525b50505050505050565b6001600160a01b0384166110805760405162461bcd60e51b81526004016105b190612b7b565b81518351146110a15760405162461bcd60e51b81526004016105b190612bbc565b336110b1816000878787876119b4565b60005b845181101561114d578381815181106110cf576110cf612a6e565b6020026020010151600260008784815181106110ed576110ed612a6e565b602002602001015181526020019081526020016000206000886001600160a01b03166001600160a01b0316815260200190815260200160002060008282546111359190612c04565b9091555081905061114581612a9a565b9150506110b4565b50846001600160a01b031660006001600160a01b0316826001600160a01b03167f4a39dc06d4c0dbc64b70af90fd698a233a518aa5d07e595d983b8c0526c8f7fb878760405161119e929190612c1c565b60405180910390a46107b581600087878787611b6e565b81518351146111d65760405162461bcd60e51b81526004016105b190612bbc565b6001600160a01b0384166111fc5760405162461bcd60e51b81526004016105b190612c4a565b3361120b8187878787876119b4565b60005b84518110156112f457600085828151811061122b5761122b612a6e565b60200260200101519050600085838151811061124957611249612a6e565b60209081029190910181015160008481526002835260408082206001600160a01b038e16835290935291909120549091508181101561129a5760405162461bcd60e51b81526004016105b190612c8f565b60008381526002602090815260408083206001600160a01b038e8116855292528083208585039055908b168252812080548492906112d9908490612c04565b92505081905550505050806112ed90612a9a565b905061120e565b50846001600160a01b0316866001600160a01b0316826001600160a01b03167f4a39dc06d4c0dbc64b70af90fd698a233a518aa5d07e595d983b8c0526c8f7fb8787604051611344929190612c1c565b60405180910390a461135a818787878787611b6e565b505050505050565b61136c8133611cc9565b50565b6113798282610e60565b60008281526001602052604090206107139082610ee4565b61139b8282611d22565b60008281526001602052604090206107139082611d87565b6113bb611d9c565b6005805460ff191690557f5db9ee0a495bf2e6ff9c91a7834c1ba4fdd244a5e8aa4e537bd38aeae4b073aa335b6040516001600160a01b03909116815260200160405180910390a1565b6001600160a01b03831661142b5760405162461bcd60e51b81526004016105b190612af4565b805182511461144c5760405162461bcd60e51b81526004016105b190612bbc565b600033905061146f818560008686604051806020016040528060008152506119b4565b60005b835181101561153757600084828151811061148f5761148f612a6e565b6020026020010151905060008483815181106114ad576114ad612a6e565b60209081029190910181015160008481526002835260408082206001600160a01b038c1683529093529190912054909150818110156114fe5760405162461bcd60e51b81526004016105b190612b37565b60009283526002602090815260408085206001600160a01b038b168652909152909220910390558061152f81612a9a565b915050611472565b5060006001600160a01b0316846001600160a01b0316826001600160a01b03167f4a39dc06d4c0dbc64b70af90fd698a233a518aa5d07e595d983b8c0526c8f7fb8686604051611588929190612c1c565b60405180910390a460408051602081019091526000905261076a565b6001600160a01b0384166115ca5760405162461bcd60e51b81526004016105b190612b7b565b3360006115d685611969565b905060006115e385611969565b90506115f4836000898585896119b4565b60008681526002602090815260408083206001600160a01b038b16845290915281208054879290611626908490612c04565b909155505060408051878152602081018790526001600160a01b03808a1692600092918716917fc3d58168c5ae7397731d063d5bbf3d657854427343f4c083240f7aacaa2d0f62910160405180910390a461105183600089898989611de5565b61168e611ea0565b6005805460ff191660011790557f62e78cea01bee320cd4e420270b5ea74000d11b0c9f74754ebdbfc544b05a2586113e83390565b6000610c518383611ee6565b816001600160a01b0316836001600160a01b0316036117425760405162461bcd60e51b815260206004820152602960248201527f455243313135353a2073657474696e6720617070726f76616c20737461747573604482015268103337b91039b2b63360b91b60648201526084016105b1565b6001600160a01b03838116600081815260036020908152604080832094871680845294825291829020805460ff191686151590811790915591519182527f17307eab39ab6107e8899845ad3d59bd9653f200f220920489ca2b5937696c31910160405180910390a3505050565b60006105df825490565b6001600160a01b0384166117df5760405162461bcd60e51b81526004016105b190612c4a565b3360006117eb85611969565b905060006117f885611969565b90506118088389898585896119b4565b60008681526002602090815260408083206001600160a01b038c1684529091529020548581101561184b5760405162461bcd60e51b81526004016105b190612c8f565b60008781526002602090815260408083206001600160a01b038d8116855292528083208985039055908a1682528120805488929061188a908490612c04565b909155505060408051888152602081018890526001600160a01b03808b16928c821692918816917fc3d58168c5ae7397731d063d5bbf3d657854427343f4c083240f7aacaa2d0f62910160405180910390a46118ea848a8a8a8a8a611de5565b505050505050505050565b600081815260018301602052604081205461193c575081546001818101845560008481526020808220909301849055845484825282860190935260409020919091556105df565b5060006105df565b60006001600160e01b03198216635a05180f60e01b14806105df57506105df82611f10565b604080516001808252818301909252606091600091906020808301908036833701905050905082816000815181106119a3576119a3612a6e565b602090810291909101015292915050565b6001600160a01b038516611a415760005b8351811015611a3b578281815181106119e0576119e0612a6e565b6020026020010151600660008684815181106119fe576119fe612a6e565b602002602001015181526020019081526020016000206000828254611a239190612c04565b90915550819050611a3381612a9a565b9150506119c5565b5061135a565b6001600160a01b038416611ac85760005b8351811015611a3b57828181518110611a6d57611a6d612a6e565b602002602001015160066000868481518110611a8b57611a8b612a6e565b602002602001015181526020019081526020016000206000828254611ab09190612cd9565b90915550819050611ac081612a9a565b915050611a52565b6001600160a01b03851615801590611ae857506001600160a01b03841615155b1561135a57611b177f8502233096d909befbda0999bb8ea2f3a6be3c138b9fbf003752a4c8bce86f6c87610c58565b61135a5760405162461bcd60e51b815260206004820152602260248201527f4d7573742068617665207472616e66657220726f6c6520746f207472616e736660448201526132b960f11b60648201526084016105b1565b6001600160a01b0384163b1561135a5760405163bc197c8160e01b81526001600160a01b0385169063bc197c8190611bb29089908990889088908890600401612cf0565b6020604051808303816000875af1925050508015611bed575060408051601f3d908101601f19168201909252611bea91810190612d4e565b60015b611c9957611bf9612d6b565b806308c379a003611c325750611c0d612d87565b80611c185750611c34565b8060405162461bcd60e51b81526004016105b19190612368565b505b60405162461bcd60e51b815260206004820152603460248201527f455243313135353a207472616e7366657220746f206e6f6e2d455243313135356044820152732932b1b2b4bb32b91034b6b83632b6b2b73a32b960611b60648201526084016105b1565b6001600160e01b0319811663bc197c8160e01b146110515760405162461bcd60e51b81526004016105b190612e10565b611cd38282610c58565b61085b57611ce081611f45565b611ceb836020611f57565b604051602001611cfc929190612e58565b60408051601f198184030181529082905262461bcd60e51b82526105b191600401612368565b611d2c8282610c58565b1561085b576000828152602081815260408083206001600160a01b0385168085529252808320805460ff1916905551339285917ff6391f5c32d9c69d2a47ea670b442974b53935d1edc7fd64eb21e047a839171b9190a45050565b6000610c51836001600160a01b0384166120f2565b60055460ff166109035760405162461bcd60e51b815260206004820152601460248201527314185d5cd8589b194e881b9bdd081c185d5cd95960621b60448201526064016105b1565b6001600160a01b0384163b1561135a5760405163f23a6e6160e01b81526001600160a01b0385169063f23a6e6190611e299089908990889088908890600401612ecd565b6020604051808303816000875af1925050508015611e64575060408051601f3d908101601f19168201909252611e6191810190612d4e565b60015b611e7057611bf9612d6b565b6001600160e01b0319811663f23a6e6160e01b146110515760405162461bcd60e51b81526004016105b190612e10565b60055460ff16156109035760405162461bcd60e51b815260206004820152601060248201526f14185d5cd8589b194e881c185d5cd95960821b60448201526064016105b1565b6000826000018281548110611efd57611efd612a6e565b9060005260206000200154905092915050565b60006001600160e01b03198216637965db0b60e01b14806105df57506301ffc9a760e01b6001600160e01b03198316146105df565b60606105df6001600160a01b03831660145b60606000611f66836002612ab3565b611f71906002612c04565b6001600160401b03811115611f8857611f886123ae565b6040519080825280601f01601f191660200182016040528015611fb2576020820181803683370190505b509050600360fc1b81600081518110611fcd57611fcd612a6e565b60200101906001600160f81b031916908160001a905350600f60fb1b81600181518110611ffc57611ffc612a6e565b60200101906001600160f81b031916908160001a9053506000612020846002612ab3565b61202b906001612c04565b90505b60018111156120a3576f181899199a1a9b1b9c1cb0b131b232b360811b85600f166010811061205f5761205f612a6e565b1a60f81b82828151811061207557612075612a6e565b60200101906001600160f81b031916908160001a90535060049490941c9361209c81612f12565b905061202e565b508315610c515760405162461bcd60e51b815260206004820181905260248201527f537472696e67733a20686578206c656e67746820696e73756666696369656e7460448201526064016105b1565b600081815260018301602052604081205480156121db576000612116600183612cd9565b855490915060009061212a90600190612cd9565b905081811461218f57600086600001828154811061214a5761214a612a6e565b906000526020600020015490508087600001848154811061216d5761216d612a6e565b6000918252602080832090910192909255918252600188019052604090208390555b85548690806121a0576121a0612f29565b6001900381819060005260206000200160009055905585600101600086815260200190815260200160002060009055600193505050506105df565b60009150506105df565b8280546121f190612989565b90600052602060002090601f0160209004810192826122135760008555612259565b82601f1061222c57805160ff1916838001178555612259565b82800160010185558215612259579182015b8281111561225957825182559160200191906001019061223e565b50612265929150612269565b5090565b5b80821115612265576000815560010161226a565b80356001600160a01b038116811461229557600080fd5b919050565b600080604083850312156122ad57600080fd5b6122b68361227e565b946020939093013593505050565b6001600160e01b03198116811461136c57600080fd5b6000602082840312156122ec57600080fd5b8135610c51816122c4565b60006020828403121561230957600080fd5b5035919050565b60005b8381101561232b578181015183820152602001612313565b8381111561076a5750506000910152565b60008151808452612354816020860160208601612310565b601f01601f19169290920160200192915050565b602081526000610c51602083018461233c565b60008060006060848603121561239057600080fd5b6123998461227e565b95602085013595506040909401359392505050565b634e487b7160e01b600052604160045260246000fd5b601f8201601f191681016001600160401b03811182821017156123e9576123e96123ae565b6040525050565b60006001600160401b03821115612409576124096123ae565b5060051b60200190565b600082601f83011261242457600080fd5b81356020612431826123f0565b60405161243e82826123c4565b83815260059390931b850182019282810191508684111561245e57600080fd5b8286015b848110156124795780358352918301918301612462565b509695505050505050565b60006001600160401b0383111561249d5761249d6123ae565b6040516124b4601f8501601f1916602001826123c4565b8091508381528484840111156124c957600080fd5b83836020830137600060208583010152509392505050565b600082601f8301126124f257600080fd5b610c5183833560208501612484565b6000806000806080858703121561251757600080fd5b6125208561227e565b935060208501356001600160401b038082111561253c57600080fd5b61254888838901612413565b9450604087013591508082111561255e57600080fd5b61256a88838901612413565b9350606087013591508082111561258057600080fd5b5061258d878288016124e1565b91505092959194509250565b600080600080600060a086880312156125b157600080fd5b6125ba8661227e565b94506125c86020870161227e565b935060408601356001600160401b03808211156125e457600080fd5b6125f089838a01612413565b9450606088013591508082111561260657600080fd5b61261289838a01612413565b9350608088013591508082111561262857600080fd5b50612635888289016124e1565b9150509295509295909350565b6000806040838503121561265557600080fd5b823591506126656020840161227e565b90509250929050565b6000806040838503121561268157600080fd5b82356001600160401b038082111561269857600080fd5b818501915085601f8301126126ac57600080fd5b813560206126b9826123f0565b6040516126c682826123c4565b83815260059390931b85018201928281019150898411156126e657600080fd5b948201945b8386101561270b576126fc8661227e565b825294820194908201906126eb565b9650508601359250508082111561272157600080fd5b5061272e85828601612413565b9150509250929050565b600081518084526020808501945080840160005b838110156127685781518752958201959082019060010161274c565b509495945050505050565b602081526000610c516020830184612738565b60008060006060848603121561279b57600080fd5b6127a48461227e565b925060208401356001600160401b03808211156127c057600080fd5b6127cc87838801612413565b935060408601359150808211156127e257600080fd5b506127ef86828701612413565b9150509250925092565b6000806000806080858703121561280f57600080fd5b6128188561227e565b9350602085013592506040850135915060608501356001600160401b0381111561284157600080fd5b61258d878288016124e1565b6000806040838503121561286057600080fd5b8235915060208301356001600160401b0381111561287d57600080fd5b8301601f8101851361288e57600080fd5b61272e85823560208401612484565b600080604083850312156128b057600080fd5b50508035926020909101359150565b600080604083850312156128d257600080fd5b6128db8361227e565b9150602083013580151581146128f057600080fd5b809150509250929050565b6000806040838503121561290e57600080fd5b6129178361227e565b91506126656020840161227e565b600080600080600060a0868803121561293d57600080fd5b6129468661227e565b94506129546020870161227e565b9350604086013592506060860135915060808601356001600160401b0381111561297d57600080fd5b612635888289016124e1565b600181811c9082168061299d57607f821691505b6020821081036129bd57634e487b7160e01b600052602260045260246000fd5b50919050565b60208082526038908201527f455243313135355072657365744d696e7465725061757365723a206d7573742060408201527f68617665206d696e74657220726f6c6520746f206d696e740000000000000000606082015260800190565b6020808252602e908201527f455243313135353a2063616c6c6572206973206e6f7420746f6b656e206f776e60408201526d195c881bdc88185c1c1c9bdd995960921b606082015260800190565b634e487b7160e01b600052603260045260246000fd5b634e487b7160e01b600052601160045260246000fd5b600060018201612aac57612aac612a84565b5060010190565b6000816000190483118215151615612acd57612acd612a84565b500290565b600082612aef57634e487b7160e01b600052601260045260246000fd5b500490565b60208082526023908201527f455243313135353a206275726e2066726f6d20746865207a65726f206164647260408201526265737360e81b606082015260800190565b60208082526024908201527f455243313135353a206275726e20616d6f756e7420657863656564732062616c604082015263616e636560e01b606082015260800190565b60208082526021908201527f455243313135353a206d696e7420746f20746865207a65726f206164647265736040820152607360f81b606082015260800190565b60208082526028908201527f455243313135353a2069647320616e6420616d6f756e7473206c656e677468206040820152670dad2e6dac2e8c6d60c31b606082015260800190565b60008219821115612c1757612c17612a84565b500190565b604081526000612c2f6040830185612738565b8281036020840152612c418185612738565b95945050505050565b60208082526025908201527f455243313135353a207472616e7366657220746f20746865207a65726f206164604082015264647265737360d81b606082015260800190565b6020808252602a908201527f455243313135353a20696e73756666696369656e742062616c616e636520666f60408201526939103a3930b739b332b960b11b606082015260800190565b600082821015612ceb57612ceb612a84565b500390565b6001600160a01b0386811682528516602082015260a060408201819052600090612d1c90830186612738565b8281036060840152612d2e8186612738565b90508281036080840152612d42818561233c565b98975050505050505050565b600060208284031215612d6057600080fd5b8151610c51816122c4565b600060033d1115612d845760046000803e5060005160e01c5b90565b600060443d1015612d955790565b6040516003193d81016004833e81513d6001600160401b038160248401118184111715612dc457505050505090565b8285019150815181811115612ddc5750505050505090565b843d8701016020828501011115612df65750505050505090565b612e05602082860101876123c4565b509095945050505050565b60208082526028908201527f455243313135353a204552433131353552656365697665722072656a656374656040820152676420746f6b656e7360c01b606082015260800190565b7f416363657373436f6e74726f6c3a206163636f756e7420000000000000000000815260008351612e90816017850160208801612310565b7001034b99036b4b9b9b4b733903937b6329607d1b6017918401918201528351612ec1816028840160208801612310565b01602801949350505050565b6001600160a01b03868116825285166020820152604081018490526060810183905260a060808201819052600090612f079083018461233c565b979650505050505050565b600081612f2157612f21612a84565b506000190190565b634e487b7160e01b600052603160045260246000fdfea2646970667358221220e7973eefaf81951b5f2dd1e14036397101ec8f7f76aac14572e4adfcb446154064736f6c634300080d0033",
  "immutableReferences": {},
  "source": "//SPDX-License-Identifier: Unlicense\npragma solidity ^0.8.0;\npragma experimental ABIEncoderV2;\n\nimport \"@openzeppelin/contracts/token/ERC1155/presets/ERC1155PresetMinterPauser.sol\";\n\n/**\n * Reputation NFT for wormhole\n * By now id = 0 stores user's twitter base reputation\n * We mint and burn reputation by our central server now because of the freguetly update and twitter data fetch\n * And we will revolk the admin roles when our decentralize alglom contract deployed.\n * All this NFT cant be transfered by now.\n */\ncontract Reputation is ERC1155PresetMinterPauser {\n\n    bytes32 public constant TRANSFER_ROLE = keccak256(\"TRANSFER_ROLE\");\n    // admin can burn user's reputation\n    bytes32 public constant BURN_ROLE = keccak256(\"BURN_ROLE\");\n    bytes32 public constant URLSETTER_ROLE = keccak256(\"URLSETTER_ROLE\");\n\n    // total supplys of id\n    mapping(uint256 => uint256) private _supplys;\n\n    mapping(uint256 => string) private tokenURI;\n\n    constructor(string memory uri_) ERC1155PresetMinterPauser(uri_){\n        _setupRole(TRANSFER_ROLE, _msgSender());\n        _setupRole(BURN_ROLE, _msgSender());\n        _setupRole(URLSETTER_ROLE, _msgSender());\n    }\n\n    function supplysOf(uint256 id) public view returns (uint256) {\n        return _supplys[id];\n    }\n\n    function adminBurn(address account, uint256 id, uint256 value) public {\n        require(hasRole(BURN_ROLE, _msgSender()), \"Must have burn role to burn\");\n        _burn(account, id, value);\n    }\n\n    function adminBurnBatch(address from,\n        uint256[] memory ids,\n        uint256[] memory amounts\n    ) public {\n        require(hasRole(BURN_ROLE, _msgSender()), \"Must have burn role to burn\");\n        _burnBatch(from, ids, amounts);\n    }\n\n    // Someone's reputation is the ratio his balance of total supply\n    // The result must multi 1e12 out of blockchain\n    function getReputation(address account, uint256 id) public view returns (uint256) {\n        require(account != address(0), \"Reputation query for the zero address\");\n        uint256 balance = balanceOf(account, id);\n        return balance * 1e12 / supplysOf(id);\n    }\n\n    function setURI(uint _id, string memory _uri) external {\n        require(hasRole(URLSETTER_ROLE, _msgSender()), \"Must have url setter role to set\");\n        tokenURI[_id] = _uri;\n        emit URI(_uri, _id);\n    }\n\n    function uri(uint _id) public override view returns (string memory) {\n        return tokenURI[_id];\n    }\n\n    // override this internal method\n    // We add _supplys to every id, and we need update this value when mint or burn\n    // And user cant transfer reputations\n    function _beforeTokenTransfer(\n        address operator,\n        address from,\n        address to,\n        uint256[] memory ids,\n        uint256[] memory amounts,\n        bytes memory /*data*/\n    ) internal override {\n        if (from  == address(0)) { // mint\n            for (uint256 i; i < ids.length; i++) {\n                _supplys[ids[i]] += amounts[i];\n            }\n        }else if(to == address(0)) { // burn\n            for (uint256 i; i < ids.length; i++) {\n                _supplys[ids[i]] -= amounts[i];\n            }\n        } else if (from != address(0) && to != address(0)) { // transfer\n            require(hasRole(TRANSFER_ROLE, operator), \"Must have tranfer role to transfer\");\n        }\n    }\n}",
  "sourcePath": "/Users/wangxi/work/Walnut-V2/nutbox-contract/contracts/NFT/Reputation.sol",
  "compiler": {
    "name": "solc",
    "version": "0.8.13+commit.abaa5c0e.Emscripten.clang"
  },
  "schemaVersion": "3.3.4",
  "updatedAt": "2024-06-25T07:57:02.178Z",
  "devdoc": {
    "kind": "dev",
    "methods": {
      "balanceOf(address,uint256)": {
        "details": "See {IERC1155-balanceOf}. Requirements: - `account` cannot be the zero address."
      },
      "balanceOfBatch(address[],uint256[])": {
        "details": "See {IERC1155-balanceOfBatch}. Requirements: - `accounts` and `ids` must have the same length."
      },
      "getRoleAdmin(bytes32)": {
        "details": "Returns the admin role that controls `role`. See {grantRole} and {revokeRole}. To change a role's admin, use {_setRoleAdmin}."
      },
      "getRoleMember(bytes32,uint256)": {
        "details": "Returns one of the accounts that have `role`. `index` must be a value between 0 and {getRoleMemberCount}, non-inclusive. Role bearers are not sorted in any particular way, and their ordering may change at any point. WARNING: When using {getRoleMember} and {getRoleMemberCount}, make sure you perform all queries on the same block. See the following https://forum.openzeppelin.com/t/iterating-over-elements-on-enumerableset-in-openzeppelin-contracts/2296[forum post] for more information."
      },
      "getRoleMemberCount(bytes32)": {
        "details": "Returns the number of accounts that have `role`. Can be used together with {getRoleMember} to enumerate all bearers of a role."
      },
      "grantRole(bytes32,address)": {
        "details": "Grants `role` to `account`. If `account` had not been already granted `role`, emits a {RoleGranted} event. Requirements: - the caller must have ``role``'s admin role. May emit a {RoleGranted} event."
      },
      "hasRole(bytes32,address)": {
        "details": "Returns `true` if `account` has been granted `role`."
      },
      "isApprovedForAll(address,address)": {
        "details": "See {IERC1155-isApprovedForAll}."
      },
      "mint(address,uint256,uint256,bytes)": {
        "details": "Creates `amount` new tokens for `to`, of token type `id`. See {ERC1155-_mint}. Requirements: - the caller must have the `MINTER_ROLE`."
      },
      "mintBatch(address,uint256[],uint256[],bytes)": {
        "details": "xref:ROOT:erc1155.adoc#batch-operations[Batched] variant of {mint}."
      },
      "pause()": {
        "details": "Pauses all token transfers. See {ERC1155Pausable} and {Pausable-_pause}. Requirements: - the caller must have the `PAUSER_ROLE`."
      },
      "paused()": {
        "details": "Returns true if the contract is paused, and false otherwise."
      },
      "renounceRole(bytes32,address)": {
        "details": "Revokes `role` from the calling account. Roles are often managed via {grantRole} and {revokeRole}: this function's purpose is to provide a mechanism for accounts to lose their privileges if they are compromised (such as when a trusted device is misplaced). If the calling account had been revoked `role`, emits a {RoleRevoked} event. Requirements: - the caller must be `account`. May emit a {RoleRevoked} event."
      },
      "revokeRole(bytes32,address)": {
        "details": "Revokes `role` from `account`. If `account` had been granted `role`, emits a {RoleRevoked} event. Requirements: - the caller must have ``role``'s admin role. May emit a {RoleRevoked} event."
      },
      "safeBatchTransferFrom(address,address,uint256[],uint256[],bytes)": {
        "details": "See {IERC1155-safeBatchTransferFrom}."
      },
      "safeTransferFrom(address,address,uint256,uint256,bytes)": {
        "details": "See {IERC1155-safeTransferFrom}."
      },
      "setApprovalForAll(address,bool)": {
        "details": "See {IERC1155-setApprovalForAll}."
      },
      "supportsInterface(bytes4)": {
        "details": "See {IERC165-supportsInterface}."
      },
      "unpause()": {
        "details": "Unpauses all token transfers. See {ERC1155Pausable} and {Pausable-_unpause}. Requirements: - the caller must have the `PAUSER_ROLE`."
      }
    },
    "version": 1
  },
  "userdoc": {
    "kind": "user",
    "methods": {},
    "notice": "Reputation NFT for wormhole By now id = 0 stores user's twitter base reputation We mint and burn reputation by our central server now because of the freguetly update and twitter data fetch And we will revolk the admin roles when our decentralize alglom contract deployed. All this NFT cant be transfered by now.",
    "version": 1
  }
}