{
  "contractName": "Reputation",
  "abi": [
    {
      "inputs": [
        {
          "internalType": "string",
          "name": "uri_",
          "type": "string"
        }
      ],
      "stateMutability": "nonpayable",
      "type": "constructor"
    },
    {
      "anonymous": false,
      "inputs": [
        {
          "indexed": true,
          "internalType": "address",
          "name": "account",
          "type": "address"
        },
        {
          "indexed": true,
          "internalType": "address",
          "name": "operator",
          "type": "address"
        },
        {
          "indexed": false,
          "internalType": "bool",
          "name": "approved",
          "type": "bool"
        }
      ],
      "name": "ApprovalForAll",
      "type": "event"
    },
    {
      "anonymous": false,
      "inputs": [
        {
          "indexed": false,
          "internalType": "address",
          "name": "account",
          "type": "address"
        }
      ],
      "name": "Paused",
      "type": "event"
    },
    {
      "anonymous": false,
      "inputs": [
        {
          "indexed": true,
          "internalType": "bytes32",
          "name": "role",
          "type": "bytes32"
        },
        {
          "indexed": true,
          "internalType": "bytes32",
          "name": "previousAdminRole",
          "type": "bytes32"
        },
        {
          "indexed": true,
          "internalType": "bytes32",
          "name": "newAdminRole",
          "type": "bytes32"
        }
      ],
      "name": "RoleAdminChanged",
      "type": "event"
    },
    {
      "anonymous": false,
      "inputs": [
        {
          "indexed": true,
          "internalType": "bytes32",
          "name": "role",
          "type": "bytes32"
        },
        {
          "indexed": true,
          "internalType": "address",
          "name": "account",
          "type": "address"
        },
        {
          "indexed": true,
          "internalType": "address",
          "name": "sender",
          "type": "address"
        }
      ],
      "name": "RoleGranted",
      "type": "event"
    },
    {
      "anonymous": false,
      "inputs": [
        {
          "indexed": true,
          "internalType": "bytes32",
          "name": "role",
          "type": "bytes32"
        },
        {
          "indexed": true,
          "internalType": "address",
          "name": "account",
          "type": "address"
        },
        {
          "indexed": true,
          "internalType": "address",
          "name": "sender",
          "type": "address"
        }
      ],
      "name": "RoleRevoked",
      "type": "event"
    },
    {
      "anonymous": false,
      "inputs": [
        {
          "indexed": true,
          "internalType": "address",
          "name": "operator",
          "type": "address"
        },
        {
          "indexed": true,
          "internalType": "address",
          "name": "from",
          "type": "address"
        },
        {
          "indexed": true,
          "internalType": "address",
          "name": "to",
          "type": "address"
        },
        {
          "indexed": false,
          "internalType": "uint256[]",
          "name": "ids",
          "type": "uint256[]"
        },
        {
          "indexed": false,
          "internalType": "uint256[]",
          "name": "values",
          "type": "uint256[]"
        }
      ],
      "name": "TransferBatch",
      "type": "event"
    },
    {
      "anonymous": false,
      "inputs": [
        {
          "indexed": true,
          "internalType": "address",
          "name": "operator",
          "type": "address"
        },
        {
          "indexed": true,
          "internalType": "address",
          "name": "from",
          "type": "address"
        },
        {
          "indexed": true,
          "internalType": "address",
          "name": "to",
          "type": "address"
        },
        {
          "indexed": false,
          "internalType": "uint256",
          "name": "id",
          "type": "uint256"
        },
        {
          "indexed": false,
          "internalType": "uint256",
          "name": "value",
          "type": "uint256"
        }
      ],
      "name": "TransferSingle",
      "type": "event"
    },
    {
      "anonymous": false,
      "inputs": [
        {
          "indexed": false,
          "internalType": "string",
          "name": "value",
          "type": "string"
        },
        {
          "indexed": true,
          "internalType": "uint256",
          "name": "id",
          "type": "uint256"
        }
      ],
      "name": "URI",
      "type": "event"
    },
    {
      "anonymous": false,
      "inputs": [
        {
          "indexed": false,
          "internalType": "address",
          "name": "account",
          "type": "address"
        }
      ],
      "name": "Unpaused",
      "type": "event"
    },
    {
      "inputs": [],
      "name": "BURN_ROLE",
      "outputs": [
        {
          "internalType": "bytes32",
          "name": "",
          "type": "bytes32"
        }
      ],
      "stateMutability": "view",
      "type": "function"
    },
    {
      "inputs": [],
      "name": "DEFAULT_ADMIN_ROLE",
      "outputs": [
        {
          "internalType": "bytes32",
          "name": "",
          "type": "bytes32"
        }
      ],
      "stateMutability": "view",
      "type": "function"
    },
    {
      "inputs": [],
      "name": "MINTER_ROLE",
      "outputs": [
        {
          "internalType": "bytes32",
          "name": "",
          "type": "bytes32"
        }
      ],
      "stateMutability": "view",
      "type": "function"
    },
    {
      "inputs": [],
      "name": "PAUSER_ROLE",
      "outputs": [
        {
          "internalType": "bytes32",
          "name": "",
          "type": "bytes32"
        }
      ],
      "stateMutability": "view",
      "type": "function"
    },
    {
      "inputs": [],
      "name": "TRANSFER_ROLE",
      "outputs": [
        {
          "internalType": "bytes32",
          "name": "",
          "type": "bytes32"
        }
      ],
      "stateMutability": "view",
      "type": "function"
    },
    {
      "inputs": [],
      "name": "URLSETTER_ROLE",
      "outputs": [
        {
          "internalType": "bytes32",
          "name": "",
          "type": "bytes32"
        }
      ],
      "stateMutability": "view",
      "type": "function"
    },
    {
      "inputs": [
        {
          "internalType": "address",
          "name": "account",
          "type": "address"
        },
        {
          "internalType": "uint256",
          "name": "id",
          "type": "uint256"
        }
      ],
      "name": "balanceOf",
      "outputs": [
        {
          "internalType": "uint256",
          "name": "",
          "type": "uint256"
        }
      ],
      "stateMutability": "view",
      "type": "function"
    },
    {
      "inputs": [
        {
          "internalType": "address[]",
          "name": "accounts",
          "type": "address[]"
        },
        {
          "internalType": "uint256[]",
          "name": "ids",
          "type": "uint256[]"
        }
      ],
      "name": "balanceOfBatch",
      "outputs": [
        {
          "internalType": "uint256[]",
          "name": "",
          "type": "uint256[]"
        }
      ],
      "stateMutability": "view",
      "type": "function"
    },
    {
      "inputs": [
        {
          "internalType": "address",
          "name": "account",
          "type": "address"
        },
        {
          "internalType": "uint256",
          "name": "id",
          "type": "uint256"
        },
        {
          "internalType": "uint256",
          "name": "value",
          "type": "uint256"
        }
      ],
      "name": "burn",
      "outputs": [],
      "stateMutability": "nonpayable",
      "type": "function"
    },
    {
      "inputs": [
        {
          "internalType": "address",
          "name": "account",
          "type": "address"
        },
        {
          "internalType": "uint256[]",
          "name": "ids",
          "type": "uint256[]"
        },
        {
          "internalType": "uint256[]",
          "name": "values",
          "type": "uint256[]"
        }
      ],
      "name": "burnBatch",
      "outputs": [],
      "stateMutability": "nonpayable",
      "type": "function"
    },
    {
      "inputs": [
        {
          "internalType": "bytes32",
          "name": "role",
          "type": "bytes32"
        }
      ],
      "name": "getRoleAdmin",
      "outputs": [
        {
          "internalType": "bytes32",
          "name": "",
          "type": "bytes32"
        }
      ],
      "stateMutability": "view",
      "type": "function"
    },
    {
      "inputs": [
        {
          "internalType": "bytes32",
          "name": "role",
          "type": "bytes32"
        },
        {
          "internalType": "uint256",
          "name": "index",
          "type": "uint256"
        }
      ],
      "name": "getRoleMember",
      "outputs": [
        {
          "internalType": "address",
          "name": "",
          "type": "address"
        }
      ],
      "stateMutability": "view",
      "type": "function"
    },
    {
      "inputs": [
        {
          "internalType": "bytes32",
          "name": "role",
          "type": "bytes32"
        }
      ],
      "name": "getRoleMemberCount",
      "outputs": [
        {
          "internalType": "uint256",
          "name": "",
          "type": "uint256"
        }
      ],
      "stateMutability": "view",
      "type": "function"
    },
    {
      "inputs": [
        {
          "internalType": "bytes32",
          "name": "role",
          "type": "bytes32"
        },
        {
          "internalType": "address",
          "name": "account",
          "type": "address"
        }
      ],
      "name": "grantRole",
      "outputs": [],
      "stateMutability": "nonpayable",
      "type": "function"
    },
    {
      "inputs": [
        {
          "internalType": "bytes32",
          "name": "role",
          "type": "bytes32"
        },
        {
          "internalType": "address",
          "name": "account",
          "type": "address"
        }
      ],
      "name": "hasRole",
      "outputs": [
        {
          "internalType": "bool",
          "name": "",
          "type": "bool"
        }
      ],
      "stateMutability": "view",
      "type": "function"
    },
    {
      "inputs": [
        {
          "internalType": "address",
          "name": "account",
          "type": "address"
        },
        {
          "internalType": "address",
          "name": "operator",
          "type": "address"
        }
      ],
      "name": "isApprovedForAll",
      "outputs": [
        {
          "internalType": "bool",
          "name": "",
          "type": "bool"
        }
      ],
      "stateMutability": "view",
      "type": "function"
    },
    {
      "inputs": [
        {
          "internalType": "address",
          "name": "to",
          "type": "address"
        },
        {
          "internalType": "uint256",
          "name": "id",
          "type": "uint256"
        },
        {
          "internalType": "uint256",
          "name": "amount",
          "type": "uint256"
        },
        {
          "internalType": "bytes",
          "name": "data",
          "type": "bytes"
        }
      ],
      "name": "mint",
      "outputs": [],
      "stateMutability": "nonpayable",
      "type": "function"
    },
    {
      "inputs": [
        {
          "internalType": "address",
          "name": "to",
          "type": "address"
        },
        {
          "internalType": "uint256[]",
          "name": "ids",
          "type": "uint256[]"
        },
        {
          "internalType": "uint256[]",
          "name": "amounts",
          "type": "uint256[]"
        },
        {
          "internalType": "bytes",
          "name": "data",
          "type": "bytes"
        }
      ],
      "name": "mintBatch",
      "outputs": [],
      "stateMutability": "nonpayable",
      "type": "function"
    },
    {
      "inputs": [],
      "name": "pause",
      "outputs": [],
      "stateMutability": "nonpayable",
      "type": "function"
    },
    {
      "inputs": [],
      "name": "paused",
      "outputs": [
        {
          "internalType": "bool",
          "name": "",
          "type": "bool"
        }
      ],
      "stateMutability": "view",
      "type": "function"
    },
    {
      "inputs": [
        {
          "internalType": "bytes32",
          "name": "role",
          "type": "bytes32"
        },
        {
          "internalType": "address",
          "name": "account",
          "type": "address"
        }
      ],
      "name": "renounceRole",
      "outputs": [],
      "stateMutability": "nonpayable",
      "type": "function"
    },
    {
      "inputs": [
        {
          "internalType": "bytes32",
          "name": "role",
          "type": "bytes32"
        },
        {
          "internalType": "address",
          "name": "account",
          "type": "address"
        }
      ],
      "name": "revokeRole",
      "outputs": [],
      "stateMutability": "nonpayable",
      "type": "function"
    },
    {
      "inputs": [
        {
          "internalType": "address",
          "name": "from",
          "type": "address"
        },
        {
          "internalType": "address",
          "name": "to",
          "type": "address"
        },
        {
          "internalType": "uint256[]",
          "name": "ids",
          "type": "uint256[]"
        },
        {
          "internalType": "uint256[]",
          "name": "amounts",
          "type": "uint256[]"
        },
        {
          "internalType": "bytes",
          "name": "data",
          "type": "bytes"
        }
      ],
      "name": "safeBatchTransferFrom",
      "outputs": [],
      "stateMutability": "nonpayable",
      "type": "function"
    },
    {
      "inputs": [
        {
          "internalType": "address",
          "name": "from",
          "type": "address"
        },
        {
          "internalType": "address",
          "name": "to",
          "type": "address"
        },
        {
          "internalType": "uint256",
          "name": "id",
          "type": "uint256"
        },
        {
          "internalType": "uint256",
          "name": "amount",
          "type": "uint256"
        },
        {
          "internalType": "bytes",
          "name": "data",
          "type": "bytes"
        }
      ],
      "name": "safeTransferFrom",
      "outputs": [],
      "stateMutability": "nonpayable",
      "type": "function"
    },
    {
      "inputs": [
        {
          "internalType": "address",
          "name": "operator",
          "type": "address"
        },
        {
          "internalType": "bool",
          "name": "approved",
          "type": "bool"
        }
      ],
      "name": "setApprovalForAll",
      "outputs": [],
      "stateMutability": "nonpayable",
      "type": "function"
    },
    {
      "inputs": [
        {
          "internalType": "bytes4",
          "name": "interfaceId",
          "type": "bytes4"
        }
      ],
      "name": "supportsInterface",
      "outputs": [
        {
          "internalType": "bool",
          "name": "",
          "type": "bool"
        }
      ],
      "stateMutability": "view",
      "type": "function"
    },
    {
      "inputs": [],
      "name": "unpause",
      "outputs": [],
      "stateMutability": "nonpayable",
      "type": "function"
    },
    {
      "inputs": [
        {
          "internalType": "uint256",
          "name": "id",
          "type": "uint256"
        }
      ],
      "name": "supplysOf",
      "outputs": [
        {
          "internalType": "uint256",
          "name": "",
          "type": "uint256"
        }
      ],
      "stateMutability": "view",
      "type": "function"
    },
    {
      "inputs": [
        {
          "internalType": "address",
          "name": "account",
          "type": "address"
        },
        {
          "internalType": "uint256",
          "name": "id",
          "type": "uint256"
        },
        {
          "internalType": "uint256",
          "name": "value",
          "type": "uint256"
        }
      ],
      "name": "adminBurn",
      "outputs": [],
      "stateMutability": "nonpayable",
      "type": "function"
    },
    {
      "inputs": [
        {
          "internalType": "address",
          "name": "from",
          "type": "address"
        },
        {
          "internalType": "uint256[]",
          "name": "ids",
          "type": "uint256[]"
        },
        {
          "internalType": "uint256[]",
          "name": "amounts",
          "type": "uint256[]"
        }
      ],
      "name": "adminBurnBatch",
      "outputs": [],
      "stateMutability": "nonpayable",
      "type": "function"
    },
    {
      "inputs": [
        {
          "internalType": "address",
          "name": "account",
          "type": "address"
        },
        {
          "internalType": "uint256",
          "name": "id",
          "type": "uint256"
        }
      ],
      "name": "getReputation",
      "outputs": [
        {
          "internalType": "uint256",
          "name": "",
          "type": "uint256"
        }
      ],
      "stateMutability": "view",
      "type": "function"
    },
    {
      "inputs": [
        {
          "internalType": "uint256",
          "name": "_id",
          "type": "uint256"
        },
        {
          "internalType": "string",
          "name": "_uri",
          "type": "string"
        }
      ],
      "name": "setURI",
      "outputs": [],
      "stateMutability": "nonpayable",
      "type": "function"
    },
    {
      "inputs": [
        {
          "internalType": "uint256",
          "name": "_id",
          "type": "uint256"
        }
      ],
      "name": "uri",
      "outputs": [
        {
          "internalType": "string",
          "name": "",
          "type": "string"
        }
      ],
      "stateMutability": "view",
      "type": "function"
    }
  ],
  "bytecode": "0x60806040523480156200001157600080fd5b50604051620033e3380380620033e383398101604081905262000034916200036d565b808062000041816200013d565b506005805460ff191690556200005960003362000156565b620000857f9f2df0fed2c77648de5860a4cc508cd0818c85b8b8a1ab4ceeef8d981c8956a63362000156565b620000b17f65d7a28e3265b37a6474929f336521b332c1681b933f6cb9f3376673440d862a3362000156565b50620000de7f8502233096d909befbda0999bb8ea2f3a6be3c138b9fbf003752a4c8bce86f6c3362000156565b6200010a7fe97b137254058bd94f28d2f3eb79e2d34074ffb488d042e3bc958e0a57d2fa223362000156565b620001367f8207333f63dadcd0f8115c92187d0d7102dbcb682d67cc7f9dfccbfc085348be3362000156565b5062000485565b805162000152906004906020840190620002b1565b5050565b6200015282826200017382826200019f60201b62000eae1760201c565b60008281526001602090815260409091206200019a91839062000f326200023f821b17901c565b505050565b6000828152602081815260408083206001600160a01b038516845290915290205460ff1662000152576000828152602081815260408083206001600160a01b03851684529091529020805460ff19166001179055620001fb3390565b6001600160a01b0316816001600160a01b0316837f2f8788117e7eff1d82e926ec794901d17c78024a50270940304540a733656f0d60405160405180910390a45050565b600062000256836001600160a01b0384166200025f565b90505b92915050565b6000818152600183016020526040812054620002a85750815460018181018455600084815260208082209093018490558454848252828601909352604090209190915562000259565b50600062000259565b828054620002bf9062000449565b90600052602060002090601f016020900481019282620002e357600085556200032e565b82601f10620002fe57805160ff19168380011785556200032e565b828001600101855582156200032e579182015b828111156200032e57825182559160200191906001019062000311565b506200033c92915062000340565b5090565b5b808211156200033c576000815560010162000341565b634e487b7160e01b600052604160045260246000fd5b600060208083850312156200038157600080fd5b82516001600160401b03808211156200039957600080fd5b818501915085601f830112620003ae57600080fd5b815181811115620003c357620003c362000357565b604051601f8201601f19908116603f01168101908382118183101715620003ee57620003ee62000357565b8160405282815288868487010111156200040757600080fd5b600093505b828410156200042b57848401860151818501870152928501926200040c565b828411156200043d5760008684830101525b98975050505050505050565b600181811c908216806200045e57607f821691505b6020821081036200047f57634e487b7160e01b600052602260045260246000fd5b50919050565b612f4e80620004956000396000f3fe608060405234801561001057600080fd5b50600436106101fa5760003560e01c8063862440e21161011a578063ca15c873116100ad578063e63ab1e91161007c578063e63ab1e9146104a1578063e985e9c5146104c8578063f242432a14610504578063f5298aca14610517578063face1ec51461052a57600080fd5b8063ca15c87314610441578063cd955e5c14610454578063d539139314610467578063d547741f1461048e57600080fd5b8063a22cb465116100e9578063a22cb465146103cd578063a24b951e146103e0578063ae8da89c14610407578063b930908f1461041a57600080fd5b8063862440e2146103745780639010d07c1461038757806391d14854146103b2578063a217fddf146103c557600080fd5b80632f2ff15d116101925780635c975abb116101615780635c975abb1461033b5780636b20c45414610346578063731133e9146103595780638456cb591461036c57600080fd5b80632f2ff15d146102ed57806336568abe146103005780633f4ba83a146103135780634e1273f41461031b57600080fd5b80631f7fdffa116101ce5780631f7fdffa1461027d578063206b60f914610290578063248a9ca3146102b75780632eb2c2d6146102da57600080fd5b8062fdd58e146101ff57806301ffc9a7146102255780630e89341c146102485780631b56a5be14610268575b600080fd5b61021261020d366004612275565b61054a565b6040519081526020015b60405180910390f35b6102386102333660046122b8565b6105e6565b604051901515815260200161021c565b61025b6102563660046122d5565b6105f1565b60405161021c9190612346565b61027b610276366004612359565b610693565b005b61027b61028b3660046124df565b610719565b6102127f8502233096d909befbda0999bb8ea2f3a6be3c138b9fbf003752a4c8bce86f6c81565b6102126102c53660046122d5565b60009081526020819052604090206001015490565b61027b6102e8366004612577565b610771565b61027b6102fb366004612620565b610808565b61027b61030e366004612620565b61082e565b61027b6108ac565b61032e61032936600461264c565b610952565b60405161021c9190612751565b60055460ff16610238565b61027b610354366004612764565b610a7b565b61027b6103673660046127d7565b610abe565b61027b610b10565b61027b61038236600461282b565b610bb4565b61039a61039536600461287b565b610c86565b6040516001600160a01b03909116815260200161021c565b6102386103c0366004612620565b610ca5565b610212600081565b61027b6103db36600461289d565b610cce565b6102127f8207333f63dadcd0f8115c92187d0d7102dbcb682d67cc7f9dfccbfc085348be81565b610212610415366004612275565b610cd9565b6102127fe97b137254058bd94f28d2f3eb79e2d34074ffb488d042e3bc958e0a57d2fa2281565b61021261044f3660046122d5565b610d7e565b61027b610462366004612764565b610d95565b6102127f9f2df0fed2c77648de5860a4cc508cd0818c85b8b8a1ab4ceeef8d981c8956a681565b61027b61049c366004612620565b610e0b565b6102127f65d7a28e3265b37a6474929f336521b332c1681b933f6cb9f3376673440d862a81565b6102386104d63660046128d9565b6001600160a01b03918216600090815260036020908152604080832093909416825291909152205460ff1690565b61027b610512366004612903565b610e31565b61027b610525366004612359565b610e76565b6102126105383660046122d5565b60009081526006602052604090205490565b60006001600160a01b0383166105bb5760405162461bcd60e51b815260206004820152602b60248201527f455243313135353a2062616c616e636520717565727920666f7220746865207a60448201526a65726f206164647265737360a81b60648201526084015b60405180910390fd5b5060008181526002602090815260408083206001600160a01b03861684529091529020545b92915050565b60006105e082610f47565b600081815260076020526040902080546060919061060e90612967565b80601f016020809104026020016040519081016040528092919081815260200182805461063a90612967565b80156106875780601f1061065c57610100808354040283529160200191610687565b820191906000526020600020905b81548152906001019060200180831161066a57829003601f168201915b50505050509050919050565b6106bd7fe97b137254058bd94f28d2f3eb79e2d34074ffb488d042e3bc958e0a57d2fa2233610ca5565b6107095760405162461bcd60e51b815260206004820152601b60248201527f4d7573742068617665206275726e20726f6c6520746f206275726e000000000060448201526064016105b2565b610714838383610f87565b505050565b6107437f9f2df0fed2c77648de5860a4cc508cd0818c85b8b8a1ab4ceeef8d981c8956a633610ca5565b61075f5760405162461bcd60e51b81526004016105b2906129a1565b61076b8484848461108c565b50505050565b6001600160a01b03851633148061078d575061078d85336104d6565b6107f45760405162461bcd60e51b815260206004820152603260248201527f455243313135353a207472616e736665722063616c6c6572206973206e6f74206044820152711bdddb995c881b9bdc88185c1c1c9bdd995960721b60648201526084016105b2565b61080185858585856111e7565b5050505050565b6000828152602081905260409020600101546108248133611394565b61071483836113f8565b6001600160a01b038116331461089e5760405162461bcd60e51b815260206004820152602f60248201527f416363657373436f6e74726f6c3a2063616e206f6e6c792072656e6f756e636560448201526e103937b632b9903337b91039b2b63360891b60648201526084016105b2565b6108a8828261141a565b5050565b6108d67f65d7a28e3265b37a6474929f336521b332c1681b933f6cb9f3376673440d862a33610ca5565b6109485760405162461bcd60e51b815260206004820152603b60248201527f455243313135355072657365744d696e7465725061757365723a206d7573742060448201527f686176652070617573657220726f6c6520746f20756e7061757365000000000060648201526084016105b2565b61095061143c565b565b606081518351146109b75760405162461bcd60e51b815260206004820152602960248201527f455243313135353a206163636f756e747320616e6420696473206c656e677468604482015268040dad2e6dac2e8c6d60bb1b60648201526084016105b2565b600083516001600160401b038111156109d2576109d261238c565b6040519080825280602002602001820160405280156109fb578160200160208202803683370190505b50905060005b8451811015610a7357610a46858281518110610a1f57610a1f6129fe565b6020026020010151858381518110610a3957610a396129fe565b602002602001015161054a565b828281518110610a5857610a586129fe565b6020908102919091010152610a6c81612a2a565b9050610a01565b509392505050565b6001600160a01b038316331480610a975750610a9783336104d6565b610ab35760405162461bcd60e51b81526004016105b290612a43565b6107148383836114cf565b610ae87f9f2df0fed2c77648de5860a4cc508cd0818c85b8b8a1ab4ceeef8d981c8956a633610ca5565b610b045760405162461bcd60e51b81526004016105b2906129a1565b61076b84848484611660565b610b3a7f65d7a28e3265b37a6474929f336521b332c1681b933f6cb9f3376673440d862a33610ca5565b610bac5760405162461bcd60e51b815260206004820152603960248201527f455243313135355072657365744d696e7465725061757365723a206d7573742060448201527f686176652070617573657220726f6c6520746f2070617573650000000000000060648201526084016105b2565b610950611738565b610bde7f8207333f63dadcd0f8115c92187d0d7102dbcb682d67cc7f9dfccbfc085348be33610ca5565b610c2a5760405162461bcd60e51b815260206004820181905260248201527f4d75737420686176652075726c2073657474657220726f6c6520746f2073657460448201526064016105b2565b60008281526007602090815260409091208251610c49928401906121c0565b50817f6bb7ff708619ba0610cba295a58592e0451dee2622938c8755667688daf3529b82604051610c7a9190612346565b60405180910390a25050565b6000828152600160205260408120610c9e90836117b3565b9392505050565b6000918252602082815260408084206001600160a01b0393909316845291905290205460ff1690565b6108a83383836117bf565b60006001600160a01b038316610d3f5760405162461bcd60e51b815260206004820152602560248201527f52657075746174696f6e20717565727920666f7220746865207a65726f206164604482015264647265737360d81b60648201526084016105b2565b6000610d4b848461054a565b600084815260066020526040902054909150610d6c8264e8d4a51000612a8c565b610d769190612aab565b949350505050565b60008181526001602052604081206105e09061189f565b610dbf7fe97b137254058bd94f28d2f3eb79e2d34074ffb488d042e3bc958e0a57d2fa2233610ca5565b610ab35760405162461bcd60e51b815260206004820152601b60248201527f4d7573742068617665206275726e20726f6c6520746f206275726e000000000060448201526064016105b2565b600082815260208190526040902060010154610e278133611394565b610714838361141a565b6001600160a01b038516331480610e4d5750610e4d85336104d6565b610e695760405162461bcd60e51b81526004016105b290612a43565b61080185858585856118a9565b6001600160a01b038316331480610e925750610e9283336104d6565b6107095760405162461bcd60e51b81526004016105b290612a43565b610eb88282610ca5565b6108a8576000828152602081815260408083206001600160a01b03851684529091529020805460ff19166001179055610eee3390565b6001600160a01b0316816001600160a01b0316837f2f8788117e7eff1d82e926ec794901d17c78024a50270940304540a733656f0d60405160405180910390a45050565b6000610c9e836001600160a01b0384166119ca565b60006001600160e01b03198216636cdb3d1360e11b1480610f7857506001600160e01b031982166303a24d0760e21b145b806105e057506105e082611a19565b6001600160a01b038316610fad5760405162461bcd60e51b81526004016105b290612acd565b33610fdc81856000610fbe87611a3e565b610fc787611a3e565b60405180602001604052806000815250611a89565b60008381526002602090815260408083206001600160a01b03881684529091529020548281101561101f5760405162461bcd60e51b81526004016105b290612b10565b60008481526002602090815260408083206001600160a01b03898116808652918452828520888703905582518981529384018890529092908616917fc3d58168c5ae7397731d063d5bbf3d657854427343f4c083240f7aacaa2d0f62910160405180910390a45050505050565b6001600160a01b0384166110b25760405162461bcd60e51b81526004016105b290612b54565b81518351146110d35760405162461bcd60e51b81526004016105b290612b95565b336110e381600087878787611a89565b60005b845181101561117f57838181518110611101576111016129fe565b60200260200101516002600087848151811061111f5761111f6129fe565b602002602001015181526020019081526020016000206000886001600160a01b03166001600160a01b0316815260200190815260200160002060008282546111679190612bdd565b9091555081905061117781612a2a565b9150506110e6565b50846001600160a01b031660006001600160a01b0316826001600160a01b03167f4a39dc06d4c0dbc64b70af90fd698a233a518aa5d07e595d983b8c0526c8f7fb87876040516111d0929190612bf5565b60405180910390a461080181600087878787611c43565b81518351146112085760405162461bcd60e51b81526004016105b290612b95565b6001600160a01b03841661122e5760405162461bcd60e51b81526004016105b290612c23565b3361123d818787878787611a89565b60005b845181101561132657600085828151811061125d5761125d6129fe565b60200260200101519050600085838151811061127b5761127b6129fe565b60209081029190910181015160008481526002835260408082206001600160a01b038e1683529093529190912054909150818110156112cc5760405162461bcd60e51b81526004016105b290612c68565b60008381526002602090815260408083206001600160a01b038e8116855292528083208585039055908b1682528120805484929061130b908490612bdd565b925050819055505050508061131f90612a2a565b9050611240565b50846001600160a01b0316866001600160a01b0316826001600160a01b03167f4a39dc06d4c0dbc64b70af90fd698a233a518aa5d07e595d983b8c0526c8f7fb8787604051611376929190612bf5565b60405180910390a461138c818787878787611c43565b505050505050565b61139e8282610ca5565b6108a8576113b6816001600160a01b03166014611d9e565b6113c1836020611d9e565b6040516020016113d2929190612cb2565b60408051601f198184030181529082905262461bcd60e51b82526105b291600401612346565b6114028282610eae565b60008281526001602052604090206107149082610f32565b6114248282611f39565b60008281526001602052604090206107149082611f9e565b60055460ff166114855760405162461bcd60e51b815260206004820152601460248201527314185d5cd8589b194e881b9bdd081c185d5cd95960621b60448201526064016105b2565b6005805460ff191690557f5db9ee0a495bf2e6ff9c91a7834c1ba4fdd244a5e8aa4e537bd38aeae4b073aa335b6040516001600160a01b03909116815260200160405180910390a1565b6001600160a01b0383166114f55760405162461bcd60e51b81526004016105b290612acd565b80518251146115165760405162461bcd60e51b81526004016105b290612b95565b600033905061153981856000868660405180602001604052806000815250611a89565b60005b8351811015611601576000848281518110611559576115596129fe565b602002602001015190506000848381518110611577576115776129fe565b60209081029190910181015160008481526002835260408082206001600160a01b038c1683529093529190912054909150818110156115c85760405162461bcd60e51b81526004016105b290612b10565b60009283526002602090815260408085206001600160a01b038b16865290915290922091039055806115f981612a2a565b91505061153c565b5060006001600160a01b0316846001600160a01b0316826001600160a01b03167f4a39dc06d4c0dbc64b70af90fd698a233a518aa5d07e595d983b8c0526c8f7fb8686604051611652929190612bf5565b60405180910390a450505050565b6001600160a01b0384166116865760405162461bcd60e51b81526004016105b290612b54565b336116a68160008761169788611a3e565b6116a088611a3e565b87611a89565b60008481526002602090815260408083206001600160a01b0389168452909152812080548592906116d8908490612bdd565b909155505060408051858152602081018590526001600160a01b0380881692600092918516917fc3d58168c5ae7397731d063d5bbf3d657854427343f4c083240f7aacaa2d0f62910160405180910390a461080181600087878787611fb3565b60055460ff161561177e5760405162461bcd60e51b815260206004820152601060248201526f14185d5cd8589b194e881c185d5cd95960821b60448201526064016105b2565b6005805460ff191660011790557f62e78cea01bee320cd4e420270b5ea74000d11b0c9f74754ebdbfc544b05a2586114b23390565b6000610c9e838361206e565b816001600160a01b0316836001600160a01b0316036118325760405162461bcd60e51b815260206004820152602960248201527f455243313135353a2073657474696e6720617070726f76616c20737461747573604482015268103337b91039b2b63360b91b60648201526084016105b2565b6001600160a01b03838116600081815260036020908152604080832094871680845294825291829020805460ff191686151590811790915591519182527f17307eab39ab6107e8899845ad3d59bd9653f200f220920489ca2b5937696c31910160405180910390a3505050565b60006105e0825490565b6001600160a01b0384166118cf5760405162461bcd60e51b81526004016105b290612c23565b336118df81878761169788611a3e565b60008481526002602090815260408083206001600160a01b038a168452909152902054838110156119225760405162461bcd60e51b81526004016105b290612c68565b60008581526002602090815260408083206001600160a01b038b8116855292528083208785039055908816825281208054869290611961908490612bdd565b909155505060408051868152602081018690526001600160a01b03808916928a821692918616917fc3d58168c5ae7397731d063d5bbf3d657854427343f4c083240f7aacaa2d0f62910160405180910390a46119c1828888888888611fb3565b50505050505050565b6000818152600183016020526040812054611a11575081546001818101845560008481526020808220909301849055845484825282860190935260409020919091556105e0565b5060006105e0565b60006001600160e01b03198216635a05180f60e01b14806105e057506105e082612098565b60408051600180825281830190925260609160009190602080830190803683370190505090508281600081518110611a7857611a786129fe565b602090810291909101015292915050565b6001600160a01b038516611b165760005b8351811015611b1057828181518110611ab557611ab56129fe565b602002602001015160066000868481518110611ad357611ad36129fe565b602002602001015181526020019081526020016000206000828254611af89190612bdd565b90915550819050611b0881612a2a565b915050611a9a565b5061138c565b6001600160a01b038416611b9d5760005b8351811015611b1057828181518110611b4257611b426129fe565b602002602001015160066000868481518110611b6057611b606129fe565b602002602001015181526020019081526020016000206000828254611b859190612d27565b90915550819050611b9581612a2a565b915050611b27565b6001600160a01b03851615801590611bbd57506001600160a01b03841615155b1561138c57611bec7f8502233096d909befbda0999bb8ea2f3a6be3c138b9fbf003752a4c8bce86f6c87610ca5565b61138c5760405162461bcd60e51b815260206004820152602260248201527f4d7573742068617665207472616e66657220726f6c6520746f207472616e736660448201526132b960f11b60648201526084016105b2565b6001600160a01b0384163b1561138c5760405163bc197c8160e01b81526001600160a01b0385169063bc197c8190611c879089908990889088908890600401612d3e565b6020604051808303816000875af1925050508015611cc2575060408051601f3d908101601f19168201909252611cbf91810190612d9c565b60015b611d6e57611cce612db9565b806308c379a003611d075750611ce2612dd5565b80611ced5750611d09565b8060405162461bcd60e51b81526004016105b29190612346565b505b60405162461bcd60e51b815260206004820152603460248201527f455243313135353a207472616e7366657220746f206e6f6e20455243313135356044820152732932b1b2b4bb32b91034b6b83632b6b2b73a32b960611b60648201526084016105b2565b6001600160e01b0319811663bc197c8160e01b146119c15760405162461bcd60e51b81526004016105b290612e5e565b60606000611dad836002612a8c565b611db8906002612bdd565b6001600160401b03811115611dcf57611dcf61238c565b6040519080825280601f01601f191660200182016040528015611df9576020820181803683370190505b509050600360fc1b81600081518110611e1457611e146129fe565b60200101906001600160f81b031916908160001a905350600f60fb1b81600181518110611e4357611e436129fe565b60200101906001600160f81b031916908160001a9053506000611e67846002612a8c565b611e72906001612bdd565b90505b6001811115611eea576f181899199a1a9b1b9c1cb0b131b232b360811b85600f1660108110611ea657611ea66129fe565b1a60f81b828281518110611ebc57611ebc6129fe565b60200101906001600160f81b031916908160001a90535060049490941c93611ee381612ea6565b9050611e75565b508315610c9e5760405162461bcd60e51b815260206004820181905260248201527f537472696e67733a20686578206c656e67746820696e73756666696369656e7460448201526064016105b2565b611f438282610ca5565b156108a8576000828152602081815260408083206001600160a01b0385168085529252808320805460ff1916905551339285917ff6391f5c32d9c69d2a47ea670b442974b53935d1edc7fd64eb21e047a839171b9190a45050565b6000610c9e836001600160a01b0384166120cd565b6001600160a01b0384163b1561138c5760405163f23a6e6160e01b81526001600160a01b0385169063f23a6e6190611ff79089908990889088908890600401612ebd565b6020604051808303816000875af1925050508015612032575060408051601f3d908101601f1916820190925261202f91810190612d9c565b60015b61203e57611cce612db9565b6001600160e01b0319811663f23a6e6160e01b146119c15760405162461bcd60e51b81526004016105b290612e5e565b6000826000018281548110612085576120856129fe565b9060005260206000200154905092915050565b60006001600160e01b03198216637965db0b60e01b14806105e057506301ffc9a760e01b6001600160e01b03198316146105e0565b600081815260018301602052604081205480156121b65760006120f1600183612d27565b855490915060009061210590600190612d27565b905081811461216a576000866000018281548110612125576121256129fe565b9060005260206000200154905080876000018481548110612148576121486129fe565b6000918252602080832090910192909255918252600188019052604090208390555b855486908061217b5761217b612f02565b6001900381819060005260206000200160009055905585600101600086815260200190815260200160002060009055600193505050506105e0565b60009150506105e0565b8280546121cc90612967565b90600052602060002090601f0160209004810192826121ee5760008555612234565b82601f1061220757805160ff1916838001178555612234565b82800160010185558215612234579182015b82811115612234578251825591602001919060010190612219565b50612240929150612244565b5090565b5b808211156122405760008155600101612245565b80356001600160a01b038116811461227057600080fd5b919050565b6000806040838503121561228857600080fd5b61229183612259565b946020939093013593505050565b6001600160e01b0319811681146122b557600080fd5b50565b6000602082840312156122ca57600080fd5b8135610c9e8161229f565b6000602082840312156122e757600080fd5b5035919050565b60005b838110156123095781810151838201526020016122f1565b8381111561076b5750506000910152565b600081518084526123328160208601602086016122ee565b601f01601f19169290920160200192915050565b602081526000610c9e602083018461231a565b60008060006060848603121561236e57600080fd5b61237784612259565b95602085013595506040909401359392505050565b634e487b7160e01b600052604160045260246000fd5b601f8201601f191681016001600160401b03811182821017156123c7576123c761238c565b6040525050565b60006001600160401b038211156123e7576123e761238c565b5060051b60200190565b600082601f83011261240257600080fd5b8135602061240f826123ce565b60405161241c82826123a2565b83815260059390931b850182019282810191508684111561243c57600080fd5b8286015b848110156124575780358352918301918301612440565b509695505050505050565b60006001600160401b0383111561247b5761247b61238c565b604051612492601f8501601f1916602001826123a2565b8091508381528484840111156124a757600080fd5b83836020830137600060208583010152509392505050565b600082601f8301126124d057600080fd5b610c9e83833560208501612462565b600080600080608085870312156124f557600080fd5b6124fe85612259565b935060208501356001600160401b038082111561251a57600080fd5b612526888389016123f1565b9450604087013591508082111561253c57600080fd5b612548888389016123f1565b9350606087013591508082111561255e57600080fd5b5061256b878288016124bf565b91505092959194509250565b600080600080600060a0868803121561258f57600080fd5b61259886612259565b94506125a660208701612259565b935060408601356001600160401b03808211156125c257600080fd5b6125ce89838a016123f1565b945060608801359150808211156125e457600080fd5b6125f089838a016123f1565b9350608088013591508082111561260657600080fd5b50612613888289016124bf565b9150509295509295909350565b6000806040838503121561263357600080fd5b8235915061264360208401612259565b90509250929050565b6000806040838503121561265f57600080fd5b82356001600160401b038082111561267657600080fd5b818501915085601f83011261268a57600080fd5b81356020612697826123ce565b6040516126a482826123a2565b83815260059390931b85018201928281019150898411156126c457600080fd5b948201945b838610156126e9576126da86612259565b825294820194908201906126c9565b965050860135925050808211156126ff57600080fd5b5061270c858286016123f1565b9150509250929050565b600081518084526020808501945080840160005b838110156127465781518752958201959082019060010161272a565b509495945050505050565b602081526000610c9e6020830184612716565b60008060006060848603121561277957600080fd5b61278284612259565b925060208401356001600160401b038082111561279e57600080fd5b6127aa878388016123f1565b935060408601359150808211156127c057600080fd5b506127cd868287016123f1565b9150509250925092565b600080600080608085870312156127ed57600080fd5b6127f685612259565b9350602085013592506040850135915060608501356001600160401b0381111561281f57600080fd5b61256b878288016124bf565b6000806040838503121561283e57600080fd5b8235915060208301356001600160401b0381111561285b57600080fd5b8301601f8101851361286c57600080fd5b61270c85823560208401612462565b6000806040838503121561288e57600080fd5b50508035926020909101359150565b600080604083850312156128b057600080fd5b6128b983612259565b9150602083013580151581146128ce57600080fd5b809150509250929050565b600080604083850312156128ec57600080fd5b6128f583612259565b915061264360208401612259565b600080600080600060a0868803121561291b57600080fd5b61292486612259565b945061293260208701612259565b9350604086013592506060860135915060808601356001600160401b0381111561295b57600080fd5b612613888289016124bf565b600181811c9082168061297b57607f821691505b60208210810361299b57634e487b7160e01b600052602260045260246000fd5b50919050565b60208082526038908201527f455243313135355072657365744d696e7465725061757365723a206d7573742060408201527f68617665206d696e74657220726f6c6520746f206d696e740000000000000000606082015260800190565b634e487b7160e01b600052603260045260246000fd5b634e487b7160e01b600052601160045260246000fd5b600060018201612a3c57612a3c612a14565b5060010190565b60208082526029908201527f455243313135353a2063616c6c6572206973206e6f74206f776e6572206e6f7260408201526808185c1c1c9bdd995960ba1b606082015260800190565b6000816000190483118215151615612aa657612aa6612a14565b500290565b600082612ac857634e487b7160e01b600052601260045260246000fd5b500490565b60208082526023908201527f455243313135353a206275726e2066726f6d20746865207a65726f206164647260408201526265737360e81b606082015260800190565b60208082526024908201527f455243313135353a206275726e20616d6f756e7420657863656564732062616c604082015263616e636560e01b606082015260800190565b60208082526021908201527f455243313135353a206d696e7420746f20746865207a65726f206164647265736040820152607360f81b606082015260800190565b60208082526028908201527f455243313135353a2069647320616e6420616d6f756e7473206c656e677468206040820152670dad2e6dac2e8c6d60c31b606082015260800190565b60008219821115612bf057612bf0612a14565b500190565b604081526000612c086040830185612716565b8281036020840152612c1a8185612716565b95945050505050565b60208082526025908201527f455243313135353a207472616e7366657220746f20746865207a65726f206164604082015264647265737360d81b606082015260800190565b6020808252602a908201527f455243313135353a20696e73756666696369656e742062616c616e636520666f60408201526939103a3930b739b332b960b11b606082015260800190565b7f416363657373436f6e74726f6c3a206163636f756e7420000000000000000000815260008351612cea8160178501602088016122ee565b7001034b99036b4b9b9b4b733903937b6329607d1b6017918401918201528351612d1b8160288401602088016122ee565b01602801949350505050565b600082821015612d3957612d39612a14565b500390565b6001600160a01b0386811682528516602082015260a060408201819052600090612d6a90830186612716565b8281036060840152612d7c8186612716565b90508281036080840152612d90818561231a565b98975050505050505050565b600060208284031215612dae57600080fd5b8151610c9e8161229f565b600060033d1115612dd25760046000803e5060005160e01c5b90565b600060443d1015612de35790565b6040516003193d81016004833e81513d6001600160401b038160248401118184111715612e1257505050505090565b8285019150815181811115612e2a5750505050505090565b843d8701016020828501011115612e445750505050505090565b612e53602082860101876123a2565b509095945050505050565b60208082526028908201527f455243313135353a204552433131353552656365697665722072656a656374656040820152676420746f6b656e7360c01b606082015260800190565b600081612eb557612eb5612a14565b506000190190565b6001600160a01b03868116825285166020820152604081018490526060810183905260a060808201819052600090612ef79083018461231a565b979650505050505050565b634e487b7160e01b600052603160045260246000fdfea2646970667358221220fa64db092c11a71e4da735fb83b75bf7a08fc077f32789da1a4de7d8ecd72d8d64736f6c634300080d0033",
  "immutableReferences": {},
  "source": "//SPDX-License-Identifier: Unlicense\npragma solidity ^0.8.0;\npragma experimental ABIEncoderV2;\n\nimport \"@openzeppelin/contracts/token/ERC1155/presets/ERC1155PresetMinterPauser.sol\";\n\n/**\n * Reputation NFT for wormhole\n * By now id = 0 stores user's twitter base reputation\n * We mint and burn reputation by our central server now because of the freguetly update and twitter data fetch\n * And we will revolk the admin roles when our decentralize alglom contract deployed.\n * All this NFT cant be transfered by now.\n */\ncontract Reputation is ERC1155PresetMinterPauser {\n\n    bytes32 public constant TRANSFER_ROLE = keccak256(\"TRANSFER_ROLE\");\n    // admin can burn user's reputation\n    bytes32 public constant BURN_ROLE = keccak256(\"BURN_ROLE\");\n    bytes32 public constant URLSETTER_ROLE = keccak256(\"URLSETTER_ROLE\");\n\n    // total supplys of id\n    mapping(uint256 => uint256) private _supplys;\n\n    mapping(uint256 => string) private tokenURI;\n\n    constructor(string memory uri_) ERC1155PresetMinterPauser(uri_){\n        _setupRole(TRANSFER_ROLE, _msgSender());\n        _setupRole(BURN_ROLE, _msgSender());\n        _setupRole(URLSETTER_ROLE, _msgSender());\n    }\n\n    function supplysOf(uint256 id) public view returns (uint256) {\n        return _supplys[id];\n    }\n\n    function adminBurn(address account, uint256 id, uint256 value) public {\n        require(hasRole(BURN_ROLE, _msgSender()), \"Must have burn role to burn\");\n        _burn(account, id, value);\n    }\n\n    function adminBurnBatch(address from,\n        uint256[] memory ids,\n        uint256[] memory amounts\n    ) public {\n        require(hasRole(BURN_ROLE, _msgSender()), \"Must have burn role to burn\");\n        _burnBatch(from, ids, amounts);\n    }\n\n    // Someone's reputation is the ratio his balance of total supply\n    // The result must multi 1e12 out of blockchain\n    function getReputation(address account, uint256 id) public view returns (uint256) {\n        require(account != address(0), \"Reputation query for the zero address\");\n        uint256 balance = balanceOf(account, id);\n        return balance * 1e12 / supplysOf(id);\n    }\n\n    function setURI(uint _id, string memory _uri) external {\n        require(hasRole(URLSETTER_ROLE, _msgSender()), \"Must have url setter role to set\");\n        tokenURI[_id] = _uri;\n        emit URI(_uri, _id);\n    }\n\n    function uri(uint _id) public override view returns (string memory) {\n        return tokenURI[_id];\n    }\n\n    // override this internal method\n    // We add _supplys to every id, and we need update this value when mint or burn\n    // And user cant transfer reputations\n    function _beforeTokenTransfer(\n        address operator,\n        address from,\n        address to,\n        uint256[] memory ids,\n        uint256[] memory amounts,\n        bytes memory /*data*/\n    ) internal override {\n        if (from  == address(0)) { // mint\n            for (uint256 i; i < ids.length; i++) {\n                _supplys[ids[i]] += amounts[i];\n            }\n        }else if(to == address(0)) { // burn\n            for (uint256 i; i < ids.length; i++) {\n                _supplys[ids[i]] -= amounts[i];\n            }\n        } else if (from != address(0) && to != address(0)) { // transfer\n            require(hasRole(TRANSFER_ROLE, operator), \"Must have tranfer role to transfer\");\n        }\n    }\n}",
  "sourcePath": "/Users/necklace/work/nutbox/nutbox-contract/contracts/NFT/Reputation.sol",
  "compiler": {
    "name": "solc",
    "version": "0.8.13+commit.abaa5c0e.Emscripten.clang"
  },
  "schemaVersion": "3.4.11",
  "updatedAt": "2023-01-18T10:02:27.482Z",
  "devdoc": {
    "kind": "dev",
    "methods": {
      "balanceOf(address,uint256)": {
        "details": "See {IERC1155-balanceOf}. Requirements: - `account` cannot be the zero address."
      },
      "balanceOfBatch(address[],uint256[])": {
        "details": "See {IERC1155-balanceOfBatch}. Requirements: - `accounts` and `ids` must have the same length."
      },
      "getRoleAdmin(bytes32)": {
        "details": "Returns the admin role that controls `role`. See {grantRole} and {revokeRole}. To change a role's admin, use {_setRoleAdmin}."
      },
      "getRoleMember(bytes32,uint256)": {
        "details": "Returns one of the accounts that have `role`. `index` must be a value between 0 and {getRoleMemberCount}, non-inclusive. Role bearers are not sorted in any particular way, and their ordering may change at any point. WARNING: When using {getRoleMember} and {getRoleMemberCount}, make sure you perform all queries on the same block. See the following https://forum.openzeppelin.com/t/iterating-over-elements-on-enumerableset-in-openzeppelin-contracts/2296[forum post] for more information."
      },
      "getRoleMemberCount(bytes32)": {
        "details": "Returns the number of accounts that have `role`. Can be used together with {getRoleMember} to enumerate all bearers of a role."
      },
      "grantRole(bytes32,address)": {
        "details": "Grants `role` to `account`. If `account` had not been already granted `role`, emits a {RoleGranted} event. Requirements: - the caller must have ``role``'s admin role."
      },
      "hasRole(bytes32,address)": {
        "details": "Returns `true` if `account` has been granted `role`."
      },
      "isApprovedForAll(address,address)": {
        "details": "See {IERC1155-isApprovedForAll}."
      },
      "mint(address,uint256,uint256,bytes)": {
        "details": "Creates `amount` new tokens for `to`, of token type `id`. See {ERC1155-_mint}. Requirements: - the caller must have the `MINTER_ROLE`."
      },
      "mintBatch(address,uint256[],uint256[],bytes)": {
        "details": "xref:ROOT:erc1155.adoc#batch-operations[Batched] variant of {mint}."
      },
      "pause()": {
        "details": "Pauses all token transfers. See {ERC1155Pausable} and {Pausable-_pause}. Requirements: - the caller must have the `PAUSER_ROLE`."
      },
      "paused()": {
        "details": "Returns true if the contract is paused, and false otherwise."
      },
      "renounceRole(bytes32,address)": {
        "details": "Revokes `role` from the calling account. Roles are often managed via {grantRole} and {revokeRole}: this function's purpose is to provide a mechanism for accounts to lose their privileges if they are compromised (such as when a trusted device is misplaced). If the calling account had been revoked `role`, emits a {RoleRevoked} event. Requirements: - the caller must be `account`."
      },
      "revokeRole(bytes32,address)": {
        "details": "Revokes `role` from `account`. If `account` had been granted `role`, emits a {RoleRevoked} event. Requirements: - the caller must have ``role``'s admin role."
      },
      "safeBatchTransferFrom(address,address,uint256[],uint256[],bytes)": {
        "details": "See {IERC1155-safeBatchTransferFrom}."
      },
      "safeTransferFrom(address,address,uint256,uint256,bytes)": {
        "details": "See {IERC1155-safeTransferFrom}."
      },
      "setApprovalForAll(address,bool)": {
        "details": "See {IERC1155-setApprovalForAll}."
      },
      "supportsInterface(bytes4)": {
        "details": "See {IERC165-supportsInterface}."
      },
      "unpause()": {
        "details": "Unpauses all token transfers. See {ERC1155Pausable} and {Pausable-_unpause}. Requirements: - the caller must have the `PAUSER_ROLE`."
      }
    },
    "version": 1
  },
  "userdoc": {
    "kind": "user",
    "methods": {},
    "notice": "Reputation NFT for wormhole By now id = 0 stores user's twitter base reputation We mint and burn reputation by our central server now because of the freguetly update and twitter data fetch And we will revolk the admin roles when our decentralize alglom contract deployed. All this NFT cant be transfered by now.",
    "version": 1
  }
}