{
  "contractName": "SPStakingFactory",
  "abi": [
    {
      "inputs": [
        {
          "internalType": "address",
          "name": "_communityFactory",
          "type": "address"
        }
      ],
      "stateMutability": "nonpayable",
      "type": "constructor"
    },
    {
      "anonymous": false,
      "inputs": [
        {
          "indexed": true,
          "internalType": "address",
          "name": "oldBridge",
          "type": "address"
        },
        {
          "indexed": true,
          "internalType": "address",
          "name": "newBridge",
          "type": "address"
        }
      ],
      "name": "BridgeChange",
      "type": "event"
    },
    {
      "anonymous": false,
      "inputs": [
        {
          "indexed": true,
          "internalType": "address",
          "name": "previousOwner",
          "type": "address"
        },
        {
          "indexed": true,
          "internalType": "address",
          "name": "newOwner",
          "type": "address"
        }
      ],
      "name": "OwnershipTransferred",
      "type": "event"
    },
    {
      "anonymous": false,
      "inputs": [
        {
          "indexed": true,
          "internalType": "address",
          "name": "pool",
          "type": "address"
        },
        {
          "indexed": true,
          "internalType": "address",
          "name": "community",
          "type": "address"
        },
        {
          "indexed": false,
          "internalType": "string",
          "name": "name",
          "type": "string"
        },
        {
          "indexed": false,
          "internalType": "uint8",
          "name": "chainId",
          "type": "uint8"
        },
        {
          "indexed": false,
          "internalType": "bytes32",
          "name": "delegatee",
          "type": "bytes32"
        }
      ],
      "name": "SPStakingCreated",
      "type": "event"
    },
    {
      "inputs": [],
      "name": "bridge",
      "outputs": [
        {
          "internalType": "address",
          "name": "",
          "type": "address"
        }
      ],
      "stateMutability": "view",
      "type": "function"
    },
    {
      "inputs": [],
      "name": "communityFactory",
      "outputs": [
        {
          "internalType": "address",
          "name": "",
          "type": "address"
        }
      ],
      "stateMutability": "view",
      "type": "function"
    },
    {
      "inputs": [],
      "name": "owner",
      "outputs": [
        {
          "internalType": "address",
          "name": "",
          "type": "address"
        }
      ],
      "stateMutability": "view",
      "type": "function"
    },
    {
      "inputs": [],
      "name": "renounceOwnership",
      "outputs": [],
      "stateMutability": "nonpayable",
      "type": "function"
    },
    {
      "inputs": [
        {
          "internalType": "address",
          "name": "newOwner",
          "type": "address"
        }
      ],
      "name": "transferOwnership",
      "outputs": [],
      "stateMutability": "nonpayable",
      "type": "function"
    },
    {
      "inputs": [
        {
          "internalType": "address",
          "name": "community",
          "type": "address"
        },
        {
          "internalType": "string",
          "name": "name",
          "type": "string"
        },
        {
          "internalType": "bytes",
          "name": "meta",
          "type": "bytes"
        }
      ],
      "name": "createPool",
      "outputs": [
        {
          "internalType": "address",
          "name": "",
          "type": "address"
        }
      ],
      "stateMutability": "nonpayable",
      "type": "function"
    },
    {
      "inputs": [
        {
          "internalType": "address",
          "name": "_bridge",
          "type": "address"
        }
      ],
      "name": "adminSetBridge",
      "outputs": [],
      "stateMutability": "nonpayable",
      "type": "function"
    }
  ],
  "bytecode": "0x60a060405234801561001057600080fd5b50604051611df5380380611df583398101604081905261002f916100f1565b61003f61003a61009d565b6100a1565b6001600160a01b038116610088576040517f08c379a000000000000000000000000000000000000000000000000000000000815260040161007f9061011f565b60405180910390fd5b60601b6001600160601b031916608052610156565b3390565b600080546001600160a01b038381166001600160a01b0319831681178455604051919092169283917f8be0079c531659141344cd1fd0a4f28419497f9722a3daafe3b4186f6b6457e09190a35050565b600060208284031215610102578081fd5b81516001600160a01b0381168114610118578182fd5b9392505050565b6020808252600f908201527f496e76616c696420616464726573730000000000000000000000000000000000604082015260600190565b60805160601c611c7a61017b6000396000818161028f01526104fa0152611c7a6000f3fe60806040523480156200001157600080fd5b5060043610620000885760003560e01c8063b883cc2a1162000063578063b883cc2a14620000d2578063e78cea9214620000e9578063f2fde38b14620000f3578063fac8a610146200010a5762000088565b80631a5a143e146200008d578063715018a614620000a65780638da5cb5b14620000b0575b600080fd5b620000a46200009e3660046200065b565b62000114565b005b620000a4620001e8565b620000ba6200023c565b604051620000c99190620007d8565b60405180910390f35b620000ba620000e33660046200067f565b6200024b565b620000ba6200046c565b620000a4620001043660046200065b565b6200047b565b620000ba620004f8565b6200011e6200051c565b6001600160a01b0316620001316200023c565b6001600160a01b031614620001635760405162461bcd60e51b81526004016200015a906200093a565b60405180910390fd5b6001600160a01b0381166200018c5760405162461bcd60e51b81526004016200015a9062000852565b6001546040516001600160a01b038084169216907f9f06c577a12d8beda856a3cceddf7befcb12da366ce49400e869c0104ee10d6a90600090a3600180546001600160a01b0319166001600160a01b0392909216919091179055565b620001f26200051c565b6001600160a01b0316620002056200023c565b6001600160a01b0316146200022e5760405162461bcd60e51b81526004016200015a906200093a565b6200023a600062000520565b565b6000546001600160a01b031690565b60006001600160a01b0385163314620002785760405162461bcd60e51b81526004016200015a90620008c1565b604051633454a5b760e11b81526001600160a01b037f000000000000000000000000000000000000000000000000000000000000000016906368a94b6e90620002c6908890600401620007d8565b60206040518083038186803b158015620002df57600080fd5b505afa158015620002f4573d6000803e3d6000fd5b505050506040513d601f19601f820116820180604052508101906200031a919062000768565b620003395760405162461bcd60e51b81526004016200015a906200096f565b600062000381600085858080601f0160208091040260200160405190810160405280939291908181526020018383808284376000920191909152509293925050620005709050565b90506000620003cb600186868080601f0160208091040260200160405190810160405280939291908181526020018383808284376000920191909152509293925050620005ab9050565b9050600087878484604051620003e190620005e6565b620003f09493929190620007ec565b604051809103906000f0801580156200040d573d6000803e3d6000fd5b509050876001600160a01b0316816001600160a01b03167f4c0b863f4bae1f37c4ec64e9645a6295d0718483bfbed32cc2df0b7a05fab5b0898686604051620004599392919062000828565b60405180910390a3979650505050505050565b6001546001600160a01b031681565b620004856200051c565b6001600160a01b0316620004986200023c565b6001600160a01b031614620004c15760405162461bcd60e51b81526004016200015a906200093a565b6001600160a01b038116620004ea5760405162461bcd60e51b81526004016200015a906200087b565b620004f58162000520565b50565b7f000000000000000000000000000000000000000000000000000000000000000081565b3390565b600080546001600160a01b038381166001600160a01b0319831681178455604051919092169283917f8be0079c531659141344cd1fd0a4f28419497f9722a3daafe3b4186f6b6457e09190a35050565b60006200057f826001620009c7565b83511015620005a25760405162461bcd60e51b81526004016200015a906200099a565b50016001015190565b6000620005ba826020620009c7565b83511015620005dd5760405162461bcd60e51b81526004016200015a906200090b565b50016020015190565b6112428062000a0383390190565b80356001600160a01b03811681146200060c57600080fd5b919050565b60008083601f84011262000623578081fd5b50813567ffffffffffffffff8111156200063b578182fd5b6020830191508360208285010111156200065457600080fd5b9250929050565b6000602082840312156200066d578081fd5b6200067882620005f4565b9392505050565b6000806000806060858703121562000695578283fd5b620006a085620005f4565b935060208086013567ffffffffffffffff80821115620006be578586fd5b818801915088601f830112620006d2578586fd5b813581811115620006e757620006e7620009ec565b604051601f8201601f19168101850183811182821017156200070d576200070d620009ec565b60405281815283820185018b101562000724578788fd5b818585018683013787858383010152809750505060408801359250808311156200074c578485fd5b50506200075c8782880162000611565b95989497509550505050565b6000602082840312156200077a578081fd5b8151801515811462000678578182fd5b60008151808452815b81811015620007b15760208185018101518683018201520162000793565b81811115620007c35782602083870101525b50601f01601f19169290920160200192915050565b6001600160a01b0391909116815260200190565b6001600160a01b038516815260806020820181905260009062000812908301866200078a565b60ff949094166040830152506060015292915050565b6000606082526200083d60608301866200078a565b60ff9490941660208301525060400152919050565b6020808252600f908201526e496e76616c6964206164647265737360881b604082015260600190565b60208082526026908201527f4f776e61626c653a206e6577206f776e657220697320746865207a65726f206160408201526564647265737360d01b606082015260800190565b6020808252602a908201527f5065726d697373696f6e2064656e6965643a2063616c6c6572206973206e6f7460408201526920636f6d6d756e69747960b01b606082015260800190565b602080825260159082015274746f427974657333325f6f75744f66426f756e647360581b604082015260600190565b6020808252818101527f4f776e61626c653a2063616c6c6572206973206e6f7420746865206f776e6572604082015260600190565b602080825260119082015270496e76616c696420636f6d6d756e69747960781b604082015260600190565b602080825260139082015272746f55696e74385f6f75744f66426f756e647360681b604082015260600190565b60008219821115620009e757634e487b7160e01b81526011600452602481fd5b500190565b634e487b7160e01b600052604160045260246000fdfe60e06040523480156200001157600080fd5b506040516200124238038062001242833981016040819052620000349162000154565b33606090811b60805284901b6001600160601b03191660a05282516200006290600290602086019062000097565b5060035560f81b7fff000000000000000000000000000000000000000000000000000000000000001660c05250620002e59050565b828054620000a59062000260565b90600052602060002090601f016020900481019282620000c9576000855562000114565b82601f10620000e457805160ff191683800117855562000114565b8280016001018555821562000114579182015b8281111562000114578251825591602001919060010190620000f7565b506200012292915062000126565b5090565b5b8082111562000122576000815560010162000127565b805160ff811681146200014f57600080fd5b919050565b600080600080608085870312156200016a578384fd5b84516001600160a01b038116811462000181578485fd5b602086810151919550906001600160401b0380821115620001a0578586fd5b818801915088601f830112620001b4578586fd5b815181811115620001c957620001c9620002b6565b604051601f8201601f1916810185018381118282101715620001ef57620001ef620002b6565b60405281815283820185018b101562000206578788fd5b8792505b818310156200022957838301850151818401860152918401916200020a565b818311156200023a57878583830101525b809750505050505062000250604086016200013d565b6060959095015193969295505050565b6002810460018216806200027557607f821691505b60208210811415620002b0577f4e487b7100000000000000000000000000000000000000000000000000000000600052602260045260246000fd5b50919050565b7f4e487b7100000000000000000000000000000000000000000000000000000000600052604160045260246000fd5b60805160601c60a05160601c60c05160f81c610ee56200035d600039600061030d015260008181610410015281816105bd0152818161066d01528181610717015281816107ff015281816108b7015281816109600152610a3901526000818161021b0152818161023f01526105ea0152610ee56000f3fe608060405234801561001057600080fd5b506004361061009e5760003560e01c806388cc58e41161006657806388cc58e414610106578063919034701461010e57806394465b2114610123578063b3a7834d14610136578063c51db6b2146101565761009e565b806306fdde03146100a35780631e31d053146100c157806338adb6f0146100d6578063567e98f9146100de578063630949c7146100e6575b600080fd5b6100ab61015e565b6040516100b89190610be0565b60405180910390f35b6100c96101ec565b6040516100b89190610b90565b6100c96101f2565b6100c96101f8565b6100f96100f4366004610b0a565b6101fe565b6040516100b89190610b99565b6100f9610219565b61012161011c366004610b3a565b61023d565b005b6100c9610131366004610ab2565b6109ca565b610149610144366004610ab2565b6109e9565b6040516100b89190610da7565b6100f9610a37565b6002805461016b90610e46565b80601f016020809104026020016040519081016040528092919081815260200182805461019790610e46565b80156101e45780601f106101b9576101008083540402835291602001916101e4565b820191906000526020600020905b8154815290600101906020018083116101c757829003601f168201915b505050505081565b60035481565b60045490565b60045481565b6000602081905290815260409020546001600160a01b031681565b7f000000000000000000000000000000000000000000000000000000000000000090565b7f00000000000000000000000000000000000000000000000000000000000000006001600160a01b031663e78cea926040518163ffffffff1660e01b815260040160206040518083038186803b15801561029657600080fd5b505afa1580156102aa573d6000803e3d6000fd5b505050506040513d601f19601f820116820180604052508101906102ce9190610ace565b6001600160a01b0316336001600160a01b0316146103075760405162461bcd60e51b81526004016102fe90610d11565b60405180910390fd5b8460ff167f000000000000000000000000000000000000000000000000000000000000000060ff161461034c5760405162461bcd60e51b81526004016102fe90610d7f565b836003541461036d5760405162461bcd60e51b81526004016102fe90610cda565b6000818152602081905260409020546001600160a01b031615806103aa57506000818152602081905260409020546001600160a01b038481169116145b6103c65760405162461bcd60e51b81526004016102fe90610d48565b6001600160a01b03831660009081526001602081905260409091200154828114156103f157506109c3565b828110156104b157604051634c7b4f4d60e11b81526001600160a01b037f000000000000000000000000000000000000000000000000000000000000000016906398f69e9a90610445903090600401610b99565b60206040518083038186803b15801561045d57600080fd5b505afa158015610471573d6000803e3d6000fd5b505050506040513d601f19601f820116820180604052508101906104959190610aea565b6104b15760405162461bcd60e51b81526004016102fe90610c99565b6001600160a01b03841660009081526001602052604090205460ff16610522576001600160a01b0384166000818152600160208181526040808420805460ff1916841781559283018490556002909201869055858352829052902080546001600160a01b03191690911790556105a6565b816040516020016105339190610b90565b60408051601f1981840301815282825280516020918201206001600160a01b03881660009081526001835292909220600201549192610573929101610b90565b60405160208183030381529060405280519060200120146105a65760405162461bcd60e51b81526004016102fe90610c33565b60405163579dea7960e11b81526001600160a01b037f0000000000000000000000000000000000000000000000000000000000000000169063af3bd4f290610612907f000000000000000000000000000000000000000000000000000000000000000090600401610c6a565b600060405180830381600087803b15801561062c57600080fd5b505af1158015610640573d6000803e3d6000fd5b505050506001600160a01b038416600090815260016020819052604090912001541561086b5760006107e07f00000000000000000000000000000000000000000000000000000000000000006001600160a01b031663a2a00ed630886040518363ffffffff1660e01b81526004016106b9929190610bad565b60206040518083038186803b1580156106d157600080fd5b505afa1580156106e5573d6000803e3d6000fd5b505050506040513d601f19601f820116820180604052508101906107099190610b22565b6107da64e8d4a510006107d47f00000000000000000000000000000000000000000000000000000000000000006001600160a01b031663a1a89dbc306040518263ffffffff1660e01b81526004016107619190610b99565b60206040518083038186803b15801561077957600080fd5b505afa15801561078d573d6000803e3d6000fd5b505050506040513d601f19601f820116820180604052508101906107b19190610b22565b6001600160a01b038b166000908152600160208190526040909120015490610a5b565b90610a6e565b90610a7a565b9050801561086957604051631df36e4160e31b81526001600160a01b037f0000000000000000000000000000000000000000000000000000000000000000169063ef9b7208906108369088908590600401610bc7565b600060405180830381600087803b15801561085057600080fd5b505af1158015610864573d6000803e3d6000fd5b505050505b505b610884816107da85600454610a8690919063ffffffff16565b60049081556001600160a01b03808616600090815260016020819052604091829020018690555163286a276f60e21b81527f00000000000000000000000000000000000000000000000000000000000000009091169163bf16c3c29187916109059164e8d4a51000916107d491879163a1a89dbc9161076191309101610b99565b6040518363ffffffff1660e01b8152600401610922929190610bc7565b600060405180830381600087803b15801561093c57600080fd5b505af1158015610950573d6000803e3d6000fd5b50505050836001600160a01b03167f00000000000000000000000000000000000000000000000000000000000000006001600160a01b03167f8572960e25f62a888f92ba98fda1ca3cba3fc98b664e8ae79fdc97a644c7bae483866040516109b9929190610dca565b60405180910390a3505b5050505050565b6001600160a01b03166000908152600160208190526040909120015490565b6109f1610a92565b506001600160a01b03166000908152600160208181526040928390208351606081018552815460ff16151581529281015491830191909152600201549181019190915290565b7f000000000000000000000000000000000000000000000000000000000000000090565b6000610a678284610e10565b9392505050565b6000610a678284610df0565b6000610a678284610e2f565b6000610a678284610dd8565b604080516060810182526000808252602082018190529181019190915290565b600060208284031215610ac3578081fd5b8135610a6781610e97565b600060208284031215610adf578081fd5b8151610a6781610e97565b600060208284031215610afb578081fd5b81518015158114610a67578182fd5b600060208284031215610b1b578081fd5b5035919050565b600060208284031215610b33578081fd5b5051919050565b600080600080600060a08688031215610b51578081fd5b853560ff81168114610b61578182fd5b9450602086013593506040860135610b7881610e97565b94979396509394606081013594506080013592915050565b90815260200190565b6001600160a01b0391909116815260200190565b6001600160a01b0392831681529116602082015260400190565b6001600160a01b03929092168252602082015260400190565b6000602080835283518082850152825b81811015610c0c57858101830151858201604001528201610bf0565b81811115610c1d5783604083870101525b50601f01601f1916929092016040019392505050565b6020808252601c908201527f426f756e6420737465656d206163636f756e74206469736d6174636800000000604082015260600190565b6040808252600490820152632aa9a2a960e11b60608201526001600160a01b0391909116602082015260800190565b60208082526021908201527f43616e206e6f74206465706f73697420746f206120636c6f73656420706f6f6c6040820152601760f91b606082015260800190565b60208082526017908201527f57726f6e672064656c656761746565206163636f756e74000000000000000000604082015260600190565b6020808252601d908201527f4f6e6c79207665726966696564206272696467652063616e2063616c6c000000604082015260600190565b6020808252601a908201527f426f756e6420627363206163636f756e74206469736d61746368000000000000604082015260600190565b6020808252600e908201526d15dc9bdb99c818da185a5b881a5960921b604082015260600190565b815115158152602080830151908201526040918201519181019190915260600190565b918252602082015260400190565b60008219821115610deb57610deb610e81565b500190565b600082610e0b57634e487b7160e01b81526012600452602481fd5b500490565b6000816000190483118215151615610e2a57610e2a610e81565b500290565b600082821015610e4157610e41610e81565b500390565b600281046001821680610e5a57607f821691505b60208210811415610e7b57634e487b7160e01b600052602260045260246000fd5b50919050565b634e487b7160e01b600052601160045260246000fd5b6001600160a01b0381168114610eac57600080fd5b5056fea2646970667358221220cdd85f496db490963caa0e3baf9ad30d047f42fc83ea4a3e029a3e505122617e64736f6c63430008000033a26469706673582212207156aa27910cf05a6b88f8bd382c7955cb54abb947ac5a09a9a2b4066c3c6dbb64736f6c63430008000033",
  "immutableReferences": {
    "11139": [
      {
        "length": 32,
        "start": 655
      },
      {
        "length": 32,
        "start": 1274
      }
    ]
  },
  "source": "// SPDX-License-Identifier: MIT\n\npragma solidity 0.8.0;\npragma experimental ABIEncoderV2;\n\nimport \"../../interfaces/IPoolFactory.sol\";\nimport \"./SPStaking.sol\";\nimport \"@openzeppelin/contracts/access/Ownable.sol\";\nimport \"solidity-bytes-utils/contracts/BytesLib.sol\";\nimport \"../../CommunityFactory.sol\";\n\n/**\n * @dev Factory contract of Nutbox ERC20 staking pool.\n *x\n */\ncontract SPStakingFactory is IPoolFactory, Ownable {\n    using BytesLib for bytes;\n    address public bridge;\n    address public immutable communityFactory;\n\n    constructor(address _communityFactory) {\n        require(_communityFactory != address(0), \"Invalid address\");\n        communityFactory = _communityFactory;\n    }\n\n    event SPStakingCreated(\n        address indexed pool,\n        address indexed community,\n        string name,\n        uint8 chainId,\n        bytes32 delegatee\n    );\n\n    event BridgeChange(address indexed oldBridge, address indexed newBridge);\n\n    function createPool(address community, string memory name, bytes calldata meta) override external returns(address) {\n        require(community == msg.sender, 'Permission denied: caller is not community');\n        require(CommunityFactory(communityFactory).createdCommunity(community), \"Invalid community\");\n        uint8 chainId = meta.toUint8(0);\n        bytes32 delegatee = meta.toBytes32(1);\n        SPStaking pool = new SPStaking(community, name, chainId, delegatee);\n        emit SPStakingCreated(address(pool), community, name, chainId, delegatee);\n        return address(pool);\n    }\n\n    function adminSetBridge(address _bridge) external onlyOwner {\n        require(_bridge != address(0), \"Invalid address\");\n        emit BridgeChange(bridge, _bridge);\n        bridge = _bridge;\n    }\n}\n",
  "sourcePath": "/Users/wangxi/work/Walnut-V2/nutbox-contract/contracts/dapps/sp-staking/SPStakingFactory.sol",
  "compiler": {
    "name": "solc",
    "version": "0.8.0+commit.c7dfd78e.Emscripten.clang"
  },
  "schemaVersion": "3.3.4",
  "updatedAt": "2024-06-20T10:15:12.562Z",
  "devdoc": {
    "details": "Factory contract of Nutbox ERC20 staking pool. x",
    "kind": "dev",
    "methods": {
      "owner()": {
        "details": "Returns the address of the current owner."
      },
      "renounceOwnership()": {
        "details": "Leaves the contract without owner. It will not be possible to call `onlyOwner` functions anymore. Can only be called by the current owner. NOTE: Renouncing ownership will leave the contract without an owner, thereby removing any functionality that is only available to the owner."
      },
      "transferOwnership(address)": {
        "details": "Transfers ownership of the contract to a new account (`newOwner`). Can only be called by the current owner."
      }
    },
    "version": 1
  },
  "userdoc": {
    "kind": "user",
    "methods": {},
    "version": 1
  }
}