{
  "contractName": "SPStaking",
  "abi": [
    {
      "inputs": [
        {
          "internalType": "address",
          "name": "_community",
          "type": "address"
        },
        {
          "internalType": "string",
          "name": "_name",
          "type": "string"
        },
        {
          "internalType": "uint8",
          "name": "_chainId",
          "type": "uint8"
        },
        {
          "internalType": "bytes32",
          "name": "_delegatee",
          "type": "bytes32"
        }
      ],
      "stateMutability": "nonpayable",
      "type": "constructor"
    },
    {
      "anonymous": false,
      "inputs": [
        {
          "indexed": true,
          "internalType": "address",
          "name": "community",
          "type": "address"
        },
        {
          "indexed": true,
          "internalType": "address",
          "name": "who",
          "type": "address"
        },
        {
          "indexed": false,
          "internalType": "uint256",
          "name": "previousAmount",
          "type": "uint256"
        },
        {
          "indexed": false,
          "internalType": "uint256",
          "name": "newAmount",
          "type": "uint256"
        }
      ],
      "name": "UpdateStaking",
      "type": "event"
    },
    {
      "inputs": [
        {
          "internalType": "bytes32",
          "name": "",
          "type": "bytes32"
        }
      ],
      "name": "accountBindMap",
      "outputs": [
        {
          "internalType": "address",
          "name": "",
          "type": "address"
        }
      ],
      "stateMutability": "view",
      "type": "function"
    },
    {
      "inputs": [],
      "name": "delegatee",
      "outputs": [
        {
          "internalType": "bytes32",
          "name": "",
          "type": "bytes32"
        }
      ],
      "stateMutability": "view",
      "type": "function"
    },
    {
      "inputs": [],
      "name": "name",
      "outputs": [
        {
          "internalType": "string",
          "name": "",
          "type": "string"
        }
      ],
      "stateMutability": "view",
      "type": "function"
    },
    {
      "inputs": [],
      "name": "totalStakedAmount",
      "outputs": [
        {
          "internalType": "uint256",
          "name": "",
          "type": "uint256"
        }
      ],
      "stateMutability": "view",
      "type": "function"
    },
    {
      "inputs": [
        {
          "internalType": "uint8",
          "name": "_chainId",
          "type": "uint8"
        },
        {
          "internalType": "bytes32",
          "name": "_delegatee",
          "type": "bytes32"
        },
        {
          "internalType": "address",
          "name": "depositor",
          "type": "address"
        },
        {
          "internalType": "uint256",
          "name": "amount",
          "type": "uint256"
        },
        {
          "internalType": "bytes32",
          "name": "_bindAccount",
          "type": "bytes32"
        }
      ],
      "name": "update",
      "outputs": [],
      "stateMutability": "nonpayable",
      "type": "function"
    },
    {
      "inputs": [],
      "name": "getFactory",
      "outputs": [
        {
          "internalType": "address",
          "name": "",
          "type": "address"
        }
      ],
      "stateMutability": "view",
      "type": "function"
    },
    {
      "inputs": [],
      "name": "getCommunity",
      "outputs": [
        {
          "internalType": "address",
          "name": "",
          "type": "address"
        }
      ],
      "stateMutability": "view",
      "type": "function"
    },
    {
      "inputs": [
        {
          "internalType": "address",
          "name": "user",
          "type": "address"
        }
      ],
      "name": "getUserStakedAmount",
      "outputs": [
        {
          "internalType": "uint256",
          "name": "",
          "type": "uint256"
        }
      ],
      "stateMutability": "view",
      "type": "function"
    },
    {
      "inputs": [],
      "name": "getTotalStakedAmount",
      "outputs": [
        {
          "internalType": "uint256",
          "name": "",
          "type": "uint256"
        }
      ],
      "stateMutability": "view",
      "type": "function"
    },
    {
      "inputs": [
        {
          "internalType": "address",
          "name": "user",
          "type": "address"
        }
      ],
      "name": "getUserDepositInfo",
      "outputs": [
        {
          "components": [
            {
              "internalType": "bool",
              "name": "hasDeposited",
              "type": "bool"
            },
            {
              "internalType": "uint256",
              "name": "amount",
              "type": "uint256"
            },
            {
              "internalType": "bytes32",
              "name": "bindAccount",
              "type": "bytes32"
            }
          ],
          "internalType": "struct SPStaking.StakingInfo",
          "name": "",
          "type": "tuple"
        }
      ],
      "stateMutability": "view",
      "type": "function"
    }
  ],
  "bytecode": "0x60e06040523480156200001157600080fd5b506040516200124238038062001242833981016040819052620000349162000154565b33606090811b60805284901b6001600160601b03191660a05282516200006290600290602086019062000097565b5060035560f81b7fff000000000000000000000000000000000000000000000000000000000000001660c05250620002e59050565b828054620000a59062000260565b90600052602060002090601f016020900481019282620000c9576000855562000114565b82601f10620000e457805160ff191683800117855562000114565b8280016001018555821562000114579182015b8281111562000114578251825591602001919060010190620000f7565b506200012292915062000126565b5090565b5b8082111562000122576000815560010162000127565b805160ff811681146200014f57600080fd5b919050565b600080600080608085870312156200016a578384fd5b84516001600160a01b038116811462000181578485fd5b602086810151919550906001600160401b0380821115620001a0578586fd5b818801915088601f830112620001b4578586fd5b815181811115620001c957620001c9620002b6565b604051601f8201601f1916810185018381118282101715620001ef57620001ef620002b6565b60405281815283820185018b101562000206578788fd5b8792505b818310156200022957838301850151818401860152918401916200020a565b818311156200023a57878583830101525b809750505050505062000250604086016200013d565b6060959095015193969295505050565b6002810460018216806200027557607f821691505b60208210811415620002b0577f4e487b7100000000000000000000000000000000000000000000000000000000600052602260045260246000fd5b50919050565b7f4e487b7100000000000000000000000000000000000000000000000000000000600052604160045260246000fd5b60805160601c60a05160601c60c05160f81c610ee56200035d600039600061030d015260008181610410015281816105bd0152818161066d01528181610717015281816107ff015281816108b7015281816109600152610a3901526000818161021b0152818161023f01526105ea0152610ee56000f3fe608060405234801561001057600080fd5b506004361061009e5760003560e01c806388cc58e41161006657806388cc58e414610106578063919034701461010e57806394465b2114610123578063b3a7834d14610136578063c51db6b2146101565761009e565b806306fdde03146100a35780631e31d053146100c157806338adb6f0146100d6578063567e98f9146100de578063630949c7146100e6575b600080fd5b6100ab61015e565b6040516100b89190610be0565b60405180910390f35b6100c96101ec565b6040516100b89190610b90565b6100c96101f2565b6100c96101f8565b6100f96100f4366004610b0a565b6101fe565b6040516100b89190610b99565b6100f9610219565b61012161011c366004610b3a565b61023d565b005b6100c9610131366004610ab2565b6109ca565b610149610144366004610ab2565b6109e9565b6040516100b89190610da7565b6100f9610a37565b6002805461016b90610e46565b80601f016020809104026020016040519081016040528092919081815260200182805461019790610e46565b80156101e45780601f106101b9576101008083540402835291602001916101e4565b820191906000526020600020905b8154815290600101906020018083116101c757829003601f168201915b505050505081565b60035481565b60045490565b60045481565b6000602081905290815260409020546001600160a01b031681565b7f000000000000000000000000000000000000000000000000000000000000000090565b7f00000000000000000000000000000000000000000000000000000000000000006001600160a01b031663e78cea926040518163ffffffff1660e01b815260040160206040518083038186803b15801561029657600080fd5b505afa1580156102aa573d6000803e3d6000fd5b505050506040513d601f19601f820116820180604052508101906102ce9190610ace565b6001600160a01b0316336001600160a01b0316146103075760405162461bcd60e51b81526004016102fe90610d11565b60405180910390fd5b8460ff167f000000000000000000000000000000000000000000000000000000000000000060ff161461034c5760405162461bcd60e51b81526004016102fe90610d7f565b836003541461036d5760405162461bcd60e51b81526004016102fe90610cda565b6000818152602081905260409020546001600160a01b031615806103aa57506000818152602081905260409020546001600160a01b038481169116145b6103c65760405162461bcd60e51b81526004016102fe90610d48565b6001600160a01b03831660009081526001602081905260409091200154828114156103f157506109c3565b828110156104b157604051634c7b4f4d60e11b81526001600160a01b037f000000000000000000000000000000000000000000000000000000000000000016906398f69e9a90610445903090600401610b99565b60206040518083038186803b15801561045d57600080fd5b505afa158015610471573d6000803e3d6000fd5b505050506040513d601f19601f820116820180604052508101906104959190610aea565b6104b15760405162461bcd60e51b81526004016102fe90610c99565b6001600160a01b03841660009081526001602052604090205460ff16610522576001600160a01b0384166000818152600160208181526040808420805460ff1916841781559283018490556002909201869055858352829052902080546001600160a01b03191690911790556105a6565b816040516020016105339190610b90565b60408051601f1981840301815282825280516020918201206001600160a01b03881660009081526001835292909220600201549192610573929101610b90565b60405160208183030381529060405280519060200120146105a65760405162461bcd60e51b81526004016102fe90610c33565b60405163579dea7960e11b81526001600160a01b037f0000000000000000000000000000000000000000000000000000000000000000169063af3bd4f290610612907f000000000000000000000000000000000000000000000000000000000000000090600401610c6a565b600060405180830381600087803b15801561062c57600080fd5b505af1158015610640573d6000803e3d6000fd5b505050506001600160a01b038416600090815260016020819052604090912001541561086b5760006107e07f00000000000000000000000000000000000000000000000000000000000000006001600160a01b031663a2a00ed630886040518363ffffffff1660e01b81526004016106b9929190610bad565b60206040518083038186803b1580156106d157600080fd5b505afa1580156106e5573d6000803e3d6000fd5b505050506040513d601f19601f820116820180604052508101906107099190610b22565b6107da64e8d4a510006107d47f00000000000000000000000000000000000000000000000000000000000000006001600160a01b031663a1a89dbc306040518263ffffffff1660e01b81526004016107619190610b99565b60206040518083038186803b15801561077957600080fd5b505afa15801561078d573d6000803e3d6000fd5b505050506040513d601f19601f820116820180604052508101906107b19190610b22565b6001600160a01b038b166000908152600160208190526040909120015490610a5b565b90610a6e565b90610a7a565b9050801561086957604051631df36e4160e31b81526001600160a01b037f0000000000000000000000000000000000000000000000000000000000000000169063ef9b7208906108369088908590600401610bc7565b600060405180830381600087803b15801561085057600080fd5b505af1158015610864573d6000803e3d6000fd5b505050505b505b610884816107da85600454610a8690919063ffffffff16565b60049081556001600160a01b03808616600090815260016020819052604091829020018690555163286a276f60e21b81527f00000000000000000000000000000000000000000000000000000000000000009091169163bf16c3c29187916109059164e8d4a51000916107d491879163a1a89dbc9161076191309101610b99565b6040518363ffffffff1660e01b8152600401610922929190610bc7565b600060405180830381600087803b15801561093c57600080fd5b505af1158015610950573d6000803e3d6000fd5b50505050836001600160a01b03167f00000000000000000000000000000000000000000000000000000000000000006001600160a01b03167f8572960e25f62a888f92ba98fda1ca3cba3fc98b664e8ae79fdc97a644c7bae483866040516109b9929190610dca565b60405180910390a3505b5050505050565b6001600160a01b03166000908152600160208190526040909120015490565b6109f1610a92565b506001600160a01b03166000908152600160208181526040928390208351606081018552815460ff16151581529281015491830191909152600201549181019190915290565b7f000000000000000000000000000000000000000000000000000000000000000090565b6000610a678284610e10565b9392505050565b6000610a678284610df0565b6000610a678284610e2f565b6000610a678284610dd8565b604080516060810182526000808252602082018190529181019190915290565b600060208284031215610ac3578081fd5b8135610a6781610e97565b600060208284031215610adf578081fd5b8151610a6781610e97565b600060208284031215610afb578081fd5b81518015158114610a67578182fd5b600060208284031215610b1b578081fd5b5035919050565b600060208284031215610b33578081fd5b5051919050565b600080600080600060a08688031215610b51578081fd5b853560ff81168114610b61578182fd5b9450602086013593506040860135610b7881610e97565b94979396509394606081013594506080013592915050565b90815260200190565b6001600160a01b0391909116815260200190565b6001600160a01b0392831681529116602082015260400190565b6001600160a01b03929092168252602082015260400190565b6000602080835283518082850152825b81811015610c0c57858101830151858201604001528201610bf0565b81811115610c1d5783604083870101525b50601f01601f1916929092016040019392505050565b6020808252601c908201527f426f756e6420737465656d206163636f756e74206469736d6174636800000000604082015260600190565b6040808252600490820152632aa9a2a960e11b60608201526001600160a01b0391909116602082015260800190565b60208082526021908201527f43616e206e6f74206465706f73697420746f206120636c6f73656420706f6f6c6040820152601760f91b606082015260800190565b60208082526017908201527f57726f6e672064656c656761746565206163636f756e74000000000000000000604082015260600190565b6020808252601d908201527f4f6e6c79207665726966696564206272696467652063616e2063616c6c000000604082015260600190565b6020808252601a908201527f426f756e6420627363206163636f756e74206469736d61746368000000000000604082015260600190565b6020808252600e908201526d15dc9bdb99c818da185a5b881a5960921b604082015260600190565b815115158152602080830151908201526040918201519181019190915260600190565b918252602082015260400190565b60008219821115610deb57610deb610e81565b500190565b600082610e0b57634e487b7160e01b81526012600452602481fd5b500490565b6000816000190483118215151615610e2a57610e2a610e81565b500290565b600082821015610e4157610e41610e81565b500390565b600281046001821680610e5a57607f821691505b60208210811415610e7b57634e487b7160e01b600052602260045260246000fd5b50919050565b634e487b7160e01b600052601160045260246000fd5b6001600160a01b0381168114610eac57600080fd5b5056fea2646970667358221220c2b5d9583fef8f9b2261868fb61208f739dfd6d1d9ed059dc96f4ce00ae3819664736f6c63430008000033",
  "immutableReferences": {
    "8650": [
      {
        "length": 32,
        "start": 539
      },
      {
        "length": 32,
        "start": 575
      },
      {
        "length": 32,
        "start": 1514
      }
    ],
    "8654": [
      {
        "length": 32,
        "start": 1040
      },
      {
        "length": 32,
        "start": 1469
      },
      {
        "length": 32,
        "start": 1645
      },
      {
        "length": 32,
        "start": 1815
      },
      {
        "length": 32,
        "start": 2047
      },
      {
        "length": 32,
        "start": 2231
      },
      {
        "length": 32,
        "start": 2400
      },
      {
        "length": 32,
        "start": 2617
      }
    ],
    "8658": [
      {
        "length": 32,
        "start": 781
      }
    ]
  },
  "source": "// SPDX-License-Identifier: MIT\n\npragma solidity 0.8.0;\npragma experimental ABIEncoderV2;\n\nimport \"@openzeppelin/contracts/utils/math/SafeMath.sol\";\nimport \"../../interfaces/ICommunity.sol\";\nimport \"../../interfaces/IPool.sol\";\nimport \"./SPStakingFactory.sol\";\n\n/**\n * @dev Template contract of SP/HP staking pool.\n * Delegation only can be updated through update().\n *\n */\ncontract SPStaking is IPool {\n    using SafeMath for uint256;\n\n    struct StakingInfo {\n        // First time when user staking, we need set options like userDebt to zero\n        bool hasDeposited;\n        // User staked amount\n        uint256 amount;\n        // User's foreign account identity\n        bytes32 bindAccount;\n    }\n\n    // fetch address use bound account\n    mapping(bytes32 => address) public accountBindMap;\n\n    // stakingInfo used to save every user's staking information,\n    // including how many they deposited and its external chain account\n    // ( we support crosschain asset staking). With every staking event\n    // happened including deposit and withdraw asset this field should be updated.\n    mapping(address => StakingInfo) stakingInfo;\n\n    address immutable factory;\n    string public name;\n\n    // community that pool belongs to\n    address immutable community;\n    // delegatee account\n    bytes32 public delegatee;\n    // chain id: steem : 1  hive: 2\n    uint8 immutable chainId;\n\n    // Total staked amount\n    uint256 public totalStakedAmount;\n\n    event UpdateStaking(\n        address indexed community,\n        address indexed who,\n        uint256 previousAmount,\n        uint256 newAmount\n    );\n\n    constructor(address _community, string memory _name, uint8 _chainId, bytes32 _delegatee) {\n        factory = msg.sender;\n        community = _community;\n        name = _name;\n        delegatee = _delegatee;\n        chainId = _chainId;\n    }\n\n    function update(\n        uint8 _chainId,\n        bytes32 _delegatee,\n        address depositor,\n        uint256 amount,\n        bytes32 _bindAccount\n    ) external {\n        require(msg.sender == SPStakingFactory(factory).bridge(), \"Only verified bridge can call\");\n        require(chainId == _chainId, \"Wrong chain id\");\n        require(delegatee == _delegatee, \"Wrong delegatee account\");\n        require(accountBindMap[_bindAccount] == address(0) || accountBindMap[_bindAccount] == depositor, \"Bound bsc account dismatch\");\n\n        uint256 prevAmount = stakingInfo[depositor].amount;\n        if (prevAmount == amount) return;\n        if (prevAmount < amount) {\n            // deposit\n            require(ICommunity(community).poolActived(address(this)), 'Can not deposit to a closed pool.');\n        }\n\n        // Add to staking list if account hasn't deposited before\n        if (!stakingInfo[depositor].hasDeposited) {\n            stakingInfo[depositor].hasDeposited = true;\n            stakingInfo[depositor].amount = 0;\n            stakingInfo[depositor].bindAccount = _bindAccount;\n            accountBindMap[_bindAccount] = depositor;\n        } else {\n            require(\n                keccak256(\n                    abi.encodePacked(\n                        stakingInfo[depositor].bindAccount\n                    )\n                ) == keccak256(abi.encodePacked(_bindAccount)),\n                \"Bound steem account dismatch\"\n            );\n        }\n\n        // trigger community update all pool staking info, send factory as fee payer to ignore fee payment.\n        ICommunity(community).updatePools(\"USER\", factory);\n\n        if (stakingInfo[depositor].amount > 0) {\n            uint256 pending = stakingInfo[depositor]\n                .amount\n                .mul(ICommunity(community).getShareAcc(address(this)))\n                .div(1e12)\n                .sub(ICommunity(community).getUserDebt(address(this), depositor));\n            if (pending > 0) {\n                ICommunity(community).appendUserReward(depositor, pending);\n            }\n        }\n\n        totalStakedAmount = totalStakedAmount.add(amount).sub(prevAmount);\n        stakingInfo[depositor].amount = amount;\n\n        ICommunity(community).setUserDebt(\n            depositor,\n            stakingInfo[depositor]\n            .amount\n            .mul(ICommunity(community).getShareAcc(address(this)))\n            .div(1e12));\n        \n        emit UpdateStaking(community, depositor, prevAmount, amount);\n    }\n\n    function getFactory() external view override returns (address) {\n        return factory;\n    }\n\n    function getCommunity() external view override returns (address) {\n        return community;\n    }\n\n    function getUserStakedAmount(address user)\n        external\n        view\n        override returns (uint256)\n    {\n        return stakingInfo[user].amount;\n    }\n\n    function getTotalStakedAmount()\n        external\n        view\n        override returns (uint256)\n    {\n        return totalStakedAmount;\n    }\n\n    function getUserDepositInfo(address user)\n        external\n        view\n        returns (StakingInfo memory)\n    {\n        return stakingInfo[user];\n    }\n}\n",
  "sourcePath": "/Users/wangxi/work/Walnut-V2/nutbox-contract/contracts/dapps/sp-staking/SPStaking.sol",
  "compiler": {
    "name": "solc",
    "version": "0.8.0+commit.c7dfd78e.Emscripten.clang"
  },
  "schemaVersion": "3.3.4",
  "updatedAt": "2023-06-14T03:47:44.714Z",
  "devdoc": {
    "details": "Template contract of SP/HP staking pool. Delegation only can be updated through update().",
    "kind": "dev",
    "methods": {},
    "version": 1
  },
  "userdoc": {
    "kind": "user",
    "methods": {},
    "version": 1
  }
}