{
  "contractName": "TaskWormholeFund",
  "abi": [
    {
      "anonymous": false,
      "inputs": [
        {
          "indexed": true,
          "internalType": "address",
          "name": "previousOwner",
          "type": "address"
        },
        {
          "indexed": true,
          "internalType": "address",
          "name": "newOwner",
          "type": "address"
        }
      ],
      "name": "OwnershipTransferred",
      "type": "event"
    },
    {
      "inputs": [],
      "name": "maxClaimTokens",
      "outputs": [
        {
          "internalType": "uint256",
          "name": "",
          "type": "uint256"
        }
      ],
      "stateMutability": "view",
      "type": "function"
    },
    {
      "inputs": [],
      "name": "maxClaimUsers",
      "outputs": [
        {
          "internalType": "uint256",
          "name": "",
          "type": "uint256"
        }
      ],
      "stateMutability": "view",
      "type": "function"
    },
    {
      "inputs": [],
      "name": "owner",
      "outputs": [
        {
          "internalType": "address",
          "name": "",
          "type": "address"
        }
      ],
      "stateMutability": "view",
      "type": "function"
    },
    {
      "inputs": [],
      "name": "renounceOwnership",
      "outputs": [],
      "stateMutability": "nonpayable",
      "type": "function"
    },
    {
      "inputs": [],
      "name": "taskContract",
      "outputs": [
        {
          "internalType": "address",
          "name": "",
          "type": "address"
        }
      ],
      "stateMutability": "view",
      "type": "function"
    },
    {
      "inputs": [
        {
          "internalType": "address",
          "name": "newOwner",
          "type": "address"
        }
      ],
      "name": "transferOwnership",
      "outputs": [],
      "stateMutability": "nonpayable",
      "type": "function"
    },
    {
      "inputs": [
        {
          "internalType": "uint256",
          "name": "",
          "type": "uint256"
        }
      ],
      "name": "userAddress",
      "outputs": [
        {
          "internalType": "address",
          "name": "",
          "type": "address"
        }
      ],
      "stateMutability": "view",
      "type": "function"
    },
    {
      "inputs": [
        {
          "internalType": "address",
          "name": "task",
          "type": "address"
        }
      ],
      "name": "setTaskContract",
      "outputs": [],
      "stateMutability": "nonpayable",
      "type": "function"
    },
    {
      "inputs": [
        {
          "internalType": "uint256[]",
          "name": "twitterIds",
          "type": "uint256[]"
        },
        {
          "internalType": "address[]",
          "name": "addrs",
          "type": "address[]"
        }
      ],
      "name": "setUserAddress",
      "outputs": [],
      "stateMutability": "nonpayable",
      "type": "function"
    },
    {
      "inputs": [
        {
          "internalType": "uint256",
          "name": "twitterId",
          "type": "uint256"
        },
        {
          "internalType": "address",
          "name": "token",
          "type": "address"
        },
        {
          "internalType": "uint256",
          "name": "amount",
          "type": "uint256"
        }
      ],
      "name": "pushAward",
      "outputs": [],
      "stateMutability": "nonpayable",
      "type": "function"
    },
    {
      "inputs": [
        {
          "internalType": "uint256",
          "name": "twitterId",
          "type": "uint256"
        }
      ],
      "name": "claim",
      "outputs": [],
      "stateMutability": "nonpayable",
      "type": "function"
    },
    {
      "inputs": [
        {
          "internalType": "uint256",
          "name": "twitterId",
          "type": "uint256"
        },
        {
          "internalType": "address",
          "name": "addr",
          "type": "address"
        }
      ],
      "name": "claim",
      "outputs": [],
      "stateMutability": "nonpayable",
      "type": "function"
    },
    {
      "inputs": [
        {
          "internalType": "uint256[]",
          "name": "twitterIds",
          "type": "uint256[]"
        }
      ],
      "name": "claimBatch",
      "outputs": [],
      "stateMutability": "nonpayable",
      "type": "function"
    },
    {
      "inputs": [
        {
          "internalType": "uint256",
          "name": "twitterId",
          "type": "uint256"
        }
      ],
      "name": "getUserTokens",
      "outputs": [
        {
          "internalType": "address[]",
          "name": "tokens",
          "type": "address[]"
        },
        {
          "internalType": "uint256[]",
          "name": "amounts",
          "type": "uint256[]"
        }
      ],
      "stateMutability": "view",
      "type": "function"
    }
  ],
  "bytecode": "0x60806040526064600155603260025534801561001a57600080fd5b5061002433610029565b610079565b600080546001600160a01b038381166001600160a01b0319831681178455604051919092169283917f8be0079c531659141344cd1fd0a4f28419497f9722a3daafe3b4186f6b6457e09190a35050565b6112b6806100886000396000f3fe608060405234801561001057600080fd5b50600436106100ea5760003560e01c80638da5cb5b1161008c578063b34d335311610066578063b34d3353146101cf578063d17bd40b146101e2578063ddd5e1b214610203578063f2fde38b1461021657600080fd5b80638da5cb5b1461018c5780639674a0ac1461019d578063a45661ec146101c657600080fd5b806362abebce116100c857806362abebce14610147578063715018a61461015a57806378c138f3146101625780638c57c5211461017957600080fd5b8063125aeec9146100ef578063379607f5146101045780633b70aebc14610117575b600080fd5b6101026100fd366004610f1d565b610229565b005b610102610112366004610fd6565b6103f8565b60035461012a906001600160a01b031681565b6040516001600160a01b0390911681526020015b60405180910390f35b610102610155366004610fef565b6105cc565b61010261061b565b61016b60015481565b60405190815260200161013e565b610102610187366004611064565b610651565b6000546001600160a01b031661012a565b61012a6101ab366004610fd6565b6005602052600090815260409020546001600160a01b031681565b61016b60025481565b6101026101dd36600461107f565b6106ea565b6101f56101f0366004610fd6565b6107e4565b60405161013e9291906110b4565b610102610211366004611138565b6108d9565b610102610224366004611064565b6109eb565b6000546001600160a01b0316331461025c5760405162461bcd60e51b815260040161025390611164565b60405180910390fd5b805182511461029a5760405162461bcd60e51b815260206004820152600a60248201526957726f6e67206461746160b01b6044820152606401610253565b60005b82518110156103f3578281815181106102b8576102b8611199565b60200260200101516000036103045760405162461bcd60e51b8152602060048201526012602482015271125b9d985b1a59081d1dda5d1d195c881a5960721b6044820152606401610253565b60006001600160a01b031682828151811061032157610321611199565b60200260200101516001600160a01b0316036103765760405162461bcd60e51b8152602060048201526014602482015273496e76616c69642075736572206164647265737360601b6044820152606401610253565b81818151811061038857610388611199565b6020026020010151600560008584815181106103a6576103a6611199565b6020026020010151815260200190815260200160002060006101000a8154816001600160a01b0302191690836001600160a01b0316021790555080806103eb906111c5565b91505061029d565b505050565b6000818152600560205260409020546001600160a01b03166104545760405162461bcd60e51b81526020600482015260156024820152741059191c995cdcc81b9bdd081e595d08189bdd5b99605a1b6044820152606401610253565b600081815260066020526040812061046b90610a86565b80516001549192509081111561048057506001545b60005b818110156105c6576000600460008584815181106104a3576104a3611199565b60200260200101516001600160a01b03166001600160a01b0316815260200190815260200160002060008681526020019081526020016000205490506000600460008685815181106104f7576104f7611199565b60200260200101516001600160a01b03166001600160a01b0316815260200190815260200160002060008781526020019081526020016000208190555061057284838151811061054957610549611199565b602002602001015160066000888152602001908152602001600020610a9a90919063ffffffff16565b506105b384838151811061058857610588611199565b602090810291909101810151600088815260059092526040909120546001600160a01b031683610ab8565b50806105be816111c5565b915050610483565b50505050565b60025481908111156105dd57506002545b60005b818110156105c6576106098484838181106105fd576105fd611199565b905060200201356103f8565b80610613816111c5565b9150506105e0565b6000546001600160a01b031633146106455760405162461bcd60e51b815260040161025390611164565b61064f6000610ac4565b565b6000546001600160a01b0316331461067b5760405162461bcd60e51b815260040161025390611164565b6001600160a01b0381166106c85760405162461bcd60e51b8152602060048201526014602482015273496e76616c6964207461736b206164647265737360601b6044820152606401610253565b600380546001600160a01b0319166001600160a01b0392909216919091179055565b6003546001600160a01b031661073a5760405162461bcd60e51b815260206004820152601560248201527415185cdac818dbdb9d1c9858dd081b9bdd081cd95d605a1b6044820152606401610253565b6003546001600160a01b031633146107945760405162461bcd60e51b815260206004820152601a60248201527f556e617574686f72697a6564207461736b20636f6e74726163740000000000006044820152606401610253565b6001600160a01b0382166000908152600460209081526040808320868452909152812080548392906107c79084906111de565b909155505060008381526006602052604090206105c69083610b14565b6000818152600660205260409020606090819061080090610a86565b9150815167ffffffffffffffff81111561081c5761081c610e24565b604051908082528060200260200182016040528015610845578160200160208202803683370190505b50905060005b82518110156108d3576004600084838151811061086a5761086a611199565b60200260200101516001600160a01b03166001600160a01b031681526020019081526020016000206000858152602001908152602001600020548282815181106108b6576108b6611199565b6020908102919091010152806108cb816111c5565b91505061084b565b50915091565b6000546001600160a01b031633146109035760405162461bcd60e51b815260040161025390611164565b6001600160a01b0381166109525760405162461bcd60e51b81526020600482015260166024820152750416464726573732063616e6e6f7420626520307830360541b6044820152606401610253565b6000828152600560205260409020546001600160a01b0316156109b75760405162461bcd60e51b815260206004820152601d60248201527f55736572206164647265737320697320616c726561647920626f756e640000006044820152606401610253565b600082815260056020526040902080546001600160a01b0319166001600160a01b0383161790556109e7826103f8565b5050565b6000546001600160a01b03163314610a155760405162461bcd60e51b815260040161025390611164565b6001600160a01b038116610a7a5760405162461bcd60e51b815260206004820152602660248201527f4f776e61626c653a206e6577206f776e657220697320746865207a65726f206160448201526564647265737360d01b6064820152608401610253565b610a8381610ac4565b50565b60606000610a9383610b29565b9392505050565b6000610aaf836001600160a01b038416610b85565b90505b92915050565b826105c6818484610c78565b600080546001600160a01b038381166001600160a01b0319831681178455604051919092169283917f8be0079c531659141344cd1fd0a4f28419497f9722a3daafe3b4186f6b6457e09190a35050565b6000610aaf836001600160a01b038416610cca565b606081600001805480602002602001604051908101604052809291908181526020018280548015610b7957602002820191906000526020600020905b815481526020019060010190808311610b65575b50505050509050919050565b60008181526001830160205260408120548015610c6e576000610ba96001836111f6565b8554909150600090610bbd906001906111f6565b9050818114610c22576000866000018281548110610bdd57610bdd611199565b9060005260206000200154905080876000018481548110610c0057610c00611199565b6000918252602080832090910192909255918252600188019052604090208390555b8554869080610c3357610c3361120d565b600190038181906000526020600020016000905590558560010160008681526020019081526020016000206000905560019350505050610ab2565b6000915050610ab2565b604080516001600160a01b038416602482015260448082018490528251808303909101815260649091019091526020810180516001600160e01b031663a9059cbb60e01b1790526103f3908490610d19565b6000818152600183016020526040812054610d1157508154600181810184556000848152602080822090930184905584548482528286019093526040902091909155610ab2565b506000610ab2565b600080836001600160a01b031683604051610d349190611223565b6000604051808303816000865af19150503d8060008114610d71576040519150601f19603f3d011682016040523d82523d6000602084013e610d76565b606091505b509150915081610dbd5760405162461bcd60e51b8152602060048201526012602482015271115490cc8c0e8818d85b1b0819985a5b195960721b6044820152606401610253565b8051156105c65780806020019051810190610dd8919061125e565b6105c65760405162461bcd60e51b815260206004820181905260248201527f45524332303a206f7065726174696f6e20646964206e6f7420737563636565646044820152606401610253565b634e487b7160e01b600052604160045260246000fd5b604051601f8201601f1916810167ffffffffffffffff81118282101715610e6357610e63610e24565b604052919050565b600067ffffffffffffffff821115610e8557610e85610e24565b5060051b60200190565b80356001600160a01b0381168114610ea657600080fd5b919050565b600082601f830112610ebc57600080fd5b81356020610ed1610ecc83610e6b565b610e3a565b82815260059290921b84018101918181019086841115610ef057600080fd5b8286015b84811015610f1257610f0581610e8f565b8352918301918301610ef4565b509695505050505050565b60008060408385031215610f3057600080fd5b823567ffffffffffffffff80821115610f4857600080fd5b818501915085601f830112610f5c57600080fd5b81356020610f6c610ecc83610e6b565b82815260059290921b84018101918181019089841115610f8b57600080fd5b948201945b83861015610fa957853582529482019490820190610f90565b96505086013592505080821115610fbf57600080fd5b50610fcc85828601610eab565b9150509250929050565b600060208284031215610fe857600080fd5b5035919050565b6000806020838503121561100257600080fd5b823567ffffffffffffffff8082111561101a57600080fd5b818501915085601f83011261102e57600080fd5b81358181111561103d57600080fd5b8660208260051b850101111561105257600080fd5b60209290920196919550909350505050565b60006020828403121561107657600080fd5b610aaf82610e8f565b60008060006060848603121561109457600080fd5b833592506110a460208501610e8f565b9150604084013590509250925092565b604080825283519082018190526000906020906060840190828701845b828110156110f65781516001600160a01b0316845292840192908401906001016110d1565b5050508381038285015284518082528583019183019060005b8181101561112b5783518352928401929184019160010161110f565b5090979650505050505050565b6000806040838503121561114b57600080fd5b8235915061115b60208401610e8f565b90509250929050565b6020808252818101527f4f776e61626c653a2063616c6c6572206973206e6f7420746865206f776e6572604082015260600190565b634e487b7160e01b600052603260045260246000fd5b634e487b7160e01b600052601160045260246000fd5b6000600182016111d7576111d76111af565b5060010190565b600082198211156111f1576111f16111af565b500190565b600082821015611208576112086111af565b500390565b634e487b7160e01b600052603160045260246000fd5b6000825160005b81811015611244576020818601810151858301520161122a565b81811115611253576000828501525b509190910192915050565b60006020828403121561127057600080fd5b81518015158114610a9357600080fdfea26469706673582212201cb9a50af6a4b04e68efc861d355e524d6128c2f025731a79e8df729677dce4964736f6c634300080d0033",
  "immutableReferences": {},
  "source": "// SPDX-License-Identifier: MIT\npragma solidity ^0.8.0;\npragma experimental ABIEncoderV2;\n\nimport \"@openzeppelin/contracts/access/Ownable.sol\";\nimport \"@openzeppelin/contracts/utils/structs/EnumerableSet.sol\";\nimport \"./ERC20Helper.sol\";\nimport \"./interfaces/IWormholeFund.sol\";\n\ncontract TaskWormholeFund is Ownable, ERC20Helper, IWormholeFund {\n    using EnumerableSet for EnumerableSet.AddressSet;\n\n    /// The maximum number of token types that can be claimed at one time.\n    uint256 public maxClaimTokens = 100;\n\n    /// The upper limit of the number of users that can be called in a single call when claiming user tokens in batches\n    uint256 public maxClaimUsers = 50;\n\n    /// Curation Task Contract\n    address public taskContract;\n\n    // token => twitterId => amount\n    mapping(address => mapping(uint256 => uint256)) private accountDetails;\n\n    /// twitterId => address\n    mapping(uint256 => address) public userAddress;\n\n    // twitterId => tokens\n    mapping(uint256 => EnumerableSet.AddressSet) private userTokens;\n\n    /**\n    @dev set task contract\n    @param task task contract address\n    */\n    function setTaskContract(address task) public onlyOwner {\n        require(task != address(0), \"Invalid task address\");\n        taskContract = task;\n    }\n\n    /**\n    @dev Set user addresses in batches\n    @param twitterIds twitter ids\n    @param addrs user's address\n    */\n    function setUserAddress(uint256[] memory twitterIds, address[] memory addrs) public onlyOwner {\n        require(twitterIds.length == addrs.length, \"Wrong data\");\n        for (uint256 i = 0; i < twitterIds.length; i++) {\n            require(twitterIds[i] != 0, \"Invalid twitter id\");\n            require(addrs[i] != address(0), \"Invalid user address\");\n            userAddress[twitterIds[i]] = addrs[i];\n        }\n    }\n\n    /**\n    @dev Add an unclaimed reward, this method can only be called by the Task contract.\n    When calling, the corresponding Token must be transferred.\n    @param twitterId user twitter id\n    @param token reward token address\n    @param amount reward amount\n    */\n    function pushAward(\n        uint256 twitterId,\n        address token,\n        uint256 amount\n    ) public override {\n        require(taskContract != address(0), \"Task contract not set\");\n        require(msg.sender == taskContract, \"Unauthorized task contract\");\n        accountDetails[token][twitterId] += amount;\n        userTokens[twitterId].add(token);\n    }\n\n    /**\n    @dev To claim a single user's token, if the number of token types is greater than maxClaimTokens, multiple claims are required.\n    @param twitterId twitter id\n    */\n    function claim(uint256 twitterId) public {\n        require(userAddress[twitterId] != address(0), \"Address not yet bound\");\n        address[] memory tokens = userTokens[twitterId].values();\n        uint256 len = tokens.length;\n        if (len > maxClaimTokens) {\n            len = maxClaimTokens;\n        }\n        for (uint256 i = 0; i < len; i++) {\n            uint256 amount = accountDetails[tokens[i]][twitterId];\n            accountDetails[tokens[i]][twitterId] = 0;\n            userTokens[twitterId].remove(tokens[i]);\n            releaseERC20(tokens[i], userAddress[twitterId], amount);\n        }\n    }\n\n    /**\n    @dev To claim a single user's token, if the number of token types is greater than maxClaimTokens, multiple claims are required.\n    @param twitterId twitter id\n    @param addr user eth address\n    */\n    function claim(uint256 twitterId, address addr) public onlyOwner {\n        require(addr != address(0), \"Address cannot be 0x00\");\n        require(userAddress[twitterId] == address(0), \"User address is already bound\");\n        userAddress[twitterId] = addr;\n        claim(twitterId);\n    }\n\n    /**\n    @dev Claim user tokens in batches\n    @param twitterIds twitter ids\n    */\n    function claimBatch(uint256[] calldata twitterIds) public {\n        uint256 len = twitterIds.length;\n        if (len > maxClaimUsers) {\n            len = maxClaimUsers;\n        }\n        for (uint256 i = 0; i < len; i++) {\n            claim(twitterIds[i]);\n        }\n    }\n\n    /**\n    @dev Get the token list of the specified user\n    @param twitterId twitter id\n    */\n    function getUserTokens(uint256 twitterId) public view returns (address[] memory tokens, uint256[] memory amounts) {\n        tokens = userTokens[twitterId].values();\n        amounts = new uint256[](tokens.length);\n        for (uint256 i = 0; i < tokens.length; i++) {\n            amounts[i] = accountDetails[tokens[i]][twitterId];\n        }\n    }\n}\n",
  "sourcePath": "/Users/necklace/work/nutbox/nutbox-contract/contracts/TaskWormholeFund.sol",
  "compiler": {
    "name": "solc",
    "version": "0.8.13+commit.abaa5c0e.Emscripten.clang"
  },
  "schemaVersion": "3.4.11",
  "updatedAt": "2023-04-13T15:38:45.730Z",
  "devdoc": {
    "kind": "dev",
    "methods": {
      "claim(uint256)": {
        "details": "To claim a single user's token, if the number of token types is greater than maxClaimTokens, multiple claims are required.",
        "params": {
          "twitterId": "twitter id"
        }
      },
      "claim(uint256,address)": {
        "details": "To claim a single user's token, if the number of token types is greater than maxClaimTokens, multiple claims are required.",
        "params": {
          "addr": "user eth address",
          "twitterId": "twitter id"
        }
      },
      "claimBatch(uint256[])": {
        "details": "Claim user tokens in batches",
        "params": {
          "twitterIds": "twitter ids"
        }
      },
      "getUserTokens(uint256)": {
        "details": "Get the token list of the specified user",
        "params": {
          "twitterId": "twitter id"
        }
      },
      "owner()": {
        "details": "Returns the address of the current owner."
      },
      "pushAward(uint256,address,uint256)": {
        "details": "Add an unclaimed reward, this method can only be called by the Task contract. When calling, the corresponding Token must be transferred.",
        "params": {
          "amount": "reward amount",
          "token": "reward token address",
          "twitterId": "user twitter id"
        }
      },
      "renounceOwnership()": {
        "details": "Leaves the contract without owner. It will not be possible to call `onlyOwner` functions anymore. Can only be called by the current owner. NOTE: Renouncing ownership will leave the contract without an owner, thereby removing any functionality that is only available to the owner."
      },
      "setTaskContract(address)": {
        "details": "set task contract",
        "params": {
          "task": "task contract address"
        }
      },
      "setUserAddress(uint256[],address[])": {
        "details": "Set user addresses in batches",
        "params": {
          "addrs": "user's address",
          "twitterIds": "twitter ids"
        }
      },
      "transferOwnership(address)": {
        "details": "Transfers ownership of the contract to a new account (`newOwner`). Can only be called by the current owner."
      }
    },
    "version": 1
  },
  "userdoc": {
    "kind": "user",
    "methods": {
      "maxClaimTokens()": {
        "notice": "The maximum number of token types that can be claimed at one time."
      },
      "maxClaimUsers()": {
        "notice": "The upper limit of the number of users that can be called in a single call when claiming user tokens in batches"
      },
      "taskContract()": {
        "notice": "Curation Task Contract"
      },
      "userAddress(uint256)": {
        "notice": "twitterId => address"
      }
    },
    "version": 1
  }
}