{
  "contractName": "Task",
  "abi": [
    {
      "inputs": [],
      "stateMutability": "nonpayable",
      "type": "constructor"
    },
    {
      "anonymous": false,
      "inputs": [
        {
          "indexed": true,
          "internalType": "uint256",
          "name": "taskId",
          "type": "uint256"
        },
        {
          "indexed": true,
          "internalType": "address",
          "name": "contributor",
          "type": "address"
        },
        {
          "indexed": false,
          "internalType": "uint256",
          "name": "amount",
          "type": "uint256"
        }
      ],
      "name": "AddReward",
      "type": "event"
    },
    {
      "anonymous": false,
      "inputs": [
        {
          "indexed": true,
          "internalType": "uint256",
          "name": "id",
          "type": "uint256"
        },
        {
          "indexed": false,
          "internalType": "uint256",
          "name": "count",
          "type": "uint256"
        }
      ],
      "name": "AdminFillTaskList",
      "type": "event"
    },
    {
      "anonymous": false,
      "inputs": [
        {
          "indexed": true,
          "internalType": "uint256",
          "name": "id",
          "type": "uint256"
        },
        {
          "indexed": false,
          "internalType": "uint256",
          "name": "count",
          "type": "uint256"
        }
      ],
      "name": "Distribute",
      "type": "event"
    },
    {
      "anonymous": false,
      "inputs": [
        {
          "indexed": true,
          "internalType": "address",
          "name": "owner",
          "type": "address"
        },
        {
          "indexed": true,
          "internalType": "address",
          "name": "token",
          "type": "address"
        },
        {
          "indexed": false,
          "internalType": "uint256",
          "name": "amount",
          "type": "uint256"
        },
        {
          "indexed": false,
          "internalType": "uint256",
          "name": "endTime",
          "type": "uint256"
        }
      ],
      "name": "NewTask",
      "type": "event"
    },
    {
      "anonymous": false,
      "inputs": [
        {
          "indexed": true,
          "internalType": "address",
          "name": "previousOwner",
          "type": "address"
        },
        {
          "indexed": true,
          "internalType": "address",
          "name": "newOwner",
          "type": "address"
        }
      ],
      "name": "OwnershipTransferred",
      "type": "event"
    },
    {
      "anonymous": false,
      "inputs": [
        {
          "indexed": true,
          "internalType": "uint256",
          "name": "id",
          "type": "uint256"
        },
        {
          "indexed": false,
          "internalType": "uint8",
          "name": "state",
          "type": "uint8"
        }
      ],
      "name": "TaskStateChange",
      "type": "event"
    },
    {
      "inputs": [],
      "name": "fundContract",
      "outputs": [
        {
          "internalType": "contract IWormholeFund",
          "name": "",
          "type": "address"
        }
      ],
      "stateMutability": "view",
      "type": "function"
    },
    {
      "inputs": [],
      "name": "owner",
      "outputs": [
        {
          "internalType": "address",
          "name": "",
          "type": "address"
        }
      ],
      "stateMutability": "view",
      "type": "function"
    },
    {
      "inputs": [],
      "name": "renounceOwnership",
      "outputs": [],
      "stateMutability": "nonpayable",
      "type": "function"
    },
    {
      "inputs": [
        {
          "internalType": "uint256",
          "name": "",
          "type": "uint256"
        }
      ],
      "name": "taskIds",
      "outputs": [
        {
          "internalType": "uint256",
          "name": "",
          "type": "uint256"
        }
      ],
      "stateMutability": "view",
      "type": "function"
    },
    {
      "inputs": [
        {
          "internalType": "address",
          "name": "newOwner",
          "type": "address"
        }
      ],
      "name": "transferOwnership",
      "outputs": [],
      "stateMutability": "nonpayable",
      "type": "function"
    },
    {
      "inputs": [
        {
          "internalType": "address",
          "name": "fund",
          "type": "address"
        }
      ],
      "name": "setFundContract",
      "outputs": [],
      "stateMutability": "nonpayable",
      "type": "function"
    },
    {
      "inputs": [
        {
          "internalType": "uint256",
          "name": "id",
          "type": "uint256"
        },
        {
          "internalType": "uint256",
          "name": "endTime",
          "type": "uint256"
        },
        {
          "internalType": "address",
          "name": "token",
          "type": "address"
        },
        {
          "internalType": "uint256",
          "name": "amount",
          "type": "uint256"
        },
        {
          "internalType": "uint256",
          "name": "topCount",
          "type": "uint256"
        },
        {
          "internalType": "uint256",
          "name": "maxCount",
          "type": "uint256"
        }
      ],
      "name": "newTask",
      "outputs": [],
      "stateMutability": "nonpayable",
      "type": "function"
    },
    {
      "inputs": [
        {
          "internalType": "uint256",
          "name": "id",
          "type": "uint256"
        },
        {
          "internalType": "uint256",
          "name": "amount",
          "type": "uint256"
        }
      ],
      "name": "appendReward",
      "outputs": [],
      "stateMutability": "nonpayable",
      "type": "function"
    },
    {
      "inputs": [
        {
          "internalType": "uint256",
          "name": "id",
          "type": "uint256"
        },
        {
          "internalType": "uint256",
          "name": "limit",
          "type": "uint256"
        }
      ],
      "name": "cleanList",
      "outputs": [],
      "stateMutability": "nonpayable",
      "type": "function"
    },
    {
      "inputs": [
        {
          "internalType": "uint256",
          "name": "id",
          "type": "uint256"
        },
        {
          "internalType": "address[]",
          "name": "users",
          "type": "address[]"
        },
        {
          "internalType": "uint256[]",
          "name": "amounts",
          "type": "uint256[]"
        },
        {
          "internalType": "uint256[]",
          "name": "twitters",
          "type": "uint256[]"
        },
        {
          "internalType": "bool",
          "name": "isLast",
          "type": "bool"
        }
      ],
      "name": "commitList",
      "outputs": [],
      "stateMutability": "nonpayable",
      "type": "function"
    },
    {
      "inputs": [
        {
          "internalType": "uint256",
          "name": "id",
          "type": "uint256"
        }
      ],
      "name": "redeem",
      "outputs": [],
      "stateMutability": "nonpayable",
      "type": "function"
    },
    {
      "inputs": [
        {
          "internalType": "uint256",
          "name": "id",
          "type": "uint256"
        },
        {
          "internalType": "uint256",
          "name": "_limit",
          "type": "uint256"
        }
      ],
      "name": "distribute",
      "outputs": [],
      "stateMutability": "nonpayable",
      "type": "function"
    },
    {
      "inputs": [
        {
          "internalType": "uint256",
          "name": "id",
          "type": "uint256"
        }
      ],
      "name": "taskInfo",
      "outputs": [
        {
          "components": [
            {
              "internalType": "uint256",
              "name": "endTime",
              "type": "uint256"
            },
            {
              "internalType": "address",
              "name": "owner",
              "type": "address"
            },
            {
              "internalType": "address",
              "name": "token",
              "type": "address"
            },
            {
              "internalType": "uint256",
              "name": "amount",
              "type": "uint256"
            },
            {
              "internalType": "enum Task.TaskState",
              "name": "taskState",
              "type": "uint8"
            },
            {
              "internalType": "uint256",
              "name": "id",
              "type": "uint256"
            },
            {
              "internalType": "uint256",
              "name": "currentIndex",
              "type": "uint256"
            },
            {
              "internalType": "uint256",
              "name": "topCount",
              "type": "uint256"
            },
            {
              "internalType": "uint256",
              "name": "maxCount",
              "type": "uint256"
            },
            {
              "internalType": "uint256",
              "name": "feedTotal",
              "type": "uint256"
            }
          ],
          "internalType": "struct Task.TaskInfo",
          "name": "task",
          "type": "tuple"
        },
        {
          "internalType": "uint256",
          "name": "userCount",
          "type": "uint256"
        }
      ],
      "stateMutability": "view",
      "type": "function"
    },
    {
      "inputs": [],
      "name": "openningTasks",
      "outputs": [
        {
          "internalType": "uint256[]",
          "name": "ids",
          "type": "uint256[]"
        }
      ],
      "stateMutability": "view",
      "type": "function"
    },
    {
      "inputs": [],
      "name": "pendingTasks",
      "outputs": [
        {
          "internalType": "uint256[]",
          "name": "ids",
          "type": "uint256[]"
        }
      ],
      "stateMutability": "view",
      "type": "function"
    },
    {
      "inputs": [
        {
          "internalType": "uint256",
          "name": "id",
          "type": "uint256"
        },
        {
          "internalType": "uint256",
          "name": "batch",
          "type": "uint256"
        }
      ],
      "name": "getRewardList",
      "outputs": [
        {
          "components": [
            {
              "internalType": "address",
              "name": "user",
              "type": "address"
            },
            {
              "internalType": "uint256",
              "name": "amount",
              "type": "uint256"
            },
            {
              "internalType": "uint256",
              "name": "twitterId",
              "type": "uint256"
            }
          ],
          "internalType": "struct Task.RewardInfo[]",
          "name": "rewards",
          "type": "tuple[]"
        }
      ],
      "stateMutability": "view",
      "type": "function"
    }
  ],
  "bytecode": "0x608060405234801561001057600080fd5b5061001a33610023565b60018055610073565b600080546001600160a01b038381166001600160a01b0319831681178455604051919092169283917f8be0079c531659141344cd1fd0a4f28419497f9722a3daafe3b4186f6b6457e09190a35050565b612318806100826000396000f3fe608060405234801561001057600080fd5b50600436106101005760003560e01c80638da5cb5b11610097578063cc167c9e11610066578063cc167c9e1461020e578063db006a7514610221578063e396027114610234578063f2fde38b1461025457600080fd5b80638da5cb5b146101b0578063b6574d19146101d5578063bd097e21146101e8578063c75fb7ca146101fb57600080fd5b80635a95da41116100d35780635a95da411461016c578063715018a6146101745780637625391a1461017c578063773642911461018f57600080fd5b80630a1a8130146101055780633246be7f1461012357806339118d251461013857806359144baa14610159575b600080fd5b61010d610267565b60405161011a9190611d0f565b60405180910390f35b610136610131366004611d6f565b610278565b005b61014b610146366004611dc0565b6104d2565b60405190815260200161011a565b610136610167366004611dd9565b6104f3565b61010d61056a565b610136610576565b61013661018a366004611df4565b61058a565b6101a261019d366004611dc0565b610a70565b60405161011a929190611e4e565b6000546001600160a01b03165b6040516001600160a01b03909116815260200161011a565b6101366101e3366004611df4565b610b9b565b6009546101bd906001600160a01b031681565b610136610209366004611fd9565b610d44565b61013661021c366004611df4565b6111de565b61013661022f366004611dc0565b6113c5565b610247610242366004611df4565b6115cd565b60405161011a91906120da565b610136610262366004611dd9565b61180d565b60606102736003611883565b905090565b610280611897565b600086815260076020526040902054156102d95760405162461bcd60e51b815260206004820152601560248201527415185cdac81a185cc81899595b8818dc99585d1959605a1b60448201526064015b60405180910390fd5b6040516370a0823160e01b815233600482015283906001600160a01b038616906370a0823190602401602060405180830381865afa15801561031f573d6000803e3d6000fd5b505050506040513d601f19601f82011682018060405250810190610343919061213c565b10156103885760405162461bcd60e51b8152602060048201526014602482015273496e73756666696369656e742062616c616e636560601b60448201526064016102d0565b4285116103c85760405162461bcd60e51b815260206004820152600e60248201526d57726f6e6720656e642074696d6560901b60448201526064016102d0565b6103d4843330866118f0565b6000868152600760208190526040822087815560018082018054336001600160a01b031991821617909155600280840180549092166001600160a01b038b1617909155600380840189905560048401805460ff19169055600584018c905593830187905560089092018590558154908101825592527f405787fa12a823e0f2b7631cc41b3ba8828b3321ca811111fa75cd3aa3bb5ace90910187905561047a90876118fd565b5060408051848152602081018790526001600160a01b0386169133917f9f0e91b5a5a94e5bc6c3f170f2871885e67bcba5d4029f7d3b65d9c7522e06a2910160405180910390a36104ca60018055565b505050505050565b600281815481106104e257600080fd5b600091825260209091200154905081565b6104fb611909565b6001600160a01b0381166105485760405162461bcd60e51b8152602060048201526014602482015273696e76616c69642066756e64206164647265737360601b60448201526064016102d0565b600980546001600160a01b0319166001600160a01b0392909216919091179055565b60606102736005611883565b61057e611909565b6105886000611963565b565b610592611897565b60008281526007602052604090206005015482146105e45760405162461bcd60e51b815260206004820152600f60248201526e125b9d985b1a59081d185cdac81a59608a1b60448201526064016102d0565b600160008381526007602052604090206004015460ff16600381111561060c5761060c611e16565b146106745760405162461bcd60e51b815260206004820152603260248201527f43616e74206469737472696275746520746865207461736b2074686174206e6f6044820152717420696e2070656e64696e6720737461746560701b60648201526084016102d0565b806101f481111561068457506101f45b60008381526007602052604081206006015490805b600086815260086020526040902054831080156106b557508382105b156108f05760008681526008602052604081208054859081106106da576106da612155565b60009182526020909120600390910201546001600160a01b03160361083d57600954600087815260086020526040902080546001600160a01b039092169163b34d335391908690811061072f5761072f612155565b6000918252602080832060026003909302018201548b845260078252604080852090930154600890925291909220805491926001600160a01b0316918890811061077b5761077b612155565b9060005260206000209060030201600101546040518463ffffffff1660e01b81526004016107c5939291909283526001600160a01b03919091166020830152604082015260600190565b600060405180830381600087803b1580156107df57600080fd5b505af11580156107f3573d6000803e3d6000fd5b505050600087815260086020526040902080549091508490811061081957610819612155565b906000526020600020906003020160010154816108369190612181565b90506108d0565b600086815260076020908152604080832060020154600890925290912080546108d0926001600160a01b031691908690811061087b5761087b612155565b600091825260208083206003909202909101548a83526008909152604090912080546001600160a01b0390921691879081106108b9576108b9612155565b9060005260206000209060030201600101546119b3565b816108da81612199565b92505082806108e890612199565b935050610699565b801561092257600086815260076020526040902060020154600954610922916001600160a01b039081169116836119b3565b600086815260076020526040908190206006018490555186907f9583d1ebe40875c54dbd2e47e758124146366bba1b4a0adf6f4b15a49f896e219061096a9085815260200190565b60405180910390a26000868152600860205260409020548310610a5f576000868152600760205260409020600401805460ff191660021790556109ae6003876119bf565b506109ba6005876119bf565b50600086815260076020526040812060098101546003909101546109de91906121b2565b1115610a29576000868152600760205260409020600281015460018201546009830154600390930154610a29936001600160a01b039384169390921691610a24916121b2565b6119b3565b6040516002815286907e79f62f5302f0da1aa03e7beeab939e6f4ff2e1d686044cba6149385d2a52819060200160405180910390a25b50505050610a6c60018055565b5050565b610ac6604080516101408101825260008082526020820181905291810182905260608101829052906080820190815260200160008152602001600081526020016000815260200160008152602001600081525090565b60008281526007602090815260408083208151610140810183528154815260018201546001600160a01b039081169482019490945260028201549093169183019190915260038082015460608401526004820154608084019160ff90911690811115610b3457610b34611e16565b6003811115610b4557610b45611e16565b815260200160058201548152602001600682015481526020016007820154815260200160088201548152602001600982015481525050915060086000848152602001908152602001600020805490509050915091565b610ba3611909565b6000828152600760205260409020600501548214610bf55760405162461bcd60e51b815260206004820152600f60248201526e125b9d985b1a59081d185cdac81a59608a1b60448201526064016102d0565b60008281526007602052604090206006015415610c475760405162461bcd60e51b815260206004820152601060248201526f18d85b89dd0818994818db19585c995960821b60448201526064016102d0565b6000828152600760205260409020600401805460ff19166003179055610c6e6005836119bf565b5060008281526008602052604090205481908110610c9757506000828152600860205260409020545b8015610cfc576000838152600860205260409020805480610cba57610cba6121c9565b60008281526020812060036000199093019283020180546001600160a01b03191681556001810182905560020155905580610cf4816121df565b915050610c97565b6000838152600860205260408120549003610d3f5760008381526007602052604081206009810191909155600401805460ff19169055610d3d6003846118fd565b505b505050565b610d4c611897565b610d54611909565b600085815260076020526040902054610d7f5760405162461bcd60e51b81526004016102d0906121f6565b6000858152600760205260409020544211610dd25760405162461bcd60e51b81526020600482015260136024820152720a8c2e6d640d0c2e640dcdee840ccd2dcd2e6d606b1b60448201526064016102d0565b60008581526007602052604081206004015460ff166003811115610df857610df8611e16565b14610e3b5760405162461bcd60e51b81526020600482015260136024820152725461736b206973206e6f74206f70656e696e6760681b60448201526064016102d0565b8251845114610e795760405162461bcd60e51b815260206004820152600a60248201526957726f6e67206461746160b01b60448201526064016102d0565b8151845114610eb75760405162461bcd60e51b815260206004820152600a60248201526957726f6e67206461746160b01b60448201526064016102d0565b6101f484511115610f015760405162461bcd60e51b815260206004820152601460248201527310985d18da081b1a5b5a5d08195e18d95959195960621b60448201526064016102d0565b60008581526007602090815260408083206008908101549252909120548551610f2a9190612181565b1115610f8c5760405162461bcd60e51b815260206004820152602b60248201527f457863656564656420746865206d6178696d756d206e756d626572206f66207060448201526a61727469636970616e747360a81b60648201526084016102d0565b60005b84518110156110c357600860008781526020019081526020016000206040518060600160405280878481518110610fc857610fc8612155565b60200260200101516001600160a01b03168152602001868481518110610ff057610ff0612155565b6020026020010151815260200185848151811061100f5761100f612155565b602090810291909101810151909152825460018082018555600094855293829020835160039092020180546001600160a01b0319166001600160a01b03909216919091178155908201519281019290925560400151600290910155835184908290811061107e5761107e612155565b60200260200101516007600088815260200190815260200160002060090160008282546110ab9190612181565b909155508190506110bb81612199565b915050610f8f565b506000858152600760205260409020600381015460099091015411156111235760405162461bcd60e51b8152602060048201526015602482015274125b9d985b1a59081c995dd85c9908185b5bdd5b9d605a1b60448201526064016102d0565b8015611193576000858152600760205260409020600401805460ff191660011790556111506003866119bf565b5061115c6005866118fd565b506040516001815285907e79f62f5302f0da1aa03e7beeab939e6f4ff2e1d686044cba6149385d2a52819060200160405180910390a25b847f6244a7d491b75b2dc4fde9b10190c3b2fad5f1c749438868fc55e449350214d485516040516111c691815260200190565b60405180910390a26111d760018055565b5050505050565b6111e6611897565b6000828152600760205260409020546112115760405162461bcd60e51b81526004016102d0906121f6565b600082815260076020526040908190206002015490516370a0823160e01b815233600482015282916001600160a01b0316906370a0823190602401602060405180830381865afa158015611269573d6000803e3d6000fd5b505050506040513d601f19601f8201168201806040525081019061128d919061213c565b10156112d25760405162461bcd60e51b8152602060048201526014602482015273496e73756666696369656e742062616c616e636560601b60448201526064016102d0565b60008281526007602052604081206004015460ff1660038111156112f8576112f8611e16565b146113385760405162461bcd60e51b815260206004820152601060248201526f57726f6e67207461736b20737461746560801b60448201526064016102d0565b60008281526007602052604090206002015461135f906001600160a01b03163330846118f0565b60008281526007602052604081206003018054839290611380908490612181565b9091555050604051818152339083907fecb17d85773a7badfe83b5e9972f80ca4f1e2ad21096741a115c36c31ef016019060200160405180910390a3610a6c60018055565b6113cd611897565b6113d5611909565b6000818152600760205260409020546114005760405162461bcd60e51b81526004016102d0906121f6565b60008181526007602052604090205442116114535760405162461bcd60e51b81526020600482015260136024820152720a8c2e6d640d0c2e640dcdee840ccd2dcd2e6d606b1b60448201526064016102d0565b60008181526007602052604081206004015460ff16600381111561147957611479611e16565b146114bc5760405162461bcd60e51b81526020600482015260136024820152725461736b206973206e6f74206f70656e696e6760681b60448201526064016102d0565b600081815260086020526040902054156115185760405162461bcd60e51b815260206004820181905260248201527f5461736b2068617320616c7265616479206265656e20636f6d6d69744c69737460448201526064016102d0565b6000818152600760205260409020600401805460ff1916600217905561153f6003826119bf565b506000818152600760205260409020600301541561158c5760008181526007602052604090206002810154600182015460039092015461158c926001600160a01b039283169216906119b3565b6040516002815281907e79f62f5302f0da1aa03e7beeab939e6f4ff2e1d686044cba6149385d2a52819060200160405180910390a26115ca60018055565b50565b60008281526007602090815260408083206008909252822054606092906115f7906101f490612243565b15611603576001611606565b60005b60008681526008602052604090205460ff9190911690611629906101f490612257565b6116339190612181565b90506000600483015460ff16600381111561165057611650611e16565b148061165c5750808410155b15611668575050611807565b60006116766101f48661226b565b905060006116856001846121b2565b86146116a8576101f4611699876001612181565b6116a3919061226b565b6116ce565b6000878152600860205260409020546116c4906101f490612243565b6116ce9083612181565b90506116da82826121b2565b67ffffffffffffffff8111156116f2576116f2611eea565b60405190808252806020026020018201604052801561175057816020015b61173d604051806060016040528060006001600160a01b0316815260200160008152602001600081525090565b8152602001906001900390816117105790505b5094506000825b8281101561180057600089815260086020526040902080548290811061177f5761177f612155565b600091825260209182902060408051606081018252600390930290910180546001600160a01b031683526001810154938301939093526002909201549181019190915287518890849081106117d6576117d6612155565b60209081029190910101526117ec600183612181565b9150806117f881612199565b915050611757565b5050505050505b92915050565b611815611909565b6001600160a01b03811661187a5760405162461bcd60e51b815260206004820152602660248201527f4f776e61626c653a206e6577206f776e657220697320746865207a65726f206160448201526564647265737360d01b60648201526084016102d0565b6115ca81611963565b60606000611890836119cb565b9392505050565b6002600154036118e95760405162461bcd60e51b815260206004820152601f60248201527f5265656e7472616e637947756172643a207265656e7472616e742063616c6c0060448201526064016102d0565b6002600155565b836111d781858585611a27565b60006118908383611a92565b6000546001600160a01b031633146105885760405162461bcd60e51b815260206004820181905260248201527f4f776e61626c653a2063616c6c6572206973206e6f7420746865206f776e657260448201526064016102d0565b600080546001600160a01b038381166001600160a01b0319831681178455604051919092169283917f8be0079c531659141344cd1fd0a4f28419497f9722a3daafe3b4186f6b6457e09190a35050565b82610d3d818484611ae1565b60006118908383611b11565b606081600001805480602002602001604051908101604052809291908181526020018280548015611a1b57602002820191906000526020600020905b815481526020019060010190808311611a07575b50505050509050919050565b6040516001600160a01b0380851660248301528316604482015260648101829052610d3d9085906323b872dd60e01b906084015b60408051601f198184030181529190526020810180516001600160e01b03166001600160e01b031990931692909217909152611c04565b6000818152600183016020526040812054611ad957508154600181810184556000848152602080822090930184905584548482528286019093526040902091909155611807565b506000611807565b6040516001600160a01b038316602482015260448101829052610d3f90849063a9059cbb60e01b90606401611a5b565b60008181526001830160205260408120548015611bfa576000611b356001836121b2565b8554909150600090611b49906001906121b2565b9050818114611bae576000866000018281548110611b6957611b69612155565b9060005260206000200154905080876000018481548110611b8c57611b8c612155565b6000918252602080832090910192909255918252600188019052604090208390555b8554869080611bbf57611bbf6121c9565b600190038181906000526020600020016000905590558560010160008681526020019081526020016000206000905560019350505050611807565b6000915050611807565b600080836001600160a01b031683604051611c1f919061228a565b6000604051808303816000865af19150503d8060008114611c5c576040519150601f19603f3d011682016040523d82523d6000602084013e611c61565b606091505b509150915081611ca85760405162461bcd60e51b8152602060048201526012602482015271115490cc8c0e8818d85b1b0819985a5b195960721b60448201526064016102d0565b805115610d3d5780806020019051810190611cc391906122c5565b610d3d5760405162461bcd60e51b815260206004820181905260248201527f45524332303a206f7065726174696f6e20646964206e6f74207375636365656460448201526064016102d0565b6020808252825182820181905260009190848201906040850190845b81811015611d4757835183529284019291840191600101611d2b565b50909695505050505050565b80356001600160a01b0381168114611d6a57600080fd5b919050565b60008060008060008060c08789031215611d8857600080fd5b8635955060208701359450611d9f60408801611d53565b9350606087013592506080870135915060a087013590509295509295509295565b600060208284031215611dd257600080fd5b5035919050565b600060208284031215611deb57600080fd5b61189082611d53565b60008060408385031215611e0757600080fd5b50508035926020909101359150565b634e487b7160e01b600052602160045260246000fd5b60048110611e4a57634e487b7160e01b600052602160045260246000fd5b9052565b82518152602080840151610160830191611e72908401826001600160a01b03169052565b506040840151611e8d60408401826001600160a01b03169052565b50606084015160608301526080840151611eaa6080840182611e2c565b5060a0848101519083015260c0808501519083015260e0808501519083015261010080850151908301526101209384015193820193909352610140015290565b634e487b7160e01b600052604160045260246000fd5b604051601f8201601f1916810167ffffffffffffffff81118282101715611f2957611f29611eea565b604052919050565b600067ffffffffffffffff821115611f4b57611f4b611eea565b5060051b60200190565b600082601f830112611f6657600080fd5b81356020611f7b611f7683611f31565b611f00565b82815260059290921b84018101918181019086841115611f9a57600080fd5b8286015b84811015611fb55780358352918301918301611f9e565b509695505050505050565b80151581146115ca57600080fd5b8035611d6a81611fc0565b600080600080600060a08688031215611ff157600080fd5b8535945060208087013567ffffffffffffffff8082111561201157600080fd5b818901915089601f83011261202557600080fd5b8135612033611f7682611f31565b81815260059190911b8301840190848101908c83111561205257600080fd5b938501935b828510156120775761206885611d53565b82529385019390850190612057565b98505050604089013592508083111561208f57600080fd5b61209b8a848b01611f55565b955060608901359250808311156120b157600080fd5b50506120bf88828901611f55565b9250506120ce60808701611fce565b90509295509295909350565b602080825282518282018190526000919060409081850190868401855b8281101561212f57815180516001600160a01b03168552868101518786015285015185850152606090930192908501906001016120f7565b5091979650505050505050565b60006020828403121561214e57600080fd5b5051919050565b634e487b7160e01b600052603260045260246000fd5b634e487b7160e01b600052601160045260246000fd5b600082198211156121945761219461216b565b500190565b6000600182016121ab576121ab61216b565b5060010190565b6000828210156121c4576121c461216b565b500390565b634e487b7160e01b600052603160045260246000fd5b6000816121ee576121ee61216b565b506000190190565b60208082526019908201527f5461736b20686173206e6f74206265656e206372656174656400000000000000604082015260600190565b634e487b7160e01b600052601260045260246000fd5b6000826122525761225261222d565b500690565b6000826122665761226661222d565b500490565b60008160001904831182151516156122855761228561216b565b500290565b6000825160005b818110156122ab5760208186018101518583015201612291565b818111156122ba576000828501525b509190910192915050565b6000602082840312156122d757600080fd5b815161189081611fc056fea26469706673582212200207adfc94f79b777755ca376a1f8059d2b9e97a4a9b60f300315f97aa36001264736f6c634300080d0033",
  "immutableReferences": {},
  "source": "// SPDX-License-Identifier: MIT\npragma solidity ^0.8.0;\npragma experimental ABIEncoderV2;\nimport \"@openzeppelin/contracts/token/ERC20/ERC20.sol\";\nimport \"@openzeppelin/contracts/access/AccessControlEnumerable.sol\";\nimport \"@openzeppelin/contracts/access/Ownable.sol\";\nimport \"@openzeppelin/contracts/security/ReentrancyGuard.sol\";\nimport \"./ERC20Helper.sol\";\nimport \"@openzeppelin/contracts/utils/structs/EnumerableSet.sol\";\nimport \"./interfaces/IWormholeFund.sol\";\n\n/**\n * Wormhole remote task Database\n * This is a simple task list, project manager can publish a task to remote one of his twitter\n * He need to depost some ERC20 token to this contract\n * Then we write into the reward list after the end time\n */\ncontract Task is Ownable, ReentrancyGuard, ERC20Helper {\n    using EnumerableSet for EnumerableSet.UintSet;\n    // task status:\n    // Openning: when user create a new task;\n    // Pending: when we fill the user list;\n    // Closed: The task finished, token distribute to the users;\n    // Clean: clear the list of rewardList\n    enum TaskState {\n        Openning,\n        Pending,\n        Closed,\n        Clean\n    }\n\n    struct RewardInfo {\n        address user;\n        uint256 amount;\n        uint256 twitterId;\n    }\n\n    uint256 constant BATCH_SIZE = 500;\n\n    struct TaskInfo {\n        uint256 endTime; // after this timestamp, the owner can change the state\n        address owner; // who create this task\n        address token; // the reward token\n        uint256 amount; // reward amount\n        TaskState taskState;\n        uint256 id; // task id\n        uint256 currentIndex; // user tags that are currently distributed\n        uint256 topCount; // Define the number of top\n        uint256 maxCount; // Maximum number of rewards\n        uint256 feedTotal; // amount already filled\n    }\n\n    // all tasks id\n    uint256[] public taskIds;\n    EnumerableSet.UintSet private openningTaskIds;\n    EnumerableSet.UintSet private pendingTaskIds;\n\n    // all tasks list\n    mapping(uint256 => TaskInfo) private taskList;\n    mapping(uint256 => RewardInfo[]) private rewardList; // filled by wormhole\n\n    // Fund contract\n    IWormholeFund public fundContract;\n\n    event NewTask(address indexed owner, address indexed token, uint256 amount, uint256 endTime);\n    event AddReward(uint256 indexed taskId, address indexed contributor, uint256 amount);\n    event Distribute(uint256 indexed id, uint256 count);\n    event AdminFillTaskList(uint256 indexed id, uint256 count);\n    event TaskStateChange(uint256 indexed id, uint8 state);\n\n    constructor() {}\n\n    function setFundContract(address fund) public onlyOwner {\n        require(fund != address(0), \"invalid fund address\");\n        fundContract = IWormholeFund(fund);\n    }\n\n    // create a new task\n    // every one can create a task\n    function newTask(\n        uint256 id,\n        uint256 endTime,\n        address token,\n        uint256 amount,\n        uint256 topCount,\n        uint256 maxCount\n    ) public nonReentrant {\n        require(taskList[id].endTime == 0, \"Task has been created\");\n        require(ERC20(token).balanceOf(msg.sender) >= amount, \"Insufficient balance\");\n        require(endTime > block.timestamp, \"Wrong end time\");\n        lockERC20(token, msg.sender, address(this), amount);\n\n        taskList[id].endTime = endTime;\n        taskList[id].owner = msg.sender;\n        taskList[id].token = token;\n        taskList[id].amount = amount;\n        taskList[id].taskState = TaskState.Openning;\n        taskList[id].id = id;\n        taskList[id].topCount = topCount;\n        taskList[id].maxCount = maxCount;\n\n        taskIds.push(id);\n        openningTaskIds.add(id);\n\n        emit NewTask(msg.sender, token, amount, endTime);\n    }\n\n    function appendReward(uint256 id, uint256 amount) public nonReentrant {\n        require(taskList[id].endTime > 0, \"Task has not been created\");\n        require(ERC20(taskList[id].token).balanceOf(msg.sender) >= amount, \"Insufficient balance\");\n        require(taskList[id].taskState == TaskState.Openning, \"Wrong task state\");\n        lockERC20(taskList[id].token, msg.sender, address(this), amount);\n        taskList[id].amount += amount;\n        emit AddReward(id, msg.sender, amount);\n    }\n\n    function cleanList(uint256 id, uint256 limit) public onlyOwner {\n        require(taskList[id].id == id, \"Invalid task id\");\n        require(taskList[id].currentIndex == 0, \"can't be cleared\");\n        taskList[id].taskState = TaskState.Clean;\n        pendingTaskIds.remove(id);\n        uint256 len = limit;\n        if (len >= rewardList[id].length) {\n            len = rewardList[id].length;\n        }\n        while (len > 0) {\n            rewardList[id].pop();\n            len--;\n        }\n        if (rewardList[id].length == 0) {\n            taskList[id].feedTotal = 0;\n            taskList[id].taskState = TaskState.Openning;\n            openningTaskIds.add(id);\n        }\n    }\n\n    // Admin(wormhole) calculate the rewards list adn write into this contract batch by batch\n    function commitList(\n        uint256 id,\n        address[] memory users,\n        uint256[] memory amounts,\n        uint256[] memory twitters,\n        bool isLast\n    ) public nonReentrant onlyOwner {\n        require(taskList[id].endTime > 0, \"Task has not been created\");\n        require(taskList[id].endTime < block.timestamp, \"Task has not finish\");\n        require(taskList[id].taskState == TaskState.Openning, \"Task is not opening\");\n        require(users.length == amounts.length, \"Wrong data\");\n        require(users.length == twitters.length, \"Wrong data\");\n        require(users.length <= BATCH_SIZE, \"Batch limit exceeded\");\n        require(users.length + rewardList[id].length <= taskList[id].maxCount, \"Exceeded the maximum number of participants\");\n        for (uint256 i = 0; i < users.length; i++) {\n            rewardList[id].push(RewardInfo(users[i], amounts[i], twitters[i]));\n            taskList[id].feedTotal += amounts[i];\n        }\n        require(taskList[id].feedTotal <= taskList[id].amount, \"Invalid reward amount\");\n        if (isLast) {\n            taskList[id].taskState = TaskState.Pending;\n            openningTaskIds.remove(id);\n            pendingTaskIds.add(id);\n            emit TaskStateChange(id, uint8(TaskState.Pending));\n        }\n        emit AdminFillTaskList(id, users.length);\n    }\n\n    function redeem(uint256 id) public nonReentrant onlyOwner {\n        require(taskList[id].endTime > 0, \"Task has not been created\");\n        require(taskList[id].endTime < block.timestamp, \"Task has not finish\");\n        require(taskList[id].taskState == TaskState.Openning, \"Task is not opening\");\n        require(rewardList[id].length == 0, \"Task has already been commitList\");\n        taskList[id].taskState = TaskState.Closed;\n        openningTaskIds.remove(id);\n        if (taskList[id].amount > 0) {\n            releaseERC20(taskList[id].token, taskList[id].owner, taskList[id].amount);\n        }\n        emit TaskStateChange(id, uint8(TaskState.Closed));\n    }\n\n    // The task creator trigger the distribution batch by batch\n    function distribute(uint256 id, uint256 _limit) public nonReentrant {\n        // require(taskList[id].owner == msg.sender, 'You are not the task creator');\n        require(taskList[id].id == id, \"Invalid task id\");\n        require(taskList[id].taskState == TaskState.Pending, \"Cant distribute the task that not in pending state\");\n\n        uint256 limit = _limit;\n        if (limit > BATCH_SIZE) limit = BATCH_SIZE;\n        uint256 index = taskList[id].currentIndex;\n        uint256 distCount = 0;\n        uint256 fundAmount = 0;\n\n        for (; index < rewardList[id].length && distCount < limit; index++) {\n            if (rewardList[id][index].user == address(0)) {\n                fundContract.pushAward(rewardList[id][index].twitterId, taskList[id].token, rewardList[id][index].amount);\n                // releaseERC20(taskList[id].token, address(fundContract), rewardList[id][index].amount);\n                fundAmount += rewardList[id][index].amount;\n            } else {\n                releaseERC20(taskList[id].token, rewardList[id][index].user, rewardList[id][index].amount);\n            }\n            distCount++;\n        }\n        if (fundAmount > 0) {\n            releaseERC20(taskList[id].token, address(fundContract), fundAmount);\n        }\n\n        taskList[id].currentIndex = index;\n        emit Distribute(id, distCount);\n        if (index >= rewardList[id].length) {\n            taskList[id].taskState = TaskState.Closed;\n            openningTaskIds.remove(id);\n            pendingTaskIds.remove(id);\n            if (taskList[id].amount - taskList[id].feedTotal > 0) {\n                releaseERC20(taskList[id].token, taskList[id].owner, taskList[id].amount - taskList[id].feedTotal);\n            }\n            emit TaskStateChange(id, uint8(TaskState.Closed));\n        }\n    }\n\n    // Get task's head info\n    function taskInfo(uint256 id) public view returns (TaskInfo memory task, uint256 userCount) {\n        task = taskList[id];\n        userCount = rewardList[id].length;\n    }\n\n    function openningTasks() public view returns (uint256[] memory ids) {\n        ids = openningTaskIds.values();\n    }\n\n    function pendingTasks() public view returns (uint256[] memory ids) {\n        ids = pendingTaskIds.values();\n    }\n\n    function getRewardList(uint256 id, uint256 batch) public view returns (RewardInfo[] memory rewards) {\n        TaskInfo storage task = taskList[id];\n        uint256 batchSize = rewardList[id].length / BATCH_SIZE + (rewardList[id].length % BATCH_SIZE == 0 ? 0 : 1);\n        if (task.taskState == TaskState.Openning || batch >= batchSize) {\n            return rewards;\n        }\n\n        uint256 startIndex = batch * BATCH_SIZE;\n        uint256 endIndex = batch == batchSize - 1 ? startIndex + (rewardList[id].length % BATCH_SIZE) : (batch + 1) * BATCH_SIZE;\n        rewards = new RewardInfo[](endIndex - startIndex);\n        uint256 j = 0;\n        for (uint256 i = startIndex; i < endIndex; i++) {\n            rewards[j] = rewardList[id][i];\n            j += 1;\n        }\n    }\n}\n",
  "sourcePath": "/Users/wangxi/work/Walnut-V2/nutbox-contract/contracts/Task.sol",
  "compiler": {
    "name": "solc",
    "version": "0.8.13+commit.abaa5c0e.Emscripten.clang"
  },
  "schemaVersion": "3.3.4",
  "updatedAt": "2024-06-25T07:57:02.605Z",
  "devdoc": {
    "kind": "dev",
    "methods": {
      "owner()": {
        "details": "Returns the address of the current owner."
      },
      "renounceOwnership()": {
        "details": "Leaves the contract without owner. It will not be possible to call `onlyOwner` functions. Can only be called by the current owner. NOTE: Renouncing ownership will leave the contract without an owner, thereby disabling any functionality that is only available to the owner."
      },
      "transferOwnership(address)": {
        "details": "Transfers ownership of the contract to a new account (`newOwner`). Can only be called by the current owner."
      }
    },
    "version": 1
  },
  "userdoc": {
    "kind": "user",
    "methods": {},
    "notice": "Wormhole remote task Database This is a simple task list, project manager can publish a task to remote one of his twitter He need to depost some ERC20 token to this contract Then we write into the reward list after the end time",
    "version": 1
  }
}