{
  "contractName": "Task",
  "abi": [
    {
      "inputs": [],
      "stateMutability": "nonpayable",
      "type": "constructor"
    },
    {
      "anonymous": false,
      "inputs": [
        {
          "indexed": true,
          "internalType": "uint256",
          "name": "taskId",
          "type": "uint256"
        },
        {
          "indexed": true,
          "internalType": "address",
          "name": "contributor",
          "type": "address"
        },
        {
          "indexed": false,
          "internalType": "uint256",
          "name": "amount",
          "type": "uint256"
        }
      ],
      "name": "AddReward",
      "type": "event"
    },
    {
      "anonymous": false,
      "inputs": [
        {
          "indexed": true,
          "internalType": "uint256",
          "name": "id",
          "type": "uint256"
        },
        {
          "indexed": false,
          "internalType": "uint256",
          "name": "count",
          "type": "uint256"
        }
      ],
      "name": "AdminFillTaskList",
      "type": "event"
    },
    {
      "anonymous": false,
      "inputs": [
        {
          "indexed": true,
          "internalType": "uint256",
          "name": "id",
          "type": "uint256"
        },
        {
          "indexed": false,
          "internalType": "uint256",
          "name": "count",
          "type": "uint256"
        }
      ],
      "name": "Distribute",
      "type": "event"
    },
    {
      "anonymous": false,
      "inputs": [
        {
          "indexed": true,
          "internalType": "address",
          "name": "owner",
          "type": "address"
        },
        {
          "indexed": true,
          "internalType": "address",
          "name": "token",
          "type": "address"
        },
        {
          "indexed": false,
          "internalType": "uint256",
          "name": "amount",
          "type": "uint256"
        },
        {
          "indexed": false,
          "internalType": "uint256",
          "name": "endTime",
          "type": "uint256"
        }
      ],
      "name": "NewTask",
      "type": "event"
    },
    {
      "anonymous": false,
      "inputs": [
        {
          "indexed": true,
          "internalType": "address",
          "name": "previousOwner",
          "type": "address"
        },
        {
          "indexed": true,
          "internalType": "address",
          "name": "newOwner",
          "type": "address"
        }
      ],
      "name": "OwnershipTransferred",
      "type": "event"
    },
    {
      "anonymous": false,
      "inputs": [
        {
          "indexed": true,
          "internalType": "uint256",
          "name": "id",
          "type": "uint256"
        },
        {
          "indexed": false,
          "internalType": "uint8",
          "name": "state",
          "type": "uint8"
        }
      ],
      "name": "TaskStateChange",
      "type": "event"
    },
    {
      "inputs": [],
      "name": "fundContract",
      "outputs": [
        {
          "internalType": "contract IWormholeFund",
          "name": "",
          "type": "address"
        }
      ],
      "stateMutability": "view",
      "type": "function"
    },
    {
      "inputs": [],
      "name": "owner",
      "outputs": [
        {
          "internalType": "address",
          "name": "",
          "type": "address"
        }
      ],
      "stateMutability": "view",
      "type": "function"
    },
    {
      "inputs": [],
      "name": "renounceOwnership",
      "outputs": [],
      "stateMutability": "nonpayable",
      "type": "function"
    },
    {
      "inputs": [
        {
          "internalType": "uint256",
          "name": "",
          "type": "uint256"
        }
      ],
      "name": "taskIds",
      "outputs": [
        {
          "internalType": "uint256",
          "name": "",
          "type": "uint256"
        }
      ],
      "stateMutability": "view",
      "type": "function"
    },
    {
      "inputs": [
        {
          "internalType": "address",
          "name": "newOwner",
          "type": "address"
        }
      ],
      "name": "transferOwnership",
      "outputs": [],
      "stateMutability": "nonpayable",
      "type": "function"
    },
    {
      "inputs": [
        {
          "internalType": "address",
          "name": "fund",
          "type": "address"
        }
      ],
      "name": "setFundContract",
      "outputs": [],
      "stateMutability": "nonpayable",
      "type": "function"
    },
    {
      "inputs": [
        {
          "internalType": "uint256",
          "name": "id",
          "type": "uint256"
        },
        {
          "internalType": "uint256",
          "name": "endTime",
          "type": "uint256"
        },
        {
          "internalType": "address",
          "name": "token",
          "type": "address"
        },
        {
          "internalType": "uint256",
          "name": "amount",
          "type": "uint256"
        },
        {
          "internalType": "uint256",
          "name": "topCount",
          "type": "uint256"
        },
        {
          "internalType": "uint256",
          "name": "maxCount",
          "type": "uint256"
        }
      ],
      "name": "newTask",
      "outputs": [],
      "stateMutability": "nonpayable",
      "type": "function"
    },
    {
      "inputs": [
        {
          "internalType": "uint256",
          "name": "id",
          "type": "uint256"
        },
        {
          "internalType": "uint256",
          "name": "amount",
          "type": "uint256"
        }
      ],
      "name": "appendReward",
      "outputs": [],
      "stateMutability": "nonpayable",
      "type": "function"
    },
    {
      "inputs": [
        {
          "internalType": "uint256",
          "name": "id",
          "type": "uint256"
        },
        {
          "internalType": "uint256",
          "name": "limit",
          "type": "uint256"
        }
      ],
      "name": "cleanList",
      "outputs": [],
      "stateMutability": "nonpayable",
      "type": "function"
    },
    {
      "inputs": [
        {
          "internalType": "uint256",
          "name": "id",
          "type": "uint256"
        },
        {
          "internalType": "address[]",
          "name": "users",
          "type": "address[]"
        },
        {
          "internalType": "uint256[]",
          "name": "amounts",
          "type": "uint256[]"
        },
        {
          "internalType": "uint256[]",
          "name": "twitters",
          "type": "uint256[]"
        },
        {
          "internalType": "bool",
          "name": "isLast",
          "type": "bool"
        }
      ],
      "name": "commitList",
      "outputs": [],
      "stateMutability": "nonpayable",
      "type": "function"
    },
    {
      "inputs": [
        {
          "internalType": "uint256",
          "name": "id",
          "type": "uint256"
        }
      ],
      "name": "redeem",
      "outputs": [],
      "stateMutability": "nonpayable",
      "type": "function"
    },
    {
      "inputs": [
        {
          "internalType": "uint256",
          "name": "id",
          "type": "uint256"
        },
        {
          "internalType": "uint256",
          "name": "_limit",
          "type": "uint256"
        }
      ],
      "name": "distribute",
      "outputs": [],
      "stateMutability": "nonpayable",
      "type": "function"
    },
    {
      "inputs": [
        {
          "internalType": "uint256",
          "name": "id",
          "type": "uint256"
        }
      ],
      "name": "taskInfo",
      "outputs": [
        {
          "components": [
            {
              "internalType": "uint256",
              "name": "endTime",
              "type": "uint256"
            },
            {
              "internalType": "address",
              "name": "owner",
              "type": "address"
            },
            {
              "internalType": "address",
              "name": "token",
              "type": "address"
            },
            {
              "internalType": "uint256",
              "name": "amount",
              "type": "uint256"
            },
            {
              "internalType": "enum Task.TaskState",
              "name": "taskState",
              "type": "uint8"
            },
            {
              "internalType": "uint256",
              "name": "id",
              "type": "uint256"
            },
            {
              "internalType": "uint256",
              "name": "currentIndex",
              "type": "uint256"
            },
            {
              "internalType": "uint256",
              "name": "topCount",
              "type": "uint256"
            },
            {
              "internalType": "uint256",
              "name": "maxCount",
              "type": "uint256"
            },
            {
              "internalType": "uint256",
              "name": "feedTotal",
              "type": "uint256"
            }
          ],
          "internalType": "struct Task.TaskInfo",
          "name": "task",
          "type": "tuple"
        },
        {
          "internalType": "uint256",
          "name": "userCount",
          "type": "uint256"
        }
      ],
      "stateMutability": "view",
      "type": "function"
    },
    {
      "inputs": [],
      "name": "openningTasks",
      "outputs": [
        {
          "internalType": "uint256[]",
          "name": "ids",
          "type": "uint256[]"
        }
      ],
      "stateMutability": "view",
      "type": "function"
    },
    {
      "inputs": [],
      "name": "pendingTasks",
      "outputs": [
        {
          "internalType": "uint256[]",
          "name": "ids",
          "type": "uint256[]"
        }
      ],
      "stateMutability": "view",
      "type": "function"
    },
    {
      "inputs": [
        {
          "internalType": "uint256",
          "name": "id",
          "type": "uint256"
        },
        {
          "internalType": "uint256",
          "name": "batch",
          "type": "uint256"
        }
      ],
      "name": "getRewardList",
      "outputs": [
        {
          "components": [
            {
              "internalType": "address",
              "name": "user",
              "type": "address"
            },
            {
              "internalType": "uint256",
              "name": "amount",
              "type": "uint256"
            },
            {
              "internalType": "uint256",
              "name": "twitterId",
              "type": "uint256"
            }
          ],
          "internalType": "struct Task.RewardInfo[]",
          "name": "rewards",
          "type": "tuple[]"
        }
      ],
      "stateMutability": "view",
      "type": "function"
    }
  ],
  "bytecode": "0x60806040523480156200001157600080fd5b50620000266200002062000030565b62000034565b6001805562000084565b3390565b600080546001600160a01b038381166001600160a01b0319831681178455604051919092169283917f8be0079c531659141344cd1fd0a4f28419497f9722a3daafe3b4186f6b6457e09190a35050565b61262e80620000946000396000f3fe608060405234801561001057600080fd5b50600436106101005760003560e01c80638da5cb5b11610097578063cc167c9e11610066578063cc167c9e146101f2578063db006a7514610205578063e396027114610218578063f2fde38b1461023857610100565b80638da5cb5b146101af578063b6574d19146101c4578063bd097e21146101d7578063c75fb7ca146101df57610100565b80635a95da41116100d35780635a95da411461016b578063715018a6146101735780637625391a1461017b578063773642911461018e57610100565b80630a1a8130146101055780633246be7f1461012357806339118d251461013857806359144baa14610158575b600080fd5b61010d61024b565b60405161011a9190611f77565b60405180910390f35b610136610131366004611e0c565b61025c565b005b61014b610146366004611cbd565b610480565b60405161011a919061246e565b610136610166366004611c87565b6104a1565b61010d610528565b610136610534565b610136610189366004611deb565b61057f565b6101a161019c366004611cbd565b610a5d565b60405161011a9291906123e2565b6101b7610b56565b60405161011a9190611ec4565b6101366101d2366004611deb565b610b65565b6101b7610d0c565b6101366101ed366004611ced565b610d1b565b610136610200366004611deb565b611135565b610136610213366004611cbd565b611318565b61022b610226366004611deb565b611507565b60405161011a9190611f15565b610136610246366004611c87565b61175a565b606061025760036117cb565b905090565b600260015414156102885760405162461bcd60e51b815260040161027f90612387565b60405180910390fd5b6002600155600086815260076020526040902054156102b95760405162461bcd60e51b815260040161027f9061221f565b6040516370a0823160e01b815283906001600160a01b038616906370a08231906102e7903390600401611ec4565b60206040518083038186803b1580156102ff57600080fd5b505afa158015610313573d6000803e3d6000fd5b505050506040513d601f19601f820116820180604052508101906103379190611cd5565b10156103555760405162461bcd60e51b815260040161027f906120ba565b4285116103745760405162461bcd60e51b815260040161027f906122d6565b610380843330866117e1565b6000868152600760208190526040822087815560018082018054336001600160a01b031991821617909155600280840180549092166001600160a01b038b1617909155600380840189905560048401805460ff19169055600584018c905593830187905560089092018590558154908101825592527f405787fa12a823e0f2b7631cc41b3ba8828b3321ca811111fa75cd3aa3bb5ace90910187905561042690876117f5565b50836001600160a01b0316336001600160a01b03167f9f0e91b5a5a94e5bc6c3f170f2871885e67bcba5d4029f7d3b65d9c7522e06a2858860405161046c929190612496565b60405180910390a350506001805550505050565b6002818154811061049057600080fd5b600091825260209091200154905081565b6104a9611808565b6001600160a01b03166104ba610b56565b6001600160a01b0316146104e05760405162461bcd60e51b815260040161027f906122a1565b6001600160a01b0381166105065760405162461bcd60e51b815260040161027f906120e8565b600980546001600160a01b0319166001600160a01b0392909216919091179055565b606061025760056117cb565b61053c611808565b6001600160a01b031661054d610b56565b6001600160a01b0316146105735760405162461bcd60e51b815260040161027f906122a1565b61057d600061180c565b565b600260015414156105a25760405162461bcd60e51b815260040161027f90612387565b600260015560008281526007602052604090206005015482146105d75760405162461bcd60e51b815260040161027f9061224e565b600160008381526007602052604090206004015460ff16600381111561060d57634e487b7160e01b600052602160045260246000fd5b1461062a5760405162461bcd60e51b815260040161027f906122fe565b806101f481111561063a57506101f45b60008381526007602052604081206006015490805b6000868152600860205260409020548310801561066b57508382105b156108e157600086815260086020526040812080548590811061069e57634e487b7160e01b600052603260045260246000fd5b60009182526020909120600390910201546001600160a01b0316141561081257600954600087815260086020526040902080546001600160a01b039092169163b34d335391908690811061070257634e487b7160e01b600052603260045260246000fd5b6000918252602080832060026003909302018201548b845260078252604080852090930154600890925291909220805491926001600160a01b0316918890811061075c57634e487b7160e01b600052603260045260246000fd5b9060005260206000209060030201600101546040518463ffffffff1660e01b815260040161078c93929190612477565b600060405180830381600087803b1580156107a657600080fd5b505af11580156107ba573d6000803e3d6000fd5b50505060008781526008602052604090208054909150849081106107ee57634e487b7160e01b600052603260045260246000fd5b9060005260206000209060030201600101548161080b9190612500565b90506108c1565b600086815260076020908152604080832060020154600890925290912080546108c1926001600160a01b031691908690811061085e57634e487b7160e01b600052603260045260246000fd5b600091825260208083206003909202909101548a83526008909152604090912080546001600160a01b0390921691879081106108aa57634e487b7160e01b600052603260045260246000fd5b90600052602060002090600302016001015461185c565b816108cb81612579565b92505082806108d990612579565b93505061064f565b801561091357600086815260076020526040902060020154600954610913916001600160a01b0390811691168361185c565b600086815260076020526040908190206006018490555186907f9583d1ebe40875c54dbd2e47e758124146366bba1b4a0adf6f4b15a49f896e219061095990859061246e565b60405180910390a26000868152600860205260409020548310610a51576000868152600760205260409020600401805460ff1916600217905561099d600387611868565b506109a9600587611868565b50600086815260076020526040812060098101546003909101546109cd919061254b565b1115610a18576000868152600760205260409020600281015460018201546009830154600390930154610a18936001600160a01b039384169390921691610a139161254b565b61185c565b857e79f62f5302f0da1aa03e7beeab939e6f4ff2e1d686044cba6149385d2a52816002604051610a4891906124a4565b60405180910390a25b50506001805550505050565b610a65611b7c565b60008281526007602090815260408083208151610140810183528154815260018201546001600160a01b039081169482019490945260028201549093169183019190915260038082015460608401526004820154608084019160ff90911690811115610ae157634e487b7160e01b600052602160045260246000fd5b6003811115610b0057634e487b7160e01b600052602160045260246000fd5b815260200160058201548152602001600682015481526020016007820154815260200160088201548152602001600982015481525050915060086000848152602001908152602001600020805490509050915091565b6000546001600160a01b031690565b610b6d611808565b6001600160a01b0316610b7e610b56565b6001600160a01b031614610ba45760405162461bcd60e51b815260040161027f906122a1565b6000828152600760205260409020600501548214610bd45760405162461bcd60e51b815260040161027f9061224e565b60008281526007602052604090206006015415610c035760405162461bcd60e51b815260040161027f90611fbb565b6000828152600760205260409020600401805460ff19166003179055610c2a600583611868565b5060008281526008602052604090205481908110610c5357506000828152600860205260409020545b8015610cc6576000838152600860205260409020805480610c8457634e487b7160e01b600052603160045260246000fd5b60008281526020812060036000199093019283020180546001600160a01b03191681556001810182905560020155905580610cbe81612562565b915050610c53565b600083815260086020526040902054610d075760008381526007602052604081206009810191909155600401805460ff19169055610d056003846117f5565b505b505050565b6009546001600160a01b031681565b60026001541415610d3e5760405162461bcd60e51b815260040161027f90612387565b6002600155610d4b611808565b6001600160a01b0316610d5c610b56565b6001600160a01b031614610d825760405162461bcd60e51b815260040161027f906122a1565b600085815260076020526040902054610dad5760405162461bcd60e51b815260040161027f90612350565b6000858152600760205260409020544211610dda5760405162461bcd60e51b815260040161027f90612161565b60008581526007602052604081206004015460ff166003811115610e0e57634e487b7160e01b600052602160045260246000fd5b14610e2b5760405162461bcd60e51b815260040161027f906121bd565b8251845114610e4c5760405162461bcd60e51b815260040161027f906123be565b8151845114610e6d5760405162461bcd60e51b815260040161027f906123be565b6101f484511115610e905760405162461bcd60e51b815260040161027f90612060565b60008581526007602090815260408083206008908101549252909120548551610eb99190612500565b1115610ed75760405162461bcd60e51b815260040161027f90612116565b60005b845181101561104657600860008781526020019081526020016000206040518060600160405280878481518110610f2157634e487b7160e01b600052603260045260246000fd5b60200260200101516001600160a01b03168152602001868481518110610f5757634e487b7160e01b600052603260045260246000fd5b60200260200101518152602001858481518110610f8457634e487b7160e01b600052603260045260246000fd5b602090810291909101810151909152825460018082018555600094855293829020835160039092020180546001600160a01b0319166001600160a01b03909216919091178155908201519281019290925560400151600290910155835184908290811061100157634e487b7160e01b600052603260045260246000fd5b602002602001015160076000888152602001908152602001600020600901600082825461102e9190612500565b9091555081905061103e81612579565b915050610eda565b5060008581526007602052604090206003810154600990910154111561107e5760405162461bcd60e51b815260040161027f9061218e565b80156110f1576000858152600760205260409020600401805460ff191660011790556110ab600386611868565b506110b76005866117f5565b50847e79f62f5302f0da1aa03e7beeab939e6f4ff2e1d686044cba6149385d2a528160016040516110e891906124a4565b60405180910390a25b847f6244a7d491b75b2dc4fde9b10190c3b2fad5f1c749438868fc55e449350214d48551604051611122919061246e565b60405180910390a2505060018055505050565b600260015414156111585760405162461bcd60e51b815260040161027f90612387565b60026001556000828152600760205260409020546111885760405162461bcd60e51b815260040161027f90612350565b600082815260076020526040908190206002015490516370a0823160e01b815282916001600160a01b0316906370a08231906111c8903390600401611ec4565b60206040518083038186803b1580156111e057600080fd5b505afa1580156111f4573d6000803e3d6000fd5b505050506040513d601f19601f820116820180604052508101906112189190611cd5565b10156112365760405162461bcd60e51b815260040161027f906120ba565b60008281526007602052604081206004015460ff16600381111561126a57634e487b7160e01b600052602160045260246000fd5b146112875760405162461bcd60e51b815260040161027f90612277565b6000828152600760205260409020600201546112ae906001600160a01b03163330846117e1565b600082815260076020526040812060030180548392906112cf908490612500565b9091555050604051339083907fecb17d85773a7badfe83b5e9972f80ca4f1e2ad21096741a115c36c31ef016019061130890859061246e565b60405180910390a3505060018055565b6002600154141561133b5760405162461bcd60e51b815260040161027f90612387565b6002600155611348611808565b6001600160a01b0316611359610b56565b6001600160a01b03161461137f5760405162461bcd60e51b815260040161027f906122a1565b6000818152600760205260409020546113aa5760405162461bcd60e51b815260040161027f90612350565b60008181526007602052604090205442116113d75760405162461bcd60e51b815260040161027f90612161565b60008181526007602052604081206004015460ff16600381111561140b57634e487b7160e01b600052602160045260246000fd5b146114285760405162461bcd60e51b815260040161027f906121bd565b600081815260086020526040902054156114545760405162461bcd60e51b815260040161027f906121ea565b6000818152600760205260409020600401805460ff1916600217905561147b600382611868565b50600081815260076020526040902060030154156114c8576000818152600760205260409020600281015460018201546003909201546114c8926001600160a01b0392831692169061185c565b807e79f62f5302f0da1aa03e7beeab939e6f4ff2e1d686044cba6149385d2a528160026040516114f891906124a4565b60405180910390a25060018055565b6000828152600760209081526040808320600890925282205460609290611531906101f490612594565b1561153d576001611540565b60005b60008681526008602052604090205460ff9190911690611563906101f490612518565b61156d9190612500565b90506000600483015460ff16600381111561159857634e487b7160e01b600052602160045260246000fd5b14806115a45750808410155b156115b0575050611754565b60006115be6101f48661252c565b905060006115cd60018461254b565b86146115f0576101f46115e1876001612500565b6115eb919061252c565b611616565b60008781526008602052604090205461160c906101f490612594565b6116169083612500565b9050611622828261254b565b67ffffffffffffffff81111561164857634e487b7160e01b600052604160045260246000fd5b60405190808252806020026020018201604052801561168157816020015b61166e611bcf565b8152602001906001900390816116665790505b5094506000825b8281101561174d5760008981526008602052604090208054829081106116be57634e487b7160e01b600052603260045260246000fd5b600091825260209182902060408051606081018252600390930290910180546001600160a01b0316835260018101549383019390935260029092015491810191909152875188908490811061172357634e487b7160e01b600052603260045260246000fd5b6020908102919091010152611739600183612500565b91508061174581612579565b915050611688565b5050505050505b92915050565b611762611808565b6001600160a01b0316611773610b56565b6001600160a01b0316146117995760405162461bcd60e51b815260040161027f906122a1565b6001600160a01b0381166117bf5760405162461bcd60e51b815260040161027f9061201a565b6117c88161180c565b50565b606060006117d883611874565b9150505b919050565b836117ee818585856118d0565b5050505050565b60006118018383611928565b9392505050565b3390565b600080546001600160a01b038381166001600160a01b0319831681178455604051919092169283917f8be0079c531659141344cd1fd0a4f28419497f9722a3daafe3b4186f6b6457e09190a35050565b82610d05818484611972565b60006118018383611991565b6060816000018054806020026020016040519081016040528092919081815260200182805480156118c457602002820191906000526020600020905b8154815260200190600101908083116118b0575b50505050509050919050565b610d05846323b872dd60e01b8585856040516024016118f193929190611ed8565b60408051601f198184030181529190526020810180516001600160e01b03166001600160e01b031990931692909217909152611aae565b60006119348383611b64565b61196a57508154600181810184556000848152602080822090930184905584548482528286019093526040902091909155611754565b506000611754565b610d078363a9059cbb60e01b84846040516024016118f1929190611efc565b60008181526001830160205260408120548015611aa45760006119b560018361254b565b85549091506000906119c99060019061254b565b9050818114611a4a5760008660000182815481106119f757634e487b7160e01b600052603260045260246000fd5b9060005260206000200154905080876000018481548110611a2857634e487b7160e01b600052603260045260246000fd5b6000918252602080832090910192909255918252600188019052604090208390555b8554869080611a6957634e487b7160e01b600052603160045260246000fd5b600190038181906000526020600020016000905590558560010160008681526020019081526020016000206000905560019350505050611754565b6000915050611754565b600080836001600160a01b031683604051611ac99190611e8b565b6000604051808303816000865af19150503d8060008114611b06576040519150601f19603f3d011682016040523d82523d6000602084013e611b0b565b606091505b509150915081611b2d5760405162461bcd60e51b815260040161027f9061208e565b805115610d055780806020019051810190611b489190611ca1565b610d055760405162461bcd60e51b815260040161027f90611fe5565b60009081526001919091016020526040902054151590565b604080516101408101825260008082526020820181905291810182905260608101829052906080820190815260200160008152602001600081526020016000815260200160008152602001600081525090565b604051806060016040528060006001600160a01b0316815260200160008152602001600081525090565b80356001600160a01b03811681146117dc57600080fd5b600082601f830112611c20578081fd5b81356020611c35611c30836124dc565b6124b2565b8281528181019085830183850287018401881015611c51578586fd5b855b85811015611c6f57813584529284019290840190600101611c53565b5090979650505050505050565b80356117dc816125ea565b600060208284031215611c98578081fd5b61180182611bf9565b600060208284031215611cb2578081fd5b8151611801816125ea565b600060208284031215611cce578081fd5b5035919050565b600060208284031215611ce6578081fd5b5051919050565b600080600080600060a08688031215611d04578081fd5b8535945060208087013567ffffffffffffffff80821115611d23578384fd5b818901915089601f830112611d36578384fd5b8135611d44611c30826124dc565b81815284810190848601868402860187018e1015611d60578788fd5b8795505b83861015611d8957611d7581611bf9565b835260019590950194918601918601611d64565b50985050506040890135925080831115611da1578384fd5b611dad8a848b01611c10565b95506060890135925080831115611dc2578384fd5b5050611dd088828901611c10565b925050611ddf60808701611c7c565b90509295509295909350565b60008060408385031215611dfd578182fd5b50508035926020909101359150565b60008060008060008060c08789031215611e24578081fd5b8635955060208701359450611e3b60408801611bf9565b9350606087013592506080870135915060a087013590509295509295509295565b6001600160a01b03169052565b60048110611e8757634e487b7160e01b600052602160045260246000fd5b9052565b60008251815b81811015611eab5760208186018101518583015201611e91565b81811115611eb95782828501525b509190910192915050565b6001600160a01b0391909116815260200190565b6001600160a01b039384168152919092166020820152604081019190915260600190565b6001600160a01b03929092168252602082015260400190565b602080825282518282018190526000919060409081850190868401855b82811015611f6a57815180516001600160a01b0316855286810151878601528501518585015260609093019290850190600101611f32565b5091979650505050505050565b6020808252825182820181905260009190848201906040850190845b81811015611faf57835183529284019291840191600101611f93565b50909695505050505050565b60208082526010908201526f18d85b89dd0818994818db19585c995960821b604082015260600190565b6020808252818101527f45524332303a206f7065726174696f6e20646964206e6f742073756363656564604082015260600190565b60208082526026908201527f4f776e61626c653a206e6577206f776e657220697320746865207a65726f206160408201526564647265737360d01b606082015260800190565b60208082526014908201527310985d18da081b1a5b5a5d08195e18d95959195960621b604082015260600190565b602080825260129082015271115490cc8c0e8818d85b1b0819985a5b195960721b604082015260600190565b602080825260149082015273496e73756666696369656e742062616c616e636560601b604082015260600190565b602080825260149082015273696e76616c69642066756e64206164647265737360601b604082015260600190565b6020808252602b908201527f457863656564656420746865206d6178696d756d206e756d626572206f66207060408201526a61727469636970616e747360a81b606082015260800190565b6020808252601390820152720a8c2e6d640d0c2e640dcdee840ccd2dcd2e6d606b1b604082015260600190565b602080825260159082015274125b9d985b1a59081c995dd85c9908185b5bdd5b9d605a1b604082015260600190565b6020808252601390820152725461736b206973206e6f74206f70656e696e6760681b604082015260600190565b6020808252818101527f5461736b2068617320616c7265616479206265656e20636f6d6d69744c697374604082015260600190565b60208082526015908201527415185cdac81a185cc81899595b8818dc99585d1959605a1b604082015260600190565b6020808252600f908201526e125b9d985b1a59081d185cdac81a59608a1b604082015260600190565b60208082526010908201526f57726f6e67207461736b20737461746560801b604082015260600190565b6020808252818101527f4f776e61626c653a2063616c6c6572206973206e6f7420746865206f776e6572604082015260600190565b6020808252600e908201526d57726f6e6720656e642074696d6560901b604082015260600190565b60208082526032908201527f43616e74206469737472696275746520746865207461736b2074686174206e6f6040820152717420696e2070656e64696e6720737461746560701b606082015260800190565b60208082526019908201527f5461736b20686173206e6f74206265656e206372656174656400000000000000604082015260600190565b6020808252601f908201527f5265656e7472616e637947756172643a207265656e7472616e742063616c6c00604082015260600190565b6020808252600a908201526957726f6e67206461746160b01b604082015260600190565b825181526020808401516101608301916123fe90840182611e5c565b5060408401516124116040840182611e5c565b5060608401516060830152608084015161242e6080840182611e69565b5060a0848101519083015260c0808501519083015260e0808501519083015261010080850151908301526101209384015193820193909352610140015290565b90815260200190565b9283526001600160a01b03919091166020830152604082015260600190565b918252602082015260400190565b60ff91909116815260200190565b60405181810167ffffffffffffffff811182821017156124d4576124d46125d4565b604052919050565b600067ffffffffffffffff8211156124f6576124f66125d4565b5060209081020190565b60008219821115612513576125136125a8565b500190565b600082612527576125276125be565b500490565b6000816000190483118215151615612546576125466125a8565b500290565b60008282101561255d5761255d6125a8565b500390565b600081612571576125716125a8565b506000190190565b600060001982141561258d5761258d6125a8565b5060010190565b6000826125a3576125a36125be565b500690565b634e487b7160e01b600052601160045260246000fd5b634e487b7160e01b600052601260045260246000fd5b634e487b7160e01b600052604160045260246000fd5b80151581146117c857600080fdfea2646970667358221220cc7b44d0a3e1232f55badf10a7e0fa5dda8728abec7fe084f3bb77fc9135247364736f6c63430008000033",
  "immutableReferences": {},
  "source": "// SPDX-License-Identifier: MIT\npragma solidity ^0.8.0;\npragma experimental ABIEncoderV2;\nimport \"@openzeppelin/contracts/token/ERC20/ERC20.sol\";\nimport \"@openzeppelin/contracts/access/AccessControlEnumerable.sol\";\nimport \"@openzeppelin/contracts/access/Ownable.sol\";\nimport \"@openzeppelin/contracts/security/ReentrancyGuard.sol\";\nimport \"./ERC20Helper.sol\";\nimport \"@openzeppelin/contracts/utils/structs/EnumerableSet.sol\";\nimport \"./interfaces/IWormholeFund.sol\";\n\n/**\n * Wormhole remote task Database\n * This is a simple task list, project manager can publish a task to remote one of his twitter\n * He need to depost some ERC20 token to this contract\n * Then we write into the reward list after the end time\n */\ncontract Task is Ownable, ReentrancyGuard, ERC20Helper {\n    using EnumerableSet for EnumerableSet.UintSet;\n    // task status:\n    // Openning: when user create a new task;\n    // Pending: when we fill the user list;\n    // Closed: The task finished, token distribute to the users;\n    // Clean: clear the list of rewardList\n    enum TaskState {\n        Openning,\n        Pending,\n        Closed,\n        Clean\n    }\n\n    struct RewardInfo {\n        address user;\n        uint256 amount;\n        uint256 twitterId;\n    }\n\n    uint256 constant BATCH_SIZE = 500;\n\n    struct TaskInfo {\n        uint256 endTime; // after this timestamp, the owner can change the state\n        address owner; // who create this task\n        address token; // the reward token\n        uint256 amount; // reward amount\n        TaskState taskState;\n        uint256 id; // task id\n        uint256 currentIndex; // user tags that are currently distributed\n        uint256 topCount; // Define the number of top\n        uint256 maxCount; // Maximum number of rewards\n        uint256 feedTotal; // amount already filled\n    }\n\n    // all tasks id\n    uint256[] public taskIds;\n    EnumerableSet.UintSet private openningTaskIds;\n    EnumerableSet.UintSet private pendingTaskIds;\n\n    // all tasks list\n    mapping(uint256 => TaskInfo) private taskList;\n    mapping(uint256 => RewardInfo[]) private rewardList; // filled by wormhole\n\n    // Fund contract\n    IWormholeFund public fundContract;\n\n    event NewTask(address indexed owner, address indexed token, uint256 amount, uint256 endTime);\n    event AddReward(uint256 indexed taskId, address indexed contributor, uint256 amount);\n    event Distribute(uint256 indexed id, uint256 count);\n    event AdminFillTaskList(uint256 indexed id, uint256 count);\n    event TaskStateChange(uint256 indexed id, uint8 state);\n\n    constructor() {}\n\n    function setFundContract(address fund) public onlyOwner {\n        require(fund != address(0), \"invalid fund address\");\n        fundContract = IWormholeFund(fund);\n    }\n\n    // create a new task\n    // every one can create a task\n    function newTask(\n        uint256 id,\n        uint256 endTime,\n        address token,\n        uint256 amount,\n        uint256 topCount,\n        uint256 maxCount\n    ) public nonReentrant {\n        require(taskList[id].endTime == 0, \"Task has been created\");\n        require(ERC20(token).balanceOf(msg.sender) >= amount, \"Insufficient balance\");\n        require(endTime > block.timestamp, \"Wrong end time\");\n        lockERC20(token, msg.sender, address(this), amount);\n\n        taskList[id].endTime = endTime;\n        taskList[id].owner = msg.sender;\n        taskList[id].token = token;\n        taskList[id].amount = amount;\n        taskList[id].taskState = TaskState.Openning;\n        taskList[id].id = id;\n        taskList[id].topCount = topCount;\n        taskList[id].maxCount = maxCount;\n\n        taskIds.push(id);\n        openningTaskIds.add(id);\n\n        emit NewTask(msg.sender, token, amount, endTime);\n    }\n\n    function appendReward(uint256 id, uint256 amount) public nonReentrant {\n        require(taskList[id].endTime > 0, \"Task has not been created\");\n        require(ERC20(taskList[id].token).balanceOf(msg.sender) >= amount, \"Insufficient balance\");\n        require(taskList[id].taskState == TaskState.Openning, \"Wrong task state\");\n        lockERC20(taskList[id].token, msg.sender, address(this), amount);\n        taskList[id].amount += amount;\n        emit AddReward(id, msg.sender, amount);\n    }\n\n    function cleanList(uint256 id, uint256 limit) public onlyOwner {\n        require(taskList[id].id == id, \"Invalid task id\");\n        require(taskList[id].currentIndex == 0, \"can't be cleared\");\n        taskList[id].taskState = TaskState.Clean;\n        pendingTaskIds.remove(id);\n        uint256 len = limit;\n        if (len >= rewardList[id].length) {\n            len = rewardList[id].length;\n        }\n        while (len > 0) {\n            rewardList[id].pop();\n            len--;\n        }\n        if (rewardList[id].length == 0) {\n            taskList[id].feedTotal = 0;\n            taskList[id].taskState = TaskState.Openning;\n            openningTaskIds.add(id);\n        }\n    }\n\n    // Admin(wormhole) calculate the rewards list adn write into this contract batch by batch\n    function commitList(\n        uint256 id,\n        address[] memory users,\n        uint256[] memory amounts,\n        uint256[] memory twitters,\n        bool isLast\n    ) public nonReentrant onlyOwner {\n        require(taskList[id].endTime > 0, \"Task has not been created\");\n        require(taskList[id].endTime < block.timestamp, \"Task has not finish\");\n        require(taskList[id].taskState == TaskState.Openning, \"Task is not opening\");\n        require(users.length == amounts.length, \"Wrong data\");\n        require(users.length == twitters.length, \"Wrong data\");\n        require(users.length <= BATCH_SIZE, \"Batch limit exceeded\");\n        require(users.length + rewardList[id].length <= taskList[id].maxCount, \"Exceeded the maximum number of participants\");\n        for (uint256 i = 0; i < users.length; i++) {\n            rewardList[id].push(RewardInfo(users[i], amounts[i], twitters[i]));\n            taskList[id].feedTotal += amounts[i];\n        }\n        require(taskList[id].feedTotal <= taskList[id].amount, \"Invalid reward amount\");\n        if (isLast) {\n            taskList[id].taskState = TaskState.Pending;\n            openningTaskIds.remove(id);\n            pendingTaskIds.add(id);\n            emit TaskStateChange(id, uint8(TaskState.Pending));\n        }\n        emit AdminFillTaskList(id, users.length);\n    }\n\n    function redeem(uint256 id) public nonReentrant onlyOwner {\n        require(taskList[id].endTime > 0, \"Task has not been created\");\n        require(taskList[id].endTime < block.timestamp, \"Task has not finish\");\n        require(taskList[id].taskState == TaskState.Openning, \"Task is not opening\");\n        require(rewardList[id].length == 0, \"Task has already been commitList\");\n        taskList[id].taskState = TaskState.Closed;\n        openningTaskIds.remove(id);\n        if (taskList[id].amount > 0) {\n            releaseERC20(taskList[id].token, taskList[id].owner, taskList[id].amount);\n        }\n        emit TaskStateChange(id, uint8(TaskState.Closed));\n    }\n\n    // The task creator trigger the distribution batch by batch\n    function distribute(uint256 id, uint256 _limit) public nonReentrant {\n        // require(taskList[id].owner == msg.sender, 'You are not the task creator');\n        require(taskList[id].id == id, \"Invalid task id\");\n        require(taskList[id].taskState == TaskState.Pending, \"Cant distribute the task that not in pending state\");\n\n        uint256 limit = _limit;\n        if (limit > BATCH_SIZE) limit = BATCH_SIZE;\n        uint256 index = taskList[id].currentIndex;\n        uint256 distCount = 0;\n        uint256 fundAmount = 0;\n\n        for (; index < rewardList[id].length && distCount < limit; index++) {\n            if (rewardList[id][index].user == address(0)) {\n                fundContract.pushAward(rewardList[id][index].twitterId, taskList[id].token, rewardList[id][index].amount);\n                // releaseERC20(taskList[id].token, address(fundContract), rewardList[id][index].amount);\n                fundAmount += rewardList[id][index].amount;\n            } else {\n                releaseERC20(taskList[id].token, rewardList[id][index].user, rewardList[id][index].amount);\n            }\n            distCount++;\n        }\n        if (fundAmount > 0) {\n            releaseERC20(taskList[id].token, address(fundContract), fundAmount);\n        }\n\n        taskList[id].currentIndex = index;\n        emit Distribute(id, distCount);\n        if (index >= rewardList[id].length) {\n            taskList[id].taskState = TaskState.Closed;\n            openningTaskIds.remove(id);\n            pendingTaskIds.remove(id);\n            if (taskList[id].amount - taskList[id].feedTotal > 0) {\n                releaseERC20(taskList[id].token, taskList[id].owner, taskList[id].amount - taskList[id].feedTotal);\n            }\n            emit TaskStateChange(id, uint8(TaskState.Closed));\n        }\n    }\n\n    // Get task's head info\n    function taskInfo(uint256 id) public view returns (TaskInfo memory task, uint256 userCount) {\n        task = taskList[id];\n        userCount = rewardList[id].length;\n    }\n\n    function openningTasks() public view returns (uint256[] memory ids) {\n        ids = openningTaskIds.values();\n    }\n\n    function pendingTasks() public view returns (uint256[] memory ids) {\n        ids = pendingTaskIds.values();\n    }\n\n    function getRewardList(uint256 id, uint256 batch) public view returns (RewardInfo[] memory rewards) {\n        TaskInfo storage task = taskList[id];\n        uint256 batchSize = rewardList[id].length / BATCH_SIZE + (rewardList[id].length % BATCH_SIZE == 0 ? 0 : 1);\n        if (task.taskState == TaskState.Openning || batch >= batchSize) {\n            return rewards;\n        }\n\n        uint256 startIndex = batch * BATCH_SIZE;\n        uint256 endIndex = batch == batchSize - 1 ? startIndex + (rewardList[id].length % BATCH_SIZE) : (batch + 1) * BATCH_SIZE;\n        rewards = new RewardInfo[](endIndex - startIndex);\n        uint256 j = 0;\n        for (uint256 i = startIndex; i < endIndex; i++) {\n            rewards[j] = rewardList[id][i];\n            j += 1;\n        }\n    }\n}\n",
  "sourcePath": "/Users/necklace/work/nutbox/nutbox-contract/contracts/Task.sol",
  "compiler": {
    "name": "solc",
    "version": "0.8.0+commit.c7dfd78e.Emscripten.clang"
  },
  "schemaVersion": "3.4.6",
  "updatedAt": "2023-01-17T09:18:59.661Z",
  "devdoc": {
    "kind": "dev",
    "methods": {
      "owner()": {
        "details": "Returns the address of the current owner."
      },
      "renounceOwnership()": {
        "details": "Leaves the contract without owner. It will not be possible to call `onlyOwner` functions anymore. Can only be called by the current owner. NOTE: Renouncing ownership will leave the contract without an owner, thereby removing any functionality that is only available to the owner."
      },
      "transferOwnership(address)": {
        "details": "Transfers ownership of the contract to a new account (`newOwner`). Can only be called by the current owner."
      }
    },
    "version": 1
  },
  "userdoc": {
    "kind": "user",
    "methods": {},
    "notice": "Wormhole remote task Database This is a simple task list, project manager can publish a task to remote one of his twitter He need to depost some ERC20 token to this contract Then we write into the reward list after the end time",
    "version": 1
  }
}