{
  "contractName": "TaskWormholeFund",
  "abi": [
    {
      "anonymous": false,
      "inputs": [
        {
          "indexed": true,
          "internalType": "address",
          "name": "previousOwner",
          "type": "address"
        },
        {
          "indexed": true,
          "internalType": "address",
          "name": "newOwner",
          "type": "address"
        }
      ],
      "name": "OwnershipTransferred",
      "type": "event"
    },
    {
      "inputs": [],
      "name": "maxClaimTokens",
      "outputs": [
        {
          "internalType": "uint256",
          "name": "",
          "type": "uint256"
        }
      ],
      "stateMutability": "view",
      "type": "function"
    },
    {
      "inputs": [],
      "name": "maxClaimUsers",
      "outputs": [
        {
          "internalType": "uint256",
          "name": "",
          "type": "uint256"
        }
      ],
      "stateMutability": "view",
      "type": "function"
    },
    {
      "inputs": [],
      "name": "owner",
      "outputs": [
        {
          "internalType": "address",
          "name": "",
          "type": "address"
        }
      ],
      "stateMutability": "view",
      "type": "function"
    },
    {
      "inputs": [],
      "name": "renounceOwnership",
      "outputs": [],
      "stateMutability": "nonpayable",
      "type": "function"
    },
    {
      "inputs": [],
      "name": "taskContract",
      "outputs": [
        {
          "internalType": "address",
          "name": "",
          "type": "address"
        }
      ],
      "stateMutability": "view",
      "type": "function"
    },
    {
      "inputs": [
        {
          "internalType": "address",
          "name": "newOwner",
          "type": "address"
        }
      ],
      "name": "transferOwnership",
      "outputs": [],
      "stateMutability": "nonpayable",
      "type": "function"
    },
    {
      "inputs": [
        {
          "internalType": "uint256",
          "name": "",
          "type": "uint256"
        }
      ],
      "name": "userAddress",
      "outputs": [
        {
          "internalType": "address",
          "name": "",
          "type": "address"
        }
      ],
      "stateMutability": "view",
      "type": "function"
    },
    {
      "inputs": [
        {
          "internalType": "address",
          "name": "task",
          "type": "address"
        }
      ],
      "name": "setTaskContract",
      "outputs": [],
      "stateMutability": "nonpayable",
      "type": "function"
    },
    {
      "inputs": [
        {
          "internalType": "uint256[]",
          "name": "twitterIds",
          "type": "uint256[]"
        },
        {
          "internalType": "address[]",
          "name": "addrs",
          "type": "address[]"
        }
      ],
      "name": "setUserAddress",
      "outputs": [],
      "stateMutability": "nonpayable",
      "type": "function"
    },
    {
      "inputs": [
        {
          "internalType": "uint256",
          "name": "twitterId",
          "type": "uint256"
        },
        {
          "internalType": "address",
          "name": "token",
          "type": "address"
        },
        {
          "internalType": "uint256",
          "name": "amount",
          "type": "uint256"
        }
      ],
      "name": "pushAward",
      "outputs": [],
      "stateMutability": "nonpayable",
      "type": "function"
    },
    {
      "inputs": [
        {
          "internalType": "uint256",
          "name": "twitterId",
          "type": "uint256"
        }
      ],
      "name": "claim",
      "outputs": [],
      "stateMutability": "nonpayable",
      "type": "function"
    },
    {
      "inputs": [
        {
          "internalType": "uint256",
          "name": "twitterId",
          "type": "uint256"
        },
        {
          "internalType": "address",
          "name": "addr",
          "type": "address"
        }
      ],
      "name": "claim",
      "outputs": [],
      "stateMutability": "nonpayable",
      "type": "function"
    },
    {
      "inputs": [
        {
          "internalType": "uint256[]",
          "name": "twitterIds",
          "type": "uint256[]"
        }
      ],
      "name": "claimBatch",
      "outputs": [],
      "stateMutability": "nonpayable",
      "type": "function"
    },
    {
      "inputs": [
        {
          "internalType": "uint256",
          "name": "twitterId",
          "type": "uint256"
        }
      ],
      "name": "getUserTokens",
      "outputs": [
        {
          "internalType": "address[]",
          "name": "tokens",
          "type": "address[]"
        },
        {
          "internalType": "uint256[]",
          "name": "amounts",
          "type": "uint256[]"
        }
      ],
      "stateMutability": "view",
      "type": "function"
    }
  ],
  "bytecode": "0x60806040526064600155603260025534801561001a57600080fd5b5061002b610026610030565b610034565b610084565b3390565b600080546001600160a01b038381166001600160a01b0319831681178455604051919092169283917f8be0079c531659141344cd1fd0a4f28419497f9722a3daafe3b4186f6b6457e09190a35050565b61145d806100936000396000f3fe608060405234801561001057600080fd5b50600436106100ea5760003560e01c80638da5cb5b1161008c578063b34d335311610066578063b34d33531461019b578063d17bd40b146101ae578063ddd5e1b2146101cf578063f2fde38b146101e2576100ea565b80638da5cb5b146101785780639674a0ac14610180578063a45661ec14610193576100ea565b806362abebce116100c857806362abebce14610135578063715018a61461014857806378c138f3146101505780638c57c52114610165576100ea565b8063125aeec9146100ef578063379607f5146101045780633b70aebc14610117575b600080fd5b6101026100fd366004610ea5565b6101f5565b005b610102610112366004610f83565b6103aa565b61011f61058e565b60405161012c9190611033565b60405180910390f35b610102610143366004610e36565b61059d565b6101026105fa565b610158610645565b60405161012c919061135a565b610102610173366004610e1c565b61064b565b61011f6106d2565b61011f61018e366004610f83565b6106e1565b6101586106fc565b6101026101a9366004610fc6565b610702565b6101c16101bc366004610f83565b6107a4565b60405161012c929190611060565b6101026101dd366004610f9b565b6108c3565b6101026101f0366004610e1c565b610991565b6101fd610a02565b6001600160a01b031661020e6106d2565b6001600160a01b03161461023d5760405162461bcd60e51b8152600401610234906112a4565b60405180910390fd5b805182511461025e5760405162461bcd60e51b815260040161023490611336565b60005b82518110156103a55782818151811061028a57634e487b7160e01b600052603260045260246000fd5b6020026020010151600014156102b25760405162461bcd60e51b81526004016102349061120a565b60006001600160a01b03168282815181106102dd57634e487b7160e01b600052603260045260246000fd5b60200260200101516001600160a01b0316141561030c5760405162461bcd60e51b81526004016102349061113b565b81818151811061032c57634e487b7160e01b600052603260045260246000fd5b60200260200101516005600085848151811061035857634e487b7160e01b600052603260045260246000fd5b6020026020010151815260200190815260200160002060006101000a8154816001600160a01b0302191690836001600160a01b03160217905550808061039d906113e0565b915050610261565b505050565b6000818152600560205260409020546001600160a01b03166103de5760405162461bcd60e51b8152600401610234906112d9565b60008181526006602052604081206103f590610a06565b80516001549192509081111561040a57506001545b60005b818110156105885760006004600085848151811061043b57634e487b7160e01b600052603260045260246000fd5b60200260200101516001600160a01b03166001600160a01b03168152602001908152602001600020600086815260200190815260200160002054905060006004600086858151811061049d57634e487b7160e01b600052603260045260246000fd5b60200260200101516001600160a01b03166001600160a01b031681526020019081526020016000206000878152602001908152602001600020819055506105268483815181106104fd57634e487b7160e01b600052603260045260246000fd5b602002602001015160066000888152602001908152602001600020610a1c90919063ffffffff16565b5061057584838151811061054a57634e487b7160e01b600052603260045260246000fd5b602090810291909101810151600088815260059092526040909120546001600160a01b031683610a3a565b5080610580816113e0565b91505061040d565b50505050565b6003546001600160a01b031681565b60025481908111156105ae57506002545b60005b81811015610588576105e88484838181106105dc57634e487b7160e01b600052603260045260246000fd5b905060200201356103aa565b806105f2816113e0565b9150506105b1565b610602610a02565b6001600160a01b03166106136106d2565b6001600160a01b0316146106395760405162461bcd60e51b8152600401610234906112a4565b6106436000610a46565b565b60015481565b610653610a02565b6001600160a01b03166106646106d2565b6001600160a01b03161461068a5760405162461bcd60e51b8152600401610234906112a4565b6001600160a01b0381166106b05760405162461bcd60e51b815260040161023490611308565b600380546001600160a01b0319166001600160a01b0392909216919091179055565b6000546001600160a01b031690565b6005602052600090815260409020546001600160a01b031681565b60025481565b6003546001600160a01b031661072a5760405162461bcd60e51b8152600401610234906111af565b6003546001600160a01b031633146107545760405162461bcd60e51b815260040161023490611236565b6001600160a01b0382166000908152600460209081526040808320868452909152812080548392906107879084906113b1565b909155505060008381526006602052604090206105889083610a96565b600081815260066020526040902060609081906107c090610a06565b9150815167ffffffffffffffff8111156107ea57634e487b7160e01b600052604160045260246000fd5b604051908082528060200260200182016040528015610813578160200160208202803683370190505b50905060005b82518110156108bd576004600084838151811061084657634e487b7160e01b600052603260045260246000fd5b60200260200101516001600160a01b03166001600160a01b031681526020019081526020016000206000858152602001908152602001600020548282815181106108a057634e487b7160e01b600052603260045260246000fd5b6020908102919091010152806108b5816113e0565b915050610819565b50915091565b6108cb610a02565b6001600160a01b03166108dc6106d2565b6001600160a01b0316146109025760405162461bcd60e51b8152600401610234906112a4565b6001600160a01b0381166109285760405162461bcd60e51b8152600401610234906110d6565b6000828152600560205260409020546001600160a01b03161561095d5760405162461bcd60e51b81526004016102349061126d565b600082815260056020526040902080546001600160a01b0319166001600160a01b03831617905561098d826103aa565b5050565b610999610a02565b6001600160a01b03166109aa6106d2565b6001600160a01b0316146109d05760405162461bcd60e51b8152600401610234906112a4565b6001600160a01b0381166109f65760405162461bcd60e51b815260040161023490611169565b6109ff81610a46565b50565b3390565b60606000610a1383610aab565b9150505b919050565b6000610a31836001600160a01b038416610b07565b90505b92915050565b82610588818484610c24565b600080546001600160a01b038381166001600160a01b0319831681178455604051919092169283917f8be0079c531659141344cd1fd0a4f28419497f9722a3daafe3b4186f6b6457e09190a35050565b6000610a31836001600160a01b038416610c7a565b606081600001805480602002602001604051908101604052809291908181526020018280548015610afb57602002820191906000526020600020905b815481526020019060010190808311610ae7575b50505050509050919050565b60008181526001830160205260408120548015610c1a576000610b2b6001836113c9565b8554909150600090610b3f906001906113c9565b9050818114610bc0576000866000018281548110610b6d57634e487b7160e01b600052603260045260246000fd5b9060005260206000200154905080876000018481548110610b9e57634e487b7160e01b600052603260045260246000fd5b6000918252602080832090910192909255918252600188019052604090208390555b8554869080610bdf57634e487b7160e01b600052603160045260246000fd5b600190038181906000526020600020016000905590558560010160008681526020019081526020016000206000905560019350505050610a34565b6000915050610a34565b6103a58363a9059cbb60e01b8484604051602401610c43929190611047565b60408051601f198184030181529190526020810180516001600160e01b03166001600160e01b031990931692909217909152610cc4565b6000610c868383610d7a565b610cbc57508154600181810184556000848152602080822090930184905584548482528286019093526040902091909155610a34565b506000610a34565b600080836001600160a01b031683604051610cdf9190610ffa565b6000604051808303816000865af19150503d8060008114610d1c576040519150601f19603f3d011682016040523d82523d6000602084013e610d21565b606091505b509150915081610d435760405162461bcd60e51b8152600401610234906111de565b8051156105885780806020019051810190610d5e9190610f5c565b6105885760405162461bcd60e51b815260040161023490611106565b60009081526001919091016020526040902054151590565b80356001600160a01b0381168114610a1757600080fd5b600082601f830112610db9578081fd5b81356020610dce610dc98361138d565b611363565b8281528181019085830183850287018401881015610dea578586fd5b855b85811015610e0f57610dfd82610d92565b84529284019290840190600101610dec565b5090979650505050505050565b600060208284031215610e2d578081fd5b610a3182610d92565b60008060208385031215610e48578081fd5b823567ffffffffffffffff80821115610e5f578283fd5b818501915085601f830112610e72578283fd5b813581811115610e80578384fd5b8660208083028501011115610e93578384fd5b60209290920196919550909350505050565b60008060408385031215610eb7578182fd5b823567ffffffffffffffff80821115610ece578384fd5b818501915085601f830112610ee1578384fd5b81356020610ef1610dc98361138d565b82815281810190858301838502870184018b1015610f0d578889fd5b8896505b84871015610f2f578035835260019690960195918301918301610f11565b5096505086013592505080821115610f45578283fd5b50610f5285828601610da9565b9150509250929050565b600060208284031215610f6d578081fd5b81518015158114610f7c578182fd5b9392505050565b600060208284031215610f94578081fd5b5035919050565b60008060408385031215610fad578182fd5b82359150610fbd60208401610d92565b90509250929050565b600080600060608486031215610fda578081fd5b83359250610fea60208501610d92565b9150604084013590509250925092565b60008251815b8181101561101a5760208186018101518583015201611000565b818111156110285782828501525b509190910192915050565b6001600160a01b0391909116815260200190565b6001600160a01b03929092168252602082015260400190565b604080825283519082018190526000906020906060840190828701845b828110156110a25781516001600160a01b03168452928401929084019060010161107d565b50505083810382850152845180825285830191830190845b81811015610e0f578351835292840192918401916001016110ba565b6020808252601690820152750416464726573732063616e6e6f7420626520307830360541b604082015260600190565b6020808252818101527f45524332303a206f7065726174696f6e20646964206e6f742073756363656564604082015260600190565b602080825260149082015273496e76616c69642075736572206164647265737360601b604082015260600190565b60208082526026908201527f4f776e61626c653a206e6577206f776e657220697320746865207a65726f206160408201526564647265737360d01b606082015260800190565b60208082526015908201527415185cdac818dbdb9d1c9858dd081b9bdd081cd95d605a1b604082015260600190565b602080825260129082015271115490cc8c0e8818d85b1b0819985a5b195960721b604082015260600190565b602080825260129082015271125b9d985b1a59081d1dda5d1d195c881a5960721b604082015260600190565b6020808252601a908201527f556e617574686f72697a6564207461736b20636f6e7472616374000000000000604082015260600190565b6020808252601d908201527f55736572206164647265737320697320616c726561647920626f756e64000000604082015260600190565b6020808252818101527f4f776e61626c653a2063616c6c6572206973206e6f7420746865206f776e6572604082015260600190565b6020808252601590820152741059191c995cdcc81b9bdd081e595d08189bdd5b99605a1b604082015260600190565b602080825260149082015273496e76616c6964207461736b206164647265737360601b604082015260600190565b6020808252600a908201526957726f6e67206461746160b01b604082015260600190565b90815260200190565b60405181810167ffffffffffffffff8111828210171561138557611385611411565b604052919050565b600067ffffffffffffffff8211156113a7576113a7611411565b5060209081020190565b600082198211156113c4576113c46113fb565b500190565b6000828210156113db576113db6113fb565b500390565b60006000198214156113f4576113f46113fb565b5060010190565b634e487b7160e01b600052601160045260246000fd5b634e487b7160e01b600052604160045260246000fdfea26469706673582212200e9ba1ff4dc35a3ea0d5d438ae849e2809223861f440714f0890709ad2e72b1764736f6c63430008000033",
  "immutableReferences": {},
  "source": "// SPDX-License-Identifier: MIT\npragma solidity ^0.8.0;\npragma experimental ABIEncoderV2;\n\nimport \"@openzeppelin/contracts/access/Ownable.sol\";\nimport \"@openzeppelin/contracts/utils/structs/EnumerableSet.sol\";\nimport \"./ERC20Helper.sol\";\nimport \"./interfaces/IWormholeFund.sol\";\n\ncontract TaskWormholeFund is Ownable, ERC20Helper, IWormholeFund {\n    using EnumerableSet for EnumerableSet.AddressSet;\n\n    /// The maximum number of token types that can be claimed at one time.\n    uint256 public maxClaimTokens = 100;\n\n    /// The upper limit of the number of users that can be called in a single call when claiming user tokens in batches\n    uint256 public maxClaimUsers = 50;\n\n    /// Curation Task Contract\n    address public taskContract;\n\n    // token => twitterId => amount\n    mapping(address => mapping(uint256 => uint256)) private accountDetails;\n\n    /// twitterId => address\n    mapping(uint256 => address) public userAddress;\n\n    // twitterId => tokens\n    mapping(uint256 => EnumerableSet.AddressSet) private userTokens;\n\n    /**\n    @dev set task contract\n    @param task task contract address\n    */\n    function setTaskContract(address task) public onlyOwner {\n        require(task != address(0), \"Invalid task address\");\n        taskContract = task;\n    }\n\n    /**\n    @dev Set user addresses in batches\n    @param twitterIds twitter ids\n    @param addrs user's address\n    */\n    function setUserAddress(uint256[] memory twitterIds, address[] memory addrs) public onlyOwner {\n        require(twitterIds.length == addrs.length, \"Wrong data\");\n        for (uint256 i = 0; i < twitterIds.length; i++) {\n            require(twitterIds[i] != 0, \"Invalid twitter id\");\n            require(addrs[i] != address(0), \"Invalid user address\");\n            userAddress[twitterIds[i]] = addrs[i];\n        }\n    }\n\n    /**\n    @dev Add an unclaimed reward, this method can only be called by the Task contract.\n    When calling, the corresponding Token must be transferred.\n    @param twitterId user twitter id\n    @param token reward token address\n    @param amount reward amount\n    */\n    function pushAward(\n        uint256 twitterId,\n        address token,\n        uint256 amount\n    ) public override {\n        require(taskContract != address(0), \"Task contract not set\");\n        require(msg.sender == taskContract, \"Unauthorized task contract\");\n        accountDetails[token][twitterId] += amount;\n        userTokens[twitterId].add(token);\n    }\n\n    /**\n    @dev To claim a single user's token, if the number of token types is greater than maxClaimTokens, multiple claims are required.\n    @param twitterId twitter id\n    */\n    function claim(uint256 twitterId) public {\n        require(userAddress[twitterId] != address(0), \"Address not yet bound\");\n        address[] memory tokens = userTokens[twitterId].values();\n        uint256 len = tokens.length;\n        if (len > maxClaimTokens) {\n            len = maxClaimTokens;\n        }\n        for (uint256 i = 0; i < len; i++) {\n            uint256 amount = accountDetails[tokens[i]][twitterId];\n            accountDetails[tokens[i]][twitterId] = 0;\n            userTokens[twitterId].remove(tokens[i]);\n            releaseERC20(tokens[i], userAddress[twitterId], amount);\n        }\n    }\n\n    /**\n    @dev To claim a single user's token, if the number of token types is greater than maxClaimTokens, multiple claims are required.\n    @param twitterId twitter id\n    @param addr user eth address\n    */\n    function claim(uint256 twitterId, address addr) public onlyOwner {\n        require(addr != address(0), \"Address cannot be 0x00\");\n        require(userAddress[twitterId] == address(0), \"User address is already bound\");\n        userAddress[twitterId] = addr;\n        claim(twitterId);\n    }\n\n    /**\n    @dev Claim user tokens in batches\n    @param twitterIds twitter ids\n    */\n    function claimBatch(uint256[] calldata twitterIds) public {\n        uint256 len = twitterIds.length;\n        if (len > maxClaimUsers) {\n            len = maxClaimUsers;\n        }\n        for (uint256 i = 0; i < len; i++) {\n            claim(twitterIds[i]);\n        }\n    }\n\n    /**\n    @dev Get the token list of the specified user\n    @param twitterId twitter id\n    */\n    function getUserTokens(uint256 twitterId) public view returns (address[] memory tokens, uint256[] memory amounts) {\n        tokens = userTokens[twitterId].values();\n        amounts = new uint256[](tokens.length);\n        for (uint256 i = 0; i < tokens.length; i++) {\n            amounts[i] = accountDetails[tokens[i]][twitterId];\n        }\n    }\n}\n",
  "sourcePath": "/Users/necklace/work/nutbox/nutbox-contract/contracts/TaskWormholeFund.sol",
  "compiler": {
    "name": "solc",
    "version": "0.8.0+commit.c7dfd78e.Emscripten.clang"
  },
  "schemaVersion": "3.4.6",
  "updatedAt": "2023-01-06T09:33:11.519Z",
  "devdoc": {
    "kind": "dev",
    "methods": {
      "claim(uint256)": {
        "details": "To claim a single user's token, if the number of token types is greater than maxClaimTokens, multiple claims are required.",
        "params": {
          "twitterId": "twitter id"
        }
      },
      "claim(uint256,address)": {
        "details": "To claim a single user's token, if the number of token types is greater than maxClaimTokens, multiple claims are required.",
        "params": {
          "addr": "user eth address",
          "twitterId": "twitter id"
        }
      },
      "claimBatch(uint256[])": {
        "details": "Claim user tokens in batches",
        "params": {
          "twitterIds": "twitter ids"
        }
      },
      "getUserTokens(uint256)": {
        "details": "Get the token list of the specified user",
        "params": {
          "twitterId": "twitter id"
        }
      },
      "owner()": {
        "details": "Returns the address of the current owner."
      },
      "pushAward(uint256,address,uint256)": {
        "details": "Add an unclaimed reward, this method can only be called by the Task contract. When calling, the corresponding Token must be transferred.",
        "params": {
          "amount": "reward amount",
          "token": "reward token address",
          "twitterId": "user twitter id"
        }
      },
      "renounceOwnership()": {
        "details": "Leaves the contract without owner. It will not be possible to call `onlyOwner` functions anymore. Can only be called by the current owner. NOTE: Renouncing ownership will leave the contract without an owner, thereby removing any functionality that is only available to the owner."
      },
      "setTaskContract(address)": {
        "details": "set task contract",
        "params": {
          "task": "task contract address"
        }
      },
      "setUserAddress(uint256[],address[])": {
        "details": "Set user addresses in batches",
        "params": {
          "addrs": "user's address",
          "twitterIds": "twitter ids"
        }
      },
      "transferOwnership(address)": {
        "details": "Transfers ownership of the contract to a new account (`newOwner`). Can only be called by the current owner."
      }
    },
    "version": 1
  },
  "userdoc": {
    "kind": "user",
    "methods": {
      "maxClaimTokens()": {
        "notice": "The maximum number of token types that can be claimed at one time."
      },
      "maxClaimUsers()": {
        "notice": "The upper limit of the number of users that can be called in a single call when claiming user tokens in batches"
      },
      "taskContract()": {
        "notice": "Curation Task Contract"
      },
      "userAddress(uint256)": {
        "notice": "twitterId => address"
      }
    },
    "version": 1
  }
}