{
  "contractName": "Tradable721",
  "abi": [
    {
      "inputs": [
        {
          "internalType": "string",
          "name": "name",
          "type": "string"
        },
        {
          "internalType": "string",
          "name": "symbol",
          "type": "string"
        }
      ],
      "stateMutability": "nonpayable",
      "type": "constructor"
    },
    {
      "anonymous": false,
      "inputs": [
        {
          "indexed": true,
          "internalType": "address",
          "name": "owner",
          "type": "address"
        },
        {
          "indexed": true,
          "internalType": "address",
          "name": "approved",
          "type": "address"
        },
        {
          "indexed": true,
          "internalType": "uint256",
          "name": "tokenId",
          "type": "uint256"
        }
      ],
      "name": "Approval",
      "type": "event"
    },
    {
      "anonymous": false,
      "inputs": [
        {
          "indexed": true,
          "internalType": "address",
          "name": "owner",
          "type": "address"
        },
        {
          "indexed": true,
          "internalType": "address",
          "name": "operator",
          "type": "address"
        },
        {
          "indexed": false,
          "internalType": "bool",
          "name": "approved",
          "type": "bool"
        }
      ],
      "name": "ApprovalForAll",
      "type": "event"
    },
    {
      "anonymous": false,
      "inputs": [
        {
          "indexed": false,
          "internalType": "address",
          "name": "account",
          "type": "address"
        }
      ],
      "name": "Paused",
      "type": "event"
    },
    {
      "anonymous": false,
      "inputs": [
        {
          "indexed": true,
          "internalType": "bytes32",
          "name": "role",
          "type": "bytes32"
        },
        {
          "indexed": true,
          "internalType": "bytes32",
          "name": "previousAdminRole",
          "type": "bytes32"
        },
        {
          "indexed": true,
          "internalType": "bytes32",
          "name": "newAdminRole",
          "type": "bytes32"
        }
      ],
      "name": "RoleAdminChanged",
      "type": "event"
    },
    {
      "anonymous": false,
      "inputs": [
        {
          "indexed": true,
          "internalType": "bytes32",
          "name": "role",
          "type": "bytes32"
        },
        {
          "indexed": true,
          "internalType": "address",
          "name": "account",
          "type": "address"
        },
        {
          "indexed": true,
          "internalType": "address",
          "name": "sender",
          "type": "address"
        }
      ],
      "name": "RoleGranted",
      "type": "event"
    },
    {
      "anonymous": false,
      "inputs": [
        {
          "indexed": true,
          "internalType": "bytes32",
          "name": "role",
          "type": "bytes32"
        },
        {
          "indexed": true,
          "internalType": "address",
          "name": "account",
          "type": "address"
        },
        {
          "indexed": true,
          "internalType": "address",
          "name": "sender",
          "type": "address"
        }
      ],
      "name": "RoleRevoked",
      "type": "event"
    },
    {
      "anonymous": false,
      "inputs": [
        {
          "indexed": true,
          "internalType": "address",
          "name": "from",
          "type": "address"
        },
        {
          "indexed": true,
          "internalType": "address",
          "name": "to",
          "type": "address"
        },
        {
          "indexed": true,
          "internalType": "uint256",
          "name": "tokenId",
          "type": "uint256"
        }
      ],
      "name": "Transfer",
      "type": "event"
    },
    {
      "anonymous": false,
      "inputs": [
        {
          "indexed": false,
          "internalType": "address",
          "name": "account",
          "type": "address"
        }
      ],
      "name": "Unpaused",
      "type": "event"
    },
    {
      "inputs": [],
      "name": "BURN_ROLE",
      "outputs": [
        {
          "internalType": "bytes32",
          "name": "",
          "type": "bytes32"
        }
      ],
      "stateMutability": "view",
      "type": "function"
    },
    {
      "inputs": [],
      "name": "DEFAULT_ADMIN_ROLE",
      "outputs": [
        {
          "internalType": "bytes32",
          "name": "",
          "type": "bytes32"
        }
      ],
      "stateMutability": "view",
      "type": "function"
    },
    {
      "inputs": [],
      "name": "MINTER_ROLE",
      "outputs": [
        {
          "internalType": "bytes32",
          "name": "",
          "type": "bytes32"
        }
      ],
      "stateMutability": "view",
      "type": "function"
    },
    {
      "inputs": [],
      "name": "PAUSER_ROLE",
      "outputs": [
        {
          "internalType": "bytes32",
          "name": "",
          "type": "bytes32"
        }
      ],
      "stateMutability": "view",
      "type": "function"
    },
    {
      "inputs": [],
      "name": "URLSETTER_ROLE",
      "outputs": [
        {
          "internalType": "bytes32",
          "name": "",
          "type": "bytes32"
        }
      ],
      "stateMutability": "view",
      "type": "function"
    },
    {
      "inputs": [
        {
          "internalType": "address",
          "name": "to",
          "type": "address"
        },
        {
          "internalType": "uint256",
          "name": "tokenId",
          "type": "uint256"
        }
      ],
      "name": "approve",
      "outputs": [],
      "stateMutability": "nonpayable",
      "type": "function"
    },
    {
      "inputs": [
        {
          "internalType": "address",
          "name": "owner",
          "type": "address"
        }
      ],
      "name": "balanceOf",
      "outputs": [
        {
          "internalType": "uint256",
          "name": "",
          "type": "uint256"
        }
      ],
      "stateMutability": "view",
      "type": "function"
    },
    {
      "inputs": [
        {
          "internalType": "uint256",
          "name": "tokenId",
          "type": "uint256"
        }
      ],
      "name": "burn",
      "outputs": [],
      "stateMutability": "nonpayable",
      "type": "function"
    },
    {
      "inputs": [
        {
          "internalType": "uint256",
          "name": "",
          "type": "uint256"
        }
      ],
      "name": "cids",
      "outputs": [
        {
          "internalType": "string",
          "name": "",
          "type": "string"
        }
      ],
      "stateMutability": "view",
      "type": "function"
    },
    {
      "inputs": [
        {
          "internalType": "uint256",
          "name": "tokenId",
          "type": "uint256"
        }
      ],
      "name": "getApproved",
      "outputs": [
        {
          "internalType": "address",
          "name": "",
          "type": "address"
        }
      ],
      "stateMutability": "view",
      "type": "function"
    },
    {
      "inputs": [
        {
          "internalType": "bytes32",
          "name": "role",
          "type": "bytes32"
        }
      ],
      "name": "getRoleAdmin",
      "outputs": [
        {
          "internalType": "bytes32",
          "name": "",
          "type": "bytes32"
        }
      ],
      "stateMutability": "view",
      "type": "function"
    },
    {
      "inputs": [
        {
          "internalType": "bytes32",
          "name": "role",
          "type": "bytes32"
        },
        {
          "internalType": "uint256",
          "name": "index",
          "type": "uint256"
        }
      ],
      "name": "getRoleMember",
      "outputs": [
        {
          "internalType": "address",
          "name": "",
          "type": "address"
        }
      ],
      "stateMutability": "view",
      "type": "function"
    },
    {
      "inputs": [
        {
          "internalType": "bytes32",
          "name": "role",
          "type": "bytes32"
        }
      ],
      "name": "getRoleMemberCount",
      "outputs": [
        {
          "internalType": "uint256",
          "name": "",
          "type": "uint256"
        }
      ],
      "stateMutability": "view",
      "type": "function"
    },
    {
      "inputs": [
        {
          "internalType": "bytes32",
          "name": "role",
          "type": "bytes32"
        },
        {
          "internalType": "address",
          "name": "account",
          "type": "address"
        }
      ],
      "name": "grantRole",
      "outputs": [],
      "stateMutability": "nonpayable",
      "type": "function"
    },
    {
      "inputs": [
        {
          "internalType": "bytes32",
          "name": "role",
          "type": "bytes32"
        },
        {
          "internalType": "address",
          "name": "account",
          "type": "address"
        }
      ],
      "name": "hasRole",
      "outputs": [
        {
          "internalType": "bool",
          "name": "",
          "type": "bool"
        }
      ],
      "stateMutability": "view",
      "type": "function"
    },
    {
      "inputs": [
        {
          "internalType": "address",
          "name": "owner",
          "type": "address"
        },
        {
          "internalType": "address",
          "name": "operator",
          "type": "address"
        }
      ],
      "name": "isApprovedForAll",
      "outputs": [
        {
          "internalType": "bool",
          "name": "",
          "type": "bool"
        }
      ],
      "stateMutability": "view",
      "type": "function"
    },
    {
      "inputs": [],
      "name": "name",
      "outputs": [
        {
          "internalType": "string",
          "name": "",
          "type": "string"
        }
      ],
      "stateMutability": "view",
      "type": "function"
    },
    {
      "inputs": [
        {
          "internalType": "uint256",
          "name": "tokenId",
          "type": "uint256"
        }
      ],
      "name": "ownerOf",
      "outputs": [
        {
          "internalType": "address",
          "name": "",
          "type": "address"
        }
      ],
      "stateMutability": "view",
      "type": "function"
    },
    {
      "inputs": [],
      "name": "pause",
      "outputs": [],
      "stateMutability": "nonpayable",
      "type": "function"
    },
    {
      "inputs": [],
      "name": "paused",
      "outputs": [
        {
          "internalType": "bool",
          "name": "",
          "type": "bool"
        }
      ],
      "stateMutability": "view",
      "type": "function"
    },
    {
      "inputs": [
        {
          "internalType": "bytes32",
          "name": "role",
          "type": "bytes32"
        },
        {
          "internalType": "address",
          "name": "account",
          "type": "address"
        }
      ],
      "name": "renounceRole",
      "outputs": [],
      "stateMutability": "nonpayable",
      "type": "function"
    },
    {
      "inputs": [
        {
          "internalType": "bytes32",
          "name": "role",
          "type": "bytes32"
        },
        {
          "internalType": "address",
          "name": "account",
          "type": "address"
        }
      ],
      "name": "revokeRole",
      "outputs": [],
      "stateMutability": "nonpayable",
      "type": "function"
    },
    {
      "inputs": [
        {
          "internalType": "address",
          "name": "from",
          "type": "address"
        },
        {
          "internalType": "address",
          "name": "to",
          "type": "address"
        },
        {
          "internalType": "uint256",
          "name": "tokenId",
          "type": "uint256"
        }
      ],
      "name": "safeTransferFrom",
      "outputs": [],
      "stateMutability": "nonpayable",
      "type": "function"
    },
    {
      "inputs": [
        {
          "internalType": "address",
          "name": "from",
          "type": "address"
        },
        {
          "internalType": "address",
          "name": "to",
          "type": "address"
        },
        {
          "internalType": "uint256",
          "name": "tokenId",
          "type": "uint256"
        },
        {
          "internalType": "bytes",
          "name": "_data",
          "type": "bytes"
        }
      ],
      "name": "safeTransferFrom",
      "outputs": [],
      "stateMutability": "nonpayable",
      "type": "function"
    },
    {
      "inputs": [
        {
          "internalType": "address",
          "name": "operator",
          "type": "address"
        },
        {
          "internalType": "bool",
          "name": "approved",
          "type": "bool"
        }
      ],
      "name": "setApprovalForAll",
      "outputs": [],
      "stateMutability": "nonpayable",
      "type": "function"
    },
    {
      "inputs": [
        {
          "internalType": "bytes4",
          "name": "interfaceId",
          "type": "bytes4"
        }
      ],
      "name": "supportsInterface",
      "outputs": [
        {
          "internalType": "bool",
          "name": "",
          "type": "bool"
        }
      ],
      "stateMutability": "view",
      "type": "function"
    },
    {
      "inputs": [],
      "name": "symbol",
      "outputs": [
        {
          "internalType": "string",
          "name": "",
          "type": "string"
        }
      ],
      "stateMutability": "view",
      "type": "function"
    },
    {
      "inputs": [
        {
          "internalType": "uint256",
          "name": "index",
          "type": "uint256"
        }
      ],
      "name": "tokenByIndex",
      "outputs": [
        {
          "internalType": "uint256",
          "name": "",
          "type": "uint256"
        }
      ],
      "stateMutability": "view",
      "type": "function"
    },
    {
      "inputs": [
        {
          "internalType": "address",
          "name": "owner",
          "type": "address"
        },
        {
          "internalType": "uint256",
          "name": "index",
          "type": "uint256"
        }
      ],
      "name": "tokenOfOwnerByIndex",
      "outputs": [
        {
          "internalType": "uint256",
          "name": "",
          "type": "uint256"
        }
      ],
      "stateMutability": "view",
      "type": "function"
    },
    {
      "inputs": [],
      "name": "totalSupply",
      "outputs": [
        {
          "internalType": "uint256",
          "name": "",
          "type": "uint256"
        }
      ],
      "stateMutability": "view",
      "type": "function"
    },
    {
      "inputs": [
        {
          "internalType": "address",
          "name": "from",
          "type": "address"
        },
        {
          "internalType": "address",
          "name": "to",
          "type": "address"
        },
        {
          "internalType": "uint256",
          "name": "tokenId",
          "type": "uint256"
        }
      ],
      "name": "transferFrom",
      "outputs": [],
      "stateMutability": "nonpayable",
      "type": "function"
    },
    {
      "inputs": [],
      "name": "unpause",
      "outputs": [],
      "stateMutability": "nonpayable",
      "type": "function"
    },
    {
      "inputs": [
        {
          "internalType": "uint256",
          "name": "id",
          "type": "uint256"
        }
      ],
      "name": "adminBurn",
      "outputs": [],
      "stateMutability": "nonpayable",
      "type": "function"
    },
    {
      "inputs": [
        {
          "internalType": "uint256",
          "name": "tokenId",
          "type": "uint256"
        }
      ],
      "name": "tokenURI",
      "outputs": [
        {
          "internalType": "string",
          "name": "",
          "type": "string"
        }
      ],
      "stateMutability": "view",
      "type": "function"
    },
    {
      "inputs": [
        {
          "internalType": "string",
          "name": "uri",
          "type": "string"
        }
      ],
      "name": "setBaseURI",
      "outputs": [],
      "stateMutability": "nonpayable",
      "type": "function"
    },
    {
      "inputs": [
        {
          "internalType": "address",
          "name": "to",
          "type": "address"
        },
        {
          "internalType": "string",
          "name": "cid",
          "type": "string"
        }
      ],
      "name": "adminMint",
      "outputs": [],
      "stateMutability": "nonpayable",
      "type": "function"
    },
    {
      "inputs": [
        {
          "internalType": "address",
          "name": "owner",
          "type": "address"
        },
        {
          "internalType": "uint256",
          "name": "startIndex",
          "type": "uint256"
        },
        {
          "internalType": "uint256",
          "name": "endIndex",
          "type": "uint256"
        }
      ],
      "name": "tokensOf",
      "outputs": [
        {
          "internalType": "uint256[]",
          "name": "result",
          "type": "uint256[]"
        }
      ],
      "stateMutability": "view",
      "type": "function"
    },
    {
      "inputs": [
        {
          "internalType": "address",
          "name": "to",
          "type": "address"
        }
      ],
      "name": "mint",
      "outputs": [],
      "stateMutability": "nonpayable",
      "type": "function"
    }
  ],
  "bytecode": "0x60806040523480156200001157600080fd5b50604051620031ea380380620031ea83398101604081905262000034916200044c565b8181604051806020016040528060008152508282816002908051906020019062000060929190620002d9565b50805162000076906003906020840190620002d9565b5050600c805460ff191690555080516200009890600e906020840190620002d9565b50620000ac60003362000174565b62000174565b620000d87f9f2df0fed2c77648de5860a4cc508cd0818c85b8b8a1ab4ceeef8d981c8956a63362000174565b620001047f65d7a28e3265b37a6474929f336521b332c1681b933f6cb9f3376673440d862a3362000174565b5050506200013c7fe97b137254058bd94f28d2f3eb79e2d34074ffb488d042e3bc958e0a57d2fa22620000a66200017060201b60201c565b620001687f8207333f63dadcd0f8115c92187d0d7102dbcb682d67cc7f9dfccbfc085348be3362000174565b5050620004f2565b3390565b62000180828262000184565b5050565b6200019b8282620001c760201b6200130a1760201c565b6000828152600160209081526040909120620001c29183906200138e62000267821b17901c565b505050565b6000828152602081815260408083206001600160a01b038516845290915290205460ff1662000180576000828152602081815260408083206001600160a01b03851684529091529020805460ff19166001179055620002233390565b6001600160a01b0316816001600160a01b0316837f2f8788117e7eff1d82e926ec794901d17c78024a50270940304540a733656f0d60405160405180910390a45050565b60006200027e836001600160a01b03841662000287565b90505b92915050565b6000818152600183016020526040812054620002d05750815460018181018455600084815260208082209093018490558454848252828601909352604090209190915562000281565b50600062000281565b828054620002e790620004b6565b90600052602060002090601f0160209004810192826200030b576000855562000356565b82601f106200032657805160ff191683800117855562000356565b8280016001018555821562000356579182015b828111156200035657825182559160200191906001019062000339565b506200036492915062000368565b5090565b5b8082111562000364576000815560010162000369565b634e487b7160e01b600052604160045260246000fd5b600082601f830112620003a757600080fd5b81516001600160401b0380821115620003c457620003c46200037f565b604051601f8301601f19908116603f01168101908282118183101715620003ef57620003ef6200037f565b816040528381526020925086838588010111156200040c57600080fd5b600091505b8382101562000430578582018301518183018401529082019062000411565b83821115620004425760008385830101525b9695505050505050565b600080604083850312156200046057600080fd5b82516001600160401b03808211156200047857600080fd5b620004868683870162000395565b935060208501519150808211156200049d57600080fd5b50620004ac8582860162000395565b9150509250929050565b600181811c90821680620004cb57607f821691505b602082108103620004ec57634e487b7160e01b600052602260045260246000fd5b50919050565b612ce880620005026000396000f3fe608060405234801561001057600080fd5b50600436106102325760003560e01c80636a62784211610130578063a24b951e116100b8578063ca15c8731161007c578063ca15c873146104e9578063d5391393146104fc578063d547741f14610523578063e63ab1e914610536578063e985e9c51461055d57600080fd5b8063a24b951e14610462578063b88d4fde14610489578063b930908f1461049c578063badb97ff146104c3578063c87b56dd146104d657600080fd5b80639010d07c116100ff5780639010d07c1461041957806391d148541461042c57806395d89b411461043f578063a217fddf14610447578063a22cb4651461044f57600080fd5b80636a627842146103da578063704fe710146103eb57806370a08231146103fe5780638456cb591461041157600080fd5b80632f745c59116101be5780634f6ccce7116101825780634f6ccce71461038357806355f804b3146103965780635919c74b146103a95780635c975abb146103bc5780636352211e146103c757600080fd5b80632f745c591461032f57806336568abe146103425780633f4ba83a1461035557806342842e0e1461035d57806342966c681461037057600080fd5b806318160ddd1161020557806318160ddd146102b457806323185dc9146102c657806323b872dd146102e6578063248a9ca3146102f95780632f2ff15d1461031c57600080fd5b806301ffc9a71461023757806306fdde031461025f578063081812fc14610274578063095ea7b31461029f575b600080fd5b61024a610245366004612582565b610599565b60405190151581526020015b60405180910390f35b6102676105aa565b60405161025691906125f7565b61028761028236600461260a565b61063c565b6040516001600160a01b039091168152602001610256565b6102b26102ad36600461263f565b6106d6565b005b600a545b604051908152602001610256565b6102d96102d4366004612669565b6107eb565b604051610256919061269c565b6102b26102f43660046126e0565b6109ed565b6102b861030736600461260a565b60009081526020819052604090206001015490565b6102b261032a36600461271c565b610a1f565b6102b861033d36600461263f565b610a45565b6102b261035036600461271c565b610adb565b6102b2610b59565b6102b261036b3660046126e0565b610c01565b6102b261037e36600461260a565b610c1c565b6102b861039136600461260a565b610c93565b6102b26103a43660046127f4565b610d26565b6102b26103b7366004612829565b610dc0565b600c5460ff1661024a565b6102876103d536600461260a565b610ea4565b6102b26103e8366004612877565b50565b6102676103f936600461260a565b610f1b565b6102b861040c366004612877565b610fb5565b6102b261103c565b610287610427366004612892565b6110e0565b61024a61043a36600461271c565b6110f8565b610267611121565b6102b8600081565b6102b261045d3660046128b4565b611130565b6102b87f8207333f63dadcd0f8115c92187d0d7102dbcb682d67cc7f9dfccbfc085348be81565b6102b26104973660046128f0565b61113b565b6102b87fe97b137254058bd94f28d2f3eb79e2d34074ffb488d042e3bc958e0a57d2fa2281565b6102b26104d136600461260a565b611173565b6102676104e436600461260a565b6111e9565b6102b86104f736600461260a565b6112cd565b6102b87f9f2df0fed2c77648de5860a4cc508cd0818c85b8b8a1ab4ceeef8d981c8956a681565b6102b261053136600461271c565b6112e4565b6102b87f65d7a28e3265b37a6474929f336521b332c1681b933f6cb9f3376673440d862a81565b61024a61056b36600461296c565b6001600160a01b03918216600090815260076020908152604080832093909416825291909152205460ff1690565b60006105a4826113a3565b92915050565b6060600280546105b990612996565b80601f01602080910402602001604051908101604052809291908181526020018280546105e590612996565b80156106325780601f1061060757610100808354040283529160200191610632565b820191906000526020600020905b81548152906001019060200180831161061557829003601f168201915b5050505050905090565b6000818152600460205260408120546001600160a01b03166106ba5760405162461bcd60e51b815260206004820152602c60248201527f4552433732313a20617070726f76656420717565727920666f72206e6f6e657860448201526b34b9ba32b73a103a37b5b2b760a11b60648201526084015b60405180910390fd5b506000908152600660205260409020546001600160a01b031690565b60006106e182610ea4565b9050806001600160a01b0316836001600160a01b03160361074e5760405162461bcd60e51b815260206004820152602160248201527f4552433732313a20617070726f76616c20746f2063757272656e74206f776e656044820152603960f91b60648201526084016106b1565b336001600160a01b038216148061076a575061076a813361056b565b6107dc5760405162461bcd60e51b815260206004820152603860248201527f4552433732313a20617070726f76652063616c6c6572206973206e6f74206f7760448201527f6e6572206e6f7220617070726f76656420666f7220616c6c000000000000000060648201526084016106b1565b6107e683836113c8565b505050565b60606001600160a01b03841661083b5760405162461bcd60e51b81526020600482015260156024820152746f776e6572206973207a65726f206164647265737360581b60448201526064016106b1565b8183111561087b5760405162461bcd60e51b815260206004820152600d60248201526c0d2dcecc2d8d2c840d2dcc8caf609b1b60448201526064016106b1565b6001600160a01b038416600090815260126020526040902080548311156108d45760405162461bcd60e51b815260206004820152600d60248201526c0d2dcecc2d8d2c840d2dcc8caf609b1b60448201526064016106b1565b826000036109305780546040805160208084028201810190925282815291839183018282801561092357602002820191906000526020600020905b81548152602001906001019080831161090f575b50505050509150506109e6565b600061093c85856129e6565b90508067ffffffffffffffff81111561095757610957612748565b604051908082528060200260200182016040528015610980578160200160208202803683370190505b50925060005b8181146109e2578261099882886129fd565b815481106109a8576109a8612a15565b90600052602060002001548482815181106109c5576109c5612a15565b6020908102919091010152806109da81612a2b565b915050610986565b5050505b9392505050565b6109f8335b82611436565b610a145760405162461bcd60e51b81526004016106b190612a44565b6107e683838361152d565b600082815260208190526040902060010154610a3b813361154c565b6107e683836115b0565b6000610a5083610fb5565b8210610ab25760405162461bcd60e51b815260206004820152602b60248201527f455243373231456e756d657261626c653a206f776e657220696e646578206f7560448201526a74206f6620626f756e647360a81b60648201526084016106b1565b506001600160a01b03919091166000908152600860209081526040808320938352929052205490565b6001600160a01b0381163314610b4b5760405162461bcd60e51b815260206004820152602f60248201527f416363657373436f6e74726f6c3a2063616e206f6e6c792072656e6f756e636560448201526e103937b632b9903337b91039b2b63360891b60648201526084016106b1565b610b5582826115d2565b5050565b610b837f65d7a28e3265b37a6474929f336521b332c1681b933f6cb9f3376673440d862a336110f8565b610bf7576040805162461bcd60e51b81526020600482015260248101919091527f4552433732315072657365744d696e7465725061757365724175746f49643a2060448201527f6d75737420686176652070617573657220726f6c6520746f20756e706175736560648201526084016106b1565b610bff6115f4565b565b6107e68383836040518060200160405280600081525061113b565b610c25336109f2565b610c8a5760405162461bcd60e51b815260206004820152603060248201527f4552433732314275726e61626c653a2063616c6c6572206973206e6f74206f7760448201526f1b995c881b9bdc88185c1c1c9bdd995960821b60648201526084016106b1565b6103e881611687565b6000610c9e600a5490565b8210610d015760405162461bcd60e51b815260206004820152602c60248201527f455243373231456e756d657261626c653a20676c6f62616c20696e646578206f60448201526b7574206f6620626f756e647360a01b60648201526084016106b1565b600a8281548110610d1457610d14612a15565b90600052602060002001549050919050565b610d507f8207333f63dadcd0f8115c92187d0d7102dbcb682d67cc7f9dfccbfc085348be336110f8565b610dad5760405162461bcd60e51b815260206004820152602860248201527f4d75737420686176652055524c5345545445525f524f4c4520726f6c6520746f604482015267207365742075726960c01b60648201526084016106b1565b8051610b5590600f9060208401906124d3565b610dea7f9f2df0fed2c77648de5860a4cc508cd0818c85b8b8a1ab4ceeef8d981c8956a6336110f8565b610e5c5760405162461bcd60e51b815260206004820152603d60248201527f4552433732315072657365744d696e7465725061757365724175746f49643a2060448201527f6d7573742068617665206d696e74657220726f6c6520746f206d696e7400000060648201526084016106b1565b6000610e6760105490565b60008181526011602090815260409091208451929350610e8b9290918501906124d3565b50610e9683826116a7565b6107e6601080546001019055565b6000818152600460205260408120546001600160a01b0316806105a45760405162461bcd60e51b815260206004820152602960248201527f4552433732313a206f776e657220717565727920666f72206e6f6e657869737460448201526832b73a103a37b5b2b760b91b60648201526084016106b1565b60116020526000908152604090208054610f3490612996565b80601f0160208091040260200160405190810160405280929190818152602001828054610f6090612996565b8015610fad5780601f10610f8257610100808354040283529160200191610fad565b820191906000526020600020905b815481529060010190602001808311610f9057829003601f168201915b505050505081565b60006001600160a01b0382166110205760405162461bcd60e51b815260206004820152602a60248201527f4552433732313a2062616c616e636520717565727920666f7220746865207a65604482015269726f206164647265737360b01b60648201526084016106b1565b506001600160a01b031660009081526005602052604090205490565b6110667f65d7a28e3265b37a6474929f336521b332c1681b933f6cb9f3376673440d862a336110f8565b6110d85760405162461bcd60e51b815260206004820152603e60248201527f4552433732315072657365744d696e7465725061757365724175746f49643a2060448201527f6d75737420686176652070617573657220726f6c6520746f207061757365000060648201526084016106b1565b610bff6116bb565b60008281526001602052604081206109e69083611736565b6000918252602082815260408084206001600160a01b0393909316845291905290205460ff1690565b6060600380546105b990612996565b610b55338383611742565b6111453383611436565b6111615760405162461bcd60e51b81526004016106b190612a44565b61116d84848484611810565b50505050565b61119d7fe97b137254058bd94f28d2f3eb79e2d34074ffb488d042e3bc958e0a57d2fa22336110f8565b610c8a5760405162461bcd60e51b815260206004820152601b60248201527f4d7573742068617665206275726e20726f6c6520746f206275726e000000000060448201526064016106b1565b6000818152600460205260409020546060906001600160a01b03166112685760405162461bcd60e51b815260206004820152602f60248201527f4552433732314d657461646174613a2055524920717565727920666f72206e6f60448201526e3732bc34b9ba32b73a103a37b5b2b760891b60648201526084016106b1565b6000611272611843565b9050600081511161129257604051806020016040528060008152506109e6565b80601160008581526020019081526020016000206040516020016112b7929190612a95565b6040516020818303038152906040529392505050565b60008181526001602052604081206105a490611852565b600082815260208190526040902060010154611300813361154c565b6107e683836115d2565b61131482826110f8565b610b55576000828152602081815260408083206001600160a01b03851684529091529020805460ff1916600117905561134a3390565b6001600160a01b0316816001600160a01b0316837f2f8788117e7eff1d82e926ec794901d17c78024a50270940304540a733656f0d60405160405180910390a45050565b60006109e6836001600160a01b03841661185c565b60006001600160e01b0319821663780e9d6360e01b14806105a457506105a4826118ab565b600081815260066020526040902080546001600160a01b0319166001600160a01b03841690811790915581906113fd82610ea4565b6001600160a01b03167f8c5be1e5ebec7d5bd14f71427d1e84f3dd0314c0f7b2291e5b200ac8c7c3b92560405160405180910390a45050565b6000818152600460205260408120546001600160a01b03166114af5760405162461bcd60e51b815260206004820152602c60248201527f4552433732313a206f70657261746f7220717565727920666f72206e6f6e657860448201526b34b9ba32b73a103a37b5b2b760a11b60648201526084016106b1565b60006114ba83610ea4565b9050806001600160a01b0316846001600160a01b031614806114f55750836001600160a01b03166114ea8461063c565b6001600160a01b0316145b8061152557506001600160a01b0380821660009081526007602090815260408083209388168352929052205460ff165b949350505050565b6115388383836118eb565b6115428382611a96565b6107e68282611b52565b61155682826110f8565b610b555761156e816001600160a01b03166014611b8b565b611579836020611b8b565b60405160200161158a929190612b45565b60408051601f198184030181529082905262461bcd60e51b82526106b1916004016125f7565b6115ba828261130a565b60008281526001602052604090206107e6908261138e565b6115dc8282611d27565b60008281526001602052604090206107e69082611d8c565b600c5460ff1661163d5760405162461bcd60e51b815260206004820152601460248201527314185d5cd8589b194e881b9bdd081c185d5cd95960621b60448201526064016106b1565b600c805460ff191690557f5db9ee0a495bf2e6ff9c91a7834c1ba4fdd244a5e8aa4e537bd38aeae4b073aa335b6040516001600160a01b03909116815260200160405180910390a1565b600061169282610ea4565b905061169d82611da1565b610b558183611a96565b6116b18282611e48565b610b558282611b52565b600c5460ff16156117015760405162461bcd60e51b815260206004820152601060248201526f14185d5cd8589b194e881c185d5cd95960821b60448201526064016106b1565b600c805460ff191660011790557f62e78cea01bee320cd4e420270b5ea74000d11b0c9f74754ebdbfc544b05a25861166a3390565b60006109e68383611f96565b816001600160a01b0316836001600160a01b0316036117a35760405162461bcd60e51b815260206004820152601960248201527f4552433732313a20617070726f766520746f2063616c6c65720000000000000060448201526064016106b1565b6001600160a01b03838116600081815260076020908152604080832094871680845294825291829020805460ff191686151590811790915591519182527f17307eab39ab6107e8899845ad3d59bd9653f200f220920489ca2b5937696c31910160405180910390a3505050565b61181b84848461152d565b61182784848484611fc0565b61116d5760405162461bcd60e51b81526004016106b190612bba565b6060600f80546105b990612996565b60006105a4825490565b60008181526001830160205260408120546118a3575081546001818101845560008481526020808220909301849055845484825282860190935260409020919091556105a4565b5060006105a4565b60006001600160e01b031982166380ac58cd60e01b14806118dc57506001600160e01b03198216635b5e139f60e01b145b806105a457506105a4826120c1565b826001600160a01b03166118fe82610ea4565b6001600160a01b0316146119665760405162461bcd60e51b815260206004820152602960248201527f4552433732313a207472616e73666572206f6620746f6b656e2074686174206960448201526839903737ba1037bbb760b91b60648201526084016106b1565b6001600160a01b0382166119c85760405162461bcd60e51b8152602060048201526024808201527f4552433732313a207472616e7366657220746f20746865207a65726f206164646044820152637265737360e01b60648201526084016106b1565b6119d38383836120e6565b6119de6000826113c8565b6001600160a01b0383166000908152600560205260408120805460019290611a079084906129e6565b90915550506001600160a01b0382166000908152600560205260408120805460019290611a359084906129fd565b909155505060008181526004602052604080822080546001600160a01b0319166001600160a01b0386811691821790925591518493918716917fddf252ad1be2c89b69c2b068fc378daa952ba7f163c4a11628f55a4df523b3ef91a4505050565b6000818152601360209081526040808320546001600160a01b038616845260129092528220805491929091611acd906001906129e6565b90506000828281548110611ae357611ae3612a15565b9060005260206000200154905080838581548110611b0357611b03612a15565b60009182526020808320909101929092558281526013909152604090208490558254839080611b3457611b34612c0c565b60019003818190600052602060002001600090559055505050505050565b6001600160a01b039091166000908152601260209081526040808320805485855260138452918420829055600182018155835291200155565b60606000611b9a836002612c22565b611ba59060026129fd565b67ffffffffffffffff811115611bbd57611bbd612748565b6040519080825280601f01601f191660200182016040528015611be7576020820181803683370190505b509050600360fc1b81600081518110611c0257611c02612a15565b60200101906001600160f81b031916908160001a905350600f60fb1b81600181518110611c3157611c31612a15565b60200101906001600160f81b031916908160001a9053506000611c55846002612c22565b611c609060016129fd565b90505b6001811115611cd8576f181899199a1a9b1b9c1cb0b131b232b360811b85600f1660108110611c9457611c94612a15565b1a60f81b828281518110611caa57611caa612a15565b60200101906001600160f81b031916908160001a90535060049490941c93611cd181612c41565b9050611c63565b5083156109e65760405162461bcd60e51b815260206004820181905260248201527f537472696e67733a20686578206c656e67746820696e73756666696369656e7460448201526064016106b1565b611d3182826110f8565b15610b55576000828152602081815260408083206001600160a01b0385168085529252808320805460ff1916905551339285917ff6391f5c32d9c69d2a47ea670b442974b53935d1edc7fd64eb21e047a839171b9190a45050565b60006109e6836001600160a01b0384166120f1565b6000611dac82610ea4565b9050611dba816000846120e6565b611dc56000836113c8565b6001600160a01b0381166000908152600560205260408120805460019290611dee9084906129e6565b909155505060008281526004602052604080822080546001600160a01b0319169055518391906001600160a01b038416907fddf252ad1be2c89b69c2b068fc378daa952ba7f163c4a11628f55a4df523b3ef908390a45050565b6001600160a01b038216611e9e5760405162461bcd60e51b815260206004820181905260248201527f4552433732313a206d696e7420746f20746865207a65726f206164647265737360448201526064016106b1565b6000818152600460205260409020546001600160a01b031615611f035760405162461bcd60e51b815260206004820152601c60248201527f4552433732313a20746f6b656e20616c7265616479206d696e7465640000000060448201526064016106b1565b611f0f600083836120e6565b6001600160a01b0382166000908152600560205260408120805460019290611f389084906129fd565b909155505060008181526004602052604080822080546001600160a01b0319166001600160a01b03861690811790915590518392907fddf252ad1be2c89b69c2b068fc378daa952ba7f163c4a11628f55a4df523b3ef908290a45050565b6000826000018281548110611fad57611fad612a15565b9060005260206000200154905092915050565b60006001600160a01b0384163b156120b657604051630a85bd0160e11b81526001600160a01b0385169063150b7a0290612004903390899088908890600401612c58565b6020604051808303816000875af192505050801561203f575060408051601f3d908101601f1916820190925261203c91810190612c95565b60015b61209c573d80801561206d576040519150601f19603f3d011682016040523d82523d6000602084013e612072565b606091505b5080516000036120945760405162461bcd60e51b81526004016106b190612bba565b805181602001fd5b6001600160e01b031916630a85bd0160e11b149050611525565b506001949350505050565b60006001600160e01b03198216635a05180f60e01b14806105a457506105a4826121e4565b6107e6838383612219565b600081815260018301602052604081205480156121da5760006121156001836129e6565b8554909150600090612129906001906129e6565b905081811461218e57600086600001828154811061214957612149612a15565b906000526020600020015490508087600001848154811061216c5761216c612a15565b6000918252602080832090910192909255918252600188019052604090208390555b855486908061219f5761219f612c0c565b6001900381819060005260206000200160009055905585600101600086815260200190815260200160002060009055600193505050506105a4565b60009150506105a4565b60006001600160e01b03198216637965db0b60e01b14806105a457506301ffc9a760e01b6001600160e01b03198316146105a4565b61222483838361228b565b600c5460ff16156107e65760405162461bcd60e51b815260206004820152602b60248201527f4552433732315061757361626c653a20746f6b656e207472616e73666572207760448201526a1a1a5b19481c185d5cd95960aa1b60648201526084016106b1565b6001600160a01b0383166122e6576122e181600a80546000838152600b60205260408120829055600182018355919091527fc65a7bb8d6351c1cf70c95a316cc6a92839c986682d98bc35f958f4883f9d2a80155565b612309565b816001600160a01b0316836001600160a01b031614612309576123098382612343565b6001600160a01b038216612320576107e6816123e0565b826001600160a01b0316826001600160a01b0316146107e6576107e6828261248f565b6000600161235084610fb5565b61235a91906129e6565b6000838152600960205260409020549091508082146123ad576001600160a01b03841660009081526008602090815260408083208584528252808320548484528184208190558352600990915290208190555b5060009182526009602090815260408084208490556001600160a01b039094168352600881528383209183525290812055565b600a546000906123f2906001906129e6565b6000838152600b6020526040812054600a805493945090928490811061241a5761241a612a15565b9060005260206000200154905080600a838154811061243b5761243b612a15565b6000918252602080832090910192909255828152600b9091526040808220849055858252812055600a80548061247357612473612c0c565b6001900381819060005260206000200160009055905550505050565b600061249a83610fb5565b6001600160a01b039093166000908152600860209081526040808320868452825280832085905593825260099052919091209190915550565b8280546124df90612996565b90600052602060002090601f0160209004810192826125015760008555612547565b82601f1061251a57805160ff1916838001178555612547565b82800160010185558215612547579182015b8281111561254757825182559160200191906001019061252c565b50612553929150612557565b5090565b5b808211156125535760008155600101612558565b6001600160e01b0319811681146103e857600080fd5b60006020828403121561259457600080fd5b81356109e68161256c565b60005b838110156125ba5781810151838201526020016125a2565b8381111561116d5750506000910152565b600081518084526125e381602086016020860161259f565b601f01601f19169290920160200192915050565b6020815260006109e660208301846125cb565b60006020828403121561261c57600080fd5b5035919050565b80356001600160a01b038116811461263a57600080fd5b919050565b6000806040838503121561265257600080fd5b61265b83612623565b946020939093013593505050565b60008060006060848603121561267e57600080fd5b61268784612623565b95602085013595506040909401359392505050565b6020808252825182820181905260009190848201906040850190845b818110156126d4578351835292840192918401916001016126b8565b50909695505050505050565b6000806000606084860312156126f557600080fd5b6126fe84612623565b925061270c60208501612623565b9150604084013590509250925092565b6000806040838503121561272f57600080fd5b8235915061273f60208401612623565b90509250929050565b634e487b7160e01b600052604160045260246000fd5b600067ffffffffffffffff8084111561277957612779612748565b604051601f8501601f19908116603f011681019082821181831017156127a1576127a1612748565b816040528093508581528686860111156127ba57600080fd5b858560208301376000602087830101525050509392505050565b600082601f8301126127e557600080fd5b6109e68383356020850161275e565b60006020828403121561280657600080fd5b813567ffffffffffffffff81111561281d57600080fd5b611525848285016127d4565b6000806040838503121561283c57600080fd5b61284583612623565b9150602083013567ffffffffffffffff81111561286157600080fd5b61286d858286016127d4565b9150509250929050565b60006020828403121561288957600080fd5b6109e682612623565b600080604083850312156128a557600080fd5b50508035926020909101359150565b600080604083850312156128c757600080fd5b6128d083612623565b9150602083013580151581146128e557600080fd5b809150509250929050565b6000806000806080858703121561290657600080fd5b61290f85612623565b935061291d60208601612623565b925060408501359150606085013567ffffffffffffffff81111561294057600080fd5b8501601f8101871361295157600080fd5b6129608782356020840161275e565b91505092959194509250565b6000806040838503121561297f57600080fd5b61298883612623565b915061273f60208401612623565b600181811c908216806129aa57607f821691505b6020821081036129ca57634e487b7160e01b600052602260045260246000fd5b50919050565b634e487b7160e01b600052601160045260246000fd5b6000828210156129f8576129f86129d0565b500390565b60008219821115612a1057612a106129d0565b500190565b634e487b7160e01b600052603260045260246000fd5b600060018201612a3d57612a3d6129d0565b5060010190565b60208082526031908201527f4552433732313a207472616e736665722063616c6c6572206973206e6f74206f6040820152701ddb995c881b9bdc88185c1c1c9bdd9959607a1b606082015260800190565b600083516020612aa8828583890161259f565b845491840191600090600181811c9080831680612ac657607f831692505b8583108103612ae357634e487b7160e01b85526022600452602485fd5b808015612af75760018114612b0857612b35565b60ff19851688528388019550612b35565b60008b81526020902060005b85811015612b2d5781548a820152908401908801612b14565b505083880195505b50939a9950505050505050505050565b7f416363657373436f6e74726f6c3a206163636f756e7420000000000000000000815260008351612b7d81601785016020880161259f565b7001034b99036b4b9b9b4b733903937b6329607d1b6017918401918201528351612bae81602884016020880161259f565b01602801949350505050565b60208082526032908201527f4552433732313a207472616e7366657220746f206e6f6e20455243373231526560408201527131b2b4bb32b91034b6b83632b6b2b73a32b960711b606082015260800190565b634e487b7160e01b600052603160045260246000fd5b6000816000190483118215151615612c3c57612c3c6129d0565b500290565b600081612c5057612c506129d0565b506000190190565b6001600160a01b0385811682528416602082015260408101839052608060608201819052600090612c8b908301846125cb565b9695505050505050565b600060208284031215612ca757600080fd5b81516109e68161256c56fea2646970667358221220acf805adc5ff562397b001411333a7d0d833ecae8354555ea610df779f50fc0664736f6c634300080d0033",
  "immutableReferences": {},
  "source": "//SPDX-License-Identifier: Unlicense\npragma solidity ^0.8.0;\npragma experimental ABIEncoderV2;\n\nimport \"@openzeppelin/contracts/utils/Strings.sol\";\nimport \"@openzeppelin/contracts/utils/Counters.sol\";\nimport \"@openzeppelin/contracts/token/ERC721/presets/ERC721PresetMinterPauserAutoId.sol\";\n\ncontract Tradable721 is ERC721PresetMinterPauserAutoId {\n    using Strings for uint256;\n    using Counters for Counters.Counter;\n\n    bytes32 public constant BURN_ROLE = keccak256(\"BURN_ROLE\");\n    bytes32 public constant URLSETTER_ROLE = keccak256(\"URLSETTER_ROLE\");\n\n    string _baseTokenURI;\n    Counters.Counter _tokenIdTracker;\n\n    // token id => ipfs cid\n    mapping(uint256 => string) public cids;\n\n    //address => ids\n    mapping(address => uint256[]) internal ownerTokens;\n    mapping(uint256 => uint256) internal tokenIndexs;\n\n    // mapping(uint256 => address) internal tokenOwners;\n\n    constructor(string memory name, string memory symbol) ERC721PresetMinterPauserAutoId(name, symbol, \"\") {\n        _setupRole(BURN_ROLE, _msgSender());\n        _setupRole(URLSETTER_ROLE, _msgSender());\n    }\n\n    function adminBurn(uint256 id) public {\n        require(hasRole(BURN_ROLE, _msgSender()), \"Must have burn role to burn\");\n        _burn(id);\n    }\n\n    function _baseURI() internal view virtual override returns (string memory) {\n        return _baseTokenURI;\n    }\n\n    function tokenURI(uint256 tokenId) public view virtual override returns (string memory) {\n        require(_exists(tokenId), \"ERC721Metadata: URI query for nonexistent token\");\n\n        string memory baseURI = _baseURI();\n        return bytes(baseURI).length > 0 ? string(abi.encodePacked(baseURI, cids[tokenId])) : \"\";\n    }\n\n    function setBaseURI(string memory uri) public virtual {\n        require(hasRole(URLSETTER_ROLE, _msgSender()), \"Must have URLSETTER_ROLE role to set uri\");\n        _baseTokenURI = uri;\n    }\n\n    function adminMint(address to, string memory cid) public virtual {\n        require(hasRole(MINTER_ROLE, _msgSender()), \"ERC721PresetMinterPauserAutoId: must have minter role to mint\");\n        uint256 id = _tokenIdTracker.current();\n        cids[id] = cid;\n        _mint(to, id);\n        _tokenIdTracker.increment();\n    }\n\n    function tokensOf(address owner, uint256 startIndex, uint256 endIndex) public view virtual returns (uint256[] memory result) {\n        require(owner != address(0), \"owner is zero address\");\n        require(startIndex <= endIndex, \"invalid index\");\n\n        uint256[] storage tokens = ownerTokens[owner];\n        require(endIndex <= tokens.length, \"invalid index\");\n\n        if (endIndex == 0) {\n            return tokens;\n        }\n\n        uint256 len = endIndex - startIndex;\n\n        result = new uint256[](len);\n        for (uint256 i = 0; i != len; i++) {\n            result[i] = tokens[startIndex + i];\n        }\n\n        return result;\n    }\n\n    /**********overridden fun**********/\n\n    function mint(address to) public virtual override {}\n\n    function _removeTokenFrom(address from, uint256 tokenId) internal virtual {\n        uint256 index = tokenIndexs[tokenId];\n\n        uint256[] storage tokens = ownerTokens[from];\n        uint256 indexLast = tokens.length - 1;\n\n        uint256 tokenIdLast = tokens[indexLast];\n        tokens[index] = tokenIdLast;\n        tokenIndexs[tokenIdLast] = index;\n\n        tokens.pop();\n    }\n\n    function _addTokenTo(address to, uint256 tokenId) internal virtual {\n        uint256[] storage tokens = ownerTokens[to];\n        tokenIndexs[tokenId] = tokens.length;\n        tokens.push(tokenId);\n    }\n\n    function _mint(address to, uint256 tokenId) internal virtual override {\n        super._mint(to, tokenId);\n        _addTokenTo(to, tokenId);\n    }\n\n    function _burn(uint256 tokenId) internal virtual override {\n        address owner = ERC721.ownerOf(tokenId);\n        super._burn(tokenId);\n        _removeTokenFrom(owner, tokenId);\n    }\n\n    function _transfer(address from, address to, uint256 tokenId) internal virtual override {\n        super._transfer(from, to, tokenId);\n        _removeTokenFrom(from, tokenId);\n        _addTokenTo(to, tokenId);\n    }\n}\n",
  "sourcePath": "/Users/necklace/work/nutbox/nutbox-contract/contracts/NFT/Tradable721.sol",
  "compiler": {
    "name": "solc",
    "version": "0.8.13+commit.abaa5c0e.Emscripten.clang"
  },
  "schemaVersion": "3.4.11",
  "updatedAt": "2023-04-13T15:38:45.674Z",
  "devdoc": {
    "kind": "dev",
    "methods": {
      "approve(address,uint256)": {
        "details": "See {IERC721-approve}."
      },
      "balanceOf(address)": {
        "details": "See {IERC721-balanceOf}."
      },
      "burn(uint256)": {
        "details": "Burns `tokenId`. See {ERC721-_burn}. Requirements: - The caller must own `tokenId` or be an approved operator."
      },
      "getApproved(uint256)": {
        "details": "See {IERC721-getApproved}."
      },
      "getRoleAdmin(bytes32)": {
        "details": "Returns the admin role that controls `role`. See {grantRole} and {revokeRole}. To change a role's admin, use {_setRoleAdmin}."
      },
      "getRoleMember(bytes32,uint256)": {
        "details": "Returns one of the accounts that have `role`. `index` must be a value between 0 and {getRoleMemberCount}, non-inclusive. Role bearers are not sorted in any particular way, and their ordering may change at any point. WARNING: When using {getRoleMember} and {getRoleMemberCount}, make sure you perform all queries on the same block. See the following https://forum.openzeppelin.com/t/iterating-over-elements-on-enumerableset-in-openzeppelin-contracts/2296[forum post] for more information."
      },
      "getRoleMemberCount(bytes32)": {
        "details": "Returns the number of accounts that have `role`. Can be used together with {getRoleMember} to enumerate all bearers of a role."
      },
      "grantRole(bytes32,address)": {
        "details": "Grants `role` to `account`. If `account` had not been already granted `role`, emits a {RoleGranted} event. Requirements: - the caller must have ``role``'s admin role."
      },
      "hasRole(bytes32,address)": {
        "details": "Returns `true` if `account` has been granted `role`."
      },
      "isApprovedForAll(address,address)": {
        "details": "See {IERC721-isApprovedForAll}."
      },
      "mint(address)": {
        "details": "Creates a new token for `to`. Its token ID will be automatically assigned (and available on the emitted {IERC721-Transfer} event), and the token URI autogenerated based on the base URI passed at construction. See {ERC721-_mint}. Requirements: - the caller must have the `MINTER_ROLE`."
      },
      "name()": {
        "details": "See {IERC721Metadata-name}."
      },
      "ownerOf(uint256)": {
        "details": "See {IERC721-ownerOf}."
      },
      "pause()": {
        "details": "Pauses all token transfers. See {ERC721Pausable} and {Pausable-_pause}. Requirements: - the caller must have the `PAUSER_ROLE`."
      },
      "paused()": {
        "details": "Returns true if the contract is paused, and false otherwise."
      },
      "renounceRole(bytes32,address)": {
        "details": "Revokes `role` from the calling account. Roles are often managed via {grantRole} and {revokeRole}: this function's purpose is to provide a mechanism for accounts to lose their privileges if they are compromised (such as when a trusted device is misplaced). If the calling account had been revoked `role`, emits a {RoleRevoked} event. Requirements: - the caller must be `account`."
      },
      "revokeRole(bytes32,address)": {
        "details": "Revokes `role` from `account`. If `account` had been granted `role`, emits a {RoleRevoked} event. Requirements: - the caller must have ``role``'s admin role."
      },
      "safeTransferFrom(address,address,uint256)": {
        "details": "See {IERC721-safeTransferFrom}."
      },
      "safeTransferFrom(address,address,uint256,bytes)": {
        "details": "See {IERC721-safeTransferFrom}."
      },
      "setApprovalForAll(address,bool)": {
        "details": "See {IERC721-setApprovalForAll}."
      },
      "supportsInterface(bytes4)": {
        "details": "See {IERC165-supportsInterface}."
      },
      "symbol()": {
        "details": "See {IERC721Metadata-symbol}."
      },
      "tokenByIndex(uint256)": {
        "details": "See {IERC721Enumerable-tokenByIndex}."
      },
      "tokenOfOwnerByIndex(address,uint256)": {
        "details": "See {IERC721Enumerable-tokenOfOwnerByIndex}."
      },
      "tokenURI(uint256)": {
        "details": "See {IERC721Metadata-tokenURI}."
      },
      "totalSupply()": {
        "details": "See {IERC721Enumerable-totalSupply}."
      },
      "transferFrom(address,address,uint256)": {
        "details": "See {IERC721-transferFrom}."
      },
      "unpause()": {
        "details": "Unpauses all token transfers. See {ERC721Pausable} and {Pausable-_unpause}. Requirements: - the caller must have the `PAUSER_ROLE`."
      }
    },
    "version": 1
  },
  "userdoc": {
    "kind": "user",
    "methods": {},
    "version": 1
  }
}