{
  "contractName": "Tradable721",
  "abi": [
    {
      "inputs": [
        {
          "internalType": "string",
          "name": "name",
          "type": "string"
        },
        {
          "internalType": "string",
          "name": "symbol",
          "type": "string"
        }
      ],
      "stateMutability": "nonpayable",
      "type": "constructor"
    },
    {
      "anonymous": false,
      "inputs": [
        {
          "indexed": true,
          "internalType": "address",
          "name": "owner",
          "type": "address"
        },
        {
          "indexed": true,
          "internalType": "address",
          "name": "approved",
          "type": "address"
        },
        {
          "indexed": true,
          "internalType": "uint256",
          "name": "tokenId",
          "type": "uint256"
        }
      ],
      "name": "Approval",
      "type": "event"
    },
    {
      "anonymous": false,
      "inputs": [
        {
          "indexed": true,
          "internalType": "address",
          "name": "owner",
          "type": "address"
        },
        {
          "indexed": true,
          "internalType": "address",
          "name": "operator",
          "type": "address"
        },
        {
          "indexed": false,
          "internalType": "bool",
          "name": "approved",
          "type": "bool"
        }
      ],
      "name": "ApprovalForAll",
      "type": "event"
    },
    {
      "anonymous": false,
      "inputs": [
        {
          "indexed": false,
          "internalType": "address",
          "name": "account",
          "type": "address"
        }
      ],
      "name": "Paused",
      "type": "event"
    },
    {
      "anonymous": false,
      "inputs": [
        {
          "indexed": true,
          "internalType": "bytes32",
          "name": "role",
          "type": "bytes32"
        },
        {
          "indexed": true,
          "internalType": "bytes32",
          "name": "previousAdminRole",
          "type": "bytes32"
        },
        {
          "indexed": true,
          "internalType": "bytes32",
          "name": "newAdminRole",
          "type": "bytes32"
        }
      ],
      "name": "RoleAdminChanged",
      "type": "event"
    },
    {
      "anonymous": false,
      "inputs": [
        {
          "indexed": true,
          "internalType": "bytes32",
          "name": "role",
          "type": "bytes32"
        },
        {
          "indexed": true,
          "internalType": "address",
          "name": "account",
          "type": "address"
        },
        {
          "indexed": true,
          "internalType": "address",
          "name": "sender",
          "type": "address"
        }
      ],
      "name": "RoleGranted",
      "type": "event"
    },
    {
      "anonymous": false,
      "inputs": [
        {
          "indexed": true,
          "internalType": "bytes32",
          "name": "role",
          "type": "bytes32"
        },
        {
          "indexed": true,
          "internalType": "address",
          "name": "account",
          "type": "address"
        },
        {
          "indexed": true,
          "internalType": "address",
          "name": "sender",
          "type": "address"
        }
      ],
      "name": "RoleRevoked",
      "type": "event"
    },
    {
      "anonymous": false,
      "inputs": [
        {
          "indexed": true,
          "internalType": "address",
          "name": "from",
          "type": "address"
        },
        {
          "indexed": true,
          "internalType": "address",
          "name": "to",
          "type": "address"
        },
        {
          "indexed": true,
          "internalType": "uint256",
          "name": "tokenId",
          "type": "uint256"
        }
      ],
      "name": "Transfer",
      "type": "event"
    },
    {
      "anonymous": false,
      "inputs": [
        {
          "indexed": false,
          "internalType": "address",
          "name": "account",
          "type": "address"
        }
      ],
      "name": "Unpaused",
      "type": "event"
    },
    {
      "inputs": [],
      "name": "BURN_ROLE",
      "outputs": [
        {
          "internalType": "bytes32",
          "name": "",
          "type": "bytes32"
        }
      ],
      "stateMutability": "view",
      "type": "function"
    },
    {
      "inputs": [],
      "name": "DEFAULT_ADMIN_ROLE",
      "outputs": [
        {
          "internalType": "bytes32",
          "name": "",
          "type": "bytes32"
        }
      ],
      "stateMutability": "view",
      "type": "function"
    },
    {
      "inputs": [],
      "name": "MINTER_ROLE",
      "outputs": [
        {
          "internalType": "bytes32",
          "name": "",
          "type": "bytes32"
        }
      ],
      "stateMutability": "view",
      "type": "function"
    },
    {
      "inputs": [],
      "name": "PAUSER_ROLE",
      "outputs": [
        {
          "internalType": "bytes32",
          "name": "",
          "type": "bytes32"
        }
      ],
      "stateMutability": "view",
      "type": "function"
    },
    {
      "inputs": [],
      "name": "URLSETTER_ROLE",
      "outputs": [
        {
          "internalType": "bytes32",
          "name": "",
          "type": "bytes32"
        }
      ],
      "stateMutability": "view",
      "type": "function"
    },
    {
      "inputs": [
        {
          "internalType": "address",
          "name": "to",
          "type": "address"
        },
        {
          "internalType": "uint256",
          "name": "tokenId",
          "type": "uint256"
        }
      ],
      "name": "approve",
      "outputs": [],
      "stateMutability": "nonpayable",
      "type": "function"
    },
    {
      "inputs": [
        {
          "internalType": "address",
          "name": "owner",
          "type": "address"
        }
      ],
      "name": "balanceOf",
      "outputs": [
        {
          "internalType": "uint256",
          "name": "",
          "type": "uint256"
        }
      ],
      "stateMutability": "view",
      "type": "function"
    },
    {
      "inputs": [
        {
          "internalType": "uint256",
          "name": "tokenId",
          "type": "uint256"
        }
      ],
      "name": "burn",
      "outputs": [],
      "stateMutability": "nonpayable",
      "type": "function"
    },
    {
      "inputs": [
        {
          "internalType": "uint256",
          "name": "",
          "type": "uint256"
        }
      ],
      "name": "cids",
      "outputs": [
        {
          "internalType": "string",
          "name": "",
          "type": "string"
        }
      ],
      "stateMutability": "view",
      "type": "function"
    },
    {
      "inputs": [
        {
          "internalType": "uint256",
          "name": "tokenId",
          "type": "uint256"
        }
      ],
      "name": "getApproved",
      "outputs": [
        {
          "internalType": "address",
          "name": "",
          "type": "address"
        }
      ],
      "stateMutability": "view",
      "type": "function"
    },
    {
      "inputs": [
        {
          "internalType": "bytes32",
          "name": "role",
          "type": "bytes32"
        }
      ],
      "name": "getRoleAdmin",
      "outputs": [
        {
          "internalType": "bytes32",
          "name": "",
          "type": "bytes32"
        }
      ],
      "stateMutability": "view",
      "type": "function"
    },
    {
      "inputs": [
        {
          "internalType": "bytes32",
          "name": "role",
          "type": "bytes32"
        },
        {
          "internalType": "uint256",
          "name": "index",
          "type": "uint256"
        }
      ],
      "name": "getRoleMember",
      "outputs": [
        {
          "internalType": "address",
          "name": "",
          "type": "address"
        }
      ],
      "stateMutability": "view",
      "type": "function"
    },
    {
      "inputs": [
        {
          "internalType": "bytes32",
          "name": "role",
          "type": "bytes32"
        }
      ],
      "name": "getRoleMemberCount",
      "outputs": [
        {
          "internalType": "uint256",
          "name": "",
          "type": "uint256"
        }
      ],
      "stateMutability": "view",
      "type": "function"
    },
    {
      "inputs": [
        {
          "internalType": "bytes32",
          "name": "role",
          "type": "bytes32"
        },
        {
          "internalType": "address",
          "name": "account",
          "type": "address"
        }
      ],
      "name": "grantRole",
      "outputs": [],
      "stateMutability": "nonpayable",
      "type": "function"
    },
    {
      "inputs": [
        {
          "internalType": "bytes32",
          "name": "role",
          "type": "bytes32"
        },
        {
          "internalType": "address",
          "name": "account",
          "type": "address"
        }
      ],
      "name": "hasRole",
      "outputs": [
        {
          "internalType": "bool",
          "name": "",
          "type": "bool"
        }
      ],
      "stateMutability": "view",
      "type": "function"
    },
    {
      "inputs": [
        {
          "internalType": "address",
          "name": "owner",
          "type": "address"
        },
        {
          "internalType": "address",
          "name": "operator",
          "type": "address"
        }
      ],
      "name": "isApprovedForAll",
      "outputs": [
        {
          "internalType": "bool",
          "name": "",
          "type": "bool"
        }
      ],
      "stateMutability": "view",
      "type": "function"
    },
    {
      "inputs": [],
      "name": "name",
      "outputs": [
        {
          "internalType": "string",
          "name": "",
          "type": "string"
        }
      ],
      "stateMutability": "view",
      "type": "function"
    },
    {
      "inputs": [
        {
          "internalType": "uint256",
          "name": "tokenId",
          "type": "uint256"
        }
      ],
      "name": "ownerOf",
      "outputs": [
        {
          "internalType": "address",
          "name": "",
          "type": "address"
        }
      ],
      "stateMutability": "view",
      "type": "function"
    },
    {
      "inputs": [],
      "name": "pause",
      "outputs": [],
      "stateMutability": "nonpayable",
      "type": "function"
    },
    {
      "inputs": [],
      "name": "paused",
      "outputs": [
        {
          "internalType": "bool",
          "name": "",
          "type": "bool"
        }
      ],
      "stateMutability": "view",
      "type": "function"
    },
    {
      "inputs": [
        {
          "internalType": "bytes32",
          "name": "role",
          "type": "bytes32"
        },
        {
          "internalType": "address",
          "name": "account",
          "type": "address"
        }
      ],
      "name": "renounceRole",
      "outputs": [],
      "stateMutability": "nonpayable",
      "type": "function"
    },
    {
      "inputs": [
        {
          "internalType": "bytes32",
          "name": "role",
          "type": "bytes32"
        },
        {
          "internalType": "address",
          "name": "account",
          "type": "address"
        }
      ],
      "name": "revokeRole",
      "outputs": [],
      "stateMutability": "nonpayable",
      "type": "function"
    },
    {
      "inputs": [
        {
          "internalType": "address",
          "name": "from",
          "type": "address"
        },
        {
          "internalType": "address",
          "name": "to",
          "type": "address"
        },
        {
          "internalType": "uint256",
          "name": "tokenId",
          "type": "uint256"
        }
      ],
      "name": "safeTransferFrom",
      "outputs": [],
      "stateMutability": "nonpayable",
      "type": "function"
    },
    {
      "inputs": [
        {
          "internalType": "address",
          "name": "from",
          "type": "address"
        },
        {
          "internalType": "address",
          "name": "to",
          "type": "address"
        },
        {
          "internalType": "uint256",
          "name": "tokenId",
          "type": "uint256"
        },
        {
          "internalType": "bytes",
          "name": "data",
          "type": "bytes"
        }
      ],
      "name": "safeTransferFrom",
      "outputs": [],
      "stateMutability": "nonpayable",
      "type": "function"
    },
    {
      "inputs": [
        {
          "internalType": "address",
          "name": "operator",
          "type": "address"
        },
        {
          "internalType": "bool",
          "name": "approved",
          "type": "bool"
        }
      ],
      "name": "setApprovalForAll",
      "outputs": [],
      "stateMutability": "nonpayable",
      "type": "function"
    },
    {
      "inputs": [
        {
          "internalType": "bytes4",
          "name": "interfaceId",
          "type": "bytes4"
        }
      ],
      "name": "supportsInterface",
      "outputs": [
        {
          "internalType": "bool",
          "name": "",
          "type": "bool"
        }
      ],
      "stateMutability": "view",
      "type": "function"
    },
    {
      "inputs": [],
      "name": "symbol",
      "outputs": [
        {
          "internalType": "string",
          "name": "",
          "type": "string"
        }
      ],
      "stateMutability": "view",
      "type": "function"
    },
    {
      "inputs": [
        {
          "internalType": "uint256",
          "name": "index",
          "type": "uint256"
        }
      ],
      "name": "tokenByIndex",
      "outputs": [
        {
          "internalType": "uint256",
          "name": "",
          "type": "uint256"
        }
      ],
      "stateMutability": "view",
      "type": "function"
    },
    {
      "inputs": [
        {
          "internalType": "address",
          "name": "owner",
          "type": "address"
        },
        {
          "internalType": "uint256",
          "name": "index",
          "type": "uint256"
        }
      ],
      "name": "tokenOfOwnerByIndex",
      "outputs": [
        {
          "internalType": "uint256",
          "name": "",
          "type": "uint256"
        }
      ],
      "stateMutability": "view",
      "type": "function"
    },
    {
      "inputs": [],
      "name": "totalSupply",
      "outputs": [
        {
          "internalType": "uint256",
          "name": "",
          "type": "uint256"
        }
      ],
      "stateMutability": "view",
      "type": "function"
    },
    {
      "inputs": [
        {
          "internalType": "address",
          "name": "from",
          "type": "address"
        },
        {
          "internalType": "address",
          "name": "to",
          "type": "address"
        },
        {
          "internalType": "uint256",
          "name": "tokenId",
          "type": "uint256"
        }
      ],
      "name": "transferFrom",
      "outputs": [],
      "stateMutability": "nonpayable",
      "type": "function"
    },
    {
      "inputs": [],
      "name": "unpause",
      "outputs": [],
      "stateMutability": "nonpayable",
      "type": "function"
    },
    {
      "inputs": [
        {
          "internalType": "uint256",
          "name": "id",
          "type": "uint256"
        }
      ],
      "name": "adminBurn",
      "outputs": [],
      "stateMutability": "nonpayable",
      "type": "function"
    },
    {
      "inputs": [
        {
          "internalType": "uint256",
          "name": "tokenId",
          "type": "uint256"
        }
      ],
      "name": "tokenURI",
      "outputs": [
        {
          "internalType": "string",
          "name": "",
          "type": "string"
        }
      ],
      "stateMutability": "view",
      "type": "function"
    },
    {
      "inputs": [
        {
          "internalType": "string",
          "name": "uri",
          "type": "string"
        }
      ],
      "name": "setBaseURI",
      "outputs": [],
      "stateMutability": "nonpayable",
      "type": "function"
    },
    {
      "inputs": [
        {
          "internalType": "address",
          "name": "to",
          "type": "address"
        },
        {
          "internalType": "string",
          "name": "cid",
          "type": "string"
        }
      ],
      "name": "adminMint",
      "outputs": [],
      "stateMutability": "nonpayable",
      "type": "function"
    },
    {
      "inputs": [
        {
          "internalType": "address",
          "name": "owner",
          "type": "address"
        },
        {
          "internalType": "uint256",
          "name": "startIndex",
          "type": "uint256"
        },
        {
          "internalType": "uint256",
          "name": "endIndex",
          "type": "uint256"
        }
      ],
      "name": "tokensOf",
      "outputs": [
        {
          "internalType": "uint256[]",
          "name": "result",
          "type": "uint256[]"
        }
      ],
      "stateMutability": "view",
      "type": "function"
    },
    {
      "inputs": [
        {
          "internalType": "address",
          "name": "to",
          "type": "address"
        }
      ],
      "name": "mint",
      "outputs": [],
      "stateMutability": "nonpayable",
      "type": "function"
    }
  ],
  "bytecode": "0x60806040523480156200001157600080fd5b50604051620031ed380380620031ed83398101604081905262000034916200044c565b8181604051806020016040528060008152508282816002908051906020019062000060929190620002d9565b50805162000076906003906020840190620002d9565b5050600c805460ff191690555080516200009890600e906020840190620002d9565b50620000ac60003362000174565b62000174565b620000d87f9f2df0fed2c77648de5860a4cc508cd0818c85b8b8a1ab4ceeef8d981c8956a63362000174565b620001047f65d7a28e3265b37a6474929f336521b332c1681b933f6cb9f3376673440d862a3362000174565b5050506200013c7fe97b137254058bd94f28d2f3eb79e2d34074ffb488d042e3bc958e0a57d2fa22620000a66200017060201b60201c565b620001687f8207333f63dadcd0f8115c92187d0d7102dbcb682d67cc7f9dfccbfc085348be3362000174565b5050620004f2565b3390565b62000180828262000184565b5050565b6200019b8282620001c760201b620012391760201c565b6000828152600160209081526040909120620001c2918390620012bd62000267821b17901c565b505050565b6000828152602081815260408083206001600160a01b038516845290915290205460ff1662000180576000828152602081815260408083206001600160a01b03851684529091529020805460ff19166001179055620002233390565b6001600160a01b0316816001600160a01b0316837f2f8788117e7eff1d82e926ec794901d17c78024a50270940304540a733656f0d60405160405180910390a45050565b60006200027e836001600160a01b03841662000287565b90505b92915050565b6000818152600183016020526040812054620002d05750815460018181018455600084815260208082209093018490558454848252828601909352604090209190915562000281565b50600062000281565b828054620002e790620004b6565b90600052602060002090601f0160209004810192826200030b576000855562000356565b82601f106200032657805160ff191683800117855562000356565b8280016001018555821562000356579182015b828111156200035657825182559160200191906001019062000339565b506200036492915062000368565b5090565b5b8082111562000364576000815560010162000369565b634e487b7160e01b600052604160045260246000fd5b600082601f830112620003a757600080fd5b81516001600160401b0380821115620003c457620003c46200037f565b604051601f8301601f19908116603f01168101908282118183101715620003ef57620003ef6200037f565b816040528381526020925086838588010111156200040c57600080fd5b600091505b8382101562000430578582018301518183018401529082019062000411565b83821115620004425760008385830101525b9695505050505050565b600080604083850312156200046057600080fd5b82516001600160401b03808211156200047857600080fd5b620004868683870162000395565b935060208501519150808211156200049d57600080fd5b50620004ac8582860162000395565b9150509250929050565b600181811c90821680620004cb57607f821691505b602082108103620004ec57634e487b7160e01b600052602260045260246000fd5b50919050565b612ceb80620005026000396000f3fe608060405234801561001057600080fd5b50600436106102325760003560e01c80636a62784211610130578063a24b951e116100b8578063ca15c8731161007c578063ca15c873146104e9578063d5391393146104fc578063d547741f14610523578063e63ab1e914610536578063e985e9c51461055d57600080fd5b8063a24b951e14610462578063b88d4fde14610489578063b930908f1461049c578063badb97ff146104c3578063c87b56dd146104d657600080fd5b80639010d07c116100ff5780639010d07c1461041957806391d148541461042c57806395d89b411461043f578063a217fddf14610447578063a22cb4651461044f57600080fd5b80636a627842146103da578063704fe710146103eb57806370a08231146103fe5780638456cb591461041157600080fd5b80632f745c59116101be5780634f6ccce7116101825780634f6ccce71461038357806355f804b3146103965780635919c74b146103a95780635c975abb146103bc5780636352211e146103c757600080fd5b80632f745c591461032f57806336568abe146103425780633f4ba83a1461035557806342842e0e1461035d57806342966c681461037057600080fd5b806318160ddd1161020557806318160ddd146102b457806323185dc9146102c657806323b872dd146102e6578063248a9ca3146102f95780632f2ff15d1461031c57600080fd5b806301ffc9a71461023757806306fdde031461025f578063081812fc14610274578063095ea7b31461029f575b600080fd5b61024a610245366004612544565b610599565b60405190151581526020015b60405180910390f35b6102676105aa565b60405161025691906125b9565b6102876102823660046125cc565b61063c565b6040516001600160a01b039091168152602001610256565b6102b26102ad366004612601565b610663565b005b600a545b604051908152602001610256565b6102d96102d436600461262b565b61077d565b604051610256919061265e565b6102b26102f43660046126a2565b61097f565b6102b86103073660046125cc565b60009081526020819052604090206001015490565b6102b261032a3660046126de565b6109b1565b6102b861033d366004612601565b6109d6565b6102b26103503660046126de565b610a6c565b6102b2610aea565b6102b261036b3660046126a2565b610b92565b6102b261037e3660046125cc565b610bad565b6102b86103913660046125cc565b610bdb565b6102b26103a43660046127b6565b610c6e565b6102b26103b73660046127eb565b610d08565b600c5460ff1661024a565b6102876103d53660046125cc565b610dec565b6102b26103e8366004612839565b50565b6102676103f93660046125cc565b610e4c565b6102b861040c366004612839565b610ee6565b6102b2610f6c565b610287610427366004612854565b611010565b61024a61043a3660046126de565b611028565b610267611051565b6102b8600081565b6102b261045d366004612876565b611060565b6102b87f8207333f63dadcd0f8115c92187d0d7102dbcb682d67cc7f9dfccbfc085348be81565b6102b26104973660046128b2565b61106b565b6102b87fe97b137254058bd94f28d2f3eb79e2d34074ffb488d042e3bc958e0a57d2fa2281565b6102b26104d13660046125cc565b6110a3565b6102676104e43660046125cc565b611119565b6102b86104f73660046125cc565b6111fd565b6102b87f9f2df0fed2c77648de5860a4cc508cd0818c85b8b8a1ab4ceeef8d981c8956a681565b6102b26105313660046126de565b611214565b6102b87f65d7a28e3265b37a6474929f336521b332c1681b933f6cb9f3376673440d862a81565b61024a61056b36600461292e565b6001600160a01b03918216600090815260076020908152604080832093909416825291909152205460ff1690565b60006105a4826112d2565b92915050565b6060600280546105b990612958565b80601f01602080910402602001604051908101604052809291908181526020018280546105e590612958565b80156106325780601f1061060757610100808354040283529160200191610632565b820191906000526020600020905b81548152906001019060200180831161061557829003601f168201915b5050505050905090565b6000610647826112f7565b506000908152600660205260409020546001600160a01b031690565b600061066e82610dec565b9050806001600160a01b0316836001600160a01b0316036106e05760405162461bcd60e51b815260206004820152602160248201527f4552433732313a20617070726f76616c20746f2063757272656e74206f776e656044820152603960f91b60648201526084015b60405180910390fd5b336001600160a01b03821614806106fc57506106fc813361056b565b61076e5760405162461bcd60e51b815260206004820152603d60248201527f4552433732313a20617070726f76652063616c6c6572206973206e6f7420746f60448201527f6b656e206f776e6572206f7220617070726f76656420666f7220616c6c00000060648201526084016106d7565b6107788383611356565b505050565b60606001600160a01b0384166107cd5760405162461bcd60e51b81526020600482015260156024820152746f776e6572206973207a65726f206164647265737360581b60448201526064016106d7565b8183111561080d5760405162461bcd60e51b815260206004820152600d60248201526c0d2dcecc2d8d2c840d2dcc8caf609b1b60448201526064016106d7565b6001600160a01b038416600090815260126020526040902080548311156108665760405162461bcd60e51b815260206004820152600d60248201526c0d2dcecc2d8d2c840d2dcc8caf609b1b60448201526064016106d7565b826000036108c2578054604080516020808402820181019092528281529183918301828280156108b557602002820191906000526020600020905b8154815260200190600101908083116108a1575b5050505050915050610978565b60006108ce85856129a8565b90508067ffffffffffffffff8111156108e9576108e961270a565b604051908082528060200260200182016040528015610912578160200160208202803683370190505b50925060005b818114610974578261092a82886129bf565b8154811061093a5761093a6129d7565b9060005260206000200154848281518110610957576109576129d7565b60209081029190910101528061096c816129ed565b915050610918565b5050505b9392505050565b61098a335b826113c4565b6109a65760405162461bcd60e51b81526004016106d790612a06565b610778838383611443565b6000828152602081905260409020600101546109cc81611462565b610778838361146c565b60006109e183610ee6565b8210610a435760405162461bcd60e51b815260206004820152602b60248201527f455243373231456e756d657261626c653a206f776e657220696e646578206f7560448201526a74206f6620626f756e647360a81b60648201526084016106d7565b506001600160a01b03919091166000908152600860209081526040808320938352929052205490565b6001600160a01b0381163314610adc5760405162461bcd60e51b815260206004820152602f60248201527f416363657373436f6e74726f6c3a2063616e206f6e6c792072656e6f756e636560448201526e103937b632b9903337b91039b2b63360891b60648201526084016106d7565b610ae6828261148e565b5050565b610b147f65d7a28e3265b37a6474929f336521b332c1681b933f6cb9f3376673440d862a33611028565b610b88576040805162461bcd60e51b81526020600482015260248101919091527f4552433732315072657365744d696e7465725061757365724175746f49643a2060448201527f6d75737420686176652070617573657220726f6c6520746f20756e706175736560648201526084016106d7565b610b906114b0565b565b6107788383836040518060200160405280600081525061106b565b610bb633610984565b610bd25760405162461bcd60e51b81526004016106d790612a06565b6103e881611502565b6000610be6600a5490565b8210610c495760405162461bcd60e51b815260206004820152602c60248201527f455243373231456e756d657261626c653a20676c6f62616c20696e646578206f60448201526b7574206f6620626f756e647360a01b60648201526084016106d7565b600a8281548110610c5c57610c5c6129d7565b90600052602060002001549050919050565b610c987f8207333f63dadcd0f8115c92187d0d7102dbcb682d67cc7f9dfccbfc085348be33611028565b610cf55760405162461bcd60e51b815260206004820152602860248201527f4d75737420686176652055524c5345545445525f524f4c4520726f6c6520746f604482015267207365742075726960c01b60648201526084016106d7565b8051610ae690600f906020840190612495565b610d327f9f2df0fed2c77648de5860a4cc508cd0818c85b8b8a1ab4ceeef8d981c8956a633611028565b610da45760405162461bcd60e51b815260206004820152603d60248201527f4552433732315072657365744d696e7465725061757365724175746f49643a2060448201527f6d7573742068617665206d696e74657220726f6c6520746f206d696e7400000060648201526084016106d7565b6000610daf60105490565b60008181526011602090815260409091208451929350610dd3929091850190612495565b50610dde8382611522565b610778601080546001019055565b6000818152600460205260408120546001600160a01b0316806105a45760405162461bcd60e51b8152602060048201526018602482015277115490cdcc8c4e881a5b9d985b1a59081d1bdad95b88125160421b60448201526064016106d7565b60116020526000908152604090208054610e6590612958565b80601f0160208091040260200160405190810160405280929190818152602001828054610e9190612958565b8015610ede5780601f10610eb357610100808354040283529160200191610ede565b820191906000526020600020905b815481529060010190602001808311610ec157829003601f168201915b505050505081565b60006001600160a01b038216610f505760405162461bcd60e51b815260206004820152602960248201527f4552433732313a2061646472657373207a65726f206973206e6f7420612076616044820152683634b21037bbb732b960b91b60648201526084016106d7565b506001600160a01b031660009081526005602052604090205490565b610f967f65d7a28e3265b37a6474929f336521b332c1681b933f6cb9f3376673440d862a33611028565b6110085760405162461bcd60e51b815260206004820152603e60248201527f4552433732315072657365744d696e7465725061757365724175746f49643a2060448201527f6d75737420686176652070617573657220726f6c6520746f207061757365000060648201526084016106d7565b610b90611536565b60008281526001602052604081206109789083611573565b6000918252602082815260408084206001600160a01b0393909316845291905290205460ff1690565b6060600380546105b990612958565b610ae633838361157f565b61107533836113c4565b6110915760405162461bcd60e51b81526004016106d790612a06565b61109d8484848461164d565b50505050565b6110cd7fe97b137254058bd94f28d2f3eb79e2d34074ffb488d042e3bc958e0a57d2fa2233611028565b610bd25760405162461bcd60e51b815260206004820152601b60248201527f4d7573742068617665206275726e20726f6c6520746f206275726e000000000060448201526064016106d7565b6000818152600460205260409020546060906001600160a01b03166111985760405162461bcd60e51b815260206004820152602f60248201527f4552433732314d657461646174613a2055524920717565727920666f72206e6f60448201526e3732bc34b9ba32b73a103a37b5b2b760891b60648201526084016106d7565b60006111a2611680565b905060008151116111c25760405180602001604052806000815250610978565b80601160008581526020019081526020016000206040516020016111e7929190612a53565b6040516020818303038152906040529392505050565b60008181526001602052604081206105a49061168f565b60008281526020819052604090206001015461122f81611462565b610778838361148e565b6112438282611028565b610ae6576000828152602081815260408083206001600160a01b03851684529091529020805460ff191660011790556112793390565b6001600160a01b0316816001600160a01b0316837f2f8788117e7eff1d82e926ec794901d17c78024a50270940304540a733656f0d60405160405180910390a45050565b6000610978836001600160a01b038416611699565b60006001600160e01b0319821663780e9d6360e01b14806105a457506105a4826116e8565b6000818152600460205260409020546001600160a01b03166103e85760405162461bcd60e51b8152602060048201526018602482015277115490cdcc8c4e881a5b9d985b1a59081d1bdad95b88125160421b60448201526064016106d7565b600081815260066020526040902080546001600160a01b0319166001600160a01b038416908117909155819061138b82610dec565b6001600160a01b03167f8c5be1e5ebec7d5bd14f71427d1e84f3dd0314c0f7b2291e5b200ac8c7c3b92560405160405180910390a45050565b6000806113d083610dec565b9050806001600160a01b0316846001600160a01b0316148061141757506001600160a01b0380821660009081526007602090815260408083209388168352929052205460ff165b8061143b5750836001600160a01b03166114308461063c565b6001600160a01b0316145b949350505050565b61144e838383611728565b6114588382611899565b6107788282611955565b6103e8813361198e565b6114768282611239565b600082815260016020526040902061077890826112bd565b61149882826119e7565b60008281526001602052604090206107789082611a4c565b6114b8611a61565b600c805460ff191690557f5db9ee0a495bf2e6ff9c91a7834c1ba4fdd244a5e8aa4e537bd38aeae4b073aa335b6040516001600160a01b03909116815260200160405180910390a1565b600061150d82610dec565b905061151882611aaa565b610ae68183611899565b61152c8282611b4d565b610ae68282611955565b61153e611ce6565b600c805460ff191660011790557f62e78cea01bee320cd4e420270b5ea74000d11b0c9f74754ebdbfc544b05a2586114e53390565b60006109788383611d2c565b816001600160a01b0316836001600160a01b0316036115e05760405162461bcd60e51b815260206004820152601960248201527f4552433732313a20617070726f766520746f2063616c6c65720000000000000060448201526064016106d7565b6001600160a01b03838116600081815260076020908152604080832094871680845294825291829020805460ff191686151590811790915591519182527f17307eab39ab6107e8899845ad3d59bd9653f200f220920489ca2b5937696c31910160405180910390a3505050565b611658848484611443565b61166484848484611d56565b61109d5760405162461bcd60e51b81526004016106d790612b03565b6060600f80546105b990612958565b60006105a4825490565b60008181526001830160205260408120546116e0575081546001818101845560008481526020808220909301849055845484825282860190935260409020919091556105a4565b5060006105a4565b60006001600160e01b031982166380ac58cd60e01b148061171957506001600160e01b03198216635b5e139f60e01b145b806105a457506105a482611e57565b826001600160a01b031661173b82610dec565b6001600160a01b0316146117615760405162461bcd60e51b81526004016106d790612b55565b6001600160a01b0382166117c35760405162461bcd60e51b8152602060048201526024808201527f4552433732313a207472616e7366657220746f20746865207a65726f206164646044820152637265737360e01b60648201526084016106d7565b6117d08383836001611e7c565b826001600160a01b03166117e382610dec565b6001600160a01b0316146118095760405162461bcd60e51b81526004016106d790612b55565b600081815260066020908152604080832080546001600160a01b03199081169091556001600160a01b0387811680865260058552838620805460001901905590871680865283862080546001019055868652600490945282852080549092168417909155905184937fddf252ad1be2c89b69c2b068fc378daa952ba7f163c4a11628f55a4df523b3ef91a4505050565b6000818152601360209081526040808320546001600160a01b0386168452601290925282208054919290916118d0906001906129a8565b905060008282815481106118e6576118e66129d7565b9060005260206000200154905080838581548110611906576119066129d7565b6000918252602080832090910192909255828152601390915260409020849055825483908061193757611937612b9a565b60019003818190600052602060002001600090559055505050505050565b6001600160a01b039091166000908152601260209081526040808320805485855260138452918420829055600182018155835291200155565b6119988282611028565b610ae6576119a581611e88565b6119b0836020611e9a565b6040516020016119c1929190612bb0565b60408051601f198184030181529082905262461bcd60e51b82526106d7916004016125b9565b6119f18282611028565b15610ae6576000828152602081815260408083206001600160a01b0385168085529252808320805460ff1916905551339285917ff6391f5c32d9c69d2a47ea670b442974b53935d1edc7fd64eb21e047a839171b9190a45050565b6000610978836001600160a01b038416612036565b600c5460ff16610b905760405162461bcd60e51b815260206004820152601460248201527314185d5cd8589b194e881b9bdd081c185d5cd95960621b60448201526064016106d7565b6000611ab582610dec565b9050611ac5816000846001611e7c565b611ace82610dec565b600083815260066020908152604080832080546001600160a01b03199081169091556001600160a01b0385168085526005845282852080546000190190558785526004909352818420805490911690555192935084927fddf252ad1be2c89b69c2b068fc378daa952ba7f163c4a11628f55a4df523b3ef908390a45050565b6001600160a01b038216611ba35760405162461bcd60e51b815260206004820181905260248201527f4552433732313a206d696e7420746f20746865207a65726f206164647265737360448201526064016106d7565b6000818152600460205260409020546001600160a01b031615611c085760405162461bcd60e51b815260206004820152601c60248201527f4552433732313a20746f6b656e20616c7265616479206d696e7465640000000060448201526064016106d7565b611c16600083836001611e7c565b6000818152600460205260409020546001600160a01b031615611c7b5760405162461bcd60e51b815260206004820152601c60248201527f4552433732313a20746f6b656e20616c7265616479206d696e7465640000000060448201526064016106d7565b6001600160a01b038216600081815260056020908152604080832080546001019055848352600490915280822080546001600160a01b0319168417905551839291907fddf252ad1be2c89b69c2b068fc378daa952ba7f163c4a11628f55a4df523b3ef908290a45050565b600c5460ff1615610b905760405162461bcd60e51b815260206004820152601060248201526f14185d5cd8589b194e881c185d5cd95960821b60448201526064016106d7565b6000826000018281548110611d4357611d436129d7565b9060005260206000200154905092915050565b60006001600160a01b0384163b15611e4c57604051630a85bd0160e11b81526001600160a01b0385169063150b7a0290611d9a903390899088908890600401612c25565b6020604051808303816000875af1925050508015611dd5575060408051601f3d908101601f19168201909252611dd291810190612c62565b60015b611e32573d808015611e03576040519150601f19603f3d011682016040523d82523d6000602084013e611e08565b606091505b508051600003611e2a5760405162461bcd60e51b81526004016106d790612b03565b805181602001fd5b6001600160e01b031916630a85bd0160e11b14905061143b565b506001949350505050565b60006001600160e01b03198216635a05180f60e01b14806105a457506105a482612129565b61109d8484848461215e565b60606105a46001600160a01b03831660145b60606000611ea9836002612c7f565b611eb49060026129bf565b67ffffffffffffffff811115611ecc57611ecc61270a565b6040519080825280601f01601f191660200182016040528015611ef6576020820181803683370190505b509050600360fc1b81600081518110611f1157611f116129d7565b60200101906001600160f81b031916908160001a905350600f60fb1b81600181518110611f4057611f406129d7565b60200101906001600160f81b031916908160001a9053506000611f64846002612c7f565b611f6f9060016129bf565b90505b6001811115611fe7576f181899199a1a9b1b9c1cb0b131b232b360811b85600f1660108110611fa357611fa36129d7565b1a60f81b828281518110611fb957611fb96129d7565b60200101906001600160f81b031916908160001a90535060049490941c93611fe081612c9e565b9050611f72565b5083156109785760405162461bcd60e51b815260206004820181905260248201527f537472696e67733a20686578206c656e67746820696e73756666696369656e7460448201526064016106d7565b6000818152600183016020526040812054801561211f57600061205a6001836129a8565b855490915060009061206e906001906129a8565b90508181146120d357600086600001828154811061208e5761208e6129d7565b90600052602060002001549050808760000184815481106120b1576120b16129d7565b6000918252602080832090910192909255918252600188019052604090208390555b85548690806120e4576120e4612b9a565b6001900381819060005260206000200160009055905585600101600086815260200190815260200160002060009055600193505050506105a4565b60009150506105a4565b60006001600160e01b03198216637965db0b60e01b14806105a457506301ffc9a760e01b6001600160e01b03198316146105a4565b61216a848484846121d1565b600c5460ff161561109d5760405162461bcd60e51b815260206004820152602b60248201527f4552433732315061757361626c653a20746f6b656e207472616e73666572207760448201526a1a1a5b19481c185d5cd95960aa1b60648201526084016106d7565b60018111156122405760405162461bcd60e51b815260206004820152603560248201527f455243373231456e756d657261626c653a20636f6e7365637574697665207472604482015274185b9cd9995c9cc81b9bdd081cdd5c1c1bdc9d1959605a1b60648201526084016106d7565b816001600160a01b03851661229c5761229781600a80546000838152600b60205260408120829055600182018355919091527fc65a7bb8d6351c1cf70c95a316cc6a92839c986682d98bc35f958f4883f9d2a80155565b6122bf565b836001600160a01b0316856001600160a01b0316146122bf576122bf8582612305565b6001600160a01b0384166122db576122d6816123a2565b6122fe565b846001600160a01b0316846001600160a01b0316146122fe576122fe8482612451565b5050505050565b6000600161231284610ee6565b61231c91906129a8565b60008381526009602052604090205490915080821461236f576001600160a01b03841660009081526008602090815260408083208584528252808320548484528184208190558352600990915290208190555b5060009182526009602090815260408084208490556001600160a01b039094168352600881528383209183525290812055565b600a546000906123b4906001906129a8565b6000838152600b6020526040812054600a80549394509092849081106123dc576123dc6129d7565b9060005260206000200154905080600a83815481106123fd576123fd6129d7565b6000918252602080832090910192909255828152600b9091526040808220849055858252812055600a80548061243557612435612b9a565b6001900381819060005260206000200160009055905550505050565b600061245c83610ee6565b6001600160a01b039093166000908152600860209081526040808320868452825280832085905593825260099052919091209190915550565b8280546124a190612958565b90600052602060002090601f0160209004810192826124c35760008555612509565b82601f106124dc57805160ff1916838001178555612509565b82800160010185558215612509579182015b828111156125095782518255916020019190600101906124ee565b50612515929150612519565b5090565b5b80821115612515576000815560010161251a565b6001600160e01b0319811681146103e857600080fd5b60006020828403121561255657600080fd5b81356109788161252e565b60005b8381101561257c578181015183820152602001612564565b8381111561109d5750506000910152565b600081518084526125a5816020860160208601612561565b601f01601f19169290920160200192915050565b602081526000610978602083018461258d565b6000602082840312156125de57600080fd5b5035919050565b80356001600160a01b03811681146125fc57600080fd5b919050565b6000806040838503121561261457600080fd5b61261d836125e5565b946020939093013593505050565b60008060006060848603121561264057600080fd5b612649846125e5565b95602085013595506040909401359392505050565b6020808252825182820181905260009190848201906040850190845b818110156126965783518352928401929184019160010161267a565b50909695505050505050565b6000806000606084860312156126b757600080fd5b6126c0846125e5565b92506126ce602085016125e5565b9150604084013590509250925092565b600080604083850312156126f157600080fd5b82359150612701602084016125e5565b90509250929050565b634e487b7160e01b600052604160045260246000fd5b600067ffffffffffffffff8084111561273b5761273b61270a565b604051601f8501601f19908116603f011681019082821181831017156127635761276361270a565b8160405280935085815286868601111561277c57600080fd5b858560208301376000602087830101525050509392505050565b600082601f8301126127a757600080fd5b61097883833560208501612720565b6000602082840312156127c857600080fd5b813567ffffffffffffffff8111156127df57600080fd5b61143b84828501612796565b600080604083850312156127fe57600080fd5b612807836125e5565b9150602083013567ffffffffffffffff81111561282357600080fd5b61282f85828601612796565b9150509250929050565b60006020828403121561284b57600080fd5b610978826125e5565b6000806040838503121561286757600080fd5b50508035926020909101359150565b6000806040838503121561288957600080fd5b612892836125e5565b9150602083013580151581146128a757600080fd5b809150509250929050565b600080600080608085870312156128c857600080fd5b6128d1856125e5565b93506128df602086016125e5565b925060408501359150606085013567ffffffffffffffff81111561290257600080fd5b8501601f8101871361291357600080fd5b61292287823560208401612720565b91505092959194509250565b6000806040838503121561294157600080fd5b61294a836125e5565b9150612701602084016125e5565b600181811c9082168061296c57607f821691505b60208210810361298c57634e487b7160e01b600052602260045260246000fd5b50919050565b634e487b7160e01b600052601160045260246000fd5b6000828210156129ba576129ba612992565b500390565b600082198211156129d2576129d2612992565b500190565b634e487b7160e01b600052603260045260246000fd5b6000600182016129ff576129ff612992565b5060010190565b6020808252602d908201527f4552433732313a2063616c6c6572206973206e6f7420746f6b656e206f776e6560408201526c1c881bdc88185c1c1c9bdd9959609a1b606082015260800190565b600083516020612a668285838901612561565b845491840191600090600181811c9080831680612a8457607f831692505b8583108103612aa157634e487b7160e01b85526022600452602485fd5b808015612ab55760018114612ac657612af3565b60ff19851688528388019550612af3565b60008b81526020902060005b85811015612aeb5781548a820152908401908801612ad2565b505083880195505b50939a9950505050505050505050565b60208082526032908201527f4552433732313a207472616e7366657220746f206e6f6e20455243373231526560408201527131b2b4bb32b91034b6b83632b6b2b73a32b960711b606082015260800190565b60208082526025908201527f4552433732313a207472616e736665722066726f6d20696e636f72726563742060408201526437bbb732b960d91b606082015260800190565b634e487b7160e01b600052603160045260246000fd5b7f416363657373436f6e74726f6c3a206163636f756e7420000000000000000000815260008351612be8816017850160208801612561565b7001034b99036b4b9b9b4b733903937b6329607d1b6017918401918201528351612c19816028840160208801612561565b01602801949350505050565b6001600160a01b0385811682528416602082015260408101839052608060608201819052600090612c589083018461258d565b9695505050505050565b600060208284031215612c7457600080fd5b81516109788161252e565b6000816000190483118215151615612c9957612c99612992565b500290565b600081612cad57612cad612992565b50600019019056fea26469706673582212207bdea0026fd1e08b7fc411e80bb798b9ded3ac02471eba72a266c6b3e4d6d7a464736f6c634300080d0033",
  "immutableReferences": {},
  "source": "//SPDX-License-Identifier: Unlicense\npragma solidity ^0.8.0;\npragma experimental ABIEncoderV2;\n\nimport \"@openzeppelin/contracts/utils/Strings.sol\";\nimport \"@openzeppelin/contracts/utils/Counters.sol\";\nimport \"@openzeppelin/contracts/token/ERC721/presets/ERC721PresetMinterPauserAutoId.sol\";\n\ncontract Tradable721 is ERC721PresetMinterPauserAutoId {\n    using Strings for uint256;\n    using Counters for Counters.Counter;\n\n    bytes32 public constant BURN_ROLE = keccak256(\"BURN_ROLE\");\n    bytes32 public constant URLSETTER_ROLE = keccak256(\"URLSETTER_ROLE\");\n\n    string _baseTokenURI;\n    Counters.Counter _tokenIdTracker;\n\n    // token id => ipfs cid\n    mapping(uint256 => string) public cids;\n\n    //address => ids\n    mapping(address => uint256[]) internal ownerTokens;\n    mapping(uint256 => uint256) internal tokenIndexs;\n\n    // mapping(uint256 => address) internal tokenOwners;\n\n    constructor(string memory name, string memory symbol) ERC721PresetMinterPauserAutoId(name, symbol, \"\") {\n        _setupRole(BURN_ROLE, _msgSender());\n        _setupRole(URLSETTER_ROLE, _msgSender());\n    }\n\n    function adminBurn(uint256 id) public {\n        require(hasRole(BURN_ROLE, _msgSender()), \"Must have burn role to burn\");\n        _burn(id);\n    }\n\n    function _baseURI() internal view virtual override returns (string memory) {\n        return _baseTokenURI;\n    }\n\n    function tokenURI(uint256 tokenId) public view virtual override returns (string memory) {\n        require(_exists(tokenId), \"ERC721Metadata: URI query for nonexistent token\");\n\n        string memory baseURI = _baseURI();\n        return bytes(baseURI).length > 0 ? string(abi.encodePacked(baseURI, cids[tokenId])) : \"\";\n    }\n\n    function setBaseURI(string memory uri) public virtual {\n        require(hasRole(URLSETTER_ROLE, _msgSender()), \"Must have URLSETTER_ROLE role to set uri\");\n        _baseTokenURI = uri;\n    }\n\n    function adminMint(address to, string memory cid) public virtual {\n        require(hasRole(MINTER_ROLE, _msgSender()), \"ERC721PresetMinterPauserAutoId: must have minter role to mint\");\n        uint256 id = _tokenIdTracker.current();\n        cids[id] = cid;\n        _mint(to, id);\n        _tokenIdTracker.increment();\n    }\n\n    function tokensOf(address owner, uint256 startIndex, uint256 endIndex) public view virtual returns (uint256[] memory result) {\n        require(owner != address(0), \"owner is zero address\");\n        require(startIndex <= endIndex, \"invalid index\");\n\n        uint256[] storage tokens = ownerTokens[owner];\n        require(endIndex <= tokens.length, \"invalid index\");\n\n        if (endIndex == 0) {\n            return tokens;\n        }\n\n        uint256 len = endIndex - startIndex;\n\n        result = new uint256[](len);\n        for (uint256 i = 0; i != len; i++) {\n            result[i] = tokens[startIndex + i];\n        }\n\n        return result;\n    }\n\n    /**********overridden fun**********/\n\n    function mint(address to) public virtual override {}\n\n    function _removeTokenFrom(address from, uint256 tokenId) internal virtual {\n        uint256 index = tokenIndexs[tokenId];\n\n        uint256[] storage tokens = ownerTokens[from];\n        uint256 indexLast = tokens.length - 1;\n\n        uint256 tokenIdLast = tokens[indexLast];\n        tokens[index] = tokenIdLast;\n        tokenIndexs[tokenIdLast] = index;\n\n        tokens.pop();\n    }\n\n    function _addTokenTo(address to, uint256 tokenId) internal virtual {\n        uint256[] storage tokens = ownerTokens[to];\n        tokenIndexs[tokenId] = tokens.length;\n        tokens.push(tokenId);\n    }\n\n    function _mint(address to, uint256 tokenId) internal virtual override {\n        super._mint(to, tokenId);\n        _addTokenTo(to, tokenId);\n    }\n\n    function _burn(uint256 tokenId) internal virtual override {\n        address owner = ERC721.ownerOf(tokenId);\n        super._burn(tokenId);\n        _removeTokenFrom(owner, tokenId);\n    }\n\n    function _transfer(address from, address to, uint256 tokenId) internal virtual override {\n        super._transfer(from, to, tokenId);\n        _removeTokenFrom(from, tokenId);\n        _addTokenTo(to, tokenId);\n    }\n}\n",
  "sourcePath": "/Users/wangxi/work/Walnut-V2/nutbox-contract/contracts/NFT/Tradable721.sol",
  "compiler": {
    "name": "solc",
    "version": "0.8.13+commit.abaa5c0e.Emscripten.clang"
  },
  "schemaVersion": "3.3.4",
  "updatedAt": "2024-06-25T07:57:02.234Z",
  "devdoc": {
    "kind": "dev",
    "methods": {
      "approve(address,uint256)": {
        "details": "See {IERC721-approve}."
      },
      "balanceOf(address)": {
        "details": "See {IERC721-balanceOf}."
      },
      "burn(uint256)": {
        "details": "Burns `tokenId`. See {ERC721-_burn}. Requirements: - The caller must own `tokenId` or be an approved operator."
      },
      "getApproved(uint256)": {
        "details": "See {IERC721-getApproved}."
      },
      "getRoleAdmin(bytes32)": {
        "details": "Returns the admin role that controls `role`. See {grantRole} and {revokeRole}. To change a role's admin, use {_setRoleAdmin}."
      },
      "getRoleMember(bytes32,uint256)": {
        "details": "Returns one of the accounts that have `role`. `index` must be a value between 0 and {getRoleMemberCount}, non-inclusive. Role bearers are not sorted in any particular way, and their ordering may change at any point. WARNING: When using {getRoleMember} and {getRoleMemberCount}, make sure you perform all queries on the same block. See the following https://forum.openzeppelin.com/t/iterating-over-elements-on-enumerableset-in-openzeppelin-contracts/2296[forum post] for more information."
      },
      "getRoleMemberCount(bytes32)": {
        "details": "Returns the number of accounts that have `role`. Can be used together with {getRoleMember} to enumerate all bearers of a role."
      },
      "grantRole(bytes32,address)": {
        "details": "Grants `role` to `account`. If `account` had not been already granted `role`, emits a {RoleGranted} event. Requirements: - the caller must have ``role``'s admin role. May emit a {RoleGranted} event."
      },
      "hasRole(bytes32,address)": {
        "details": "Returns `true` if `account` has been granted `role`."
      },
      "isApprovedForAll(address,address)": {
        "details": "See {IERC721-isApprovedForAll}."
      },
      "mint(address)": {
        "details": "Creates a new token for `to`. Its token ID will be automatically assigned (and available on the emitted {IERC721-Transfer} event), and the token URI autogenerated based on the base URI passed at construction. See {ERC721-_mint}. Requirements: - the caller must have the `MINTER_ROLE`."
      },
      "name()": {
        "details": "See {IERC721Metadata-name}."
      },
      "ownerOf(uint256)": {
        "details": "See {IERC721-ownerOf}."
      },
      "pause()": {
        "details": "Pauses all token transfers. See {ERC721Pausable} and {Pausable-_pause}. Requirements: - the caller must have the `PAUSER_ROLE`."
      },
      "paused()": {
        "details": "Returns true if the contract is paused, and false otherwise."
      },
      "renounceRole(bytes32,address)": {
        "details": "Revokes `role` from the calling account. Roles are often managed via {grantRole} and {revokeRole}: this function's purpose is to provide a mechanism for accounts to lose their privileges if they are compromised (such as when a trusted device is misplaced). If the calling account had been revoked `role`, emits a {RoleRevoked} event. Requirements: - the caller must be `account`. May emit a {RoleRevoked} event."
      },
      "revokeRole(bytes32,address)": {
        "details": "Revokes `role` from `account`. If `account` had been granted `role`, emits a {RoleRevoked} event. Requirements: - the caller must have ``role``'s admin role. May emit a {RoleRevoked} event."
      },
      "safeTransferFrom(address,address,uint256)": {
        "details": "See {IERC721-safeTransferFrom}."
      },
      "safeTransferFrom(address,address,uint256,bytes)": {
        "details": "See {IERC721-safeTransferFrom}."
      },
      "setApprovalForAll(address,bool)": {
        "details": "See {IERC721-setApprovalForAll}."
      },
      "supportsInterface(bytes4)": {
        "details": "See {IERC165-supportsInterface}."
      },
      "symbol()": {
        "details": "See {IERC721Metadata-symbol}."
      },
      "tokenByIndex(uint256)": {
        "details": "See {IERC721Enumerable-tokenByIndex}."
      },
      "tokenOfOwnerByIndex(address,uint256)": {
        "details": "See {IERC721Enumerable-tokenOfOwnerByIndex}."
      },
      "tokenURI(uint256)": {
        "details": "See {IERC721Metadata-tokenURI}."
      },
      "totalSupply()": {
        "details": "See {IERC721Enumerable-totalSupply}."
      },
      "transferFrom(address,address,uint256)": {
        "details": "See {IERC721-transferFrom}."
      },
      "unpause()": {
        "details": "Unpauses all token transfers. See {ERC721Pausable} and {Pausable-_unpause}. Requirements: - the caller must have the `PAUSER_ROLE`."
      }
    },
    "version": 1
  },
  "userdoc": {
    "kind": "user",
    "methods": {},
    "version": 1
  }
}