{
  "contractName": "Treasury",
  "abi": [
    {
      "inputs": [
        {
          "internalType": "address",
          "name": "_community",
          "type": "address"
        }
      ],
      "stateMutability": "nonpayable",
      "type": "constructor"
    },
    {
      "anonymous": false,
      "inputs": [
        {
          "indexed": true,
          "internalType": "address",
          "name": "community",
          "type": "address"
        },
        {
          "indexed": true,
          "internalType": "address",
          "name": "user",
          "type": "address"
        },
        {
          "indexed": true,
          "internalType": "uint256",
          "name": "amount",
          "type": "uint256"
        }
      ],
      "name": "Redeem",
      "type": "event"
    },
    {
      "inputs": [
        {
          "internalType": "uint256",
          "name": "amount",
          "type": "uint256"
        }
      ],
      "name": "redeem",
      "outputs": [],
      "stateMutability": "nonpayable",
      "type": "function"
    }
  ],
  "bytecode": "0x60c060405234801561001057600080fd5b5060405161094d38038061094d83398101604081905261002f91610050565b600160005533606090811b6080521b6001600160601b03191660a05261007e565b600060208284031215610061578081fd5b81516001600160a01b0381168114610077578182fd5b9392505050565b60805160601c60a05160601c61089e6100af60003960008181607d015261052c01526000610325015261089e6000f3fe608060405234801561001057600080fd5b506004361061002b5760003560e01c8063db006a7514610030575b600080fd5b61004361003e3660046106bc565b610045565b005b600260005414156100715760405162461bcd60e51b8152600401610068906107a2565b60405180910390fd5b600260008190555060007f00000000000000000000000000000000000000000000000000000000000000006001600160a01b03166399efcaec6040518163ffffffff1660e01b815260040160206040518083038186803b1580156100d457600080fd5b505afa1580156100e8573d6000803e3d6000fd5b505050506040513d601f19601f8201168201806040525081019061010c91906105c1565b90506000821161012e5760405162461bcd60e51b81526004016100689061076b565b6040516370a0823160e01b815282906001600160a01b038316906370a082319061015c9033906004016106ec565b60206040518083038186803b15801561017457600080fd5b505afa158015610188573d6000803e3d6000fd5b505050506040513d601f19601f820116820180604052508101906101ac91906106d4565b10156101ca5760405162461bcd60e51b81526004016100689061073d565b6000816001600160a01b03166318160ddd6040518163ffffffff1660e01b815260040160206040518083038186803b15801561020557600080fd5b505afa158015610219573d6000803e3d6000fd5b505050506040513d601f19601f8201168201806040525081019061023d91906106d4565b6040516323b872dd60e01b81529091506001600160a01b038316906323b872dd9061027090339030908890600401610700565b602060405180830381600087803b15801561028a57600080fd5b505af115801561029e573d6000803e3d6000fd5b505050506040513d601f19601f820116820180604052508101906102c2919061069c565b50604051630852cd8d60e31b81526001600160a01b038316906342966c68906102ef9086906004016107d9565b600060405180830381600087803b15801561030957600080fd5b505af115801561031d573d6000803e3d6000fd5b5050505060007f00000000000000000000000000000000000000000000000000000000000000006001600160a01b03166371b5ef466040518163ffffffff1660e01b815260040160006040518083038186803b15801561037c57600080fd5b505afa158015610390573d6000803e3d6000fd5b505050506040513d6000823e601f3d908101601f191682016040526103b891908101906105db565b905060005b81518110156105225760008282815181106103e857634e487b7160e01b600052603260045260246000fd5b602002602001015190506000816001600160a01b03166370a08231306040518263ffffffff1660e01b815260040161042091906106ec565b60206040518083038186803b15801561043857600080fd5b505afa15801561044c573d6000803e3d6000fd5b505050506040513d601f19601f8201168201806040525081019061047091906106d4565b9050801561050d576001600160a01b03821663a9059cbb3361049c886104968c87610586565b90610599565b6040518363ffffffff1660e01b81526004016104b9929190610724565b602060405180830381600087803b1580156104d357600080fd5b505af11580156104e7573d6000803e3d6000fd5b505050506040513d601f19601f8201168201806040525081019061050b919061069c565b505b5050808061051a90610821565b9150506103bd565b50604051849033907f00000000000000000000000000000000000000000000000000000000000000006001600160a01b0316907fd12200efa34901b99367694174c3b0d32c99585fdf37c7c26892136ddd0836d990600090a4505060016000555050565b60006105928284610802565b9392505050565b600061059282846107e2565b80516001600160a01b03811681146105bc57600080fd5b919050565b6000602082840312156105d2578081fd5b610592826105a5565b600060208083850312156105ed578182fd5b825167ffffffffffffffff80821115610604578384fd5b818501915085601f830112610617578384fd5b81518181111561062957610629610852565b8381026040518582820101818110858211171561064857610648610852565b604052828152858101935084860182860187018a1015610666578788fd5b8795505b8386101561068f5761067b816105a5565b85526001959095019493860193860161066a565b5098975050505050505050565b6000602082840312156106ad578081fd5b81518015158114610592578182fd5b6000602082840312156106cd578081fd5b5035919050565b6000602082840312156106e5578081fd5b5051919050565b6001600160a01b0391909116815260200190565b6001600160a01b039384168152919092166020820152604081019190915260600190565b6001600160a01b03929092168252602082015260400190565b602080825260149082015273496e73756666696369656e742062616c616e636560601b604082015260600190565b6020808252601e908201527f4d7573742075736520736f6d652063746f6b656e20746f2072656465656d0000604082015260600190565b6020808252601f908201527f5265656e7472616e637947756172643a207265656e7472616e742063616c6c00604082015260600190565b90815260200190565b6000826107fd57634e487b7160e01b81526012600452602481fd5b500490565b600081600019048311821515161561081c5761081c61083c565b500290565b60006000198214156108355761083561083c565b5060010190565b634e487b7160e01b600052601160045260246000fd5b634e487b7160e01b600052604160045260246000fdfea26469706673582212200e90816807b53eab990bd86704e322ac4c19ab1889426855cf4293adf20ae57364736f6c63430008000033",
  "immutableReferences": {
    "5787": [
      {
        "length": 32,
        "start": 805
      }
    ],
    "5789": [
      {
        "length": 32,
        "start": 125
      },
      {
        "length": 32,
        "start": 1324
      }
    ]
  },
  "source": "// SPDX-License-Identifier: MIT\n\npragma solidity 0.8.0;\npragma experimental ABIEncoderV2;\n\nimport \"@openzeppelin/contracts/utils/math/SafeMath.sol\";\nimport \"@openzeppelin/contracts/access/Ownable.sol\";\nimport \"@openzeppelin/contracts/security/ReentrancyGuard.sol\";\nimport \"./TreasuryFactory.sol\";\nimport \"../interfaces/ICommunity.sol\";\nimport \"@openzeppelin/contracts/token/ERC20/extensions/ERC20Burnable.sol\";\n\ncontract Treasury is ReentrancyGuard {\n    using SafeMath for uint256;\n    address immutable factory;\n    address immutable community;\n\n    event Redeem(address indexed community, address indexed user, uint256 indexed amount);\n\n    constructor(address _community) {\n        // we only admit the caller is TreasuryFactory registered by committee\n        factory = msg.sender;\n        community = _community;\n    }\n\n    function redeem(uint256 amount) external nonReentrant {\n        ERC20Burnable ctoken = ERC20Burnable(ICommunity(community).getCommunityToken());\n        require(amount > 0, \"Must use some ctoken to redeem\");\n        require(ctoken.balanceOf(msg.sender) >= amount, \"Insufficient balance\");\n        uint256 supply = ctoken.totalSupply();\n        ctoken.transferFrom(msg.sender, address(this), amount);\n        ctoken.burn(amount);\n        address[] memory rewardList = TreasuryFactory(factory).getRewardList();\n        for (uint256 i = 0; i < rewardList.length; i++) {\n            ERC20Burnable token = ERC20Burnable(rewardList[i]);\n            uint256 balance = token.balanceOf(address(this));\n            if (balance > 0) {\n                token.transfer(msg.sender, amount.mul(balance).div(supply));\n            }\n        }\n\n        emit Redeem(community, msg.sender, amount);\n    }\n    \n\n\n\n}",
  "sourcePath": "/Users/wangxi/work/Walnut-V2/nutbox-contract/contracts/Treasury/Treasury.sol",
  "compiler": {
    "name": "solc",
    "version": "0.8.0+commit.c7dfd78e.Emscripten.clang"
  },
  "schemaVersion": "3.3.4",
  "updatedAt": "2023-06-14T03:47:44.617Z",
  "devdoc": {
    "kind": "dev",
    "methods": {},
    "version": 1
  },
  "userdoc": {
    "kind": "user",
    "methods": {},
    "version": 1
  }
}