{
  "contractName": "Untradable721",
  "abi": [
    {
      "inputs": [
        {
          "internalType": "string",
          "name": "name",
          "type": "string"
        },
        {
          "internalType": "string",
          "name": "symbol",
          "type": "string"
        }
      ],
      "stateMutability": "nonpayable",
      "type": "constructor"
    },
    {
      "anonymous": false,
      "inputs": [
        {
          "indexed": true,
          "internalType": "address",
          "name": "owner",
          "type": "address"
        },
        {
          "indexed": true,
          "internalType": "address",
          "name": "approved",
          "type": "address"
        },
        {
          "indexed": true,
          "internalType": "uint256",
          "name": "tokenId",
          "type": "uint256"
        }
      ],
      "name": "Approval",
      "type": "event"
    },
    {
      "anonymous": false,
      "inputs": [
        {
          "indexed": true,
          "internalType": "address",
          "name": "owner",
          "type": "address"
        },
        {
          "indexed": true,
          "internalType": "address",
          "name": "operator",
          "type": "address"
        },
        {
          "indexed": false,
          "internalType": "bool",
          "name": "approved",
          "type": "bool"
        }
      ],
      "name": "ApprovalForAll",
      "type": "event"
    },
    {
      "anonymous": false,
      "inputs": [
        {
          "indexed": false,
          "internalType": "address",
          "name": "account",
          "type": "address"
        }
      ],
      "name": "Paused",
      "type": "event"
    },
    {
      "anonymous": false,
      "inputs": [
        {
          "indexed": true,
          "internalType": "bytes32",
          "name": "role",
          "type": "bytes32"
        },
        {
          "indexed": true,
          "internalType": "bytes32",
          "name": "previousAdminRole",
          "type": "bytes32"
        },
        {
          "indexed": true,
          "internalType": "bytes32",
          "name": "newAdminRole",
          "type": "bytes32"
        }
      ],
      "name": "RoleAdminChanged",
      "type": "event"
    },
    {
      "anonymous": false,
      "inputs": [
        {
          "indexed": true,
          "internalType": "bytes32",
          "name": "role",
          "type": "bytes32"
        },
        {
          "indexed": true,
          "internalType": "address",
          "name": "account",
          "type": "address"
        },
        {
          "indexed": true,
          "internalType": "address",
          "name": "sender",
          "type": "address"
        }
      ],
      "name": "RoleGranted",
      "type": "event"
    },
    {
      "anonymous": false,
      "inputs": [
        {
          "indexed": true,
          "internalType": "bytes32",
          "name": "role",
          "type": "bytes32"
        },
        {
          "indexed": true,
          "internalType": "address",
          "name": "account",
          "type": "address"
        },
        {
          "indexed": true,
          "internalType": "address",
          "name": "sender",
          "type": "address"
        }
      ],
      "name": "RoleRevoked",
      "type": "event"
    },
    {
      "anonymous": false,
      "inputs": [
        {
          "indexed": true,
          "internalType": "address",
          "name": "from",
          "type": "address"
        },
        {
          "indexed": true,
          "internalType": "address",
          "name": "to",
          "type": "address"
        },
        {
          "indexed": true,
          "internalType": "uint256",
          "name": "tokenId",
          "type": "uint256"
        }
      ],
      "name": "Transfer",
      "type": "event"
    },
    {
      "anonymous": false,
      "inputs": [
        {
          "indexed": false,
          "internalType": "address",
          "name": "account",
          "type": "address"
        }
      ],
      "name": "Unpaused",
      "type": "event"
    },
    {
      "inputs": [],
      "name": "BURN_ROLE",
      "outputs": [
        {
          "internalType": "bytes32",
          "name": "",
          "type": "bytes32"
        }
      ],
      "stateMutability": "view",
      "type": "function"
    },
    {
      "inputs": [],
      "name": "DEFAULT_ADMIN_ROLE",
      "outputs": [
        {
          "internalType": "bytes32",
          "name": "",
          "type": "bytes32"
        }
      ],
      "stateMutability": "view",
      "type": "function"
    },
    {
      "inputs": [],
      "name": "MINTER_ROLE",
      "outputs": [
        {
          "internalType": "bytes32",
          "name": "",
          "type": "bytes32"
        }
      ],
      "stateMutability": "view",
      "type": "function"
    },
    {
      "inputs": [],
      "name": "PAUSER_ROLE",
      "outputs": [
        {
          "internalType": "bytes32",
          "name": "",
          "type": "bytes32"
        }
      ],
      "stateMutability": "view",
      "type": "function"
    },
    {
      "inputs": [],
      "name": "TRANSFER_ROLE",
      "outputs": [
        {
          "internalType": "bytes32",
          "name": "",
          "type": "bytes32"
        }
      ],
      "stateMutability": "view",
      "type": "function"
    },
    {
      "inputs": [],
      "name": "URLSETTER_ROLE",
      "outputs": [
        {
          "internalType": "bytes32",
          "name": "",
          "type": "bytes32"
        }
      ],
      "stateMutability": "view",
      "type": "function"
    },
    {
      "inputs": [
        {
          "internalType": "uint256",
          "name": "id",
          "type": "uint256"
        }
      ],
      "name": "adminBurn",
      "outputs": [],
      "stateMutability": "nonpayable",
      "type": "function"
    },
    {
      "inputs": [
        {
          "internalType": "address",
          "name": "to",
          "type": "address"
        },
        {
          "internalType": "string",
          "name": "cid",
          "type": "string"
        }
      ],
      "name": "adminMint",
      "outputs": [],
      "stateMutability": "nonpayable",
      "type": "function"
    },
    {
      "inputs": [
        {
          "internalType": "address",
          "name": "to",
          "type": "address"
        },
        {
          "internalType": "uint256",
          "name": "tokenId",
          "type": "uint256"
        }
      ],
      "name": "approve",
      "outputs": [],
      "stateMutability": "nonpayable",
      "type": "function"
    },
    {
      "inputs": [
        {
          "internalType": "address",
          "name": "owner",
          "type": "address"
        }
      ],
      "name": "balanceOf",
      "outputs": [
        {
          "internalType": "uint256",
          "name": "",
          "type": "uint256"
        }
      ],
      "stateMutability": "view",
      "type": "function"
    },
    {
      "inputs": [
        {
          "internalType": "uint256",
          "name": "tokenId",
          "type": "uint256"
        }
      ],
      "name": "burn",
      "outputs": [],
      "stateMutability": "nonpayable",
      "type": "function"
    },
    {
      "inputs": [
        {
          "internalType": "uint256",
          "name": "",
          "type": "uint256"
        }
      ],
      "name": "cids",
      "outputs": [
        {
          "internalType": "string",
          "name": "",
          "type": "string"
        }
      ],
      "stateMutability": "view",
      "type": "function"
    },
    {
      "inputs": [
        {
          "internalType": "uint256",
          "name": "tokenId",
          "type": "uint256"
        }
      ],
      "name": "getApproved",
      "outputs": [
        {
          "internalType": "address",
          "name": "",
          "type": "address"
        }
      ],
      "stateMutability": "view",
      "type": "function"
    },
    {
      "inputs": [
        {
          "internalType": "bytes32",
          "name": "role",
          "type": "bytes32"
        }
      ],
      "name": "getRoleAdmin",
      "outputs": [
        {
          "internalType": "bytes32",
          "name": "",
          "type": "bytes32"
        }
      ],
      "stateMutability": "view",
      "type": "function"
    },
    {
      "inputs": [
        {
          "internalType": "bytes32",
          "name": "role",
          "type": "bytes32"
        },
        {
          "internalType": "uint256",
          "name": "index",
          "type": "uint256"
        }
      ],
      "name": "getRoleMember",
      "outputs": [
        {
          "internalType": "address",
          "name": "",
          "type": "address"
        }
      ],
      "stateMutability": "view",
      "type": "function"
    },
    {
      "inputs": [
        {
          "internalType": "bytes32",
          "name": "role",
          "type": "bytes32"
        }
      ],
      "name": "getRoleMemberCount",
      "outputs": [
        {
          "internalType": "uint256",
          "name": "",
          "type": "uint256"
        }
      ],
      "stateMutability": "view",
      "type": "function"
    },
    {
      "inputs": [
        {
          "internalType": "bytes32",
          "name": "role",
          "type": "bytes32"
        },
        {
          "internalType": "address",
          "name": "account",
          "type": "address"
        }
      ],
      "name": "grantRole",
      "outputs": [],
      "stateMutability": "nonpayable",
      "type": "function"
    },
    {
      "inputs": [
        {
          "internalType": "bytes32",
          "name": "role",
          "type": "bytes32"
        },
        {
          "internalType": "address",
          "name": "account",
          "type": "address"
        }
      ],
      "name": "hasRole",
      "outputs": [
        {
          "internalType": "bool",
          "name": "",
          "type": "bool"
        }
      ],
      "stateMutability": "view",
      "type": "function"
    },
    {
      "inputs": [
        {
          "internalType": "address",
          "name": "owner",
          "type": "address"
        },
        {
          "internalType": "address",
          "name": "operator",
          "type": "address"
        }
      ],
      "name": "isApprovedForAll",
      "outputs": [
        {
          "internalType": "bool",
          "name": "",
          "type": "bool"
        }
      ],
      "stateMutability": "view",
      "type": "function"
    },
    {
      "inputs": [
        {
          "internalType": "address",
          "name": "to",
          "type": "address"
        }
      ],
      "name": "mint",
      "outputs": [],
      "stateMutability": "nonpayable",
      "type": "function"
    },
    {
      "inputs": [],
      "name": "name",
      "outputs": [
        {
          "internalType": "string",
          "name": "",
          "type": "string"
        }
      ],
      "stateMutability": "view",
      "type": "function"
    },
    {
      "inputs": [
        {
          "internalType": "uint256",
          "name": "tokenId",
          "type": "uint256"
        }
      ],
      "name": "ownerOf",
      "outputs": [
        {
          "internalType": "address",
          "name": "",
          "type": "address"
        }
      ],
      "stateMutability": "view",
      "type": "function"
    },
    {
      "inputs": [],
      "name": "pause",
      "outputs": [],
      "stateMutability": "nonpayable",
      "type": "function"
    },
    {
      "inputs": [],
      "name": "paused",
      "outputs": [
        {
          "internalType": "bool",
          "name": "",
          "type": "bool"
        }
      ],
      "stateMutability": "view",
      "type": "function"
    },
    {
      "inputs": [
        {
          "internalType": "bytes32",
          "name": "role",
          "type": "bytes32"
        },
        {
          "internalType": "address",
          "name": "account",
          "type": "address"
        }
      ],
      "name": "renounceRole",
      "outputs": [],
      "stateMutability": "nonpayable",
      "type": "function"
    },
    {
      "inputs": [
        {
          "internalType": "bytes32",
          "name": "role",
          "type": "bytes32"
        },
        {
          "internalType": "address",
          "name": "account",
          "type": "address"
        }
      ],
      "name": "revokeRole",
      "outputs": [],
      "stateMutability": "nonpayable",
      "type": "function"
    },
    {
      "inputs": [
        {
          "internalType": "address",
          "name": "from",
          "type": "address"
        },
        {
          "internalType": "address",
          "name": "to",
          "type": "address"
        },
        {
          "internalType": "uint256",
          "name": "tokenId",
          "type": "uint256"
        }
      ],
      "name": "safeTransferFrom",
      "outputs": [],
      "stateMutability": "nonpayable",
      "type": "function"
    },
    {
      "inputs": [
        {
          "internalType": "address",
          "name": "from",
          "type": "address"
        },
        {
          "internalType": "address",
          "name": "to",
          "type": "address"
        },
        {
          "internalType": "uint256",
          "name": "tokenId",
          "type": "uint256"
        },
        {
          "internalType": "bytes",
          "name": "data",
          "type": "bytes"
        }
      ],
      "name": "safeTransferFrom",
      "outputs": [],
      "stateMutability": "nonpayable",
      "type": "function"
    },
    {
      "inputs": [
        {
          "internalType": "address",
          "name": "operator",
          "type": "address"
        },
        {
          "internalType": "bool",
          "name": "approved",
          "type": "bool"
        }
      ],
      "name": "setApprovalForAll",
      "outputs": [],
      "stateMutability": "nonpayable",
      "type": "function"
    },
    {
      "inputs": [
        {
          "internalType": "string",
          "name": "uri",
          "type": "string"
        }
      ],
      "name": "setBaseURI",
      "outputs": [],
      "stateMutability": "nonpayable",
      "type": "function"
    },
    {
      "inputs": [
        {
          "internalType": "bytes4",
          "name": "interfaceId",
          "type": "bytes4"
        }
      ],
      "name": "supportsInterface",
      "outputs": [
        {
          "internalType": "bool",
          "name": "",
          "type": "bool"
        }
      ],
      "stateMutability": "view",
      "type": "function"
    },
    {
      "inputs": [],
      "name": "symbol",
      "outputs": [
        {
          "internalType": "string",
          "name": "",
          "type": "string"
        }
      ],
      "stateMutability": "view",
      "type": "function"
    },
    {
      "inputs": [
        {
          "internalType": "uint256",
          "name": "index",
          "type": "uint256"
        }
      ],
      "name": "tokenByIndex",
      "outputs": [
        {
          "internalType": "uint256",
          "name": "",
          "type": "uint256"
        }
      ],
      "stateMutability": "view",
      "type": "function"
    },
    {
      "inputs": [
        {
          "internalType": "address",
          "name": "owner",
          "type": "address"
        },
        {
          "internalType": "uint256",
          "name": "index",
          "type": "uint256"
        }
      ],
      "name": "tokenOfOwnerByIndex",
      "outputs": [
        {
          "internalType": "uint256",
          "name": "",
          "type": "uint256"
        }
      ],
      "stateMutability": "view",
      "type": "function"
    },
    {
      "inputs": [
        {
          "internalType": "uint256",
          "name": "tokenId",
          "type": "uint256"
        }
      ],
      "name": "tokenURI",
      "outputs": [
        {
          "internalType": "string",
          "name": "",
          "type": "string"
        }
      ],
      "stateMutability": "view",
      "type": "function"
    },
    {
      "inputs": [
        {
          "internalType": "address",
          "name": "owner",
          "type": "address"
        },
        {
          "internalType": "uint256",
          "name": "startIndex",
          "type": "uint256"
        },
        {
          "internalType": "uint256",
          "name": "endIndex",
          "type": "uint256"
        }
      ],
      "name": "tokensOf",
      "outputs": [
        {
          "internalType": "uint256[]",
          "name": "result",
          "type": "uint256[]"
        }
      ],
      "stateMutability": "view",
      "type": "function"
    },
    {
      "inputs": [],
      "name": "totalSupply",
      "outputs": [
        {
          "internalType": "uint256",
          "name": "",
          "type": "uint256"
        }
      ],
      "stateMutability": "view",
      "type": "function"
    },
    {
      "inputs": [
        {
          "internalType": "address",
          "name": "from",
          "type": "address"
        },
        {
          "internalType": "address",
          "name": "to",
          "type": "address"
        },
        {
          "internalType": "uint256",
          "name": "tokenId",
          "type": "uint256"
        }
      ],
      "name": "transferFrom",
      "outputs": [],
      "stateMutability": "nonpayable",
      "type": "function"
    },
    {
      "inputs": [],
      "name": "unpause",
      "outputs": [],
      "stateMutability": "nonpayable",
      "type": "function"
    }
  ],
  "bytecode": "0x60806040523480156200001157600080fd5b5060405162002f8638038062002f86833981016040819052620000349162000450565b81818181604051806020016040528060008152508282816002908051906020019062000062929190620002dd565b50805162000078906003906020840190620002dd565b5050600c805460ff191690555080516200009a90600e906020840190620002dd565b50620000ae60003362000178565b62000178565b620000da7f9f2df0fed2c77648de5860a4cc508cd0818c85b8b8a1ab4ceeef8d981c8956a63362000178565b620001067f65d7a28e3265b37a6474929f336521b332c1681b933f6cb9f3376673440d862a3362000178565b5050506200013e7fe97b137254058bd94f28d2f3eb79e2d34074ffb488d042e3bc958e0a57d2fa22620000a86200017460201b60201c565b6200016a7f8207333f63dadcd0f8115c92187d0d7102dbcb682d67cc7f9dfccbfc085348be3362000178565b50505050620004f6565b3390565b62000184828262000188565b5050565b6200019f8282620001cb60201b6200126b1760201c565b6000828152600160209081526040909120620001c6918390620012ef6200026b821b17901c565b505050565b6000828152602081815260408083206001600160a01b038516845290915290205460ff1662000184576000828152602081815260408083206001600160a01b03851684529091529020805460ff19166001179055620002273390565b6001600160a01b0316816001600160a01b0316837f2f8788117e7eff1d82e926ec794901d17c78024a50270940304540a733656f0d60405160405180910390a45050565b600062000282836001600160a01b0384166200028b565b90505b92915050565b6000818152600183016020526040812054620002d45750815460018181018455600084815260208082209093018490558454848252828601909352604090209190915562000285565b50600062000285565b828054620002eb90620004ba565b90600052602060002090601f0160209004810192826200030f57600085556200035a565b82601f106200032a57805160ff19168380011785556200035a565b828001600101855582156200035a579182015b828111156200035a5782518255916020019190600101906200033d565b50620003689291506200036c565b5090565b5b808211156200036857600081556001016200036d565b634e487b7160e01b600052604160045260246000fd5b600082601f830112620003ab57600080fd5b81516001600160401b0380821115620003c857620003c862000383565b604051601f8301601f19908116603f01168101908282118183101715620003f357620003f362000383565b816040528381526020925086838588010111156200041057600080fd5b600091505b8382101562000434578582018301518183018401529082019062000415565b83821115620004465760008385830101525b9695505050505050565b600080604083850312156200046457600080fd5b82516001600160401b03808211156200047c57600080fd5b6200048a8683870162000399565b93506020850151915080821115620004a157600080fd5b50620004b08582860162000399565b9150509250929050565b600181811c90821680620004cf57607f821691505b602082108103620004f057634e487b7160e01b600052602260045260246000fd5b50919050565b612a8080620005066000396000f3fe608060405234801561001057600080fd5b506004361061023d5760003560e01c80636352211e1161013b578063a24b951e116100b8578063ca15c8731161007c578063ca15c8731461051b578063d53913931461052e578063d547741f14610555578063e63ab1e914610568578063e985e9c51461058f57600080fd5b8063a24b951e14610494578063b88d4fde146104bb578063b930908f146104ce578063badb97ff146104f5578063c87b56dd1461050857600080fd5b80639010d07c116100ff5780639010d07c1461044b57806391d148541461045e57806395d89b4114610471578063a217fddf14610479578063a22cb4651461048157600080fd5b80636352211e146103f95780636a6278421461040c578063704fe7101461041d57806370a08231146104305780638456cb591461044357600080fd5b80632f2ff15d116101c957806342966c681161018d57806342966c68146103a25780634f6ccce7146103b557806355f804b3146103c85780635919c74b146103db5780635c975abb146103ee57600080fd5b80632f2ff15d1461034e5780632f745c591461036157806336568abe146103745780633f4ba83a1461038757806342842e0e1461038f57600080fd5b806318160ddd1161021057806318160ddd146102bf578063206b60f9146102d157806323185dc9146102f857806323b872dd14610318578063248a9ca31461032b57600080fd5b806301ffc9a71461024257806306fdde031461026a578063081812fc1461027f578063095ea7b3146102aa575b600080fd5b6102556102503660046122d9565b6105cb565b60405190151581526020015b60405180910390f35b6102726105dc565b604051610261919061234e565b61029261028d366004612361565b61066e565b6040516001600160a01b039091168152602001610261565b6102bd6102b8366004612396565b610695565b005b600a545b604051908152602001610261565b6102c37f8502233096d909befbda0999bb8ea2f3a6be3c138b9fbf003752a4c8bce86f6c81565b61030b6103063660046123c0565b6107af565b60405161026191906123f3565b6102bd610326366004612437565b6109b1565b6102c3610339366004612361565b60009081526020819052604090206001015490565b6102bd61035c366004612473565b6109e3565b6102c361036f366004612396565b610a08565b6102bd610382366004612473565b610a9e565b6102bd610b1c565b6102bd61039d366004612437565b610bc4565b6102bd6103b0366004612361565b610bdf565b6102c36103c3366004612361565b610c0d565b6102bd6103d636600461254b565b610ca0565b6102bd6103e9366004612580565b610d3a565b600c5460ff16610255565b610292610407366004612361565b610e1e565b6102bd61041a3660046125ce565b50565b61027261042b366004612361565b610e7e565b6102c361043e3660046125ce565b610f18565b6102bd610f9e565b6102926104593660046125e9565b611042565b61025561046c366004612473565b61105a565b610272611083565b6102c3600081565b6102bd61048f36600461260b565b611092565b6102c37f8207333f63dadcd0f8115c92187d0d7102dbcb682d67cc7f9dfccbfc085348be81565b6102bd6104c9366004612647565b61109d565b6102c37fe97b137254058bd94f28d2f3eb79e2d34074ffb488d042e3bc958e0a57d2fa2281565b6102bd610503366004612361565b6110d5565b610272610516366004612361565b61114b565b6102c3610529366004612361565b61122f565b6102c37f9f2df0fed2c77648de5860a4cc508cd0818c85b8b8a1ab4ceeef8d981c8956a681565b6102bd610563366004612473565b611246565b6102c37f65d7a28e3265b37a6474929f336521b332c1681b933f6cb9f3376673440d862a81565b61025561059d3660046126c3565b6001600160a01b03918216600090815260076020908152604080832093909416825291909152205460ff1690565b60006105d682611304565b92915050565b6060600280546105eb906126ed565b80601f0160208091040260200160405190810160405280929190818152602001828054610617906126ed565b80156106645780601f1061063957610100808354040283529160200191610664565b820191906000526020600020905b81548152906001019060200180831161064757829003601f168201915b5050505050905090565b600061067982611329565b506000908152600660205260409020546001600160a01b031690565b60006106a082610e1e565b9050806001600160a01b0316836001600160a01b0316036107125760405162461bcd60e51b815260206004820152602160248201527f4552433732313a20617070726f76616c20746f2063757272656e74206f776e656044820152603960f91b60648201526084015b60405180910390fd5b336001600160a01b038216148061072e575061072e813361059d565b6107a05760405162461bcd60e51b815260206004820152603d60248201527f4552433732313a20617070726f76652063616c6c6572206973206e6f7420746f60448201527f6b656e206f776e6572206f7220617070726f76656420666f7220616c6c0000006064820152608401610709565b6107aa8383611388565b505050565b60606001600160a01b0384166107ff5760405162461bcd60e51b81526020600482015260156024820152746f776e6572206973207a65726f206164647265737360581b6044820152606401610709565b8183111561083f5760405162461bcd60e51b815260206004820152600d60248201526c0d2dcecc2d8d2c840d2dcc8caf609b1b6044820152606401610709565b6001600160a01b038416600090815260126020526040902080548311156108985760405162461bcd60e51b815260206004820152600d60248201526c0d2dcecc2d8d2c840d2dcc8caf609b1b6044820152606401610709565b826000036108f4578054604080516020808402820181019092528281529183918301828280156108e757602002820191906000526020600020905b8154815260200190600101908083116108d3575b50505050509150506109aa565b6000610900858561273d565b90508067ffffffffffffffff81111561091b5761091b61249f565b604051908082528060200260200182016040528015610944578160200160208202803683370190505b50925060005b8181146109a6578261095c8288612754565b8154811061096c5761096c61276c565b90600052602060002001548482815181106109895761098961276c565b60209081029190910101528061099e81612782565b91505061094a565b5050505b9392505050565b6109bc335b826113f6565b6109d85760405162461bcd60e51b81526004016107099061279b565b6107aa838383611475565b6000828152602081905260409020600101546109fe81611494565b6107aa838361149e565b6000610a1383610f18565b8210610a755760405162461bcd60e51b815260206004820152602b60248201527f455243373231456e756d657261626c653a206f776e657220696e646578206f7560448201526a74206f6620626f756e647360a81b6064820152608401610709565b506001600160a01b03919091166000908152600860209081526040808320938352929052205490565b6001600160a01b0381163314610b0e5760405162461bcd60e51b815260206004820152602f60248201527f416363657373436f6e74726f6c3a2063616e206f6e6c792072656e6f756e636560448201526e103937b632b9903337b91039b2b63360891b6064820152608401610709565b610b1882826114c0565b5050565b610b467f65d7a28e3265b37a6474929f336521b332c1681b933f6cb9f3376673440d862a3361105a565b610bba576040805162461bcd60e51b81526020600482015260248101919091527f4552433732315072657365744d696e7465725061757365724175746f49643a2060448201527f6d75737420686176652070617573657220726f6c6520746f20756e70617573656064820152608401610709565b610bc26114e2565b565b6107aa8383836040518060200160405280600081525061109d565b610be8336109b6565b610c045760405162461bcd60e51b81526004016107099061279b565b61041a81611534565b6000610c18600a5490565b8210610c7b5760405162461bcd60e51b815260206004820152602c60248201527f455243373231456e756d657261626c653a20676c6f62616c20696e646578206f60448201526b7574206f6620626f756e647360a01b6064820152608401610709565b600a8281548110610c8e57610c8e61276c565b90600052602060002001549050919050565b610cca7f8207333f63dadcd0f8115c92187d0d7102dbcb682d67cc7f9dfccbfc085348be3361105a565b610d275760405162461bcd60e51b815260206004820152602860248201527f4d75737420686176652055524c5345545445525f524f4c4520726f6c6520746f604482015267207365742075726960c01b6064820152608401610709565b8051610b1890600f90602084019061222a565b610d647f9f2df0fed2c77648de5860a4cc508cd0818c85b8b8a1ab4ceeef8d981c8956a63361105a565b610dd65760405162461bcd60e51b815260206004820152603d60248201527f4552433732315072657365744d696e7465725061757365724175746f49643a2060448201527f6d7573742068617665206d696e74657220726f6c6520746f206d696e740000006064820152608401610709565b6000610de160105490565b60008181526011602090815260409091208451929350610e0592909185019061222a565b50610e108382611554565b6107aa601080546001019055565b6000818152600460205260408120546001600160a01b0316806105d65760405162461bcd60e51b8152602060048201526018602482015277115490cdcc8c4e881a5b9d985b1a59081d1bdad95b88125160421b6044820152606401610709565b60116020526000908152604090208054610e97906126ed565b80601f0160208091040260200160405190810160405280929190818152602001828054610ec3906126ed565b8015610f105780601f10610ee557610100808354040283529160200191610f10565b820191906000526020600020905b815481529060010190602001808311610ef357829003601f168201915b505050505081565b60006001600160a01b038216610f825760405162461bcd60e51b815260206004820152602960248201527f4552433732313a2061646472657373207a65726f206973206e6f7420612076616044820152683634b21037bbb732b960b91b6064820152608401610709565b506001600160a01b031660009081526005602052604090205490565b610fc87f65d7a28e3265b37a6474929f336521b332c1681b933f6cb9f3376673440d862a3361105a565b61103a5760405162461bcd60e51b815260206004820152603e60248201527f4552433732315072657365744d696e7465725061757365724175746f49643a2060448201527f6d75737420686176652070617573657220726f6c6520746f20706175736500006064820152608401610709565b610bc2611568565b60008281526001602052604081206109aa90836115a5565b6000918252602082815260408084206001600160a01b0393909316845291905290205460ff1690565b6060600380546105eb906126ed565b610b183383836115b1565b6110a733836113f6565b6110c35760405162461bcd60e51b81526004016107099061279b565b6110cf8484848461167f565b50505050565b6110ff7fe97b137254058bd94f28d2f3eb79e2d34074ffb488d042e3bc958e0a57d2fa223361105a565b610c045760405162461bcd60e51b815260206004820152601b60248201527f4d7573742068617665206275726e20726f6c6520746f206275726e00000000006044820152606401610709565b6000818152600460205260409020546060906001600160a01b03166111ca5760405162461bcd60e51b815260206004820152602f60248201527f4552433732314d657461646174613a2055524920717565727920666f72206e6f60448201526e3732bc34b9ba32b73a103a37b5b2b760891b6064820152608401610709565b60006111d46116b2565b905060008151116111f457604051806020016040528060008152506109aa565b80601160008581526020019081526020016000206040516020016112199291906127e8565b6040516020818303038152906040529392505050565b60008181526001602052604081206105d6906116c1565b60008281526020819052604090206001015461126181611494565b6107aa83836114c0565b611275828261105a565b610b18576000828152602081815260408083206001600160a01b03851684529091529020805460ff191660011790556112ab3390565b6001600160a01b0316816001600160a01b0316837f2f8788117e7eff1d82e926ec794901d17c78024a50270940304540a733656f0d60405160405180910390a45050565b60006109aa836001600160a01b0384166116cb565b60006001600160e01b0319821663780e9d6360e01b14806105d657506105d68261171a565b6000818152600460205260409020546001600160a01b031661041a5760405162461bcd60e51b8152602060048201526018602482015277115490cdcc8c4e881a5b9d985b1a59081d1bdad95b88125160421b6044820152606401610709565b600081815260066020526040902080546001600160a01b0319166001600160a01b03841690811790915581906113bd82610e1e565b6001600160a01b03167f8c5be1e5ebec7d5bd14f71427d1e84f3dd0314c0f7b2291e5b200ac8c7c3b92560405160405180910390a45050565b60008061140283610e1e565b9050806001600160a01b0316846001600160a01b0316148061144957506001600160a01b0380821660009081526007602090815260408083209388168352929052205460ff165b8061146d5750836001600160a01b03166114628461066e565b6001600160a01b0316145b949350505050565b61148083838361175a565b61148a83826118cb565b6107aa8282611987565b61041a81336119c0565b6114a8828261126b565b60008281526001602052604090206107aa90826112ef565b6114ca8282611a19565b60008281526001602052604090206107aa9082611a7e565b6114ea611a93565b600c805460ff191690557f5db9ee0a495bf2e6ff9c91a7834c1ba4fdd244a5e8aa4e537bd38aeae4b073aa335b6040516001600160a01b03909116815260200160405180910390a1565b600061153f82610e1e565b905061154a82611adc565b610b1881836118cb565b61155e8282611b7f565b610b188282611987565b611570611d18565b600c805460ff191660011790557f62e78cea01bee320cd4e420270b5ea74000d11b0c9f74754ebdbfc544b05a2586115173390565b60006109aa8383611d5e565b816001600160a01b0316836001600160a01b0316036116125760405162461bcd60e51b815260206004820152601960248201527f4552433732313a20617070726f766520746f2063616c6c6572000000000000006044820152606401610709565b6001600160a01b03838116600081815260076020908152604080832094871680845294825291829020805460ff191686151590811790915591519182527f17307eab39ab6107e8899845ad3d59bd9653f200f220920489ca2b5937696c31910160405180910390a3505050565b61168a848484611475565b61169684848484611d88565b6110cf5760405162461bcd60e51b815260040161070990612898565b6060600f80546105eb906126ed565b60006105d6825490565b6000818152600183016020526040812054611712575081546001818101845560008481526020808220909301849055845484825282860190935260409020919091556105d6565b5060006105d6565b60006001600160e01b031982166380ac58cd60e01b148061174b57506001600160e01b03198216635b5e139f60e01b145b806105d657506105d682611e89565b826001600160a01b031661176d82610e1e565b6001600160a01b0316146117935760405162461bcd60e51b8152600401610709906128ea565b6001600160a01b0382166117f55760405162461bcd60e51b8152602060048201526024808201527f4552433732313a207472616e7366657220746f20746865207a65726f206164646044820152637265737360e01b6064820152608401610709565b6118028383836001611eae565b826001600160a01b031661181582610e1e565b6001600160a01b03161461183b5760405162461bcd60e51b8152600401610709906128ea565b600081815260066020908152604080832080546001600160a01b03199081169091556001600160a01b0387811680865260058552838620805460001901905590871680865283862080546001019055868652600490945282852080549092168417909155905184937fddf252ad1be2c89b69c2b068fc378daa952ba7f163c4a11628f55a4df523b3ef91a4505050565b6000818152601360209081526040808320546001600160a01b0386168452601290925282208054919290916119029060019061273d565b905060008282815481106119185761191861276c565b90600052602060002001549050808385815481106119385761193861276c565b600091825260208083209091019290925582815260139091526040902084905582548390806119695761196961292f565b60019003818190600052602060002001600090559055505050505050565b6001600160a01b039091166000908152601260209081526040808320805485855260138452918420829055600182018155835291200155565b6119ca828261105a565b610b18576119d781611f54565b6119e2836020611f66565b6040516020016119f3929190612945565b60408051601f198184030181529082905262461bcd60e51b82526107099160040161234e565b611a23828261105a565b15610b18576000828152602081815260408083206001600160a01b0385168085529252808320805460ff1916905551339285917ff6391f5c32d9c69d2a47ea670b442974b53935d1edc7fd64eb21e047a839171b9190a45050565b60006109aa836001600160a01b038416612102565b600c5460ff16610bc25760405162461bcd60e51b815260206004820152601460248201527314185d5cd8589b194e881b9bdd081c185d5cd95960621b6044820152606401610709565b6000611ae782610e1e565b9050611af7816000846001611eae565b611b0082610e1e565b600083815260066020908152604080832080546001600160a01b03199081169091556001600160a01b0385168085526005845282852080546000190190558785526004909352818420805490911690555192935084927fddf252ad1be2c89b69c2b068fc378daa952ba7f163c4a11628f55a4df523b3ef908390a45050565b6001600160a01b038216611bd55760405162461bcd60e51b815260206004820181905260248201527f4552433732313a206d696e7420746f20746865207a65726f20616464726573736044820152606401610709565b6000818152600460205260409020546001600160a01b031615611c3a5760405162461bcd60e51b815260206004820152601c60248201527f4552433732313a20746f6b656e20616c7265616479206d696e746564000000006044820152606401610709565b611c48600083836001611eae565b6000818152600460205260409020546001600160a01b031615611cad5760405162461bcd60e51b815260206004820152601c60248201527f4552433732313a20746f6b656e20616c7265616479206d696e746564000000006044820152606401610709565b6001600160a01b038216600081815260056020908152604080832080546001019055848352600490915280822080546001600160a01b0319168417905551839291907fddf252ad1be2c89b69c2b068fc378daa952ba7f163c4a11628f55a4df523b3ef908290a45050565b600c5460ff1615610bc25760405162461bcd60e51b815260206004820152601060248201526f14185d5cd8589b194e881c185d5cd95960821b6044820152606401610709565b6000826000018281548110611d7557611d7561276c565b9060005260206000200154905092915050565b60006001600160a01b0384163b15611e7e57604051630a85bd0160e11b81526001600160a01b0385169063150b7a0290611dcc9033908990889088906004016129ba565b6020604051808303816000875af1925050508015611e07575060408051601f3d908101601f19168201909252611e04918101906129f7565b60015b611e64573d808015611e35576040519150601f19603f3d011682016040523d82523d6000602084013e611e3a565b606091505b508051600003611e5c5760405162461bcd60e51b815260040161070990612898565b805181602001fd5b6001600160e01b031916630a85bd0160e11b14905061146d565b506001949350505050565b60006001600160e01b03198216635a05180f60e01b14806105d657506105d6826121f5565b6001600160a01b03841615801590611ece57506001600160a01b03831615155b156110cf57611efd7f8502233096d909befbda0999bb8ea2f3a6be3c138b9fbf003752a4c8bce86f6c3361105a565b6110cf5760405162461bcd60e51b815260206004820152602260248201527f4d7573742068617665207472616e66657220726f6c6520746f207472616e736660448201526132b960f11b6064820152608401610709565b60606105d66001600160a01b03831660145b60606000611f75836002612a14565b611f80906002612754565b67ffffffffffffffff811115611f9857611f9861249f565b6040519080825280601f01601f191660200182016040528015611fc2576020820181803683370190505b509050600360fc1b81600081518110611fdd57611fdd61276c565b60200101906001600160f81b031916908160001a905350600f60fb1b8160018151811061200c5761200c61276c565b60200101906001600160f81b031916908160001a9053506000612030846002612a14565b61203b906001612754565b90505b60018111156120b3576f181899199a1a9b1b9c1cb0b131b232b360811b85600f166010811061206f5761206f61276c565b1a60f81b8282815181106120855761208561276c565b60200101906001600160f81b031916908160001a90535060049490941c936120ac81612a33565b905061203e565b5083156109aa5760405162461bcd60e51b815260206004820181905260248201527f537472696e67733a20686578206c656e67746820696e73756666696369656e746044820152606401610709565b600081815260018301602052604081205480156121eb57600061212660018361273d565b855490915060009061213a9060019061273d565b905081811461219f57600086600001828154811061215a5761215a61276c565b906000526020600020015490508087600001848154811061217d5761217d61276c565b6000918252602080832090910192909255918252600188019052604090208390555b85548690806121b0576121b061292f565b6001900381819060005260206000200160009055905585600101600086815260200190815260200160002060009055600193505050506105d6565b60009150506105d6565b60006001600160e01b03198216637965db0b60e01b14806105d657506301ffc9a760e01b6001600160e01b03198316146105d6565b828054612236906126ed565b90600052602060002090601f016020900481019282612258576000855561229e565b82601f1061227157805160ff191683800117855561229e565b8280016001018555821561229e579182015b8281111561229e578251825591602001919060010190612283565b506122aa9291506122ae565b5090565b5b808211156122aa57600081556001016122af565b6001600160e01b03198116811461041a57600080fd5b6000602082840312156122eb57600080fd5b81356109aa816122c3565b60005b838110156123115781810151838201526020016122f9565b838111156110cf5750506000910152565b6000815180845261233a8160208601602086016122f6565b601f01601f19169290920160200192915050565b6020815260006109aa6020830184612322565b60006020828403121561237357600080fd5b5035919050565b80356001600160a01b038116811461239157600080fd5b919050565b600080604083850312156123a957600080fd5b6123b28361237a565b946020939093013593505050565b6000806000606084860312156123d557600080fd5b6123de8461237a565b95602085013595506040909401359392505050565b6020808252825182820181905260009190848201906040850190845b8181101561242b5783518352928401929184019160010161240f565b50909695505050505050565b60008060006060848603121561244c57600080fd5b6124558461237a565b92506124636020850161237a565b9150604084013590509250925092565b6000806040838503121561248657600080fd5b823591506124966020840161237a565b90509250929050565b634e487b7160e01b600052604160045260246000fd5b600067ffffffffffffffff808411156124d0576124d061249f565b604051601f8501601f19908116603f011681019082821181831017156124f8576124f861249f565b8160405280935085815286868601111561251157600080fd5b858560208301376000602087830101525050509392505050565b600082601f83011261253c57600080fd5b6109aa838335602085016124b5565b60006020828403121561255d57600080fd5b813567ffffffffffffffff81111561257457600080fd5b61146d8482850161252b565b6000806040838503121561259357600080fd5b61259c8361237a565b9150602083013567ffffffffffffffff8111156125b857600080fd5b6125c48582860161252b565b9150509250929050565b6000602082840312156125e057600080fd5b6109aa8261237a565b600080604083850312156125fc57600080fd5b50508035926020909101359150565b6000806040838503121561261e57600080fd5b6126278361237a565b91506020830135801515811461263c57600080fd5b809150509250929050565b6000806000806080858703121561265d57600080fd5b6126668561237a565b93506126746020860161237a565b925060408501359150606085013567ffffffffffffffff81111561269757600080fd5b8501601f810187136126a857600080fd5b6126b7878235602084016124b5565b91505092959194509250565b600080604083850312156126d657600080fd5b6126df8361237a565b91506124966020840161237a565b600181811c9082168061270157607f821691505b60208210810361272157634e487b7160e01b600052602260045260246000fd5b50919050565b634e487b7160e01b600052601160045260246000fd5b60008282101561274f5761274f612727565b500390565b6000821982111561276757612767612727565b500190565b634e487b7160e01b600052603260045260246000fd5b60006001820161279457612794612727565b5060010190565b6020808252602d908201527f4552433732313a2063616c6c6572206973206e6f7420746f6b656e206f776e6560408201526c1c881bdc88185c1c1c9bdd9959609a1b606082015260800190565b6000835160206127fb82858389016122f6565b845491840191600090600181811c908083168061281957607f831692505b858310810361283657634e487b7160e01b85526022600452602485fd5b80801561284a576001811461285b57612888565b60ff19851688528388019550612888565b60008b81526020902060005b858110156128805781548a820152908401908801612867565b505083880195505b50939a9950505050505050505050565b60208082526032908201527f4552433732313a207472616e7366657220746f206e6f6e20455243373231526560408201527131b2b4bb32b91034b6b83632b6b2b73a32b960711b606082015260800190565b60208082526025908201527f4552433732313a207472616e736665722066726f6d20696e636f72726563742060408201526437bbb732b960d91b606082015260800190565b634e487b7160e01b600052603160045260246000fd5b7f416363657373436f6e74726f6c3a206163636f756e742000000000000000000081526000835161297d8160178501602088016122f6565b7001034b99036b4b9b9b4b733903937b6329607d1b60179184019182015283516129ae8160288401602088016122f6565b01602801949350505050565b6001600160a01b03858116825284166020820152604081018390526080606082018190526000906129ed90830184612322565b9695505050505050565b600060208284031215612a0957600080fd5b81516109aa816122c3565b6000816000190483118215151615612a2e57612a2e612727565b500290565b600081612a4257612a42612727565b50600019019056fea26469706673582212202455ac4f42ba18f0ad4eba4a476affa648e4fdec42a7c93d01d8049f4eebc22264736f6c634300080d0033",
  "immutableReferences": {},
  "source": "//SPDX-License-Identifier: Unlicense\npragma solidity ^0.8.0;\npragma experimental ABIEncoderV2;\n\nimport \"./Tradable721.sol\";\n\ncontract Untradable721 is Tradable721 {\n    bytes32 public constant TRANSFER_ROLE = keccak256(\"TRANSFER_ROLE\");\n\n    constructor(string memory name, string memory symbol) Tradable721(name, symbol) {}\n\n    function _beforeTokenTransfer(address from, address to, uint256 firstTokenId,\n        uint256 batchSize) internal virtual override {\n        if (from != address(0) && to != address(0)) {\n            require(hasRole(TRANSFER_ROLE, msg.sender), \"Must have tranfer role to transfer\");\n        }\n    }\n}\n",
  "sourcePath": "/Users/wangxi/work/Walnut-V2/nutbox-contract/contracts/NFT/Untradable721.sol",
  "compiler": {
    "name": "solc",
    "version": "0.8.13+commit.abaa5c0e.Emscripten.clang"
  },
  "schemaVersion": "3.3.4",
  "updatedAt": "2024-06-25T07:57:02.376Z",
  "devdoc": {
    "kind": "dev",
    "methods": {
      "approve(address,uint256)": {
        "details": "See {IERC721-approve}."
      },
      "balanceOf(address)": {
        "details": "See {IERC721-balanceOf}."
      },
      "burn(uint256)": {
        "details": "Burns `tokenId`. See {ERC721-_burn}. Requirements: - The caller must own `tokenId` or be an approved operator."
      },
      "getApproved(uint256)": {
        "details": "See {IERC721-getApproved}."
      },
      "getRoleAdmin(bytes32)": {
        "details": "Returns the admin role that controls `role`. See {grantRole} and {revokeRole}. To change a role's admin, use {_setRoleAdmin}."
      },
      "getRoleMember(bytes32,uint256)": {
        "details": "Returns one of the accounts that have `role`. `index` must be a value between 0 and {getRoleMemberCount}, non-inclusive. Role bearers are not sorted in any particular way, and their ordering may change at any point. WARNING: When using {getRoleMember} and {getRoleMemberCount}, make sure you perform all queries on the same block. See the following https://forum.openzeppelin.com/t/iterating-over-elements-on-enumerableset-in-openzeppelin-contracts/2296[forum post] for more information."
      },
      "getRoleMemberCount(bytes32)": {
        "details": "Returns the number of accounts that have `role`. Can be used together with {getRoleMember} to enumerate all bearers of a role."
      },
      "grantRole(bytes32,address)": {
        "details": "Grants `role` to `account`. If `account` had not been already granted `role`, emits a {RoleGranted} event. Requirements: - the caller must have ``role``'s admin role. May emit a {RoleGranted} event."
      },
      "hasRole(bytes32,address)": {
        "details": "Returns `true` if `account` has been granted `role`."
      },
      "isApprovedForAll(address,address)": {
        "details": "See {IERC721-isApprovedForAll}."
      },
      "mint(address)": {
        "details": "Creates a new token for `to`. Its token ID will be automatically assigned (and available on the emitted {IERC721-Transfer} event), and the token URI autogenerated based on the base URI passed at construction. See {ERC721-_mint}. Requirements: - the caller must have the `MINTER_ROLE`."
      },
      "name()": {
        "details": "See {IERC721Metadata-name}."
      },
      "ownerOf(uint256)": {
        "details": "See {IERC721-ownerOf}."
      },
      "pause()": {
        "details": "Pauses all token transfers. See {ERC721Pausable} and {Pausable-_pause}. Requirements: - the caller must have the `PAUSER_ROLE`."
      },
      "paused()": {
        "details": "Returns true if the contract is paused, and false otherwise."
      },
      "renounceRole(bytes32,address)": {
        "details": "Revokes `role` from the calling account. Roles are often managed via {grantRole} and {revokeRole}: this function's purpose is to provide a mechanism for accounts to lose their privileges if they are compromised (such as when a trusted device is misplaced). If the calling account had been revoked `role`, emits a {RoleRevoked} event. Requirements: - the caller must be `account`. May emit a {RoleRevoked} event."
      },
      "revokeRole(bytes32,address)": {
        "details": "Revokes `role` from `account`. If `account` had been granted `role`, emits a {RoleRevoked} event. Requirements: - the caller must have ``role``'s admin role. May emit a {RoleRevoked} event."
      },
      "safeTransferFrom(address,address,uint256)": {
        "details": "See {IERC721-safeTransferFrom}."
      },
      "safeTransferFrom(address,address,uint256,bytes)": {
        "details": "See {IERC721-safeTransferFrom}."
      },
      "setApprovalForAll(address,bool)": {
        "details": "See {IERC721-setApprovalForAll}."
      },
      "supportsInterface(bytes4)": {
        "details": "See {IERC165-supportsInterface}."
      },
      "symbol()": {
        "details": "See {IERC721Metadata-symbol}."
      },
      "tokenByIndex(uint256)": {
        "details": "See {IERC721Enumerable-tokenByIndex}."
      },
      "tokenOfOwnerByIndex(address,uint256)": {
        "details": "See {IERC721Enumerable-tokenOfOwnerByIndex}."
      },
      "tokenURI(uint256)": {
        "details": "See {IERC721Metadata-tokenURI}."
      },
      "totalSupply()": {
        "details": "See {IERC721Enumerable-totalSupply}."
      },
      "transferFrom(address,address,uint256)": {
        "details": "See {IERC721-transferFrom}."
      },
      "unpause()": {
        "details": "Unpauses all token transfers. See {ERC721Pausable} and {Pausable-_unpause}. Requirements: - the caller must have the `PAUSER_ROLE`."
      }
    },
    "version": 1
  },
  "userdoc": {
    "kind": "user",
    "methods": {},
    "version": 1
  }
}