{
  "contractName": "Untradable721",
  "abi": [
    {
      "inputs": [
        {
          "internalType": "string",
          "name": "name",
          "type": "string"
        },
        {
          "internalType": "string",
          "name": "symbol",
          "type": "string"
        }
      ],
      "stateMutability": "nonpayable",
      "type": "constructor"
    },
    {
      "anonymous": false,
      "inputs": [
        {
          "indexed": true,
          "internalType": "address",
          "name": "owner",
          "type": "address"
        },
        {
          "indexed": true,
          "internalType": "address",
          "name": "approved",
          "type": "address"
        },
        {
          "indexed": true,
          "internalType": "uint256",
          "name": "tokenId",
          "type": "uint256"
        }
      ],
      "name": "Approval",
      "type": "event"
    },
    {
      "anonymous": false,
      "inputs": [
        {
          "indexed": true,
          "internalType": "address",
          "name": "owner",
          "type": "address"
        },
        {
          "indexed": true,
          "internalType": "address",
          "name": "operator",
          "type": "address"
        },
        {
          "indexed": false,
          "internalType": "bool",
          "name": "approved",
          "type": "bool"
        }
      ],
      "name": "ApprovalForAll",
      "type": "event"
    },
    {
      "anonymous": false,
      "inputs": [
        {
          "indexed": false,
          "internalType": "address",
          "name": "account",
          "type": "address"
        }
      ],
      "name": "Paused",
      "type": "event"
    },
    {
      "anonymous": false,
      "inputs": [
        {
          "indexed": true,
          "internalType": "bytes32",
          "name": "role",
          "type": "bytes32"
        },
        {
          "indexed": true,
          "internalType": "bytes32",
          "name": "previousAdminRole",
          "type": "bytes32"
        },
        {
          "indexed": true,
          "internalType": "bytes32",
          "name": "newAdminRole",
          "type": "bytes32"
        }
      ],
      "name": "RoleAdminChanged",
      "type": "event"
    },
    {
      "anonymous": false,
      "inputs": [
        {
          "indexed": true,
          "internalType": "bytes32",
          "name": "role",
          "type": "bytes32"
        },
        {
          "indexed": true,
          "internalType": "address",
          "name": "account",
          "type": "address"
        },
        {
          "indexed": true,
          "internalType": "address",
          "name": "sender",
          "type": "address"
        }
      ],
      "name": "RoleGranted",
      "type": "event"
    },
    {
      "anonymous": false,
      "inputs": [
        {
          "indexed": true,
          "internalType": "bytes32",
          "name": "role",
          "type": "bytes32"
        },
        {
          "indexed": true,
          "internalType": "address",
          "name": "account",
          "type": "address"
        },
        {
          "indexed": true,
          "internalType": "address",
          "name": "sender",
          "type": "address"
        }
      ],
      "name": "RoleRevoked",
      "type": "event"
    },
    {
      "anonymous": false,
      "inputs": [
        {
          "indexed": true,
          "internalType": "address",
          "name": "from",
          "type": "address"
        },
        {
          "indexed": true,
          "internalType": "address",
          "name": "to",
          "type": "address"
        },
        {
          "indexed": true,
          "internalType": "uint256",
          "name": "tokenId",
          "type": "uint256"
        }
      ],
      "name": "Transfer",
      "type": "event"
    },
    {
      "anonymous": false,
      "inputs": [
        {
          "indexed": false,
          "internalType": "address",
          "name": "account",
          "type": "address"
        }
      ],
      "name": "Unpaused",
      "type": "event"
    },
    {
      "inputs": [],
      "name": "BURN_ROLE",
      "outputs": [
        {
          "internalType": "bytes32",
          "name": "",
          "type": "bytes32"
        }
      ],
      "stateMutability": "view",
      "type": "function"
    },
    {
      "inputs": [],
      "name": "DEFAULT_ADMIN_ROLE",
      "outputs": [
        {
          "internalType": "bytes32",
          "name": "",
          "type": "bytes32"
        }
      ],
      "stateMutability": "view",
      "type": "function"
    },
    {
      "inputs": [],
      "name": "MINTER_ROLE",
      "outputs": [
        {
          "internalType": "bytes32",
          "name": "",
          "type": "bytes32"
        }
      ],
      "stateMutability": "view",
      "type": "function"
    },
    {
      "inputs": [],
      "name": "PAUSER_ROLE",
      "outputs": [
        {
          "internalType": "bytes32",
          "name": "",
          "type": "bytes32"
        }
      ],
      "stateMutability": "view",
      "type": "function"
    },
    {
      "inputs": [],
      "name": "TRANSFER_ROLE",
      "outputs": [
        {
          "internalType": "bytes32",
          "name": "",
          "type": "bytes32"
        }
      ],
      "stateMutability": "view",
      "type": "function"
    },
    {
      "inputs": [],
      "name": "URLSETTER_ROLE",
      "outputs": [
        {
          "internalType": "bytes32",
          "name": "",
          "type": "bytes32"
        }
      ],
      "stateMutability": "view",
      "type": "function"
    },
    {
      "inputs": [
        {
          "internalType": "uint256",
          "name": "id",
          "type": "uint256"
        }
      ],
      "name": "adminBurn",
      "outputs": [],
      "stateMutability": "nonpayable",
      "type": "function"
    },
    {
      "inputs": [
        {
          "internalType": "address",
          "name": "to",
          "type": "address"
        },
        {
          "internalType": "string",
          "name": "cid",
          "type": "string"
        }
      ],
      "name": "adminMint",
      "outputs": [],
      "stateMutability": "nonpayable",
      "type": "function"
    },
    {
      "inputs": [
        {
          "internalType": "address",
          "name": "to",
          "type": "address"
        },
        {
          "internalType": "uint256",
          "name": "tokenId",
          "type": "uint256"
        }
      ],
      "name": "approve",
      "outputs": [],
      "stateMutability": "nonpayable",
      "type": "function"
    },
    {
      "inputs": [
        {
          "internalType": "address",
          "name": "owner",
          "type": "address"
        }
      ],
      "name": "balanceOf",
      "outputs": [
        {
          "internalType": "uint256",
          "name": "",
          "type": "uint256"
        }
      ],
      "stateMutability": "view",
      "type": "function"
    },
    {
      "inputs": [
        {
          "internalType": "uint256",
          "name": "tokenId",
          "type": "uint256"
        }
      ],
      "name": "burn",
      "outputs": [],
      "stateMutability": "nonpayable",
      "type": "function"
    },
    {
      "inputs": [
        {
          "internalType": "uint256",
          "name": "",
          "type": "uint256"
        }
      ],
      "name": "cids",
      "outputs": [
        {
          "internalType": "string",
          "name": "",
          "type": "string"
        }
      ],
      "stateMutability": "view",
      "type": "function"
    },
    {
      "inputs": [
        {
          "internalType": "uint256",
          "name": "tokenId",
          "type": "uint256"
        }
      ],
      "name": "getApproved",
      "outputs": [
        {
          "internalType": "address",
          "name": "",
          "type": "address"
        }
      ],
      "stateMutability": "view",
      "type": "function"
    },
    {
      "inputs": [
        {
          "internalType": "bytes32",
          "name": "role",
          "type": "bytes32"
        }
      ],
      "name": "getRoleAdmin",
      "outputs": [
        {
          "internalType": "bytes32",
          "name": "",
          "type": "bytes32"
        }
      ],
      "stateMutability": "view",
      "type": "function"
    },
    {
      "inputs": [
        {
          "internalType": "bytes32",
          "name": "role",
          "type": "bytes32"
        },
        {
          "internalType": "uint256",
          "name": "index",
          "type": "uint256"
        }
      ],
      "name": "getRoleMember",
      "outputs": [
        {
          "internalType": "address",
          "name": "",
          "type": "address"
        }
      ],
      "stateMutability": "view",
      "type": "function"
    },
    {
      "inputs": [
        {
          "internalType": "bytes32",
          "name": "role",
          "type": "bytes32"
        }
      ],
      "name": "getRoleMemberCount",
      "outputs": [
        {
          "internalType": "uint256",
          "name": "",
          "type": "uint256"
        }
      ],
      "stateMutability": "view",
      "type": "function"
    },
    {
      "inputs": [
        {
          "internalType": "bytes32",
          "name": "role",
          "type": "bytes32"
        },
        {
          "internalType": "address",
          "name": "account",
          "type": "address"
        }
      ],
      "name": "grantRole",
      "outputs": [],
      "stateMutability": "nonpayable",
      "type": "function"
    },
    {
      "inputs": [
        {
          "internalType": "bytes32",
          "name": "role",
          "type": "bytes32"
        },
        {
          "internalType": "address",
          "name": "account",
          "type": "address"
        }
      ],
      "name": "hasRole",
      "outputs": [
        {
          "internalType": "bool",
          "name": "",
          "type": "bool"
        }
      ],
      "stateMutability": "view",
      "type": "function"
    },
    {
      "inputs": [
        {
          "internalType": "address",
          "name": "owner",
          "type": "address"
        },
        {
          "internalType": "address",
          "name": "operator",
          "type": "address"
        }
      ],
      "name": "isApprovedForAll",
      "outputs": [
        {
          "internalType": "bool",
          "name": "",
          "type": "bool"
        }
      ],
      "stateMutability": "view",
      "type": "function"
    },
    {
      "inputs": [
        {
          "internalType": "address",
          "name": "to",
          "type": "address"
        }
      ],
      "name": "mint",
      "outputs": [],
      "stateMutability": "nonpayable",
      "type": "function"
    },
    {
      "inputs": [],
      "name": "name",
      "outputs": [
        {
          "internalType": "string",
          "name": "",
          "type": "string"
        }
      ],
      "stateMutability": "view",
      "type": "function"
    },
    {
      "inputs": [
        {
          "internalType": "uint256",
          "name": "tokenId",
          "type": "uint256"
        }
      ],
      "name": "ownerOf",
      "outputs": [
        {
          "internalType": "address",
          "name": "",
          "type": "address"
        }
      ],
      "stateMutability": "view",
      "type": "function"
    },
    {
      "inputs": [],
      "name": "pause",
      "outputs": [],
      "stateMutability": "nonpayable",
      "type": "function"
    },
    {
      "inputs": [],
      "name": "paused",
      "outputs": [
        {
          "internalType": "bool",
          "name": "",
          "type": "bool"
        }
      ],
      "stateMutability": "view",
      "type": "function"
    },
    {
      "inputs": [
        {
          "internalType": "bytes32",
          "name": "role",
          "type": "bytes32"
        },
        {
          "internalType": "address",
          "name": "account",
          "type": "address"
        }
      ],
      "name": "renounceRole",
      "outputs": [],
      "stateMutability": "nonpayable",
      "type": "function"
    },
    {
      "inputs": [
        {
          "internalType": "bytes32",
          "name": "role",
          "type": "bytes32"
        },
        {
          "internalType": "address",
          "name": "account",
          "type": "address"
        }
      ],
      "name": "revokeRole",
      "outputs": [],
      "stateMutability": "nonpayable",
      "type": "function"
    },
    {
      "inputs": [
        {
          "internalType": "address",
          "name": "from",
          "type": "address"
        },
        {
          "internalType": "address",
          "name": "to",
          "type": "address"
        },
        {
          "internalType": "uint256",
          "name": "tokenId",
          "type": "uint256"
        }
      ],
      "name": "safeTransferFrom",
      "outputs": [],
      "stateMutability": "nonpayable",
      "type": "function"
    },
    {
      "inputs": [
        {
          "internalType": "address",
          "name": "from",
          "type": "address"
        },
        {
          "internalType": "address",
          "name": "to",
          "type": "address"
        },
        {
          "internalType": "uint256",
          "name": "tokenId",
          "type": "uint256"
        },
        {
          "internalType": "bytes",
          "name": "_data",
          "type": "bytes"
        }
      ],
      "name": "safeTransferFrom",
      "outputs": [],
      "stateMutability": "nonpayable",
      "type": "function"
    },
    {
      "inputs": [
        {
          "internalType": "address",
          "name": "operator",
          "type": "address"
        },
        {
          "internalType": "bool",
          "name": "approved",
          "type": "bool"
        }
      ],
      "name": "setApprovalForAll",
      "outputs": [],
      "stateMutability": "nonpayable",
      "type": "function"
    },
    {
      "inputs": [
        {
          "internalType": "string",
          "name": "uri",
          "type": "string"
        }
      ],
      "name": "setBaseURI",
      "outputs": [],
      "stateMutability": "nonpayable",
      "type": "function"
    },
    {
      "inputs": [
        {
          "internalType": "bytes4",
          "name": "interfaceId",
          "type": "bytes4"
        }
      ],
      "name": "supportsInterface",
      "outputs": [
        {
          "internalType": "bool",
          "name": "",
          "type": "bool"
        }
      ],
      "stateMutability": "view",
      "type": "function"
    },
    {
      "inputs": [],
      "name": "symbol",
      "outputs": [
        {
          "internalType": "string",
          "name": "",
          "type": "string"
        }
      ],
      "stateMutability": "view",
      "type": "function"
    },
    {
      "inputs": [
        {
          "internalType": "uint256",
          "name": "index",
          "type": "uint256"
        }
      ],
      "name": "tokenByIndex",
      "outputs": [
        {
          "internalType": "uint256",
          "name": "",
          "type": "uint256"
        }
      ],
      "stateMutability": "view",
      "type": "function"
    },
    {
      "inputs": [
        {
          "internalType": "address",
          "name": "owner",
          "type": "address"
        },
        {
          "internalType": "uint256",
          "name": "index",
          "type": "uint256"
        }
      ],
      "name": "tokenOfOwnerByIndex",
      "outputs": [
        {
          "internalType": "uint256",
          "name": "",
          "type": "uint256"
        }
      ],
      "stateMutability": "view",
      "type": "function"
    },
    {
      "inputs": [
        {
          "internalType": "uint256",
          "name": "tokenId",
          "type": "uint256"
        }
      ],
      "name": "tokenURI",
      "outputs": [
        {
          "internalType": "string",
          "name": "",
          "type": "string"
        }
      ],
      "stateMutability": "view",
      "type": "function"
    },
    {
      "inputs": [
        {
          "internalType": "address",
          "name": "owner",
          "type": "address"
        },
        {
          "internalType": "uint256",
          "name": "startIndex",
          "type": "uint256"
        },
        {
          "internalType": "uint256",
          "name": "endIndex",
          "type": "uint256"
        }
      ],
      "name": "tokensOf",
      "outputs": [
        {
          "internalType": "uint256[]",
          "name": "result",
          "type": "uint256[]"
        }
      ],
      "stateMutability": "view",
      "type": "function"
    },
    {
      "inputs": [],
      "name": "totalSupply",
      "outputs": [
        {
          "internalType": "uint256",
          "name": "",
          "type": "uint256"
        }
      ],
      "stateMutability": "view",
      "type": "function"
    },
    {
      "inputs": [
        {
          "internalType": "address",
          "name": "from",
          "type": "address"
        },
        {
          "internalType": "address",
          "name": "to",
          "type": "address"
        },
        {
          "internalType": "uint256",
          "name": "tokenId",
          "type": "uint256"
        }
      ],
      "name": "transferFrom",
      "outputs": [],
      "stateMutability": "nonpayable",
      "type": "function"
    },
    {
      "inputs": [],
      "name": "unpause",
      "outputs": [],
      "stateMutability": "nonpayable",
      "type": "function"
    }
  ],
  "bytecode": "0x60806040523480156200001157600080fd5b5060405162002f8138038062002f81833981016040819052620000349162000450565b81818181604051806020016040528060008152508282816002908051906020019062000062929190620002dd565b50805162000078906003906020840190620002dd565b5050600c805460ff191690555080516200009a90600e906020840190620002dd565b50620000ae60003362000178565b62000178565b620000da7f9f2df0fed2c77648de5860a4cc508cd0818c85b8b8a1ab4ceeef8d981c8956a63362000178565b620001067f65d7a28e3265b37a6474929f336521b332c1681b933f6cb9f3376673440d862a3362000178565b5050506200013e7fe97b137254058bd94f28d2f3eb79e2d34074ffb488d042e3bc958e0a57d2fa22620000a86200017460201b60201c565b6200016a7f8207333f63dadcd0f8115c92187d0d7102dbcb682d67cc7f9dfccbfc085348be3362000178565b50505050620004f6565b3390565b62000184828262000188565b5050565b6200019f8282620001cb60201b620012bc1760201c565b6000828152600160209081526040909120620001c6918390620013406200026b821b17901c565b505050565b6000828152602081815260408083206001600160a01b038516845290915290205460ff1662000184576000828152602081815260408083206001600160a01b03851684529091529020805460ff19166001179055620002273390565b6001600160a01b0316816001600160a01b0316837f2f8788117e7eff1d82e926ec794901d17c78024a50270940304540a733656f0d60405160405180910390a45050565b600062000282836001600160a01b0384166200028b565b90505b92915050565b6000818152600183016020526040812054620002d45750815460018181018455600084815260208082209093018490558454848252828601909352604090209190915562000285565b50600062000285565b828054620002eb90620004ba565b90600052602060002090601f0160209004810192826200030f57600085556200035a565b82601f106200032a57805160ff19168380011785556200035a565b828001600101855582156200035a579182015b828111156200035a5782518255916020019190600101906200033d565b50620003689291506200036c565b5090565b5b808211156200036857600081556001016200036d565b634e487b7160e01b600052604160045260246000fd5b600082601f830112620003ab57600080fd5b81516001600160401b0380821115620003c857620003c862000383565b604051601f8301601f19908116603f01168101908282118183101715620003f357620003f362000383565b816040528381526020925086838588010111156200041057600080fd5b600091505b8382101562000434578582018301518183018401529082019062000415565b83821115620004465760008385830101525b9695505050505050565b600080604083850312156200046457600080fd5b82516001600160401b03808211156200047c57600080fd5b6200048a8683870162000399565b93506020850151915080821115620004a157600080fd5b50620004b08582860162000399565b9150509250929050565b600181811c90821680620004cf57607f821691505b602082108103620004f057634e487b7160e01b600052602260045260246000fd5b50919050565b612a7b80620005066000396000f3fe608060405234801561001057600080fd5b506004361061023d5760003560e01c80636352211e1161013b578063a24b951e116100b8578063ca15c8731161007c578063ca15c8731461051b578063d53913931461052e578063d547741f14610555578063e63ab1e914610568578063e985e9c51461058f57600080fd5b8063a24b951e14610494578063b88d4fde146104bb578063b930908f146104ce578063badb97ff146104f5578063c87b56dd1461050857600080fd5b80639010d07c116100ff5780639010d07c1461044b57806391d148541461045e57806395d89b4114610471578063a217fddf14610479578063a22cb4651461048157600080fd5b80636352211e146103f95780636a6278421461040c578063704fe7101461041d57806370a08231146104305780638456cb591461044357600080fd5b80632f2ff15d116101c957806342966c681161018d57806342966c68146103a25780634f6ccce7146103b557806355f804b3146103c85780635919c74b146103db5780635c975abb146103ee57600080fd5b80632f2ff15d1461034e5780632f745c591461036157806336568abe146103745780633f4ba83a1461038757806342842e0e1461038f57600080fd5b806318160ddd1161021057806318160ddd146102bf578063206b60f9146102d157806323185dc9146102f857806323b872dd14610318578063248a9ca31461032b57600080fd5b806301ffc9a71461024257806306fdde031461026a578063081812fc1461027f578063095ea7b3146102aa575b600080fd5b610255610250366004612315565b6105cb565b60405190151581526020015b60405180910390f35b6102726105dc565b604051610261919061238a565b61029261028d36600461239d565b61066e565b6040516001600160a01b039091168152602001610261565b6102bd6102b83660046123d2565b610708565b005b600a545b604051908152602001610261565b6102c37f8502233096d909befbda0999bb8ea2f3a6be3c138b9fbf003752a4c8bce86f6c81565b61030b6103063660046123fc565b61081d565b604051610261919061242f565b6102bd610326366004612473565b61099f565b6102c361033936600461239d565b60009081526020819052604090206001015490565b6102bd61035c3660046124af565b6109d1565b6102c361036f3660046123d2565b6109f7565b6102bd6103823660046124af565b610a8d565b6102bd610b0b565b6102bd61039d366004612473565b610bb3565b6102bd6103b036600461239d565b610bce565b6102c36103c336600461239d565b610c45565b6102bd6103d6366004612587565b610cd8565b6102bd6103e93660046125bc565b610d72565b600c5460ff16610255565b61029261040736600461239d565b610e56565b6102bd61041a36600461260a565b50565b61027261042b36600461239d565b610ecd565b6102c361043e36600461260a565b610f67565b6102bd610fee565b610292610459366004612625565b611092565b61025561046c3660046124af565b6110aa565b6102726110d3565b6102c3600081565b6102bd61048f366004612647565b6110e2565b6102c37f8207333f63dadcd0f8115c92187d0d7102dbcb682d67cc7f9dfccbfc085348be81565b6102bd6104c9366004612683565b6110ed565b6102c37fe97b137254058bd94f28d2f3eb79e2d34074ffb488d042e3bc958e0a57d2fa2281565b6102bd61050336600461239d565b611125565b61027261051636600461239d565b61119b565b6102c361052936600461239d565b61127f565b6102c37f9f2df0fed2c77648de5860a4cc508cd0818c85b8b8a1ab4ceeef8d981c8956a681565b6102bd6105633660046124af565b611296565b6102c37f65d7a28e3265b37a6474929f336521b332c1681b933f6cb9f3376673440d862a81565b61025561059d3660046126ff565b6001600160a01b03918216600090815260076020908152604080832093909416825291909152205460ff1690565b60006105d682611355565b92915050565b6060600280546105eb90612729565b80601f016020809104026020016040519081016040528092919081815260200182805461061790612729565b80156106645780601f1061063957610100808354040283529160200191610664565b820191906000526020600020905b81548152906001019060200180831161064757829003601f168201915b5050505050905090565b6000818152600460205260408120546001600160a01b03166106ec5760405162461bcd60e51b815260206004820152602c60248201527f4552433732313a20617070726f76656420717565727920666f72206e6f6e657860448201526b34b9ba32b73a103a37b5b2b760a11b60648201526084015b60405180910390fd5b506000908152600660205260409020546001600160a01b031690565b600061071382610e56565b9050806001600160a01b0316836001600160a01b0316036107805760405162461bcd60e51b815260206004820152602160248201527f4552433732313a20617070726f76616c20746f2063757272656e74206f776e656044820152603960f91b60648201526084016106e3565b336001600160a01b038216148061079c575061079c813361059d565b61080e5760405162461bcd60e51b815260206004820152603860248201527f4552433732313a20617070726f76652063616c6c6572206973206e6f74206f7760448201527f6e6572206e6f7220617070726f76656420666f7220616c6c000000000000000060648201526084016106e3565b610818838361137a565b505050565b60606001600160a01b03841661086d5760405162461bcd60e51b81526020600482015260156024820152746f776e6572206973207a65726f206164647265737360581b60448201526064016106e3565b8183106108ac5760405162461bcd60e51b815260206004820152600d60248201526c0d2dcecc2d8d2c840d2dcc8caf609b1b60448201526064016106e3565b6001600160a01b0384166000908152601260205260408120906108cf8585612779565b82549091508111156108e3575080546108f2565b806000036108f2575050610998565b8067ffffffffffffffff81111561090b5761090b6124db565b604051908082528060200260200182016040528015610934578160200160208202803683370190505b50925060005b818114610994578261094c8288612790565b8154811061095c5761095c6127a8565b9060005260206000200154848281518110610979576109796127a8565b602090810291909101015261098d816127be565b905061093a565b5050505b9392505050565b6109aa335b826113e8565b6109c65760405162461bcd60e51b81526004016106e3906127d7565b6108188383836114df565b6000828152602081905260409020600101546109ed81336114fe565b6108188383611562565b6000610a0283610f67565b8210610a645760405162461bcd60e51b815260206004820152602b60248201527f455243373231456e756d657261626c653a206f776e657220696e646578206f7560448201526a74206f6620626f756e647360a81b60648201526084016106e3565b506001600160a01b03919091166000908152600860209081526040808320938352929052205490565b6001600160a01b0381163314610afd5760405162461bcd60e51b815260206004820152602f60248201527f416363657373436f6e74726f6c3a2063616e206f6e6c792072656e6f756e636560448201526e103937b632b9903337b91039b2b63360891b60648201526084016106e3565b610b078282611584565b5050565b610b357f65d7a28e3265b37a6474929f336521b332c1681b933f6cb9f3376673440d862a336110aa565b610ba9576040805162461bcd60e51b81526020600482015260248101919091527f4552433732315072657365744d696e7465725061757365724175746f49643a2060448201527f6d75737420686176652070617573657220726f6c6520746f20756e706175736560648201526084016106e3565b610bb16115a6565b565b610818838383604051806020016040528060008152506110ed565b610bd7336109a4565b610c3c5760405162461bcd60e51b815260206004820152603060248201527f4552433732314275726e61626c653a2063616c6c6572206973206e6f74206f7760448201526f1b995c881b9bdc88185c1c1c9bdd995960821b60648201526084016106e3565b61041a81611639565b6000610c50600a5490565b8210610cb35760405162461bcd60e51b815260206004820152602c60248201527f455243373231456e756d657261626c653a20676c6f62616c20696e646578206f60448201526b7574206f6620626f756e647360a01b60648201526084016106e3565b600a8281548110610cc657610cc66127a8565b90600052602060002001549050919050565b610d027f8207333f63dadcd0f8115c92187d0d7102dbcb682d67cc7f9dfccbfc085348be336110aa565b610d5f5760405162461bcd60e51b815260206004820152602860248201527f4d75737420686176652055524c5345545445525f524f4c4520726f6c6520746f604482015267207365742075726960c01b60648201526084016106e3565b8051610b0790600f906020840190612266565b610d9c7f9f2df0fed2c77648de5860a4cc508cd0818c85b8b8a1ab4ceeef8d981c8956a6336110aa565b610e0e5760405162461bcd60e51b815260206004820152603d60248201527f4552433732315072657365744d696e7465725061757365724175746f49643a2060448201527f6d7573742068617665206d696e74657220726f6c6520746f206d696e7400000060648201526084016106e3565b6000610e1960105490565b60008181526011602090815260409091208451929350610e3d929091850190612266565b50610e488382611659565b610818601080546001019055565b6000818152600460205260408120546001600160a01b0316806105d65760405162461bcd60e51b815260206004820152602960248201527f4552433732313a206f776e657220717565727920666f72206e6f6e657869737460448201526832b73a103a37b5b2b760b91b60648201526084016106e3565b60116020526000908152604090208054610ee690612729565b80601f0160208091040260200160405190810160405280929190818152602001828054610f1290612729565b8015610f5f5780601f10610f3457610100808354040283529160200191610f5f565b820191906000526020600020905b815481529060010190602001808311610f4257829003601f168201915b505050505081565b60006001600160a01b038216610fd25760405162461bcd60e51b815260206004820152602a60248201527f4552433732313a2062616c616e636520717565727920666f7220746865207a65604482015269726f206164647265737360b01b60648201526084016106e3565b506001600160a01b031660009081526005602052604090205490565b6110187f65d7a28e3265b37a6474929f336521b332c1681b933f6cb9f3376673440d862a336110aa565b61108a5760405162461bcd60e51b815260206004820152603e60248201527f4552433732315072657365744d696e7465725061757365724175746f49643a2060448201527f6d75737420686176652070617573657220726f6c6520746f207061757365000060648201526084016106e3565b610bb161166d565b600082815260016020526040812061099890836116e8565b6000918252602082815260408084206001600160a01b0393909316845291905290205460ff1690565b6060600380546105eb90612729565b610b073383836116f4565b6110f733836113e8565b6111135760405162461bcd60e51b81526004016106e3906127d7565b61111f848484846117c2565b50505050565b61114f7fe97b137254058bd94f28d2f3eb79e2d34074ffb488d042e3bc958e0a57d2fa22336110aa565b610c3c5760405162461bcd60e51b815260206004820152601b60248201527f4d7573742068617665206275726e20726f6c6520746f206275726e000000000060448201526064016106e3565b6000818152600460205260409020546060906001600160a01b031661121a5760405162461bcd60e51b815260206004820152602f60248201527f4552433732314d657461646174613a2055524920717565727920666f72206e6f60448201526e3732bc34b9ba32b73a103a37b5b2b760891b60648201526084016106e3565b60006112246117f5565b905060008151116112445760405180602001604052806000815250610998565b8060116000858152602001908152602001600020604051602001611269929190612828565b6040516020818303038152906040529392505050565b60008181526001602052604081206105d690611804565b6000828152602081905260409020600101546112b281336114fe565b6108188383611584565b6112c682826110aa565b610b07576000828152602081815260408083206001600160a01b03851684529091529020805460ff191660011790556112fc3390565b6001600160a01b0316816001600160a01b0316837f2f8788117e7eff1d82e926ec794901d17c78024a50270940304540a733656f0d60405160405180910390a45050565b6000610998836001600160a01b03841661180e565b60006001600160e01b0319821663780e9d6360e01b14806105d657506105d68261185d565b600081815260066020526040902080546001600160a01b0319166001600160a01b03841690811790915581906113af82610e56565b6001600160a01b03167f8c5be1e5ebec7d5bd14f71427d1e84f3dd0314c0f7b2291e5b200ac8c7c3b92560405160405180910390a45050565b6000818152600460205260408120546001600160a01b03166114615760405162461bcd60e51b815260206004820152602c60248201527f4552433732313a206f70657261746f7220717565727920666f72206e6f6e657860448201526b34b9ba32b73a103a37b5b2b760a11b60648201526084016106e3565b600061146c83610e56565b9050806001600160a01b0316846001600160a01b031614806114a75750836001600160a01b031661149c8461066e565b6001600160a01b0316145b806114d757506001600160a01b0380821660009081526007602090815260408083209388168352929052205460ff165b949350505050565b6114ea83838361189d565b6114f48382611a48565b6108188282611b04565b61150882826110aa565b610b0757611520816001600160a01b03166014611b3d565b61152b836020611b3d565b60405160200161153c9291906128d8565b60408051601f198184030181529082905262461bcd60e51b82526106e39160040161238a565b61156c82826112bc565b60008281526001602052604090206108189082611340565b61158e8282611cd9565b60008281526001602052604090206108189082611d3e565b600c5460ff166115ef5760405162461bcd60e51b815260206004820152601460248201527314185d5cd8589b194e881b9bdd081c185d5cd95960621b60448201526064016106e3565b600c805460ff191690557f5db9ee0a495bf2e6ff9c91a7834c1ba4fdd244a5e8aa4e537bd38aeae4b073aa335b6040516001600160a01b03909116815260200160405180910390a1565b600061164482610e56565b905061164f82611d53565b610b078183611a48565b6116638282611dfa565b610b078282611b04565b600c5460ff16156116b35760405162461bcd60e51b815260206004820152601060248201526f14185d5cd8589b194e881c185d5cd95960821b60448201526064016106e3565b600c805460ff191660011790557f62e78cea01bee320cd4e420270b5ea74000d11b0c9f74754ebdbfc544b05a25861161c3390565b60006109988383611f48565b816001600160a01b0316836001600160a01b0316036117555760405162461bcd60e51b815260206004820152601960248201527f4552433732313a20617070726f766520746f2063616c6c65720000000000000060448201526064016106e3565b6001600160a01b03838116600081815260076020908152604080832094871680845294825291829020805460ff191686151590811790915591519182527f17307eab39ab6107e8899845ad3d59bd9653f200f220920489ca2b5937696c31910160405180910390a3505050565b6117cd8484846114df565b6117d984848484611f72565b61111f5760405162461bcd60e51b81526004016106e39061294d565b6060600f80546105eb90612729565b60006105d6825490565b6000818152600183016020526040812054611855575081546001818101845560008481526020808220909301849055845484825282860190935260409020919091556105d6565b5060006105d6565b60006001600160e01b031982166380ac58cd60e01b148061188e57506001600160e01b03198216635b5e139f60e01b145b806105d657506105d682612073565b826001600160a01b03166118b082610e56565b6001600160a01b0316146119185760405162461bcd60e51b815260206004820152602960248201527f4552433732313a207472616e73666572206f6620746f6b656e2074686174206960448201526839903737ba1037bbb760b91b60648201526084016106e3565b6001600160a01b03821661197a5760405162461bcd60e51b8152602060048201526024808201527f4552433732313a207472616e7366657220746f20746865207a65726f206164646044820152637265737360e01b60648201526084016106e3565b611985838383612098565b61199060008261137a565b6001600160a01b03831660009081526005602052604081208054600192906119b9908490612779565b90915550506001600160a01b03821660009081526005602052604081208054600192906119e7908490612790565b909155505060008181526004602052604080822080546001600160a01b0319166001600160a01b0386811691821790925591518493918716917fddf252ad1be2c89b69c2b068fc378daa952ba7f163c4a11628f55a4df523b3ef91a4505050565b6000818152601360209081526040808320546001600160a01b038616845260129092528220805491929091611a7f90600190612779565b90506000828281548110611a9557611a956127a8565b9060005260206000200154905080838581548110611ab557611ab56127a8565b60009182526020808320909101929092558281526013909152604090208490558254839080611ae657611ae661299f565b60019003818190600052602060002001600090559055505050505050565b6001600160a01b039091166000908152601260209081526040808320805485855260138452918420829055600182018155835291200155565b60606000611b4c8360026129b5565b611b57906002612790565b67ffffffffffffffff811115611b6f57611b6f6124db565b6040519080825280601f01601f191660200182016040528015611b99576020820181803683370190505b509050600360fc1b81600081518110611bb457611bb46127a8565b60200101906001600160f81b031916908160001a905350600f60fb1b81600181518110611be357611be36127a8565b60200101906001600160f81b031916908160001a9053506000611c078460026129b5565b611c12906001612790565b90505b6001811115611c8a576f181899199a1a9b1b9c1cb0b131b232b360811b85600f1660108110611c4657611c466127a8565b1a60f81b828281518110611c5c57611c5c6127a8565b60200101906001600160f81b031916908160001a90535060049490941c93611c83816129d4565b9050611c15565b5083156109985760405162461bcd60e51b815260206004820181905260248201527f537472696e67733a20686578206c656e67746820696e73756666696369656e7460448201526064016106e3565b611ce382826110aa565b15610b07576000828152602081815260408083206001600160a01b0385168085529252808320805460ff1916905551339285917ff6391f5c32d9c69d2a47ea670b442974b53935d1edc7fd64eb21e047a839171b9190a45050565b6000610998836001600160a01b03841661213e565b6000611d5e82610e56565b9050611d6c81600084612098565b611d7760008361137a565b6001600160a01b0381166000908152600560205260408120805460019290611da0908490612779565b909155505060008281526004602052604080822080546001600160a01b0319169055518391906001600160a01b038416907fddf252ad1be2c89b69c2b068fc378daa952ba7f163c4a11628f55a4df523b3ef908390a45050565b6001600160a01b038216611e505760405162461bcd60e51b815260206004820181905260248201527f4552433732313a206d696e7420746f20746865207a65726f206164647265737360448201526064016106e3565b6000818152600460205260409020546001600160a01b031615611eb55760405162461bcd60e51b815260206004820152601c60248201527f4552433732313a20746f6b656e20616c7265616479206d696e7465640000000060448201526064016106e3565b611ec160008383612098565b6001600160a01b0382166000908152600560205260408120805460019290611eea908490612790565b909155505060008181526004602052604080822080546001600160a01b0319166001600160a01b03861690811790915590518392907fddf252ad1be2c89b69c2b068fc378daa952ba7f163c4a11628f55a4df523b3ef908290a45050565b6000826000018281548110611f5f57611f5f6127a8565b9060005260206000200154905092915050565b60006001600160a01b0384163b1561206857604051630a85bd0160e11b81526001600160a01b0385169063150b7a0290611fb69033908990889088906004016129eb565b6020604051808303816000875af1925050508015611ff1575060408051601f3d908101601f19168201909252611fee91810190612a28565b60015b61204e573d80801561201f576040519150601f19603f3d011682016040523d82523d6000602084013e612024565b606091505b5080516000036120465760405162461bcd60e51b81526004016106e39061294d565b805181602001fd5b6001600160e01b031916630a85bd0160e11b1490506114d7565b506001949350505050565b60006001600160e01b03198216635a05180f60e01b14806105d657506105d682612231565b6001600160a01b038316158015906120b857506001600160a01b03821615155b15610818576120e77f8502233096d909befbda0999bb8ea2f3a6be3c138b9fbf003752a4c8bce86f6c336110aa565b6108185760405162461bcd60e51b815260206004820152602260248201527f4d7573742068617665207472616e66657220726f6c6520746f207472616e736660448201526132b960f11b60648201526084016106e3565b60008181526001830160205260408120548015612227576000612162600183612779565b855490915060009061217690600190612779565b90508181146121db576000866000018281548110612196576121966127a8565b90600052602060002001549050808760000184815481106121b9576121b96127a8565b6000918252602080832090910192909255918252600188019052604090208390555b85548690806121ec576121ec61299f565b6001900381819060005260206000200160009055905585600101600086815260200190815260200160002060009055600193505050506105d6565b60009150506105d6565b60006001600160e01b03198216637965db0b60e01b14806105d657506301ffc9a760e01b6001600160e01b03198316146105d6565b82805461227290612729565b90600052602060002090601f01602090048101928261229457600085556122da565b82601f106122ad57805160ff19168380011785556122da565b828001600101855582156122da579182015b828111156122da5782518255916020019190600101906122bf565b506122e69291506122ea565b5090565b5b808211156122e657600081556001016122eb565b6001600160e01b03198116811461041a57600080fd5b60006020828403121561232757600080fd5b8135610998816122ff565b60005b8381101561234d578181015183820152602001612335565b8381111561111f5750506000910152565b60008151808452612376816020860160208601612332565b601f01601f19169290920160200192915050565b602081526000610998602083018461235e565b6000602082840312156123af57600080fd5b5035919050565b80356001600160a01b03811681146123cd57600080fd5b919050565b600080604083850312156123e557600080fd5b6123ee836123b6565b946020939093013593505050565b60008060006060848603121561241157600080fd5b61241a846123b6565b95602085013595506040909401359392505050565b6020808252825182820181905260009190848201906040850190845b818110156124675783518352928401929184019160010161244b565b50909695505050505050565b60008060006060848603121561248857600080fd5b612491846123b6565b925061249f602085016123b6565b9150604084013590509250925092565b600080604083850312156124c257600080fd5b823591506124d2602084016123b6565b90509250929050565b634e487b7160e01b600052604160045260246000fd5b600067ffffffffffffffff8084111561250c5761250c6124db565b604051601f8501601f19908116603f01168101908282118183101715612534576125346124db565b8160405280935085815286868601111561254d57600080fd5b858560208301376000602087830101525050509392505050565b600082601f83011261257857600080fd5b610998838335602085016124f1565b60006020828403121561259957600080fd5b813567ffffffffffffffff8111156125b057600080fd5b6114d784828501612567565b600080604083850312156125cf57600080fd5b6125d8836123b6565b9150602083013567ffffffffffffffff8111156125f457600080fd5b61260085828601612567565b9150509250929050565b60006020828403121561261c57600080fd5b610998826123b6565b6000806040838503121561263857600080fd5b50508035926020909101359150565b6000806040838503121561265a57600080fd5b612663836123b6565b91506020830135801515811461267857600080fd5b809150509250929050565b6000806000806080858703121561269957600080fd5b6126a2856123b6565b93506126b0602086016123b6565b925060408501359150606085013567ffffffffffffffff8111156126d357600080fd5b8501601f810187136126e457600080fd5b6126f3878235602084016124f1565b91505092959194509250565b6000806040838503121561271257600080fd5b61271b836123b6565b91506124d2602084016123b6565b600181811c9082168061273d57607f821691505b60208210810361275d57634e487b7160e01b600052602260045260246000fd5b50919050565b634e487b7160e01b600052601160045260246000fd5b60008282101561278b5761278b612763565b500390565b600082198211156127a3576127a3612763565b500190565b634e487b7160e01b600052603260045260246000fd5b6000600182016127d0576127d0612763565b5060010190565b60208082526031908201527f4552433732313a207472616e736665722063616c6c6572206973206e6f74206f6040820152701ddb995c881b9bdc88185c1c1c9bdd9959607a1b606082015260800190565b60008351602061283b8285838901612332565b845491840191600090600181811c908083168061285957607f831692505b858310810361287657634e487b7160e01b85526022600452602485fd5b80801561288a576001811461289b576128c8565b60ff198516885283880195506128c8565b60008b81526020902060005b858110156128c05781548a8201529084019088016128a7565b505083880195505b50939a9950505050505050505050565b7f416363657373436f6e74726f6c3a206163636f756e7420000000000000000000815260008351612910816017850160208801612332565b7001034b99036b4b9b9b4b733903937b6329607d1b6017918401918201528351612941816028840160208801612332565b01602801949350505050565b60208082526032908201527f4552433732313a207472616e7366657220746f206e6f6e20455243373231526560408201527131b2b4bb32b91034b6b83632b6b2b73a32b960711b606082015260800190565b634e487b7160e01b600052603160045260246000fd5b60008160001904831182151516156129cf576129cf612763565b500290565b6000816129e3576129e3612763565b506000190190565b6001600160a01b0385811682528416602082015260408101839052608060608201819052600090612a1e9083018461235e565b9695505050505050565b600060208284031215612a3a57600080fd5b8151610998816122ff56fea26469706673582212204811040568cd6571b6e2a0171c635e3c1a27af914021680491c27ffce495417d64736f6c634300080d0033",
  "immutableReferences": {},
  "source": "//SPDX-License-Identifier: Unlicense\npragma solidity ^0.8.0;\npragma experimental ABIEncoderV2;\n\nimport \"./Tradable721.sol\";\n\ncontract Untradable721 is Tradable721 {\n    bytes32 public constant TRANSFER_ROLE = keccak256(\"TRANSFER_ROLE\");\n\n    constructor(string memory name, string memory symbol) Tradable721(name, symbol) {}\n\n    function _beforeTokenTransfer(address from, address to, uint256) internal virtual override {\n        if (from != address(0) && to != address(0)) {\n            require(hasRole(TRANSFER_ROLE, msg.sender), \"Must have tranfer role to transfer\");\n        }\n    }\n}\n",
  "sourcePath": "/Users/necklace/work/nutbox/nutbox-contract/contracts/NFT/Untradable721.sol",
  "compiler": {
    "name": "solc",
    "version": "0.8.13+commit.abaa5c0e.Emscripten.clang"
  },
  "schemaVersion": "3.4.11",
  "updatedAt": "2023-03-17T15:36:28.211Z",
  "devdoc": {
    "kind": "dev",
    "methods": {
      "approve(address,uint256)": {
        "details": "See {IERC721-approve}."
      },
      "balanceOf(address)": {
        "details": "See {IERC721-balanceOf}."
      },
      "burn(uint256)": {
        "details": "Burns `tokenId`. See {ERC721-_burn}. Requirements: - The caller must own `tokenId` or be an approved operator."
      },
      "getApproved(uint256)": {
        "details": "See {IERC721-getApproved}."
      },
      "getRoleAdmin(bytes32)": {
        "details": "Returns the admin role that controls `role`. See {grantRole} and {revokeRole}. To change a role's admin, use {_setRoleAdmin}."
      },
      "getRoleMember(bytes32,uint256)": {
        "details": "Returns one of the accounts that have `role`. `index` must be a value between 0 and {getRoleMemberCount}, non-inclusive. Role bearers are not sorted in any particular way, and their ordering may change at any point. WARNING: When using {getRoleMember} and {getRoleMemberCount}, make sure you perform all queries on the same block. See the following https://forum.openzeppelin.com/t/iterating-over-elements-on-enumerableset-in-openzeppelin-contracts/2296[forum post] for more information."
      },
      "getRoleMemberCount(bytes32)": {
        "details": "Returns the number of accounts that have `role`. Can be used together with {getRoleMember} to enumerate all bearers of a role."
      },
      "grantRole(bytes32,address)": {
        "details": "Grants `role` to `account`. If `account` had not been already granted `role`, emits a {RoleGranted} event. Requirements: - the caller must have ``role``'s admin role."
      },
      "hasRole(bytes32,address)": {
        "details": "Returns `true` if `account` has been granted `role`."
      },
      "isApprovedForAll(address,address)": {
        "details": "See {IERC721-isApprovedForAll}."
      },
      "mint(address)": {
        "details": "Creates a new token for `to`. Its token ID will be automatically assigned (and available on the emitted {IERC721-Transfer} event), and the token URI autogenerated based on the base URI passed at construction. See {ERC721-_mint}. Requirements: - the caller must have the `MINTER_ROLE`."
      },
      "name()": {
        "details": "See {IERC721Metadata-name}."
      },
      "ownerOf(uint256)": {
        "details": "See {IERC721-ownerOf}."
      },
      "pause()": {
        "details": "Pauses all token transfers. See {ERC721Pausable} and {Pausable-_pause}. Requirements: - the caller must have the `PAUSER_ROLE`."
      },
      "paused()": {
        "details": "Returns true if the contract is paused, and false otherwise."
      },
      "renounceRole(bytes32,address)": {
        "details": "Revokes `role` from the calling account. Roles are often managed via {grantRole} and {revokeRole}: this function's purpose is to provide a mechanism for accounts to lose their privileges if they are compromised (such as when a trusted device is misplaced). If the calling account had been revoked `role`, emits a {RoleRevoked} event. Requirements: - the caller must be `account`."
      },
      "revokeRole(bytes32,address)": {
        "details": "Revokes `role` from `account`. If `account` had been granted `role`, emits a {RoleRevoked} event. Requirements: - the caller must have ``role``'s admin role."
      },
      "safeTransferFrom(address,address,uint256)": {
        "details": "See {IERC721-safeTransferFrom}."
      },
      "safeTransferFrom(address,address,uint256,bytes)": {
        "details": "See {IERC721-safeTransferFrom}."
      },
      "setApprovalForAll(address,bool)": {
        "details": "See {IERC721-setApprovalForAll}."
      },
      "supportsInterface(bytes4)": {
        "details": "See {IERC165-supportsInterface}."
      },
      "symbol()": {
        "details": "See {IERC721Metadata-symbol}."
      },
      "tokenByIndex(uint256)": {
        "details": "See {IERC721Enumerable-tokenByIndex}."
      },
      "tokenOfOwnerByIndex(address,uint256)": {
        "details": "See {IERC721Enumerable-tokenOfOwnerByIndex}."
      },
      "tokenURI(uint256)": {
        "details": "See {IERC721Metadata-tokenURI}."
      },
      "totalSupply()": {
        "details": "See {IERC721Enumerable-totalSupply}."
      },
      "transferFrom(address,address,uint256)": {
        "details": "See {IERC721-transferFrom}."
      },
      "unpause()": {
        "details": "Unpauses all token transfers. See {ERC721Pausable} and {Pausable-_unpause}. Requirements: - the caller must have the `PAUSER_ROLE`."
      }
    },
    "version": 1
  },
  "userdoc": {
    "kind": "user",
    "methods": {},
    "version": 1
  }
}