{
  "contractName": "Utils",
  "abi": [
    {
      "inputs": [
        {
          "internalType": "bytes",
          "name": "seed",
          "type": "bytes"
        },
        {
          "internalType": "uint256",
          "name": "min",
          "type": "uint256"
        },
        {
          "internalType": "uint256",
          "name": "max",
          "type": "uint256"
        }
      ],
      "name": "randomUint",
      "outputs": [
        {
          "internalType": "uint256",
          "name": "",
          "type": "uint256"
        }
      ],
      "stateMutability": "pure",
      "type": "function"
    },
    {
      "inputs": [
        {
          "internalType": "bytes",
          "name": "seed",
          "type": "bytes"
        },
        {
          "internalType": "int256",
          "name": "min",
          "type": "int256"
        },
        {
          "internalType": "int256",
          "name": "max",
          "type": "int256"
        }
      ],
      "name": "randomInt",
      "outputs": [
        {
          "internalType": "int256",
          "name": "",
          "type": "int256"
        }
      ],
      "stateMutability": "pure",
      "type": "function"
    },
    {
      "inputs": [
        {
          "internalType": "bytes",
          "name": "seed",
          "type": "bytes"
        },
        {
          "internalType": "uint256[]",
          "name": "weights",
          "type": "uint256[]"
        },
        {
          "internalType": "uint256",
          "name": "totalWeight",
          "type": "uint256"
        }
      ],
      "name": "randomWeight",
      "outputs": [
        {
          "internalType": "uint256",
          "name": "",
          "type": "uint256"
        }
      ],
      "stateMutability": "pure",
      "type": "function"
    },
    {
      "inputs": [
        {
          "internalType": "bytes",
          "name": "seed",
          "type": "bytes"
        },
        {
          "internalType": "uint256[]",
          "name": "weights",
          "type": "uint256[]"
        },
        {
          "internalType": "uint256",
          "name": "totalWeight",
          "type": "uint256"
        }
      ],
      "name": "randomWeightR",
      "outputs": [
        {
          "internalType": "uint256",
          "name": "",
          "type": "uint256"
        }
      ],
      "stateMutability": "pure",
      "type": "function"
    },
    {
      "inputs": [
        {
          "internalType": "bytes",
          "name": "seed",
          "type": "bytes"
        },
        {
          "internalType": "uint256",
          "name": "nume",
          "type": "uint256"
        },
        {
          "internalType": "uint256",
          "name": "deno",
          "type": "uint256"
        }
      ],
      "name": "randomBool",
      "outputs": [
        {
          "internalType": "bool",
          "name": "",
          "type": "bool"
        }
      ],
      "stateMutability": "pure",
      "type": "function"
    },
    {
      "inputs": [
        {
          "internalType": "bytes",
          "name": "_bytes",
          "type": "bytes"
        },
        {
          "internalType": "uint256",
          "name": "_start",
          "type": "uint256"
        }
      ],
      "name": "toUint8",
      "outputs": [
        {
          "internalType": "uint8",
          "name": "",
          "type": "uint8"
        }
      ],
      "stateMutability": "pure",
      "type": "function"
    },
    {
      "inputs": [
        {
          "internalType": "bytes",
          "name": "_bytes",
          "type": "bytes"
        },
        {
          "internalType": "uint256",
          "name": "_start",
          "type": "uint256"
        }
      ],
      "name": "toUint16",
      "outputs": [
        {
          "internalType": "uint16",
          "name": "",
          "type": "uint16"
        }
      ],
      "stateMutability": "pure",
      "type": "function"
    },
    {
      "inputs": [
        {
          "internalType": "bytes",
          "name": "_bytes",
          "type": "bytes"
        },
        {
          "internalType": "uint256",
          "name": "_start",
          "type": "uint256"
        }
      ],
      "name": "toUint32",
      "outputs": [
        {
          "internalType": "uint32",
          "name": "",
          "type": "uint32"
        }
      ],
      "stateMutability": "pure",
      "type": "function"
    },
    {
      "inputs": [
        {
          "internalType": "bytes",
          "name": "_bytes",
          "type": "bytes"
        },
        {
          "internalType": "uint256",
          "name": "_start",
          "type": "uint256"
        }
      ],
      "name": "toUint64",
      "outputs": [
        {
          "internalType": "uint64",
          "name": "",
          "type": "uint64"
        }
      ],
      "stateMutability": "pure",
      "type": "function"
    },
    {
      "inputs": [
        {
          "internalType": "bytes",
          "name": "_bytes",
          "type": "bytes"
        },
        {
          "internalType": "uint256",
          "name": "_start",
          "type": "uint256"
        }
      ],
      "name": "toUint128",
      "outputs": [
        {
          "internalType": "uint128",
          "name": "",
          "type": "uint128"
        }
      ],
      "stateMutability": "pure",
      "type": "function"
    },
    {
      "inputs": [
        {
          "internalType": "bytes",
          "name": "_bytes",
          "type": "bytes"
        },
        {
          "internalType": "uint256",
          "name": "_start",
          "type": "uint256"
        }
      ],
      "name": "toUint256",
      "outputs": [
        {
          "internalType": "uint256",
          "name": "",
          "type": "uint256"
        }
      ],
      "stateMutability": "pure",
      "type": "function"
    }
  ],
  "bytecode": "0x610b8e61003a600b82828239805160001a60731461002d57634e487b7160e01b600052600060045260246000fd5b30600052607381538281f3fe73000000000000000000000000000000000000000030146080604052600436106100b35760003560e01c80639ae4c3d11161007b5780639ae4c3d114610172578063b5cdf9241461019e578063bb6296ad146101b1578063be8b3430146101c4578063c1d93cee146101ea578063d19bbbc01461020d57600080fd5b806305d3bb74146100b857806348137709146100e55780636d9552021461010a5780639057e4b21461012b578063913c97b41461013e575b600080fd5b6100cb6100c63660046108aa565b610220565b60405163ffffffff90911681526020015b60405180910390f35b6100f86100f33660046108aa565b6102d0565b60405160ff90911681526020016100dc565b61011d6101183660046108ef565b610379565b6040519081526020016100dc565b61011d6101393660046108ef565b6103c5565b61015161014c3660046108aa565b610406565b6040516fffffffffffffffffffffffffffffffff90911681526020016100dc565b6101856101803660046108aa565b6104b3565b60405167ffffffffffffffff90911681526020016100dc565b61011d6101ac3660046108aa565b61055e565b61011d6101bf36600461093d565b61060b565b6101d76101d23660046108aa565b610697565b60405161ffff90911681526020016100dc565b6101fd6101f83660046108ef565b610742565b60405190151581526020016100dc565b61011d61021b36600461093d565b61075d565b60008161022e816004610a25565b10156102755760405162461bcd60e51b8152602060048201526011602482015270746f55696e7433325f6f766572666c6f7760781b60448201526064015b60405180910390fd5b610280826004610a25565b835110156102c75760405162461bcd60e51b8152602060048201526014602482015273746f55696e7433325f6f75744f66426f756e647360601b604482015260640161026c565b50016004015190565b6000816102de816001610a25565b101561031f5760405162461bcd60e51b815260206004820152601060248201526f746f55696e74385f6f766572666c6f7760801b604482015260640161026c565b61032a826001610a25565b835110156103705760405162461bcd60e51b8152602060048201526013602482015272746f55696e74385f6f75744f66426f756e647360681b604482015260640161026c565b50016001015190565b60008183106103895750816103be565b835160208501208361039b8185610a3d565b6103a6906001610a25565b6103b09083610a6a565b6103ba9190610a25565b9150505b9392505050565b60008183126103d55750816103be565b83516020850120836103e78185610a7e565b6103f2906001610abd565b6103fc9083610afe565b6103ba9190610abd565b600081610414816010610a25565b10156104575760405162461bcd60e51b8152602060048201526012602482015271746f55696e743132385f6f766572666c6f7760701b604482015260640161026c565b610462826010610a25565b835110156104aa5760405162461bcd60e51b8152602060048201526015602482015274746f55696e743132385f6f75744f66426f756e647360581b604482015260640161026c565b50016010015190565b6000816104c1816008610a25565b10156105035760405162461bcd60e51b8152602060048201526011602482015270746f55696e7436345f6f766572666c6f7760781b604482015260640161026c565b61050e826008610a25565b835110156105555760405162461bcd60e51b8152602060048201526014602482015273746f55696e7436345f6f75744f66426f756e647360601b604482015260640161026c565b50016008015190565b60008161056c816020610a25565b10156105af5760405162461bcd60e51b8152602060048201526012602482015271746f55696e743235365f6f766572666c6f7760701b604482015260640161026c565b6105ba826020610a25565b835110156106025760405162461bcd60e51b8152602060048201526015602482015274746f55696e743235365f6f75744f66426f756e647360581b604482015260640161026c565b50016020015190565b60008061061a85600185610379565b90506000805b6001865161062e9190610a3d565b811461067e5785818151811061064657610646610b12565b6020026020010151826106599190610a25565b915081831161066c5792506103be915050565b8061067681610b28565b915050610620565b506001855161068d9190610a3d565b9695505050505050565b6000816106a5816002610a25565b10156106e75760405162461bcd60e51b8152602060048201526011602482015270746f55696e7431365f6f766572666c6f7760781b604482015260640161026c565b6106f2826002610a25565b835110156107395760405162461bcd60e51b8152602060048201526014602482015273746f55696e7431365f6f75744f66426f756e647360601b604482015260640161026c565b50016002015190565b60008061075185600185610379565b90931015949350505050565b60008061076c85600185610379565b905060006001855161077e9190610a3d565b90505b80156107e75784818151811061079957610799610b12565b602002602001015182116107b05791506103be9050565b8481815181106107c2576107c2610b12565b6020026020010151826107d59190610a3d565b91506107e081610b41565b9050610781565b50600095945050505050565b634e487b7160e01b600052604160045260246000fd5b604051601f8201601f1916810167ffffffffffffffff81118282101715610832576108326107f3565b604052919050565b600082601f83011261084b57600080fd5b813567ffffffffffffffff811115610865576108656107f3565b610878601f8201601f1916602001610809565b81815284602083860101111561088d57600080fd5b816020850160208301376000918101602001919091529392505050565b600080604083850312156108bd57600080fd5b823567ffffffffffffffff8111156108d457600080fd5b6108e08582860161083a565b95602094909401359450505050565b60008060006060848603121561090457600080fd5b833567ffffffffffffffff81111561091b57600080fd5b6109278682870161083a565b9660208601359650604090950135949350505050565b60008060006060848603121561095257600080fd5b833567ffffffffffffffff8082111561096a57600080fd5b6109768783880161083a565b945060209150818601358181111561098d57600080fd5b8601601f8101881361099e57600080fd5b8035828111156109b0576109b06107f3565b8060051b92506109c1848401610809565b818152928201840192848101908a8511156109db57600080fd5b928501925b848410156109f9578335825292850192908501906109e0565b979a979950505050604095909501359450505050565b634e487b7160e01b600052601160045260246000fd5b60008219821115610a3857610a38610a0f565b500190565b600082821015610a4f57610a4f610a0f565b500390565b634e487b7160e01b600052601260045260246000fd5b600082610a7957610a79610a54565b500690565b60008083128015600160ff1b850184121615610a9c57610a9c610a0f565b6001600160ff1b0384018313811615610ab757610ab7610a0f565b50500390565b600080821280156001600160ff1b0384900385131615610adf57610adf610a0f565b600160ff1b8390038412811615610af857610af8610a0f565b50500190565b600082610b0d57610b0d610a54565b500790565b634e487b7160e01b600052603260045260246000fd5b600060018201610b3a57610b3a610a0f565b5060010190565b600081610b5057610b50610a0f565b50600019019056fea2646970667358221220afbe72a8527a0ff1191131a395630e6d77d4de494f404c3f6d0f45814668953c64736f6c634300080d0033",
  "immutableReferences": {},
  "source": "pragma solidity ^0.8.0;\n\n// SPDX-License-Identifier: MIT\n\nlibrary Utils {\n    function randomUint(\n        bytes memory seed,\n        uint256 min,\n        uint256 max\n    ) public pure returns (uint256) {\n        if (min >= max) {\n            return min;\n        }\n        uint256 number = uint256(keccak256(seed));\n        return (number % (max - min + 1)) + min;\n    }\n\n    function randomInt(\n        bytes memory seed,\n        int256 min,\n        int256 max\n    ) public pure returns (int256) {\n        if (min >= max) {\n            return min;\n        }\n        int256 number = int256(uint256(keccak256(seed)));\n        return (number % (max - min + 1)) + min;\n    }\n\n    function randomWeight(\n        bytes memory seed,\n        uint256[] memory weights,\n        uint256 totalWeight\n    ) public pure returns (uint256) {\n        uint256 number = randomUint(seed, 1, totalWeight);\n        uint256 last;\n        for (uint256 i = 0; i != weights.length - 1; i++) {\n            last += weights[i];\n            if (number <= last) {\n                return i;\n            }\n        }\n        return weights.length - 1;\n    }\n\n    function randomWeightR(\n        bytes memory seed,\n        uint256[] memory weights,\n        uint256 totalWeight\n    ) public pure returns (uint256) {\n        uint256 number = randomUint(seed, 1, totalWeight);\n\n        for (uint256 i = weights.length - 1; i != 0; --i) {\n            if (number <= weights[i]) {\n                return i;\n            }\n            number -= weights[i];\n        }\n        return 0;\n    }\n\n    function randomBool(\n        bytes memory seed,\n        uint256 nume,\n        uint256 deno\n    ) public pure returns (bool) {\n        uint256 rand = randomUint(seed, 1, deno);\n        return rand <= nume;\n    }\n\n    function toUint8(bytes memory _bytes, uint256 _start) public pure returns (uint8) {\n        require(_start + 1 >= _start, \"toUint8_overflow\");\n        require(_bytes.length >= _start + 1, \"toUint8_outOfBounds\");\n        uint8 tempUint;\n        assembly {\n            tempUint := mload(add(add(_bytes, 0x1), _start))\n        }\n        return tempUint;\n    }\n\n    function toUint16(bytes memory _bytes, uint256 _start) public pure returns (uint16) {\n        require(_start + 2 >= _start, \"toUint16_overflow\");\n        require(_bytes.length >= _start + 2, \"toUint16_outOfBounds\");\n        uint16 tempUint;\n        assembly {\n            tempUint := mload(add(add(_bytes, 0x2), _start))\n        }\n        return tempUint;\n    }\n\n    function toUint32(bytes memory _bytes, uint256 _start) public pure returns (uint32) {\n        require(_start + 4 >= _start, \"toUint32_overflow\");\n        require(_bytes.length >= _start + 4, \"toUint32_outOfBounds\");\n        uint32 tempUint;\n        assembly {\n            tempUint := mload(add(add(_bytes, 0x4), _start))\n        }\n        return tempUint;\n    }\n\n    function toUint64(bytes memory _bytes, uint256 _start) public pure returns (uint64) {\n        require(_start + 8 >= _start, \"toUint64_overflow\");\n        require(_bytes.length >= _start + 8, \"toUint64_outOfBounds\");\n        uint64 tempUint;\n        assembly {\n            tempUint := mload(add(add(_bytes, 0x8), _start))\n        }\n        return tempUint;\n    }\n\n    function toUint128(bytes memory _bytes, uint256 _start) public pure returns (uint128) {\n        require(_start + 16 >= _start, \"toUint128_overflow\");\n        require(_bytes.length >= _start + 16, \"toUint128_outOfBounds\");\n        uint128 tempUint;\n        assembly {\n            tempUint := mload(add(add(_bytes, 0x10), _start))\n        }\n        return tempUint;\n    }\n\n    function toUint256(bytes memory _bytes, uint256 _start) public pure returns (uint256) {\n        require(_start + 32 >= _start, \"toUint256_overflow\");\n        require(_bytes.length >= _start + 32, \"toUint256_outOfBounds\");\n        uint256 tempUint;\n        assembly {\n            tempUint := mload(add(add(_bytes, 0x20), _start))\n        }\n        return tempUint;\n    }\n}\n",
  "sourcePath": "/Users/necklace/work/nutbox/nutbox-contract/contracts/Utils.sol",
  "compiler": {
    "name": "solc",
    "version": "0.8.13+commit.abaa5c0e.Emscripten.clang"
  },
  "schemaVersion": "3.4.11",
  "updatedAt": "2023-01-18T13:31:15.478Z",
  "devdoc": {
    "kind": "dev",
    "methods": {},
    "version": 1
  },
  "userdoc": {
    "kind": "user",
    "methods": {},
    "version": 1
  }
}