{
  "contractName": "Web3Id",
  "abi": [
    {
      "anonymous": false,
      "inputs": [
        {
          "indexed": true,
          "internalType": "uint256",
          "name": "twitterId",
          "type": "uint256"
        },
        {
          "indexed": true,
          "internalType": "uint256",
          "name": "updateTimes",
          "type": "uint256"
        }
      ],
      "name": "AdminUpdateAccountBindInfo",
      "type": "event"
    },
    {
      "anonymous": false,
      "inputs": [
        {
          "indexed": true,
          "internalType": "address",
          "name": "previousOwner",
          "type": "address"
        },
        {
          "indexed": true,
          "internalType": "address",
          "name": "newOwner",
          "type": "address"
        }
      ],
      "name": "OwnershipTransferred",
      "type": "event"
    },
    {
      "inputs": [],
      "name": "owner",
      "outputs": [
        {
          "internalType": "address",
          "name": "",
          "type": "address"
        }
      ],
      "stateMutability": "view",
      "type": "function"
    },
    {
      "inputs": [],
      "name": "renounceOwnership",
      "outputs": [],
      "stateMutability": "nonpayable",
      "type": "function"
    },
    {
      "inputs": [
        {
          "internalType": "address",
          "name": "newOwner",
          "type": "address"
        }
      ],
      "name": "transferOwnership",
      "outputs": [],
      "stateMutability": "nonpayable",
      "type": "function"
    },
    {
      "inputs": [
        {
          "internalType": "uint256",
          "name": "",
          "type": "uint256"
        }
      ],
      "name": "userAccounts",
      "outputs": [
        {
          "internalType": "uint256",
          "name": "updateTimes",
          "type": "uint256"
        },
        {
          "internalType": "string",
          "name": "customJson",
          "type": "string"
        }
      ],
      "stateMutability": "view",
      "type": "function"
    },
    {
      "inputs": [
        {
          "internalType": "uint256",
          "name": "twitterId",
          "type": "uint256"
        },
        {
          "internalType": "string",
          "name": "customJson",
          "type": "string"
        }
      ],
      "name": "adminSetAccount",
      "outputs": [],
      "stateMutability": "nonpayable",
      "type": "function"
    },
    {
      "inputs": [
        {
          "internalType": "uint256[]",
          "name": "twitterIds",
          "type": "uint256[]"
        },
        {
          "internalType": "string[]",
          "name": "customJsons",
          "type": "string[]"
        }
      ],
      "name": "adminSetAccounts",
      "outputs": [],
      "stateMutability": "nonpayable",
      "type": "function"
    },
    {
      "inputs": [
        {
          "internalType": "uint256",
          "name": "twitterId",
          "type": "uint256"
        }
      ],
      "name": "getUserInfo",
      "outputs": [
        {
          "internalType": "string",
          "name": "",
          "type": "string"
        }
      ],
      "stateMutability": "view",
      "type": "function"
    }
  ],
  "bytecode": "0x608060405234801561001057600080fd5b5061002161001c610026565b61002a565b61007a565b3390565b600080546001600160a01b038381166001600160a01b0319831681178455604051919092169283917f8be0079c531659141344cd1fd0a4f28419497f9722a3daafe3b4186f6b6457e09190a35050565b610a5c806100896000396000f3fe608060405234801561001057600080fd5b506004361061007d5760003560e01c80638da5cb5b1161005b5780638da5cb5b146100c9578063cf371231146100de578063d379dadf146100f1578063f2fde38b146101115761007d565b8063616d505814610082578063715018a6146100ac5780637bc4c41d146100b6575b600080fd5b61009561009036600461074d565b610124565b6040516100a3929190610926565b60405180910390f35b6100b46101c8565b005b6100b46100c43660046106e4565b61021c565b6100d161038f565b6040516100a3919061085d565b6100b46100ec366004610765565b61039e565b6101046100ff36600461074d565b610467565b6040516100a39190610871565b6100b461011f3660046106b6565b61050f565b600160208190526000918252604090912080549181018054610145906109a4565b80601f0160208091040260200160405190810160405280929190818152602001828054610171906109a4565b80156101be5780601f10610193576101008083540402835291602001916101be565b820191906000526020600020905b8154815290600101906020018083116101a157829003601f168201915b5050505050905082565b6101d0610580565b6001600160a01b03166101e161038f565b6001600160a01b0316146102105760405162461bcd60e51b8152600401610207906108f1565b60405180910390fd5b61021a6000610584565b565b610224610580565b6001600160a01b031661023561038f565b6001600160a01b03161461025b5760405162461bcd60e51b8152600401610207906108f1565b821580159061026957508281145b6102855760405162461bcd60e51b8152600401610207906108ca565b8260005b818110156103875760008686838181106102b357634e487b7160e01b600052603260045260246000fd5b90506020020135905060008585848181106102de57634e487b7160e01b600052603260045260246000fd5b90506020028101906102f09190610947565b8080601f01602080910402602001604051908101604052809392919081815260200183838082843760009201829052508681526001602081905260408220805496975090959094509092506103479150849061098c565b909155505060008281526001602081815260409092208351610371939190920191908401906105d4565b505050808061037f906109df565b915050610289565b505050505050565b6000546001600160a01b031690565b6103a6610580565b6001600160a01b03166103b761038f565b6001600160a01b0316146103dd5760405162461bcd60e51b8152600401610207906108f1565b600082815260016020819052604082208054919290916103fe90849061098c565b909155505060008281526001602081815260409092208351610428939190920191908401906105d4565b50600082815260016020526040808220549051909184917f212145b271664a297edab69fd6f4564d902e35f1cea6f94a3bdc59fed29ca51c9190a35050565b606060016000838152602001908152602001600020600101805461048a906109a4565b80601f01602080910402602001604051908101604052809291908181526020018280546104b6906109a4565b80156105035780601f106104d857610100808354040283529160200191610503565b820191906000526020600020905b8154815290600101906020018083116104e657829003601f168201915b50505050509050919050565b610517610580565b6001600160a01b031661052861038f565b6001600160a01b03161461054e5760405162461bcd60e51b8152600401610207906108f1565b6001600160a01b0381166105745760405162461bcd60e51b815260040161020790610884565b61057d81610584565b50565b3390565b600080546001600160a01b038381166001600160a01b0319831681178455604051919092169283917f8be0079c531659141344cd1fd0a4f28419497f9722a3daafe3b4186f6b6457e09190a35050565b8280546105e0906109a4565b90600052602060002090601f0160209004810192826106025760008555610648565b82601f1061061b57805160ff1916838001178555610648565b82800160010185558215610648579182015b8281111561064857825182559160200191906001019061062d565b50610654929150610658565b5090565b5b808211156106545760008155600101610659565b60008083601f84011261067e578081fd5b50813567ffffffffffffffff811115610695578182fd5b60208301915083602080830285010111156106af57600080fd5b9250929050565b6000602082840312156106c7578081fd5b81356001600160a01b03811681146106dd578182fd5b9392505050565b600080600080604085870312156106f9578283fd5b843567ffffffffffffffff80821115610710578485fd5b61071c8883890161066d565b90965094506020870135915080821115610734578384fd5b506107418782880161066d565b95989497509550505050565b60006020828403121561075e578081fd5b5035919050565b60008060408385031215610777578182fd5b8235915060208084013567ffffffffffffffff80821115610796578384fd5b818601915086601f8301126107a9578384fd5b8135818111156107bb576107bb610a10565b604051601f8201601f19168101850183811182821017156107de576107de610a10565b60405281815283820185018910156107f4578586fd5b81858501868301378585838301015280955050505050509250929050565b60008151808452815b818110156108375760208185018101518683018201520161081b565b818111156108485782602083870101525b50601f01601f19169290920160200192915050565b6001600160a01b0391909116815260200190565b6000602082526106dd6020830184610812565b60208082526026908201527f4f776e61626c653a206e6577206f776e657220697320746865207a65726f206160408201526564647265737360d01b606082015260800190565b6020808252600d908201526c14185c985b481a5b9d985b1a59609a1b604082015260600190565b6020808252818101527f4f776e61626c653a2063616c6c6572206973206e6f7420746865206f776e6572604082015260600190565b60008382526040602083015261093f6040830184610812565b949350505050565b6000808335601e1984360301811261095d578283fd5b83018035915067ffffffffffffffff821115610977578283fd5b6020019150368190038213156106af57600080fd5b6000821982111561099f5761099f6109fa565b500190565b6002810460018216806109b857607f821691505b602082108114156109d957634e487b7160e01b600052602260045260246000fd5b50919050565b60006000198214156109f3576109f36109fa565b5060010190565b634e487b7160e01b600052601160045260246000fd5b634e487b7160e01b600052604160045260246000fdfea26469706673582212201fa002835e0f27e5c6cfc5635f42965ee805b595210e864b1fba5436e6443da464736f6c63430008000033",
  "immutableReferences": {},
  "source": "// SPDX-License-Identifier: MIT\npragma solidity 0.8.0;\n\nabstract contract Context {\n    function _msgSender() internal view virtual returns (address) {\n        return msg.sender;\n    }\n\n    function _msgData() internal view virtual returns (bytes calldata) {\n        return msg.data;\n    }\n}\n\nabstract contract Ownable is Context {\n    address private _owner;\n\n    event OwnershipTransferred(address indexed previousOwner, address indexed newOwner);\n\n    /**\n     * @dev Initializes the contract setting the deployer as the initial owner.\n     */\n    constructor() {\n        _transferOwnership(_msgSender());\n    }\n\n    /**\n     * @dev Returns the address of the current owner.\n     */\n    function owner() public view virtual returns (address) {\n        return _owner;\n    }\n\n    /**\n     * @dev Throws if called by any account other than the owner.\n     */\n    modifier onlyOwner() {\n        require(owner() == _msgSender(), \"Ownable: caller is not the owner\");\n        _;\n    }\n\n    /**\n     * @dev Leaves the contract without owner. It will not be possible to call\n     * `onlyOwner` functions anymore. Can only be called by the current owner.\n     *\n     * NOTE: Renouncing ownership will leave the contract without an owner,\n     * thereby removing any functionality that is only available to the owner.\n     */\n    function renounceOwnership() public virtual onlyOwner {\n        _transferOwnership(address(0));\n    }\n\n    /**\n     * @dev Transfers ownership of the contract to a new account (`newOwner`).\n     * Can only be called by the current owner.\n     */\n    function transferOwnership(address newOwner) public virtual onlyOwner {\n        require(newOwner != address(0), \"Ownable: new owner is the zero address\");\n        _transferOwnership(newOwner);\n    }\n\n    /**\n     * @dev Transfers ownership of the contract to a new account (`newOwner`).\n     * Internal function without access restriction.\n     */\n    function _transferOwnership(address newOwner) internal virtual {\n        address oldOwner = _owner;\n        _owner = newOwner;\n        emit OwnershipTransferred(oldOwner, newOwner);\n    }\n}\n\n/**\n * This contract is only as a db for wormhole project\n * We store twitter steem and eth address bind info to this contract\n * Now we deploy this contract to aurora network\n * Contract: 0xd500368843318aD3c144a844276D867856799c3b\n */\ncontract Web3Id is Ownable {\n    struct AccountInfo {\n        uint256 updateTimes;\n        string customJson;\n    }\n\n    mapping (uint256 => AccountInfo) public userAccounts;\n\n    event AdminUpdateAccountBindInfo(uint256 indexed twitterId, uint256 indexed updateTimes);\n\n    function adminSetAccount(uint256 twitterId, string memory customJson) public onlyOwner {\n        userAccounts[twitterId].updateTimes += 1;\n        userAccounts[twitterId].customJson = customJson;\n        emit AdminUpdateAccountBindInfo(twitterId, userAccounts[twitterId].updateTimes);\n    }\n\n    function adminSetAccounts(uint256[] calldata twitterIds, string[] calldata customJsons) external onlyOwner {\n        require(twitterIds.length > 0 && twitterIds.length == customJsons.length, 'Param invalid');\n        uint256 count = twitterIds.length;\n        for (uint256 i = 0; i < count; i++) {\n            uint256 twitterId = twitterIds[i];\n            string memory customJson = customJsons[i];\n            userAccounts[twitterId].updateTimes += 1;\n            userAccounts[twitterId].customJson = customJson;\n        }\n    }\n\n    function getUserInfo(uint256 twitterId) public view returns (string memory) {\n        return userAccounts[twitterId].customJson;\n    }\n}",
  "sourcePath": "/Users/necklace/work/nutbox/nutbox-contract/contracts/Web3Id.sol",
  "compiler": {
    "name": "solc",
    "version": "0.8.0+commit.c7dfd78e.Emscripten.clang"
  },
  "schemaVersion": "3.4.6",
  "updatedAt": "2023-01-17T09:18:59.729Z",
  "devdoc": {
    "kind": "dev",
    "methods": {
      "owner()": {
        "details": "Returns the address of the current owner."
      },
      "renounceOwnership()": {
        "details": "Leaves the contract without owner. It will not be possible to call `onlyOwner` functions anymore. Can only be called by the current owner. NOTE: Renouncing ownership will leave the contract without an owner, thereby removing any functionality that is only available to the owner."
      },
      "transferOwnership(address)": {
        "details": "Transfers ownership of the contract to a new account (`newOwner`). Can only be called by the current owner."
      }
    },
    "version": 1
  },
  "userdoc": {
    "kind": "user",
    "methods": {},
    "notice": "This contract is only as a db for wormhole project We store twitter steem and eth address bind info to this contract Now we deploy this contract to aurora network Contract: 0xd500368843318aD3c144a844276D867856799c3b",
    "version": 1
  }
}