{
  "contractName": "Web3Id",
  "abi": [
    {
      "anonymous": false,
      "inputs": [
        {
          "indexed": true,
          "internalType": "uint256",
          "name": "twitterId",
          "type": "uint256"
        },
        {
          "indexed": true,
          "internalType": "uint256",
          "name": "updateTimes",
          "type": "uint256"
        }
      ],
      "name": "AdminUpdateAccountBindInfo",
      "type": "event"
    },
    {
      "anonymous": false,
      "inputs": [
        {
          "indexed": true,
          "internalType": "address",
          "name": "previousOwner",
          "type": "address"
        },
        {
          "indexed": true,
          "internalType": "address",
          "name": "newOwner",
          "type": "address"
        }
      ],
      "name": "OwnershipTransferred",
      "type": "event"
    },
    {
      "inputs": [],
      "name": "owner",
      "outputs": [
        {
          "internalType": "address",
          "name": "",
          "type": "address"
        }
      ],
      "stateMutability": "view",
      "type": "function"
    },
    {
      "inputs": [],
      "name": "renounceOwnership",
      "outputs": [],
      "stateMutability": "nonpayable",
      "type": "function"
    },
    {
      "inputs": [
        {
          "internalType": "address",
          "name": "newOwner",
          "type": "address"
        }
      ],
      "name": "transferOwnership",
      "outputs": [],
      "stateMutability": "nonpayable",
      "type": "function"
    },
    {
      "inputs": [
        {
          "internalType": "uint256",
          "name": "",
          "type": "uint256"
        }
      ],
      "name": "userAccounts",
      "outputs": [
        {
          "internalType": "uint256",
          "name": "updateTimes",
          "type": "uint256"
        },
        {
          "internalType": "string",
          "name": "customJson",
          "type": "string"
        }
      ],
      "stateMutability": "view",
      "type": "function"
    },
    {
      "inputs": [
        {
          "internalType": "uint256",
          "name": "twitterId",
          "type": "uint256"
        },
        {
          "internalType": "string",
          "name": "customJson",
          "type": "string"
        }
      ],
      "name": "adminSetAccount",
      "outputs": [],
      "stateMutability": "nonpayable",
      "type": "function"
    },
    {
      "inputs": [
        {
          "internalType": "uint256[]",
          "name": "twitterIds",
          "type": "uint256[]"
        },
        {
          "internalType": "string[]",
          "name": "customJsons",
          "type": "string[]"
        }
      ],
      "name": "adminSetAccounts",
      "outputs": [],
      "stateMutability": "nonpayable",
      "type": "function"
    },
    {
      "inputs": [
        {
          "internalType": "uint256",
          "name": "twitterId",
          "type": "uint256"
        }
      ],
      "name": "getUserInfo",
      "outputs": [
        {
          "internalType": "string",
          "name": "",
          "type": "string"
        }
      ],
      "stateMutability": "view",
      "type": "function"
    }
  ],
  "bytecode": "0x608060405234801561001057600080fd5b5061001a3361001f565b61006f565b600080546001600160a01b038381166001600160a01b0319831681178455604051919092169283917f8be0079c531659141344cd1fd0a4f28419497f9722a3daafe3b4186f6b6457e09190a35050565b6109eb8061007e6000396000f3fe608060405234801561001057600080fd5b506004361061007d5760003560e01c80638da5cb5b1161005b5780638da5cb5b146100c9578063cf371231146100e4578063d379dadf146100f7578063f2fde38b1461011757600080fd5b8063616d505814610082578063715018a6146100ac5780637bc4c41d146100b6575b600080fd5b61009561009036600461064f565b61012a565b6040516100a39291906106b5565b60405180910390f35b6100b46101ce565b005b6100b46100c4366004610722565b61020d565b6000546040516001600160a01b0390911681526020016100a3565b6100b46100f23660046107a4565b61036f565b61010a61010536600461064f565b610423565b6040516100a3919061085f565b6100b4610125366004610879565b6104cb565b60016020819052600091825260409091208054918101805461014b906108a2565b80601f0160208091040260200160405190810160405280929190818152602001828054610177906108a2565b80156101c45780601f10610199576101008083540402835291602001916101c4565b820191906000526020600020905b8154815290600101906020018083116101a757829003601f168201915b5050505050905082565b6000546001600160a01b031633146102015760405162461bcd60e51b81526004016101f8906108dc565b60405180910390fd5b61020b6000610566565b565b6000546001600160a01b031633146102375760405162461bcd60e51b81526004016101f8906108dc565b821580159061024557508281145b6102815760405162461bcd60e51b815260206004820152600d60248201526c14185c985b481a5b9d985b1a59609a1b60448201526064016101f8565b8260005b818110156103675760008686838181106102a1576102a1610911565b90506020020135905060008585848181106102be576102be610911565b90506020028101906102d09190610927565b8080601f016020809104026020016040519081016040528093929190818152602001838380828437600092018290525086815260016020819052604082208054969750909590945090925061032791508490610984565b909155505060008281526001602081815260409092208351610351939190920191908401906105b6565b505050808061035f9061099c565b915050610285565b505050505050565b6000546001600160a01b031633146103995760405162461bcd60e51b81526004016101f8906108dc565b600082815260016020819052604082208054919290916103ba908490610984565b9091555050600082815260016020818152604090922083516103e4939190920191908401906105b6565b50600082815260016020526040808220549051909184917f212145b271664a297edab69fd6f4564d902e35f1cea6f94a3bdc59fed29ca51c9190a35050565b6060600160008381526020019081526020016000206001018054610446906108a2565b80601f0160208091040260200160405190810160405280929190818152602001828054610472906108a2565b80156104bf5780601f10610494576101008083540402835291602001916104bf565b820191906000526020600020905b8154815290600101906020018083116104a257829003601f168201915b50505050509050919050565b6000546001600160a01b031633146104f55760405162461bcd60e51b81526004016101f8906108dc565b6001600160a01b03811661055a5760405162461bcd60e51b815260206004820152602660248201527f4f776e61626c653a206e6577206f776e657220697320746865207a65726f206160448201526564647265737360d01b60648201526084016101f8565b61056381610566565b50565b600080546001600160a01b038381166001600160a01b0319831681178455604051919092169283917f8be0079c531659141344cd1fd0a4f28419497f9722a3daafe3b4186f6b6457e09190a35050565b8280546105c2906108a2565b90600052602060002090601f0160209004810192826105e4576000855561062a565b82601f106105fd57805160ff191683800117855561062a565b8280016001018555821561062a579182015b8281111561062a57825182559160200191906001019061060f565b5061063692915061063a565b5090565b5b80821115610636576000815560010161063b565b60006020828403121561066157600080fd5b5035919050565b6000815180845260005b8181101561068e57602081850181015186830182015201610672565b818111156106a0576000602083870101525b50601f01601f19169290920160200192915050565b8281526040602082015260006106ce6040830184610668565b949350505050565b60008083601f8401126106e857600080fd5b50813567ffffffffffffffff81111561070057600080fd5b6020830191508360208260051b850101111561071b57600080fd5b9250929050565b6000806000806040858703121561073857600080fd5b843567ffffffffffffffff8082111561075057600080fd5b61075c888389016106d6565b9096509450602087013591508082111561077557600080fd5b50610782878288016106d6565b95989497509550505050565b634e487b7160e01b600052604160045260246000fd5b600080604083850312156107b757600080fd5b82359150602083013567ffffffffffffffff808211156107d657600080fd5b818501915085601f8301126107ea57600080fd5b8135818111156107fc576107fc61078e565b604051601f8201601f19908116603f011681019083821181831017156108245761082461078e565b8160405282815288602084870101111561083d57600080fd5b8260208601602083013760006020848301015280955050505050509250929050565b6020815260006108726020830184610668565b9392505050565b60006020828403121561088b57600080fd5b81356001600160a01b038116811461087257600080fd5b600181811c908216806108b657607f821691505b6020821081036108d657634e487b7160e01b600052602260045260246000fd5b50919050565b6020808252818101527f4f776e61626c653a2063616c6c6572206973206e6f7420746865206f776e6572604082015260600190565b634e487b7160e01b600052603260045260246000fd5b6000808335601e1984360301811261093e57600080fd5b83018035915067ffffffffffffffff82111561095957600080fd5b60200191503681900382131561071b57600080fd5b634e487b7160e01b600052601160045260246000fd5b600082198211156109975761099761096e565b500190565b6000600182016109ae576109ae61096e565b506001019056fea264697066735822122033f88bf6c59d9fca383878b1f37d67fbc1402bdcf092e24a1f3ba182e60cc77764736f6c634300080d0033",
  "immutableReferences": {},
  "source": "// SPDX-License-Identifier: MIT\npragma solidity ^0.8.0;\n\nabstract contract Context {\n    function _msgSender() internal view virtual returns (address) {\n        return msg.sender;\n    }\n\n    function _msgData() internal view virtual returns (bytes calldata) {\n        return msg.data;\n    }\n}\n\nabstract contract Ownable is Context {\n    address private _owner;\n\n    event OwnershipTransferred(address indexed previousOwner, address indexed newOwner);\n\n    /**\n     * @dev Initializes the contract setting the deployer as the initial owner.\n     */\n    constructor() {\n        _transferOwnership(_msgSender());\n    }\n\n    /**\n     * @dev Returns the address of the current owner.\n     */\n    function owner() public view virtual returns (address) {\n        return _owner;\n    }\n\n    /**\n     * @dev Throws if called by any account other than the owner.\n     */\n    modifier onlyOwner() {\n        require(owner() == _msgSender(), \"Ownable: caller is not the owner\");\n        _;\n    }\n\n    /**\n     * @dev Leaves the contract without owner. It will not be possible to call\n     * `onlyOwner` functions anymore. Can only be called by the current owner.\n     *\n     * NOTE: Renouncing ownership will leave the contract without an owner,\n     * thereby removing any functionality that is only available to the owner.\n     */\n    function renounceOwnership() public virtual onlyOwner {\n        _transferOwnership(address(0));\n    }\n\n    /**\n     * @dev Transfers ownership of the contract to a new account (`newOwner`).\n     * Can only be called by the current owner.\n     */\n    function transferOwnership(address newOwner) public virtual onlyOwner {\n        require(newOwner != address(0), \"Ownable: new owner is the zero address\");\n        _transferOwnership(newOwner);\n    }\n\n    /**\n     * @dev Transfers ownership of the contract to a new account (`newOwner`).\n     * Internal function without access restriction.\n     */\n    function _transferOwnership(address newOwner) internal virtual {\n        address oldOwner = _owner;\n        _owner = newOwner;\n        emit OwnershipTransferred(oldOwner, newOwner);\n    }\n}\n\n/**\n * This contract is only as a db for wormhole project\n * We store twitter steem and eth address bind info to this contract\n * Now we deploy this contract to aurora network\n * Contract: 0xd500368843318aD3c144a844276D867856799c3b\n */\ncontract Web3Id is Ownable {\n    struct AccountInfo {\n        uint256 updateTimes;\n        string customJson;\n    }\n\n    mapping (uint256 => AccountInfo) public userAccounts;\n\n    event AdminUpdateAccountBindInfo(uint256 indexed twitterId, uint256 indexed updateTimes);\n\n    function adminSetAccount(uint256 twitterId, string memory customJson) public onlyOwner {\n        userAccounts[twitterId].updateTimes += 1;\n        userAccounts[twitterId].customJson = customJson;\n        emit AdminUpdateAccountBindInfo(twitterId, userAccounts[twitterId].updateTimes);\n    }\n\n    function adminSetAccounts(uint256[] calldata twitterIds, string[] calldata customJsons) external onlyOwner {\n        require(twitterIds.length > 0 && twitterIds.length == customJsons.length, 'Param invalid');\n        uint256 count = twitterIds.length;\n        for (uint256 i = 0; i < count; i++) {\n            uint256 twitterId = twitterIds[i];\n            string memory customJson = customJsons[i];\n            userAccounts[twitterId].updateTimes += 1;\n            userAccounts[twitterId].customJson = customJson;\n        }\n    }\n\n    function getUserInfo(uint256 twitterId) public view returns (string memory) {\n        return userAccounts[twitterId].customJson;\n    }\n}",
  "sourcePath": "/Users/necklace/work/nutbox/nutbox-contract/contracts/Web3Id.sol",
  "compiler": {
    "name": "solc",
    "version": "0.8.13+commit.abaa5c0e.Emscripten.clang"
  },
  "schemaVersion": "3.4.11",
  "updatedAt": "2023-01-18T10:02:27.548Z",
  "devdoc": {
    "kind": "dev",
    "methods": {
      "owner()": {
        "details": "Returns the address of the current owner."
      },
      "renounceOwnership()": {
        "details": "Leaves the contract without owner. It will not be possible to call `onlyOwner` functions anymore. Can only be called by the current owner. NOTE: Renouncing ownership will leave the contract without an owner, thereby removing any functionality that is only available to the owner."
      },
      "transferOwnership(address)": {
        "details": "Transfers ownership of the contract to a new account (`newOwner`). Can only be called by the current owner."
      }
    },
    "version": 1
  },
  "userdoc": {
    "kind": "user",
    "methods": {},
    "notice": "This contract is only as a db for wormhole project We store twitter steem and eth address bind info to this contract Now we deploy this contract to aurora network Contract: 0xd500368843318aD3c144a844276D867856799c3b",
    "version": 1
  }
}