{
  "contractName": "Web3Id",
  "abi": [
    {
      "anonymous": false,
      "inputs": [
        {
          "indexed": true,
          "internalType": "uint256",
          "name": "twitterId",
          "type": "uint256"
        },
        {
          "indexed": true,
          "internalType": "address",
          "name": "etAddress",
          "type": "address"
        },
        {
          "indexed": true,
          "internalType": "string",
          "name": "steemAccount",
          "type": "string"
        }
      ],
      "name": "AdminUpdateAccountBindInfo",
      "type": "event"
    },
    {
      "anonymous": false,
      "inputs": [
        {
          "indexed": true,
          "internalType": "address",
          "name": "previousOwner",
          "type": "address"
        },
        {
          "indexed": true,
          "internalType": "address",
          "name": "newOwner",
          "type": "address"
        }
      ],
      "name": "OwnershipTransferred",
      "type": "event"
    },
    {
      "inputs": [],
      "name": "owner",
      "outputs": [
        {
          "internalType": "address",
          "name": "",
          "type": "address"
        }
      ],
      "stateMutability": "view",
      "type": "function"
    },
    {
      "inputs": [],
      "name": "renounceOwnership",
      "outputs": [],
      "stateMutability": "nonpayable",
      "type": "function"
    },
    {
      "inputs": [
        {
          "internalType": "address",
          "name": "newOwner",
          "type": "address"
        }
      ],
      "name": "transferOwnership",
      "outputs": [],
      "stateMutability": "nonpayable",
      "type": "function"
    },
    {
      "inputs": [
        {
          "internalType": "uint256",
          "name": "",
          "type": "uint256"
        }
      ],
      "name": "twitterMap",
      "outputs": [
        {
          "internalType": "uint256",
          "name": "twitterId",
          "type": "uint256"
        },
        {
          "internalType": "address",
          "name": "ethAddress",
          "type": "address"
        },
        {
          "internalType": "string",
          "name": "steemAccount",
          "type": "string"
        }
      ],
      "stateMutability": "view",
      "type": "function"
    },
    {
      "inputs": [
        {
          "internalType": "uint256",
          "name": "twitterId",
          "type": "uint256"
        },
        {
          "internalType": "address",
          "name": "ethAddress",
          "type": "address"
        },
        {
          "internalType": "string",
          "name": "steem",
          "type": "string"
        }
      ],
      "name": "adminSetAccount",
      "outputs": [],
      "stateMutability": "nonpayable",
      "type": "function"
    },
    {
      "inputs": [
        {
          "internalType": "uint256[]",
          "name": "twitterIds",
          "type": "uint256[]"
        },
        {
          "internalType": "address[]",
          "name": "ethAddresses",
          "type": "address[]"
        },
        {
          "internalType": "string[]",
          "name": "steemAccounts",
          "type": "string[]"
        }
      ],
      "name": "adminSetAccounts",
      "outputs": [],
      "stateMutability": "nonpayable",
      "type": "function"
    },
    {
      "inputs": [
        {
          "internalType": "string",
          "name": "steem",
          "type": "string"
        }
      ],
      "name": "getSteemMap",
      "outputs": [
        {
          "components": [
            {
              "internalType": "uint256",
              "name": "twitterId",
              "type": "uint256"
            },
            {
              "internalType": "address",
              "name": "ethAddress",
              "type": "address"
            },
            {
              "internalType": "string",
              "name": "steemAccount",
              "type": "string"
            }
          ],
          "internalType": "struct Web3Id.AccountInfo",
          "name": "",
          "type": "tuple"
        }
      ],
      "stateMutability": "view",
      "type": "function"
    },
    {
      "inputs": [
        {
          "internalType": "address",
          "name": "addr",
          "type": "address"
        }
      ],
      "name": "getEthMap",
      "outputs": [
        {
          "components": [
            {
              "internalType": "uint256",
              "name": "twitterId",
              "type": "uint256"
            },
            {
              "internalType": "address",
              "name": "ethAddress",
              "type": "address"
            },
            {
              "internalType": "string",
              "name": "steemAccount",
              "type": "string"
            }
          ],
          "internalType": "struct Web3Id.AccountInfo",
          "name": "",
          "type": "tuple"
        }
      ],
      "stateMutability": "view",
      "type": "function"
    }
  ],
  "bytecode": "0x608060405234801561001057600080fd5b5061001a3361001f565b61006f565b600080546001600160a01b038381166001600160a01b0319831681178455604051919092169283917f8be0079c531659141344cd1fd0a4f28419497f9722a3daafe3b4186f6b6457e09190a35050565b610d068061007e6000396000f3fe608060405234801561001057600080fd5b50600436106100885760003560e01c8063e7b367201161005b578063e7b36720146100ee578063eead663e14610110578063f2fde38b14610123578063fd3bbe791461013657600080fd5b80634c9f6c391461008d578063715018a6146100b65780638da5cb5b146100c0578063e73c08bc146100db575b600080fd5b6100a061009b366004610853565b610149565b6040516100ad9190610921565b60405180910390f35b6100be610276565b005b6000546040516001600160a01b0390911681526020016100ad565b6100be6100e9366004610992565b6102b5565b6101016100fc366004610a5d565b6103de565b6040516100ad93929190610a76565b6100be61011e366004610af5565b610494565b6100be610131366004610b8f565b6105dc565b6100a0610144366004610b8f565b610677565b60408051606080820183526000808352602083015291810191909152600160006002858560405161017b929190610bb1565b9081526020016040518091039020548152602001908152602001600020604051806060016040529081600082015481526020016001820160009054906101000a90046001600160a01b03166001600160a01b03166001600160a01b031681526020016002820180546101ec90610bc1565b80601f016020809104026020016040519081016040528092919081815260200182805461021890610bc1565b80156102655780601f1061023a57610100808354040283529160200191610265565b820191906000526020600020905b81548152906001019060200180831161024857829003601f168201915b505050505081525050905092915050565b6000546001600160a01b031633146102a95760405162461bcd60e51b81526004016102a090610bfb565b60405180910390fd5b6102b3600061076a565b565b6000546001600160a01b031633146102df5760405162461bcd60e51b81526004016102a090610bfb565b604080516060810182528481526001600160a01b0384811660208084019182528385018681526000898152600180845296902085518155925195830180546001600160a01b03191696909416959095179092559251805192938493909261034d9260028501929101906107ba565b50905050836002836040516103629190610c30565b9081526040805160209281900383018120939093556001600160a01b03861660009081526003909252902085905561039b908390610c30565b604051908190038120906001600160a01b0385169086907f016d25e5023b30335df56a2f826677e8b4af92e5f5a27d78df91cd0c7a98e2a290600090a450505050565b60016020819052600091825260409091208054918101546002820180546001600160a01b03909216929161041190610bc1565b80601f016020809104026020016040519081016040528092919081815260200182805461043d90610bc1565b801561048a5780601f1061045f5761010080835404028352916020019161048a565b820191906000526020600020905b81548152906001019060200180831161046d57829003601f168201915b5050505050905083565b6000546001600160a01b031633146104be5760405162461bcd60e51b81526004016102a090610bfb565b84158015906104cc57508483145b80156104d757508481145b6105135760405162461bcd60e51b815260206004820152600d60248201526c14185c985b481a5b9d985b1a59609a1b60448201526064016102a0565b8460005b818110156105d2576105c088888381811061053457610534610c4c565b9050602002013587878481811061054d5761054d610c4c565b90506020020160208101906105629190610b8f565b86868581811061057457610574610c4c565b90506020028101906105869190610c62565b8080601f0160208091040260200160405190810160405280939291908181526020018383808284376000920191909152506102b592505050565b806105ca81610ca9565b915050610517565b5050505050505050565b6000546001600160a01b031633146106065760405162461bcd60e51b81526004016102a090610bfb565b6001600160a01b03811661066b5760405162461bcd60e51b815260206004820152602660248201527f4f776e61626c653a206e6577206f776e657220697320746865207a65726f206160448201526564647265737360d01b60648201526084016102a0565b6106748161076a565b50565b6040805160608082018352600080835260208084018290528385018390526001600160a01b0386811683526003825285832054835260018083529286902086519485018752805485529283015416908301526002810180549394929391928401916106e190610bc1565b80601f016020809104026020016040519081016040528092919081815260200182805461070d90610bc1565b801561075a5780601f1061072f5761010080835404028352916020019161075a565b820191906000526020600020905b81548152906001019060200180831161073d57829003601f168201915b5050505050815250509050919050565b600080546001600160a01b038381166001600160a01b0319831681178455604051919092169283917f8be0079c531659141344cd1fd0a4f28419497f9722a3daafe3b4186f6b6457e09190a35050565b8280546107c690610bc1565b90600052602060002090601f0160209004810192826107e8576000855561082e565b82601f1061080157805160ff191683800117855561082e565b8280016001018555821561082e579182015b8281111561082e578251825591602001919060010190610813565b5061083a92915061083e565b5090565b5b8082111561083a576000815560010161083f565b6000806020838503121561086657600080fd5b823567ffffffffffffffff8082111561087e57600080fd5b818501915085601f83011261089257600080fd5b8135818111156108a157600080fd5b8660208285010111156108b357600080fd5b60209290920196919550909350505050565b60005b838110156108e05781810151838201526020016108c8565b838111156108ef576000848401525b50505050565b6000815180845261090d8160208601602086016108c5565b601f01601f19169290920160200192915050565b602081528151602082015260018060a01b0360208301511660408201526000604083015160608084015261095860808401826108f5565b949350505050565b80356001600160a01b038116811461097757600080fd5b919050565b634e487b7160e01b600052604160045260246000fd5b6000806000606084860312156109a757600080fd5b833592506109b760208501610960565b9150604084013567ffffffffffffffff808211156109d457600080fd5b818601915086601f8301126109e857600080fd5b8135818111156109fa576109fa61097c565b604051601f8201601f19908116603f01168101908382118183101715610a2257610a2261097c565b81604052828152896020848701011115610a3b57600080fd5b8260208601602083013760006020848301015280955050505050509250925092565b600060208284031215610a6f57600080fd5b5035919050565b8381526001600160a01b0383166020820152606060408201819052600090610aa0908301846108f5565b95945050505050565b60008083601f840112610abb57600080fd5b50813567ffffffffffffffff811115610ad357600080fd5b6020830191508360208260051b8501011115610aee57600080fd5b9250929050565b60008060008060008060608789031215610b0e57600080fd5b863567ffffffffffffffff80821115610b2657600080fd5b610b328a838b01610aa9565b90985096506020890135915080821115610b4b57600080fd5b610b578a838b01610aa9565b90965094506040890135915080821115610b7057600080fd5b50610b7d89828a01610aa9565b979a9699509497509295939492505050565b600060208284031215610ba157600080fd5b610baa82610960565b9392505050565b8183823760009101908152919050565b600181811c90821680610bd557607f821691505b602082108103610bf557634e487b7160e01b600052602260045260246000fd5b50919050565b6020808252818101527f4f776e61626c653a2063616c6c6572206973206e6f7420746865206f776e6572604082015260600190565b60008251610c428184602087016108c5565b9190910192915050565b634e487b7160e01b600052603260045260246000fd5b6000808335601e19843603018112610c7957600080fd5b83018035915067ffffffffffffffff821115610c9457600080fd5b602001915036819003821315610aee57600080fd5b600060018201610cc957634e487b7160e01b600052601160045260246000fd5b506001019056fea264697066735822122007eb6ec437408ed4e83fe8199dee167070012bbc448a6ec4762b3cf9f0a2c25c64736f6c634300080d0033",
  "immutableReferences": {},
  "source": "// SPDX-License-Identifier: MIT\npragma solidity ^0.8.0;\n\nabstract contract Context {\n    function _msgSender() internal view virtual returns (address) {\n        return msg.sender;\n    }\n\n    function _msgData() internal view virtual returns (bytes calldata) {\n        return msg.data;\n    }\n}\n\nabstract contract Ownable is Context {\n    address private _owner;\n\n    event OwnershipTransferred(address indexed previousOwner, address indexed newOwner);\n\n    /**\n     * @dev Initializes the contract setting the deployer as the initial owner.\n     */\n    constructor() {\n        _transferOwnership(_msgSender());\n    }\n\n    /**\n     * @dev Returns the address of the current owner.\n     */\n    function owner() public view virtual returns (address) {\n        return _owner;\n    }\n\n    /**\n     * @dev Throws if called by any account other than the owner.\n     */\n    modifier onlyOwner() {\n        require(owner() == _msgSender(), \"Ownable: caller is not the owner\");\n        _;\n    }\n\n    /**\n     * @dev Leaves the contract without owner. It will not be possible to call\n     * `onlyOwner` functions anymore. Can only be called by the current owner.\n     *\n     * NOTE: Renouncing ownership will leave the contract without an owner,\n     * thereby removing any functionality that is only available to the owner.\n     */\n    function renounceOwnership() public virtual onlyOwner {\n        _transferOwnership(address(0));\n    }\n\n    /**\n     * @dev Transfers ownership of the contract to a new account (`newOwner`).\n     * Can only be called by the current owner.\n     */\n    function transferOwnership(address newOwner) public virtual onlyOwner {\n        require(newOwner != address(0), \"Ownable: new owner is the zero address\");\n        _transferOwnership(newOwner);\n    }\n\n    /**\n     * @dev Transfers ownership of the contract to a new account (`newOwner`).\n     * Internal function without access restriction.\n     */\n    function _transferOwnership(address newOwner) internal virtual {\n        address oldOwner = _owner;\n        _owner = newOwner;\n        emit OwnershipTransferred(oldOwner, newOwner);\n    }\n}\n\n/**\n * This contract is only as a db for wormhole project\n * We store twitter steem and eth address bind info to this contract\n * Now we deploy this contract to aurora network\n * Contract: 0xd500368843318aD3c144a844276D867856799c3b\n */\ncontract Web3Id is Ownable {\n    struct AccountInfo {\n        uint256 twitterId;\n        address ethAddress;\n        string steemAccount;\n    }\n\n    mapping(uint256 => AccountInfo) public twitterMap;\n    mapping(string => uint256) private steemMap;\n    mapping(address => uint256) private ethMap;\n\n    event AdminUpdateAccountBindInfo(uint256 indexed twitterId, address indexed etAddress, string indexed steemAccount);\n\n    function adminSetAccount(uint256 twitterId, address ethAddress, string memory steem) public onlyOwner {\n        AccountInfo memory info = AccountInfo(twitterId, ethAddress, steem);\n        twitterMap[twitterId] = info;\n        steemMap[steem] = twitterId;\n        ethMap[ethAddress] = twitterId;\n\n        emit AdminUpdateAccountBindInfo(twitterId, ethAddress, steem);\n    }\n\n    function adminSetAccounts(uint256[] calldata twitterIds, address[] calldata ethAddresses, string[] calldata steemAccounts) external onlyOwner {\n        require(twitterIds.length > 0 && twitterIds.length == ethAddresses.length && twitterIds.length == steemAccounts.length, \"Param invalid\");\n\n        uint256 count = twitterIds.length;\n        for (uint256 i = 0; i < count; i++) {\n            adminSetAccount(twitterIds[i], ethAddresses[i], steemAccounts[i]);\n        }\n    }\n\n    function getSteemMap(string calldata steem) public view returns (AccountInfo memory) {\n        return twitterMap[steemMap[steem]];\n    }\n\n    function getEthMap(address addr) public view returns (AccountInfo memory) {\n        return twitterMap[ethMap[addr]];\n    }\n}\n",
  "sourcePath": "/Users/necklace/work/nutbox/nutbox-contract/contracts/Web3Id.sol",
  "compiler": {
    "name": "solc",
    "version": "0.8.13+commit.abaa5c0e.Emscripten.clang"
  },
  "schemaVersion": "3.4.11",
  "updatedAt": "2023-03-21T12:15:19.289Z",
  "devdoc": {
    "kind": "dev",
    "methods": {
      "owner()": {
        "details": "Returns the address of the current owner."
      },
      "renounceOwnership()": {
        "details": "Leaves the contract without owner. It will not be possible to call `onlyOwner` functions anymore. Can only be called by the current owner. NOTE: Renouncing ownership will leave the contract without an owner, thereby removing any functionality that is only available to the owner."
      },
      "transferOwnership(address)": {
        "details": "Transfers ownership of the contract to a new account (`newOwner`). Can only be called by the current owner."
      }
    },
    "version": 1
  },
  "userdoc": {
    "kind": "user",
    "methods": {},
    "notice": "This contract is only as a db for wormhole project We store twitter steem and eth address bind info to this contract Now we deploy this contract to aurora network Contract: 0xd500368843318aD3c144a844276D867856799c3b",
    "version": 1
  }
}