{
  "_format": "hh-sol-artifact-1",
  "contractName": "MintableERC20",
  "sourceName": "contracts/community-token/MintableERC20.sol",
  "abi": [
    {
      "inputs": [
        {
          "internalType": "string",
          "name": "name",
          "type": "string"
        },
        {
          "internalType": "string",
          "name": "symbol",
          "type": "string"
        },
        {
          "internalType": "uint256",
          "name": "initialSupply",
          "type": "uint256"
        },
        {
          "internalType": "address",
          "name": "owner",
          "type": "address"
        },
        {
          "internalType": "address",
          "name": "communityFactory",
          "type": "address"
        }
      ],
      "stateMutability": "nonpayable",
      "type": "constructor"
    },
    {
      "anonymous": false,
      "inputs": [
        {
          "indexed": true,
          "internalType": "address",
          "name": "owner",
          "type": "address"
        },
        {
          "indexed": true,
          "internalType": "address",
          "name": "spender",
          "type": "address"
        },
        {
          "indexed": false,
          "internalType": "uint256",
          "name": "value",
          "type": "uint256"
        }
      ],
      "name": "Approval",
      "type": "event"
    },
    {
      "anonymous": false,
      "inputs": [
        {
          "indexed": true,
          "internalType": "bytes32",
          "name": "role",
          "type": "bytes32"
        },
        {
          "indexed": true,
          "internalType": "bytes32",
          "name": "previousAdminRole",
          "type": "bytes32"
        },
        {
          "indexed": true,
          "internalType": "bytes32",
          "name": "newAdminRole",
          "type": "bytes32"
        }
      ],
      "name": "RoleAdminChanged",
      "type": "event"
    },
    {
      "anonymous": false,
      "inputs": [
        {
          "indexed": true,
          "internalType": "bytes32",
          "name": "role",
          "type": "bytes32"
        },
        {
          "indexed": true,
          "internalType": "address",
          "name": "account",
          "type": "address"
        },
        {
          "indexed": true,
          "internalType": "address",
          "name": "sender",
          "type": "address"
        }
      ],
      "name": "RoleGranted",
      "type": "event"
    },
    {
      "anonymous": false,
      "inputs": [
        {
          "indexed": true,
          "internalType": "bytes32",
          "name": "role",
          "type": "bytes32"
        },
        {
          "indexed": true,
          "internalType": "address",
          "name": "account",
          "type": "address"
        },
        {
          "indexed": true,
          "internalType": "address",
          "name": "sender",
          "type": "address"
        }
      ],
      "name": "RoleRevoked",
      "type": "event"
    },
    {
      "anonymous": false,
      "inputs": [
        {
          "indexed": true,
          "internalType": "address",
          "name": "from",
          "type": "address"
        },
        {
          "indexed": true,
          "internalType": "address",
          "name": "to",
          "type": "address"
        },
        {
          "indexed": false,
          "internalType": "uint256",
          "name": "value",
          "type": "uint256"
        }
      ],
      "name": "Transfer",
      "type": "event"
    },
    {
      "inputs": [],
      "name": "DEFAULT_ADMIN_ROLE",
      "outputs": [
        {
          "internalType": "bytes32",
          "name": "",
          "type": "bytes32"
        }
      ],
      "stateMutability": "view",
      "type": "function"
    },
    {
      "inputs": [],
      "name": "MINTER_ROLE",
      "outputs": [
        {
          "internalType": "bytes32",
          "name": "",
          "type": "bytes32"
        }
      ],
      "stateMutability": "view",
      "type": "function"
    },
    {
      "inputs": [
        {
          "internalType": "address",
          "name": "owner",
          "type": "address"
        },
        {
          "internalType": "address",
          "name": "spender",
          "type": "address"
        }
      ],
      "name": "allowance",
      "outputs": [
        {
          "internalType": "uint256",
          "name": "",
          "type": "uint256"
        }
      ],
      "stateMutability": "view",
      "type": "function"
    },
    {
      "inputs": [
        {
          "internalType": "address",
          "name": "spender",
          "type": "address"
        },
        {
          "internalType": "uint256",
          "name": "amount",
          "type": "uint256"
        }
      ],
      "name": "approve",
      "outputs": [
        {
          "internalType": "bool",
          "name": "",
          "type": "bool"
        }
      ],
      "stateMutability": "nonpayable",
      "type": "function"
    },
    {
      "inputs": [
        {
          "internalType": "address",
          "name": "account",
          "type": "address"
        }
      ],
      "name": "balanceOf",
      "outputs": [
        {
          "internalType": "uint256",
          "name": "",
          "type": "uint256"
        }
      ],
      "stateMutability": "view",
      "type": "function"
    },
    {
      "inputs": [
        {
          "internalType": "uint256",
          "name": "amount",
          "type": "uint256"
        }
      ],
      "name": "burn",
      "outputs": [],
      "stateMutability": "nonpayable",
      "type": "function"
    },
    {
      "inputs": [
        {
          "internalType": "address",
          "name": "account",
          "type": "address"
        },
        {
          "internalType": "uint256",
          "name": "amount",
          "type": "uint256"
        }
      ],
      "name": "burnFrom",
      "outputs": [],
      "stateMutability": "nonpayable",
      "type": "function"
    },
    {
      "inputs": [],
      "name": "decimals",
      "outputs": [
        {
          "internalType": "uint8",
          "name": "",
          "type": "uint8"
        }
      ],
      "stateMutability": "view",
      "type": "function"
    },
    {
      "inputs": [
        {
          "internalType": "address",
          "name": "spender",
          "type": "address"
        },
        {
          "internalType": "uint256",
          "name": "subtractedValue",
          "type": "uint256"
        }
      ],
      "name": "decreaseAllowance",
      "outputs": [
        {
          "internalType": "bool",
          "name": "",
          "type": "bool"
        }
      ],
      "stateMutability": "nonpayable",
      "type": "function"
    },
    {
      "inputs": [
        {
          "internalType": "bytes32",
          "name": "role",
          "type": "bytes32"
        }
      ],
      "name": "getRoleAdmin",
      "outputs": [
        {
          "internalType": "bytes32",
          "name": "",
          "type": "bytes32"
        }
      ],
      "stateMutability": "view",
      "type": "function"
    },
    {
      "inputs": [
        {
          "internalType": "bytes32",
          "name": "role",
          "type": "bytes32"
        },
        {
          "internalType": "uint256",
          "name": "index",
          "type": "uint256"
        }
      ],
      "name": "getRoleMember",
      "outputs": [
        {
          "internalType": "address",
          "name": "",
          "type": "address"
        }
      ],
      "stateMutability": "view",
      "type": "function"
    },
    {
      "inputs": [
        {
          "internalType": "bytes32",
          "name": "role",
          "type": "bytes32"
        }
      ],
      "name": "getRoleMemberCount",
      "outputs": [
        {
          "internalType": "uint256",
          "name": "",
          "type": "uint256"
        }
      ],
      "stateMutability": "view",
      "type": "function"
    },
    {
      "inputs": [
        {
          "internalType": "bytes32",
          "name": "role",
          "type": "bytes32"
        },
        {
          "internalType": "address",
          "name": "account",
          "type": "address"
        }
      ],
      "name": "grantRole",
      "outputs": [],
      "stateMutability": "nonpayable",
      "type": "function"
    },
    {
      "inputs": [
        {
          "internalType": "bytes32",
          "name": "role",
          "type": "bytes32"
        },
        {
          "internalType": "address",
          "name": "account",
          "type": "address"
        }
      ],
      "name": "hasRole",
      "outputs": [
        {
          "internalType": "bool",
          "name": "",
          "type": "bool"
        }
      ],
      "stateMutability": "view",
      "type": "function"
    },
    {
      "inputs": [
        {
          "internalType": "address",
          "name": "spender",
          "type": "address"
        },
        {
          "internalType": "uint256",
          "name": "addedValue",
          "type": "uint256"
        }
      ],
      "name": "increaseAllowance",
      "outputs": [
        {
          "internalType": "bool",
          "name": "",
          "type": "bool"
        }
      ],
      "stateMutability": "nonpayable",
      "type": "function"
    },
    {
      "inputs": [
        {
          "internalType": "address",
          "name": "to",
          "type": "address"
        },
        {
          "internalType": "uint256",
          "name": "amount",
          "type": "uint256"
        }
      ],
      "name": "mint",
      "outputs": [],
      "stateMutability": "nonpayable",
      "type": "function"
    },
    {
      "inputs": [],
      "name": "name",
      "outputs": [
        {
          "internalType": "string",
          "name": "",
          "type": "string"
        }
      ],
      "stateMutability": "view",
      "type": "function"
    },
    {
      "inputs": [
        {
          "internalType": "bytes32",
          "name": "role",
          "type": "bytes32"
        },
        {
          "internalType": "address",
          "name": "account",
          "type": "address"
        }
      ],
      "name": "renounceRole",
      "outputs": [],
      "stateMutability": "nonpayable",
      "type": "function"
    },
    {
      "inputs": [
        {
          "internalType": "bytes32",
          "name": "role",
          "type": "bytes32"
        },
        {
          "internalType": "address",
          "name": "account",
          "type": "address"
        }
      ],
      "name": "revokeRole",
      "outputs": [],
      "stateMutability": "nonpayable",
      "type": "function"
    },
    {
      "inputs": [
        {
          "internalType": "bytes4",
          "name": "interfaceId",
          "type": "bytes4"
        }
      ],
      "name": "supportsInterface",
      "outputs": [
        {
          "internalType": "bool",
          "name": "",
          "type": "bool"
        }
      ],
      "stateMutability": "view",
      "type": "function"
    },
    {
      "inputs": [],
      "name": "symbol",
      "outputs": [
        {
          "internalType": "string",
          "name": "",
          "type": "string"
        }
      ],
      "stateMutability": "view",
      "type": "function"
    },
    {
      "inputs": [],
      "name": "totalSupply",
      "outputs": [
        {
          "internalType": "uint256",
          "name": "",
          "type": "uint256"
        }
      ],
      "stateMutability": "view",
      "type": "function"
    },
    {
      "inputs": [
        {
          "internalType": "address",
          "name": "to",
          "type": "address"
        },
        {
          "internalType": "uint256",
          "name": "amount",
          "type": "uint256"
        }
      ],
      "name": "transfer",
      "outputs": [
        {
          "internalType": "bool",
          "name": "",
          "type": "bool"
        }
      ],
      "stateMutability": "nonpayable",
      "type": "function"
    },
    {
      "inputs": [
        {
          "internalType": "address",
          "name": "from",
          "type": "address"
        },
        {
          "internalType": "address",
          "name": "to",
          "type": "address"
        },
        {
          "internalType": "uint256",
          "name": "amount",
          "type": "uint256"
        }
      ],
      "name": "transferFrom",
      "outputs": [
        {
          "internalType": "bool",
          "name": "",
          "type": "bool"
        }
      ],
      "stateMutability": "nonpayable",
      "type": "function"
    }
  ],
  "bytecode": "0x60806040523480156200001157600080fd5b5060405162001c9138038062001c9183398101604081905262000034916200047b565b8451859085906200004d9060059060208501906200030d565b508051620000639060069060208401906200030d565b5062000075915060009050826200008c565b6200008182846200009c565b505050505062000614565b62000098828262000174565b5050565b6001600160a01b038216620000e8576040517f08c379a0000000000000000000000000000000000000000000000000000000008152600401620000df9062000511565b60405180910390fd5b620000f660008383620001b7565b80600460008282546200010a919062000551565b90915550506001600160a01b038216600081815260026020526040808220805485019055517fddf252ad1be2c89b69c2b068fc378daa952ba7f163c4a11628f55a4df523b3ef906200015e90859062000548565b60405180910390a36200009860008383620001b2565b6200018b8282620001cf60201b620006831760201c565b6000828152600160209081526040909120620001b29183906200070862000259821b17901c565b505050565b620001b2838383620001b260201b620004471760201c565b620001db828262000279565b62000098576000828152602081815260408083206001600160a01b03851684529091529020805460ff1916600117905562000215620002a2565b6001600160a01b0316816001600160a01b0316837f2f8788117e7eff1d82e926ec794901d17c78024a50270940304540a733656f0d60405160405180910390a45050565b600062000270836001600160a01b038416620002a6565b90505b92915050565b6000918252602082815260408084206001600160a01b0393909316845291905290205460ff1690565b3390565b6000620002b48383620002f5565b620002ec5750815460018181018455600084815260208082209093018490558454848252828601909352604090209190915562000273565b50600062000273565b60009081526001919091016020526040902054151590565b8280546200031b906200058f565b90600052602060002090601f0160209004810192826200033f57600085556200038a565b82601f106200035a57805160ff19168380011785556200038a565b828001600101855582156200038a579182015b828111156200038a5782518255916020019190600101906200036d565b50620003989291506200039c565b5090565b5b808211156200039857600081556001016200039d565b80516001600160a01b0381168114620003cb57600080fd5b919050565b600082601f830112620003e1578081fd5b81516001600160401b0380821115620003fe57620003fe620005e5565b6040516020601f8401601f1916820181018381118382101715620004265762000426620005e5565b60405283825285840181018710156200043d578485fd5b8492505b8383101562000460578583018101518284018201529182019162000441565b838311156200047157848185840101525b5095945050505050565b600080600080600060a0868803121562000493578081fd5b85516001600160401b0380821115620004aa578283fd5b620004b889838a01620003d0565b96506020880151915080821115620004ce578283fd5b50620004dd88828901620003d0565b94505060408601519250620004f560608701620003b3565b91506200050560808701620003b3565b90509295509295909350565b6020808252601f908201527f45524332303a206d696e7420746f20746865207a65726f206164647265737300604082015260600190565b90815260200190565b600082198211156200058a577f4e487b710000000000000000000000000000000000000000000000000000000081526011600452602481fd5b500190565b600281046001821680620005a457607f821691505b60208210811415620005df577f4e487b7100000000000000000000000000000000000000000000000000000000600052602260045260246000fd5b50919050565b7f4e487b7100000000000000000000000000000000000000000000000000000000600052604160045260246000fd5b61166d80620006246000396000f3fe608060405234801561001057600080fd5b50600436106101285760003560e01c806301ffc9a71461012d57806306fdde0314610156578063095ea7b31461016b57806318160ddd1461017e57806323b872dd14610193578063248a9ca3146101a65780632f2ff15d146101b9578063313ce567146101ce57806336568abe146101e357806339509351146101f657806340c10f191461020957806342966c681461021c57806370a082311461022f57806379cc6790146102425780639010d07c1461025557806391d148541461027557806395d89b4114610288578063a217fddf14610290578063a457c2d714610298578063a9059cbb146102ab578063ca15c873146102be578063d5391393146102d1578063d547741f146102d9578063dd62ed3e146102ec575b600080fd5b61014061013b3660046110b1565b6102ff565b60405161014d919061115c565b60405180910390f35b61015e61032c565b60405161014d9190611170565b61014061017936600461102d565b6103be565b6101866103e2565b60405161014d9190611167565b6101406101a1366004610ff2565b6103e8565b6101866101b4366004611056565b610416565b6101cc6101c736600461106e565b61042b565b005b6101d661044c565b60405161014d9190611507565b6101cc6101f136600461106e565b610451565b61014061020436600461102d565b6104a0565b6101cc61021736600461102d565b6104cc565b6101cc61022a366004611056565b61050c565b61018661023d366004610fa6565b610520565b6101cc61025036600461102d565b61053b565b610268610263366004611090565b610557565b60405161014d9190611148565b61014061028336600461106e565b610576565b61015e61059f565b6101866105ae565b6101406102a636600461102d565b6105b3565b6101406102b936600461102d565b6105fb565b6101866102cc366004611056565b610613565b61018661062a565b6101cc6102e736600461106e565b61063c565b6101866102fa366004610fc0565b610658565b60006001600160e01b03198216635a05180f60e01b148061032457506103248261071d565b90505b919050565b60606005805461033b906115a6565b80601f0160208091040260200160405190810160405280929190818152602001828054610367906115a6565b80156103b45780601f10610389576101008083540402835291602001916103b4565b820191906000526020600020905b81548152906001019060200180831161039757829003601f168201915b5050505050905090565b6000806103c9610742565b90506103d6818585610746565b60019150505b92915050565b60045490565b6000806103f3610742565b90506104008582856107fa565b61040b858585610844565b506001949350505050565b60009081526020819052604090206001015490565b61043482610416565b61043d81610933565b6104478383610944565b505050565b601290565b610459610742565b6001600160a01b0316816001600160a01b0316146104925760405162461bcd60e51b815260040161048990611481565b60405180910390fd5b61049c8282610966565b5050565b6000806104ab610742565b90506103d68185856104bd8589610658565b6104c79190611515565b610746565b6104e66000805160206115f8833981519152610283610742565b6105025760405162461bcd60e51b81526004016104899061131c565b61049c8282610988565b61051d610517610742565b82610a20565b50565b6001600160a01b031660009081526002602052604090205490565b61054d82610547610742565b836107fa565b61049c8282610a20565b600082815260016020526040812061056f9083610ae5565b9392505050565b6000918252602082815260408084206001600160a01b0393909316845291905290205460ff1690565b60606006805461033b906115a6565b600081565b6000806105be610742565b905060006105cc8286610658565b9050838110156105ee5760405162461bcd60e51b81526004016104899061143c565b61040b8286868403610746565b600080610606610742565b90506103d6818585610844565b600081815260016020526040812061032490610af1565b6000805160206115f883398151915281565b61064582610416565b61064e81610933565b6104478383610966565b6001600160a01b03918216600090815260036020908152604080832093909416825291909152205490565b61068d8282610576565b61049c576000828152602081815260408083206001600160a01b03851684529091529020805460ff191660011790556106c4610742565b6001600160a01b0316816001600160a01b0316837f2f8788117e7eff1d82e926ec794901d17c78024a50270940304540a733656f0d60405160405180910390a45050565b600061056f836001600160a01b038416610afc565b60006001600160e01b03198216637965db0b60e01b1480610324575061032482610b46565b3390565b6001600160a01b03831661076c5760405162461bcd60e51b8152600401610489906113f8565b6001600160a01b0382166107925760405162461bcd60e51b81526004016104899061125d565b6001600160a01b0380841660008181526003602090815260408083209487168084529490915290819020849055517f8c5be1e5ebec7d5bd14f71427d1e84f3dd0314c0f7b2291e5b200ac8c7c3b925906107ed908590611167565b60405180910390a3505050565b60006108068484610658565b9050600019811461083e57818110156108315760405162461bcd60e51b81526004016104899061129f565b61083e8484848403610746565b50505050565b6001600160a01b03831661086a5760405162461bcd60e51b8152600401610489906113b3565b6001600160a01b0382166108905760405162461bcd60e51b8152600401610489906111d8565b61089b838383610b5f565b6001600160a01b038316600090815260026020526040902054818110156108d45760405162461bcd60e51b8152600401610489906112d6565b6001600160a01b03808516600081815260026020526040808220868603905592861680825290839020805486019055915160008051602061161883398151915290610920908690611167565b60405180910390a361083e848484610447565b61051d8161093f610742565b610b6a565b61094e8282610683565b60008281526001602052604090206104479082610708565b6109708282610bc3565b60008281526001602052604090206104479082610c46565b6001600160a01b0382166109ae5760405162461bcd60e51b8152600401610489906114d0565b6109ba60008383610b5f565b80600460008282546109cc9190611515565b90915550506001600160a01b0382166000818152600260205260408082208054850190555160008051602061161883398151915290610a0c908590611167565b60405180910390a361049c60008383610447565b6001600160a01b038216610a465760405162461bcd60e51b815260040161048990611372565b610a5282600083610b5f565b6001600160a01b03821660009081526002602052604090205481811015610a8b5760405162461bcd60e51b81526004016104899061121b565b6001600160a01b03831660008181526002602052604080822085850390556004805486900390555190919060008051602061161883398151915290610ad1908690611167565b60405180910390a361044783600084610447565b600061056f8383610c5b565b600061032482610c93565b6000610b088383610c97565b610b3e575081546001818101845560008481526020808220909301849055845484825282860190935260409020919091556103dc565b5060006103dc565b6001600160e01b031981166301ffc9a760e01b14919050565b610447838383610447565b610b748282610576565b61049c57610b8181610caf565b610b8c836020610cc1565b604051602001610b9d9291906110d9565b60408051601f198184030181529082905262461bcd60e51b825261048991600401611170565b610bcd8282610576565b1561049c576000828152602081815260408083206001600160a01b03851684529091529020805460ff19169055610c02610742565b6001600160a01b0316816001600160a01b0316837ff6391f5c32d9c69d2a47ea670b442974b53935d1edc7fd64eb21e047a839171b60405160405180910390a45050565b600061056f836001600160a01b038416610e72565b6000826000018281548110610c8057634e487b7160e01b600052603260045260246000fd5b9060005260206000200154905092915050565b5490565b60009081526001919091016020526040902054151590565b60606103246001600160a01b03831660145b60606000610cd083600261152d565b610cdb906002611515565b6001600160401b03811115610d0057634e487b7160e01b600052604160045260246000fd5b6040519080825280601f01601f191660200182016040528015610d2a576020820181803683370190505b509050600360fc1b81600081518110610d5357634e487b7160e01b600052603260045260246000fd5b60200101906001600160f81b031916908160001a905350600f60fb1b81600181518110610d9057634e487b7160e01b600052603260045260246000fd5b60200101906001600160f81b031916908160001a9053506000610db484600261152d565b610dbf906001611515565b90505b6001811115610e53576f181899199a1a9b1b9c1cb0b131b232b360811b85600f1660108110610e0157634e487b7160e01b600052603260045260246000fd5b1a60f81b828281518110610e2557634e487b7160e01b600052603260045260246000fd5b60200101906001600160f81b031916908160001a90535060049490941c93610e4c8161158f565b9050610dc2565b50831561056f5760405162461bcd60e51b8152600401610489906111a3565b60008181526001830160205260408120548015610f85576000610e9660018361154c565b8554909150600090610eaa9060019061154c565b9050818114610f2b576000866000018281548110610ed857634e487b7160e01b600052603260045260246000fd5b9060005260206000200154905080876000018481548110610f0957634e487b7160e01b600052603260045260246000fd5b6000918252602080832090910192909255918252600188019052604090208390555b8554869080610f4a57634e487b7160e01b600052603160045260246000fd5b6001900381819060005260206000200160009055905585600101600086815260200190815260200160002060009055600193505050506103dc565b60009150506103dc565b80356001600160a01b038116811461032757600080fd5b600060208284031215610fb7578081fd5b61056f82610f8f565b60008060408385031215610fd2578081fd5b610fdb83610f8f565b9150610fe960208401610f8f565b90509250929050565b600080600060608486031215611006578081fd5b61100f84610f8f565b925061101d60208501610f8f565b9150604084013590509250925092565b6000806040838503121561103f578182fd5b61104883610f8f565b946020939093013593505050565b600060208284031215611067578081fd5b5035919050565b60008060408385031215611080578182fd5b82359150610fe960208401610f8f565b600080604083850312156110a2578182fd5b50508035926020909101359150565b6000602082840312156110c2578081fd5b81356001600160e01b03198116811461056f578182fd5b600076020b1b1b2b9b9a1b7b73a3937b61d1030b1b1b7bab73a1604d1b8252835161110b816017850160208801611563565b7001034b99036b4b9b9b4b733903937b6329607d1b601791840191820152835161113c816028840160208801611563565b01602801949350505050565b6001600160a01b0391909116815260200190565b901515815260200190565b90815260200190565b600060208252825180602084015261118f816040850160208701611563565b601f01601f19169190910160400192915050565b6020808252818101527f537472696e67733a20686578206c656e67746820696e73756666696369656e74604082015260600190565b60208082526023908201527f45524332303a207472616e7366657220746f20746865207a65726f206164647260408201526265737360e81b606082015260800190565b60208082526022908201527f45524332303a206275726e20616d6f756e7420657863656564732062616c616e604082015261636560f01b606082015260800190565b60208082526022908201527f45524332303a20617070726f766520746f20746865207a65726f206164647265604082015261737360f01b606082015260800190565b6020808252601d908201527f45524332303a20696e73756666696369656e7420616c6c6f77616e6365000000604082015260600190565b60208082526026908201527f45524332303a207472616e7366657220616d6f756e7420657863656564732062604082015265616c616e636560d01b606082015260800190565b60208082526036908201527f45524332305072657365744d696e7465725061757365723a206d7573742068616040820152751d99481b5a5b9d195c881c9bdb19481d1bc81b5a5b9d60521b606082015260800190565b60208082526021908201527f45524332303a206275726e2066726f6d20746865207a65726f206164647265736040820152607360f81b606082015260800190565b60208082526025908201527f45524332303a207472616e736665722066726f6d20746865207a65726f206164604082015264647265737360d81b606082015260800190565b60208082526024908201527f45524332303a20617070726f76652066726f6d20746865207a65726f206164646040820152637265737360e01b606082015260800190565b60208082526025908201527f45524332303a2064656372656173656420616c6c6f77616e63652062656c6f77604082015264207a65726f60d81b606082015260800190565b6020808252602f908201527f416363657373436f6e74726f6c3a2063616e206f6e6c792072656e6f756e636560408201526e103937b632b9903337b91039b2b63360891b606082015260800190565b6020808252601f908201527f45524332303a206d696e7420746f20746865207a65726f206164647265737300604082015260600190565b60ff91909116815260200190565b60008219821115611528576115286115e1565b500190565b6000816000190483118215151615611547576115476115e1565b500290565b60008282101561155e5761155e6115e1565b500390565b60005b8381101561157e578181015183820152602001611566565b8381111561083e5750506000910152565b60008161159e5761159e6115e1565b506000190190565b6002810460018216806115ba57607f821691505b602082108114156115db57634e487b7160e01b600052602260045260246000fd5b50919050565b634e487b7160e01b600052601160045260246000fdfe9f2df0fed2c77648de5860a4cc508cd0818c85b8b8a1ab4ceeef8d981c8956a6ddf252ad1be2c89b69c2b068fc378daa952ba7f163c4a11628f55a4df523b3efa264697066735822122063f8d6f8e815a863f74d4aed721d3a3b3c6d0e089dab3d4129269e92157bd0b564736f6c63430008000033",
  "linkReferences": {},
  "deployedLinkReferences": {}
}